{
  "abi": [
    {
      "inputs": [
        {
          "internalType": "string",
          "name": "value",
          "type": "string"
        },
        {
          "internalType": "string[4]",
          "name": "array",
          "type": "string[4]"
        }
      ],
      "name": "existsIn",
      "outputs": [
        {
          "internalType": "bool",
          "name": "",
          "type": "bool"
        }
      ],
      "stateMutability": "pure",
      "type": "function"
    }
  ],
  "bytecode": {
    "object": "0x6102e961003a600b82828239805160001a60731461002d57634e487b7160e01b600052600060045260246000fd5b30600052607381538281f3fe73000000000000000000000000000000000000000030146080604052600436106100355760003560e01c8063a6470fd61461003a575b600080fd5b61004d61004836600461010e565b610061565b604051901515815260200160405180910390f35b6000805b60048110156101015784846040516020016100819291906101a9565b604051602081830303815290604052805190602001208382600481106100a9576100a96101b9565b6020028101906100b991906101e8565b6040516020016100ca9291906101a9565b60405160208183030381529060405280519060200120036100ef576001915050610107565b806100f981610254565b915050610065565b50600090505b9392505050565b60008060006040848603121561012357600080fd5b833567ffffffffffffffff8082111561013b57600080fd5b818601915086601f83011261014f57600080fd5b81358181111561015e57600080fd5b87602082850101111561017057600080fd5b60209283019550935090850135908082111561018b57600080fd5b5084016080810186101561019e57600080fd5b809150509250925092565b8183823760009101908152919050565b7f4e487b7100000000000000000000000000000000000000000000000000000000600052603260045260246000fd5b60008083357fffffffffffffffffffffffffffffffffffffffffffffffffffffffffffffffe184360301811261021d57600080fd5b83018035915067ffffffffffffffff82111561023857600080fd5b60200191503681900382131561024d57600080fd5b9250929050565b60007fffffffffffffffffffffffffffffffffffffffffffffffffffffffffffffffff82036102ac577f4e487b7100000000000000000000000000000000000000000000000000000000600052601160045260246000fd5b506001019056fea26469706673582212209e0a14df5007acdee07d0e9e6283d672e002177910a9111ef4ae6840b10f952f64736f6c63430008100033",
    "linkReferences": {}
  },
  "methodIdentifiers": {
    "existsIn(string,string[4])": "a6470fd6"
  },
  "id": 36
}