{
  "abi": [
    {
      "inputs": [
        {
          "internalType": "address",
          "name": "value",
          "type": "address"
        },
        {
          "internalType": "address[]",
          "name": "array",
          "type": "address[]"
        }
      ],
      "name": "existsIn",
      "outputs": [
        {
          "internalType": "bool",
          "name": "",
          "type": "bool"
        }
      ],
      "stateMutability": "pure",
      "type": "function"
    },
    {
      "inputs": [
        {
          "internalType": "bytes32",
          "name": "value",
          "type": "bytes32"
        },
        {
          "internalType": "bytes32[]",
          "name": "array",
          "type": "bytes32[]"
        }
      ],
      "name": "existsIn",
      "outputs": [
        {
          "internalType": "bool",
          "name": "",
          "type": "bool"
        }
      ],
      "stateMutability": "pure",
      "type": "function"
    },
    {
      "inputs": [
        {
          "internalType": "string",
          "name": "value",
          "type": "string"
        },
        {
          "internalType": "string[4]",
          "name": "array",
          "type": "string[4]"
        }
      ],
      "name": "existsIn4",
      "outputs": [
        {
          "internalType": "bool",
          "name": "",
          "type": "bool"
        }
      ],
      "stateMutability": "pure",
      "type": "function"
    },
    {
      "inputs": [
        {
          "internalType": "address",
          "name": "value",
          "type": "address"
        },
        {
          "internalType": "address[]",
          "name": "array",
          "type": "address[]"
        }
      ],
      "name": "findIn",
      "outputs": [
        {
          "internalType": "uint256",
          "name": "",
          "type": "uint256"
        }
      ],
      "stateMutability": "pure",
      "type": "function"
    },
    {
      "inputs": [
        {
          "internalType": "bytes32",
          "name": "value",
          "type": "bytes32"
        },
        {
          "internalType": "bytes32[]",
          "name": "array",
          "type": "bytes32[]"
        }
      ],
      "name": "findIn",
      "outputs": [
        {
          "internalType": "uint256",
          "name": "",
          "type": "uint256"
        }
      ],
      "stateMutability": "pure",
      "type": "function"
    }
  ],
  "bytecode": {
    "object": "0x61070b61003a600b82828239805160001a60731461002d57634e487b7160e01b600052600060045260246000fd5b30600052607381538281f3fe73000000000000000000000000000000000000000030146080604052600436106100715760003560e01c80638572a5d31161005a5780638572a5d3146100b1578063cd23ef4c146100c4578063da92b9ed146100e557600080fd5b80632306f466146100765780636fd8c6851461009e575b600080fd5b6100896100843660046103f2565b6100f8565b60405190151581526020015b60405180910390f35b6100896100ac3660046104a2565b610179565b6100896100bf366004610530565b6101c2565b6100d76100d23660046103f2565b61026f565b604051908152602001610095565b6100d76100f33660046104a2565b6102e1565b6000805b825181101561016d578373ffffffffffffffffffffffffffffffffffffffff1683828151811061012e5761012e6105cb565b602002602001015173ffffffffffffffffffffffffffffffffffffffff160361015b576001915050610173565b80610165816105fa565b9150506100fc565b50600090505b92915050565b6000805b825181101561016d5783838281518110610199576101996105cb565b6020026020010151036101b0576001915050610173565b806101ba816105fa565b91505061017d565b6000805b60048110156102625784846040516020016101e2929190610659565b6040516020818303038152906040528051906020012083826004811061020a5761020a6105cb565b60200281019061021a9190610669565b60405160200161022b929190610659565b6040516020818303038152906040528051906020012003610250576001915050610268565b8061025a816105fa565b9150506101c6565b50600090505b9392505050565b6000805b825181101561016d578373ffffffffffffffffffffffffffffffffffffffff168382815181106102a5576102a56105cb565b602002602001015173ffffffffffffffffffffffffffffffffffffffff16036102cf579050610173565b806102d9816105fa565b915050610273565b6000805b825181101561016d5783838281518110610301576103016105cb565b602002602001015103610315579050610173565b8061031f816105fa565b9150506102e5565b803573ffffffffffffffffffffffffffffffffffffffff8116811461034b57600080fd5b919050565b7f4e487b7100000000000000000000000000000000000000000000000000000000600052604160045260246000fd5b604051601f82017fffffffffffffffffffffffffffffffffffffffffffffffffffffffffffffffe016810167ffffffffffffffff811182821017156103c6576103c6610350565b604052919050565b600067ffffffffffffffff8211156103e8576103e8610350565b5060051b60200190565b6000806040838503121561040557600080fd5b61040e83610327565b915060208084013567ffffffffffffffff81111561042b57600080fd5b8401601f8101861361043c57600080fd5b803561044f61044a826103ce565b61037f565b81815260059190911b8201830190838101908883111561046e57600080fd5b928401925b828410156104935761048484610327565b82529284019290840190610473565b80955050505050509250929050565b600080604083850312156104b557600080fd5b8235915060208084013567ffffffffffffffff8111156104d457600080fd5b8401601f810186136104e557600080fd5b80356104f361044a826103ce565b81815260059190911b8201830190838101908883111561051257600080fd5b928401925b8284101561049357833582529284019290840190610517565b60008060006040848603121561054557600080fd5b833567ffffffffffffffff8082111561055d57600080fd5b818601915086601f83011261057157600080fd5b81358181111561058057600080fd5b87602082850101111561059257600080fd5b6020928301955093509085013590808211156105ad57600080fd5b508401608081018610156105c057600080fd5b809150509250925092565b7f4e487b7100000000000000000000000000000000000000000000000000000000600052603260045260246000fd5b60007fffffffffffffffffffffffffffffffffffffffffffffffffffffffffffffffff8203610652577f4e487b7100000000000000000000000000000000000000000000000000000000600052601160045260246000fd5b5060010190565b8183823760009101908152919050565b60008083357fffffffffffffffffffffffffffffffffffffffffffffffffffffffffffffffe184360301811261069e57600080fd5b83018035915067ffffffffffffffff8211156106b957600080fd5b6020019150368190038213156106ce57600080fd5b925092905056fea26469706673582212205d2367f819219fe12bb921b58b90578b5b875088846cfc0f94e1b00052810afe64736f6c63430008100033",
    "linkReferences": {}
  },
  "methodIdentifiers": {
    "existsIn(address,address[])": "2306f466",
    "existsIn(bytes32,bytes32[])": "6fd8c685",
    "existsIn4(string,string[4])": "8572a5d3",
    "findIn(address,address[])": "cd23ef4c",
    "findIn(bytes32,bytes32[])": "da92b9ed"
  },
  "id": 34
}