{
  "abi": [
    {
      "inputs": [
        {
          "internalType": "address",
          "name": "value",
          "type": "address"
        },
        {
          "internalType": "address[]",
          "name": "array",
          "type": "address[]"
        }
      ],
      "name": "existsIn",
      "outputs": [
        {
          "internalType": "bool",
          "name": "",
          "type": "bool"
        }
      ],
      "stateMutability": "pure",
      "type": "function"
    },
    {
      "inputs": [
        {
          "internalType": "bytes32",
          "name": "value",
          "type": "bytes32"
        },
        {
          "internalType": "bytes32[]",
          "name": "array",
          "type": "bytes32[]"
        }
      ],
      "name": "existsIn",
      "outputs": [
        {
          "internalType": "bool",
          "name": "",
          "type": "bool"
        }
      ],
      "stateMutability": "pure",
      "type": "function"
    },
    {
      "inputs": [
        {
          "internalType": "string",
          "name": "value",
          "type": "string"
        },
        {
          "internalType": "string[4]",
          "name": "array",
          "type": "string[4]"
        }
      ],
      "name": "existsIn",
      "outputs": [
        {
          "internalType": "bool",
          "name": "",
          "type": "bool"
        }
      ],
      "stateMutability": "pure",
      "type": "function"
    },
    {
      "inputs": [
        {
          "internalType": "address",
          "name": "value",
          "type": "address"
        },
        {
          "internalType": "address[]",
          "name": "array",
          "type": "address[]"
        }
      ],
      "name": "findIn",
      "outputs": [
        {
          "internalType": "uint256",
          "name": "",
          "type": "uint256"
        }
      ],
      "stateMutability": "pure",
      "type": "function"
    },
    {
      "inputs": [
        {
          "internalType": "bytes32",
          "name": "value",
          "type": "bytes32"
        },
        {
          "internalType": "bytes32[]",
          "name": "array",
          "type": "bytes32[]"
        }
      ],
      "name": "findIn",
      "outputs": [
        {
          "internalType": "uint256",
          "name": "",
          "type": "uint256"
        }
      ],
      "stateMutability": "pure",
      "type": "function"
    }
  ],
  "bytecode": {
    "object": "0x61077c61003a600b82828239805160001a60731461002d57634e487b7160e01b600052600060045260246000fd5b30600052607381538281f3fe73000000000000000000000000000000000000000030146080604052600436106100715760003560e01c8063a6470fd61161005a578063a6470fd6146100b1578063cd23ef4c146100c4578063da92b9ed146100e557600080fd5b80632306f466146100765780636fd8c6851461009e575b600080fd5b610089610084366004610400565b6100f8565b60405190151581526020015b60405180910390f35b6100896100ac3660046104b0565b610179565b6100896100bf3660046105cc565b6101c2565b6100d76100d2366004610400565b610254565b604051908152602001610095565b6100d76100f33660046104b0565b6102c6565b6000805b825181101561016d578373ffffffffffffffffffffffffffffffffffffffff1683828151811061012e5761012e610689565b602002602001015173ffffffffffffffffffffffffffffffffffffffff160361015b576001915050610173565b80610165816106b8565b9150506100fc565b50600090505b92915050565b6000805b825181101561016d578383828151811061019957610199610689565b6020026020010151036101b0576001915050610173565b806101ba816106b8565b91505061017d565b6000805b600481101561016d57836040516020016101e09190610717565b6040516020818303038152906040528051906020012083826004811061020857610208610689565b602002015160405160200161021d9190610717565b6040516020818303038152906040528051906020012003610242576001915050610173565b8061024c816106b8565b9150506101c6565b6000805b825181101561016d578373ffffffffffffffffffffffffffffffffffffffff1683828151811061028a5761028a610689565b602002602001015173ffffffffffffffffffffffffffffffffffffffff16036102b4579050610173565b806102be816106b8565b915050610258565b6000805b825181101561016d57838382815181106102e6576102e6610689565b6020026020010151036102fa579050610173565b80610304816106b8565b9150506102ca565b803573ffffffffffffffffffffffffffffffffffffffff8116811461033057600080fd5b919050565b7f4e487b7100000000000000000000000000000000000000000000000000000000600052604160045260246000fd5b6040516080810167ffffffffffffffff8111828210171561038757610387610335565b60405290565b604051601f82017fffffffffffffffffffffffffffffffffffffffffffffffffffffffffffffffe016810167ffffffffffffffff811182821017156103d4576103d4610335565b604052919050565b600067ffffffffffffffff8211156103f6576103f6610335565b5060051b60200190565b6000806040838503121561041357600080fd5b61041c8361030c565b915060208084013567ffffffffffffffff81111561043957600080fd5b8401601f8101861361044a57600080fd5b803561045d610458826103dc565b61038d565b81815260059190911b8201830190838101908883111561047c57600080fd5b928401925b828410156104a1576104928461030c565b82529284019290840190610481565b80955050505050509250929050565b600080604083850312156104c357600080fd5b8235915060208084013567ffffffffffffffff8111156104e257600080fd5b8401601f810186136104f357600080fd5b8035610501610458826103dc565b81815260059190911b8201830190838101908883111561052057600080fd5b928401925b828410156104a157833582529284019290840190610525565b600082601f83011261054f57600080fd5b813567ffffffffffffffff81111561056957610569610335565b61059a60207fffffffffffffffffffffffffffffffffffffffffffffffffffffffffffffffe0601f8401160161038d565b8181528460208386010111156105af57600080fd5b816020850160208301376000918101602001919091529392505050565b600080604083850312156105df57600080fd5b823567ffffffffffffffff808211156105f757600080fd5b6106038683870161053e565b935060209150818501358181111561061a57600080fd5b8501601f8101871361062b57600080fd5b610633610364565b80608083018981111561064557600080fd5b835b818110156106795780358681111561065f5760008081fd5b61066b8c82880161053e565b855250928601928601610647565b5096999098509650505050505050565b7f4e487b7100000000000000000000000000000000000000000000000000000000600052603260045260246000fd5b60007fffffffffffffffffffffffffffffffffffffffffffffffffffffffffffffffff8203610710577f4e487b7100000000000000000000000000000000000000000000000000000000600052601160045260246000fd5b5060010190565b6000825160005b81811015610738576020818601810151858301520161071e565b50600092019182525091905056fea26469706673582212209af1bb40ac8b60674e9e18a7d80b2644fcb1a7169678325f6ca2a14a65f1ae7664736f6c63430008100033",
    "linkReferences": {}
  },
  "methodIdentifiers": {
    "existsIn(address,address[])": "2306f466",
    "existsIn(bytes32,bytes32[])": "6fd8c685",
    "existsIn(string,string[4])": "a6470fd6",
    "findIn(address,address[])": "cd23ef4c",
    "findIn(bytes32,bytes32[])": "da92b9ed"
  },
  "id": 37
}