{
  "abi": [
    {
      "inputs": [
        {
          "internalType": "address",
          "name": "value",
          "type": "address"
        },
        {
          "internalType": "address[]",
          "name": "array",
          "type": "address[]"
        }
      ],
      "name": "existsIn",
      "outputs": [
        {
          "internalType": "bool",
          "name": "",
          "type": "bool"
        }
      ],
      "stateMutability": "pure",
      "type": "function"
    },
    {
      "inputs": [
        {
          "internalType": "uint8",
          "name": "value",
          "type": "uint8"
        },
        {
          "internalType": "uint8[]",
          "name": "array",
          "type": "uint8[]"
        }
      ],
      "name": "existsIn",
      "outputs": [
        {
          "internalType": "bool",
          "name": "",
          "type": "bool"
        }
      ],
      "stateMutability": "pure",
      "type": "function"
    },
    {
      "inputs": [
        {
          "internalType": "bytes32",
          "name": "value",
          "type": "bytes32"
        },
        {
          "internalType": "bytes32[]",
          "name": "array",
          "type": "bytes32[]"
        }
      ],
      "name": "existsIn",
      "outputs": [
        {
          "internalType": "bool",
          "name": "",
          "type": "bool"
        }
      ],
      "stateMutability": "pure",
      "type": "function"
    },
    {
      "inputs": [
        {
          "internalType": "string",
          "name": "value",
          "type": "string"
        },
        {
          "internalType": "string[4]",
          "name": "array",
          "type": "string[4]"
        }
      ],
      "name": "existsIn",
      "outputs": [
        {
          "internalType": "bool",
          "name": "",
          "type": "bool"
        }
      ],
      "stateMutability": "pure",
      "type": "function"
    },
    {
      "inputs": [
        {
          "internalType": "uint8",
          "name": "value",
          "type": "uint8"
        },
        {
          "internalType": "uint8[]",
          "name": "array",
          "type": "uint8[]"
        }
      ],
      "name": "findIn",
      "outputs": [
        {
          "internalType": "uint256",
          "name": "",
          "type": "uint256"
        }
      ],
      "stateMutability": "pure",
      "type": "function"
    },
    {
      "inputs": [
        {
          "internalType": "address",
          "name": "value",
          "type": "address"
        },
        {
          "internalType": "address[]",
          "name": "array",
          "type": "address[]"
        }
      ],
      "name": "findIn",
      "outputs": [
        {
          "internalType": "uint256",
          "name": "",
          "type": "uint256"
        }
      ],
      "stateMutability": "pure",
      "type": "function"
    },
    {
      "inputs": [
        {
          "internalType": "bytes32",
          "name": "value",
          "type": "bytes32"
        },
        {
          "internalType": "bytes32[]",
          "name": "array",
          "type": "bytes32[]"
        }
      ],
      "name": "findIn",
      "outputs": [
        {
          "internalType": "uint256",
          "name": "",
          "type": "uint256"
        }
      ],
      "stateMutability": "pure",
      "type": "function"
    }
  ],
  "bytecode": {
    "object": "0x61090061003a600b82828239805160001a60731461002d57634e487b7160e01b600052600060045260246000fd5b30600052607381538281f3fe73000000000000000000000000000000000000000030146080604052600436106100875760003560e01c80638ab65ceb116100655780638ab65ceb146100da578063a6470fd6146100fb578063cd23ef4c1461010e578063da92b9ed1461012157600080fd5b80632306f4661461008c57806326c6421b146100b45780636fd8c685146100c7575b600080fd5b61009f61009a3660046104d7565b610134565b60405190151581526020015b60405180910390f35b61009f6100c2366004610598565b6101b5565b61009f6100d5366004610634565b610204565b6100ed6100e8366004610598565b61024d565b6040519081526020016100ab565b61009f610109366004610750565b610299565b6100ed61011c3660046104d7565b61032b565b6100ed61012f366004610634565b61039d565b6000805b82518110156101a9578373ffffffffffffffffffffffffffffffffffffffff1683828151811061016a5761016a61080d565b602002602001015173ffffffffffffffffffffffffffffffffffffffff16036101975760019150506101af565b806101a18161083c565b915050610138565b50600090505b92915050565b6000805b82518110156101a9578360ff168382815181106101d8576101d861080d565b602002602001015160ff16036101f25760019150506101af565b806101fc8161083c565b9150506101b9565b6000805b82518110156101a957838382815181106102245761022461080d565b60200260200101510361023b5760019150506101af565b806102458161083c565b915050610208565b6000805b82518110156101a9578360ff168382815181106102705761027061080d565b602002602001015160ff16036102875790506101af565b806102918161083c565b915050610251565b6000805b60048110156101a957836040516020016102b7919061089b565b604051602081830303815290604052805190602001208382600481106102df576102df61080d565b60200201516040516020016102f4919061089b565b60405160208183030381529060405280519060200120036103195760019150506101af565b806103238161083c565b91505061029d565b6000805b82518110156101a9578373ffffffffffffffffffffffffffffffffffffffff168382815181106103615761036161080d565b602002602001015173ffffffffffffffffffffffffffffffffffffffff160361038b5790506101af565b806103958161083c565b91505061032f565b6000805b82518110156101a957838382815181106103bd576103bd61080d565b6020026020010151036103d15790506101af565b806103db8161083c565b9150506103a1565b803573ffffffffffffffffffffffffffffffffffffffff8116811461040757600080fd5b919050565b7f4e487b7100000000000000000000000000000000000000000000000000000000600052604160045260246000fd5b6040516080810167ffffffffffffffff8111828210171561045e5761045e61040c565b60405290565b604051601f82017fffffffffffffffffffffffffffffffffffffffffffffffffffffffffffffffe016810167ffffffffffffffff811182821017156104ab576104ab61040c565b604052919050565b600067ffffffffffffffff8211156104cd576104cd61040c565b5060051b60200190565b600080604083850312156104ea57600080fd5b6104f3836103e3565b915060208084013567ffffffffffffffff81111561051057600080fd5b8401601f8101861361052157600080fd5b803561053461052f826104b3565b610464565b81815260059190911b8201830190838101908883111561055357600080fd5b928401925b8284101561057857610569846103e3565b82529284019290840190610558565b80955050505050509250929050565b803560ff8116811461040757600080fd5b600080604083850312156105ab57600080fd5b6105b483610587565b915060208084013567ffffffffffffffff8111156105d157600080fd5b8401601f810186136105e257600080fd5b80356105f061052f826104b3565b81815260059190911b8201830190838101908883111561060f57600080fd5b928401925b828410156105785761062584610587565b82529284019290840190610614565b6000806040838503121561064757600080fd5b8235915060208084013567ffffffffffffffff81111561066657600080fd5b8401601f8101861361067757600080fd5b803561068561052f826104b3565b81815260059190911b820183019083810190888311156106a457600080fd5b928401925b82841015610578578335825292840192908401906106a9565b600082601f8301126106d357600080fd5b813567ffffffffffffffff8111156106ed576106ed61040c565b61071e60207fffffffffffffffffffffffffffffffffffffffffffffffffffffffffffffffe0601f84011601610464565b81815284602083860101111561073357600080fd5b816020850160208301376000918101602001919091529392505050565b6000806040838503121561076357600080fd5b823567ffffffffffffffff8082111561077b57600080fd5b610787868387016106c2565b935060209150818501358181111561079e57600080fd5b8501601f810187136107af57600080fd5b6107b761043b565b8060808301898111156107c957600080fd5b835b818110156107fd578035868111156107e35760008081fd5b6107ef8c8288016106c2565b8552509286019286016107cb565b5096999098509650505050505050565b7f4e487b7100000000000000000000000000000000000000000000000000000000600052603260045260246000fd5b60007fffffffffffffffffffffffffffffffffffffffffffffffffffffffffffffffff8203610894577f4e487b7100000000000000000000000000000000000000000000000000000000600052601160045260246000fd5b5060010190565b6000825160005b818110156108bc57602081860181015185830152016108a2565b50600092019182525091905056fea264697066735822122017ab5d8fe3afab6517c96392026c985ef9f62bfca462f737a079d4552b48346164736f6c63430008100033",
    "linkReferences": {}
  },
  "methodIdentifiers": {
    "existsIn(address,address[])": "2306f466",
    "existsIn(bytes32,bytes32[])": "6fd8c685",
    "existsIn(string,string[4])": "a6470fd6",
    "existsIn(uint8,uint8[])": "26c6421b",
    "findIn(address,address[])": "cd23ef4c",
    "findIn(bytes32,bytes32[])": "da92b9ed",
    "findIn(uint8,uint8[])": "8ab65ceb"
  },
  "id": 41
}