{
  "abi": [
    {
      "inputs": [
        {
          "internalType": "address",
          "name": "__registry",
          "type": "address"
        },
        {
          "internalType": "address",
          "name": "_registry",
          "type": "address"
        },
        {
          "internalType": "address",
          "name": "_helix2",
          "type": "address"
        }
      ],
      "stateMutability": "nonpayable",
      "type": "constructor"
    },
    {
      "inputs": [
        {
          "internalType": "address",
          "name": "_dev",
          "type": "address"
        },
        {
          "internalType": "address",
          "name": "_you",
          "type": "address"
        }
      ],
      "name": "OnlyDev",
      "type": "error"
    },
    {
      "anonymous": false,
      "inputs": [
        {
          "indexed": false,
          "internalType": "address",
          "name": "Dev",
          "type": "address"
        },
        {
          "indexed": false,
          "internalType": "address",
          "name": "newDev",
          "type": "address"
        }
      ],
      "name": "NewDev",
      "type": "event"
    },
    {
      "anonymous": false,
      "inputs": [
        {
          "indexed": false,
          "internalType": "string",
          "name": "_alias",
          "type": "string"
        },
        {
          "indexed": true,
          "internalType": "bytes32",
          "name": "polyhash",
          "type": "bytes32"
        },
        {
          "indexed": false,
          "internalType": "bytes32",
          "name": "cation",
          "type": "bytes32"
        }
      ],
      "name": "NewPolycule",
      "type": "event"
    },
    {
      "inputs": [],
      "name": "Dev",
      "outputs": [
        {
          "internalType": "address",
          "name": "",
          "type": "address"
        }
      ],
      "stateMutability": "view",
      "type": "function"
    },
    {
      "inputs": [],
      "name": "HELIX2",
      "outputs": [
        {
          "internalType": "contract iHELIX2",
          "name": "",
          "type": "address"
        }
      ],
      "stateMutability": "view",
      "type": "function"
    },
    {
      "inputs": [],
      "name": "NAMES",
      "outputs": [
        {
          "internalType": "contract iNAME",
          "name": "",
          "type": "address"
        }
      ],
      "stateMutability": "view",
      "type": "function"
    },
    {
      "inputs": [],
      "name": "POLYCULES",
      "outputs": [
        {
          "internalType": "contract iPOLYCULE",
          "name": "",
          "type": "address"
        }
      ],
      "stateMutability": "view",
      "type": "function"
    },
    {
      "inputs": [],
      "name": "active",
      "outputs": [
        {
          "internalType": "bool",
          "name": "",
          "type": "bool"
        }
      ],
      "stateMutability": "view",
      "type": "function"
    },
    {
      "inputs": [],
      "name": "basePrice",
      "outputs": [
        {
          "internalType": "uint256",
          "name": "",
          "type": "uint256"
        }
      ],
      "stateMutability": "view",
      "type": "function"
    },
    {
      "inputs": [
        {
          "internalType": "address",
          "name": "newDev",
          "type": "address"
        }
      ],
      "name": "changeDev",
      "outputs": [],
      "stateMutability": "nonpayable",
      "type": "function"
    },
    {
      "inputs": [],
      "name": "defaultLifespan",
      "outputs": [
        {
          "internalType": "uint256",
          "name": "",
          "type": "uint256"
        }
      ],
      "stateMutability": "view",
      "type": "function"
    },
    {
      "inputs": [],
      "name": "defaultResolver",
      "outputs": [
        {
          "internalType": "address",
          "name": "",
          "type": "address"
        }
      ],
      "stateMutability": "view",
      "type": "function"
    },
    {
      "inputs": [
        {
          "internalType": "uint256",
          "name": "",
          "type": "uint256"
        }
      ],
      "name": "illegalBlocks",
      "outputs": [
        {
          "internalType": "string",
          "name": "",
          "type": "string"
        }
      ],
      "stateMutability": "view",
      "type": "function"
    },
    {
      "inputs": [
        {
          "internalType": "string",
          "name": "_alias",
          "type": "string"
        },
        {
          "internalType": "bytes32",
          "name": "cation",
          "type": "bytes32"
        },
        {
          "internalType": "bytes32[]",
          "name": "anion",
          "type": "bytes32[]"
        },
        {
          "internalType": "uint256",
          "name": "lifespan",
          "type": "uint256"
        },
        {
          "internalType": "address[]",
          "name": "config",
          "type": "address[]"
        },
        {
          "internalType": "uint8[]",
          "name": "rules",
          "type": "uint8[]"
        }
      ],
      "name": "newPolycule",
      "outputs": [
        {
          "internalType": "bytes32",
          "name": "",
          "type": "bytes32"
        }
      ],
      "stateMutability": "payable",
      "type": "function"
    },
    {
      "inputs": [],
      "name": "polycule",
      "outputs": [
        {
          "internalType": "string",
          "name": "",
          "type": "string"
        }
      ],
      "stateMutability": "view",
      "type": "function"
    },
    {
      "inputs": [],
      "name": "roothash",
      "outputs": [
        {
          "internalType": "bytes32",
          "name": "",
          "type": "bytes32"
        }
      ],
      "stateMutability": "view",
      "type": "function"
    },
    {
      "inputs": [
        {
          "internalType": "uint256",
          "name": "_lifespan",
          "type": "uint256"
        }
      ],
      "name": "setDefaultLifespan",
      "outputs": [],
      "stateMutability": "nonpayable",
      "type": "function"
    },
    {
      "inputs": [
        {
          "internalType": "address",
          "name": "_resolver",
          "type": "address"
        }
      ],
      "name": "setDefaultResolver",
      "outputs": [],
      "stateMutability": "nonpayable",
      "type": "function"
    },
    {
      "inputs": [],
      "name": "sizeLimit",
      "outputs": [
        {
          "internalType": "uint256",
          "name": "",
          "type": "uint256"
        }
      ],
      "stateMutability": "view",
      "type": "function"
    },
    {
      "inputs": [],
      "name": "symbol",
      "outputs": [
        {
          "internalType": "string",
          "name": "",
          "type": "string"
        }
      ],
      "stateMutability": "view",
      "type": "function"
    }
  ],
  "bytecode": {
    "object": "0x6080604052600d805460ff60a01b1916600160a01b1790553480156200002457600080fd5b5060405162001e0a38038062001e0a8339810160408190526200004791620003e5565b600a80546001600160a01b038084166001600160a01b03199283168117909355600b8054868316908416179055600c8054918716919092161790556040805163bd9a548b60e01b8152905163bd9a548b916004808201926080929091908290030181865afa158015620000be573d6000803e3d6000fd5b505050506040513d601f19601f82011682018060405250810190620000e49190620004a3565b60600151600355600a546040805163335076e760e11b815290516001600160a01b03909216916366a0edce916004808201926080929091908290030181865afa15801562000136573d6000803e3d6000fd5b505050506040513d601f19601f820116820180604052508101906200015c9190620004a3565b606001516004908155600a5460408051637615671560e11b815290516001600160a01b039092169263ec2ace2a9282820192608092908290030181865afa158015620001ac573d6000803e3d6000fd5b505050506040513d601f19601f82011682018060405250810190620001d29190620004a3565b60600151600255600a54604080516330b5337f60e21b815290516001600160a01b039092169163c2d4cdfc916004808201926000929091908290030181865afa15801562000224573d6000803e3d6000fd5b505050506040513d6000823e601f3d908101601f191682016040526200024e91908101906200050a565b6200025e906006906004620002fe565b50600a60009054906101000a90046001600160a01b03166001600160a01b031663642a8ed66040518163ffffffff1660e01b8152600401608060405180830381865afa158015620002b3573d6000803e3d6000fd5b505050506040513d601f19601f82011682018060405250810190620002d99190620004a3565b600360200201516005555050600080546001600160a01b03191633179055506200077a565b82600481019282156200033c579160200282015b828111156200033c57825182906200032b9082620006ae565b509160200191906001019062000312565b506200034a9291506200034e565b5090565b808211156200034a5760006200036582826200036f565b506001016200034e565b5080546200037d906200061f565b6000825580601f106200038e575050565b601f016020900490600052602060002090810190620003ae9190620003b1565b50565b5b808211156200034a5760008155600101620003b2565b80516001600160a01b0381168114620003e057600080fd5b919050565b600080600060608486031215620003fb57600080fd5b6200040684620003c8565b92506200041660208501620003c8565b91506200042660408501620003c8565b90509250925092565b634e487b7160e01b600052604160045260246000fd5b604051608081016001600160401b03811182821017156200046a576200046a6200042f565b60405290565b604051601f8201601f191681016001600160401b03811182821017156200049b576200049b6200042f565b604052919050565b600060808284031215620004b657600080fd5b82601f830112620004c657600080fd5b620004d062000445565b806080840185811115620004e357600080fd5b845b81811015620004ff578051845260209384019301620004e5565b509095945050505050565b600060208083850312156200051e57600080fd5b82516001600160401b03808211156200053657600080fd5b8185019150601f86818401126200054c57600080fd5b6200055662000445565b8060808501898111156200056957600080fd5b855b818110156200061057805186811115620005855760008081fd5b87018581018c13620005975760008081fd5b805187811115620005ac57620005ac6200042f565b620005bf818801601f19168b0162000470565b8181528d8b838501011115620005d55760008081fd5b60005b82811015620005f5578381018c01518282018d01528b01620005d8565b5060009181018b01919091528552509287019287016200056b565b50909998505050505050505050565b600181811c908216806200063457607f821691505b6020821081036200065557634e487b7160e01b600052602260045260246000fd5b50919050565b601f821115620006a957600081815260208120601f850160051c81016020861015620006845750805b601f850160051c820191505b81811015620006a55782815560010162000690565b5050505b505050565b81516001600160401b03811115620006ca57620006ca6200042f565b620006e281620006db84546200061f565b846200065b565b602080601f8311600181146200071a5760008415620007015750858301515b600019600386901b1c1916600185901b178555620006a5565b600085815260208120601f198616915b828110156200074b578886015182559484019460019091019084016200072a565b50858210156200076a5787850151600019600388901b60f8161c191681555b5050505050600190811b01905550565b611680806200078a6000396000f3fe60806040526004361061010e5760003560e01c806339506308116100a557806395d89b4111610074578063c66485b211610059578063c66485b214610397578063c7876ea4146103b7578063d9ebda12146103cd57600080fd5b806395d89b4114610321578063b782426e1461036a57600080fd5b8063395063081461029257806380b29beb146102b4578063828eab0e146102d457806388a8c95c1461030157600080fd5b8063210fd271116100e1578063210fd271146101fd578063251c942214610213578063303c128f146102295780633823c6c31461027f57600080fd5b806301e51ae81461011357806302fb0c5e1461016a57806305e84aa0146101ac5780630e6c0bdb146101d9575b600080fd5b34801561011f57600080fd5b506000546101409073ffffffffffffffffffffffffffffffffffffffff1681565b60405173ffffffffffffffffffffffffffffffffffffffff90911681526020015b60405180910390f35b34801561017657600080fd5b50600d5461019c9074010000000000000000000000000000000000000000900460ff1681565b6040519015158152602001610161565b3480156101b857600080fd5b50600b546101409073ffffffffffffffffffffffffffffffffffffffff1681565b3480156101e557600080fd5b506101ef60025481565b604051908152602001610161565b34801561020957600080fd5b506101ef60045481565b34801561021f57600080fd5b506101ef60055481565b34801561023557600080fd5b506102726040518060400160405280601781526020017f48656c69783220506f6c7963756c65205365727669636500000000000000000081525081565b6040516101619190610f78565b6101ef61028d3660046111e5565b6103fa565b34801561029e57600080fd5b506102b26102ad3660046112a4565b610c48565b005b3480156102c057600080fd5b506102726102cf3660046112a4565b610cc0565b3480156102e057600080fd5b50600d546101409073ffffffffffffffffffffffffffffffffffffffff1681565b34801561030d57600080fd5b506102b261031c3660046112bd565b610d60565b34801561032d57600080fd5b506102726040518060400160405280600381526020017f485053000000000000000000000000000000000000000000000000000000000081525081565b34801561037657600080fd5b50600a546101409073ffffffffffffffffffffffffffffffffffffffff1681565b3480156103a357600080fd5b506102b26103b23660046112bd565b610e6e565b3480156103c357600080fd5b506101ef60035481565b3480156103d957600080fd5b50600c546101409073ffffffffffffffffffffffffffffffffffffffff1681565b60008660045481511061046e576040517f08c379a000000000000000000000000000000000000000000000000000000000815260206004820152600d60248201527f494c4c4547414c5f4c4142454c0000000000000000000000000000000000000060448201526064015b60405180910390fd5b6040517fa6470fd600000000000000000000000000000000000000000000000000000000815273__$47e4ffaaf323c41735ff299f8946896ce0$__9063a6470fd6906104c190849060069060040161132d565b602060405180830381865af41580156104de573d6000803e3d6000fd5b505050506040513d601f19601f82011682018060405250810190610502919061145b565b15610569576040517f08c379a000000000000000000000000000000000000000000000000000000000815260206004820152600d60248201527f494c4c4547414c5f4348415253000000000000000000000000000000000000006044820152606401610465565b858480518251146105d6576040517f08c379a000000000000000000000000000000000000000000000000000000000815260206004820152600760248201527f4241445f4d4150000000000000000000000000000000000000000000000000006044820152606401610465565b600b546040517f02571be3000000000000000000000000000000000000000000000000000000008152600481018b905260009173ffffffffffffffffffffffffffffffffffffffff16906302571be390602401602060405180830381865afa158015610646573d6000803e3d6000fd5b505050506040513d601f19601f8201168201806040525081019061066a919061147d565b90506002548810156106d8576040517f08c379a000000000000000000000000000000000000000000000000000000000815260206004820152601260248201527f4c4946455350414e5f544f4f5f53484f525400000000000000000000000000006044820152606401610465565b876003546106e691906114c9565b34101561074f576040517f08c379a000000000000000000000000000000000000000000000000000000000815260206004820152601260248201527f494e53554646494349454e545f455448455200000000000000000000000000006044820152606401610465565b60008b6040516020016107629190611506565b60408051601f1981840301815282825280516020918201206005549184018f90529183015260608201819052915060009060800160408051808303601f19018152908290528051602090910120600c547ff79fe5380000000000000000000000000000000000000000000000000000000083526004830182905290925073ffffffffffffffffffffffffffffffffffffffff169063f79fe53890602401602060405180830381865afa15801561081c573d6000803e3d6000fd5b505050506040513d601f19601f82011682018060405250810190610840919061145b565b156108a7576040517f08c379a000000000000000000000000000000000000000000000000000000000815260206004820152600f60248201527f504f4c5943554c455f45584953545300000000000000000000000000000000006044820152606401610465565b600c546040517f2f92673200000000000000000000000000000000000000000000000000000000815260048101839052602481018e905273ffffffffffffffffffffffffffffffffffffffff90911690632f92673290604401600060405180830381600087803b15801561091a57600080fd5b505af115801561092e573d6000803e3d6000fd5b5050600c546040517f250548b900000000000000000000000000000000000000000000000000000000815273ffffffffffffffffffffffffffffffffffffffff909116925063250548b9915061098e9084908f908e908e90600401611560565b600060405180830381600087803b1580156109a857600080fd5b505af11580156109bc573d6000803e3d6000fd5b5050600c5473ffffffffffffffffffffffffffffffffffffffff1691506339de64699050826109eb8d4261160f565b6040517fffffffff0000000000000000000000000000000000000000000000000000000060e085901b16815260048101929092526024820152604401600060405180830381600087803b158015610a4157600080fd5b505af1158015610a55573d6000803e3d6000fd5b5050600c546040517fd31569050000000000000000000000000000000000000000000000000000000081526004810185905273ffffffffffffffffffffffffffffffffffffffff8781166024830152909116925063d31569059150604401600060405180830381600087803b158015610acd57600080fd5b505af1158015610ae1573d6000803e3d6000fd5b5050600c54600d546040517f1896f70a0000000000000000000000000000000000000000000000000000000081526004810186905273ffffffffffffffffffffffffffffffffffffffff918216602482015291169250631896f70a9150604401600060405180830381600087803b158015610b5b57600080fd5b505af1158015610b6f573d6000803e3d6000fd5b5050600c546040517f1f06e91c000000000000000000000000000000000000000000000000000000008152600481018590526024810186905273ffffffffffffffffffffffffffffffffffffffff9091169250631f06e91c9150604401600060405180830381600087803b158015610be657600080fd5b505af1158015610bfa573d6000803e3d6000fd5b50505050807fd7a9d3cbed5c74971bf7c5fcf78aaddd30d375cbecfc4c5dea6189bf5d2235fc8e8e604051610c30929190611628565b60405180910390a29c9b505050505050505050505050565b60005473ffffffffffffffffffffffffffffffffffffffff163314610cbb576000546040517f8ea458f600000000000000000000000000000000000000000000000000000000815273ffffffffffffffffffffffffffffffffffffffff9091166004820152336024820152604401610465565b600255565b60068160048110610cd057600080fd5b018054909150610cdf906112da565b80601f0160208091040260200160405190810160405280929190818152602001828054610d0b906112da565b8015610d585780601f10610d2d57610100808354040283529160200191610d58565b820191906000526020600020905b815481529060010190602001808311610d3b57829003601f168201915b505050505081565b60005473ffffffffffffffffffffffffffffffffffffffff163314610dd3576000546040517f8ea458f600000000000000000000000000000000000000000000000000000000815273ffffffffffffffffffffffffffffffffffffffff9091166004820152336024820152604401610465565b6000546040805173ffffffffffffffffffffffffffffffffffffffff928316815291831660208301527fdec101f106d4fc7c85791843e64b198248c822298e3ed7046231d33f7783d816910160405180910390a1600080547fffffffffffffffffffffffff00000000000000000000000000000000000000001673ffffffffffffffffffffffffffffffffffffffff92909216919091179055565b60005473ffffffffffffffffffffffffffffffffffffffff163314610ee1576000546040517f8ea458f600000000000000000000000000000000000000000000000000000000815273ffffffffffffffffffffffffffffffffffffffff9091166004820152336024820152604401610465565b600d80547fffffffffffffffffffffffff00000000000000000000000000000000000000001673ffffffffffffffffffffffffffffffffffffffff92909216919091179055565b60005b83811015610f43578181015183820152602001610f2b565b50506000910152565b60008151808452610f64816020860160208601610f28565b601f01601f19169290920160200192915050565b602081526000610f8b6020830184610f4c565b9392505050565b7f4e487b7100000000000000000000000000000000000000000000000000000000600052604160045260246000fd5b604051601f8201601f1916810167ffffffffffffffff81118282101715610fea57610fea610f92565b604052919050565b600082601f83011261100357600080fd5b813567ffffffffffffffff81111561101d5761101d610f92565b6110306020601f19601f84011601610fc1565b81815284602083860101111561104557600080fd5b816020850160208301376000918101602001919091529392505050565b600067ffffffffffffffff82111561107c5761107c610f92565b5060051b60200190565b600082601f83011261109757600080fd5b813560206110ac6110a783611062565b610fc1565b82815260059290921b840181019181810190868411156110cb57600080fd5b8286015b848110156110e657803583529183019183016110cf565b509695505050505050565b73ffffffffffffffffffffffffffffffffffffffff8116811461111357600080fd5b50565b600082601f83011261112757600080fd5b813560206111376110a783611062565b82815260059290921b8401810191818101908684111561115657600080fd5b8286015b848110156110e657803561116d816110f1565b835291830191830161115a565b600082601f83011261118b57600080fd5b8135602061119b6110a783611062565b82815260059290921b840181019181810190868411156111ba57600080fd5b8286015b848110156110e657803560ff811681146111d85760008081fd5b83529183019183016111be565b60008060008060008060c087890312156111fe57600080fd5b863567ffffffffffffffff8082111561121657600080fd5b6112228a838b01610ff2565b975060208901359650604089013591508082111561123f57600080fd5b61124b8a838b01611086565b955060608901359450608089013591508082111561126857600080fd5b6112748a838b01611116565b935060a089013591508082111561128a57600080fd5b5061129789828a0161117a565b9150509295509295509295565b6000602082840312156112b657600080fd5b5035919050565b6000602082840312156112cf57600080fd5b8135610f8b816110f1565b600181811c908216806112ee57607f821691505b602082108103611327577f4e487b7100000000000000000000000000000000000000000000000000000000600052602260045260246000fd5b50919050565b6040815260006113406040830185610f4c565b60208382038185015281829050608083018660005b6004808210611364575061144d565b86840385528254600090600181811c908083168061138357607f831692505b8a831081036113b8577f4e487b7100000000000000000000000000000000000000000000000000000000855260228652602485fd5b8289526020890195508080156113d5576001811461140957611434565b7fffffffffffffffffffffffffffffffffffffffffffffffffffffffffffffff008516875283151560051b87019550611434565b60008981526020902060005b8581101561142e57815489820152908401908d01611415565b88019650505b5050978901979296505050929092019150600101611355565b509098975050505050505050565b60006020828403121561146d57600080fd5b81518015158114610f8b57600080fd5b60006020828403121561148f57600080fd5b8151610f8b816110f1565b7f4e487b7100000000000000000000000000000000000000000000000000000000600052601160045260246000fd5b6000817fffffffffffffffffffffffffffffffffffffffffffffffffffffffffffffffff04831182151516156115015761150161149a565b500290565b60008251611518818460208701610f28565b9190910192915050565b600081518084526020808501945080840160005b8381101561155557815160ff1687529582019590820190600101611536565b509495945050505050565b600060808201868352602060808185015281875180845260a086019150828901935060005b818110156115a157845183529383019391830191600101611585565b50508481036040860152865180825290820192508187019060005b818110156115ee57825173ffffffffffffffffffffffffffffffffffffffff16855293830193918301916001016115bc565b5050505082810360608401526116048185611522565b979650505050505050565b808201808211156116225761162261149a565b92915050565b60408152600061163b6040830185610f4c565b9050826020830152939250505056fea2646970667358221220b2a155bbf0190147fcd01a2dc0533b5c01a304889d92a22545a734715f1132ca64736f6c63430008100033",
    "linkReferences": {
      "src/Utils/LibString.sol": {
        "LibString": [
          {
            "start": 3104,
            "length": 20
          }
        ]
      }
    }
  },
  "methodIdentifiers": {
    "Dev()": "01e51ae8",
    "HELIX2()": "b782426e",
    "NAMES()": "05e84aa0",
    "POLYCULES()": "d9ebda12",
    "active()": "02fb0c5e",
    "basePrice()": "c7876ea4",
    "changeDev(address)": "88a8c95c",
    "defaultLifespan()": "0e6c0bdb",
    "defaultResolver()": "828eab0e",
    "illegalBlocks(uint256)": "80b29beb",
    "newPolycule(string,bytes32,bytes32[],uint256,address[],uint8[])": "3823c6c3",
    "polycule()": "303c128f",
    "roothash()": "251c9422",
    "setDefaultLifespan(uint256)": "39506308",
    "setDefaultResolver(address)": "c66485b2",
    "sizeLimit()": "210fd271",
    "symbol()": "95d89b41"
  },
  "id": 38
}