{
  "abi": [
    {
      "inputs": [
        {
          "internalType": "address",
          "name": "__registry",
          "type": "address"
        },
        {
          "internalType": "address",
          "name": "_registry",
          "type": "address"
        },
        {
          "internalType": "address",
          "name": "_helix2",
          "type": "address"
        }
      ],
      "stateMutability": "nonpayable",
      "type": "constructor"
    },
    {
      "inputs": [
        {
          "internalType": "address",
          "name": "_dev",
          "type": "address"
        },
        {
          "internalType": "address",
          "name": "_you",
          "type": "address"
        }
      ],
      "name": "OnlyDev",
      "type": "error"
    },
    {
      "anonymous": false,
      "inputs": [
        {
          "indexed": false,
          "internalType": "address",
          "name": "Dev",
          "type": "address"
        },
        {
          "indexed": false,
          "internalType": "address",
          "name": "newDev",
          "type": "address"
        }
      ],
      "name": "NewDev",
      "type": "event"
    },
    {
      "anonymous": false,
      "inputs": [
        {
          "indexed": true,
          "internalType": "bytes32",
          "name": "polyhash",
          "type": "bytes32"
        },
        {
          "indexed": false,
          "internalType": "bytes32",
          "name": "cation",
          "type": "bytes32"
        }
      ],
      "name": "NewPolycule",
      "type": "event"
    },
    {
      "inputs": [],
      "name": "Dev",
      "outputs": [
        {
          "internalType": "address",
          "name": "",
          "type": "address"
        }
      ],
      "stateMutability": "view",
      "type": "function"
    },
    {
      "inputs": [],
      "name": "HELIX2",
      "outputs": [
        {
          "internalType": "contract iHELIX2",
          "name": "",
          "type": "address"
        }
      ],
      "stateMutability": "view",
      "type": "function"
    },
    {
      "inputs": [],
      "name": "NAMES",
      "outputs": [
        {
          "internalType": "contract iNAME",
          "name": "",
          "type": "address"
        }
      ],
      "stateMutability": "view",
      "type": "function"
    },
    {
      "inputs": [],
      "name": "POLYCULES",
      "outputs": [
        {
          "internalType": "contract iPOLYCULE",
          "name": "",
          "type": "address"
        }
      ],
      "stateMutability": "view",
      "type": "function"
    },
    {
      "inputs": [],
      "name": "active",
      "outputs": [
        {
          "internalType": "bool",
          "name": "",
          "type": "bool"
        }
      ],
      "stateMutability": "view",
      "type": "function"
    },
    {
      "inputs": [],
      "name": "basePrice",
      "outputs": [
        {
          "internalType": "uint256",
          "name": "",
          "type": "uint256"
        }
      ],
      "stateMutability": "view",
      "type": "function"
    },
    {
      "inputs": [
        {
          "internalType": "address",
          "name": "newDev",
          "type": "address"
        }
      ],
      "name": "changeDev",
      "outputs": [],
      "stateMutability": "nonpayable",
      "type": "function"
    },
    {
      "inputs": [],
      "name": "defaultLifespan",
      "outputs": [
        {
          "internalType": "uint256",
          "name": "",
          "type": "uint256"
        }
      ],
      "stateMutability": "view",
      "type": "function"
    },
    {
      "inputs": [],
      "name": "defaultResolver",
      "outputs": [
        {
          "internalType": "address",
          "name": "",
          "type": "address"
        }
      ],
      "stateMutability": "view",
      "type": "function"
    },
    {
      "inputs": [
        {
          "internalType": "uint256",
          "name": "",
          "type": "uint256"
        }
      ],
      "name": "illegalBlocks",
      "outputs": [
        {
          "internalType": "string",
          "name": "",
          "type": "string"
        }
      ],
      "stateMutability": "view",
      "type": "function"
    },
    {
      "inputs": [
        {
          "internalType": "string",
          "name": "_alias",
          "type": "string"
        },
        {
          "internalType": "bytes32",
          "name": "cation",
          "type": "bytes32"
        },
        {
          "internalType": "bytes32[]",
          "name": "anion",
          "type": "bytes32[]"
        },
        {
          "internalType": "uint256",
          "name": "lifespan",
          "type": "uint256"
        },
        {
          "internalType": "address[]",
          "name": "config",
          "type": "address[]"
        },
        {
          "internalType": "uint8[]",
          "name": "rules",
          "type": "uint8[]"
        }
      ],
      "name": "newPolycule",
      "outputs": [
        {
          "internalType": "bytes32",
          "name": "",
          "type": "bytes32"
        }
      ],
      "stateMutability": "payable",
      "type": "function"
    },
    {
      "inputs": [],
      "name": "polycule",
      "outputs": [
        {
          "internalType": "string",
          "name": "",
          "type": "string"
        }
      ],
      "stateMutability": "view",
      "type": "function"
    },
    {
      "inputs": [
        {
          "internalType": "uint256",
          "name": "_lifespan",
          "type": "uint256"
        }
      ],
      "name": "setDefaultLifespan",
      "outputs": [],
      "stateMutability": "nonpayable",
      "type": "function"
    },
    {
      "inputs": [
        {
          "internalType": "address",
          "name": "_resolver",
          "type": "address"
        }
      ],
      "name": "setDefaultResolver",
      "outputs": [],
      "stateMutability": "nonpayable",
      "type": "function"
    },
    {
      "inputs": [],
      "name": "sizeLimit",
      "outputs": [
        {
          "internalType": "uint256",
          "name": "",
          "type": "uint256"
        }
      ],
      "stateMutability": "view",
      "type": "function"
    },
    {
      "inputs": [],
      "name": "symbol",
      "outputs": [
        {
          "internalType": "string",
          "name": "",
          "type": "string"
        }
      ],
      "stateMutability": "view",
      "type": "function"
    }
  ],
  "bytecode": {
    "object": "0x6080604052600c805460ff60a01b1916600160a01b1790553480156200002457600080fd5b5060405162001eee38038062001eee833981016040819052620000479162000362565b600980546001600160a01b038084166001600160a01b03199283168117909355600a8054868316908416179055600b8054918716919092161790556040805163bd9a548b60e01b8152905163bd9a548b916004808201926080929091908290030181865afa158015620000be573d6000803e3d6000fd5b505050506040513d601f19601f82011682018060405250810190620000e4919062000420565b606001516003556009546040805163335076e760e11b815290516001600160a01b03909216916366a0edce916004808201926080929091908290030181865afa15801562000136573d6000803e3d6000fd5b505050506040513d601f19601f820116820180604052508101906200015c919062000420565b60600151600490815560095460408051637615671560e11b815290516001600160a01b039092169263ec2ace2a9282820192608092908290030181865afa158015620001ac573d6000803e3d6000fd5b505050506040513d601f19601f82011682018060405250810190620001d2919062000420565b60600151600255600954604080516330b5337f60e21b815290516001600160a01b039092169163c2d4cdfc916004808201926000929091908290030181865afa15801562000224573d6000803e3d6000fd5b505050506040513d6000823e601f3d908101601f191682016040526200024e919081019062000487565b6200025e9060059060046200027b565b5050600080546001600160a01b0319163317905550620006f79050565b8260048101928215620002b9579160200282015b82811115620002b95782518290620002a890826200062b565b50916020019190600101906200028f565b50620002c7929150620002cb565b5090565b80821115620002c7576000620002e28282620002ec565b50600101620002cb565b508054620002fa906200059c565b6000825580601f106200030b575050565b601f0160209004906000526020600020908101906200032b91906200032e565b50565b5b80821115620002c757600081556001016200032f565b80516001600160a01b03811681146200035d57600080fd5b919050565b6000806000606084860312156200037857600080fd5b620003838462000345565b9250620003936020850162000345565b9150620003a36040850162000345565b90509250925092565b634e487b7160e01b600052604160045260246000fd5b604051608081016001600160401b0381118282101715620003e757620003e7620003ac565b60405290565b604051601f8201601f191681016001600160401b0381118282101715620004185762000418620003ac565b604052919050565b6000608082840312156200043357600080fd5b82601f8301126200044357600080fd5b6200044d620003c2565b8060808401858111156200046057600080fd5b845b818110156200047c57805184526020938401930162000462565b509095945050505050565b600060208083850312156200049b57600080fd5b82516001600160401b0380821115620004b357600080fd5b8185019150601f8681840112620004c957600080fd5b620004d3620003c2565b806080850189811115620004e657600080fd5b855b818110156200058d57805186811115620005025760008081fd5b87018581018c13620005145760008081fd5b805187811115620005295762000529620003ac565b6200053c818801601f19168b01620003ed565b8181528d8b838501011115620005525760008081fd5b60005b8281101562000572578381018c01518282018d01528b0162000555565b5060009181018b0191909152855250928701928701620004e8565b50909998505050505050505050565b600181811c90821680620005b157607f821691505b602082108103620005d257634e487b7160e01b600052602260045260246000fd5b50919050565b601f8211156200062657600081815260208120601f850160051c81016020861015620006015750805b601f850160051c820191505b8181101562000622578281556001016200060d565b5050505b505050565b81516001600160401b03811115620006475762000647620003ac565b6200065f816200065884546200059c565b84620005d8565b602080601f8311600181146200069757600084156200067e5750858301515b600019600386901b1c1916600185901b17855562000622565b600085815260208120601f198616915b82811015620006c857888601518255948401946001909101908401620006a7565b5085821015620006e75787850151600019600388901b60f8161c191681555b5050505050600190811b01905550565b6117e780620007076000396000f3fe6080604052600436106100f35760003560e01c806380b29beb1161008a578063b782426e11610059578063b782426e14610339578063c66485b214610366578063c7876ea414610386578063d9ebda121461039c57600080fd5b806380b29beb14610283578063828eab0e146102a357806388a8c95c146102d057806395d89b41146102f057600080fd5b8063210fd271116100c6578063210fd271146101e2578063303c128f146101f85780633823c6c31461024e578063395063081461026157600080fd5b806301e51ae8146100f857806302fb0c5e1461014f57806305e84aa0146101915780630e6c0bdb146101be575b600080fd5b34801561010457600080fd5b506000546101259073ffffffffffffffffffffffffffffffffffffffff1681565b60405173ffffffffffffffffffffffffffffffffffffffff90911681526020015b60405180910390f35b34801561015b57600080fd5b50600c546101819074010000000000000000000000000000000000000000900460ff1681565b6040519015158152602001610146565b34801561019d57600080fd5b50600a546101259073ffffffffffffffffffffffffffffffffffffffff1681565b3480156101ca57600080fd5b506101d460025481565b604051908152602001610146565b3480156101ee57600080fd5b506101d460045481565b34801561020457600080fd5b506102416040518060400160405280601781526020017f48656c69783220506f6c7963756c65205365727669636500000000000000000081525081565b6040516101469190611083565b6101d461025c3660046112f0565b6103c9565b34801561026d57600080fd5b5061028161027c3660046113af565b610d53565b005b34801561028f57600080fd5b5061024161029e3660046113af565b610dcb565b3480156102af57600080fd5b50600c546101259073ffffffffffffffffffffffffffffffffffffffff1681565b3480156102dc57600080fd5b506102816102eb3660046113c8565b610e6b565b3480156102fc57600080fd5b506102416040518060400160405280600381526020017f485053000000000000000000000000000000000000000000000000000000000081525081565b34801561034557600080fd5b506009546101259073ffffffffffffffffffffffffffffffffffffffff1681565b34801561037257600080fd5b506102816103813660046113c8565b610f79565b34801561039257600080fd5b506101d460035481565b3480156103a857600080fd5b50600b546101259073ffffffffffffffffffffffffffffffffffffffff1681565b60008660045481511061043d576040517f08c379a000000000000000000000000000000000000000000000000000000000815260206004820152600d60248201527f494c4c4547414c5f4c4142454c0000000000000000000000000000000000000060448201526064015b60405180910390fd5b6040517fa6470fd600000000000000000000000000000000000000000000000000000000815273__$47e4ffaaf323c41735ff299f8946896ce0$__9063a6470fd690610490908490600590600401611438565b602060405180830381865af41580156104ad573d6000803e3d6000fd5b505050506040513d601f19601f820116820180604052508101906104d19190611566565b15610538576040517f08c379a000000000000000000000000000000000000000000000000000000000815260206004820152600d60248201527f494c4c4547414c5f4348415253000000000000000000000000000000000000006044820152606401610434565b858480518251146105a5576040517f08c379a000000000000000000000000000000000000000000000000000000000815260206004820152600760248201527f4241445f4d4150000000000000000000000000000000000000000000000000006044820152606401610434565b600a546040517f02571be3000000000000000000000000000000000000000000000000000000008152600481018b905260009173ffffffffffffffffffffffffffffffffffffffff16906302571be390602401602060405180830381865afa158015610615573d6000803e3d6000fd5b505050506040513d601f19601f820116820180604052508101906106399190611588565b90506002548810156106a7576040517f08c379a000000000000000000000000000000000000000000000000000000000815260206004820152601260248201527f4c4946455350414e5f544f4f5f53484f525400000000000000000000000000006044820152606401610434565b876003546106b591906115d4565b34101561071e576040517f08c379a000000000000000000000000000000000000000000000000000000000815260206004820152601260248201527f494e53554646494349454e545f455448455200000000000000000000000000006044820152606401610434565b60008b6040516020016107319190611611565b6040516020818303038152906040528051906020012090506000600960009054906101000a900473ffffffffffffffffffffffffffffffffffffffff1673ffffffffffffffffffffffffffffffffffffffff1663642a8ed66040518163ffffffff1660e01b8152600401608060405180830381865afa1580156107b8573d6000803e3d6000fd5b505050506040513d601f19601f820116820180604052508101906107dc919061162d565b60036020020151905060008c828460405160200161080d939291909283526020830191909152604082015260600190565b60408051808303601f19018152908290528051602090910120600b547ff79fe5380000000000000000000000000000000000000000000000000000000083526004830182905290925073ffffffffffffffffffffffffffffffffffffffff169063f79fe53890602401602060405180830381865afa158015610893573d6000803e3d6000fd5b505050506040513d601f19601f820116820180604052508101906108b79190611566565b1561091e576040517f08c379a000000000000000000000000000000000000000000000000000000000815260206004820152600f60248201527f504f4c5943554c455f45584953545300000000000000000000000000000000006044820152606401610434565b600b546040517f2f92673200000000000000000000000000000000000000000000000000000000815260048101839052602481018f905273ffffffffffffffffffffffffffffffffffffffff90911690632f92673290604401600060405180830381600087803b15801561099157600080fd5b505af11580156109a5573d6000803e3d6000fd5b50505050600b60009054906101000a900473ffffffffffffffffffffffffffffffffffffffff1673ffffffffffffffffffffffffffffffffffffffff1663250548b9828e8d8d6040518563ffffffff1660e01b8152600401610a0a94939291906116e9565b600060405180830381600087803b158015610a2457600080fd5b505af1158015610a38573d6000803e3d6000fd5b5050600b5473ffffffffffffffffffffffffffffffffffffffff1691506339de6469905082610a678e42611798565b6040517fffffffff0000000000000000000000000000000000000000000000000000000060e085901b16815260048101929092526024820152604401600060405180830381600087803b158015610abd57600080fd5b505af1158015610ad1573d6000803e3d6000fd5b5050600b546040517fd31569050000000000000000000000000000000000000000000000000000000081526004810185905273ffffffffffffffffffffffffffffffffffffffff8881166024830152909116925063d31569059150604401600060405180830381600087803b158015610b4957600080fd5b505af1158015610b5d573d6000803e3d6000fd5b5050600b54600c546040517f1896f70a0000000000000000000000000000000000000000000000000000000081526004810186905273ffffffffffffffffffffffffffffffffffffffff918216602482015291169250631896f70a9150604401600060405180830381600087803b158015610bd757600080fd5b505af1158015610beb573d6000803e3d6000fd5b5050600b546040517f1f06e91c000000000000000000000000000000000000000000000000000000008152600481018590526024810187905273ffffffffffffffffffffffffffffffffffffffff9091169250631f06e91c9150604401600060405180830381600087803b158015610c6257600080fd5b505af1158015610c76573d6000803e3d6000fd5b5050600b548e516040517fb2dd2e5500000000000000000000000000000000000000000000000000000000815260048101869052602481019190915273ffffffffffffffffffffffffffffffffffffffff909116925063b2dd2e559150604401600060405180830381600087803b158015610cf057600080fd5b505af1158015610d04573d6000803e3d6000fd5b50505050807fc6162208b4bd8399e03dacf3db4a637c95f6e75712fc16af0402da9046d727998e604051610d3a91815260200190565b60405180910390a29d9c50505050505050505050505050565b60005473ffffffffffffffffffffffffffffffffffffffff163314610dc6576000546040517f8ea458f600000000000000000000000000000000000000000000000000000000815273ffffffffffffffffffffffffffffffffffffffff9091166004820152336024820152604401610434565b600255565b60058160048110610ddb57600080fd5b018054909150610dea906113e5565b80601f0160208091040260200160405190810160405280929190818152602001828054610e16906113e5565b8015610e635780601f10610e3857610100808354040283529160200191610e63565b820191906000526020600020905b815481529060010190602001808311610e4657829003601f168201915b505050505081565b60005473ffffffffffffffffffffffffffffffffffffffff163314610ede576000546040517f8ea458f600000000000000000000000000000000000000000000000000000000815273ffffffffffffffffffffffffffffffffffffffff9091166004820152336024820152604401610434565b6000546040805173ffffffffffffffffffffffffffffffffffffffff928316815291831660208301527fdec101f106d4fc7c85791843e64b198248c822298e3ed7046231d33f7783d816910160405180910390a1600080547fffffffffffffffffffffffff00000000000000000000000000000000000000001673ffffffffffffffffffffffffffffffffffffffff92909216919091179055565b60005473ffffffffffffffffffffffffffffffffffffffff163314610fec576000546040517f8ea458f600000000000000000000000000000000000000000000000000000000815273ffffffffffffffffffffffffffffffffffffffff9091166004820152336024820152604401610434565b600c80547fffffffffffffffffffffffff00000000000000000000000000000000000000001673ffffffffffffffffffffffffffffffffffffffff92909216919091179055565b60005b8381101561104e578181015183820152602001611036565b50506000910152565b6000815180845261106f816020860160208601611033565b601f01601f19169290920160200192915050565b6020815260006110966020830184611057565b9392505050565b7f4e487b7100000000000000000000000000000000000000000000000000000000600052604160045260246000fd5b604051601f8201601f1916810167ffffffffffffffff811182821017156110f5576110f561109d565b604052919050565b600082601f83011261110e57600080fd5b813567ffffffffffffffff8111156111285761112861109d565b61113b6020601f19601f840116016110cc565b81815284602083860101111561115057600080fd5b816020850160208301376000918101602001919091529392505050565b600067ffffffffffffffff8211156111875761118761109d565b5060051b60200190565b600082601f8301126111a257600080fd5b813560206111b76111b28361116d565b6110cc565b82815260059290921b840181019181810190868411156111d657600080fd5b8286015b848110156111f157803583529183019183016111da565b509695505050505050565b73ffffffffffffffffffffffffffffffffffffffff8116811461121e57600080fd5b50565b600082601f83011261123257600080fd5b813560206112426111b28361116d565b82815260059290921b8401810191818101908684111561126157600080fd5b8286015b848110156111f1578035611278816111fc565b8352918301918301611265565b600082601f83011261129657600080fd5b813560206112a66111b28361116d565b82815260059290921b840181019181810190868411156112c557600080fd5b8286015b848110156111f157803560ff811681146112e35760008081fd5b83529183019183016112c9565b60008060008060008060c0878903121561130957600080fd5b863567ffffffffffffffff8082111561132157600080fd5b61132d8a838b016110fd565b975060208901359650604089013591508082111561134a57600080fd5b6113568a838b01611191565b955060608901359450608089013591508082111561137357600080fd5b61137f8a838b01611221565b935060a089013591508082111561139557600080fd5b506113a289828a01611285565b9150509295509295509295565b6000602082840312156113c157600080fd5b5035919050565b6000602082840312156113da57600080fd5b8135611096816111fc565b600181811c908216806113f957607f821691505b602082108103611432577f4e487b7100000000000000000000000000000000000000000000000000000000600052602260045260246000fd5b50919050565b60408152600061144b6040830185611057565b60208382038185015281829050608083018660005b600480821061146f5750611558565b86840385528254600090600181811c908083168061148e57607f831692505b8a831081036114c3577f4e487b7100000000000000000000000000000000000000000000000000000000855260228652602485fd5b8289526020890195508080156114e057600181146115145761153f565b7fffffffffffffffffffffffffffffffffffffffffffffffffffffffffffffff008516875283151560051b8701955061153f565b60008981526020902060005b8581101561153957815489820152908401908d01611520565b88019650505b5050978901979296505050929092019150600101611460565b509098975050505050505050565b60006020828403121561157857600080fd5b8151801515811461109657600080fd5b60006020828403121561159a57600080fd5b8151611096816111fc565b7f4e487b7100000000000000000000000000000000000000000000000000000000600052601160045260246000fd5b6000817fffffffffffffffffffffffffffffffffffffffffffffffffffffffffffffffff048311821515161561160c5761160c6115a5565b500290565b60008251611623818460208701611033565b9190910192915050565b60006080828403121561163f57600080fd5b82601f83011261164e57600080fd5b6040516080810181811067ffffffffffffffff821117156116715761167161109d565b60405280608084018581111561168657600080fd5b845b818110156116a0578051835260209283019201611688565b509195945050505050565b600081518084526020808501945080840160005b838110156116de57815160ff16875295820195908201906001016116bf565b509495945050505050565b600060808201868352602060808185015281875180845260a086019150828901935060005b8181101561172a5784518352938301939183019160010161170e565b50508481036040860152865180825290820192508187019060005b8181101561177757825173ffffffffffffffffffffffffffffffffffffffff1685529383019391830191600101611745565b50505050828103606084015261178d81856116ab565b979650505050505050565b808201808211156117ab576117ab6115a5565b9291505056fea2646970667358221220de44272e4311f412d4ab7503f727025ce7415a33d0fc16c164488c5ee0b921ae64736f6c63430008100033",
    "linkReferences": {
      "src/Utils/LibString.sol": {
        "LibString": [
          {
            "start": 2924,
            "length": 20
          }
        ]
      }
    }
  },
  "methodIdentifiers": {
    "Dev()": "01e51ae8",
    "HELIX2()": "b782426e",
    "NAMES()": "05e84aa0",
    "POLYCULES()": "d9ebda12",
    "active()": "02fb0c5e",
    "basePrice()": "c7876ea4",
    "changeDev(address)": "88a8c95c",
    "defaultLifespan()": "0e6c0bdb",
    "defaultResolver()": "828eab0e",
    "illegalBlocks(uint256)": "80b29beb",
    "newPolycule(string,bytes32,bytes32[],uint256,address[],uint8[])": "3823c6c3",
    "polycule()": "303c128f",
    "setDefaultLifespan(uint256)": "39506308",
    "setDefaultResolver(address)": "c66485b2",
    "sizeLimit()": "210fd271",
    "symbol()": "95d89b41"
  },
  "id": 36
}