{
  "abi": [
    {
      "inputs": [
        {
          "internalType": "address",
          "name": "__registry",
          "type": "address"
        },
        {
          "internalType": "address",
          "name": "_registry",
          "type": "address"
        },
        {
          "internalType": "address",
          "name": "_helix2",
          "type": "address"
        },
        {
          "internalType": "address",
          "name": "_priceOracle",
          "type": "address"
        }
      ],
      "stateMutability": "nonpayable",
      "type": "constructor"
    },
    {
      "inputs": [
        {
          "internalType": "address",
          "name": "_dev",
          "type": "address"
        },
        {
          "internalType": "address",
          "name": "_you",
          "type": "address"
        }
      ],
      "name": "OnlyDev",
      "type": "error"
    },
    {
      "anonymous": false,
      "inputs": [
        {
          "indexed": false,
          "internalType": "string",
          "name": "_alias",
          "type": "string"
        },
        {
          "indexed": true,
          "internalType": "bytes32",
          "name": "polyhash",
          "type": "bytes32"
        },
        {
          "indexed": false,
          "internalType": "bytes32",
          "name": "cation",
          "type": "bytes32"
        }
      ],
      "name": "NewPolycule",
      "type": "event"
    },
    {
      "anonymous": false,
      "inputs": [
        {
          "indexed": true,
          "internalType": "address",
          "name": "previousOwner",
          "type": "address"
        },
        {
          "indexed": true,
          "internalType": "address",
          "name": "newOwner",
          "type": "address"
        }
      ],
      "name": "OwnershipTransferred",
      "type": "event"
    },
    {
      "inputs": [],
      "name": "Dev",
      "outputs": [
        {
          "internalType": "address",
          "name": "",
          "type": "address"
        }
      ],
      "stateMutability": "view",
      "type": "function"
    },
    {
      "inputs": [],
      "name": "HELIX2",
      "outputs": [
        {
          "internalType": "contract iHELIX2",
          "name": "",
          "type": "address"
        }
      ],
      "stateMutability": "view",
      "type": "function"
    },
    {
      "inputs": [],
      "name": "NAMES",
      "outputs": [
        {
          "internalType": "contract iNAME",
          "name": "",
          "type": "address"
        }
      ],
      "stateMutability": "view",
      "type": "function"
    },
    {
      "inputs": [],
      "name": "POLYCULES",
      "outputs": [
        {
          "internalType": "contract iPOLYCULE",
          "name": "",
          "type": "address"
        }
      ],
      "stateMutability": "view",
      "type": "function"
    },
    {
      "inputs": [],
      "name": "PRICES",
      "outputs": [
        {
          "internalType": "contract iPriceOracle",
          "name": "",
          "type": "address"
        }
      ],
      "stateMutability": "view",
      "type": "function"
    },
    {
      "inputs": [],
      "name": "active",
      "outputs": [
        {
          "internalType": "bool",
          "name": "",
          "type": "bool"
        }
      ],
      "stateMutability": "view",
      "type": "function"
    },
    {
      "inputs": [],
      "name": "basePrice",
      "outputs": [
        {
          "internalType": "uint256",
          "name": "",
          "type": "uint256"
        }
      ],
      "stateMutability": "view",
      "type": "function"
    },
    {
      "inputs": [],
      "name": "defaultLifespan",
      "outputs": [
        {
          "internalType": "uint256",
          "name": "",
          "type": "uint256"
        }
      ],
      "stateMutability": "view",
      "type": "function"
    },
    {
      "inputs": [],
      "name": "defaultResolver",
      "outputs": [
        {
          "internalType": "address",
          "name": "",
          "type": "address"
        }
      ],
      "stateMutability": "view",
      "type": "function"
    },
    {
      "inputs": [
        {
          "internalType": "uint256",
          "name": "",
          "type": "uint256"
        }
      ],
      "name": "illegalBlocks",
      "outputs": [
        {
          "internalType": "string",
          "name": "",
          "type": "string"
        }
      ],
      "stateMutability": "view",
      "type": "function"
    },
    {
      "inputs": [
        {
          "internalType": "string",
          "name": "_alias",
          "type": "string"
        },
        {
          "internalType": "bytes32",
          "name": "cation",
          "type": "bytes32"
        },
        {
          "internalType": "bytes32[]",
          "name": "anion",
          "type": "bytes32[]"
        },
        {
          "internalType": "uint256",
          "name": "lifespan",
          "type": "uint256"
        },
        {
          "internalType": "address[]",
          "name": "config",
          "type": "address[]"
        },
        {
          "internalType": "uint8[]",
          "name": "rules",
          "type": "uint8[]"
        }
      ],
      "name": "newPolycule",
      "outputs": [
        {
          "internalType": "bytes32",
          "name": "",
          "type": "bytes32"
        }
      ],
      "stateMutability": "payable",
      "type": "function"
    },
    {
      "inputs": [],
      "name": "owner",
      "outputs": [
        {
          "internalType": "address",
          "name": "",
          "type": "address"
        }
      ],
      "stateMutability": "view",
      "type": "function"
    },
    {
      "inputs": [],
      "name": "polycule",
      "outputs": [
        {
          "internalType": "string",
          "name": "",
          "type": "string"
        }
      ],
      "stateMutability": "view",
      "type": "function"
    },
    {
      "inputs": [],
      "name": "roothash",
      "outputs": [
        {
          "internalType": "bytes32",
          "name": "",
          "type": "bytes32"
        }
      ],
      "stateMutability": "view",
      "type": "function"
    },
    {
      "inputs": [
        {
          "internalType": "uint256",
          "name": "_lifespan",
          "type": "uint256"
        }
      ],
      "name": "setDefaultLifespan",
      "outputs": [],
      "stateMutability": "nonpayable",
      "type": "function"
    },
    {
      "inputs": [
        {
          "internalType": "address",
          "name": "_resolver",
          "type": "address"
        }
      ],
      "name": "setDefaultResolver",
      "outputs": [],
      "stateMutability": "nonpayable",
      "type": "function"
    },
    {
      "inputs": [
        {
          "internalType": "uint256",
          "name": "",
          "type": "uint256"
        }
      ],
      "name": "sizeLimit",
      "outputs": [
        {
          "internalType": "uint256",
          "name": "",
          "type": "uint256"
        }
      ],
      "stateMutability": "view",
      "type": "function"
    },
    {
      "inputs": [],
      "name": "symbol",
      "outputs": [
        {
          "internalType": "string",
          "name": "",
          "type": "string"
        }
      ],
      "stateMutability": "view",
      "type": "function"
    },
    {
      "inputs": [],
      "name": "toggleActive",
      "outputs": [],
      "stateMutability": "nonpayable",
      "type": "function"
    },
    {
      "inputs": [
        {
          "internalType": "address",
          "name": "newDev",
          "type": "address"
        }
      ],
      "name": "transferOwnership",
      "outputs": [],
      "stateMutability": "nonpayable",
      "type": "function"
    }
  ],
  "bytecode": {
    "object": "0x6080604052600f805460ff60a01b1916600160a01b1790553480156200002457600080fd5b506040516200231e3803806200231e83398101604081905262000047916200044a565b600c80546001600160a01b038085166001600160a01b031992831617909255600d8054868416908316179055600e8054878416908316179055600b805492841692909116821790556040805163bd9a548b60e01b8152905163bd9a548b916004808201926080929091908290030181865afa158015620000cb573d6000803e3d6000fd5b505050506040513d601f19601f82011682018060405250810190620000f1919062000540565b51600355600c546040805163335076e760e11b815290516001600160a01b03909216916366a0edce91600480820192610100929091908290030181865afa15801562000141573d6000803e3d6000fd5b505050506040513d601f19601f82011682018060405250810190620001679190620005a7565b606001516200017b90600490600262000324565b50600c60009054906101000a90046001600160a01b03166001600160a01b031663ec2ace2a6040518163ffffffff1660e01b8152600401608060405180830381865afa158015620001d0573d6000803e3d6000fd5b505050506040513d601f19601f82011682018060405250810190620001f6919062000540565b60600151600255600c54604080516330b5337f60e21b815290516001600160a01b039092169163c2d4cdfc916004808201926000929091908290030181865afa15801562000248573d6000803e3d6000fd5b505050506040513d6000823e601f3d908101601f191682016040526200027291908101906200065e565b6200028290600790600462000367565b50600c60009054906101000a90046001600160a01b03166001600160a01b031663642a8ed66040518163ffffffff1660e01b8152600401608060405180830381865afa158015620002d7573d6000803e3d6000fd5b505050506040513d601f19601f82011682018060405250810190620002fd919062000540565b600360200201516006555050600080546001600160a01b0319163317905550620008ce9050565b826002810192821562000355579160200282015b828111156200035557825182559160200191906001019062000338565b5062000363929150620003b3565b5090565b8260048101928215620003a5579160200282015b82811115620003a5578251829062000394908262000802565b50916020019190600101906200037b565b5062000363929150620003ca565b5b80821115620003635760008155600101620003b4565b8082111562000363576000620003e18282620003eb565b50600101620003ca565b508054620003f99062000773565b6000825580601f106200040a575050565b601f0160209004906000526020600020908101906200042a9190620003b3565b50565b80516001600160a01b03811681146200044557600080fd5b919050565b600080600080608085870312156200046157600080fd5b6200046c856200042d565b93506200047c602086016200042d565b92506200048c604086016200042d565b91506200049c606086016200042d565b905092959194509250565b634e487b7160e01b600052604160045260246000fd5b604051608081016001600160401b0381118282101715620004e257620004e2620004a7565b60405290565b604080519081016001600160401b0381118282101715620004e257620004e2620004a7565b604051601f8201601f191681016001600160401b0381118282101715620005385762000538620004a7565b604052919050565b6000608082840312156200055357600080fd5b82601f8301126200056357600080fd5b6200056d620004bd565b8060808401858111156200058057600080fd5b845b818110156200059c57805184526020938401930162000582565b509095945050505050565b6000610100808385031215620005bc57600080fd5b601f8481850112620005cd57600080fd5b620005d7620004bd565b918401918086841115620005ea57600080fd5b855b8481101562000653578784820112620006055760008081fd5b6200060f620004e8565b80604083018a811115620006235760008081fd5b835b818110156200063f57805184526020938401930162000625565b5050845250602090920191604001620005ec565b509695505050505050565b600060208083850312156200067257600080fd5b82516001600160401b03808211156200068a57600080fd5b8185019150601f8681840112620006a057600080fd5b620006aa620004bd565b806080850189811115620006bd57600080fd5b855b818110156200076457805186811115620006d95760008081fd5b87018581018c13620006eb5760008081fd5b805187811115620007005762000700620004a7565b62000713818801601f19168b016200050d565b8181528d8b838501011115620007295760008081fd5b60005b8281101562000749578381018c01518282018d01528b016200072c565b5060009181018b0191909152855250928701928701620006bf565b50909998505050505050505050565b600181811c908216806200078857607f821691505b602082108103620007a957634e487b7160e01b600052602260045260246000fd5b50919050565b601f821115620007fd57600081815260208120601f850160051c81016020861015620007d85750805b601f850160051c820191505b81811015620007f957828155600101620007e4565b5050505b505050565b81516001600160401b038111156200081e576200081e620004a7565b62000836816200082f845462000773565b84620007af565b602080601f8311600181146200086e5760008415620008555750858301515b600019600386901b1c1916600185901b178555620007f9565b600085815260208120601f198616915b828110156200089f578886015182559484019460019091019084016200087e565b5085821015620008be5787850151600019600388901b60f8161c191681555b5050505050600190811b01905550565b611a4080620008de6000396000f3fe60806040526004361061015f5760003560e01c8063769da4bb116100c0578063b782426e11610074578063c7876ea411610059578063c7876ea41461045f578063d9ebda1214610475578063f2fde38b146104a257600080fd5b8063b782426e14610412578063c66485b21461043f57600080fd5b8063828eab0e116100a5578063828eab0e146103715780638da5cb5b1461039e57806395d89b41146103c957600080fd5b8063769da4bb1461033157806380b29beb1461035157600080fd5b8063251c942211610117578063303c128f116100fc578063303c128f146102a85780633823c6c3146102fe578063395063081461031157600080fd5b8063251c94221461027b57806329c68dc11461029157600080fd5b806305e84aa01161014857806305e84aa0146101fd5780630e6c0bdb1461022a5780631eabcd341461024e57600080fd5b806301e51ae81461016457806302fb0c5e146101bb575b600080fd5b34801561017057600080fd5b506000546101919073ffffffffffffffffffffffffffffffffffffffff1681565b60405173ffffffffffffffffffffffffffffffffffffffff90911681526020015b60405180910390f35b3480156101c757600080fd5b50600f546101ed9074010000000000000000000000000000000000000000900460ff1681565b60405190151581526020016101b2565b34801561020957600080fd5b50600d546101919073ffffffffffffffffffffffffffffffffffffffff1681565b34801561023657600080fd5b5061024060025481565b6040519081526020016101b2565b34801561025a57600080fd5b50600b546101919073ffffffffffffffffffffffffffffffffffffffff1681565b34801561028757600080fd5b5061024060065481565b34801561029d57600080fd5b506102a66104c2565b005b3480156102b457600080fd5b506102f16040518060400160405280601781526020017f48656c69783220506f6c7963756c65205365727669636500000000000000000081525081565b6040516101b29190611405565b61024061030c366004611672565b610587565b34801561031d57600080fd5b506102a661032c366004611731565b610e27565b34801561033d57600080fd5b5061024061034c366004611731565b610e9f565b34801561035d57600080fd5b506102f161036c366004611731565b610eb6565b34801561037d57600080fd5b50600f546101919073ffffffffffffffffffffffffffffffffffffffff1681565b3480156103aa57600080fd5b5060005473ffffffffffffffffffffffffffffffffffffffff16610191565b3480156103d557600080fd5b506102f16040518060400160405280600381526020017f485053000000000000000000000000000000000000000000000000000000000081525081565b34801561041e57600080fd5b50600c546101919073ffffffffffffffffffffffffffffffffffffffff1681565b34801561044b57600080fd5b506102a661045a36600461174a565b610f56565b34801561046b57600080fd5b5061024060035481565b34801561048157600080fd5b50600e546101919073ffffffffffffffffffffffffffffffffffffffff1681565b3480156104ae57600080fd5b506102a66104bd36600461174a565b611010565b60005473ffffffffffffffffffffffffffffffffffffffff16331461053a576000546040517f8ea458f600000000000000000000000000000000000000000000000000000000815273ffffffffffffffffffffffffffffffffffffffff90911660048201523360248201526044015b60405180910390fd5b600f80547fffffffffffffffffffffff00ffffffffffffffffffffffffffffffffffffffff8116740100000000000000000000000000000000000000009182900460ff1615909102179055565b600086600482015461059882611110565b1180156105ae57506005546105ac82611110565b105b610614576040517f08c379a000000000000000000000000000000000000000000000000000000000815260206004820152600d60248201527f494c4c4547414c5f4c4142454c000000000000000000000000000000000000006044820152606401610531565b60408051608081019091526106e190600760046000835b828210156106ce57838201805461064190611796565b80601f016020809104026020016040519081016040528092919081815260200182805461066d90611796565b80156106ba5780601f1061068f576101008083540402835291602001916106ba565b820191906000526020600020905b81548152906001019060200180831161069d57829003601f168201915b50505050508152602001906001019061062b565b505050508261131790919063ffffffff16565b15610748576040517f08c379a000000000000000000000000000000000000000000000000000000000815260206004820152600d60248201527f494c4c4547414c5f4348415253000000000000000000000000000000000000006044820152606401610531565b858480518251146107b5576040517f08c379a000000000000000000000000000000000000000000000000000000000815260206004820152600760248201527f4241445f4d4150000000000000000000000000000000000000000000000000006044820152606401610531565b600d546040517f02571be3000000000000000000000000000000000000000000000000000000008152600481018b905260009173ffffffffffffffffffffffffffffffffffffffff16906302571be390602401602060405180830381865afa158015610825573d6000803e3d6000fd5b505050506040513d601f19601f8201168201806040525081019061084991906117e9565b90506002548810156108b7576040517f08c379a000000000000000000000000000000000000000000000000000000000815260206004820152601260248201527f4c4946455350414e5f544f4f5f53484f525400000000000000000000000000006044820152606401610531565b876003546108c59190611835565b34101561092e576040517f08c379a000000000000000000000000000000000000000000000000000000000815260206004820152601260248201527f494e53554646494349454e545f455448455200000000000000000000000000006044820152606401610531565b60008b6040516020016109419190611872565b60408051601f1981840301815282825280516020918201206006549184018f90529183015260608201819052915060009060800160408051808303601f19018152908290528051602090910120600e547ff79fe5380000000000000000000000000000000000000000000000000000000083526004830182905290925073ffffffffffffffffffffffffffffffffffffffff169063f79fe53890602401602060405180830381865afa1580156109fb573d6000803e3d6000fd5b505050506040513d601f19601f82011682018060405250810190610a1f919061188e565b15610a86576040517f08c379a000000000000000000000000000000000000000000000000000000000815260206004820152600f60248201527f504f4c5943554c455f45584953545300000000000000000000000000000000006044820152606401610531565b600e546040517f2f92673200000000000000000000000000000000000000000000000000000000815260048101839052602481018e905273ffffffffffffffffffffffffffffffffffffffff90911690632f92673290604401600060405180830381600087803b158015610af957600080fd5b505af1158015610b0d573d6000803e3d6000fd5b5050600e546040517f250548b900000000000000000000000000000000000000000000000000000000815273ffffffffffffffffffffffffffffffffffffffff909116925063250548b99150610b6d9084908f908e908e906004016118ee565b600060405180830381600087803b158015610b8757600080fd5b505af1158015610b9b573d6000803e3d6000fd5b5050600e5473ffffffffffffffffffffffffffffffffffffffff1691506339de6469905082610bca8d4261199d565b6040517fffffffff0000000000000000000000000000000000000000000000000000000060e085901b16815260048101929092526024820152604401600060405180830381600087803b158015610c2057600080fd5b505af1158015610c34573d6000803e3d6000fd5b5050600e546040517fd31569050000000000000000000000000000000000000000000000000000000081526004810185905273ffffffffffffffffffffffffffffffffffffffff8781166024830152909116925063d31569059150604401600060405180830381600087803b158015610cac57600080fd5b505af1158015610cc0573d6000803e3d6000fd5b5050600e54600f546040517f1896f70a0000000000000000000000000000000000000000000000000000000081526004810186905273ffffffffffffffffffffffffffffffffffffffff918216602482015291169250631896f70a9150604401600060405180830381600087803b158015610d3a57600080fd5b505af1158015610d4e573d6000803e3d6000fd5b5050600e546040517f1f06e91c000000000000000000000000000000000000000000000000000000008152600481018590526024810186905273ffffffffffffffffffffffffffffffffffffffff9091169250631f06e91c9150604401600060405180830381600087803b158015610dc557600080fd5b505af1158015610dd9573d6000803e3d6000fd5b50505050807fd7a9d3cbed5c74971bf7c5fcf78aaddd30d375cbecfc4c5dea6189bf5d2235fc8e8e604051610e0f9291906119b0565b60405180910390a29c9b505050505050505050505050565b60005473ffffffffffffffffffffffffffffffffffffffff163314610e9a576000546040517f8ea458f600000000000000000000000000000000000000000000000000000000815273ffffffffffffffffffffffffffffffffffffffff9091166004820152336024820152604401610531565b600255565b60048160028110610eaf57600080fd5b0154905081565b60078160048110610ec657600080fd5b018054909150610ed590611796565b80601f0160208091040260200160405190810160405280929190818152602001828054610f0190611796565b8015610f4e5780601f10610f2357610100808354040283529160200191610f4e565b820191906000526020600020905b815481529060010190602001808311610f3157829003601f168201915b505050505081565b60005473ffffffffffffffffffffffffffffffffffffffff163314610fc9576000546040517f8ea458f600000000000000000000000000000000000000000000000000000000815273ffffffffffffffffffffffffffffffffffffffff9091166004820152336024820152604401610531565b600f80547fffffffffffffffffffffffff00000000000000000000000000000000000000001673ffffffffffffffffffffffffffffffffffffffff92909216919091179055565b60005473ffffffffffffffffffffffffffffffffffffffff163314611083576000546040517f8ea458f600000000000000000000000000000000000000000000000000000000815273ffffffffffffffffffffffffffffffffffffffff9091166004820152336024820152604401610531565b6000805460405173ffffffffffffffffffffffffffffffffffffffff808516939216917f8be0079c531659141344cd1fd0a4f28419497f9722a3daafe3b4186f6b6457e091a3600080547fffffffffffffffffffffffff00000000000000000000000000000000000000001673ffffffffffffffffffffffffffffffffffffffff92909216919091179055565b8051600090819081905b8082101561130e57600085838151811061113657611136611767565b01602001517fff000000000000000000000000000000000000000000000000000000000000001690507f80000000000000000000000000000000000000000000000000000000000000008110156111995761119260018461199d565b92506112fb565b7fe0000000000000000000000000000000000000000000000000000000000000007fff00000000000000000000000000000000000000000000000000000000000000821610156111ee5761119260028461199d565b7ff0000000000000000000000000000000000000000000000000000000000000007fff00000000000000000000000000000000000000000000000000000000000000821610156112435761119260038461199d565b7ff8000000000000000000000000000000000000000000000000000000000000007fff00000000000000000000000000000000000000000000000000000000000000821610156112985761119260048461199d565b7ffc000000000000000000000000000000000000000000000000000000000000007fff00000000000000000000000000000000000000000000000000000000000000821610156112ed5761119260058461199d565b6112f860068461199d565b92505b5082611306816119d2565b93505061111a565b50909392505050565b6000805b60048110156113a957836040516020016113359190611872565b6040516020818303038152906040528051906020012083826004811061135d5761135d611767565b60200201516040516020016113729190611872565b60405160208183030381529060405280519060200120036113975760019150506113af565b806113a1816119d2565b91505061131b565b50600090505b92915050565b60005b838110156113d05781810151838201526020016113b8565b50506000910152565b600081518084526113f18160208601602086016113b5565b601f01601f19169290920160200192915050565b60208152600061141860208301846113d9565b9392505050565b7f4e487b7100000000000000000000000000000000000000000000000000000000600052604160045260246000fd5b604051601f8201601f1916810167ffffffffffffffff811182821017156114775761147761141f565b604052919050565b600082601f83011261149057600080fd5b813567ffffffffffffffff8111156114aa576114aa61141f565b6114bd6020601f19601f8401160161144e565b8181528460208386010111156114d257600080fd5b816020850160208301376000918101602001919091529392505050565b600067ffffffffffffffff8211156115095761150961141f565b5060051b60200190565b600082601f83011261152457600080fd5b81356020611539611534836114ef565b61144e565b82815260059290921b8401810191818101908684111561155857600080fd5b8286015b84811015611573578035835291830191830161155c565b509695505050505050565b73ffffffffffffffffffffffffffffffffffffffff811681146115a057600080fd5b50565b600082601f8301126115b457600080fd5b813560206115c4611534836114ef565b82815260059290921b840181019181810190868411156115e357600080fd5b8286015b848110156115735780356115fa8161157e565b83529183019183016115e7565b600082601f83011261161857600080fd5b81356020611628611534836114ef565b82815260059290921b8401810191818101908684111561164757600080fd5b8286015b8481101561157357803560ff811681146116655760008081fd5b835291830191830161164b565b60008060008060008060c0878903121561168b57600080fd5b863567ffffffffffffffff808211156116a357600080fd5b6116af8a838b0161147f565b97506020890135965060408901359150808211156116cc57600080fd5b6116d88a838b01611513565b95506060890135945060808901359150808211156116f557600080fd5b6117018a838b016115a3565b935060a089013591508082111561171757600080fd5b5061172489828a01611607565b9150509295509295509295565b60006020828403121561174357600080fd5b5035919050565b60006020828403121561175c57600080fd5b81356114188161157e565b7f4e487b7100000000000000000000000000000000000000000000000000000000600052603260045260246000fd5b600181811c908216806117aa57607f821691505b6020821081036117e3577f4e487b7100000000000000000000000000000000000000000000000000000000600052602260045260246000fd5b50919050565b6000602082840312156117fb57600080fd5b81516114188161157e565b7f4e487b7100000000000000000000000000000000000000000000000000000000600052601160045260246000fd5b6000817fffffffffffffffffffffffffffffffffffffffffffffffffffffffffffffffff048311821515161561186d5761186d611806565b500290565b600082516118848184602087016113b5565b9190910192915050565b6000602082840312156118a057600080fd5b8151801515811461141857600080fd5b600081518084526020808501945080840160005b838110156118e357815160ff16875295820195908201906001016118c4565b509495945050505050565b600060808201868352602060808185015281875180845260a086019150828901935060005b8181101561192f57845183529383019391830191600101611913565b50508481036040860152865180825290820192508187019060005b8181101561197c57825173ffffffffffffffffffffffffffffffffffffffff168552938301939183019160010161194a565b50505050828103606084015261199281856118b0565b979650505050505050565b808201808211156113af576113af611806565b6040815260006119c360408301856113d9565b90508260208301529392505050565b60007fffffffffffffffffffffffffffffffffffffffffffffffffffffffffffffffff8203611a0357611a03611806565b506001019056fea2646970667358221220191a2e52f9b5fad06f7582af08829a2ca1523eee80c7471faf1fcb1a7f62484964736f6c63430008100033",
    "linkReferences": {}
  },
  "methodIdentifiers": {
    "Dev()": "01e51ae8",
    "HELIX2()": "b782426e",
    "NAMES()": "05e84aa0",
    "POLYCULES()": "d9ebda12",
    "PRICES()": "1eabcd34",
    "active()": "02fb0c5e",
    "basePrice()": "c7876ea4",
    "defaultLifespan()": "0e6c0bdb",
    "defaultResolver()": "828eab0e",
    "illegalBlocks(uint256)": "80b29beb",
    "newPolycule(string,bytes32,bytes32[],uint256,address[],uint8[])": "3823c6c3",
    "owner()": "8da5cb5b",
    "polycule()": "303c128f",
    "roothash()": "251c9422",
    "setDefaultLifespan(uint256)": "39506308",
    "setDefaultResolver(address)": "c66485b2",
    "sizeLimit(uint256)": "769da4bb",
    "symbol()": "95d89b41",
    "toggleActive()": "29c68dc1",
    "transferOwnership(address)": "f2fde38b"
  },
  "id": 44
}