{
  "abi": [
    {
      "inputs": [
        {
          "internalType": "address",
          "name": "__registry",
          "type": "address"
        },
        {
          "internalType": "address",
          "name": "_registry",
          "type": "address"
        },
        {
          "internalType": "address",
          "name": "_helix2",
          "type": "address"
        }
      ],
      "stateMutability": "nonpayable",
      "type": "constructor"
    },
    {
      "inputs": [
        {
          "internalType": "address",
          "name": "_dev",
          "type": "address"
        },
        {
          "internalType": "address",
          "name": "_you",
          "type": "address"
        }
      ],
      "name": "OnlyDev",
      "type": "error"
    },
    {
      "anonymous": false,
      "inputs": [
        {
          "indexed": false,
          "internalType": "address",
          "name": "Dev",
          "type": "address"
        },
        {
          "indexed": false,
          "internalType": "address",
          "name": "newDev",
          "type": "address"
        }
      ],
      "name": "NewDev",
      "type": "event"
    },
    {
      "anonymous": false,
      "inputs": [
        {
          "indexed": false,
          "internalType": "string",
          "name": "_alias",
          "type": "string"
        },
        {
          "indexed": true,
          "internalType": "bytes32",
          "name": "polyhash",
          "type": "bytes32"
        },
        {
          "indexed": false,
          "internalType": "bytes32",
          "name": "cation",
          "type": "bytes32"
        }
      ],
      "name": "NewPolycule",
      "type": "event"
    },
    {
      "inputs": [],
      "name": "Dev",
      "outputs": [
        {
          "internalType": "address",
          "name": "",
          "type": "address"
        }
      ],
      "stateMutability": "view",
      "type": "function"
    },
    {
      "inputs": [],
      "name": "HELIX2",
      "outputs": [
        {
          "internalType": "contract iHELIX2",
          "name": "",
          "type": "address"
        }
      ],
      "stateMutability": "view",
      "type": "function"
    },
    {
      "inputs": [],
      "name": "NAMES",
      "outputs": [
        {
          "internalType": "contract iNAME",
          "name": "",
          "type": "address"
        }
      ],
      "stateMutability": "view",
      "type": "function"
    },
    {
      "inputs": [],
      "name": "POLYCULES",
      "outputs": [
        {
          "internalType": "contract iPOLYCULE",
          "name": "",
          "type": "address"
        }
      ],
      "stateMutability": "view",
      "type": "function"
    },
    {
      "inputs": [],
      "name": "active",
      "outputs": [
        {
          "internalType": "bool",
          "name": "",
          "type": "bool"
        }
      ],
      "stateMutability": "view",
      "type": "function"
    },
    {
      "inputs": [],
      "name": "basePrice",
      "outputs": [
        {
          "internalType": "uint256",
          "name": "",
          "type": "uint256"
        }
      ],
      "stateMutability": "view",
      "type": "function"
    },
    {
      "inputs": [
        {
          "internalType": "address",
          "name": "newDev",
          "type": "address"
        }
      ],
      "name": "changeDev",
      "outputs": [],
      "stateMutability": "nonpayable",
      "type": "function"
    },
    {
      "inputs": [],
      "name": "defaultLifespan",
      "outputs": [
        {
          "internalType": "uint256",
          "name": "",
          "type": "uint256"
        }
      ],
      "stateMutability": "view",
      "type": "function"
    },
    {
      "inputs": [],
      "name": "defaultResolver",
      "outputs": [
        {
          "internalType": "address",
          "name": "",
          "type": "address"
        }
      ],
      "stateMutability": "view",
      "type": "function"
    },
    {
      "inputs": [
        {
          "internalType": "uint256",
          "name": "",
          "type": "uint256"
        }
      ],
      "name": "illegalBlocks",
      "outputs": [
        {
          "internalType": "string",
          "name": "",
          "type": "string"
        }
      ],
      "stateMutability": "view",
      "type": "function"
    },
    {
      "inputs": [
        {
          "internalType": "string",
          "name": "_alias",
          "type": "string"
        },
        {
          "internalType": "bytes32",
          "name": "cation",
          "type": "bytes32"
        },
        {
          "internalType": "bytes32[]",
          "name": "anion",
          "type": "bytes32[]"
        },
        {
          "internalType": "uint256",
          "name": "lifespan",
          "type": "uint256"
        },
        {
          "internalType": "address[]",
          "name": "config",
          "type": "address[]"
        },
        {
          "internalType": "uint8[]",
          "name": "rules",
          "type": "uint8[]"
        }
      ],
      "name": "newPolycule",
      "outputs": [
        {
          "internalType": "bytes32",
          "name": "",
          "type": "bytes32"
        }
      ],
      "stateMutability": "payable",
      "type": "function"
    },
    {
      "inputs": [],
      "name": "polycule",
      "outputs": [
        {
          "internalType": "string",
          "name": "",
          "type": "string"
        }
      ],
      "stateMutability": "view",
      "type": "function"
    },
    {
      "inputs": [],
      "name": "roothash",
      "outputs": [
        {
          "internalType": "bytes32",
          "name": "",
          "type": "bytes32"
        }
      ],
      "stateMutability": "view",
      "type": "function"
    },
    {
      "inputs": [
        {
          "internalType": "uint256",
          "name": "_lifespan",
          "type": "uint256"
        }
      ],
      "name": "setDefaultLifespan",
      "outputs": [],
      "stateMutability": "nonpayable",
      "type": "function"
    },
    {
      "inputs": [
        {
          "internalType": "address",
          "name": "_resolver",
          "type": "address"
        }
      ],
      "name": "setDefaultResolver",
      "outputs": [],
      "stateMutability": "nonpayable",
      "type": "function"
    },
    {
      "inputs": [
        {
          "internalType": "uint256",
          "name": "",
          "type": "uint256"
        }
      ],
      "name": "sizeLimit",
      "outputs": [
        {
          "internalType": "uint256",
          "name": "",
          "type": "uint256"
        }
      ],
      "stateMutability": "view",
      "type": "function"
    },
    {
      "inputs": [],
      "name": "symbol",
      "outputs": [
        {
          "internalType": "string",
          "name": "",
          "type": "string"
        }
      ],
      "stateMutability": "view",
      "type": "function"
    },
    {
      "inputs": [],
      "name": "toggleActive",
      "outputs": [],
      "stateMutability": "nonpayable",
      "type": "function"
    }
  ],
  "bytecode": {
    "object": "0x6080604052600e805460ff60a01b1916600160a01b1790553480156200002457600080fd5b50604051620022dc380380620022dc83398101604081905262000047916200043e565b600b80546001600160a01b038084166001600160a01b03199283168117909355600c8054868316908416179055600d8054918716919092161790556040805163bd9a548b60e01b8152905163bd9a548b916004808201926080929091908290030181865afa158015620000be573d6000803e3d6000fd5b505050506040513d601f19601f82011682018060405250810190620000e4919062000521565b60600151600355600b546040805163335076e760e11b815290516001600160a01b03909216916366a0edce91600480820192610100929091908290030181865afa15801562000137573d6000803e3d6000fd5b505050506040513d601f19601f820116820180604052508101906200015d919062000588565b606001516200017190600490600262000318565b50600b60009054906101000a90046001600160a01b03166001600160a01b031663ec2ace2a6040518163ffffffff1660e01b8152600401608060405180830381865afa158015620001c6573d6000803e3d6000fd5b505050506040513d601f19601f82011682018060405250810190620001ec919062000521565b60600151600255600b54604080516330b5337f60e21b815290516001600160a01b039092169163c2d4cdfc916004808201926000929091908290030181865afa1580156200023e573d6000803e3d6000fd5b505050506040513d6000823e601f3d908101601f191682016040526200026891908101906200063f565b620002789060079060046200035b565b50600b60009054906101000a90046001600160a01b03166001600160a01b031663642a8ed66040518163ffffffff1660e01b8152600401608060405180830381865afa158015620002cd573d6000803e3d6000fd5b505050506040513d601f19601f82011682018060405250810190620002f3919062000521565b600360200201516006555050600080546001600160a01b0319163317905550620008af565b826002810192821562000349579160200282015b82811115620003495782518255916020019190600101906200032c565b5062000357929150620003a7565b5090565b826004810192821562000399579160200282015b82811115620003995782518290620003889082620007e3565b50916020019190600101906200036f565b5062000357929150620003be565b5b80821115620003575760008155600101620003a8565b8082111562000357576000620003d58282620003df565b50600101620003be565b508054620003ed9062000754565b6000825580601f10620003fe575050565b601f0160209004906000526020600020908101906200041e9190620003a7565b50565b80516001600160a01b03811681146200043957600080fd5b919050565b6000806000606084860312156200045457600080fd5b6200045f8462000421565b92506200046f6020850162000421565b91506200047f6040850162000421565b90509250925092565b634e487b7160e01b600052604160045260246000fd5b604051608081016001600160401b0381118282101715620004c357620004c362000488565b60405290565b604080519081016001600160401b0381118282101715620004c357620004c362000488565b604051601f8201601f191681016001600160401b038111828210171562000519576200051962000488565b604052919050565b6000608082840312156200053457600080fd5b82601f8301126200054457600080fd5b6200054e6200049e565b8060808401858111156200056157600080fd5b845b818110156200057d57805184526020938401930162000563565b509095945050505050565b60006101008083850312156200059d57600080fd5b601f8481850112620005ae57600080fd5b620005b86200049e565b918401918086841115620005cb57600080fd5b855b8481101562000634578784820112620005e65760008081fd5b620005f0620004c9565b80604083018a811115620006045760008081fd5b835b818110156200062057805184526020938401930162000606565b5050845250602090920191604001620005cd565b509695505050505050565b600060208083850312156200065357600080fd5b82516001600160401b03808211156200066b57600080fd5b8185019150601f86818401126200068157600080fd5b6200068b6200049e565b8060808501898111156200069e57600080fd5b855b818110156200074557805186811115620006ba5760008081fd5b87018581018c13620006cc5760008081fd5b805187811115620006e157620006e162000488565b620006f4818801601f19168b01620004ee565b8181528d8b8385010111156200070a5760008081fd5b60005b828110156200072a578381018c01518282018d01528b016200070d565b5060009181018b0191909152855250928701928701620006a0565b50909998505050505050505050565b600181811c908216806200076957607f821691505b6020821081036200078a57634e487b7160e01b600052602260045260246000fd5b50919050565b601f821115620007de57600081815260208120601f850160051c81016020861015620007b95750805b601f850160051c820191505b81811015620007da57828155600101620007c5565b5050505b505050565b81516001600160401b03811115620007ff57620007ff62000488565b620008178162000810845462000754565b8462000790565b602080601f8311600181146200084f5760008415620008365750858301515b600019600386901b1c1916600185901b178555620007da565b600085815260208120601f198616915b8281101562000880578886015182559484019460019091019084016200085f565b50858210156200089f5787850151600019600388901b60f8161c191681555b5050505050600190811b01905550565b611a1d80620008bf6000396000f3fe6080604052600436106101295760003560e01c8063769da4bb116100a557806395d89b4111610074578063c66485b211610059578063c66485b2146103d1578063c7876ea4146103f1578063d9ebda121461040757600080fd5b806395d89b411461035b578063b782426e146103a457600080fd5b8063769da4bb146102ce57806380b29beb146102ee578063828eab0e1461030e57806388a8c95c1461033b57600080fd5b8063251c9422116100fc578063303c128f116100e1578063303c128f146102455780633823c6c31461029b57806339506308146102ae57600080fd5b8063251c94221461021857806329c68dc11461022e57600080fd5b806301e51ae81461012e57806302fb0c5e1461018557806305e84aa0146101c75780630e6c0bdb146101f4575b600080fd5b34801561013a57600080fd5b5060005461015b9073ffffffffffffffffffffffffffffffffffffffff1681565b60405173ffffffffffffffffffffffffffffffffffffffff90911681526020015b60405180910390f35b34801561019157600080fd5b50600e546101b79074010000000000000000000000000000000000000000900460ff1681565b604051901515815260200161017c565b3480156101d357600080fd5b50600c5461015b9073ffffffffffffffffffffffffffffffffffffffff1681565b34801561020057600080fd5b5061020a60025481565b60405190815260200161017c565b34801561022457600080fd5b5061020a60065481565b34801561023a57600080fd5b50610243610434565b005b34801561025157600080fd5b5061028e6040518060400160405280601781526020017f48656c69783220506f6c7963756c65205365727669636500000000000000000081525081565b60405161017c91906112ae565b61020a6102a936600461151b565b6104f9565b3480156102ba57600080fd5b506102436102c93660046115da565b610d60565b3480156102da57600080fd5b5061020a6102e93660046115da565b610dd8565b3480156102fa57600080fd5b5061028e6103093660046115da565b610def565b34801561031a57600080fd5b50600e5461015b9073ffffffffffffffffffffffffffffffffffffffff1681565b34801561034757600080fd5b506102436103563660046115f3565b610e8f565b34801561036757600080fd5b5061028e6040518060400160405280600381526020017f485053000000000000000000000000000000000000000000000000000000000081525081565b3480156103b057600080fd5b50600b5461015b9073ffffffffffffffffffffffffffffffffffffffff1681565b3480156103dd57600080fd5b506102436103ec3660046115f3565b610f9d565b3480156103fd57600080fd5b5061020a60035481565b34801561041357600080fd5b50600d5461015b9073ffffffffffffffffffffffffffffffffffffffff1681565b60005473ffffffffffffffffffffffffffffffffffffffff1633146104ac576000546040517f8ea458f600000000000000000000000000000000000000000000000000000000815273ffffffffffffffffffffffffffffffffffffffff90911660048201523360248201526044015b60405180910390fd5b600e80547fffffffffffffffffffffff00ffffffffffffffffffffffffffffffffffffffff8116740100000000000000000000000000000000000000009182900460ff1615909102179055565b600086600482015461050a82611057565b118015610520575060055461051e82611057565b105b610586576040517f08c379a000000000000000000000000000000000000000000000000000000000815260206004820152600d60248201527f494c4c4547414c5f4c4142454c0000000000000000000000000000000000000060448201526064016104a3565b6040517fa6470fd600000000000000000000000000000000000000000000000000000000815273__$47e4ffaaf323c41735ff299f8946896ce0$__9063a6470fd6906105d9908490600790600401611692565b602060405180830381865af41580156105f6573d6000803e3d6000fd5b505050506040513d601f19601f8201168201806040525081019061061a91906117c0565b15610681576040517f08c379a000000000000000000000000000000000000000000000000000000000815260206004820152600d60248201527f494c4c4547414c5f43484152530000000000000000000000000000000000000060448201526064016104a3565b858480518251146106ee576040517f08c379a000000000000000000000000000000000000000000000000000000000815260206004820152600760248201527f4241445f4d41500000000000000000000000000000000000000000000000000060448201526064016104a3565b600c546040517f02571be3000000000000000000000000000000000000000000000000000000008152600481018b905260009173ffffffffffffffffffffffffffffffffffffffff16906302571be390602401602060405180830381865afa15801561075e573d6000803e3d6000fd5b505050506040513d601f19601f8201168201806040525081019061078291906117e2565b90506002548810156107f0576040517f08c379a000000000000000000000000000000000000000000000000000000000815260206004820152601260248201527f4c4946455350414e5f544f4f5f53484f5254000000000000000000000000000060448201526064016104a3565b876003546107fe919061182e565b341015610867576040517f08c379a000000000000000000000000000000000000000000000000000000000815260206004820152601260248201527f494e53554646494349454e545f4554484552000000000000000000000000000060448201526064016104a3565b60008b60405160200161087a919061186b565b60408051601f1981840301815282825280516020918201206006549184018f90529183015260608201819052915060009060800160408051808303601f19018152908290528051602090910120600d547ff79fe5380000000000000000000000000000000000000000000000000000000083526004830182905290925073ffffffffffffffffffffffffffffffffffffffff169063f79fe53890602401602060405180830381865afa158015610934573d6000803e3d6000fd5b505050506040513d601f19601f8201168201806040525081019061095891906117c0565b156109bf576040517f08c379a000000000000000000000000000000000000000000000000000000000815260206004820152600f60248201527f504f4c5943554c455f455849535453000000000000000000000000000000000060448201526064016104a3565b600d546040517f2f92673200000000000000000000000000000000000000000000000000000000815260048101839052602481018e905273ffffffffffffffffffffffffffffffffffffffff90911690632f92673290604401600060405180830381600087803b158015610a3257600080fd5b505af1158015610a46573d6000803e3d6000fd5b5050600d546040517f250548b900000000000000000000000000000000000000000000000000000000815273ffffffffffffffffffffffffffffffffffffffff909116925063250548b99150610aa69084908f908e908e906004016118c5565b600060405180830381600087803b158015610ac057600080fd5b505af1158015610ad4573d6000803e3d6000fd5b5050600d5473ffffffffffffffffffffffffffffffffffffffff1691506339de6469905082610b038d42611974565b6040517fffffffff0000000000000000000000000000000000000000000000000000000060e085901b16815260048101929092526024820152604401600060405180830381600087803b158015610b5957600080fd5b505af1158015610b6d573d6000803e3d6000fd5b5050600d546040517fd31569050000000000000000000000000000000000000000000000000000000081526004810185905273ffffffffffffffffffffffffffffffffffffffff8781166024830152909116925063d31569059150604401600060405180830381600087803b158015610be557600080fd5b505af1158015610bf9573d6000803e3d6000fd5b5050600d54600e546040517f1896f70a0000000000000000000000000000000000000000000000000000000081526004810186905273ffffffffffffffffffffffffffffffffffffffff918216602482015291169250631896f70a9150604401600060405180830381600087803b158015610c7357600080fd5b505af1158015610c87573d6000803e3d6000fd5b5050600d546040517f1f06e91c000000000000000000000000000000000000000000000000000000008152600481018590526024810186905273ffffffffffffffffffffffffffffffffffffffff9091169250631f06e91c9150604401600060405180830381600087803b158015610cfe57600080fd5b505af1158015610d12573d6000803e3d6000fd5b50505050807fd7a9d3cbed5c74971bf7c5fcf78aaddd30d375cbecfc4c5dea6189bf5d2235fc8e8e604051610d4892919061198d565b60405180910390a29c9b505050505050505050505050565b60005473ffffffffffffffffffffffffffffffffffffffff163314610dd3576000546040517f8ea458f600000000000000000000000000000000000000000000000000000000815273ffffffffffffffffffffffffffffffffffffffff90911660048201523360248201526044016104a3565b600255565b60048160028110610de857600080fd5b0154905081565b60078160048110610dff57600080fd5b018054909150610e0e9061163f565b80601f0160208091040260200160405190810160405280929190818152602001828054610e3a9061163f565b8015610e875780601f10610e5c57610100808354040283529160200191610e87565b820191906000526020600020905b815481529060010190602001808311610e6a57829003601f168201915b505050505081565b60005473ffffffffffffffffffffffffffffffffffffffff163314610f02576000546040517f8ea458f600000000000000000000000000000000000000000000000000000000815273ffffffffffffffffffffffffffffffffffffffff90911660048201523360248201526044016104a3565b6000546040805173ffffffffffffffffffffffffffffffffffffffff928316815291831660208301527fdec101f106d4fc7c85791843e64b198248c822298e3ed7046231d33f7783d816910160405180910390a1600080547fffffffffffffffffffffffff00000000000000000000000000000000000000001673ffffffffffffffffffffffffffffffffffffffff92909216919091179055565b60005473ffffffffffffffffffffffffffffffffffffffff163314611010576000546040517f8ea458f600000000000000000000000000000000000000000000000000000000815273ffffffffffffffffffffffffffffffffffffffff90911660048201523360248201526044016104a3565b600e80547fffffffffffffffffffffffff00000000000000000000000000000000000000001673ffffffffffffffffffffffffffffffffffffffff92909216919091179055565b8051600090819081905b8082101561125557600085838151811061107d5761107d611610565b01602001517fff000000000000000000000000000000000000000000000000000000000000001690507f80000000000000000000000000000000000000000000000000000000000000008110156110e0576110d9600184611974565b9250611242565b7fe0000000000000000000000000000000000000000000000000000000000000007fff0000000000000000000000000000000000000000000000000000000000000082161015611135576110d9600284611974565b7ff0000000000000000000000000000000000000000000000000000000000000007fff000000000000000000000000000000000000000000000000000000000000008216101561118a576110d9600384611974565b7ff8000000000000000000000000000000000000000000000000000000000000007fff00000000000000000000000000000000000000000000000000000000000000821610156111df576110d9600484611974565b7ffc000000000000000000000000000000000000000000000000000000000000007fff0000000000000000000000000000000000000000000000000000000000000082161015611234576110d9600584611974565b61123f600684611974565b92505b508261124d816119af565b935050611061565b50909392505050565b60005b83811015611279578181015183820152602001611261565b50506000910152565b6000815180845261129a81602086016020860161125e565b601f01601f19169290920160200192915050565b6020815260006112c16020830184611282565b9392505050565b7f4e487b7100000000000000000000000000000000000000000000000000000000600052604160045260246000fd5b604051601f8201601f1916810167ffffffffffffffff81118282101715611320576113206112c8565b604052919050565b600082601f83011261133957600080fd5b813567ffffffffffffffff811115611353576113536112c8565b6113666020601f19601f840116016112f7565b81815284602083860101111561137b57600080fd5b816020850160208301376000918101602001919091529392505050565b600067ffffffffffffffff8211156113b2576113b26112c8565b5060051b60200190565b600082601f8301126113cd57600080fd5b813560206113e26113dd83611398565b6112f7565b82815260059290921b8401810191818101908684111561140157600080fd5b8286015b8481101561141c5780358352918301918301611405565b509695505050505050565b73ffffffffffffffffffffffffffffffffffffffff8116811461144957600080fd5b50565b600082601f83011261145d57600080fd5b8135602061146d6113dd83611398565b82815260059290921b8401810191818101908684111561148c57600080fd5b8286015b8481101561141c5780356114a381611427565b8352918301918301611490565b600082601f8301126114c157600080fd5b813560206114d16113dd83611398565b82815260059290921b840181019181810190868411156114f057600080fd5b8286015b8481101561141c57803560ff8116811461150e5760008081fd5b83529183019183016114f4565b60008060008060008060c0878903121561153457600080fd5b863567ffffffffffffffff8082111561154c57600080fd5b6115588a838b01611328565b975060208901359650604089013591508082111561157557600080fd5b6115818a838b016113bc565b955060608901359450608089013591508082111561159e57600080fd5b6115aa8a838b0161144c565b935060a08901359150808211156115c057600080fd5b506115cd89828a016114b0565b9150509295509295509295565b6000602082840312156115ec57600080fd5b5035919050565b60006020828403121561160557600080fd5b81356112c181611427565b7f4e487b7100000000000000000000000000000000000000000000000000000000600052603260045260246000fd5b600181811c9082168061165357607f821691505b60208210810361168c577f4e487b7100000000000000000000000000000000000000000000000000000000600052602260045260246000fd5b50919050565b6040815260006116a56040830185611282565b60208382038185015281829050608083018660005b60048082106116c957506117b2565b86840385528254600090600181811c90808316806116e857607f831692505b8a8310810361171d577f4e487b7100000000000000000000000000000000000000000000000000000000855260228652602485fd5b82895260208901955080801561173a576001811461176e57611799565b7fffffffffffffffffffffffffffffffffffffffffffffffffffffffffffffff008516875283151560051b87019550611799565b60008981526020902060005b8581101561179357815489820152908401908d0161177a565b88019650505b50509789019792965050509290920191506001016116ba565b509098975050505050505050565b6000602082840312156117d257600080fd5b815180151581146112c157600080fd5b6000602082840312156117f457600080fd5b81516112c181611427565b7f4e487b7100000000000000000000000000000000000000000000000000000000600052601160045260246000fd5b6000817fffffffffffffffffffffffffffffffffffffffffffffffffffffffffffffffff0483118215151615611866576118666117ff565b500290565b6000825161187d81846020870161125e565b9190910192915050565b600081518084526020808501945080840160005b838110156118ba57815160ff168752958201959082019060010161189b565b509495945050505050565b600060808201868352602060808185015281875180845260a086019150828901935060005b81811015611906578451835293830193918301916001016118ea565b50508481036040860152865180825290820192508187019060005b8181101561195357825173ffffffffffffffffffffffffffffffffffffffff1685529383019391830191600101611921565b5050505082810360608401526119698185611887565b979650505050505050565b80820180821115611987576119876117ff565b92915050565b6040815260006119a06040830185611282565b90508260208301529392505050565b60007fffffffffffffffffffffffffffffffffffffffffffffffffffffffffffffffff82036119e0576119e06117ff565b506001019056fea2646970667358221220aa7d5c02da2410117199f5fd721b38b3e8bc0692d14a21ab50052bf84c8fa40e64736f6c63430008100033",
    "linkReferences": {
      "src/Utils/LibString.sol": {
        "LibString": [
          {
            "start": 3693,
            "length": 20
          }
        ]
      }
    }
  },
  "methodIdentifiers": {
    "Dev()": "01e51ae8",
    "HELIX2()": "b782426e",
    "NAMES()": "05e84aa0",
    "POLYCULES()": "d9ebda12",
    "active()": "02fb0c5e",
    "basePrice()": "c7876ea4",
    "changeDev(address)": "88a8c95c",
    "defaultLifespan()": "0e6c0bdb",
    "defaultResolver()": "828eab0e",
    "illegalBlocks(uint256)": "80b29beb",
    "newPolycule(string,bytes32,bytes32[],uint256,address[],uint8[])": "3823c6c3",
    "polycule()": "303c128f",
    "roothash()": "251c9422",
    "setDefaultLifespan(uint256)": "39506308",
    "setDefaultResolver(address)": "c66485b2",
    "sizeLimit(uint256)": "769da4bb",
    "symbol()": "95d89b41",
    "toggleActive()": "29c68dc1"
  },
  "id": 38
}