{
  "abi": [
    {
      "inputs": [
        {
          "internalType": "address",
          "name": "__registry",
          "type": "address"
        },
        {
          "internalType": "address",
          "name": "_registry",
          "type": "address"
        },
        {
          "internalType": "address",
          "name": "_helix2",
          "type": "address"
        },
        {
          "internalType": "address",
          "name": "_priceOracle",
          "type": "address"
        }
      ],
      "stateMutability": "nonpayable",
      "type": "constructor"
    },
    {
      "inputs": [
        {
          "internalType": "address",
          "name": "_dev",
          "type": "address"
        },
        {
          "internalType": "address",
          "name": "_you",
          "type": "address"
        }
      ],
      "name": "OnlyDev",
      "type": "error"
    },
    {
      "anonymous": false,
      "inputs": [
        {
          "indexed": false,
          "internalType": "address",
          "name": "Dev",
          "type": "address"
        },
        {
          "indexed": false,
          "internalType": "address",
          "name": "newDev",
          "type": "address"
        }
      ],
      "name": "NewDev",
      "type": "event"
    },
    {
      "anonymous": false,
      "inputs": [
        {
          "indexed": false,
          "internalType": "string",
          "name": "_alias",
          "type": "string"
        },
        {
          "indexed": true,
          "internalType": "bytes32",
          "name": "polyhash",
          "type": "bytes32"
        },
        {
          "indexed": false,
          "internalType": "bytes32",
          "name": "cation",
          "type": "bytes32"
        }
      ],
      "name": "NewPolycule",
      "type": "event"
    },
    {
      "inputs": [],
      "name": "Dev",
      "outputs": [
        {
          "internalType": "address",
          "name": "",
          "type": "address"
        }
      ],
      "stateMutability": "view",
      "type": "function"
    },
    {
      "inputs": [],
      "name": "HELIX2",
      "outputs": [
        {
          "internalType": "contract iHELIX2",
          "name": "",
          "type": "address"
        }
      ],
      "stateMutability": "view",
      "type": "function"
    },
    {
      "inputs": [],
      "name": "NAMES",
      "outputs": [
        {
          "internalType": "contract iNAME",
          "name": "",
          "type": "address"
        }
      ],
      "stateMutability": "view",
      "type": "function"
    },
    {
      "inputs": [],
      "name": "POLYCULES",
      "outputs": [
        {
          "internalType": "contract iPOLYCULE",
          "name": "",
          "type": "address"
        }
      ],
      "stateMutability": "view",
      "type": "function"
    },
    {
      "inputs": [],
      "name": "PRICES",
      "outputs": [
        {
          "internalType": "contract iPriceOracle",
          "name": "",
          "type": "address"
        }
      ],
      "stateMutability": "view",
      "type": "function"
    },
    {
      "inputs": [],
      "name": "active",
      "outputs": [
        {
          "internalType": "bool",
          "name": "",
          "type": "bool"
        }
      ],
      "stateMutability": "view",
      "type": "function"
    },
    {
      "inputs": [],
      "name": "basePrice",
      "outputs": [
        {
          "internalType": "uint256",
          "name": "",
          "type": "uint256"
        }
      ],
      "stateMutability": "view",
      "type": "function"
    },
    {
      "inputs": [
        {
          "internalType": "address",
          "name": "newDev",
          "type": "address"
        }
      ],
      "name": "changeDev",
      "outputs": [],
      "stateMutability": "nonpayable",
      "type": "function"
    },
    {
      "inputs": [],
      "name": "defaultLifespan",
      "outputs": [
        {
          "internalType": "uint256",
          "name": "",
          "type": "uint256"
        }
      ],
      "stateMutability": "view",
      "type": "function"
    },
    {
      "inputs": [],
      "name": "defaultResolver",
      "outputs": [
        {
          "internalType": "address",
          "name": "",
          "type": "address"
        }
      ],
      "stateMutability": "view",
      "type": "function"
    },
    {
      "inputs": [
        {
          "internalType": "uint256",
          "name": "",
          "type": "uint256"
        }
      ],
      "name": "illegalBlocks",
      "outputs": [
        {
          "internalType": "string",
          "name": "",
          "type": "string"
        }
      ],
      "stateMutability": "view",
      "type": "function"
    },
    {
      "inputs": [
        {
          "internalType": "string",
          "name": "_alias",
          "type": "string"
        },
        {
          "internalType": "bytes32",
          "name": "cation",
          "type": "bytes32"
        },
        {
          "internalType": "bytes32[]",
          "name": "anion",
          "type": "bytes32[]"
        },
        {
          "internalType": "uint256",
          "name": "lifespan",
          "type": "uint256"
        },
        {
          "internalType": "address[]",
          "name": "config",
          "type": "address[]"
        },
        {
          "internalType": "uint8[]",
          "name": "rules",
          "type": "uint8[]"
        }
      ],
      "name": "newPolycule",
      "outputs": [
        {
          "internalType": "bytes32",
          "name": "",
          "type": "bytes32"
        }
      ],
      "stateMutability": "payable",
      "type": "function"
    },
    {
      "inputs": [],
      "name": "polycule",
      "outputs": [
        {
          "internalType": "string",
          "name": "",
          "type": "string"
        }
      ],
      "stateMutability": "view",
      "type": "function"
    },
    {
      "inputs": [],
      "name": "roothash",
      "outputs": [
        {
          "internalType": "bytes32",
          "name": "",
          "type": "bytes32"
        }
      ],
      "stateMutability": "view",
      "type": "function"
    },
    {
      "inputs": [
        {
          "internalType": "uint256",
          "name": "_lifespan",
          "type": "uint256"
        }
      ],
      "name": "setDefaultLifespan",
      "outputs": [],
      "stateMutability": "nonpayable",
      "type": "function"
    },
    {
      "inputs": [
        {
          "internalType": "address",
          "name": "_resolver",
          "type": "address"
        }
      ],
      "name": "setDefaultResolver",
      "outputs": [],
      "stateMutability": "nonpayable",
      "type": "function"
    },
    {
      "inputs": [
        {
          "internalType": "uint256",
          "name": "",
          "type": "uint256"
        }
      ],
      "name": "sizeLimit",
      "outputs": [
        {
          "internalType": "uint256",
          "name": "",
          "type": "uint256"
        }
      ],
      "stateMutability": "view",
      "type": "function"
    },
    {
      "inputs": [],
      "name": "symbol",
      "outputs": [
        {
          "internalType": "string",
          "name": "",
          "type": "string"
        }
      ],
      "stateMutability": "view",
      "type": "function"
    },
    {
      "inputs": [],
      "name": "toggleActive",
      "outputs": [],
      "stateMutability": "nonpayable",
      "type": "function"
    }
  ],
  "bytecode": {
    "object": "0x6080604052600f805460ff60a01b1916600160a01b1790553480156200002457600080fd5b50604051620022e6380380620022e683398101604081905262000047916200044a565b600c80546001600160a01b038085166001600160a01b031992831617909255600d8054868416908316179055600e8054878416908316179055600b805492841692909116821790556040805163bd9a548b60e01b8152905163bd9a548b916004808201926080929091908290030181865afa158015620000cb573d6000803e3d6000fd5b505050506040513d601f19601f82011682018060405250810190620000f1919062000540565b51600355600c546040805163335076e760e11b815290516001600160a01b03909216916366a0edce91600480820192610100929091908290030181865afa15801562000141573d6000803e3d6000fd5b505050506040513d601f19601f82011682018060405250810190620001679190620005a7565b606001516200017b90600490600262000324565b50600c60009054906101000a90046001600160a01b03166001600160a01b031663ec2ace2a6040518163ffffffff1660e01b8152600401608060405180830381865afa158015620001d0573d6000803e3d6000fd5b505050506040513d601f19601f82011682018060405250810190620001f6919062000540565b60600151600255600c54604080516330b5337f60e21b815290516001600160a01b039092169163c2d4cdfc916004808201926000929091908290030181865afa15801562000248573d6000803e3d6000fd5b505050506040513d6000823e601f3d908101601f191682016040526200027291908101906200065e565b6200028290600790600462000367565b50600c60009054906101000a90046001600160a01b03166001600160a01b031663642a8ed66040518163ffffffff1660e01b8152600401608060405180830381865afa158015620002d7573d6000803e3d6000fd5b505050506040513d601f19601f82011682018060405250810190620002fd919062000540565b600360200201516006555050600080546001600160a01b0319163317905550620008ce9050565b826002810192821562000355579160200282015b828111156200035557825182559160200191906001019062000338565b5062000363929150620003b3565b5090565b8260048101928215620003a5579160200282015b82811115620003a5578251829062000394908262000802565b50916020019190600101906200037b565b5062000363929150620003ca565b5b80821115620003635760008155600101620003b4565b8082111562000363576000620003e18282620003eb565b50600101620003ca565b508054620003f99062000773565b6000825580601f106200040a575050565b601f0160209004906000526020600020908101906200042a9190620003b3565b50565b80516001600160a01b03811681146200044557600080fd5b919050565b600080600080608085870312156200046157600080fd5b6200046c856200042d565b93506200047c602086016200042d565b92506200048c604086016200042d565b91506200049c606086016200042d565b905092959194509250565b634e487b7160e01b600052604160045260246000fd5b604051608081016001600160401b0381118282101715620004e257620004e2620004a7565b60405290565b604080519081016001600160401b0381118282101715620004e257620004e2620004a7565b604051601f8201601f191681016001600160401b0381118282101715620005385762000538620004a7565b604052919050565b6000608082840312156200055357600080fd5b82601f8301126200056357600080fd5b6200056d620004bd565b8060808401858111156200058057600080fd5b845b818110156200059c57805184526020938401930162000582565b509095945050505050565b6000610100808385031215620005bc57600080fd5b601f8481850112620005cd57600080fd5b620005d7620004bd565b918401918086841115620005ea57600080fd5b855b8481101562000653578784820112620006055760008081fd5b6200060f620004e8565b80604083018a811115620006235760008081fd5b835b818110156200063f57805184526020938401930162000625565b5050845250602090920191604001620005ec565b509695505050505050565b600060208083850312156200067257600080fd5b82516001600160401b03808211156200068a57600080fd5b8185019150601f8681840112620006a057600080fd5b620006aa620004bd565b806080850189811115620006bd57600080fd5b855b818110156200076457805186811115620006d95760008081fd5b87018581018c13620006eb5760008081fd5b805187811115620007005762000700620004a7565b62000713818801601f19168b016200050d565b8181528d8b838501011115620007295760008081fd5b60005b8281101562000749578381018c01518282018d01528b016200072c565b5060009181018b0191909152855250928701928701620006bf565b50909998505050505050505050565b600181811c908216806200078857607f821691505b602082108103620007a957634e487b7160e01b600052602260045260246000fd5b50919050565b601f821115620007fd57600081815260208120601f850160051c81016020861015620007d85750805b601f850160051c820191505b81811015620007f957828155600101620007e4565b5050505b505050565b81516001600160401b038111156200081e576200081e620004a7565b62000836816200082f845462000773565b84620007af565b602080601f8311600181146200086e5760008415620008555750858301515b600019600386901b1c1916600185901b178555620007f9565b600085815260208120601f198616915b828110156200089f578886015182559484019460019091019084016200087e565b5085821015620008be5787850151600019600388901b60f8161c191681555b5050505050600190811b01905550565b611a0880620008de6000396000f3fe6080604052600436106101445760003560e01c806339506308116100c057806395d89b4111610074578063c66485b211610059578063c66485b214610419578063c7876ea414610439578063d9ebda121461044f57600080fd5b806395d89b41146103a3578063b782426e146103ec57600080fd5b806380b29beb116100a557806380b29beb14610336578063828eab0e1461035657806388a8c95c1461038357600080fd5b806339506308146102f6578063769da4bb1461031657600080fd5b80631eabcd341161011757806329c68dc1116100fc57806329c68dc114610276578063303c128f1461028d5780633823c6c3146102e357600080fd5b80631eabcd3414610233578063251c94221461026057600080fd5b806301e51ae81461014957806302fb0c5e146101a057806305e84aa0146101e25780630e6c0bdb1461020f575b600080fd5b34801561015557600080fd5b506000546101769073ffffffffffffffffffffffffffffffffffffffff1681565b60405173ffffffffffffffffffffffffffffffffffffffff90911681526020015b60405180910390f35b3480156101ac57600080fd5b50600f546101d29074010000000000000000000000000000000000000000900460ff1681565b6040519015158152602001610197565b3480156101ee57600080fd5b50600d546101769073ffffffffffffffffffffffffffffffffffffffff1681565b34801561021b57600080fd5b5061022560025481565b604051908152602001610197565b34801561023f57600080fd5b50600b546101769073ffffffffffffffffffffffffffffffffffffffff1681565b34801561026c57600080fd5b5061022560065481565b34801561028257600080fd5b5061028b61047c565b005b34801561029957600080fd5b506102d66040518060400160405280601781526020017f48656c69783220506f6c7963756c65205365727669636500000000000000000081525081565b60405161019791906113cd565b6102256102f136600461163a565b610541565b34801561030257600080fd5b5061028b6103113660046116f9565b610de1565b34801561032257600080fd5b506102256103313660046116f9565b610e59565b34801561034257600080fd5b506102d66103513660046116f9565b610e70565b34801561036257600080fd5b50600f546101769073ffffffffffffffffffffffffffffffffffffffff1681565b34801561038f57600080fd5b5061028b61039e366004611712565b610f10565b3480156103af57600080fd5b506102d66040518060400160405280600381526020017f485053000000000000000000000000000000000000000000000000000000000081525081565b3480156103f857600080fd5b50600c546101769073ffffffffffffffffffffffffffffffffffffffff1681565b34801561042557600080fd5b5061028b610434366004611712565b61101e565b34801561044557600080fd5b5061022560035481565b34801561045b57600080fd5b50600e546101769073ffffffffffffffffffffffffffffffffffffffff1681565b60005473ffffffffffffffffffffffffffffffffffffffff1633146104f4576000546040517f8ea458f600000000000000000000000000000000000000000000000000000000815273ffffffffffffffffffffffffffffffffffffffff90911660048201523360248201526044015b60405180910390fd5b600f80547fffffffffffffffffffffff00ffffffffffffffffffffffffffffffffffffffff8116740100000000000000000000000000000000000000009182900460ff1615909102179055565b6000866004820154610552826110d8565b1180156105685750600554610566826110d8565b105b6105ce576040517f08c379a000000000000000000000000000000000000000000000000000000000815260206004820152600d60248201527f494c4c4547414c5f4c4142454c0000000000000000000000000000000000000060448201526064016104eb565b604080516080810190915261069b90600760046000835b828210156106885783820180546105fb9061175e565b80601f01602080910402602001604051908101604052809291908181526020018280546106279061175e565b80156106745780601f1061064957610100808354040283529160200191610674565b820191906000526020600020905b81548152906001019060200180831161065757829003601f168201915b5050505050815260200190600101906105e5565b50505050826112df90919063ffffffff16565b15610702576040517f08c379a000000000000000000000000000000000000000000000000000000000815260206004820152600d60248201527f494c4c4547414c5f43484152530000000000000000000000000000000000000060448201526064016104eb565b8584805182511461076f576040517f08c379a000000000000000000000000000000000000000000000000000000000815260206004820152600760248201527f4241445f4d41500000000000000000000000000000000000000000000000000060448201526064016104eb565b600d546040517f02571be3000000000000000000000000000000000000000000000000000000008152600481018b905260009173ffffffffffffffffffffffffffffffffffffffff16906302571be390602401602060405180830381865afa1580156107df573d6000803e3d6000fd5b505050506040513d601f19601f8201168201806040525081019061080391906117b1565b9050600254881015610871576040517f08c379a000000000000000000000000000000000000000000000000000000000815260206004820152601260248201527f4c4946455350414e5f544f4f5f53484f5254000000000000000000000000000060448201526064016104eb565b8760035461087f91906117fd565b3410156108e8576040517f08c379a000000000000000000000000000000000000000000000000000000000815260206004820152601260248201527f494e53554646494349454e545f4554484552000000000000000000000000000060448201526064016104eb565b60008b6040516020016108fb919061183a565b60408051601f1981840301815282825280516020918201206006549184018f90529183015260608201819052915060009060800160408051808303601f19018152908290528051602090910120600e547ff79fe5380000000000000000000000000000000000000000000000000000000083526004830182905290925073ffffffffffffffffffffffffffffffffffffffff169063f79fe53890602401602060405180830381865afa1580156109b5573d6000803e3d6000fd5b505050506040513d601f19601f820116820180604052508101906109d99190611856565b15610a40576040517f08c379a000000000000000000000000000000000000000000000000000000000815260206004820152600f60248201527f504f4c5943554c455f455849535453000000000000000000000000000000000060448201526064016104eb565b600e546040517f2f92673200000000000000000000000000000000000000000000000000000000815260048101839052602481018e905273ffffffffffffffffffffffffffffffffffffffff90911690632f92673290604401600060405180830381600087803b158015610ab357600080fd5b505af1158015610ac7573d6000803e3d6000fd5b5050600e546040517f250548b900000000000000000000000000000000000000000000000000000000815273ffffffffffffffffffffffffffffffffffffffff909116925063250548b99150610b279084908f908e908e906004016118b6565b600060405180830381600087803b158015610b4157600080fd5b505af1158015610b55573d6000803e3d6000fd5b5050600e5473ffffffffffffffffffffffffffffffffffffffff1691506339de6469905082610b848d42611965565b6040517fffffffff0000000000000000000000000000000000000000000000000000000060e085901b16815260048101929092526024820152604401600060405180830381600087803b158015610bda57600080fd5b505af1158015610bee573d6000803e3d6000fd5b5050600e546040517fd31569050000000000000000000000000000000000000000000000000000000081526004810185905273ffffffffffffffffffffffffffffffffffffffff8781166024830152909116925063d31569059150604401600060405180830381600087803b158015610c6657600080fd5b505af1158015610c7a573d6000803e3d6000fd5b5050600e54600f546040517f1896f70a0000000000000000000000000000000000000000000000000000000081526004810186905273ffffffffffffffffffffffffffffffffffffffff918216602482015291169250631896f70a9150604401600060405180830381600087803b158015610cf457600080fd5b505af1158015610d08573d6000803e3d6000fd5b5050600e546040517f1f06e91c000000000000000000000000000000000000000000000000000000008152600481018590526024810186905273ffffffffffffffffffffffffffffffffffffffff9091169250631f06e91c9150604401600060405180830381600087803b158015610d7f57600080fd5b505af1158015610d93573d6000803e3d6000fd5b50505050807fd7a9d3cbed5c74971bf7c5fcf78aaddd30d375cbecfc4c5dea6189bf5d2235fc8e8e604051610dc9929190611978565b60405180910390a29c9b505050505050505050505050565b60005473ffffffffffffffffffffffffffffffffffffffff163314610e54576000546040517f8ea458f600000000000000000000000000000000000000000000000000000000815273ffffffffffffffffffffffffffffffffffffffff90911660048201523360248201526044016104eb565b600255565b60048160028110610e6957600080fd5b0154905081565b60078160048110610e8057600080fd5b018054909150610e8f9061175e565b80601f0160208091040260200160405190810160405280929190818152602001828054610ebb9061175e565b8015610f085780601f10610edd57610100808354040283529160200191610f08565b820191906000526020600020905b815481529060010190602001808311610eeb57829003601f168201915b505050505081565b60005473ffffffffffffffffffffffffffffffffffffffff163314610f83576000546040517f8ea458f600000000000000000000000000000000000000000000000000000000815273ffffffffffffffffffffffffffffffffffffffff90911660048201523360248201526044016104eb565b6000546040805173ffffffffffffffffffffffffffffffffffffffff928316815291831660208301527fdec101f106d4fc7c85791843e64b198248c822298e3ed7046231d33f7783d816910160405180910390a1600080547fffffffffffffffffffffffff00000000000000000000000000000000000000001673ffffffffffffffffffffffffffffffffffffffff92909216919091179055565b60005473ffffffffffffffffffffffffffffffffffffffff163314611091576000546040517f8ea458f600000000000000000000000000000000000000000000000000000000815273ffffffffffffffffffffffffffffffffffffffff90911660048201523360248201526044016104eb565b600f80547fffffffffffffffffffffffff00000000000000000000000000000000000000001673ffffffffffffffffffffffffffffffffffffffff92909216919091179055565b8051600090819081905b808210156112d65760008583815181106110fe576110fe61172f565b01602001517fff000000000000000000000000000000000000000000000000000000000000001690507f80000000000000000000000000000000000000000000000000000000000000008110156111615761115a600184611965565b92506112c3565b7fe0000000000000000000000000000000000000000000000000000000000000007fff00000000000000000000000000000000000000000000000000000000000000821610156111b65761115a600284611965565b7ff0000000000000000000000000000000000000000000000000000000000000007fff000000000000000000000000000000000000000000000000000000000000008216101561120b5761115a600384611965565b7ff8000000000000000000000000000000000000000000000000000000000000007fff00000000000000000000000000000000000000000000000000000000000000821610156112605761115a600484611965565b7ffc000000000000000000000000000000000000000000000000000000000000007fff00000000000000000000000000000000000000000000000000000000000000821610156112b55761115a600584611965565b6112c0600684611965565b92505b50826112ce8161199a565b9350506110e2565b50909392505050565b6000805b600481101561137157836040516020016112fd919061183a565b604051602081830303815290604052805190602001208382600481106113255761132561172f565b602002015160405160200161133a919061183a565b604051602081830303815290604052805190602001200361135f576001915050611377565b806113698161199a565b9150506112e3565b50600090505b92915050565b60005b83811015611398578181015183820152602001611380565b50506000910152565b600081518084526113b981602086016020860161137d565b601f01601f19169290920160200192915050565b6020815260006113e060208301846113a1565b9392505050565b7f4e487b7100000000000000000000000000000000000000000000000000000000600052604160045260246000fd5b604051601f8201601f1916810167ffffffffffffffff8111828210171561143f5761143f6113e7565b604052919050565b600082601f83011261145857600080fd5b813567ffffffffffffffff811115611472576114726113e7565b6114856020601f19601f84011601611416565b81815284602083860101111561149a57600080fd5b816020850160208301376000918101602001919091529392505050565b600067ffffffffffffffff8211156114d1576114d16113e7565b5060051b60200190565b600082601f8301126114ec57600080fd5b813560206115016114fc836114b7565b611416565b82815260059290921b8401810191818101908684111561152057600080fd5b8286015b8481101561153b5780358352918301918301611524565b509695505050505050565b73ffffffffffffffffffffffffffffffffffffffff8116811461156857600080fd5b50565b600082601f83011261157c57600080fd5b8135602061158c6114fc836114b7565b82815260059290921b840181019181810190868411156115ab57600080fd5b8286015b8481101561153b5780356115c281611546565b83529183019183016115af565b600082601f8301126115e057600080fd5b813560206115f06114fc836114b7565b82815260059290921b8401810191818101908684111561160f57600080fd5b8286015b8481101561153b57803560ff8116811461162d5760008081fd5b8352918301918301611613565b60008060008060008060c0878903121561165357600080fd5b863567ffffffffffffffff8082111561166b57600080fd5b6116778a838b01611447565b975060208901359650604089013591508082111561169457600080fd5b6116a08a838b016114db565b95506060890135945060808901359150808211156116bd57600080fd5b6116c98a838b0161156b565b935060a08901359150808211156116df57600080fd5b506116ec89828a016115cf565b9150509295509295509295565b60006020828403121561170b57600080fd5b5035919050565b60006020828403121561172457600080fd5b81356113e081611546565b7f4e487b7100000000000000000000000000000000000000000000000000000000600052603260045260246000fd5b600181811c9082168061177257607f821691505b6020821081036117ab577f4e487b7100000000000000000000000000000000000000000000000000000000600052602260045260246000fd5b50919050565b6000602082840312156117c357600080fd5b81516113e081611546565b7f4e487b7100000000000000000000000000000000000000000000000000000000600052601160045260246000fd5b6000817fffffffffffffffffffffffffffffffffffffffffffffffffffffffffffffffff0483118215151615611835576118356117ce565b500290565b6000825161184c81846020870161137d565b9190910192915050565b60006020828403121561186857600080fd5b815180151581146113e057600080fd5b600081518084526020808501945080840160005b838110156118ab57815160ff168752958201959082019060010161188c565b509495945050505050565b600060808201868352602060808185015281875180845260a086019150828901935060005b818110156118f7578451835293830193918301916001016118db565b50508481036040860152865180825290820192508187019060005b8181101561194457825173ffffffffffffffffffffffffffffffffffffffff1685529383019391830191600101611912565b50505050828103606084015261195a8185611878565b979650505050505050565b80820180821115611377576113776117ce565b60408152600061198b60408301856113a1565b90508260208301529392505050565b60007fffffffffffffffffffffffffffffffffffffffffffffffffffffffffffffffff82036119cb576119cb6117ce565b506001019056fea2646970667358221220942862f0aa11975e57ac80edcb727d9dd938fc31ab20b776d9efb238e683daaa64736f6c63430008100033",
    "linkReferences": {}
  },
  "methodIdentifiers": {
    "Dev()": "01e51ae8",
    "HELIX2()": "b782426e",
    "NAMES()": "05e84aa0",
    "POLYCULES()": "d9ebda12",
    "PRICES()": "1eabcd34",
    "active()": "02fb0c5e",
    "basePrice()": "c7876ea4",
    "changeDev(address)": "88a8c95c",
    "defaultLifespan()": "0e6c0bdb",
    "defaultResolver()": "828eab0e",
    "illegalBlocks(uint256)": "80b29beb",
    "newPolycule(string,bytes32,bytes32[],uint256,address[],uint8[])": "3823c6c3",
    "polycule()": "303c128f",
    "roothash()": "251c9422",
    "setDefaultLifespan(uint256)": "39506308",
    "setDefaultResolver(address)": "c66485b2",
    "sizeLimit(uint256)": "769da4bb",
    "symbol()": "95d89b41",
    "toggleActive()": "29c68dc1"
  },
  "id": 40
}