{
  "abi": [
    {
      "inputs": [
        {
          "internalType": "address",
          "name": "__registry",
          "type": "address"
        },
        {
          "internalType": "address",
          "name": "_registry",
          "type": "address"
        },
        {
          "internalType": "address",
          "name": "_helix2",
          "type": "address"
        }
      ],
      "stateMutability": "nonpayable",
      "type": "constructor"
    },
    {
      "inputs": [
        {
          "internalType": "address",
          "name": "_dev",
          "type": "address"
        },
        {
          "internalType": "address",
          "name": "_you",
          "type": "address"
        }
      ],
      "name": "OnlyDev",
      "type": "error"
    },
    {
      "anonymous": false,
      "inputs": [
        {
          "indexed": false,
          "internalType": "address",
          "name": "Dev",
          "type": "address"
        },
        {
          "indexed": false,
          "internalType": "address",
          "name": "newDev",
          "type": "address"
        }
      ],
      "name": "NewDev",
      "type": "event"
    },
    {
      "anonymous": false,
      "inputs": [
        {
          "indexed": true,
          "internalType": "bytes32",
          "name": "polyhash",
          "type": "bytes32"
        },
        {
          "indexed": false,
          "internalType": "bytes32",
          "name": "cation",
          "type": "bytes32"
        }
      ],
      "name": "NewPolycule",
      "type": "event"
    },
    {
      "inputs": [],
      "name": "Dev",
      "outputs": [
        {
          "internalType": "address",
          "name": "",
          "type": "address"
        }
      ],
      "stateMutability": "view",
      "type": "function"
    },
    {
      "inputs": [],
      "name": "HELIX2",
      "outputs": [
        {
          "internalType": "contract iHELIX2",
          "name": "",
          "type": "address"
        }
      ],
      "stateMutability": "view",
      "type": "function"
    },
    {
      "inputs": [],
      "name": "NAMES",
      "outputs": [
        {
          "internalType": "contract iNAME",
          "name": "",
          "type": "address"
        }
      ],
      "stateMutability": "view",
      "type": "function"
    },
    {
      "inputs": [],
      "name": "POLYCULES",
      "outputs": [
        {
          "internalType": "contract iPOLYCULE",
          "name": "",
          "type": "address"
        }
      ],
      "stateMutability": "view",
      "type": "function"
    },
    {
      "inputs": [],
      "name": "active",
      "outputs": [
        {
          "internalType": "bool",
          "name": "",
          "type": "bool"
        }
      ],
      "stateMutability": "view",
      "type": "function"
    },
    {
      "inputs": [],
      "name": "basePrice",
      "outputs": [
        {
          "internalType": "uint256",
          "name": "",
          "type": "uint256"
        }
      ],
      "stateMutability": "view",
      "type": "function"
    },
    {
      "inputs": [
        {
          "internalType": "address",
          "name": "newDev",
          "type": "address"
        }
      ],
      "name": "changeDev",
      "outputs": [],
      "stateMutability": "nonpayable",
      "type": "function"
    },
    {
      "inputs": [],
      "name": "defaultLifespan",
      "outputs": [
        {
          "internalType": "uint256",
          "name": "",
          "type": "uint256"
        }
      ],
      "stateMutability": "view",
      "type": "function"
    },
    {
      "inputs": [],
      "name": "defaultResolver",
      "outputs": [
        {
          "internalType": "address",
          "name": "",
          "type": "address"
        }
      ],
      "stateMutability": "view",
      "type": "function"
    },
    {
      "inputs": [
        {
          "internalType": "uint256",
          "name": "",
          "type": "uint256"
        }
      ],
      "name": "illegalBlocks",
      "outputs": [
        {
          "internalType": "string",
          "name": "",
          "type": "string"
        }
      ],
      "stateMutability": "view",
      "type": "function"
    },
    {
      "inputs": [
        {
          "internalType": "string",
          "name": "_alias",
          "type": "string"
        },
        {
          "internalType": "bytes32",
          "name": "cation",
          "type": "bytes32"
        },
        {
          "internalType": "bytes32[]",
          "name": "anion",
          "type": "bytes32[]"
        },
        {
          "internalType": "uint256",
          "name": "lifespan",
          "type": "uint256"
        },
        {
          "internalType": "address[]",
          "name": "config",
          "type": "address[]"
        },
        {
          "internalType": "uint8[]",
          "name": "rules",
          "type": "uint8[]"
        }
      ],
      "name": "newPolycule",
      "outputs": [
        {
          "internalType": "bytes32",
          "name": "",
          "type": "bytes32"
        }
      ],
      "stateMutability": "payable",
      "type": "function"
    },
    {
      "inputs": [],
      "name": "polycule",
      "outputs": [
        {
          "internalType": "string",
          "name": "",
          "type": "string"
        }
      ],
      "stateMutability": "view",
      "type": "function"
    },
    {
      "inputs": [
        {
          "internalType": "uint256",
          "name": "_lifespan",
          "type": "uint256"
        }
      ],
      "name": "setDefaultLifespan",
      "outputs": [],
      "stateMutability": "nonpayable",
      "type": "function"
    },
    {
      "inputs": [
        {
          "internalType": "address",
          "name": "_resolver",
          "type": "address"
        }
      ],
      "name": "setDefaultResolver",
      "outputs": [],
      "stateMutability": "nonpayable",
      "type": "function"
    },
    {
      "inputs": [],
      "name": "sizeLimit",
      "outputs": [
        {
          "internalType": "uint256",
          "name": "",
          "type": "uint256"
        }
      ],
      "stateMutability": "view",
      "type": "function"
    },
    {
      "inputs": [],
      "name": "symbol",
      "outputs": [
        {
          "internalType": "string",
          "name": "",
          "type": "string"
        }
      ],
      "stateMutability": "view",
      "type": "function"
    }
  ],
  "bytecode": {
    "object": "0x6080604052600c805460ff60a01b1916600160a01b1790553480156200002457600080fd5b5060405162001dce38038062001dce833981016040819052620000479162000362565b600980546001600160a01b038084166001600160a01b03199283168117909355600a8054868316908416179055600b8054918716919092161790556040805163bd9a548b60e01b8152905163bd9a548b916004808201926080929091908290030181865afa158015620000be573d6000803e3d6000fd5b505050506040513d601f19601f82011682018060405250810190620000e4919062000420565b606001516003556009546040805163335076e760e11b815290516001600160a01b03909216916366a0edce916004808201926080929091908290030181865afa15801562000136573d6000803e3d6000fd5b505050506040513d601f19601f820116820180604052508101906200015c919062000420565b60600151600490815560095460408051637615671560e11b815290516001600160a01b039092169263ec2ace2a9282820192608092908290030181865afa158015620001ac573d6000803e3d6000fd5b505050506040513d601f19601f82011682018060405250810190620001d2919062000420565b60600151600255600954604080516330b5337f60e21b815290516001600160a01b039092169163c2d4cdfc916004808201926000929091908290030181865afa15801562000224573d6000803e3d6000fd5b505050506040513d6000823e601f3d908101601f191682016040526200024e919081019062000487565b6200025e9060059060046200027b565b5050600080546001600160a01b0319163317905550620006f79050565b8260048101928215620002b9579160200282015b82811115620002b95782518290620002a890826200062b565b50916020019190600101906200028f565b50620002c7929150620002cb565b5090565b80821115620002c7576000620002e28282620002ec565b50600101620002cb565b508054620002fa906200059c565b6000825580601f106200030b575050565b601f0160209004906000526020600020908101906200032b91906200032e565b50565b5b80821115620002c757600081556001016200032f565b80516001600160a01b03811681146200035d57600080fd5b919050565b6000806000606084860312156200037857600080fd5b620003838462000345565b9250620003936020850162000345565b9150620003a36040850162000345565b90509250925092565b634e487b7160e01b600052604160045260246000fd5b604051608081016001600160401b0381118282101715620003e757620003e7620003ac565b60405290565b604051601f8201601f191681016001600160401b0381118282101715620004185762000418620003ac565b604052919050565b6000608082840312156200043357600080fd5b82601f8301126200044357600080fd5b6200044d620003c2565b8060808401858111156200046057600080fd5b845b818110156200047c57805184526020938401930162000462565b509095945050505050565b600060208083850312156200049b57600080fd5b82516001600160401b0380821115620004b357600080fd5b8185019150601f8681840112620004c957600080fd5b620004d3620003c2565b806080850189811115620004e657600080fd5b855b818110156200058d57805186811115620005025760008081fd5b87018581018c13620005145760008081fd5b805187811115620005295762000529620003ac565b6200053c818801601f19168b01620003ed565b8181528d8b838501011115620005525760008081fd5b60005b8281101562000572578381018c01518282018d01528b0162000555565b5060009181018b0191909152855250928701928701620004e8565b50909998505050505050505050565b600181811c90821680620005b157607f821691505b602082108103620005d257634e487b7160e01b600052602260045260246000fd5b50919050565b601f8211156200062657600081815260208120601f850160051c81016020861015620006015750805b601f850160051c820191505b8181101562000622578281556001016200060d565b5050505b505050565b81516001600160401b03811115620006475762000647620003ac565b6200065f816200065884546200059c565b84620005d8565b602080601f8311600181146200069757600084156200067e5750858301515b600019600386901b1c1916600185901b17855562000622565b600085815260208120601f198616915b82811015620006c857888601518255948401946001909101908401620006a7565b5085821015620006e75787850151600019600388901b60f8161c191681555b5050505050600190811b01905550565b6116c780620007076000396000f3fe6080604052600436106100f35760003560e01c806380b29beb1161008a578063b782426e11610059578063b782426e14610339578063c66485b214610366578063c7876ea414610386578063d9ebda121461039c57600080fd5b806380b29beb14610283578063828eab0e146102a357806388a8c95c146102d057806395d89b41146102f057600080fd5b8063210fd271116100c6578063210fd271146101e2578063303c128f146101f85780633823c6c31461024e578063395063081461026157600080fd5b806301e51ae8146100f857806302fb0c5e1461014f57806305e84aa0146101915780630e6c0bdb146101be575b600080fd5b34801561010457600080fd5b506000546101259073ffffffffffffffffffffffffffffffffffffffff1681565b60405173ffffffffffffffffffffffffffffffffffffffff90911681526020015b60405180910390f35b34801561015b57600080fd5b50600c546101819074010000000000000000000000000000000000000000900460ff1681565b6040519015158152602001610146565b34801561019d57600080fd5b50600a546101259073ffffffffffffffffffffffffffffffffffffffff1681565b3480156101ca57600080fd5b506101d460025481565b604051908152602001610146565b3480156101ee57600080fd5b506101d460045481565b34801561020457600080fd5b506102416040518060400160405280601781526020017f48656c69783220506f6c7963756c65205365727669636500000000000000000081525081565b6040516101469190610f27565b6101d461025c3660046111d0565b6103c9565b34801561026d57600080fd5b5061028161027c36600461128f565b610bd9565b005b34801561028f57600080fd5b5061024161029e36600461128f565b610c51565b3480156102af57600080fd5b50600c546101259073ffffffffffffffffffffffffffffffffffffffff1681565b3480156102dc57600080fd5b506102816102eb3660046112a8565b610cf1565b3480156102fc57600080fd5b506102416040518060400160405280600381526020017f485053000000000000000000000000000000000000000000000000000000000081525081565b34801561034557600080fd5b506009546101259073ffffffffffffffffffffffffffffffffffffffff1681565b34801561037257600080fd5b506102816103813660046112a8565b610dff565b34801561039257600080fd5b506101d460035481565b3480156103a857600080fd5b50600b546101259073ffffffffffffffffffffffffffffffffffffffff1681565b60008660045481511061043d576040517f08c379a000000000000000000000000000000000000000000000000000000000815260206004820152600d60248201527f494c4c4547414c5f4c4142454c0000000000000000000000000000000000000060448201526064015b60405180910390fd5b6040517fa6470fd600000000000000000000000000000000000000000000000000000000815273__$47e4ffaaf323c41735ff299f8946896ce0$__9063a6470fd690610490908490600590600401611318565b602060405180830381865af41580156104ad573d6000803e3d6000fd5b505050506040513d601f19601f820116820180604052508101906104d19190611446565b15610538576040517f08c379a000000000000000000000000000000000000000000000000000000000815260206004820152600d60248201527f494c4c4547414c5f4348415253000000000000000000000000000000000000006044820152606401610434565b858480518251146105a5576040517f08c379a000000000000000000000000000000000000000000000000000000000815260206004820152600760248201527f4241445f4d4150000000000000000000000000000000000000000000000000006044820152606401610434565b600a546040517f02571be3000000000000000000000000000000000000000000000000000000008152600481018b905260009173ffffffffffffffffffffffffffffffffffffffff16906302571be390602401602060405180830381865afa158015610615573d6000803e3d6000fd5b505050506040513d601f19601f820116820180604052508101906106399190611468565b90506002548810156106a7576040517f08c379a000000000000000000000000000000000000000000000000000000000815260206004820152601260248201527f4c4946455350414e5f544f4f5f53484f525400000000000000000000000000006044820152606401610434565b876003546106b591906114b4565b34101561071e576040517f08c379a000000000000000000000000000000000000000000000000000000000815260206004820152601260248201527f494e53554646494349454e545f455448455200000000000000000000000000006044820152606401610434565b60008b60405160200161073191906114f1565b6040516020818303038152906040528051906020012090506000600960009054906101000a900473ffffffffffffffffffffffffffffffffffffffff1673ffffffffffffffffffffffffffffffffffffffff1663642a8ed66040518163ffffffff1660e01b8152600401608060405180830381865afa1580156107b8573d6000803e3d6000fd5b505050506040513d601f19601f820116820180604052508101906107dc919061150d565b60036020020151905060008c828460405160200161080d939291909283526020830191909152604082015260600190565b604051602081830303815290604052805190602001209050600b60009054906101000a900473ffffffffffffffffffffffffffffffffffffffff1673ffffffffffffffffffffffffffffffffffffffff16638146970a828f6040518363ffffffff1660e01b815260040161088b929190918252602082015260400190565b600060405180830381600087803b1580156108a557600080fd5b505af11580156108b9573d6000803e3d6000fd5b50505050600b60009054906101000a900473ffffffffffffffffffffffffffffffffffffffff1673ffffffffffffffffffffffffffffffffffffffff1663250548b9828e8d8d6040518563ffffffff1660e01b815260040161091e94939291906115c9565b600060405180830381600087803b15801561093857600080fd5b505af115801561094c573d6000803e3d6000fd5b5050600b5473ffffffffffffffffffffffffffffffffffffffff1691506339de646990508261097b8e42611678565b6040517fffffffff0000000000000000000000000000000000000000000000000000000060e085901b16815260048101929092526024820152604401600060405180830381600087803b1580156109d157600080fd5b505af11580156109e5573d6000803e3d6000fd5b5050600b546040517fd31569050000000000000000000000000000000000000000000000000000000081526004810185905273ffffffffffffffffffffffffffffffffffffffff8881166024830152909116925063d31569059150604401600060405180830381600087803b158015610a5d57600080fd5b505af1158015610a71573d6000803e3d6000fd5b5050600b54600c546040517f1896f70a0000000000000000000000000000000000000000000000000000000081526004810186905273ffffffffffffffffffffffffffffffffffffffff918216602482015291169250631896f70a9150604401600060405180830381600087803b158015610aeb57600080fd5b505af1158015610aff573d6000803e3d6000fd5b5050600b546040517f1f06e91c000000000000000000000000000000000000000000000000000000008152600481018590526024810187905273ffffffffffffffffffffffffffffffffffffffff9091169250631f06e91c9150604401600060405180830381600087803b158015610b7657600080fd5b505af1158015610b8a573d6000803e3d6000fd5b50505050807fc6162208b4bd8399e03dacf3db4a637c95f6e75712fc16af0402da9046d727998e604051610bc091815260200190565b60405180910390a29d9c50505050505050505050505050565b60005473ffffffffffffffffffffffffffffffffffffffff163314610c4c576000546040517f8ea458f600000000000000000000000000000000000000000000000000000000815273ffffffffffffffffffffffffffffffffffffffff9091166004820152336024820152604401610434565b600255565b60058160048110610c6157600080fd5b018054909150610c70906112c5565b80601f0160208091040260200160405190810160405280929190818152602001828054610c9c906112c5565b8015610ce95780601f10610cbe57610100808354040283529160200191610ce9565b820191906000526020600020905b815481529060010190602001808311610ccc57829003601f168201915b505050505081565b60005473ffffffffffffffffffffffffffffffffffffffff163314610d64576000546040517f8ea458f600000000000000000000000000000000000000000000000000000000815273ffffffffffffffffffffffffffffffffffffffff9091166004820152336024820152604401610434565b6000546040805173ffffffffffffffffffffffffffffffffffffffff928316815291831660208301527fdec101f106d4fc7c85791843e64b198248c822298e3ed7046231d33f7783d816910160405180910390a1600080547fffffffffffffffffffffffff00000000000000000000000000000000000000001673ffffffffffffffffffffffffffffffffffffffff92909216919091179055565b60005473ffffffffffffffffffffffffffffffffffffffff163314610e72576000546040517f8ea458f600000000000000000000000000000000000000000000000000000000815273ffffffffffffffffffffffffffffffffffffffff9091166004820152336024820152604401610434565b600c80547fffffffffffffffffffffffff00000000000000000000000000000000000000001673ffffffffffffffffffffffffffffffffffffffff92909216919091179055565b60005b83811015610ed4578181015183820152602001610ebc565b50506000910152565b60008151808452610ef5816020860160208601610eb9565b601f017fffffffffffffffffffffffffffffffffffffffffffffffffffffffffffffffe0169290920160200192915050565b602081526000610f3a6020830184610edd565b9392505050565b7f4e487b7100000000000000000000000000000000000000000000000000000000600052604160045260246000fd5b604051601f82017fffffffffffffffffffffffffffffffffffffffffffffffffffffffffffffffe016810167ffffffffffffffff81118282101715610fb757610fb7610f41565b604052919050565b600082601f830112610fd057600080fd5b813567ffffffffffffffff811115610fea57610fea610f41565b61101b60207fffffffffffffffffffffffffffffffffffffffffffffffffffffffffffffffe0601f84011601610f70565b81815284602083860101111561103057600080fd5b816020850160208301376000918101602001919091529392505050565b600067ffffffffffffffff82111561106757611067610f41565b5060051b60200190565b600082601f83011261108257600080fd5b813560206110976110928361104d565b610f70565b82815260059290921b840181019181810190868411156110b657600080fd5b8286015b848110156110d157803583529183019183016110ba565b509695505050505050565b73ffffffffffffffffffffffffffffffffffffffff811681146110fe57600080fd5b50565b600082601f83011261111257600080fd5b813560206111226110928361104d565b82815260059290921b8401810191818101908684111561114157600080fd5b8286015b848110156110d1578035611158816110dc565b8352918301918301611145565b600082601f83011261117657600080fd5b813560206111866110928361104d565b82815260059290921b840181019181810190868411156111a557600080fd5b8286015b848110156110d157803560ff811681146111c35760008081fd5b83529183019183016111a9565b60008060008060008060c087890312156111e957600080fd5b863567ffffffffffffffff8082111561120157600080fd5b61120d8a838b01610fbf565b975060208901359650604089013591508082111561122a57600080fd5b6112368a838b01611071565b955060608901359450608089013591508082111561125357600080fd5b61125f8a838b01611101565b935060a089013591508082111561127557600080fd5b5061128289828a01611165565b9150509295509295509295565b6000602082840312156112a157600080fd5b5035919050565b6000602082840312156112ba57600080fd5b8135610f3a816110dc565b600181811c908216806112d957607f821691505b602082108103611312577f4e487b7100000000000000000000000000000000000000000000000000000000600052602260045260246000fd5b50919050565b60408152600061132b6040830185610edd565b60208382038185015281829050608083018660005b600480821061134f5750611438565b86840385528254600090600181811c908083168061136e57607f831692505b8a831081036113a3577f4e487b7100000000000000000000000000000000000000000000000000000000855260228652602485fd5b8289526020890195508080156113c057600181146113f45761141f565b7fffffffffffffffffffffffffffffffffffffffffffffffffffffffffffffff008516875283151560051b8701955061141f565b60008981526020902060005b8581101561141957815489820152908401908d01611400565b88019650505b5050978901979296505050929092019150600101611340565b509098975050505050505050565b60006020828403121561145857600080fd5b81518015158114610f3a57600080fd5b60006020828403121561147a57600080fd5b8151610f3a816110dc565b7f4e487b7100000000000000000000000000000000000000000000000000000000600052601160045260246000fd5b6000817fffffffffffffffffffffffffffffffffffffffffffffffffffffffffffffffff04831182151516156114ec576114ec611485565b500290565b60008251611503818460208701610eb9565b9190910192915050565b60006080828403121561151f57600080fd5b82601f83011261152e57600080fd5b6040516080810181811067ffffffffffffffff8211171561155157611551610f41565b60405280608084018581111561156657600080fd5b845b81811015611580578051835260209283019201611568565b509195945050505050565b600081518084526020808501945080840160005b838110156115be57815160ff168752958201959082019060010161159f565b509495945050505050565b600060808201868352602060808185015281875180845260a086019150828901935060005b8181101561160a578451835293830193918301916001016115ee565b50508481036040860152865180825290820192508187019060005b8181101561165757825173ffffffffffffffffffffffffffffffffffffffff1685529383019391830191600101611625565b50505050828103606084015261166d818561158b565b979650505050505050565b8082018082111561168b5761168b611485565b9291505056fea2646970667358221220784bc414a3b3cf9bb9dbd8bab07ecf428bb6865876fd2402f38476adbec9f42664736f6c63430008100033",
    "linkReferences": {
      "src/Utils/LibString.sol": {
        "LibString": [
          {
            "start": 2924,
            "length": 20
          }
        ]
      }
    }
  },
  "methodIdentifiers": {
    "Dev()": "01e51ae8",
    "HELIX2()": "b782426e",
    "NAMES()": "05e84aa0",
    "POLYCULES()": "d9ebda12",
    "active()": "02fb0c5e",
    "basePrice()": "c7876ea4",
    "changeDev(address)": "88a8c95c",
    "defaultLifespan()": "0e6c0bdb",
    "defaultResolver()": "828eab0e",
    "illegalBlocks(uint256)": "80b29beb",
    "newPolycule(string,bytes32,bytes32[],uint256,address[],uint8[])": "3823c6c3",
    "polycule()": "303c128f",
    "setDefaultLifespan(uint256)": "39506308",
    "setDefaultResolver(address)": "c66485b2",
    "sizeLimit()": "210fd271",
    "symbol()": "95d89b41"
  },
  "id": 34
}