{
  "abi": [
    {
      "inputs": [
        {
          "internalType": "address",
          "name": "_registry",
          "type": "address"
        }
      ],
      "stateMutability": "nonpayable",
      "type": "constructor"
    },
    {
      "inputs": [],
      "name": "CannotBurn",
      "type": "error"
    },
    {
      "inputs": [
        {
          "internalType": "address",
          "name": "to",
          "type": "address"
        }
      ],
      "name": "ERC721IncompatibleReceiver",
      "type": "error"
    },
    {
      "inputs": [
        {
          "internalType": "address",
          "name": "_dev",
          "type": "address"
        },
        {
          "internalType": "address",
          "name": "_you",
          "type": "address"
        }
      ],
      "name": "OnlyDev",
      "type": "error"
    },
    {
      "inputs": [
        {
          "internalType": "address",
          "name": "operator",
          "type": "address"
        },
        {
          "internalType": "address",
          "name": "owner",
          "type": "address"
        },
        {
          "internalType": "uint256",
          "name": "tokenID",
          "type": "uint256"
        }
      ],
      "name": "Unauthorized",
      "type": "error"
    },
    {
      "anonymous": false,
      "inputs": [
        {
          "indexed": true,
          "internalType": "address",
          "name": "owner",
          "type": "address"
        },
        {
          "indexed": true,
          "internalType": "address",
          "name": "spender",
          "type": "address"
        },
        {
          "indexed": true,
          "internalType": "uint256",
          "name": "tokenID",
          "type": "uint256"
        }
      ],
      "name": "Approval",
      "type": "event"
    },
    {
      "anonymous": false,
      "inputs": [
        {
          "indexed": true,
          "internalType": "address",
          "name": "owner",
          "type": "address"
        },
        {
          "indexed": true,
          "internalType": "address",
          "name": "operator",
          "type": "address"
        },
        {
          "indexed": false,
          "internalType": "bool",
          "name": "approved",
          "type": "bool"
        }
      ],
      "name": "ApprovalForAll",
      "type": "event"
    },
    {
      "anonymous": false,
      "inputs": [
        {
          "indexed": true,
          "internalType": "bytes32",
          "name": "polyculehash",
          "type": "bytes32"
        },
        {
          "indexed": false,
          "internalType": "bytes32",
          "name": "cation",
          "type": "bytes32"
        }
      ],
      "name": "NewCation",
      "type": "event"
    },
    {
      "anonymous": false,
      "inputs": [
        {
          "indexed": true,
          "internalType": "bytes32",
          "name": "polyculehash",
          "type": "bytes32"
        },
        {
          "indexed": false,
          "internalType": "address",
          "name": "controller",
          "type": "address"
        }
      ],
      "name": "NewController",
      "type": "event"
    },
    {
      "anonymous": false,
      "inputs": [
        {
          "indexed": false,
          "internalType": "address",
          "name": "Dev",
          "type": "address"
        },
        {
          "indexed": false,
          "internalType": "address",
          "name": "newDev",
          "type": "address"
        }
      ],
      "name": "NewDev",
      "type": "event"
    },
    {
      "anonymous": false,
      "inputs": [
        {
          "indexed": true,
          "internalType": "bytes32",
          "name": "polyculehash",
          "type": "bytes32"
        },
        {
          "indexed": false,
          "internalType": "uint256",
          "name": "expiry",
          "type": "uint256"
        }
      ],
      "name": "NewExpiry",
      "type": "event"
    },
    {
      "anonymous": false,
      "inputs": [
        {
          "indexed": true,
          "internalType": "bytes32",
          "name": "polyculehash",
          "type": "bytes32"
        },
        {
          "indexed": false,
          "internalType": "bytes32",
          "name": "cation",
          "type": "bytes32"
        }
      ],
      "name": "NewPolycule",
      "type": "event"
    },
    {
      "anonymous": false,
      "inputs": [
        {
          "indexed": true,
          "internalType": "bytes32",
          "name": "polyculehash",
          "type": "bytes32"
        },
        {
          "indexed": false,
          "internalType": "address",
          "name": "resolver",
          "type": "address"
        }
      ],
      "name": "NewRecord",
      "type": "event"
    },
    {
      "anonymous": false,
      "inputs": [
        {
          "indexed": true,
          "internalType": "bytes32",
          "name": "polyculehash",
          "type": "bytes32"
        },
        {
          "indexed": false,
          "internalType": "address",
          "name": "resolver",
          "type": "address"
        }
      ],
      "name": "NewResolver",
      "type": "event"
    },
    {
      "anonymous": false,
      "inputs": [
        {
          "indexed": true,
          "internalType": "address",
          "name": "from",
          "type": "address"
        },
        {
          "indexed": true,
          "internalType": "address",
          "name": "to",
          "type": "address"
        },
        {
          "indexed": true,
          "internalType": "uint256",
          "name": "tokenID",
          "type": "uint256"
        }
      ],
      "name": "Transfer",
      "type": "event"
    },
    {
      "stateMutability": "payable",
      "type": "fallback"
    },
    {
      "inputs": [],
      "name": "Dev",
      "outputs": [
        {
          "internalType": "address",
          "name": "",
          "type": "address"
        }
      ],
      "stateMutability": "view",
      "type": "function"
    },
    {
      "inputs": [],
      "name": "HELIX2",
      "outputs": [
        {
          "internalType": "contract iHELIX2",
          "name": "",
          "type": "address"
        }
      ],
      "stateMutability": "view",
      "type": "function"
    },
    {
      "inputs": [],
      "name": "NAMES",
      "outputs": [
        {
          "internalType": "contract iNAME",
          "name": "",
          "type": "address"
        }
      ],
      "stateMutability": "view",
      "type": "function"
    },
    {
      "inputs": [],
      "name": "POLYCULES",
      "outputs": [
        {
          "internalType": "contract iPOLYCULE",
          "name": "",
          "type": "address"
        }
      ],
      "stateMutability": "view",
      "type": "function"
    },
    {
      "inputs": [
        {
          "internalType": "uint256",
          "name": "",
          "type": "uint256"
        }
      ],
      "name": "_approved",
      "outputs": [
        {
          "internalType": "address",
          "name": "",
          "type": "address"
        }
      ],
      "stateMutability": "view",
      "type": "function"
    },
    {
      "inputs": [],
      "name": "active",
      "outputs": [
        {
          "internalType": "bool",
          "name": "",
          "type": "bool"
        }
      ],
      "stateMutability": "view",
      "type": "function"
    },
    {
      "inputs": [
        {
          "internalType": "address",
          "name": "controller",
          "type": "address"
        },
        {
          "internalType": "uint256",
          "name": "tokenID",
          "type": "uint256"
        }
      ],
      "name": "approve",
      "outputs": [],
      "stateMutability": "payable",
      "type": "function"
    },
    {
      "inputs": [
        {
          "internalType": "address",
          "name": "wallet",
          "type": "address"
        }
      ],
      "name": "balanceOf",
      "outputs": [
        {
          "internalType": "uint256",
          "name": "",
          "type": "uint256"
        }
      ],
      "stateMutability": "view",
      "type": "function"
    },
    {
      "inputs": [],
      "name": "basePrice",
      "outputs": [
        {
          "internalType": "uint256",
          "name": "",
          "type": "uint256"
        }
      ],
      "stateMutability": "view",
      "type": "function"
    },
    {
      "inputs": [
        {
          "internalType": "address",
          "name": "newDev",
          "type": "address"
        }
      ],
      "name": "changeDev",
      "outputs": [],
      "stateMutability": "nonpayable",
      "type": "function"
    },
    {
      "inputs": [],
      "name": "defaultLifespan",
      "outputs": [
        {
          "internalType": "uint256",
          "name": "",
          "type": "uint256"
        }
      ],
      "stateMutability": "view",
      "type": "function"
    },
    {
      "inputs": [],
      "name": "defaultResolver",
      "outputs": [
        {
          "internalType": "address",
          "name": "",
          "type": "address"
        }
      ],
      "stateMutability": "view",
      "type": "function"
    },
    {
      "inputs": [],
      "name": "ensRegistry",
      "outputs": [
        {
          "internalType": "address",
          "name": "",
          "type": "address"
        }
      ],
      "stateMutability": "view",
      "type": "function"
    },
    {
      "inputs": [],
      "name": "getPrices",
      "outputs": [
        {
          "internalType": "uint256[4]",
          "name": "",
          "type": "uint256[4]"
        }
      ],
      "stateMutability": "view",
      "type": "function"
    },
    {
      "inputs": [],
      "name": "getRegistry",
      "outputs": [
        {
          "internalType": "address[4]",
          "name": "",
          "type": "address[4]"
        }
      ],
      "stateMutability": "view",
      "type": "function"
    },
    {
      "inputs": [],
      "name": "getRoothash",
      "outputs": [
        {
          "internalType": "bytes32[4]",
          "name": "",
          "type": "bytes32[4]"
        }
      ],
      "stateMutability": "view",
      "type": "function"
    },
    {
      "inputs": [
        {
          "internalType": "uint256",
          "name": "",
          "type": "uint256"
        }
      ],
      "name": "helix2Registry",
      "outputs": [
        {
          "internalType": "address",
          "name": "",
          "type": "address"
        }
      ],
      "stateMutability": "view",
      "type": "function"
    },
    {
      "inputs": [
        {
          "internalType": "uint256",
          "name": "",
          "type": "uint256"
        }
      ],
      "name": "illegalBlocks",
      "outputs": [
        {
          "internalType": "string",
          "name": "",
          "type": "string"
        }
      ],
      "stateMutability": "view",
      "type": "function"
    },
    {
      "inputs": [
        {
          "internalType": "address",
          "name": "",
          "type": "address"
        },
        {
          "internalType": "address",
          "name": "",
          "type": "address"
        }
      ],
      "name": "isApprovedForAll",
      "outputs": [
        {
          "internalType": "bool",
          "name": "",
          "type": "bool"
        }
      ],
      "stateMutability": "view",
      "type": "function"
    },
    {
      "inputs": [],
      "name": "isDev",
      "outputs": [
        {
          "internalType": "address",
          "name": "",
          "type": "address"
        }
      ],
      "stateMutability": "view",
      "type": "function"
    },
    {
      "inputs": [
        {
          "internalType": "string",
          "name": "_alias",
          "type": "string"
        },
        {
          "internalType": "bytes32",
          "name": "cation",
          "type": "bytes32"
        },
        {
          "internalType": "bytes32[]",
          "name": "anion",
          "type": "bytes32[]"
        },
        {
          "internalType": "uint256",
          "name": "lifespan",
          "type": "uint256"
        },
        {
          "internalType": "address[]",
          "name": "config",
          "type": "address[]"
        },
        {
          "internalType": "uint8[]",
          "name": "rules",
          "type": "uint8[]"
        }
      ],
      "name": "newPolycule",
      "outputs": [
        {
          "internalType": "bytes32",
          "name": "",
          "type": "bytes32"
        }
      ],
      "stateMutability": "payable",
      "type": "function"
    },
    {
      "inputs": [
        {
          "internalType": "uint256",
          "name": "tokenID",
          "type": "uint256"
        }
      ],
      "name": "ownerOf",
      "outputs": [
        {
          "internalType": "address",
          "name": "",
          "type": "address"
        }
      ],
      "stateMutability": "view",
      "type": "function"
    },
    {
      "inputs": [],
      "name": "polycule",
      "outputs": [
        {
          "internalType": "string",
          "name": "",
          "type": "string"
        }
      ],
      "stateMutability": "view",
      "type": "function"
    },
    {
      "inputs": [
        {
          "internalType": "uint256",
          "name": "",
          "type": "uint256"
        }
      ],
      "name": "prices",
      "outputs": [
        {
          "internalType": "uint256",
          "name": "",
          "type": "uint256"
        }
      ],
      "stateMutability": "view",
      "type": "function"
    },
    {
      "inputs": [
        {
          "internalType": "uint256",
          "name": "",
          "type": "uint256"
        }
      ],
      "name": "roothash",
      "outputs": [
        {
          "internalType": "bytes32",
          "name": "",
          "type": "bytes32"
        }
      ],
      "stateMutability": "view",
      "type": "function"
    },
    {
      "inputs": [
        {
          "internalType": "address",
          "name": "from",
          "type": "address"
        },
        {
          "internalType": "address",
          "name": "to",
          "type": "address"
        },
        {
          "internalType": "uint256",
          "name": "tokenID",
          "type": "uint256"
        }
      ],
      "name": "safeTransferFrom",
      "outputs": [],
      "stateMutability": "payable",
      "type": "function"
    },
    {
      "inputs": [
        {
          "internalType": "address",
          "name": "from",
          "type": "address"
        },
        {
          "internalType": "address",
          "name": "to",
          "type": "address"
        },
        {
          "internalType": "uint256",
          "name": "tokenID",
          "type": "uint256"
        },
        {
          "internalType": "bytes",
          "name": "data",
          "type": "bytes"
        }
      ],
      "name": "safeTransferFrom",
      "outputs": [],
      "stateMutability": "payable",
      "type": "function"
    },
    {
      "inputs": [
        {
          "internalType": "address",
          "name": "controller",
          "type": "address"
        },
        {
          "internalType": "bool",
          "name": "flag",
          "type": "bool"
        }
      ],
      "name": "setApprovalForAll",
      "outputs": [],
      "stateMutability": "payable",
      "type": "function"
    },
    {
      "inputs": [
        {
          "internalType": "uint256",
          "name": "_lifespan",
          "type": "uint256"
        }
      ],
      "name": "setDefaultLifespan",
      "outputs": [],
      "stateMutability": "nonpayable",
      "type": "function"
    },
    {
      "inputs": [
        {
          "internalType": "address",
          "name": "_resolver",
          "type": "address"
        }
      ],
      "name": "setDefaultResolver",
      "outputs": [],
      "stateMutability": "nonpayable",
      "type": "function"
    },
    {
      "inputs": [
        {
          "internalType": "bytes4",
          "name": "sig",
          "type": "bytes4"
        },
        {
          "internalType": "bool",
          "name": "value",
          "type": "bool"
        }
      ],
      "name": "setInterface",
      "outputs": [],
      "stateMutability": "payable",
      "type": "function"
    },
    {
      "inputs": [
        {
          "internalType": "uint256",
          "name": "",
          "type": "uint256"
        }
      ],
      "name": "sizes",
      "outputs": [
        {
          "internalType": "uint256",
          "name": "",
          "type": "uint256"
        }
      ],
      "stateMutability": "view",
      "type": "function"
    },
    {
      "inputs": [
        {
          "internalType": "bytes4",
          "name": "",
          "type": "bytes4"
        }
      ],
      "name": "supportsInterface",
      "outputs": [
        {
          "internalType": "bool",
          "name": "",
          "type": "bool"
        }
      ],
      "stateMutability": "view",
      "type": "function"
    },
    {
      "inputs": [],
      "name": "symbol",
      "outputs": [
        {
          "internalType": "string",
          "name": "",
          "type": "string"
        }
      ],
      "stateMutability": "view",
      "type": "function"
    },
    {
      "inputs": [
        {
          "internalType": "address",
          "name": "from",
          "type": "address"
        },
        {
          "internalType": "address",
          "name": "to",
          "type": "address"
        },
        {
          "internalType": "uint256",
          "name": "tokenID",
          "type": "uint256"
        }
      ],
      "name": "transferFrom",
      "outputs": [],
      "stateMutability": "payable",
      "type": "function"
    },
    {
      "inputs": [],
      "name": "withdrawEther",
      "outputs": [],
      "stateMutability": "payable",
      "type": "function"
    },
    {
      "inputs": [
        {
          "internalType": "address",
          "name": "token",
          "type": "address"
        }
      ],
      "name": "withdrawToken",
      "outputs": [],
      "stateMutability": "payable",
      "type": "function"
    },
    {
      "stateMutability": "payable",
      "type": "receive"
    }
  ],
  "bytecode": {
    "object": "0x6001610100818152601760f91b610120526080908152610140828152603f60f81b6101605260a052610180828152602160f81b6101a05260c0526102006040526101c0828152602360f81b6101e05260e0526200005f9190600462000487565b50604080516080810182526020808252808201819052918101829052606081019190915262000093906005906004620004d7565b5060408051608081018252600060a082018190527f6f010af653ebe3cb07d297a4ef13366103d392ceffa68dd48232e6e9ff2187bf60c0808401919091528351808403909101815260e0830184528051602091820120835283518082018390527f5f179612d7132c8ed24ba0e286d60d398c4aa1c234eb2274ca1bba47718e9d3181860152845180820386018152606091820186528051908301208285015284518083018490527f3275a893b2c93461554cf2a4dd7f413d56decdd6f3fdf0589dbb8bc4fd742386818701528551808203870181529082018652805190830120848601528451808301939093527face738c68088218d015fbdce138f062893d86818ac98932f7ce2907c5976fbde83860152845180840386018152928101909452815191012091810191909152620001d09060099060046200051b565b50600d80546001600160a01b0319166e0c2e074ec69a0dfb2997ba6c7d2e1e1790556040805160808101825260018152600260208201526003918101919091526004606082018190526200022791600e916200054c565b506040805160808101825262030d408082526020820181905291810182905260608101919091526200025e90601290600462000597565b506016805460ff19166001179055601c80546001600160a01b031916905560408051635ab1bd5360e01b81529051600091635ab1bd539160048083019260809291908290030181865afa158015620002ba573d6000803e3d6000fd5b505050506040513d601f19601f82011682018060405250810190620002e09190620006a7565b60036020020151601d80546001600160a01b0319166001600160a01b039283161790556401cf7c5800601f55601c546040805163bd9a548b60e01b81529051919092169163bd9a548b9160048083019260809291908290030181865afa1580156200034f573d6000803e3d6000fd5b505050506040513d601f19601f8201168201806040525081019062000375919062000717565b60600151602055602180546001600160a01b03191690553480156200039957600080fd5b5060405162002dce38038062002dce833981016040819052620003bc9162000773565b6000805460176020527f4152fdd4960944ad2843ab0640e4bafb0ddf2caf06de54df701cf7a17df044aa8054600160ff1991821681179092557f6779f08d87897b1938d8ae1ed3d650e2616775c110ff5d98b7f82c079d97c7788054821683179055635b5e139f60e01b84527f244a57cf9422b23a74eac7556da7a02b4681eb0e2f9c3613963f0b44ad43886080549091169091179055602180546001600160a01b03199081166001600160a01b0395909516949094179055821633928316179091179055620008f3565b8260048101928215620004c5579160200282015b82811115620004c55782518290620004b4908262000827565b50916020019190600101906200049b565b50620004d3929150620005cf565b5090565b82600481019282156200050d579160200282015b828111156200050d578251829060ff16905591602001919060010190620004eb565b50620004d3929150620005f0565b82600481019282156200050d579160200282015b828111156200050d5782518255916020019190600101906200052f565b82600481019282156200050d579160200282015b828111156200050d57825182546001600160a01b0319166001600160a01b0390911617825560209092019160019091019062000560565b82600481019282156200050d579160200282015b828111156200050d578251829062ffffff16905591602001919060010190620005ab565b80821115620004d3576000620005e6828262000607565b50600101620005cf565b5b80821115620004d35760008155600101620005f1565b508054620006159062000798565b6000825580601f1062000626575050565b601f016020900490600052602060002090810190620006469190620005f0565b50565b634e487b7160e01b600052604160045260246000fd5b604051608081016001600160401b038111828210171562000684576200068462000649565b60405290565b80516001600160a01b0381168114620006a257600080fd5b919050565b600060808284031215620006ba57600080fd5b82601f830112620006ca57600080fd5b620006d46200065f565b806080840185811115620006e757600080fd5b845b818110156200070c57620006fd816200068a565b845260209384019301620006e9565b509095945050505050565b6000608082840312156200072a57600080fd5b82601f8301126200073a57600080fd5b620007446200065f565b8060808401858111156200075757600080fd5b845b818110156200070c57805184526020938401930162000759565b6000602082840312156200078657600080fd5b62000791826200068a565b9392505050565b600181811c90821680620007ad57607f821691505b602082108103620007ce57634e487b7160e01b600052602260045260246000fd5b50919050565b601f8211156200082257600081815260208120601f850160051c81016020861015620007fd5750805b601f850160051c820191505b818110156200081e5782815560010162000809565b5050505b505050565b81516001600160401b0381111562000843576200084362000649565b6200085b8162000854845462000798565b84620007d4565b602080601f8311600181146200089357600084156200087a5750858301515b600019600386901b1c1916600185901b1785556200081e565b600085815260208120601f198616915b82811015620008c457888601518255948401946001909101908401620008a3565b5085821015620008e35787850151600019600388901b60f8161c191681555b5050505050600190811b01905550565b6124cb80620009036000396000f3fe60806040526004361061026e5760003560e01c806380b29beb11610153578063b88d4fde116100cb578063c7876ea41161007f578063d9ebda1211610064578063d9ebda12146106cb578063e985e9c5146106eb578063f079914f1461072657600080fd5b8063c7876ea414610695578063d9a9b0c6146106ab57600080fd5b8063bd9a548b116100b0578063bd9a548b1461064d578063c0a43a7c14610662578063c66485b21461067557600080fd5b8063b88d4fde1461061a578063bc31c1c11461062d57600080fd5b80638dfcb1c71161012257806395d89b411161010757806395d89b411461059e578063a22cb465146105e7578063b782426e146105fa57600080fd5b80638dfcb1c7146105485780639024d2821461056857600080fd5b806380b29beb146104d5578063828eab0e146104f557806388a8c95c14610515578063894760691461053557600080fd5b806339506308116101e6578063642a8ed6116101b557806370dec5f01161019a57806370dec5f01461048d5780637362377b146104ad5780637d73b231146104b557600080fd5b8063642a8ed61461044b57806370a082311461046d57600080fd5b806339506308146103e957806342842e0e1461036d5780635ab1bd53146104095780636352211e1461042b57600080fd5b8063095ea7b31161023d57806323b872dd1161022257806323b872dd1461036d578063303c128f146103805780633823c6c3146103d657600080fd5b8063095ea7b3146103345780630e6c0bdb1461034957600080fd5b806301e51ae81461027d57806301ffc9a7146102ba57806302fb0c5e146102fa57806305e84aa01461031457600080fd5b3661027857600080fd5b600080fd5b34801561028957600080fd5b5060005461029d906001600160a01b031681565b6040516001600160a01b0390911681526020015b60405180910390f35b3480156102c657600080fd5b506102ea6102d5366004611b3e565b60176020526000908152604090205460ff1681565b60405190151581526020016102b1565b34801561030657600080fd5b506016546102ea9060ff1681565b34801561032057600080fd5b50601d5461029d906001600160a01b031681565b610347610342366004611b77565b610744565b005b34801561035557600080fd5b5061035f601f5481565b6040519081526020016102b1565b61034761037b366004611ba3565b61086d565b34801561038c57600080fd5b506103c96040518060400160405280601781526020017f48656c69783220506f6c7963756c65205365727669636500000000000000000081525081565b6040516102b19190611c34565b61035f6103e4366004611e7d565b61088d565b3480156103f557600080fd5b50610347610404366004611f3c565b610f50565b34801561041557600080fd5b5061041e610fae565b6040516102b19190611f55565b34801561043757600080fd5b5061029d610446366004611f3c565b610ff3565b34801561045757600080fd5b50610460611073565b6040516102b19190611f8f565b34801561047957600080fd5b5061035f610488366004611fb7565b6110ae565b34801561049957600080fd5b5061029d6104a8366004611f3c565b611122565b610347611142565b3480156104c157600080fd5b50600d5461029d906001600160a01b031681565b3480156104e157600080fd5b506103c96104f0366004611f3c565b6111e8565b34801561050157600080fd5b5060225461029d906001600160a01b031681565b34801561052157600080fd5b50610347610530366004611fb7565b611288565b610347610543366004611fb7565b611362565b34801561055457600080fd5b5061035f610563366004611f3c565b611488565b34801561057457600080fd5b5061029d610583366004611f3c565b601a602052600090815260409020546001600160a01b031681565b3480156105aa57600080fd5b506103c96040518060400160405280600381526020017f484d53000000000000000000000000000000000000000000000000000000000081525081565b6103476105f5366004611fe2565b61149f565b34801561060657600080fd5b50601c5461029d906001600160a01b031681565b61034761062836600461201b565b611529565b34801561063957600080fd5b5061035f610648366004611f3c565b61153b565b34801561065957600080fd5b5061046061154b565b61034761067036600461209b565b611581565b34801561068157600080fd5b50610347610690366004611fb7565b6116ae565b3480156106a157600080fd5b5061035f60205481565b3480156106b757600080fd5b5061035f6106c6366004611f3c565b611741565b3480156106d757600080fd5b5060215461029d906001600160a01b031681565b3480156106f757600080fd5b506102ea6107063660046120b9565b601b60209081526000928352604080842090915290825290205460ff1681565b34801561073257600080fd5b506000546001600160a01b031661029d565b6000818152601860205260409020546001600160a01b03163314158061079757506000818152601860209081526040808320546001600160a01b03168352601b825280832033845290915290205460ff16155b156107fc57600081815260186020526040908190205490517f431ef6160000000000000000000000000000000000000000000000000000000081523360048201526001600160a01b039091166024820152604481018290526064015b60405180910390fd5b6000818152601a602052604080822080547fffffffffffffffffffffffff0000000000000000000000000000000000000000166001600160a01b0386169081179091559051839233917f8c5be1e5ebec7d5bd14f71427d1e84f3dd0314c0f7b2291e5b200ac8c7c3b9259190a45050565b61088883838360405180602001604052806000815250611751565b505050565b6000866005600101548151106108e55760405162461bcd60e51b815260206004820152600d60248201527f494c4c4547414c5f4c4142454c0000000000000000000000000000000000000060448201526064016107f3565b6040517f8572a5d300000000000000000000000000000000000000000000000000000000815273__$47e4ffaaf323c41735ff299f8946896ce0$__90638572a5d39061093890849060019060040161213a565b602060405180830381865af4158015610955573d6000803e3d6000fd5b505050506040513d601f19601f820116820180604052508101906109799190612268565b156109c65760405162461bcd60e51b815260206004820152600d60248201527f494c4c4547414c5f43484152530000000000000000000000000000000000000060448201526064016107f3565b85848051825114610a195760405162461bcd60e51b815260206004820152600760248201527f4241445f4d41500000000000000000000000000000000000000000000000000060448201526064016107f3565b601d546040517f02571be3000000000000000000000000000000000000000000000000000000008152600481018b90526000916001600160a01b0316906302571be390602401602060405180830381865afa158015610a7c573d6000803e3d6000fd5b505050506040513d601f19601f82011682018060405250810190610aa09190612285565b9050601f54881015610af45760405162461bcd60e51b815260206004820152601260248201527f4c4946455350414e5f544f4f5f53484f5254000000000000000000000000000060448201526064016107f3565b87602054610b0291906122d1565b341015610b515760405162461bcd60e51b815260206004820152601260248201527f494e53554646494349454e545f4554484552000000000000000000000000000060448201526064016107f3565b60008b604051602001610b64919061230e565b60408051808303601f190181528282528051602091820120600c549184018f90529183015260608201819052915060009060800160408051601f198184030181529082905280516020909101206021547f8146970a00000000000000000000000000000000000000000000000000000000835260048301829052602483018f90529092506001600160a01b031690638146970a90604401600060405180830381600087803b158015610c1557600080fd5b505af1158015610c29573d6000803e3d6000fd5b50506021546040517f250548b90000000000000000000000000000000000000000000000000000000081526001600160a01b03909116925063250548b99150610c7c9084908f908e908e90600401612368565b600060405180830381600087803b158015610c9657600080fd5b505af1158015610caa573d6000803e3d6000fd5b50506021546001600160a01b031691506339de6469905082610ccc8d4261240a565b6040517fffffffff0000000000000000000000000000000000000000000000000000000060e085901b16815260048101929092526024820152604401600060405180830381600087803b158015610d2257600080fd5b505af1158015610d36573d6000803e3d6000fd5b50506021546040517fd3156905000000000000000000000000000000000000000000000000000000008152600481018590526001600160a01b038781166024830152909116925063d31569059150604401600060405180830381600087803b158015610da157600080fd5b505af1158015610db5573d6000803e3d6000fd5b50506021546022546040517f1896f70a000000000000000000000000000000000000000000000000000000008152600481018690526001600160a01b03918216602482015291169250631896f70a9150604401600060405180830381600087803b158015610e2257600080fd5b505af1158015610e36573d6000803e3d6000fd5b50506021546040517f1f06e91c00000000000000000000000000000000000000000000000000000000815260048101859052602481018690526001600160a01b039091169250631f06e91c9150604401600060405180830381600087803b158015610ea057600080fd5b505af1158015610eb4573d6000803e3d6000fd5b505050600082815260186020908152604080832080547fffffffffffffffffffffffff0000000000000000000000000000000000000000166001600160a01b038916908117909155835260198252918290208054600101905590518e81528392507fc6162208b4bd8399e03dacf3db4a637c95f6e75712fc16af0402da9046d72799910160405180910390a29c9b505050505050505050505050565b6000546001600160a01b03163314610fa9576000546040517f8ea458f60000000000000000000000000000000000000000000000000000000081526001600160a01b0390911660048201523360248201526044016107f3565b601f55565b610fb6611af2565b60408051608081019182905290600e9060049082845b81546001600160a01b03168152600190910190602001808311610fcc575050505050905090565b6000818152601860205260408120546001600160a01b03166110575760405162461bcd60e51b815260206004820152600f60248201527f494e56414c49445f544f4b454e4944000000000000000000000000000000000060448201526064016107f3565b506000908152601860205260409020546001600160a01b031690565b61107b611af2565b6040805160808101918290529060099060049082845b815481526020019060010190808311611091575050505050905090565b60006001600160a01b0382166111065760405162461bcd60e51b815260206004820152600c60248201527f5a45524f5f41444452455353000000000000000000000000000000000000000060448201526064016107f3565b506001600160a01b031660009081526019602052604090205490565b600e816004811061113257600080fd5b01546001600160a01b0316905081565b600080546040516001600160a01b039091169047908381818185875af1925050503d806000811461118f576040519150601f19603f3d011682016040523d82523d6000602084013e611194565b606091505b50509050806111e55760405162461bcd60e51b815260206004820152601360248201527f4554485f5452414e534645525f4641494c45440000000000000000000000000060448201526064016107f3565b50565b600181600481106111f857600080fd5b018054909150611207906120e7565b80601f0160208091040260200160405190810160405280929190818152602001828054611233906120e7565b80156112805780601f1061125557610100808354040283529160200191611280565b820191906000526020600020905b81548152906001019060200180831161126357829003601f168201915b505050505081565b6000546001600160a01b031633146112e1576000546040517f8ea458f60000000000000000000000000000000000000000000000000000000081526001600160a01b0390911660048201523360248201526044016107f3565b600054604080516001600160a01b03928316815291831660208301527fdec101f106d4fc7c85791843e64b198248c822298e3ed7046231d33f7783d816910160405180910390a1600080547fffffffffffffffffffffffff0000000000000000000000000000000000000000166001600160a01b0392909216919091179055565b6000546040517f70a0823100000000000000000000000000000000000000000000000000000000815230600482018190526001600160a01b03848116936323b872dd9391169084906370a0823190602401602060405180830381865afa1580156113d0573d6000803e3d6000fd5b505050506040513d601f19601f820116820180604052508101906113f49190612423565b6040517fffffffff0000000000000000000000000000000000000000000000000000000060e086901b1681526001600160a01b03938416600482015292909116602483015260448201526064016020604051808303816000875af1158015611460573d6000803e3d6000fd5b505050506040513d601f19601f820116820180604052508101906114849190612268565b5050565b6009816004811061149857600080fd5b0154905081565b336000818152601b602090815260408083206001600160a01b0387168085529083529281902080547fffffffffffffffffffffffffffffffffffffffffffffffffffffffffffffff001686151590811790915590519081529192917f17307eab39ab6107e8899845ad3d59bd9653f200f220920489ca2b5937696c31910160405180910390a35050565b61153584848484611751565b50505050565b6012816004811061149857600080fd5b611553611af2565b6040805160808101918290526012805482529091600490601360208501808311611091575050505050905090565b6000546001600160a01b031633146115da576000546040517f8ea458f60000000000000000000000000000000000000000000000000000000081526001600160a01b0390911660048201523360248201526044016107f3565b7fffffffff00000000000000000000000000000000000000000000000000000000808316900361164c5760405162461bcd60e51b815260206004820152601a60248201527f494e56414c49445f494e544552464143455f53454c4543544f5200000000000060448201526064016107f3565b7fffffffff0000000000000000000000000000000000000000000000000000000091909116600090815260176020526040902080547fffffffffffffffffffffffffffffffffffffffffffffffffffffffffffffff0016911515919091179055565b6000546001600160a01b03163314611707576000546040517f8ea458f60000000000000000000000000000000000000000000000000000000081526001600160a01b0390911660048201523360248201526044016107f3565b602280547fffffffffffffffffffffffff0000000000000000000000000000000000000000166001600160a01b0392909216919091179055565b6005816004811061149857600080fd5b6001600160a01b038316611791576040517f5788079900000000000000000000000000000000000000000000000000000000815260040160405180910390fd5b6000828152601860205260409020546001600160a01b0385811691161461180f57600082815260186020526040908190205490517f431ef6160000000000000000000000000000000000000000000000000000000081526001600160a01b0391821660048201529085166024820152604481018390526064016107f3565b6000828152601860205260409020546001600160a01b0316331480159061185a57506001600160a01b0384166000908152601b6020908152604080832033845290915290205460ff16155b801561187d57506000828152601a60205260409020546001600160a01b03163314155b156118cc576040517f431ef6160000000000000000000000000000000000000000000000000000000081523360048201526001600160a01b0385166024820152604481018390526064016107f3565b6000828152601a6020908152604080832080547fffffffffffffffffffffffff00000000000000000000000000000000000000009081169091556018835281842080546001600160a01b03898116919093168117909155908816808552601990935281842080547fffffffffffffffffffffffffffffffffffffffffffffffffffffffffffffffff01905580845281842080546001019055905185939192917fddf252ad1be2c89b69c2b068fc378daa952ba7f163c4a11628f55a4df523b3ef91a46001600160a01b0383163b15611535576040517f150b7a020000000000000000000000000000000000000000000000000000000081526001600160a01b0384169063150b7a02906119e990339088908790879060040161243c565b6020604051808303816000875af1925050508015611a24575060408051601f3d908101601f19168201909252611a2191810190612478565b60015b611a65576040517f3a9f8cb30000000000000000000000000000000000000000000000000000000081526001600160a01b03841660048201526024016107f3565b7fffffffff0000000000000000000000000000000000000000000000000000000081167f150b7a020000000000000000000000000000000000000000000000000000000014611aeb576040517f3a9f8cb30000000000000000000000000000000000000000000000000000000081526001600160a01b03851660048201526024016107f3565b5050505050565b60405180608001604052806004906020820280368337509192915050565b7fffffffff00000000000000000000000000000000000000000000000000000000811681146111e557600080fd5b600060208284031215611b5057600080fd5b8135611b5b81611b10565b9392505050565b6001600160a01b03811681146111e557600080fd5b60008060408385031215611b8a57600080fd5b8235611b9581611b62565b946020939093013593505050565b600080600060608486031215611bb857600080fd5b8335611bc381611b62565b92506020840135611bd381611b62565b929592945050506040919091013590565b60005b83811015611bff578181015183820152602001611be7565b50506000910152565b60008151808452611c20816020860160208601611be4565b601f01601f19169290920160200192915050565b602081526000611b5b6020830184611c08565b7f4e487b7100000000000000000000000000000000000000000000000000000000600052604160045260246000fd5b604051601f8201601f1916810167ffffffffffffffff81118282101715611c9f57611c9f611c47565b604052919050565b600067ffffffffffffffff831115611cc157611cc1611c47565b611cd46020601f19601f86011601611c76565b9050828152838383011115611ce857600080fd5b828260208301376000602084830101529392505050565b600082601f830112611d1057600080fd5b611b5b83833560208501611ca7565b600067ffffffffffffffff821115611d3957611d39611c47565b5060051b60200190565b600082601f830112611d5457600080fd5b81356020611d69611d6483611d1f565b611c76565b82815260059290921b84018101918181019086841115611d8857600080fd5b8286015b84811015611da35780358352918301918301611d8c565b509695505050505050565b600082601f830112611dbf57600080fd5b81356020611dcf611d6483611d1f565b82815260059290921b84018101918181019086841115611dee57600080fd5b8286015b84811015611da3578035611e0581611b62565b8352918301918301611df2565b600082601f830112611e2357600080fd5b81356020611e33611d6483611d1f565b82815260059290921b84018101918181019086841115611e5257600080fd5b8286015b84811015611da357803560ff81168114611e705760008081fd5b8352918301918301611e56565b60008060008060008060c08789031215611e9657600080fd5b863567ffffffffffffffff80821115611eae57600080fd5b611eba8a838b01611cff565b9750602089013596506040890135915080821115611ed757600080fd5b611ee38a838b01611d43565b9550606089013594506080890135915080821115611f0057600080fd5b611f0c8a838b01611dae565b935060a0890135915080821115611f2257600080fd5b50611f2f89828a01611e12565b9150509295509295509295565b600060208284031215611f4e57600080fd5b5035919050565b60808101818360005b6004811015611f865781516001600160a01b0316835260209283019290910190600101611f5e565b50505092915050565b60808101818360005b6004811015611f86578151835260209283019290910190600101611f98565b600060208284031215611fc957600080fd5b8135611b5b81611b62565b80151581146111e557600080fd5b60008060408385031215611ff557600080fd5b823561200081611b62565b9150602083013561201081611fd4565b809150509250929050565b6000806000806080858703121561203157600080fd5b843561203c81611b62565b9350602085013561204c81611b62565b925060408501359150606085013567ffffffffffffffff81111561206f57600080fd5b8501601f8101871361208057600080fd5b61208f87823560208401611ca7565b91505092959194509250565b600080604083850312156120ae57600080fd5b823561200081611b10565b600080604083850312156120cc57600080fd5b82356120d781611b62565b9150602083013561201081611b62565b600181811c908216806120fb57607f821691505b602082108103612134577f4e487b7100000000000000000000000000000000000000000000000000000000600052602260045260246000fd5b50919050565b60408152600061214d6040830185611c08565b60208382038185015281829050608083018660005b6004808210612171575061225a565b86840385528254600090600181811c908083168061219057607f831692505b8a831081036121c5577f4e487b7100000000000000000000000000000000000000000000000000000000855260228652602485fd5b8289526020890195508080156121e2576001811461221657612241565b7fffffffffffffffffffffffffffffffffffffffffffffffffffffffffffffff008516875283151560051b87019550612241565b60008981526020902060005b8581101561223b57815489820152908401908d01612222565b88019650505b5050978901979296505050929092019150600101612162565b509098975050505050505050565b60006020828403121561227a57600080fd5b8151611b5b81611fd4565b60006020828403121561229757600080fd5b8151611b5b81611b62565b7f4e487b7100000000000000000000000000000000000000000000000000000000600052601160045260246000fd5b6000817fffffffffffffffffffffffffffffffffffffffffffffffffffffffffffffffff0483118215151615612309576123096122a2565b500290565b60008251612320818460208701611be4565b9190910192915050565b600081518084526020808501945080840160005b8381101561235d57815160ff168752958201959082019060010161233e565b509495945050505050565b600060808201868352602060808185015281875180845260a086019150828901935060005b818110156123a95784518352938301939183019160010161238d565b50508481036040860152865180825290820192508187019060005b818110156123e95782516001600160a01b0316855293830193918301916001016123c4565b5050505082810360608401526123ff818561232a565b979650505050505050565b8082018082111561241d5761241d6122a2565b92915050565b60006020828403121561243557600080fd5b5051919050565b60006001600160a01b0380871683528086166020840152508360408301526080606083015261246e6080830184611c08565b9695505050505050565b60006020828403121561248a57600080fd5b8151611b5b81611b1056fea2646970667358221220b784c862c99911bde36cc4ecbd3d2412678148c3375f5d61a9f6acfd9b5bcbc264736f6c63430008100033",
    "linkReferences": {
      "src/Utils/LibString.sol": {
        "LibString": [
          {
            "start": 4624,
            "length": 20
          }
        ]
      }
    }
  },
  "methodIdentifiers": {
    "Dev()": "01e51ae8",
    "HELIX2()": "b782426e",
    "NAMES()": "05e84aa0",
    "POLYCULES()": "d9ebda12",
    "_approved(uint256)": "9024d282",
    "active()": "02fb0c5e",
    "approve(address,uint256)": "095ea7b3",
    "balanceOf(address)": "70a08231",
    "basePrice()": "c7876ea4",
    "changeDev(address)": "88a8c95c",
    "defaultLifespan()": "0e6c0bdb",
    "defaultResolver()": "828eab0e",
    "ensRegistry()": "7d73b231",
    "getPrices()": "bd9a548b",
    "getRegistry()": "5ab1bd53",
    "getRoothash()": "642a8ed6",
    "helix2Registry(uint256)": "70dec5f0",
    "illegalBlocks(uint256)": "80b29beb",
    "isApprovedForAll(address,address)": "e985e9c5",
    "isDev()": "f079914f",
    "newPolycule(string,bytes32,bytes32[],uint256,address[],uint8[])": "3823c6c3",
    "ownerOf(uint256)": "6352211e",
    "polycule()": "303c128f",
    "prices(uint256)": "bc31c1c1",
    "roothash(uint256)": "8dfcb1c7",
    "safeTransferFrom(address,address,uint256)": "42842e0e",
    "safeTransferFrom(address,address,uint256,bytes)": "b88d4fde",
    "setApprovalForAll(address,bool)": "a22cb465",
    "setDefaultLifespan(uint256)": "39506308",
    "setDefaultResolver(address)": "c66485b2",
    "setInterface(bytes4,bool)": "c0a43a7c",
    "sizes(uint256)": "d9a9b0c6",
    "supportsInterface(bytes4)": "01ffc9a7",
    "symbol()": "95d89b41",
    "transferFrom(address,address,uint256)": "23b872dd",
    "withdrawEther()": "7362377b",
    "withdrawToken(address)": "89476069"
  },
  "id": 11
}