{
  "abi": [
    {
      "inputs": [
        {
          "internalType": "address",
          "name": "__registry",
          "type": "address"
        },
        {
          "internalType": "address",
          "name": "_registry",
          "type": "address"
        },
        {
          "internalType": "address",
          "name": "_helix2",
          "type": "address"
        }
      ],
      "stateMutability": "nonpayable",
      "type": "constructor"
    },
    {
      "inputs": [],
      "name": "CannotBurn",
      "type": "error"
    },
    {
      "inputs": [
        {
          "internalType": "address",
          "name": "to",
          "type": "address"
        }
      ],
      "name": "ERC721IncompatibleReceiver",
      "type": "error"
    },
    {
      "inputs": [
        {
          "internalType": "address",
          "name": "_dev",
          "type": "address"
        },
        {
          "internalType": "address",
          "name": "_you",
          "type": "address"
        }
      ],
      "name": "OnlyDev",
      "type": "error"
    },
    {
      "inputs": [
        {
          "internalType": "address",
          "name": "operator",
          "type": "address"
        },
        {
          "internalType": "address",
          "name": "owner",
          "type": "address"
        },
        {
          "internalType": "uint256",
          "name": "tokenID",
          "type": "uint256"
        }
      ],
      "name": "Unauthorized",
      "type": "error"
    },
    {
      "anonymous": false,
      "inputs": [
        {
          "indexed": true,
          "internalType": "address",
          "name": "owner",
          "type": "address"
        },
        {
          "indexed": true,
          "internalType": "address",
          "name": "spender",
          "type": "address"
        },
        {
          "indexed": true,
          "internalType": "uint256",
          "name": "tokenID",
          "type": "uint256"
        }
      ],
      "name": "Approval",
      "type": "event"
    },
    {
      "anonymous": false,
      "inputs": [
        {
          "indexed": true,
          "internalType": "address",
          "name": "owner",
          "type": "address"
        },
        {
          "indexed": true,
          "internalType": "address",
          "name": "operator",
          "type": "address"
        },
        {
          "indexed": false,
          "internalType": "bool",
          "name": "approved",
          "type": "bool"
        }
      ],
      "name": "ApprovalForAll",
      "type": "event"
    },
    {
      "anonymous": false,
      "inputs": [
        {
          "indexed": true,
          "internalType": "bytes32",
          "name": "polyhash",
          "type": "bytes32"
        },
        {
          "indexed": false,
          "internalType": "bytes32",
          "name": "cation",
          "type": "bytes32"
        }
      ],
      "name": "NewCation",
      "type": "event"
    },
    {
      "anonymous": false,
      "inputs": [
        {
          "indexed": true,
          "internalType": "bytes32",
          "name": "polyhash",
          "type": "bytes32"
        },
        {
          "indexed": false,
          "internalType": "address",
          "name": "controller",
          "type": "address"
        }
      ],
      "name": "NewController",
      "type": "event"
    },
    {
      "anonymous": false,
      "inputs": [
        {
          "indexed": false,
          "internalType": "address",
          "name": "Dev",
          "type": "address"
        },
        {
          "indexed": false,
          "internalType": "address",
          "name": "newDev",
          "type": "address"
        }
      ],
      "name": "NewDev",
      "type": "event"
    },
    {
      "anonymous": false,
      "inputs": [
        {
          "indexed": true,
          "internalType": "bytes32",
          "name": "polyhash",
          "type": "bytes32"
        },
        {
          "indexed": false,
          "internalType": "uint256",
          "name": "expiry",
          "type": "uint256"
        }
      ],
      "name": "NewExpiry",
      "type": "event"
    },
    {
      "anonymous": false,
      "inputs": [
        {
          "indexed": true,
          "internalType": "bytes32",
          "name": "polyhash",
          "type": "bytes32"
        },
        {
          "indexed": false,
          "internalType": "bytes32",
          "name": "cation",
          "type": "bytes32"
        }
      ],
      "name": "NewPolycule",
      "type": "event"
    },
    {
      "anonymous": false,
      "inputs": [
        {
          "indexed": true,
          "internalType": "bytes32",
          "name": "polyhash",
          "type": "bytes32"
        },
        {
          "indexed": false,
          "internalType": "address",
          "name": "resolver",
          "type": "address"
        }
      ],
      "name": "NewRecord",
      "type": "event"
    },
    {
      "anonymous": false,
      "inputs": [
        {
          "indexed": true,
          "internalType": "bytes32",
          "name": "polyhash",
          "type": "bytes32"
        },
        {
          "indexed": false,
          "internalType": "address",
          "name": "resolver",
          "type": "address"
        }
      ],
      "name": "NewResolver",
      "type": "event"
    },
    {
      "anonymous": false,
      "inputs": [
        {
          "indexed": true,
          "internalType": "address",
          "name": "from",
          "type": "address"
        },
        {
          "indexed": true,
          "internalType": "address",
          "name": "to",
          "type": "address"
        },
        {
          "indexed": true,
          "internalType": "uint256",
          "name": "tokenID",
          "type": "uint256"
        }
      ],
      "name": "Transfer",
      "type": "event"
    },
    {
      "stateMutability": "payable",
      "type": "fallback"
    },
    {
      "inputs": [],
      "name": "Dev",
      "outputs": [
        {
          "internalType": "address",
          "name": "",
          "type": "address"
        }
      ],
      "stateMutability": "view",
      "type": "function"
    },
    {
      "inputs": [],
      "name": "HELIX2",
      "outputs": [
        {
          "internalType": "contract iHELIX2",
          "name": "",
          "type": "address"
        }
      ],
      "stateMutability": "view",
      "type": "function"
    },
    {
      "inputs": [],
      "name": "NAMES",
      "outputs": [
        {
          "internalType": "contract iNAME",
          "name": "",
          "type": "address"
        }
      ],
      "stateMutability": "view",
      "type": "function"
    },
    {
      "inputs": [],
      "name": "POLYCULES",
      "outputs": [
        {
          "internalType": "contract iPOLYCULE",
          "name": "",
          "type": "address"
        }
      ],
      "stateMutability": "view",
      "type": "function"
    },
    {
      "inputs": [
        {
          "internalType": "uint256",
          "name": "",
          "type": "uint256"
        }
      ],
      "name": "_approved",
      "outputs": [
        {
          "internalType": "address",
          "name": "",
          "type": "address"
        }
      ],
      "stateMutability": "view",
      "type": "function"
    },
    {
      "inputs": [],
      "name": "active",
      "outputs": [
        {
          "internalType": "bool",
          "name": "",
          "type": "bool"
        }
      ],
      "stateMutability": "view",
      "type": "function"
    },
    {
      "inputs": [
        {
          "internalType": "address",
          "name": "controller",
          "type": "address"
        },
        {
          "internalType": "uint256",
          "name": "tokenID",
          "type": "uint256"
        }
      ],
      "name": "approve",
      "outputs": [],
      "stateMutability": "payable",
      "type": "function"
    },
    {
      "inputs": [
        {
          "internalType": "address",
          "name": "wallet",
          "type": "address"
        }
      ],
      "name": "balanceOf",
      "outputs": [
        {
          "internalType": "uint256",
          "name": "",
          "type": "uint256"
        }
      ],
      "stateMutability": "view",
      "type": "function"
    },
    {
      "inputs": [],
      "name": "basePrice",
      "outputs": [
        {
          "internalType": "uint256",
          "name": "",
          "type": "uint256"
        }
      ],
      "stateMutability": "view",
      "type": "function"
    },
    {
      "inputs": [
        {
          "internalType": "address",
          "name": "newDev",
          "type": "address"
        }
      ],
      "name": "changeDev",
      "outputs": [],
      "stateMutability": "nonpayable",
      "type": "function"
    },
    {
      "inputs": [],
      "name": "defaultLifespan",
      "outputs": [
        {
          "internalType": "uint256",
          "name": "",
          "type": "uint256"
        }
      ],
      "stateMutability": "view",
      "type": "function"
    },
    {
      "inputs": [],
      "name": "defaultResolver",
      "outputs": [
        {
          "internalType": "address",
          "name": "",
          "type": "address"
        }
      ],
      "stateMutability": "view",
      "type": "function"
    },
    {
      "inputs": [],
      "name": "ensRegistry",
      "outputs": [
        {
          "internalType": "address",
          "name": "",
          "type": "address"
        }
      ],
      "stateMutability": "view",
      "type": "function"
    },
    {
      "inputs": [],
      "name": "getPrices",
      "outputs": [
        {
          "internalType": "uint256[4]",
          "name": "",
          "type": "uint256[4]"
        }
      ],
      "stateMutability": "view",
      "type": "function"
    },
    {
      "inputs": [],
      "name": "getRegistry",
      "outputs": [
        {
          "internalType": "address[4]",
          "name": "",
          "type": "address[4]"
        }
      ],
      "stateMutability": "view",
      "type": "function"
    },
    {
      "inputs": [],
      "name": "getRoothash",
      "outputs": [
        {
          "internalType": "bytes32[4]",
          "name": "",
          "type": "bytes32[4]"
        }
      ],
      "stateMutability": "view",
      "type": "function"
    },
    {
      "inputs": [
        {
          "internalType": "uint256",
          "name": "",
          "type": "uint256"
        }
      ],
      "name": "helix2Registry",
      "outputs": [
        {
          "internalType": "address",
          "name": "",
          "type": "address"
        }
      ],
      "stateMutability": "view",
      "type": "function"
    },
    {
      "inputs": [
        {
          "internalType": "uint256",
          "name": "",
          "type": "uint256"
        }
      ],
      "name": "illegalBlocks",
      "outputs": [
        {
          "internalType": "string",
          "name": "",
          "type": "string"
        }
      ],
      "stateMutability": "view",
      "type": "function"
    },
    {
      "inputs": [
        {
          "internalType": "address",
          "name": "",
          "type": "address"
        },
        {
          "internalType": "address",
          "name": "",
          "type": "address"
        }
      ],
      "name": "isApprovedForAll",
      "outputs": [
        {
          "internalType": "bool",
          "name": "",
          "type": "bool"
        }
      ],
      "stateMutability": "view",
      "type": "function"
    },
    {
      "inputs": [],
      "name": "isDev",
      "outputs": [
        {
          "internalType": "address",
          "name": "",
          "type": "address"
        }
      ],
      "stateMutability": "view",
      "type": "function"
    },
    {
      "inputs": [
        {
          "internalType": "string",
          "name": "_alias",
          "type": "string"
        },
        {
          "internalType": "bytes32",
          "name": "cation",
          "type": "bytes32"
        },
        {
          "internalType": "bytes32[]",
          "name": "anion",
          "type": "bytes32[]"
        },
        {
          "internalType": "uint256",
          "name": "lifespan",
          "type": "uint256"
        },
        {
          "internalType": "address[]",
          "name": "config",
          "type": "address[]"
        },
        {
          "internalType": "uint8[]",
          "name": "rules",
          "type": "uint8[]"
        }
      ],
      "name": "newPolycule",
      "outputs": [
        {
          "internalType": "bytes32",
          "name": "",
          "type": "bytes32"
        }
      ],
      "stateMutability": "payable",
      "type": "function"
    },
    {
      "inputs": [
        {
          "internalType": "uint256",
          "name": "tokenID",
          "type": "uint256"
        }
      ],
      "name": "ownerOf",
      "outputs": [
        {
          "internalType": "address",
          "name": "",
          "type": "address"
        }
      ],
      "stateMutability": "view",
      "type": "function"
    },
    {
      "inputs": [],
      "name": "polycule",
      "outputs": [
        {
          "internalType": "string",
          "name": "",
          "type": "string"
        }
      ],
      "stateMutability": "view",
      "type": "function"
    },
    {
      "inputs": [
        {
          "internalType": "uint256",
          "name": "",
          "type": "uint256"
        }
      ],
      "name": "prices",
      "outputs": [
        {
          "internalType": "uint256",
          "name": "",
          "type": "uint256"
        }
      ],
      "stateMutability": "view",
      "type": "function"
    },
    {
      "inputs": [
        {
          "internalType": "uint256",
          "name": "",
          "type": "uint256"
        }
      ],
      "name": "roothash",
      "outputs": [
        {
          "internalType": "bytes32",
          "name": "",
          "type": "bytes32"
        }
      ],
      "stateMutability": "view",
      "type": "function"
    },
    {
      "inputs": [
        {
          "internalType": "address",
          "name": "from",
          "type": "address"
        },
        {
          "internalType": "address",
          "name": "to",
          "type": "address"
        },
        {
          "internalType": "uint256",
          "name": "tokenID",
          "type": "uint256"
        }
      ],
      "name": "safeTransferFrom",
      "outputs": [],
      "stateMutability": "payable",
      "type": "function"
    },
    {
      "inputs": [
        {
          "internalType": "address",
          "name": "from",
          "type": "address"
        },
        {
          "internalType": "address",
          "name": "to",
          "type": "address"
        },
        {
          "internalType": "uint256",
          "name": "tokenID",
          "type": "uint256"
        },
        {
          "internalType": "bytes",
          "name": "data",
          "type": "bytes"
        }
      ],
      "name": "safeTransferFrom",
      "outputs": [],
      "stateMutability": "payable",
      "type": "function"
    },
    {
      "inputs": [
        {
          "internalType": "address",
          "name": "controller",
          "type": "address"
        },
        {
          "internalType": "bool",
          "name": "flag",
          "type": "bool"
        }
      ],
      "name": "setApprovalForAll",
      "outputs": [],
      "stateMutability": "payable",
      "type": "function"
    },
    {
      "inputs": [
        {
          "internalType": "uint256",
          "name": "_lifespan",
          "type": "uint256"
        }
      ],
      "name": "setDefaultLifespan",
      "outputs": [],
      "stateMutability": "nonpayable",
      "type": "function"
    },
    {
      "inputs": [
        {
          "internalType": "address",
          "name": "_resolver",
          "type": "address"
        }
      ],
      "name": "setDefaultResolver",
      "outputs": [],
      "stateMutability": "nonpayable",
      "type": "function"
    },
    {
      "inputs": [
        {
          "internalType": "bytes4",
          "name": "sig",
          "type": "bytes4"
        },
        {
          "internalType": "bool",
          "name": "value",
          "type": "bool"
        }
      ],
      "name": "setInterface",
      "outputs": [],
      "stateMutability": "payable",
      "type": "function"
    },
    {
      "inputs": [
        {
          "internalType": "uint256",
          "name": "",
          "type": "uint256"
        }
      ],
      "name": "sizes",
      "outputs": [
        {
          "internalType": "uint256",
          "name": "",
          "type": "uint256"
        }
      ],
      "stateMutability": "view",
      "type": "function"
    },
    {
      "inputs": [
        {
          "internalType": "bytes4",
          "name": "",
          "type": "bytes4"
        }
      ],
      "name": "supportsInterface",
      "outputs": [
        {
          "internalType": "bool",
          "name": "",
          "type": "bool"
        }
      ],
      "stateMutability": "view",
      "type": "function"
    },
    {
      "inputs": [],
      "name": "symbol",
      "outputs": [
        {
          "internalType": "string",
          "name": "",
          "type": "string"
        }
      ],
      "stateMutability": "view",
      "type": "function"
    },
    {
      "inputs": [
        {
          "internalType": "address",
          "name": "from",
          "type": "address"
        },
        {
          "internalType": "address",
          "name": "to",
          "type": "address"
        },
        {
          "internalType": "uint256",
          "name": "tokenID",
          "type": "uint256"
        }
      ],
      "name": "transferFrom",
      "outputs": [],
      "stateMutability": "payable",
      "type": "function"
    },
    {
      "inputs": [],
      "name": "withdrawEther",
      "outputs": [],
      "stateMutability": "payable",
      "type": "function"
    },
    {
      "inputs": [
        {
          "internalType": "address",
          "name": "token",
          "type": "address"
        }
      ],
      "name": "withdrawToken",
      "outputs": [],
      "stateMutability": "payable",
      "type": "function"
    },
    {
      "stateMutability": "payable",
      "type": "receive"
    }
  ],
  "bytecode": {
    "object": "0x6001610100818152601760f91b610120526080908152610140828152603f60f81b6101605260a052610180828152602160f81b6101a05260c0526102006040526101c0828152602360f81b6101e05260e0526200005f9190600462000405565b5060408051608081018252602080825280820181905291810182905260608101919091526200009390600590600462000455565b5060408051608081018252600060a082018190527f6f010af653ebe3cb07d297a4ef13366103d392ceffa68dd48232e6e9ff2187bf60c0808401919091528351808403909101815260e0830184528051602091820120835283518082018390527f5f179612d7132c8ed24ba0e286d60d398c4aa1c234eb2274ca1bba47718e9d3181860152845180820386018152606091820186528051908301208285015284518083018490527f3275a893b2c93461554cf2a4dd7f413d56decdd6f3fdf0589dbb8bc4fd742386818701528551808203870181529082018652805190830120848601528451808301939093527face738c68088218d015fbdce138f062893d86818ac98932f7ce2907c5976fbde83860152845180840386018152928101909452815191012091810191909152620001d090600990600462000499565b50600d80546001600160a01b0319166e0c2e074ec69a0dfb2997ba6c7d2e1e1790556040805160808101825260018152600260208201526003918101919091526004606082018190526200022791600e91620004ca565b506040805160808101825262030d408082526020820181905291810182905260608101919091526200025e90601290600462000515565b506016805460ff191660011790556401cf7c5800601d553480156200028257600080fd5b5060405162002cfe38038062002cfe833981016040819052620002a591620005e4565b60008054336001600160a01b0319918216178255601760209081527f4152fdd4960944ad2843ab0640e4bafb0ddf2caf06de54df701cf7a17df044aa805460ff1990811660019081179092557f6779f08d87897b1938d8ae1ed3d650e2616775c110ff5d98b7f82c079d97c7788054821683179055635b5e139f60e01b9094527f244a57cf9422b23a74eac7556da7a02b4681eb0e2f9c3613963f0b44ad4388608054909416179092556021805482166001600160a01b03858116918217909255601f805484168784161790558354909216908616179091556040805163bd9a548b60e01b8152905163bd9a548b916004808201926080929091908290030181865afa158015620003ba573d6000803e3d6000fd5b505050506040513d601f19601f82011682018060405250810190620003e0919062000644565b60036020020151601e555050600080546001600160a01b031916331790555062000824565b826004810192821562000443579160200282015b8281111562000443578251829062000432908262000758565b509160200191906001019062000419565b50620004519291506200054d565b5090565b82600481019282156200048b579160200282015b828111156200048b578251829060ff1690559160200191906001019062000469565b50620004519291506200056e565b82600481019282156200048b579160200282015b828111156200048b578251825591602001919060010190620004ad565b82600481019282156200048b579160200282015b828111156200048b57825182546001600160a01b0319166001600160a01b03909116178255602090920191600190910190620004de565b82600481019282156200048b579160200282015b828111156200048b578251829062ffffff1690559160200191906001019062000529565b808211156200045157600062000564828262000585565b506001016200054d565b5b808211156200045157600081556001016200056f565b5080546200059390620006c9565b6000825580601f10620005a4575050565b601f016020900490600052602060002090810190620005c491906200056e565b50565b80516001600160a01b0381168114620005df57600080fd5b919050565b600080600060608486031215620005fa57600080fd5b6200060584620005c7565b92506200061560208501620005c7565b91506200062560408501620005c7565b90509250925092565b634e487b7160e01b600052604160045260246000fd5b6000608082840312156200065757600080fd5b82601f8301126200066757600080fd5b604051608081016001600160401b03811182821017156200068c576200068c6200062e565b604052806080840185811115620006a257600080fd5b845b81811015620006be578051835260209283019201620006a4565b509195945050505050565b600181811c90821680620006de57607f821691505b602082108103620006ff57634e487b7160e01b600052602260045260246000fd5b50919050565b601f8211156200075357600081815260208120601f850160051c810160208610156200072e5750805b601f850160051c820191505b818110156200074f578281556001016200073a565b5050505b505050565b81516001600160401b038111156200077457620007746200062e565b6200078c81620007858454620006c9565b8462000705565b602080601f831160018114620007c45760008415620007ab5750858301515b600019600386901b1c1916600185901b1785556200074f565b600085815260208120601f198616915b82811015620007f557888601518255948401946001909101908401620007d4565b5085821015620008145787850151600019600388901b60f8161c191681555b5050505050600190811b01905550565b6124ca80620008346000396000f3fe60806040526004361061026e5760003560e01c806380b29beb11610153578063b88d4fde116100cb578063c7876ea41161007f578063d9ebda1211610064578063d9ebda12146106cb578063e985e9c5146106eb578063f079914f1461072657600080fd5b8063c7876ea414610695578063d9a9b0c6146106ab57600080fd5b8063bd9a548b116100b0578063bd9a548b1461064d578063c0a43a7c14610662578063c66485b21461067557600080fd5b8063b88d4fde1461061a578063bc31c1c11461062d57600080fd5b80638dfcb1c71161012257806395d89b411161010757806395d89b411461059e578063a22cb465146105e7578063b782426e146105fa57600080fd5b80638dfcb1c7146105485780639024d2821461056857600080fd5b806380b29beb146104d5578063828eab0e146104f557806388a8c95c14610515578063894760691461053557600080fd5b806339506308116101e6578063642a8ed6116101b557806370dec5f01161019a57806370dec5f01461048d5780637362377b146104ad5780637d73b231146104b557600080fd5b8063642a8ed61461044b57806370a082311461046d57600080fd5b806339506308146103e957806342842e0e1461036d5780635ab1bd53146104095780636352211e1461042b57600080fd5b8063095ea7b31161023d57806323b872dd1161022257806323b872dd1461036d578063303c128f146103805780633823c6c3146103d657600080fd5b8063095ea7b3146103345780630e6c0bdb1461034957600080fd5b806301e51ae81461027d57806301ffc9a7146102ba57806302fb0c5e146102fa57806305e84aa01461031457600080fd5b3661027857600080fd5b600080fd5b34801561028957600080fd5b5060005461029d906001600160a01b031681565b6040516001600160a01b0390911681526020015b60405180910390f35b3480156102c657600080fd5b506102ea6102d5366004611b3d565b60176020526000908152604090205460ff1681565b60405190151581526020016102b1565b34801561030657600080fd5b506016546102ea9060ff1681565b34801561032057600080fd5b50601f5461029d906001600160a01b031681565b610347610342366004611b76565b610744565b005b34801561035557600080fd5b5061035f601d5481565b6040519081526020016102b1565b61034761037b366004611ba2565b61086d565b34801561038c57600080fd5b506103c96040518060400160405280601781526020017f48656c69783220506f6c7963756c65205365727669636500000000000000000081525081565b6040516102b19190611c33565b61035f6103e4366004611e7c565b61088d565b3480156103f557600080fd5b50610347610404366004611f3b565b610f4f565b34801561041557600080fd5b5061041e610fad565b6040516102b19190611f54565b34801561043757600080fd5b5061029d610446366004611f3b565b610ff2565b34801561045757600080fd5b50610460611072565b6040516102b19190611f8e565b34801561047957600080fd5b5061035f610488366004611fb6565b6110ad565b34801561049957600080fd5b5061029d6104a8366004611f3b565b611121565b610347611141565b3480156104c157600080fd5b50600d5461029d906001600160a01b031681565b3480156104e157600080fd5b506103c96104f0366004611f3b565b6111e7565b34801561050157600080fd5b5060225461029d906001600160a01b031681565b34801561052157600080fd5b50610347610530366004611fb6565b611287565b610347610543366004611fb6565b611361565b34801561055457600080fd5b5061035f610563366004611f3b565b611487565b34801561057457600080fd5b5061029d610583366004611f3b565b601a602052600090815260409020546001600160a01b031681565b3480156105aa57600080fd5b506103c96040518060400160405280600381526020017f485053000000000000000000000000000000000000000000000000000000000081525081565b6103476105f5366004611fe1565b61149e565b34801561060657600080fd5b5060215461029d906001600160a01b031681565b61034761062836600461201a565b611528565b34801561063957600080fd5b5061035f610648366004611f3b565b61153a565b34801561065957600080fd5b5061046061154a565b61034761067036600461209a565b611580565b34801561068157600080fd5b50610347610690366004611fb6565b6116ad565b3480156106a157600080fd5b5061035f601e5481565b3480156106b757600080fd5b5061035f6106c6366004611f3b565b611740565b3480156106d757600080fd5b5060205461029d906001600160a01b031681565b3480156106f757600080fd5b506102ea6107063660046120b8565b601b60209081526000928352604080842090915290825290205460ff1681565b34801561073257600080fd5b506000546001600160a01b031661029d565b6000818152601860205260409020546001600160a01b03163314158061079757506000818152601860209081526040808320546001600160a01b03168352601b825280832033845290915290205460ff16155b156107fc57600081815260186020526040908190205490517f431ef6160000000000000000000000000000000000000000000000000000000081523360048201526001600160a01b039091166024820152604481018290526064015b60405180910390fd5b6000818152601a602052604080822080547fffffffffffffffffffffffff0000000000000000000000000000000000000000166001600160a01b0386169081179091559051839233917f8c5be1e5ebec7d5bd14f71427d1e84f3dd0314c0f7b2291e5b200ac8c7c3b9259190a45050565b61088883838360405180602001604052806000815250611750565b505050565b6000866005600101548151106108e55760405162461bcd60e51b815260206004820152600d60248201527f494c4c4547414c5f4c4142454c0000000000000000000000000000000000000060448201526064016107f3565b6040517f8572a5d300000000000000000000000000000000000000000000000000000000815273__$47e4ffaaf323c41735ff299f8946896ce0$__90638572a5d390610938908490600190600401612139565b602060405180830381865af4158015610955573d6000803e3d6000fd5b505050506040513d601f19601f820116820180604052508101906109799190612267565b156109c65760405162461bcd60e51b815260206004820152600d60248201527f494c4c4547414c5f43484152530000000000000000000000000000000000000060448201526064016107f3565b85848051825114610a195760405162461bcd60e51b815260206004820152600760248201527f4241445f4d41500000000000000000000000000000000000000000000000000060448201526064016107f3565b601f546040517f02571be3000000000000000000000000000000000000000000000000000000008152600481018b90526000916001600160a01b0316906302571be390602401602060405180830381865afa158015610a7c573d6000803e3d6000fd5b505050506040513d601f19601f82011682018060405250810190610aa09190612284565b9050601d54881015610af45760405162461bcd60e51b815260206004820152601260248201527f4c4946455350414e5f544f4f5f53484f5254000000000000000000000000000060448201526064016107f3565b87601e54610b0291906122d0565b341015610b515760405162461bcd60e51b815260206004820152601260248201527f494e53554646494349454e545f4554484552000000000000000000000000000060448201526064016107f3565b60008b604051602001610b64919061230d565b60408051808303601f190181528282528051602091820120600c549184018f90529183015260608201819052915060009060800160408051601f1981840301815290829052805160209182012090547f8146970a00000000000000000000000000000000000000000000000000000000835260048301829052602483018f90529092506001600160a01b031690638146970a90604401600060405180830381600087803b158015610c1457600080fd5b505af1158015610c28573d6000803e3d6000fd5b50506020546040517f250548b90000000000000000000000000000000000000000000000000000000081526001600160a01b03909116925063250548b99150610c7b9084908f908e908e90600401612367565b600060405180830381600087803b158015610c9557600080fd5b505af1158015610ca9573d6000803e3d6000fd5b50506020546001600160a01b031691506339de6469905082610ccb8d42612409565b6040517fffffffff0000000000000000000000000000000000000000000000000000000060e085901b16815260048101929092526024820152604401600060405180830381600087803b158015610d2157600080fd5b505af1158015610d35573d6000803e3d6000fd5b50506020546040517fd3156905000000000000000000000000000000000000000000000000000000008152600481018590526001600160a01b038781166024830152909116925063d31569059150604401600060405180830381600087803b158015610da057600080fd5b505af1158015610db4573d6000803e3d6000fd5b50506020546022546040517f1896f70a000000000000000000000000000000000000000000000000000000008152600481018690526001600160a01b03918216602482015291169250631896f70a9150604401600060405180830381600087803b158015610e2157600080fd5b505af1158015610e35573d6000803e3d6000fd5b50506020546040517f1f06e91c00000000000000000000000000000000000000000000000000000000815260048101859052602481018690526001600160a01b039091169250631f06e91c9150604401600060405180830381600087803b158015610e9f57600080fd5b505af1158015610eb3573d6000803e3d6000fd5b505050600082815260186020908152604080832080547fffffffffffffffffffffffff0000000000000000000000000000000000000000166001600160a01b038916908117909155835260198252918290208054600101905590518e81528392507fc6162208b4bd8399e03dacf3db4a637c95f6e75712fc16af0402da9046d72799910160405180910390a29c9b505050505050505050505050565b6000546001600160a01b03163314610fa8576000546040517f8ea458f60000000000000000000000000000000000000000000000000000000081526001600160a01b0390911660048201523360248201526044016107f3565b601d55565b610fb5611af1565b60408051608081019182905290600e9060049082845b81546001600160a01b03168152600190910190602001808311610fcb575050505050905090565b6000818152601860205260408120546001600160a01b03166110565760405162461bcd60e51b815260206004820152600f60248201527f494e56414c49445f544f4b454e4944000000000000000000000000000000000060448201526064016107f3565b506000908152601860205260409020546001600160a01b031690565b61107a611af1565b6040805160808101918290529060099060049082845b815481526020019060010190808311611090575050505050905090565b60006001600160a01b0382166111055760405162461bcd60e51b815260206004820152600c60248201527f5a45524f5f41444452455353000000000000000000000000000000000000000060448201526064016107f3565b506001600160a01b031660009081526019602052604090205490565b600e816004811061113157600080fd5b01546001600160a01b0316905081565b600080546040516001600160a01b039091169047908381818185875af1925050503d806000811461118e576040519150601f19603f3d011682016040523d82523d6000602084013e611193565b606091505b50509050806111e45760405162461bcd60e51b815260206004820152601360248201527f4554485f5452414e534645525f4641494c45440000000000000000000000000060448201526064016107f3565b50565b600181600481106111f757600080fd5b018054909150611206906120e6565b80601f0160208091040260200160405190810160405280929190818152602001828054611232906120e6565b801561127f5780601f106112545761010080835404028352916020019161127f565b820191906000526020600020905b81548152906001019060200180831161126257829003601f168201915b505050505081565b6000546001600160a01b031633146112e0576000546040517f8ea458f60000000000000000000000000000000000000000000000000000000081526001600160a01b0390911660048201523360248201526044016107f3565b600054604080516001600160a01b03928316815291831660208301527fdec101f106d4fc7c85791843e64b198248c822298e3ed7046231d33f7783d816910160405180910390a1600080547fffffffffffffffffffffffff0000000000000000000000000000000000000000166001600160a01b0392909216919091179055565b6000546040517f70a0823100000000000000000000000000000000000000000000000000000000815230600482018190526001600160a01b03848116936323b872dd9391169084906370a0823190602401602060405180830381865afa1580156113cf573d6000803e3d6000fd5b505050506040513d601f19601f820116820180604052508101906113f39190612422565b6040517fffffffff0000000000000000000000000000000000000000000000000000000060e086901b1681526001600160a01b03938416600482015292909116602483015260448201526064016020604051808303816000875af115801561145f573d6000803e3d6000fd5b505050506040513d601f19601f820116820180604052508101906114839190612267565b5050565b6009816004811061149757600080fd5b0154905081565b336000818152601b602090815260408083206001600160a01b0387168085529083529281902080547fffffffffffffffffffffffffffffffffffffffffffffffffffffffffffffff001686151590811790915590519081529192917f17307eab39ab6107e8899845ad3d59bd9653f200f220920489ca2b5937696c31910160405180910390a35050565b61153484848484611750565b50505050565b6012816004811061149757600080fd5b611552611af1565b6040805160808101918290526012805482529091600490601360208501808311611090575050505050905090565b6000546001600160a01b031633146115d9576000546040517f8ea458f60000000000000000000000000000000000000000000000000000000081526001600160a01b0390911660048201523360248201526044016107f3565b7fffffffff00000000000000000000000000000000000000000000000000000000808316900361164b5760405162461bcd60e51b815260206004820152601a60248201527f494e56414c49445f494e544552464143455f53454c4543544f5200000000000060448201526064016107f3565b7fffffffff0000000000000000000000000000000000000000000000000000000091909116600090815260176020526040902080547fffffffffffffffffffffffffffffffffffffffffffffffffffffffffffffff0016911515919091179055565b6000546001600160a01b03163314611706576000546040517f8ea458f60000000000000000000000000000000000000000000000000000000081526001600160a01b0390911660048201523360248201526044016107f3565b602280547fffffffffffffffffffffffff0000000000000000000000000000000000000000166001600160a01b0392909216919091179055565b6005816004811061149757600080fd5b6001600160a01b038316611790576040517f5788079900000000000000000000000000000000000000000000000000000000815260040160405180910390fd5b6000828152601860205260409020546001600160a01b0385811691161461180e57600082815260186020526040908190205490517f431ef6160000000000000000000000000000000000000000000000000000000081526001600160a01b0391821660048201529085166024820152604481018390526064016107f3565b6000828152601860205260409020546001600160a01b0316331480159061185957506001600160a01b0384166000908152601b6020908152604080832033845290915290205460ff16155b801561187c57506000828152601a60205260409020546001600160a01b03163314155b156118cb576040517f431ef6160000000000000000000000000000000000000000000000000000000081523360048201526001600160a01b0385166024820152604481018390526064016107f3565b6000828152601a6020908152604080832080547fffffffffffffffffffffffff00000000000000000000000000000000000000009081169091556018835281842080546001600160a01b03898116919093168117909155908816808552601990935281842080547fffffffffffffffffffffffffffffffffffffffffffffffffffffffffffffffff01905580845281842080546001019055905185939192917fddf252ad1be2c89b69c2b068fc378daa952ba7f163c4a11628f55a4df523b3ef91a46001600160a01b0383163b15611534576040517f150b7a020000000000000000000000000000000000000000000000000000000081526001600160a01b0384169063150b7a02906119e890339088908790879060040161243b565b6020604051808303816000875af1925050508015611a23575060408051601f3d908101601f19168201909252611a2091810190612477565b60015b611a64576040517f3a9f8cb30000000000000000000000000000000000000000000000000000000081526001600160a01b03841660048201526024016107f3565b7fffffffff0000000000000000000000000000000000000000000000000000000081167f150b7a020000000000000000000000000000000000000000000000000000000014611aea576040517f3a9f8cb30000000000000000000000000000000000000000000000000000000081526001600160a01b03851660048201526024016107f3565b5050505050565b60405180608001604052806004906020820280368337509192915050565b7fffffffff00000000000000000000000000000000000000000000000000000000811681146111e457600080fd5b600060208284031215611b4f57600080fd5b8135611b5a81611b0f565b9392505050565b6001600160a01b03811681146111e457600080fd5b60008060408385031215611b8957600080fd5b8235611b9481611b61565b946020939093013593505050565b600080600060608486031215611bb757600080fd5b8335611bc281611b61565b92506020840135611bd281611b61565b929592945050506040919091013590565b60005b83811015611bfe578181015183820152602001611be6565b50506000910152565b60008151808452611c1f816020860160208601611be3565b601f01601f19169290920160200192915050565b602081526000611b5a6020830184611c07565b7f4e487b7100000000000000000000000000000000000000000000000000000000600052604160045260246000fd5b604051601f8201601f1916810167ffffffffffffffff81118282101715611c9e57611c9e611c46565b604052919050565b600067ffffffffffffffff831115611cc057611cc0611c46565b611cd36020601f19601f86011601611c75565b9050828152838383011115611ce757600080fd5b828260208301376000602084830101529392505050565b600082601f830112611d0f57600080fd5b611b5a83833560208501611ca6565b600067ffffffffffffffff821115611d3857611d38611c46565b5060051b60200190565b600082601f830112611d5357600080fd5b81356020611d68611d6383611d1e565b611c75565b82815260059290921b84018101918181019086841115611d8757600080fd5b8286015b84811015611da25780358352918301918301611d8b565b509695505050505050565b600082601f830112611dbe57600080fd5b81356020611dce611d6383611d1e565b82815260059290921b84018101918181019086841115611ded57600080fd5b8286015b84811015611da2578035611e0481611b61565b8352918301918301611df1565b600082601f830112611e2257600080fd5b81356020611e32611d6383611d1e565b82815260059290921b84018101918181019086841115611e5157600080fd5b8286015b84811015611da257803560ff81168114611e6f5760008081fd5b8352918301918301611e55565b60008060008060008060c08789031215611e9557600080fd5b863567ffffffffffffffff80821115611ead57600080fd5b611eb98a838b01611cfe565b9750602089013596506040890135915080821115611ed657600080fd5b611ee28a838b01611d42565b9550606089013594506080890135915080821115611eff57600080fd5b611f0b8a838b01611dad565b935060a0890135915080821115611f2157600080fd5b50611f2e89828a01611e11565b9150509295509295509295565b600060208284031215611f4d57600080fd5b5035919050565b60808101818360005b6004811015611f855781516001600160a01b0316835260209283019290910190600101611f5d565b50505092915050565b60808101818360005b6004811015611f85578151835260209283019290910190600101611f97565b600060208284031215611fc857600080fd5b8135611b5a81611b61565b80151581146111e457600080fd5b60008060408385031215611ff457600080fd5b8235611fff81611b61565b9150602083013561200f81611fd3565b809150509250929050565b6000806000806080858703121561203057600080fd5b843561203b81611b61565b9350602085013561204b81611b61565b925060408501359150606085013567ffffffffffffffff81111561206e57600080fd5b8501601f8101871361207f57600080fd5b61208e87823560208401611ca6565b91505092959194509250565b600080604083850312156120ad57600080fd5b8235611fff81611b0f565b600080604083850312156120cb57600080fd5b82356120d681611b61565b9150602083013561200f81611b61565b600181811c908216806120fa57607f821691505b602082108103612133577f4e487b7100000000000000000000000000000000000000000000000000000000600052602260045260246000fd5b50919050565b60408152600061214c6040830185611c07565b60208382038185015281829050608083018660005b60048082106121705750612259565b86840385528254600090600181811c908083168061218f57607f831692505b8a831081036121c4577f4e487b7100000000000000000000000000000000000000000000000000000000855260228652602485fd5b8289526020890195508080156121e1576001811461221557612240565b7fffffffffffffffffffffffffffffffffffffffffffffffffffffffffffffff008516875283151560051b87019550612240565b60008981526020902060005b8581101561223a57815489820152908401908d01612221565b88019650505b5050978901979296505050929092019150600101612161565b509098975050505050505050565b60006020828403121561227957600080fd5b8151611b5a81611fd3565b60006020828403121561229657600080fd5b8151611b5a81611b61565b7f4e487b7100000000000000000000000000000000000000000000000000000000600052601160045260246000fd5b6000817fffffffffffffffffffffffffffffffffffffffffffffffffffffffffffffffff0483118215151615612308576123086122a1565b500290565b6000825161231f818460208701611be3565b9190910192915050565b600081518084526020808501945080840160005b8381101561235c57815160ff168752958201959082019060010161233d565b509495945050505050565b600060808201868352602060808185015281875180845260a086019150828901935060005b818110156123a85784518352938301939183019160010161238c565b50508481036040860152865180825290820192508187019060005b818110156123e85782516001600160a01b0316855293830193918301916001016123c3565b5050505082810360608401526123fe8185612329565b979650505050505050565b8082018082111561241c5761241c6122a1565b92915050565b60006020828403121561243457600080fd5b5051919050565b60006001600160a01b0380871683528086166020840152508360408301526080606083015261246d6080830184611c07565b9695505050505050565b60006020828403121561248957600080fd5b8151611b5a81611b0f56fea2646970667358221220d2f1a887961739bc2d28dc1195895c368a9468e4cacc6a78d80ee054409d078064736f6c63430008100033",
    "linkReferences": {
      "src/Utils/LibString.sol": {
        "LibString": [
          {
            "start": 4417,
            "length": 20
          }
        ]
      }
    }
  },
  "methodIdentifiers": {
    "Dev()": "01e51ae8",
    "HELIX2()": "b782426e",
    "NAMES()": "05e84aa0",
    "POLYCULES()": "d9ebda12",
    "_approved(uint256)": "9024d282",
    "active()": "02fb0c5e",
    "approve(address,uint256)": "095ea7b3",
    "balanceOf(address)": "70a08231",
    "basePrice()": "c7876ea4",
    "changeDev(address)": "88a8c95c",
    "defaultLifespan()": "0e6c0bdb",
    "defaultResolver()": "828eab0e",
    "ensRegistry()": "7d73b231",
    "getPrices()": "bd9a548b",
    "getRegistry()": "5ab1bd53",
    "getRoothash()": "642a8ed6",
    "helix2Registry(uint256)": "70dec5f0",
    "illegalBlocks(uint256)": "80b29beb",
    "isApprovedForAll(address,address)": "e985e9c5",
    "isDev()": "f079914f",
    "newPolycule(string,bytes32,bytes32[],uint256,address[],uint8[])": "3823c6c3",
    "ownerOf(uint256)": "6352211e",
    "polycule()": "303c128f",
    "prices(uint256)": "bc31c1c1",
    "roothash(uint256)": "8dfcb1c7",
    "safeTransferFrom(address,address,uint256)": "42842e0e",
    "safeTransferFrom(address,address,uint256,bytes)": "b88d4fde",
    "setApprovalForAll(address,bool)": "a22cb465",
    "setDefaultLifespan(uint256)": "39506308",
    "setDefaultResolver(address)": "c66485b2",
    "setInterface(bytes4,bool)": "c0a43a7c",
    "sizes(uint256)": "d9a9b0c6",
    "supportsInterface(bytes4)": "01ffc9a7",
    "symbol()": "95d89b41",
    "transferFrom(address,address,uint256)": "23b872dd",
    "withdrawEther()": "7362377b",
    "withdrawToken(address)": "89476069"
  },
  "id": 28
}