{
  "abi": [
    {
      "inputs": [
        {
          "internalType": "address",
          "name": "__registry",
          "type": "address"
        },
        {
          "internalType": "address",
          "name": "_registry",
          "type": "address"
        },
        {
          "internalType": "address",
          "name": "_helix2",
          "type": "address"
        }
      ],
      "stateMutability": "nonpayable",
      "type": "constructor"
    },
    {
      "inputs": [
        {
          "internalType": "address",
          "name": "_dev",
          "type": "address"
        },
        {
          "internalType": "address",
          "name": "_you",
          "type": "address"
        }
      ],
      "name": "OnlyDev",
      "type": "error"
    },
    {
      "anonymous": false,
      "inputs": [
        {
          "indexed": false,
          "internalType": "address",
          "name": "Dev",
          "type": "address"
        },
        {
          "indexed": false,
          "internalType": "address",
          "name": "newDev",
          "type": "address"
        }
      ],
      "name": "NewDev",
      "type": "event"
    },
    {
      "anonymous": false,
      "inputs": [
        {
          "indexed": false,
          "internalType": "string",
          "name": "_alias",
          "type": "string"
        },
        {
          "indexed": true,
          "internalType": "bytes32",
          "name": "molyhash",
          "type": "bytes32"
        },
        {
          "indexed": false,
          "internalType": "bytes32",
          "name": "cation",
          "type": "bytes32"
        }
      ],
      "name": "NewMolecule",
      "type": "event"
    },
    {
      "inputs": [],
      "name": "Dev",
      "outputs": [
        {
          "internalType": "address",
          "name": "",
          "type": "address"
        }
      ],
      "stateMutability": "view",
      "type": "function"
    },
    {
      "inputs": [],
      "name": "HELIX2",
      "outputs": [
        {
          "internalType": "contract iHELIX2",
          "name": "",
          "type": "address"
        }
      ],
      "stateMutability": "view",
      "type": "function"
    },
    {
      "inputs": [],
      "name": "MOLECULES",
      "outputs": [
        {
          "internalType": "contract iMOLECULE",
          "name": "",
          "type": "address"
        }
      ],
      "stateMutability": "view",
      "type": "function"
    },
    {
      "inputs": [],
      "name": "NAMES",
      "outputs": [
        {
          "internalType": "contract iNAME",
          "name": "",
          "type": "address"
        }
      ],
      "stateMutability": "view",
      "type": "function"
    },
    {
      "inputs": [],
      "name": "active",
      "outputs": [
        {
          "internalType": "bool",
          "name": "",
          "type": "bool"
        }
      ],
      "stateMutability": "view",
      "type": "function"
    },
    {
      "inputs": [],
      "name": "basePrice",
      "outputs": [
        {
          "internalType": "uint256",
          "name": "",
          "type": "uint256"
        }
      ],
      "stateMutability": "view",
      "type": "function"
    },
    {
      "inputs": [
        {
          "internalType": "address",
          "name": "newDev",
          "type": "address"
        }
      ],
      "name": "changeDev",
      "outputs": [],
      "stateMutability": "nonpayable",
      "type": "function"
    },
    {
      "inputs": [],
      "name": "defaultLifespan",
      "outputs": [
        {
          "internalType": "uint256",
          "name": "",
          "type": "uint256"
        }
      ],
      "stateMutability": "view",
      "type": "function"
    },
    {
      "inputs": [],
      "name": "defaultResolver",
      "outputs": [
        {
          "internalType": "address",
          "name": "",
          "type": "address"
        }
      ],
      "stateMutability": "view",
      "type": "function"
    },
    {
      "inputs": [
        {
          "internalType": "uint256",
          "name": "",
          "type": "uint256"
        }
      ],
      "name": "illegalBlocks",
      "outputs": [
        {
          "internalType": "string",
          "name": "",
          "type": "string"
        }
      ],
      "stateMutability": "view",
      "type": "function"
    },
    {
      "inputs": [],
      "name": "molecule",
      "outputs": [
        {
          "internalType": "string",
          "name": "",
          "type": "string"
        }
      ],
      "stateMutability": "view",
      "type": "function"
    },
    {
      "inputs": [
        {
          "internalType": "string",
          "name": "_alias",
          "type": "string"
        },
        {
          "internalType": "bytes32",
          "name": "cation",
          "type": "bytes32"
        },
        {
          "internalType": "bytes32[]",
          "name": "anion",
          "type": "bytes32[]"
        },
        {
          "internalType": "uint256",
          "name": "lifespan",
          "type": "uint256"
        }
      ],
      "name": "newMolecule",
      "outputs": [
        {
          "internalType": "bytes32",
          "name": "",
          "type": "bytes32"
        }
      ],
      "stateMutability": "payable",
      "type": "function"
    },
    {
      "inputs": [],
      "name": "roothash",
      "outputs": [
        {
          "internalType": "bytes32",
          "name": "",
          "type": "bytes32"
        }
      ],
      "stateMutability": "view",
      "type": "function"
    },
    {
      "inputs": [
        {
          "internalType": "uint256",
          "name": "_lifespan",
          "type": "uint256"
        }
      ],
      "name": "setDefaultLifespan",
      "outputs": [],
      "stateMutability": "nonpayable",
      "type": "function"
    },
    {
      "inputs": [
        {
          "internalType": "address",
          "name": "_resolver",
          "type": "address"
        }
      ],
      "name": "setDefaultResolver",
      "outputs": [],
      "stateMutability": "nonpayable",
      "type": "function"
    },
    {
      "inputs": [
        {
          "internalType": "uint256",
          "name": "",
          "type": "uint256"
        }
      ],
      "name": "sizeLimit",
      "outputs": [
        {
          "internalType": "uint256",
          "name": "",
          "type": "uint256"
        }
      ],
      "stateMutability": "view",
      "type": "function"
    },
    {
      "inputs": [],
      "name": "symbol",
      "outputs": [
        {
          "internalType": "string",
          "name": "",
          "type": "string"
        }
      ],
      "stateMutability": "view",
      "type": "function"
    },
    {
      "inputs": [],
      "name": "toggleActive",
      "outputs": [],
      "stateMutability": "nonpayable",
      "type": "function"
    }
  ],
  "bytecode": {
    "object": "0x6080604052600e805460ff60a01b1916600160a01b1790553480156200002457600080fd5b50604051620021913803806200219183398101604081905262000047916200043c565b600b80546001600160a01b038084166001600160a01b03199283168117909355600c8054868316908416179055600d8054918716919092161790556040805163bd9a548b60e01b8152905163bd9a548b916004808201926080929091908290030181865afa158015620000be573d6000803e3d6000fd5b505050506040513d601f19601f82011682018060405250810190620000e491906200051f565b604090810151600355600b54815163335076e760e11b815291516001600160a01b03909116916366a0edce916004808301926101009291908290030181865afa15801562000136573d6000803e3d6000fd5b505050506040513d601f19601f820116820180604052508101906200015c919062000586565b604001516200017090600490600262000316565b50600b60009054906101000a90046001600160a01b03166001600160a01b031663ec2ace2a6040518163ffffffff1660e01b8152600401608060405180830381865afa158015620001c5573d6000803e3d6000fd5b505050506040513d601f19601f82011682018060405250810190620001eb91906200051f565b604090810151600255600b5481516330b5337f60e21b815291516001600160a01b039091169163c2d4cdfc9160048083019260009291908290030181865afa1580156200023c573d6000803e3d6000fd5b505050506040513d6000823e601f3d908101601f191682016040526200026691908101906200063d565b6200027690600790600462000359565b50600b60009054906101000a90046001600160a01b03166001600160a01b031663642a8ed66040518163ffffffff1660e01b8152600401608060405180830381865afa158015620002cb573d6000803e3d6000fd5b505050506040513d601f19601f82011682018060405250810190620002f191906200051f565b600260200201516006555050600080546001600160a01b0319163317905550620008ad565b826002810192821562000347579160200282015b82811115620003475782518255916020019190600101906200032a565b5062000355929150620003a5565b5090565b826004810192821562000397579160200282015b82811115620003975782518290620003869082620007e1565b50916020019190600101906200036d565b5062000355929150620003bc565b5b80821115620003555760008155600101620003a6565b8082111562000355576000620003d38282620003dd565b50600101620003bc565b508054620003eb9062000752565b6000825580601f10620003fc575050565b601f0160209004906000526020600020908101906200041c9190620003a5565b50565b80516001600160a01b03811681146200043757600080fd5b919050565b6000806000606084860312156200045257600080fd5b6200045d846200041f565b92506200046d602085016200041f565b91506200047d604085016200041f565b90509250925092565b634e487b7160e01b600052604160045260246000fd5b604051608081016001600160401b0381118282101715620004c157620004c162000486565b60405290565b604080519081016001600160401b0381118282101715620004c157620004c162000486565b604051601f8201601f191681016001600160401b038111828210171562000517576200051762000486565b604052919050565b6000608082840312156200053257600080fd5b82601f8301126200054257600080fd5b6200054c6200049c565b8060808401858111156200055f57600080fd5b845b818110156200057b57805184526020938401930162000561565b509095945050505050565b60006101008083850312156200059b57600080fd5b601f8481850112620005ac57600080fd5b620005b66200049c565b918401918086841115620005c957600080fd5b855b8481101562000632578784820112620005e45760008081fd5b620005ee620004c7565b80604083018a811115620006025760008081fd5b835b818110156200061e57805184526020938401930162000604565b5050845250602090920191604001620005cb565b509695505050505050565b600060208083850312156200065157600080fd5b82516001600160401b03808211156200066957600080fd5b8185019150601f86818401126200067f57600080fd5b620006896200049c565b8060808501898111156200069c57600080fd5b855b818110156200074357805186811115620006b85760008081fd5b87018581018c13620006ca5760008081fd5b805187811115620006df57620006df62000486565b620006f2818801601f19168b01620004ec565b8181528d8b838501011115620007085760008081fd5b60005b8281101562000728578381018c01518282018d01528b016200070b565b5060009181018b01919091528552509287019287016200069e565b50909998505050505050505050565b600181811c908216806200076757607f821691505b6020821081036200078857634e487b7160e01b600052602260045260246000fd5b50919050565b601f821115620007dc57600081815260208120601f850160051c81016020861015620007b75750805b601f850160051c820191505b81811015620007d857828155600101620007c3565b5050505b505050565b81516001600160401b03811115620007fd57620007fd62000486565b62000815816200080e845462000752565b846200078e565b602080601f8311600181146200084d5760008415620008345750858301515b600019600386901b1c1916600185901b178555620007d8565b600085815260208120601f198616915b828110156200087e578886015182559484019460019091019084016200085d565b50858210156200089d5787850151600019600388901b60f8161c191681555b5050505050600190811b01905550565b6118d480620008bd6000396000f3fe6080604052600436106101295760003560e01c806380b29beb116100a5578063b782426e11610074578063c7876ea411610059578063c7876ea4146103a8578063ec478f27146103be578063f12e65481461040757600080fd5b8063b782426e1461035b578063c66485b21461038857600080fd5b806380b29beb14610298578063828eab0e146102c557806388a8c95c146102f257806395d89b411461031257600080fd5b8063251c9422116100fc5780633932cd33116100e15780633932cd33146102455780633950630814610258578063769da4bb1461027857600080fd5b8063251c94221461021857806329c68dc11461022e57600080fd5b806301e51ae81461012e57806302fb0c5e1461018557806305e84aa0146101c75780630e6c0bdb146101f4575b600080fd5b34801561013a57600080fd5b5060005461015b9073ffffffffffffffffffffffffffffffffffffffff1681565b60405173ffffffffffffffffffffffffffffffffffffffff90911681526020015b60405180910390f35b34801561019157600080fd5b50600e546101b79074010000000000000000000000000000000000000000900460ff1681565b604051901515815260200161017c565b3480156101d357600080fd5b50600c5461015b9073ffffffffffffffffffffffffffffffffffffffff1681565b34801561020057600080fd5b5061020a60025481565b60405190815260200161017c565b34801561022457600080fd5b5061020a60065481565b34801561023a57600080fd5b50610243610434565b005b61020a6102533660046113d8565b6104f9565b34801561026457600080fd5b506102436102733660046114a1565b610dfa565b34801561028457600080fd5b5061020a6102933660046114a1565b610e72565b3480156102a457600080fd5b506102b86102b33660046114a1565b610e89565b60405161017c919061150a565b3480156102d157600080fd5b50600e5461015b9073ffffffffffffffffffffffffffffffffffffffff1681565b3480156102fe57600080fd5b5061024361030d366004611549565b610f29565b34801561031e57600080fd5b506102b86040518060400160405280600381526020017f484d53000000000000000000000000000000000000000000000000000000000081525081565b34801561036757600080fd5b50600b5461015b9073ffffffffffffffffffffffffffffffffffffffff1681565b34801561039457600080fd5b506102436103a3366004611549565b611037565b3480156103b457600080fd5b5061020a60035481565b3480156103ca57600080fd5b506102b86040518060400160405280601781526020017f48656c697832204d6f6c6563756c65205365727669636500000000000000000081525081565b34801561041357600080fd5b50600d5461015b9073ffffffffffffffffffffffffffffffffffffffff1681565b60005473ffffffffffffffffffffffffffffffffffffffff1633146104ac576000546040517f8ea458f600000000000000000000000000000000000000000000000000000000815273ffffffffffffffffffffffffffffffffffffffff90911660048201523360248201526044015b60405180910390fd5b600e80547fffffffffffffffffffffff00ffffffffffffffffffffffffffffffffffffffff8116740100000000000000000000000000000000000000009182900460ff1615909102179055565b600084600482015461050a826110f1565b118015610520575060055461051e826110f1565b105b610586576040517f08c379a000000000000000000000000000000000000000000000000000000000815260206004820152600d60248201527f494c4c4547414c5f4c4142454c0000000000000000000000000000000000000060448201526064016104a3565b6040517fa6470fd600000000000000000000000000000000000000000000000000000000815273__$47e4ffaaf323c41735ff299f8946896ce0$__9063a6470fd6906105d99084906007906004016115e8565b602060405180830381865af41580156105f6573d6000803e3d6000fd5b505050506040513d601f19601f8201168201806040525081019061061a9190611716565b15610681576040517f08c379a000000000000000000000000000000000000000000000000000000000815260206004820152600d60248201527f494c4c4547414c5f43484152530000000000000000000000000000000000000060448201526064016104a3565b600c546040517f02571be30000000000000000000000000000000000000000000000000000000081526004810187905260009173ffffffffffffffffffffffffffffffffffffffff16906302571be390602401602060405180830381865afa1580156106f1573d6000803e3d6000fd5b505050506040513d601f19601f820116820180604052508101906107159190611738565b9050600254841015610783576040517f08c379a000000000000000000000000000000000000000000000000000000000815260206004820152601260248201527f4c4946455350414e5f544f4f5f53484f5254000000000000000000000000000060448201526064016104a3565b836003546107919190611784565b3410156107fa576040517f08c379a000000000000000000000000000000000000000000000000000000000815260206004820152601260248201527f494e53554646494349454e545f4554484552000000000000000000000000000060448201526064016104a3565b60008760405160200161080d91906117c1565b60408051601f1981840301815282825280516020918201206006549184018b90529183015260608201819052915060009060800160408051808303601f19018152908290528051602090910120600d547ff79fe5380000000000000000000000000000000000000000000000000000000083526004830182905290925073ffffffffffffffffffffffffffffffffffffffff169063f79fe53890602401602060405180830381865afa1580156108c7573d6000803e3d6000fd5b505050506040513d601f19601f820116820180604052508101906108eb9190611716565b15610952576040517f08c379a000000000000000000000000000000000000000000000000000000000815260206004820152600f60248201527f4d4f4c4543554c455f455849535453000000000000000000000000000000000060448201526064016104a3565b600d546040517f2f92673200000000000000000000000000000000000000000000000000000000815260048101839052602481018a905273ffffffffffffffffffffffffffffffffffffffff90911690632f92673290604401600060405180830381600087803b1580156109c557600080fd5b505af11580156109d9573d6000803e3d6000fd5b5050600d546040517f741b4cd000000000000000000000000000000000000000000000000000000000815273ffffffffffffffffffffffffffffffffffffffff909116925063741b4cd09150610a359084908b906004016117dd565b600060405180830381600087803b158015610a4f57600080fd5b505af1158015610a63573d6000803e3d6000fd5b5050600d5473ffffffffffffffffffffffffffffffffffffffff1691506339de6469905082610a92894261182b565b6040517fffffffff0000000000000000000000000000000000000000000000000000000060e085901b16815260048101929092526024820152604401600060405180830381600087803b158015610ae857600080fd5b505af1158015610afc573d6000803e3d6000fd5b5050600d546040517fd31569050000000000000000000000000000000000000000000000000000000081526004810185905273ffffffffffffffffffffffffffffffffffffffff8781166024830152909116925063d31569059150604401600060405180830381600087803b158015610b7457600080fd5b505af1158015610b88573d6000803e3d6000fd5b5050600d54600e546040517f1896f70a0000000000000000000000000000000000000000000000000000000081526004810186905273ffffffffffffffffffffffffffffffffffffffff918216602482015291169250631896f70a9150604401600060405180830381600087803b158015610c0257600080fd5b505af1158015610c16573d6000803e3d6000fd5b5050600d546040517f1f06e91c000000000000000000000000000000000000000000000000000000008152600481018590526024810186905273ffffffffffffffffffffffffffffffffffffffff9091169250631f06e91c9150604401600060405180830381600087803b158015610c8d57600080fd5b505af1158015610ca1573d6000803e3d6000fd5b5050600d546040517fd07699aa000000000000000000000000000000000000000000000000000000008152600481018590526000602482015273ffffffffffffffffffffffffffffffffffffffff909116925063d07699aa9150604401600060405180830381600087803b158015610d1857600080fd5b505af1158015610d2c573d6000803e3d6000fd5b5050600d546040517f21ec2b5b0000000000000000000000000000000000000000000000000000000081526004810185905273ffffffffffffffffffffffffffffffffffffffff90911692506321ec2b5b9150602401600060405180830381600087803b158015610d9c57600080fd5b505af1158015610db0573d6000803e3d6000fd5b50505050807f788348b54b560749eb673d74c5f79bd7e2c44977e6198b6835bd883eab9957338a8a604051610de6929190611844565b60405180910390a298975050505050505050565b60005473ffffffffffffffffffffffffffffffffffffffff163314610e6d576000546040517f8ea458f600000000000000000000000000000000000000000000000000000000815273ffffffffffffffffffffffffffffffffffffffff90911660048201523360248201526044016104a3565b600255565b60048160028110610e8257600080fd5b0154905081565b60078160048110610e9957600080fd5b018054909150610ea890611595565b80601f0160208091040260200160405190810160405280929190818152602001828054610ed490611595565b8015610f215780601f10610ef657610100808354040283529160200191610f21565b820191906000526020600020905b815481529060010190602001808311610f0457829003601f168201915b505050505081565b60005473ffffffffffffffffffffffffffffffffffffffff163314610f9c576000546040517f8ea458f600000000000000000000000000000000000000000000000000000000815273ffffffffffffffffffffffffffffffffffffffff90911660048201523360248201526044016104a3565b6000546040805173ffffffffffffffffffffffffffffffffffffffff928316815291831660208301527fdec101f106d4fc7c85791843e64b198248c822298e3ed7046231d33f7783d816910160405180910390a1600080547fffffffffffffffffffffffff00000000000000000000000000000000000000001673ffffffffffffffffffffffffffffffffffffffff92909216919091179055565b60005473ffffffffffffffffffffffffffffffffffffffff1633146110aa576000546040517f8ea458f600000000000000000000000000000000000000000000000000000000815273ffffffffffffffffffffffffffffffffffffffff90911660048201523360248201526044016104a3565b600e80547fffffffffffffffffffffffff00000000000000000000000000000000000000001673ffffffffffffffffffffffffffffffffffffffff92909216919091179055565b8051600090819081905b808210156112ef57600085838151811061111757611117611566565b01602001517fff000000000000000000000000000000000000000000000000000000000000001690507f800000000000000000000000000000000000000000000000000000000000000081101561117a5761117360018461182b565b92506112dc565b7fe0000000000000000000000000000000000000000000000000000000000000007fff00000000000000000000000000000000000000000000000000000000000000821610156111cf5761117360028461182b565b7ff0000000000000000000000000000000000000000000000000000000000000007fff00000000000000000000000000000000000000000000000000000000000000821610156112245761117360038461182b565b7ff8000000000000000000000000000000000000000000000000000000000000007fff00000000000000000000000000000000000000000000000000000000000000821610156112795761117360048461182b565b7ffc000000000000000000000000000000000000000000000000000000000000007fff00000000000000000000000000000000000000000000000000000000000000821610156112ce5761117360058461182b565b6112d960068461182b565b92505b50826112e781611866565b9350506110fb565b50909392505050565b7f4e487b7100000000000000000000000000000000000000000000000000000000600052604160045260246000fd5b604051601f8201601f1916810167ffffffffffffffff81118282101715611350576113506112f8565b604052919050565b600082601f83011261136957600080fd5b8135602067ffffffffffffffff821115611385576113856112f8565b8160051b611394828201611327565b92835284810182019282810190878511156113ae57600080fd5b83870192505b848310156113cd578235825291830191908301906113b4565b979650505050505050565b600080600080608085870312156113ee57600080fd5b843567ffffffffffffffff8082111561140657600080fd5b818701915087601f83011261141a57600080fd5b813560208282111561142e5761142e6112f8565b61144081601f19601f85011601611327565b8281528a8284870101111561145457600080fd5b828286018383013760009281018201929092529096508701359450604087013591508082111561148357600080fd5b5061149087828801611358565b949793965093946060013593505050565b6000602082840312156114b357600080fd5b5035919050565b60005b838110156114d55781810151838201526020016114bd565b50506000910152565b600081518084526114f68160208601602086016114ba565b601f01601f19169290920160200192915050565b60208152600061151d60208301846114de565b9392505050565b73ffffffffffffffffffffffffffffffffffffffff8116811461154657600080fd5b50565b60006020828403121561155b57600080fd5b813561151d81611524565b7f4e487b7100000000000000000000000000000000000000000000000000000000600052603260045260246000fd5b600181811c908216806115a957607f821691505b6020821081036115e2577f4e487b7100000000000000000000000000000000000000000000000000000000600052602260045260246000fd5b50919050565b6040815260006115fb60408301856114de565b60208382038185015281829050608083018660005b600480821061161f5750611708565b86840385528254600090600181811c908083168061163e57607f831692505b8a83108103611673577f4e487b7100000000000000000000000000000000000000000000000000000000855260228652602485fd5b82895260208901955080801561169057600181146116c4576116ef565b7fffffffffffffffffffffffffffffffffffffffffffffffffffffffffffffff008516875283151560051b870195506116ef565b60008981526020902060005b858110156116e957815489820152908401908d016116d0565b88019650505b5050978901979296505050929092019150600101611610565b509098975050505050505050565b60006020828403121561172857600080fd5b8151801515811461151d57600080fd5b60006020828403121561174a57600080fd5b815161151d81611524565b7f4e487b7100000000000000000000000000000000000000000000000000000000600052601160045260246000fd5b6000817fffffffffffffffffffffffffffffffffffffffffffffffffffffffffffffffff04831182151516156117bc576117bc611755565b500290565b600082516117d38184602087016114ba565b9190910192915050565b6000604082018483526020604081850152818551808452606086019150828701935060005b8181101561181e57845183529383019391830191600101611802565b5090979650505050505050565b8082018082111561183e5761183e611755565b92915050565b60408152600061185760408301856114de565b90508260208301529392505050565b60007fffffffffffffffffffffffffffffffffffffffffffffffffffffffffffffffff820361189757611897611755565b506001019056fea2646970667358221220314d133a07063a03165b4a9411c542eafe333ab3249dfba70eaa3b92f96d36e764736f6c63430008100033",
    "linkReferences": {
      "src/Utils/LibString.sol": {
        "LibString": [
          {
            "start": 3691,
            "length": 20
          }
        ]
      }
    }
  },
  "methodIdentifiers": {
    "Dev()": "01e51ae8",
    "HELIX2()": "b782426e",
    "MOLECULES()": "f12e6548",
    "NAMES()": "05e84aa0",
    "active()": "02fb0c5e",
    "basePrice()": "c7876ea4",
    "changeDev(address)": "88a8c95c",
    "defaultLifespan()": "0e6c0bdb",
    "defaultResolver()": "828eab0e",
    "illegalBlocks(uint256)": "80b29beb",
    "molecule()": "ec478f27",
    "newMolecule(string,bytes32,bytes32[],uint256)": "3932cd33",
    "roothash()": "251c9422",
    "setDefaultLifespan(uint256)": "39506308",
    "setDefaultResolver(address)": "c66485b2",
    "sizeLimit(uint256)": "769da4bb",
    "symbol()": "95d89b41",
    "toggleActive()": "29c68dc1"
  },
  "id": 25
}