{
  "abi": [
    {
      "inputs": [
        {
          "internalType": "address",
          "name": "__registry",
          "type": "address"
        },
        {
          "internalType": "address",
          "name": "_registry",
          "type": "address"
        },
        {
          "internalType": "address",
          "name": "_helix2",
          "type": "address"
        },
        {
          "internalType": "address",
          "name": "_priceOracle",
          "type": "address"
        }
      ],
      "stateMutability": "nonpayable",
      "type": "constructor"
    },
    {
      "inputs": [
        {
          "internalType": "address",
          "name": "_dev",
          "type": "address"
        },
        {
          "internalType": "address",
          "name": "_you",
          "type": "address"
        }
      ],
      "name": "OnlyDev",
      "type": "error"
    },
    {
      "anonymous": false,
      "inputs": [
        {
          "indexed": false,
          "internalType": "address",
          "name": "Dev",
          "type": "address"
        },
        {
          "indexed": false,
          "internalType": "address",
          "name": "newDev",
          "type": "address"
        }
      ],
      "name": "NewDev",
      "type": "event"
    },
    {
      "anonymous": false,
      "inputs": [
        {
          "indexed": false,
          "internalType": "string",
          "name": "_alias",
          "type": "string"
        },
        {
          "indexed": true,
          "internalType": "bytes32",
          "name": "molyhash",
          "type": "bytes32"
        },
        {
          "indexed": false,
          "internalType": "bytes32",
          "name": "cation",
          "type": "bytes32"
        }
      ],
      "name": "NewMolecule",
      "type": "event"
    },
    {
      "inputs": [],
      "name": "Dev",
      "outputs": [
        {
          "internalType": "address",
          "name": "",
          "type": "address"
        }
      ],
      "stateMutability": "view",
      "type": "function"
    },
    {
      "inputs": [],
      "name": "HELIX2",
      "outputs": [
        {
          "internalType": "contract iHELIX2",
          "name": "",
          "type": "address"
        }
      ],
      "stateMutability": "view",
      "type": "function"
    },
    {
      "inputs": [],
      "name": "MOLECULES",
      "outputs": [
        {
          "internalType": "contract iMOLECULE",
          "name": "",
          "type": "address"
        }
      ],
      "stateMutability": "view",
      "type": "function"
    },
    {
      "inputs": [],
      "name": "NAMES",
      "outputs": [
        {
          "internalType": "contract iNAME",
          "name": "",
          "type": "address"
        }
      ],
      "stateMutability": "view",
      "type": "function"
    },
    {
      "inputs": [],
      "name": "PRICES",
      "outputs": [
        {
          "internalType": "contract iPriceOracle",
          "name": "",
          "type": "address"
        }
      ],
      "stateMutability": "view",
      "type": "function"
    },
    {
      "inputs": [],
      "name": "active",
      "outputs": [
        {
          "internalType": "bool",
          "name": "",
          "type": "bool"
        }
      ],
      "stateMutability": "view",
      "type": "function"
    },
    {
      "inputs": [],
      "name": "basePrice",
      "outputs": [
        {
          "internalType": "uint256",
          "name": "",
          "type": "uint256"
        }
      ],
      "stateMutability": "view",
      "type": "function"
    },
    {
      "inputs": [
        {
          "internalType": "address",
          "name": "newDev",
          "type": "address"
        }
      ],
      "name": "changeDev",
      "outputs": [],
      "stateMutability": "nonpayable",
      "type": "function"
    },
    {
      "inputs": [],
      "name": "defaultLifespan",
      "outputs": [
        {
          "internalType": "uint256",
          "name": "",
          "type": "uint256"
        }
      ],
      "stateMutability": "view",
      "type": "function"
    },
    {
      "inputs": [],
      "name": "defaultResolver",
      "outputs": [
        {
          "internalType": "address",
          "name": "",
          "type": "address"
        }
      ],
      "stateMutability": "view",
      "type": "function"
    },
    {
      "inputs": [
        {
          "internalType": "uint256",
          "name": "",
          "type": "uint256"
        }
      ],
      "name": "illegalBlocks",
      "outputs": [
        {
          "internalType": "string",
          "name": "",
          "type": "string"
        }
      ],
      "stateMutability": "view",
      "type": "function"
    },
    {
      "inputs": [],
      "name": "molecule",
      "outputs": [
        {
          "internalType": "string",
          "name": "",
          "type": "string"
        }
      ],
      "stateMutability": "view",
      "type": "function"
    },
    {
      "inputs": [
        {
          "internalType": "string",
          "name": "_alias",
          "type": "string"
        },
        {
          "internalType": "bytes32",
          "name": "cation",
          "type": "bytes32"
        },
        {
          "internalType": "bytes32[]",
          "name": "anion",
          "type": "bytes32[]"
        },
        {
          "internalType": "uint256",
          "name": "lifespan",
          "type": "uint256"
        }
      ],
      "name": "newMolecule",
      "outputs": [
        {
          "internalType": "bytes32",
          "name": "",
          "type": "bytes32"
        }
      ],
      "stateMutability": "payable",
      "type": "function"
    },
    {
      "inputs": [],
      "name": "roothash",
      "outputs": [
        {
          "internalType": "bytes32",
          "name": "",
          "type": "bytes32"
        }
      ],
      "stateMutability": "view",
      "type": "function"
    },
    {
      "inputs": [
        {
          "internalType": "uint256",
          "name": "_lifespan",
          "type": "uint256"
        }
      ],
      "name": "setDefaultLifespan",
      "outputs": [],
      "stateMutability": "nonpayable",
      "type": "function"
    },
    {
      "inputs": [
        {
          "internalType": "address",
          "name": "_resolver",
          "type": "address"
        }
      ],
      "name": "setDefaultResolver",
      "outputs": [],
      "stateMutability": "nonpayable",
      "type": "function"
    },
    {
      "inputs": [
        {
          "internalType": "uint256",
          "name": "",
          "type": "uint256"
        }
      ],
      "name": "sizeLimit",
      "outputs": [
        {
          "internalType": "uint256",
          "name": "",
          "type": "uint256"
        }
      ],
      "stateMutability": "view",
      "type": "function"
    },
    {
      "inputs": [],
      "name": "symbol",
      "outputs": [
        {
          "internalType": "string",
          "name": "",
          "type": "string"
        }
      ],
      "stateMutability": "view",
      "type": "function"
    },
    {
      "inputs": [],
      "name": "toggleActive",
      "outputs": [],
      "stateMutability": "nonpayable",
      "type": "function"
    }
  ],
  "bytecode": {
    "object": "0x6080604052600f805460ff60a01b1916600160a01b1790553480156200002457600080fd5b506040516200219e3803806200219e83398101604081905262000047916200044b565b600c80546001600160a01b038085166001600160a01b031992831617909255600d8054868416908316179055600e8054878416908316179055600b805492841692909116821790556040805163bd9a548b60e01b8152905163bd9a548b916004808201926080929091908290030181865afa158015620000cb573d6000803e3d6000fd5b505050506040513d601f19601f82011682018060405250810190620000f1919062000541565b604090810151600355600c54815163335076e760e11b815291516001600160a01b03909116916366a0edce916004808301926101009291908290030181865afa15801562000143573d6000803e3d6000fd5b505050506040513d601f19601f82011682018060405250810190620001699190620005a8565b604001516200017d90600490600262000325565b50600c60009054906101000a90046001600160a01b03166001600160a01b031663ec2ace2a6040518163ffffffff1660e01b8152600401608060405180830381865afa158015620001d2573d6000803e3d6000fd5b505050506040513d601f19601f82011682018060405250810190620001f8919062000541565b604090810151600255600c5481516330b5337f60e21b815291516001600160a01b039091169163c2d4cdfc9160048083019260009291908290030181865afa15801562000249573d6000803e3d6000fd5b505050506040513d6000823e601f3d908101601f191682016040526200027391908101906200065f565b6200028390600790600462000368565b50600c60009054906101000a90046001600160a01b03166001600160a01b031663642a8ed66040518163ffffffff1660e01b8152600401608060405180830381865afa158015620002d8573d6000803e3d6000fd5b505050506040513d601f19601f82011682018060405250810190620002fe919062000541565b600260200201516006555050600080546001600160a01b0319163317905550620008cf9050565b826002810192821562000356579160200282015b828111156200035657825182559160200191906001019062000339565b5062000364929150620003b4565b5090565b8260048101928215620003a6579160200282015b82811115620003a6578251829062000395908262000803565b50916020019190600101906200037c565b5062000364929150620003cb565b5b80821115620003645760008155600101620003b5565b8082111562000364576000620003e28282620003ec565b50600101620003cb565b508054620003fa9062000774565b6000825580601f106200040b575050565b601f0160209004906000526020600020908101906200042b9190620003b4565b50565b80516001600160a01b03811681146200044657600080fd5b919050565b600080600080608085870312156200046257600080fd5b6200046d856200042e565b93506200047d602086016200042e565b92506200048d604086016200042e565b91506200049d606086016200042e565b905092959194509250565b634e487b7160e01b600052604160045260246000fd5b604051608081016001600160401b0381118282101715620004e357620004e3620004a8565b60405290565b604080519081016001600160401b0381118282101715620004e357620004e3620004a8565b604051601f8201601f191681016001600160401b0381118282101715620005395762000539620004a8565b604052919050565b6000608082840312156200055457600080fd5b82601f8301126200056457600080fd5b6200056e620004be565b8060808401858111156200058157600080fd5b845b818110156200059d57805184526020938401930162000583565b509095945050505050565b6000610100808385031215620005bd57600080fd5b601f8481850112620005ce57600080fd5b620005d8620004be565b918401918086841115620005eb57600080fd5b855b8481101562000654578784820112620006065760008081fd5b62000610620004e9565b80604083018a811115620006245760008081fd5b835b818110156200064057805184526020938401930162000626565b5050845250602090920191604001620005ed565b509695505050505050565b600060208083850312156200067357600080fd5b82516001600160401b03808211156200068b57600080fd5b8185019150601f8681840112620006a157600080fd5b620006ab620004be565b806080850189811115620006be57600080fd5b855b818110156200076557805186811115620006da5760008081fd5b87018581018c13620006ec5760008081fd5b805187811115620007015762000701620004a8565b62000714818801601f19168b016200050e565b8181528d8b8385010111156200072a5760008081fd5b60005b828110156200074a578381018c01518282018d01528b016200072d565b5060009181018b0191909152855250928701928701620006c0565b50909998505050505050505050565b600181811c908216806200078957607f821691505b602082108103620007aa57634e487b7160e01b600052602260045260246000fd5b50919050565b601f821115620007fe57600081815260208120601f850160051c81016020861015620007d95750805b601f850160051c820191505b81811015620007fa57828155600101620007e5565b5050505b505050565b81516001600160401b038111156200081f576200081f620004a8565b620008378162000830845462000774565b84620007b0565b602080601f8311600181146200086f5760008415620008565750858301515b600019600386901b1c1916600185901b178555620007fa565b600085815260208120601f198616915b82811015620008a0578886015182559484019460019091019084016200087f565b5085821015620008bf5787850151600019600388901b60f8161c191681555b5050505050600190811b01905550565b6118bf80620008df6000396000f3fe6080604052600436106101445760003560e01c8063769da4bb116100c0578063b782426e11610074578063c7876ea411610059578063c7876ea4146103f0578063ec478f2714610406578063f12e65481461044f57600080fd5b8063b782426e146103a3578063c66485b2146103d057600080fd5b8063828eab0e116100a5578063828eab0e1461030d57806388a8c95c1461033a57806395d89b411461035a57600080fd5b8063769da4bb146102c057806380b29beb146102e057600080fd5b80631eabcd341161011757806329c68dc1116100fc57806329c68dc1146102765780633932cd331461028d57806339506308146102a057600080fd5b80631eabcd3414610233578063251c94221461026057600080fd5b806301e51ae81461014957806302fb0c5e146101a057806305e84aa0146101e25780630e6c0bdb1461020f575b600080fd5b34801561015557600080fd5b506000546101769073ffffffffffffffffffffffffffffffffffffffff1681565b60405173ffffffffffffffffffffffffffffffffffffffff90911681526020015b60405180910390f35b3480156101ac57600080fd5b50600f546101d29074010000000000000000000000000000000000000000900460ff1681565b6040519015158152602001610197565b3480156101ee57600080fd5b50600d546101769073ffffffffffffffffffffffffffffffffffffffff1681565b34801561021b57600080fd5b5061022560025481565b604051908152602001610197565b34801561023f57600080fd5b50600b546101769073ffffffffffffffffffffffffffffffffffffffff1681565b34801561026c57600080fd5b5061022560065481565b34801561028257600080fd5b5061028b61047c565b005b61022561029b3660046114f7565b610541565b3480156102ac57600080fd5b5061028b6102bb3660046115c0565b610e7b565b3480156102cc57600080fd5b506102256102db3660046115c0565b610ef3565b3480156102ec57600080fd5b506103006102fb3660046115c0565b610f0a565b6040516101979190611629565b34801561031957600080fd5b50600f546101769073ffffffffffffffffffffffffffffffffffffffff1681565b34801561034657600080fd5b5061028b610355366004611668565b610faa565b34801561036657600080fd5b506103006040518060400160405280600381526020017f484d53000000000000000000000000000000000000000000000000000000000081525081565b3480156103af57600080fd5b50600c546101769073ffffffffffffffffffffffffffffffffffffffff1681565b3480156103dc57600080fd5b5061028b6103eb366004611668565b6110b8565b3480156103fc57600080fd5b5061022560035481565b34801561041257600080fd5b506103006040518060400160405280601781526020017f48656c697832204d6f6c6563756c65205365727669636500000000000000000081525081565b34801561045b57600080fd5b50600e546101769073ffffffffffffffffffffffffffffffffffffffff1681565b60005473ffffffffffffffffffffffffffffffffffffffff1633146104f4576000546040517f8ea458f600000000000000000000000000000000000000000000000000000000815273ffffffffffffffffffffffffffffffffffffffff90911660048201523360248201526044015b60405180910390fd5b600f80547fffffffffffffffffffffff00ffffffffffffffffffffffffffffffffffffffff8116740100000000000000000000000000000000000000009182900460ff1615909102179055565b600084600482015461055282611172565b118015610568575060055461056682611172565b105b6105ce576040517f08c379a000000000000000000000000000000000000000000000000000000000815260206004820152600d60248201527f494c4c4547414c5f4c4142454c0000000000000000000000000000000000000060448201526064016104eb565b604080516080810190915261069b90600760046000835b828210156106885783820180546105fb906116b4565b80601f0160208091040260200160405190810160405280929190818152602001828054610627906116b4565b80156106745780601f1061064957610100808354040283529160200191610674565b820191906000526020600020905b81548152906001019060200180831161065757829003601f168201915b5050505050815260200190600101906105e5565b505050508261137990919063ffffffff16565b15610702576040517f08c379a000000000000000000000000000000000000000000000000000000000815260206004820152600d60248201527f494c4c4547414c5f43484152530000000000000000000000000000000000000060448201526064016104eb565b600d546040517f02571be30000000000000000000000000000000000000000000000000000000081526004810187905260009173ffffffffffffffffffffffffffffffffffffffff16906302571be390602401602060405180830381865afa158015610772573d6000803e3d6000fd5b505050506040513d601f19601f820116820180604052508101906107969190611707565b9050600254841015610804576040517f08c379a000000000000000000000000000000000000000000000000000000000815260206004820152601260248201527f4c4946455350414e5f544f4f5f53484f5254000000000000000000000000000060448201526064016104eb565b836003546108129190611753565b34101561087b576040517f08c379a000000000000000000000000000000000000000000000000000000000815260206004820152601260248201527f494e53554646494349454e545f4554484552000000000000000000000000000060448201526064016104eb565b60008760405160200161088e9190611790565b60408051601f1981840301815282825280516020918201206006549184018b90529183015260608201819052915060009060800160408051808303601f19018152908290528051602090910120600e547ff79fe5380000000000000000000000000000000000000000000000000000000083526004830182905290925073ffffffffffffffffffffffffffffffffffffffff169063f79fe53890602401602060405180830381865afa158015610948573d6000803e3d6000fd5b505050506040513d601f19601f8201168201806040525081019061096c91906117ac565b156109d3576040517f08c379a000000000000000000000000000000000000000000000000000000000815260206004820152600f60248201527f4d4f4c4543554c455f455849535453000000000000000000000000000000000060448201526064016104eb565b600e546040517f2f92673200000000000000000000000000000000000000000000000000000000815260048101839052602481018a905273ffffffffffffffffffffffffffffffffffffffff90911690632f92673290604401600060405180830381600087803b158015610a4657600080fd5b505af1158015610a5a573d6000803e3d6000fd5b5050600e546040517f741b4cd000000000000000000000000000000000000000000000000000000000815273ffffffffffffffffffffffffffffffffffffffff909116925063741b4cd09150610ab69084908b906004016117ce565b600060405180830381600087803b158015610ad057600080fd5b505af1158015610ae4573d6000803e3d6000fd5b5050600e5473ffffffffffffffffffffffffffffffffffffffff1691506339de6469905082610b13894261181c565b6040517fffffffff0000000000000000000000000000000000000000000000000000000060e085901b16815260048101929092526024820152604401600060405180830381600087803b158015610b6957600080fd5b505af1158015610b7d573d6000803e3d6000fd5b5050600e546040517fd31569050000000000000000000000000000000000000000000000000000000081526004810185905273ffffffffffffffffffffffffffffffffffffffff8781166024830152909116925063d31569059150604401600060405180830381600087803b158015610bf557600080fd5b505af1158015610c09573d6000803e3d6000fd5b5050600e54600f546040517f1896f70a0000000000000000000000000000000000000000000000000000000081526004810186905273ffffffffffffffffffffffffffffffffffffffff918216602482015291169250631896f70a9150604401600060405180830381600087803b158015610c8357600080fd5b505af1158015610c97573d6000803e3d6000fd5b5050600e546040517f1f06e91c000000000000000000000000000000000000000000000000000000008152600481018590526024810186905273ffffffffffffffffffffffffffffffffffffffff9091169250631f06e91c9150604401600060405180830381600087803b158015610d0e57600080fd5b505af1158015610d22573d6000803e3d6000fd5b5050600e546040517fd07699aa000000000000000000000000000000000000000000000000000000008152600481018590526000602482015273ffffffffffffffffffffffffffffffffffffffff909116925063d07699aa9150604401600060405180830381600087803b158015610d9957600080fd5b505af1158015610dad573d6000803e3d6000fd5b5050600e546040517f21ec2b5b0000000000000000000000000000000000000000000000000000000081526004810185905273ffffffffffffffffffffffffffffffffffffffff90911692506321ec2b5b9150602401600060405180830381600087803b158015610e1d57600080fd5b505af1158015610e31573d6000803e3d6000fd5b50505050807f788348b54b560749eb673d74c5f79bd7e2c44977e6198b6835bd883eab9957338a8a604051610e6792919061182f565b60405180910390a298975050505050505050565b60005473ffffffffffffffffffffffffffffffffffffffff163314610eee576000546040517f8ea458f600000000000000000000000000000000000000000000000000000000815273ffffffffffffffffffffffffffffffffffffffff90911660048201523360248201526044016104eb565b600255565b60048160028110610f0357600080fd5b0154905081565b60078160048110610f1a57600080fd5b018054909150610f29906116b4565b80601f0160208091040260200160405190810160405280929190818152602001828054610f55906116b4565b8015610fa25780601f10610f7757610100808354040283529160200191610fa2565b820191906000526020600020905b815481529060010190602001808311610f8557829003601f168201915b505050505081565b60005473ffffffffffffffffffffffffffffffffffffffff16331461101d576000546040517f8ea458f600000000000000000000000000000000000000000000000000000000815273ffffffffffffffffffffffffffffffffffffffff90911660048201523360248201526044016104eb565b6000546040805173ffffffffffffffffffffffffffffffffffffffff928316815291831660208301527fdec101f106d4fc7c85791843e64b198248c822298e3ed7046231d33f7783d816910160405180910390a1600080547fffffffffffffffffffffffff00000000000000000000000000000000000000001673ffffffffffffffffffffffffffffffffffffffff92909216919091179055565b60005473ffffffffffffffffffffffffffffffffffffffff16331461112b576000546040517f8ea458f600000000000000000000000000000000000000000000000000000000815273ffffffffffffffffffffffffffffffffffffffff90911660048201523360248201526044016104eb565b600f80547fffffffffffffffffffffffff00000000000000000000000000000000000000001673ffffffffffffffffffffffffffffffffffffffff92909216919091179055565b8051600090819081905b8082101561137057600085838151811061119857611198611685565b01602001517fff000000000000000000000000000000000000000000000000000000000000001690507f80000000000000000000000000000000000000000000000000000000000000008110156111fb576111f460018461181c565b925061135d565b7fe0000000000000000000000000000000000000000000000000000000000000007fff0000000000000000000000000000000000000000000000000000000000000082161015611250576111f460028461181c565b7ff0000000000000000000000000000000000000000000000000000000000000007fff00000000000000000000000000000000000000000000000000000000000000821610156112a5576111f460038461181c565b7ff8000000000000000000000000000000000000000000000000000000000000007fff00000000000000000000000000000000000000000000000000000000000000821610156112fa576111f460048461181c565b7ffc000000000000000000000000000000000000000000000000000000000000007fff000000000000000000000000000000000000000000000000000000000000008216101561134f576111f460058461181c565b61135a60068461181c565b92505b508261136881611851565b93505061117c565b50909392505050565b6000805b600481101561140b57836040516020016113979190611790565b604051602081830303815290604052805190602001208382600481106113bf576113bf611685565b60200201516040516020016113d49190611790565b60405160208183030381529060405280519060200120036113f9576001915050611411565b8061140381611851565b91505061137d565b50600090505b92915050565b7f4e487b7100000000000000000000000000000000000000000000000000000000600052604160045260246000fd5b604051601f8201601f1916810167ffffffffffffffff8111828210171561146f5761146f611417565b604052919050565b600082601f83011261148857600080fd5b8135602067ffffffffffffffff8211156114a4576114a4611417565b8160051b6114b3828201611446565b92835284810182019282810190878511156114cd57600080fd5b83870192505b848310156114ec578235825291830191908301906114d3565b979650505050505050565b6000806000806080858703121561150d57600080fd5b843567ffffffffffffffff8082111561152557600080fd5b818701915087601f83011261153957600080fd5b813560208282111561154d5761154d611417565b61155f81601f19601f85011601611446565b8281528a8284870101111561157357600080fd5b82828601838301376000928101820192909252909650870135945060408701359150808211156115a257600080fd5b506115af87828801611477565b949793965093946060013593505050565b6000602082840312156115d257600080fd5b5035919050565b60005b838110156115f45781810151838201526020016115dc565b50506000910152565b600081518084526116158160208601602086016115d9565b601f01601f19169290920160200192915050565b60208152600061163c60208301846115fd565b9392505050565b73ffffffffffffffffffffffffffffffffffffffff8116811461166557600080fd5b50565b60006020828403121561167a57600080fd5b813561163c81611643565b7f4e487b7100000000000000000000000000000000000000000000000000000000600052603260045260246000fd5b600181811c908216806116c857607f821691505b602082108103611701577f4e487b7100000000000000000000000000000000000000000000000000000000600052602260045260246000fd5b50919050565b60006020828403121561171957600080fd5b815161163c81611643565b7f4e487b7100000000000000000000000000000000000000000000000000000000600052601160045260246000fd5b6000817fffffffffffffffffffffffffffffffffffffffffffffffffffffffffffffffff048311821515161561178b5761178b611724565b500290565b600082516117a28184602087016115d9565b9190910192915050565b6000602082840312156117be57600080fd5b8151801515811461163c57600080fd5b6000604082018483526020604081850152818551808452606086019150828701935060005b8181101561180f578451835293830193918301916001016117f3565b5090979650505050505050565b8082018082111561141157611411611724565b60408152600061184260408301856115fd565b90508260208301529392505050565b60007fffffffffffffffffffffffffffffffffffffffffffffffffffffffffffffffff820361188257611882611724565b506001019056fea2646970667358221220870c6fbe107650a48470cb338bd08724f9c1813af0a5f0af6170010b6c1397ae64736f6c63430008100033",
    "linkReferences": {}
  },
  "methodIdentifiers": {
    "Dev()": "01e51ae8",
    "HELIX2()": "b782426e",
    "MOLECULES()": "f12e6548",
    "NAMES()": "05e84aa0",
    "PRICES()": "1eabcd34",
    "active()": "02fb0c5e",
    "basePrice()": "c7876ea4",
    "changeDev(address)": "88a8c95c",
    "defaultLifespan()": "0e6c0bdb",
    "defaultResolver()": "828eab0e",
    "illegalBlocks(uint256)": "80b29beb",
    "molecule()": "ec478f27",
    "newMolecule(string,bytes32,bytes32[],uint256)": "3932cd33",
    "roothash()": "251c9422",
    "setDefaultLifespan(uint256)": "39506308",
    "setDefaultResolver(address)": "c66485b2",
    "sizeLimit(uint256)": "769da4bb",
    "symbol()": "95d89b41",
    "toggleActive()": "29c68dc1"
  },
  "id": 27
}