{
  "abi": [
    {
      "inputs": [
        {
          "internalType": "address",
          "name": "__registry",
          "type": "address"
        },
        {
          "internalType": "address",
          "name": "_registry",
          "type": "address"
        },
        {
          "internalType": "address",
          "name": "_helix2",
          "type": "address"
        },
        {
          "internalType": "address",
          "name": "_priceOracle",
          "type": "address"
        }
      ],
      "stateMutability": "nonpayable",
      "type": "constructor"
    },
    {
      "inputs": [
        {
          "internalType": "address",
          "name": "_dev",
          "type": "address"
        },
        {
          "internalType": "address",
          "name": "_you",
          "type": "address"
        }
      ],
      "name": "OnlyDev",
      "type": "error"
    },
    {
      "anonymous": false,
      "inputs": [
        {
          "indexed": false,
          "internalType": "string",
          "name": "_alias",
          "type": "string"
        },
        {
          "indexed": true,
          "internalType": "bytes32",
          "name": "molyhash",
          "type": "bytes32"
        },
        {
          "indexed": false,
          "internalType": "bytes32",
          "name": "cation",
          "type": "bytes32"
        }
      ],
      "name": "NewMolecule",
      "type": "event"
    },
    {
      "anonymous": false,
      "inputs": [
        {
          "indexed": true,
          "internalType": "address",
          "name": "previousOwner",
          "type": "address"
        },
        {
          "indexed": true,
          "internalType": "address",
          "name": "newOwner",
          "type": "address"
        }
      ],
      "name": "OwnershipTransferred",
      "type": "event"
    },
    {
      "inputs": [],
      "name": "Dev",
      "outputs": [
        {
          "internalType": "address",
          "name": "",
          "type": "address"
        }
      ],
      "stateMutability": "view",
      "type": "function"
    },
    {
      "inputs": [],
      "name": "HELIX2",
      "outputs": [
        {
          "internalType": "contract iHELIX2",
          "name": "",
          "type": "address"
        }
      ],
      "stateMutability": "view",
      "type": "function"
    },
    {
      "inputs": [],
      "name": "MOLECULES",
      "outputs": [
        {
          "internalType": "contract iMOLECULE",
          "name": "",
          "type": "address"
        }
      ],
      "stateMutability": "view",
      "type": "function"
    },
    {
      "inputs": [],
      "name": "NAMES",
      "outputs": [
        {
          "internalType": "contract iNAME",
          "name": "",
          "type": "address"
        }
      ],
      "stateMutability": "view",
      "type": "function"
    },
    {
      "inputs": [],
      "name": "PRICES",
      "outputs": [
        {
          "internalType": "contract iPriceOracle",
          "name": "",
          "type": "address"
        }
      ],
      "stateMutability": "view",
      "type": "function"
    },
    {
      "inputs": [],
      "name": "active",
      "outputs": [
        {
          "internalType": "bool",
          "name": "",
          "type": "bool"
        }
      ],
      "stateMutability": "view",
      "type": "function"
    },
    {
      "inputs": [],
      "name": "basePrice",
      "outputs": [
        {
          "internalType": "uint256",
          "name": "",
          "type": "uint256"
        }
      ],
      "stateMutability": "view",
      "type": "function"
    },
    {
      "inputs": [],
      "name": "defaultLifespan",
      "outputs": [
        {
          "internalType": "uint256",
          "name": "",
          "type": "uint256"
        }
      ],
      "stateMutability": "view",
      "type": "function"
    },
    {
      "inputs": [],
      "name": "defaultResolver",
      "outputs": [
        {
          "internalType": "address",
          "name": "",
          "type": "address"
        }
      ],
      "stateMutability": "view",
      "type": "function"
    },
    {
      "inputs": [
        {
          "internalType": "uint256",
          "name": "",
          "type": "uint256"
        }
      ],
      "name": "illegalBlocks",
      "outputs": [
        {
          "internalType": "string",
          "name": "",
          "type": "string"
        }
      ],
      "stateMutability": "view",
      "type": "function"
    },
    {
      "inputs": [],
      "name": "molecule",
      "outputs": [
        {
          "internalType": "string",
          "name": "",
          "type": "string"
        }
      ],
      "stateMutability": "view",
      "type": "function"
    },
    {
      "inputs": [
        {
          "internalType": "string",
          "name": "_alias",
          "type": "string"
        },
        {
          "internalType": "bytes32",
          "name": "cation",
          "type": "bytes32"
        },
        {
          "internalType": "bytes32[]",
          "name": "anion",
          "type": "bytes32[]"
        },
        {
          "internalType": "uint256",
          "name": "lifespan",
          "type": "uint256"
        }
      ],
      "name": "newMolecule",
      "outputs": [
        {
          "internalType": "bytes32",
          "name": "",
          "type": "bytes32"
        }
      ],
      "stateMutability": "payable",
      "type": "function"
    },
    {
      "inputs": [],
      "name": "owner",
      "outputs": [
        {
          "internalType": "address",
          "name": "",
          "type": "address"
        }
      ],
      "stateMutability": "view",
      "type": "function"
    },
    {
      "inputs": [],
      "name": "roothash",
      "outputs": [
        {
          "internalType": "bytes32",
          "name": "",
          "type": "bytes32"
        }
      ],
      "stateMutability": "view",
      "type": "function"
    },
    {
      "inputs": [
        {
          "internalType": "uint256",
          "name": "_lifespan",
          "type": "uint256"
        }
      ],
      "name": "setDefaultLifespan",
      "outputs": [],
      "stateMutability": "nonpayable",
      "type": "function"
    },
    {
      "inputs": [
        {
          "internalType": "address",
          "name": "_resolver",
          "type": "address"
        }
      ],
      "name": "setDefaultResolver",
      "outputs": [],
      "stateMutability": "nonpayable",
      "type": "function"
    },
    {
      "inputs": [
        {
          "internalType": "uint256",
          "name": "",
          "type": "uint256"
        }
      ],
      "name": "sizeLimit",
      "outputs": [
        {
          "internalType": "uint256",
          "name": "",
          "type": "uint256"
        }
      ],
      "stateMutability": "view",
      "type": "function"
    },
    {
      "inputs": [],
      "name": "symbol",
      "outputs": [
        {
          "internalType": "string",
          "name": "",
          "type": "string"
        }
      ],
      "stateMutability": "view",
      "type": "function"
    },
    {
      "inputs": [],
      "name": "toggleActive",
      "outputs": [],
      "stateMutability": "nonpayable",
      "type": "function"
    },
    {
      "inputs": [
        {
          "internalType": "address",
          "name": "newDev",
          "type": "address"
        }
      ],
      "name": "transferOwnership",
      "outputs": [],
      "stateMutability": "nonpayable",
      "type": "function"
    }
  ],
  "bytecode": {
    "object": "0x6080604052600f805460ff60a01b1916600160a01b1790553480156200002457600080fd5b50604051620021d6380380620021d683398101604081905262000047916200044b565b600c80546001600160a01b038085166001600160a01b031992831617909255600d8054868416908316179055600e8054878416908316179055600b805492841692909116821790556040805163bd9a548b60e01b8152905163bd9a548b916004808201926080929091908290030181865afa158015620000cb573d6000803e3d6000fd5b505050506040513d601f19601f82011682018060405250810190620000f1919062000541565b604090810151600355600c54815163335076e760e11b815291516001600160a01b03909116916366a0edce916004808301926101009291908290030181865afa15801562000143573d6000803e3d6000fd5b505050506040513d601f19601f82011682018060405250810190620001699190620005a8565b604001516200017d90600490600262000325565b50600c60009054906101000a90046001600160a01b03166001600160a01b031663ec2ace2a6040518163ffffffff1660e01b8152600401608060405180830381865afa158015620001d2573d6000803e3d6000fd5b505050506040513d601f19601f82011682018060405250810190620001f8919062000541565b604090810151600255600c5481516330b5337f60e21b815291516001600160a01b039091169163c2d4cdfc9160048083019260009291908290030181865afa15801562000249573d6000803e3d6000fd5b505050506040513d6000823e601f3d908101601f191682016040526200027391908101906200065f565b6200028390600790600462000368565b50600c60009054906101000a90046001600160a01b03166001600160a01b031663642a8ed66040518163ffffffff1660e01b8152600401608060405180830381865afa158015620002d8573d6000803e3d6000fd5b505050506040513d601f19601f82011682018060405250810190620002fe919062000541565b600260200201516006555050600080546001600160a01b0319163317905550620008cf9050565b826002810192821562000356579160200282015b828111156200035657825182559160200191906001019062000339565b5062000364929150620003b4565b5090565b8260048101928215620003a6579160200282015b82811115620003a6578251829062000395908262000803565b50916020019190600101906200037c565b5062000364929150620003cb565b5b80821115620003645760008155600101620003b5565b8082111562000364576000620003e28282620003ec565b50600101620003cb565b508054620003fa9062000774565b6000825580601f106200040b575050565b601f0160209004906000526020600020908101906200042b9190620003b4565b50565b80516001600160a01b03811681146200044657600080fd5b919050565b600080600080608085870312156200046257600080fd5b6200046d856200042e565b93506200047d602086016200042e565b92506200048d604086016200042e565b91506200049d606086016200042e565b905092959194509250565b634e487b7160e01b600052604160045260246000fd5b604051608081016001600160401b0381118282101715620004e357620004e3620004a8565b60405290565b604080519081016001600160401b0381118282101715620004e357620004e3620004a8565b604051601f8201601f191681016001600160401b0381118282101715620005395762000539620004a8565b604052919050565b6000608082840312156200055457600080fd5b82601f8301126200056457600080fd5b6200056e620004be565b8060808401858111156200058157600080fd5b845b818110156200059d57805184526020938401930162000583565b509095945050505050565b6000610100808385031215620005bd57600080fd5b601f8481850112620005ce57600080fd5b620005d8620004be565b918401918086841115620005eb57600080fd5b855b8481101562000654578784820112620006065760008081fd5b62000610620004e9565b80604083018a811115620006245760008081fd5b835b818110156200064057805184526020938401930162000626565b5050845250602090920191604001620005ed565b509695505050505050565b600060208083850312156200067357600080fd5b82516001600160401b03808211156200068b57600080fd5b8185019150601f8681840112620006a157600080fd5b620006ab620004be565b806080850189811115620006be57600080fd5b855b818110156200076557805186811115620006da5760008081fd5b87018581018c13620006ec5760008081fd5b805187811115620007015762000701620004a8565b62000714818801601f19168b016200050e565b8181528d8b8385010111156200072a5760008081fd5b60005b828110156200074a578381018c01518282018d01528b016200072d565b5060009181018b0191909152855250928701928701620006c0565b50909998505050505050505050565b600181811c908216806200078957607f821691505b602082108103620007aa57634e487b7160e01b600052602260045260246000fd5b50919050565b601f821115620007fe57600081815260208120601f850160051c81016020861015620007d95750805b601f850160051c820191505b81811015620007fa57828155600101620007e5565b5050505b505050565b81516001600160401b038111156200081f576200081f620004a8565b620008378162000830845462000774565b84620007b0565b602080601f8311600181146200086f5760008415620008565750858301515b600019600386901b1c1916600185901b178555620007fa565b600085815260208120601f198616915b82811015620008a0578886015182559484019460019091019084016200087f565b5085821015620008bf5787850151600019600388901b60f8161c191681555b5050505050600190811b01905550565b6118f780620008df6000396000f3fe60806040526004361061015f5760003560e01c806380b29beb116100c0578063c66485b211610074578063ec478f2711610059578063ec478f271461042c578063f12e654814610475578063f2fde38b146104a257600080fd5b8063c66485b2146103f6578063c7876ea41461041657600080fd5b80638da5cb5b116100a55780638da5cb5b1461035557806395d89b4114610380578063b782426e146103c957600080fd5b806380b29beb146102fb578063828eab0e1461032857600080fd5b8063251c9422116101175780633932cd33116100fc5780633932cd33146102a857806339506308146102bb578063769da4bb146102db57600080fd5b8063251c94221461027b57806329c68dc11461029157600080fd5b806305e84aa01161014857806305e84aa0146101fd5780630e6c0bdb1461022a5780631eabcd341461024e57600080fd5b806301e51ae81461016457806302fb0c5e146101bb575b600080fd5b34801561017057600080fd5b506000546101919073ffffffffffffffffffffffffffffffffffffffff1681565b60405173ffffffffffffffffffffffffffffffffffffffff90911681526020015b60405180910390f35b3480156101c757600080fd5b50600f546101ed9074010000000000000000000000000000000000000000900460ff1681565b60405190151581526020016101b2565b34801561020957600080fd5b50600d546101919073ffffffffffffffffffffffffffffffffffffffff1681565b34801561023657600080fd5b5061024060025481565b6040519081526020016101b2565b34801561025a57600080fd5b50600b546101919073ffffffffffffffffffffffffffffffffffffffff1681565b34801561028757600080fd5b5061024060065481565b34801561029d57600080fd5b506102a66104c2565b005b6102406102b636600461152f565b610587565b3480156102c757600080fd5b506102a66102d63660046115f8565b610ec1565b3480156102e757600080fd5b506102406102f63660046115f8565b610f39565b34801561030757600080fd5b5061031b6103163660046115f8565b610f50565b6040516101b29190611661565b34801561033457600080fd5b50600f546101919073ffffffffffffffffffffffffffffffffffffffff1681565b34801561036157600080fd5b5060005473ffffffffffffffffffffffffffffffffffffffff16610191565b34801561038c57600080fd5b5061031b6040518060400160405280600381526020017f484d53000000000000000000000000000000000000000000000000000000000081525081565b3480156103d557600080fd5b50600c546101919073ffffffffffffffffffffffffffffffffffffffff1681565b34801561040257600080fd5b506102a66104113660046116a0565b610ff0565b34801561042257600080fd5b5061024060035481565b34801561043857600080fd5b5061031b6040518060400160405280601781526020017f48656c697832204d6f6c6563756c65205365727669636500000000000000000081525081565b34801561048157600080fd5b50600e546101919073ffffffffffffffffffffffffffffffffffffffff1681565b3480156104ae57600080fd5b506102a66104bd3660046116a0565b6110aa565b60005473ffffffffffffffffffffffffffffffffffffffff16331461053a576000546040517f8ea458f600000000000000000000000000000000000000000000000000000000815273ffffffffffffffffffffffffffffffffffffffff90911660048201523360248201526044015b60405180910390fd5b600f80547fffffffffffffffffffffff00ffffffffffffffffffffffffffffffffffffffff8116740100000000000000000000000000000000000000009182900460ff1615909102179055565b6000846004820154610598826111aa565b1180156105ae57506005546105ac826111aa565b105b610614576040517f08c379a000000000000000000000000000000000000000000000000000000000815260206004820152600d60248201527f494c4c4547414c5f4c4142454c000000000000000000000000000000000000006044820152606401610531565b60408051608081019091526106e190600760046000835b828210156106ce578382018054610641906116ec565b80601f016020809104026020016040519081016040528092919081815260200182805461066d906116ec565b80156106ba5780601f1061068f576101008083540402835291602001916106ba565b820191906000526020600020905b81548152906001019060200180831161069d57829003601f168201915b50505050508152602001906001019061062b565b50505050826113b190919063ffffffff16565b15610748576040517f08c379a000000000000000000000000000000000000000000000000000000000815260206004820152600d60248201527f494c4c4547414c5f4348415253000000000000000000000000000000000000006044820152606401610531565b600d546040517f02571be30000000000000000000000000000000000000000000000000000000081526004810187905260009173ffffffffffffffffffffffffffffffffffffffff16906302571be390602401602060405180830381865afa1580156107b8573d6000803e3d6000fd5b505050506040513d601f19601f820116820180604052508101906107dc919061173f565b905060025484101561084a576040517f08c379a000000000000000000000000000000000000000000000000000000000815260206004820152601260248201527f4c4946455350414e5f544f4f5f53484f525400000000000000000000000000006044820152606401610531565b83600354610858919061178b565b3410156108c1576040517f08c379a000000000000000000000000000000000000000000000000000000000815260206004820152601260248201527f494e53554646494349454e545f455448455200000000000000000000000000006044820152606401610531565b6000876040516020016108d491906117c8565b60408051601f1981840301815282825280516020918201206006549184018b90529183015260608201819052915060009060800160408051808303601f19018152908290528051602090910120600e547ff79fe5380000000000000000000000000000000000000000000000000000000083526004830182905290925073ffffffffffffffffffffffffffffffffffffffff169063f79fe53890602401602060405180830381865afa15801561098e573d6000803e3d6000fd5b505050506040513d601f19601f820116820180604052508101906109b291906117e4565b15610a19576040517f08c379a000000000000000000000000000000000000000000000000000000000815260206004820152600f60248201527f4d4f4c4543554c455f45584953545300000000000000000000000000000000006044820152606401610531565b600e546040517f2f92673200000000000000000000000000000000000000000000000000000000815260048101839052602481018a905273ffffffffffffffffffffffffffffffffffffffff90911690632f92673290604401600060405180830381600087803b158015610a8c57600080fd5b505af1158015610aa0573d6000803e3d6000fd5b5050600e546040517f741b4cd000000000000000000000000000000000000000000000000000000000815273ffffffffffffffffffffffffffffffffffffffff909116925063741b4cd09150610afc9084908b90600401611806565b600060405180830381600087803b158015610b1657600080fd5b505af1158015610b2a573d6000803e3d6000fd5b5050600e5473ffffffffffffffffffffffffffffffffffffffff1691506339de6469905082610b598942611854565b6040517fffffffff0000000000000000000000000000000000000000000000000000000060e085901b16815260048101929092526024820152604401600060405180830381600087803b158015610baf57600080fd5b505af1158015610bc3573d6000803e3d6000fd5b5050600e546040517fd31569050000000000000000000000000000000000000000000000000000000081526004810185905273ffffffffffffffffffffffffffffffffffffffff8781166024830152909116925063d31569059150604401600060405180830381600087803b158015610c3b57600080fd5b505af1158015610c4f573d6000803e3d6000fd5b5050600e54600f546040517f1896f70a0000000000000000000000000000000000000000000000000000000081526004810186905273ffffffffffffffffffffffffffffffffffffffff918216602482015291169250631896f70a9150604401600060405180830381600087803b158015610cc957600080fd5b505af1158015610cdd573d6000803e3d6000fd5b5050600e546040517f1f06e91c000000000000000000000000000000000000000000000000000000008152600481018590526024810186905273ffffffffffffffffffffffffffffffffffffffff9091169250631f06e91c9150604401600060405180830381600087803b158015610d5457600080fd5b505af1158015610d68573d6000803e3d6000fd5b5050600e546040517fd07699aa000000000000000000000000000000000000000000000000000000008152600481018590526000602482015273ffffffffffffffffffffffffffffffffffffffff909116925063d07699aa9150604401600060405180830381600087803b158015610ddf57600080fd5b505af1158015610df3573d6000803e3d6000fd5b5050600e546040517f21ec2b5b0000000000000000000000000000000000000000000000000000000081526004810185905273ffffffffffffffffffffffffffffffffffffffff90911692506321ec2b5b9150602401600060405180830381600087803b158015610e6357600080fd5b505af1158015610e77573d6000803e3d6000fd5b50505050807f788348b54b560749eb673d74c5f79bd7e2c44977e6198b6835bd883eab9957338a8a604051610ead929190611867565b60405180910390a298975050505050505050565b60005473ffffffffffffffffffffffffffffffffffffffff163314610f34576000546040517f8ea458f600000000000000000000000000000000000000000000000000000000815273ffffffffffffffffffffffffffffffffffffffff9091166004820152336024820152604401610531565b600255565b60048160028110610f4957600080fd5b0154905081565b60078160048110610f6057600080fd5b018054909150610f6f906116ec565b80601f0160208091040260200160405190810160405280929190818152602001828054610f9b906116ec565b8015610fe85780601f10610fbd57610100808354040283529160200191610fe8565b820191906000526020600020905b815481529060010190602001808311610fcb57829003601f168201915b505050505081565b60005473ffffffffffffffffffffffffffffffffffffffff163314611063576000546040517f8ea458f600000000000000000000000000000000000000000000000000000000815273ffffffffffffffffffffffffffffffffffffffff9091166004820152336024820152604401610531565b600f80547fffffffffffffffffffffffff00000000000000000000000000000000000000001673ffffffffffffffffffffffffffffffffffffffff92909216919091179055565b60005473ffffffffffffffffffffffffffffffffffffffff16331461111d576000546040517f8ea458f600000000000000000000000000000000000000000000000000000000815273ffffffffffffffffffffffffffffffffffffffff9091166004820152336024820152604401610531565b6000805460405173ffffffffffffffffffffffffffffffffffffffff808516939216917f8be0079c531659141344cd1fd0a4f28419497f9722a3daafe3b4186f6b6457e091a3600080547fffffffffffffffffffffffff00000000000000000000000000000000000000001673ffffffffffffffffffffffffffffffffffffffff92909216919091179055565b8051600090819081905b808210156113a85760008583815181106111d0576111d06116bd565b01602001517fff000000000000000000000000000000000000000000000000000000000000001690507f80000000000000000000000000000000000000000000000000000000000000008110156112335761122c600184611854565b9250611395565b7fe0000000000000000000000000000000000000000000000000000000000000007fff00000000000000000000000000000000000000000000000000000000000000821610156112885761122c600284611854565b7ff0000000000000000000000000000000000000000000000000000000000000007fff00000000000000000000000000000000000000000000000000000000000000821610156112dd5761122c600384611854565b7ff8000000000000000000000000000000000000000000000000000000000000007fff00000000000000000000000000000000000000000000000000000000000000821610156113325761122c600484611854565b7ffc000000000000000000000000000000000000000000000000000000000000007fff00000000000000000000000000000000000000000000000000000000000000821610156113875761122c600584611854565b611392600684611854565b92505b50826113a081611889565b9350506111b4565b50909392505050565b6000805b600481101561144357836040516020016113cf91906117c8565b604051602081830303815290604052805190602001208382600481106113f7576113f76116bd565b602002015160405160200161140c91906117c8565b6040516020818303038152906040528051906020012003611431576001915050611449565b8061143b81611889565b9150506113b5565b50600090505b92915050565b7f4e487b7100000000000000000000000000000000000000000000000000000000600052604160045260246000fd5b604051601f8201601f1916810167ffffffffffffffff811182821017156114a7576114a761144f565b604052919050565b600082601f8301126114c057600080fd5b8135602067ffffffffffffffff8211156114dc576114dc61144f565b8160051b6114eb82820161147e565b928352848101820192828101908785111561150557600080fd5b83870192505b848310156115245782358252918301919083019061150b565b979650505050505050565b6000806000806080858703121561154557600080fd5b843567ffffffffffffffff8082111561155d57600080fd5b818701915087601f83011261157157600080fd5b81356020828211156115855761158561144f565b61159781601f19601f8501160161147e565b8281528a828487010111156115ab57600080fd5b82828601838301376000928101820192909252909650870135945060408701359150808211156115da57600080fd5b506115e7878288016114af565b949793965093946060013593505050565b60006020828403121561160a57600080fd5b5035919050565b60005b8381101561162c578181015183820152602001611614565b50506000910152565b6000815180845261164d816020860160208601611611565b601f01601f19169290920160200192915050565b6020815260006116746020830184611635565b9392505050565b73ffffffffffffffffffffffffffffffffffffffff8116811461169d57600080fd5b50565b6000602082840312156116b257600080fd5b81356116748161167b565b7f4e487b7100000000000000000000000000000000000000000000000000000000600052603260045260246000fd5b600181811c9082168061170057607f821691505b602082108103611739577f4e487b7100000000000000000000000000000000000000000000000000000000600052602260045260246000fd5b50919050565b60006020828403121561175157600080fd5b81516116748161167b565b7f4e487b7100000000000000000000000000000000000000000000000000000000600052601160045260246000fd5b6000817fffffffffffffffffffffffffffffffffffffffffffffffffffffffffffffffff04831182151516156117c3576117c361175c565b500290565b600082516117da818460208701611611565b9190910192915050565b6000602082840312156117f657600080fd5b8151801515811461167457600080fd5b6000604082018483526020604081850152818551808452606086019150828701935060005b818110156118475784518352938301939183019160010161182b565b5090979650505050505050565b808201808211156114495761144961175c565b60408152600061187a6040830185611635565b90508260208301529392505050565b60007fffffffffffffffffffffffffffffffffffffffffffffffffffffffffffffffff82036118ba576118ba61175c565b506001019056fea264697066735822122046359153cb0efdad2f55149c33d76da8e4866a3965939cfce8b0d252a4db3ad864736f6c63430008100033",
    "linkReferences": {}
  },
  "methodIdentifiers": {
    "Dev()": "01e51ae8",
    "HELIX2()": "b782426e",
    "MOLECULES()": "f12e6548",
    "NAMES()": "05e84aa0",
    "PRICES()": "1eabcd34",
    "active()": "02fb0c5e",
    "basePrice()": "c7876ea4",
    "defaultLifespan()": "0e6c0bdb",
    "defaultResolver()": "828eab0e",
    "illegalBlocks(uint256)": "80b29beb",
    "molecule()": "ec478f27",
    "newMolecule(string,bytes32,bytes32[],uint256)": "3932cd33",
    "owner()": "8da5cb5b",
    "roothash()": "251c9422",
    "setDefaultLifespan(uint256)": "39506308",
    "setDefaultResolver(address)": "c66485b2",
    "sizeLimit(uint256)": "769da4bb",
    "symbol()": "95d89b41",
    "toggleActive()": "29c68dc1",
    "transferOwnership(address)": "f2fde38b"
  },
  "id": 28
}