{
  "abi": [
    {
      "inputs": [
        {
          "internalType": "address",
          "name": "__registry",
          "type": "address"
        },
        {
          "internalType": "address",
          "name": "_registry",
          "type": "address"
        },
        {
          "internalType": "address",
          "name": "_helix2",
          "type": "address"
        }
      ],
      "stateMutability": "nonpayable",
      "type": "constructor"
    },
    {
      "inputs": [
        {
          "internalType": "address",
          "name": "_dev",
          "type": "address"
        },
        {
          "internalType": "address",
          "name": "_you",
          "type": "address"
        }
      ],
      "name": "OnlyDev",
      "type": "error"
    },
    {
      "anonymous": false,
      "inputs": [
        {
          "indexed": false,
          "internalType": "address",
          "name": "Dev",
          "type": "address"
        },
        {
          "indexed": false,
          "internalType": "address",
          "name": "newDev",
          "type": "address"
        }
      ],
      "name": "NewDev",
      "type": "event"
    },
    {
      "anonymous": false,
      "inputs": [
        {
          "indexed": true,
          "internalType": "bytes32",
          "name": "molyhash",
          "type": "bytes32"
        },
        {
          "indexed": false,
          "internalType": "bytes32",
          "name": "cation",
          "type": "bytes32"
        }
      ],
      "name": "NewMolecule",
      "type": "event"
    },
    {
      "inputs": [],
      "name": "Dev",
      "outputs": [
        {
          "internalType": "address",
          "name": "",
          "type": "address"
        }
      ],
      "stateMutability": "view",
      "type": "function"
    },
    {
      "inputs": [],
      "name": "HELIX2",
      "outputs": [
        {
          "internalType": "contract iHELIX2",
          "name": "",
          "type": "address"
        }
      ],
      "stateMutability": "view",
      "type": "function"
    },
    {
      "inputs": [],
      "name": "MOLECULES",
      "outputs": [
        {
          "internalType": "contract iMOLECULE",
          "name": "",
          "type": "address"
        }
      ],
      "stateMutability": "view",
      "type": "function"
    },
    {
      "inputs": [],
      "name": "NAMES",
      "outputs": [
        {
          "internalType": "contract iNAME",
          "name": "",
          "type": "address"
        }
      ],
      "stateMutability": "view",
      "type": "function"
    },
    {
      "inputs": [],
      "name": "active",
      "outputs": [
        {
          "internalType": "bool",
          "name": "",
          "type": "bool"
        }
      ],
      "stateMutability": "view",
      "type": "function"
    },
    {
      "inputs": [],
      "name": "basePrice",
      "outputs": [
        {
          "internalType": "uint256",
          "name": "",
          "type": "uint256"
        }
      ],
      "stateMutability": "view",
      "type": "function"
    },
    {
      "inputs": [
        {
          "internalType": "address",
          "name": "newDev",
          "type": "address"
        }
      ],
      "name": "changeDev",
      "outputs": [],
      "stateMutability": "nonpayable",
      "type": "function"
    },
    {
      "inputs": [],
      "name": "defaultLifespan",
      "outputs": [
        {
          "internalType": "uint256",
          "name": "",
          "type": "uint256"
        }
      ],
      "stateMutability": "view",
      "type": "function"
    },
    {
      "inputs": [],
      "name": "defaultResolver",
      "outputs": [
        {
          "internalType": "address",
          "name": "",
          "type": "address"
        }
      ],
      "stateMutability": "view",
      "type": "function"
    },
    {
      "inputs": [
        {
          "internalType": "uint256",
          "name": "",
          "type": "uint256"
        }
      ],
      "name": "illegalBlocks",
      "outputs": [
        {
          "internalType": "string",
          "name": "",
          "type": "string"
        }
      ],
      "stateMutability": "view",
      "type": "function"
    },
    {
      "inputs": [],
      "name": "molecule",
      "outputs": [
        {
          "internalType": "string",
          "name": "",
          "type": "string"
        }
      ],
      "stateMutability": "view",
      "type": "function"
    },
    {
      "inputs": [
        {
          "internalType": "string",
          "name": "_alias",
          "type": "string"
        },
        {
          "internalType": "bytes32",
          "name": "cation",
          "type": "bytes32"
        },
        {
          "internalType": "bytes32[]",
          "name": "anion",
          "type": "bytes32[]"
        },
        {
          "internalType": "uint256",
          "name": "lifespan",
          "type": "uint256"
        }
      ],
      "name": "newMolecule",
      "outputs": [
        {
          "internalType": "bytes32",
          "name": "",
          "type": "bytes32"
        }
      ],
      "stateMutability": "payable",
      "type": "function"
    },
    {
      "inputs": [
        {
          "internalType": "uint256",
          "name": "_lifespan",
          "type": "uint256"
        }
      ],
      "name": "setDefaultLifespan",
      "outputs": [],
      "stateMutability": "nonpayable",
      "type": "function"
    },
    {
      "inputs": [
        {
          "internalType": "address",
          "name": "_resolver",
          "type": "address"
        }
      ],
      "name": "setDefaultResolver",
      "outputs": [],
      "stateMutability": "nonpayable",
      "type": "function"
    },
    {
      "inputs": [],
      "name": "sizeLimit",
      "outputs": [
        {
          "internalType": "uint256",
          "name": "",
          "type": "uint256"
        }
      ],
      "stateMutability": "view",
      "type": "function"
    },
    {
      "inputs": [],
      "name": "symbol",
      "outputs": [
        {
          "internalType": "string",
          "name": "",
          "type": "string"
        }
      ],
      "stateMutability": "view",
      "type": "function"
    }
  ],
  "bytecode": {
    "object": "0x60806040526401cf7c5800600255600c805460ff60a01b1916600160a01b1790553480156200002d57600080fd5b5060405162001b9e38038062001b9e8339810160408190526200005091620002f5565b600980546001600160a01b038084166001600160a01b03199283168117909355600a8054868316908416179055600b8054918716919092161790556040805163bd9a548b60e01b8152905163bd9a548b916004808201926080929091908290030181865afa158015620000c7573d6000803e3d6000fd5b505050506040513d601f19601f82011682018060405250810190620000ed9190620003b3565b604090810151600355600954815163335076e760e11b815291516001600160a01b03909116916366a0edce9160048083019260809291908290030181865afa1580156200013e573d6000803e3d6000fd5b505050506040513d601f19601f82011682018060405250810190620001649190620003b3565b600260200201516004908155600954604080516330b5337f60e21b815290516001600160a01b039092169263c2d4cdfc9282820192600092908290030181865afa158015620001b7573d6000803e3d6000fd5b505050506040513d6000823e601f3d908101601f19168201604052620001e191908101906200041a565b620001f19060059060046200020e565b5050600080546001600160a01b03191633179055506200068a9050565b82600481019282156200024c579160200282015b828111156200024c57825182906200023b9082620005be565b509160200191906001019062000222565b506200025a9291506200025e565b5090565b808211156200025a5760006200027582826200027f565b506001016200025e565b5080546200028d906200052f565b6000825580601f106200029e575050565b601f016020900490600052602060002090810190620002be9190620002c1565b50565b5b808211156200025a5760008155600101620002c2565b80516001600160a01b0381168114620002f057600080fd5b919050565b6000806000606084860312156200030b57600080fd5b6200031684620002d8565b92506200032660208501620002d8565b91506200033660408501620002d8565b90509250925092565b634e487b7160e01b600052604160045260246000fd5b604051608081016001600160401b03811182821017156200037a576200037a6200033f565b60405290565b604051601f8201601f191681016001600160401b0381118282101715620003ab57620003ab6200033f565b604052919050565b600060808284031215620003c657600080fd5b82601f830112620003d657600080fd5b620003e062000355565b806080840185811115620003f357600080fd5b845b818110156200040f578051845260209384019301620003f5565b509095945050505050565b600060208083850312156200042e57600080fd5b82516001600160401b03808211156200044657600080fd5b8185019150601f86818401126200045c57600080fd5b6200046662000355565b8060808501898111156200047957600080fd5b855b818110156200052057805186811115620004955760008081fd5b87018581018c13620004a75760008081fd5b805187811115620004bc57620004bc6200033f565b620004cf818801601f19168b0162000380565b8181528d8b838501011115620004e55760008081fd5b60005b8281101562000505578381018c01518282018d01528b01620004e8565b5060009181018b01919091528552509287019287016200047b565b50909998505050505050505050565b600181811c908216806200054457607f821691505b6020821081036200056557634e487b7160e01b600052602260045260246000fd5b50919050565b601f821115620005b957600081815260208120601f850160051c81016020861015620005945750805b601f850160051c820191505b81811015620005b557828155600101620005a0565b5050505b505050565b81516001600160401b03811115620005da57620005da6200033f565b620005f281620005eb84546200052f565b846200056b565b602080601f8311600181146200062a5760008415620006115750858301515b600019600386901b1c1916600185901b178555620005b5565b600085815260208120601f198616915b828110156200065b578886015182559484019460019091019084016200063a565b50858210156200067a5787850151600019600388901b60f8161c191681555b5050505050600190811b01905550565b611504806200069a6000396000f3fe6080604052600436106100f35760003560e01c8063828eab0e1161008a578063c66485b211610059578063c66485b21461031d578063c7876ea41461033d578063ec478f2714610353578063f12e65481461039c57600080fd5b8063828eab0e1461025a57806388a8c95c1461028757806395d89b41146102a7578063b782426e146102f057600080fd5b8063210fd271116100c6578063210fd271146101e25780633932cd33146101f8578063395063081461020b57806380b29beb1461022d57600080fd5b806301e51ae8146100f857806302fb0c5e1461014f57806305e84aa0146101915780630e6c0bdb146101be575b600080fd5b34801561010457600080fd5b506000546101259073ffffffffffffffffffffffffffffffffffffffff1681565b60405173ffffffffffffffffffffffffffffffffffffffff90911681526020015b60405180910390f35b34801561015b57600080fd5b50600c546101819074010000000000000000000000000000000000000000900460ff1681565b6040519015158152602001610146565b34801561019d57600080fd5b50600a546101259073ffffffffffffffffffffffffffffffffffffffff1681565b3480156101ca57600080fd5b506101d460025481565b604051908152602001610146565b3480156101ee57600080fd5b506101d460045481565b6101d4610206366004611013565b6103c9565b34801561021757600080fd5b5061022b6102263660046110dc565b610c53565b005b34801561023957600080fd5b5061024d6102483660046110dc565b610ccb565b6040516101469190611145565b34801561026657600080fd5b50600c546101259073ffffffffffffffffffffffffffffffffffffffff1681565b34801561029357600080fd5b5061022b6102a2366004611184565b610d6b565b3480156102b357600080fd5b5061024d6040518060400160405280600381526020017f484d53000000000000000000000000000000000000000000000000000000000081525081565b3480156102fc57600080fd5b506009546101259073ffffffffffffffffffffffffffffffffffffffff1681565b34801561032957600080fd5b5061022b610338366004611184565b610e79565b34801561034957600080fd5b506101d460035481565b34801561035f57600080fd5b5061024d6040518060400160405280601781526020017f48656c697832204d6f6c6563756c65205365727669636500000000000000000081525081565b3480156103a857600080fd5b50600b546101259073ffffffffffffffffffffffffffffffffffffffff1681565b60008460045481511061043d576040517f08c379a000000000000000000000000000000000000000000000000000000000815260206004820152600d60248201527f494c4c4547414c5f4c4142454c0000000000000000000000000000000000000060448201526064015b60405180910390fd5b6040517f8572a5d300000000000000000000000000000000000000000000000000000000815273__$47e4ffaaf323c41735ff299f8946896ce0$__90638572a5d3906104909084906005906004016111f4565b602060405180830381865af41580156104ad573d6000803e3d6000fd5b505050506040513d601f19601f820116820180604052508101906104d19190611322565b15610538576040517f08c379a000000000000000000000000000000000000000000000000000000000815260206004820152600d60248201527f494c4c4547414c5f4348415253000000000000000000000000000000000000006044820152606401610434565b600a546040517f02571be30000000000000000000000000000000000000000000000000000000081526004810187905260009173ffffffffffffffffffffffffffffffffffffffff16906302571be390602401602060405180830381865afa1580156105a8573d6000803e3d6000fd5b505050506040513d601f19601f820116820180604052508101906105cc9190611344565b905060025484101561063a576040517f08c379a000000000000000000000000000000000000000000000000000000000815260206004820152601260248201527f4c4946455350414e5f544f4f5f53484f525400000000000000000000000000006044820152606401610434565b836003546106489190611390565b3410156106b1576040517f08c379a000000000000000000000000000000000000000000000000000000000815260206004820152601260248201527f494e53554646494349454e545f455448455200000000000000000000000000006044820152606401610434565b6000876040516020016106c491906113cd565b6040516020818303038152906040528051906020012090506000600960009054906101000a900473ffffffffffffffffffffffffffffffffffffffff1673ffffffffffffffffffffffffffffffffffffffff1663642a8ed66040518163ffffffff1660e01b8152600401608060405180830381865afa15801561074b573d6000803e3d6000fd5b505050506040513d601f19601f8201168201806040525081019061076f91906113e9565b6040908101518151602081018b905291820181905260608201849052915060009060800160408051808303601f19018152908290528051602090910120600b547f8146970a00000000000000000000000000000000000000000000000000000000835260048301829052602483018c905290925073ffffffffffffffffffffffffffffffffffffffff1690638146970a90604401600060405180830381600087803b15801561081d57600080fd5b505af1158015610831573d6000803e3d6000fd5b5050600b546040517f741b4cd000000000000000000000000000000000000000000000000000000000815273ffffffffffffffffffffffffffffffffffffffff909116925063741b4cd0915061088d9084908c90600401611467565b600060405180830381600087803b1580156108a757600080fd5b505af11580156108bb573d6000803e3d6000fd5b5050600b5473ffffffffffffffffffffffffffffffffffffffff1691506339de64699050826108ea8a426114b5565b6040517fffffffff0000000000000000000000000000000000000000000000000000000060e085901b16815260048101929092526024820152604401600060405180830381600087803b15801561094057600080fd5b505af1158015610954573d6000803e3d6000fd5b5050600b546040517fd31569050000000000000000000000000000000000000000000000000000000081526004810185905273ffffffffffffffffffffffffffffffffffffffff8881166024830152909116925063d31569059150604401600060405180830381600087803b1580156109cc57600080fd5b505af11580156109e0573d6000803e3d6000fd5b5050600b54600c546040517f1896f70a0000000000000000000000000000000000000000000000000000000081526004810186905273ffffffffffffffffffffffffffffffffffffffff918216602482015291169250631896f70a9150604401600060405180830381600087803b158015610a5a57600080fd5b505af1158015610a6e573d6000803e3d6000fd5b5050600b546040517f1f06e91c000000000000000000000000000000000000000000000000000000008152600481018590526024810187905273ffffffffffffffffffffffffffffffffffffffff9091169250631f06e91c9150604401600060405180830381600087803b158015610ae557600080fd5b505af1158015610af9573d6000803e3d6000fd5b5050600b546040517fd07699aa000000000000000000000000000000000000000000000000000000008152600481018590526000602482015273ffffffffffffffffffffffffffffffffffffffff909116925063d07699aa9150604401600060405180830381600087803b158015610b7057600080fd5b505af1158015610b84573d6000803e3d6000fd5b5050600b546040517f21ec2b5b0000000000000000000000000000000000000000000000000000000081526004810185905273ffffffffffffffffffffffffffffffffffffffff90911692506321ec2b5b9150602401600060405180830381600087803b158015610bf457600080fd5b505af1158015610c08573d6000803e3d6000fd5b50505050807f5eae6375e459aef4ec6bf72041338acc8725dfdbdc5bc2f63387d3379ffb90038a604051610c3e91815260200190565b60405180910390a29998505050505050505050565b60005473ffffffffffffffffffffffffffffffffffffffff163314610cc6576000546040517f8ea458f600000000000000000000000000000000000000000000000000000000815273ffffffffffffffffffffffffffffffffffffffff9091166004820152336024820152604401610434565b600255565b60058160048110610cdb57600080fd5b018054909150610cea906111a1565b80601f0160208091040260200160405190810160405280929190818152602001828054610d16906111a1565b8015610d635780601f10610d3857610100808354040283529160200191610d63565b820191906000526020600020905b815481529060010190602001808311610d4657829003601f168201915b505050505081565b60005473ffffffffffffffffffffffffffffffffffffffff163314610dde576000546040517f8ea458f600000000000000000000000000000000000000000000000000000000815273ffffffffffffffffffffffffffffffffffffffff9091166004820152336024820152604401610434565b6000546040805173ffffffffffffffffffffffffffffffffffffffff928316815291831660208301527fdec101f106d4fc7c85791843e64b198248c822298e3ed7046231d33f7783d816910160405180910390a1600080547fffffffffffffffffffffffff00000000000000000000000000000000000000001673ffffffffffffffffffffffffffffffffffffffff92909216919091179055565b60005473ffffffffffffffffffffffffffffffffffffffff163314610eec576000546040517f8ea458f600000000000000000000000000000000000000000000000000000000815273ffffffffffffffffffffffffffffffffffffffff9091166004820152336024820152604401610434565b600c80547fffffffffffffffffffffffff00000000000000000000000000000000000000001673ffffffffffffffffffffffffffffffffffffffff92909216919091179055565b7f4e487b7100000000000000000000000000000000000000000000000000000000600052604160045260246000fd5b604051601f8201601f1916810167ffffffffffffffff81118282101715610f8b57610f8b610f33565b604052919050565b600082601f830112610fa457600080fd5b8135602067ffffffffffffffff821115610fc057610fc0610f33565b8160051b610fcf828201610f62565b9283528481018201928281019087851115610fe957600080fd5b83870192505b8483101561100857823582529183019190830190610fef565b979650505050505050565b6000806000806080858703121561102957600080fd5b843567ffffffffffffffff8082111561104157600080fd5b818701915087601f83011261105557600080fd5b813560208282111561106957611069610f33565b61107b81601f19601f85011601610f62565b8281528a8284870101111561108f57600080fd5b82828601838301376000928101820192909252909650870135945060408701359150808211156110be57600080fd5b506110cb87828801610f93565b949793965093946060013593505050565b6000602082840312156110ee57600080fd5b5035919050565b60005b838110156111105781810151838201526020016110f8565b50506000910152565b600081518084526111318160208601602086016110f5565b601f01601f19169290920160200192915050565b6020815260006111586020830184611119565b9392505050565b73ffffffffffffffffffffffffffffffffffffffff8116811461118157600080fd5b50565b60006020828403121561119657600080fd5b81356111588161115f565b600181811c908216806111b557607f821691505b6020821081036111ee577f4e487b7100000000000000000000000000000000000000000000000000000000600052602260045260246000fd5b50919050565b6040815260006112076040830185611119565b60208382038185015281829050608083018660005b600480821061122b5750611314565b86840385528254600090600181811c908083168061124a57607f831692505b8a8310810361127f577f4e487b7100000000000000000000000000000000000000000000000000000000855260228652602485fd5b82895260208901955080801561129c57600181146112d0576112fb565b7fffffffffffffffffffffffffffffffffffffffffffffffffffffffffffffff008516875283151560051b870195506112fb565b60008981526020902060005b858110156112f557815489820152908401908d016112dc565b88019650505b505097890197929650505092909201915060010161121c565b509098975050505050505050565b60006020828403121561133457600080fd5b8151801515811461115857600080fd5b60006020828403121561135657600080fd5b81516111588161115f565b7f4e487b7100000000000000000000000000000000000000000000000000000000600052601160045260246000fd5b6000817fffffffffffffffffffffffffffffffffffffffffffffffffffffffffffffffff04831182151516156113c8576113c8611361565b500290565b600082516113df8184602087016110f5565b9190910192915050565b6000608082840312156113fb57600080fd5b82601f83011261140a57600080fd5b6040516080810181811067ffffffffffffffff8211171561142d5761142d610f33565b60405280608084018581111561144257600080fd5b845b8181101561145c578051835260209283019201611444565b509195945050505050565b6000604082018483526020604081850152818551808452606086019150828701935060005b818110156114a85784518352938301939183019160010161148c565b5090979650505050505050565b808201808211156114c8576114c8611361565b9291505056fea2646970667358221220a1c284af6786621b0dc23becb3cb50b564f5e579e2dde0c2c851edc8871fcb3064736f6c63430008100033",
    "linkReferences": {
      "src/Utils/LibString.sol": {
        "LibString": [
          {
            "start": 2815,
            "length": 20
          }
        ]
      }
    }
  },
  "methodIdentifiers": {
    "Dev()": "01e51ae8",
    "HELIX2()": "b782426e",
    "MOLECULES()": "f12e6548",
    "NAMES()": "05e84aa0",
    "active()": "02fb0c5e",
    "basePrice()": "c7876ea4",
    "changeDev(address)": "88a8c95c",
    "defaultLifespan()": "0e6c0bdb",
    "defaultResolver()": "828eab0e",
    "illegalBlocks(uint256)": "80b29beb",
    "molecule()": "ec478f27",
    "newMolecule(string,bytes32,bytes32[],uint256)": "3932cd33",
    "setDefaultLifespan(uint256)": "39506308",
    "setDefaultResolver(address)": "c66485b2",
    "sizeLimit()": "210fd271",
    "symbol()": "95d89b41"
  },
  "id": 21
}