{
  "abi": [
    {
      "inputs": [
        {
          "internalType": "address",
          "name": "__registry",
          "type": "address"
        },
        {
          "internalType": "address",
          "name": "_registry",
          "type": "address"
        },
        {
          "internalType": "address",
          "name": "_helix2",
          "type": "address"
        }
      ],
      "stateMutability": "nonpayable",
      "type": "constructor"
    },
    {
      "inputs": [
        {
          "internalType": "address",
          "name": "_dev",
          "type": "address"
        },
        {
          "internalType": "address",
          "name": "_you",
          "type": "address"
        }
      ],
      "name": "OnlyDev",
      "type": "error"
    },
    {
      "anonymous": false,
      "inputs": [
        {
          "indexed": false,
          "internalType": "address",
          "name": "Dev",
          "type": "address"
        },
        {
          "indexed": false,
          "internalType": "address",
          "name": "newDev",
          "type": "address"
        }
      ],
      "name": "NewDev",
      "type": "event"
    },
    {
      "anonymous": false,
      "inputs": [
        {
          "indexed": false,
          "internalType": "string",
          "name": "_alias",
          "type": "string"
        },
        {
          "indexed": true,
          "internalType": "bytes32",
          "name": "molyhash",
          "type": "bytes32"
        },
        {
          "indexed": false,
          "internalType": "bytes32",
          "name": "cation",
          "type": "bytes32"
        }
      ],
      "name": "NewMolecule",
      "type": "event"
    },
    {
      "inputs": [],
      "name": "Dev",
      "outputs": [
        {
          "internalType": "address",
          "name": "",
          "type": "address"
        }
      ],
      "stateMutability": "view",
      "type": "function"
    },
    {
      "inputs": [],
      "name": "HELIX2",
      "outputs": [
        {
          "internalType": "contract iHELIX2",
          "name": "",
          "type": "address"
        }
      ],
      "stateMutability": "view",
      "type": "function"
    },
    {
      "inputs": [],
      "name": "MOLECULES",
      "outputs": [
        {
          "internalType": "contract iMOLECULE",
          "name": "",
          "type": "address"
        }
      ],
      "stateMutability": "view",
      "type": "function"
    },
    {
      "inputs": [],
      "name": "NAMES",
      "outputs": [
        {
          "internalType": "contract iNAME",
          "name": "",
          "type": "address"
        }
      ],
      "stateMutability": "view",
      "type": "function"
    },
    {
      "inputs": [],
      "name": "active",
      "outputs": [
        {
          "internalType": "bool",
          "name": "",
          "type": "bool"
        }
      ],
      "stateMutability": "view",
      "type": "function"
    },
    {
      "inputs": [],
      "name": "basePrice",
      "outputs": [
        {
          "internalType": "uint256",
          "name": "",
          "type": "uint256"
        }
      ],
      "stateMutability": "view",
      "type": "function"
    },
    {
      "inputs": [
        {
          "internalType": "address",
          "name": "newDev",
          "type": "address"
        }
      ],
      "name": "changeDev",
      "outputs": [],
      "stateMutability": "nonpayable",
      "type": "function"
    },
    {
      "inputs": [],
      "name": "defaultLifespan",
      "outputs": [
        {
          "internalType": "uint256",
          "name": "",
          "type": "uint256"
        }
      ],
      "stateMutability": "view",
      "type": "function"
    },
    {
      "inputs": [],
      "name": "defaultResolver",
      "outputs": [
        {
          "internalType": "address",
          "name": "",
          "type": "address"
        }
      ],
      "stateMutability": "view",
      "type": "function"
    },
    {
      "inputs": [
        {
          "internalType": "uint256",
          "name": "",
          "type": "uint256"
        }
      ],
      "name": "illegalBlocks",
      "outputs": [
        {
          "internalType": "string",
          "name": "",
          "type": "string"
        }
      ],
      "stateMutability": "view",
      "type": "function"
    },
    {
      "inputs": [],
      "name": "molecule",
      "outputs": [
        {
          "internalType": "string",
          "name": "",
          "type": "string"
        }
      ],
      "stateMutability": "view",
      "type": "function"
    },
    {
      "inputs": [
        {
          "internalType": "string",
          "name": "_alias",
          "type": "string"
        },
        {
          "internalType": "bytes32",
          "name": "cation",
          "type": "bytes32"
        },
        {
          "internalType": "bytes32[]",
          "name": "anion",
          "type": "bytes32[]"
        },
        {
          "internalType": "uint256",
          "name": "lifespan",
          "type": "uint256"
        }
      ],
      "name": "newMolecule",
      "outputs": [
        {
          "internalType": "bytes32",
          "name": "",
          "type": "bytes32"
        }
      ],
      "stateMutability": "payable",
      "type": "function"
    },
    {
      "inputs": [],
      "name": "roothash",
      "outputs": [
        {
          "internalType": "bytes32",
          "name": "",
          "type": "bytes32"
        }
      ],
      "stateMutability": "view",
      "type": "function"
    },
    {
      "inputs": [
        {
          "internalType": "uint256",
          "name": "_lifespan",
          "type": "uint256"
        }
      ],
      "name": "setDefaultLifespan",
      "outputs": [],
      "stateMutability": "nonpayable",
      "type": "function"
    },
    {
      "inputs": [
        {
          "internalType": "address",
          "name": "_resolver",
          "type": "address"
        }
      ],
      "name": "setDefaultResolver",
      "outputs": [],
      "stateMutability": "nonpayable",
      "type": "function"
    },
    {
      "inputs": [],
      "name": "sizeLimit",
      "outputs": [
        {
          "internalType": "uint256",
          "name": "",
          "type": "uint256"
        }
      ],
      "stateMutability": "view",
      "type": "function"
    },
    {
      "inputs": [],
      "name": "symbol",
      "outputs": [
        {
          "internalType": "string",
          "name": "",
          "type": "string"
        }
      ],
      "stateMutability": "view",
      "type": "function"
    }
  ],
  "bytecode": {
    "object": "0x6080604052600d805460ff60a01b1916600160a01b1790553480156200002457600080fd5b5060405162001cc238038062001cc28339810160408190526200004791620003e6565b600a80546001600160a01b038084166001600160a01b03199283168117909355600b8054868316908416179055600c8054918716919092161790556040805163bd9a548b60e01b8152905163bd9a548b916004808201926080929091908290030181865afa158015620000be573d6000803e3d6000fd5b505050506040513d601f19601f82011682018060405250810190620000e49190620004a4565b604090810151600355600a54815163335076e760e11b815291516001600160a01b03909116916366a0edce9160048083019260809291908290030181865afa15801562000135573d6000803e3d6000fd5b505050506040513d601f19601f820116820180604052508101906200015b9190620004a4565b600260200201516004908155600a5460408051637615671560e11b815290516001600160a01b039092169263ec2ace2a9282820192608092908290030181865afa158015620001ae573d6000803e3d6000fd5b505050506040513d601f19601f82011682018060405250810190620001d49190620004a4565b604090810151600255600a5481516330b5337f60e21b815291516001600160a01b039091169163c2d4cdfc9160048083019260009291908290030181865afa15801562000225573d6000803e3d6000fd5b505050506040513d6000823e601f3d908101601f191682016040526200024f91908101906200050b565b6200025f906006906004620002ff565b50600a60009054906101000a90046001600160a01b03166001600160a01b031663642a8ed66040518163ffffffff1660e01b8152600401608060405180830381865afa158015620002b4573d6000803e3d6000fd5b505050506040513d601f19601f82011682018060405250810190620002da9190620004a4565b600260200201516005555050600080546001600160a01b03191633179055506200077b565b82600481019282156200033d579160200282015b828111156200033d57825182906200032c9082620006af565b509160200191906001019062000313565b506200034b9291506200034f565b5090565b808211156200034b57600062000366828262000370565b506001016200034f565b5080546200037e9062000620565b6000825580601f106200038f575050565b601f016020900490600052602060002090810190620003af9190620003b2565b50565b5b808211156200034b5760008155600101620003b3565b80516001600160a01b0381168114620003e157600080fd5b919050565b600080600060608486031215620003fc57600080fd5b6200040784620003c9565b92506200041760208501620003c9565b91506200042760408501620003c9565b90509250925092565b634e487b7160e01b600052604160045260246000fd5b604051608081016001600160401b03811182821017156200046b576200046b62000430565b60405290565b604051601f8201601f191681016001600160401b03811182821017156200049c576200049c62000430565b604052919050565b600060808284031215620004b757600080fd5b82601f830112620004c757600080fd5b620004d162000446565b806080840185811115620004e457600080fd5b845b8181101562000500578051845260209384019301620004e6565b509095945050505050565b600060208083850312156200051f57600080fd5b82516001600160401b03808211156200053757600080fd5b8185019150601f86818401126200054d57600080fd5b6200055762000446565b8060808501898111156200056a57600080fd5b855b818110156200061157805186811115620005865760008081fd5b87018581018c13620005985760008081fd5b805187811115620005ad57620005ad62000430565b620005c0818801601f19168b0162000471565b8181528d8b838501011115620005d65760008081fd5b60005b82811015620005f6578381018c01518282018d01528b01620005d9565b5060009181018b01919091528552509287019287016200056c565b50909998505050505050505050565b600181811c908216806200063557607f821691505b6020821081036200065657634e487b7160e01b600052602260045260246000fd5b50919050565b601f821115620006aa57600081815260208120601f850160051c81016020861015620006855750805b601f850160051c820191505b81811015620006a65782815560010162000691565b5050505b505050565b81516001600160401b03811115620006cb57620006cb62000430565b620006e381620006dc845462000620565b846200065c565b602080601f8311600181146200071b5760008415620007025750858301515b600019600386901b1c1916600185901b178555620006a6565b600085815260208120601f198616915b828110156200074c578886015182559484019460019091019084016200072b565b50858210156200076b5787850151600019600388901b60f8161c191681555b5050505050600190811b01905550565b611537806200078b6000396000f3fe60806040526004361061010e5760003560e01c806380b29beb116100a5578063b782426e11610074578063c7876ea411610059578063c7876ea41461036e578063ec478f2714610384578063f12e6548146103cd57600080fd5b8063b782426e14610321578063c66485b21461034e57600080fd5b806380b29beb1461025e578063828eab0e1461028b57806388a8c95c146102b857806395d89b41146102d857600080fd5b8063210fd271116100e1578063210fd271146101fd578063251c9422146102135780633932cd3314610229578063395063081461023c57600080fd5b806301e51ae81461011357806302fb0c5e1461016a57806305e84aa0146101ac5780630e6c0bdb146101d9575b600080fd5b34801561011f57600080fd5b506000546101409073ffffffffffffffffffffffffffffffffffffffff1681565b60405173ffffffffffffffffffffffffffffffffffffffff90911681526020015b60405180910390f35b34801561017657600080fd5b50600d5461019c9074010000000000000000000000000000000000000000900460ff1681565b6040519015158152602001610161565b3480156101b857600080fd5b50600b546101409073ffffffffffffffffffffffffffffffffffffffff1681565b3480156101e557600080fd5b506101ef60025481565b604051908152602001610161565b34801561020957600080fd5b506101ef60045481565b34801561021f57600080fd5b506101ef60055481565b6101ef6102373660046110a2565b6103fa565b34801561024857600080fd5b5061025c61025736600461116b565b610ce2565b005b34801561026a57600080fd5b5061027e61027936600461116b565b610d5a565b60405161016191906111d4565b34801561029757600080fd5b50600d546101409073ffffffffffffffffffffffffffffffffffffffff1681565b3480156102c457600080fd5b5061025c6102d3366004611213565b610dfa565b3480156102e457600080fd5b5061027e6040518060400160405280600381526020017f484d53000000000000000000000000000000000000000000000000000000000081525081565b34801561032d57600080fd5b50600a546101409073ffffffffffffffffffffffffffffffffffffffff1681565b34801561035a57600080fd5b5061025c610369366004611213565b610f08565b34801561037a57600080fd5b506101ef60035481565b34801561039057600080fd5b5061027e6040518060400160405280601781526020017f48656c697832204d6f6c6563756c65205365727669636500000000000000000081525081565b3480156103d957600080fd5b50600c546101409073ffffffffffffffffffffffffffffffffffffffff1681565b60008460045481511061046e576040517f08c379a000000000000000000000000000000000000000000000000000000000815260206004820152600d60248201527f494c4c4547414c5f4c4142454c0000000000000000000000000000000000000060448201526064015b60405180910390fd5b6040517fa6470fd600000000000000000000000000000000000000000000000000000000815273__$47e4ffaaf323c41735ff299f8946896ce0$__9063a6470fd6906104c1908490600690600401611283565b602060405180830381865af41580156104de573d6000803e3d6000fd5b505050506040513d601f19601f8201168201806040525081019061050291906113b1565b15610569576040517f08c379a000000000000000000000000000000000000000000000000000000000815260206004820152600d60248201527f494c4c4547414c5f4348415253000000000000000000000000000000000000006044820152606401610465565b600b546040517f02571be30000000000000000000000000000000000000000000000000000000081526004810187905260009173ffffffffffffffffffffffffffffffffffffffff16906302571be390602401602060405180830381865afa1580156105d9573d6000803e3d6000fd5b505050506040513d601f19601f820116820180604052508101906105fd91906113d3565b905060025484101561066b576040517f08c379a000000000000000000000000000000000000000000000000000000000815260206004820152601260248201527f4c4946455350414e5f544f4f5f53484f525400000000000000000000000000006044820152606401610465565b83600354610679919061141f565b3410156106e2576040517f08c379a000000000000000000000000000000000000000000000000000000000815260206004820152601260248201527f494e53554646494349454e545f455448455200000000000000000000000000006044820152606401610465565b6000876040516020016106f5919061145c565b60408051601f1981840301815282825280516020918201206005549184018b90529183015260608201819052915060009060800160408051808303601f19018152908290528051602090910120600c547ff79fe5380000000000000000000000000000000000000000000000000000000083526004830182905290925073ffffffffffffffffffffffffffffffffffffffff169063f79fe53890602401602060405180830381865afa1580156107af573d6000803e3d6000fd5b505050506040513d601f19601f820116820180604052508101906107d391906113b1565b1561083a576040517f08c379a000000000000000000000000000000000000000000000000000000000815260206004820152600f60248201527f4d4f4c4543554c455f45584953545300000000000000000000000000000000006044820152606401610465565b600c546040517f2f92673200000000000000000000000000000000000000000000000000000000815260048101839052602481018a905273ffffffffffffffffffffffffffffffffffffffff90911690632f92673290604401600060405180830381600087803b1580156108ad57600080fd5b505af11580156108c1573d6000803e3d6000fd5b5050600c546040517f741b4cd000000000000000000000000000000000000000000000000000000000815273ffffffffffffffffffffffffffffffffffffffff909116925063741b4cd0915061091d9084908b90600401611478565b600060405180830381600087803b15801561093757600080fd5b505af115801561094b573d6000803e3d6000fd5b5050600c5473ffffffffffffffffffffffffffffffffffffffff1691506339de646990508261097a89426114c6565b6040517fffffffff0000000000000000000000000000000000000000000000000000000060e085901b16815260048101929092526024820152604401600060405180830381600087803b1580156109d057600080fd5b505af11580156109e4573d6000803e3d6000fd5b5050600c546040517fd31569050000000000000000000000000000000000000000000000000000000081526004810185905273ffffffffffffffffffffffffffffffffffffffff8781166024830152909116925063d31569059150604401600060405180830381600087803b158015610a5c57600080fd5b505af1158015610a70573d6000803e3d6000fd5b5050600c54600d546040517f1896f70a0000000000000000000000000000000000000000000000000000000081526004810186905273ffffffffffffffffffffffffffffffffffffffff918216602482015291169250631896f70a9150604401600060405180830381600087803b158015610aea57600080fd5b505af1158015610afe573d6000803e3d6000fd5b5050600c546040517f1f06e91c000000000000000000000000000000000000000000000000000000008152600481018590526024810186905273ffffffffffffffffffffffffffffffffffffffff9091169250631f06e91c9150604401600060405180830381600087803b158015610b7557600080fd5b505af1158015610b89573d6000803e3d6000fd5b5050600c546040517fd07699aa000000000000000000000000000000000000000000000000000000008152600481018590526000602482015273ffffffffffffffffffffffffffffffffffffffff909116925063d07699aa9150604401600060405180830381600087803b158015610c0057600080fd5b505af1158015610c14573d6000803e3d6000fd5b5050600c546040517f21ec2b5b0000000000000000000000000000000000000000000000000000000081526004810185905273ffffffffffffffffffffffffffffffffffffffff90911692506321ec2b5b9150602401600060405180830381600087803b158015610c8457600080fd5b505af1158015610c98573d6000803e3d6000fd5b50505050807f788348b54b560749eb673d74c5f79bd7e2c44977e6198b6835bd883eab9957338a8a604051610cce9291906114df565b60405180910390a298975050505050505050565b60005473ffffffffffffffffffffffffffffffffffffffff163314610d55576000546040517f8ea458f600000000000000000000000000000000000000000000000000000000815273ffffffffffffffffffffffffffffffffffffffff9091166004820152336024820152604401610465565b600255565b60068160048110610d6a57600080fd5b018054909150610d7990611230565b80601f0160208091040260200160405190810160405280929190818152602001828054610da590611230565b8015610df25780601f10610dc757610100808354040283529160200191610df2565b820191906000526020600020905b815481529060010190602001808311610dd557829003601f168201915b505050505081565b60005473ffffffffffffffffffffffffffffffffffffffff163314610e6d576000546040517f8ea458f600000000000000000000000000000000000000000000000000000000815273ffffffffffffffffffffffffffffffffffffffff9091166004820152336024820152604401610465565b6000546040805173ffffffffffffffffffffffffffffffffffffffff928316815291831660208301527fdec101f106d4fc7c85791843e64b198248c822298e3ed7046231d33f7783d816910160405180910390a1600080547fffffffffffffffffffffffff00000000000000000000000000000000000000001673ffffffffffffffffffffffffffffffffffffffff92909216919091179055565b60005473ffffffffffffffffffffffffffffffffffffffff163314610f7b576000546040517f8ea458f600000000000000000000000000000000000000000000000000000000815273ffffffffffffffffffffffffffffffffffffffff9091166004820152336024820152604401610465565b600d80547fffffffffffffffffffffffff00000000000000000000000000000000000000001673ffffffffffffffffffffffffffffffffffffffff92909216919091179055565b7f4e487b7100000000000000000000000000000000000000000000000000000000600052604160045260246000fd5b604051601f8201601f1916810167ffffffffffffffff8111828210171561101a5761101a610fc2565b604052919050565b600082601f83011261103357600080fd5b8135602067ffffffffffffffff82111561104f5761104f610fc2565b8160051b61105e828201610ff1565b928352848101820192828101908785111561107857600080fd5b83870192505b848310156110975782358252918301919083019061107e565b979650505050505050565b600080600080608085870312156110b857600080fd5b843567ffffffffffffffff808211156110d057600080fd5b818701915087601f8301126110e457600080fd5b81356020828211156110f8576110f8610fc2565b61110a81601f19601f85011601610ff1565b8281528a8284870101111561111e57600080fd5b828286018383013760009281018201929092529096508701359450604087013591508082111561114d57600080fd5b5061115a87828801611022565b949793965093946060013593505050565b60006020828403121561117d57600080fd5b5035919050565b60005b8381101561119f578181015183820152602001611187565b50506000910152565b600081518084526111c0816020860160208601611184565b601f01601f19169290920160200192915050565b6020815260006111e760208301846111a8565b9392505050565b73ffffffffffffffffffffffffffffffffffffffff8116811461121057600080fd5b50565b60006020828403121561122557600080fd5b81356111e7816111ee565b600181811c9082168061124457607f821691505b60208210810361127d577f4e487b7100000000000000000000000000000000000000000000000000000000600052602260045260246000fd5b50919050565b60408152600061129660408301856111a8565b60208382038185015281829050608083018660005b60048082106112ba57506113a3565b86840385528254600090600181811c90808316806112d957607f831692505b8a8310810361130e577f4e487b7100000000000000000000000000000000000000000000000000000000855260228652602485fd5b82895260208901955080801561132b576001811461135f5761138a565b7fffffffffffffffffffffffffffffffffffffffffffffffffffffffffffffff008516875283151560051b8701955061138a565b60008981526020902060005b8581101561138457815489820152908401908d0161136b565b88019650505b50509789019792965050509290920191506001016112ab565b509098975050505050505050565b6000602082840312156113c357600080fd5b815180151581146111e757600080fd5b6000602082840312156113e557600080fd5b81516111e7816111ee565b7f4e487b7100000000000000000000000000000000000000000000000000000000600052601160045260246000fd5b6000817fffffffffffffffffffffffffffffffffffffffffffffffffffffffffffffffff0483118215151615611457576114576113f0565b500290565b6000825161146e818460208701611184565b9190910192915050565b6000604082018483526020604081850152818551808452606086019150828701935060005b818110156114b95784518352938301939183019160010161149d565b5090979650505050505050565b808201808211156114d9576114d96113f0565b92915050565b6040815260006114f260408301856111a8565b9050826020830152939250505056fea2646970667358221220e680c48d49585f2cf4bd358c21e4cdc5d20571c41df40e946d64bfd9a0854f4964736f6c63430008100033",
    "linkReferences": {
      "src/Utils/LibString.sol": {
        "LibString": [
          {
            "start": 3105,
            "length": 20
          }
        ]
      }
    }
  },
  "methodIdentifiers": {
    "Dev()": "01e51ae8",
    "HELIX2()": "b782426e",
    "MOLECULES()": "f12e6548",
    "NAMES()": "05e84aa0",
    "active()": "02fb0c5e",
    "basePrice()": "c7876ea4",
    "changeDev(address)": "88a8c95c",
    "defaultLifespan()": "0e6c0bdb",
    "defaultResolver()": "828eab0e",
    "illegalBlocks(uint256)": "80b29beb",
    "molecule()": "ec478f27",
    "newMolecule(string,bytes32,bytes32[],uint256)": "3932cd33",
    "roothash()": "251c9422",
    "setDefaultLifespan(uint256)": "39506308",
    "setDefaultResolver(address)": "c66485b2",
    "sizeLimit()": "210fd271",
    "symbol()": "95d89b41"
  },
  "id": 25
}