{
  "abi": [
    {
      "inputs": [
        {
          "internalType": "address",
          "name": "_registry",
          "type": "address"
        }
      ],
      "stateMutability": "nonpayable",
      "type": "constructor"
    },
    {
      "inputs": [],
      "name": "CannotBurn",
      "type": "error"
    },
    {
      "inputs": [
        {
          "internalType": "address",
          "name": "to",
          "type": "address"
        }
      ],
      "name": "ERC721IncompatibleReceiver",
      "type": "error"
    },
    {
      "inputs": [
        {
          "internalType": "address",
          "name": "_dev",
          "type": "address"
        },
        {
          "internalType": "address",
          "name": "_you",
          "type": "address"
        }
      ],
      "name": "OnlyDev",
      "type": "error"
    },
    {
      "inputs": [
        {
          "internalType": "address",
          "name": "operator",
          "type": "address"
        },
        {
          "internalType": "address",
          "name": "owner",
          "type": "address"
        },
        {
          "internalType": "uint256",
          "name": "tokenID",
          "type": "uint256"
        }
      ],
      "name": "Unauthorized",
      "type": "error"
    },
    {
      "anonymous": false,
      "inputs": [
        {
          "indexed": true,
          "internalType": "address",
          "name": "owner",
          "type": "address"
        },
        {
          "indexed": true,
          "internalType": "address",
          "name": "spender",
          "type": "address"
        },
        {
          "indexed": true,
          "internalType": "uint256",
          "name": "tokenID",
          "type": "uint256"
        }
      ],
      "name": "Approval",
      "type": "event"
    },
    {
      "anonymous": false,
      "inputs": [
        {
          "indexed": true,
          "internalType": "address",
          "name": "owner",
          "type": "address"
        },
        {
          "indexed": true,
          "internalType": "address",
          "name": "operator",
          "type": "address"
        },
        {
          "indexed": false,
          "internalType": "bool",
          "name": "approved",
          "type": "bool"
        }
      ],
      "name": "ApprovalForAll",
      "type": "event"
    },
    {
      "anonymous": false,
      "inputs": [
        {
          "indexed": true,
          "internalType": "bytes32",
          "name": "moleculehash",
          "type": "bytes32"
        },
        {
          "indexed": false,
          "internalType": "address",
          "name": "controller",
          "type": "address"
        }
      ],
      "name": "NewController",
      "type": "event"
    },
    {
      "anonymous": false,
      "inputs": [
        {
          "indexed": false,
          "internalType": "address",
          "name": "Dev",
          "type": "address"
        },
        {
          "indexed": false,
          "internalType": "address",
          "name": "newDev",
          "type": "address"
        }
      ],
      "name": "NewDev",
      "type": "event"
    },
    {
      "anonymous": false,
      "inputs": [
        {
          "indexed": true,
          "internalType": "bytes32",
          "name": "moleculehash",
          "type": "bytes32"
        },
        {
          "indexed": false,
          "internalType": "uint256",
          "name": "expiry",
          "type": "uint256"
        }
      ],
      "name": "NewExpiry",
      "type": "event"
    },
    {
      "anonymous": false,
      "inputs": [
        {
          "indexed": true,
          "internalType": "bytes32",
          "name": "moleculehash",
          "type": "bytes32"
        },
        {
          "indexed": false,
          "internalType": "bytes32",
          "name": "owner",
          "type": "bytes32"
        }
      ],
      "name": "NewMolecule",
      "type": "event"
    },
    {
      "anonymous": false,
      "inputs": [
        {
          "indexed": true,
          "internalType": "bytes32",
          "name": "moleculehash",
          "type": "bytes32"
        },
        {
          "indexed": false,
          "internalType": "bytes32",
          "name": "owner",
          "type": "bytes32"
        }
      ],
      "name": "NewOwner",
      "type": "event"
    },
    {
      "anonymous": false,
      "inputs": [
        {
          "indexed": true,
          "internalType": "bytes32",
          "name": "moleculehash",
          "type": "bytes32"
        },
        {
          "indexed": false,
          "internalType": "address",
          "name": "resolver",
          "type": "address"
        }
      ],
      "name": "NewRecord",
      "type": "event"
    },
    {
      "anonymous": false,
      "inputs": [
        {
          "indexed": true,
          "internalType": "bytes32",
          "name": "moleculehash",
          "type": "bytes32"
        },
        {
          "indexed": false,
          "internalType": "address",
          "name": "resolver",
          "type": "address"
        }
      ],
      "name": "NewResolver",
      "type": "event"
    },
    {
      "anonymous": false,
      "inputs": [
        {
          "indexed": true,
          "internalType": "address",
          "name": "from",
          "type": "address"
        },
        {
          "indexed": true,
          "internalType": "address",
          "name": "to",
          "type": "address"
        },
        {
          "indexed": true,
          "internalType": "uint256",
          "name": "tokenID",
          "type": "uint256"
        }
      ],
      "name": "Transfer",
      "type": "event"
    },
    {
      "stateMutability": "payable",
      "type": "fallback"
    },
    {
      "inputs": [],
      "name": "Dev",
      "outputs": [
        {
          "internalType": "address",
          "name": "",
          "type": "address"
        }
      ],
      "stateMutability": "view",
      "type": "function"
    },
    {
      "inputs": [],
      "name": "HELIX2",
      "outputs": [
        {
          "internalType": "contract iHELIX2",
          "name": "",
          "type": "address"
        }
      ],
      "stateMutability": "view",
      "type": "function"
    },
    {
      "inputs": [],
      "name": "MOLECULES",
      "outputs": [
        {
          "internalType": "contract iMOLECULE",
          "name": "",
          "type": "address"
        }
      ],
      "stateMutability": "view",
      "type": "function"
    },
    {
      "inputs": [],
      "name": "NAMES",
      "outputs": [
        {
          "internalType": "contract iNAME",
          "name": "",
          "type": "address"
        }
      ],
      "stateMutability": "view",
      "type": "function"
    },
    {
      "inputs": [
        {
          "internalType": "uint256",
          "name": "",
          "type": "uint256"
        }
      ],
      "name": "_approved",
      "outputs": [
        {
          "internalType": "address",
          "name": "",
          "type": "address"
        }
      ],
      "stateMutability": "view",
      "type": "function"
    },
    {
      "inputs": [],
      "name": "active",
      "outputs": [
        {
          "internalType": "bool",
          "name": "",
          "type": "bool"
        }
      ],
      "stateMutability": "view",
      "type": "function"
    },
    {
      "inputs": [
        {
          "internalType": "address",
          "name": "controller",
          "type": "address"
        },
        {
          "internalType": "uint256",
          "name": "tokenID",
          "type": "uint256"
        }
      ],
      "name": "approve",
      "outputs": [],
      "stateMutability": "payable",
      "type": "function"
    },
    {
      "inputs": [
        {
          "internalType": "address",
          "name": "wallet",
          "type": "address"
        }
      ],
      "name": "balanceOf",
      "outputs": [
        {
          "internalType": "uint256",
          "name": "",
          "type": "uint256"
        }
      ],
      "stateMutability": "view",
      "type": "function"
    },
    {
      "inputs": [],
      "name": "basePrice",
      "outputs": [
        {
          "internalType": "uint256",
          "name": "",
          "type": "uint256"
        }
      ],
      "stateMutability": "view",
      "type": "function"
    },
    {
      "inputs": [
        {
          "internalType": "address",
          "name": "newDev",
          "type": "address"
        }
      ],
      "name": "changeDev",
      "outputs": [],
      "stateMutability": "nonpayable",
      "type": "function"
    },
    {
      "inputs": [],
      "name": "defaultLifespan",
      "outputs": [
        {
          "internalType": "uint256",
          "name": "",
          "type": "uint256"
        }
      ],
      "stateMutability": "view",
      "type": "function"
    },
    {
      "inputs": [],
      "name": "defaultResolver",
      "outputs": [
        {
          "internalType": "address",
          "name": "",
          "type": "address"
        }
      ],
      "stateMutability": "view",
      "type": "function"
    },
    {
      "inputs": [],
      "name": "ensRegistry",
      "outputs": [
        {
          "internalType": "address",
          "name": "",
          "type": "address"
        }
      ],
      "stateMutability": "view",
      "type": "function"
    },
    {
      "inputs": [],
      "name": "getPrices",
      "outputs": [
        {
          "internalType": "uint256[4]",
          "name": "",
          "type": "uint256[4]"
        }
      ],
      "stateMutability": "view",
      "type": "function"
    },
    {
      "inputs": [],
      "name": "getRegistry",
      "outputs": [
        {
          "internalType": "address[4]",
          "name": "",
          "type": "address[4]"
        }
      ],
      "stateMutability": "view",
      "type": "function"
    },
    {
      "inputs": [],
      "name": "getRoothash",
      "outputs": [
        {
          "internalType": "bytes32[4]",
          "name": "",
          "type": "bytes32[4]"
        }
      ],
      "stateMutability": "view",
      "type": "function"
    },
    {
      "inputs": [
        {
          "internalType": "uint256",
          "name": "",
          "type": "uint256"
        }
      ],
      "name": "helix2Registry",
      "outputs": [
        {
          "internalType": "address",
          "name": "",
          "type": "address"
        }
      ],
      "stateMutability": "view",
      "type": "function"
    },
    {
      "inputs": [
        {
          "internalType": "uint256",
          "name": "",
          "type": "uint256"
        }
      ],
      "name": "illegalBlocks",
      "outputs": [
        {
          "internalType": "string",
          "name": "",
          "type": "string"
        }
      ],
      "stateMutability": "view",
      "type": "function"
    },
    {
      "inputs": [
        {
          "internalType": "address",
          "name": "",
          "type": "address"
        },
        {
          "internalType": "address",
          "name": "",
          "type": "address"
        }
      ],
      "name": "isApprovedForAll",
      "outputs": [
        {
          "internalType": "bool",
          "name": "",
          "type": "bool"
        }
      ],
      "stateMutability": "view",
      "type": "function"
    },
    {
      "inputs": [],
      "name": "isDev",
      "outputs": [
        {
          "internalType": "address",
          "name": "",
          "type": "address"
        }
      ],
      "stateMutability": "view",
      "type": "function"
    },
    {
      "inputs": [],
      "name": "molecule",
      "outputs": [
        {
          "internalType": "string",
          "name": "",
          "type": "string"
        }
      ],
      "stateMutability": "view",
      "type": "function"
    },
    {
      "inputs": [
        {
          "internalType": "string",
          "name": "label",
          "type": "string"
        },
        {
          "internalType": "bytes32",
          "name": "owner",
          "type": "bytes32"
        },
        {
          "internalType": "bytes32[]",
          "name": "target",
          "type": "bytes32[]"
        },
        {
          "internalType": "uint256",
          "name": "lifespan",
          "type": "uint256"
        }
      ],
      "name": "newMolecule",
      "outputs": [
        {
          "internalType": "bytes32",
          "name": "",
          "type": "bytes32"
        }
      ],
      "stateMutability": "payable",
      "type": "function"
    },
    {
      "inputs": [
        {
          "internalType": "uint256",
          "name": "tokenID",
          "type": "uint256"
        }
      ],
      "name": "ownerOf",
      "outputs": [
        {
          "internalType": "address",
          "name": "",
          "type": "address"
        }
      ],
      "stateMutability": "view",
      "type": "function"
    },
    {
      "inputs": [
        {
          "internalType": "uint256",
          "name": "",
          "type": "uint256"
        }
      ],
      "name": "prices",
      "outputs": [
        {
          "internalType": "uint256",
          "name": "",
          "type": "uint256"
        }
      ],
      "stateMutability": "view",
      "type": "function"
    },
    {
      "inputs": [
        {
          "internalType": "uint256",
          "name": "",
          "type": "uint256"
        }
      ],
      "name": "roothash",
      "outputs": [
        {
          "internalType": "bytes32",
          "name": "",
          "type": "bytes32"
        }
      ],
      "stateMutability": "view",
      "type": "function"
    },
    {
      "inputs": [
        {
          "internalType": "address",
          "name": "from",
          "type": "address"
        },
        {
          "internalType": "address",
          "name": "to",
          "type": "address"
        },
        {
          "internalType": "uint256",
          "name": "tokenID",
          "type": "uint256"
        }
      ],
      "name": "safeTransferFrom",
      "outputs": [],
      "stateMutability": "payable",
      "type": "function"
    },
    {
      "inputs": [
        {
          "internalType": "address",
          "name": "from",
          "type": "address"
        },
        {
          "internalType": "address",
          "name": "to",
          "type": "address"
        },
        {
          "internalType": "uint256",
          "name": "tokenID",
          "type": "uint256"
        },
        {
          "internalType": "bytes",
          "name": "data",
          "type": "bytes"
        }
      ],
      "name": "safeTransferFrom",
      "outputs": [],
      "stateMutability": "payable",
      "type": "function"
    },
    {
      "inputs": [
        {
          "internalType": "address",
          "name": "controller",
          "type": "address"
        },
        {
          "internalType": "bool",
          "name": "flag",
          "type": "bool"
        }
      ],
      "name": "setApprovalForAll",
      "outputs": [],
      "stateMutability": "payable",
      "type": "function"
    },
    {
      "inputs": [
        {
          "internalType": "uint256",
          "name": "_lifespan",
          "type": "uint256"
        }
      ],
      "name": "setDefaultLifespan",
      "outputs": [],
      "stateMutability": "nonpayable",
      "type": "function"
    },
    {
      "inputs": [
        {
          "internalType": "address",
          "name": "_resolver",
          "type": "address"
        }
      ],
      "name": "setDefaultResolver",
      "outputs": [],
      "stateMutability": "nonpayable",
      "type": "function"
    },
    {
      "inputs": [
        {
          "internalType": "bytes4",
          "name": "sig",
          "type": "bytes4"
        },
        {
          "internalType": "bool",
          "name": "value",
          "type": "bool"
        }
      ],
      "name": "setInterface",
      "outputs": [],
      "stateMutability": "payable",
      "type": "function"
    },
    {
      "inputs": [
        {
          "internalType": "uint256",
          "name": "",
          "type": "uint256"
        }
      ],
      "name": "sizes",
      "outputs": [
        {
          "internalType": "uint256",
          "name": "",
          "type": "uint256"
        }
      ],
      "stateMutability": "view",
      "type": "function"
    },
    {
      "inputs": [
        {
          "internalType": "bytes4",
          "name": "",
          "type": "bytes4"
        }
      ],
      "name": "supportsInterface",
      "outputs": [
        {
          "internalType": "bool",
          "name": "",
          "type": "bool"
        }
      ],
      "stateMutability": "view",
      "type": "function"
    },
    {
      "inputs": [],
      "name": "symbol",
      "outputs": [
        {
          "internalType": "string",
          "name": "",
          "type": "string"
        }
      ],
      "stateMutability": "view",
      "type": "function"
    },
    {
      "inputs": [
        {
          "internalType": "address",
          "name": "from",
          "type": "address"
        },
        {
          "internalType": "address",
          "name": "to",
          "type": "address"
        },
        {
          "internalType": "uint256",
          "name": "tokenID",
          "type": "uint256"
        }
      ],
      "name": "transferFrom",
      "outputs": [],
      "stateMutability": "payable",
      "type": "function"
    },
    {
      "inputs": [],
      "name": "withdrawEther",
      "outputs": [],
      "stateMutability": "payable",
      "type": "function"
    },
    {
      "inputs": [
        {
          "internalType": "address",
          "name": "token",
          "type": "address"
        }
      ],
      "name": "withdrawToken",
      "outputs": [],
      "stateMutability": "payable",
      "type": "function"
    },
    {
      "stateMutability": "payable",
      "type": "receive"
    }
  ],
  "bytecode": {
    "object": "0x6001610100818152601760f91b610120526080908152610140828152603f60f81b6101605260a052610180828152602160f81b6101a05260c0526102006040526101c0828152602360f81b6101e05260e0526200005f9190600462000482565b50604080516080810182526020808252808201819052918101829052606081019190915262000093906005906004620004d2565b5060408051608081018252600060a082018190527f6f010af653ebe3cb07d297a4ef13366103d392ceffa68dd48232e6e9ff2187bf60c0808401919091528351808403909101815260e0830184528051602091820120835283518082018390527f5f179612d7132c8ed24ba0e286d60d398c4aa1c234eb2274ca1bba47718e9d3181860152845180820386018152606091820186528051908301208285015284518083018490527f3275a893b2c93461554cf2a4dd7f413d56decdd6f3fdf0589dbb8bc4fd742386818701528551808203870181529082018652805190830120848601528451808301939093527face738c68088218d015fbdce138f062893d86818ac98932f7ce2907c5976fbde83860152845180840386018152928101909452815191012091810191909152620001d090600990600462000516565b50600d80546001600160a01b0319166e0c2e074ec69a0dfb2997ba6c7d2e1e1790556040805160808101825260018152600260208201526003918101919091526004606082018190526200022791600e9162000547565b506040805160808101825262030d408082526020820181905291810182905260608101919091526200025e90601290600462000592565b506016805460ff19166001179055601c80546001600160a01b031916905560408051635ab1bd5360e01b81529051600091635ab1bd539160048083019260809291908290030181865afa158015620002ba573d6000803e3d6000fd5b505050506040513d601f19601f82011682018060405250810190620002e09190620006a2565b604090810151601d80546001600160a01b0319166001600160a01b039283161790556401cf7c5800601f55601c54825163bd9a548b60e01b8152925191169163bd9a548b9160048083019260809291908290030181865afa1580156200034a573d6000803e3d6000fd5b505050506040513d601f19601f8201168201806040525081019062000370919062000712565b60400151602055602180546001600160a01b03191690553480156200039457600080fd5b5060405162002dc738038062002dc7833981016040819052620003b7916200076e565b6000805460176020527f4152fdd4960944ad2843ab0640e4bafb0ddf2caf06de54df701cf7a17df044aa8054600160ff1991821681179092557f6779f08d87897b1938d8ae1ed3d650e2616775c110ff5d98b7f82c079d97c7788054821683179055635b5e139f60e01b84527f244a57cf9422b23a74eac7556da7a02b4681eb0e2f9c3613963f0b44ad43886080549091169091179055602180546001600160a01b03199081166001600160a01b0395909516949094179055821633928316179091179055620008ee565b8260048101928215620004c0579160200282015b82811115620004c05782518290620004af908262000822565b509160200191906001019062000496565b50620004ce929150620005ca565b5090565b826004810192821562000508579160200282015b8281111562000508578251829060ff16905591602001919060010190620004e6565b50620004ce929150620005eb565b826004810192821562000508579160200282015b82811115620005085782518255916020019190600101906200052a565b826004810192821562000508579160200282015b828111156200050857825182546001600160a01b0319166001600160a01b039091161782556020909201916001909101906200055b565b826004810192821562000508579160200282015b8281111562000508578251829062ffffff16905591602001919060010190620005a6565b80821115620004ce576000620005e1828262000602565b50600101620005ca565b5b80821115620004ce5760008155600101620005ec565b508054620006109062000793565b6000825580601f1062000621575050565b601f016020900490600052602060002090810190620006419190620005eb565b50565b634e487b7160e01b600052604160045260246000fd5b604051608081016001600160401b03811182821017156200067f576200067f62000644565b60405290565b80516001600160a01b03811681146200069d57600080fd5b919050565b600060808284031215620006b557600080fd5b82601f830112620006c557600080fd5b620006cf6200065a565b806080840185811115620006e257600080fd5b845b818110156200070757620006f88162000685565b845260209384019301620006e4565b509095945050505050565b6000608082840312156200072557600080fd5b82601f8301126200073557600080fd5b6200073f6200065a565b8060808401858111156200075257600080fd5b845b818110156200070757805184526020938401930162000754565b6000602082840312156200078157600080fd5b6200078c8262000685565b9392505050565b600181811c90821680620007a857607f821691505b602082108103620007c957634e487b7160e01b600052602260045260246000fd5b50919050565b601f8211156200081d57600081815260208120601f850160051c81016020861015620007f85750805b601f850160051c820191505b81811015620008195782815560010162000804565b5050505b505050565b81516001600160401b038111156200083e576200083e62000644565b62000856816200084f845462000793565b84620007cf565b602080601f8311600181146200088e5760008415620008755750858301515b600019600386901b1c1916600185901b17855562000819565b600085815260208120601f198616915b82811015620008bf578886015182559484019460019091019084016200089e565b5085821015620008de5787850151600019600388901b60f8161c191681555b5050505050600190811b01905550565b6124c980620008fe6000396000f3fe60806040526004361061026e5760003560e01c8063828eab0e11610153578063bc31c1c1116100cb578063d9a9b0c61161007f578063ec478f2711610064578063ec478f27146106bd578063f079914f14610706578063f12e65481461072457600080fd5b8063d9a9b0c614610662578063e985e9c51461068257600080fd5b8063c0a43a7c116100b0578063c0a43a7c14610619578063c66485b21461062c578063c7876ea41461064c57600080fd5b8063bc31c1c1146105e4578063bd9a548b1461060457600080fd5b80639024d28211610122578063a22cb46511610107578063a22cb4651461059e578063b782426e146105b1578063b88d4fde146105d157600080fd5b80639024d2821461051f57806395d89b411461055557600080fd5b8063828eab0e146104ac57806388a8c95c146104cc57806389476069146104ec5780638dfcb1c7146104ff57600080fd5b806342842e0e116101e657806370a08231116101b55780637362377b1161019a5780637362377b146104575780637d73b2311461045f57806380b29beb1461047f57600080fd5b806370a082311461041757806370dec5f01461043757600080fd5b806342842e0e1461036d5780635ab1bd53146103b35780636352211e146103d5578063642a8ed6146103f557600080fd5b8063095ea7b31161023d57806323b872dd1161022257806323b872dd1461036d5780633932cd3314610380578063395063081461039357600080fd5b8063095ea7b3146103345780630e6c0bdb1461034957600080fd5b806301e51ae81461027d57806301ffc9a7146102ba57806302fb0c5e146102fa57806305e84aa01461031457600080fd5b3661027857600080fd5b600080fd5b34801561028957600080fd5b5060005461029d906001600160a01b031681565b6040516001600160a01b0390911681526020015b60405180910390f35b3480156102c657600080fd5b506102ea6102d5366004611d56565b60176020526000908152604090205460ff1681565b60405190151581526020016102b1565b34801561030657600080fd5b506016546102ea9060ff1681565b34801561032057600080fd5b50601d5461029d906001600160a01b031681565b610347610342366004611d8f565b610744565b005b34801561035557600080fd5b5061035f601f5481565b6040519081526020016102b1565b61034761037b366004611dbb565b61086d565b61035f61038e366004611ea1565b61088d565b34801561039f57600080fd5b506103476103ae366004611f5e565b611168565b3480156103bf57600080fd5b506103c86111c6565b6040516102b19190611f77565b3480156103e157600080fd5b5061029d6103f0366004611f5e565b61120b565b34801561040157600080fd5b5061040a61128b565b6040516102b19190611fb1565b34801561042357600080fd5b5061035f610432366004611fd9565b6112c6565b34801561044357600080fd5b5061029d610452366004611f5e565b61133a565b61034761135a565b34801561046b57600080fd5b50600d5461029d906001600160a01b031681565b34801561048b57600080fd5b5061049f61049a366004611f5e565b611400565b6040516102b19190612046565b3480156104b857600080fd5b5060225461029d906001600160a01b031681565b3480156104d857600080fd5b506103476104e7366004611fd9565b6114a0565b6103476104fa366004611fd9565b61157a565b34801561050b57600080fd5b5061035f61051a366004611f5e565b6116a0565b34801561052b57600080fd5b5061029d61053a366004611f5e565b601a602052600090815260409020546001600160a01b031681565b34801561056157600080fd5b5061049f6040518060400160405280600381526020017f484d53000000000000000000000000000000000000000000000000000000000081525081565b6103476105ac366004612067565b6116b7565b3480156105bd57600080fd5b50601c5461029d906001600160a01b031681565b6103476105df3660046120a0565b611741565b3480156105f057600080fd5b5061035f6105ff366004611f5e565b611753565b34801561061057600080fd5b5061040a611763565b610347610627366004612120565b611799565b34801561063857600080fd5b50610347610647366004611fd9565b6118c6565b34801561065857600080fd5b5061035f60205481565b34801561066e57600080fd5b5061035f61067d366004611f5e565b611959565b34801561068e57600080fd5b506102ea61069d36600461213e565b601b60209081526000928352604080842090915290825290205460ff1681565b3480156106c957600080fd5b5061049f6040518060400160405280601781526020017f48656c697832204d6f6c6563756c65205365727669636500000000000000000081525081565b34801561071257600080fd5b506000546001600160a01b031661029d565b34801561073057600080fd5b5060215461029d906001600160a01b031681565b6000818152601860205260409020546001600160a01b03163314158061079757506000818152601860209081526040808320546001600160a01b03168352601b825280832033845290915290205460ff16155b156107fc57600081815260186020526040908190205490517f431ef6160000000000000000000000000000000000000000000000000000000081523360048201526001600160a01b039091166024820152604481018290526064015b60405180910390fd5b6000818152601a602052604080822080547fffffffffffffffffffffffff0000000000000000000000000000000000000000166001600160a01b0386169081179091559051839233917f8c5be1e5ebec7d5bd14f71427d1e84f3dd0314c0f7b2291e5b200ac8c7c3b9259190a45050565b61088883838360405180602001604052806000815250611969565b505050565b602154600090869082906001600160a01b03166302571be3600960020154846040516020016108bc919061216c565b604051602081830303815290604052805190602001206040516020016108ec929190918252602082015260400190565b604051602081830303815290604052805190602001206040518263ffffffff1660e01b815260040161092091815260200190565b602060405180830381865afa15801561093d573d6000803e3d6000fd5b505050506040513d601f19601f820116820180604052508101906109619190612188565b601d546040517f02571be3000000000000000000000000000000000000000000000000000000008152600481018390529192506000916001600160a01b03909116906302571be390602401602060405180830381865afa1580156109c9573d6000803e3d6000fd5b505050506040513d601f19601f820116820180604052508101906109ed91906121a1565b90506001600160a01b03811615610a465760405162461bcd60e51b815260206004820152600f60248201527f4d4f4c4543554c455f455849535453000000000000000000000000000000000060448201526064016107f3565b88600560020154815111610a9c5760405162461bcd60e51b815260206004820152600d60248201527f494c4c4547414c5f4c4142454c0000000000000000000000000000000000000060448201526064016107f3565b6040517fa6470fd600000000000000000000000000000000000000000000000000000000815273__$47e4ffaaf323c41735ff299f8946896ce0$__9063a6470fd690610aef908490600190600401612211565b602060405180830381865af4158015610b0c573d6000803e3d6000fd5b505050506040513d601f19601f82011682018060405250810190610b30919061233f565b15610b7d5760405162461bcd60e51b815260206004820152600d60248201527f494c4c4547414c5f43484152530000000000000000000000000000000000000060448201526064016107f3565b89600060096002015482604051602001610b97919061216c565b60405160208183030381529060405280519060200120604051602001610bc7929190918252602082015260400190565b60408051808303601f190181529082905280516020909101206021547fd2ec5fca0000000000000000000000000000000000000000000000000000000083526004830182905290925042916001600160a01b039091169063d2ec5fca90602401602060405180830381865afa158015610c44573d6000803e3d6000fd5b505050506040513d601f19601f82011682018060405250810190610c689190612188565b10610cb55760405162461bcd60e51b815260206004820152601460248201527f4d4f4c4543554c455f4e4f545f4558504952454400000000000000000000000060448201526064016107f3565b601d546040517f02571be3000000000000000000000000000000000000000000000000000000008152600481018d90526000916001600160a01b0316906302571be390602401602060405180830381865afa158015610d18573d6000803e3d6000fd5b505050506040513d601f19601f82011682018060405250810190610d3c91906121a1565b9050601f54891015610d905760405162461bcd60e51b815260206004820152601260248201527f4c4946455350414e5f544f4f5f53484f5254000000000000000000000000000060448201526064016107f3565b88602054610d9e919061238b565b341015610ded5760405162461bcd60e51b815260206004820152601260248201527f494e53554646494349454e545f4554484552000000000000000000000000000060448201526064016107f3565b60006009600201548e604051602001610e06919061216c565b60405160208183030381529060405280519060200120604051602001610e36929190918252602082015260400190565b604051602081830303815290604052805190602001209050602160009054906101000a90046001600160a01b03166001600160a01b0316631fb63bb6828f6040518363ffffffff1660e01b8152600401610e9a929190918252602082015260400190565b600060405180830381600087803b158015610eb457600080fd5b505af1158015610ec8573d6000803e3d6000fd5b50505050602160009054906101000a90046001600160a01b03166001600160a01b0316633e0f548e828e8e6040518463ffffffff1660e01b8152600401610f11939291906123c8565b600060405180830381600087803b158015610f2b57600080fd5b505af1158015610f3f573d6000803e3d6000fd5b50506021546001600160a01b031691506339de6469905082610f618d42612421565b6040517fffffffff0000000000000000000000000000000000000000000000000000000060e085901b16815260048101929092526024820152604401600060405180830381600087803b158015610fb757600080fd5b505af1158015610fcb573d6000803e3d6000fd5b50506021546040517fd3156905000000000000000000000000000000000000000000000000000000008152600481018590526001600160a01b038681166024830152909116925063d31569059150604401600060405180830381600087803b15801561103657600080fd5b505af115801561104a573d6000803e3d6000fd5b50506021546022546040517f1896f70a000000000000000000000000000000000000000000000000000000008152600481018690526001600160a01b03918216602482015291169250631896f70a9150604401600060405180830381600087803b1580156110b757600080fd5b505af11580156110cb573d6000803e3d6000fd5b505050600082815260186020908152604080832080547fffffffffffffffffffffffff0000000000000000000000000000000000000000166001600160a01b038816908117909155835260198252918290208054600101905590518f81528392507f5eae6375e459aef4ec6bf72041338acc8725dfdbdc5bc2f63387d3379ffb9003910160405180910390a29d9c50505050505050505050505050565b6000546001600160a01b031633146111c1576000546040517f8ea458f60000000000000000000000000000000000000000000000000000000081526001600160a01b0390911660048201523360248201526044016107f3565b601f55565b6111ce611d0a565b60408051608081019182905290600e9060049082845b81546001600160a01b031681526001909101906020018083116111e4575050505050905090565b6000818152601860205260408120546001600160a01b031661126f5760405162461bcd60e51b815260206004820152600f60248201527f494e56414c49445f544f4b454e4944000000000000000000000000000000000060448201526064016107f3565b506000908152601860205260409020546001600160a01b031690565b611293611d0a565b6040805160808101918290529060099060049082845b8154815260200190600101908083116112a9575050505050905090565b60006001600160a01b03821661131e5760405162461bcd60e51b815260206004820152600c60248201527f5a45524f5f41444452455353000000000000000000000000000000000000000060448201526064016107f3565b506001600160a01b031660009081526019602052604090205490565b600e816004811061134a57600080fd5b01546001600160a01b0316905081565b600080546040516001600160a01b039091169047908381818185875af1925050503d80600081146113a7576040519150601f19603f3d011682016040523d82523d6000602084013e6113ac565b606091505b50509050806113fd5760405162461bcd60e51b815260206004820152601360248201527f4554485f5452414e534645525f4641494c45440000000000000000000000000060448201526064016107f3565b50565b6001816004811061141057600080fd5b01805490915061141f906121be565b80601f016020809104026020016040519081016040528092919081815260200182805461144b906121be565b80156114985780601f1061146d57610100808354040283529160200191611498565b820191906000526020600020905b81548152906001019060200180831161147b57829003601f168201915b505050505081565b6000546001600160a01b031633146114f9576000546040517f8ea458f60000000000000000000000000000000000000000000000000000000081526001600160a01b0390911660048201523360248201526044016107f3565b600054604080516001600160a01b03928316815291831660208301527fdec101f106d4fc7c85791843e64b198248c822298e3ed7046231d33f7783d816910160405180910390a1600080547fffffffffffffffffffffffff0000000000000000000000000000000000000000166001600160a01b0392909216919091179055565b6000546040517f70a0823100000000000000000000000000000000000000000000000000000000815230600482018190526001600160a01b03848116936323b872dd9391169084906370a0823190602401602060405180830381865afa1580156115e8573d6000803e3d6000fd5b505050506040513d601f19601f8201168201806040525081019061160c9190612188565b6040517fffffffff0000000000000000000000000000000000000000000000000000000060e086901b1681526001600160a01b03938416600482015292909116602483015260448201526064016020604051808303816000875af1158015611678573d6000803e3d6000fd5b505050506040513d601f19601f8201168201806040525081019061169c919061233f565b5050565b600981600481106116b057600080fd5b0154905081565b336000818152601b602090815260408083206001600160a01b0387168085529083529281902080547fffffffffffffffffffffffffffffffffffffffffffffffffffffffffffffff001686151590811790915590519081529192917f17307eab39ab6107e8899845ad3d59bd9653f200f220920489ca2b5937696c31910160405180910390a35050565b61174d84848484611969565b50505050565b601281600481106116b057600080fd5b61176b611d0a565b60408051608081019182905260128054825290916004906013602085018083116112a9575050505050905090565b6000546001600160a01b031633146117f2576000546040517f8ea458f60000000000000000000000000000000000000000000000000000000081526001600160a01b0390911660048201523360248201526044016107f3565b7fffffffff0000000000000000000000000000000000000000000000000000000080831690036118645760405162461bcd60e51b815260206004820152601a60248201527f494e56414c49445f494e544552464143455f53454c4543544f5200000000000060448201526064016107f3565b7fffffffff0000000000000000000000000000000000000000000000000000000091909116600090815260176020526040902080547fffffffffffffffffffffffffffffffffffffffffffffffffffffffffffffff0016911515919091179055565b6000546001600160a01b0316331461191f576000546040517f8ea458f60000000000000000000000000000000000000000000000000000000081526001600160a01b0390911660048201523360248201526044016107f3565b602280547fffffffffffffffffffffffff0000000000000000000000000000000000000000166001600160a01b0392909216919091179055565b600581600481106116b057600080fd5b6001600160a01b0383166119a9576040517f5788079900000000000000000000000000000000000000000000000000000000815260040160405180910390fd5b6000828152601860205260409020546001600160a01b03858116911614611a2757600082815260186020526040908190205490517f431ef6160000000000000000000000000000000000000000000000000000000081526001600160a01b0391821660048201529085166024820152604481018390526064016107f3565b6000828152601860205260409020546001600160a01b03163314801590611a7257506001600160a01b0384166000908152601b6020908152604080832033845290915290205460ff16155b8015611a9557506000828152601a60205260409020546001600160a01b03163314155b15611ae4576040517f431ef6160000000000000000000000000000000000000000000000000000000081523360048201526001600160a01b0385166024820152604481018390526064016107f3565b6000828152601a6020908152604080832080547fffffffffffffffffffffffff00000000000000000000000000000000000000009081169091556018835281842080546001600160a01b03898116919093168117909155908816808552601990935281842080547fffffffffffffffffffffffffffffffffffffffffffffffffffffffffffffffff01905580845281842080546001019055905185939192917fddf252ad1be2c89b69c2b068fc378daa952ba7f163c4a11628f55a4df523b3ef91a46001600160a01b0383163b1561174d576040517f150b7a020000000000000000000000000000000000000000000000000000000081526001600160a01b0384169063150b7a0290611c0190339088908790879060040161243a565b6020604051808303816000875af1925050508015611c3c575060408051601f3d908101601f19168201909252611c3991810190612476565b60015b611c7d576040517f3a9f8cb30000000000000000000000000000000000000000000000000000000081526001600160a01b03841660048201526024016107f3565b7fffffffff0000000000000000000000000000000000000000000000000000000081167f150b7a020000000000000000000000000000000000000000000000000000000014611d03576040517f3a9f8cb30000000000000000000000000000000000000000000000000000000081526001600160a01b03851660048201526024016107f3565b5050505050565b60405180608001604052806004906020820280368337509192915050565b7fffffffff00000000000000000000000000000000000000000000000000000000811681146113fd57600080fd5b600060208284031215611d6857600080fd5b8135611d7381611d28565b9392505050565b6001600160a01b03811681146113fd57600080fd5b60008060408385031215611da257600080fd5b8235611dad81611d7a565b946020939093013593505050565b600080600060608486031215611dd057600080fd5b8335611ddb81611d7a565b92506020840135611deb81611d7a565b929592945050506040919091013590565b7f4e487b7100000000000000000000000000000000000000000000000000000000600052604160045260246000fd5b600067ffffffffffffffff80841115611e4657611e46611dfc565b604051601f8501601f19908116603f01168101908282118183101715611e6e57611e6e611dfc565b81604052809350858152868686011115611e8757600080fd5b858560208301376000602087830101525050509392505050565b600080600080600060808688031215611eb957600080fd5b853567ffffffffffffffff80821115611ed157600080fd5b818801915088601f830112611ee557600080fd5b611ef489833560208501611e2b565b9650602088013595506040880135915080821115611f1157600080fd5b818801915088601f830112611f2557600080fd5b813581811115611f3457600080fd5b8960208260051b8501011115611f4957600080fd5b96999598505060200195606001359392505050565b600060208284031215611f7057600080fd5b5035919050565b60808101818360005b6004811015611fa85781516001600160a01b0316835260209283019290910190600101611f80565b50505092915050565b60808101818360005b6004811015611fa8578151835260209283019290910190600101611fba565b600060208284031215611feb57600080fd5b8135611d7381611d7a565b60005b83811015612011578181015183820152602001611ff9565b50506000910152565b60008151808452612032816020860160208601611ff6565b601f01601f19169290920160200192915050565b602081526000611d73602083018461201a565b80151581146113fd57600080fd5b6000806040838503121561207a57600080fd5b823561208581611d7a565b9150602083013561209581612059565b809150509250929050565b600080600080608085870312156120b657600080fd5b84356120c181611d7a565b935060208501356120d181611d7a565b925060408501359150606085013567ffffffffffffffff8111156120f457600080fd5b8501601f8101871361210557600080fd5b61211487823560208401611e2b565b91505092959194509250565b6000806040838503121561213357600080fd5b823561208581611d28565b6000806040838503121561215157600080fd5b823561215c81611d7a565b9150602083013561209581611d7a565b6000825161217e818460208701611ff6565b9190910192915050565b60006020828403121561219a57600080fd5b5051919050565b6000602082840312156121b357600080fd5b8151611d7381611d7a565b600181811c908216806121d257607f821691505b60208210810361220b577f4e487b7100000000000000000000000000000000000000000000000000000000600052602260045260246000fd5b50919050565b604081526000612224604083018561201a565b60208382038185015281829050608083018660005b60048082106122485750612331565b86840385528254600090600181811c908083168061226757607f831692505b8a8310810361229c577f4e487b7100000000000000000000000000000000000000000000000000000000855260228652602485fd5b8289526020890195508080156122b957600181146122ed57612318565b7fffffffffffffffffffffffffffffffffffffffffffffffffffffffffffffff008516875283151560051b87019550612318565b60008981526020902060005b8581101561231257815489820152908401908d016122f9565b88019650505b5050978901979296505050929092019150600101612239565b509098975050505050505050565b60006020828403121561235157600080fd5b8151611d7381612059565b7f4e487b7100000000000000000000000000000000000000000000000000000000600052601160045260246000fd5b6000817fffffffffffffffffffffffffffffffffffffffffffffffffffffffffffffffff04831182151516156123c3576123c361235c565b500290565b8381526040602082015281604082015260007f07ffffffffffffffffffffffffffffffffffffffffffffffffffffffffffffff83111561240757600080fd5b8260051b8085606085013791909101606001949350505050565b808201808211156124345761243461235c565b92915050565b60006001600160a01b0380871683528086166020840152508360408301526080606083015261246c608083018461201a565b9695505050505050565b60006020828403121561248857600080fd5b8151611d7381611d2856fea2646970667358221220d87d533cdcc417d036519bb27f7380c8b2e0f28e2627d6e815af22be03a750c464736f6c63430008100033",
    "linkReferences": {
      "src/Utils/LibString.sol": {
        "LibString": [
          {
            "start": 5058,
            "length": 20
          }
        ]
      }
    }
  },
  "methodIdentifiers": {
    "Dev()": "01e51ae8",
    "HELIX2()": "b782426e",
    "MOLECULES()": "f12e6548",
    "NAMES()": "05e84aa0",
    "_approved(uint256)": "9024d282",
    "active()": "02fb0c5e",
    "approve(address,uint256)": "095ea7b3",
    "balanceOf(address)": "70a08231",
    "basePrice()": "c7876ea4",
    "changeDev(address)": "88a8c95c",
    "defaultLifespan()": "0e6c0bdb",
    "defaultResolver()": "828eab0e",
    "ensRegistry()": "7d73b231",
    "getPrices()": "bd9a548b",
    "getRegistry()": "5ab1bd53",
    "getRoothash()": "642a8ed6",
    "helix2Registry(uint256)": "70dec5f0",
    "illegalBlocks(uint256)": "80b29beb",
    "isApprovedForAll(address,address)": "e985e9c5",
    "isDev()": "f079914f",
    "molecule()": "ec478f27",
    "newMolecule(string,bytes32,bytes32[],uint256)": "3932cd33",
    "ownerOf(uint256)": "6352211e",
    "prices(uint256)": "bc31c1c1",
    "roothash(uint256)": "8dfcb1c7",
    "safeTransferFrom(address,address,uint256)": "42842e0e",
    "safeTransferFrom(address,address,uint256,bytes)": "b88d4fde",
    "setApprovalForAll(address,bool)": "a22cb465",
    "setDefaultLifespan(uint256)": "39506308",
    "setDefaultResolver(address)": "c66485b2",
    "setInterface(bytes4,bool)": "c0a43a7c",
    "sizes(uint256)": "d9a9b0c6",
    "supportsInterface(bytes4)": "01ffc9a7",
    "symbol()": "95d89b41",
    "transferFrom(address,address,uint256)": "23b872dd",
    "withdrawEther()": "7362377b",
    "withdrawToken(address)": "89476069"
  },
  "id": 11
}