{
  "abi": [
    {
      "inputs": [
        {
          "internalType": "address",
          "name": "_registry",
          "type": "address"
        }
      ],
      "stateMutability": "nonpayable",
      "type": "constructor"
    },
    {
      "inputs": [],
      "name": "CannotBurn",
      "type": "error"
    },
    {
      "inputs": [
        {
          "internalType": "address",
          "name": "to",
          "type": "address"
        }
      ],
      "name": "ERC721IncompatibleReceiver",
      "type": "error"
    },
    {
      "inputs": [
        {
          "internalType": "address",
          "name": "_dev",
          "type": "address"
        },
        {
          "internalType": "address",
          "name": "_you",
          "type": "address"
        }
      ],
      "name": "OnlyDev",
      "type": "error"
    },
    {
      "inputs": [
        {
          "internalType": "address",
          "name": "operator",
          "type": "address"
        },
        {
          "internalType": "address",
          "name": "owner",
          "type": "address"
        },
        {
          "internalType": "uint256",
          "name": "tokenID",
          "type": "uint256"
        }
      ],
      "name": "Unauthorized",
      "type": "error"
    },
    {
      "anonymous": false,
      "inputs": [
        {
          "indexed": true,
          "internalType": "address",
          "name": "owner",
          "type": "address"
        },
        {
          "indexed": true,
          "internalType": "address",
          "name": "spender",
          "type": "address"
        },
        {
          "indexed": true,
          "internalType": "uint256",
          "name": "tokenID",
          "type": "uint256"
        }
      ],
      "name": "Approval",
      "type": "event"
    },
    {
      "anonymous": false,
      "inputs": [
        {
          "indexed": true,
          "internalType": "address",
          "name": "owner",
          "type": "address"
        },
        {
          "indexed": true,
          "internalType": "address",
          "name": "operator",
          "type": "address"
        },
        {
          "indexed": false,
          "internalType": "bool",
          "name": "approved",
          "type": "bool"
        }
      ],
      "name": "ApprovalForAll",
      "type": "event"
    },
    {
      "anonymous": false,
      "inputs": [
        {
          "indexed": true,
          "internalType": "bytes32",
          "name": "moleculehash",
          "type": "bytes32"
        },
        {
          "indexed": false,
          "internalType": "bytes32",
          "name": "cation",
          "type": "bytes32"
        }
      ],
      "name": "NewCation",
      "type": "event"
    },
    {
      "anonymous": false,
      "inputs": [
        {
          "indexed": true,
          "internalType": "bytes32",
          "name": "moleculehash",
          "type": "bytes32"
        },
        {
          "indexed": false,
          "internalType": "address",
          "name": "controller",
          "type": "address"
        }
      ],
      "name": "NewController",
      "type": "event"
    },
    {
      "anonymous": false,
      "inputs": [
        {
          "indexed": false,
          "internalType": "address",
          "name": "Dev",
          "type": "address"
        },
        {
          "indexed": false,
          "internalType": "address",
          "name": "newDev",
          "type": "address"
        }
      ],
      "name": "NewDev",
      "type": "event"
    },
    {
      "anonymous": false,
      "inputs": [
        {
          "indexed": true,
          "internalType": "bytes32",
          "name": "moleculehash",
          "type": "bytes32"
        },
        {
          "indexed": false,
          "internalType": "uint256",
          "name": "expiry",
          "type": "uint256"
        }
      ],
      "name": "NewExpiry",
      "type": "event"
    },
    {
      "anonymous": false,
      "inputs": [
        {
          "indexed": true,
          "internalType": "bytes32",
          "name": "moleculehash",
          "type": "bytes32"
        },
        {
          "indexed": false,
          "internalType": "bytes32",
          "name": "cation",
          "type": "bytes32"
        }
      ],
      "name": "NewMolecule",
      "type": "event"
    },
    {
      "anonymous": false,
      "inputs": [
        {
          "indexed": true,
          "internalType": "bytes32",
          "name": "moleculehash",
          "type": "bytes32"
        },
        {
          "indexed": false,
          "internalType": "address",
          "name": "resolver",
          "type": "address"
        }
      ],
      "name": "NewRecord",
      "type": "event"
    },
    {
      "anonymous": false,
      "inputs": [
        {
          "indexed": true,
          "internalType": "bytes32",
          "name": "moleculehash",
          "type": "bytes32"
        },
        {
          "indexed": false,
          "internalType": "address",
          "name": "resolver",
          "type": "address"
        }
      ],
      "name": "NewResolver",
      "type": "event"
    },
    {
      "anonymous": false,
      "inputs": [
        {
          "indexed": true,
          "internalType": "address",
          "name": "from",
          "type": "address"
        },
        {
          "indexed": true,
          "internalType": "address",
          "name": "to",
          "type": "address"
        },
        {
          "indexed": true,
          "internalType": "uint256",
          "name": "tokenID",
          "type": "uint256"
        }
      ],
      "name": "Transfer",
      "type": "event"
    },
    {
      "stateMutability": "payable",
      "type": "fallback"
    },
    {
      "inputs": [],
      "name": "Dev",
      "outputs": [
        {
          "internalType": "address",
          "name": "",
          "type": "address"
        }
      ],
      "stateMutability": "view",
      "type": "function"
    },
    {
      "inputs": [],
      "name": "HELIX2",
      "outputs": [
        {
          "internalType": "contract iHELIX2",
          "name": "",
          "type": "address"
        }
      ],
      "stateMutability": "view",
      "type": "function"
    },
    {
      "inputs": [],
      "name": "MOLECULES",
      "outputs": [
        {
          "internalType": "contract iMOLECULE",
          "name": "",
          "type": "address"
        }
      ],
      "stateMutability": "view",
      "type": "function"
    },
    {
      "inputs": [],
      "name": "NAMES",
      "outputs": [
        {
          "internalType": "contract iNAME",
          "name": "",
          "type": "address"
        }
      ],
      "stateMutability": "view",
      "type": "function"
    },
    {
      "inputs": [
        {
          "internalType": "uint256",
          "name": "",
          "type": "uint256"
        }
      ],
      "name": "_approved",
      "outputs": [
        {
          "internalType": "address",
          "name": "",
          "type": "address"
        }
      ],
      "stateMutability": "view",
      "type": "function"
    },
    {
      "inputs": [],
      "name": "active",
      "outputs": [
        {
          "internalType": "bool",
          "name": "",
          "type": "bool"
        }
      ],
      "stateMutability": "view",
      "type": "function"
    },
    {
      "inputs": [
        {
          "internalType": "address",
          "name": "controller",
          "type": "address"
        },
        {
          "internalType": "uint256",
          "name": "tokenID",
          "type": "uint256"
        }
      ],
      "name": "approve",
      "outputs": [],
      "stateMutability": "payable",
      "type": "function"
    },
    {
      "inputs": [
        {
          "internalType": "address",
          "name": "wallet",
          "type": "address"
        }
      ],
      "name": "balanceOf",
      "outputs": [
        {
          "internalType": "uint256",
          "name": "",
          "type": "uint256"
        }
      ],
      "stateMutability": "view",
      "type": "function"
    },
    {
      "inputs": [],
      "name": "basePrice",
      "outputs": [
        {
          "internalType": "uint256",
          "name": "",
          "type": "uint256"
        }
      ],
      "stateMutability": "view",
      "type": "function"
    },
    {
      "inputs": [
        {
          "internalType": "address",
          "name": "newDev",
          "type": "address"
        }
      ],
      "name": "changeDev",
      "outputs": [],
      "stateMutability": "nonpayable",
      "type": "function"
    },
    {
      "inputs": [],
      "name": "defaultLifespan",
      "outputs": [
        {
          "internalType": "uint256",
          "name": "",
          "type": "uint256"
        }
      ],
      "stateMutability": "view",
      "type": "function"
    },
    {
      "inputs": [],
      "name": "defaultResolver",
      "outputs": [
        {
          "internalType": "address",
          "name": "",
          "type": "address"
        }
      ],
      "stateMutability": "view",
      "type": "function"
    },
    {
      "inputs": [],
      "name": "ensRegistry",
      "outputs": [
        {
          "internalType": "address",
          "name": "",
          "type": "address"
        }
      ],
      "stateMutability": "view",
      "type": "function"
    },
    {
      "inputs": [],
      "name": "getPrices",
      "outputs": [
        {
          "internalType": "uint256[4]",
          "name": "",
          "type": "uint256[4]"
        }
      ],
      "stateMutability": "view",
      "type": "function"
    },
    {
      "inputs": [],
      "name": "getRegistry",
      "outputs": [
        {
          "internalType": "address[4]",
          "name": "",
          "type": "address[4]"
        }
      ],
      "stateMutability": "view",
      "type": "function"
    },
    {
      "inputs": [],
      "name": "getRoothash",
      "outputs": [
        {
          "internalType": "bytes32[4]",
          "name": "",
          "type": "bytes32[4]"
        }
      ],
      "stateMutability": "view",
      "type": "function"
    },
    {
      "inputs": [
        {
          "internalType": "uint256",
          "name": "",
          "type": "uint256"
        }
      ],
      "name": "helix2Registry",
      "outputs": [
        {
          "internalType": "address",
          "name": "",
          "type": "address"
        }
      ],
      "stateMutability": "view",
      "type": "function"
    },
    {
      "inputs": [
        {
          "internalType": "uint256",
          "name": "",
          "type": "uint256"
        }
      ],
      "name": "illegalBlocks",
      "outputs": [
        {
          "internalType": "string",
          "name": "",
          "type": "string"
        }
      ],
      "stateMutability": "view",
      "type": "function"
    },
    {
      "inputs": [
        {
          "internalType": "address",
          "name": "",
          "type": "address"
        },
        {
          "internalType": "address",
          "name": "",
          "type": "address"
        }
      ],
      "name": "isApprovedForAll",
      "outputs": [
        {
          "internalType": "bool",
          "name": "",
          "type": "bool"
        }
      ],
      "stateMutability": "view",
      "type": "function"
    },
    {
      "inputs": [],
      "name": "isDev",
      "outputs": [
        {
          "internalType": "address",
          "name": "",
          "type": "address"
        }
      ],
      "stateMutability": "view",
      "type": "function"
    },
    {
      "inputs": [],
      "name": "molecule",
      "outputs": [
        {
          "internalType": "string",
          "name": "",
          "type": "string"
        }
      ],
      "stateMutability": "view",
      "type": "function"
    },
    {
      "inputs": [
        {
          "internalType": "string",
          "name": "_alias",
          "type": "string"
        },
        {
          "internalType": "bytes32",
          "name": "cation",
          "type": "bytes32"
        },
        {
          "internalType": "bytes32[]",
          "name": "anion",
          "type": "bytes32[]"
        },
        {
          "internalType": "uint256",
          "name": "lifespan",
          "type": "uint256"
        }
      ],
      "name": "newMolecule",
      "outputs": [
        {
          "internalType": "bytes32",
          "name": "",
          "type": "bytes32"
        }
      ],
      "stateMutability": "payable",
      "type": "function"
    },
    {
      "inputs": [
        {
          "internalType": "uint256",
          "name": "tokenID",
          "type": "uint256"
        }
      ],
      "name": "ownerOf",
      "outputs": [
        {
          "internalType": "address",
          "name": "",
          "type": "address"
        }
      ],
      "stateMutability": "view",
      "type": "function"
    },
    {
      "inputs": [
        {
          "internalType": "uint256",
          "name": "",
          "type": "uint256"
        }
      ],
      "name": "prices",
      "outputs": [
        {
          "internalType": "uint256",
          "name": "",
          "type": "uint256"
        }
      ],
      "stateMutability": "view",
      "type": "function"
    },
    {
      "inputs": [
        {
          "internalType": "uint256",
          "name": "",
          "type": "uint256"
        }
      ],
      "name": "roothash",
      "outputs": [
        {
          "internalType": "bytes32",
          "name": "",
          "type": "bytes32"
        }
      ],
      "stateMutability": "view",
      "type": "function"
    },
    {
      "inputs": [
        {
          "internalType": "address",
          "name": "from",
          "type": "address"
        },
        {
          "internalType": "address",
          "name": "to",
          "type": "address"
        },
        {
          "internalType": "uint256",
          "name": "tokenID",
          "type": "uint256"
        }
      ],
      "name": "safeTransferFrom",
      "outputs": [],
      "stateMutability": "payable",
      "type": "function"
    },
    {
      "inputs": [
        {
          "internalType": "address",
          "name": "from",
          "type": "address"
        },
        {
          "internalType": "address",
          "name": "to",
          "type": "address"
        },
        {
          "internalType": "uint256",
          "name": "tokenID",
          "type": "uint256"
        },
        {
          "internalType": "bytes",
          "name": "data",
          "type": "bytes"
        }
      ],
      "name": "safeTransferFrom",
      "outputs": [],
      "stateMutability": "payable",
      "type": "function"
    },
    {
      "inputs": [
        {
          "internalType": "address",
          "name": "controller",
          "type": "address"
        },
        {
          "internalType": "bool",
          "name": "flag",
          "type": "bool"
        }
      ],
      "name": "setApprovalForAll",
      "outputs": [],
      "stateMutability": "payable",
      "type": "function"
    },
    {
      "inputs": [
        {
          "internalType": "uint256",
          "name": "_lifespan",
          "type": "uint256"
        }
      ],
      "name": "setDefaultLifespan",
      "outputs": [],
      "stateMutability": "nonpayable",
      "type": "function"
    },
    {
      "inputs": [
        {
          "internalType": "address",
          "name": "_resolver",
          "type": "address"
        }
      ],
      "name": "setDefaultResolver",
      "outputs": [],
      "stateMutability": "nonpayable",
      "type": "function"
    },
    {
      "inputs": [
        {
          "internalType": "bytes4",
          "name": "sig",
          "type": "bytes4"
        },
        {
          "internalType": "bool",
          "name": "value",
          "type": "bool"
        }
      ],
      "name": "setInterface",
      "outputs": [],
      "stateMutability": "payable",
      "type": "function"
    },
    {
      "inputs": [
        {
          "internalType": "uint256",
          "name": "",
          "type": "uint256"
        }
      ],
      "name": "sizes",
      "outputs": [
        {
          "internalType": "uint256",
          "name": "",
          "type": "uint256"
        }
      ],
      "stateMutability": "view",
      "type": "function"
    },
    {
      "inputs": [
        {
          "internalType": "bytes4",
          "name": "",
          "type": "bytes4"
        }
      ],
      "name": "supportsInterface",
      "outputs": [
        {
          "internalType": "bool",
          "name": "",
          "type": "bool"
        }
      ],
      "stateMutability": "view",
      "type": "function"
    },
    {
      "inputs": [],
      "name": "symbol",
      "outputs": [
        {
          "internalType": "string",
          "name": "",
          "type": "string"
        }
      ],
      "stateMutability": "view",
      "type": "function"
    },
    {
      "inputs": [
        {
          "internalType": "address",
          "name": "from",
          "type": "address"
        },
        {
          "internalType": "address",
          "name": "to",
          "type": "address"
        },
        {
          "internalType": "uint256",
          "name": "tokenID",
          "type": "uint256"
        }
      ],
      "name": "transferFrom",
      "outputs": [],
      "stateMutability": "payable",
      "type": "function"
    },
    {
      "inputs": [],
      "name": "withdrawEther",
      "outputs": [],
      "stateMutability": "payable",
      "type": "function"
    },
    {
      "inputs": [
        {
          "internalType": "address",
          "name": "token",
          "type": "address"
        }
      ],
      "name": "withdrawToken",
      "outputs": [],
      "stateMutability": "payable",
      "type": "function"
    },
    {
      "stateMutability": "payable",
      "type": "receive"
    }
  ],
  "bytecode": {
    "object": "0x6001610100818152601760f91b610120526080908152610140828152603f60f81b6101605260a052610180828152602160f81b6101a05260c0526102006040526101c0828152602360f81b6101e05260e0526200005f9190600462000482565b50604080516080810182526020808252808201819052918101829052606081019190915262000093906005906004620004d2565b5060408051608081018252600060a082018190527f6f010af653ebe3cb07d297a4ef13366103d392ceffa68dd48232e6e9ff2187bf60c0808401919091528351808403909101815260e0830184528051602091820120835283518082018390527f5f179612d7132c8ed24ba0e286d60d398c4aa1c234eb2274ca1bba47718e9d3181860152845180820386018152606091820186528051908301208285015284518083018490527f3275a893b2c93461554cf2a4dd7f413d56decdd6f3fdf0589dbb8bc4fd742386818701528551808203870181529082018652805190830120848601528451808301939093527face738c68088218d015fbdce138f062893d86818ac98932f7ce2907c5976fbde83860152845180840386018152928101909452815191012091810191909152620001d090600990600462000516565b50600d80546001600160a01b0319166e0c2e074ec69a0dfb2997ba6c7d2e1e1790556040805160808101825260018152600260208201526003918101919091526004606082018190526200022791600e9162000547565b506040805160808101825262030d408082526020820181905291810182905260608101919091526200025e90601290600462000592565b506016805460ff19166001179055601c80546001600160a01b031916905560408051635ab1bd5360e01b81529051600091635ab1bd539160048083019260809291908290030181865afa158015620002ba573d6000803e3d6000fd5b505050506040513d601f19601f82011682018060405250810190620002e09190620006a2565b604090810151601d80546001600160a01b0319166001600160a01b039283161790556401cf7c5800601f55601c54825163bd9a548b60e01b8152925191169163bd9a548b9160048083019260809291908290030181865afa1580156200034a573d6000803e3d6000fd5b505050506040513d601f19601f8201168201806040525081019062000370919062000712565b60400151602055602180546001600160a01b03191690553480156200039457600080fd5b5060405162002c8638038062002c86833981016040819052620003b7916200076e565b6000805460176020527f4152fdd4960944ad2843ab0640e4bafb0ddf2caf06de54df701cf7a17df044aa8054600160ff1991821681179092557f6779f08d87897b1938d8ae1ed3d650e2616775c110ff5d98b7f82c079d97c7788054821683179055635b5e139f60e01b84527f244a57cf9422b23a74eac7556da7a02b4681eb0e2f9c3613963f0b44ad43886080549091169091179055602180546001600160a01b03199081166001600160a01b0395909516949094179055821633928316179091179055620008ee565b8260048101928215620004c0579160200282015b82811115620004c05782518290620004af908262000822565b509160200191906001019062000496565b50620004ce929150620005ca565b5090565b826004810192821562000508579160200282015b8281111562000508578251829060ff16905591602001919060010190620004e6565b50620004ce929150620005eb565b826004810192821562000508579160200282015b82811115620005085782518255916020019190600101906200052a565b826004810192821562000508579160200282015b828111156200050857825182546001600160a01b0319166001600160a01b039091161782556020909201916001909101906200055b565b826004810192821562000508579160200282015b8281111562000508578251829062ffffff16905591602001919060010190620005a6565b80821115620004ce576000620005e1828262000602565b50600101620005ca565b5b80821115620004ce5760008155600101620005ec565b508054620006109062000793565b6000825580601f1062000621575050565b601f016020900490600052602060002090810190620006419190620005eb565b50565b634e487b7160e01b600052604160045260246000fd5b604051608081016001600160401b03811182821017156200067f576200067f62000644565b60405290565b80516001600160a01b03811681146200069d57600080fd5b919050565b600060808284031215620006b557600080fd5b82601f830112620006c557600080fd5b620006cf6200065a565b806080840185811115620006e257600080fd5b845b818110156200070757620006f88162000685565b845260209384019301620006e4565b509095945050505050565b6000608082840312156200072557600080fd5b82601f8301126200073557600080fd5b6200073f6200065a565b8060808401858111156200075257600080fd5b845b818110156200070757805184526020938401930162000754565b6000602082840312156200078157600080fd5b6200078c8262000685565b9392505050565b600181811c90821680620007a857607f821691505b602082108103620007c957634e487b7160e01b600052602260045260246000fd5b50919050565b601f8211156200081d57600081815260208120601f850160051c81016020861015620007f85750805b601f850160051c820191505b81811015620008195782815560010162000804565b5050505b505050565b81516001600160401b038111156200083e576200083e62000644565b62000856816200084f845462000793565b84620007cf565b602080601f8311600181146200088e5760008415620008755750858301515b600019600386901b1c1916600185901b17855562000819565b600085815260208120601f198616915b82811015620008bf578886015182559484019460019091019084016200089e565b5085821015620008de5787850151600019600388901b60f8161c191681555b5050505050600190811b01905550565b61238880620008fe6000396000f3fe60806040526004361061026e5760003560e01c8063828eab0e11610153578063bc31c1c1116100cb578063d9a9b0c61161007f578063ec478f2711610064578063ec478f27146106bd578063f079914f14610706578063f12e65481461072457600080fd5b8063d9a9b0c614610662578063e985e9c51461068257600080fd5b8063c0a43a7c116100b0578063c0a43a7c14610619578063c66485b21461062c578063c7876ea41461064c57600080fd5b8063bc31c1c1146105e4578063bd9a548b1461060457600080fd5b80639024d28211610122578063a22cb46511610107578063a22cb4651461059e578063b782426e146105b1578063b88d4fde146105d157600080fd5b80639024d2821461051f57806395d89b411461055557600080fd5b8063828eab0e146104ac57806388a8c95c146104cc57806389476069146104ec5780638dfcb1c7146104ff57600080fd5b806342842e0e116101e657806370a08231116101b55780637362377b1161019a5780637362377b146104575780637d73b2311461045f57806380b29beb1461047f57600080fd5b806370a082311461041757806370dec5f01461043757600080fd5b806342842e0e1461036d5780635ab1bd53146103b35780636352211e146103d5578063642a8ed6146103f557600080fd5b8063095ea7b31161023d57806323b872dd1161022257806323b872dd1461036d5780633932cd3314610380578063395063081461039357600080fd5b8063095ea7b3146103345780630e6c0bdb1461034957600080fd5b806301e51ae81461027d57806301ffc9a7146102ba57806302fb0c5e146102fa57806305e84aa01461031457600080fd5b3661027857600080fd5b600080fd5b34801561028957600080fd5b5060005461029d906001600160a01b031681565b6040516001600160a01b0390911681526020015b60405180910390f35b3480156102c657600080fd5b506102ea6102d5366004611bd8565b60176020526000908152604090205460ff1681565b60405190151581526020016102b1565b34801561030657600080fd5b506016546102ea9060ff1681565b34801561032057600080fd5b50601d5461029d906001600160a01b031681565b610347610342366004611c11565b610744565b005b34801561035557600080fd5b5061035f601f5481565b6040519081526020016102b1565b61034761037b366004611c3d565b61086d565b61035f61038e366004611d36565b61088d565b34801561039f57600080fd5b506103476103ae366004611e28565b610fea565b3480156103bf57600080fd5b506103c8611048565b6040516102b19190611e41565b3480156103e157600080fd5b5061029d6103f0366004611e28565b61108d565b34801561040157600080fd5b5061040a61110d565b6040516102b19190611e7b565b34801561042357600080fd5b5061035f610432366004611ea3565b611148565b34801561044357600080fd5b5061029d610452366004611e28565b6111bc565b6103476111dc565b34801561046b57600080fd5b50600d5461029d906001600160a01b031681565b34801561048b57600080fd5b5061049f61049a366004611e28565b611282565b6040516102b19190611f10565b3480156104b857600080fd5b5060225461029d906001600160a01b031681565b3480156104d857600080fd5b506103476104e7366004611ea3565b611322565b6103476104fa366004611ea3565b6113fc565b34801561050b57600080fd5b5061035f61051a366004611e28565b611522565b34801561052b57600080fd5b5061029d61053a366004611e28565b601a602052600090815260409020546001600160a01b031681565b34801561056157600080fd5b5061049f6040518060400160405280600381526020017f484d53000000000000000000000000000000000000000000000000000000000081525081565b6103476105ac366004611f31565b611539565b3480156105bd57600080fd5b50601c5461029d906001600160a01b031681565b6103476105df366004611f6a565b6115c3565b3480156105f057600080fd5b5061035f6105ff366004611e28565b6115d5565b34801561061057600080fd5b5061040a6115e5565b610347610627366004611fea565b61161b565b34801561063857600080fd5b50610347610647366004611ea3565b611748565b34801561065857600080fd5b5061035f60205481565b34801561066e57600080fd5b5061035f61067d366004611e28565b6117db565b34801561068e57600080fd5b506102ea61069d366004612008565b601b60209081526000928352604080842090915290825290205460ff1681565b3480156106c957600080fd5b5061049f6040518060400160405280601781526020017f48656c697832204d6f6c6563756c65205365727669636500000000000000000081525081565b34801561071257600080fd5b506000546001600160a01b031661029d565b34801561073057600080fd5b5060215461029d906001600160a01b031681565b6000818152601860205260409020546001600160a01b03163314158061079757506000818152601860209081526040808320546001600160a01b03168352601b825280832033845290915290205460ff16155b156107fc57600081815260186020526040908190205490517f431ef6160000000000000000000000000000000000000000000000000000000081523360048201526001600160a01b039091166024820152604481018290526064015b60405180910390fd5b6000818152601a602052604080822080547fffffffffffffffffffffffff0000000000000000000000000000000000000000166001600160a01b0386169081179091559051839233917f8c5be1e5ebec7d5bd14f71427d1e84f3dd0314c0f7b2291e5b200ac8c7c3b9259190a45050565b610888838383604051806020016040528060008152506117eb565b505050565b6000846005600101548151106108e55760405162461bcd60e51b815260206004820152600d60248201527f494c4c4547414c5f4c4142454c0000000000000000000000000000000000000060448201526064016107f3565b6040517f8572a5d300000000000000000000000000000000000000000000000000000000815273__$47e4ffaaf323c41735ff299f8946896ce0$__90638572a5d390610938908490600190600401612089565b602060405180830381865af4158015610955573d6000803e3d6000fd5b505050506040513d601f19601f8201168201806040525081019061097991906121b7565b156109c65760405162461bcd60e51b815260206004820152600d60248201527f494c4c4547414c5f43484152530000000000000000000000000000000000000060448201526064016107f3565b601d546040517f02571be3000000000000000000000000000000000000000000000000000000008152600481018790526000916001600160a01b0316906302571be390602401602060405180830381865afa158015610a29573d6000803e3d6000fd5b505050506040513d601f19601f82011682018060405250810190610a4d91906121d4565b9050601f54841015610aa15760405162461bcd60e51b815260206004820152601260248201527f4c4946455350414e5f544f4f5f53484f5254000000000000000000000000000060448201526064016107f3565b83602054610aaf9190612220565b341015610afe5760405162461bcd60e51b815260206004820152601260248201527f494e53554646494349454e545f4554484552000000000000000000000000000060448201526064016107f3565b600087604051602001610b11919061225d565b60408051808303601f190181528282528051602091820120600b549184018b90529183015260608201819052915060009060800160408051808303601f190181529082905280516020909101206021547f8146970a00000000000000000000000000000000000000000000000000000000835260048301829052602483018b90529092506001600160a01b031690638146970a90604401600060405180830381600087803b158015610bc257600080fd5b505af1158015610bd6573d6000803e3d6000fd5b50506021546040517f741b4cd00000000000000000000000000000000000000000000000000000000081526001600160a01b03909116925063741b4cd09150610c259084908b90600401612279565b600060405180830381600087803b158015610c3f57600080fd5b505af1158015610c53573d6000803e3d6000fd5b50506021546001600160a01b031691506339de6469905082610c7589426122c7565b6040517fffffffff0000000000000000000000000000000000000000000000000000000060e085901b16815260048101929092526024820152604401600060405180830381600087803b158015610ccb57600080fd5b505af1158015610cdf573d6000803e3d6000fd5b50506021546040517fd3156905000000000000000000000000000000000000000000000000000000008152600481018590526001600160a01b038781166024830152909116925063d31569059150604401600060405180830381600087803b158015610d4a57600080fd5b505af1158015610d5e573d6000803e3d6000fd5b50506021546022546040517f1896f70a000000000000000000000000000000000000000000000000000000008152600481018690526001600160a01b03918216602482015291169250631896f70a9150604401600060405180830381600087803b158015610dcb57600080fd5b505af1158015610ddf573d6000803e3d6000fd5b50506021546040517f1f06e91c00000000000000000000000000000000000000000000000000000000815260048101859052602481018690526001600160a01b039091169250631f06e91c9150604401600060405180830381600087803b158015610e4957600080fd5b505af1158015610e5d573d6000803e3d6000fd5b50506021546040517fe7db171700000000000000000000000000000000000000000000000000000000815260048101859052600060248201526001600160a01b03909116925063e7db17179150604401600060405180830381600087803b158015610ec757600080fd5b505af1158015610edb573d6000803e3d6000fd5b50506021546040517f21ec2b5b000000000000000000000000000000000000000000000000000000008152600481018590526001600160a01b0390911692506321ec2b5b9150602401600060405180830381600087803b158015610f3e57600080fd5b505af1158015610f52573d6000803e3d6000fd5b505050600082815260186020908152604080832080547fffffffffffffffffffffffff0000000000000000000000000000000000000000166001600160a01b038916908117909155835260198252918290208054600101905590518a81528392507f5eae6375e459aef4ec6bf72041338acc8725dfdbdc5bc2f63387d3379ffb9003910160405180910390a298975050505050505050565b6000546001600160a01b03163314611043576000546040517f8ea458f60000000000000000000000000000000000000000000000000000000081526001600160a01b0390911660048201523360248201526044016107f3565b601f55565b611050611b8c565b60408051608081019182905290600e9060049082845b81546001600160a01b03168152600190910190602001808311611066575050505050905090565b6000818152601860205260408120546001600160a01b03166110f15760405162461bcd60e51b815260206004820152600f60248201527f494e56414c49445f544f4b454e4944000000000000000000000000000000000060448201526064016107f3565b506000908152601860205260409020546001600160a01b031690565b611115611b8c565b6040805160808101918290529060099060049082845b81548152602001906001019080831161112b575050505050905090565b60006001600160a01b0382166111a05760405162461bcd60e51b815260206004820152600c60248201527f5a45524f5f41444452455353000000000000000000000000000000000000000060448201526064016107f3565b506001600160a01b031660009081526019602052604090205490565b600e81600481106111cc57600080fd5b01546001600160a01b0316905081565b600080546040516001600160a01b039091169047908381818185875af1925050503d8060008114611229576040519150601f19603f3d011682016040523d82523d6000602084013e61122e565b606091505b505090508061127f5760405162461bcd60e51b815260206004820152601360248201527f4554485f5452414e534645525f4641494c45440000000000000000000000000060448201526064016107f3565b50565b6001816004811061129257600080fd5b0180549091506112a190612036565b80601f01602080910402602001604051908101604052809291908181526020018280546112cd90612036565b801561131a5780601f106112ef5761010080835404028352916020019161131a565b820191906000526020600020905b8154815290600101906020018083116112fd57829003601f168201915b505050505081565b6000546001600160a01b0316331461137b576000546040517f8ea458f60000000000000000000000000000000000000000000000000000000081526001600160a01b0390911660048201523360248201526044016107f3565b600054604080516001600160a01b03928316815291831660208301527fdec101f106d4fc7c85791843e64b198248c822298e3ed7046231d33f7783d816910160405180910390a1600080547fffffffffffffffffffffffff0000000000000000000000000000000000000000166001600160a01b0392909216919091179055565b6000546040517f70a0823100000000000000000000000000000000000000000000000000000000815230600482018190526001600160a01b03848116936323b872dd9391169084906370a0823190602401602060405180830381865afa15801561146a573d6000803e3d6000fd5b505050506040513d601f19601f8201168201806040525081019061148e91906122e0565b6040517fffffffff0000000000000000000000000000000000000000000000000000000060e086901b1681526001600160a01b03938416600482015292909116602483015260448201526064016020604051808303816000875af11580156114fa573d6000803e3d6000fd5b505050506040513d601f19601f8201168201806040525081019061151e91906121b7565b5050565b6009816004811061153257600080fd5b0154905081565b336000818152601b602090815260408083206001600160a01b0387168085529083529281902080547fffffffffffffffffffffffffffffffffffffffffffffffffffffffffffffff001686151590811790915590519081529192917f17307eab39ab6107e8899845ad3d59bd9653f200f220920489ca2b5937696c31910160405180910390a35050565b6115cf848484846117eb565b50505050565b6012816004811061153257600080fd5b6115ed611b8c565b604080516080810191829052601280548252909160049060136020850180831161112b575050505050905090565b6000546001600160a01b03163314611674576000546040517f8ea458f60000000000000000000000000000000000000000000000000000000081526001600160a01b0390911660048201523360248201526044016107f3565b7fffffffff0000000000000000000000000000000000000000000000000000000080831690036116e65760405162461bcd60e51b815260206004820152601a60248201527f494e56414c49445f494e544552464143455f53454c4543544f5200000000000060448201526064016107f3565b7fffffffff0000000000000000000000000000000000000000000000000000000091909116600090815260176020526040902080547fffffffffffffffffffffffffffffffffffffffffffffffffffffffffffffff0016911515919091179055565b6000546001600160a01b031633146117a1576000546040517f8ea458f60000000000000000000000000000000000000000000000000000000081526001600160a01b0390911660048201523360248201526044016107f3565b602280547fffffffffffffffffffffffff0000000000000000000000000000000000000000166001600160a01b0392909216919091179055565b6005816004811061153257600080fd5b6001600160a01b03831661182b576040517f5788079900000000000000000000000000000000000000000000000000000000815260040160405180910390fd5b6000828152601860205260409020546001600160a01b038581169116146118a957600082815260186020526040908190205490517f431ef6160000000000000000000000000000000000000000000000000000000081526001600160a01b0391821660048201529085166024820152604481018390526064016107f3565b6000828152601860205260409020546001600160a01b031633148015906118f457506001600160a01b0384166000908152601b6020908152604080832033845290915290205460ff16155b801561191757506000828152601a60205260409020546001600160a01b03163314155b15611966576040517f431ef6160000000000000000000000000000000000000000000000000000000081523360048201526001600160a01b0385166024820152604481018390526064016107f3565b6000828152601a6020908152604080832080547fffffffffffffffffffffffff00000000000000000000000000000000000000009081169091556018835281842080546001600160a01b03898116919093168117909155908816808552601990935281842080547fffffffffffffffffffffffffffffffffffffffffffffffffffffffffffffffff01905580845281842080546001019055905185939192917fddf252ad1be2c89b69c2b068fc378daa952ba7f163c4a11628f55a4df523b3ef91a46001600160a01b0383163b156115cf576040517f150b7a020000000000000000000000000000000000000000000000000000000081526001600160a01b0384169063150b7a0290611a839033908890879087906004016122f9565b6020604051808303816000875af1925050508015611abe575060408051601f3d908101601f19168201909252611abb91810190612335565b60015b611aff576040517f3a9f8cb30000000000000000000000000000000000000000000000000000000081526001600160a01b03841660048201526024016107f3565b7fffffffff0000000000000000000000000000000000000000000000000000000081167f150b7a020000000000000000000000000000000000000000000000000000000014611b85576040517f3a9f8cb30000000000000000000000000000000000000000000000000000000081526001600160a01b03851660048201526024016107f3565b5050505050565b60405180608001604052806004906020820280368337509192915050565b7fffffffff000000000000000000000000000000000000000000000000000000008116811461127f57600080fd5b600060208284031215611bea57600080fd5b8135611bf581611baa565b9392505050565b6001600160a01b038116811461127f57600080fd5b60008060408385031215611c2457600080fd5b8235611c2f81611bfc565b946020939093013593505050565b600080600060608486031215611c5257600080fd5b8335611c5d81611bfc565b92506020840135611c6d81611bfc565b929592945050506040919091013590565b7f4e487b7100000000000000000000000000000000000000000000000000000000600052604160045260246000fd5b604051601f8201601f1916810167ffffffffffffffff81118282101715611cd657611cd6611c7e565b604052919050565b600067ffffffffffffffff831115611cf857611cf8611c7e565b611d0b6020601f19601f86011601611cad565b9050828152838383011115611d1f57600080fd5b828260208301376000602084830101529392505050565b60008060008060808587031215611d4c57600080fd5b843567ffffffffffffffff80821115611d6457600080fd5b818701915087601f830112611d7857600080fd5b6020611d88898435838601611cde565b96508088013595506040880135925081831115611da457600080fd5b828801925088601f840112611db857600080fd5b823582811115611dca57611dca611c7e565b8060051b9250611ddb828401611cad565b818152928401820192828101908b851115611df557600080fd5b948301945b84861015611e1357853582529483019490830190611dfa565b989b979a509798606001359750505050505050565b600060208284031215611e3a57600080fd5b5035919050565b60808101818360005b6004811015611e725781516001600160a01b0316835260209283019290910190600101611e4a565b50505092915050565b60808101818360005b6004811015611e72578151835260209283019290910190600101611e84565b600060208284031215611eb557600080fd5b8135611bf581611bfc565b60005b83811015611edb578181015183820152602001611ec3565b50506000910152565b60008151808452611efc816020860160208601611ec0565b601f01601f19169290920160200192915050565b602081526000611bf56020830184611ee4565b801515811461127f57600080fd5b60008060408385031215611f4457600080fd5b8235611f4f81611bfc565b91506020830135611f5f81611f23565b809150509250929050565b60008060008060808587031215611f8057600080fd5b8435611f8b81611bfc565b93506020850135611f9b81611bfc565b925060408501359150606085013567ffffffffffffffff811115611fbe57600080fd5b8501601f81018713611fcf57600080fd5b611fde87823560208401611cde565b91505092959194509250565b60008060408385031215611ffd57600080fd5b8235611f4f81611baa565b6000806040838503121561201b57600080fd5b823561202681611bfc565b91506020830135611f5f81611bfc565b600181811c9082168061204a57607f821691505b602082108103612083577f4e487b7100000000000000000000000000000000000000000000000000000000600052602260045260246000fd5b50919050565b60408152600061209c6040830185611ee4565b60208382038185015281829050608083018660005b60048082106120c057506121a9565b86840385528254600090600181811c90808316806120df57607f831692505b8a83108103612114577f4e487b7100000000000000000000000000000000000000000000000000000000855260228652602485fd5b828952602089019550808015612131576001811461216557612190565b7fffffffffffffffffffffffffffffffffffffffffffffffffffffffffffffff008516875283151560051b87019550612190565b60008981526020902060005b8581101561218a57815489820152908401908d01612171565b88019650505b50509789019792965050509290920191506001016120b1565b509098975050505050505050565b6000602082840312156121c957600080fd5b8151611bf581611f23565b6000602082840312156121e657600080fd5b8151611bf581611bfc565b7f4e487b7100000000000000000000000000000000000000000000000000000000600052601160045260246000fd5b6000817fffffffffffffffffffffffffffffffffffffffffffffffffffffffffffffffff0483118215151615612258576122586121f1565b500290565b6000825161226f818460208701611ec0565b9190910192915050565b6000604082018483526020604081850152818551808452606086019150828701935060005b818110156122ba5784518352938301939183019160010161229e565b5090979650505050505050565b808201808211156122da576122da6121f1565b92915050565b6000602082840312156122f257600080fd5b5051919050565b60006001600160a01b0380871683528086166020840152508360408301526080606083015261232b6080830184611ee4565b9695505050505050565b60006020828403121561234757600080fd5b8151611bf581611baa56fea26469706673582212204406f3492bce7c16f2e118d0628bc6ee9eb5c49f17c6a97eb578f858d5c5d87464736f6c63430008100033",
    "linkReferences": {
      "src/Utils/LibString.sol": {
        "LibString": [
          {
            "start": 4619,
            "length": 20
          }
        ]
      }
    }
  },
  "methodIdentifiers": {
    "Dev()": "01e51ae8",
    "HELIX2()": "b782426e",
    "MOLECULES()": "f12e6548",
    "NAMES()": "05e84aa0",
    "_approved(uint256)": "9024d282",
    "active()": "02fb0c5e",
    "approve(address,uint256)": "095ea7b3",
    "balanceOf(address)": "70a08231",
    "basePrice()": "c7876ea4",
    "changeDev(address)": "88a8c95c",
    "defaultLifespan()": "0e6c0bdb",
    "defaultResolver()": "828eab0e",
    "ensRegistry()": "7d73b231",
    "getPrices()": "bd9a548b",
    "getRegistry()": "5ab1bd53",
    "getRoothash()": "642a8ed6",
    "helix2Registry(uint256)": "70dec5f0",
    "illegalBlocks(uint256)": "80b29beb",
    "isApprovedForAll(address,address)": "e985e9c5",
    "isDev()": "f079914f",
    "molecule()": "ec478f27",
    "newMolecule(string,bytes32,bytes32[],uint256)": "3932cd33",
    "ownerOf(uint256)": "6352211e",
    "prices(uint256)": "bc31c1c1",
    "roothash(uint256)": "8dfcb1c7",
    "safeTransferFrom(address,address,uint256)": "42842e0e",
    "safeTransferFrom(address,address,uint256,bytes)": "b88d4fde",
    "setApprovalForAll(address,bool)": "a22cb465",
    "setDefaultLifespan(uint256)": "39506308",
    "setDefaultResolver(address)": "c66485b2",
    "setInterface(bytes4,bool)": "c0a43a7c",
    "sizes(uint256)": "d9a9b0c6",
    "supportsInterface(bytes4)": "01ffc9a7",
    "symbol()": "95d89b41",
    "transferFrom(address,address,uint256)": "23b872dd",
    "withdrawEther()": "7362377b",
    "withdrawToken(address)": "89476069"
  },
  "id": 10
}