{
  "abi": [
    {
      "inputs": [
        {
          "internalType": "address",
          "name": "_registry",
          "type": "address"
        }
      ],
      "stateMutability": "nonpayable",
      "type": "constructor"
    },
    {
      "anonymous": false,
      "inputs": [
        {
          "indexed": true,
          "internalType": "address",
          "name": "previousOwner",
          "type": "address"
        },
        {
          "indexed": true,
          "internalType": "address",
          "name": "newOwner",
          "type": "address"
        }
      ],
      "name": "OwnershipTransferred",
      "type": "event"
    },
    {
      "inputs": [],
      "name": "Dev",
      "outputs": [
        {
          "internalType": "address",
          "name": "",
          "type": "address"
        }
      ],
      "stateMutability": "view",
      "type": "function"
    },
    {
      "inputs": [
        {
          "internalType": "bytes32",
          "name": "",
          "type": "bytes32"
        }
      ],
      "name": "Names",
      "outputs": [
        {
          "internalType": "string",
          "name": "_label",
          "type": "string"
        },
        {
          "internalType": "address",
          "name": "_owner",
          "type": "address"
        },
        {
          "internalType": "address",
          "name": "_resolver",
          "type": "address"
        },
        {
          "internalType": "address",
          "name": "_controller",
          "type": "address"
        },
        {
          "internalType": "uint256",
          "name": "_expiry",
          "type": "uint256"
        }
      ],
      "stateMutability": "view",
      "type": "function"
    },
    {
      "inputs": [],
      "name": "Registry",
      "outputs": [
        {
          "internalType": "address",
          "name": "",
          "type": "address"
        }
      ],
      "stateMutability": "view",
      "type": "function"
    },
    {
      "inputs": [],
      "name": "active",
      "outputs": [
        {
          "internalType": "bool",
          "name": "",
          "type": "bool"
        }
      ],
      "stateMutability": "view",
      "type": "function"
    },
    {
      "inputs": [
        {
          "internalType": "bytes32",
          "name": "namehash",
          "type": "bytes32"
        }
      ],
      "name": "controller",
      "outputs": [
        {
          "internalType": "address",
          "name": "",
          "type": "address"
        }
      ],
      "stateMutability": "view",
      "type": "function"
    },
    {
      "inputs": [
        {
          "internalType": "bytes32",
          "name": "namehash",
          "type": "bytes32"
        }
      ],
      "name": "expiry",
      "outputs": [
        {
          "internalType": "uint256",
          "name": "",
          "type": "uint256"
        }
      ],
      "stateMutability": "view",
      "type": "function"
    },
    {
      "inputs": [
        {
          "internalType": "bytes32",
          "name": "namehash",
          "type": "bytes32"
        }
      ],
      "name": "label",
      "outputs": [
        {
          "internalType": "string",
          "name": "",
          "type": "string"
        }
      ],
      "stateMutability": "view",
      "type": "function"
    },
    {
      "inputs": [
        {
          "internalType": "bytes32",
          "name": "namehash",
          "type": "bytes32"
        }
      ],
      "name": "owner",
      "outputs": [
        {
          "internalType": "address",
          "name": "",
          "type": "address"
        }
      ],
      "stateMutability": "view",
      "type": "function"
    },
    {
      "inputs": [],
      "name": "owner",
      "outputs": [
        {
          "internalType": "address",
          "name": "",
          "type": "address"
        }
      ],
      "stateMutability": "view",
      "type": "function"
    },
    {
      "inputs": [
        {
          "internalType": "bytes32",
          "name": "namehash",
          "type": "bytes32"
        }
      ],
      "name": "resolver",
      "outputs": [
        {
          "internalType": "address",
          "name": "",
          "type": "address"
        }
      ],
      "stateMutability": "view",
      "type": "function"
    },
    {
      "inputs": [
        {
          "internalType": "address",
          "name": "_registry",
          "type": "address"
        }
      ],
      "name": "setConfig",
      "outputs": [],
      "stateMutability": "nonpayable",
      "type": "function"
    },
    {
      "inputs": [
        {
          "internalType": "bytes32",
          "name": "namehash",
          "type": "bytes32"
        },
        {
          "internalType": "address",
          "name": "_controller",
          "type": "address"
        }
      ],
      "name": "setController",
      "outputs": [],
      "stateMutability": "nonpayable",
      "type": "function"
    },
    {
      "inputs": [
        {
          "internalType": "bytes32",
          "name": "namehash",
          "type": "bytes32"
        },
        {
          "internalType": "uint256",
          "name": "_expiry",
          "type": "uint256"
        }
      ],
      "name": "setExpiry",
      "outputs": [],
      "stateMutability": "nonpayable",
      "type": "function"
    },
    {
      "inputs": [
        {
          "internalType": "bytes32",
          "name": "namehash",
          "type": "bytes32"
        },
        {
          "internalType": "string",
          "name": "_label",
          "type": "string"
        }
      ],
      "name": "setLabel",
      "outputs": [],
      "stateMutability": "nonpayable",
      "type": "function"
    },
    {
      "inputs": [
        {
          "internalType": "bytes32",
          "name": "namehash",
          "type": "bytes32"
        },
        {
          "internalType": "address",
          "name": "_owner",
          "type": "address"
        }
      ],
      "name": "setOwner",
      "outputs": [],
      "stateMutability": "nonpayable",
      "type": "function"
    },
    {
      "inputs": [
        {
          "internalType": "bytes32",
          "name": "namehash",
          "type": "bytes32"
        },
        {
          "internalType": "address",
          "name": "_resolver",
          "type": "address"
        }
      ],
      "name": "setResolver",
      "outputs": [],
      "stateMutability": "nonpayable",
      "type": "function"
    },
    {
      "inputs": [],
      "name": "toggleActive",
      "outputs": [],
      "stateMutability": "nonpayable",
      "type": "function"
    },
    {
      "inputs": [
        {
          "internalType": "address",
          "name": "newDev",
          "type": "address"
        }
      ],
      "name": "transferOwnership",
      "outputs": [],
      "stateMutability": "nonpayable",
      "type": "function"
    }
  ],
  "bytecode": {
    "object": "0x60806040526001805460ff60a01b1916600160a01b17905534801561002357600080fd5b50604051610f78380380610f7883398101604081905261004291610070565b600180546001600160a01b039092166001600160a01b031992831617905560008054909116331790556100a0565b60006020828403121561008257600080fd5b81516001600160a01b038116811461009957600080fd5b9392505050565b610ec9806100af6000396000f3fe608060405234801561001057600080fd5b50600436106101365760003560e01c80635b0fc9c3116100b2578063ae2b6d0d11610081578063d315690511610066578063d315690514610349578063dbd4e0211461035c578063f2fde38b1461039557600080fd5b8063ae2b6d0d14610305578063d2ec5fca1461031857600080fd5b80635b0fc9c3146102905780637db9743b146102a35780638da5cb5b146102c3578063997c9efa146102e157600080fd5b80631896f70a1161010957806320e3dbd4116100ee57806320e3dbd41461026257806329c68dc11461027557806339de64691461027d57600080fd5b80631896f70a1461022d5780631fc4859e1461024257600080fd5b80630178b8bf1461013b57806301e51ae81461019f57806302571be3146101bf57806302fb0c5e146101f8575b600080fd5b610175610149366004610ab4565b6000908152600260208190526040909120015473ffffffffffffffffffffffffffffffffffffffff1690565b60405173ffffffffffffffffffffffffffffffffffffffff90911681526020015b60405180910390f35b6000546101759073ffffffffffffffffffffffffffffffffffffffff1681565b6101756101cd366004610ab4565b60009081526002602052604090206001015473ffffffffffffffffffffffffffffffffffffffff1690565b60015461021d9074010000000000000000000000000000000000000000900460ff1681565b6040519015158152602001610196565b61024061023b366004610af6565b6103a8565b005b610255610250366004610ab4565b61046c565b6040516101969190610b86565b610240610270366004610ba0565b61050e565b6102406105bc565b61024061028b366004610bbb565b610670565b61024061029e366004610af6565b6106ec565b6001546101759073ffffffffffffffffffffffffffffffffffffffff1681565b60005473ffffffffffffffffffffffffffffffffffffffff16610175565b6102f46102ef366004610ab4565b6107a9565b604051610196959493929190610bdd565b610240610313366004610c2b565b61087d565b61033b610326366004610ab4565b60009081526002602052604090206004015490565b604051908152602001610196565b610240610357366004610af6565b610903565b61017561036a366004610ab4565b60009081526002602052604090206003015473ffffffffffffffffffffffffffffffffffffffff1690565b6102406103a3366004610ba0565b6109c0565b60015473ffffffffffffffffffffffffffffffffffffffff1633146104145760405162461bcd60e51b815260206004820152600b60248201527f4e4f545f414c4c4f57454400000000000000000000000000000000000000000060448201526064015b60405180910390fd5b600091825260026020819052604090922090910180547fffffffffffffffffffffffff00000000000000000000000000000000000000001673ffffffffffffffffffffffffffffffffffffffff909216919091179055565b600081815260026020526040902080546060919061048990610ca7565b80601f01602080910402602001604051908101604052809291908181526020018280546104b590610ca7565b80156105025780601f106104d757610100808354040283529160200191610502565b820191906000526020600020905b8154815290600101906020018083116104e557829003601f168201915b50505050509050919050565b60005473ffffffffffffffffffffffffffffffffffffffff1633146105755760405162461bcd60e51b815260206004820152600760248201527f4e4f545f44455600000000000000000000000000000000000000000000000000604482015260640161040b565b600180547fffffffffffffffffffffffff00000000000000000000000000000000000000001673ffffffffffffffffffffffffffffffffffffffff92909216919091179055565b60005473ffffffffffffffffffffffffffffffffffffffff1633146106235760405162461bcd60e51b815260206004820152600760248201527f4e4f545f44455600000000000000000000000000000000000000000000000000604482015260640161040b565b600180547fffffffffffffffffffffff00ffffffffffffffffffffffffffffffffffffffff8116740100000000000000000000000000000000000000009182900460ff1615909102179055565b60015473ffffffffffffffffffffffffffffffffffffffff1633146106d75760405162461bcd60e51b815260206004820152600b60248201527f4e4f545f414c4c4f574544000000000000000000000000000000000000000000604482015260640161040b565b60009182526002602052604090912060040155565b60015473ffffffffffffffffffffffffffffffffffffffff1633146107535760405162461bcd60e51b815260206004820152600b60248201527f4e4f545f414c4c4f574544000000000000000000000000000000000000000000604482015260640161040b565b60009182526002602052604090912060010180547fffffffffffffffffffffffff00000000000000000000000000000000000000001673ffffffffffffffffffffffffffffffffffffffff909216919091179055565b6002602052600090815260409020805481906107c490610ca7565b80601f01602080910402602001604051908101604052809291908181526020018280546107f090610ca7565b801561083d5780601f106108125761010080835404028352916020019161083d565b820191906000526020600020905b81548152906001019060200180831161082057829003601f168201915b505050600184015460028501546003860154600490960154949573ffffffffffffffffffffffffffffffffffffffff928316959183169450909116915085565b60015473ffffffffffffffffffffffffffffffffffffffff1633146108e45760405162461bcd60e51b815260206004820152600b60248201527f4e4f545f414c4c4f574544000000000000000000000000000000000000000000604482015260640161040b565b60008381526002602052604090206108fd828483610d78565b50505050565b60015473ffffffffffffffffffffffffffffffffffffffff16331461096a5760405162461bcd60e51b815260206004820152600b60248201527f4e4f545f414c4c4f574544000000000000000000000000000000000000000000604482015260640161040b565b60009182526002602052604090912060030180547fffffffffffffffffffffffff00000000000000000000000000000000000000001673ffffffffffffffffffffffffffffffffffffffff909216919091179055565b60005473ffffffffffffffffffffffffffffffffffffffff163314610a275760405162461bcd60e51b815260206004820152600760248201527f4e4f545f44455600000000000000000000000000000000000000000000000000604482015260640161040b565b6000805460405173ffffffffffffffffffffffffffffffffffffffff808516939216917f8be0079c531659141344cd1fd0a4f28419497f9722a3daafe3b4186f6b6457e091a3600080547fffffffffffffffffffffffff00000000000000000000000000000000000000001673ffffffffffffffffffffffffffffffffffffffff92909216919091179055565b600060208284031215610ac657600080fd5b5035919050565b803573ffffffffffffffffffffffffffffffffffffffff81168114610af157600080fd5b919050565b60008060408385031215610b0957600080fd5b82359150610b1960208401610acd565b90509250929050565b6000815180845260005b81811015610b4857602081850181015186830182015201610b2c565b5060006020828601015260207fffffffffffffffffffffffffffffffffffffffffffffffffffffffffffffffe0601f83011685010191505092915050565b602081526000610b996020830184610b22565b9392505050565b600060208284031215610bb257600080fd5b610b9982610acd565b60008060408385031215610bce57600080fd5b50508035926020909101359150565b60a081526000610bf060a0830188610b22565b73ffffffffffffffffffffffffffffffffffffffff968716602084015294861660408301525091909316606082015260800191909152919050565b600080600060408486031215610c4057600080fd5b83359250602084013567ffffffffffffffff80821115610c5f57600080fd5b818601915086601f830112610c7357600080fd5b813581811115610c8257600080fd5b876020828501011115610c9457600080fd5b6020830194508093505050509250925092565b600181811c90821680610cbb57607f821691505b602082108103610cf4577f4e487b7100000000000000000000000000000000000000000000000000000000600052602260045260246000fd5b50919050565b7f4e487b7100000000000000000000000000000000000000000000000000000000600052604160045260246000fd5b601f821115610d7357600081815260208120601f850160051c81016020861015610d505750805b601f850160051c820191505b81811015610d6f57828155600101610d5c565b5050505b505050565b67ffffffffffffffff831115610d9057610d90610cfa565b610da483610d9e8354610ca7565b83610d29565b6000601f841160018114610df65760008515610dc05750838201355b7fffffffffffffffffffffffffffffffffffffffffffffffffffffffffffffffff600387901b1c1916600186901b178355610e8c565b6000838152602090207fffffffffffffffffffffffffffffffffffffffffffffffffffffffffffffffe0861690835b82811015610e455786850135825560209485019460019092019101610e25565b5086821015610e80577fffffffffffffffffffffffffffffffffffffffffffffffffffffffffffffffff60f88860031b161c19848701351681555b505060018560011b0183555b505050505056fea2646970667358221220434a446396750eec5d975d56399bbb5f088318199abd02f328aa31cc3b68127c64736f6c63430008100033",
    "linkReferences": {}
  },
  "methodIdentifiers": {
    "Dev()": "01e51ae8",
    "Names(bytes32)": "997c9efa",
    "Registry()": "7db9743b",
    "active()": "02fb0c5e",
    "controller(bytes32)": "dbd4e021",
    "expiry(bytes32)": "d2ec5fca",
    "label(bytes32)": "1fc4859e",
    "owner()": "8da5cb5b",
    "owner(bytes32)": "02571be3",
    "resolver(bytes32)": "0178b8bf",
    "setConfig(address)": "20e3dbd4",
    "setController(bytes32,address)": "d3156905",
    "setExpiry(bytes32,uint256)": "39de6469",
    "setLabel(bytes32,string)": "ae2b6d0d",
    "setOwner(bytes32,address)": "5b0fc9c3",
    "setResolver(bytes32,address)": "1896f70a",
    "toggleActive()": "29c68dc1",
    "transferOwnership(address)": "f2fde38b"
  },
  "id": 39
}