{
  "abi": [
    {
      "inputs": [
        {
          "internalType": "address",
          "name": "_registry",
          "type": "address"
        }
      ],
      "stateMutability": "nonpayable",
      "type": "constructor"
    },
    {
      "anonymous": false,
      "inputs": [
        {
          "indexed": true,
          "internalType": "address",
          "name": "previousOwner",
          "type": "address"
        },
        {
          "indexed": true,
          "internalType": "address",
          "name": "newOwner",
          "type": "address"
        }
      ],
      "name": "OwnershipTransferred",
      "type": "event"
    },
    {
      "inputs": [],
      "name": "Dev",
      "outputs": [
        {
          "internalType": "address",
          "name": "",
          "type": "address"
        }
      ],
      "stateMutability": "view",
      "type": "function"
    },
    {
      "inputs": [
        {
          "internalType": "bytes32",
          "name": "",
          "type": "bytes32"
        }
      ],
      "name": "Names",
      "outputs": [
        {
          "internalType": "string",
          "name": "_label",
          "type": "string"
        },
        {
          "internalType": "address",
          "name": "_owner",
          "type": "address"
        },
        {
          "internalType": "address",
          "name": "_resolver",
          "type": "address"
        },
        {
          "internalType": "address",
          "name": "_controller",
          "type": "address"
        },
        {
          "internalType": "uint256",
          "name": "_expiry",
          "type": "uint256"
        }
      ],
      "stateMutability": "view",
      "type": "function"
    },
    {
      "inputs": [],
      "name": "Registry",
      "outputs": [
        {
          "internalType": "address",
          "name": "",
          "type": "address"
        }
      ],
      "stateMutability": "view",
      "type": "function"
    },
    {
      "inputs": [],
      "name": "active",
      "outputs": [
        {
          "internalType": "bool",
          "name": "",
          "type": "bool"
        }
      ],
      "stateMutability": "view",
      "type": "function"
    },
    {
      "inputs": [
        {
          "internalType": "bytes32",
          "name": "namehash",
          "type": "bytes32"
        }
      ],
      "name": "controller",
      "outputs": [
        {
          "internalType": "address",
          "name": "",
          "type": "address"
        }
      ],
      "stateMutability": "view",
      "type": "function"
    },
    {
      "inputs": [
        {
          "internalType": "bytes32",
          "name": "namehash",
          "type": "bytes32"
        }
      ],
      "name": "expiry",
      "outputs": [
        {
          "internalType": "uint256",
          "name": "",
          "type": "uint256"
        }
      ],
      "stateMutability": "view",
      "type": "function"
    },
    {
      "inputs": [
        {
          "internalType": "address",
          "name": "_owner",
          "type": "address"
        },
        {
          "internalType": "address",
          "name": "operator",
          "type": "address"
        }
      ],
      "name": "isApprovedForAll",
      "outputs": [
        {
          "internalType": "bool",
          "name": "",
          "type": "bool"
        }
      ],
      "stateMutability": "view",
      "type": "function"
    },
    {
      "inputs": [
        {
          "internalType": "bytes32",
          "name": "namehash",
          "type": "bytes32"
        }
      ],
      "name": "label",
      "outputs": [
        {
          "internalType": "string",
          "name": "",
          "type": "string"
        }
      ],
      "stateMutability": "view",
      "type": "function"
    },
    {
      "inputs": [
        {
          "internalType": "bytes32",
          "name": "namehash",
          "type": "bytes32"
        }
      ],
      "name": "owner",
      "outputs": [
        {
          "internalType": "address",
          "name": "",
          "type": "address"
        }
      ],
      "stateMutability": "view",
      "type": "function"
    },
    {
      "inputs": [],
      "name": "owner",
      "outputs": [
        {
          "internalType": "address",
          "name": "",
          "type": "address"
        }
      ],
      "stateMutability": "view",
      "type": "function"
    },
    {
      "inputs": [
        {
          "internalType": "bytes32",
          "name": "namehash",
          "type": "bytes32"
        }
      ],
      "name": "resolver",
      "outputs": [
        {
          "internalType": "address",
          "name": "",
          "type": "address"
        }
      ],
      "stateMutability": "view",
      "type": "function"
    },
    {
      "inputs": [
        {
          "internalType": "address",
          "name": "caller",
          "type": "address"
        },
        {
          "internalType": "address",
          "name": "operator",
          "type": "address"
        },
        {
          "internalType": "bool",
          "name": "approved",
          "type": "bool"
        }
      ],
      "name": "setApprovalForAll",
      "outputs": [],
      "stateMutability": "nonpayable",
      "type": "function"
    },
    {
      "inputs": [
        {
          "internalType": "address",
          "name": "_registry",
          "type": "address"
        }
      ],
      "name": "setConfig",
      "outputs": [],
      "stateMutability": "nonpayable",
      "type": "function"
    },
    {
      "inputs": [
        {
          "internalType": "bytes32",
          "name": "namehash",
          "type": "bytes32"
        },
        {
          "internalType": "address",
          "name": "_controller",
          "type": "address"
        }
      ],
      "name": "setController",
      "outputs": [],
      "stateMutability": "nonpayable",
      "type": "function"
    },
    {
      "inputs": [
        {
          "internalType": "bytes32",
          "name": "namehash",
          "type": "bytes32"
        },
        {
          "internalType": "uint256",
          "name": "_expiry",
          "type": "uint256"
        }
      ],
      "name": "setExpiry",
      "outputs": [],
      "stateMutability": "nonpayable",
      "type": "function"
    },
    {
      "inputs": [
        {
          "internalType": "bytes32",
          "name": "namehash",
          "type": "bytes32"
        },
        {
          "internalType": "string",
          "name": "_label",
          "type": "string"
        }
      ],
      "name": "setLabel",
      "outputs": [],
      "stateMutability": "nonpayable",
      "type": "function"
    },
    {
      "inputs": [
        {
          "internalType": "bytes32",
          "name": "namehash",
          "type": "bytes32"
        },
        {
          "internalType": "address",
          "name": "_owner",
          "type": "address"
        }
      ],
      "name": "setOwner",
      "outputs": [],
      "stateMutability": "nonpayable",
      "type": "function"
    },
    {
      "inputs": [
        {
          "internalType": "bytes32",
          "name": "namehash",
          "type": "bytes32"
        },
        {
          "internalType": "address",
          "name": "_resolver",
          "type": "address"
        }
      ],
      "name": "setResolver",
      "outputs": [],
      "stateMutability": "nonpayable",
      "type": "function"
    },
    {
      "inputs": [],
      "name": "toggleActive",
      "outputs": [],
      "stateMutability": "nonpayable",
      "type": "function"
    },
    {
      "inputs": [
        {
          "internalType": "address",
          "name": "newDev",
          "type": "address"
        }
      ],
      "name": "transferOwnership",
      "outputs": [],
      "stateMutability": "nonpayable",
      "type": "function"
    },
    {
      "inputs": [],
      "name": "withdrawEther",
      "outputs": [],
      "stateMutability": "nonpayable",
      "type": "function"
    }
  ],
  "bytecode": {
    "object": "0x60806040526001805460ff60a01b1916600160a01b17905534801561002357600080fd5b50604051611337380380611337833981016040819052610042916100c3565b600180546001600160a01b0383166001600160a01b0319918216179091556000805490911633179055610073610079565b506100f3565b6000546001600160a01b031633146100c15760405162461bcd60e51b81526020600482015260076024820152662727aa2fa222ab60c91b604482015260640160405180910390fd5b565b6000602082840312156100d557600080fd5b81516001600160a01b03811681146100ec57600080fd5b9392505050565b611235806101026000396000f3fe608060405234801561001057600080fd5b50600436106101775760003560e01c80635b0fc9c3116100d8578063ae2b6d0d1161008c578063dbd4e02111610066578063dbd4e02114610391578063e985e9c5146103a4578063f2fde38b146103ed57600080fd5b8063ae2b6d0d1461033a578063d2ec5fca1461034d578063d31569051461037e57600080fd5b80637db9743b116100bd5780637db9743b146102d85780638da5cb5b146102f8578063997c9efa1461031657600080fd5b80635b0fc9c3146102bd5780637362377b146102d057600080fd5b80631fc4859e1161012f57806329c68dc11161011457806329c68dc11461028f578063367605ca1461029757806339de6469146102aa57600080fd5b80631fc4859e1461025c57806320e3dbd41461027c57600080fd5b806302571be31161016057806302571be3146101d957806302fb0c5e146102125780631896f70a1461024757600080fd5b80630178b8bf1461017c57806301e51ae8146101b9575b600080fd5b61018f61018a366004610db0565b610400565b60405173ffffffffffffffffffffffffffffffffffffffff90911681526020015b60405180910390f35b60005461018f9073ffffffffffffffffffffffffffffffffffffffff1681565b61018f6101e7366004610db0565b60009081526002602052604090206001015473ffffffffffffffffffffffffffffffffffffffff1690565b6001546102379074010000000000000000000000000000000000000000900460ff1681565b60405190151581526020016101b0565b61025a610255366004610df2565b610499565b005b61026f61026a366004610db0565b610558565b6040516101b09190610e82565b61025a61028a366004610e9c565b6105fc565b61025a6106aa565b61025a6102a5366004610eb7565b61075e565b61025a6102b8366004610f03565b61082a565b61025a6102cb366004610df2565b6108a6565b61025a610963565b60015461018f9073ffffffffffffffffffffffffffffffffffffffff1681565b60005473ffffffffffffffffffffffffffffffffffffffff1661018f565b610329610324366004610db0565b610a16565b6040516101b0959493929190610f25565b61025a610348366004610f73565b610aea565b61037061035b366004610db0565b60009081526002602052604090206004015490565b6040519081526020016101b0565b61025a61038c366004610df2565b610b70565b61018f61039f366004610db0565b610c2d565b6102376103b2366004610fef565b73ffffffffffffffffffffffffffffffffffffffff918216600090815260036020908152604080832093909416825291909152205460ff1690565b61025a6103fb366004610e9c565b610cbc565b600081815260026020526040812060040154829042106104675760405162461bcd60e51b815260206004820152600c60248201527f4e414d455f45585049524544000000000000000000000000000000000000000060448201526064015b60405180910390fd5b6000838152600260208190526040909120015473ffffffffffffffffffffffffffffffffffffffff1691505b50919050565b60015473ffffffffffffffffffffffffffffffffffffffff1633146105005760405162461bcd60e51b815260206004820152600b60248201527f4e4f545f414c4c4f574544000000000000000000000000000000000000000000604482015260640161045e565b600091825260026020819052604090922090910180547fffffffffffffffffffffffff00000000000000000000000000000000000000001673ffffffffffffffffffffffffffffffffffffffff909216919091179055565b60008181526002602052604081208054606092919061057690611019565b80601f01602080910402602001604051908101604052809291908181526020018280546105a290611019565b80156105ef5780601f106105c4576101008083540402835291602001916105ef565b820191906000526020600020905b8154815290600101906020018083116105d257829003601f168201915b5093979650505050505050565b60005473ffffffffffffffffffffffffffffffffffffffff1633146106635760405162461bcd60e51b815260206004820152600760248201527f4e4f545f44455600000000000000000000000000000000000000000000000000604482015260640161045e565b600180547fffffffffffffffffffffffff00000000000000000000000000000000000000001673ffffffffffffffffffffffffffffffffffffffff92909216919091179055565b60005473ffffffffffffffffffffffffffffffffffffffff1633146107115760405162461bcd60e51b815260206004820152600760248201527f4e4f545f44455600000000000000000000000000000000000000000000000000604482015260640161045e565b600180547fffffffffffffffffffffff00ffffffffffffffffffffffffffffffffffffffff8116740100000000000000000000000000000000000000009182900460ff1615909102179055565b60015473ffffffffffffffffffffffffffffffffffffffff1633146107c55760405162461bcd60e51b815260206004820152600b60248201527f4e4f545f414c4c4f574544000000000000000000000000000000000000000000604482015260640161045e565b73ffffffffffffffffffffffffffffffffffffffff92831660009081526003602090815260408083209490951682529290925291902080547fffffffffffffffffffffffffffffffffffffffffffffffffffffffffffffff0016911515919091179055565b60015473ffffffffffffffffffffffffffffffffffffffff1633146108915760405162461bcd60e51b815260206004820152600b60248201527f4e4f545f414c4c4f574544000000000000000000000000000000000000000000604482015260640161045e565b60009182526002602052604090912060040155565b60015473ffffffffffffffffffffffffffffffffffffffff16331461090d5760405162461bcd60e51b815260206004820152600b60248201527f4e4f545f414c4c4f574544000000000000000000000000000000000000000000604482015260640161045e565b60009182526002602052604090912060010180547fffffffffffffffffffffffff00000000000000000000000000000000000000001673ffffffffffffffffffffffffffffffffffffffff909216919091179055565b6000805460405173ffffffffffffffffffffffffffffffffffffffff9091169047908381818185875af1925050503d80600081146109bd576040519150601f19603f3d011682016040523d82523d6000602084013e6109c2565b606091505b5050905080610a135760405162461bcd60e51b815260206004820152601360248201527f4554485f5452414e534645525f4641494c454400000000000000000000000000604482015260640161045e565b50565b600260205260009081526040902080548190610a3190611019565b80601f0160208091040260200160405190810160405280929190818152602001828054610a5d90611019565b8015610aaa5780601f10610a7f57610100808354040283529160200191610aaa565b820191906000526020600020905b815481529060010190602001808311610a8d57829003601f168201915b505050600184015460028501546003860154600490960154949573ffffffffffffffffffffffffffffffffffffffff928316959183169450909116915085565b60015473ffffffffffffffffffffffffffffffffffffffff163314610b515760405162461bcd60e51b815260206004820152600b60248201527f4e4f545f414c4c4f574544000000000000000000000000000000000000000000604482015260640161045e565b6000838152600260205260409020610b6a8284836110e4565b50505050565b60015473ffffffffffffffffffffffffffffffffffffffff163314610bd75760405162461bcd60e51b815260206004820152600b60248201527f4e4f545f414c4c4f574544000000000000000000000000000000000000000000604482015260640161045e565b60009182526002602052604090912060030180547fffffffffffffffffffffffff00000000000000000000000000000000000000001673ffffffffffffffffffffffffffffffffffffffff909216919091179055565b60008181526002602052604081206004015482904210610c8f5760405162461bcd60e51b815260206004820152600c60248201527f4e414d455f455850495245440000000000000000000000000000000000000000604482015260640161045e565b505060009081526002602052604090206003015473ffffffffffffffffffffffffffffffffffffffff1690565b60005473ffffffffffffffffffffffffffffffffffffffff163314610d235760405162461bcd60e51b815260206004820152600760248201527f4e4f545f44455600000000000000000000000000000000000000000000000000604482015260640161045e565b6000805460405173ffffffffffffffffffffffffffffffffffffffff808516939216917f8be0079c531659141344cd1fd0a4f28419497f9722a3daafe3b4186f6b6457e091a3600080547fffffffffffffffffffffffff00000000000000000000000000000000000000001673ffffffffffffffffffffffffffffffffffffffff92909216919091179055565b600060208284031215610dc257600080fd5b5035919050565b803573ffffffffffffffffffffffffffffffffffffffff81168114610ded57600080fd5b919050565b60008060408385031215610e0557600080fd5b82359150610e1560208401610dc9565b90509250929050565b6000815180845260005b81811015610e4457602081850181015186830182015201610e28565b5060006020828601015260207fffffffffffffffffffffffffffffffffffffffffffffffffffffffffffffffe0601f83011685010191505092915050565b602081526000610e956020830184610e1e565b9392505050565b600060208284031215610eae57600080fd5b610e9582610dc9565b600080600060608486031215610ecc57600080fd5b610ed584610dc9565b9250610ee360208501610dc9565b915060408401358015158114610ef857600080fd5b809150509250925092565b60008060408385031215610f1657600080fd5b50508035926020909101359150565b60a081526000610f3860a0830188610e1e565b73ffffffffffffffffffffffffffffffffffffffff968716602084015294861660408301525091909316606082015260800191909152919050565b600080600060408486031215610f8857600080fd5b83359250602084013567ffffffffffffffff80821115610fa757600080fd5b818601915086601f830112610fbb57600080fd5b813581811115610fca57600080fd5b876020828501011115610fdc57600080fd5b6020830194508093505050509250925092565b6000806040838503121561100257600080fd5b61100b83610dc9565b9150610e1560208401610dc9565b600181811c9082168061102d57607f821691505b602082108103610493577f4e487b7100000000000000000000000000000000000000000000000000000000600052602260045260246000fd5b7f4e487b7100000000000000000000000000000000000000000000000000000000600052604160045260246000fd5b601f8211156110df57600081815260208120601f850160051c810160208610156110bc5750805b601f850160051c820191505b818110156110db578281556001016110c8565b5050505b505050565b67ffffffffffffffff8311156110fc576110fc611066565b6111108361110a8354611019565b83611095565b6000601f841160018114611162576000851561112c5750838201355b7fffffffffffffffffffffffffffffffffffffffffffffffffffffffffffffffff600387901b1c1916600186901b1783556111f8565b6000838152602090207fffffffffffffffffffffffffffffffffffffffffffffffffffffffffffffffe0861690835b828110156111b15786850135825560209485019460019092019101611191565b50868210156111ec577fffffffffffffffffffffffffffffffffffffffffffffffffffffffffffffffff60f88860031b161c19848701351681555b505060018560011b0183555b505050505056fea264697066735822122011c705bad39f0e48be9caf492be2c76c8dade6b288aea4f57c915dc78cd45cb964736f6c63430008100033",
    "linkReferences": {}
  },
  "methodIdentifiers": {
    "Dev()": "01e51ae8",
    "Names(bytes32)": "997c9efa",
    "Registry()": "7db9743b",
    "active()": "02fb0c5e",
    "controller(bytes32)": "dbd4e021",
    "expiry(bytes32)": "d2ec5fca",
    "isApprovedForAll(address,address)": "e985e9c5",
    "label(bytes32)": "1fc4859e",
    "owner()": "8da5cb5b",
    "owner(bytes32)": "02571be3",
    "resolver(bytes32)": "0178b8bf",
    "setApprovalForAll(address,address,bool)": "367605ca",
    "setConfig(address)": "20e3dbd4",
    "setController(bytes32,address)": "d3156905",
    "setExpiry(bytes32,uint256)": "39de6469",
    "setLabel(bytes32,string)": "ae2b6d0d",
    "setOwner(bytes32,address)": "5b0fc9c3",
    "setResolver(bytes32,address)": "1896f70a",
    "toggleActive()": "29c68dc1",
    "transferOwnership(address)": "f2fde38b",
    "withdrawEther()": "7362377b"
  },
  "id": 38
}