{
  "abi": [
    {
      "inputs": [
        {
          "internalType": "address",
          "name": "_dev",
          "type": "address"
        },
        {
          "internalType": "address",
          "name": "_you",
          "type": "address"
        }
      ],
      "name": "OnlyDev",
      "type": "error"
    },
    {
      "anonymous": false,
      "inputs": [
        {
          "indexed": false,
          "internalType": "address",
          "name": "Dev",
          "type": "address"
        },
        {
          "indexed": false,
          "internalType": "address",
          "name": "newDev",
          "type": "address"
        }
      ],
      "name": "NewDev",
      "type": "event"
    },
    {
      "anonymous": false,
      "inputs": [
        {
          "indexed": false,
          "internalType": "address",
          "name": "newReg",
          "type": "address"
        }
      ],
      "name": "NewENSRegistry",
      "type": "event"
    },
    {
      "anonymous": false,
      "inputs": [
        {
          "indexed": false,
          "internalType": "uint256",
          "name": "index",
          "type": "uint256"
        },
        {
          "indexed": false,
          "internalType": "uint256",
          "name": "newLife",
          "type": "uint256"
        }
      ],
      "name": "NewLife",
      "type": "event"
    },
    {
      "anonymous": false,
      "inputs": [
        {
          "indexed": false,
          "internalType": "uint256[4]",
          "name": "newLives",
          "type": "uint256[4]"
        }
      ],
      "name": "NewLives",
      "type": "event"
    },
    {
      "anonymous": false,
      "inputs": [
        {
          "indexed": false,
          "internalType": "uint256",
          "name": "index",
          "type": "uint256"
        },
        {
          "indexed": false,
          "internalType": "uint256",
          "name": "newPrice",
          "type": "uint256"
        }
      ],
      "name": "NewPrice",
      "type": "event"
    },
    {
      "anonymous": false,
      "inputs": [
        {
          "indexed": false,
          "internalType": "uint256[4]",
          "name": "newPrices",
          "type": "uint256[4]"
        }
      ],
      "name": "NewPrices",
      "type": "event"
    },
    {
      "anonymous": false,
      "inputs": [
        {
          "indexed": false,
          "internalType": "address[4]",
          "name": "newReg",
          "type": "address[4]"
        }
      ],
      "name": "NewRegisteries",
      "type": "event"
    },
    {
      "anonymous": false,
      "inputs": [
        {
          "indexed": false,
          "internalType": "uint256",
          "name": "index",
          "type": "uint256"
        },
        {
          "indexed": false,
          "internalType": "address",
          "name": "newReg",
          "type": "address"
        }
      ],
      "name": "NewRegistrar",
      "type": "event"
    },
    {
      "anonymous": false,
      "inputs": [
        {
          "indexed": false,
          "internalType": "address[4]",
          "name": "newReg",
          "type": "address[4]"
        }
      ],
      "name": "NewRegistrars",
      "type": "event"
    },
    {
      "anonymous": false,
      "inputs": [
        {
          "indexed": false,
          "internalType": "uint256",
          "name": "index",
          "type": "uint256"
        },
        {
          "indexed": false,
          "internalType": "address",
          "name": "newReg",
          "type": "address"
        }
      ],
      "name": "NewRegistry",
      "type": "event"
    },
    {
      "stateMutability": "payable",
      "type": "fallback"
    },
    {
      "inputs": [],
      "name": "Dev",
      "outputs": [
        {
          "internalType": "address",
          "name": "",
          "type": "address"
        }
      ],
      "stateMutability": "view",
      "type": "function"
    },
    {
      "inputs": [],
      "name": "active",
      "outputs": [
        {
          "internalType": "bool",
          "name": "",
          "type": "bool"
        }
      ],
      "stateMutability": "view",
      "type": "function"
    },
    {
      "inputs": [
        {
          "internalType": "address",
          "name": "newDev",
          "type": "address"
        }
      ],
      "name": "changeDev",
      "outputs": [],
      "stateMutability": "nonpayable",
      "type": "function"
    },
    {
      "inputs": [],
      "name": "ensRegistry",
      "outputs": [
        {
          "internalType": "address",
          "name": "",
          "type": "address"
        }
      ],
      "stateMutability": "view",
      "type": "function"
    },
    {
      "inputs": [],
      "name": "getENSRegistry",
      "outputs": [
        {
          "internalType": "address",
          "name": "",
          "type": "address"
        }
      ],
      "stateMutability": "view",
      "type": "function"
    },
    {
      "inputs": [],
      "name": "getIllegalBlocks",
      "outputs": [
        {
          "internalType": "string[4]",
          "name": "",
          "type": "string[4]"
        }
      ],
      "stateMutability": "view",
      "type": "function"
    },
    {
      "inputs": [],
      "name": "getLifespans",
      "outputs": [
        {
          "internalType": "uint256[4]",
          "name": "",
          "type": "uint256[4]"
        }
      ],
      "stateMutability": "view",
      "type": "function"
    },
    {
      "inputs": [],
      "name": "getPrices",
      "outputs": [
        {
          "internalType": "uint256[4]",
          "name": "",
          "type": "uint256[4]"
        }
      ],
      "stateMutability": "view",
      "type": "function"
    },
    {
      "inputs": [],
      "name": "getRegistrar",
      "outputs": [
        {
          "internalType": "address[4]",
          "name": "",
          "type": "address[4]"
        }
      ],
      "stateMutability": "view",
      "type": "function"
    },
    {
      "inputs": [],
      "name": "getRegistry",
      "outputs": [
        {
          "internalType": "address[4]",
          "name": "",
          "type": "address[4]"
        }
      ],
      "stateMutability": "view",
      "type": "function"
    },
    {
      "inputs": [],
      "name": "getRoothash",
      "outputs": [
        {
          "internalType": "bytes32[4]",
          "name": "",
          "type": "bytes32[4]"
        }
      ],
      "stateMutability": "view",
      "type": "function"
    },
    {
      "inputs": [],
      "name": "getSizes",
      "outputs": [
        {
          "internalType": "uint256[2][4]",
          "name": "",
          "type": "uint256[2][4]"
        }
      ],
      "stateMutability": "view",
      "type": "function"
    },
    {
      "inputs": [
        {
          "internalType": "uint256",
          "name": "",
          "type": "uint256"
        }
      ],
      "name": "helix2Registrar",
      "outputs": [
        {
          "internalType": "address",
          "name": "",
          "type": "address"
        }
      ],
      "stateMutability": "view",
      "type": "function"
    },
    {
      "inputs": [
        {
          "internalType": "uint256",
          "name": "",
          "type": "uint256"
        }
      ],
      "name": "helix2Registry",
      "outputs": [
        {
          "internalType": "address",
          "name": "",
          "type": "address"
        }
      ],
      "stateMutability": "view",
      "type": "function"
    },
    {
      "inputs": [
        {
          "internalType": "uint256",
          "name": "",
          "type": "uint256"
        }
      ],
      "name": "illegalBlocks",
      "outputs": [
        {
          "internalType": "string",
          "name": "",
          "type": "string"
        }
      ],
      "stateMutability": "view",
      "type": "function"
    },
    {
      "inputs": [],
      "name": "isDev",
      "outputs": [
        {
          "internalType": "address",
          "name": "",
          "type": "address"
        }
      ],
      "stateMutability": "view",
      "type": "function"
    },
    {
      "inputs": [
        {
          "internalType": "uint256",
          "name": "",
          "type": "uint256"
        }
      ],
      "name": "lifespans",
      "outputs": [
        {
          "internalType": "uint256",
          "name": "",
          "type": "uint256"
        }
      ],
      "stateMutability": "view",
      "type": "function"
    },
    {
      "inputs": [],
      "name": "name",
      "outputs": [
        {
          "internalType": "string",
          "name": "",
          "type": "string"
        }
      ],
      "stateMutability": "view",
      "type": "function"
    },
    {
      "inputs": [
        {
          "internalType": "uint256",
          "name": "",
          "type": "uint256"
        }
      ],
      "name": "prices",
      "outputs": [
        {
          "internalType": "uint256",
          "name": "",
          "type": "uint256"
        }
      ],
      "stateMutability": "view",
      "type": "function"
    },
    {
      "inputs": [
        {
          "internalType": "uint256",
          "name": "",
          "type": "uint256"
        }
      ],
      "name": "roothash",
      "outputs": [
        {
          "internalType": "bytes32",
          "name": "",
          "type": "bytes32"
        }
      ],
      "stateMutability": "view",
      "type": "function"
    },
    {
      "inputs": [
        {
          "internalType": "address",
          "name": "newReg",
          "type": "address"
        }
      ],
      "name": "setENSRegistry",
      "outputs": [],
      "stateMutability": "nonpayable",
      "type": "function"
    },
    {
      "inputs": [
        {
          "internalType": "bytes4",
          "name": "sig",
          "type": "bytes4"
        },
        {
          "internalType": "bool",
          "name": "value",
          "type": "bool"
        }
      ],
      "name": "setInterface",
      "outputs": [],
      "stateMutability": "payable",
      "type": "function"
    },
    {
      "inputs": [
        {
          "internalType": "uint256",
          "name": "index",
          "type": "uint256"
        },
        {
          "internalType": "uint256",
          "name": "newLife",
          "type": "uint256"
        }
      ],
      "name": "setLife",
      "outputs": [],
      "stateMutability": "nonpayable",
      "type": "function"
    },
    {
      "inputs": [
        {
          "internalType": "uint256[4]",
          "name": "newLives",
          "type": "uint256[4]"
        }
      ],
      "name": "setLives",
      "outputs": [],
      "stateMutability": "nonpayable",
      "type": "function"
    },
    {
      "inputs": [
        {
          "internalType": "uint256",
          "name": "index",
          "type": "uint256"
        },
        {
          "internalType": "uint256",
          "name": "newPrice",
          "type": "uint256"
        }
      ],
      "name": "setPrice",
      "outputs": [],
      "stateMutability": "nonpayable",
      "type": "function"
    },
    {
      "inputs": [
        {
          "internalType": "uint256[4]",
          "name": "newPrices",
          "type": "uint256[4]"
        }
      ],
      "name": "setPrices",
      "outputs": [],
      "stateMutability": "nonpayable",
      "type": "function"
    },
    {
      "inputs": [
        {
          "internalType": "address[4]",
          "name": "newReg",
          "type": "address[4]"
        }
      ],
      "name": "setRegisteries",
      "outputs": [],
      "stateMutability": "nonpayable",
      "type": "function"
    },
    {
      "inputs": [
        {
          "internalType": "uint256",
          "name": "index",
          "type": "uint256"
        },
        {
          "internalType": "address",
          "name": "newReg",
          "type": "address"
        }
      ],
      "name": "setRegistrar",
      "outputs": [],
      "stateMutability": "nonpayable",
      "type": "function"
    },
    {
      "inputs": [
        {
          "internalType": "address[4]",
          "name": "newReg",
          "type": "address[4]"
        }
      ],
      "name": "setRegistrars",
      "outputs": [],
      "stateMutability": "nonpayable",
      "type": "function"
    },
    {
      "inputs": [
        {
          "internalType": "uint256",
          "name": "index",
          "type": "uint256"
        },
        {
          "internalType": "address",
          "name": "newReg",
          "type": "address"
        }
      ],
      "name": "setRegistry",
      "outputs": [],
      "stateMutability": "nonpayable",
      "type": "function"
    },
    {
      "inputs": [
        {
          "internalType": "uint256",
          "name": "",
          "type": "uint256"
        },
        {
          "internalType": "uint256",
          "name": "",
          "type": "uint256"
        }
      ],
      "name": "sizes",
      "outputs": [
        {
          "internalType": "uint256",
          "name": "",
          "type": "uint256"
        }
      ],
      "stateMutability": "view",
      "type": "function"
    },
    {
      "inputs": [
        {
          "internalType": "bytes4",
          "name": "",
          "type": "bytes4"
        }
      ],
      "name": "supportsInterface",
      "outputs": [
        {
          "internalType": "bool",
          "name": "",
          "type": "bool"
        }
      ],
      "stateMutability": "view",
      "type": "function"
    },
    {
      "inputs": [],
      "name": "symbol",
      "outputs": [
        {
          "internalType": "string",
          "name": "",
          "type": "string"
        }
      ],
      "stateMutability": "view",
      "type": "function"
    },
    {
      "inputs": [],
      "name": "toggleActive",
      "outputs": [],
      "stateMutability": "nonpayable",
      "type": "function"
    },
    {
      "inputs": [],
      "name": "withdrawEther",
      "outputs": [],
      "stateMutability": "payable",
      "type": "function"
    },
    {
      "stateMutability": "payable",
      "type": "receive"
    }
  ],
  "bytecode": {
    "object": "0x6001610100818152601760f91b610120526080908152610140828152602d60f81b6101605260a052600061018081815260c0526101c06040526101a090815260e0526200004f91906004620002e8565b506040805160c081018252600360808201818152602060a08401819052908352835180850185528281528082018290528184015283518085018552828152808201829052838501528351808501909452908352828101526060810191909152620000be90600590600462000338565b50604080516080810182526001808252602082018190529181018290526060810191909152620000f390600d90600462000386565b5060408051608081018252600060a082018190527f6f010af653ebe3cb07d297a4ef13366103d392ceffa68dd48232e6e9ff2187bf60c0808401919091528351808403909101815260e0830184528051602091820120835283518082018390527fd3b8281179950f98149eefdb158d0e1acb56f56e8e343aa9fefafa7e369595618186018190528551808303870181526060928301875280519084012083860152855180840185905280870182905286518082038801815290830187528051908401208587015285518084019490945283860152845180840386018152928101909452815191012091810191909152620001f2906011906004620003ca565b50601580546001600160a01b0319166e0c2e074ec69a0dfb2997ba6c7d2e1e17905560408051608081018252600080825260208201819052918101829052606081019190915262000248906016906004620003fb565b506040805160808101825260008082526020820181905291810182905260608101919091526200027d90601a906004620003fb565b506040805160808101825262030d40808252602082018190529181018290526060810191909152620002b490601e90600462000446565b506022805460ff19166001179055348015620002cf57600080fd5b50600080546001600160a01b03191633179055620006ba565b826004810192821562000326579160200282015b82811115620003265782518290620003159082620005ee565b5091602001919060010190620002fc565b50620003349291506200047e565b5090565b60088301918390821562000378579160200282015b82811115620003785782516200036790839060026200049f565b50916020019190600201906200034d565b5062000334929150620004d4565b8260048101928215620003bc579160200282015b82811115620003bc578251829060ff169055916020019190600101906200039a565b5062000334929150620004f0565b8260048101928215620003bc579160200282015b82811115620003bc578251825591602001919060010190620003de565b8260048101928215620003bc579160200282015b82811115620003bc57825182546001600160a01b0319166001600160a01b039091161782556020909201916001909101906200040f565b8260048101928215620003bc579160200282015b82811115620003bc578251829062ffffff169055916020019190600101906200045a565b808211156200033457600062000495828262000507565b506001016200047e565b8260028101928215620003bc5791602002820182811115620003bc578251829060ff169055916020019190600101906200039a565b80821115620003345760008082556001820155600201620004d4565b5b80821115620003345760008155600101620004f1565b50805462000515906200055f565b6000825580601f1062000526575050565b601f016020900490600052602060002090810190620005469190620004f0565b50565b634e487b7160e01b600052604160045260246000fd5b600181811c908216806200057457607f821691505b6020821081036200059557634e487b7160e01b600052602260045260246000fd5b50919050565b601f821115620005e957600081815260208120601f850160051c81016020861015620005c45750805b601f850160051c820191505b81811015620005e557828155600101620005d0565b5050505b505050565b81516001600160401b038111156200060a576200060a62000549565b62000622816200061b84546200055f565b846200059b565b602080601f8311600181146200065a5760008415620006415750858301515b600019600386901b1c1916600185901b178555620005e5565b600085815260208120601f198616915b828110156200068b578886015182559484019460019091019084016200066a565b5085821015620006aa5787850151600019600388901b60f8161c191681555b5050505050600190811b01905550565b61183980620006ca6000396000f3fe6080604052600436106102385760003560e01c806370dec5f011610138578063c0a43a7c116100b0578063ec2ace2a1161007f578063f1715fdc11610064578063f1715fdc146106a0578063f1bec357146106c0578063f7d97577146106e057600080fd5b8063ec2ace2a1461066d578063f079914f1461068257600080fd5b8063c0a43a7c146105f8578063c2d4cdfc1461060b578063ce721ac91461062d578063ce786f571461064d57600080fd5b806388a8c95c1161010757806395d89b41116100ec57806395d89b411461057a578063bc31c1c1146105c3578063bd9a548b146105e357600080fd5b806388a8c95c1461052c5780638dfcb1c71461054c57600080fd5b806370dec5f0146104c45780637362377b146104e45780637d73b231146104ec57806380b29beb1461050c57600080fd5b80632f680795116101cb578063548346a11161019a5780635c979fe41161017f5780635c979fe414610460578063642a8ed61461048057806366a0edce146104a257600080fd5b8063548346a11461042b5780635ab1bd531461044b57600080fd5b80632f680795146103ab57806333647fac146103c9578063479f6152146103e95780634d3f73341461040957600080fd5b806306fdde031161020757806306fdde0314610300578063101de7a414610356578063255978421461037657806329c68dc11461039657600080fd5b8063011163ba1461024757806301e51ae81461026957806301ffc9a7146102a657806302fb0c5e146102e657600080fd5b3661024257600080fd5b600080fd5b34801561025357600080fd5b5061026761026236600461143b565b610700565b005b34801561027557600080fd5b50600054610289906001600160a01b031681565b6040516001600160a01b0390911681526020015b60405180910390f35b3480156102b257600080fd5b506102d66102c1366004611492565b60236020526000908152604090205460ff1681565b604051901515815260200161029d565b3480156102f257600080fd5b506022546102d69060ff1681565b34801561030c57600080fd5b506103496040518060400160405280601381526020017f48656c697832204c696e6b20536572766963650000000000000000000000000081525081565b60405161029d9190611518565b34801561036257600080fd5b50610267610371366004611542565b610798565b34801561038257600080fd5b50610267610391366004611542565b610820565b3480156103a257600080fd5b506102676108a4565b3480156103b757600080fd5b506015546001600160a01b0316610289565b3480156103d557600080fd5b506102676103e4366004611542565b610916565b3480156103f557600080fd5b50610267610404366004611575565b61099a565b34801561041557600080fd5b5061041e610a50565b60405161029d9190611590565b34801561043757600080fd5b50610267610446366004611542565b610a95565b34801561045757600080fd5b5061041e610b19565b34801561046c57600080fd5b5061026761047b3660046115ca565b610b58565b34801561048c57600080fd5b50610495610c28565b60405161029d91906115f6565b3480156104ae57600080fd5b506104b7610c63565b60405161029d919061161e565b3480156104d057600080fd5b506102896104df366004611679565b610ccd565b610267610ced565b3480156104f857600080fd5b50601554610289906001600160a01b031681565b34801561051857600080fd5b50610349610527366004611679565b610dad565b34801561053857600080fd5b50610267610547366004611575565b610e4d565b34801561055857600080fd5b5061056c610567366004611679565b610f0e565b60405190815260200161029d565b34801561058657600080fd5b506103496040518060400160405280600681526020017f48454c495832000000000000000000000000000000000000000000000000000081525081565b3480156105cf57600080fd5b5061056c6105de366004611679565b610f25565b3480156105ef57600080fd5b50610495610f35565b610267610606366004611692565b610f6b565b34801561061757600080fd5b50610620611099565b60405161029d91906116ce565b34801561063957600080fd5b5061056c610648366004611679565b611157565b34801561065957600080fd5b506102676106683660046115ca565b611167565b34801561067957600080fd5b506104956111fc565b34801561068e57600080fd5b506000546001600160a01b0316610289565b3480156106ac57600080fd5b506102896106bb366004611679565b611232565b3480156106cc57600080fd5b5061056c6106db36600461143b565b611242565b3480156106ec57600080fd5b506102676106fb36600461143b565b61126d565b6000546001600160a01b03163314610745576000546040516347522c7b60e11b81526001600160a01b0390911660048201523360248201526044015b60405180910390fd5b60408051838152602081018390527f1e63d23105a4055118805831d2e9ddfdd1d0aa649288ea6af88bc3f1a839aa4d910160405180910390a180600d836004811061079257610792611739565b01555050565b6000546001600160a01b031633146107d8576000546040516347522c7b60e11b81526001600160a01b03909116600482015233602482015260440161073c565b7fe41d51d5fb8e385c5a9fe5bb74bdc64ccba6244430eccc72759a7c8169b7e9d3816040516108079190611768565b60405180910390a161081c601a8260046112fa565b5050565b6000546001600160a01b03163314610860576000546040516347522c7b60e11b81526001600160a01b03909116600482015233602482015260440161073c565b7f791be3d751ae4a05964850f92fc1e74cd8f0c6ddcf6aef1001f583e5f1c950318160405161088f9190611768565b60405180910390a161081c60168260046112fa565b6000546001600160a01b031633146108e4576000546040516347522c7b60e11b81526001600160a01b03909116600482015233602482015260440161073c565b602280547fffffffffffffffffffffffffffffffffffffffffffffffffffffffffffffff00811660ff90911615179055565b6000546001600160a01b03163314610956576000546040516347522c7b60e11b81526001600160a01b03909116600482015233602482015260440161073c565b7f7fcd8173c4f7db37e3bb270284eaeae1d59547dd77434918796924c49055d91e8160405161098591906117a1565b60405180910390a161081c600d826004611368565b6000546001600160a01b031633146109da576000546040516347522c7b60e11b81526001600160a01b03909116600482015233602482015260440161073c565b6040516001600160a01b03821681527f648122358341292aea1c223cd5bd9558c62e765ab13b1ae565d075e692d76b379060200160405180910390a1601580547fffffffffffffffffffffffff0000000000000000000000000000000000000000166001600160a01b0392909216919091179055565b610a58611396565b60408051608081019182905290601a9060049082845b81546001600160a01b03168152600190910190602001808311610a6e575050505050905090565b6000546001600160a01b03163314610ad5576000546040516347522c7b60e11b81526001600160a01b03909116600482015233602482015260440161073c565b7f6116f7116dde91a0e9e26d165df2ff4da2a8825e58929b222641cc28d2e44f0e81604051610b0491906117a1565b60405180910390a161081c601e826004611368565b610b21611396565b604080516080810191829052601680546001600160a01b031682529091600490601760208501808311610a6e575050505050905090565b6000546001600160a01b03163314610b98576000546040516347522c7b60e11b81526001600160a01b03909116600482015233602482015260440161073c565b604080518381526001600160a01b03831660208201527f86999194e67d8c5fb1a642a451b86213ed4f5b67a6a36e9e4d5de8f053e58132910160405180910390a180601a8360048110610bed57610bed611739565b0180547fffffffffffffffffffffffff0000000000000000000000000000000000000000166001600160a01b03929092169190911790555050565b610c30611396565b6040805160808101918290529060119060049082845b815481526020019060010190808311610c46575050505050905090565b610c6b6113b4565b6040805160808101909152600560046000835b82821015610cc457604080518082019182905290600284810287019182845b815481526020019060010190808311610c9d57505050505081526020019060010190610c7e565b50505050905090565b60168160048110610cdd57600080fd5b01546001600160a01b0316905081565b600080546040516001600160a01b039091169047908381818185875af1925050503d8060008114610d3a576040519150601f19603f3d011682016040523d82523d6000602084013e610d3f565b606091505b5050905080610daa576040517f08c379a000000000000000000000000000000000000000000000000000000000815260206004820152601360248201527f4554485f5452414e534645525f4641494c454400000000000000000000000000604482015260640161073c565b50565b60018160048110610dbd57600080fd5b018054909150610dcc906117b0565b80601f0160208091040260200160405190810160405280929190818152602001828054610df8906117b0565b8015610e455780601f10610e1a57610100808354040283529160200191610e45565b820191906000526020600020905b815481529060010190602001808311610e2857829003601f168201915b505050505081565b6000546001600160a01b03163314610e8d576000546040516347522c7b60e11b81526001600160a01b03909116600482015233602482015260440161073c565b600054604080516001600160a01b03928316815291831660208301527fdec101f106d4fc7c85791843e64b198248c822298e3ed7046231d33f7783d816910160405180910390a1600080547fffffffffffffffffffffffff0000000000000000000000000000000000000000166001600160a01b0392909216919091179055565b60118160048110610f1e57600080fd5b0154905081565b601e8160048110610f1e57600080fd5b610f3d611396565b604080516080810191829052601e805482529091600490601f60208501808311610c46575050505050905090565b6000546001600160a01b03163314610fab576000546040516347522c7b60e11b81526001600160a01b03909116600482015233602482015260440161073c565b7fffffffff000000000000000000000000000000000000000000000000000000008083169003611037576040517f08c379a000000000000000000000000000000000000000000000000000000000815260206004820152601a60248201527f494e56414c49445f494e544552464143455f53454c4543544f52000000000000604482015260640161073c565b7fffffffff0000000000000000000000000000000000000000000000000000000091909116600090815260236020526040902080547fffffffffffffffffffffffffffffffffffffffffffffffffffffffffffffff0016911515919091179055565b6110a16113e1565b6040805160808101909152600160046000835b82821015610cc45783820180546110ca906117b0565b80601f01602080910402602001604051908101604052809291908181526020018280546110f6906117b0565b80156111435780601f1061111857610100808354040283529160200191611143565b820191906000526020600020905b81548152906001019060200180831161112657829003601f168201915b5050505050815260200190600101906110b4565b600d8160048110610f1e57600080fd5b6000546001600160a01b031633146111a7576000546040516347522c7b60e11b81526001600160a01b03909116600482015233602482015260440161073c565b604080518381526001600160a01b03831660208201527f896e591224bbe75aedb047b3fd74204bb99d55e4cffb4c059fc669ca7474eb25910160405180910390a18060168360048110610bed57610bed611739565b611204611396565b604080516080810191829052600d805482529091600490600e60208501808311610c46575050505050905090565b601a8160048110610cdd57600080fd5b6005826004811061125257600080fd5b60020201816002811061126457600080fd5b01549150829050565b6000546001600160a01b031633146112ad576000546040516347522c7b60e11b81526001600160a01b03909116600482015233602482015260440161073c565b60408051838152602081018390527fb9362b96e28efbb7a7e63bb4a97faf9924ec0394635feff8588a6ae2a5f784fe910160405180910390a180601e836004811061079257610792611739565b8260048101928215611358579160200282015b828111156113585781547fffffffffffffffffffffffff0000000000000000000000000000000000000000166001600160a01b0384351617825560209092019160019091019061130d565b50611364929150611408565b5090565b8260048101928215611358579160200282015b8281111561135857823582559160200191906001019061137b565b60405180608001604052806004906020820280368337509192915050565b60405180608001604052806004905b6113cb61141d565b8152602001906001900390816113c35790505090565b60405180608001604052806004905b60608152602001906001900390816113f05790505090565b5b808211156113645760008155600101611409565b60405180604001604052806002906020820280368337509192915050565b6000806040838503121561144e57600080fd5b50508035926020909101359150565b80357fffffffff000000000000000000000000000000000000000000000000000000008116811461148d57600080fd5b919050565b6000602082840312156114a457600080fd5b6114ad8261145d565b9392505050565b6000815180845260005b818110156114da576020818501810151868301820152016114be565b5060006020828601015260207fffffffffffffffffffffffffffffffffffffffffffffffffffffffffffffffe0601f83011685010191505092915050565b6020815260006114ad60208301846114b4565b806080810183101561153c57600080fd5b92915050565b60006080828403121561155457600080fd5b6114ad838361152b565b80356001600160a01b038116811461148d57600080fd5b60006020828403121561158757600080fd5b6114ad8261155e565b60808101818360005b60048110156115c15781516001600160a01b0316835260209283019290910190600101611599565b50505092915050565b600080604083850312156115dd57600080fd5b823591506115ed6020840161155e565b90509250929050565b60808101818360005b60048110156115c15781518352602092830192909101906001016115ff565b610100810181836000805b600481101561166f57825184835b6002811015611656578251825260209283019290910190600101611637565b5050506040939093019260209290920191600101611629565b5050505092915050565b60006020828403121561168b57600080fd5b5035919050565b600080604083850312156116a557600080fd5b6116ae8361145d565b9150602083013580151581146116c357600080fd5b809150509250929050565b602080825260009060a0830183820185845b600481101561172d577fffffffffffffffffffffffffffffffffffffffffffffffffffffffffffffffe087850301835261171b8483516114b4565b935091840191908401906001016116e0565b50919695505050505050565b7f4e487b7100000000000000000000000000000000000000000000000000000000600052603260045260246000fd5b60808101818360005b60048110156115c1576001600160a01b0361178b8361155e565b1683526020928301929190910190600101611771565b60808181019083833792915050565b600181811c908216806117c457607f821691505b6020821081036117fd577f4e487b7100000000000000000000000000000000000000000000000000000000600052602260045260246000fd5b5091905056fea264697066735822122025ee0222ab682740e761155fafdb14770d9debfd6197ebabbbc5952f381927c764736f6c63430008100033",
    "linkReferences": {}
  },
  "methodIdentifiers": {
    "Dev()": "01e51ae8",
    "active()": "02fb0c5e",
    "changeDev(address)": "88a8c95c",
    "ensRegistry()": "7d73b231",
    "getENSRegistry()": "2f680795",
    "getIllegalBlocks()": "c2d4cdfc",
    "getLifespans()": "ec2ace2a",
    "getPrices()": "bd9a548b",
    "getRegistrar()": "4d3f7334",
    "getRegistry()": "5ab1bd53",
    "getRoothash()": "642a8ed6",
    "getSizes()": "66a0edce",
    "helix2Registrar(uint256)": "f1715fdc",
    "helix2Registry(uint256)": "70dec5f0",
    "illegalBlocks(uint256)": "80b29beb",
    "isDev()": "f079914f",
    "lifespans(uint256)": "ce721ac9",
    "name()": "06fdde03",
    "prices(uint256)": "bc31c1c1",
    "roothash(uint256)": "8dfcb1c7",
    "setENSRegistry(address)": "479f6152",
    "setInterface(bytes4,bool)": "c0a43a7c",
    "setLife(uint256,uint256)": "011163ba",
    "setLives(uint256[4])": "33647fac",
    "setPrice(uint256,uint256)": "f7d97577",
    "setPrices(uint256[4])": "548346a1",
    "setRegisteries(address[4])": "25597842",
    "setRegistrar(uint256,address)": "5c979fe4",
    "setRegistrars(address[4])": "101de7a4",
    "setRegistry(uint256,address)": "ce786f57",
    "sizes(uint256,uint256)": "f1bec357",
    "supportsInterface(bytes4)": "01ffc9a7",
    "symbol()": "95d89b41",
    "toggleActive()": "29c68dc1",
    "withdrawEther()": "7362377b"
  },
  "id": 22
}