{
  "abi": [
    {
      "inputs": [],
      "name": "CannotBurn",
      "type": "error"
    },
    {
      "inputs": [
        {
          "internalType": "address",
          "name": "to",
          "type": "address"
        }
      ],
      "name": "ERC721IncompatibleReceiver",
      "type": "error"
    },
    {
      "inputs": [
        {
          "internalType": "address",
          "name": "_dev",
          "type": "address"
        },
        {
          "internalType": "address",
          "name": "_you",
          "type": "address"
        }
      ],
      "name": "OnlyDev",
      "type": "error"
    },
    {
      "inputs": [
        {
          "internalType": "address",
          "name": "operator",
          "type": "address"
        },
        {
          "internalType": "address",
          "name": "owner",
          "type": "address"
        },
        {
          "internalType": "uint256",
          "name": "tokenID",
          "type": "uint256"
        }
      ],
      "name": "Unauthorized",
      "type": "error"
    },
    {
      "anonymous": false,
      "inputs": [
        {
          "indexed": true,
          "internalType": "address",
          "name": "owner",
          "type": "address"
        },
        {
          "indexed": true,
          "internalType": "address",
          "name": "spender",
          "type": "address"
        },
        {
          "indexed": true,
          "internalType": "uint256",
          "name": "tokenID",
          "type": "uint256"
        }
      ],
      "name": "Approval",
      "type": "event"
    },
    {
      "anonymous": false,
      "inputs": [
        {
          "indexed": true,
          "internalType": "address",
          "name": "owner",
          "type": "address"
        },
        {
          "indexed": true,
          "internalType": "address",
          "name": "operator",
          "type": "address"
        },
        {
          "indexed": false,
          "internalType": "bool",
          "name": "approved",
          "type": "bool"
        }
      ],
      "name": "ApprovalForAll",
      "type": "event"
    },
    {
      "anonymous": false,
      "inputs": [
        {
          "indexed": false,
          "internalType": "address",
          "name": "Dev",
          "type": "address"
        },
        {
          "indexed": false,
          "internalType": "address",
          "name": "newDev",
          "type": "address"
        }
      ],
      "name": "NewDev",
      "type": "event"
    },
    {
      "anonymous": false,
      "inputs": [
        {
          "indexed": false,
          "internalType": "address[4]",
          "name": "newReg",
          "type": "address[4]"
        }
      ],
      "name": "NewRegistry",
      "type": "event"
    },
    {
      "anonymous": false,
      "inputs": [
        {
          "indexed": false,
          "internalType": "uint256",
          "name": "index",
          "type": "uint256"
        },
        {
          "indexed": false,
          "internalType": "address",
          "name": "newReg",
          "type": "address"
        }
      ],
      "name": "NewSubRegistry",
      "type": "event"
    },
    {
      "anonymous": false,
      "inputs": [
        {
          "indexed": true,
          "internalType": "address",
          "name": "from",
          "type": "address"
        },
        {
          "indexed": true,
          "internalType": "address",
          "name": "to",
          "type": "address"
        },
        {
          "indexed": true,
          "internalType": "uint256",
          "name": "tokenID",
          "type": "uint256"
        }
      ],
      "name": "Transfer",
      "type": "event"
    },
    {
      "stateMutability": "payable",
      "type": "fallback"
    },
    {
      "inputs": [],
      "name": "BONDS",
      "outputs": [
        {
          "internalType": "contract iBOND",
          "name": "",
          "type": "address"
        }
      ],
      "stateMutability": "view",
      "type": "function"
    },
    {
      "inputs": [],
      "name": "Dev",
      "outputs": [
        {
          "internalType": "address",
          "name": "",
          "type": "address"
        }
      ],
      "stateMutability": "view",
      "type": "function"
    },
    {
      "inputs": [],
      "name": "ENS",
      "outputs": [
        {
          "internalType": "contract iENS",
          "name": "",
          "type": "address"
        }
      ],
      "stateMutability": "view",
      "type": "function"
    },
    {
      "inputs": [],
      "name": "MOLECULES",
      "outputs": [
        {
          "internalType": "contract iMOLECULE",
          "name": "",
          "type": "address"
        }
      ],
      "stateMutability": "view",
      "type": "function"
    },
    {
      "inputs": [],
      "name": "NAMES",
      "outputs": [
        {
          "internalType": "contract iNAME",
          "name": "",
          "type": "address"
        }
      ],
      "stateMutability": "view",
      "type": "function"
    },
    {
      "inputs": [],
      "name": "POLYCULES",
      "outputs": [
        {
          "internalType": "contract iPOLYCULE",
          "name": "",
          "type": "address"
        }
      ],
      "stateMutability": "view",
      "type": "function"
    },
    {
      "inputs": [
        {
          "internalType": "uint256",
          "name": "",
          "type": "uint256"
        }
      ],
      "name": "_approved",
      "outputs": [
        {
          "internalType": "address",
          "name": "",
          "type": "address"
        }
      ],
      "stateMutability": "view",
      "type": "function"
    },
    {
      "inputs": [],
      "name": "active",
      "outputs": [
        {
          "internalType": "bool",
          "name": "",
          "type": "bool"
        }
      ],
      "stateMutability": "view",
      "type": "function"
    },
    {
      "inputs": [
        {
          "internalType": "address",
          "name": "controller",
          "type": "address"
        },
        {
          "internalType": "uint256",
          "name": "tokenID",
          "type": "uint256"
        }
      ],
      "name": "approve",
      "outputs": [],
      "stateMutability": "payable",
      "type": "function"
    },
    {
      "inputs": [
        {
          "internalType": "address",
          "name": "wallet",
          "type": "address"
        }
      ],
      "name": "balanceOf",
      "outputs": [
        {
          "internalType": "uint256",
          "name": "",
          "type": "uint256"
        }
      ],
      "stateMutability": "view",
      "type": "function"
    },
    {
      "inputs": [
        {
          "internalType": "address",
          "name": "newDev",
          "type": "address"
        }
      ],
      "name": "changeDev",
      "outputs": [],
      "stateMutability": "nonpayable",
      "type": "function"
    },
    {
      "inputs": [],
      "name": "ensRegistry",
      "outputs": [
        {
          "internalType": "address",
          "name": "",
          "type": "address"
        }
      ],
      "stateMutability": "view",
      "type": "function"
    },
    {
      "inputs": [
        {
          "internalType": "uint256",
          "name": "",
          "type": "uint256"
        }
      ],
      "name": "helix2Registry",
      "outputs": [
        {
          "internalType": "address",
          "name": "",
          "type": "address"
        }
      ],
      "stateMutability": "view",
      "type": "function"
    },
    {
      "inputs": [
        {
          "internalType": "uint256",
          "name": "",
          "type": "uint256"
        }
      ],
      "name": "illegal",
      "outputs": [
        {
          "internalType": "string",
          "name": "",
          "type": "string"
        }
      ],
      "stateMutability": "view",
      "type": "function"
    },
    {
      "inputs": [
        {
          "internalType": "address",
          "name": "",
          "type": "address"
        },
        {
          "internalType": "address",
          "name": "",
          "type": "address"
        }
      ],
      "name": "isApprovedForAll",
      "outputs": [
        {
          "internalType": "bool",
          "name": "",
          "type": "bool"
        }
      ],
      "stateMutability": "view",
      "type": "function"
    },
    {
      "inputs": [],
      "name": "isDev",
      "outputs": [
        {
          "internalType": "address",
          "name": "",
          "type": "address"
        }
      ],
      "stateMutability": "view",
      "type": "function"
    },
    {
      "inputs": [],
      "name": "name",
      "outputs": [
        {
          "internalType": "string",
          "name": "",
          "type": "string"
        }
      ],
      "stateMutability": "view",
      "type": "function"
    },
    {
      "inputs": [
        {
          "internalType": "uint256",
          "name": "tokenID",
          "type": "uint256"
        }
      ],
      "name": "ownerOf",
      "outputs": [
        {
          "internalType": "address",
          "name": "",
          "type": "address"
        }
      ],
      "stateMutability": "view",
      "type": "function"
    },
    {
      "inputs": [
        {
          "internalType": "uint256",
          "name": "",
          "type": "uint256"
        }
      ],
      "name": "roothash",
      "outputs": [
        {
          "internalType": "bytes32",
          "name": "",
          "type": "bytes32"
        }
      ],
      "stateMutability": "view",
      "type": "function"
    },
    {
      "inputs": [
        {
          "internalType": "address",
          "name": "from",
          "type": "address"
        },
        {
          "internalType": "address",
          "name": "to",
          "type": "address"
        },
        {
          "internalType": "uint256",
          "name": "tokenID",
          "type": "uint256"
        }
      ],
      "name": "safeTransferFrom",
      "outputs": [],
      "stateMutability": "payable",
      "type": "function"
    },
    {
      "inputs": [
        {
          "internalType": "address",
          "name": "from",
          "type": "address"
        },
        {
          "internalType": "address",
          "name": "to",
          "type": "address"
        },
        {
          "internalType": "uint256",
          "name": "tokenID",
          "type": "uint256"
        },
        {
          "internalType": "bytes",
          "name": "data",
          "type": "bytes"
        }
      ],
      "name": "safeTransferFrom",
      "outputs": [],
      "stateMutability": "payable",
      "type": "function"
    },
    {
      "inputs": [
        {
          "internalType": "address",
          "name": "controller",
          "type": "address"
        },
        {
          "internalType": "bool",
          "name": "flag",
          "type": "bool"
        }
      ],
      "name": "setApprovalForAll",
      "outputs": [],
      "stateMutability": "payable",
      "type": "function"
    },
    {
      "inputs": [
        {
          "internalType": "bytes4",
          "name": "sig",
          "type": "bytes4"
        },
        {
          "internalType": "bool",
          "name": "value",
          "type": "bool"
        }
      ],
      "name": "setInterface",
      "outputs": [],
      "stateMutability": "payable",
      "type": "function"
    },
    {
      "inputs": [
        {
          "internalType": "address[4]",
          "name": "newReg",
          "type": "address[4]"
        }
      ],
      "name": "setRegistry",
      "outputs": [],
      "stateMutability": "nonpayable",
      "type": "function"
    },
    {
      "inputs": [
        {
          "internalType": "uint256",
          "name": "index",
          "type": "uint256"
        },
        {
          "internalType": "address",
          "name": "newReg",
          "type": "address"
        }
      ],
      "name": "setSubRegistry",
      "outputs": [],
      "stateMutability": "nonpayable",
      "type": "function"
    },
    {
      "inputs": [
        {
          "internalType": "bytes4",
          "name": "",
          "type": "bytes4"
        }
      ],
      "name": "supportsInterface",
      "outputs": [
        {
          "internalType": "bool",
          "name": "",
          "type": "bool"
        }
      ],
      "stateMutability": "view",
      "type": "function"
    },
    {
      "inputs": [],
      "name": "symbol",
      "outputs": [
        {
          "internalType": "string",
          "name": "",
          "type": "string"
        }
      ],
      "stateMutability": "view",
      "type": "function"
    },
    {
      "inputs": [
        {
          "internalType": "address",
          "name": "from",
          "type": "address"
        },
        {
          "internalType": "address",
          "name": "to",
          "type": "address"
        },
        {
          "internalType": "uint256",
          "name": "tokenID",
          "type": "uint256"
        }
      ],
      "name": "transferFrom",
      "outputs": [],
      "stateMutability": "payable",
      "type": "function"
    },
    {
      "inputs": [],
      "name": "withdrawEther",
      "outputs": [],
      "stateMutability": "payable",
      "type": "function"
    },
    {
      "inputs": [
        {
          "internalType": "address",
          "name": "token",
          "type": "address"
        }
      ],
      "name": "withdrawToken",
      "outputs": [],
      "stateMutability": "payable",
      "type": "function"
    },
    {
      "stateMutability": "payable",
      "type": "receive"
    }
  ],
  "bytecode": {
    "object": "0x6001610100818152601760f91b610120526080908152610140828152603f60f81b6101605260a052610180828152602160f81b6101a05260c0526102006040526101c0828152602360f81b6101e05260e0526200005f9190600462000324565b5060408051608081018252600060a082018190527f6f010af653ebe3cb07d297a4ef13366103d392ceffa68dd48232e6e9ff2187bf60c0808401919091528351808403909101815260e0830184528051602091820120835283518082018390527f5f179612d7132c8ed24ba0e286d60d398c4aa1c234eb2274ca1bba47718e9d3181860152845180820386018152606091820186528051908301208285015284518083018490527f3275a893b2c93461554cf2a4dd7f413d56decdd6f3fdf0589dbb8bc4fd742386818701528551808203870181529082018652805190830120848601528451808301939093527face738c68088218d015fbdce138f062893d86818ac98932f7ce2907c5976fbde838601528451808403860181529281019094528151910120918101919091526200019c90600590600462000374565b50600980546001600160a01b0319166e0c2e074ec69a0dfb2997ba6c7d2e1e179055604080516080810182526001815260026020820152600391810191909152600460608201819052620001f391600a91620003b3565b50600e805460ff19166001179055600954601480546001600160a01b03199081166001600160a01b0393841617909155600a54601580548316918416919091179055600b54601680548316918416919091179055600c54601780548316918416919091179055600d546018805490921692169190911790553480156200027857600080fd5b50600080546001600160a01b03191633178155600f6020527f3aa969a5e869ecc16e89c97c89e3207c7759edfb538969e312931204fe7a785e805460ff1990811660019081179092557f76407abb02557ed7bf5e7c01febb21800b7b5cc64fc1d01186117505303ed5b98054821683179055635b5e139f60e01b9092527f3a43fb1441ba21032a6ba1c23a30c0e4262c1302ac7b621eb741d42a134707478054909216179055620005e9565b826004810192821562000362579160200282015b828111156200036257825182906200035190826200051d565b509160200191906001019062000338565b5062000370929150620003fe565b5090565b8260048101928215620003a5579160200282015b82811115620003a557825182559160200191906001019062000388565b50620003709291506200041f565b8260048101928215620003a5579160200282015b82811115620003a557825182546001600160a01b0319166001600160a01b03909116178255602090920191600190910190620003c7565b808211156200037057600062000415828262000436565b50600101620003fe565b5b8082111562000370576000815560010162000420565b50805462000444906200048e565b6000825580601f1062000455575050565b601f0160209004906000526020600020908101906200047591906200041f565b50565b634e487b7160e01b600052604160045260246000fd5b600181811c90821680620004a357607f821691505b602082108103620004c457634e487b7160e01b600052602260045260246000fd5b50919050565b601f8211156200051857600081815260208120601f850160051c81016020861015620004f35750805b601f850160051c820191505b818110156200051457828155600101620004ff565b5050505b505050565b81516001600160401b0381111562000539576200053962000478565b62000551816200054a84546200048e565b84620004ca565b602080601f831160018114620005895760008415620005705750858301515b600019600386901b1c1916600185901b17855562000514565b600085815260208120601f198616915b82811015620005ba5788860151825594840194600190910190840162000599565b5085821015620005d95787850151600019600388901b60f8161c191681555b5050505050600190811b01905550565b6118ae80620005f96000396000f3fe6080604052600436106101d15760003560e01c80637e49c892116100f7578063aa0d81e311610095578063d9ebda1211610064578063d9ebda1214610556578063e985e9c514610576578063f079914f146105b1578063f12e6548146105cf57600080fd5b8063aa0d81e3146104f0578063b4abea2414610510578063b88d4fde14610530578063c0a43a7c1461054357600080fd5b80638dfcb1c7116100d15780638dfcb1c71461043e5780639024d2821461045e57806395d89b4114610494578063a22cb465146104dd57600080fd5b80637e49c892146103eb57806388a8c95c1461040b578063894760691461042b57600080fd5b806323b872dd1161016f57806370a082311161013e57806370a082311461037557806370dec5f0146103a35780637362377b146103c35780637d73b231146103cb57600080fd5b806323b872dd146103225780633f952eb81461033557806342842e0e146103225780636352211e1461035557600080fd5b806305e84aa0116101ab57806305e84aa01461027757806306fdde0314610297578063095ea7b3146102ed5780631d2e2cc41461030257600080fd5b806301e51ae8146101e057806301ffc9a71461021d57806302fb0c5e1461025d57600080fd5b366101db57600080fd5b600080fd5b3480156101ec57600080fd5b50600054610200906001600160a01b031681565b6040516001600160a01b0390911681526020015b60405180910390f35b34801561022957600080fd5b5061024d6102383660046113d0565b600f6020526000908152604090205460ff1681565b6040519015158152602001610214565b34801561026957600080fd5b50600e5461024d9060ff1681565b34801561028357600080fd5b50601554610200906001600160a01b031681565b3480156102a357600080fd5b506102e06040518060400160405280601381526020017f48656c697832204c696e6b20536572766963650000000000000000000000000081525081565b6040516102149190611458565b6103006102fb366004611487565b6105ef565b005b34801561030e57600080fd5b50601454610200906001600160a01b031681565b6103006103303660046114b1565b610718565b34801561034157600080fd5b506103006103503660046114ed565b610738565b34801561036157600080fd5b50610200610370366004611519565b610821565b34801561038157600080fd5b50610395610390366004611532565b6108bb565b604051908152602001610214565b3480156103af57600080fd5b506102006103be366004611519565b610949565b610300610969565b3480156103d757600080fd5b50600954610200906001600160a01b031681565b3480156103f757600080fd5b506102e0610406366004611519565b610a29565b34801561041757600080fd5b50610300610426366004611532565b610ac9565b610300610439366004611532565b610ba3565b34801561044a57600080fd5b50610395610459366004611519565b610cc9565b34801561046a57600080fd5b50610200610479366004611519565b6012602052600090815260409020546001600160a01b031681565b3480156104a057600080fd5b506102e06040518060400160405280600681526020017f48454c495832000000000000000000000000000000000000000000000000000081525081565b6103006104eb36600461155b565b610ce0565b3480156104fc57600080fd5b5061030061050b366004611592565b610d6a565b34801561051c57600080fd5b50601654610200906001600160a01b031681565b61030061053e3660046115e9565b610e07565b6103006105513660046116e3565b610e19565b34801561056257600080fd5b50601854610200906001600160a01b031681565b34801561058257600080fd5b5061024d610591366004611701565b601360209081526000928352604080842090915290825290205460ff1681565b3480156105bd57600080fd5b506000546001600160a01b0316610200565b3480156105db57600080fd5b50601754610200906001600160a01b031681565b6000818152601060205260409020546001600160a01b03163314158061064257506000818152601060209081526040808320546001600160a01b031683526013825280832033845290915290205460ff16155b156106a757600081815260106020526040908190205490517f431ef6160000000000000000000000000000000000000000000000000000000081523360048201526001600160a01b039091166024820152604481018290526064015b60405180910390fd5b60008181526012602052604080822080547fffffffffffffffffffffffff0000000000000000000000000000000000000000166001600160a01b0386169081179091559051839233917f8c5be1e5ebec7d5bd14f71427d1e84f3dd0314c0f7b2291e5b200ac8c7c3b9259190a45050565b61073383838360405180602001604052806000815250610f60565b505050565b6000546001600160a01b03163314610791576000546040517f8ea458f60000000000000000000000000000000000000000000000000000000081526001600160a01b03909116600482015233602482015260440161069e565b604080518381526001600160a01b03831660208201527fc5771d6049f79b265c3b7984f6e33f6e256608c6c2efcc0933d382ace7aad583910160405180910390a180600a83600481106107e6576107e661172b565b0180547fffffffffffffffffffffffff0000000000000000000000000000000000000000166001600160a01b03929092169190911790555050565b6000818152601060205260408120546001600160a01b031661089f576040517f08c379a000000000000000000000000000000000000000000000000000000000815260206004820152600f60248201527f494e56414c49445f544f4b454e49440000000000000000000000000000000000604482015260640161069e565b506000908152601060205260409020546001600160a01b031690565b60006001600160a01b03821661092d576040517f08c379a000000000000000000000000000000000000000000000000000000000815260206004820152600c60248201527f5a45524f5f414444524553530000000000000000000000000000000000000000604482015260640161069e565b506001600160a01b031660009081526011602052604090205490565b600a816004811061095957600080fd5b01546001600160a01b0316905081565b600080546040516001600160a01b039091169047908381818185875af1925050503d80600081146109b6576040519150601f19603f3d011682016040523d82523d6000602084013e6109bb565b606091505b5050905080610a26576040517f08c379a000000000000000000000000000000000000000000000000000000000815260206004820152601360248201527f4554485f5452414e534645525f4641494c454400000000000000000000000000604482015260640161069e565b50565b60018160048110610a3957600080fd5b018054909150610a489061175a565b80601f0160208091040260200160405190810160405280929190818152602001828054610a749061175a565b8015610ac15780601f10610a9657610100808354040283529160200191610ac1565b820191906000526020600020905b815481529060010190602001808311610aa457829003601f168201915b505050505081565b6000546001600160a01b03163314610b22576000546040517f8ea458f60000000000000000000000000000000000000000000000000000000081526001600160a01b03909116600482015233602482015260440161069e565b600054604080516001600160a01b03928316815291831660208301527fdec101f106d4fc7c85791843e64b198248c822298e3ed7046231d33f7783d816910160405180910390a1600080547fffffffffffffffffffffffff0000000000000000000000000000000000000000166001600160a01b0392909216919091179055565b6000546040517f70a0823100000000000000000000000000000000000000000000000000000000815230600482018190526001600160a01b03848116936323b872dd9391169084906370a0823190602401602060405180830381865afa158015610c11573d6000803e3d6000fd5b505050506040513d601f19601f82011682018060405250810190610c3591906117a7565b6040517fffffffff0000000000000000000000000000000000000000000000000000000060e086901b1681526001600160a01b03938416600482015292909116602483015260448201526064016020604051808303816000875af1158015610ca1573d6000803e3d6000fd5b505050506040513d601f19601f82011682018060405250810190610cc591906117c0565b5050565b60058160048110610cd957600080fd5b0154905081565b3360008181526013602090815260408083206001600160a01b0387168085529083529281902080547fffffffffffffffffffffffffffffffffffffffffffffffffffffffffffffff001686151590811790915590519081529192917f17307eab39ab6107e8899845ad3d59bd9653f200f220920489ca2b5937696c31910160405180910390a35050565b6000546001600160a01b03163314610dc3576000546040517f8ea458f60000000000000000000000000000000000000000000000000000000081526001600160a01b03909116600482015233602482015260440161069e565b7fd013789329f052dd9fe222fe14f05f78a86626c1b4d25232099e6e271be374d581604051610df291906117dd565b60405180910390a1610cc5600a82600461131f565b610e1384848484610f60565b50505050565b6000546001600160a01b03163314610e72576000546040517f8ea458f60000000000000000000000000000000000000000000000000000000081526001600160a01b03909116600482015233602482015260440161069e565b7fffffffff000000000000000000000000000000000000000000000000000000008083169003610efe576040517f08c379a000000000000000000000000000000000000000000000000000000000815260206004820152601a60248201527f494e56414c49445f494e544552464143455f53454c4543544f52000000000000604482015260640161069e565b7fffffffff00000000000000000000000000000000000000000000000000000000919091166000908152600f6020526040902080547fffffffffffffffffffffffffffffffffffffffffffffffffffffffffffffff0016911515919091179055565b6001600160a01b038316610fa0576040517f5788079900000000000000000000000000000000000000000000000000000000815260040160405180910390fd5b6000828152601060205260409020546001600160a01b0385811691161461101e57600082815260106020526040908190205490517f431ef6160000000000000000000000000000000000000000000000000000000081526001600160a01b03918216600482015290851660248201526044810183905260640161069e565b6000828152601060205260409020546001600160a01b0316331480159061106957506001600160a01b038416600090815260136020908152604080832033845290915290205460ff16155b801561108c57506000828152601260205260409020546001600160a01b03163314155b156110db576040517f431ef6160000000000000000000000000000000000000000000000000000000081523360048201526001600160a01b03851660248201526044810183905260640161069e565b600082815260126020908152604080832080547fffffffffffffffffffffffff00000000000000000000000000000000000000009081169091556010835281842080546001600160a01b03898116919093168117909155908816808552601190935281842080547fffffffffffffffffffffffffffffffffffffffffffffffffffffffffffffffff01905580845281842080546001019055905185939192917fddf252ad1be2c89b69c2b068fc378daa952ba7f163c4a11628f55a4df523b3ef91a46001600160a01b0383163b15610e13576040517f150b7a020000000000000000000000000000000000000000000000000000000081526001600160a01b0384169063150b7a02906111f890339088908790879060040161181f565b6020604051808303816000875af1925050508015611251575060408051601f3d9081017fffffffffffffffffffffffffffffffffffffffffffffffffffffffffffffffe016820190925261124e9181019061185b565b60015b611292576040517f3a9f8cb30000000000000000000000000000000000000000000000000000000081526001600160a01b038416600482015260240161069e565b7fffffffff0000000000000000000000000000000000000000000000000000000081167f150b7a020000000000000000000000000000000000000000000000000000000014611318576040517f3a9f8cb30000000000000000000000000000000000000000000000000000000081526001600160a01b038516600482015260240161069e565b5050505050565b826004810192821561137d579160200282015b8281111561137d5781547fffffffffffffffffffffffff0000000000000000000000000000000000000000166001600160a01b03843516178255602090920191600190910190611332565b5061138992915061138d565b5090565b5b80821115611389576000815560010161138e565b7fffffffff0000000000000000000000000000000000000000000000000000000081168114610a2657600080fd5b6000602082840312156113e257600080fd5b81356113ed816113a2565b9392505050565b6000815180845260005b8181101561141a576020818501810151868301820152016113fe565b5060006020828601015260207fffffffffffffffffffffffffffffffffffffffffffffffffffffffffffffffe0601f83011685010191505092915050565b6020815260006113ed60208301846113f4565b80356001600160a01b038116811461148257600080fd5b919050565b6000806040838503121561149a57600080fd5b6114a38361146b565b946020939093013593505050565b6000806000606084860312156114c657600080fd5b6114cf8461146b565b92506114dd6020850161146b565b9150604084013590509250925092565b6000806040838503121561150057600080fd5b823591506115106020840161146b565b90509250929050565b60006020828403121561152b57600080fd5b5035919050565b60006020828403121561154457600080fd5b6113ed8261146b565b8015158114610a2657600080fd5b6000806040838503121561156e57600080fd5b6115778361146b565b915060208301356115878161154d565b809150509250929050565b6000608082840312156115a457600080fd5b826080830111156115b457600080fd5b50919050565b7f4e487b7100000000000000000000000000000000000000000000000000000000600052604160045260246000fd5b600080600080608085870312156115ff57600080fd5b6116088561146b565b93506116166020860161146b565b925060408501359150606085013567ffffffffffffffff8082111561163a57600080fd5b818701915087601f83011261164e57600080fd5b813581811115611660576116606115ba565b604051601f82017fffffffffffffffffffffffffffffffffffffffffffffffffffffffffffffffe0908116603f011681019083821181831017156116a6576116a66115ba565b816040528281528a60208487010111156116bf57600080fd5b82602086016020830137600060208483010152809550505050505092959194509250565b600080604083850312156116f657600080fd5b8235611577816113a2565b6000806040838503121561171457600080fd5b61171d8361146b565b91506115106020840161146b565b7f4e487b7100000000000000000000000000000000000000000000000000000000600052603260045260246000fd5b600181811c9082168061176e57607f821691505b6020821081036115b4577f4e487b7100000000000000000000000000000000000000000000000000000000600052602260045260246000fd5b6000602082840312156117b957600080fd5b5051919050565b6000602082840312156117d257600080fd5b81516113ed8161154d565b60808101818360005b6004811015611816576001600160a01b036118008361146b565b16835260209283019291909101906001016117e6565b50505092915050565b60006001600160a01b0380871683528086166020840152508360408301526080606083015261185160808301846113f4565b9695505050505050565b60006020828403121561186d57600080fd5b81516113ed816113a256fea2646970667358221220d27470ac5dc8b549fb206966bf08f157652eafdacd5f0af20b862fe350692a9f64736f6c63430008100033",
    "linkReferences": {}
  },
  "methodIdentifiers": {
    "BONDS()": "b4abea24",
    "Dev()": "01e51ae8",
    "ENS()": "1d2e2cc4",
    "MOLECULES()": "f12e6548",
    "NAMES()": "05e84aa0",
    "POLYCULES()": "d9ebda12",
    "_approved(uint256)": "9024d282",
    "active()": "02fb0c5e",
    "approve(address,uint256)": "095ea7b3",
    "balanceOf(address)": "70a08231",
    "changeDev(address)": "88a8c95c",
    "ensRegistry()": "7d73b231",
    "helix2Registry(uint256)": "70dec5f0",
    "illegal(uint256)": "7e49c892",
    "isApprovedForAll(address,address)": "e985e9c5",
    "isDev()": "f079914f",
    "name()": "06fdde03",
    "ownerOf(uint256)": "6352211e",
    "roothash(uint256)": "8dfcb1c7",
    "safeTransferFrom(address,address,uint256)": "42842e0e",
    "safeTransferFrom(address,address,uint256,bytes)": "b88d4fde",
    "setApprovalForAll(address,bool)": "a22cb465",
    "setInterface(bytes4,bool)": "c0a43a7c",
    "setRegistry(address[4])": "aa0d81e3",
    "setSubRegistry(uint256,address)": "3f952eb8",
    "supportsInterface(bytes4)": "01ffc9a7",
    "symbol()": "95d89b41",
    "transferFrom(address,address,uint256)": "23b872dd",
    "withdrawEther()": "7362377b",
    "withdrawToken(address)": "89476069"
  },
  "id": 2
}