{
  "abi": [
    {
      "inputs": [],
      "name": "CannotBurn",
      "type": "error"
    },
    {
      "inputs": [
        {
          "internalType": "address",
          "name": "to",
          "type": "address"
        }
      ],
      "name": "ERC721IncompatibleReceiver",
      "type": "error"
    },
    {
      "inputs": [
        {
          "internalType": "address",
          "name": "_dev",
          "type": "address"
        },
        {
          "internalType": "address",
          "name": "_you",
          "type": "address"
        }
      ],
      "name": "OnlyDev",
      "type": "error"
    },
    {
      "inputs": [
        {
          "internalType": "address",
          "name": "operator",
          "type": "address"
        },
        {
          "internalType": "address",
          "name": "owner",
          "type": "address"
        },
        {
          "internalType": "uint256",
          "name": "tokenID",
          "type": "uint256"
        }
      ],
      "name": "Unauthorized",
      "type": "error"
    },
    {
      "anonymous": false,
      "inputs": [
        {
          "indexed": true,
          "internalType": "address",
          "name": "owner",
          "type": "address"
        },
        {
          "indexed": true,
          "internalType": "address",
          "name": "spender",
          "type": "address"
        },
        {
          "indexed": true,
          "internalType": "uint256",
          "name": "tokenID",
          "type": "uint256"
        }
      ],
      "name": "Approval",
      "type": "event"
    },
    {
      "anonymous": false,
      "inputs": [
        {
          "indexed": true,
          "internalType": "address",
          "name": "owner",
          "type": "address"
        },
        {
          "indexed": true,
          "internalType": "address",
          "name": "operator",
          "type": "address"
        },
        {
          "indexed": false,
          "internalType": "bool",
          "name": "approved",
          "type": "bool"
        }
      ],
      "name": "ApprovalForAll",
      "type": "event"
    },
    {
      "anonymous": false,
      "inputs": [
        {
          "indexed": false,
          "internalType": "address",
          "name": "Dev",
          "type": "address"
        },
        {
          "indexed": false,
          "internalType": "address",
          "name": "newDev",
          "type": "address"
        }
      ],
      "name": "NewDev",
      "type": "event"
    },
    {
      "anonymous": false,
      "inputs": [
        {
          "indexed": false,
          "internalType": "address[4]",
          "name": "newReg",
          "type": "address[4]"
        }
      ],
      "name": "NewRegistry",
      "type": "event"
    },
    {
      "anonymous": false,
      "inputs": [
        {
          "indexed": false,
          "internalType": "uint256",
          "name": "index",
          "type": "uint256"
        },
        {
          "indexed": false,
          "internalType": "address",
          "name": "newReg",
          "type": "address"
        }
      ],
      "name": "NewSubRegistry",
      "type": "event"
    },
    {
      "anonymous": false,
      "inputs": [
        {
          "indexed": true,
          "internalType": "address",
          "name": "from",
          "type": "address"
        },
        {
          "indexed": true,
          "internalType": "address",
          "name": "to",
          "type": "address"
        },
        {
          "indexed": true,
          "internalType": "uint256",
          "name": "tokenID",
          "type": "uint256"
        }
      ],
      "name": "Transfer",
      "type": "event"
    },
    {
      "stateMutability": "payable",
      "type": "fallback"
    },
    {
      "inputs": [],
      "name": "BONDS",
      "outputs": [
        {
          "internalType": "contract iBOND",
          "name": "",
          "type": "address"
        }
      ],
      "stateMutability": "view",
      "type": "function"
    },
    {
      "inputs": [],
      "name": "DefaultResolver",
      "outputs": [
        {
          "internalType": "address",
          "name": "",
          "type": "address"
        }
      ],
      "stateMutability": "view",
      "type": "function"
    },
    {
      "inputs": [],
      "name": "Dev",
      "outputs": [
        {
          "internalType": "address",
          "name": "",
          "type": "address"
        }
      ],
      "stateMutability": "view",
      "type": "function"
    },
    {
      "inputs": [],
      "name": "ENS",
      "outputs": [
        {
          "internalType": "contract iENS",
          "name": "",
          "type": "address"
        }
      ],
      "stateMutability": "view",
      "type": "function"
    },
    {
      "inputs": [],
      "name": "MOLECULES",
      "outputs": [
        {
          "internalType": "contract iMOLECULE",
          "name": "",
          "type": "address"
        }
      ],
      "stateMutability": "view",
      "type": "function"
    },
    {
      "inputs": [],
      "name": "NAMES",
      "outputs": [
        {
          "internalType": "contract iNAME",
          "name": "",
          "type": "address"
        }
      ],
      "stateMutability": "view",
      "type": "function"
    },
    {
      "inputs": [],
      "name": "POLYCULES",
      "outputs": [
        {
          "internalType": "contract iPOLYCULE",
          "name": "",
          "type": "address"
        }
      ],
      "stateMutability": "view",
      "type": "function"
    },
    {
      "inputs": [
        {
          "internalType": "uint256",
          "name": "",
          "type": "uint256"
        }
      ],
      "name": "_approved",
      "outputs": [
        {
          "internalType": "address",
          "name": "",
          "type": "address"
        }
      ],
      "stateMutability": "view",
      "type": "function"
    },
    {
      "inputs": [],
      "name": "active",
      "outputs": [
        {
          "internalType": "bool",
          "name": "",
          "type": "bool"
        }
      ],
      "stateMutability": "view",
      "type": "function"
    },
    {
      "inputs": [
        {
          "internalType": "address",
          "name": "controller",
          "type": "address"
        },
        {
          "internalType": "uint256",
          "name": "tokenID",
          "type": "uint256"
        }
      ],
      "name": "approve",
      "outputs": [],
      "stateMutability": "payable",
      "type": "function"
    },
    {
      "inputs": [
        {
          "internalType": "address",
          "name": "newDev",
          "type": "address"
        }
      ],
      "name": "changeDev",
      "outputs": [],
      "stateMutability": "nonpayable",
      "type": "function"
    },
    {
      "inputs": [],
      "name": "ensRegistry",
      "outputs": [
        {
          "internalType": "address",
          "name": "",
          "type": "address"
        }
      ],
      "stateMutability": "view",
      "type": "function"
    },
    {
      "inputs": [
        {
          "internalType": "uint256",
          "name": "",
          "type": "uint256"
        }
      ],
      "name": "helix2Registry",
      "outputs": [
        {
          "internalType": "address",
          "name": "",
          "type": "address"
        }
      ],
      "stateMutability": "view",
      "type": "function"
    },
    {
      "inputs": [
        {
          "internalType": "uint256",
          "name": "",
          "type": "uint256"
        }
      ],
      "name": "illegal",
      "outputs": [
        {
          "internalType": "string",
          "name": "",
          "type": "string"
        }
      ],
      "stateMutability": "view",
      "type": "function"
    },
    {
      "inputs": [
        {
          "internalType": "address",
          "name": "",
          "type": "address"
        },
        {
          "internalType": "address",
          "name": "",
          "type": "address"
        }
      ],
      "name": "isApprovedForAll",
      "outputs": [
        {
          "internalType": "bool",
          "name": "",
          "type": "bool"
        }
      ],
      "stateMutability": "view",
      "type": "function"
    },
    {
      "inputs": [],
      "name": "isDev",
      "outputs": [
        {
          "internalType": "address",
          "name": "",
          "type": "address"
        }
      ],
      "stateMutability": "view",
      "type": "function"
    },
    {
      "inputs": [],
      "name": "name",
      "outputs": [
        {
          "internalType": "string",
          "name": "",
          "type": "string"
        }
      ],
      "stateMutability": "view",
      "type": "function"
    },
    {
      "inputs": [
        {
          "internalType": "uint256",
          "name": "tokenID",
          "type": "uint256"
        }
      ],
      "name": "ownerOf",
      "outputs": [
        {
          "internalType": "address",
          "name": "",
          "type": "address"
        }
      ],
      "stateMutability": "view",
      "type": "function"
    },
    {
      "inputs": [
        {
          "internalType": "uint256",
          "name": "",
          "type": "uint256"
        }
      ],
      "name": "roothash",
      "outputs": [
        {
          "internalType": "bytes32",
          "name": "",
          "type": "bytes32"
        }
      ],
      "stateMutability": "view",
      "type": "function"
    },
    {
      "inputs": [
        {
          "internalType": "address",
          "name": "from",
          "type": "address"
        },
        {
          "internalType": "address",
          "name": "to",
          "type": "address"
        },
        {
          "internalType": "uint256",
          "name": "tokenID",
          "type": "uint256"
        }
      ],
      "name": "safeTransferFrom",
      "outputs": [],
      "stateMutability": "payable",
      "type": "function"
    },
    {
      "inputs": [
        {
          "internalType": "address",
          "name": "from",
          "type": "address"
        },
        {
          "internalType": "address",
          "name": "to",
          "type": "address"
        },
        {
          "internalType": "uint256",
          "name": "tokenID",
          "type": "uint256"
        },
        {
          "internalType": "bytes",
          "name": "data",
          "type": "bytes"
        }
      ],
      "name": "safeTransferFrom",
      "outputs": [],
      "stateMutability": "payable",
      "type": "function"
    },
    {
      "inputs": [
        {
          "internalType": "address",
          "name": "controller",
          "type": "address"
        },
        {
          "internalType": "bool",
          "name": "flag",
          "type": "bool"
        }
      ],
      "name": "setApprovalForAll",
      "outputs": [],
      "stateMutability": "payable",
      "type": "function"
    },
    {
      "inputs": [
        {
          "internalType": "bytes4",
          "name": "sig",
          "type": "bytes4"
        },
        {
          "internalType": "bool",
          "name": "value",
          "type": "bool"
        }
      ],
      "name": "setInterface",
      "outputs": [],
      "stateMutability": "payable",
      "type": "function"
    },
    {
      "inputs": [
        {
          "internalType": "address[4]",
          "name": "newReg",
          "type": "address[4]"
        }
      ],
      "name": "setRegistry",
      "outputs": [],
      "stateMutability": "nonpayable",
      "type": "function"
    },
    {
      "inputs": [
        {
          "internalType": "uint256",
          "name": "index",
          "type": "uint256"
        },
        {
          "internalType": "address",
          "name": "newReg",
          "type": "address"
        }
      ],
      "name": "setSubRegistry",
      "outputs": [],
      "stateMutability": "nonpayable",
      "type": "function"
    },
    {
      "inputs": [
        {
          "internalType": "bytes4",
          "name": "",
          "type": "bytes4"
        }
      ],
      "name": "supportsInterface",
      "outputs": [
        {
          "internalType": "bool",
          "name": "",
          "type": "bool"
        }
      ],
      "stateMutability": "view",
      "type": "function"
    },
    {
      "inputs": [],
      "name": "symbol",
      "outputs": [
        {
          "internalType": "string",
          "name": "",
          "type": "string"
        }
      ],
      "stateMutability": "view",
      "type": "function"
    },
    {
      "inputs": [
        {
          "internalType": "address",
          "name": "from",
          "type": "address"
        },
        {
          "internalType": "address",
          "name": "to",
          "type": "address"
        },
        {
          "internalType": "uint256",
          "name": "tokenID",
          "type": "uint256"
        }
      ],
      "name": "transferFrom",
      "outputs": [],
      "stateMutability": "payable",
      "type": "function"
    },
    {
      "inputs": [],
      "name": "withdrawEther",
      "outputs": [],
      "stateMutability": "payable",
      "type": "function"
    },
    {
      "inputs": [
        {
          "internalType": "address",
          "name": "token",
          "type": "address"
        }
      ],
      "name": "withdrawToken",
      "outputs": [],
      "stateMutability": "payable",
      "type": "function"
    },
    {
      "stateMutability": "payable",
      "type": "receive"
    }
  ],
  "bytecode": {
    "object": "0x6001610100818152601760f91b610120526080908152610140828152603f60f81b6101605260a052610180828152602160f81b6101a05260c0526102006040526101c0828152602360f81b6101e05260e0526200005f9190600462000324565b5060408051608081018252600060a082018190527f6f010af653ebe3cb07d297a4ef13366103d392ceffa68dd48232e6e9ff2187bf60c0808401919091528351808403909101815260e0830184528051602091820120835283518082018390527f5f179612d7132c8ed24ba0e286d60d398c4aa1c234eb2274ca1bba47718e9d3181860152845180820386018152606091820186528051908301208285015284518083018490527f3275a893b2c93461554cf2a4dd7f413d56decdd6f3fdf0589dbb8bc4fd742386818701528551808203870181529082018652805190830120848601528451808301939093527face738c68088218d015fbdce138f062893d86818ac98932f7ce2907c5976fbde838601528451808403860181529281019094528151910120918101919091526200019c90600590600462000374565b50600a80546001600160a01b0319166e0c2e074ec69a0dfb2997ba6c7d2e1e179055604080516080810182526001815260026020820152600391810191909152600460608201819052620001f391600b91620003b3565b50600f805460ff19166001179055600a54601480546001600160a01b03199081166001600160a01b0393841617909155600b54601580548316918416919091179055600c54601680548316918416919091179055600d54601780548316918416919091179055600e546018805490921692169190911790553480156200027857600080fd5b50600080546001600160a01b0319163317815560106020527f02a773bc60178247141a6a6011a0414575dd66fa2276bdcd8ce1541258a9121f805460ff1990811660019081179092557f2d328a39f7aeddec6689b56e61163eaaca5f93d4551bfe6c3b238244c7616a108054821683179055635b5e139f60e01b9092527fd47f60f7da954982e719fd0cf43a459e942f858429bdcad45d541b5864a5ed7a8054909216179055620005e9565b826004810192821562000362579160200282015b828111156200036257825182906200035190826200051d565b509160200191906001019062000338565b5062000370929150620003fe565b5090565b8260048101928215620003a5579160200282015b82811115620003a557825182559160200191906001019062000388565b50620003709291506200041f565b8260048101928215620003a5579160200282015b82811115620003a557825182546001600160a01b0319166001600160a01b03909116178255602090920191600190910190620003c7565b808211156200037057600062000415828262000436565b50600101620003fe565b5b8082111562000370576000815560010162000420565b50805462000444906200048e565b6000825580601f1062000455575050565b601f0160209004906000526020600020908101906200047591906200041f565b50565b634e487b7160e01b600052604160045260246000fd5b600181811c90821680620004a357607f821691505b602082108103620004c457634e487b7160e01b600052602260045260246000fd5b50919050565b601f8211156200051857600081815260208120601f850160051c81016020861015620004f35750805b601f850160051c820191505b818110156200051457828155600101620004ff565b5050505b505050565b81516001600160401b0381111562000539576200053962000478565b62000551816200054a84546200048e565b84620004ca565b602080601f831160018114620005895760008415620005705750858301515b600019600386901b1c1916600185901b17855562000514565b600085815260208120601f198616915b82811015620005ba5788860151825594840194600190910190840162000599565b5085821015620005d95787850151600019600388901b60f8161c191681555b5050505050600190811b01905550565b6117e180620005f96000396000f3fe6080604052600436106101d05760003560e01c80637e49c892116100f7578063aa0d81e311610095578063d9ebda1211610064578063d9ebda1214610555578063e985e9c514610575578063f079914f146105b0578063f12e6548146105ce57600080fd5b8063aa0d81e3146104ef578063b4abea241461050f578063b88d4fde1461052f578063c0a43a7c1461054257600080fd5b80638dfcb1c7116100d15780638dfcb1c71461042f5780639024d2821461045d57806395d89b4114610493578063a22cb465146104dc57600080fd5b80637e49c892146103dc57806388a8c95c146103fc578063894760691461041c57600080fd5b80631d2e2cc41161016f5780636352211e1161013e5780636352211e1461037457806370dec5f0146103945780637362377b146103b45780637d73b231146103bc57600080fd5b80631d2e2cc41461032157806323b872dd146103415780633f952eb81461035457806342842e0e1461034157600080fd5b806302fb0c5e116101ab57806302fb0c5e1461027c57806305e84aa01461029657806306fdde03146102b6578063095ea7b31461030c57600080fd5b8062b7aff7146101df57806301e51ae81461021c57806301ffc9a71461023c57600080fd5b366101da57600080fd5b600080fd5b3480156101eb57600080fd5b506009546101ff906001600160a01b031681565b6040516001600160a01b0390911681526020015b60405180910390f35b34801561022857600080fd5b506000546101ff906001600160a01b031681565b34801561024857600080fd5b5061026c610257366004611303565b60106020526000908152604090205460ff1681565b6040519015158152602001610213565b34801561028857600080fd5b50600f5461026c9060ff1681565b3480156102a257600080fd5b506015546101ff906001600160a01b031681565b3480156102c257600080fd5b506102ff6040518060400160405280601381526020017f48656c697832204c696e6b20536572766963650000000000000000000000000081525081565b604051610213919061138b565b61031f61031a3660046113ba565b6105ee565b005b34801561032d57600080fd5b506014546101ff906001600160a01b031681565b61031f61034f3660046113e4565b610717565b34801561036057600080fd5b5061031f61036f366004611420565b610737565b34801561038057600080fd5b506101ff61038f36600461144c565b610820565b3480156103a057600080fd5b506101ff6103af36600461144c565b6108ba565b61031f6108da565b3480156103c857600080fd5b50600a546101ff906001600160a01b031681565b3480156103e857600080fd5b506102ff6103f736600461144c565b61099a565b34801561040857600080fd5b5061031f610417366004611465565b610a3a565b61031f61042a366004611465565b610b14565b34801561043b57600080fd5b5061044f61044a36600461144c565b610c3a565b604051908152602001610213565b34801561046957600080fd5b506101ff61047836600461144c565b6012602052600090815260409020546001600160a01b031681565b34801561049f57600080fd5b506102ff6040518060400160405280600681526020017f48454c495832000000000000000000000000000000000000000000000000000081525081565b61031f6104ea36600461148e565b610c51565b3480156104fb57600080fd5b5061031f61050a3660046114c5565b610cdb565b34801561051b57600080fd5b506016546101ff906001600160a01b031681565b61031f61053d36600461151c565b610d78565b61031f610550366004611616565b610d8a565b34801561056157600080fd5b506018546101ff906001600160a01b031681565b34801561058157600080fd5b5061026c610590366004611634565b601360209081526000928352604080842090915290825290205460ff1681565b3480156105bc57600080fd5b506000546001600160a01b03166101ff565b3480156105da57600080fd5b506017546101ff906001600160a01b031681565b6000818152601160205260409020546001600160a01b03163314158061064157506000818152601160209081526040808320546001600160a01b031683526013825280832033845290915290205460ff16155b156106a657600081815260116020526040908190205490517f431ef6160000000000000000000000000000000000000000000000000000000081523360048201526001600160a01b039091166024820152604481018290526064015b60405180910390fd5b60008181526012602052604080822080547fffffffffffffffffffffffff0000000000000000000000000000000000000000166001600160a01b0386169081179091559051839233917f8c5be1e5ebec7d5bd14f71427d1e84f3dd0314c0f7b2291e5b200ac8c7c3b9259190a45050565b61073283838360405180602001604052806000815250610ed1565b505050565b6000546001600160a01b03163314610790576000546040517f8ea458f60000000000000000000000000000000000000000000000000000000081526001600160a01b03909116600482015233602482015260440161069d565b604080518381526001600160a01b03831660208201527fc5771d6049f79b265c3b7984f6e33f6e256608c6c2efcc0933d382ace7aad583910160405180910390a180600b83600481106107e5576107e561165e565b0180547fffffffffffffffffffffffff0000000000000000000000000000000000000000166001600160a01b03929092169190911790555050565b6000818152601160205260408120546001600160a01b031661089e576040517f08c379a000000000000000000000000000000000000000000000000000000000815260206004820152600f60248201527f494e56414c49445f544f4b454e49440000000000000000000000000000000000604482015260640161069d565b506000908152601160205260409020546001600160a01b031690565b600b81600481106108ca57600080fd5b01546001600160a01b0316905081565b600080546040516001600160a01b039091169047908381818185875af1925050503d8060008114610927576040519150601f19603f3d011682016040523d82523d6000602084013e61092c565b606091505b5050905080610997576040517f08c379a000000000000000000000000000000000000000000000000000000000815260206004820152601360248201527f4554485f5452414e534645525f4641494c454400000000000000000000000000604482015260640161069d565b50565b600181600481106109aa57600080fd5b0180549091506109b99061168d565b80601f01602080910402602001604051908101604052809291908181526020018280546109e59061168d565b8015610a325780601f10610a0757610100808354040283529160200191610a32565b820191906000526020600020905b815481529060010190602001808311610a1557829003601f168201915b505050505081565b6000546001600160a01b03163314610a93576000546040517f8ea458f60000000000000000000000000000000000000000000000000000000081526001600160a01b03909116600482015233602482015260440161069d565b600054604080516001600160a01b03928316815291831660208301527fdec101f106d4fc7c85791843e64b198248c822298e3ed7046231d33f7783d816910160405180910390a1600080547fffffffffffffffffffffffff0000000000000000000000000000000000000000166001600160a01b0392909216919091179055565b6000546040517f70a0823100000000000000000000000000000000000000000000000000000000815230600482018190526001600160a01b03848116936323b872dd9391169084906370a0823190602401602060405180830381865afa158015610b82573d6000803e3d6000fd5b505050506040513d601f19601f82011682018060405250810190610ba691906116da565b6040517fffffffff0000000000000000000000000000000000000000000000000000000060e086901b1681526001600160a01b03938416600482015292909116602483015260448201526064016020604051808303816000875af1158015610c12573d6000803e3d6000fd5b505050506040513d601f19601f82011682018060405250810190610c3691906116f3565b5050565b60058160048110610c4a57600080fd5b0154905081565b3360008181526013602090815260408083206001600160a01b0387168085529083529281902080547fffffffffffffffffffffffffffffffffffffffffffffffffffffffffffffff001686151590811790915590519081529192917f17307eab39ab6107e8899845ad3d59bd9653f200f220920489ca2b5937696c31910160405180910390a35050565b6000546001600160a01b03163314610d34576000546040517f8ea458f60000000000000000000000000000000000000000000000000000000081526001600160a01b03909116600482015233602482015260440161069d565b7fd013789329f052dd9fe222fe14f05f78a86626c1b4d25232099e6e271be374d581604051610d639190611710565b60405180910390a1610c36600b826004611252565b610d8484848484610ed1565b50505050565b6000546001600160a01b03163314610de3576000546040517f8ea458f60000000000000000000000000000000000000000000000000000000081526001600160a01b03909116600482015233602482015260440161069d565b7fffffffff000000000000000000000000000000000000000000000000000000008083169003610e6f576040517f08c379a000000000000000000000000000000000000000000000000000000000815260206004820152601a60248201527f494e56414c49445f494e544552464143455f53454c4543544f52000000000000604482015260640161069d565b7fffffffff0000000000000000000000000000000000000000000000000000000091909116600090815260106020526040902080547fffffffffffffffffffffffffffffffffffffffffffffffffffffffffffffff0016911515919091179055565b6001600160a01b038316610f11576040517f5788079900000000000000000000000000000000000000000000000000000000815260040160405180910390fd5b6000828152601160205260409020546001600160a01b03858116911614610f8f57600082815260116020526040908190205490517f431ef6160000000000000000000000000000000000000000000000000000000081526001600160a01b03918216600482015290851660248201526044810183905260640161069d565b6000828152601160205260409020546001600160a01b03163314801590610fda57506001600160a01b038416600090815260136020908152604080832033845290915290205460ff16155b8015610ffd57506000828152601260205260409020546001600160a01b03163314155b1561104c576040517f431ef6160000000000000000000000000000000000000000000000000000000081523360048201526001600160a01b03851660248201526044810183905260640161069d565b600082815260126020908152604080832080547fffffffffffffffffffffffff0000000000000000000000000000000000000000908116909155601190925280832080546001600160a01b038881169190941681179091559051859391928816917fddf252ad1be2c89b69c2b068fc378daa952ba7f163c4a11628f55a4df523b3ef91a46001600160a01b0383163b15610d84576040517f150b7a020000000000000000000000000000000000000000000000000000000081526001600160a01b0384169063150b7a029061112b903390889087908790600401611752565b6020604051808303816000875af1925050508015611184575060408051601f3d9081017fffffffffffffffffffffffffffffffffffffffffffffffffffffffffffffffe01682019092526111819181019061178e565b60015b6111c5576040517f3a9f8cb30000000000000000000000000000000000000000000000000000000081526001600160a01b038416600482015260240161069d565b7fffffffff0000000000000000000000000000000000000000000000000000000081167f150b7a02000000000000000000000000000000000000000000000000000000001461124b576040517f3a9f8cb30000000000000000000000000000000000000000000000000000000081526001600160a01b038516600482015260240161069d565b5050505050565b82600481019282156112b0579160200282015b828111156112b05781547fffffffffffffffffffffffff0000000000000000000000000000000000000000166001600160a01b03843516178255602090920191600190910190611265565b506112bc9291506112c0565b5090565b5b808211156112bc57600081556001016112c1565b7fffffffff000000000000000000000000000000000000000000000000000000008116811461099757600080fd5b60006020828403121561131557600080fd5b8135611320816112d5565b9392505050565b6000815180845260005b8181101561134d57602081850181015186830182015201611331565b5060006020828601015260207fffffffffffffffffffffffffffffffffffffffffffffffffffffffffffffffe0601f83011685010191505092915050565b6020815260006113206020830184611327565b80356001600160a01b03811681146113b557600080fd5b919050565b600080604083850312156113cd57600080fd5b6113d68361139e565b946020939093013593505050565b6000806000606084860312156113f957600080fd5b6114028461139e565b92506114106020850161139e565b9150604084013590509250925092565b6000806040838503121561143357600080fd5b823591506114436020840161139e565b90509250929050565b60006020828403121561145e57600080fd5b5035919050565b60006020828403121561147757600080fd5b6113208261139e565b801515811461099757600080fd5b600080604083850312156114a157600080fd5b6114aa8361139e565b915060208301356114ba81611480565b809150509250929050565b6000608082840312156114d757600080fd5b826080830111156114e757600080fd5b50919050565b7f4e487b7100000000000000000000000000000000000000000000000000000000600052604160045260246000fd5b6000806000806080858703121561153257600080fd5b61153b8561139e565b93506115496020860161139e565b925060408501359150606085013567ffffffffffffffff8082111561156d57600080fd5b818701915087601f83011261158157600080fd5b813581811115611593576115936114ed565b604051601f82017fffffffffffffffffffffffffffffffffffffffffffffffffffffffffffffffe0908116603f011681019083821181831017156115d9576115d96114ed565b816040528281528a60208487010111156115f257600080fd5b82602086016020830137600060208483010152809550505050505092959194509250565b6000806040838503121561162957600080fd5b82356114aa816112d5565b6000806040838503121561164757600080fd5b6116508361139e565b91506114436020840161139e565b7f4e487b7100000000000000000000000000000000000000000000000000000000600052603260045260246000fd5b600181811c908216806116a157607f821691505b6020821081036114e7577f4e487b7100000000000000000000000000000000000000000000000000000000600052602260045260246000fd5b6000602082840312156116ec57600080fd5b5051919050565b60006020828403121561170557600080fd5b815161132081611480565b60808101818360005b6004811015611749576001600160a01b036117338361139e565b1683526020928301929190910190600101611719565b50505092915050565b60006001600160a01b038087168352808616602084015250836040830152608060608301526117846080830184611327565b9695505050505050565b6000602082840312156117a057600080fd5b8151611320816112d556fea26469706673582212200457722b108bde9d80b2fa0c471e9a706248c577e0791d8225005bdac6af94ae64736f6c63430008100033",
    "linkReferences": {}
  },
  "methodIdentifiers": {
    "BONDS()": "b4abea24",
    "DefaultResolver()": "00b7aff7",
    "Dev()": "01e51ae8",
    "ENS()": "1d2e2cc4",
    "MOLECULES()": "f12e6548",
    "NAMES()": "05e84aa0",
    "POLYCULES()": "d9ebda12",
    "_approved(uint256)": "9024d282",
    "active()": "02fb0c5e",
    "approve(address,uint256)": "095ea7b3",
    "changeDev(address)": "88a8c95c",
    "ensRegistry()": "7d73b231",
    "helix2Registry(uint256)": "70dec5f0",
    "illegal(uint256)": "7e49c892",
    "isApprovedForAll(address,address)": "e985e9c5",
    "isDev()": "f079914f",
    "name()": "06fdde03",
    "ownerOf(uint256)": "6352211e",
    "roothash(uint256)": "8dfcb1c7",
    "safeTransferFrom(address,address,uint256)": "42842e0e",
    "safeTransferFrom(address,address,uint256,bytes)": "b88d4fde",
    "setApprovalForAll(address,bool)": "a22cb465",
    "setInterface(bytes4,bool)": "c0a43a7c",
    "setRegistry(address[4])": "aa0d81e3",
    "setSubRegistry(uint256,address)": "3f952eb8",
    "supportsInterface(bytes4)": "01ffc9a7",
    "symbol()": "95d89b41",
    "transferFrom(address,address,uint256)": "23b872dd",
    "withdrawEther()": "7362377b",
    "withdrawToken(address)": "89476069"
  },
  "id": 2
}