{
  "abi": [
    {
      "inputs": [
        {
          "internalType": "address",
          "name": "_dev",
          "type": "address"
        },
        {
          "internalType": "address",
          "name": "_you",
          "type": "address"
        }
      ],
      "name": "OnlyDev",
      "type": "error"
    },
    {
      "anonymous": false,
      "inputs": [
        {
          "indexed": false,
          "internalType": "address",
          "name": "newReg",
          "type": "address"
        }
      ],
      "name": "NewENSRegistry",
      "type": "event"
    },
    {
      "anonymous": false,
      "inputs": [
        {
          "indexed": false,
          "internalType": "uint256",
          "name": "index",
          "type": "uint256"
        },
        {
          "indexed": false,
          "internalType": "uint256",
          "name": "newLife",
          "type": "uint256"
        }
      ],
      "name": "NewLife",
      "type": "event"
    },
    {
      "anonymous": false,
      "inputs": [
        {
          "indexed": false,
          "internalType": "uint256[4]",
          "name": "newLives",
          "type": "uint256[4]"
        }
      ],
      "name": "NewLives",
      "type": "event"
    },
    {
      "anonymous": false,
      "inputs": [
        {
          "indexed": false,
          "internalType": "address[4]",
          "name": "newReg",
          "type": "address[4]"
        }
      ],
      "name": "NewRegisteries",
      "type": "event"
    },
    {
      "anonymous": false,
      "inputs": [
        {
          "indexed": false,
          "internalType": "uint256",
          "name": "index",
          "type": "uint256"
        },
        {
          "indexed": false,
          "internalType": "address",
          "name": "newReg",
          "type": "address"
        }
      ],
      "name": "NewRegistrar",
      "type": "event"
    },
    {
      "anonymous": false,
      "inputs": [
        {
          "indexed": false,
          "internalType": "address[4]",
          "name": "newReg",
          "type": "address[4]"
        }
      ],
      "name": "NewRegistrars",
      "type": "event"
    },
    {
      "anonymous": false,
      "inputs": [
        {
          "indexed": false,
          "internalType": "uint256",
          "name": "index",
          "type": "uint256"
        },
        {
          "indexed": false,
          "internalType": "address",
          "name": "newReg",
          "type": "address"
        }
      ],
      "name": "NewRegistry",
      "type": "event"
    },
    {
      "anonymous": false,
      "inputs": [
        {
          "indexed": true,
          "internalType": "address",
          "name": "previousOwner",
          "type": "address"
        },
        {
          "indexed": true,
          "internalType": "address",
          "name": "newOwner",
          "type": "address"
        }
      ],
      "name": "OwnershipTransferred",
      "type": "event"
    },
    {
      "inputs": [],
      "name": "Dev",
      "outputs": [
        {
          "internalType": "address",
          "name": "",
          "type": "address"
        }
      ],
      "stateMutability": "view",
      "type": "function"
    },
    {
      "inputs": [],
      "name": "active",
      "outputs": [
        {
          "internalType": "bool",
          "name": "",
          "type": "bool"
        }
      ],
      "stateMutability": "view",
      "type": "function"
    },
    {
      "inputs": [],
      "name": "ensRegistry",
      "outputs": [
        {
          "internalType": "address",
          "name": "",
          "type": "address"
        }
      ],
      "stateMutability": "view",
      "type": "function"
    },
    {
      "inputs": [],
      "name": "getENSRegistry",
      "outputs": [
        {
          "internalType": "address",
          "name": "",
          "type": "address"
        }
      ],
      "stateMutability": "view",
      "type": "function"
    },
    {
      "inputs": [],
      "name": "getIllegalBlocks",
      "outputs": [
        {
          "internalType": "string[4]",
          "name": "",
          "type": "string[4]"
        }
      ],
      "stateMutability": "view",
      "type": "function"
    },
    {
      "inputs": [],
      "name": "getLifespans",
      "outputs": [
        {
          "internalType": "uint256[4]",
          "name": "",
          "type": "uint256[4]"
        }
      ],
      "stateMutability": "view",
      "type": "function"
    },
    {
      "inputs": [],
      "name": "getRegistrar",
      "outputs": [
        {
          "internalType": "address[4]",
          "name": "",
          "type": "address[4]"
        }
      ],
      "stateMutability": "view",
      "type": "function"
    },
    {
      "inputs": [],
      "name": "getRegistry",
      "outputs": [
        {
          "internalType": "address[4]",
          "name": "",
          "type": "address[4]"
        }
      ],
      "stateMutability": "view",
      "type": "function"
    },
    {
      "inputs": [],
      "name": "getRoothash",
      "outputs": [
        {
          "internalType": "bytes32[4]",
          "name": "",
          "type": "bytes32[4]"
        }
      ],
      "stateMutability": "view",
      "type": "function"
    },
    {
      "inputs": [],
      "name": "getSizes",
      "outputs": [
        {
          "internalType": "uint256[2][4]",
          "name": "",
          "type": "uint256[2][4]"
        }
      ],
      "stateMutability": "view",
      "type": "function"
    },
    {
      "inputs": [
        {
          "internalType": "uint256",
          "name": "",
          "type": "uint256"
        }
      ],
      "name": "helix2Registrar",
      "outputs": [
        {
          "internalType": "address",
          "name": "",
          "type": "address"
        }
      ],
      "stateMutability": "view",
      "type": "function"
    },
    {
      "inputs": [
        {
          "internalType": "uint256",
          "name": "",
          "type": "uint256"
        }
      ],
      "name": "helix2Registry",
      "outputs": [
        {
          "internalType": "address",
          "name": "",
          "type": "address"
        }
      ],
      "stateMutability": "view",
      "type": "function"
    },
    {
      "inputs": [
        {
          "internalType": "uint256",
          "name": "",
          "type": "uint256"
        }
      ],
      "name": "illegalBlocks",
      "outputs": [
        {
          "internalType": "string",
          "name": "",
          "type": "string"
        }
      ],
      "stateMutability": "view",
      "type": "function"
    },
    {
      "inputs": [
        {
          "internalType": "uint256",
          "name": "",
          "type": "uint256"
        }
      ],
      "name": "lifespans",
      "outputs": [
        {
          "internalType": "uint256",
          "name": "",
          "type": "uint256"
        }
      ],
      "stateMutability": "view",
      "type": "function"
    },
    {
      "inputs": [],
      "name": "name",
      "outputs": [
        {
          "internalType": "string",
          "name": "",
          "type": "string"
        }
      ],
      "stateMutability": "view",
      "type": "function"
    },
    {
      "inputs": [],
      "name": "owner",
      "outputs": [
        {
          "internalType": "address",
          "name": "",
          "type": "address"
        }
      ],
      "stateMutability": "view",
      "type": "function"
    },
    {
      "inputs": [
        {
          "internalType": "uint256",
          "name": "",
          "type": "uint256"
        }
      ],
      "name": "roothash",
      "outputs": [
        {
          "internalType": "bytes32",
          "name": "",
          "type": "bytes32"
        }
      ],
      "stateMutability": "view",
      "type": "function"
    },
    {
      "inputs": [
        {
          "internalType": "address",
          "name": "newReg",
          "type": "address"
        }
      ],
      "name": "setENSRegistry",
      "outputs": [],
      "stateMutability": "nonpayable",
      "type": "function"
    },
    {
      "inputs": [
        {
          "internalType": "bytes4",
          "name": "sig",
          "type": "bytes4"
        },
        {
          "internalType": "bool",
          "name": "value",
          "type": "bool"
        }
      ],
      "name": "setInterface",
      "outputs": [],
      "stateMutability": "payable",
      "type": "function"
    },
    {
      "inputs": [
        {
          "internalType": "uint256",
          "name": "index",
          "type": "uint256"
        },
        {
          "internalType": "uint256",
          "name": "newLife",
          "type": "uint256"
        }
      ],
      "name": "setLife",
      "outputs": [],
      "stateMutability": "nonpayable",
      "type": "function"
    },
    {
      "inputs": [
        {
          "internalType": "uint256[4]",
          "name": "newLives",
          "type": "uint256[4]"
        }
      ],
      "name": "setLives",
      "outputs": [],
      "stateMutability": "nonpayable",
      "type": "function"
    },
    {
      "inputs": [
        {
          "internalType": "address[4]",
          "name": "newReg",
          "type": "address[4]"
        }
      ],
      "name": "setRegisteries",
      "outputs": [],
      "stateMutability": "nonpayable",
      "type": "function"
    },
    {
      "inputs": [
        {
          "internalType": "uint256",
          "name": "index",
          "type": "uint256"
        },
        {
          "internalType": "address",
          "name": "newReg",
          "type": "address"
        }
      ],
      "name": "setRegistrar",
      "outputs": [],
      "stateMutability": "nonpayable",
      "type": "function"
    },
    {
      "inputs": [
        {
          "internalType": "address[4]",
          "name": "newReg",
          "type": "address[4]"
        }
      ],
      "name": "setRegistrars",
      "outputs": [],
      "stateMutability": "nonpayable",
      "type": "function"
    },
    {
      "inputs": [
        {
          "internalType": "uint256",
          "name": "index",
          "type": "uint256"
        },
        {
          "internalType": "address",
          "name": "newReg",
          "type": "address"
        }
      ],
      "name": "setRegistry",
      "outputs": [],
      "stateMutability": "nonpayable",
      "type": "function"
    },
    {
      "inputs": [
        {
          "internalType": "uint256",
          "name": "",
          "type": "uint256"
        },
        {
          "internalType": "uint256",
          "name": "",
          "type": "uint256"
        }
      ],
      "name": "sizes",
      "outputs": [
        {
          "internalType": "uint256",
          "name": "",
          "type": "uint256"
        }
      ],
      "stateMutability": "view",
      "type": "function"
    },
    {
      "inputs": [
        {
          "internalType": "bytes4",
          "name": "",
          "type": "bytes4"
        }
      ],
      "name": "supportedInterfaces",
      "outputs": [
        {
          "internalType": "bool",
          "name": "",
          "type": "bool"
        }
      ],
      "stateMutability": "view",
      "type": "function"
    },
    {
      "inputs": [
        {
          "internalType": "bytes4",
          "name": "sig",
          "type": "bytes4"
        }
      ],
      "name": "supportsInterface",
      "outputs": [
        {
          "internalType": "bool",
          "name": "",
          "type": "bool"
        }
      ],
      "stateMutability": "view",
      "type": "function"
    },
    {
      "inputs": [],
      "name": "symbol",
      "outputs": [
        {
          "internalType": "string",
          "name": "",
          "type": "string"
        }
      ],
      "stateMutability": "view",
      "type": "function"
    },
    {
      "inputs": [],
      "name": "toggleActive",
      "outputs": [],
      "stateMutability": "nonpayable",
      "type": "function"
    },
    {
      "inputs": [
        {
          "internalType": "address",
          "name": "newDev",
          "type": "address"
        }
      ],
      "name": "transferOwnership",
      "outputs": [],
      "stateMutability": "nonpayable",
      "type": "function"
    }
  ],
  "bytecode": {
    "object": "0x6001610100818152601760f91b610120526080908152610140828152602d60f81b6101605260a052610180828152602360f81b6101a05260c0526101e060405260006101c090815260e052620000589190600462000324565b506040805160c081018252600360808201818152602060a08401819052908352835180850185528281528082018290528184015283518085018552828152808201829052838501528351808501909452908352828101526060810191909152620000c790600590600462000374565b50604080516080810182526001808252602082018190529181018290526060810191909152620000fc90600d906004620003c2565b5060408051608081018252600060a082018190527f6f010af653ebe3cb07d297a4ef13366103d392ceffa68dd48232e6e9ff2187bf60c0808401919091528351808403909101815260e0830184528051602091820120835283518082018390527fd3b8281179950f98149eefdb158d0e1acb56f56e8e343aa9fefafa7e369595618186018190528551808303870181526060928301875280519084012083860152855180840185905280870182905286518082038801815290830187528051908401208587015285518084019490945283860152845180840386018152928101909452815191012091810191909152620001fb90601190600462000406565b50601580546001600160a01b0319166e0c2e074ec69a0dfb2997ba6c7d2e1e1790556040805160808101825260008082526020820181905291810182905260608101919091526200025190601690600462000437565b506040805160808101825260008082526020820181905291810182905260608101919091526200028690601a90600462000437565b50601e805460ff19166001179055348015620002a157600080fd5b50600080546001600160a01b03191633178155601f6020527f671129291df7713a2a0a3a305140d9835ac7df0a3a36ee9c083a2df0a0c67515805460ff1990811660019081179092556307f5828d60e41b9092527f79bc4dd5f7cbac89a4359d7e060f224361851e49b1d770fa5c53926efaf57dcd8054909216179055620006be565b826004810192821562000362579160200282015b82811115620003625782518290620003519082620005f2565b509160200191906001019062000338565b506200037092915062000482565b5090565b600883019183908215620003b4579160200282015b82811115620003b4578251620003a39083906002620004a3565b509160200191906002019062000389565b5062000370929150620004d8565b8260048101928215620003f8579160200282015b82811115620003f8578251829060ff16905591602001919060010190620003d6565b5062000370929150620004f4565b8260048101928215620003f8579160200282015b82811115620003f85782518255916020019190600101906200041a565b8260048101928215620003f8579160200282015b82811115620003f857825182546001600160a01b0319166001600160a01b039091161782556020909201916001909101906200044b565b80821115620003705760006200049982826200050b565b5060010162000482565b8260028101928215620003f85791602002820182811115620003f8578251829060ff16905591602001919060010190620003d6565b80821115620003705760008082556001820155600201620004d8565b5b80821115620003705760008155600101620004f5565b508054620005199062000563565b6000825580601f106200052a575050565b601f0160209004906000526020600020908101906200054a9190620004f4565b50565b634e487b7160e01b600052604160045260246000fd5b600181811c908216806200057857607f821691505b6020821081036200059957634e487b7160e01b600052602260045260246000fd5b50919050565b601f821115620005ed57600081815260208120601f850160051c81016020861015620005c85750805b601f850160051c820191505b81811015620005e957828155600101620005d4565b5050505b505050565b81516001600160401b038111156200060e576200060e6200054d565b62000626816200061f845462000563565b846200059f565b602080601f8311600181146200065e5760008415620006455750858301515b600019600386901b1c1916600185901b178555620005e9565b600085815260208120601f198616915b828110156200068f578886015182559484019460019091019084016200066e565b5085821015620006ae5787850151600019600388901b60f8161c191681555b5050505050600190811b01905550565b61157f80620006ce6000396000f3fe6080604052600436106101d85760003560e01c8063642a8ed611610102578063c0a43a7c11610095578063ec2ace2a11610064578063ec2ace2a146105f6578063f1715fdc1461060b578063f1bec3571461062b578063f2fde38b1461064b57600080fd5b8063c0a43a7c14610581578063c2d4cdfc14610594578063ce721ac9146105b6578063ce786f57146105d657600080fd5b806380b29beb116100d157806380b29beb146104cc5780638da5cb5b146104ec5780638dfcb1c71461050a57806395d89b411461053857600080fd5b8063642a8ed61461044857806366a0edce1461046a57806370dec5f01461048c5780637d73b231146104ac57600080fd5b8063255978421161017a578063479f615211610149578063479f6152146103d15780634d3f7334146103f15780635ab1bd53146104135780635c979fe41461042857600080fd5b8063255978421461035e57806329c68dc11461037e5780632f6807951461039357806333647fac146103b157600080fd5b806302fb0c5e116101b657806302fb0c5e1461029e57806306fdde03146102b8578063101de7a41461030e5780631584ba381461032e57600080fd5b8063011163ba146101dd57806301e51ae8146101ff57806301ffc9a71461023c575b600080fd5b3480156101e957600080fd5b506101fd6101f8366004611181565b61066b565b005b34801561020b57600080fd5b5060005461021f906001600160a01b031681565b6040516001600160a01b0390911681526020015b60405180910390f35b34801561024857600080fd5b5061028e6102573660046111d8565b7fffffffff00000000000000000000000000000000000000000000000000000000166000908152601f602052604090205460ff1690565b6040519015158152602001610233565b3480156102aa57600080fd5b50601e5461028e9060ff1681565b3480156102c457600080fd5b506103016040518060400160405280601381526020017f48656c697832204c696e6b20536572766963650000000000000000000000000081525081565b604051610233919061125e565b34801561031a57600080fd5b506101fd610329366004611288565b610703565b34801561033a57600080fd5b5061028e6103493660046111d8565b601f6020526000908152604090205460ff1681565b34801561036a57600080fd5b506101fd610379366004611288565b61078b565b34801561038a57600080fd5b506101fd61080f565b34801561039f57600080fd5b506015546001600160a01b031661021f565b3480156103bd57600080fd5b506101fd6103cc366004611288565b610881565b3480156103dd57600080fd5b506101fd6103ec3660046112bb565b610905565b3480156103fd57600080fd5b506104066109bb565b60405161023391906112d6565b34801561041f57600080fd5b50610406610a00565b34801561043457600080fd5b506101fd610443366004611310565b610a3f565b34801561045457600080fd5b5061045d610b0f565b604051610233919061133c565b34801561047657600080fd5b5061047f610b4a565b6040516102339190611364565b34801561049857600080fd5b5061021f6104a73660046113bf565b610bb4565b3480156104b857600080fd5b5060155461021f906001600160a01b031681565b3480156104d857600080fd5b506103016104e73660046113bf565b610bd4565b3480156104f857600080fd5b506000546001600160a01b031661021f565b34801561051657600080fd5b5061052a6105253660046113bf565b610c74565b604051908152602001610233565b34801561054457600080fd5b506103016040518060400160405280600681526020017f48454c495832000000000000000000000000000000000000000000000000000081525081565b6101fd61058f3660046113d8565b610c8b565b3480156105a057600080fd5b506105a9610db9565b6040516102339190611414565b3480156105c257600080fd5b5061052a6105d13660046113bf565b610e77565b3480156105e257600080fd5b506101fd6105f1366004611310565b610e87565b34801561060257600080fd5b5061045d610f1c565b34801561061757600080fd5b5061021f6106263660046113bf565b610f52565b34801561063757600080fd5b5061052a610646366004611181565b610f62565b34801561065757600080fd5b506101fd6106663660046112bb565b610f8d565b6000546001600160a01b031633146106b0576000546040516347522c7b60e11b81526001600160a01b0390911660048201523360248201526044015b60405180910390fd5b60408051838152602081018390527f1e63d23105a4055118805831d2e9ddfdd1d0aa649288ea6af88bc3f1a839aa4d910160405180910390a180600d83600481106106fd576106fd61147f565b01555050565b6000546001600160a01b03163314610743576000546040516347522c7b60e11b81526001600160a01b0390911660048201523360248201526044016106a7565b7fe41d51d5fb8e385c5a9fe5bb74bdc64ccba6244430eccc72759a7c8169b7e9d38160405161077291906114ae565b60405180910390a1610787601a826004611040565b5050565b6000546001600160a01b031633146107cb576000546040516347522c7b60e11b81526001600160a01b0390911660048201523360248201526044016106a7565b7f791be3d751ae4a05964850f92fc1e74cd8f0c6ddcf6aef1001f583e5f1c95031816040516107fa91906114ae565b60405180910390a16107876016826004611040565b6000546001600160a01b0316331461084f576000546040516347522c7b60e11b81526001600160a01b0390911660048201523360248201526044016106a7565b601e80547fffffffffffffffffffffffffffffffffffffffffffffffffffffffffffffff00811660ff90911615179055565b6000546001600160a01b031633146108c1576000546040516347522c7b60e11b81526001600160a01b0390911660048201523360248201526044016106a7565b7f7fcd8173c4f7db37e3bb270284eaeae1d59547dd77434918796924c49055d91e816040516108f091906114e7565b60405180910390a1610787600d8260046110ae565b6000546001600160a01b03163314610945576000546040516347522c7b60e11b81526001600160a01b0390911660048201523360248201526044016106a7565b6040516001600160a01b03821681527f648122358341292aea1c223cd5bd9558c62e765ab13b1ae565d075e692d76b379060200160405180910390a1601580547fffffffffffffffffffffffff0000000000000000000000000000000000000000166001600160a01b0392909216919091179055565b6109c36110dc565b60408051608081019182905290601a9060049082845b81546001600160a01b031681526001909101906020018083116109d9575050505050905090565b610a086110dc565b604080516080810191829052601680546001600160a01b0316825290916004906017602085018083116109d9575050505050905090565b6000546001600160a01b03163314610a7f576000546040516347522c7b60e11b81526001600160a01b0390911660048201523360248201526044016106a7565b604080518381526001600160a01b03831660208201527f86999194e67d8c5fb1a642a451b86213ed4f5b67a6a36e9e4d5de8f053e58132910160405180910390a180601a8360048110610ad457610ad461147f565b0180547fffffffffffffffffffffffff0000000000000000000000000000000000000000166001600160a01b03929092169190911790555050565b610b176110dc565b6040805160808101918290529060119060049082845b815481526020019060010190808311610b2d575050505050905090565b610b526110fa565b6040805160808101909152600560046000835b82821015610bab57604080518082019182905290600284810287019182845b815481526020019060010190808311610b8457505050505081526020019060010190610b65565b50505050905090565b60168160048110610bc457600080fd5b01546001600160a01b0316905081565b60018160048110610be457600080fd5b018054909150610bf3906114f6565b80601f0160208091040260200160405190810160405280929190818152602001828054610c1f906114f6565b8015610c6c5780601f10610c4157610100808354040283529160200191610c6c565b820191906000526020600020905b815481529060010190602001808311610c4f57829003601f168201915b505050505081565b60118160048110610c8457600080fd5b0154905081565b6000546001600160a01b03163314610ccb576000546040516347522c7b60e11b81526001600160a01b0390911660048201523360248201526044016106a7565b7fffffffff000000000000000000000000000000000000000000000000000000008083169003610d57576040517f08c379a000000000000000000000000000000000000000000000000000000000815260206004820152601a60248201527f494e56414c49445f494e544552464143455f53454c4543544f5200000000000060448201526064016106a7565b7fffffffff00000000000000000000000000000000000000000000000000000000919091166000908152601f6020526040902080547fffffffffffffffffffffffffffffffffffffffffffffffffffffffffffffff0016911515919091179055565b610dc1611127565b6040805160808101909152600160046000835b82821015610bab578382018054610dea906114f6565b80601f0160208091040260200160405190810160405280929190818152602001828054610e16906114f6565b8015610e635780601f10610e3857610100808354040283529160200191610e63565b820191906000526020600020905b815481529060010190602001808311610e4657829003601f168201915b505050505081526020019060010190610dd4565b600d8160048110610c8457600080fd5b6000546001600160a01b03163314610ec7576000546040516347522c7b60e11b81526001600160a01b0390911660048201523360248201526044016106a7565b604080518381526001600160a01b03831660208201527f896e591224bbe75aedb047b3fd74204bb99d55e4cffb4c059fc669ca7474eb25910160405180910390a18060168360048110610ad457610ad461147f565b610f246110dc565b604080516080810191829052600d805482529091600490600e60208501808311610b2d575050505050905090565b601a8160048110610bc457600080fd5b60058260048110610f7257600080fd5b600202018160028110610f8457600080fd5b01549150829050565b6000546001600160a01b03163314610fcd576000546040516347522c7b60e11b81526001600160a01b0390911660048201523360248201526044016106a7565b600080546040516001600160a01b03808516939216917f8be0079c531659141344cd1fd0a4f28419497f9722a3daafe3b4186f6b6457e091a3600080547fffffffffffffffffffffffff0000000000000000000000000000000000000000166001600160a01b0392909216919091179055565b826004810192821561109e579160200282015b8281111561109e5781547fffffffffffffffffffffffff0000000000000000000000000000000000000000166001600160a01b03843516178255602090920191600190910190611053565b506110aa92915061114e565b5090565b826004810192821561109e579160200282015b8281111561109e5782358255916020019190600101906110c1565b60405180608001604052806004906020820280368337509192915050565b60405180608001604052806004905b611111611163565b8152602001906001900390816111095790505090565b60405180608001604052806004905b60608152602001906001900390816111365790505090565b5b808211156110aa576000815560010161114f565b60405180604001604052806002906020820280368337509192915050565b6000806040838503121561119457600080fd5b50508035926020909101359150565b80357fffffffff00000000000000000000000000000000000000000000000000000000811681146111d357600080fd5b919050565b6000602082840312156111ea57600080fd5b6111f3826111a3565b9392505050565b6000815180845260005b8181101561122057602081850181015186830182015201611204565b5060006020828601015260207fffffffffffffffffffffffffffffffffffffffffffffffffffffffffffffffe0601f83011685010191505092915050565b6020815260006111f360208301846111fa565b806080810183101561128257600080fd5b92915050565b60006080828403121561129a57600080fd5b6111f38383611271565b80356001600160a01b03811681146111d357600080fd5b6000602082840312156112cd57600080fd5b6111f3826112a4565b60808101818360005b60048110156113075781516001600160a01b03168352602092830192909101906001016112df565b50505092915050565b6000806040838503121561132357600080fd5b82359150611333602084016112a4565b90509250929050565b60808101818360005b6004811015611307578151835260209283019290910190600101611345565b610100810181836000805b60048110156113b557825184835b600281101561139c57825182526020928301929091019060010161137d565b505050604093909301926020929092019160010161136f565b5050505092915050565b6000602082840312156113d157600080fd5b5035919050565b600080604083850312156113eb57600080fd5b6113f4836111a3565b91506020830135801515811461140957600080fd5b809150509250929050565b602080825260009060a0830183820185845b6004811015611473577fffffffffffffffffffffffffffffffffffffffffffffffffffffffffffffffe08785030183526114618483516111fa565b93509184019190840190600101611426565b50919695505050505050565b7f4e487b7100000000000000000000000000000000000000000000000000000000600052603260045260246000fd5b60808101818360005b6004811015611307576001600160a01b036114d1836112a4565b16835260209283019291909101906001016114b7565b60808181019083833792915050565b600181811c9082168061150a57607f821691505b602082108103611543577f4e487b7100000000000000000000000000000000000000000000000000000000600052602260045260246000fd5b5091905056fea2646970667358221220ccba8e60d0798cf94f2933678d324f58f41cded0a2b3f1b195cff154e91058a464736f6c63430008100033",
    "linkReferences": {}
  },
  "methodIdentifiers": {
    "Dev()": "01e51ae8",
    "active()": "02fb0c5e",
    "ensRegistry()": "7d73b231",
    "getENSRegistry()": "2f680795",
    "getIllegalBlocks()": "c2d4cdfc",
    "getLifespans()": "ec2ace2a",
    "getRegistrar()": "4d3f7334",
    "getRegistry()": "5ab1bd53",
    "getRoothash()": "642a8ed6",
    "getSizes()": "66a0edce",
    "helix2Registrar(uint256)": "f1715fdc",
    "helix2Registry(uint256)": "70dec5f0",
    "illegalBlocks(uint256)": "80b29beb",
    "lifespans(uint256)": "ce721ac9",
    "name()": "06fdde03",
    "owner()": "8da5cb5b",
    "roothash(uint256)": "8dfcb1c7",
    "setENSRegistry(address)": "479f6152",
    "setInterface(bytes4,bool)": "c0a43a7c",
    "setLife(uint256,uint256)": "011163ba",
    "setLives(uint256[4])": "33647fac",
    "setRegisteries(address[4])": "25597842",
    "setRegistrar(uint256,address)": "5c979fe4",
    "setRegistrars(address[4])": "101de7a4",
    "setRegistry(uint256,address)": "ce786f57",
    "sizes(uint256,uint256)": "f1bec357",
    "supportedInterfaces(bytes4)": "1584ba38",
    "supportsInterface(bytes4)": "01ffc9a7",
    "symbol()": "95d89b41",
    "toggleActive()": "29c68dc1",
    "transferOwnership(address)": "f2fde38b"
  },
  "id": 23
}