{
  "abi": [
    {
      "inputs": [
        {
          "internalType": "address",
          "name": "_dev",
          "type": "address"
        },
        {
          "internalType": "address",
          "name": "_you",
          "type": "address"
        }
      ],
      "name": "OnlyDev",
      "type": "error"
    },
    {
      "anonymous": false,
      "inputs": [
        {
          "indexed": false,
          "internalType": "address",
          "name": "newReg",
          "type": "address"
        }
      ],
      "name": "NewENSRegistry",
      "type": "event"
    },
    {
      "anonymous": false,
      "inputs": [
        {
          "indexed": false,
          "internalType": "uint256",
          "name": "index",
          "type": "uint256"
        },
        {
          "indexed": false,
          "internalType": "uint256",
          "name": "newLife",
          "type": "uint256"
        }
      ],
      "name": "NewLife",
      "type": "event"
    },
    {
      "anonymous": false,
      "inputs": [
        {
          "indexed": false,
          "internalType": "uint256[4]",
          "name": "newLives",
          "type": "uint256[4]"
        }
      ],
      "name": "NewLives",
      "type": "event"
    },
    {
      "anonymous": false,
      "inputs": [
        {
          "indexed": false,
          "internalType": "address[4]",
          "name": "newReg",
          "type": "address[4]"
        }
      ],
      "name": "NewRegisteries",
      "type": "event"
    },
    {
      "anonymous": false,
      "inputs": [
        {
          "indexed": false,
          "internalType": "uint256",
          "name": "index",
          "type": "uint256"
        },
        {
          "indexed": false,
          "internalType": "address",
          "name": "newReg",
          "type": "address"
        }
      ],
      "name": "NewRegistrar",
      "type": "event"
    },
    {
      "anonymous": false,
      "inputs": [
        {
          "indexed": false,
          "internalType": "address[4]",
          "name": "newReg",
          "type": "address[4]"
        }
      ],
      "name": "NewRegistrars",
      "type": "event"
    },
    {
      "anonymous": false,
      "inputs": [
        {
          "indexed": false,
          "internalType": "uint256",
          "name": "index",
          "type": "uint256"
        },
        {
          "indexed": false,
          "internalType": "address",
          "name": "newReg",
          "type": "address"
        }
      ],
      "name": "NewRegistry",
      "type": "event"
    },
    {
      "anonymous": false,
      "inputs": [
        {
          "indexed": true,
          "internalType": "address",
          "name": "previousOwner",
          "type": "address"
        },
        {
          "indexed": true,
          "internalType": "address",
          "name": "newOwner",
          "type": "address"
        }
      ],
      "name": "OwnershipTransferred",
      "type": "event"
    },
    {
      "stateMutability": "payable",
      "type": "fallback"
    },
    {
      "inputs": [],
      "name": "Dev",
      "outputs": [
        {
          "internalType": "address",
          "name": "",
          "type": "address"
        }
      ],
      "stateMutability": "view",
      "type": "function"
    },
    {
      "inputs": [],
      "name": "active",
      "outputs": [
        {
          "internalType": "bool",
          "name": "",
          "type": "bool"
        }
      ],
      "stateMutability": "view",
      "type": "function"
    },
    {
      "inputs": [],
      "name": "ensRegistry",
      "outputs": [
        {
          "internalType": "address",
          "name": "",
          "type": "address"
        }
      ],
      "stateMutability": "view",
      "type": "function"
    },
    {
      "inputs": [],
      "name": "getENSRegistry",
      "outputs": [
        {
          "internalType": "address",
          "name": "",
          "type": "address"
        }
      ],
      "stateMutability": "view",
      "type": "function"
    },
    {
      "inputs": [],
      "name": "getIllegalBlocks",
      "outputs": [
        {
          "internalType": "string[4]",
          "name": "",
          "type": "string[4]"
        }
      ],
      "stateMutability": "view",
      "type": "function"
    },
    {
      "inputs": [],
      "name": "getLifespans",
      "outputs": [
        {
          "internalType": "uint256[4]",
          "name": "",
          "type": "uint256[4]"
        }
      ],
      "stateMutability": "view",
      "type": "function"
    },
    {
      "inputs": [],
      "name": "getRegistrar",
      "outputs": [
        {
          "internalType": "address[4]",
          "name": "",
          "type": "address[4]"
        }
      ],
      "stateMutability": "view",
      "type": "function"
    },
    {
      "inputs": [],
      "name": "getRegistry",
      "outputs": [
        {
          "internalType": "address[4]",
          "name": "",
          "type": "address[4]"
        }
      ],
      "stateMutability": "view",
      "type": "function"
    },
    {
      "inputs": [],
      "name": "getRoothash",
      "outputs": [
        {
          "internalType": "bytes32[4]",
          "name": "",
          "type": "bytes32[4]"
        }
      ],
      "stateMutability": "view",
      "type": "function"
    },
    {
      "inputs": [],
      "name": "getSizes",
      "outputs": [
        {
          "internalType": "uint256[2][4]",
          "name": "",
          "type": "uint256[2][4]"
        }
      ],
      "stateMutability": "view",
      "type": "function"
    },
    {
      "inputs": [
        {
          "internalType": "uint256",
          "name": "",
          "type": "uint256"
        }
      ],
      "name": "helix2Registrar",
      "outputs": [
        {
          "internalType": "address",
          "name": "",
          "type": "address"
        }
      ],
      "stateMutability": "view",
      "type": "function"
    },
    {
      "inputs": [
        {
          "internalType": "uint256",
          "name": "",
          "type": "uint256"
        }
      ],
      "name": "helix2Registry",
      "outputs": [
        {
          "internalType": "address",
          "name": "",
          "type": "address"
        }
      ],
      "stateMutability": "view",
      "type": "function"
    },
    {
      "inputs": [
        {
          "internalType": "uint256",
          "name": "",
          "type": "uint256"
        }
      ],
      "name": "illegalBlocks",
      "outputs": [
        {
          "internalType": "string",
          "name": "",
          "type": "string"
        }
      ],
      "stateMutability": "view",
      "type": "function"
    },
    {
      "inputs": [],
      "name": "isDev",
      "outputs": [
        {
          "internalType": "address",
          "name": "",
          "type": "address"
        }
      ],
      "stateMutability": "view",
      "type": "function"
    },
    {
      "inputs": [
        {
          "internalType": "uint256",
          "name": "",
          "type": "uint256"
        }
      ],
      "name": "lifespans",
      "outputs": [
        {
          "internalType": "uint256",
          "name": "",
          "type": "uint256"
        }
      ],
      "stateMutability": "view",
      "type": "function"
    },
    {
      "inputs": [],
      "name": "name",
      "outputs": [
        {
          "internalType": "string",
          "name": "",
          "type": "string"
        }
      ],
      "stateMutability": "view",
      "type": "function"
    },
    {
      "inputs": [],
      "name": "owner",
      "outputs": [
        {
          "internalType": "address",
          "name": "",
          "type": "address"
        }
      ],
      "stateMutability": "view",
      "type": "function"
    },
    {
      "inputs": [
        {
          "internalType": "uint256",
          "name": "",
          "type": "uint256"
        }
      ],
      "name": "roothash",
      "outputs": [
        {
          "internalType": "bytes32",
          "name": "",
          "type": "bytes32"
        }
      ],
      "stateMutability": "view",
      "type": "function"
    },
    {
      "inputs": [
        {
          "internalType": "address",
          "name": "newReg",
          "type": "address"
        }
      ],
      "name": "setENSRegistry",
      "outputs": [],
      "stateMutability": "nonpayable",
      "type": "function"
    },
    {
      "inputs": [
        {
          "internalType": "bytes4",
          "name": "sig",
          "type": "bytes4"
        },
        {
          "internalType": "bool",
          "name": "value",
          "type": "bool"
        }
      ],
      "name": "setInterface",
      "outputs": [],
      "stateMutability": "payable",
      "type": "function"
    },
    {
      "inputs": [
        {
          "internalType": "uint256",
          "name": "index",
          "type": "uint256"
        },
        {
          "internalType": "uint256",
          "name": "newLife",
          "type": "uint256"
        }
      ],
      "name": "setLife",
      "outputs": [],
      "stateMutability": "nonpayable",
      "type": "function"
    },
    {
      "inputs": [
        {
          "internalType": "uint256[4]",
          "name": "newLives",
          "type": "uint256[4]"
        }
      ],
      "name": "setLives",
      "outputs": [],
      "stateMutability": "nonpayable",
      "type": "function"
    },
    {
      "inputs": [
        {
          "internalType": "address[4]",
          "name": "newReg",
          "type": "address[4]"
        }
      ],
      "name": "setRegisteries",
      "outputs": [],
      "stateMutability": "nonpayable",
      "type": "function"
    },
    {
      "inputs": [
        {
          "internalType": "uint256",
          "name": "index",
          "type": "uint256"
        },
        {
          "internalType": "address",
          "name": "newReg",
          "type": "address"
        }
      ],
      "name": "setRegistrar",
      "outputs": [],
      "stateMutability": "nonpayable",
      "type": "function"
    },
    {
      "inputs": [
        {
          "internalType": "address[4]",
          "name": "newReg",
          "type": "address[4]"
        }
      ],
      "name": "setRegistrars",
      "outputs": [],
      "stateMutability": "nonpayable",
      "type": "function"
    },
    {
      "inputs": [
        {
          "internalType": "uint256",
          "name": "index",
          "type": "uint256"
        },
        {
          "internalType": "address",
          "name": "newReg",
          "type": "address"
        }
      ],
      "name": "setRegistry",
      "outputs": [],
      "stateMutability": "nonpayable",
      "type": "function"
    },
    {
      "inputs": [
        {
          "internalType": "uint256",
          "name": "",
          "type": "uint256"
        },
        {
          "internalType": "uint256",
          "name": "",
          "type": "uint256"
        }
      ],
      "name": "sizes",
      "outputs": [
        {
          "internalType": "uint256",
          "name": "",
          "type": "uint256"
        }
      ],
      "stateMutability": "view",
      "type": "function"
    },
    {
      "inputs": [
        {
          "internalType": "bytes4",
          "name": "",
          "type": "bytes4"
        }
      ],
      "name": "supportsInterface",
      "outputs": [
        {
          "internalType": "bool",
          "name": "",
          "type": "bool"
        }
      ],
      "stateMutability": "view",
      "type": "function"
    },
    {
      "inputs": [],
      "name": "symbol",
      "outputs": [
        {
          "internalType": "string",
          "name": "",
          "type": "string"
        }
      ],
      "stateMutability": "view",
      "type": "function"
    },
    {
      "inputs": [],
      "name": "toggleActive",
      "outputs": [],
      "stateMutability": "nonpayable",
      "type": "function"
    },
    {
      "inputs": [
        {
          "internalType": "address",
          "name": "newDev",
          "type": "address"
        }
      ],
      "name": "transferOwnership",
      "outputs": [],
      "stateMutability": "nonpayable",
      "type": "function"
    },
    {
      "inputs": [],
      "name": "withdrawEther",
      "outputs": [],
      "stateMutability": "payable",
      "type": "function"
    },
    {
      "stateMutability": "payable",
      "type": "receive"
    }
  ],
  "bytecode": {
    "object": "0x6001610100818152601760f91b610120526080908152610140828152602d60f81b6101605260a052610180828152602360f81b6101a05260c0526101e060405260006101c090815260e052620000589190600462000324565b506040805160c081018252600360808201818152602060a08401819052908352835180850185528281528082018290528184015283518085018552828152808201829052838501528351808501909452908352828101526060810191909152620000c790600590600462000374565b50604080516080810182526001808252602082018190529181018290526060810191909152620000fc90600d906004620003c2565b5060408051608081018252600060a082018190527f6f010af653ebe3cb07d297a4ef13366103d392ceffa68dd48232e6e9ff2187bf60c0808401919091528351808403909101815260e0830184528051602091820120835283518082018390527fd3b8281179950f98149eefdb158d0e1acb56f56e8e343aa9fefafa7e369595618186018190528551808303870181526060928301875280519084012083860152855180840185905280870182905286518082038801815290830187528051908401208587015285518084019490945283860152845180840386018152928101909452815191012091810191909152620001fb90601190600462000406565b50601580546001600160a01b0319166e0c2e074ec69a0dfb2997ba6c7d2e1e1790556040805160808101825260008082526020820181905291810182905260608101919091526200025190601690600462000437565b506040805160808101825260008082526020820181905291810182905260608101919091526200028690601a90600462000437565b50601e805460ff19166001179055348015620002a157600080fd5b50600080546001600160a01b03191633178155601f6020527f671129291df7713a2a0a3a305140d9835ac7df0a3a36ee9c083a2df0a0c67515805460ff1990811660019081179092556307f5828d60e41b9092527f79bc4dd5f7cbac89a4359d7e060f224361851e49b1d770fa5c53926efaf57dcd8054909216179055620006be565b826004810192821562000362579160200282015b82811115620003625782518290620003519082620005f2565b509160200191906001019062000338565b506200037092915062000482565b5090565b600883019183908215620003b4579160200282015b82811115620003b4578251620003a39083906002620004a3565b509160200191906002019062000389565b5062000370929150620004d8565b8260048101928215620003f8579160200282015b82811115620003f8578251829060ff16905591602001919060010190620003d6565b5062000370929150620004f4565b8260048101928215620003f8579160200282015b82811115620003f85782518255916020019190600101906200041a565b8260048101928215620003f8579160200282015b82811115620003f857825182546001600160a01b0319166001600160a01b039091161782556020909201916001909101906200044b565b80821115620003705760006200049982826200050b565b5060010162000482565b8260028101928215620003f85791602002820182811115620003f8578251829060ff16905591602001919060010190620003d6565b80821115620003705760008082556001820155600201620004d8565b5b80821115620003705760008155600101620004f5565b508054620005199062000563565b6000825580601f106200052a575050565b601f0160209004906000526020600020908101906200054a9190620004f4565b50565b634e487b7160e01b600052604160045260246000fd5b600181811c908216806200057857607f821691505b6020821081036200059957634e487b7160e01b600052602260045260246000fd5b50919050565b601f821115620005ed57600081815260208120601f850160051c81016020861015620005c85750805b601f850160051c820191505b81811015620005e957828155600101620005d4565b5050505b505050565b81516001600160401b038111156200060e576200060e6200054d565b62000626816200061f845462000563565b846200059f565b602080601f8311600181146200065e5760008415620006455750858301515b600019600386901b1c1916600185901b178555620005e9565b600085815260208120601f198616915b828110156200068f578886015182559484019460019091019084016200066e565b5085821015620006ae5787850151600019600388901b60f8161c191681555b5050505050600190811b01905550565b61160e80620006ce6000396000f3fe6080604052600436106101e75760003560e01c806370dec5f011610102578063c2d4cdfc11610095578063f079914f11610064578063f079914f146104bb578063f1715fdc146105da578063f1bec357146105fa578063f2fde38b1461061a57600080fd5b8063c2d4cdfc14610563578063ce721ac914610585578063ce786f57146105a5578063ec2ace2a146105c557600080fd5b80638da5cb5b116100d15780638da5cb5b146104bb5780638dfcb1c7146104d957806395d89b4114610507578063c0a43a7c1461055057600080fd5b806370dec5f0146104535780637362377b146104735780637d73b2311461047b57806380b29beb1461049b57600080fd5b80632f6807951161017a5780635ab1bd53116101495780635ab1bd53146103da5780635c979fe4146103ef578063642a8ed61461040f57806366a0edce1461043157600080fd5b80632f6807951461035a57806333647fac14610378578063479f6152146103985780634d3f7334146103b857600080fd5b806306fdde03116101b657806306fdde03146102af578063101de7a414610305578063255978421461032557806329c68dc11461034557600080fd5b8063011163ba146101f657806301e51ae81461021857806301ffc9a71461025557806302fb0c5e1461029557600080fd5b366101f157600080fd5b600080fd5b34801561020257600080fd5b50610216610211366004611210565b61063a565b005b34801561022457600080fd5b50600054610238906001600160a01b031681565b6040516001600160a01b0390911681526020015b60405180910390f35b34801561026157600080fd5b50610285610270366004611267565b601f6020526000908152604090205460ff1681565b604051901515815260200161024c565b3480156102a157600080fd5b50601e546102859060ff1681565b3480156102bb57600080fd5b506102f86040518060400160405280601381526020017f48656c697832204c696e6b20536572766963650000000000000000000000000081525081565b60405161024c91906112ed565b34801561031157600080fd5b50610216610320366004611317565b6106d2565b34801561033157600080fd5b50610216610340366004611317565b61075a565b34801561035157600080fd5b506102166107de565b34801561036657600080fd5b506015546001600160a01b0316610238565b34801561038457600080fd5b50610216610393366004611317565b610850565b3480156103a457600080fd5b506102166103b336600461134a565b6108d4565b3480156103c457600080fd5b506103cd61098a565b60405161024c9190611365565b3480156103e657600080fd5b506103cd6109cf565b3480156103fb57600080fd5b5061021661040a36600461139f565b610a0e565b34801561041b57600080fd5b50610424610ade565b60405161024c91906113cb565b34801561043d57600080fd5b50610446610b19565b60405161024c91906113f3565b34801561045f57600080fd5b5061023861046e36600461144e565b610b83565b610216610ba3565b34801561048757600080fd5b50601554610238906001600160a01b031681565b3480156104a757600080fd5b506102f86104b636600461144e565b610c63565b3480156104c757600080fd5b506000546001600160a01b0316610238565b3480156104e557600080fd5b506104f96104f436600461144e565b610d03565b60405190815260200161024c565b34801561051357600080fd5b506102f86040518060400160405280600681526020017f48454c495832000000000000000000000000000000000000000000000000000081525081565b61021661055e366004611467565b610d1a565b34801561056f57600080fd5b50610578610e48565b60405161024c91906114a3565b34801561059157600080fd5b506104f96105a036600461144e565b610f06565b3480156105b157600080fd5b506102166105c036600461139f565b610f16565b3480156105d157600080fd5b50610424610fab565b3480156105e657600080fd5b506102386105f536600461144e565b610fe1565b34801561060657600080fd5b506104f9610615366004611210565b610ff1565b34801561062657600080fd5b5061021661063536600461134a565b61101c565b6000546001600160a01b0316331461067f576000546040516347522c7b60e11b81526001600160a01b0390911660048201523360248201526044015b60405180910390fd5b60408051838152602081018390527f1e63d23105a4055118805831d2e9ddfdd1d0aa649288ea6af88bc3f1a839aa4d910160405180910390a180600d83600481106106cc576106cc61150e565b01555050565b6000546001600160a01b03163314610712576000546040516347522c7b60e11b81526001600160a01b039091166004820152336024820152604401610676565b7fe41d51d5fb8e385c5a9fe5bb74bdc64ccba6244430eccc72759a7c8169b7e9d381604051610741919061153d565b60405180910390a1610756601a8260046110cf565b5050565b6000546001600160a01b0316331461079a576000546040516347522c7b60e11b81526001600160a01b039091166004820152336024820152604401610676565b7f791be3d751ae4a05964850f92fc1e74cd8f0c6ddcf6aef1001f583e5f1c95031816040516107c9919061153d565b60405180910390a161075660168260046110cf565b6000546001600160a01b0316331461081e576000546040516347522c7b60e11b81526001600160a01b039091166004820152336024820152604401610676565b601e80547fffffffffffffffffffffffffffffffffffffffffffffffffffffffffffffff00811660ff90911615179055565b6000546001600160a01b03163314610890576000546040516347522c7b60e11b81526001600160a01b039091166004820152336024820152604401610676565b7f7fcd8173c4f7db37e3bb270284eaeae1d59547dd77434918796924c49055d91e816040516108bf9190611576565b60405180910390a1610756600d82600461113d565b6000546001600160a01b03163314610914576000546040516347522c7b60e11b81526001600160a01b039091166004820152336024820152604401610676565b6040516001600160a01b03821681527f648122358341292aea1c223cd5bd9558c62e765ab13b1ae565d075e692d76b379060200160405180910390a1601580547fffffffffffffffffffffffff0000000000000000000000000000000000000000166001600160a01b0392909216919091179055565b61099261116b565b60408051608081019182905290601a9060049082845b81546001600160a01b031681526001909101906020018083116109a8575050505050905090565b6109d761116b565b604080516080810191829052601680546001600160a01b0316825290916004906017602085018083116109a8575050505050905090565b6000546001600160a01b03163314610a4e576000546040516347522c7b60e11b81526001600160a01b039091166004820152336024820152604401610676565b604080518381526001600160a01b03831660208201527f86999194e67d8c5fb1a642a451b86213ed4f5b67a6a36e9e4d5de8f053e58132910160405180910390a180601a8360048110610aa357610aa361150e565b0180547fffffffffffffffffffffffff0000000000000000000000000000000000000000166001600160a01b03929092169190911790555050565b610ae661116b565b6040805160808101918290529060119060049082845b815481526020019060010190808311610afc575050505050905090565b610b21611189565b6040805160808101909152600560046000835b82821015610b7a57604080518082019182905290600284810287019182845b815481526020019060010190808311610b5357505050505081526020019060010190610b34565b50505050905090565b60168160048110610b9357600080fd5b01546001600160a01b0316905081565b600080546040516001600160a01b039091169047908381818185875af1925050503d8060008114610bf0576040519150601f19603f3d011682016040523d82523d6000602084013e610bf5565b606091505b5050905080610c60576040517f08c379a000000000000000000000000000000000000000000000000000000000815260206004820152601360248201527f4554485f5452414e534645525f4641494c4544000000000000000000000000006044820152606401610676565b50565b60018160048110610c7357600080fd5b018054909150610c8290611585565b80601f0160208091040260200160405190810160405280929190818152602001828054610cae90611585565b8015610cfb5780601f10610cd057610100808354040283529160200191610cfb565b820191906000526020600020905b815481529060010190602001808311610cde57829003601f168201915b505050505081565b60118160048110610d1357600080fd5b0154905081565b6000546001600160a01b03163314610d5a576000546040516347522c7b60e11b81526001600160a01b039091166004820152336024820152604401610676565b7fffffffff000000000000000000000000000000000000000000000000000000008083169003610de6576040517f08c379a000000000000000000000000000000000000000000000000000000000815260206004820152601a60248201527f494e56414c49445f494e544552464143455f53454c4543544f520000000000006044820152606401610676565b7fffffffff00000000000000000000000000000000000000000000000000000000919091166000908152601f6020526040902080547fffffffffffffffffffffffffffffffffffffffffffffffffffffffffffffff0016911515919091179055565b610e506111b6565b6040805160808101909152600160046000835b82821015610b7a578382018054610e7990611585565b80601f0160208091040260200160405190810160405280929190818152602001828054610ea590611585565b8015610ef25780601f10610ec757610100808354040283529160200191610ef2565b820191906000526020600020905b815481529060010190602001808311610ed557829003601f168201915b505050505081526020019060010190610e63565b600d8160048110610d1357600080fd5b6000546001600160a01b03163314610f56576000546040516347522c7b60e11b81526001600160a01b039091166004820152336024820152604401610676565b604080518381526001600160a01b03831660208201527f896e591224bbe75aedb047b3fd74204bb99d55e4cffb4c059fc669ca7474eb25910160405180910390a18060168360048110610aa357610aa361150e565b610fb361116b565b604080516080810191829052600d805482529091600490600e60208501808311610afc575050505050905090565b601a8160048110610b9357600080fd5b6005826004811061100157600080fd5b60020201816002811061101357600080fd5b01549150829050565b6000546001600160a01b0316331461105c576000546040516347522c7b60e11b81526001600160a01b039091166004820152336024820152604401610676565b600080546040516001600160a01b03808516939216917f8be0079c531659141344cd1fd0a4f28419497f9722a3daafe3b4186f6b6457e091a3600080547fffffffffffffffffffffffff0000000000000000000000000000000000000000166001600160a01b0392909216919091179055565b826004810192821561112d579160200282015b8281111561112d5781547fffffffffffffffffffffffff0000000000000000000000000000000000000000166001600160a01b038435161782556020909201916001909101906110e2565b506111399291506111dd565b5090565b826004810192821561112d579160200282015b8281111561112d578235825591602001919060010190611150565b60405180608001604052806004906020820280368337509192915050565b60405180608001604052806004905b6111a06111f2565b8152602001906001900390816111985790505090565b60405180608001604052806004905b60608152602001906001900390816111c55790505090565b5b8082111561113957600081556001016111de565b60405180604001604052806002906020820280368337509192915050565b6000806040838503121561122357600080fd5b50508035926020909101359150565b80357fffffffff000000000000000000000000000000000000000000000000000000008116811461126257600080fd5b919050565b60006020828403121561127957600080fd5b61128282611232565b9392505050565b6000815180845260005b818110156112af57602081850181015186830182015201611293565b5060006020828601015260207fffffffffffffffffffffffffffffffffffffffffffffffffffffffffffffffe0601f83011685010191505092915050565b6020815260006112826020830184611289565b806080810183101561131157600080fd5b92915050565b60006080828403121561132957600080fd5b6112828383611300565b80356001600160a01b038116811461126257600080fd5b60006020828403121561135c57600080fd5b61128282611333565b60808101818360005b60048110156113965781516001600160a01b031683526020928301929091019060010161136e565b50505092915050565b600080604083850312156113b257600080fd5b823591506113c260208401611333565b90509250929050565b60808101818360005b60048110156113965781518352602092830192909101906001016113d4565b610100810181836000805b600481101561144457825184835b600281101561142b57825182526020928301929091019060010161140c565b50505060409390930192602092909201916001016113fe565b5050505092915050565b60006020828403121561146057600080fd5b5035919050565b6000806040838503121561147a57600080fd5b61148383611232565b91506020830135801515811461149857600080fd5b809150509250929050565b602080825260009060a0830183820185845b6004811015611502577fffffffffffffffffffffffffffffffffffffffffffffffffffffffffffffffe08785030183526114f0848351611289565b935091840191908401906001016114b5565b50919695505050505050565b7f4e487b7100000000000000000000000000000000000000000000000000000000600052603260045260246000fd5b60808101818360005b6004811015611396576001600160a01b0361156083611333565b1683526020928301929190910190600101611546565b60808181019083833792915050565b600181811c9082168061159957607f821691505b6020821081036115d2577f4e487b7100000000000000000000000000000000000000000000000000000000600052602260045260246000fd5b5091905056fea2646970667358221220f8d816c13c0a19ba9373d9ae5d3d659262fb452f61cc8d7d020f8aecab7eadd864736f6c63430008100033",
    "linkReferences": {}
  },
  "methodIdentifiers": {
    "Dev()": "01e51ae8",
    "active()": "02fb0c5e",
    "ensRegistry()": "7d73b231",
    "getENSRegistry()": "2f680795",
    "getIllegalBlocks()": "c2d4cdfc",
    "getLifespans()": "ec2ace2a",
    "getRegistrar()": "4d3f7334",
    "getRegistry()": "5ab1bd53",
    "getRoothash()": "642a8ed6",
    "getSizes()": "66a0edce",
    "helix2Registrar(uint256)": "f1715fdc",
    "helix2Registry(uint256)": "70dec5f0",
    "illegalBlocks(uint256)": "80b29beb",
    "isDev()": "f079914f",
    "lifespans(uint256)": "ce721ac9",
    "name()": "06fdde03",
    "owner()": "8da5cb5b",
    "roothash(uint256)": "8dfcb1c7",
    "setENSRegistry(address)": "479f6152",
    "setInterface(bytes4,bool)": "c0a43a7c",
    "setLife(uint256,uint256)": "011163ba",
    "setLives(uint256[4])": "33647fac",
    "setRegisteries(address[4])": "25597842",
    "setRegistrar(uint256,address)": "5c979fe4",
    "setRegistrars(address[4])": "101de7a4",
    "setRegistry(uint256,address)": "ce786f57",
    "sizes(uint256,uint256)": "f1bec357",
    "supportsInterface(bytes4)": "01ffc9a7",
    "symbol()": "95d89b41",
    "toggleActive()": "29c68dc1",
    "transferOwnership(address)": "f2fde38b",
    "withdrawEther()": "7362377b"
  },
  "id": 22
}