{
  "abi": [
    {
      "inputs": [
        {
          "internalType": "address",
          "name": "_dev",
          "type": "address"
        },
        {
          "internalType": "address",
          "name": "_you",
          "type": "address"
        }
      ],
      "name": "OnlyDev",
      "type": "error"
    },
    {
      "anonymous": false,
      "inputs": [
        {
          "indexed": false,
          "internalType": "address",
          "name": "Dev",
          "type": "address"
        },
        {
          "indexed": false,
          "internalType": "address",
          "name": "newDev",
          "type": "address"
        }
      ],
      "name": "NewDev",
      "type": "event"
    },
    {
      "anonymous": false,
      "inputs": [
        {
          "indexed": false,
          "internalType": "address",
          "name": "newReg",
          "type": "address"
        }
      ],
      "name": "NewENSRegistry",
      "type": "event"
    },
    {
      "anonymous": false,
      "inputs": [
        {
          "indexed": false,
          "internalType": "uint256",
          "name": "index",
          "type": "uint256"
        },
        {
          "indexed": false,
          "internalType": "uint256",
          "name": "newLife",
          "type": "uint256"
        }
      ],
      "name": "NewLife",
      "type": "event"
    },
    {
      "anonymous": false,
      "inputs": [
        {
          "indexed": false,
          "internalType": "uint256[4]",
          "name": "newLives",
          "type": "uint256[4]"
        }
      ],
      "name": "NewLives",
      "type": "event"
    },
    {
      "anonymous": false,
      "inputs": [
        {
          "indexed": false,
          "internalType": "address[4]",
          "name": "newReg",
          "type": "address[4]"
        }
      ],
      "name": "NewRegisteries",
      "type": "event"
    },
    {
      "anonymous": false,
      "inputs": [
        {
          "indexed": false,
          "internalType": "uint256",
          "name": "index",
          "type": "uint256"
        },
        {
          "indexed": false,
          "internalType": "address",
          "name": "newReg",
          "type": "address"
        }
      ],
      "name": "NewRegistrar",
      "type": "event"
    },
    {
      "anonymous": false,
      "inputs": [
        {
          "indexed": false,
          "internalType": "address[4]",
          "name": "newReg",
          "type": "address[4]"
        }
      ],
      "name": "NewRegistrars",
      "type": "event"
    },
    {
      "anonymous": false,
      "inputs": [
        {
          "indexed": false,
          "internalType": "uint256",
          "name": "index",
          "type": "uint256"
        },
        {
          "indexed": false,
          "internalType": "address",
          "name": "newReg",
          "type": "address"
        }
      ],
      "name": "NewRegistry",
      "type": "event"
    },
    {
      "stateMutability": "payable",
      "type": "fallback"
    },
    {
      "inputs": [],
      "name": "Dev",
      "outputs": [
        {
          "internalType": "address",
          "name": "",
          "type": "address"
        }
      ],
      "stateMutability": "view",
      "type": "function"
    },
    {
      "inputs": [],
      "name": "active",
      "outputs": [
        {
          "internalType": "bool",
          "name": "",
          "type": "bool"
        }
      ],
      "stateMutability": "view",
      "type": "function"
    },
    {
      "inputs": [
        {
          "internalType": "address",
          "name": "newDev",
          "type": "address"
        }
      ],
      "name": "changeDev",
      "outputs": [],
      "stateMutability": "nonpayable",
      "type": "function"
    },
    {
      "inputs": [],
      "name": "ensRegistry",
      "outputs": [
        {
          "internalType": "address",
          "name": "",
          "type": "address"
        }
      ],
      "stateMutability": "view",
      "type": "function"
    },
    {
      "inputs": [],
      "name": "getENSRegistry",
      "outputs": [
        {
          "internalType": "address",
          "name": "",
          "type": "address"
        }
      ],
      "stateMutability": "view",
      "type": "function"
    },
    {
      "inputs": [],
      "name": "getIllegalBlocks",
      "outputs": [
        {
          "internalType": "string[4]",
          "name": "",
          "type": "string[4]"
        }
      ],
      "stateMutability": "view",
      "type": "function"
    },
    {
      "inputs": [],
      "name": "getLifespans",
      "outputs": [
        {
          "internalType": "uint256[4]",
          "name": "",
          "type": "uint256[4]"
        }
      ],
      "stateMutability": "view",
      "type": "function"
    },
    {
      "inputs": [],
      "name": "getRegistrar",
      "outputs": [
        {
          "internalType": "address[4]",
          "name": "",
          "type": "address[4]"
        }
      ],
      "stateMutability": "view",
      "type": "function"
    },
    {
      "inputs": [],
      "name": "getRegistry",
      "outputs": [
        {
          "internalType": "address[4]",
          "name": "",
          "type": "address[4]"
        }
      ],
      "stateMutability": "view",
      "type": "function"
    },
    {
      "inputs": [],
      "name": "getRoothash",
      "outputs": [
        {
          "internalType": "bytes32[4]",
          "name": "",
          "type": "bytes32[4]"
        }
      ],
      "stateMutability": "view",
      "type": "function"
    },
    {
      "inputs": [],
      "name": "getSizes",
      "outputs": [
        {
          "internalType": "uint256[2][4]",
          "name": "",
          "type": "uint256[2][4]"
        }
      ],
      "stateMutability": "view",
      "type": "function"
    },
    {
      "inputs": [
        {
          "internalType": "uint256",
          "name": "",
          "type": "uint256"
        }
      ],
      "name": "helix2Registrar",
      "outputs": [
        {
          "internalType": "address",
          "name": "",
          "type": "address"
        }
      ],
      "stateMutability": "view",
      "type": "function"
    },
    {
      "inputs": [
        {
          "internalType": "uint256",
          "name": "",
          "type": "uint256"
        }
      ],
      "name": "helix2Registry",
      "outputs": [
        {
          "internalType": "address",
          "name": "",
          "type": "address"
        }
      ],
      "stateMutability": "view",
      "type": "function"
    },
    {
      "inputs": [
        {
          "internalType": "uint256",
          "name": "",
          "type": "uint256"
        }
      ],
      "name": "illegalBlocks",
      "outputs": [
        {
          "internalType": "string",
          "name": "",
          "type": "string"
        }
      ],
      "stateMutability": "view",
      "type": "function"
    },
    {
      "inputs": [],
      "name": "isDev",
      "outputs": [
        {
          "internalType": "address",
          "name": "",
          "type": "address"
        }
      ],
      "stateMutability": "view",
      "type": "function"
    },
    {
      "inputs": [
        {
          "internalType": "uint256",
          "name": "",
          "type": "uint256"
        }
      ],
      "name": "lifespans",
      "outputs": [
        {
          "internalType": "uint256",
          "name": "",
          "type": "uint256"
        }
      ],
      "stateMutability": "view",
      "type": "function"
    },
    {
      "inputs": [],
      "name": "name",
      "outputs": [
        {
          "internalType": "string",
          "name": "",
          "type": "string"
        }
      ],
      "stateMutability": "view",
      "type": "function"
    },
    {
      "inputs": [
        {
          "internalType": "uint256",
          "name": "",
          "type": "uint256"
        }
      ],
      "name": "roothash",
      "outputs": [
        {
          "internalType": "bytes32",
          "name": "",
          "type": "bytes32"
        }
      ],
      "stateMutability": "view",
      "type": "function"
    },
    {
      "inputs": [
        {
          "internalType": "address",
          "name": "newReg",
          "type": "address"
        }
      ],
      "name": "setENSRegistry",
      "outputs": [],
      "stateMutability": "nonpayable",
      "type": "function"
    },
    {
      "inputs": [
        {
          "internalType": "bytes4",
          "name": "sig",
          "type": "bytes4"
        },
        {
          "internalType": "bool",
          "name": "value",
          "type": "bool"
        }
      ],
      "name": "setInterface",
      "outputs": [],
      "stateMutability": "payable",
      "type": "function"
    },
    {
      "inputs": [
        {
          "internalType": "uint256",
          "name": "index",
          "type": "uint256"
        },
        {
          "internalType": "uint256",
          "name": "newLife",
          "type": "uint256"
        }
      ],
      "name": "setLife",
      "outputs": [],
      "stateMutability": "nonpayable",
      "type": "function"
    },
    {
      "inputs": [
        {
          "internalType": "uint256[4]",
          "name": "newLives",
          "type": "uint256[4]"
        }
      ],
      "name": "setLives",
      "outputs": [],
      "stateMutability": "nonpayable",
      "type": "function"
    },
    {
      "inputs": [
        {
          "internalType": "address[4]",
          "name": "newReg",
          "type": "address[4]"
        }
      ],
      "name": "setRegisteries",
      "outputs": [],
      "stateMutability": "nonpayable",
      "type": "function"
    },
    {
      "inputs": [
        {
          "internalType": "uint256",
          "name": "index",
          "type": "uint256"
        },
        {
          "internalType": "address",
          "name": "newReg",
          "type": "address"
        }
      ],
      "name": "setRegistrar",
      "outputs": [],
      "stateMutability": "nonpayable",
      "type": "function"
    },
    {
      "inputs": [
        {
          "internalType": "address[4]",
          "name": "newReg",
          "type": "address[4]"
        }
      ],
      "name": "setRegistrars",
      "outputs": [],
      "stateMutability": "nonpayable",
      "type": "function"
    },
    {
      "inputs": [
        {
          "internalType": "uint256",
          "name": "index",
          "type": "uint256"
        },
        {
          "internalType": "address",
          "name": "newReg",
          "type": "address"
        }
      ],
      "name": "setRegistry",
      "outputs": [],
      "stateMutability": "nonpayable",
      "type": "function"
    },
    {
      "inputs": [
        {
          "internalType": "uint256",
          "name": "",
          "type": "uint256"
        },
        {
          "internalType": "uint256",
          "name": "",
          "type": "uint256"
        }
      ],
      "name": "sizes",
      "outputs": [
        {
          "internalType": "uint256",
          "name": "",
          "type": "uint256"
        }
      ],
      "stateMutability": "view",
      "type": "function"
    },
    {
      "inputs": [
        {
          "internalType": "bytes4",
          "name": "",
          "type": "bytes4"
        }
      ],
      "name": "supportsInterface",
      "outputs": [
        {
          "internalType": "bool",
          "name": "",
          "type": "bool"
        }
      ],
      "stateMutability": "view",
      "type": "function"
    },
    {
      "inputs": [],
      "name": "symbol",
      "outputs": [
        {
          "internalType": "string",
          "name": "",
          "type": "string"
        }
      ],
      "stateMutability": "view",
      "type": "function"
    },
    {
      "inputs": [],
      "name": "toggleActive",
      "outputs": [],
      "stateMutability": "nonpayable",
      "type": "function"
    },
    {
      "inputs": [],
      "name": "withdrawEther",
      "outputs": [],
      "stateMutability": "payable",
      "type": "function"
    },
    {
      "stateMutability": "payable",
      "type": "receive"
    }
  ],
  "bytecode": {
    "object": "0x6001610100818152601760f91b610120526080908152610140828152602d60f81b6101605260a052610180828152602360f81b6101a05260c0526101e060405260006101c090815260e0526200005891906004620002ba565b506040805160c081018252600360808201818152602060a08401819052908352835180850185528281528082018290528184015283518085018552828152808201829052838501528351808501909452908352828101526060810191909152620000c79060059060046200030a565b50604080516080810182526001808252602082018190529181018290526060810191909152620000fc90600d90600462000358565b5060408051608081018252600060a082018190527f6f010af653ebe3cb07d297a4ef13366103d392ceffa68dd48232e6e9ff2187bf60c0808401919091528351808403909101815260e0830184528051602091820120835283518082018390527fd3b8281179950f98149eefdb158d0e1acb56f56e8e343aa9fefafa7e369595618186018190528551808303870181526060928301875280519084012083860152855180840185905280870182905286518082038801815290830187528051908401208587015285518084019490945283860152845180840386018152928101909452815191012091810191909152620001fb9060119060046200039c565b50601580546001600160a01b0319166e0c2e074ec69a0dfb2997ba6c7d2e1e17905560408051608081018252600080825260208201819052918101829052606081019190915262000251906016906004620003cd565b506040805160808101825260008082526020820181905291810182905260608101919091526200028690601a906004620003cd565b50601e805460ff19166001179055348015620002a157600080fd5b50600080546001600160a01b0319163317905562000654565b8260048101928215620002f8579160200282015b82811115620002f85782518290620002e7908262000588565b5091602001919060010190620002ce565b506200030692915062000418565b5090565b6008830191839082156200034a579160200282015b828111156200034a57825162000339908390600262000439565b50916020019190600201906200031f565b50620003069291506200046e565b82600481019282156200038e579160200282015b828111156200038e578251829060ff169055916020019190600101906200036c565b50620003069291506200048a565b82600481019282156200038e579160200282015b828111156200038e578251825591602001919060010190620003b0565b82600481019282156200038e579160200282015b828111156200038e57825182546001600160a01b0319166001600160a01b03909116178255602090920191600190910190620003e1565b80821115620003065760006200042f8282620004a1565b5060010162000418565b82600281019282156200038e57916020028201828111156200038e578251829060ff169055916020019190600101906200036c565b808211156200030657600080825560018201556002016200046e565b5b808211156200030657600081556001016200048b565b508054620004af90620004f9565b6000825580601f10620004c0575050565b601f016020900490600052602060002090810190620004e091906200048a565b50565b634e487b7160e01b600052604160045260246000fd5b600181811c908216806200050e57607f821691505b6020821081036200052f57634e487b7160e01b600052602260045260246000fd5b50919050565b601f8211156200058357600081815260208120601f850160051c810160208610156200055e5750805b601f850160051c820191505b818110156200057f578281556001016200056a565b5050505b505050565b81516001600160401b03811115620005a457620005a4620004e3565b620005bc81620005b58454620004f9565b8462000535565b602080601f831160018114620005f45760008415620005db5750858301515b600019600386901b1c1916600185901b1785556200057f565b600085815260208120601f198616915b82811015620006255788860151825594840194600190910190840162000604565b5085821015620006445787850151600019600388901b60f8161c191681555b5050505050600190811b01905550565b61161180620006646000396000f3fe6080604052600436106101dc5760003560e01c806366a0edce11610102578063c0a43a7c11610095578063ec2ace2a11610064578063ec2ace2a146105bc578063f079914f146105d1578063f1715fdc146105ef578063f1bec3571461060f57600080fd5b8063c0a43a7c14610547578063c2d4cdfc1461055a578063ce721ac91461057c578063ce786f571461059c57600080fd5b806380b29beb116100d157806380b29beb1461049057806388a8c95c146104b05780638dfcb1c7146104d057806395d89b41146104fe57600080fd5b806366a0edce1461042657806370dec5f0146104485780637362377b146104685780637d73b2311461047057600080fd5b806329c68dc11161017a5780634d3f7334116101495780634d3f7334146103ad5780635ab1bd53146103cf5780635c979fe4146103e4578063642a8ed61461040457600080fd5b806329c68dc11461033a5780632f6807951461034f57806333647fac1461036d578063479f61521461038d57600080fd5b806302fb0c5e116101b657806302fb0c5e1461028a57806306fdde03146102a4578063101de7a4146102fa578063255978421461031a57600080fd5b8063011163ba146101eb57806301e51ae81461020d57806301ffc9a71461024a57600080fd5b366101e657600080fd5b600080fd5b3480156101f757600080fd5b5061020b610206366004611213565b61062f565b005b34801561021957600080fd5b5060005461022d906001600160a01b031681565b6040516001600160a01b0390911681526020015b60405180910390f35b34801561025657600080fd5b5061027a61026536600461126a565b601f6020526000908152604090205460ff1681565b6040519015158152602001610241565b34801561029657600080fd5b50601e5461027a9060ff1681565b3480156102b057600080fd5b506102ed6040518060400160405280601381526020017f48656c697832204c696e6b20536572766963650000000000000000000000000081525081565b60405161024191906112f0565b34801561030657600080fd5b5061020b61031536600461131a565b6106c7565b34801561032657600080fd5b5061020b61033536600461131a565b61074f565b34801561034657600080fd5b5061020b6107d3565b34801561035b57600080fd5b506015546001600160a01b031661022d565b34801561037957600080fd5b5061020b61038836600461131a565b610845565b34801561039957600080fd5b5061020b6103a836600461134d565b6108c9565b3480156103b957600080fd5b506103c261097f565b6040516102419190611368565b3480156103db57600080fd5b506103c26109c4565b3480156103f057600080fd5b5061020b6103ff3660046113a2565b610a03565b34801561041057600080fd5b50610419610ad3565b60405161024191906113ce565b34801561043257600080fd5b5061043b610b0e565b60405161024191906113f6565b34801561045457600080fd5b5061022d610463366004611451565b610b78565b61020b610b98565b34801561047c57600080fd5b5060155461022d906001600160a01b031681565b34801561049c57600080fd5b506102ed6104ab366004611451565b610c58565b3480156104bc57600080fd5b5061020b6104cb36600461134d565b610cf8565b3480156104dc57600080fd5b506104f06104eb366004611451565b610db9565b604051908152602001610241565b34801561050a57600080fd5b506102ed6040518060400160405280600681526020017f48454c495832000000000000000000000000000000000000000000000000000081525081565b61020b61055536600461146a565b610dd0565b34801561056657600080fd5b5061056f610efe565b60405161024191906114a6565b34801561058857600080fd5b506104f0610597366004611451565b610fbc565b3480156105a857600080fd5b5061020b6105b73660046113a2565b610fcc565b3480156105c857600080fd5b50610419611061565b3480156105dd57600080fd5b506000546001600160a01b031661022d565b3480156105fb57600080fd5b5061022d61060a366004611451565b611097565b34801561061b57600080fd5b506104f061062a366004611213565b6110a7565b6000546001600160a01b03163314610674576000546040516347522c7b60e11b81526001600160a01b0390911660048201523360248201526044015b60405180910390fd5b60408051838152602081018390527f1e63d23105a4055118805831d2e9ddfdd1d0aa649288ea6af88bc3f1a839aa4d910160405180910390a180600d83600481106106c1576106c1611511565b01555050565b6000546001600160a01b03163314610707576000546040516347522c7b60e11b81526001600160a01b03909116600482015233602482015260440161066b565b7fe41d51d5fb8e385c5a9fe5bb74bdc64ccba6244430eccc72759a7c8169b7e9d3816040516107369190611540565b60405180910390a161074b601a8260046110d2565b5050565b6000546001600160a01b0316331461078f576000546040516347522c7b60e11b81526001600160a01b03909116600482015233602482015260440161066b565b7f791be3d751ae4a05964850f92fc1e74cd8f0c6ddcf6aef1001f583e5f1c95031816040516107be9190611540565b60405180910390a161074b60168260046110d2565b6000546001600160a01b03163314610813576000546040516347522c7b60e11b81526001600160a01b03909116600482015233602482015260440161066b565b601e80547fffffffffffffffffffffffffffffffffffffffffffffffffffffffffffffff00811660ff90911615179055565b6000546001600160a01b03163314610885576000546040516347522c7b60e11b81526001600160a01b03909116600482015233602482015260440161066b565b7f7fcd8173c4f7db37e3bb270284eaeae1d59547dd77434918796924c49055d91e816040516108b49190611579565b60405180910390a161074b600d826004611140565b6000546001600160a01b03163314610909576000546040516347522c7b60e11b81526001600160a01b03909116600482015233602482015260440161066b565b6040516001600160a01b03821681527f648122358341292aea1c223cd5bd9558c62e765ab13b1ae565d075e692d76b379060200160405180910390a1601580547fffffffffffffffffffffffff0000000000000000000000000000000000000000166001600160a01b0392909216919091179055565b61098761116e565b60408051608081019182905290601a9060049082845b81546001600160a01b0316815260019091019060200180831161099d575050505050905090565b6109cc61116e565b604080516080810191829052601680546001600160a01b03168252909160049060176020850180831161099d575050505050905090565b6000546001600160a01b03163314610a43576000546040516347522c7b60e11b81526001600160a01b03909116600482015233602482015260440161066b565b604080518381526001600160a01b03831660208201527f86999194e67d8c5fb1a642a451b86213ed4f5b67a6a36e9e4d5de8f053e58132910160405180910390a180601a8360048110610a9857610a98611511565b0180547fffffffffffffffffffffffff0000000000000000000000000000000000000000166001600160a01b03929092169190911790555050565b610adb61116e565b6040805160808101918290529060119060049082845b815481526020019060010190808311610af1575050505050905090565b610b1661118c565b6040805160808101909152600560046000835b82821015610b6f57604080518082019182905290600284810287019182845b815481526020019060010190808311610b4857505050505081526020019060010190610b29565b50505050905090565b60168160048110610b8857600080fd5b01546001600160a01b0316905081565b600080546040516001600160a01b039091169047908381818185875af1925050503d8060008114610be5576040519150601f19603f3d011682016040523d82523d6000602084013e610bea565b606091505b5050905080610c55576040517f08c379a000000000000000000000000000000000000000000000000000000000815260206004820152601360248201527f4554485f5452414e534645525f4641494c454400000000000000000000000000604482015260640161066b565b50565b60018160048110610c6857600080fd5b018054909150610c7790611588565b80601f0160208091040260200160405190810160405280929190818152602001828054610ca390611588565b8015610cf05780601f10610cc557610100808354040283529160200191610cf0565b820191906000526020600020905b815481529060010190602001808311610cd357829003601f168201915b505050505081565b6000546001600160a01b03163314610d38576000546040516347522c7b60e11b81526001600160a01b03909116600482015233602482015260440161066b565b600054604080516001600160a01b03928316815291831660208301527fdec101f106d4fc7c85791843e64b198248c822298e3ed7046231d33f7783d816910160405180910390a1600080547fffffffffffffffffffffffff0000000000000000000000000000000000000000166001600160a01b0392909216919091179055565b60118160048110610dc957600080fd5b0154905081565b6000546001600160a01b03163314610e10576000546040516347522c7b60e11b81526001600160a01b03909116600482015233602482015260440161066b565b7fffffffff000000000000000000000000000000000000000000000000000000008083169003610e9c576040517f08c379a000000000000000000000000000000000000000000000000000000000815260206004820152601a60248201527f494e56414c49445f494e544552464143455f53454c4543544f52000000000000604482015260640161066b565b7fffffffff00000000000000000000000000000000000000000000000000000000919091166000908152601f6020526040902080547fffffffffffffffffffffffffffffffffffffffffffffffffffffffffffffff0016911515919091179055565b610f066111b9565b6040805160808101909152600160046000835b82821015610b6f578382018054610f2f90611588565b80601f0160208091040260200160405190810160405280929190818152602001828054610f5b90611588565b8015610fa85780601f10610f7d57610100808354040283529160200191610fa8565b820191906000526020600020905b815481529060010190602001808311610f8b57829003601f168201915b505050505081526020019060010190610f19565b600d8160048110610dc957600080fd5b6000546001600160a01b0316331461100c576000546040516347522c7b60e11b81526001600160a01b03909116600482015233602482015260440161066b565b604080518381526001600160a01b03831660208201527f896e591224bbe75aedb047b3fd74204bb99d55e4cffb4c059fc669ca7474eb25910160405180910390a18060168360048110610a9857610a98611511565b61106961116e565b604080516080810191829052600d805482529091600490600e60208501808311610af1575050505050905090565b601a8160048110610b8857600080fd5b600582600481106110b757600080fd5b6002020181600281106110c957600080fd5b01549150829050565b8260048101928215611130579160200282015b828111156111305781547fffffffffffffffffffffffff0000000000000000000000000000000000000000166001600160a01b038435161782556020909201916001909101906110e5565b5061113c9291506111e0565b5090565b8260048101928215611130579160200282015b82811115611130578235825591602001919060010190611153565b60405180608001604052806004906020820280368337509192915050565b60405180608001604052806004905b6111a36111f5565b81526020019060019003908161119b5790505090565b60405180608001604052806004905b60608152602001906001900390816111c85790505090565b5b8082111561113c57600081556001016111e1565b60405180604001604052806002906020820280368337509192915050565b6000806040838503121561122657600080fd5b50508035926020909101359150565b80357fffffffff000000000000000000000000000000000000000000000000000000008116811461126557600080fd5b919050565b60006020828403121561127c57600080fd5b61128582611235565b9392505050565b6000815180845260005b818110156112b257602081850181015186830182015201611296565b5060006020828601015260207fffffffffffffffffffffffffffffffffffffffffffffffffffffffffffffffe0601f83011685010191505092915050565b602081526000611285602083018461128c565b806080810183101561131457600080fd5b92915050565b60006080828403121561132c57600080fd5b6112858383611303565b80356001600160a01b038116811461126557600080fd5b60006020828403121561135f57600080fd5b61128582611336565b60808101818360005b60048110156113995781516001600160a01b0316835260209283019290910190600101611371565b50505092915050565b600080604083850312156113b557600080fd5b823591506113c560208401611336565b90509250929050565b60808101818360005b60048110156113995781518352602092830192909101906001016113d7565b610100810181836000805b600481101561144757825184835b600281101561142e57825182526020928301929091019060010161140f565b5050506040939093019260209290920191600101611401565b5050505092915050565b60006020828403121561146357600080fd5b5035919050565b6000806040838503121561147d57600080fd5b61148683611235565b91506020830135801515811461149b57600080fd5b809150509250929050565b602080825260009060a0830183820185845b6004811015611505577fffffffffffffffffffffffffffffffffffffffffffffffffffffffffffffffe08785030183526114f384835161128c565b935091840191908401906001016114b8565b50919695505050505050565b7f4e487b7100000000000000000000000000000000000000000000000000000000600052603260045260246000fd5b60808101818360005b6004811015611399576001600160a01b0361156383611336565b1683526020928301929190910190600101611549565b60808181019083833792915050565b600181811c9082168061159c57607f821691505b6020821081036115d5577f4e487b7100000000000000000000000000000000000000000000000000000000600052602260045260246000fd5b5091905056fea264697066735822122053a8e79e5392b39a12241e0923fd7545c36da09e2268dff0e7810a4e15b2d5e264736f6c63430008100033",
    "linkReferences": {}
  },
  "methodIdentifiers": {
    "Dev()": "01e51ae8",
    "active()": "02fb0c5e",
    "changeDev(address)": "88a8c95c",
    "ensRegistry()": "7d73b231",
    "getENSRegistry()": "2f680795",
    "getIllegalBlocks()": "c2d4cdfc",
    "getLifespans()": "ec2ace2a",
    "getRegistrar()": "4d3f7334",
    "getRegistry()": "5ab1bd53",
    "getRoothash()": "642a8ed6",
    "getSizes()": "66a0edce",
    "helix2Registrar(uint256)": "f1715fdc",
    "helix2Registry(uint256)": "70dec5f0",
    "illegalBlocks(uint256)": "80b29beb",
    "isDev()": "f079914f",
    "lifespans(uint256)": "ce721ac9",
    "name()": "06fdde03",
    "roothash(uint256)": "8dfcb1c7",
    "setENSRegistry(address)": "479f6152",
    "setInterface(bytes4,bool)": "c0a43a7c",
    "setLife(uint256,uint256)": "011163ba",
    "setLives(uint256[4])": "33647fac",
    "setRegisteries(address[4])": "25597842",
    "setRegistrar(uint256,address)": "5c979fe4",
    "setRegistrars(address[4])": "101de7a4",
    "setRegistry(uint256,address)": "ce786f57",
    "sizes(uint256,uint256)": "f1bec357",
    "supportsInterface(bytes4)": "01ffc9a7",
    "symbol()": "95d89b41",
    "toggleActive()": "29c68dc1",
    "withdrawEther()": "7362377b"
  },
  "id": 22
}