{
  "abi": [
    {
      "inputs": [
        {
          "internalType": "address",
          "name": "_dev",
          "type": "address"
        },
        {
          "internalType": "address",
          "name": "_you",
          "type": "address"
        }
      ],
      "name": "OnlyDev",
      "type": "error"
    },
    {
      "anonymous": false,
      "inputs": [
        {
          "indexed": false,
          "internalType": "address",
          "name": "Dev",
          "type": "address"
        },
        {
          "indexed": false,
          "internalType": "address",
          "name": "newDev",
          "type": "address"
        }
      ],
      "name": "NewDev",
      "type": "event"
    },
    {
      "anonymous": false,
      "inputs": [
        {
          "indexed": false,
          "internalType": "uint256",
          "name": "index",
          "type": "uint256"
        },
        {
          "indexed": false,
          "internalType": "uint256",
          "name": "newPrice",
          "type": "uint256"
        }
      ],
      "name": "NewPrice",
      "type": "event"
    },
    {
      "anonymous": false,
      "inputs": [
        {
          "indexed": false,
          "internalType": "uint256[4]",
          "name": "newPrices",
          "type": "uint256[4]"
        }
      ],
      "name": "NewPrices",
      "type": "event"
    },
    {
      "anonymous": false,
      "inputs": [
        {
          "indexed": false,
          "internalType": "address[4]",
          "name": "newReg",
          "type": "address[4]"
        }
      ],
      "name": "NewRegisters",
      "type": "event"
    },
    {
      "anonymous": false,
      "inputs": [
        {
          "indexed": false,
          "internalType": "uint256",
          "name": "index",
          "type": "uint256"
        },
        {
          "indexed": false,
          "internalType": "address",
          "name": "newReg",
          "type": "address"
        }
      ],
      "name": "NewRegistrar",
      "type": "event"
    },
    {
      "anonymous": false,
      "inputs": [
        {
          "indexed": false,
          "internalType": "address[4]",
          "name": "newReg",
          "type": "address[4]"
        }
      ],
      "name": "NewRegistrars",
      "type": "event"
    },
    {
      "anonymous": false,
      "inputs": [
        {
          "indexed": false,
          "internalType": "uint256",
          "name": "index",
          "type": "uint256"
        },
        {
          "indexed": false,
          "internalType": "address",
          "name": "newReg",
          "type": "address"
        }
      ],
      "name": "NewRegistry",
      "type": "event"
    },
    {
      "stateMutability": "payable",
      "type": "fallback"
    },
    {
      "inputs": [],
      "name": "BONDS",
      "outputs": [
        {
          "internalType": "contract iBOND",
          "name": "",
          "type": "address"
        }
      ],
      "stateMutability": "view",
      "type": "function"
    },
    {
      "inputs": [],
      "name": "Dev",
      "outputs": [
        {
          "internalType": "address",
          "name": "",
          "type": "address"
        }
      ],
      "stateMutability": "view",
      "type": "function"
    },
    {
      "inputs": [],
      "name": "ENS",
      "outputs": [
        {
          "internalType": "contract iENS",
          "name": "",
          "type": "address"
        }
      ],
      "stateMutability": "view",
      "type": "function"
    },
    {
      "inputs": [],
      "name": "MOLECULES",
      "outputs": [
        {
          "internalType": "contract iMOLECULE",
          "name": "",
          "type": "address"
        }
      ],
      "stateMutability": "view",
      "type": "function"
    },
    {
      "inputs": [],
      "name": "NAMES",
      "outputs": [
        {
          "internalType": "contract iNAME",
          "name": "",
          "type": "address"
        }
      ],
      "stateMutability": "view",
      "type": "function"
    },
    {
      "inputs": [],
      "name": "POLYCULES",
      "outputs": [
        {
          "internalType": "contract iPOLYCULE",
          "name": "",
          "type": "address"
        }
      ],
      "stateMutability": "view",
      "type": "function"
    },
    {
      "inputs": [],
      "name": "active",
      "outputs": [
        {
          "internalType": "bool",
          "name": "",
          "type": "bool"
        }
      ],
      "stateMutability": "view",
      "type": "function"
    },
    {
      "inputs": [
        {
          "internalType": "address",
          "name": "newDev",
          "type": "address"
        }
      ],
      "name": "changeDev",
      "outputs": [],
      "stateMutability": "nonpayable",
      "type": "function"
    },
    {
      "inputs": [],
      "name": "ensRegistry",
      "outputs": [
        {
          "internalType": "address",
          "name": "",
          "type": "address"
        }
      ],
      "stateMutability": "view",
      "type": "function"
    },
    {
      "inputs": [],
      "name": "getContract",
      "outputs": [
        {
          "internalType": "address",
          "name": "",
          "type": "address"
        }
      ],
      "stateMutability": "view",
      "type": "function"
    },
    {
      "inputs": [],
      "name": "getIllegalBlocks",
      "outputs": [
        {
          "internalType": "string[4]",
          "name": "",
          "type": "string[4]"
        }
      ],
      "stateMutability": "view",
      "type": "function"
    },
    {
      "inputs": [],
      "name": "getLifespans",
      "outputs": [
        {
          "internalType": "uint256[4]",
          "name": "",
          "type": "uint256[4]"
        }
      ],
      "stateMutability": "view",
      "type": "function"
    },
    {
      "inputs": [],
      "name": "getPrices",
      "outputs": [
        {
          "internalType": "uint256[4]",
          "name": "",
          "type": "uint256[4]"
        }
      ],
      "stateMutability": "view",
      "type": "function"
    },
    {
      "inputs": [],
      "name": "getRegistrar",
      "outputs": [
        {
          "internalType": "address[4]",
          "name": "",
          "type": "address[4]"
        }
      ],
      "stateMutability": "view",
      "type": "function"
    },
    {
      "inputs": [],
      "name": "getRegistry",
      "outputs": [
        {
          "internalType": "address[4]",
          "name": "",
          "type": "address[4]"
        }
      ],
      "stateMutability": "view",
      "type": "function"
    },
    {
      "inputs": [],
      "name": "getRoothash",
      "outputs": [
        {
          "internalType": "bytes32[4]",
          "name": "",
          "type": "bytes32[4]"
        }
      ],
      "stateMutability": "view",
      "type": "function"
    },
    {
      "inputs": [],
      "name": "getSizes",
      "outputs": [
        {
          "internalType": "uint256[4]",
          "name": "",
          "type": "uint256[4]"
        }
      ],
      "stateMutability": "view",
      "type": "function"
    },
    {
      "inputs": [
        {
          "internalType": "uint256",
          "name": "",
          "type": "uint256"
        }
      ],
      "name": "helix2Registrar",
      "outputs": [
        {
          "internalType": "address",
          "name": "",
          "type": "address"
        }
      ],
      "stateMutability": "view",
      "type": "function"
    },
    {
      "inputs": [
        {
          "internalType": "uint256",
          "name": "",
          "type": "uint256"
        }
      ],
      "name": "helix2Registry",
      "outputs": [
        {
          "internalType": "address",
          "name": "",
          "type": "address"
        }
      ],
      "stateMutability": "view",
      "type": "function"
    },
    {
      "inputs": [
        {
          "internalType": "uint256",
          "name": "",
          "type": "uint256"
        }
      ],
      "name": "illegalBlocks",
      "outputs": [
        {
          "internalType": "string",
          "name": "",
          "type": "string"
        }
      ],
      "stateMutability": "view",
      "type": "function"
    },
    {
      "inputs": [],
      "name": "isDev",
      "outputs": [
        {
          "internalType": "address",
          "name": "",
          "type": "address"
        }
      ],
      "stateMutability": "view",
      "type": "function"
    },
    {
      "inputs": [
        {
          "internalType": "uint256",
          "name": "",
          "type": "uint256"
        }
      ],
      "name": "lifespans",
      "outputs": [
        {
          "internalType": "uint256",
          "name": "",
          "type": "uint256"
        }
      ],
      "stateMutability": "view",
      "type": "function"
    },
    {
      "inputs": [],
      "name": "name",
      "outputs": [
        {
          "internalType": "string",
          "name": "",
          "type": "string"
        }
      ],
      "stateMutability": "view",
      "type": "function"
    },
    {
      "inputs": [
        {
          "internalType": "uint256",
          "name": "",
          "type": "uint256"
        }
      ],
      "name": "prices",
      "outputs": [
        {
          "internalType": "uint256",
          "name": "",
          "type": "uint256"
        }
      ],
      "stateMutability": "view",
      "type": "function"
    },
    {
      "inputs": [
        {
          "internalType": "uint256",
          "name": "",
          "type": "uint256"
        }
      ],
      "name": "roothash",
      "outputs": [
        {
          "internalType": "bytes32",
          "name": "",
          "type": "bytes32"
        }
      ],
      "stateMutability": "view",
      "type": "function"
    },
    {
      "inputs": [
        {
          "internalType": "bytes4",
          "name": "sig",
          "type": "bytes4"
        },
        {
          "internalType": "bool",
          "name": "value",
          "type": "bool"
        }
      ],
      "name": "setInterface",
      "outputs": [],
      "stateMutability": "payable",
      "type": "function"
    },
    {
      "inputs": [
        {
          "internalType": "uint256",
          "name": "index",
          "type": "uint256"
        },
        {
          "internalType": "uint256",
          "name": "newPrice",
          "type": "uint256"
        }
      ],
      "name": "setPrice",
      "outputs": [],
      "stateMutability": "nonpayable",
      "type": "function"
    },
    {
      "inputs": [
        {
          "internalType": "uint256[4]",
          "name": "newPrices",
          "type": "uint256[4]"
        }
      ],
      "name": "setPrices",
      "outputs": [],
      "stateMutability": "nonpayable",
      "type": "function"
    },
    {
      "inputs": [
        {
          "internalType": "address[4]",
          "name": "newReg",
          "type": "address[4]"
        }
      ],
      "name": "setRegisters",
      "outputs": [],
      "stateMutability": "nonpayable",
      "type": "function"
    },
    {
      "inputs": [
        {
          "internalType": "uint256",
          "name": "index",
          "type": "uint256"
        },
        {
          "internalType": "address",
          "name": "newReg",
          "type": "address"
        }
      ],
      "name": "setRegistrar",
      "outputs": [],
      "stateMutability": "nonpayable",
      "type": "function"
    },
    {
      "inputs": [
        {
          "internalType": "address[4]",
          "name": "newReg",
          "type": "address[4]"
        }
      ],
      "name": "setRegistrars",
      "outputs": [],
      "stateMutability": "nonpayable",
      "type": "function"
    },
    {
      "inputs": [
        {
          "internalType": "uint256",
          "name": "index",
          "type": "uint256"
        },
        {
          "internalType": "address",
          "name": "newReg",
          "type": "address"
        }
      ],
      "name": "setRegistry",
      "outputs": [],
      "stateMutability": "nonpayable",
      "type": "function"
    },
    {
      "inputs": [
        {
          "internalType": "uint256",
          "name": "",
          "type": "uint256"
        }
      ],
      "name": "sizes",
      "outputs": [
        {
          "internalType": "uint256",
          "name": "",
          "type": "uint256"
        }
      ],
      "stateMutability": "view",
      "type": "function"
    },
    {
      "inputs": [
        {
          "internalType": "bytes4",
          "name": "",
          "type": "bytes4"
        }
      ],
      "name": "supportsInterface",
      "outputs": [
        {
          "internalType": "bool",
          "name": "",
          "type": "bool"
        }
      ],
      "stateMutability": "view",
      "type": "function"
    },
    {
      "inputs": [],
      "name": "symbol",
      "outputs": [
        {
          "internalType": "string",
          "name": "",
          "type": "string"
        }
      ],
      "stateMutability": "view",
      "type": "function"
    },
    {
      "inputs": [],
      "name": "withdrawEther",
      "outputs": [],
      "stateMutability": "payable",
      "type": "function"
    },
    {
      "stateMutability": "payable",
      "type": "receive"
    }
  ],
  "bytecode": {
    "object": "0x6001610100818152601760f91b610120526080908152610140828152603f60f81b6101605260a052610180828152602160f81b6101a05260c0526102006040526101c0828152602360f81b6101e05260e0526200005f9190600462000365565b50604080516080810182526020808252808201819052918101829052606081019190915262000093906005906004620003b5565b50604080516080810182526001808252602082018190529181018290526060810191909152620000c8906009906004620003b5565b5060408051608081018252600060a082018190527f6f010af653ebe3cb07d297a4ef13366103d392ceffa68dd48232e6e9ff2187bf60c0808401919091528351808403909101815260e0830184528051602091820120835283518082018390527f5f179612d7132c8ed24ba0e286d60d398c4aa1c234eb2274ca1bba47718e9d3181860152845180820386018152606091820186528051908301208285015284518083018490527f3275a893b2c93461554cf2a4dd7f413d56decdd6f3fdf0589dbb8bc4fd742386818701528551808203870181529082018652805190830120848601528451808301939093527face738c68088218d015fbdce138f062893d86818ac98932f7ce2907c5976fbde838601528451808403860181529281019094528151910120918101919091526200020590600d906004620003f9565b50601180546001600160a01b0319166e0c2e074ec69a0dfb2997ba6c7d2e1e1790556040805160808101825260008082526020820181905291810182905260608101919091526200025b9060129060046200042a565b50601154601680546001600160a01b03199081166001600160a01b0393841617909155601254601780548316918416919091179055601354601880548316918416919091179055601454601980548316918416919091179055601554601a80549092169216919091179055604080516080810182526000808252602082018190529181018290526060810191909152620002fa90601b9060046200042a565b506040805160808101825262030d408082526020820181905291810182905260608101919091526200033190601f90600462000475565b506023805460ff191660011790553480156200034c57600080fd5b50600080546001600160a01b0319163317905562000698565b8260048101928215620003a3579160200282015b82811115620003a35782518290620003929082620005cc565b509160200191906001019062000379565b50620003b1929150620004ad565b5090565b8260048101928215620003eb579160200282015b82811115620003eb578251829060ff16905591602001919060010190620003c9565b50620003b1929150620004ce565b8260048101928215620003eb579160200282015b82811115620003eb5782518255916020019190600101906200040d565b8260048101928215620003eb579160200282015b82811115620003eb57825182546001600160a01b0319166001600160a01b039091161782556020909201916001909101906200043e565b8260048101928215620003eb579160200282015b82811115620003eb578251829062ffffff1690559160200191906001019062000489565b80821115620003b1576000620004c48282620004e5565b50600101620004ad565b5b80821115620003b15760008155600101620004cf565b508054620004f3906200053d565b6000825580601f1062000504575050565b601f016020900490600052602060002090810190620005249190620004ce565b50565b634e487b7160e01b600052604160045260246000fd5b600181811c908216806200055257607f821691505b6020821081036200057357634e487b7160e01b600052602260045260246000fd5b50919050565b601f821115620005c757600081815260208120601f850160051c81016020861015620005a25750805b601f850160051c820191505b81811015620005c357828155600101620005ae565b5050505b505050565b81516001600160401b03811115620005e857620005e862000527565b6200060081620005f984546200053d565b8462000579565b602080601f8311600181146200063857600084156200061f5750858301515b600019600386901b1c1916600185901b178555620005c3565b600085815260208120601f198616915b82811015620006695788860151825594840194600190910190840162000648565b5085821015620006885787850151600019600388901b60f8161c191681555b5050505050600190811b01905550565b61154180620006a86000396000f3fe6080604052600436106102535760003560e01c806388a8c95c11610138578063ce721ac9116100b0578063ec2ace2a1161007f578063f12e654811610064578063f12e6548146106ce578063f1715fdc146106ee578063f7d975771461070e57600080fd5b8063ec2ace2a1461069b578063f079914f146106b057600080fd5b8063ce721ac91461061b578063ce786f571461063b578063d9a9b0c61461065b578063d9ebda121461067b57600080fd5b8063b4abea2411610107578063bd9a548b116100ec578063bd9a548b146105d1578063c0a43a7c146105e6578063c2d4cdfc146105f957600080fd5b8063b4abea2414610591578063bc31c1c1146105b157600080fd5b806388a8c95c146104e75780638dfcb1c714610507578063958f85bd1461053557806395d89b411461054857600080fd5b8063548346a1116101cb57806366a0edce1161019a5780637362377b1161017f5780637362377b1461049f5780637d73b231146104a757806380b29beb146104c757600080fd5b806366a0edce1461046a57806370dec5f01461047f57600080fd5b8063548346a1146103f35780635ab1bd53146104135780635c979fe414610428578063642a8ed61461044857600080fd5b806306fdde03116102225780631d2e2cc4116102075780631d2e2cc4146103915780634d3f7334146103b15780635027c2ac146103d357600080fd5b806306fdde0314610319578063101de7a41461036f57600080fd5b806301e51ae81461026257806301ffc9a71461029f57806302fb0c5e146102df57806305e84aa0146102f957600080fd5b3661025d57600080fd5b600080fd5b34801561026e57600080fd5b50600054610282906001600160a01b031681565b6040516001600160a01b0390911681526020015b60405180910390f35b3480156102ab57600080fd5b506102cf6102ba3660046111d3565b60246020526000908152604090205460ff1681565b6040519015158152602001610296565b3480156102eb57600080fd5b506023546102cf9060ff1681565b34801561030557600080fd5b50601754610282906001600160a01b031681565b34801561032557600080fd5b506103626040518060400160405280601381526020017f48656c697832204c696e6b20536572766963650000000000000000000000000081525081565b6040516102969190611259565b34801561037b57600080fd5b5061038f61038a366004611283565b61072e565b005b34801561039d57600080fd5b50601654610282906001600160a01b031681565b3480156103bd57600080fd5b506103c66107bb565b604051610296919061129f565b3480156103df57600080fd5b5061038f6103ee366004611283565b610800565b3480156103ff57600080fd5b5061038f61040e366004611283565b610884565b34801561041f57600080fd5b506103c6610908565b34801561043457600080fd5b5061038f6104433660046112f0565b610947565b34801561045457600080fd5b5061045d610a17565b604051610296919061131c565b34801561047657600080fd5b5061045d610a52565b34801561048b57600080fd5b5061028261049a366004611344565b610a88565b61038f610aa8565b3480156104b357600080fd5b50601154610282906001600160a01b031681565b3480156104d357600080fd5b506103626104e2366004611344565b610b68565b3480156104f357600080fd5b5061038f61050236600461135d565b610c08565b34801561051357600080fd5b50610527610522366004611344565b610cc9565b604051908152602001610296565b34801561054157600080fd5b5030610282565b34801561055457600080fd5b506103626040518060400160405280600681526020017f48454c495832000000000000000000000000000000000000000000000000000081525081565b34801561059d57600080fd5b50601854610282906001600160a01b031681565b3480156105bd57600080fd5b506105276105cc366004611344565b610ce0565b3480156105dd57600080fd5b5061045d610cf0565b61038f6105f4366004611378565b610d25565b34801561060557600080fd5b5061060e610e53565b60405161029691906113b4565b34801561062757600080fd5b50610527610636366004611344565b610f1a565b34801561064757600080fd5b5061038f6106563660046112f0565b610f2a565b34801561066757600080fd5b50610527610676366004611344565b610fbf565b34801561068757600080fd5b50601a54610282906001600160a01b031681565b3480156106a757600080fd5b5061045d610fcf565b3480156106bc57600080fd5b506000546001600160a01b0316610282565b3480156106da57600080fd5b50601954610282906001600160a01b031681565b3480156106fa57600080fd5b50610282610709366004611344565b611005565b34801561071a57600080fd5b5061038f61072936600461141f565b611015565b6000546001600160a01b03163314610773576000546040516347522c7b60e11b81526001600160a01b0390911660048201523360248201526044015b60405180910390fd5b7fe41d51d5fb8e385c5a9fe5bb74bdc64ccba6244430eccc72759a7c8169b7e9d3816040516107a29190611441565b60405180910390a16107b7601b8260046110a8565b5050565b6107c3611116565b60408051608081019182905290601b9060049082845b81546001600160a01b031681526001909101906020018083116107d9575050505050905090565b6000546001600160a01b03163314610840576000546040516347522c7b60e11b81526001600160a01b03909116600482015233602482015260440161076a565b7f5aa375bb18377b2371c34ad676c9025701c6eb786496fe1eb984ff9ef4d5aad38160405161086f9190611441565b60405180910390a16107b760128260046110a8565b6000546001600160a01b031633146108c4576000546040516347522c7b60e11b81526001600160a01b03909116600482015233602482015260440161076a565b7f6116f7116dde91a0e9e26d165df2ff4da2a8825e58929b222641cc28d2e44f0e816040516108f3919061147a565b60405180910390a16107b7601f826004611134565b610910611116565b604080516080810191829052601280546001600160a01b0316825290916004906013602085018083116107d9575050505050905090565b6000546001600160a01b03163314610987576000546040516347522c7b60e11b81526001600160a01b03909116600482015233602482015260440161076a565b604080518381526001600160a01b03831660208201527f86999194e67d8c5fb1a642a451b86213ed4f5b67a6a36e9e4d5de8f053e58132910160405180910390a180601b83600481106109dc576109dc611489565b0180547fffffffffffffffffffffffff0000000000000000000000000000000000000000166001600160a01b03929092169190911790555050565b610a1f611116565b60408051608081019182905290600d9060049082845b815481526020019060010190808311610a35575050505050905090565b610a5a611116565b6040805160808101918290526005805482529091600490600660208501808311610a35575050505050905090565b60128160048110610a9857600080fd5b01546001600160a01b0316905081565b600080546040516001600160a01b039091169047908381818185875af1925050503d8060008114610af5576040519150601f19603f3d011682016040523d82523d6000602084013e610afa565b606091505b5050905080610b65576040517f08c379a000000000000000000000000000000000000000000000000000000000815260206004820152601360248201527f4554485f5452414e534645525f4641494c454400000000000000000000000000604482015260640161076a565b50565b60018160048110610b7857600080fd5b018054909150610b87906114b8565b80601f0160208091040260200160405190810160405280929190818152602001828054610bb3906114b8565b8015610c005780601f10610bd557610100808354040283529160200191610c00565b820191906000526020600020905b815481529060010190602001808311610be357829003601f168201915b505050505081565b6000546001600160a01b03163314610c48576000546040516347522c7b60e11b81526001600160a01b03909116600482015233602482015260440161076a565b600054604080516001600160a01b03928316815291831660208301527fdec101f106d4fc7c85791843e64b198248c822298e3ed7046231d33f7783d816910160405180910390a1600080547fffffffffffffffffffffffff0000000000000000000000000000000000000000166001600160a01b0392909216919091179055565b600d8160048110610cd957600080fd5b0154905081565b601f8160048110610cd957600080fd5b610cf8611116565b604080516080810191829052601f8054825290916004906020808501808311610a35575050505050905090565b6000546001600160a01b03163314610d65576000546040516347522c7b60e11b81526001600160a01b03909116600482015233602482015260440161076a565b7fffffffff000000000000000000000000000000000000000000000000000000008083169003610df1576040517f08c379a000000000000000000000000000000000000000000000000000000000815260206004820152601a60248201527f494e56414c49445f494e544552464143455f53454c4543544f52000000000000604482015260640161076a565b7fffffffff0000000000000000000000000000000000000000000000000000000091909116600090815260246020526040902080547fffffffffffffffffffffffffffffffffffffffffffffffffffffffffffffff0016911515919091179055565b610e5b611162565b6040805160808101909152600160046000835b82821015610f11578382018054610e84906114b8565b80601f0160208091040260200160405190810160405280929190818152602001828054610eb0906114b8565b8015610efd5780601f10610ed257610100808354040283529160200191610efd565b820191906000526020600020905b815481529060010190602001808311610ee057829003601f168201915b505050505081526020019060010190610e6e565b50505050905090565b60098160048110610cd957600080fd5b6000546001600160a01b03163314610f6a576000546040516347522c7b60e11b81526001600160a01b03909116600482015233602482015260440161076a565b604080518381526001600160a01b03831660208201527f896e591224bbe75aedb047b3fd74204bb99d55e4cffb4c059fc669ca7474eb25910160405180910390a180601283600481106109dc576109dc611489565b60058160048110610cd957600080fd5b610fd7611116565b6040805160808101918290526009805482529091600490600a60208501808311610a35575050505050905090565b601b8160048110610a9857600080fd5b6000546001600160a01b03163314611055576000546040516347522c7b60e11b81526001600160a01b03909116600482015233602482015260440161076a565b60408051838152602081018390527fb9362b96e28efbb7a7e63bb4a97faf9924ec0394635feff8588a6ae2a5f784fe910160405180910390a180601f83600481106110a2576110a2611489565b01555050565b8260048101928215611106579160200282015b828111156111065781547fffffffffffffffffffffffff0000000000000000000000000000000000000000166001600160a01b038435161782556020909201916001909101906110bb565b50611112929150611189565b5090565b60405180608001604052806004906020820280368337509192915050565b8260048101928215611106579160200282015b82811115611106578235825591602001919060010190611147565b60405180608001604052806004905b60608152602001906001900390816111715790505090565b5b80821115611112576000815560010161118a565b80357fffffffff00000000000000000000000000000000000000000000000000000000811681146111ce57600080fd5b919050565b6000602082840312156111e557600080fd5b6111ee8261119e565b9392505050565b6000815180845260005b8181101561121b576020818501810151868301820152016111ff565b5060006020828601015260207fffffffffffffffffffffffffffffffffffffffffffffffffffffffffffffffe0601f83011685010191505092915050565b6020815260006111ee60208301846111f5565b806080810183101561127d57600080fd5b92915050565b60006080828403121561129557600080fd5b6111ee838361126c565b60808101818360005b60048110156112d05781516001600160a01b03168352602092830192909101906001016112a8565b50505092915050565b80356001600160a01b03811681146111ce57600080fd5b6000806040838503121561130357600080fd5b82359150611313602084016112d9565b90509250929050565b60808101818360005b60048110156112d0578151835260209283019290910190600101611325565b60006020828403121561135657600080fd5b5035919050565b60006020828403121561136f57600080fd5b6111ee826112d9565b6000806040838503121561138b57600080fd5b6113948361119e565b9150602083013580151581146113a957600080fd5b809150509250929050565b602080825260009060a0830183820185845b6004811015611413577fffffffffffffffffffffffffffffffffffffffffffffffffffffffffffffffe08785030183526114018483516111f5565b935091840191908401906001016113c6565b50919695505050505050565b6000806040838503121561143257600080fd5b50508035926020909101359150565b60808101818360005b60048110156112d0576001600160a01b03611464836112d9565b168352602092830192919091019060010161144a565b60808181019083833792915050565b7f4e487b7100000000000000000000000000000000000000000000000000000000600052603260045260246000fd5b600181811c908216806114cc57607f821691505b602082108103611505577f4e487b7100000000000000000000000000000000000000000000000000000000600052602260045260246000fd5b5091905056fea26469706673582212201defc59c2a17401b9301de346ed202b47ad953df91e4ec69ee1f0c2f57ba7e7364736f6c63430008100033",
    "linkReferences": {}
  },
  "methodIdentifiers": {
    "BONDS()": "b4abea24",
    "Dev()": "01e51ae8",
    "ENS()": "1d2e2cc4",
    "MOLECULES()": "f12e6548",
    "NAMES()": "05e84aa0",
    "POLYCULES()": "d9ebda12",
    "active()": "02fb0c5e",
    "changeDev(address)": "88a8c95c",
    "ensRegistry()": "7d73b231",
    "getContract()": "958f85bd",
    "getIllegalBlocks()": "c2d4cdfc",
    "getLifespans()": "ec2ace2a",
    "getPrices()": "bd9a548b",
    "getRegistrar()": "4d3f7334",
    "getRegistry()": "5ab1bd53",
    "getRoothash()": "642a8ed6",
    "getSizes()": "66a0edce",
    "helix2Registrar(uint256)": "f1715fdc",
    "helix2Registry(uint256)": "70dec5f0",
    "illegalBlocks(uint256)": "80b29beb",
    "isDev()": "f079914f",
    "lifespans(uint256)": "ce721ac9",
    "name()": "06fdde03",
    "prices(uint256)": "bc31c1c1",
    "roothash(uint256)": "8dfcb1c7",
    "setInterface(bytes4,bool)": "c0a43a7c",
    "setPrice(uint256,uint256)": "f7d97577",
    "setPrices(uint256[4])": "548346a1",
    "setRegisters(address[4])": "5027c2ac",
    "setRegistrar(uint256,address)": "5c979fe4",
    "setRegistrars(address[4])": "101de7a4",
    "setRegistry(uint256,address)": "ce786f57",
    "sizes(uint256)": "d9a9b0c6",
    "supportsInterface(bytes4)": "01ffc9a7",
    "symbol()": "95d89b41",
    "withdrawEther()": "7362377b"
  },
  "id": 20
}