{
  "abi": [
    {
      "inputs": [],
      "name": "CannotBurn",
      "type": "error"
    },
    {
      "inputs": [
        {
          "internalType": "address",
          "name": "to",
          "type": "address"
        }
      ],
      "name": "ERC721IncompatibleReceiver",
      "type": "error"
    },
    {
      "inputs": [
        {
          "internalType": "address",
          "name": "_dev",
          "type": "address"
        },
        {
          "internalType": "address",
          "name": "_you",
          "type": "address"
        }
      ],
      "name": "OnlyDev",
      "type": "error"
    },
    {
      "inputs": [
        {
          "internalType": "address",
          "name": "operator",
          "type": "address"
        },
        {
          "internalType": "address",
          "name": "owner",
          "type": "address"
        },
        {
          "internalType": "uint256",
          "name": "tokenID",
          "type": "uint256"
        }
      ],
      "name": "Unauthorized",
      "type": "error"
    },
    {
      "anonymous": false,
      "inputs": [
        {
          "indexed": true,
          "internalType": "address",
          "name": "owner",
          "type": "address"
        },
        {
          "indexed": true,
          "internalType": "address",
          "name": "spender",
          "type": "address"
        },
        {
          "indexed": true,
          "internalType": "uint256",
          "name": "tokenID",
          "type": "uint256"
        }
      ],
      "name": "Approval",
      "type": "event"
    },
    {
      "anonymous": false,
      "inputs": [
        {
          "indexed": true,
          "internalType": "address",
          "name": "owner",
          "type": "address"
        },
        {
          "indexed": true,
          "internalType": "address",
          "name": "operator",
          "type": "address"
        },
        {
          "indexed": false,
          "internalType": "bool",
          "name": "approved",
          "type": "bool"
        }
      ],
      "name": "ApprovalForAll",
      "type": "event"
    },
    {
      "anonymous": false,
      "inputs": [
        {
          "indexed": false,
          "internalType": "address",
          "name": "Dev",
          "type": "address"
        },
        {
          "indexed": false,
          "internalType": "address",
          "name": "newDev",
          "type": "address"
        }
      ],
      "name": "NewDev",
      "type": "event"
    },
    {
      "anonymous": false,
      "inputs": [
        {
          "indexed": false,
          "internalType": "address[4]",
          "name": "newReg",
          "type": "address[4]"
        }
      ],
      "name": "NewRegistry",
      "type": "event"
    },
    {
      "anonymous": false,
      "inputs": [
        {
          "indexed": false,
          "internalType": "uint256",
          "name": "index",
          "type": "uint256"
        },
        {
          "indexed": false,
          "internalType": "address",
          "name": "newReg",
          "type": "address"
        }
      ],
      "name": "NewSubRegistry",
      "type": "event"
    },
    {
      "anonymous": false,
      "inputs": [
        {
          "indexed": true,
          "internalType": "address",
          "name": "from",
          "type": "address"
        },
        {
          "indexed": true,
          "internalType": "address",
          "name": "to",
          "type": "address"
        },
        {
          "indexed": true,
          "internalType": "uint256",
          "name": "tokenID",
          "type": "uint256"
        }
      ],
      "name": "Transfer",
      "type": "event"
    },
    {
      "stateMutability": "payable",
      "type": "fallback"
    },
    {
      "inputs": [],
      "name": "BONDS",
      "outputs": [
        {
          "internalType": "contract iBOND",
          "name": "",
          "type": "address"
        }
      ],
      "stateMutability": "view",
      "type": "function"
    },
    {
      "inputs": [],
      "name": "Dev",
      "outputs": [
        {
          "internalType": "address",
          "name": "",
          "type": "address"
        }
      ],
      "stateMutability": "view",
      "type": "function"
    },
    {
      "inputs": [],
      "name": "ENS",
      "outputs": [
        {
          "internalType": "contract iENS",
          "name": "",
          "type": "address"
        }
      ],
      "stateMutability": "view",
      "type": "function"
    },
    {
      "inputs": [],
      "name": "MOLECULES",
      "outputs": [
        {
          "internalType": "contract iMOLECULE",
          "name": "",
          "type": "address"
        }
      ],
      "stateMutability": "view",
      "type": "function"
    },
    {
      "inputs": [],
      "name": "NAMES",
      "outputs": [
        {
          "internalType": "contract iNAME",
          "name": "",
          "type": "address"
        }
      ],
      "stateMutability": "view",
      "type": "function"
    },
    {
      "inputs": [],
      "name": "POLYCULES",
      "outputs": [
        {
          "internalType": "contract iPOLYCULE",
          "name": "",
          "type": "address"
        }
      ],
      "stateMutability": "view",
      "type": "function"
    },
    {
      "inputs": [
        {
          "internalType": "uint256",
          "name": "",
          "type": "uint256"
        }
      ],
      "name": "_approved",
      "outputs": [
        {
          "internalType": "address",
          "name": "",
          "type": "address"
        }
      ],
      "stateMutability": "view",
      "type": "function"
    },
    {
      "inputs": [],
      "name": "active",
      "outputs": [
        {
          "internalType": "bool",
          "name": "",
          "type": "bool"
        }
      ],
      "stateMutability": "view",
      "type": "function"
    },
    {
      "inputs": [
        {
          "internalType": "address",
          "name": "controller",
          "type": "address"
        },
        {
          "internalType": "uint256",
          "name": "tokenID",
          "type": "uint256"
        }
      ],
      "name": "approve",
      "outputs": [],
      "stateMutability": "payable",
      "type": "function"
    },
    {
      "inputs": [
        {
          "internalType": "address",
          "name": "wallet",
          "type": "address"
        }
      ],
      "name": "balanceOf",
      "outputs": [
        {
          "internalType": "uint256",
          "name": "",
          "type": "uint256"
        }
      ],
      "stateMutability": "view",
      "type": "function"
    },
    {
      "inputs": [
        {
          "internalType": "address",
          "name": "newDev",
          "type": "address"
        }
      ],
      "name": "changeDev",
      "outputs": [],
      "stateMutability": "nonpayable",
      "type": "function"
    },
    {
      "inputs": [],
      "name": "ensRegistry",
      "outputs": [
        {
          "internalType": "address",
          "name": "",
          "type": "address"
        }
      ],
      "stateMutability": "view",
      "type": "function"
    },
    {
      "inputs": [
        {
          "internalType": "uint256",
          "name": "",
          "type": "uint256"
        }
      ],
      "name": "helix2Registry",
      "outputs": [
        {
          "internalType": "address",
          "name": "",
          "type": "address"
        }
      ],
      "stateMutability": "view",
      "type": "function"
    },
    {
      "inputs": [
        {
          "internalType": "uint256",
          "name": "",
          "type": "uint256"
        }
      ],
      "name": "illegalBlocks",
      "outputs": [
        {
          "internalType": "string",
          "name": "",
          "type": "string"
        }
      ],
      "stateMutability": "view",
      "type": "function"
    },
    {
      "inputs": [
        {
          "internalType": "address",
          "name": "",
          "type": "address"
        },
        {
          "internalType": "address",
          "name": "",
          "type": "address"
        }
      ],
      "name": "isApprovedForAll",
      "outputs": [
        {
          "internalType": "bool",
          "name": "",
          "type": "bool"
        }
      ],
      "stateMutability": "view",
      "type": "function"
    },
    {
      "inputs": [],
      "name": "isDev",
      "outputs": [
        {
          "internalType": "address",
          "name": "",
          "type": "address"
        }
      ],
      "stateMutability": "view",
      "type": "function"
    },
    {
      "inputs": [],
      "name": "name",
      "outputs": [
        {
          "internalType": "string",
          "name": "",
          "type": "string"
        }
      ],
      "stateMutability": "view",
      "type": "function"
    },
    {
      "inputs": [
        {
          "internalType": "uint256",
          "name": "tokenID",
          "type": "uint256"
        }
      ],
      "name": "ownerOf",
      "outputs": [
        {
          "internalType": "address",
          "name": "",
          "type": "address"
        }
      ],
      "stateMutability": "view",
      "type": "function"
    },
    {
      "inputs": [
        {
          "internalType": "uint256",
          "name": "",
          "type": "uint256"
        }
      ],
      "name": "roothash",
      "outputs": [
        {
          "internalType": "bytes32",
          "name": "",
          "type": "bytes32"
        }
      ],
      "stateMutability": "view",
      "type": "function"
    },
    {
      "inputs": [
        {
          "internalType": "address",
          "name": "from",
          "type": "address"
        },
        {
          "internalType": "address",
          "name": "to",
          "type": "address"
        },
        {
          "internalType": "uint256",
          "name": "tokenID",
          "type": "uint256"
        }
      ],
      "name": "safeTransferFrom",
      "outputs": [],
      "stateMutability": "payable",
      "type": "function"
    },
    {
      "inputs": [
        {
          "internalType": "address",
          "name": "from",
          "type": "address"
        },
        {
          "internalType": "address",
          "name": "to",
          "type": "address"
        },
        {
          "internalType": "uint256",
          "name": "tokenID",
          "type": "uint256"
        },
        {
          "internalType": "bytes",
          "name": "data",
          "type": "bytes"
        }
      ],
      "name": "safeTransferFrom",
      "outputs": [],
      "stateMutability": "payable",
      "type": "function"
    },
    {
      "inputs": [
        {
          "internalType": "address",
          "name": "controller",
          "type": "address"
        },
        {
          "internalType": "bool",
          "name": "flag",
          "type": "bool"
        }
      ],
      "name": "setApprovalForAll",
      "outputs": [],
      "stateMutability": "payable",
      "type": "function"
    },
    {
      "inputs": [
        {
          "internalType": "bytes4",
          "name": "sig",
          "type": "bytes4"
        },
        {
          "internalType": "bool",
          "name": "value",
          "type": "bool"
        }
      ],
      "name": "setInterface",
      "outputs": [],
      "stateMutability": "payable",
      "type": "function"
    },
    {
      "inputs": [
        {
          "internalType": "address[4]",
          "name": "newReg",
          "type": "address[4]"
        }
      ],
      "name": "setRegistry",
      "outputs": [],
      "stateMutability": "nonpayable",
      "type": "function"
    },
    {
      "inputs": [
        {
          "internalType": "uint256",
          "name": "index",
          "type": "uint256"
        },
        {
          "internalType": "address",
          "name": "newReg",
          "type": "address"
        }
      ],
      "name": "setSubRegistry",
      "outputs": [],
      "stateMutability": "nonpayable",
      "type": "function"
    },
    {
      "inputs": [
        {
          "internalType": "uint256",
          "name": "",
          "type": "uint256"
        }
      ],
      "name": "sizes",
      "outputs": [
        {
          "internalType": "uint256",
          "name": "",
          "type": "uint256"
        }
      ],
      "stateMutability": "view",
      "type": "function"
    },
    {
      "inputs": [
        {
          "internalType": "bytes4",
          "name": "",
          "type": "bytes4"
        }
      ],
      "name": "supportsInterface",
      "outputs": [
        {
          "internalType": "bool",
          "name": "",
          "type": "bool"
        }
      ],
      "stateMutability": "view",
      "type": "function"
    },
    {
      "inputs": [],
      "name": "symbol",
      "outputs": [
        {
          "internalType": "string",
          "name": "",
          "type": "string"
        }
      ],
      "stateMutability": "view",
      "type": "function"
    },
    {
      "inputs": [
        {
          "internalType": "address",
          "name": "from",
          "type": "address"
        },
        {
          "internalType": "address",
          "name": "to",
          "type": "address"
        },
        {
          "internalType": "uint256",
          "name": "tokenID",
          "type": "uint256"
        }
      ],
      "name": "transferFrom",
      "outputs": [],
      "stateMutability": "payable",
      "type": "function"
    },
    {
      "inputs": [],
      "name": "withdrawEther",
      "outputs": [],
      "stateMutability": "payable",
      "type": "function"
    },
    {
      "inputs": [
        {
          "internalType": "address",
          "name": "token",
          "type": "address"
        }
      ],
      "name": "withdrawToken",
      "outputs": [],
      "stateMutability": "payable",
      "type": "function"
    },
    {
      "stateMutability": "payable",
      "type": "receive"
    }
  ],
  "bytecode": {
    "object": "0x6001610100818152601760f91b610120526080908152610140828152603f60f81b6101605260a052610180828152602160f81b6101a05260c0526102006040526101c0828152602360f81b6101e05260e0526200005f9190600462000358565b50604080516080810182526020808252808201819052918101829052606081019190915262000093906005906004620003a8565b5060408051608081018252600060a082018190527f6f010af653ebe3cb07d297a4ef13366103d392ceffa68dd48232e6e9ff2187bf60c0808401919091528351808403909101815260e0830184528051602091820120835283518082018390527f5f179612d7132c8ed24ba0e286d60d398c4aa1c234eb2274ca1bba47718e9d3181860152845180820386018152606091820186528051908301208285015284518083018490527f3275a893b2c93461554cf2a4dd7f413d56decdd6f3fdf0589dbb8bc4fd742386818701528551808203870181529082018652805190830120848601528451808301939093527face738c68088218d015fbdce138f062893d86818ac98932f7ce2907c5976fbde83860152845180840386018152928101909452815191012091810191909152620001d0906009906004620003ec565b50600d80546001600160a01b0319166e0c2e074ec69a0dfb2997ba6c7d2e1e1790556040805160808101825260018152600260208201526003918101919091526004606082018190526200022791600e916200041d565b506012805460ff19166001179055600d54601880546001600160a01b03199081166001600160a01b0393841617909155600e54601980548316918416919091179055600f54601a80548316918416919091179055601054601b80548316918416919091179055601154601c80549092169216919091179055348015620002ac57600080fd5b50600080546001600160a01b0319163317815560136020527f317681100331673b27c2499894e78912f138ae85f2dd790e454ff96a89cf2d77805460ff1990811660019081179092557f5829b1f18259a9cdcd4268c3b072804d2f8e3dedbb1b883db1fa2055bb26d84f8054821683179055635b5e139f60e01b9092527f65cb089fa41783e5af12e88573d882f263c09532a373334f0b809825d5a904ab805490921617905562000653565b826004810192821562000396579160200282015b8281111562000396578251829062000385908262000587565b50916020019190600101906200036c565b50620003a492915062000468565b5090565b8260048101928215620003de579160200282015b82811115620003de578251829060ff16905591602001919060010190620003bc565b50620003a492915062000489565b8260048101928215620003de579160200282015b82811115620003de57825182559160200191906001019062000400565b8260048101928215620003de579160200282015b82811115620003de57825182546001600160a01b0319166001600160a01b0390911617825560209092019160019091019062000431565b80821115620003a45760006200047f8282620004a0565b5060010162000468565b5b80821115620003a457600081556001016200048a565b508054620004ae90620004f8565b6000825580601f10620004bf575050565b601f016020900490600052602060002090810190620004df919062000489565b50565b634e487b7160e01b600052604160045260246000fd5b600181811c908216806200050d57607f821691505b6020821081036200052e57634e487b7160e01b600052602260045260246000fd5b50919050565b601f8211156200058257600081815260208120601f850160051c810160208610156200055d5750805b601f850160051c820191505b818110156200057e5782815560010162000569565b5050505b505050565b81516001600160401b03811115620005a357620005a3620004e2565b620005bb81620005b48454620004f8565b8462000534565b602080601f831160018114620005f35760008415620005da5750858301515b600019600386901b1c1916600185901b1785556200057e565b600085815260208120601f198616915b82811015620006245788860151825594840194600190910190840162000603565b5085821015620006435787850151600019600388901b60f8161c191681555b5050505050600190811b01905550565b6118e980620006636000396000f3fe6080604052600436106101dc5760003560e01c806380b29beb11610102578063b4abea2411610095578063d9ebda1211610064578063d9ebda1214610581578063e985e9c5146105a1578063f079914f146105dc578063f12e6548146105fa57600080fd5b8063b4abea241461051b578063b88d4fde1461053b578063c0a43a7c1461054e578063d9a9b0c61461056157600080fd5b80639024d282116100d15780639024d2821461046957806395d89b411461049f578063a22cb465146104e8578063aa0d81e3146104fb57600080fd5b806380b29beb146103f657806388a8c95c1461041657806389476069146104365780638dfcb1c71461044957600080fd5b806323b872dd1161017a57806370a082311161014957806370a082311461038057806370dec5f0146103ae5780637362377b146103ce5780637d73b231146103d657600080fd5b806323b872dd1461032d5780633f952eb81461034057806342842e0e1461032d5780636352211e1461036057600080fd5b806305e84aa0116101b657806305e84aa01461028257806306fdde03146102a2578063095ea7b3146102f85780631d2e2cc41461030d57600080fd5b806301e51ae8146101eb57806301ffc9a71461022857806302fb0c5e1461026857600080fd5b366101e657600080fd5b600080fd5b3480156101f757600080fd5b5060005461020b906001600160a01b031681565b6040516001600160a01b0390911681526020015b60405180910390f35b34801561023457600080fd5b5061025861024336600461140b565b60136020526000908152604090205460ff1681565b604051901515815260200161021f565b34801561027457600080fd5b506012546102589060ff1681565b34801561028e57600080fd5b5060195461020b906001600160a01b031681565b3480156102ae57600080fd5b506102eb6040518060400160405280601381526020017f48656c697832204c696e6b20536572766963650000000000000000000000000081525081565b60405161021f9190611493565b61030b6103063660046114c2565b61061a565b005b34801561031957600080fd5b5060185461020b906001600160a01b031681565b61030b61033b3660046114ec565b610743565b34801561034c57600080fd5b5061030b61035b366004611528565b610763565b34801561036c57600080fd5b5061020b61037b366004611554565b61084c565b34801561038c57600080fd5b506103a061039b36600461156d565b6108e6565b60405190815260200161021f565b3480156103ba57600080fd5b5061020b6103c9366004611554565b610974565b61030b610994565b3480156103e257600080fd5b50600d5461020b906001600160a01b031681565b34801561040257600080fd5b506102eb610411366004611554565b610a54565b34801561042257600080fd5b5061030b61043136600461156d565b610af4565b61030b61044436600461156d565b610bce565b34801561045557600080fd5b506103a0610464366004611554565b610cf4565b34801561047557600080fd5b5061020b610484366004611554565b6016602052600090815260409020546001600160a01b031681565b3480156104ab57600080fd5b506102eb6040518060400160405280600681526020017f48454c495832000000000000000000000000000000000000000000000000000081525081565b61030b6104f6366004611596565b610d0b565b34801561050757600080fd5b5061030b6105163660046115cd565b610d95565b34801561052757600080fd5b50601a5461020b906001600160a01b031681565b61030b610549366004611624565b610e32565b61030b61055c36600461171e565b610e44565b34801561056d57600080fd5b506103a061057c366004611554565b610f8b565b34801561058d57600080fd5b50601c5461020b906001600160a01b031681565b3480156105ad57600080fd5b506102586105bc36600461173c565b601760209081526000928352604080842090915290825290205460ff1681565b3480156105e857600080fd5b506000546001600160a01b031661020b565b34801561060657600080fd5b50601b5461020b906001600160a01b031681565b6000818152601460205260409020546001600160a01b03163314158061066d57506000818152601460209081526040808320546001600160a01b031683526017825280832033845290915290205460ff16155b156106d257600081815260146020526040908190205490517f431ef6160000000000000000000000000000000000000000000000000000000081523360048201526001600160a01b039091166024820152604481018290526064015b60405180910390fd5b60008181526016602052604080822080547fffffffffffffffffffffffff0000000000000000000000000000000000000000166001600160a01b0386169081179091559051839233917f8c5be1e5ebec7d5bd14f71427d1e84f3dd0314c0f7b2291e5b200ac8c7c3b9259190a45050565b61075e83838360405180602001604052806000815250610f9b565b505050565b6000546001600160a01b031633146107bc576000546040517f8ea458f60000000000000000000000000000000000000000000000000000000081526001600160a01b0390911660048201523360248201526044016106c9565b604080518381526001600160a01b03831660208201527fc5771d6049f79b265c3b7984f6e33f6e256608c6c2efcc0933d382ace7aad583910160405180910390a180600e836004811061081157610811611766565b0180547fffffffffffffffffffffffff0000000000000000000000000000000000000000166001600160a01b03929092169190911790555050565b6000818152601460205260408120546001600160a01b03166108ca576040517f08c379a000000000000000000000000000000000000000000000000000000000815260206004820152600f60248201527f494e56414c49445f544f4b454e4944000000000000000000000000000000000060448201526064016106c9565b506000908152601460205260409020546001600160a01b031690565b60006001600160a01b038216610958576040517f08c379a000000000000000000000000000000000000000000000000000000000815260206004820152600c60248201527f5a45524f5f41444452455353000000000000000000000000000000000000000060448201526064016106c9565b506001600160a01b031660009081526015602052604090205490565b600e816004811061098457600080fd5b01546001600160a01b0316905081565b600080546040516001600160a01b039091169047908381818185875af1925050503d80600081146109e1576040519150601f19603f3d011682016040523d82523d6000602084013e6109e6565b606091505b5050905080610a51576040517f08c379a000000000000000000000000000000000000000000000000000000000815260206004820152601360248201527f4554485f5452414e534645525f4641494c45440000000000000000000000000060448201526064016106c9565b50565b60018160048110610a6457600080fd5b018054909150610a7390611795565b80601f0160208091040260200160405190810160405280929190818152602001828054610a9f90611795565b8015610aec5780601f10610ac157610100808354040283529160200191610aec565b820191906000526020600020905b815481529060010190602001808311610acf57829003601f168201915b505050505081565b6000546001600160a01b03163314610b4d576000546040517f8ea458f60000000000000000000000000000000000000000000000000000000081526001600160a01b0390911660048201523360248201526044016106c9565b600054604080516001600160a01b03928316815291831660208301527fdec101f106d4fc7c85791843e64b198248c822298e3ed7046231d33f7783d816910160405180910390a1600080547fffffffffffffffffffffffff0000000000000000000000000000000000000000166001600160a01b0392909216919091179055565b6000546040517f70a0823100000000000000000000000000000000000000000000000000000000815230600482018190526001600160a01b03848116936323b872dd9391169084906370a0823190602401602060405180830381865afa158015610c3c573d6000803e3d6000fd5b505050506040513d601f19601f82011682018060405250810190610c6091906117e2565b6040517fffffffff0000000000000000000000000000000000000000000000000000000060e086901b1681526001600160a01b03938416600482015292909116602483015260448201526064016020604051808303816000875af1158015610ccc573d6000803e3d6000fd5b505050506040513d601f19601f82011682018060405250810190610cf091906117fb565b5050565b60098160048110610d0457600080fd5b0154905081565b3360008181526017602090815260408083206001600160a01b0387168085529083529281902080547fffffffffffffffffffffffffffffffffffffffffffffffffffffffffffffff001686151590811790915590519081529192917f17307eab39ab6107e8899845ad3d59bd9653f200f220920489ca2b5937696c31910160405180910390a35050565b6000546001600160a01b03163314610dee576000546040517f8ea458f60000000000000000000000000000000000000000000000000000000081526001600160a01b0390911660048201523360248201526044016106c9565b7fd013789329f052dd9fe222fe14f05f78a86626c1b4d25232099e6e271be374d581604051610e1d9190611818565b60405180910390a1610cf0600e82600461135a565b610e3e84848484610f9b565b50505050565b6000546001600160a01b03163314610e9d576000546040517f8ea458f60000000000000000000000000000000000000000000000000000000081526001600160a01b0390911660048201523360248201526044016106c9565b7fffffffff000000000000000000000000000000000000000000000000000000008083169003610f29576040517f08c379a000000000000000000000000000000000000000000000000000000000815260206004820152601a60248201527f494e56414c49445f494e544552464143455f53454c4543544f5200000000000060448201526064016106c9565b7fffffffff0000000000000000000000000000000000000000000000000000000091909116600090815260136020526040902080547fffffffffffffffffffffffffffffffffffffffffffffffffffffffffffffff0016911515919091179055565b60058160048110610d0457600080fd5b6001600160a01b038316610fdb576040517f5788079900000000000000000000000000000000000000000000000000000000815260040160405180910390fd5b6000828152601460205260409020546001600160a01b0385811691161461105957600082815260146020526040908190205490517f431ef6160000000000000000000000000000000000000000000000000000000081526001600160a01b0391821660048201529085166024820152604481018390526064016106c9565b6000828152601460205260409020546001600160a01b031633148015906110a457506001600160a01b038416600090815260176020908152604080832033845290915290205460ff16155b80156110c757506000828152601660205260409020546001600160a01b03163314155b15611116576040517f431ef6160000000000000000000000000000000000000000000000000000000081523360048201526001600160a01b0385166024820152604481018390526064016106c9565b600082815260166020908152604080832080547fffffffffffffffffffffffff00000000000000000000000000000000000000009081169091556014835281842080546001600160a01b03898116919093168117909155908816808552601590935281842080547fffffffffffffffffffffffffffffffffffffffffffffffffffffffffffffffff01905580845281842080546001019055905185939192917fddf252ad1be2c89b69c2b068fc378daa952ba7f163c4a11628f55a4df523b3ef91a46001600160a01b0383163b15610e3e576040517f150b7a020000000000000000000000000000000000000000000000000000000081526001600160a01b0384169063150b7a029061123390339088908790879060040161185a565b6020604051808303816000875af192505050801561128c575060408051601f3d9081017fffffffffffffffffffffffffffffffffffffffffffffffffffffffffffffffe016820190925261128991810190611896565b60015b6112cd576040517f3a9f8cb30000000000000000000000000000000000000000000000000000000081526001600160a01b03841660048201526024016106c9565b7fffffffff0000000000000000000000000000000000000000000000000000000081167f150b7a020000000000000000000000000000000000000000000000000000000014611353576040517f3a9f8cb30000000000000000000000000000000000000000000000000000000081526001600160a01b03851660048201526024016106c9565b5050505050565b82600481019282156113b8579160200282015b828111156113b85781547fffffffffffffffffffffffff0000000000000000000000000000000000000000166001600160a01b0384351617825560209092019160019091019061136d565b506113c49291506113c8565b5090565b5b808211156113c457600081556001016113c9565b7fffffffff0000000000000000000000000000000000000000000000000000000081168114610a5157600080fd5b60006020828403121561141d57600080fd5b8135611428816113dd565b9392505050565b6000815180845260005b8181101561145557602081850181015186830182015201611439565b5060006020828601015260207fffffffffffffffffffffffffffffffffffffffffffffffffffffffffffffffe0601f83011685010191505092915050565b602081526000611428602083018461142f565b80356001600160a01b03811681146114bd57600080fd5b919050565b600080604083850312156114d557600080fd5b6114de836114a6565b946020939093013593505050565b60008060006060848603121561150157600080fd5b61150a846114a6565b9250611518602085016114a6565b9150604084013590509250925092565b6000806040838503121561153b57600080fd5b8235915061154b602084016114a6565b90509250929050565b60006020828403121561156657600080fd5b5035919050565b60006020828403121561157f57600080fd5b611428826114a6565b8015158114610a5157600080fd5b600080604083850312156115a957600080fd5b6115b2836114a6565b915060208301356115c281611588565b809150509250929050565b6000608082840312156115df57600080fd5b826080830111156115ef57600080fd5b50919050565b7f4e487b7100000000000000000000000000000000000000000000000000000000600052604160045260246000fd5b6000806000806080858703121561163a57600080fd5b611643856114a6565b9350611651602086016114a6565b925060408501359150606085013567ffffffffffffffff8082111561167557600080fd5b818701915087601f83011261168957600080fd5b81358181111561169b5761169b6115f5565b604051601f82017fffffffffffffffffffffffffffffffffffffffffffffffffffffffffffffffe0908116603f011681019083821181831017156116e1576116e16115f5565b816040528281528a60208487010111156116fa57600080fd5b82602086016020830137600060208483010152809550505050505092959194509250565b6000806040838503121561173157600080fd5b82356115b2816113dd565b6000806040838503121561174f57600080fd5b611758836114a6565b915061154b602084016114a6565b7f4e487b7100000000000000000000000000000000000000000000000000000000600052603260045260246000fd5b600181811c908216806117a957607f821691505b6020821081036115ef577f4e487b7100000000000000000000000000000000000000000000000000000000600052602260045260246000fd5b6000602082840312156117f457600080fd5b5051919050565b60006020828403121561180d57600080fd5b815161142881611588565b60808101818360005b6004811015611851576001600160a01b0361183b836114a6565b1683526020928301929190910190600101611821565b50505092915050565b60006001600160a01b0380871683528086166020840152508360408301526080606083015261188c608083018461142f565b9695505050505050565b6000602082840312156118a857600080fd5b8151611428816113dd56fea2646970667358221220dc96351635a6db739fe9623110ce72a60ff7ba579cadff60ad15c51b92e3b6cf64736f6c63430008100033",
    "linkReferences": {}
  },
  "methodIdentifiers": {
    "BONDS()": "b4abea24",
    "Dev()": "01e51ae8",
    "ENS()": "1d2e2cc4",
    "MOLECULES()": "f12e6548",
    "NAMES()": "05e84aa0",
    "POLYCULES()": "d9ebda12",
    "_approved(uint256)": "9024d282",
    "active()": "02fb0c5e",
    "approve(address,uint256)": "095ea7b3",
    "balanceOf(address)": "70a08231",
    "changeDev(address)": "88a8c95c",
    "ensRegistry()": "7d73b231",
    "helix2Registry(uint256)": "70dec5f0",
    "illegalBlocks(uint256)": "80b29beb",
    "isApprovedForAll(address,address)": "e985e9c5",
    "isDev()": "f079914f",
    "name()": "06fdde03",
    "ownerOf(uint256)": "6352211e",
    "roothash(uint256)": "8dfcb1c7",
    "safeTransferFrom(address,address,uint256)": "42842e0e",
    "safeTransferFrom(address,address,uint256,bytes)": "b88d4fde",
    "setApprovalForAll(address,bool)": "a22cb465",
    "setInterface(bytes4,bool)": "c0a43a7c",
    "setRegistry(address[4])": "aa0d81e3",
    "setSubRegistry(uint256,address)": "3f952eb8",
    "sizes(uint256)": "d9a9b0c6",
    "supportsInterface(bytes4)": "01ffc9a7",
    "symbol()": "95d89b41",
    "transferFrom(address,address,uint256)": "23b872dd",
    "withdrawEther()": "7362377b",
    "withdrawToken(address)": "89476069"
  },
  "id": 18
}