{
  "abi": [
    {
      "inputs": [
        {
          "internalType": "address",
          "name": "_dev",
          "type": "address"
        },
        {
          "internalType": "address",
          "name": "_you",
          "type": "address"
        }
      ],
      "name": "OnlyDev",
      "type": "error"
    },
    {
      "anonymous": false,
      "inputs": [
        {
          "indexed": false,
          "internalType": "address",
          "name": "Dev",
          "type": "address"
        },
        {
          "indexed": false,
          "internalType": "address",
          "name": "newDev",
          "type": "address"
        }
      ],
      "name": "NewDev",
      "type": "event"
    },
    {
      "anonymous": false,
      "inputs": [
        {
          "indexed": false,
          "internalType": "address",
          "name": "newReg",
          "type": "address"
        }
      ],
      "name": "NewENSRegistry",
      "type": "event"
    },
    {
      "anonymous": false,
      "inputs": [
        {
          "indexed": false,
          "internalType": "uint256",
          "name": "index",
          "type": "uint256"
        },
        {
          "indexed": false,
          "internalType": "uint256",
          "name": "newLife",
          "type": "uint256"
        }
      ],
      "name": "NewLife",
      "type": "event"
    },
    {
      "anonymous": false,
      "inputs": [
        {
          "indexed": false,
          "internalType": "uint256[4]",
          "name": "newLives",
          "type": "uint256[4]"
        }
      ],
      "name": "NewLives",
      "type": "event"
    },
    {
      "anonymous": false,
      "inputs": [
        {
          "indexed": false,
          "internalType": "uint256",
          "name": "index",
          "type": "uint256"
        },
        {
          "indexed": false,
          "internalType": "uint256",
          "name": "newPrice",
          "type": "uint256"
        }
      ],
      "name": "NewPrice",
      "type": "event"
    },
    {
      "anonymous": false,
      "inputs": [
        {
          "indexed": false,
          "internalType": "uint256[4]",
          "name": "newPrices",
          "type": "uint256[4]"
        }
      ],
      "name": "NewPrices",
      "type": "event"
    },
    {
      "anonymous": false,
      "inputs": [
        {
          "indexed": false,
          "internalType": "address[4]",
          "name": "newReg",
          "type": "address[4]"
        }
      ],
      "name": "NewRegisteries",
      "type": "event"
    },
    {
      "anonymous": false,
      "inputs": [
        {
          "indexed": false,
          "internalType": "uint256",
          "name": "index",
          "type": "uint256"
        },
        {
          "indexed": false,
          "internalType": "address",
          "name": "newReg",
          "type": "address"
        }
      ],
      "name": "NewRegistrar",
      "type": "event"
    },
    {
      "anonymous": false,
      "inputs": [
        {
          "indexed": false,
          "internalType": "address[4]",
          "name": "newReg",
          "type": "address[4]"
        }
      ],
      "name": "NewRegistrars",
      "type": "event"
    },
    {
      "anonymous": false,
      "inputs": [
        {
          "indexed": false,
          "internalType": "uint256",
          "name": "index",
          "type": "uint256"
        },
        {
          "indexed": false,
          "internalType": "address",
          "name": "newReg",
          "type": "address"
        }
      ],
      "name": "NewRegistry",
      "type": "event"
    },
    {
      "stateMutability": "payable",
      "type": "fallback"
    },
    {
      "inputs": [],
      "name": "Dev",
      "outputs": [
        {
          "internalType": "address",
          "name": "",
          "type": "address"
        }
      ],
      "stateMutability": "view",
      "type": "function"
    },
    {
      "inputs": [],
      "name": "active",
      "outputs": [
        {
          "internalType": "bool",
          "name": "",
          "type": "bool"
        }
      ],
      "stateMutability": "view",
      "type": "function"
    },
    {
      "inputs": [
        {
          "internalType": "address",
          "name": "newDev",
          "type": "address"
        }
      ],
      "name": "changeDev",
      "outputs": [],
      "stateMutability": "nonpayable",
      "type": "function"
    },
    {
      "inputs": [],
      "name": "ensRegistry",
      "outputs": [
        {
          "internalType": "address",
          "name": "",
          "type": "address"
        }
      ],
      "stateMutability": "view",
      "type": "function"
    },
    {
      "inputs": [],
      "name": "getENSRegistry",
      "outputs": [
        {
          "internalType": "address",
          "name": "",
          "type": "address"
        }
      ],
      "stateMutability": "view",
      "type": "function"
    },
    {
      "inputs": [],
      "name": "getIllegalBlocks",
      "outputs": [
        {
          "internalType": "string[4]",
          "name": "",
          "type": "string[4]"
        }
      ],
      "stateMutability": "view",
      "type": "function"
    },
    {
      "inputs": [],
      "name": "getLifespans",
      "outputs": [
        {
          "internalType": "uint256[4]",
          "name": "",
          "type": "uint256[4]"
        }
      ],
      "stateMutability": "view",
      "type": "function"
    },
    {
      "inputs": [],
      "name": "getPrices",
      "outputs": [
        {
          "internalType": "uint256[4]",
          "name": "",
          "type": "uint256[4]"
        }
      ],
      "stateMutability": "view",
      "type": "function"
    },
    {
      "inputs": [],
      "name": "getRegistrar",
      "outputs": [
        {
          "internalType": "address[4]",
          "name": "",
          "type": "address[4]"
        }
      ],
      "stateMutability": "view",
      "type": "function"
    },
    {
      "inputs": [],
      "name": "getRegistry",
      "outputs": [
        {
          "internalType": "address[4]",
          "name": "",
          "type": "address[4]"
        }
      ],
      "stateMutability": "view",
      "type": "function"
    },
    {
      "inputs": [],
      "name": "getRoothash",
      "outputs": [
        {
          "internalType": "bytes32[4]",
          "name": "",
          "type": "bytes32[4]"
        }
      ],
      "stateMutability": "view",
      "type": "function"
    },
    {
      "inputs": [],
      "name": "getSizes",
      "outputs": [
        {
          "internalType": "uint256[4]",
          "name": "",
          "type": "uint256[4]"
        }
      ],
      "stateMutability": "view",
      "type": "function"
    },
    {
      "inputs": [
        {
          "internalType": "uint256",
          "name": "",
          "type": "uint256"
        }
      ],
      "name": "helix2Registrar",
      "outputs": [
        {
          "internalType": "address",
          "name": "",
          "type": "address"
        }
      ],
      "stateMutability": "view",
      "type": "function"
    },
    {
      "inputs": [
        {
          "internalType": "uint256",
          "name": "",
          "type": "uint256"
        }
      ],
      "name": "helix2Registry",
      "outputs": [
        {
          "internalType": "address",
          "name": "",
          "type": "address"
        }
      ],
      "stateMutability": "view",
      "type": "function"
    },
    {
      "inputs": [
        {
          "internalType": "uint256",
          "name": "",
          "type": "uint256"
        }
      ],
      "name": "illegalBlocks",
      "outputs": [
        {
          "internalType": "string",
          "name": "",
          "type": "string"
        }
      ],
      "stateMutability": "view",
      "type": "function"
    },
    {
      "inputs": [],
      "name": "isDev",
      "outputs": [
        {
          "internalType": "address",
          "name": "",
          "type": "address"
        }
      ],
      "stateMutability": "view",
      "type": "function"
    },
    {
      "inputs": [
        {
          "internalType": "uint256",
          "name": "",
          "type": "uint256"
        }
      ],
      "name": "lifespans",
      "outputs": [
        {
          "internalType": "uint256",
          "name": "",
          "type": "uint256"
        }
      ],
      "stateMutability": "view",
      "type": "function"
    },
    {
      "inputs": [],
      "name": "name",
      "outputs": [
        {
          "internalType": "string",
          "name": "",
          "type": "string"
        }
      ],
      "stateMutability": "view",
      "type": "function"
    },
    {
      "inputs": [
        {
          "internalType": "uint256",
          "name": "",
          "type": "uint256"
        }
      ],
      "name": "prices",
      "outputs": [
        {
          "internalType": "uint256",
          "name": "",
          "type": "uint256"
        }
      ],
      "stateMutability": "view",
      "type": "function"
    },
    {
      "inputs": [
        {
          "internalType": "uint256",
          "name": "",
          "type": "uint256"
        }
      ],
      "name": "roothash",
      "outputs": [
        {
          "internalType": "bytes32",
          "name": "",
          "type": "bytes32"
        }
      ],
      "stateMutability": "view",
      "type": "function"
    },
    {
      "inputs": [
        {
          "internalType": "address",
          "name": "newReg",
          "type": "address"
        }
      ],
      "name": "setENSRegistry",
      "outputs": [],
      "stateMutability": "nonpayable",
      "type": "function"
    },
    {
      "inputs": [
        {
          "internalType": "bytes4",
          "name": "sig",
          "type": "bytes4"
        },
        {
          "internalType": "bool",
          "name": "value",
          "type": "bool"
        }
      ],
      "name": "setInterface",
      "outputs": [],
      "stateMutability": "payable",
      "type": "function"
    },
    {
      "inputs": [
        {
          "internalType": "uint256",
          "name": "index",
          "type": "uint256"
        },
        {
          "internalType": "uint256",
          "name": "newLife",
          "type": "uint256"
        }
      ],
      "name": "setLife",
      "outputs": [],
      "stateMutability": "nonpayable",
      "type": "function"
    },
    {
      "inputs": [
        {
          "internalType": "uint256[4]",
          "name": "newLives",
          "type": "uint256[4]"
        }
      ],
      "name": "setLives",
      "outputs": [],
      "stateMutability": "nonpayable",
      "type": "function"
    },
    {
      "inputs": [
        {
          "internalType": "uint256",
          "name": "index",
          "type": "uint256"
        },
        {
          "internalType": "uint256",
          "name": "newPrice",
          "type": "uint256"
        }
      ],
      "name": "setPrice",
      "outputs": [],
      "stateMutability": "nonpayable",
      "type": "function"
    },
    {
      "inputs": [
        {
          "internalType": "uint256[4]",
          "name": "newPrices",
          "type": "uint256[4]"
        }
      ],
      "name": "setPrices",
      "outputs": [],
      "stateMutability": "nonpayable",
      "type": "function"
    },
    {
      "inputs": [
        {
          "internalType": "address[4]",
          "name": "newReg",
          "type": "address[4]"
        }
      ],
      "name": "setRegisteries",
      "outputs": [],
      "stateMutability": "nonpayable",
      "type": "function"
    },
    {
      "inputs": [
        {
          "internalType": "uint256",
          "name": "index",
          "type": "uint256"
        },
        {
          "internalType": "address",
          "name": "newReg",
          "type": "address"
        }
      ],
      "name": "setRegistrar",
      "outputs": [],
      "stateMutability": "nonpayable",
      "type": "function"
    },
    {
      "inputs": [
        {
          "internalType": "address[4]",
          "name": "newReg",
          "type": "address[4]"
        }
      ],
      "name": "setRegistrars",
      "outputs": [],
      "stateMutability": "nonpayable",
      "type": "function"
    },
    {
      "inputs": [
        {
          "internalType": "uint256",
          "name": "index",
          "type": "uint256"
        },
        {
          "internalType": "address",
          "name": "newReg",
          "type": "address"
        }
      ],
      "name": "setRegistry",
      "outputs": [],
      "stateMutability": "nonpayable",
      "type": "function"
    },
    {
      "inputs": [
        {
          "internalType": "uint256",
          "name": "",
          "type": "uint256"
        }
      ],
      "name": "sizes",
      "outputs": [
        {
          "internalType": "uint256",
          "name": "",
          "type": "uint256"
        }
      ],
      "stateMutability": "view",
      "type": "function"
    },
    {
      "inputs": [
        {
          "internalType": "bytes4",
          "name": "",
          "type": "bytes4"
        }
      ],
      "name": "supportsInterface",
      "outputs": [
        {
          "internalType": "bool",
          "name": "",
          "type": "bool"
        }
      ],
      "stateMutability": "view",
      "type": "function"
    },
    {
      "inputs": [],
      "name": "symbol",
      "outputs": [
        {
          "internalType": "string",
          "name": "",
          "type": "string"
        }
      ],
      "stateMutability": "view",
      "type": "function"
    },
    {
      "inputs": [],
      "name": "withdrawEther",
      "outputs": [],
      "stateMutability": "payable",
      "type": "function"
    },
    {
      "stateMutability": "payable",
      "type": "receive"
    }
  ],
  "bytecode": {
    "object": "0x6001610100818152601760f91b610120526080908152610140828152602d60f81b6101605260a052600061018081815260c0526101c06040526101a090815260e0526200004f91906004620002ad565b50604080516080810182526020808252808201819052918101829052606081019190915262000083906005906004620002fd565b50604080516080810182526001808252602082018190529181018290526060810191909152620000b8906009906004620002fd565b5060408051608081018252600060a082018190527f6f010af653ebe3cb07d297a4ef13366103d392ceffa68dd48232e6e9ff2187bf60c0808401919091528351808403909101815260e0830184528051602091820120835283518082018390527fd3b8281179950f98149eefdb158d0e1acb56f56e8e343aa9fefafa7e369595618186018190528551808303870181526060928301875280519084012083860152855180840185905280870182905286518082038801815290830187528051908401208587015285518084019490945283860152845180840386018152928101909452815191012091810191909152620001b790600d90600462000341565b50601180546001600160a01b0319166e0c2e074ec69a0dfb2997ba6c7d2e1e1790556040805160808101825260008082526020820181905291810182905260608101919091526200020d90601290600462000372565b506040805160808101825260008082526020820181905291810182905260608101919091526200024290601690600462000372565b506040805160808101825262030d408082526020820181905291810182905260608101919091526200027990601a906004620003bd565b50601e805460ff191660011790553480156200029457600080fd5b50600080546001600160a01b03191633179055620005e0565b8260048101928215620002eb579160200282015b82811115620002eb5782518290620002da908262000514565b5091602001919060010190620002c1565b50620002f9929150620003f5565b5090565b826004810192821562000333579160200282015b8281111562000333578251829060ff1690559160200191906001019062000311565b50620002f992915062000416565b826004810192821562000333579160200282015b828111156200033357825182559160200191906001019062000355565b826004810192821562000333579160200282015b828111156200033357825182546001600160a01b0319166001600160a01b0390911617825560209092019160019091019062000386565b826004810192821562000333579160200282015b8281111562000333578251829062ffffff16905591602001919060010190620003d1565b80821115620002f95760006200040c82826200042d565b50600101620003f5565b5b80821115620002f9576000815560010162000417565b5080546200043b9062000485565b6000825580601f106200044c575050565b601f0160209004906000526020600020908101906200046c919062000416565b50565b634e487b7160e01b600052604160045260246000fd5b600181811c908216806200049a57607f821691505b602082108103620004bb57634e487b7160e01b600052602260045260246000fd5b50919050565b601f8211156200050f57600081815260208120601f850160051c81016020861015620004ea5750805b601f850160051c820191505b818110156200050b57828155600101620004f6565b5050505b505050565b81516001600160401b038111156200053057620005306200046f565b620005488162000541845462000485565b84620004c1565b602080601f831160018114620005805760008415620005675750858301515b600019600386901b1c1916600185901b1785556200050b565b600085815260208120601f198616915b82811015620005b15788860151825594840194600190910190840162000590565b5085821015620005d05787850151600019600388901b60f8161c191681555b5050505050600190811b01905550565b61169e80620005f06000396000f3fe60806040526004361061021d5760003560e01c80637362377b1161011d578063c0a43a7c116100b0578063d9a9b0c61161007f578063f079914f11610064578063f079914f14610665578063f1715fdc14610683578063f7d97577146106a357600080fd5b8063d9a9b0c614610630578063ec2ace2a1461065057600080fd5b8063c0a43a7c146105bb578063c2d4cdfc146105ce578063ce721ac9146105f0578063ce786f571461061057600080fd5b80638dfcb1c7116100ec5780638dfcb1c71461050f57806395d89b411461053d578063bc31c1c114610586578063bd9a548b146105a657600080fd5b80637362377b146104a75780637d73b231146104af57806380b29beb146104cf57806388a8c95c146104ef57600080fd5b806333647fac116101b05780635ab1bd531161017f578063642a8ed611610164578063642a8ed61461045057806366a0edce1461047257806370dec5f01461048757600080fd5b80635ab1bd531461041b5780635c979fe41461043057600080fd5b806333647fac14610399578063479f6152146103b95780634d3f7334146103d9578063548346a1146103fb57600080fd5b806306fdde03116101ec57806306fdde03146102e5578063101de7a41461033b578063255978421461035b5780632f6807951461037b57600080fd5b8063011163ba1461022c57806301e51ae81461024e57806301ffc9a71461028b57806302fb0c5e146102cb57600080fd5b3661022757600080fd5b600080fd5b34801561023857600080fd5b5061024c6102473660046112fb565b6106c3565b005b34801561025a57600080fd5b5060005461026e906001600160a01b031681565b6040516001600160a01b0390911681526020015b60405180910390f35b34801561029757600080fd5b506102bb6102a6366004611352565b601f6020526000908152604090205460ff1681565b6040519015158152602001610282565b3480156102d757600080fd5b50601e546102bb9060ff1681565b3480156102f157600080fd5b5061032e6040518060400160405280601381526020017f48656c697832204c696e6b20536572766963650000000000000000000000000081525081565b60405161028291906113d8565b34801561034757600080fd5b5061024c610356366004611402565b61075b565b34801561036757600080fd5b5061024c610376366004611402565b6107e3565b34801561038757600080fd5b506011546001600160a01b031661026e565b3480156103a557600080fd5b5061024c6103b4366004611402565b610867565b3480156103c557600080fd5b5061024c6103d4366004611435565b6108eb565b3480156103e557600080fd5b506103ee6109a1565b6040516102829190611450565b34801561040757600080fd5b5061024c610416366004611402565b6109e6565b34801561042757600080fd5b506103ee610a6a565b34801561043c57600080fd5b5061024c61044b36600461148a565b610aa9565b34801561045c57600080fd5b50610465610b79565b60405161028291906114b6565b34801561047e57600080fd5b50610465610bb4565b34801561049357600080fd5b5061026e6104a23660046114de565b610bea565b61024c610c0a565b3480156104bb57600080fd5b5060115461026e906001600160a01b031681565b3480156104db57600080fd5b5061032e6104ea3660046114de565b610cca565b3480156104fb57600080fd5b5061024c61050a366004611435565b610d6a565b34801561051b57600080fd5b5061052f61052a3660046114de565b610e2b565b604051908152602001610282565b34801561054957600080fd5b5061032e6040518060400160405280600681526020017f48454c495832000000000000000000000000000000000000000000000000000081525081565b34801561059257600080fd5b5061052f6105a13660046114de565b610e42565b3480156105b257600080fd5b50610465610e52565b61024c6105c93660046114f7565b610e88565b3480156105da57600080fd5b506105e3610fb6565b6040516102829190611533565b3480156105fc57600080fd5b5061052f61060b3660046114de565b61107d565b34801561061c57600080fd5b5061024c61062b36600461148a565b61108d565b34801561063c57600080fd5b5061052f61064b3660046114de565b611122565b34801561065c57600080fd5b50610465611132565b34801561067157600080fd5b506000546001600160a01b031661026e565b34801561068f57600080fd5b5061026e61069e3660046114de565b611168565b3480156106af57600080fd5b5061024c6106be3660046112fb565b611178565b6000546001600160a01b03163314610708576000546040516347522c7b60e11b81526001600160a01b0390911660048201523360248201526044015b60405180910390fd5b60408051838152602081018390527f1e63d23105a4055118805831d2e9ddfdd1d0aa649288ea6af88bc3f1a839aa4d910160405180910390a180600983600481106107555761075561159e565b01555050565b6000546001600160a01b0316331461079b576000546040516347522c7b60e11b81526001600160a01b0390911660048201523360248201526044016106ff565b7fe41d51d5fb8e385c5a9fe5bb74bdc64ccba6244430eccc72759a7c8169b7e9d3816040516107ca91906115cd565b60405180910390a16107df6016826004611205565b5050565b6000546001600160a01b03163314610823576000546040516347522c7b60e11b81526001600160a01b0390911660048201523360248201526044016106ff565b7f791be3d751ae4a05964850f92fc1e74cd8f0c6ddcf6aef1001f583e5f1c950318160405161085291906115cd565b60405180910390a16107df6012826004611205565b6000546001600160a01b031633146108a7576000546040516347522c7b60e11b81526001600160a01b0390911660048201523360248201526044016106ff565b7f7fcd8173c4f7db37e3bb270284eaeae1d59547dd77434918796924c49055d91e816040516108d69190611606565b60405180910390a16107df6009826004611273565b6000546001600160a01b0316331461092b576000546040516347522c7b60e11b81526001600160a01b0390911660048201523360248201526044016106ff565b6040516001600160a01b03821681527f648122358341292aea1c223cd5bd9558c62e765ab13b1ae565d075e692d76b379060200160405180910390a1601180547fffffffffffffffffffffffff0000000000000000000000000000000000000000166001600160a01b0392909216919091179055565b6109a96112a1565b6040805160808101918290529060169060049082845b81546001600160a01b031681526001909101906020018083116109bf575050505050905090565b6000546001600160a01b03163314610a26576000546040516347522c7b60e11b81526001600160a01b0390911660048201523360248201526044016106ff565b7f6116f7116dde91a0e9e26d165df2ff4da2a8825e58929b222641cc28d2e44f0e81604051610a559190611606565b60405180910390a16107df601a826004611273565b610a726112a1565b604080516080810191829052601280546001600160a01b0316825290916004906013602085018083116109bf575050505050905090565b6000546001600160a01b03163314610ae9576000546040516347522c7b60e11b81526001600160a01b0390911660048201523360248201526044016106ff565b604080518381526001600160a01b03831660208201527f86999194e67d8c5fb1a642a451b86213ed4f5b67a6a36e9e4d5de8f053e58132910160405180910390a18060168360048110610b3e57610b3e61159e565b0180547fffffffffffffffffffffffff0000000000000000000000000000000000000000166001600160a01b03929092169190911790555050565b610b816112a1565b60408051608081019182905290600d9060049082845b815481526020019060010190808311610b97575050505050905090565b610bbc6112a1565b6040805160808101918290526005805482529091600490600660208501808311610b97575050505050905090565b60128160048110610bfa57600080fd5b01546001600160a01b0316905081565b600080546040516001600160a01b039091169047908381818185875af1925050503d8060008114610c57576040519150601f19603f3d011682016040523d82523d6000602084013e610c5c565b606091505b5050905080610cc7576040517f08c379a000000000000000000000000000000000000000000000000000000000815260206004820152601360248201527f4554485f5452414e534645525f4641494c45440000000000000000000000000060448201526064016106ff565b50565b60018160048110610cda57600080fd5b018054909150610ce990611615565b80601f0160208091040260200160405190810160405280929190818152602001828054610d1590611615565b8015610d625780601f10610d3757610100808354040283529160200191610d62565b820191906000526020600020905b815481529060010190602001808311610d4557829003601f168201915b505050505081565b6000546001600160a01b03163314610daa576000546040516347522c7b60e11b81526001600160a01b0390911660048201523360248201526044016106ff565b600054604080516001600160a01b03928316815291831660208301527fdec101f106d4fc7c85791843e64b198248c822298e3ed7046231d33f7783d816910160405180910390a1600080547fffffffffffffffffffffffff0000000000000000000000000000000000000000166001600160a01b0392909216919091179055565b600d8160048110610e3b57600080fd5b0154905081565b601a8160048110610e3b57600080fd5b610e5a6112a1565b604080516080810191829052601a805482529091600490601b60208501808311610b97575050505050905090565b6000546001600160a01b03163314610ec8576000546040516347522c7b60e11b81526001600160a01b0390911660048201523360248201526044016106ff565b7fffffffff000000000000000000000000000000000000000000000000000000008083169003610f54576040517f08c379a000000000000000000000000000000000000000000000000000000000815260206004820152601a60248201527f494e56414c49445f494e544552464143455f53454c4543544f5200000000000060448201526064016106ff565b7fffffffff00000000000000000000000000000000000000000000000000000000919091166000908152601f6020526040902080547fffffffffffffffffffffffffffffffffffffffffffffffffffffffffffffff0016911515919091179055565b610fbe6112bf565b6040805160808101909152600160046000835b82821015611074578382018054610fe790611615565b80601f016020809104026020016040519081016040528092919081815260200182805461101390611615565b80156110605780601f1061103557610100808354040283529160200191611060565b820191906000526020600020905b81548152906001019060200180831161104357829003601f168201915b505050505081526020019060010190610fd1565b50505050905090565b60098160048110610e3b57600080fd5b6000546001600160a01b031633146110cd576000546040516347522c7b60e11b81526001600160a01b0390911660048201523360248201526044016106ff565b604080518381526001600160a01b03831660208201527f896e591224bbe75aedb047b3fd74204bb99d55e4cffb4c059fc669ca7474eb25910160405180910390a18060128360048110610b3e57610b3e61159e565b60058160048110610e3b57600080fd5b61113a6112a1565b6040805160808101918290526009805482529091600490600a60208501808311610b97575050505050905090565b60168160048110610bfa57600080fd5b6000546001600160a01b031633146111b8576000546040516347522c7b60e11b81526001600160a01b0390911660048201523360248201526044016106ff565b60408051838152602081018390527fb9362b96e28efbb7a7e63bb4a97faf9924ec0394635feff8588a6ae2a5f784fe910160405180910390a180601a83600481106107555761075561159e565b8260048101928215611263579160200282015b828111156112635781547fffffffffffffffffffffffff0000000000000000000000000000000000000000166001600160a01b03843516178255602090920191600190910190611218565b5061126f9291506112e6565b5090565b8260048101928215611263579160200282015b82811115611263578235825591602001919060010190611286565b60405180608001604052806004906020820280368337509192915050565b60405180608001604052806004905b60608152602001906001900390816112ce5790505090565b5b8082111561126f57600081556001016112e7565b6000806040838503121561130e57600080fd5b50508035926020909101359150565b80357fffffffff000000000000000000000000000000000000000000000000000000008116811461134d57600080fd5b919050565b60006020828403121561136457600080fd5b61136d8261131d565b9392505050565b6000815180845260005b8181101561139a5760208185018101518683018201520161137e565b5060006020828601015260207fffffffffffffffffffffffffffffffffffffffffffffffffffffffffffffffe0601f83011685010191505092915050565b60208152600061136d6020830184611374565b80608081018310156113fc57600080fd5b92915050565b60006080828403121561141457600080fd5b61136d83836113eb565b80356001600160a01b038116811461134d57600080fd5b60006020828403121561144757600080fd5b61136d8261141e565b60808101818360005b60048110156114815781516001600160a01b0316835260209283019290910190600101611459565b50505092915050565b6000806040838503121561149d57600080fd5b823591506114ad6020840161141e565b90509250929050565b60808101818360005b60048110156114815781518352602092830192909101906001016114bf565b6000602082840312156114f057600080fd5b5035919050565b6000806040838503121561150a57600080fd5b6115138361131d565b91506020830135801515811461152857600080fd5b809150509250929050565b602080825260009060a0830183820185845b6004811015611592577fffffffffffffffffffffffffffffffffffffffffffffffffffffffffffffffe0878503018352611580848351611374565b93509184019190840190600101611545565b50919695505050505050565b7f4e487b7100000000000000000000000000000000000000000000000000000000600052603260045260246000fd5b60808101818360005b6004811015611481576001600160a01b036115f08361141e565b16835260209283019291909101906001016115d6565b60808181019083833792915050565b600181811c9082168061162957607f821691505b602082108103611662577f4e487b7100000000000000000000000000000000000000000000000000000000600052602260045260246000fd5b5091905056fea2646970667358221220a5738ff7dc96f20e395b1d49283efba3d915cbffe02934ab02e9fedd45cec5ec64736f6c63430008100033",
    "linkReferences": {}
  },
  "methodIdentifiers": {
    "Dev()": "01e51ae8",
    "active()": "02fb0c5e",
    "changeDev(address)": "88a8c95c",
    "ensRegistry()": "7d73b231",
    "getENSRegistry()": "2f680795",
    "getIllegalBlocks()": "c2d4cdfc",
    "getLifespans()": "ec2ace2a",
    "getPrices()": "bd9a548b",
    "getRegistrar()": "4d3f7334",
    "getRegistry()": "5ab1bd53",
    "getRoothash()": "642a8ed6",
    "getSizes()": "66a0edce",
    "helix2Registrar(uint256)": "f1715fdc",
    "helix2Registry(uint256)": "70dec5f0",
    "illegalBlocks(uint256)": "80b29beb",
    "isDev()": "f079914f",
    "lifespans(uint256)": "ce721ac9",
    "name()": "06fdde03",
    "prices(uint256)": "bc31c1c1",
    "roothash(uint256)": "8dfcb1c7",
    "setENSRegistry(address)": "479f6152",
    "setInterface(bytes4,bool)": "c0a43a7c",
    "setLife(uint256,uint256)": "011163ba",
    "setLives(uint256[4])": "33647fac",
    "setPrice(uint256,uint256)": "f7d97577",
    "setPrices(uint256[4])": "548346a1",
    "setRegisteries(address[4])": "25597842",
    "setRegistrar(uint256,address)": "5c979fe4",
    "setRegistrars(address[4])": "101de7a4",
    "setRegistry(uint256,address)": "ce786f57",
    "sizes(uint256)": "d9a9b0c6",
    "supportsInterface(bytes4)": "01ffc9a7",
    "symbol()": "95d89b41",
    "withdrawEther()": "7362377b"
  },
  "id": 22
}