{
  "abi": [
    {
      "inputs": [],
      "name": "CannotBurn",
      "type": "error"
    },
    {
      "inputs": [
        {
          "internalType": "address",
          "name": "to",
          "type": "address"
        }
      ],
      "name": "ERC721IncompatibleReceiver",
      "type": "error"
    },
    {
      "inputs": [
        {
          "internalType": "address",
          "name": "_dev",
          "type": "address"
        },
        {
          "internalType": "address",
          "name": "_you",
          "type": "address"
        }
      ],
      "name": "OnlyDev",
      "type": "error"
    },
    {
      "inputs": [
        {
          "internalType": "address",
          "name": "operator",
          "type": "address"
        },
        {
          "internalType": "address",
          "name": "owner",
          "type": "address"
        },
        {
          "internalType": "uint256",
          "name": "tokenID",
          "type": "uint256"
        }
      ],
      "name": "Unauthorized",
      "type": "error"
    },
    {
      "anonymous": false,
      "inputs": [
        {
          "indexed": true,
          "internalType": "address",
          "name": "owner",
          "type": "address"
        },
        {
          "indexed": true,
          "internalType": "address",
          "name": "spender",
          "type": "address"
        },
        {
          "indexed": true,
          "internalType": "uint256",
          "name": "tokenID",
          "type": "uint256"
        }
      ],
      "name": "Approval",
      "type": "event"
    },
    {
      "anonymous": false,
      "inputs": [
        {
          "indexed": true,
          "internalType": "address",
          "name": "owner",
          "type": "address"
        },
        {
          "indexed": true,
          "internalType": "address",
          "name": "operator",
          "type": "address"
        },
        {
          "indexed": false,
          "internalType": "bool",
          "name": "approved",
          "type": "bool"
        }
      ],
      "name": "ApprovalForAll",
      "type": "event"
    },
    {
      "anonymous": false,
      "inputs": [
        {
          "indexed": false,
          "internalType": "address",
          "name": "Dev",
          "type": "address"
        },
        {
          "indexed": false,
          "internalType": "address",
          "name": "newDev",
          "type": "address"
        }
      ],
      "name": "NewDev",
      "type": "event"
    },
    {
      "anonymous": false,
      "inputs": [
        {
          "indexed": false,
          "internalType": "uint256[4]",
          "name": "newPrices",
          "type": "uint256[4]"
        }
      ],
      "name": "NewPrices",
      "type": "event"
    },
    {
      "anonymous": false,
      "inputs": [
        {
          "indexed": false,
          "internalType": "address[4]",
          "name": "newReg",
          "type": "address[4]"
        }
      ],
      "name": "NewRegistry",
      "type": "event"
    },
    {
      "anonymous": false,
      "inputs": [
        {
          "indexed": false,
          "internalType": "uint256",
          "name": "index",
          "type": "uint256"
        },
        {
          "indexed": false,
          "internalType": "uint256",
          "name": "newPrice",
          "type": "uint256"
        }
      ],
      "name": "NewSubPrice",
      "type": "event"
    },
    {
      "anonymous": false,
      "inputs": [
        {
          "indexed": false,
          "internalType": "uint256",
          "name": "index",
          "type": "uint256"
        },
        {
          "indexed": false,
          "internalType": "address",
          "name": "newReg",
          "type": "address"
        }
      ],
      "name": "NewSubRegistry",
      "type": "event"
    },
    {
      "anonymous": false,
      "inputs": [
        {
          "indexed": true,
          "internalType": "address",
          "name": "from",
          "type": "address"
        },
        {
          "indexed": true,
          "internalType": "address",
          "name": "to",
          "type": "address"
        },
        {
          "indexed": true,
          "internalType": "uint256",
          "name": "tokenID",
          "type": "uint256"
        }
      ],
      "name": "Transfer",
      "type": "event"
    },
    {
      "stateMutability": "payable",
      "type": "fallback"
    },
    {
      "inputs": [],
      "name": "BONDS",
      "outputs": [
        {
          "internalType": "contract iBOND",
          "name": "",
          "type": "address"
        }
      ],
      "stateMutability": "view",
      "type": "function"
    },
    {
      "inputs": [],
      "name": "Dev",
      "outputs": [
        {
          "internalType": "address",
          "name": "",
          "type": "address"
        }
      ],
      "stateMutability": "view",
      "type": "function"
    },
    {
      "inputs": [],
      "name": "ENS",
      "outputs": [
        {
          "internalType": "contract iENS",
          "name": "",
          "type": "address"
        }
      ],
      "stateMutability": "view",
      "type": "function"
    },
    {
      "inputs": [],
      "name": "MOLECULES",
      "outputs": [
        {
          "internalType": "contract iMOLECULE",
          "name": "",
          "type": "address"
        }
      ],
      "stateMutability": "view",
      "type": "function"
    },
    {
      "inputs": [],
      "name": "NAMES",
      "outputs": [
        {
          "internalType": "contract iNAME",
          "name": "",
          "type": "address"
        }
      ],
      "stateMutability": "view",
      "type": "function"
    },
    {
      "inputs": [],
      "name": "POLYCULES",
      "outputs": [
        {
          "internalType": "contract iPOLYCULE",
          "name": "",
          "type": "address"
        }
      ],
      "stateMutability": "view",
      "type": "function"
    },
    {
      "inputs": [
        {
          "internalType": "uint256",
          "name": "",
          "type": "uint256"
        }
      ],
      "name": "_approved",
      "outputs": [
        {
          "internalType": "address",
          "name": "",
          "type": "address"
        }
      ],
      "stateMutability": "view",
      "type": "function"
    },
    {
      "inputs": [],
      "name": "active",
      "outputs": [
        {
          "internalType": "bool",
          "name": "",
          "type": "bool"
        }
      ],
      "stateMutability": "view",
      "type": "function"
    },
    {
      "inputs": [
        {
          "internalType": "address",
          "name": "controller",
          "type": "address"
        },
        {
          "internalType": "uint256",
          "name": "tokenID",
          "type": "uint256"
        }
      ],
      "name": "approve",
      "outputs": [],
      "stateMutability": "payable",
      "type": "function"
    },
    {
      "inputs": [
        {
          "internalType": "address",
          "name": "wallet",
          "type": "address"
        }
      ],
      "name": "balanceOf",
      "outputs": [
        {
          "internalType": "uint256",
          "name": "",
          "type": "uint256"
        }
      ],
      "stateMutability": "view",
      "type": "function"
    },
    {
      "inputs": [
        {
          "internalType": "address",
          "name": "newDev",
          "type": "address"
        }
      ],
      "name": "changeDev",
      "outputs": [],
      "stateMutability": "nonpayable",
      "type": "function"
    },
    {
      "inputs": [],
      "name": "ensRegistry",
      "outputs": [
        {
          "internalType": "address",
          "name": "",
          "type": "address"
        }
      ],
      "stateMutability": "view",
      "type": "function"
    },
    {
      "inputs": [],
      "name": "getPrices",
      "outputs": [
        {
          "internalType": "uint256[4]",
          "name": "",
          "type": "uint256[4]"
        }
      ],
      "stateMutability": "view",
      "type": "function"
    },
    {
      "inputs": [],
      "name": "getRegistry",
      "outputs": [
        {
          "internalType": "address[4]",
          "name": "",
          "type": "address[4]"
        }
      ],
      "stateMutability": "view",
      "type": "function"
    },
    {
      "inputs": [],
      "name": "getRoothash",
      "outputs": [
        {
          "internalType": "bytes32[4]",
          "name": "",
          "type": "bytes32[4]"
        }
      ],
      "stateMutability": "view",
      "type": "function"
    },
    {
      "inputs": [
        {
          "internalType": "uint256",
          "name": "",
          "type": "uint256"
        }
      ],
      "name": "helix2Registry",
      "outputs": [
        {
          "internalType": "address",
          "name": "",
          "type": "address"
        }
      ],
      "stateMutability": "view",
      "type": "function"
    },
    {
      "inputs": [
        {
          "internalType": "uint256",
          "name": "",
          "type": "uint256"
        }
      ],
      "name": "illegalBlocks",
      "outputs": [
        {
          "internalType": "string",
          "name": "",
          "type": "string"
        }
      ],
      "stateMutability": "view",
      "type": "function"
    },
    {
      "inputs": [
        {
          "internalType": "address",
          "name": "",
          "type": "address"
        },
        {
          "internalType": "address",
          "name": "",
          "type": "address"
        }
      ],
      "name": "isApprovedForAll",
      "outputs": [
        {
          "internalType": "bool",
          "name": "",
          "type": "bool"
        }
      ],
      "stateMutability": "view",
      "type": "function"
    },
    {
      "inputs": [],
      "name": "isDev",
      "outputs": [
        {
          "internalType": "address",
          "name": "",
          "type": "address"
        }
      ],
      "stateMutability": "view",
      "type": "function"
    },
    {
      "inputs": [],
      "name": "name",
      "outputs": [
        {
          "internalType": "string",
          "name": "",
          "type": "string"
        }
      ],
      "stateMutability": "view",
      "type": "function"
    },
    {
      "inputs": [
        {
          "internalType": "uint256",
          "name": "tokenID",
          "type": "uint256"
        }
      ],
      "name": "ownerOf",
      "outputs": [
        {
          "internalType": "address",
          "name": "",
          "type": "address"
        }
      ],
      "stateMutability": "view",
      "type": "function"
    },
    {
      "inputs": [
        {
          "internalType": "uint256",
          "name": "",
          "type": "uint256"
        }
      ],
      "name": "prices",
      "outputs": [
        {
          "internalType": "uint256",
          "name": "",
          "type": "uint256"
        }
      ],
      "stateMutability": "view",
      "type": "function"
    },
    {
      "inputs": [
        {
          "internalType": "uint256",
          "name": "",
          "type": "uint256"
        }
      ],
      "name": "roothash",
      "outputs": [
        {
          "internalType": "bytes32",
          "name": "",
          "type": "bytes32"
        }
      ],
      "stateMutability": "view",
      "type": "function"
    },
    {
      "inputs": [
        {
          "internalType": "address",
          "name": "from",
          "type": "address"
        },
        {
          "internalType": "address",
          "name": "to",
          "type": "address"
        },
        {
          "internalType": "uint256",
          "name": "tokenID",
          "type": "uint256"
        }
      ],
      "name": "safeTransferFrom",
      "outputs": [],
      "stateMutability": "payable",
      "type": "function"
    },
    {
      "inputs": [
        {
          "internalType": "address",
          "name": "from",
          "type": "address"
        },
        {
          "internalType": "address",
          "name": "to",
          "type": "address"
        },
        {
          "internalType": "uint256",
          "name": "tokenID",
          "type": "uint256"
        },
        {
          "internalType": "bytes",
          "name": "data",
          "type": "bytes"
        }
      ],
      "name": "safeTransferFrom",
      "outputs": [],
      "stateMutability": "payable",
      "type": "function"
    },
    {
      "inputs": [
        {
          "internalType": "address",
          "name": "controller",
          "type": "address"
        },
        {
          "internalType": "bool",
          "name": "flag",
          "type": "bool"
        }
      ],
      "name": "setApprovalForAll",
      "outputs": [],
      "stateMutability": "payable",
      "type": "function"
    },
    {
      "inputs": [
        {
          "internalType": "bytes4",
          "name": "sig",
          "type": "bytes4"
        },
        {
          "internalType": "bool",
          "name": "value",
          "type": "bool"
        }
      ],
      "name": "setInterface",
      "outputs": [],
      "stateMutability": "payable",
      "type": "function"
    },
    {
      "inputs": [
        {
          "internalType": "uint256[4]",
          "name": "newPrices",
          "type": "uint256[4]"
        }
      ],
      "name": "setPrices",
      "outputs": [],
      "stateMutability": "nonpayable",
      "type": "function"
    },
    {
      "inputs": [
        {
          "internalType": "address[4]",
          "name": "newReg",
          "type": "address[4]"
        }
      ],
      "name": "setRegistry",
      "outputs": [],
      "stateMutability": "nonpayable",
      "type": "function"
    },
    {
      "inputs": [
        {
          "internalType": "uint256",
          "name": "index",
          "type": "uint256"
        },
        {
          "internalType": "uint256",
          "name": "newPrice",
          "type": "uint256"
        }
      ],
      "name": "setSubPrice",
      "outputs": [],
      "stateMutability": "nonpayable",
      "type": "function"
    },
    {
      "inputs": [
        {
          "internalType": "uint256",
          "name": "index",
          "type": "uint256"
        },
        {
          "internalType": "address",
          "name": "newReg",
          "type": "address"
        }
      ],
      "name": "setSubRegistry",
      "outputs": [],
      "stateMutability": "nonpayable",
      "type": "function"
    },
    {
      "inputs": [
        {
          "internalType": "uint256",
          "name": "",
          "type": "uint256"
        }
      ],
      "name": "sizes",
      "outputs": [
        {
          "internalType": "uint256",
          "name": "",
          "type": "uint256"
        }
      ],
      "stateMutability": "view",
      "type": "function"
    },
    {
      "inputs": [
        {
          "internalType": "bytes4",
          "name": "",
          "type": "bytes4"
        }
      ],
      "name": "supportsInterface",
      "outputs": [
        {
          "internalType": "bool",
          "name": "",
          "type": "bool"
        }
      ],
      "stateMutability": "view",
      "type": "function"
    },
    {
      "inputs": [],
      "name": "symbol",
      "outputs": [
        {
          "internalType": "string",
          "name": "",
          "type": "string"
        }
      ],
      "stateMutability": "view",
      "type": "function"
    },
    {
      "inputs": [
        {
          "internalType": "address",
          "name": "from",
          "type": "address"
        },
        {
          "internalType": "address",
          "name": "to",
          "type": "address"
        },
        {
          "internalType": "uint256",
          "name": "tokenID",
          "type": "uint256"
        }
      ],
      "name": "transferFrom",
      "outputs": [],
      "stateMutability": "payable",
      "type": "function"
    },
    {
      "inputs": [],
      "name": "withdrawEther",
      "outputs": [],
      "stateMutability": "payable",
      "type": "function"
    },
    {
      "inputs": [
        {
          "internalType": "address",
          "name": "token",
          "type": "address"
        }
      ],
      "name": "withdrawToken",
      "outputs": [],
      "stateMutability": "payable",
      "type": "function"
    },
    {
      "stateMutability": "payable",
      "type": "receive"
    }
  ],
  "bytecode": {
    "object": "0x6001610100818152601760f91b610120526080908152610140828152603f60f81b6101605260a052610180828152602160f81b6101a05260c0526102006040526101c0828152602360f81b6101e05260e0526200005f919060046200038f565b50604080516080810182526020808252808201819052918101829052606081019190915262000093906005906004620003df565b5060408051608081018252600060a082018190527f6f010af653ebe3cb07d297a4ef13366103d392ceffa68dd48232e6e9ff2187bf60c0808401919091528351808403909101815260e0830184528051602091820120835283518082018390527f5f179612d7132c8ed24ba0e286d60d398c4aa1c234eb2274ca1bba47718e9d3181860152845180820386018152606091820186528051908301208285015284518083018490527f3275a893b2c93461554cf2a4dd7f413d56decdd6f3fdf0589dbb8bc4fd742386818701528551808203870181529082018652805190830120848601528451808301939093527face738c68088218d015fbdce138f062893d86818ac98932f7ce2907c5976fbde83860152845180840386018152928101909452815191012091810191909152620001d090600990600462000423565b50600d80546001600160a01b0319166e0c2e074ec69a0dfb2997ba6c7d2e1e1790556040805160808101825260018152600260208201526003918101919091526004606082018190526200022791600e9162000454565b506040805160808101825262030d408082526020820181905291810182905260608101919091526200025e9060129060046200049f565b506016805460ff19166001179055600d54601c80546001600160a01b03199081166001600160a01b0393841617909155600e54601d80548316918416919091179055600f54601e80548316918416919091179055601054601f80548316918416919091179055601154602080549092169216919091179055348015620002e357600080fd5b50600080546001600160a01b0319163317815560176020527f4152fdd4960944ad2843ab0640e4bafb0ddf2caf06de54df701cf7a17df044aa805460ff1990811660019081179092557f6779f08d87897b1938d8ae1ed3d650e2616775c110ff5d98b7f82c079d97c7788054821683179055635b5e139f60e01b9092527f244a57cf9422b23a74eac7556da7a02b4681eb0e2f9c3613963f0b44ad4388608054909216179055620006c2565b8260048101928215620003cd579160200282015b82811115620003cd5782518290620003bc9082620005f6565b5091602001919060010190620003a3565b50620003db929150620004d7565b5090565b826004810192821562000415579160200282015b8281111562000415578251829060ff16905591602001919060010190620003f3565b50620003db929150620004f8565b826004810192821562000415579160200282015b828111156200041557825182559160200191906001019062000437565b826004810192821562000415579160200282015b828111156200041557825182546001600160a01b0319166001600160a01b0390911617825560209092019160019091019062000468565b826004810192821562000415579160200282015b8281111562000415578251829062ffffff16905591602001919060010190620004b3565b80821115620003db576000620004ee82826200050f565b50600101620004d7565b5b80821115620003db5760008155600101620004f9565b5080546200051d9062000567565b6000825580601f106200052e575050565b601f0160209004906000526020600020908101906200054e9190620004f8565b50565b634e487b7160e01b600052604160045260246000fd5b600181811c908216806200057c57607f821691505b6020821081036200059d57634e487b7160e01b600052602260045260246000fd5b50919050565b601f821115620005f157600081815260208120601f850160051c81016020861015620005cc5750805b601f850160051c820191505b81811015620005ed57828155600101620005d8565b5050505b505050565b81516001600160401b0381111562000612576200061262000551565b6200062a8162000623845462000567565b84620005a3565b602080601f831160018114620006625760008415620006495750858301515b600019600386901b1c1916600185901b178555620005ed565b600085815260208120601f198616915b82811015620006935788860151825594840194600190910190840162000672565b5085821015620006b25787850151600019600388901b60f8161c191681555b5050505050600190811b01905550565b611d2a80620006d26000396000f3fe60806040526004361061026e5760003560e01c80637d73b23111610153578063b4abea24116100cb578063d9a9b0c61161007f578063e985e9c511610064578063e985e9c5146106ec578063f079914f14610727578063f12e65481461074557600080fd5b8063d9a9b0c6146106ac578063d9ebda12146106cc57600080fd5b8063bc31c1c1116100b0578063bc31c1c114610664578063bd9a548b14610684578063c0a43a7c1461069957600080fd5b8063b4abea2414610631578063b88d4fde1461065157600080fd5b80638dfcb1c71161012257806395d89b411161010757806395d89b41146105b5578063a22cb465146105fe578063aa0d81e31461061157600080fd5b80638dfcb1c71461055f5780639024d2821461057f57600080fd5b80637d73b231146104ec57806380b29beb1461050c57806388a8c95c1461052c578063894760691461054c57600080fd5b80633f952eb8116101e65780636352211e116101b557806370a082311161019a57806370a082311461049657806370dec5f0146104c45780637362377b146104e457600080fd5b80636352211e14610454578063642a8ed61461047457600080fd5b80633f952eb8146103f257806342842e0e146103bf578063548346a1146104125780635ab1bd531461043257600080fd5b806306fdde031161023d5780631d2e2cc4116102225780631d2e2cc41461039f57806323b872dd146103bf57806338b592b7146103d257600080fd5b806306fdde0314610334578063095ea7b31461038a57600080fd5b806301e51ae81461027d57806301ffc9a7146102ba57806302fb0c5e146102fa57806305e84aa01461031457600080fd5b3661027857600080fd5b600080fd5b34801561028957600080fd5b5060005461029d906001600160a01b031681565b6040516001600160a01b0390911681526020015b60405180910390f35b3480156102c657600080fd5b506102ea6102d53660046117b1565b60176020526000908152604090205460ff1681565b60405190151581526020016102b1565b34801561030657600080fd5b506016546102ea9060ff1681565b34801561032057600080fd5b50601d5461029d906001600160a01b031681565b34801561034057600080fd5b5061037d6040518060400160405280601381526020017f48656c697832204c696e6b20536572766963650000000000000000000000000081525081565b6040516102b19190611839565b61039d610398366004611868565b610765565b005b3480156103ab57600080fd5b50601c5461029d906001600160a01b031681565b61039d6103cd366004611892565b61088e565b3480156103de57600080fd5b5061039d6103ed3660046118ce565b6108ae565b3480156103fe57600080fd5b5061039d61040d3660046118f0565b61095a565b34801561041e57600080fd5b5061039d61042d366004611933565b610a43565b34801561043e57600080fd5b50610447610ae4565b6040516102b1919061194f565b34801561046057600080fd5b5061029d61046f366004611989565b610b29565b34801561048057600080fd5b50610489610bc3565b6040516102b191906119a2565b3480156104a257600080fd5b506104b66104b13660046119ca565b610bfe565b6040519081526020016102b1565b3480156104d057600080fd5b5061029d6104df366004611989565b610c8c565b61039d610cac565b3480156104f857600080fd5b50600d5461029d906001600160a01b031681565b34801561051857600080fd5b5061037d610527366004611989565b610d6c565b34801561053857600080fd5b5061039d6105473660046119ca565b610e0c565b61039d61055a3660046119ca565b610ee6565b34801561056b57600080fd5b506104b661057a366004611989565b611008565b34801561058b57600080fd5b5061029d61059a366004611989565b601a602052600090815260409020546001600160a01b031681565b3480156105c157600080fd5b5061037d6040518060400160405280600681526020017f48454c495832000000000000000000000000000000000000000000000000000081525081565b61039d61060c3660046119f3565b61101f565b34801561061d57600080fd5b5061039d61062c366004611933565b6110a9565b34801561063d57600080fd5b50601e5461029d906001600160a01b031681565b61039d61065f366004611a59565b611146565b34801561067057600080fd5b506104b661067f366004611989565b611158565b34801561069057600080fd5b50610489611168565b61039d6106a7366004611b53565b61119e565b3480156106b857600080fd5b506104b66106c7366004611989565b6112e5565b3480156106d857600080fd5b5060205461029d906001600160a01b031681565b3480156106f857600080fd5b506102ea610707366004611b71565b601b60209081526000928352604080842090915290825290205460ff1681565b34801561073357600080fd5b506000546001600160a01b031661029d565b34801561075157600080fd5b50601f5461029d906001600160a01b031681565b6000818152601860205260409020546001600160a01b0316331415806107b857506000818152601860209081526040808320546001600160a01b03168352601b825280832033845290915290205460ff16155b1561081d57600081815260186020526040908190205490517f431ef6160000000000000000000000000000000000000000000000000000000081523360048201526001600160a01b039091166024820152604481018290526064015b60405180910390fd5b6000818152601a602052604080822080547fffffffffffffffffffffffff0000000000000000000000000000000000000000166001600160a01b0386169081179091559051839233917f8c5be1e5ebec7d5bd14f71427d1e84f3dd0314c0f7b2291e5b200ac8c7c3b9259190a45050565b6108a9838383604051806020016040528060008152506112f5565b505050565b6000546001600160a01b03163314610907576000546040517f8ea458f60000000000000000000000000000000000000000000000000000000081526001600160a01b039091166004820152336024820152604401610814565b60408051838152602081018390527f2141db3a0ee8143eb00b024f4c225b1ca6505b02ad34a125f15a9673bd06d527910160405180910390a1806012836004811061095457610954611b9b565b01555050565b6000546001600160a01b031633146109b3576000546040517f8ea458f60000000000000000000000000000000000000000000000000000000081526001600160a01b039091166004820152336024820152604401610814565b604080518381526001600160a01b03831660208201527fc5771d6049f79b265c3b7984f6e33f6e256608c6c2efcc0933d382ace7aad583910160405180910390a180600e8360048110610a0857610a08611b9b565b0180547fffffffffffffffffffffffff0000000000000000000000000000000000000000166001600160a01b03929092169190911790555050565b6000546001600160a01b03163314610a9c576000546040517f8ea458f60000000000000000000000000000000000000000000000000000000081526001600160a01b039091166004820152336024820152604401610814565b7f6116f7116dde91a0e9e26d165df2ff4da2a8825e58929b222641cc28d2e44f0e81604051610acb9190611bca565b60405180910390a1610ae060128260046116b4565b5050565b610aec6116f2565b60408051608081019182905290600e9060049082845b81546001600160a01b03168152600190910190602001808311610b02575050505050905090565b6000818152601860205260408120546001600160a01b0316610ba7576040517f08c379a000000000000000000000000000000000000000000000000000000000815260206004820152600f60248201527f494e56414c49445f544f4b454e494400000000000000000000000000000000006044820152606401610814565b506000908152601860205260409020546001600160a01b031690565b610bcb6116f2565b6040805160808101918290529060099060049082845b815481526020019060010190808311610be1575050505050905090565b60006001600160a01b038216610c70576040517f08c379a000000000000000000000000000000000000000000000000000000000815260206004820152600c60248201527f5a45524f5f4144445245535300000000000000000000000000000000000000006044820152606401610814565b506001600160a01b031660009081526019602052604090205490565b600e8160048110610c9c57600080fd5b01546001600160a01b0316905081565b600080546040516001600160a01b039091169047908381818185875af1925050503d8060008114610cf9576040519150601f19603f3d011682016040523d82523d6000602084013e610cfe565b606091505b5050905080610d69576040517f08c379a000000000000000000000000000000000000000000000000000000000815260206004820152601360248201527f4554485f5452414e534645525f4641494c4544000000000000000000000000006044820152606401610814565b50565b60018160048110610d7c57600080fd5b018054909150610d8b90611bd9565b80601f0160208091040260200160405190810160405280929190818152602001828054610db790611bd9565b8015610e045780601f10610dd957610100808354040283529160200191610e04565b820191906000526020600020905b815481529060010190602001808311610de757829003601f168201915b505050505081565b6000546001600160a01b03163314610e65576000546040517f8ea458f60000000000000000000000000000000000000000000000000000000081526001600160a01b039091166004820152336024820152604401610814565b600054604080516001600160a01b03928316815291831660208301527fdec101f106d4fc7c85791843e64b198248c822298e3ed7046231d33f7783d816910160405180910390a1600080547fffffffffffffffffffffffff0000000000000000000000000000000000000000166001600160a01b0392909216919091179055565b6000546040517f70a0823100000000000000000000000000000000000000000000000000000000815230600482018190526001600160a01b03848116936323b872dd9391169084906370a0823190602401602060405180830381865afa158015610f54573d6000803e3d6000fd5b505050506040513d601f19601f82011682018060405250810190610f789190611c2c565b6040517fffffffff0000000000000000000000000000000000000000000000000000000060e086901b1681526001600160a01b03938416600482015292909116602483015260448201526064016020604051808303816000875af1158015610fe4573d6000803e3d6000fd5b505050506040513d601f19601f82011682018060405250810190610ae09190611c45565b6009816004811061101857600080fd5b0154905081565b336000818152601b602090815260408083206001600160a01b0387168085529083529281902080547fffffffffffffffffffffffffffffffffffffffffffffffffffffffffffffff001686151590811790915590519081529192917f17307eab39ab6107e8899845ad3d59bd9653f200f220920489ca2b5937696c31910160405180910390a35050565b6000546001600160a01b03163314611102576000546040517f8ea458f60000000000000000000000000000000000000000000000000000000081526001600160a01b039091166004820152336024820152604401610814565b7fd013789329f052dd9fe222fe14f05f78a86626c1b4d25232099e6e271be374d5816040516111319190611c62565b60405180910390a1610ae0600e826004611710565b611152848484846112f5565b50505050565b6012816004811061101857600080fd5b6111706116f2565b6040805160808101918290526012805482529091600490601360208501808311610be1575050505050905090565b6000546001600160a01b031633146111f7576000546040517f8ea458f60000000000000000000000000000000000000000000000000000000081526001600160a01b039091166004820152336024820152604401610814565b7fffffffff000000000000000000000000000000000000000000000000000000008083169003611283576040517f08c379a000000000000000000000000000000000000000000000000000000000815260206004820152601a60248201527f494e56414c49445f494e544552464143455f53454c4543544f520000000000006044820152606401610814565b7fffffffff0000000000000000000000000000000000000000000000000000000091909116600090815260176020526040902080547fffffffffffffffffffffffffffffffffffffffffffffffffffffffffffffff0016911515919091179055565b6005816004811061101857600080fd5b6001600160a01b038316611335576040517f5788079900000000000000000000000000000000000000000000000000000000815260040160405180910390fd5b6000828152601860205260409020546001600160a01b038581169116146113b357600082815260186020526040908190205490517f431ef6160000000000000000000000000000000000000000000000000000000081526001600160a01b039182166004820152908516602482015260448101839052606401610814565b6000828152601860205260409020546001600160a01b031633148015906113fe57506001600160a01b0384166000908152601b6020908152604080832033845290915290205460ff16155b801561142157506000828152601a60205260409020546001600160a01b03163314155b15611470576040517f431ef6160000000000000000000000000000000000000000000000000000000081523360048201526001600160a01b038516602482015260448101839052606401610814565b6000828152601a6020908152604080832080547fffffffffffffffffffffffff00000000000000000000000000000000000000009081169091556018835281842080546001600160a01b03898116919093168117909155908816808552601990935281842080547fffffffffffffffffffffffffffffffffffffffffffffffffffffffffffffffff01905580845281842080546001019055905185939192917fddf252ad1be2c89b69c2b068fc378daa952ba7f163c4a11628f55a4df523b3ef91a46001600160a01b0383163b15611152576040517f150b7a020000000000000000000000000000000000000000000000000000000081526001600160a01b0384169063150b7a029061158d903390889087908790600401611c9b565b6020604051808303816000875af19250505080156115e6575060408051601f3d9081017fffffffffffffffffffffffffffffffffffffffffffffffffffffffffffffffe01682019092526115e391810190611cd7565b60015b611627576040517f3a9f8cb30000000000000000000000000000000000000000000000000000000081526001600160a01b0384166004820152602401610814565b7fffffffff0000000000000000000000000000000000000000000000000000000081167f150b7a0200000000000000000000000000000000000000000000000000000000146116ad576040517f3a9f8cb30000000000000000000000000000000000000000000000000000000081526001600160a01b0385166004820152602401610814565b5050505050565b82600481019282156116e2579160200282015b828111156116e25782358255916020019190600101906116c7565b506116ee92915061176e565b5090565b60405180608001604052806004906020820280368337509192915050565b82600481019282156116e2579160200282015b828111156116e25781547fffffffffffffffffffffffff0000000000000000000000000000000000000000166001600160a01b03843516178255602090920191600190910190611723565b5b808211156116ee576000815560010161176f565b7fffffffff0000000000000000000000000000000000000000000000000000000081168114610d6957600080fd5b6000602082840312156117c357600080fd5b81356117ce81611783565b9392505050565b6000815180845260005b818110156117fb576020818501810151868301820152016117df565b5060006020828601015260207fffffffffffffffffffffffffffffffffffffffffffffffffffffffffffffffe0601f83011685010191505092915050565b6020815260006117ce60208301846117d5565b80356001600160a01b038116811461186357600080fd5b919050565b6000806040838503121561187b57600080fd5b6118848361184c565b946020939093013593505050565b6000806000606084860312156118a757600080fd5b6118b08461184c565b92506118be6020850161184c565b9150604084013590509250925092565b600080604083850312156118e157600080fd5b50508035926020909101359150565b6000806040838503121561190357600080fd5b823591506119136020840161184c565b90509250929050565b806080810183101561192d57600080fd5b92915050565b60006080828403121561194557600080fd5b6117ce838361191c565b60808101818360005b60048110156119805781516001600160a01b0316835260209283019290910190600101611958565b50505092915050565b60006020828403121561199b57600080fd5b5035919050565b60808101818360005b60048110156119805781518352602092830192909101906001016119ab565b6000602082840312156119dc57600080fd5b6117ce8261184c565b8015158114610d6957600080fd5b60008060408385031215611a0657600080fd5b611a0f8361184c565b91506020830135611a1f816119e5565b809150509250929050565b7f4e487b7100000000000000000000000000000000000000000000000000000000600052604160045260246000fd5b60008060008060808587031215611a6f57600080fd5b611a788561184c565b9350611a866020860161184c565b925060408501359150606085013567ffffffffffffffff80821115611aaa57600080fd5b818701915087601f830112611abe57600080fd5b813581811115611ad057611ad0611a2a565b604051601f82017fffffffffffffffffffffffffffffffffffffffffffffffffffffffffffffffe0908116603f01168101908382118183101715611b1657611b16611a2a565b816040528281528a6020848701011115611b2f57600080fd5b82602086016020830137600060208483010152809550505050505092959194509250565b60008060408385031215611b6657600080fd5b8235611a0f81611783565b60008060408385031215611b8457600080fd5b611b8d8361184c565b91506119136020840161184c565b7f4e487b7100000000000000000000000000000000000000000000000000000000600052603260045260246000fd5b60808181019083833792915050565b600181811c90821680611bed57607f821691505b602082108103611c26577f4e487b7100000000000000000000000000000000000000000000000000000000600052602260045260246000fd5b50919050565b600060208284031215611c3e57600080fd5b5051919050565b600060208284031215611c5757600080fd5b81516117ce816119e5565b60808101818360005b6004811015611980576001600160a01b03611c858361184c565b1683526020928301929190910190600101611c6b565b60006001600160a01b03808716835280861660208401525083604083015260806060830152611ccd60808301846117d5565b9695505050505050565b600060208284031215611ce957600080fd5b81516117ce8161178356fea26469706673582212201515708fa0eed78502ad7e7995fda792a90cc8e62f50d4a639d4fc7bc6f80f1864736f6c63430008100033",
    "linkReferences": {}
  },
  "methodIdentifiers": {
    "BONDS()": "b4abea24",
    "Dev()": "01e51ae8",
    "ENS()": "1d2e2cc4",
    "MOLECULES()": "f12e6548",
    "NAMES()": "05e84aa0",
    "POLYCULES()": "d9ebda12",
    "_approved(uint256)": "9024d282",
    "active()": "02fb0c5e",
    "approve(address,uint256)": "095ea7b3",
    "balanceOf(address)": "70a08231",
    "changeDev(address)": "88a8c95c",
    "ensRegistry()": "7d73b231",
    "getPrices()": "bd9a548b",
    "getRegistry()": "5ab1bd53",
    "getRoothash()": "642a8ed6",
    "helix2Registry(uint256)": "70dec5f0",
    "illegalBlocks(uint256)": "80b29beb",
    "isApprovedForAll(address,address)": "e985e9c5",
    "isDev()": "f079914f",
    "name()": "06fdde03",
    "ownerOf(uint256)": "6352211e",
    "prices(uint256)": "bc31c1c1",
    "roothash(uint256)": "8dfcb1c7",
    "safeTransferFrom(address,address,uint256)": "42842e0e",
    "safeTransferFrom(address,address,uint256,bytes)": "b88d4fde",
    "setApprovalForAll(address,bool)": "a22cb465",
    "setInterface(bytes4,bool)": "c0a43a7c",
    "setPrices(uint256[4])": "548346a1",
    "setRegistry(address[4])": "aa0d81e3",
    "setSubPrice(uint256,uint256)": "38b592b7",
    "setSubRegistry(uint256,address)": "3f952eb8",
    "sizes(uint256)": "d9a9b0c6",
    "supportsInterface(bytes4)": "01ffc9a7",
    "symbol()": "95d89b41",
    "transferFrom(address,address,uint256)": "23b872dd",
    "withdrawEther()": "7362377b",
    "withdrawToken(address)": "89476069"
  },
  "id": 16
}