{
  "abi": [
    {
      "inputs": [
        {
          "internalType": "address",
          "name": "_dev",
          "type": "address"
        },
        {
          "internalType": "address",
          "name": "_you",
          "type": "address"
        }
      ],
      "name": "OnlyDev",
      "type": "error"
    },
    {
      "anonymous": false,
      "inputs": [
        {
          "indexed": false,
          "internalType": "address",
          "name": "Dev",
          "type": "address"
        },
        {
          "indexed": false,
          "internalType": "address",
          "name": "newDev",
          "type": "address"
        }
      ],
      "name": "NewDev",
      "type": "event"
    },
    {
      "anonymous": false,
      "inputs": [
        {
          "indexed": false,
          "internalType": "uint256",
          "name": "index",
          "type": "uint256"
        },
        {
          "indexed": false,
          "internalType": "uint256",
          "name": "newLife",
          "type": "uint256"
        }
      ],
      "name": "NewLife",
      "type": "event"
    },
    {
      "anonymous": false,
      "inputs": [
        {
          "indexed": false,
          "internalType": "uint256[4]",
          "name": "newLives",
          "type": "uint256[4]"
        }
      ],
      "name": "NewLives",
      "type": "event"
    },
    {
      "anonymous": false,
      "inputs": [
        {
          "indexed": false,
          "internalType": "uint256",
          "name": "index",
          "type": "uint256"
        },
        {
          "indexed": false,
          "internalType": "uint256",
          "name": "newPrice",
          "type": "uint256"
        }
      ],
      "name": "NewPrice",
      "type": "event"
    },
    {
      "anonymous": false,
      "inputs": [
        {
          "indexed": false,
          "internalType": "uint256[4]",
          "name": "newPrices",
          "type": "uint256[4]"
        }
      ],
      "name": "NewPrices",
      "type": "event"
    },
    {
      "anonymous": false,
      "inputs": [
        {
          "indexed": false,
          "internalType": "address[4]",
          "name": "newReg",
          "type": "address[4]"
        }
      ],
      "name": "NewRegisteries",
      "type": "event"
    },
    {
      "anonymous": false,
      "inputs": [
        {
          "indexed": false,
          "internalType": "uint256",
          "name": "index",
          "type": "uint256"
        },
        {
          "indexed": false,
          "internalType": "address",
          "name": "newReg",
          "type": "address"
        }
      ],
      "name": "NewRegistrar",
      "type": "event"
    },
    {
      "anonymous": false,
      "inputs": [
        {
          "indexed": false,
          "internalType": "address[4]",
          "name": "newReg",
          "type": "address[4]"
        }
      ],
      "name": "NewRegistrars",
      "type": "event"
    },
    {
      "anonymous": false,
      "inputs": [
        {
          "indexed": false,
          "internalType": "uint256",
          "name": "index",
          "type": "uint256"
        },
        {
          "indexed": false,
          "internalType": "address",
          "name": "newReg",
          "type": "address"
        }
      ],
      "name": "NewRegistry",
      "type": "event"
    },
    {
      "stateMutability": "payable",
      "type": "fallback"
    },
    {
      "inputs": [],
      "name": "BONDS",
      "outputs": [
        {
          "internalType": "contract iBOND",
          "name": "",
          "type": "address"
        }
      ],
      "stateMutability": "view",
      "type": "function"
    },
    {
      "inputs": [],
      "name": "Dev",
      "outputs": [
        {
          "internalType": "address",
          "name": "",
          "type": "address"
        }
      ],
      "stateMutability": "view",
      "type": "function"
    },
    {
      "inputs": [],
      "name": "ENS",
      "outputs": [
        {
          "internalType": "contract iENS",
          "name": "",
          "type": "address"
        }
      ],
      "stateMutability": "view",
      "type": "function"
    },
    {
      "inputs": [],
      "name": "MOLECULES",
      "outputs": [
        {
          "internalType": "contract iMOLECULE",
          "name": "",
          "type": "address"
        }
      ],
      "stateMutability": "view",
      "type": "function"
    },
    {
      "inputs": [],
      "name": "NAMES",
      "outputs": [
        {
          "internalType": "contract iNAME",
          "name": "",
          "type": "address"
        }
      ],
      "stateMutability": "view",
      "type": "function"
    },
    {
      "inputs": [],
      "name": "POLYCULES",
      "outputs": [
        {
          "internalType": "contract iPOLYCULE",
          "name": "",
          "type": "address"
        }
      ],
      "stateMutability": "view",
      "type": "function"
    },
    {
      "inputs": [],
      "name": "active",
      "outputs": [
        {
          "internalType": "bool",
          "name": "",
          "type": "bool"
        }
      ],
      "stateMutability": "view",
      "type": "function"
    },
    {
      "inputs": [
        {
          "internalType": "address",
          "name": "newDev",
          "type": "address"
        }
      ],
      "name": "changeDev",
      "outputs": [],
      "stateMutability": "nonpayable",
      "type": "function"
    },
    {
      "inputs": [],
      "name": "ensRegistry",
      "outputs": [
        {
          "internalType": "address",
          "name": "",
          "type": "address"
        }
      ],
      "stateMutability": "view",
      "type": "function"
    },
    {
      "inputs": [],
      "name": "getContract",
      "outputs": [
        {
          "internalType": "address",
          "name": "",
          "type": "address"
        }
      ],
      "stateMutability": "view",
      "type": "function"
    },
    {
      "inputs": [],
      "name": "getIllegalBlocks",
      "outputs": [
        {
          "internalType": "string[4]",
          "name": "",
          "type": "string[4]"
        }
      ],
      "stateMutability": "view",
      "type": "function"
    },
    {
      "inputs": [],
      "name": "getLifespans",
      "outputs": [
        {
          "internalType": "uint256[4]",
          "name": "",
          "type": "uint256[4]"
        }
      ],
      "stateMutability": "view",
      "type": "function"
    },
    {
      "inputs": [],
      "name": "getPrices",
      "outputs": [
        {
          "internalType": "uint256[4]",
          "name": "",
          "type": "uint256[4]"
        }
      ],
      "stateMutability": "view",
      "type": "function"
    },
    {
      "inputs": [],
      "name": "getRegistrar",
      "outputs": [
        {
          "internalType": "address[4]",
          "name": "",
          "type": "address[4]"
        }
      ],
      "stateMutability": "view",
      "type": "function"
    },
    {
      "inputs": [],
      "name": "getRegistry",
      "outputs": [
        {
          "internalType": "address[4]",
          "name": "",
          "type": "address[4]"
        }
      ],
      "stateMutability": "view",
      "type": "function"
    },
    {
      "inputs": [],
      "name": "getRoothash",
      "outputs": [
        {
          "internalType": "bytes32[4]",
          "name": "",
          "type": "bytes32[4]"
        }
      ],
      "stateMutability": "view",
      "type": "function"
    },
    {
      "inputs": [],
      "name": "getSizes",
      "outputs": [
        {
          "internalType": "uint256[4]",
          "name": "",
          "type": "uint256[4]"
        }
      ],
      "stateMutability": "view",
      "type": "function"
    },
    {
      "inputs": [
        {
          "internalType": "uint256",
          "name": "",
          "type": "uint256"
        }
      ],
      "name": "helix2Registrar",
      "outputs": [
        {
          "internalType": "address",
          "name": "",
          "type": "address"
        }
      ],
      "stateMutability": "view",
      "type": "function"
    },
    {
      "inputs": [
        {
          "internalType": "uint256",
          "name": "",
          "type": "uint256"
        }
      ],
      "name": "helix2Registry",
      "outputs": [
        {
          "internalType": "address",
          "name": "",
          "type": "address"
        }
      ],
      "stateMutability": "view",
      "type": "function"
    },
    {
      "inputs": [
        {
          "internalType": "uint256",
          "name": "",
          "type": "uint256"
        }
      ],
      "name": "illegalBlocks",
      "outputs": [
        {
          "internalType": "string",
          "name": "",
          "type": "string"
        }
      ],
      "stateMutability": "view",
      "type": "function"
    },
    {
      "inputs": [],
      "name": "isDev",
      "outputs": [
        {
          "internalType": "address",
          "name": "",
          "type": "address"
        }
      ],
      "stateMutability": "view",
      "type": "function"
    },
    {
      "inputs": [
        {
          "internalType": "uint256",
          "name": "",
          "type": "uint256"
        }
      ],
      "name": "lifespans",
      "outputs": [
        {
          "internalType": "uint256",
          "name": "",
          "type": "uint256"
        }
      ],
      "stateMutability": "view",
      "type": "function"
    },
    {
      "inputs": [],
      "name": "name",
      "outputs": [
        {
          "internalType": "string",
          "name": "",
          "type": "string"
        }
      ],
      "stateMutability": "view",
      "type": "function"
    },
    {
      "inputs": [
        {
          "internalType": "uint256",
          "name": "",
          "type": "uint256"
        }
      ],
      "name": "prices",
      "outputs": [
        {
          "internalType": "uint256",
          "name": "",
          "type": "uint256"
        }
      ],
      "stateMutability": "view",
      "type": "function"
    },
    {
      "inputs": [
        {
          "internalType": "uint256",
          "name": "",
          "type": "uint256"
        }
      ],
      "name": "roothash",
      "outputs": [
        {
          "internalType": "bytes32",
          "name": "",
          "type": "bytes32"
        }
      ],
      "stateMutability": "view",
      "type": "function"
    },
    {
      "inputs": [
        {
          "internalType": "bytes4",
          "name": "sig",
          "type": "bytes4"
        },
        {
          "internalType": "bool",
          "name": "value",
          "type": "bool"
        }
      ],
      "name": "setInterface",
      "outputs": [],
      "stateMutability": "payable",
      "type": "function"
    },
    {
      "inputs": [
        {
          "internalType": "uint256",
          "name": "index",
          "type": "uint256"
        },
        {
          "internalType": "uint256",
          "name": "newLife",
          "type": "uint256"
        }
      ],
      "name": "setLife",
      "outputs": [],
      "stateMutability": "nonpayable",
      "type": "function"
    },
    {
      "inputs": [
        {
          "internalType": "uint256[4]",
          "name": "newLives",
          "type": "uint256[4]"
        }
      ],
      "name": "setLives",
      "outputs": [],
      "stateMutability": "nonpayable",
      "type": "function"
    },
    {
      "inputs": [
        {
          "internalType": "uint256",
          "name": "index",
          "type": "uint256"
        },
        {
          "internalType": "uint256",
          "name": "newPrice",
          "type": "uint256"
        }
      ],
      "name": "setPrice",
      "outputs": [],
      "stateMutability": "nonpayable",
      "type": "function"
    },
    {
      "inputs": [
        {
          "internalType": "uint256[4]",
          "name": "newPrices",
          "type": "uint256[4]"
        }
      ],
      "name": "setPrices",
      "outputs": [],
      "stateMutability": "nonpayable",
      "type": "function"
    },
    {
      "inputs": [
        {
          "internalType": "address[4]",
          "name": "newReg",
          "type": "address[4]"
        }
      ],
      "name": "setRegisteries",
      "outputs": [],
      "stateMutability": "nonpayable",
      "type": "function"
    },
    {
      "inputs": [
        {
          "internalType": "uint256",
          "name": "index",
          "type": "uint256"
        },
        {
          "internalType": "address",
          "name": "newReg",
          "type": "address"
        }
      ],
      "name": "setRegistrar",
      "outputs": [],
      "stateMutability": "nonpayable",
      "type": "function"
    },
    {
      "inputs": [
        {
          "internalType": "address[4]",
          "name": "newReg",
          "type": "address[4]"
        }
      ],
      "name": "setRegistrars",
      "outputs": [],
      "stateMutability": "nonpayable",
      "type": "function"
    },
    {
      "inputs": [
        {
          "internalType": "uint256",
          "name": "index",
          "type": "uint256"
        },
        {
          "internalType": "address",
          "name": "newReg",
          "type": "address"
        }
      ],
      "name": "setRegistry",
      "outputs": [],
      "stateMutability": "nonpayable",
      "type": "function"
    },
    {
      "inputs": [
        {
          "internalType": "uint256",
          "name": "",
          "type": "uint256"
        }
      ],
      "name": "sizes",
      "outputs": [
        {
          "internalType": "uint256",
          "name": "",
          "type": "uint256"
        }
      ],
      "stateMutability": "view",
      "type": "function"
    },
    {
      "inputs": [
        {
          "internalType": "bytes4",
          "name": "",
          "type": "bytes4"
        }
      ],
      "name": "supportsInterface",
      "outputs": [
        {
          "internalType": "bool",
          "name": "",
          "type": "bool"
        }
      ],
      "stateMutability": "view",
      "type": "function"
    },
    {
      "inputs": [],
      "name": "symbol",
      "outputs": [
        {
          "internalType": "string",
          "name": "",
          "type": "string"
        }
      ],
      "stateMutability": "view",
      "type": "function"
    },
    {
      "inputs": [],
      "name": "withdrawEther",
      "outputs": [],
      "stateMutability": "payable",
      "type": "function"
    },
    {
      "stateMutability": "payable",
      "type": "receive"
    }
  ],
  "bytecode": {
    "object": "0x6001610100818152601760f91b610120526080908152610140828152602d60f81b6101605260a052600061018081815260c0526101c06040526101a090815260e0526200004f9190600462000317565b5060408051608081018252602080825280820181905291810182905260608101919091526200008390600590600462000367565b50604080516080810182526001808252602082018190529181018290526060810191909152620000b890600990600462000367565b5060408051608081018252600060a082018190527f6f010af653ebe3cb07d297a4ef13366103d392ceffa68dd48232e6e9ff2187bf60c0808401919091528351808403909101815260e0830184528051602091820120835283518082018390527fd3b8281179950f98149eefdb158d0e1acb56f56e8e343aa9fefafa7e369595618186018190528551808303870181526060928301875280519084012083860152855180840185905280870182905286518082038801815290830187528051908401208587015285518084019490945283860152845180840386018152928101909452815191012091810191909152620001b790600d906004620003ab565b50601180546001600160a01b0319166e0c2e074ec69a0dfb2997ba6c7d2e1e1790556040805160808101825260008082526020820181905291810182905260608101919091526200020d906012906004620003dc565b50601154601680546001600160a01b03199081166001600160a01b0393841617909155601254601780548316918416919091179055601354601880548316918416919091179055601454601980548316918416919091179055601554601a80549092169216919091179055604080516080810182526000808252602082018190529181018290526060810191909152620002ac90601b906004620003dc565b506040805160808101825262030d40808252602082018190529181018290526060810191909152620002e390601f90600462000427565b506023805460ff19166001179055348015620002fe57600080fd5b50600080546001600160a01b031916331790556200064a565b826004810192821562000355579160200282015b828111156200035557825182906200034490826200057e565b50916020019190600101906200032b565b50620003639291506200045f565b5090565b82600481019282156200039d579160200282015b828111156200039d578251829060ff169055916020019190600101906200037b565b506200036392915062000480565b82600481019282156200039d579160200282015b828111156200039d578251825591602001919060010190620003bf565b82600481019282156200039d579160200282015b828111156200039d57825182546001600160a01b0319166001600160a01b03909116178255602090920191600190910190620003f0565b82600481019282156200039d579160200282015b828111156200039d578251829062ffffff169055916020019190600101906200043b565b808211156200036357600062000476828262000497565b506001016200045f565b5b8082111562000363576000815560010162000481565b508054620004a590620004ef565b6000825580601f10620004b6575050565b601f016020900490600052602060002090810190620004d6919062000480565b50565b634e487b7160e01b600052604160045260246000fd5b600181811c908216806200050457607f821691505b6020821081036200052557634e487b7160e01b600052602260045260246000fd5b50919050565b601f8211156200057957600081815260208120601f850160051c81016020861015620005545750805b601f850160051c820191505b81811015620005755782815560010162000560565b5050505b505050565b81516001600160401b038111156200059a576200059a620004d9565b620005b281620005ab8454620004ef565b846200052b565b602080601f831160018114620005ea5760008415620005d15750858301515b600019600386901b1c1916600185901b17855562000575565b600085815260208120601f198616915b828110156200061b57888601518255948401946001909101908401620005fa565b50858210156200063a5787850151600019600388901b60f8161c191681555b5050505050600190811b01905550565b6116c8806200065a6000396000f3fe6080604052600436106102895760003560e01c806380b29beb11610153578063c2d4cdfc116100cb578063ec2ace2a1161007f578063f12e654811610064578063f12e654814610744578063f1715fdc14610764578063f7d975771461078457600080fd5b8063ec2ace2a14610711578063f079914f1461072657600080fd5b8063ce786f57116100b0578063ce786f57146106b1578063d9a9b0c6146106d1578063d9ebda12146106f157600080fd5b8063c2d4cdfc1461066f578063ce721ac91461069157600080fd5b806395d89b4111610122578063bc31c1c111610107578063bc31c1c114610627578063bd9a548b14610647578063c0a43a7c1461065c57600080fd5b806395d89b41146105be578063b4abea241461060757600080fd5b806380b29beb1461053d57806388a8c95c1461055d5780638dfcb1c71461057d578063958f85bd146105ab57600080fd5b806333647fac11610201578063642a8ed6116101b557806370dec5f01161019a57806370dec5f0146104f55780637362377b146105155780637d73b2311461051d57600080fd5b8063642a8ed6146104be57806366a0edce146104e057600080fd5b8063548346a1116101e6578063548346a1146104695780635ab1bd53146104895780635c979fe41461049e57600080fd5b806333647fac146104275780634d3f73341461044757600080fd5b806305e84aa011610258578063101de7a41161023d578063101de7a4146103c75780631d2e2cc4146103e7578063255978421461040757600080fd5b806305e84aa01461035157806306fdde031461037157600080fd5b8063011163ba1461029857806301e51ae8146102ba57806301ffc9a7146102f757806302fb0c5e1461033757600080fd5b3661029357600080fd5b600080fd5b3480156102a457600080fd5b506102b86102b3366004611325565b6107a4565b005b3480156102c657600080fd5b506000546102da906001600160a01b031681565b6040516001600160a01b0390911681526020015b60405180910390f35b34801561030357600080fd5b5061032761031236600461137c565b60246020526000908152604090205460ff1681565b60405190151581526020016102ee565b34801561034357600080fd5b506023546103279060ff1681565b34801561035d57600080fd5b506017546102da906001600160a01b031681565b34801561037d57600080fd5b506103ba6040518060400160405280601381526020017f48656c697832204c696e6b20536572766963650000000000000000000000000081525081565b6040516102ee9190611402565b3480156103d357600080fd5b506102b86103e236600461142c565b61083c565b3480156103f357600080fd5b506016546102da906001600160a01b031681565b34801561041357600080fd5b506102b861042236600461142c565b6108c4565b34801561043357600080fd5b506102b861044236600461142c565b610948565b34801561045357600080fd5b5061045c6109cc565b6040516102ee9190611448565b34801561047557600080fd5b506102b861048436600461142c565b610a11565b34801561049557600080fd5b5061045c610a95565b3480156104aa57600080fd5b506102b86104b9366004611499565b610ad4565b3480156104ca57600080fd5b506104d3610ba4565b6040516102ee91906114c5565b3480156104ec57600080fd5b506104d3610bdf565b34801561050157600080fd5b506102da6105103660046114ed565b610c15565b6102b8610c35565b34801561052957600080fd5b506011546102da906001600160a01b031681565b34801561054957600080fd5b506103ba6105583660046114ed565b610cf5565b34801561056957600080fd5b506102b8610578366004611506565b610d95565b34801561058957600080fd5b5061059d6105983660046114ed565b610e56565b6040519081526020016102ee565b3480156105b757600080fd5b50306102da565b3480156105ca57600080fd5b506103ba6040518060400160405280600681526020017f48454c495832000000000000000000000000000000000000000000000000000081525081565b34801561061357600080fd5b506018546102da906001600160a01b031681565b34801561063357600080fd5b5061059d6106423660046114ed565b610e6d565b34801561065357600080fd5b506104d3610e7d565b6102b861066a366004611521565b610eb2565b34801561067b57600080fd5b50610684610fe0565b6040516102ee919061155d565b34801561069d57600080fd5b5061059d6106ac3660046114ed565b6110a7565b3480156106bd57600080fd5b506102b86106cc366004611499565b6110b7565b3480156106dd57600080fd5b5061059d6106ec3660046114ed565b61114c565b3480156106fd57600080fd5b50601a546102da906001600160a01b031681565b34801561071d57600080fd5b506104d361115c565b34801561073257600080fd5b506000546001600160a01b03166102da565b34801561075057600080fd5b506019546102da906001600160a01b031681565b34801561077057600080fd5b506102da61077f3660046114ed565b611192565b34801561079057600080fd5b506102b861079f366004611325565b6111a2565b6000546001600160a01b031633146107e9576000546040516347522c7b60e11b81526001600160a01b0390911660048201523360248201526044015b60405180910390fd5b60408051838152602081018390527f1e63d23105a4055118805831d2e9ddfdd1d0aa649288ea6af88bc3f1a839aa4d910160405180910390a18060098360048110610836576108366115c8565b01555050565b6000546001600160a01b0316331461087c576000546040516347522c7b60e11b81526001600160a01b0390911660048201523360248201526044016107e0565b7fe41d51d5fb8e385c5a9fe5bb74bdc64ccba6244430eccc72759a7c8169b7e9d3816040516108ab91906115f7565b60405180910390a16108c0601b82600461122f565b5050565b6000546001600160a01b03163314610904576000546040516347522c7b60e11b81526001600160a01b0390911660048201523360248201526044016107e0565b7f791be3d751ae4a05964850f92fc1e74cd8f0c6ddcf6aef1001f583e5f1c950318160405161093391906115f7565b60405180910390a16108c0601282600461122f565b6000546001600160a01b03163314610988576000546040516347522c7b60e11b81526001600160a01b0390911660048201523360248201526044016107e0565b7f7fcd8173c4f7db37e3bb270284eaeae1d59547dd77434918796924c49055d91e816040516109b79190611630565b60405180910390a16108c0600982600461129d565b6109d46112cb565b60408051608081019182905290601b9060049082845b81546001600160a01b031681526001909101906020018083116109ea575050505050905090565b6000546001600160a01b03163314610a51576000546040516347522c7b60e11b81526001600160a01b0390911660048201523360248201526044016107e0565b7f6116f7116dde91a0e9e26d165df2ff4da2a8825e58929b222641cc28d2e44f0e81604051610a809190611630565b60405180910390a16108c0601f82600461129d565b610a9d6112cb565b604080516080810191829052601280546001600160a01b0316825290916004906013602085018083116109ea575050505050905090565b6000546001600160a01b03163314610b14576000546040516347522c7b60e11b81526001600160a01b0390911660048201523360248201526044016107e0565b604080518381526001600160a01b03831660208201527f86999194e67d8c5fb1a642a451b86213ed4f5b67a6a36e9e4d5de8f053e58132910160405180910390a180601b8360048110610b6957610b696115c8565b0180547fffffffffffffffffffffffff0000000000000000000000000000000000000000166001600160a01b03929092169190911790555050565b610bac6112cb565b60408051608081019182905290600d9060049082845b815481526020019060010190808311610bc2575050505050905090565b610be76112cb565b6040805160808101918290526005805482529091600490600660208501808311610bc2575050505050905090565b60128160048110610c2557600080fd5b01546001600160a01b0316905081565b600080546040516001600160a01b039091169047908381818185875af1925050503d8060008114610c82576040519150601f19603f3d011682016040523d82523d6000602084013e610c87565b606091505b5050905080610cf2576040517f08c379a000000000000000000000000000000000000000000000000000000000815260206004820152601360248201527f4554485f5452414e534645525f4641494c45440000000000000000000000000060448201526064016107e0565b50565b60018160048110610d0557600080fd5b018054909150610d149061163f565b80601f0160208091040260200160405190810160405280929190818152602001828054610d409061163f565b8015610d8d5780601f10610d6257610100808354040283529160200191610d8d565b820191906000526020600020905b815481529060010190602001808311610d7057829003601f168201915b505050505081565b6000546001600160a01b03163314610dd5576000546040516347522c7b60e11b81526001600160a01b0390911660048201523360248201526044016107e0565b600054604080516001600160a01b03928316815291831660208301527fdec101f106d4fc7c85791843e64b198248c822298e3ed7046231d33f7783d816910160405180910390a1600080547fffffffffffffffffffffffff0000000000000000000000000000000000000000166001600160a01b0392909216919091179055565b600d8160048110610e6657600080fd5b0154905081565b601f8160048110610e6657600080fd5b610e856112cb565b604080516080810191829052601f8054825290916004906020808501808311610bc2575050505050905090565b6000546001600160a01b03163314610ef2576000546040516347522c7b60e11b81526001600160a01b0390911660048201523360248201526044016107e0565b7fffffffff000000000000000000000000000000000000000000000000000000008083169003610f7e576040517f08c379a000000000000000000000000000000000000000000000000000000000815260206004820152601a60248201527f494e56414c49445f494e544552464143455f53454c4543544f5200000000000060448201526064016107e0565b7fffffffff0000000000000000000000000000000000000000000000000000000091909116600090815260246020526040902080547fffffffffffffffffffffffffffffffffffffffffffffffffffffffffffffff0016911515919091179055565b610fe86112e9565b6040805160808101909152600160046000835b8282101561109e5783820180546110119061163f565b80601f016020809104026020016040519081016040528092919081815260200182805461103d9061163f565b801561108a5780601f1061105f5761010080835404028352916020019161108a565b820191906000526020600020905b81548152906001019060200180831161106d57829003601f168201915b505050505081526020019060010190610ffb565b50505050905090565b60098160048110610e6657600080fd5b6000546001600160a01b031633146110f7576000546040516347522c7b60e11b81526001600160a01b0390911660048201523360248201526044016107e0565b604080518381526001600160a01b03831660208201527f896e591224bbe75aedb047b3fd74204bb99d55e4cffb4c059fc669ca7474eb25910160405180910390a18060128360048110610b6957610b696115c8565b60058160048110610e6657600080fd5b6111646112cb565b6040805160808101918290526009805482529091600490600a60208501808311610bc2575050505050905090565b601b8160048110610c2557600080fd5b6000546001600160a01b031633146111e2576000546040516347522c7b60e11b81526001600160a01b0390911660048201523360248201526044016107e0565b60408051838152602081018390527fb9362b96e28efbb7a7e63bb4a97faf9924ec0394635feff8588a6ae2a5f784fe910160405180910390a180601f8360048110610836576108366115c8565b826004810192821561128d579160200282015b8281111561128d5781547fffffffffffffffffffffffff0000000000000000000000000000000000000000166001600160a01b03843516178255602090920191600190910190611242565b50611299929150611310565b5090565b826004810192821561128d579160200282015b8281111561128d5782358255916020019190600101906112b0565b60405180608001604052806004906020820280368337509192915050565b60405180608001604052806004905b60608152602001906001900390816112f85790505090565b5b808211156112995760008155600101611311565b6000806040838503121561133857600080fd5b50508035926020909101359150565b80357fffffffff000000000000000000000000000000000000000000000000000000008116811461137757600080fd5b919050565b60006020828403121561138e57600080fd5b61139782611347565b9392505050565b6000815180845260005b818110156113c4576020818501810151868301820152016113a8565b5060006020828601015260207fffffffffffffffffffffffffffffffffffffffffffffffffffffffffffffffe0601f83011685010191505092915050565b602081526000611397602083018461139e565b806080810183101561142657600080fd5b92915050565b60006080828403121561143e57600080fd5b6113978383611415565b60808101818360005b60048110156114795781516001600160a01b0316835260209283019290910190600101611451565b50505092915050565b80356001600160a01b038116811461137757600080fd5b600080604083850312156114ac57600080fd5b823591506114bc60208401611482565b90509250929050565b60808101818360005b60048110156114795781518352602092830192909101906001016114ce565b6000602082840312156114ff57600080fd5b5035919050565b60006020828403121561151857600080fd5b61139782611482565b6000806040838503121561153457600080fd5b61153d83611347565b91506020830135801515811461155257600080fd5b809150509250929050565b602080825260009060a0830183820185845b60048110156115bc577fffffffffffffffffffffffffffffffffffffffffffffffffffffffffffffffe08785030183526115aa84835161139e565b9350918401919084019060010161156f565b50919695505050505050565b7f4e487b7100000000000000000000000000000000000000000000000000000000600052603260045260246000fd5b60808101818360005b6004811015611479576001600160a01b0361161a83611482565b1683526020928301929190910190600101611600565b60808181019083833792915050565b600181811c9082168061165357607f821691505b60208210810361168c577f4e487b7100000000000000000000000000000000000000000000000000000000600052602260045260246000fd5b5091905056fea264697066735822122091ba0175f7d5e38a6b521af370803643c6c813660b094c5f56c2892112e8729a64736f6c63430008100033",
    "linkReferences": {}
  },
  "methodIdentifiers": {
    "BONDS()": "b4abea24",
    "Dev()": "01e51ae8",
    "ENS()": "1d2e2cc4",
    "MOLECULES()": "f12e6548",
    "NAMES()": "05e84aa0",
    "POLYCULES()": "d9ebda12",
    "active()": "02fb0c5e",
    "changeDev(address)": "88a8c95c",
    "ensRegistry()": "7d73b231",
    "getContract()": "958f85bd",
    "getIllegalBlocks()": "c2d4cdfc",
    "getLifespans()": "ec2ace2a",
    "getPrices()": "bd9a548b",
    "getRegistrar()": "4d3f7334",
    "getRegistry()": "5ab1bd53",
    "getRoothash()": "642a8ed6",
    "getSizes()": "66a0edce",
    "helix2Registrar(uint256)": "f1715fdc",
    "helix2Registry(uint256)": "70dec5f0",
    "illegalBlocks(uint256)": "80b29beb",
    "isDev()": "f079914f",
    "lifespans(uint256)": "ce721ac9",
    "name()": "06fdde03",
    "prices(uint256)": "bc31c1c1",
    "roothash(uint256)": "8dfcb1c7",
    "setInterface(bytes4,bool)": "c0a43a7c",
    "setLife(uint256,uint256)": "011163ba",
    "setLives(uint256[4])": "33647fac",
    "setPrice(uint256,uint256)": "f7d97577",
    "setPrices(uint256[4])": "548346a1",
    "setRegisteries(address[4])": "25597842",
    "setRegistrar(uint256,address)": "5c979fe4",
    "setRegistrars(address[4])": "101de7a4",
    "setRegistry(uint256,address)": "ce786f57",
    "sizes(uint256)": "d9a9b0c6",
    "supportsInterface(bytes4)": "01ffc9a7",
    "symbol()": "95d89b41",
    "withdrawEther()": "7362377b"
  },
  "id": 20
}