{
  "abi": [
    {
      "inputs": [
        {
          "internalType": "address",
          "name": "_dev",
          "type": "address"
        },
        {
          "internalType": "address",
          "name": "_you",
          "type": "address"
        }
      ],
      "name": "OnlyDev",
      "type": "error"
    },
    {
      "anonymous": false,
      "inputs": [
        {
          "indexed": false,
          "internalType": "address",
          "name": "Dev",
          "type": "address"
        },
        {
          "indexed": false,
          "internalType": "address",
          "name": "newDev",
          "type": "address"
        }
      ],
      "name": "NewDev",
      "type": "event"
    },
    {
      "anonymous": false,
      "inputs": [
        {
          "indexed": false,
          "internalType": "address",
          "name": "newReg",
          "type": "address"
        }
      ],
      "name": "NewENSRegistry",
      "type": "event"
    },
    {
      "anonymous": false,
      "inputs": [
        {
          "indexed": false,
          "internalType": "uint256",
          "name": "index",
          "type": "uint256"
        },
        {
          "indexed": false,
          "internalType": "uint256",
          "name": "newLife",
          "type": "uint256"
        }
      ],
      "name": "NewLife",
      "type": "event"
    },
    {
      "anonymous": false,
      "inputs": [
        {
          "indexed": false,
          "internalType": "uint256[4]",
          "name": "newLives",
          "type": "uint256[4]"
        }
      ],
      "name": "NewLives",
      "type": "event"
    },
    {
      "anonymous": false,
      "inputs": [
        {
          "indexed": false,
          "internalType": "uint256",
          "name": "index",
          "type": "uint256"
        },
        {
          "indexed": false,
          "internalType": "uint256",
          "name": "newPrice",
          "type": "uint256"
        }
      ],
      "name": "NewPrice",
      "type": "event"
    },
    {
      "anonymous": false,
      "inputs": [
        {
          "indexed": false,
          "internalType": "uint256[4]",
          "name": "newPrices",
          "type": "uint256[4]"
        }
      ],
      "name": "NewPrices",
      "type": "event"
    },
    {
      "anonymous": false,
      "inputs": [
        {
          "indexed": false,
          "internalType": "address[4]",
          "name": "newReg",
          "type": "address[4]"
        }
      ],
      "name": "NewRegisteries",
      "type": "event"
    },
    {
      "anonymous": false,
      "inputs": [
        {
          "indexed": false,
          "internalType": "uint256",
          "name": "index",
          "type": "uint256"
        },
        {
          "indexed": false,
          "internalType": "address",
          "name": "newReg",
          "type": "address"
        }
      ],
      "name": "NewRegistrar",
      "type": "event"
    },
    {
      "anonymous": false,
      "inputs": [
        {
          "indexed": false,
          "internalType": "address[4]",
          "name": "newReg",
          "type": "address[4]"
        }
      ],
      "name": "NewRegistrars",
      "type": "event"
    },
    {
      "anonymous": false,
      "inputs": [
        {
          "indexed": false,
          "internalType": "uint256",
          "name": "index",
          "type": "uint256"
        },
        {
          "indexed": false,
          "internalType": "address",
          "name": "newReg",
          "type": "address"
        }
      ],
      "name": "NewRegistry",
      "type": "event"
    },
    {
      "stateMutability": "payable",
      "type": "fallback"
    },
    {
      "inputs": [],
      "name": "BONDS",
      "outputs": [
        {
          "internalType": "contract iBOND",
          "name": "",
          "type": "address"
        }
      ],
      "stateMutability": "view",
      "type": "function"
    },
    {
      "inputs": [],
      "name": "Dev",
      "outputs": [
        {
          "internalType": "address",
          "name": "",
          "type": "address"
        }
      ],
      "stateMutability": "view",
      "type": "function"
    },
    {
      "inputs": [],
      "name": "ENS",
      "outputs": [
        {
          "internalType": "contract iENS",
          "name": "",
          "type": "address"
        }
      ],
      "stateMutability": "view",
      "type": "function"
    },
    {
      "inputs": [],
      "name": "MOLECULES",
      "outputs": [
        {
          "internalType": "contract iMOLECULE",
          "name": "",
          "type": "address"
        }
      ],
      "stateMutability": "view",
      "type": "function"
    },
    {
      "inputs": [],
      "name": "NAMES",
      "outputs": [
        {
          "internalType": "contract iNAME",
          "name": "",
          "type": "address"
        }
      ],
      "stateMutability": "view",
      "type": "function"
    },
    {
      "inputs": [],
      "name": "POLYCULES",
      "outputs": [
        {
          "internalType": "contract iPOLYCULE",
          "name": "",
          "type": "address"
        }
      ],
      "stateMutability": "view",
      "type": "function"
    },
    {
      "inputs": [],
      "name": "active",
      "outputs": [
        {
          "internalType": "bool",
          "name": "",
          "type": "bool"
        }
      ],
      "stateMutability": "view",
      "type": "function"
    },
    {
      "inputs": [
        {
          "internalType": "address",
          "name": "newDev",
          "type": "address"
        }
      ],
      "name": "changeDev",
      "outputs": [],
      "stateMutability": "nonpayable",
      "type": "function"
    },
    {
      "inputs": [],
      "name": "ensRegistry",
      "outputs": [
        {
          "internalType": "address",
          "name": "",
          "type": "address"
        }
      ],
      "stateMutability": "view",
      "type": "function"
    },
    {
      "inputs": [],
      "name": "getENSRegistry",
      "outputs": [
        {
          "internalType": "address",
          "name": "",
          "type": "address"
        }
      ],
      "stateMutability": "view",
      "type": "function"
    },
    {
      "inputs": [],
      "name": "getIllegalBlocks",
      "outputs": [
        {
          "internalType": "string[4]",
          "name": "",
          "type": "string[4]"
        }
      ],
      "stateMutability": "view",
      "type": "function"
    },
    {
      "inputs": [],
      "name": "getLifespans",
      "outputs": [
        {
          "internalType": "uint256[4]",
          "name": "",
          "type": "uint256[4]"
        }
      ],
      "stateMutability": "view",
      "type": "function"
    },
    {
      "inputs": [],
      "name": "getPrices",
      "outputs": [
        {
          "internalType": "uint256[4]",
          "name": "",
          "type": "uint256[4]"
        }
      ],
      "stateMutability": "view",
      "type": "function"
    },
    {
      "inputs": [],
      "name": "getRegistrar",
      "outputs": [
        {
          "internalType": "address[4]",
          "name": "",
          "type": "address[4]"
        }
      ],
      "stateMutability": "view",
      "type": "function"
    },
    {
      "inputs": [],
      "name": "getRegistry",
      "outputs": [
        {
          "internalType": "address[4]",
          "name": "",
          "type": "address[4]"
        }
      ],
      "stateMutability": "view",
      "type": "function"
    },
    {
      "inputs": [],
      "name": "getRoothash",
      "outputs": [
        {
          "internalType": "bytes32[4]",
          "name": "",
          "type": "bytes32[4]"
        }
      ],
      "stateMutability": "view",
      "type": "function"
    },
    {
      "inputs": [],
      "name": "getSizes",
      "outputs": [
        {
          "internalType": "uint256[4]",
          "name": "",
          "type": "uint256[4]"
        }
      ],
      "stateMutability": "view",
      "type": "function"
    },
    {
      "inputs": [
        {
          "internalType": "uint256",
          "name": "",
          "type": "uint256"
        }
      ],
      "name": "helix2Registrar",
      "outputs": [
        {
          "internalType": "address",
          "name": "",
          "type": "address"
        }
      ],
      "stateMutability": "view",
      "type": "function"
    },
    {
      "inputs": [
        {
          "internalType": "uint256",
          "name": "",
          "type": "uint256"
        }
      ],
      "name": "helix2Registry",
      "outputs": [
        {
          "internalType": "address",
          "name": "",
          "type": "address"
        }
      ],
      "stateMutability": "view",
      "type": "function"
    },
    {
      "inputs": [
        {
          "internalType": "uint256",
          "name": "",
          "type": "uint256"
        }
      ],
      "name": "illegalBlocks",
      "outputs": [
        {
          "internalType": "string",
          "name": "",
          "type": "string"
        }
      ],
      "stateMutability": "view",
      "type": "function"
    },
    {
      "inputs": [],
      "name": "isDev",
      "outputs": [
        {
          "internalType": "address",
          "name": "",
          "type": "address"
        }
      ],
      "stateMutability": "view",
      "type": "function"
    },
    {
      "inputs": [
        {
          "internalType": "uint256",
          "name": "",
          "type": "uint256"
        }
      ],
      "name": "lifespans",
      "outputs": [
        {
          "internalType": "uint256",
          "name": "",
          "type": "uint256"
        }
      ],
      "stateMutability": "view",
      "type": "function"
    },
    {
      "inputs": [],
      "name": "name",
      "outputs": [
        {
          "internalType": "string",
          "name": "",
          "type": "string"
        }
      ],
      "stateMutability": "view",
      "type": "function"
    },
    {
      "inputs": [
        {
          "internalType": "uint256",
          "name": "",
          "type": "uint256"
        }
      ],
      "name": "prices",
      "outputs": [
        {
          "internalType": "uint256",
          "name": "",
          "type": "uint256"
        }
      ],
      "stateMutability": "view",
      "type": "function"
    },
    {
      "inputs": [
        {
          "internalType": "uint256",
          "name": "",
          "type": "uint256"
        }
      ],
      "name": "roothash",
      "outputs": [
        {
          "internalType": "bytes32",
          "name": "",
          "type": "bytes32"
        }
      ],
      "stateMutability": "view",
      "type": "function"
    },
    {
      "inputs": [
        {
          "internalType": "address",
          "name": "newReg",
          "type": "address"
        }
      ],
      "name": "setENSRegistry",
      "outputs": [],
      "stateMutability": "nonpayable",
      "type": "function"
    },
    {
      "inputs": [
        {
          "internalType": "bytes4",
          "name": "sig",
          "type": "bytes4"
        },
        {
          "internalType": "bool",
          "name": "value",
          "type": "bool"
        }
      ],
      "name": "setInterface",
      "outputs": [],
      "stateMutability": "payable",
      "type": "function"
    },
    {
      "inputs": [
        {
          "internalType": "uint256",
          "name": "index",
          "type": "uint256"
        },
        {
          "internalType": "uint256",
          "name": "newLife",
          "type": "uint256"
        }
      ],
      "name": "setLife",
      "outputs": [],
      "stateMutability": "nonpayable",
      "type": "function"
    },
    {
      "inputs": [
        {
          "internalType": "uint256[4]",
          "name": "newLives",
          "type": "uint256[4]"
        }
      ],
      "name": "setLives",
      "outputs": [],
      "stateMutability": "nonpayable",
      "type": "function"
    },
    {
      "inputs": [
        {
          "internalType": "uint256",
          "name": "index",
          "type": "uint256"
        },
        {
          "internalType": "uint256",
          "name": "newPrice",
          "type": "uint256"
        }
      ],
      "name": "setPrice",
      "outputs": [],
      "stateMutability": "nonpayable",
      "type": "function"
    },
    {
      "inputs": [
        {
          "internalType": "uint256[4]",
          "name": "newPrices",
          "type": "uint256[4]"
        }
      ],
      "name": "setPrices",
      "outputs": [],
      "stateMutability": "nonpayable",
      "type": "function"
    },
    {
      "inputs": [
        {
          "internalType": "address[4]",
          "name": "newReg",
          "type": "address[4]"
        }
      ],
      "name": "setRegisteries",
      "outputs": [],
      "stateMutability": "nonpayable",
      "type": "function"
    },
    {
      "inputs": [
        {
          "internalType": "uint256",
          "name": "index",
          "type": "uint256"
        },
        {
          "internalType": "address",
          "name": "newReg",
          "type": "address"
        }
      ],
      "name": "setRegistrar",
      "outputs": [],
      "stateMutability": "nonpayable",
      "type": "function"
    },
    {
      "inputs": [
        {
          "internalType": "address[4]",
          "name": "newReg",
          "type": "address[4]"
        }
      ],
      "name": "setRegistrars",
      "outputs": [],
      "stateMutability": "nonpayable",
      "type": "function"
    },
    {
      "inputs": [
        {
          "internalType": "uint256",
          "name": "index",
          "type": "uint256"
        },
        {
          "internalType": "address",
          "name": "newReg",
          "type": "address"
        }
      ],
      "name": "setRegistry",
      "outputs": [],
      "stateMutability": "nonpayable",
      "type": "function"
    },
    {
      "inputs": [
        {
          "internalType": "uint256",
          "name": "",
          "type": "uint256"
        }
      ],
      "name": "sizes",
      "outputs": [
        {
          "internalType": "uint256",
          "name": "",
          "type": "uint256"
        }
      ],
      "stateMutability": "view",
      "type": "function"
    },
    {
      "inputs": [
        {
          "internalType": "bytes4",
          "name": "",
          "type": "bytes4"
        }
      ],
      "name": "supportsInterface",
      "outputs": [
        {
          "internalType": "bool",
          "name": "",
          "type": "bool"
        }
      ],
      "stateMutability": "view",
      "type": "function"
    },
    {
      "inputs": [],
      "name": "symbol",
      "outputs": [
        {
          "internalType": "string",
          "name": "",
          "type": "string"
        }
      ],
      "stateMutability": "view",
      "type": "function"
    },
    {
      "inputs": [],
      "name": "withdrawEther",
      "outputs": [],
      "stateMutability": "payable",
      "type": "function"
    },
    {
      "stateMutability": "payable",
      "type": "receive"
    }
  ],
  "bytecode": {
    "object": "0x6001610100818152601760f91b610120526080908152610140828152602d60f81b6101605260a052600061018081815260c0526101c06040526101a090815260e0526200004f9190600462000317565b5060408051608081018252602080825280820181905291810182905260608101919091526200008390600590600462000367565b50604080516080810182526001808252602082018190529181018290526060810191909152620000b890600990600462000367565b5060408051608081018252600060a082018190527f6f010af653ebe3cb07d297a4ef13366103d392ceffa68dd48232e6e9ff2187bf60c0808401919091528351808403909101815260e0830184528051602091820120835283518082018390527fd3b8281179950f98149eefdb158d0e1acb56f56e8e343aa9fefafa7e369595618186018190528551808303870181526060928301875280519084012083860152855180840185905280870182905286518082038801815290830187528051908401208587015285518084019490945283860152845180840386018152928101909452815191012091810191909152620001b790600d906004620003ab565b50601180546001600160a01b0319166e0c2e074ec69a0dfb2997ba6c7d2e1e1790556040805160808101825260008082526020820181905291810182905260608101919091526200020d906012906004620003dc565b50601154601680546001600160a01b03199081166001600160a01b0393841617909155601254601780548316918416919091179055601354601880548316918416919091179055601454601980548316918416919091179055601554601a80549092169216919091179055604080516080810182526000808252602082018190529181018290526060810191909152620002ac90601b906004620003dc565b506040805160808101825262030d40808252602082018190529181018290526060810191909152620002e390601f90600462000427565b506023805460ff19166001179055348015620002fe57600080fd5b50600080546001600160a01b031916331790556200064a565b826004810192821562000355579160200282015b828111156200035557825182906200034490826200057e565b50916020019190600101906200032b565b50620003639291506200045f565b5090565b82600481019282156200039d579160200282015b828111156200039d578251829060ff169055916020019190600101906200037b565b506200036392915062000480565b82600481019282156200039d579160200282015b828111156200039d578251825591602001919060010190620003bf565b82600481019282156200039d579160200282015b828111156200039d57825182546001600160a01b0319166001600160a01b03909116178255602090920191600190910190620003f0565b82600481019282156200039d579160200282015b828111156200039d578251829062ffffff169055916020019190600101906200043b565b808211156200036357600062000476828262000497565b506001016200045f565b5b8082111562000363576000815560010162000481565b508054620004a590620004ef565b6000825580601f10620004b6575050565b601f016020900490600052602060002090810190620004d6919062000480565b50565b634e487b7160e01b600052604160045260246000fd5b600181811c908216806200050457607f821691505b6020821081036200052557634e487b7160e01b600052602260045260246000fd5b50919050565b601f8211156200057957600081815260208120601f850160051c81016020861015620005545750805b601f850160051c820191505b81811015620005755782815560010162000560565b5050505b505050565b81516001600160401b038111156200059a576200059a620004d9565b620005b281620005ab8454620004ef565b846200052b565b602080601f831160018114620005ea5760008415620005d15750858301515b600019600386901b1c1916600185901b17855562000575565b600085815260208120601f198616915b828110156200061b57888601518255948401946001909101908401620005fa565b50858210156200063a5787850151600019600388901b60f8161c191681555b5050505050600190811b01905550565b6117c4806200065a6000396000f3fe6080604052600436106102a45760003560e01c80637362377b1161016e578063c2d4cdfc116100cb578063ec2ace2a1161007f578063f12e654811610064578063f12e65481461078a578063f1715fdc146107aa578063f7d97577146107ca57600080fd5b8063ec2ace2a14610757578063f079914f1461076c57600080fd5b8063ce786f57116100b0578063ce786f57146106f7578063d9a9b0c614610717578063d9ebda121461073757600080fd5b8063c2d4cdfc146106b5578063ce721ac9146106d757600080fd5b806395d89b4111610122578063bc31c1c111610107578063bc31c1c11461066d578063bd9a548b1461068d578063c0a43a7c146106a257600080fd5b806395d89b4114610604578063b4abea241461064d57600080fd5b806380b29beb1161015357806380b29beb1461059657806388a8c95c146105b65780638dfcb1c7146105d657600080fd5b80637362377b1461056e5780637d73b2311461057657600080fd5b80632f6807951161021c5780635ab1bd53116101d0578063642a8ed6116101b5578063642a8ed61461051757806366a0edce1461053957806370dec5f01461054e57600080fd5b80635ab1bd53146104e25780635c979fe4146104f757600080fd5b8063479f615211610201578063479f6152146104805780634d3f7334146104a0578063548346a1146104c257600080fd5b80632f6807951461044257806333647fac1461046057600080fd5b806305e84aa011610273578063101de7a411610258578063101de7a4146103e25780631d2e2cc414610402578063255978421461042257600080fd5b806305e84aa01461036c57806306fdde031461038c57600080fd5b8063011163ba146102b357806301e51ae8146102d557806301ffc9a71461031257806302fb0c5e1461035257600080fd5b366102ae57600080fd5b600080fd5b3480156102bf57600080fd5b506102d36102ce366004611421565b6107ea565b005b3480156102e157600080fd5b506000546102f5906001600160a01b031681565b6040516001600160a01b0390911681526020015b60405180910390f35b34801561031e57600080fd5b5061034261032d366004611478565b60246020526000908152604090205460ff1681565b6040519015158152602001610309565b34801561035e57600080fd5b506023546103429060ff1681565b34801561037857600080fd5b506017546102f5906001600160a01b031681565b34801561039857600080fd5b506103d56040518060400160405280601381526020017f48656c697832204c696e6b20536572766963650000000000000000000000000081525081565b60405161030991906114fe565b3480156103ee57600080fd5b506102d36103fd366004611528565b610882565b34801561040e57600080fd5b506016546102f5906001600160a01b031681565b34801561042e57600080fd5b506102d361043d366004611528565b61090a565b34801561044e57600080fd5b506011546001600160a01b03166102f5565b34801561046c57600080fd5b506102d361047b366004611528565b61098e565b34801561048c57600080fd5b506102d361049b36600461155b565b610a12565b3480156104ac57600080fd5b506104b5610ac8565b6040516103099190611576565b3480156104ce57600080fd5b506102d36104dd366004611528565b610b0d565b3480156104ee57600080fd5b506104b5610b91565b34801561050357600080fd5b506102d36105123660046115b0565b610bd0565b34801561052357600080fd5b5061052c610ca0565b60405161030991906115dc565b34801561054557600080fd5b5061052c610cdb565b34801561055a57600080fd5b506102f5610569366004611604565b610d11565b6102d3610d31565b34801561058257600080fd5b506011546102f5906001600160a01b031681565b3480156105a257600080fd5b506103d56105b1366004611604565b610df1565b3480156105c257600080fd5b506102d36105d136600461155b565b610e91565b3480156105e257600080fd5b506105f66105f1366004611604565b610f52565b604051908152602001610309565b34801561061057600080fd5b506103d56040518060400160405280600681526020017f48454c495832000000000000000000000000000000000000000000000000000081525081565b34801561065957600080fd5b506018546102f5906001600160a01b031681565b34801561067957600080fd5b506105f6610688366004611604565b610f69565b34801561069957600080fd5b5061052c610f79565b6102d36106b036600461161d565b610fae565b3480156106c157600080fd5b506106ca6110dc565b6040516103099190611659565b3480156106e357600080fd5b506105f66106f2366004611604565b6111a3565b34801561070357600080fd5b506102d36107123660046115b0565b6111b3565b34801561072357600080fd5b506105f6610732366004611604565b611248565b34801561074357600080fd5b50601a546102f5906001600160a01b031681565b34801561076357600080fd5b5061052c611258565b34801561077857600080fd5b506000546001600160a01b03166102f5565b34801561079657600080fd5b506019546102f5906001600160a01b031681565b3480156107b657600080fd5b506102f56107c5366004611604565b61128e565b3480156107d657600080fd5b506102d36107e5366004611421565b61129e565b6000546001600160a01b0316331461082f576000546040516347522c7b60e11b81526001600160a01b0390911660048201523360248201526044015b60405180910390fd5b60408051838152602081018390527f1e63d23105a4055118805831d2e9ddfdd1d0aa649288ea6af88bc3f1a839aa4d910160405180910390a1806009836004811061087c5761087c6116c4565b01555050565b6000546001600160a01b031633146108c2576000546040516347522c7b60e11b81526001600160a01b039091166004820152336024820152604401610826565b7fe41d51d5fb8e385c5a9fe5bb74bdc64ccba6244430eccc72759a7c8169b7e9d3816040516108f191906116f3565b60405180910390a1610906601b82600461132b565b5050565b6000546001600160a01b0316331461094a576000546040516347522c7b60e11b81526001600160a01b039091166004820152336024820152604401610826565b7f791be3d751ae4a05964850f92fc1e74cd8f0c6ddcf6aef1001f583e5f1c950318160405161097991906116f3565b60405180910390a1610906601282600461132b565b6000546001600160a01b031633146109ce576000546040516347522c7b60e11b81526001600160a01b039091166004820152336024820152604401610826565b7f7fcd8173c4f7db37e3bb270284eaeae1d59547dd77434918796924c49055d91e816040516109fd919061172c565b60405180910390a16109066009826004611399565b6000546001600160a01b03163314610a52576000546040516347522c7b60e11b81526001600160a01b039091166004820152336024820152604401610826565b6040516001600160a01b03821681527f648122358341292aea1c223cd5bd9558c62e765ab13b1ae565d075e692d76b379060200160405180910390a1601180547fffffffffffffffffffffffff0000000000000000000000000000000000000000166001600160a01b0392909216919091179055565b610ad06113c7565b60408051608081019182905290601b9060049082845b81546001600160a01b03168152600190910190602001808311610ae6575050505050905090565b6000546001600160a01b03163314610b4d576000546040516347522c7b60e11b81526001600160a01b039091166004820152336024820152604401610826565b7f6116f7116dde91a0e9e26d165df2ff4da2a8825e58929b222641cc28d2e44f0e81604051610b7c919061172c565b60405180910390a1610906601f826004611399565b610b996113c7565b604080516080810191829052601280546001600160a01b031682529091600490601360208501808311610ae6575050505050905090565b6000546001600160a01b03163314610c10576000546040516347522c7b60e11b81526001600160a01b039091166004820152336024820152604401610826565b604080518381526001600160a01b03831660208201527f86999194e67d8c5fb1a642a451b86213ed4f5b67a6a36e9e4d5de8f053e58132910160405180910390a180601b8360048110610c6557610c656116c4565b0180547fffffffffffffffffffffffff0000000000000000000000000000000000000000166001600160a01b03929092169190911790555050565b610ca86113c7565b60408051608081019182905290600d9060049082845b815481526020019060010190808311610cbe575050505050905090565b610ce36113c7565b6040805160808101918290526005805482529091600490600660208501808311610cbe575050505050905090565b60128160048110610d2157600080fd5b01546001600160a01b0316905081565b600080546040516001600160a01b039091169047908381818185875af1925050503d8060008114610d7e576040519150601f19603f3d011682016040523d82523d6000602084013e610d83565b606091505b5050905080610dee576040517f08c379a000000000000000000000000000000000000000000000000000000000815260206004820152601360248201527f4554485f5452414e534645525f4641494c4544000000000000000000000000006044820152606401610826565b50565b60018160048110610e0157600080fd5b018054909150610e109061173b565b80601f0160208091040260200160405190810160405280929190818152602001828054610e3c9061173b565b8015610e895780601f10610e5e57610100808354040283529160200191610e89565b820191906000526020600020905b815481529060010190602001808311610e6c57829003601f168201915b505050505081565b6000546001600160a01b03163314610ed1576000546040516347522c7b60e11b81526001600160a01b039091166004820152336024820152604401610826565b600054604080516001600160a01b03928316815291831660208301527fdec101f106d4fc7c85791843e64b198248c822298e3ed7046231d33f7783d816910160405180910390a1600080547fffffffffffffffffffffffff0000000000000000000000000000000000000000166001600160a01b0392909216919091179055565b600d8160048110610f6257600080fd5b0154905081565b601f8160048110610f6257600080fd5b610f816113c7565b604080516080810191829052601f8054825290916004906020808501808311610cbe575050505050905090565b6000546001600160a01b03163314610fee576000546040516347522c7b60e11b81526001600160a01b039091166004820152336024820152604401610826565b7fffffffff00000000000000000000000000000000000000000000000000000000808316900361107a576040517f08c379a000000000000000000000000000000000000000000000000000000000815260206004820152601a60248201527f494e56414c49445f494e544552464143455f53454c4543544f520000000000006044820152606401610826565b7fffffffff0000000000000000000000000000000000000000000000000000000091909116600090815260246020526040902080547fffffffffffffffffffffffffffffffffffffffffffffffffffffffffffffff0016911515919091179055565b6110e46113e5565b6040805160808101909152600160046000835b8282101561119a57838201805461110d9061173b565b80601f01602080910402602001604051908101604052809291908181526020018280546111399061173b565b80156111865780601f1061115b57610100808354040283529160200191611186565b820191906000526020600020905b81548152906001019060200180831161116957829003601f168201915b5050505050815260200190600101906110f7565b50505050905090565b60098160048110610f6257600080fd5b6000546001600160a01b031633146111f3576000546040516347522c7b60e11b81526001600160a01b039091166004820152336024820152604401610826565b604080518381526001600160a01b03831660208201527f896e591224bbe75aedb047b3fd74204bb99d55e4cffb4c059fc669ca7474eb25910160405180910390a18060128360048110610c6557610c656116c4565b60058160048110610f6257600080fd5b6112606113c7565b6040805160808101918290526009805482529091600490600a60208501808311610cbe575050505050905090565b601b8160048110610d2157600080fd5b6000546001600160a01b031633146112de576000546040516347522c7b60e11b81526001600160a01b039091166004820152336024820152604401610826565b60408051838152602081018390527fb9362b96e28efbb7a7e63bb4a97faf9924ec0394635feff8588a6ae2a5f784fe910160405180910390a180601f836004811061087c5761087c6116c4565b8260048101928215611389579160200282015b828111156113895781547fffffffffffffffffffffffff0000000000000000000000000000000000000000166001600160a01b0384351617825560209092019160019091019061133e565b5061139592915061140c565b5090565b8260048101928215611389579160200282015b828111156113895782358255916020019190600101906113ac565b60405180608001604052806004906020820280368337509192915050565b60405180608001604052806004905b60608152602001906001900390816113f45790505090565b5b80821115611395576000815560010161140d565b6000806040838503121561143457600080fd5b50508035926020909101359150565b80357fffffffff000000000000000000000000000000000000000000000000000000008116811461147357600080fd5b919050565b60006020828403121561148a57600080fd5b61149382611443565b9392505050565b6000815180845260005b818110156114c0576020818501810151868301820152016114a4565b5060006020828601015260207fffffffffffffffffffffffffffffffffffffffffffffffffffffffffffffffe0601f83011685010191505092915050565b602081526000611493602083018461149a565b806080810183101561152257600080fd5b92915050565b60006080828403121561153a57600080fd5b6114938383611511565b80356001600160a01b038116811461147357600080fd5b60006020828403121561156d57600080fd5b61149382611544565b60808101818360005b60048110156115a75781516001600160a01b031683526020928301929091019060010161157f565b50505092915050565b600080604083850312156115c357600080fd5b823591506115d360208401611544565b90509250929050565b60808101818360005b60048110156115a75781518352602092830192909101906001016115e5565b60006020828403121561161657600080fd5b5035919050565b6000806040838503121561163057600080fd5b61163983611443565b91506020830135801515811461164e57600080fd5b809150509250929050565b602080825260009060a0830183820185845b60048110156116b8577fffffffffffffffffffffffffffffffffffffffffffffffffffffffffffffffe08785030183526116a684835161149a565b9350918401919084019060010161166b565b50919695505050505050565b7f4e487b7100000000000000000000000000000000000000000000000000000000600052603260045260246000fd5b60808101818360005b60048110156115a7576001600160a01b0361171683611544565b16835260209283019291909101906001016116fc565b60808181019083833792915050565b600181811c9082168061174f57607f821691505b602082108103611788577f4e487b7100000000000000000000000000000000000000000000000000000000600052602260045260246000fd5b5091905056fea2646970667358221220ed2df245498896f82fe84de7ea94a4797997cdc6297a14bc7b2c2aced8a9ea0664736f6c63430008100033",
    "linkReferences": {}
  },
  "methodIdentifiers": {
    "BONDS()": "b4abea24",
    "Dev()": "01e51ae8",
    "ENS()": "1d2e2cc4",
    "MOLECULES()": "f12e6548",
    "NAMES()": "05e84aa0",
    "POLYCULES()": "d9ebda12",
    "active()": "02fb0c5e",
    "changeDev(address)": "88a8c95c",
    "ensRegistry()": "7d73b231",
    "getENSRegistry()": "2f680795",
    "getIllegalBlocks()": "c2d4cdfc",
    "getLifespans()": "ec2ace2a",
    "getPrices()": "bd9a548b",
    "getRegistrar()": "4d3f7334",
    "getRegistry()": "5ab1bd53",
    "getRoothash()": "642a8ed6",
    "getSizes()": "66a0edce",
    "helix2Registrar(uint256)": "f1715fdc",
    "helix2Registry(uint256)": "70dec5f0",
    "illegalBlocks(uint256)": "80b29beb",
    "isDev()": "f079914f",
    "lifespans(uint256)": "ce721ac9",
    "name()": "06fdde03",
    "prices(uint256)": "bc31c1c1",
    "roothash(uint256)": "8dfcb1c7",
    "setENSRegistry(address)": "479f6152",
    "setInterface(bytes4,bool)": "c0a43a7c",
    "setLife(uint256,uint256)": "011163ba",
    "setLives(uint256[4])": "33647fac",
    "setPrice(uint256,uint256)": "f7d97577",
    "setPrices(uint256[4])": "548346a1",
    "setRegisteries(address[4])": "25597842",
    "setRegistrar(uint256,address)": "5c979fe4",
    "setRegistrars(address[4])": "101de7a4",
    "setRegistry(uint256,address)": "ce786f57",
    "sizes(uint256)": "d9a9b0c6",
    "supportsInterface(bytes4)": "01ffc9a7",
    "symbol()": "95d89b41",
    "withdrawEther()": "7362377b"
  },
  "id": 21
}