{
  "abi": [
    {
      "inputs": [
        {
          "internalType": "address",
          "name": "_dev",
          "type": "address"
        },
        {
          "internalType": "address",
          "name": "_you",
          "type": "address"
        }
      ],
      "name": "OnlyDev",
      "type": "error"
    },
    {
      "anonymous": false,
      "inputs": [
        {
          "indexed": false,
          "internalType": "address",
          "name": "Dev",
          "type": "address"
        },
        {
          "indexed": false,
          "internalType": "address",
          "name": "newDev",
          "type": "address"
        }
      ],
      "name": "NewDev",
      "type": "event"
    },
    {
      "anonymous": false,
      "inputs": [
        {
          "indexed": false,
          "internalType": "uint256",
          "name": "index",
          "type": "uint256"
        },
        {
          "indexed": false,
          "internalType": "uint256",
          "name": "newPrice",
          "type": "uint256"
        }
      ],
      "name": "NewPrice",
      "type": "event"
    },
    {
      "anonymous": false,
      "inputs": [
        {
          "indexed": false,
          "internalType": "uint256[4]",
          "name": "newPrices",
          "type": "uint256[4]"
        }
      ],
      "name": "NewPrices",
      "type": "event"
    },
    {
      "anonymous": false,
      "inputs": [
        {
          "indexed": false,
          "internalType": "address[4]",
          "name": "newReg",
          "type": "address[4]"
        }
      ],
      "name": "NewRegisters",
      "type": "event"
    },
    {
      "anonymous": false,
      "inputs": [
        {
          "indexed": false,
          "internalType": "uint256",
          "name": "index",
          "type": "uint256"
        },
        {
          "indexed": false,
          "internalType": "address",
          "name": "newReg",
          "type": "address"
        }
      ],
      "name": "NewRegistrar",
      "type": "event"
    },
    {
      "anonymous": false,
      "inputs": [
        {
          "indexed": false,
          "internalType": "address[4]",
          "name": "newReg",
          "type": "address[4]"
        }
      ],
      "name": "NewRegistrars",
      "type": "event"
    },
    {
      "anonymous": false,
      "inputs": [
        {
          "indexed": false,
          "internalType": "uint256",
          "name": "index",
          "type": "uint256"
        },
        {
          "indexed": false,
          "internalType": "address",
          "name": "newReg",
          "type": "address"
        }
      ],
      "name": "NewRegistry",
      "type": "event"
    },
    {
      "stateMutability": "payable",
      "type": "fallback"
    },
    {
      "inputs": [],
      "name": "BONDS",
      "outputs": [
        {
          "internalType": "contract iBOND",
          "name": "",
          "type": "address"
        }
      ],
      "stateMutability": "view",
      "type": "function"
    },
    {
      "inputs": [],
      "name": "Dev",
      "outputs": [
        {
          "internalType": "address",
          "name": "",
          "type": "address"
        }
      ],
      "stateMutability": "view",
      "type": "function"
    },
    {
      "inputs": [],
      "name": "ENS",
      "outputs": [
        {
          "internalType": "contract iENS",
          "name": "",
          "type": "address"
        }
      ],
      "stateMutability": "view",
      "type": "function"
    },
    {
      "inputs": [],
      "name": "MOLECULES",
      "outputs": [
        {
          "internalType": "contract iMOLECULE",
          "name": "",
          "type": "address"
        }
      ],
      "stateMutability": "view",
      "type": "function"
    },
    {
      "inputs": [],
      "name": "NAMES",
      "outputs": [
        {
          "internalType": "contract iNAME",
          "name": "",
          "type": "address"
        }
      ],
      "stateMutability": "view",
      "type": "function"
    },
    {
      "inputs": [],
      "name": "POLYCULES",
      "outputs": [
        {
          "internalType": "contract iPOLYCULE",
          "name": "",
          "type": "address"
        }
      ],
      "stateMutability": "view",
      "type": "function"
    },
    {
      "inputs": [],
      "name": "active",
      "outputs": [
        {
          "internalType": "bool",
          "name": "",
          "type": "bool"
        }
      ],
      "stateMutability": "view",
      "type": "function"
    },
    {
      "inputs": [
        {
          "internalType": "address",
          "name": "newDev",
          "type": "address"
        }
      ],
      "name": "changeDev",
      "outputs": [],
      "stateMutability": "nonpayable",
      "type": "function"
    },
    {
      "inputs": [],
      "name": "ensRegistry",
      "outputs": [
        {
          "internalType": "address",
          "name": "",
          "type": "address"
        }
      ],
      "stateMutability": "view",
      "type": "function"
    },
    {
      "inputs": [],
      "name": "getContract",
      "outputs": [
        {
          "internalType": "address",
          "name": "",
          "type": "address"
        }
      ],
      "stateMutability": "view",
      "type": "function"
    },
    {
      "inputs": [],
      "name": "getIllegalBlocks",
      "outputs": [
        {
          "internalType": "string[4]",
          "name": "",
          "type": "string[4]"
        }
      ],
      "stateMutability": "view",
      "type": "function"
    },
    {
      "inputs": [],
      "name": "getPrices",
      "outputs": [
        {
          "internalType": "uint256[4]",
          "name": "",
          "type": "uint256[4]"
        }
      ],
      "stateMutability": "view",
      "type": "function"
    },
    {
      "inputs": [],
      "name": "getRegistrar",
      "outputs": [
        {
          "internalType": "address[4]",
          "name": "",
          "type": "address[4]"
        }
      ],
      "stateMutability": "view",
      "type": "function"
    },
    {
      "inputs": [],
      "name": "getRegistry",
      "outputs": [
        {
          "internalType": "address[4]",
          "name": "",
          "type": "address[4]"
        }
      ],
      "stateMutability": "view",
      "type": "function"
    },
    {
      "inputs": [],
      "name": "getRoothash",
      "outputs": [
        {
          "internalType": "bytes32[4]",
          "name": "",
          "type": "bytes32[4]"
        }
      ],
      "stateMutability": "view",
      "type": "function"
    },
    {
      "inputs": [],
      "name": "getSizes",
      "outputs": [
        {
          "internalType": "uint256[4]",
          "name": "",
          "type": "uint256[4]"
        }
      ],
      "stateMutability": "view",
      "type": "function"
    },
    {
      "inputs": [
        {
          "internalType": "uint256",
          "name": "",
          "type": "uint256"
        }
      ],
      "name": "helix2Registrar",
      "outputs": [
        {
          "internalType": "address",
          "name": "",
          "type": "address"
        }
      ],
      "stateMutability": "view",
      "type": "function"
    },
    {
      "inputs": [
        {
          "internalType": "uint256",
          "name": "",
          "type": "uint256"
        }
      ],
      "name": "helix2Registry",
      "outputs": [
        {
          "internalType": "address",
          "name": "",
          "type": "address"
        }
      ],
      "stateMutability": "view",
      "type": "function"
    },
    {
      "inputs": [
        {
          "internalType": "uint256",
          "name": "",
          "type": "uint256"
        }
      ],
      "name": "illegalBlocks",
      "outputs": [
        {
          "internalType": "string",
          "name": "",
          "type": "string"
        }
      ],
      "stateMutability": "view",
      "type": "function"
    },
    {
      "inputs": [],
      "name": "isDev",
      "outputs": [
        {
          "internalType": "address",
          "name": "",
          "type": "address"
        }
      ],
      "stateMutability": "view",
      "type": "function"
    },
    {
      "inputs": [],
      "name": "name",
      "outputs": [
        {
          "internalType": "string",
          "name": "",
          "type": "string"
        }
      ],
      "stateMutability": "view",
      "type": "function"
    },
    {
      "inputs": [
        {
          "internalType": "uint256",
          "name": "",
          "type": "uint256"
        }
      ],
      "name": "prices",
      "outputs": [
        {
          "internalType": "uint256",
          "name": "",
          "type": "uint256"
        }
      ],
      "stateMutability": "view",
      "type": "function"
    },
    {
      "inputs": [
        {
          "internalType": "uint256",
          "name": "",
          "type": "uint256"
        }
      ],
      "name": "roothash",
      "outputs": [
        {
          "internalType": "bytes32",
          "name": "",
          "type": "bytes32"
        }
      ],
      "stateMutability": "view",
      "type": "function"
    },
    {
      "inputs": [
        {
          "internalType": "bytes4",
          "name": "sig",
          "type": "bytes4"
        },
        {
          "internalType": "bool",
          "name": "value",
          "type": "bool"
        }
      ],
      "name": "setInterface",
      "outputs": [],
      "stateMutability": "payable",
      "type": "function"
    },
    {
      "inputs": [
        {
          "internalType": "uint256",
          "name": "index",
          "type": "uint256"
        },
        {
          "internalType": "uint256",
          "name": "newPrice",
          "type": "uint256"
        }
      ],
      "name": "setPrice",
      "outputs": [],
      "stateMutability": "nonpayable",
      "type": "function"
    },
    {
      "inputs": [
        {
          "internalType": "uint256[4]",
          "name": "newPrices",
          "type": "uint256[4]"
        }
      ],
      "name": "setPrices",
      "outputs": [],
      "stateMutability": "nonpayable",
      "type": "function"
    },
    {
      "inputs": [
        {
          "internalType": "address[4]",
          "name": "newReg",
          "type": "address[4]"
        }
      ],
      "name": "setRegisters",
      "outputs": [],
      "stateMutability": "nonpayable",
      "type": "function"
    },
    {
      "inputs": [
        {
          "internalType": "uint256",
          "name": "index",
          "type": "uint256"
        },
        {
          "internalType": "address",
          "name": "newReg",
          "type": "address"
        }
      ],
      "name": "setRegistrar",
      "outputs": [],
      "stateMutability": "nonpayable",
      "type": "function"
    },
    {
      "inputs": [
        {
          "internalType": "address[4]",
          "name": "newReg",
          "type": "address[4]"
        }
      ],
      "name": "setRegistrars",
      "outputs": [],
      "stateMutability": "nonpayable",
      "type": "function"
    },
    {
      "inputs": [
        {
          "internalType": "uint256",
          "name": "index",
          "type": "uint256"
        },
        {
          "internalType": "address",
          "name": "newReg",
          "type": "address"
        }
      ],
      "name": "setRegistry",
      "outputs": [],
      "stateMutability": "nonpayable",
      "type": "function"
    },
    {
      "inputs": [
        {
          "internalType": "uint256",
          "name": "",
          "type": "uint256"
        }
      ],
      "name": "sizes",
      "outputs": [
        {
          "internalType": "uint256",
          "name": "",
          "type": "uint256"
        }
      ],
      "stateMutability": "view",
      "type": "function"
    },
    {
      "inputs": [
        {
          "internalType": "bytes4",
          "name": "",
          "type": "bytes4"
        }
      ],
      "name": "supportsInterface",
      "outputs": [
        {
          "internalType": "bool",
          "name": "",
          "type": "bool"
        }
      ],
      "stateMutability": "view",
      "type": "function"
    },
    {
      "inputs": [],
      "name": "symbol",
      "outputs": [
        {
          "internalType": "string",
          "name": "",
          "type": "string"
        }
      ],
      "stateMutability": "view",
      "type": "function"
    },
    {
      "inputs": [],
      "name": "withdrawEther",
      "outputs": [],
      "stateMutability": "payable",
      "type": "function"
    },
    {
      "stateMutability": "payable",
      "type": "receive"
    }
  ],
  "bytecode": {
    "object": "0x6001610100818152601760f91b610120526080908152610140828152603f60f81b6101605260a052610180828152602160f81b6101a05260c0526102006040526101c0828152602360f81b6101e05260e0526200005f9190600462000332565b5060408051608081018252602080825280820181905291810182905260608101919091526200009390600590600462000382565b5060408051608081018252600060a082018190527f6f010af653ebe3cb07d297a4ef13366103d392ceffa68dd48232e6e9ff2187bf60c0808401919091528351808403909101815260e0830184528051602091820120835283518082018390527f5f179612d7132c8ed24ba0e286d60d398c4aa1c234eb2274ca1bba47718e9d3181860152845180820386018152606091820186528051908301208285015284518083018490527f3275a893b2c93461554cf2a4dd7f413d56decdd6f3fdf0589dbb8bc4fd742386818701528551808203870181529082018652805190830120848601528451808301939093527face738c68088218d015fbdce138f062893d86818ac98932f7ce2907c5976fbde83860152845180840386018152928101909452815191012091810191909152620001d0906009906004620003c6565b50600d80546001600160a01b0319166e0c2e074ec69a0dfb2997ba6c7d2e1e1790556040805160808101825260018152600260208201526003918101919091526004606082018190526200022791600e91620003f7565b50600d54601280546001600160a01b03199081166001600160a01b0393841617909155600e54601380548316918416919091179055600f54601480548316918416919091179055601054601580548316918416919091179055601154601680549092169216919091179055604080516080810182526001815260026020820152600391810191909152600460608201819052620002c791601791620003f7565b506040805160808101825262030d40808252602082018190529181018290526060810191909152620002fe90601b90600462000442565b50601f805460ff191660011790553480156200031957600080fd5b50600080546001600160a01b0319163317905562000665565b826004810192821562000370579160200282015b828111156200037057825182906200035f908262000599565b509160200191906001019062000346565b506200037e9291506200047a565b5090565b8260048101928215620003b8579160200282015b82811115620003b8578251829060ff1690559160200191906001019062000396565b506200037e9291506200049b565b8260048101928215620003b8579160200282015b82811115620003b8578251825591602001919060010190620003da565b8260048101928215620003b8579160200282015b82811115620003b857825182546001600160a01b0319166001600160a01b039091161782556020909201916001909101906200040b565b8260048101928215620003b8579160200282015b82811115620003b8578251829062ffffff1690559160200191906001019062000456565b808211156200037e576000620004918282620004b2565b506001016200047a565b5b808211156200037e57600081556001016200049c565b508054620004c0906200050a565b6000825580601f10620004d1575050565b601f016020900490600052602060002090810190620004f191906200049b565b50565b634e487b7160e01b600052604160045260246000fd5b600181811c908216806200051f57607f821691505b6020821081036200054057634e487b7160e01b600052602260045260246000fd5b50919050565b601f8211156200059457600081815260208120601f850160051c810160208610156200056f5750805b601f850160051c820191505b8181101562000590578281556001016200057b565b5050505b505050565b81516001600160401b03811115620005b557620005b5620004f4565b620005cd81620005c684546200050a565b8462000546565b602080601f831160018114620006055760008415620005ec5750858301515b600019600386901b1c1916600185901b17855562000590565b600085815260208120601f198616915b82811015620006365788860151825594840194600190910190840162000615565b5085821015620006555787850151600019600388901b60f8161c191681555b5050505050600190811b01905550565b61148f80620006756000396000f3fe60806040526004361061021d5760003560e01c806380b29beb1161011d578063c0a43a7c116100b0578063d9ebda121161007f578063f12e654811610064578063f12e654814610662578063f1715fdc14610682578063f7d97577146106a257600080fd5b8063d9ebda1214610624578063f079914f1461064457600080fd5b8063c0a43a7c146105af578063c2d4cdfc146105c2578063ce786f57146105e4578063d9a9b0c61461060457600080fd5b806395d89b41116100ec57806395d89b4114610511578063b4abea241461055a578063bc31c1c11461057a578063bd9a548b1461059a57600080fd5b806380b29beb1461049057806388a8c95c146104b05780638dfcb1c7146104d0578063958f85bd146104fe57600080fd5b80635027c2ac116101b0578063642a8ed61161017f57806370dec5f01161016457806370dec5f0146104485780637362377b146104685780637d73b2311461047057600080fd5b8063642a8ed61461041157806366a0edce1461043357600080fd5b80635027c2ac1461039c578063548346a1146103bc5780635ab1bd53146103dc5780635c979fe4146103f157600080fd5b806306fdde03116101ec57806306fdde03146102e2578063101de7a4146103385780631d2e2cc41461035a5780634d3f73341461037a57600080fd5b806301e51ae81461022c57806301ffc9a71461026957806302fb0c5e146102a857806305e84aa0146102c257600080fd5b3661022757600080fd5b600080fd5b34801561023857600080fd5b5060005461024c906001600160a01b031681565b6040516001600160a01b0390911681526020015b60405180910390f35b34801561027557600080fd5b50610298610284366004611121565b602080526000908152604090205460ff1681565b6040519015158152602001610260565b3480156102b457600080fd5b50601f546102989060ff1681565b3480156102ce57600080fd5b5060135461024c906001600160a01b031681565b3480156102ee57600080fd5b5061032b6040518060400160405280601381526020017f48656c697832204c696e6b20536572766963650000000000000000000000000081525081565b60405161026091906111a7565b34801561034457600080fd5b506103586103533660046111d1565b6106c2565b005b34801561036657600080fd5b5060125461024c906001600160a01b031681565b34801561038657600080fd5b5061038f61074f565b60405161026091906111ed565b3480156103a857600080fd5b506103586103b73660046111d1565b610794565b3480156103c857600080fd5b506103586103d73660046111d1565b610818565b3480156103e857600080fd5b5061038f61089c565b3480156103fd57600080fd5b5061035861040c36600461123e565b6108db565b34801561041d57600080fd5b506104266109ab565b604051610260919061126a565b34801561043f57600080fd5b506104266109e6565b34801561045457600080fd5b5061024c610463366004611292565b610a1c565b610358610a3c565b34801561047c57600080fd5b50600d5461024c906001600160a01b031681565b34801561049c57600080fd5b5061032b6104ab366004611292565b610afc565b3480156104bc57600080fd5b506103586104cb3660046112ab565b610b9c565b3480156104dc57600080fd5b506104f06104eb366004611292565b610c5d565b604051908152602001610260565b34801561050a57600080fd5b503061024c565b34801561051d57600080fd5b5061032b6040518060400160405280600681526020017f48454c495832000000000000000000000000000000000000000000000000000081525081565b34801561056657600080fd5b5060145461024c906001600160a01b031681565b34801561058657600080fd5b506104f0610595366004611292565b610c74565b3480156105a657600080fd5b50610426610c84565b6103586105bd3660046112c6565b610cba565b3480156105ce57600080fd5b506105d7610de7565b6040516102609190611302565b3480156105f057600080fd5b506103586105ff36600461123e565b610eae565b34801561061057600080fd5b506104f061061f366004611292565b610f43565b34801561063057600080fd5b5060165461024c906001600160a01b031681565b34801561065057600080fd5b506000546001600160a01b031661024c565b34801561066e57600080fd5b5060155461024c906001600160a01b031681565b34801561068e57600080fd5b5061024c61069d366004611292565b610f53565b3480156106ae57600080fd5b506103586106bd36600461136d565b610f63565b6000546001600160a01b03163314610707576000546040516347522c7b60e11b81526001600160a01b0390911660048201523360248201526044015b60405180910390fd5b7fe41d51d5fb8e385c5a9fe5bb74bdc64ccba6244430eccc72759a7c8169b7e9d381604051610736919061138f565b60405180910390a161074b6017826004610ff6565b5050565b610757611064565b6040805160808101918290529060179060049082845b81546001600160a01b0316815260019091019060200180831161076d575050505050905090565b6000546001600160a01b031633146107d4576000546040516347522c7b60e11b81526001600160a01b0390911660048201523360248201526044016106fe565b7f5aa375bb18377b2371c34ad676c9025701c6eb786496fe1eb984ff9ef4d5aad381604051610803919061138f565b60405180910390a161074b600e826004610ff6565b6000546001600160a01b03163314610858576000546040516347522c7b60e11b81526001600160a01b0390911660048201523360248201526044016106fe565b7f6116f7116dde91a0e9e26d165df2ff4da2a8825e58929b222641cc28d2e44f0e8160405161088791906113c8565b60405180910390a161074b601b826004611082565b6108a4611064565b604080516080810191829052600e80546001600160a01b031682529091600490600f6020850180831161076d575050505050905090565b6000546001600160a01b0316331461091b576000546040516347522c7b60e11b81526001600160a01b0390911660048201523360248201526044016106fe565b604080518381526001600160a01b03831660208201527f86999194e67d8c5fb1a642a451b86213ed4f5b67a6a36e9e4d5de8f053e58132910160405180910390a18060178360048110610970576109706113d7565b0180547fffffffffffffffffffffffff0000000000000000000000000000000000000000166001600160a01b03929092169190911790555050565b6109b3611064565b6040805160808101918290529060099060049082845b8154815260200190600101908083116109c9575050505050905090565b6109ee611064565b60408051608081019182905260058054825290916004906006602085018083116109c9575050505050905090565b600e8160048110610a2c57600080fd5b01546001600160a01b0316905081565b600080546040516001600160a01b039091169047908381818185875af1925050503d8060008114610a89576040519150601f19603f3d011682016040523d82523d6000602084013e610a8e565b606091505b5050905080610af9576040517f08c379a000000000000000000000000000000000000000000000000000000000815260206004820152601360248201527f4554485f5452414e534645525f4641494c45440000000000000000000000000060448201526064016106fe565b50565b60018160048110610b0c57600080fd5b018054909150610b1b90611406565b80601f0160208091040260200160405190810160405280929190818152602001828054610b4790611406565b8015610b945780601f10610b6957610100808354040283529160200191610b94565b820191906000526020600020905b815481529060010190602001808311610b7757829003601f168201915b505050505081565b6000546001600160a01b03163314610bdc576000546040516347522c7b60e11b81526001600160a01b0390911660048201523360248201526044016106fe565b600054604080516001600160a01b03928316815291831660208301527fdec101f106d4fc7c85791843e64b198248c822298e3ed7046231d33f7783d816910160405180910390a1600080547fffffffffffffffffffffffff0000000000000000000000000000000000000000166001600160a01b0392909216919091179055565b60098160048110610c6d57600080fd5b0154905081565b601b8160048110610c6d57600080fd5b610c8c611064565b604080516080810191829052601b805482529091600490601c602085018083116109c9575050505050905090565b6000546001600160a01b03163314610cfa576000546040516347522c7b60e11b81526001600160a01b0390911660048201523360248201526044016106fe565b7fffffffff000000000000000000000000000000000000000000000000000000008083169003610d86576040517f08c379a000000000000000000000000000000000000000000000000000000000815260206004820152601a60248201527f494e56414c49445f494e544552464143455f53454c4543544f5200000000000060448201526064016106fe565b7fffffffff00000000000000000000000000000000000000000000000000000000919091166000908152602080526040902080547fffffffffffffffffffffffffffffffffffffffffffffffffffffffffffffff0016911515919091179055565b610def6110b0565b6040805160808101909152600160046000835b82821015610ea5578382018054610e1890611406565b80601f0160208091040260200160405190810160405280929190818152602001828054610e4490611406565b8015610e915780601f10610e6657610100808354040283529160200191610e91565b820191906000526020600020905b815481529060010190602001808311610e7457829003601f168201915b505050505081526020019060010190610e02565b50505050905090565b6000546001600160a01b03163314610eee576000546040516347522c7b60e11b81526001600160a01b0390911660048201523360248201526044016106fe565b604080518381526001600160a01b03831660208201527f896e591224bbe75aedb047b3fd74204bb99d55e4cffb4c059fc669ca7474eb25910160405180910390a180600e8360048110610970576109706113d7565b60058160048110610c6d57600080fd5b60178160048110610a2c57600080fd5b6000546001600160a01b03163314610fa3576000546040516347522c7b60e11b81526001600160a01b0390911660048201523360248201526044016106fe565b60408051838152602081018390527fb9362b96e28efbb7a7e63bb4a97faf9924ec0394635feff8588a6ae2a5f784fe910160405180910390a180601b8360048110610ff057610ff06113d7565b01555050565b8260048101928215611054579160200282015b828111156110545781547fffffffffffffffffffffffff0000000000000000000000000000000000000000166001600160a01b03843516178255602090920191600190910190611009565b506110609291506110d7565b5090565b60405180608001604052806004906020820280368337509192915050565b8260048101928215611054579160200282015b82811115611054578235825591602001919060010190611095565b60405180608001604052806004905b60608152602001906001900390816110bf5790505090565b5b8082111561106057600081556001016110d8565b80357fffffffff000000000000000000000000000000000000000000000000000000008116811461111c57600080fd5b919050565b60006020828403121561113357600080fd5b61113c826110ec565b9392505050565b6000815180845260005b818110156111695760208185018101518683018201520161114d565b5060006020828601015260207fffffffffffffffffffffffffffffffffffffffffffffffffffffffffffffffe0601f83011685010191505092915050565b60208152600061113c6020830184611143565b80608081018310156111cb57600080fd5b92915050565b6000608082840312156111e357600080fd5b61113c83836111ba565b60808101818360005b600481101561121e5781516001600160a01b03168352602092830192909101906001016111f6565b50505092915050565b80356001600160a01b038116811461111c57600080fd5b6000806040838503121561125157600080fd5b8235915061126160208401611227565b90509250929050565b60808101818360005b600481101561121e578151835260209283019290910190600101611273565b6000602082840312156112a457600080fd5b5035919050565b6000602082840312156112bd57600080fd5b61113c82611227565b600080604083850312156112d957600080fd5b6112e2836110ec565b9150602083013580151581146112f757600080fd5b809150509250929050565b602080825260009060a0830183820185845b6004811015611361577fffffffffffffffffffffffffffffffffffffffffffffffffffffffffffffffe087850301835261134f848351611143565b93509184019190840190600101611314565b50919695505050505050565b6000806040838503121561138057600080fd5b50508035926020909101359150565b60808101818360005b600481101561121e576001600160a01b036113b283611227565b1683526020928301929190910190600101611398565b60808181019083833792915050565b7f4e487b7100000000000000000000000000000000000000000000000000000000600052603260045260246000fd5b600181811c9082168061141a57607f821691505b602082108103611453577f4e487b7100000000000000000000000000000000000000000000000000000000600052602260045260246000fd5b5091905056fea26469706673582212202bc8290c2b3a6b1e647aa54b18539252cda289410354a0b61c685e251a6213ab64736f6c63430008100033",
    "linkReferences": {}
  },
  "methodIdentifiers": {
    "BONDS()": "b4abea24",
    "Dev()": "01e51ae8",
    "ENS()": "1d2e2cc4",
    "MOLECULES()": "f12e6548",
    "NAMES()": "05e84aa0",
    "POLYCULES()": "d9ebda12",
    "active()": "02fb0c5e",
    "changeDev(address)": "88a8c95c",
    "ensRegistry()": "7d73b231",
    "getContract()": "958f85bd",
    "getIllegalBlocks()": "c2d4cdfc",
    "getPrices()": "bd9a548b",
    "getRegistrar()": "4d3f7334",
    "getRegistry()": "5ab1bd53",
    "getRoothash()": "642a8ed6",
    "getSizes()": "66a0edce",
    "helix2Registrar(uint256)": "f1715fdc",
    "helix2Registry(uint256)": "70dec5f0",
    "illegalBlocks(uint256)": "80b29beb",
    "isDev()": "f079914f",
    "name()": "06fdde03",
    "prices(uint256)": "bc31c1c1",
    "roothash(uint256)": "8dfcb1c7",
    "setInterface(bytes4,bool)": "c0a43a7c",
    "setPrice(uint256,uint256)": "f7d97577",
    "setPrices(uint256[4])": "548346a1",
    "setRegisters(address[4])": "5027c2ac",
    "setRegistrar(uint256,address)": "5c979fe4",
    "setRegistrars(address[4])": "101de7a4",
    "setRegistry(uint256,address)": "ce786f57",
    "sizes(uint256)": "d9a9b0c6",
    "supportsInterface(bytes4)": "01ffc9a7",
    "symbol()": "95d89b41",
    "withdrawEther()": "7362377b"
  },
  "id": 18
}