{
  "abi": [
    {
      "inputs": [
        {
          "internalType": "address",
          "name": "_registry",
          "type": "address"
        }
      ],
      "stateMutability": "nonpayable",
      "type": "constructor"
    },
    {
      "anonymous": false,
      "inputs": [
        {
          "indexed": true,
          "internalType": "address",
          "name": "previousOwner",
          "type": "address"
        },
        {
          "indexed": true,
          "internalType": "address",
          "name": "newOwner",
          "type": "address"
        }
      ],
      "name": "OwnershipTransferred",
      "type": "event"
    },
    {
      "inputs": [
        {
          "internalType": "bytes32",
          "name": "",
          "type": "bytes32"
        }
      ],
      "name": "Bonds",
      "outputs": [
        {
          "internalType": "bytes32",
          "name": "_cation",
          "type": "bytes32"
        },
        {
          "internalType": "bytes32",
          "name": "_anion",
          "type": "bytes32"
        },
        {
          "internalType": "bytes32",
          "name": "_label",
          "type": "bytes32"
        },
        {
          "internalType": "address",
          "name": "_resolver",
          "type": "address"
        },
        {
          "internalType": "address",
          "name": "_controller",
          "type": "address"
        },
        {
          "internalType": "bool",
          "name": "_covalence",
          "type": "bool"
        },
        {
          "internalType": "uint256",
          "name": "_expiry",
          "type": "uint256"
        }
      ],
      "stateMutability": "view",
      "type": "function"
    },
    {
      "inputs": [],
      "name": "Dev",
      "outputs": [
        {
          "internalType": "address",
          "name": "",
          "type": "address"
        }
      ],
      "stateMutability": "view",
      "type": "function"
    },
    {
      "inputs": [],
      "name": "Registry",
      "outputs": [
        {
          "internalType": "address",
          "name": "",
          "type": "address"
        }
      ],
      "stateMutability": "view",
      "type": "function"
    },
    {
      "inputs": [],
      "name": "active",
      "outputs": [
        {
          "internalType": "bool",
          "name": "",
          "type": "bool"
        }
      ],
      "stateMutability": "view",
      "type": "function"
    },
    {
      "inputs": [
        {
          "internalType": "bytes32",
          "name": "bondhash",
          "type": "bytes32"
        }
      ],
      "name": "anion",
      "outputs": [
        {
          "internalType": "bytes32",
          "name": "",
          "type": "bytes32"
        }
      ],
      "stateMutability": "view",
      "type": "function"
    },
    {
      "inputs": [
        {
          "internalType": "bytes32",
          "name": "bondhash",
          "type": "bytes32"
        }
      ],
      "name": "cation",
      "outputs": [
        {
          "internalType": "bytes32",
          "name": "",
          "type": "bytes32"
        }
      ],
      "stateMutability": "view",
      "type": "function"
    },
    {
      "inputs": [
        {
          "internalType": "bytes32",
          "name": "bondhash",
          "type": "bytes32"
        }
      ],
      "name": "controller",
      "outputs": [
        {
          "internalType": "address",
          "name": "",
          "type": "address"
        }
      ],
      "stateMutability": "view",
      "type": "function"
    },
    {
      "inputs": [
        {
          "internalType": "bytes32",
          "name": "bondhash",
          "type": "bytes32"
        }
      ],
      "name": "covalence",
      "outputs": [
        {
          "internalType": "bool",
          "name": "",
          "type": "bool"
        }
      ],
      "stateMutability": "view",
      "type": "function"
    },
    {
      "inputs": [
        {
          "internalType": "bytes32",
          "name": "bondhash",
          "type": "bytes32"
        }
      ],
      "name": "expiry",
      "outputs": [
        {
          "internalType": "uint256",
          "name": "",
          "type": "uint256"
        }
      ],
      "stateMutability": "view",
      "type": "function"
    },
    {
      "inputs": [
        {
          "internalType": "bytes32",
          "name": "bondhash",
          "type": "bytes32"
        },
        {
          "internalType": "address",
          "name": "config",
          "type": "address"
        },
        {
          "internalType": "uint8",
          "name": "rule",
          "type": "uint8"
        }
      ],
      "name": "hook",
      "outputs": [],
      "stateMutability": "nonpayable",
      "type": "function"
    },
    {
      "inputs": [
        {
          "internalType": "bytes32",
          "name": "bondhash",
          "type": "bytes32"
        }
      ],
      "name": "hooksWithRules",
      "outputs": [
        {
          "internalType": "uint8[]",
          "name": "_rules",
          "type": "uint8[]"
        },
        {
          "internalType": "address[]",
          "name": "_hooks",
          "type": "address[]"
        }
      ],
      "stateMutability": "view",
      "type": "function"
    },
    {
      "inputs": [
        {
          "internalType": "bytes32",
          "name": "bondhash",
          "type": "bytes32"
        }
      ],
      "name": "label",
      "outputs": [
        {
          "internalType": "bytes32",
          "name": "",
          "type": "bytes32"
        }
      ],
      "stateMutability": "view",
      "type": "function"
    },
    {
      "inputs": [],
      "name": "owner",
      "outputs": [
        {
          "internalType": "address",
          "name": "",
          "type": "address"
        }
      ],
      "stateMutability": "view",
      "type": "function"
    },
    {
      "inputs": [
        {
          "internalType": "bytes32",
          "name": "bondhash",
          "type": "bytes32"
        }
      ],
      "name": "recordExists",
      "outputs": [
        {
          "internalType": "bool",
          "name": "",
          "type": "bool"
        }
      ],
      "stateMutability": "view",
      "type": "function"
    },
    {
      "inputs": [
        {
          "internalType": "bytes32",
          "name": "bondhash",
          "type": "bytes32"
        },
        {
          "internalType": "address",
          "name": "config",
          "type": "address"
        },
        {
          "internalType": "uint8",
          "name": "rule",
          "type": "uint8"
        }
      ],
      "name": "rehook",
      "outputs": [],
      "stateMutability": "nonpayable",
      "type": "function"
    },
    {
      "inputs": [
        {
          "internalType": "bytes32",
          "name": "bondhash",
          "type": "bytes32"
        }
      ],
      "name": "resolver",
      "outputs": [
        {
          "internalType": "address",
          "name": "",
          "type": "address"
        }
      ],
      "stateMutability": "view",
      "type": "function"
    },
    {
      "inputs": [
        {
          "internalType": "bytes32",
          "name": "bondhash",
          "type": "bytes32"
        },
        {
          "internalType": "bytes32",
          "name": "_anion",
          "type": "bytes32"
        }
      ],
      "name": "setAnion",
      "outputs": [],
      "stateMutability": "nonpayable",
      "type": "function"
    },
    {
      "inputs": [
        {
          "internalType": "bytes32",
          "name": "bondhash",
          "type": "bytes32"
        },
        {
          "internalType": "bytes32",
          "name": "_cation",
          "type": "bytes32"
        }
      ],
      "name": "setCation",
      "outputs": [],
      "stateMutability": "nonpayable",
      "type": "function"
    },
    {
      "inputs": [
        {
          "internalType": "address",
          "name": "_registry",
          "type": "address"
        }
      ],
      "name": "setConfig",
      "outputs": [],
      "stateMutability": "nonpayable",
      "type": "function"
    },
    {
      "inputs": [
        {
          "internalType": "bytes32",
          "name": "bondhash",
          "type": "bytes32"
        },
        {
          "internalType": "address",
          "name": "_controller",
          "type": "address"
        }
      ],
      "name": "setController",
      "outputs": [],
      "stateMutability": "nonpayable",
      "type": "function"
    },
    {
      "inputs": [
        {
          "internalType": "bytes32",
          "name": "bondhash",
          "type": "bytes32"
        },
        {
          "internalType": "bool",
          "name": "_covalence",
          "type": "bool"
        }
      ],
      "name": "setCovalence",
      "outputs": [],
      "stateMutability": "nonpayable",
      "type": "function"
    },
    {
      "inputs": [
        {
          "internalType": "bytes32",
          "name": "bondhash",
          "type": "bytes32"
        },
        {
          "internalType": "uint256",
          "name": "_expiry",
          "type": "uint256"
        }
      ],
      "name": "setExpiry",
      "outputs": [],
      "stateMutability": "nonpayable",
      "type": "function"
    },
    {
      "inputs": [
        {
          "internalType": "bytes32",
          "name": "bondhash",
          "type": "bytes32"
        },
        {
          "internalType": "bytes32",
          "name": "_label",
          "type": "bytes32"
        }
      ],
      "name": "setLabel",
      "outputs": [],
      "stateMutability": "nonpayable",
      "type": "function"
    },
    {
      "inputs": [
        {
          "internalType": "bytes32",
          "name": "bondhash",
          "type": "bytes32"
        },
        {
          "internalType": "address",
          "name": "_resolver",
          "type": "address"
        }
      ],
      "name": "setResolver",
      "outputs": [],
      "stateMutability": "nonpayable",
      "type": "function"
    },
    {
      "inputs": [],
      "name": "toggleActive",
      "outputs": [],
      "stateMutability": "nonpayable",
      "type": "function"
    },
    {
      "inputs": [
        {
          "internalType": "address",
          "name": "newDev",
          "type": "address"
        }
      ],
      "name": "transferOwnership",
      "outputs": [],
      "stateMutability": "nonpayable",
      "type": "function"
    },
    {
      "inputs": [
        {
          "internalType": "bytes32",
          "name": "bondhash",
          "type": "bytes32"
        },
        {
          "internalType": "uint8",
          "name": "rule",
          "type": "uint8"
        },
        {
          "internalType": "uint256",
          "name": "index",
          "type": "uint256"
        }
      ],
      "name": "unhook",
      "outputs": [],
      "stateMutability": "nonpayable",
      "type": "function"
    },
    {
      "inputs": [
        {
          "internalType": "bytes32",
          "name": "bondhash",
          "type": "bytes32"
        }
      ],
      "name": "unhookAll",
      "outputs": [],
      "stateMutability": "nonpayable",
      "type": "function"
    }
  ],
  "bytecode": {
    "object": "0x60806040526001805460ff60a01b1916600160a01b17905534801561002357600080fd5b5060405161146838038061146883398101604081905261004291610070565b600180546001600160a01b039092166001600160a01b031992831617905560008054909116331790556100a0565b60006020828403121561008257600080fd5b81516001600160a01b038116811461009957600080fd5b9392505050565b6113b9806100af6000396000f3fe608060405234801561001057600080fd5b50600436106101c45760003560e01c80638146970a116100f9578063d2ec5fca11610097578063deee4da911610071578063deee4da91461050e578063f2fde38b14610521578063f61ccd5314610534578063f79fe5381461055857600080fd5b8063d2ec5fca146104ac578063d3156905146104cf578063dbd4e021146104e257600080fd5b8063849a799c116100d3578063849a799c146104625780638da5cb5b14610475578063a3be52a214610486578063d07699aa1461049957600080fd5b80638146970a14610429578063833fda081461043c578063836697261461044f57600080fd5b806320e3dbd4116101665780633402685911610140578063340268591461031257806339de64691461035057806363a44e69146103635780637db9743b1461041657600080fd5b806320e3dbd4146102e457806321ec2b5b146102f757806329c68dc11461030a57600080fd5b80630aac6625116101a25780630aac66251461025a5780630e68b1161461027b5780631896f70a146102ac5780631fc4859e146102c157600080fd5b80630178b8bf146101c957806301e51ae81461021257806302fb0c5e14610225575b600080fd5b6101f56101d73660046110e3565b6000908152600260205260409020600501546001600160a01b031690565b6040516001600160a01b0390911681526020015b60405180910390f35b6000546101f5906001600160a01b031681565b60015461024a9074010000000000000000000000000000000000000000900460ff1681565b6040519015158152602001610209565b61026d6102683660046110e3565b61057d565b6040516102099291906110fc565b61029e6102893660046110e3565b60009081526002602052604090206003015490565b604051908152602001610209565b6102bf6102ba36600461119f565b6106eb565b005b61029e6102cf3660046110e3565b60009081526002602052604090206004015490565b6102bf6102f23660046111cb565b610793565b6102bf6103053660046110e3565b610827565b6102bf61094f565b61024a6103203660046110e3565b60009081526002602052604090206006015474010000000000000000000000000000000000000000900460ff1690565b6102bf61035e3660046111ed565b6109f6565b6103d66103713660046110e3565b60026020819052600091825260409091209081015460038201546004830154600584015460068501546007909501549394929391926001600160a01b0391821692918116917401000000000000000000000000000000000000000090910460ff169087565b604080519788526020880196909652948601939093526001600160a01b039182166060860152166080840152151560a083015260c082015260e001610209565b6001546101f5906001600160a01b031681565b6102bf6104373660046111ed565b610ac5565b6102bf61044a366004611220565b610b36565b6102bf61045d366004611255565b610c14565b6102bf610470366004611255565b610cc8565b6000546001600160a01b03166101f5565b6102bf6104943660046111ed565b610da8565b6102bf6104a7366004611291565b610e17565b61029e6104ba3660046110e3565b60009081526002602052604090206007015490565b6102bf6104dd36600461119f565b610ecb565b6101f56104f03660046110e3565b6000908152600260205260409020600601546001600160a01b031690565b6102bf61051c3660046111ed565b610f6e565b6102bf61052f3660046111cb565b610fdd565b61029e6105423660046110e3565b6000908152600260208190526040909120015490565b61024a6105663660046110e3565b600090815260026020526040902060070154421090565b60008181526002602090815260409182902080548351818402810184019094528084526060938493909291908301828280156105f657602002820191906000526020600020906000905b825461010083900a900460ff168152602060019283018181049485019490930390920291018084116105c75790505b50505050509150815167ffffffffffffffff811115610617576106176112c6565b604051908082528060200260200182016040528015610640578160200160208202803683370190505b50905060005b82518110156106e557600260008581526020019081526020016000206001016000848381518110610679576106796112f5565b602002602001015160ff1660ff16815260200190815260200160002060009054906101000a90046001600160a01b03168282815181106106bb576106bb6112f5565b6001600160a01b0390921660209283029190910190910152806106dd81611324565b915050610646565b50915091565b6001546001600160a01b0316331461074a5760405162461bcd60e51b815260206004820152600b60248201527f4e4f545f414c4c4f57454400000000000000000000000000000000000000000060448201526064015b60405180910390fd5b60009182526002602052604090912060050180547fffffffffffffffffffffffff0000000000000000000000000000000000000000166001600160a01b03909216919091179055565b6000546001600160a01b031633146107ed5760405162461bcd60e51b815260206004820152600760248201527f4e4f545f444556000000000000000000000000000000000000000000000000006044820152606401610741565b600180547fffffffffffffffffffffffff0000000000000000000000000000000000000000166001600160a01b0392909216919091179055565b6001546001600160a01b031633146108815760405162461bcd60e51b815260206004820152600b60248201527f4e4f545f414c4c4f5745440000000000000000000000000000000000000000006044820152606401610741565b60005b600082815260026020526040902054811015610934576000828152600260205260408120805460018201918391859081106108c1576108c16112f5565b600091825260208083208183040154601f9092166101000a90910460ff168352820192909252604001902080547fffffffffffffffffffffffff0000000000000000000000000000000000000000166001600160a01b03929092169190911790558061092c81611324565b915050610884565b50600081815260026020526040812061094c916110aa565b50565b6000546001600160a01b031633146109a95760405162461bcd60e51b815260206004820152600760248201527f4e4f545f444556000000000000000000000000000000000000000000000000006044820152606401610741565b600180547fffffffffffffffffffffff00ffffffffffffffffffffffffffffffffffffffff8116740100000000000000000000000000000000000000009182900460ff1615909102179055565b6001546001600160a01b03163314610a505760405162461bcd60e51b815260206004820152600b60248201527f4e4f545f414c4c4f5745440000000000000000000000000000000000000000006044820152606401610741565b6000828152600260205260409020600701548111610ab05760405162461bcd60e51b815260206004820152600a60248201527f4241445f455850495259000000000000000000000000000000000000000000006044820152606401610741565b60009182526002602052604090912060070155565b6001546001600160a01b03163314610b1f5760405162461bcd60e51b815260206004820152600b60248201527f4e4f545f414c4c4f5745440000000000000000000000000000000000000000006044820152606401610741565b600091825260026020819052604090922090910155565b6001546001600160a01b03163314610b905760405162461bcd60e51b815260206004820152600b60248201527f4e4f545f414c4c4f5745440000000000000000000000000000000000000000006044820152606401610741565b600083815260026020818152604080842060ff8716855260018101835290842080547fffffffffffffffffffffffff00000000000000000000000000000000000000001690559286905252805482908110610bed57610bed6112f5565b90600052602060002090602091828204019190066101000a81549060ff0219169055505050565b6001546001600160a01b03163314610c6e5760405162461bcd60e51b815260206004820152600b60248201527f4e4f545f414c4c4f5745440000000000000000000000000000000000000000006044820152606401610741565b600092835260026020908152604080852060ff9390931685526001909201905290912080547fffffffffffffffffffffffff0000000000000000000000000000000000000000166001600160a01b03909216919091179055565b6001546001600160a01b03163314610d225760405162461bcd60e51b815260206004820152600b60248201527f4e4f545f414c4c4f5745440000000000000000000000000000000000000000006044820152606401610741565b600092835260026020908152604080852080546001818101835582885284882085830401805460ff978816601f9094166101000a8481029802191696909617909555865292909201905290912080546001600160a01b039092167fffffffffffffffffffffffff0000000000000000000000000000000000000000909216919091179055565b6001546001600160a01b03163314610e025760405162461bcd60e51b815260206004820152600b60248201527f4e4f545f414c4c4f5745440000000000000000000000000000000000000000006044820152606401610741565b60009182526002602052604090912060030155565b6001546001600160a01b03163314610e715760405162461bcd60e51b815260206004820152600b60248201527f4e4f545f414c4c4f5745440000000000000000000000000000000000000000006044820152606401610741565b600091825260026020526040909120600601805491151574010000000000000000000000000000000000000000027fffffffffffffffffffffff00ffffffffffffffffffffffffffffffffffffffff909216919091179055565b6001546001600160a01b03163314610f255760405162461bcd60e51b815260206004820152600b60248201527f4e4f545f414c4c4f5745440000000000000000000000000000000000000000006044820152606401610741565b60009182526002602052604090912060060180547fffffffffffffffffffffffff0000000000000000000000000000000000000000166001600160a01b03909216919091179055565b6001546001600160a01b03163314610fc85760405162461bcd60e51b815260206004820152600b60248201527f4e4f545f414c4c4f5745440000000000000000000000000000000000000000006044820152606401610741565b60009182526002602052604090912060040155565b6000546001600160a01b031633146110375760405162461bcd60e51b815260206004820152600760248201527f4e4f545f444556000000000000000000000000000000000000000000000000006044820152606401610741565b600080546040516001600160a01b03808516939216917f8be0079c531659141344cd1fd0a4f28419497f9722a3daafe3b4186f6b6457e091a3600080547fffffffffffffffffffffffff0000000000000000000000000000000000000000166001600160a01b0392909216919091179055565b50805460008255601f01602090049060005260206000209081019061094c91905b808211156110df57600081556001016110cb565b5090565b6000602082840312156110f557600080fd5b5035919050565b604080825283519082018190526000906020906060840190828701845b8281101561113857815160ff1684529284019290840190600101611119565b5050508381038285015284518082528583019183019060005b818110156111765783516001600160a01b031683529284019291840191600101611151565b5090979650505050505050565b80356001600160a01b038116811461119a57600080fd5b919050565b600080604083850312156111b257600080fd5b823591506111c260208401611183565b90509250929050565b6000602082840312156111dd57600080fd5b6111e682611183565b9392505050565b6000806040838503121561120057600080fd5b50508035926020909101359150565b803560ff8116811461119a57600080fd5b60008060006060848603121561123557600080fd5b833592506112456020850161120f565b9150604084013590509250925092565b60008060006060848603121561126a57600080fd5b8335925061127a60208501611183565b91506112886040850161120f565b90509250925092565b600080604083850312156112a457600080fd5b82359150602083013580151581146112bb57600080fd5b809150509250929050565b7f4e487b7100000000000000000000000000000000000000000000000000000000600052604160045260246000fd5b7f4e487b7100000000000000000000000000000000000000000000000000000000600052603260045260246000fd5b60007fffffffffffffffffffffffffffffffffffffffffffffffffffffffffffffffff820361137c577f4e487b7100000000000000000000000000000000000000000000000000000000600052601160045260246000fd5b506001019056fea2646970667358221220d47491309e3f08ddaab39b74e94bdffec9072a4e1630ece48fcbf12095c83c2264736f6c63430008100033",
    "linkReferences": {}
  },
  "methodIdentifiers": {
    "Bonds(bytes32)": "63a44e69",
    "Dev()": "01e51ae8",
    "Registry()": "7db9743b",
    "active()": "02fb0c5e",
    "anion(bytes32)": "0e68b116",
    "cation(bytes32)": "f61ccd53",
    "controller(bytes32)": "dbd4e021",
    "covalence(bytes32)": "34026859",
    "expiry(bytes32)": "d2ec5fca",
    "hook(bytes32,address,uint8)": "849a799c",
    "hooksWithRules(bytes32)": "0aac6625",
    "label(bytes32)": "1fc4859e",
    "owner()": "8da5cb5b",
    "recordExists(bytes32)": "f79fe538",
    "rehook(bytes32,address,uint8)": "83669726",
    "resolver(bytes32)": "0178b8bf",
    "setAnion(bytes32,bytes32)": "a3be52a2",
    "setCation(bytes32,bytes32)": "8146970a",
    "setConfig(address)": "20e3dbd4",
    "setController(bytes32,address)": "d3156905",
    "setCovalence(bytes32,bool)": "d07699aa",
    "setExpiry(bytes32,uint256)": "39de6469",
    "setLabel(bytes32,bytes32)": "deee4da9",
    "setResolver(bytes32,address)": "1896f70a",
    "toggleActive()": "29c68dc1",
    "transferOwnership(address)": "f2fde38b",
    "unhook(bytes32,uint8,uint256)": "833fda08",
    "unhookAll(bytes32)": "21ec2b5b"
  },
  "id": 20
}