{
  "abi": [
    {
      "inputs": [
        {
          "internalType": "address",
          "name": "_woolball",
          "type": "address"
        }
      ],
      "stateMutability": "nonpayable",
      "type": "constructor"
    },
    {
      "inputs": [
        {
          "internalType": "address",
          "name": "_dev",
          "type": "address"
        },
        {
          "internalType": "address",
          "name": "_you",
          "type": "address"
        }
      ],
      "name": "OnlyDev",
      "type": "error"
    },
    {
      "anonymous": false,
      "inputs": [
        {
          "indexed": true,
          "internalType": "bytes32",
          "name": "link",
          "type": "bytes32"
        },
        {
          "indexed": false,
          "internalType": "address",
          "name": "addr",
          "type": "address"
        }
      ],
      "name": "NewAddr",
      "type": "event"
    },
    {
      "anonymous": false,
      "inputs": [
        {
          "indexed": true,
          "internalType": "bytes32",
          "name": "link",
          "type": "bytes32"
        },
        {
          "indexed": false,
          "internalType": "uint256",
          "name": "coinType",
          "type": "uint256"
        },
        {
          "indexed": false,
          "internalType": "bytes",
          "name": "newAddress",
          "type": "bytes"
        }
      ],
      "name": "NewAddr2",
      "type": "event"
    },
    {
      "anonymous": false,
      "inputs": [
        {
          "indexed": true,
          "internalType": "bytes32",
          "name": "link",
          "type": "bytes32"
        },
        {
          "indexed": false,
          "internalType": "bytes",
          "name": "_contenthash",
          "type": "bytes"
        }
      ],
      "name": "NewContenthash",
      "type": "event"
    },
    {
      "anonymous": false,
      "inputs": [
        {
          "indexed": true,
          "internalType": "bytes32",
          "name": "link",
          "type": "bytes32"
        },
        {
          "indexed": false,
          "internalType": "bytes32",
          "name": "x",
          "type": "bytes32"
        },
        {
          "indexed": false,
          "internalType": "bytes32",
          "name": "y",
          "type": "bytes32"
        }
      ],
      "name": "NewPubkey",
      "type": "event"
    },
    {
      "anonymous": false,
      "inputs": [
        {
          "indexed": true,
          "internalType": "bytes32",
          "name": "link",
          "type": "bytes32"
        },
        {
          "indexed": true,
          "internalType": "string",
          "name": "key",
          "type": "string"
        },
        {
          "indexed": false,
          "internalType": "string",
          "name": "value",
          "type": "string"
        }
      ],
      "name": "NewTextRecord",
      "type": "event"
    },
    {
      "stateMutability": "payable",
      "type": "fallback"
    },
    {
      "inputs": [],
      "name": "DefaultContenthash",
      "outputs": [
        {
          "internalType": "bytes",
          "name": "",
          "type": "bytes"
        }
      ],
      "stateMutability": "view",
      "type": "function"
    },
    {
      "inputs": [],
      "name": "WOOLBALL",
      "outputs": [
        {
          "internalType": "contract iWOOLBALL",
          "name": "",
          "type": "address"
        }
      ],
      "stateMutability": "view",
      "type": "function"
    },
    {
      "inputs": [
        {
          "internalType": "bytes32",
          "name": "link",
          "type": "bytes32"
        }
      ],
      "name": "addr",
      "outputs": [
        {
          "internalType": "address payable",
          "name": "",
          "type": "address"
        }
      ],
      "stateMutability": "view",
      "type": "function"
    },
    {
      "inputs": [
        {
          "internalType": "bytes32",
          "name": "link",
          "type": "bytes32"
        },
        {
          "internalType": "uint256",
          "name": "coinType",
          "type": "uint256"
        }
      ],
      "name": "addr2",
      "outputs": [
        {
          "internalType": "address payable",
          "name": "",
          "type": "address"
        }
      ],
      "stateMutability": "view",
      "type": "function"
    },
    {
      "inputs": [
        {
          "internalType": "bytes32",
          "name": "link",
          "type": "bytes32"
        }
      ],
      "name": "contenthash",
      "outputs": [
        {
          "internalType": "bytes",
          "name": "_hash",
          "type": "bytes"
        }
      ],
      "stateMutability": "view",
      "type": "function"
    },
    {
      "inputs": [
        {
          "internalType": "bytes32",
          "name": "",
          "type": "bytes32"
        }
      ],
      "name": "pubkey",
      "outputs": [
        {
          "internalType": "bytes32",
          "name": "x",
          "type": "bytes32"
        },
        {
          "internalType": "bytes32",
          "name": "y",
          "type": "bytes32"
        }
      ],
      "stateMutability": "view",
      "type": "function"
    },
    {
      "inputs": [
        {
          "internalType": "bytes32",
          "name": "link",
          "type": "bytes32"
        },
        {
          "internalType": "address",
          "name": "_addr",
          "type": "address"
        }
      ],
      "name": "setAddress",
      "outputs": [],
      "stateMutability": "nonpayable",
      "type": "function"
    },
    {
      "inputs": [
        {
          "internalType": "bytes32",
          "name": "link",
          "type": "bytes32"
        },
        {
          "internalType": "uint256",
          "name": "coinType",
          "type": "uint256"
        },
        {
          "internalType": "bytes",
          "name": "_addr",
          "type": "bytes"
        }
      ],
      "name": "setAddressCoin",
      "outputs": [],
      "stateMutability": "nonpayable",
      "type": "function"
    },
    {
      "inputs": [
        {
          "internalType": "bytes32",
          "name": "link",
          "type": "bytes32"
        },
        {
          "internalType": "bytes",
          "name": "_hash",
          "type": "bytes"
        }
      ],
      "name": "setContenthash",
      "outputs": [],
      "stateMutability": "nonpayable",
      "type": "function"
    },
    {
      "inputs": [
        {
          "internalType": "bytes",
          "name": "_content",
          "type": "bytes"
        }
      ],
      "name": "setDefaultContenthash",
      "outputs": [],
      "stateMutability": "nonpayable",
      "type": "function"
    },
    {
      "inputs": [
        {
          "internalType": "string",
          "name": "key",
          "type": "string"
        },
        {
          "internalType": "string",
          "name": "value",
          "type": "string"
        }
      ],
      "name": "setDefaultText",
      "outputs": [],
      "stateMutability": "nonpayable",
      "type": "function"
    },
    {
      "inputs": [
        {
          "internalType": "bytes4",
          "name": "sig",
          "type": "bytes4"
        },
        {
          "internalType": "bool",
          "name": "value",
          "type": "bool"
        }
      ],
      "name": "setInterface",
      "outputs": [],
      "stateMutability": "payable",
      "type": "function"
    },
    {
      "inputs": [
        {
          "internalType": "bytes32",
          "name": "link",
          "type": "bytes32"
        },
        {
          "internalType": "bytes32",
          "name": "x",
          "type": "bytes32"
        },
        {
          "internalType": "bytes32",
          "name": "y",
          "type": "bytes32"
        }
      ],
      "name": "setPubkey",
      "outputs": [],
      "stateMutability": "nonpayable",
      "type": "function"
    },
    {
      "inputs": [
        {
          "internalType": "bytes32",
          "name": "link",
          "type": "bytes32"
        },
        {
          "internalType": "string",
          "name": "key",
          "type": "string"
        },
        {
          "internalType": "string",
          "name": "value",
          "type": "string"
        }
      ],
      "name": "setText",
      "outputs": [],
      "stateMutability": "nonpayable",
      "type": "function"
    },
    {
      "inputs": [
        {
          "internalType": "bytes4",
          "name": "",
          "type": "bytes4"
        }
      ],
      "name": "supportsInterface",
      "outputs": [
        {
          "internalType": "bool",
          "name": "",
          "type": "bool"
        }
      ],
      "stateMutability": "view",
      "type": "function"
    },
    {
      "inputs": [
        {
          "internalType": "bytes32",
          "name": "link",
          "type": "bytes32"
        },
        {
          "internalType": "string",
          "name": "key",
          "type": "string"
        }
      ],
      "name": "text",
      "outputs": [
        {
          "internalType": "string",
          "name": "value",
          "type": "string"
        }
      ],
      "stateMutability": "view",
      "type": "function"
    },
    {
      "inputs": [],
      "name": "withdrawEther",
      "outputs": [],
      "stateMutability": "payable",
      "type": "function"
    },
    {
      "inputs": [
        {
          "internalType": "address",
          "name": "token",
          "type": "address"
        },
        {
          "internalType": "uint256",
          "name": "value",
          "type": "uint256"
        }
      ],
      "name": "withdrawToken",
      "outputs": [],
      "stateMutability": "payable",
      "type": "function"
    },
    {
      "stateMutability": "payable",
      "type": "receive"
    }
  ],
  "bytecode": {
    "object": "0x60806040523480156200001157600080fd5b506040516200229d3803806200229d83398101604081905262000034916200018f565b600080546001600160a01b0319166001600160a01b038316178155600160208181527f4b84aaea474957a47d181f38fcec8f591d9c2e5de6b8b5af3f68a20d788bf2f8805460ff1990811684179091557f42407755595823d601d9bf81f13bedb18095271535707bb08d2388031f7991ff80548216841790557f196e88a9abd94fcc5d1697324ce5cb70be070bfea12791b2d007392e9c217c1080548216841790557fcf45440a62ef9e831d0ab2c343ee1737fae47f6145ed9d691e8182398489677c8054821684179055631674750f60e21b9093527f4c925eb49357ad24b64b71d62fb5349c73da5f6de29903dca5c765538461f4b080549093169091179091556040805160608101909152602a808252909162002273908301396000805260026020527fac33ff75c19e70fe83507db0d683fd3465c996598dc972688b7ace676c89077b9062000187908262000266565b505062000332565b600060208284031215620001a257600080fd5b81516001600160a01b0381168114620001ba57600080fd5b9392505050565b634e487b7160e01b600052604160045260246000fd5b600181811c90821680620001ec57607f821691505b6020821081036200020d57634e487b7160e01b600052602260045260246000fd5b50919050565b601f8211156200026157600081815260208120601f850160051c810160208610156200023c5750805b601f850160051c820191505b818110156200025d5782815560010162000248565b5050505b505050565b81516001600160401b03811115620002825762000282620001c1565b6200029a81620002938454620001d7565b8462000213565b602080601f831160018114620002d25760008415620002b95750858301515b600019600386901b1c1916600185901b1785556200025d565b600085815260208120601f198616915b828110156200030357888601518255948401946001909101908401620002e2565b5085821015620003225787850151600019600388901b60f8161c191681555b5050505050600190811b01905550565b611f3180620003426000396000f3fe60806040526004361061012d5760003560e01c80637362377b116100a5578063c0a43a7c11610074578063c9b6905911610059578063c9b6905914610354578063ca446dd914610374578063f5aed68f1461039457600080fd5b8063c0a43a7c146102f8578063c86902331461030b57600080fd5b80637362377b1461029d57806378237b03146102a55780639e281a98146102c5578063bc1c58d1146102d857600080fd5b80633b3b57de116100fc5780635d81d553116100e15780635d81d5531461024857806363c2a2e21461026857806369be8bb01461028857600080fd5b80633b3b57de146101e357806359d1d43c1461021b57600080fd5b806301ffc9a71461013c57806310f13a8c1461018157806329cd62ea146101a3578063304e6ade146101c357600080fd5b3661013757600080fd5b600080fd5b34801561014857600080fd5b5061016c6101573660046117c3565b60016020526000908152604090205460ff1681565b60405190151581526020015b60405180910390f35b34801561018d57600080fd5b506101a161019c366004611827565b6103b4565b005b3480156101af57600080fd5b506101a16101be3660046118a1565b61053a565b3480156101cf57600080fd5b506101a16101de366004611989565b61068d565b3480156101ef57600080fd5b506102036101fe3660046119d0565b6107c9565b6040516001600160a01b039091168152602001610178565b34801561022757600080fd5b5061023b6102363660046119e9565b610910565b6040516101789190611a7b565b34801561025457600080fd5b506101a1610263366004611a8e565b6109d5565b34801561027457600080fd5b50600054610203906001600160a01b031681565b34801561029457600080fd5b5061023b610b53565b6101a1610c0f565b3480156102b157600080fd5b506102036102c0366004611ac3565b610d2a565b6101a16102d3366004611afa565b610ecb565b3480156102e457600080fd5b5061023b6102f33660046119d0565b61102b565b6101a1610306366004611b26565b61118c565b34801561031757600080fd5b5061033f6103263660046119d0565b6005602052600090815260409020805460019091015482565b60408051928352602083019190915201610178565b34801561036057600080fd5b506101a161036f366004611b62565b61133e565b34801561038057600080fd5b506101a161038f366004611bce565b6114d2565b3480156103a057600080fd5b506101a16103af366004611bf3565b611657565b6000546040517f02571be30000000000000000000000000000000000000000000000000000000081526004810187905286916001600160a01b0316906302571be390602401602060405180830381865afa158015610416573d6000803e3d6000fd5b505050506040513d601f19601f8201168201806040525081019061043a9190611c43565b6001600160a01b0316336001600160a01b03161461049f5760405162461bcd60e51b815260206004820152600e60248201527f4e4f545f415554484f524953454400000000000000000000000000000000000060448201526064015b60405180910390fd5b82826003600089815260200190815260200160002087876040516104c4929190611c60565b908152602001604051809103902091826104df929190611d0e565b5084846040516104f0929190611c60565b6040518091039020867f67183f1114fa702d378afb1540cad2f1fb0ce08eb7b86b97303e5db7b827f733858560405161052a929190611dcf565b60405180910390a3505050505050565b6000546040517f02571be30000000000000000000000000000000000000000000000000000000081526004810185905284916001600160a01b0316906302571be390602401602060405180830381865afa15801561059c573d6000803e3d6000fd5b505050506040513d601f19601f820116820180604052508101906105c09190611c43565b6001600160a01b0316336001600160a01b0316146106205760405162461bcd60e51b815260206004820152600e60248201527f4e4f545f415554484f52495345440000000000000000000000000000000000006044820152606401610496565b60408051808201825284815260208082018581526000888152600583528490209251835551600190920191909155815185815290810184905285917f70aea62941eaea7f42402dd58e32c3147d00156f9fc574bee920fbd14c6829d291015b60405180910390a250505050565b6000546040517f02571be30000000000000000000000000000000000000000000000000000000081526004810184905283916001600160a01b0316906302571be390602401602060405180830381865afa1580156106ef573d6000803e3d6000fd5b505050506040513d601f19601f820116820180604052508101906107139190611c43565b6001600160a01b0316336001600160a01b0316146107735760405162461bcd60e51b815260206004820152600e60248201527f4e4f545f415554484f52495345440000000000000000000000000000000000006044820152606401610496565b600083815260026020526040902061078b8382611dfe565b50827ffd6daaf738297ede78acf9eb128bcc41af0941fe83f57d3c3dbf9860acefb71d836040516107bc9190611a7b565b60405180910390a2505050565b6000818152600460209081526040808320603c8452909152812080548291906107f190611c70565b80601f016020809104026020016040519081016040528092919081815260200182805461081d90611c70565b801561086a5780601f1061083f5761010080835404028352916020019161086a565b820191906000526020600020905b81548152906001019060200180831161084d57829003601f168201915b505050505090508051600003610907576000546040517f02571be3000000000000000000000000000000000000000000000000000000008152600481018590526001600160a01b03909116906302571be390602401602060405180830381865afa1580156108dc573d6000803e3d6000fd5b505050506040513d601f19601f820116820180604052508101906109009190611c43565b9392505050565b61090081611ebe565b6060600360008581526020019081526020016000208383604051610935929190611c60565b9081526020016040518091039020805461094e90611c70565b80601f016020809104026020016040519081016040528092919081815260200182805461097a90611c70565b80156109c75780601f1061099c576101008083540402835291602001916109c7565b820191906000526020600020905b8154815290600101906020018083116109aa57829003601f168201915b505050505090509392505050565b60008054906101000a90046001600160a01b03166001600160a01b03166301e51ae86040518163ffffffff1660e01b8152600401602060405180830381865afa158015610a26573d6000803e3d6000fd5b505050506040513d601f19601f82011682018060405250810190610a4a9190611c43565b6001600160a01b0316336001600160a01b031614610b1b5760008054906101000a90046001600160a01b03166001600160a01b03166301e51ae86040518163ffffffff1660e01b8152600401602060405180830381865afa158015610ab3573d6000803e3d6000fd5b505050506040513d601f19601f82011682018060405250810190610ad79190611c43565b6040517f8ea458f60000000000000000000000000000000000000000000000000000000081526001600160a01b039091166004820152336024820152604401610496565b6000805260026020527fac33ff75c19e70fe83507db0d683fd3465c996598dc972688b7ace676c89077b610b4f8282611dfe565b5050565b6000805260026020527fac33ff75c19e70fe83507db0d683fd3465c996598dc972688b7ace676c89077b805460609190610b8c90611c70565b80601f0160208091040260200160405190810160405280929190818152602001828054610bb890611c70565b8015610c055780601f10610bda57610100808354040283529160200191610c05565b820191906000526020600020905b815481529060010190602001808311610be857829003601f168201915b5050505050905090565b60008060009054906101000a90046001600160a01b03166001600160a01b03166301e51ae86040518163ffffffff1660e01b8152600401602060405180830381865afa158015610c63573d6000803e3d6000fd5b505050506040513d601f19601f82011682018060405250810190610c879190611c43565b6001600160a01b03164760405160006040518083038185875af1925050503d8060008114610cd1576040519150601f19603f3d011682016040523d82523d6000602084013e610cd6565b606091505b5050905080610d275760405162461bcd60e51b815260206004820152601360248201527f4554485f5452414e534645525f4641494c4544000000000000000000000000006044820152606401610496565b50565b600082815260046020908152604080832084845290915281208054829190610d5190611c70565b80601f0160208091040260200160405190810160405280929190818152602001828054610d7d90611c70565b8015610dca5780601f10610d9f57610100808354040283529160200191610dca565b820191906000526020600020905b815481529060010190602001808311610dad57829003601f168201915b5050505050905080516000148015610de2575082603c145b15610eba576000546040517f02571be3000000000000000000000000000000000000000000000000000000008152600481018690526001600160a01b03909116906302571be390602401602060405180830381865afa158015610e49573d6000803e3d6000fd5b505050506040513d601f19601f82011682018060405250810190610e6d9190611c43565b604051602001610ea8919060609190911b7fffffffffffffffffffffffffffffffffffffffff00000000000000000000000016815260140190565b60405160208183030381529060405290505b610ec381611ebe565b949350505050565b306001600160a01b03831603610f235760405162461bcd60e51b815260206004820152600f60248201527f5245534f4c5645525f4c4f434b454400000000000000000000000000000000006044820152606401610496565b816001600160a01b03166323b872dd3060008054906101000a90046001600160a01b03166001600160a01b03166301e51ae86040518163ffffffff1660e01b8152600401602060405180830381865afa158015610f84573d6000803e3d6000fd5b505050506040513d601f19601f82011682018060405250810190610fa89190611c43565b6040517fffffffff0000000000000000000000000000000000000000000000000000000060e085901b1681526001600160a01b0392831660048201529116602482015260448101849052606401600060405180830381600087803b15801561100f57600080fd5b505af1158015611023573d6000803e3d6000fd5b505050505050565b600081815260026020526040902080546060919061104890611c70565b80601f016020809104026020016040519081016040528092919081815260200182805461107490611c70565b80156110c15780601f10611096576101008083540402835291602001916110c1565b820191906000526020600020905b8154815290600101906020018083116110a457829003601f168201915b505050505090508051600003611187576000805260026020527fac33ff75c19e70fe83507db0d683fd3465c996598dc972688b7ace676c89077b805461110690611c70565b80601f016020809104026020016040519081016040528092919081815260200182805461113290611c70565b801561117f5780601f106111545761010080835404028352916020019161117f565b820191906000526020600020905b81548152906001019060200180831161116257829003601f168201915b505050505090505b919050565b60008054906101000a90046001600160a01b03166001600160a01b03166301e51ae86040518163ffffffff1660e01b8152600401602060405180830381865afa1580156111dd573d6000803e3d6000fd5b505050506040513d601f19601f820116820180604052508101906112019190611c43565b6001600160a01b0316336001600160a01b03161461126a5760008054906101000a90046001600160a01b03166001600160a01b03166301e51ae86040518163ffffffff1660e01b8152600401602060405180830381865afa158015610ab3573d6000803e3d6000fd5b7fffffffff0000000000000000000000000000000000000000000000000000000080831690036112dc5760405162461bcd60e51b815260206004820152601a60248201527f494e56414c49445f494e544552464143455f53454c4543544f520000000000006044820152606401610496565b7fffffffff0000000000000000000000000000000000000000000000000000000091909116600090815260016020526040902080547fffffffffffffffffffffffffffffffffffffffffffffffffffffffffffffff0016911515919091179055565b60008054906101000a90046001600160a01b03166001600160a01b03166301e51ae86040518163ffffffff1660e01b8152600401602060405180830381865afa15801561138f573d6000803e3d6000fd5b505050506040513d601f19601f820116820180604052508101906113b39190611c43565b6001600160a01b0316336001600160a01b03161461141c5760008054906101000a90046001600160a01b03166001600160a01b03166301e51ae86040518163ffffffff1660e01b8152600401602060405180830381865afa158015610ab3573d6000803e3d6000fd5b600080526003602052604051829082907f3617319a054d772f909f7c479a2cebe5066e836a939412e32403c99029b92eff9061145b9088908890611c60565b90815260200160405180910390209182611476929190611d0e565b508383604051611487929190611c60565b60405180910390206000801b7f67183f1114fa702d378afb1540cad2f1fb0ce08eb7b86b97303e5db7b827f73384846040516114c4929190611dcf565b60405180910390a350505050565b6000546040517f02571be30000000000000000000000000000000000000000000000000000000081526004810184905283916001600160a01b0316906302571be390602401602060405180830381865afa158015611534573d6000803e3d6000fd5b505050506040513d601f19601f820116820180604052508101906115589190611c43565b6001600160a01b0316336001600160a01b0316146115b85760405162461bcd60e51b815260206004820152600e60248201527f4e4f545f415554484f52495345440000000000000000000000000000000000006044820152606401610496565b6040517fffffffffffffffffffffffffffffffffffffffff000000000000000000000000606084901b16602082015260340160408051601f19818403018152918152600085815260046020908152828220603c83529052209061161b9082611dfe565b506040516001600160a01b038316815283907f1ac9282df2fbe826c9af5c86adfeb678816478c19262558e4e71e399fd4a16e9906020016107bc565b6000546040517f02571be30000000000000000000000000000000000000000000000000000000081526004810185905284916001600160a01b0316906302571be390602401602060405180830381865afa1580156116b9573d6000803e3d6000fd5b505050506040513d601f19601f820116820180604052508101906116dd9190611c43565b6001600160a01b0316336001600160a01b03161461173d5760405162461bcd60e51b815260206004820152600e60248201527f4e4f545f415554484f52495345440000000000000000000000000000000000006044820152606401610496565b600084815260046020908152604080832086845290915290206117608382611dfe565b50837f91f951276447c3816ca159edb0a9492e803b9355af1feadf2fa4371af2f070af848460405161067f929190611ee2565b80357fffffffff000000000000000000000000000000000000000000000000000000008116811461118757600080fd5b6000602082840312156117d557600080fd5b61090082611793565b60008083601f8401126117f057600080fd5b50813567ffffffffffffffff81111561180857600080fd5b60208301915083602082850101111561182057600080fd5b9250929050565b60008060008060006060868803121561183f57600080fd5b85359450602086013567ffffffffffffffff8082111561185e57600080fd5b61186a89838a016117de565b9096509450604088013591508082111561188357600080fd5b50611890888289016117de565b969995985093965092949392505050565b6000806000606084860312156118b657600080fd5b505081359360208301359350604090920135919050565b7f4e487b7100000000000000000000000000000000000000000000000000000000600052604160045260246000fd5b600082601f83011261190d57600080fd5b813567ffffffffffffffff80821115611928576119286118cd565b604051601f8301601f19908116603f01168101908282118183101715611950576119506118cd565b8160405283815286602085880101111561196957600080fd5b836020870160208301376000602085830101528094505050505092915050565b6000806040838503121561199c57600080fd5b82359150602083013567ffffffffffffffff8111156119ba57600080fd5b6119c6858286016118fc565b9150509250929050565b6000602082840312156119e257600080fd5b5035919050565b6000806000604084860312156119fe57600080fd5b83359250602084013567ffffffffffffffff811115611a1c57600080fd5b611a28868287016117de565b9497909650939450505050565b6000815180845260005b81811015611a5b57602081850181015186830182015201611a3f565b506000602082860101526020601f19601f83011685010191505092915050565b6020815260006109006020830184611a35565b600060208284031215611aa057600080fd5b813567ffffffffffffffff811115611ab757600080fd5b610ec3848285016118fc565b60008060408385031215611ad657600080fd5b50508035926020909101359150565b6001600160a01b0381168114610d2757600080fd5b60008060408385031215611b0d57600080fd5b8235611b1881611ae5565b946020939093013593505050565b60008060408385031215611b3957600080fd5b611b4283611793565b915060208301358015158114611b5757600080fd5b809150509250929050565b60008060008060408587031215611b7857600080fd5b843567ffffffffffffffff80821115611b9057600080fd5b611b9c888389016117de565b90965094506020870135915080821115611bb557600080fd5b50611bc2878288016117de565b95989497509550505050565b60008060408385031215611be157600080fd5b823591506020830135611b5781611ae5565b600080600060608486031215611c0857600080fd5b8335925060208401359150604084013567ffffffffffffffff811115611c2d57600080fd5b611c39868287016118fc565b9150509250925092565b600060208284031215611c5557600080fd5b815161090081611ae5565b8183823760009101908152919050565b600181811c90821680611c8457607f821691505b602082108103611cbd577f4e487b7100000000000000000000000000000000000000000000000000000000600052602260045260246000fd5b50919050565b601f821115611d0957600081815260208120601f850160051c81016020861015611cea5750805b601f850160051c820191505b8181101561102357828155600101611cf6565b505050565b67ffffffffffffffff831115611d2657611d266118cd565b611d3a83611d348354611c70565b83611cc3565b6000601f841160018114611d6e5760008515611d565750838201355b600019600387901b1c1916600186901b178355611dc8565b600083815260209020601f19861690835b82811015611d9f5786850135825560209485019460019092019101611d7f565b5086821015611dbc5760001960f88860031b161c19848701351681555b505060018560011b0183555b5050505050565b60208152816020820152818360408301376000818301604090810191909152601f909201601f19160101919050565b815167ffffffffffffffff811115611e1857611e186118cd565b611e2c81611e268454611c70565b84611cc3565b602080601f831160018114611e615760008415611e495750858301515b600019600386901b1c1916600185901b178555611023565b600085815260208120601f198616915b82811015611e9057888601518255948401946001909101908401611e71565b5085821015611eae5787850151600019600388901b60f8161c191681555b5050505050600190811b01905550565b80516020808301519190811015611cbd5760001960209190910360031b1b16919050565b828152604060208201526000610ec36040830184611a3556fea2646970667358221220512790f0cda2aaeaaaf1ee08d055ded96fedab2500f35e6850a62757b359e0c164736f6c63430008100033e5010172002408011220a7448dcfc00e746c22e238de5c1e3b6fb97bae0949e47741b4e0ae8e929abd4f",
    "linkReferences": {}
  },
  "methodIdentifiers": {
    "DefaultContenthash()": "69be8bb0",
    "WOOLBALL()": "63c2a2e2",
    "addr(bytes32)": "3b3b57de",
    "addr2(bytes32,uint256)": "78237b03",
    "contenthash(bytes32)": "bc1c58d1",
    "pubkey(bytes32)": "c8690233",
    "setAddress(bytes32,address)": "ca446dd9",
    "setAddressCoin(bytes32,uint256,bytes)": "f5aed68f",
    "setContenthash(bytes32,bytes)": "304e6ade",
    "setDefaultContenthash(bytes)": "5d81d553",
    "setDefaultText(string,string)": "c9b69059",
    "setInterface(bytes4,bool)": "c0a43a7c",
    "setPubkey(bytes32,bytes32,bytes32)": "29cd62ea",
    "setText(bytes32,string,string)": "10f13a8c",
    "supportsInterface(bytes4)": "01ffc9a7",
    "text(bytes32,string)": "59d1d43c",
    "withdrawEther()": "7362377b",
    "withdrawToken(address,uint256)": "9e281a98"
  },
  "id": 2
}