{
  "abi": [
    {
      "inputs": [
        {
          "internalType": "address",
          "name": "_helix2",
          "type": "address"
        }
      ],
      "stateMutability": "nonpayable",
      "type": "constructor"
    },
    {
      "inputs": [
        {
          "internalType": "address",
          "name": "_dev",
          "type": "address"
        },
        {
          "internalType": "address",
          "name": "_you",
          "type": "address"
        }
      ],
      "name": "OnlyDev",
      "type": "error"
    },
    {
      "anonymous": false,
      "inputs": [
        {
          "indexed": true,
          "internalType": "bytes32",
          "name": "namehash",
          "type": "bytes32"
        },
        {
          "indexed": false,
          "internalType": "address",
          "name": "addr",
          "type": "address"
        }
      ],
      "name": "NewAddr",
      "type": "event"
    },
    {
      "anonymous": false,
      "inputs": [
        {
          "indexed": true,
          "internalType": "bytes32",
          "name": "namehash",
          "type": "bytes32"
        },
        {
          "indexed": false,
          "internalType": "uint256",
          "name": "coinType",
          "type": "uint256"
        },
        {
          "indexed": false,
          "internalType": "bytes",
          "name": "newAddress",
          "type": "bytes"
        }
      ],
      "name": "NewAddr2",
      "type": "event"
    },
    {
      "anonymous": false,
      "inputs": [
        {
          "indexed": true,
          "internalType": "bytes32",
          "name": "namehash",
          "type": "bytes32"
        },
        {
          "indexed": false,
          "internalType": "bytes",
          "name": "_contenthash",
          "type": "bytes"
        }
      ],
      "name": "NewContenthash",
      "type": "event"
    },
    {
      "anonymous": false,
      "inputs": [
        {
          "indexed": true,
          "internalType": "bytes32",
          "name": "namehash",
          "type": "bytes32"
        },
        {
          "indexed": false,
          "internalType": "bytes32",
          "name": "x",
          "type": "bytes32"
        },
        {
          "indexed": false,
          "internalType": "bytes32",
          "name": "y",
          "type": "bytes32"
        }
      ],
      "name": "NewPubkey",
      "type": "event"
    },
    {
      "anonymous": false,
      "inputs": [
        {
          "indexed": true,
          "internalType": "bytes32",
          "name": "namehash",
          "type": "bytes32"
        },
        {
          "indexed": true,
          "internalType": "string",
          "name": "key",
          "type": "string"
        },
        {
          "indexed": false,
          "internalType": "string",
          "name": "value",
          "type": "string"
        }
      ],
      "name": "NewTextRecord",
      "type": "event"
    },
    {
      "stateMutability": "payable",
      "type": "fallback"
    },
    {
      "inputs": [],
      "name": "DefaultContenthash",
      "outputs": [
        {
          "internalType": "bytes",
          "name": "",
          "type": "bytes"
        }
      ],
      "stateMutability": "view",
      "type": "function"
    },
    {
      "inputs": [],
      "name": "HELIX2",
      "outputs": [
        {
          "internalType": "contract iHELIX2",
          "name": "",
          "type": "address"
        }
      ],
      "stateMutability": "view",
      "type": "function"
    },
    {
      "inputs": [],
      "name": "NAMES",
      "outputs": [
        {
          "internalType": "contract iNAME",
          "name": "",
          "type": "address"
        }
      ],
      "stateMutability": "view",
      "type": "function"
    },
    {
      "inputs": [
        {
          "internalType": "bytes32",
          "name": "namehash",
          "type": "bytes32"
        }
      ],
      "name": "addr",
      "outputs": [
        {
          "internalType": "address payable",
          "name": "",
          "type": "address"
        }
      ],
      "stateMutability": "view",
      "type": "function"
    },
    {
      "inputs": [
        {
          "internalType": "bytes32",
          "name": "namehash",
          "type": "bytes32"
        },
        {
          "internalType": "uint256",
          "name": "coinType",
          "type": "uint256"
        }
      ],
      "name": "addr2",
      "outputs": [
        {
          "internalType": "address payable",
          "name": "",
          "type": "address"
        }
      ],
      "stateMutability": "view",
      "type": "function"
    },
    {
      "inputs": [
        {
          "internalType": "bytes32",
          "name": "namehash",
          "type": "bytes32"
        }
      ],
      "name": "contenthash",
      "outputs": [
        {
          "internalType": "bytes",
          "name": "_hash",
          "type": "bytes"
        }
      ],
      "stateMutability": "view",
      "type": "function"
    },
    {
      "inputs": [
        {
          "internalType": "bytes32",
          "name": "",
          "type": "bytes32"
        }
      ],
      "name": "pubkey",
      "outputs": [
        {
          "internalType": "bytes32",
          "name": "x",
          "type": "bytes32"
        },
        {
          "internalType": "bytes32",
          "name": "y",
          "type": "bytes32"
        }
      ],
      "stateMutability": "view",
      "type": "function"
    },
    {
      "inputs": [
        {
          "internalType": "bytes32",
          "name": "namehash",
          "type": "bytes32"
        },
        {
          "internalType": "address",
          "name": "_addr",
          "type": "address"
        }
      ],
      "name": "setAddress",
      "outputs": [],
      "stateMutability": "nonpayable",
      "type": "function"
    },
    {
      "inputs": [
        {
          "internalType": "bytes32",
          "name": "namehash",
          "type": "bytes32"
        },
        {
          "internalType": "uint256",
          "name": "coinType",
          "type": "uint256"
        },
        {
          "internalType": "bytes",
          "name": "_addr",
          "type": "bytes"
        }
      ],
      "name": "setAddressCoin",
      "outputs": [],
      "stateMutability": "nonpayable",
      "type": "function"
    },
    {
      "inputs": [
        {
          "internalType": "bytes32",
          "name": "namehash",
          "type": "bytes32"
        },
        {
          "internalType": "bytes",
          "name": "_hash",
          "type": "bytes"
        }
      ],
      "name": "setContenthash",
      "outputs": [],
      "stateMutability": "nonpayable",
      "type": "function"
    },
    {
      "inputs": [
        {
          "internalType": "bytes",
          "name": "_content",
          "type": "bytes"
        }
      ],
      "name": "setDefaultContenthash",
      "outputs": [],
      "stateMutability": "nonpayable",
      "type": "function"
    },
    {
      "inputs": [
        {
          "internalType": "string",
          "name": "key",
          "type": "string"
        },
        {
          "internalType": "string",
          "name": "value",
          "type": "string"
        }
      ],
      "name": "setDefaultText",
      "outputs": [],
      "stateMutability": "nonpayable",
      "type": "function"
    },
    {
      "inputs": [
        {
          "internalType": "bytes4",
          "name": "sig",
          "type": "bytes4"
        },
        {
          "internalType": "bool",
          "name": "value",
          "type": "bool"
        }
      ],
      "name": "setInterface",
      "outputs": [],
      "stateMutability": "payable",
      "type": "function"
    },
    {
      "inputs": [
        {
          "internalType": "bytes32",
          "name": "namehash",
          "type": "bytes32"
        },
        {
          "internalType": "bytes32",
          "name": "x",
          "type": "bytes32"
        },
        {
          "internalType": "bytes32",
          "name": "y",
          "type": "bytes32"
        }
      ],
      "name": "setPubkey",
      "outputs": [],
      "stateMutability": "nonpayable",
      "type": "function"
    },
    {
      "inputs": [
        {
          "internalType": "bytes32",
          "name": "namehash",
          "type": "bytes32"
        },
        {
          "internalType": "string",
          "name": "key",
          "type": "string"
        },
        {
          "internalType": "string",
          "name": "value",
          "type": "string"
        }
      ],
      "name": "setText",
      "outputs": [],
      "stateMutability": "nonpayable",
      "type": "function"
    },
    {
      "inputs": [
        {
          "internalType": "bytes4",
          "name": "",
          "type": "bytes4"
        }
      ],
      "name": "supportsInterface",
      "outputs": [
        {
          "internalType": "bool",
          "name": "",
          "type": "bool"
        }
      ],
      "stateMutability": "view",
      "type": "function"
    },
    {
      "inputs": [
        {
          "internalType": "bytes32",
          "name": "namehash",
          "type": "bytes32"
        },
        {
          "internalType": "string",
          "name": "key",
          "type": "string"
        }
      ],
      "name": "text",
      "outputs": [
        {
          "internalType": "string",
          "name": "value",
          "type": "string"
        }
      ],
      "stateMutability": "view",
      "type": "function"
    },
    {
      "inputs": [],
      "name": "withdrawEther",
      "outputs": [],
      "stateMutability": "payable",
      "type": "function"
    },
    {
      "inputs": [
        {
          "internalType": "address",
          "name": "token",
          "type": "address"
        },
        {
          "internalType": "uint256",
          "name": "value",
          "type": "uint256"
        }
      ],
      "name": "withdrawToken",
      "outputs": [],
      "stateMutability": "payable",
      "type": "function"
    },
    {
      "stateMutability": "payable",
      "type": "receive"
    }
  ],
  "bytecode": {
    "object": "0x60806040523480156200001157600080fd5b50604051620022d9380380620022d9833981016040819052620000349162000190565b600080546001600160a01b0319166001600160a01b038316178155600260209081527f7a6ed3a1d03568ba34c4e721c07cc5fb10d48888f825e55b36c6ab346be415bc805460ff1990811660019081179092557f4c882bd28188efef4c64f112d0093aba99f4a04db72e2640342af87ab6ec817580548216831790557fe7d8388e96e266aad8ecb72206b6c9f49ec78ede7daf2641cf85e1ed4a65f08980548216831790557fe6ca55aedfc0b80b83920adc2dfc31bcc9683a415c93cb2abde430c1112797a48054821683179055631674750f60e21b9093527ffae26f5ae7a310f954482c36bb01bdf3029f43c23178d2e543a6e98064447be98054909316179091556040805160608101909152602a8082529091620022af908301396000805260036020527f3617319a054d772f909f7c479a2cebe5066e836a939412e32403c99029b92eff9062000188908262000267565b505062000333565b600060208284031215620001a357600080fd5b81516001600160a01b0381168114620001bb57600080fd5b9392505050565b634e487b7160e01b600052604160045260246000fd5b600181811c90821680620001ed57607f821691505b6020821081036200020e57634e487b7160e01b600052602260045260246000fd5b50919050565b601f8211156200026257600081815260208120601f850160051c810160208610156200023d5750805b601f850160051c820191505b818110156200025e5782815560010162000249565b5050505b505050565b81516001600160401b03811115620002835762000283620001c2565b6200029b81620002948454620001d8565b8462000214565b602080601f831160018114620002d35760008415620002ba5750858301515b600019600386901b1c1916600185901b1785556200025e565b600085815260208120601f198616915b828110156200030457888601518255948401946001909101908401620002e3565b5085821015620003235787850151600019600388901b60f8161c191681555b5050505050600190811b01905550565b611f6c80620003436000396000f3fe6080604052600436106101485760003560e01c80637362377b116100c0578063c0a43a7c11610074578063c9b6905911610059578063c9b690591461038f578063ca446dd9146103af578063f5aed68f146103cf57600080fd5b8063c0a43a7c14610333578063c86902331461034657600080fd5b80639e281a98116100a55780639e281a98146102e0578063b782426e146102f3578063bc1c58d11461031357600080fd5b80637362377b146102b857806378237b03146102c057600080fd5b8063304e6ade1161011757806359d1d43c116100fc57806359d1d43c146102565780635d81d5531461028357806369be8bb0146102a357600080fd5b8063304e6ade146102165780633b3b57de1461023657600080fd5b806301ffc9a71461015757806305e84aa01461019c57806310f13a8c146101d457806329cd62ea146101f657600080fd5b3661015257600080fd5b600080fd5b34801561016357600080fd5b506101876101723660046117fe565b60026020526000908152604090205460ff1681565b60405190151581526020015b60405180910390f35b3480156101a857600080fd5b506001546101bc906001600160a01b031681565b6040516001600160a01b039091168152602001610193565b3480156101e057600080fd5b506101f46101ef366004611862565b6103ef565b005b34801561020257600080fd5b506101f46102113660046118dc565b610575565b34801561022257600080fd5b506101f46102313660046119c4565b6106c8565b34801561024257600080fd5b506101bc610251366004611a0b565b610804565b34801561026257600080fd5b50610276610271366004611a24565b61094b565b6040516101939190611ab6565b34801561028f57600080fd5b506101f461029e366004611ac9565b610a10565b3480156102af57600080fd5b50610276610b8e565b6101f4610c4a565b3480156102cc57600080fd5b506101bc6102db366004611afe565b610d65565b6101f46102ee366004611b35565b610f06565b3480156102ff57600080fd5b506000546101bc906001600160a01b031681565b34801561031f57600080fd5b5061027661032e366004611a0b565b611066565b6101f4610341366004611b61565b6111c7565b34801561035257600080fd5b5061037a610361366004611a0b565b6006602052600090815260409020805460019091015482565b60408051928352602083019190915201610193565b34801561039b57600080fd5b506101f46103aa366004611b9d565b611379565b3480156103bb57600080fd5b506101f46103ca366004611c09565b61150d565b3480156103db57600080fd5b506101f46103ea366004611c2e565b611692565b6001546040517f02571be30000000000000000000000000000000000000000000000000000000081526004810187905286916001600160a01b0316906302571be390602401602060405180830381865afa158015610451573d6000803e3d6000fd5b505050506040513d601f19601f820116820180604052508101906104759190611c7e565b6001600160a01b0316336001600160a01b0316146104da5760405162461bcd60e51b815260206004820152600e60248201527f4e4f545f415554484f524953454400000000000000000000000000000000000060448201526064015b60405180910390fd5b82826004600089815260200190815260200160002087876040516104ff929190611c9b565b9081526020016040518091039020918261051a929190611d49565b50848460405161052b929190611c9b565b6040518091039020867f67183f1114fa702d378afb1540cad2f1fb0ce08eb7b86b97303e5db7b827f7338585604051610565929190611e0a565b60405180910390a3505050505050565b6001546040517f02571be30000000000000000000000000000000000000000000000000000000081526004810185905284916001600160a01b0316906302571be390602401602060405180830381865afa1580156105d7573d6000803e3d6000fd5b505050506040513d601f19601f820116820180604052508101906105fb9190611c7e565b6001600160a01b0316336001600160a01b03161461065b5760405162461bcd60e51b815260206004820152600e60248201527f4e4f545f415554484f524953454400000000000000000000000000000000000060448201526064016104d1565b60408051808201825284815260208082018581526000888152600683528490209251835551600190920191909155815185815290810184905285917f70aea62941eaea7f42402dd58e32c3147d00156f9fc574bee920fbd14c6829d291015b60405180910390a250505050565b6001546040517f02571be30000000000000000000000000000000000000000000000000000000081526004810184905283916001600160a01b0316906302571be390602401602060405180830381865afa15801561072a573d6000803e3d6000fd5b505050506040513d601f19601f8201168201806040525081019061074e9190611c7e565b6001600160a01b0316336001600160a01b0316146107ae5760405162461bcd60e51b815260206004820152600e60248201527f4e4f545f415554484f524953454400000000000000000000000000000000000060448201526064016104d1565b60008381526003602052604090206107c68382611e39565b50827ffd6daaf738297ede78acf9eb128bcc41af0941fe83f57d3c3dbf9860acefb71d836040516107f79190611ab6565b60405180910390a2505050565b6000818152600560209081526040808320603c84529091528120805482919061082c90611cab565b80601f016020809104026020016040519081016040528092919081815260200182805461085890611cab565b80156108a55780601f1061087a576101008083540402835291602001916108a5565b820191906000526020600020905b81548152906001019060200180831161088857829003601f168201915b505050505090508051600003610942576001546040517f02571be3000000000000000000000000000000000000000000000000000000008152600481018590526001600160a01b03909116906302571be390602401602060405180830381865afa158015610917573d6000803e3d6000fd5b505050506040513d601f19601f8201168201806040525081019061093b9190611c7e565b9392505050565b61093b81611ef9565b6060600460008581526020019081526020016000208383604051610970929190611c9b565b9081526020016040518091039020805461098990611cab565b80601f01602080910402602001604051908101604052809291908181526020018280546109b590611cab565b8015610a025780601f106109d757610100808354040283529160200191610a02565b820191906000526020600020905b8154815290600101906020018083116109e557829003601f168201915b505050505090509392505050565b60008054906101000a90046001600160a01b03166001600160a01b031663f079914f6040518163ffffffff1660e01b8152600401602060405180830381865afa158015610a61573d6000803e3d6000fd5b505050506040513d601f19601f82011682018060405250810190610a859190611c7e565b6001600160a01b0316336001600160a01b031614610b565760008054906101000a90046001600160a01b03166001600160a01b031663f079914f6040518163ffffffff1660e01b8152600401602060405180830381865afa158015610aee573d6000803e3d6000fd5b505050506040513d601f19601f82011682018060405250810190610b129190611c7e565b6040517f8ea458f60000000000000000000000000000000000000000000000000000000081526001600160a01b0390911660048201523360248201526044016104d1565b6000805260036020527f3617319a054d772f909f7c479a2cebe5066e836a939412e32403c99029b92eff610b8a8282611e39565b5050565b6000805260036020527f3617319a054d772f909f7c479a2cebe5066e836a939412e32403c99029b92eff805460609190610bc790611cab565b80601f0160208091040260200160405190810160405280929190818152602001828054610bf390611cab565b8015610c405780601f10610c1557610100808354040283529160200191610c40565b820191906000526020600020905b815481529060010190602001808311610c2357829003601f168201915b5050505050905090565b60008060009054906101000a90046001600160a01b03166001600160a01b031663f079914f6040518163ffffffff1660e01b8152600401602060405180830381865afa158015610c9e573d6000803e3d6000fd5b505050506040513d601f19601f82011682018060405250810190610cc29190611c7e565b6001600160a01b03164760405160006040518083038185875af1925050503d8060008114610d0c576040519150601f19603f3d011682016040523d82523d6000602084013e610d11565b606091505b5050905080610d625760405162461bcd60e51b815260206004820152601360248201527f4554485f5452414e534645525f4641494c45440000000000000000000000000060448201526064016104d1565b50565b600082815260056020908152604080832084845290915281208054829190610d8c90611cab565b80601f0160208091040260200160405190810160405280929190818152602001828054610db890611cab565b8015610e055780601f10610dda57610100808354040283529160200191610e05565b820191906000526020600020905b815481529060010190602001808311610de857829003601f168201915b5050505050905080516000148015610e1d575082603c145b15610ef5576001546040517f02571be3000000000000000000000000000000000000000000000000000000008152600481018690526001600160a01b03909116906302571be390602401602060405180830381865afa158015610e84573d6000803e3d6000fd5b505050506040513d601f19601f82011682018060405250810190610ea89190611c7e565b604051602001610ee3919060609190911b7fffffffffffffffffffffffffffffffffffffffff00000000000000000000000016815260140190565b60405160208183030381529060405290505b610efe81611ef9565b949350505050565b306001600160a01b03831603610f5e5760405162461bcd60e51b815260206004820152600f60248201527f5245534f4c5645525f4c4f434b4544000000000000000000000000000000000060448201526064016104d1565b816001600160a01b03166323b872dd3060008054906101000a90046001600160a01b03166001600160a01b031663f079914f6040518163ffffffff1660e01b8152600401602060405180830381865afa158015610fbf573d6000803e3d6000fd5b505050506040513d601f19601f82011682018060405250810190610fe39190611c7e565b6040517fffffffff0000000000000000000000000000000000000000000000000000000060e085901b1681526001600160a01b0392831660048201529116602482015260448101849052606401600060405180830381600087803b15801561104a57600080fd5b505af115801561105e573d6000803e3d6000fd5b505050505050565b600081815260036020526040902080546060919061108390611cab565b80601f01602080910402602001604051908101604052809291908181526020018280546110af90611cab565b80156110fc5780601f106110d1576101008083540402835291602001916110fc565b820191906000526020600020905b8154815290600101906020018083116110df57829003601f168201915b5050505050905080516000036111c2576000805260036020527f3617319a054d772f909f7c479a2cebe5066e836a939412e32403c99029b92eff805461114190611cab565b80601f016020809104026020016040519081016040528092919081815260200182805461116d90611cab565b80156111ba5780601f1061118f576101008083540402835291602001916111ba565b820191906000526020600020905b81548152906001019060200180831161119d57829003601f168201915b505050505090505b919050565b60008054906101000a90046001600160a01b03166001600160a01b031663f079914f6040518163ffffffff1660e01b8152600401602060405180830381865afa158015611218573d6000803e3d6000fd5b505050506040513d601f19601f8201168201806040525081019061123c9190611c7e565b6001600160a01b0316336001600160a01b0316146112a55760008054906101000a90046001600160a01b03166001600160a01b031663f079914f6040518163ffffffff1660e01b8152600401602060405180830381865afa158015610aee573d6000803e3d6000fd5b7fffffffff0000000000000000000000000000000000000000000000000000000080831690036113175760405162461bcd60e51b815260206004820152601a60248201527f494e56414c49445f494e544552464143455f53454c4543544f5200000000000060448201526064016104d1565b7fffffffff0000000000000000000000000000000000000000000000000000000091909116600090815260026020526040902080547fffffffffffffffffffffffffffffffffffffffffffffffffffffffffffffff0016911515919091179055565b60008054906101000a90046001600160a01b03166001600160a01b031663f079914f6040518163ffffffff1660e01b8152600401602060405180830381865afa1580156113ca573d6000803e3d6000fd5b505050506040513d601f19601f820116820180604052508101906113ee9190611c7e565b6001600160a01b0316336001600160a01b0316146114575760008054906101000a90046001600160a01b03166001600160a01b031663f079914f6040518163ffffffff1660e01b8152600401602060405180830381865afa158015610aee573d6000803e3d6000fd5b600080526004602052604051829082907f17ef568e3e12ab5b9c7254a8d58478811de00f9e6eb34345acd53bf8fd09d3ec906114969088908890611c9b565b908152602001604051809103902091826114b1929190611d49565b5083836040516114c2929190611c9b565b60405180910390206000801b7f67183f1114fa702d378afb1540cad2f1fb0ce08eb7b86b97303e5db7b827f73384846040516114ff929190611e0a565b60405180910390a350505050565b6001546040517f02571be30000000000000000000000000000000000000000000000000000000081526004810184905283916001600160a01b0316906302571be390602401602060405180830381865afa15801561156f573d6000803e3d6000fd5b505050506040513d601f19601f820116820180604052508101906115939190611c7e565b6001600160a01b0316336001600160a01b0316146115f35760405162461bcd60e51b815260206004820152600e60248201527f4e4f545f415554484f524953454400000000000000000000000000000000000060448201526064016104d1565b6040517fffffffffffffffffffffffffffffffffffffffff000000000000000000000000606084901b16602082015260340160408051601f19818403018152918152600085815260056020908152828220603c8352905220906116569082611e39565b506040516001600160a01b038316815283907f1ac9282df2fbe826c9af5c86adfeb678816478c19262558e4e71e399fd4a16e9906020016107f7565b6001546040517f02571be30000000000000000000000000000000000000000000000000000000081526004810185905284916001600160a01b0316906302571be390602401602060405180830381865afa1580156116f4573d6000803e3d6000fd5b505050506040513d601f19601f820116820180604052508101906117189190611c7e565b6001600160a01b0316336001600160a01b0316146117785760405162461bcd60e51b815260206004820152600e60248201527f4e4f545f415554484f524953454400000000000000000000000000000000000060448201526064016104d1565b6000848152600560209081526040808320868452909152902061179b8382611e39565b50837f91f951276447c3816ca159edb0a9492e803b9355af1feadf2fa4371af2f070af84846040516106ba929190611f1d565b80357fffffffff00000000000000000000000000000000000000000000000000000000811681146111c257600080fd5b60006020828403121561181057600080fd5b61093b826117ce565b60008083601f84011261182b57600080fd5b50813567ffffffffffffffff81111561184357600080fd5b60208301915083602082850101111561185b57600080fd5b9250929050565b60008060008060006060868803121561187a57600080fd5b85359450602086013567ffffffffffffffff8082111561189957600080fd5b6118a589838a01611819565b909650945060408801359150808211156118be57600080fd5b506118cb88828901611819565b969995985093965092949392505050565b6000806000606084860312156118f157600080fd5b505081359360208301359350604090920135919050565b7f4e487b7100000000000000000000000000000000000000000000000000000000600052604160045260246000fd5b600082601f83011261194857600080fd5b813567ffffffffffffffff8082111561196357611963611908565b604051601f8301601f19908116603f0116810190828211818310171561198b5761198b611908565b816040528381528660208588010111156119a457600080fd5b836020870160208301376000602085830101528094505050505092915050565b600080604083850312156119d757600080fd5b82359150602083013567ffffffffffffffff8111156119f557600080fd5b611a0185828601611937565b9150509250929050565b600060208284031215611a1d57600080fd5b5035919050565b600080600060408486031215611a3957600080fd5b83359250602084013567ffffffffffffffff811115611a5757600080fd5b611a6386828701611819565b9497909650939450505050565b6000815180845260005b81811015611a9657602081850181015186830182015201611a7a565b506000602082860101526020601f19601f83011685010191505092915050565b60208152600061093b6020830184611a70565b600060208284031215611adb57600080fd5b813567ffffffffffffffff811115611af257600080fd5b610efe84828501611937565b60008060408385031215611b1157600080fd5b50508035926020909101359150565b6001600160a01b0381168114610d6257600080fd5b60008060408385031215611b4857600080fd5b8235611b5381611b20565b946020939093013593505050565b60008060408385031215611b7457600080fd5b611b7d836117ce565b915060208301358015158114611b9257600080fd5b809150509250929050565b60008060008060408587031215611bb357600080fd5b843567ffffffffffffffff80821115611bcb57600080fd5b611bd788838901611819565b90965094506020870135915080821115611bf057600080fd5b50611bfd87828801611819565b95989497509550505050565b60008060408385031215611c1c57600080fd5b823591506020830135611b9281611b20565b600080600060608486031215611c4357600080fd5b8335925060208401359150604084013567ffffffffffffffff811115611c6857600080fd5b611c7486828701611937565b9150509250925092565b600060208284031215611c9057600080fd5b815161093b81611b20565b8183823760009101908152919050565b600181811c90821680611cbf57607f821691505b602082108103611cf8577f4e487b7100000000000000000000000000000000000000000000000000000000600052602260045260246000fd5b50919050565b601f821115611d4457600081815260208120601f850160051c81016020861015611d255750805b601f850160051c820191505b8181101561105e57828155600101611d31565b505050565b67ffffffffffffffff831115611d6157611d61611908565b611d7583611d6f8354611cab565b83611cfe565b6000601f841160018114611da95760008515611d915750838201355b600019600387901b1c1916600186901b178355611e03565b600083815260209020601f19861690835b82811015611dda5786850135825560209485019460019092019101611dba565b5086821015611df75760001960f88860031b161c19848701351681555b505060018560011b0183555b5050505050565b60208152816020820152818360408301376000818301604090810191909152601f909201601f19160101919050565b815167ffffffffffffffff811115611e5357611e53611908565b611e6781611e618454611cab565b84611cfe565b602080601f831160018114611e9c5760008415611e845750858301515b600019600386901b1c1916600185901b17855561105e565b600085815260208120601f198616915b82811015611ecb57888601518255948401946001909101908401611eac565b5085821015611ee95787850151600019600388901b60f8161c191681555b5050505050600190811b01905550565b80516020808301519190811015611cf85760001960209190910360031b1b16919050565b828152604060208201526000610efe6040830184611a7056fea26469706673582212205d11403fe64050b2128585659d778aad7d8bd124fae695c8bfcb43082283d09b64736f6c63430008100033e5010172002408011220a7448dcfc00e746c22e238de5c1e3b6fb97bae0949e47741b4e0ae8e929abd4f",
    "linkReferences": {}
  },
  "methodIdentifiers": {
    "DefaultContenthash()": "69be8bb0",
    "HELIX2()": "b782426e",
    "NAMES()": "05e84aa0",
    "addr(bytes32)": "3b3b57de",
    "addr2(bytes32,uint256)": "78237b03",
    "contenthash(bytes32)": "bc1c58d1",
    "pubkey(bytes32)": "c8690233",
    "setAddress(bytes32,address)": "ca446dd9",
    "setAddressCoin(bytes32,uint256,bytes)": "f5aed68f",
    "setContenthash(bytes32,bytes)": "304e6ade",
    "setDefaultContenthash(bytes)": "5d81d553",
    "setDefaultText(string,string)": "c9b69059",
    "setInterface(bytes4,bool)": "c0a43a7c",
    "setPubkey(bytes32,bytes32,bytes32)": "29cd62ea",
    "setText(bytes32,string,string)": "10f13a8c",
    "supportsInterface(bytes4)": "01ffc9a7",
    "text(bytes32,string)": "59d1d43c",
    "withdrawEther()": "7362377b",
    "withdrawToken(address,uint256)": "9e281a98"
  },
  "id": 15
}