{
  "abi": [
    {
      "inputs": [
        {
          "internalType": "address",
          "name": "_helix2",
          "type": "address"
        },
        {
          "internalType": "address",
          "name": "_priceOracle",
          "type": "address"
        }
      ],
      "stateMutability": "nonpayable",
      "type": "constructor"
    },
    {
      "anonymous": false,
      "inputs": [
        {
          "indexed": true,
          "internalType": "bytes32",
          "name": "namehash",
          "type": "bytes32"
        },
        {
          "indexed": false,
          "internalType": "address",
          "name": "controller",
          "type": "address"
        }
      ],
      "name": "NewController",
      "type": "event"
    },
    {
      "anonymous": false,
      "inputs": [
        {
          "indexed": true,
          "internalType": "bytes32",
          "name": "namehash",
          "type": "bytes32"
        },
        {
          "indexed": false,
          "internalType": "uint256",
          "name": "expiry",
          "type": "uint256"
        }
      ],
      "name": "NewExpiry",
      "type": "event"
    },
    {
      "anonymous": false,
      "inputs": [
        {
          "indexed": true,
          "internalType": "bytes32",
          "name": "namehash",
          "type": "bytes32"
        },
        {
          "indexed": false,
          "internalType": "address",
          "name": "owner",
          "type": "address"
        }
      ],
      "name": "NewOwner",
      "type": "event"
    },
    {
      "anonymous": false,
      "inputs": [
        {
          "indexed": true,
          "internalType": "bytes32",
          "name": "namehash",
          "type": "bytes32"
        },
        {
          "indexed": false,
          "internalType": "address",
          "name": "resolver",
          "type": "address"
        }
      ],
      "name": "NewRecord",
      "type": "event"
    },
    {
      "anonymous": false,
      "inputs": [
        {
          "indexed": true,
          "internalType": "bytes32",
          "name": "namehash",
          "type": "bytes32"
        },
        {
          "indexed": false,
          "internalType": "address",
          "name": "resolver",
          "type": "address"
        }
      ],
      "name": "NewResolver",
      "type": "event"
    },
    {
      "anonymous": false,
      "inputs": [
        {
          "indexed": true,
          "internalType": "address",
          "name": "previousOwner",
          "type": "address"
        },
        {
          "indexed": true,
          "internalType": "address",
          "name": "newOwner",
          "type": "address"
        }
      ],
      "name": "OwnershipTransferred",
      "type": "event"
    },
    {
      "anonymous": false,
      "inputs": [
        {
          "indexed": true,
          "internalType": "address",
          "name": "from",
          "type": "address"
        },
        {
          "indexed": true,
          "internalType": "address",
          "name": "to",
          "type": "address"
        },
        {
          "indexed": true,
          "internalType": "uint256",
          "name": "tokenID",
          "type": "uint256"
        }
      ],
      "name": "Transfer",
      "type": "event"
    },
    {
      "inputs": [],
      "name": "Dev",
      "outputs": [
        {
          "internalType": "address",
          "name": "",
          "type": "address"
        }
      ],
      "stateMutability": "view",
      "type": "function"
    },
    {
      "inputs": [],
      "name": "ERC721",
      "outputs": [
        {
          "internalType": "contract iERC721",
          "name": "",
          "type": "address"
        }
      ],
      "stateMutability": "view",
      "type": "function"
    },
    {
      "inputs": [],
      "name": "HELIX2",
      "outputs": [
        {
          "internalType": "contract iHELIX2",
          "name": "",
          "type": "address"
        }
      ],
      "stateMutability": "view",
      "type": "function"
    },
    {
      "inputs": [],
      "name": "PARENT",
      "outputs": [
        {
          "internalType": "contract iNAME",
          "name": "",
          "type": "address"
        }
      ],
      "stateMutability": "view",
      "type": "function"
    },
    {
      "inputs": [],
      "name": "PRICES",
      "outputs": [
        {
          "internalType": "contract iPriceOracle",
          "name": "",
          "type": "address"
        }
      ],
      "stateMutability": "view",
      "type": "function"
    },
    {
      "inputs": [],
      "name": "Registrar",
      "outputs": [
        {
          "internalType": "address",
          "name": "",
          "type": "address"
        }
      ],
      "stateMutability": "view",
      "type": "function"
    },
    {
      "inputs": [],
      "name": "STORE",
      "outputs": [
        {
          "internalType": "contract iNAME",
          "name": "",
          "type": "address"
        }
      ],
      "stateMutability": "view",
      "type": "function"
    },
    {
      "inputs": [],
      "name": "active",
      "outputs": [
        {
          "internalType": "bool",
          "name": "",
          "type": "bool"
        }
      ],
      "stateMutability": "view",
      "type": "function"
    },
    {
      "inputs": [],
      "name": "basePrice",
      "outputs": [
        {
          "internalType": "uint256",
          "name": "",
          "type": "uint256"
        }
      ],
      "stateMutability": "view",
      "type": "function"
    },
    {
      "inputs": [
        {
          "internalType": "bytes32",
          "name": "namehash",
          "type": "bytes32"
        }
      ],
      "name": "controller",
      "outputs": [
        {
          "internalType": "address",
          "name": "",
          "type": "address"
        }
      ],
      "stateMutability": "view",
      "type": "function"
    },
    {
      "inputs": [
        {
          "internalType": "bytes32",
          "name": "namehash",
          "type": "bytes32"
        }
      ],
      "name": "expiry",
      "outputs": [
        {
          "internalType": "uint256",
          "name": "",
          "type": "uint256"
        }
      ],
      "stateMutability": "view",
      "type": "function"
    },
    {
      "inputs": [
        {
          "internalType": "bytes32",
          "name": "namehash",
          "type": "bytes32"
        }
      ],
      "name": "label",
      "outputs": [
        {
          "internalType": "string",
          "name": "",
          "type": "string"
        }
      ],
      "stateMutability": "view",
      "type": "function"
    },
    {
      "inputs": [
        {
          "internalType": "bytes32",
          "name": "namehash",
          "type": "bytes32"
        }
      ],
      "name": "owner",
      "outputs": [
        {
          "internalType": "address",
          "name": "",
          "type": "address"
        }
      ],
      "stateMutability": "view",
      "type": "function"
    },
    {
      "inputs": [],
      "name": "owner",
      "outputs": [
        {
          "internalType": "address",
          "name": "",
          "type": "address"
        }
      ],
      "stateMutability": "view",
      "type": "function"
    },
    {
      "inputs": [
        {
          "internalType": "bytes32",
          "name": "namehash",
          "type": "bytes32"
        }
      ],
      "name": "recordExists",
      "outputs": [
        {
          "internalType": "bool",
          "name": "",
          "type": "bool"
        }
      ],
      "stateMutability": "view",
      "type": "function"
    },
    {
      "inputs": [
        {
          "internalType": "string",
          "name": "_label",
          "type": "string"
        },
        {
          "internalType": "bytes32",
          "name": "namehash",
          "type": "bytes32"
        },
        {
          "internalType": "address",
          "name": "_owner",
          "type": "address"
        }
      ],
      "name": "register",
      "outputs": [],
      "stateMutability": "nonpayable",
      "type": "function"
    },
    {
      "inputs": [
        {
          "internalType": "bytes32",
          "name": "namehash",
          "type": "bytes32"
        },
        {
          "internalType": "uint256",
          "name": "_expiry",
          "type": "uint256"
        }
      ],
      "name": "renew",
      "outputs": [],
      "stateMutability": "payable",
      "type": "function"
    },
    {
      "inputs": [
        {
          "internalType": "bytes32",
          "name": "namehash",
          "type": "bytes32"
        }
      ],
      "name": "resolver",
      "outputs": [
        {
          "internalType": "address",
          "name": "",
          "type": "address"
        }
      ],
      "stateMutability": "view",
      "type": "function"
    },
    {
      "inputs": [],
      "name": "roothash",
      "outputs": [
        {
          "internalType": "bytes32",
          "name": "",
          "type": "bytes32"
        }
      ],
      "stateMutability": "view",
      "type": "function"
    },
    {
      "inputs": [
        {
          "internalType": "address",
          "name": "_helix2",
          "type": "address"
        },
        {
          "internalType": "address",
          "name": "_priceOracle",
          "type": "address"
        },
        {
          "internalType": "address",
          "name": "_store",
          "type": "address"
        }
      ],
      "name": "setConfig",
      "outputs": [],
      "stateMutability": "nonpayable",
      "type": "function"
    },
    {
      "inputs": [
        {
          "internalType": "bytes32",
          "name": "namehash",
          "type": "bytes32"
        },
        {
          "internalType": "address",
          "name": "_controller",
          "type": "address"
        }
      ],
      "name": "setController",
      "outputs": [],
      "stateMutability": "nonpayable",
      "type": "function"
    },
    {
      "inputs": [
        {
          "internalType": "bytes32",
          "name": "namehash",
          "type": "bytes32"
        },
        {
          "internalType": "address",
          "name": "_controller",
          "type": "address"
        }
      ],
      "name": "setControllerERC721",
      "outputs": [],
      "stateMutability": "nonpayable",
      "type": "function"
    },
    {
      "inputs": [
        {
          "internalType": "bytes32",
          "name": "namehash",
          "type": "bytes32"
        },
        {
          "internalType": "uint256",
          "name": "_expiry",
          "type": "uint256"
        }
      ],
      "name": "setExpiry",
      "outputs": [],
      "stateMutability": "nonpayable",
      "type": "function"
    },
    {
      "inputs": [
        {
          "internalType": "bytes4",
          "name": "sig",
          "type": "bytes4"
        },
        {
          "internalType": "bool",
          "name": "value",
          "type": "bool"
        }
      ],
      "name": "setInterface",
      "outputs": [],
      "stateMutability": "payable",
      "type": "function"
    },
    {
      "inputs": [
        {
          "internalType": "bytes32",
          "name": "namehash",
          "type": "bytes32"
        },
        {
          "internalType": "address",
          "name": "_owner",
          "type": "address"
        }
      ],
      "name": "setOwner",
      "outputs": [],
      "stateMutability": "nonpayable",
      "type": "function"
    },
    {
      "inputs": [
        {
          "internalType": "bytes32",
          "name": "namehash",
          "type": "bytes32"
        },
        {
          "internalType": "address",
          "name": "_owner",
          "type": "address"
        }
      ],
      "name": "setOwnerERC721",
      "outputs": [],
      "stateMutability": "nonpayable",
      "type": "function"
    },
    {
      "inputs": [
        {
          "internalType": "bytes32",
          "name": "namehash",
          "type": "bytes32"
        },
        {
          "internalType": "address",
          "name": "_resolver",
          "type": "address"
        }
      ],
      "name": "setRecord",
      "outputs": [],
      "stateMutability": "nonpayable",
      "type": "function"
    },
    {
      "inputs": [
        {
          "internalType": "bytes32",
          "name": "namehash",
          "type": "bytes32"
        },
        {
          "internalType": "address",
          "name": "_resolver",
          "type": "address"
        }
      ],
      "name": "setResolver",
      "outputs": [],
      "stateMutability": "nonpayable",
      "type": "function"
    },
    {
      "inputs": [
        {
          "internalType": "bytes4",
          "name": "",
          "type": "bytes4"
        }
      ],
      "name": "supportsInterface",
      "outputs": [
        {
          "internalType": "bool",
          "name": "",
          "type": "bool"
        }
      ],
      "stateMutability": "view",
      "type": "function"
    },
    {
      "inputs": [],
      "name": "theEnd",
      "outputs": [
        {
          "internalType": "uint256",
          "name": "",
          "type": "uint256"
        }
      ],
      "stateMutability": "view",
      "type": "function"
    },
    {
      "inputs": [],
      "name": "toggleActive",
      "outputs": [],
      "stateMutability": "nonpayable",
      "type": "function"
    },
    {
      "inputs": [
        {
          "internalType": "address",
          "name": "newDev",
          "type": "address"
        }
      ],
      "name": "transferOwnership",
      "outputs": [],
      "stateMutability": "nonpayable",
      "type": "function"
    }
  ],
  "bytecode": {
    "object": "0x60806040526005805460ff60a01b1916600160a01b1790556703782dace9d90000600a553480156200003057600080fd5b5060405162003034380380620030348339810160408190526200005391620001f3565b600580546001600160a01b03199081163317909155600080546001600160a01b03851692168217905560408051633215476b60e11b8152905163642a8ed6916004808201926080929091908290030181865afa158015620000b8573d6000803e3d6000fd5b505050506040513d601f19601f82011682018060405250810190620000de919062000262565b51600755600480546001600160a01b0319166001600160a01b03831690811782556040805163bd9a548b60e01b81529051919263bd9a548b9282820192608092908290030181865afa15801562000139573d6000803e3d6000fd5b505050506040513d601f19601f820116820180604052508101906200015f919062000262565b51600855505060066020527fc26d0f43ee7b5be8b3e73c997d2363c9017f54260646f191d292f9460993aef38054600160ff1991821681179092556307f5828d60e41b6000527f1b858a95fc2ef26ad406f257ccb9b94f844893f38989af5697ecb3aadbe0d69e80549091169091179055620002c9565b80516001600160a01b0381168114620001ee57600080fd5b919050565b600080604083850312156200020757600080fd5b6200021283620001d6565b91506200022260208401620001d6565b90509250929050565b604051608081016001600160401b03811182821017156200025c57634e487b7160e01b600052604160045260246000fd5b60405290565b6000608082840312156200027557600080fd5b82601f8301126200028557600080fd5b6200028f6200022b565b806080840185811115620002a257600080fd5b845b81811015620002be578051845260209384019301620002a4565b509095945050505050565b612d5b80620002d96000396000f3fe6080604052600436106101e35760003560e01c80635b0fc9c311610102578063c7876ea411610095578063dbd4e02111610064578063dbd4e0211461059c578063f2fde38b146105bc578063f544d82f146105dc578063f79fe538146105ef57600080fd5b8063c7876ea414610526578063d2ec5fca1461053c578063d31569051461055c578063d9b76ed41461057c57600080fd5b8063b782426e116100d1578063b782426e146104b3578063b9f37c86146104d3578063be22e756146104f3578063c0a43a7c1461051357600080fd5b80635b0fc9c3146104355780638425abff146104555780638da5cb5b146104755780639177b0861461049357600080fd5b80631eabcd341161017a57806329c68dc11161014957806329c68dc1146103c05780633141e25b146103d557806339de6469146103f5578063507f14651461041557600080fd5b80631eabcd34146103395780631fc4859e1461035957806322b68deb14610386578063251c9422146103aa57600080fd5b806302571be3116101b657806302571be3146102a757806302fb0c5e146102c7578063122b83f9146102f95780631896f70a1461031957600080fd5b80630178b8bf146101e857806301d49a5f1461022557806301e51ae81461024757806301ffc9a714610267575b600080fd5b3480156101f457600080fd5b50610208610203366004612816565b61060f565b6040516001600160a01b0390911681526020015b60405180910390f35b34801561023157600080fd5b50610245610240366004612847565b610762565b005b34801561025357600080fd5b50600554610208906001600160a01b031681565b34801561027357600080fd5b506102976102823660046128ac565b60066020526000908152604090205460ff1681565b604051901515815260200161021c565b3480156102b357600080fd5b506102086102c2366004612816565b61087e565b3480156102d357600080fd5b506005546102979074010000000000000000000000000000000000000000900460ff1681565b34801561030557600080fd5b50600154610208906001600160a01b031681565b34801561032557600080fd5b50610245610334366004612847565b61092a565b34801561034557600080fd5b50600454610208906001600160a01b031681565b34801561036557600080fd5b50610379610374366004612816565b610b8a565b60405161021c91906128eb565b34801561039257600080fd5b5061039c600a5481565b60405190815260200161021c565b3480156103b657600080fd5b5061039c60075481565b3480156103cc57600080fd5b50610245610cd4565b3480156103e157600080fd5b506102456103f036600461291e565b610d7b565b34801561040157600080fd5b50610245610410366004612969565b611072565b34801561042157600080fd5b50600254610208906001600160a01b031681565b34801561044157600080fd5b50610245610450366004612847565b611237565b34801561046157600080fd5b50600354610208906001600160a01b031681565b34801561048157600080fd5b506005546001600160a01b0316610208565b34801561049f57600080fd5b506102456104ae36600461298b565b6117e3565b3480156104bf57600080fd5b50600054610208906001600160a01b031681565b3480156104df57600080fd5b50600954610208906001600160a01b031681565b3480156104ff57600080fd5b5061024561050e366004612847565b611a04565b610245610521366004612a16565b611b6e565b34801561053257600080fd5b5061039c60085481565b34801561054857600080fd5b5061039c610557366004612816565b611c9c565b34801561056857600080fd5b50610245610577366004612847565b611d0a565b34801561058857600080fd5b50610245610597366004612847565b611f60565b3480156105a857600080fd5b506102086105b7366004612816565b6121b6565b3480156105c857600080fd5b506102456105d7366004612a47565b6122c0565b6102456105ea366004612969565b61238e565b3480156105fb57600080fd5b5061029761060a366004612816565b6127a0565b6002546040516369762fe560e11b81526004810183905260009183916001600160a01b039091169063d2ec5fca90602401602060405180830381865afa15801561065d573d6000803e3d6000fd5b505050506040513d601f19601f820116820180604052508101906106819190612a64565b42106106d45760405162461bcd60e51b815260206004820152600c60248201527f4e414d455f45585049524544000000000000000000000000000000000000000060448201526064015b60405180910390fd5b6002546040517f0178b8bf000000000000000000000000000000000000000000000000000000008152600481018590526001600160a01b0390911690630178b8bf906024015b602060405180830381865afa158015610737573d6000803e3d6000fd5b505050506040513d601f19601f8201168201806040525081019061075b9190612a7d565b9392505050565b6009546001600160a01b031633146107bc5760405162461bcd60e51b815260206004820152600d60248201527f4e4f545f5245474953545241520000000000000000000000000000000000000060448201526064016106cb565b6002546040517fd3156905000000000000000000000000000000000000000000000000000000008152600481018490526001600160a01b0383811660248301529091169063d315690590604401600060405180830381600087803b15801561082357600080fd5b505af1158015610837573d6000803e3d6000fd5b50506040516001600160a01b03841681528492507fe5108446a6097aab57fd36f346a515a78fddefa87d81662d44e0d7a463f9209591506020015b60405180910390a25050565b6002546040517f02571be30000000000000000000000000000000000000000000000000000000081526004810183905260009182916001600160a01b03909116906302571be390602401602060405180830381865afa1580156108e5573d6000803e3d6000fd5b505050506040513d601f19601f820116820180604052508101906109099190612a7d565b9050306001600160a01b038216036109245750600092915050565b92915050565b6002546040517f02571be30000000000000000000000000000000000000000000000000000000081526004810184905283916000916001600160a01b03909116906302571be390602401602060405180830381865afa158015610991573d6000803e3d6000fd5b505050506040513d601f19601f820116820180604052508101906109b59190612a7d565b6009549091506001600160a01b03163314806109d957506001600160a01b03811633145b80610a7a57506002546040517fdbd4e021000000000000000000000000000000000000000000000000000000008152600481018490526001600160a01b039091169063dbd4e02190602401602060405180830381865afa158015610a41573d6000803e3d6000fd5b505050506040513d601f19601f82011682018060405250810190610a659190612a7d565b6001600160a01b0316336001600160a01b0316145b610ac65760405162461bcd60e51b815260206004820152600e60248201527f4e4f545f415554484f524953454400000000000000000000000000000000000060448201526064016106cb565b6002546040517f1896f70a000000000000000000000000000000000000000000000000000000008152600481018690526001600160a01b03858116602483015290911690631896f70a90604401600060405180830381600087803b158015610b2d57600080fd5b505af1158015610b41573d6000803e3d6000fd5b50506040516001600160a01b03861681528692507f335721b01866dc23fbee8b6b2c7b1e14d6f05c28cd35a2c934239f94095602a091506020015b60405180910390a250505050565b6002546040516369762fe560e11b81526004810183905260609183916001600160a01b039091169063d2ec5fca90602401602060405180830381865afa158015610bd8573d6000803e3d6000fd5b505050506040513d601f19601f82011682018060405250810190610bfc9190612a64565b4210610c4a5760405162461bcd60e51b815260206004820152600c60248201527f4e414d455f45585049524544000000000000000000000000000000000000000060448201526064016106cb565b6002546040517f1fc4859e000000000000000000000000000000000000000000000000000000008152600481018590526001600160a01b0390911690631fc4859e90602401600060405180830381865afa158015610cac573d6000803e3d6000fd5b505050506040513d6000823e601f3d908101601f1916820160405261075b9190810190612af2565b6005546001600160a01b03163314610d2e5760405162461bcd60e51b815260206004820152600760248201527f4e4f545f4445560000000000000000000000000000000000000000000000000060448201526064016106cb565b600580547fffffffffffffffffffffff00ffffffffffffffffffffffffffffffffffffffff8116740100000000000000000000000000000000000000009182900460ff1615909102179055565b6005546001600160a01b03163314610dd55760405162461bcd60e51b815260206004820152600760248201527f4e4f545f4445560000000000000000000000000000000000000000000000000060448201526064016106cb565b6001600160a01b03831615610f6b57600080547fffffffffffffffffffffffff0000000000000000000000000000000000000000166001600160a01b038516908117909155604080517f642a8ed6000000000000000000000000000000000000000000000000000000008152905163642a8ed6916004808201926080929091908290030181865afa158015610e6e573d6000803e3d6000fd5b505050506040513d601f19601f82011682018060405250810190610e929190612b9f565b51600755600054604080517f4d3f733400000000000000000000000000000000000000000000000000000000815290516001600160a01b0390921691634d3f7334916004808201926080929091908290030181865afa158015610ef9573d6000803e3d6000fd5b505050506040513d601f19601f82011682018060405250810190610f1d9190612bff565b51600980546001600160a01b039092167fffffffffffffffffffffffff0000000000000000000000000000000000000000928316811790915560018054831682179055600380549092161790555b6001600160a01b03811615610fae57600280547fffffffffffffffffffffffff0000000000000000000000000000000000000000166001600160a01b0383161790555b6001600160a01b0382161561106d57600480547fffffffffffffffffffffffff0000000000000000000000000000000000000000166001600160a01b0384169081178255604080517fbd9a548b0000000000000000000000000000000000000000000000000000000081529051919263bd9a548b9282820192608092908290030181865afa158015611044573d6000803e3d6000fd5b505050506040513d601f19601f820116820180604052508101906110689190612b9f565b516008555b505050565b6009546001600160a01b031633146110cc5760405162461bcd60e51b815260206004820152600d60248201527f4e4f545f5245474953545241520000000000000000000000000000000000000060448201526064016106cb565b6002546040516369762fe560e11b8152600481018490526001600160a01b039091169063d2ec5fca90602401602060405180830381865afa158015611115573d6000803e3d6000fd5b505050506040513d601f19601f820116820180604052508101906111399190612a64565b81116111875760405162461bcd60e51b815260206004820152600a60248201527f4241445f4558504952590000000000000000000000000000000000000000000060448201526064016106cb565b6002546040517f39de646900000000000000000000000000000000000000000000000000000000815260048101849052602481018390526001600160a01b03909116906339de646990604401600060405180830381600087803b1580156111ed57600080fd5b505af1158015611201573d6000803e3d6000fd5b50505050817fa620b72378ee464490805a96e25b53e5c0076f0ce2d28f9691ae255a595b3bf38260405161087291815260200190565b6002546040516369762fe560e11b81526004810184905283916001600160a01b03169063d2ec5fca90602401602060405180830381865afa158015611280573d6000803e3d6000fd5b505050506040513d601f19601f820116820180604052508101906112a49190612a64565b42106112f25760405162461bcd60e51b815260206004820152600c60248201527f4e414d455f45585049524544000000000000000000000000000000000000000060448201526064016106cb565b6002546040517f02571be3000000000000000000000000000000000000000000000000000000008152600481018390526000916001600160a01b0316906302571be390602401602060405180830381865afa158015611355573d6000803e3d6000fd5b505050506040513d601f19601f820116820180604052508101906113799190612a7d565b90506001600160a01b03811633146113d35760405162461bcd60e51b815260206004820152600960248201527f4e4f545f4f574e4552000000000000000000000000000000000000000000000060448201526064016106cb565b6001600160a01b0383166114295760405162461bcd60e51b815260206004820152600b60248201527f43414e4e4f545f4255524e00000000000000000000000000000000000000000060448201526064016106cb565b6002546040517f02571be3000000000000000000000000000000000000000000000000000000008152600481018690526000916001600160a01b0316906302571be390602401602060405180830381865afa15801561148c573d6000803e3d6000fd5b505050506040513d601f19601f820116820180604052508101906114b09190612a7d565b600180546003546040517f70a082310000000000000000000000000000000000000000000000000000000081526001600160a01b0380861660048301529495509184169363e30443bc938693909291909116906370a0823190602401602060405180830381865afa158015611529573d6000803e3d6000fd5b505050506040513d601f19601f8201168201806040525081019061154d9190612a64565b6115579190612c8c565b6040517fffffffff0000000000000000000000000000000000000000000000000000000060e085901b1681526001600160a01b0390921660048301526024820152604401600060405180830381600087803b1580156115b557600080fd5b505af11580156115c9573d6000803e3d6000fd5b50506001546003546040517f70a082310000000000000000000000000000000000000000000000000000000081526001600160a01b038981166004830152928316945063e30443bc93508892909116906370a0823190602401602060405180830381865afa15801561163f573d6000803e3d6000fd5b505050506040513d601f19601f820116820180604052508101906116639190612a64565b61166e906001612c9f565b6040517fffffffff0000000000000000000000000000000000000000000000000000000060e085901b1681526001600160a01b0390921660048301526024820152604401600060405180830381600087803b1580156116cc57600080fd5b505af11580156116e0573d6000803e3d6000fd5b50506040518792506001600160a01b0380881692508416907fddf252ad1be2c89b69c2b068fc378daa952ba7f163c4a11628f55a4df523b3ef90600090a46002546040517f5b0fc9c3000000000000000000000000000000000000000000000000000000008152600481018790526001600160a01b03868116602483015290911690635b0fc9c390604401600060405180830381600087803b15801561178557600080fd5b505af1158015611799573d6000803e3d6000fd5b50506040516001600160a01b03871681528792507f52cfe144bbaaed60759c6425b5bdfcebf7736889a75f9de7cd4cf30c7a6b807891506020015b60405180910390a25050505050565b6009546001600160a01b0316331461183d5760405162461bcd60e51b815260206004820152600d60248201527f4e4f545f5245474953545241520000000000000000000000000000000000000060448201526064016106cb565b6001600160a01b0381166118935760405162461bcd60e51b815260206004820152600b60248201527f43414e4e4f545f4255524e00000000000000000000000000000000000000000060448201526064016106cb565b60405182906001600160a01b038316906000907fddf252ad1be2c89b69c2b068fc378daa952ba7f163c4a11628f55a4df523b3ef908290a46002546040517f5b0fc9c3000000000000000000000000000000000000000000000000000000008152600481018490526001600160a01b03838116602483015290911690635b0fc9c390604401600060405180830381600087803b15801561193257600080fd5b505af1158015611946573d6000803e3d6000fd5b50506002546040517fae2b6d0d0000000000000000000000000000000000000000000000000000000081526001600160a01b03909116925063ae2b6d0d915061199790859088908890600401612cb2565b600060405180830381600087803b1580156119b157600080fd5b505af11580156119c5573d6000803e3d6000fd5b50506040516001600160a01b03841681528492507f52cfe144bbaaed60759c6425b5bdfcebf7736889a75f9de7cd4cf30c7a6b80789150602001610b7c565b6009546001600160a01b03163314611a5e5760405162461bcd60e51b815260206004820152600d60248201527f4e4f545f5245474953545241520000000000000000000000000000000000000060448201526064016106cb565b6001600160a01b038116611ab45760405162461bcd60e51b815260206004820152600b60248201527f43414e4e4f545f4255524e00000000000000000000000000000000000000000060448201526064016106cb565b6002546040517f5b0fc9c3000000000000000000000000000000000000000000000000000000008152600481018490526001600160a01b03838116602483015290911690635b0fc9c390604401600060405180830381600087803b158015611b1b57600080fd5b505af1158015611b2f573d6000803e3d6000fd5b50506040516001600160a01b03841681528492507f52cfe144bbaaed60759c6425b5bdfcebf7736889a75f9de7cd4cf30c7a6b80789150602001610872565b6005546001600160a01b03163314611bc85760405162461bcd60e51b815260206004820152600760248201527f4e4f545f4445560000000000000000000000000000000000000000000000000060448201526064016106cb565b7fffffffff000000000000000000000000000000000000000000000000000000008083169003611c3a5760405162461bcd60e51b815260206004820152601a60248201527f494e56414c49445f494e544552464143455f53454c4543544f5200000000000060448201526064016106cb565b7fffffffff0000000000000000000000000000000000000000000000000000000091909116600090815260066020526040902080547fffffffffffffffffffffffffffffffffffffffffffffffffffffffffffffff0016911515919091179055565b6002546040516369762fe560e11b8152600481018390526000916001600160a01b03169063d2ec5fca90602401602060405180830381865afa158015611ce6573d6000803e3d6000fd5b505050506040513d601f19601f820116820180604052508101906109249190612a64565b6002546040517f02571be30000000000000000000000000000000000000000000000000000000081526004810184905283916000916001600160a01b03909116906302571be390602401602060405180830381865afa158015611d71573d6000803e3d6000fd5b505050506040513d601f19601f82011682018060405250810190611d959190612a7d565b6009549091506001600160a01b0316331480611db957506001600160a01b03811633145b80611e5a57506002546040517fdbd4e021000000000000000000000000000000000000000000000000000000008152600481018490526001600160a01b039091169063dbd4e02190602401602060405180830381865afa158015611e21573d6000803e3d6000fd5b505050506040513d601f19601f82011682018060405250810190611e459190612a7d565b6001600160a01b0316336001600160a01b0316145b611ea65760405162461bcd60e51b815260206004820152600e60248201527f4e4f545f415554484f524953454400000000000000000000000000000000000060448201526064016106cb565b6002546040517fd3156905000000000000000000000000000000000000000000000000000000008152600481018690526001600160a01b0385811660248301529091169063d315690590604401600060405180830381600087803b158015611f0d57600080fd5b505af1158015611f21573d6000803e3d6000fd5b50506040516001600160a01b03861681528692507fe5108446a6097aab57fd36f346a515a78fddefa87d81662d44e0d7a463f920959150602001610b7c565b6002546040517f02571be30000000000000000000000000000000000000000000000000000000081526004810184905283916000916001600160a01b03909116906302571be390602401602060405180830381865afa158015611fc7573d6000803e3d6000fd5b505050506040513d601f19601f82011682018060405250810190611feb9190612a7d565b6009549091506001600160a01b031633148061200f57506001600160a01b03811633145b806120b057506002546040517fdbd4e021000000000000000000000000000000000000000000000000000000008152600481018490526001600160a01b039091169063dbd4e02190602401602060405180830381865afa158015612077573d6000803e3d6000fd5b505050506040513d601f19601f8201168201806040525081019061209b9190612a7d565b6001600160a01b0316336001600160a01b0316145b6120fc5760405162461bcd60e51b815260206004820152600e60248201527f4e4f545f415554484f524953454400000000000000000000000000000000000060448201526064016106cb565b6002546040517f1896f70a000000000000000000000000000000000000000000000000000000008152600481018690526001600160a01b03858116602483015290911690631896f70a90604401600060405180830381600087803b15801561216357600080fd5b505af1158015612177573d6000803e3d6000fd5b50506040516001600160a01b03861681528692507fcb71326aeaad88869e8be8be2893e1119f7617ce4ea2411af127e218909be1f79150602001610b7c565b6002546040516369762fe560e11b81526004810183905260009183916001600160a01b039091169063d2ec5fca90602401602060405180830381865afa158015612204573d6000803e3d6000fd5b505050506040513d601f19601f820116820180604052508101906122289190612a64565b42106122765760405162461bcd60e51b815260206004820152600c60248201527f4e414d455f45585049524544000000000000000000000000000000000000000060448201526064016106cb565b6002546040517fdbd4e021000000000000000000000000000000000000000000000000000000008152600481018590526001600160a01b039091169063dbd4e0219060240161071a565b6005546001600160a01b0316331461231a5760405162461bcd60e51b815260206004820152600760248201527f4e4f545f4445560000000000000000000000000000000000000000000000000060448201526064016106cb565b6005546040516001600160a01b038084169216907f8be0079c531659141344cd1fd0a4f28419497f9722a3daafe3b4186f6b6457e090600090a3600580547fffffffffffffffffffffffff0000000000000000000000000000000000000000166001600160a01b0392909216919091179055565b6002546040516369762fe560e11b81526004810184905283916001600160a01b03169063d2ec5fca90602401602060405180830381865afa1580156123d7573d6000803e3d6000fd5b505050506040513d601f19601f820116820180604052508101906123fb9190612a64565b42106124495760405162461bcd60e51b815260206004820152600c60248201527f4e414d455f45585049524544000000000000000000000000000000000000000060448201526064016106cb565b6002546040517f02571be3000000000000000000000000000000000000000000000000000000008152600481018390526000916001600160a01b0316906302571be390602401602060405180830381865afa1580156124ac573d6000803e3d6000fd5b505050506040513d601f19601f820116820180604052508101906124d09190612a7d565b90506001600160a01b03811633148061257f57506002546040517fdbd4e021000000000000000000000000000000000000000000000000000000008152600481018490526001600160a01b039091169063dbd4e02190602401602060405180830381865afa158015612546573d6000803e3d6000fd5b505050506040513d601f19601f8201168201806040525081019061256a9190612a7d565b6001600160a01b0316336001600160a01b0316145b6125cb5760405162461bcd60e51b815260206004820152601760248201527f4e4f545f4f574e45525f4f525f434f4e54524f4c4c455200000000000000000060448201526064016106cb565b6002546040516369762fe560e11b8152600481018690526000916001600160a01b03169063d2ec5fca90602401602060405180830381865afa158015612615573d6000803e3d6000fd5b505050506040513d601f19601f820116820180604052508101906126399190612a64565b905080841161268a5760405162461bcd60e51b815260206004820152600a60248201527f4241445f4558504952590000000000000000000000000000000000000000000060448201526064016106cb565b6008546126978286612c8c565b6126a19190612ce8565b3410156126f05760405162461bcd60e51b815260206004820152601260248201527f494e53554646494349454e545f4554484552000000000000000000000000000060448201526064016106cb565b6002546040517f39de646900000000000000000000000000000000000000000000000000000000815260048101879052602481018690526001600160a01b03909116906339de646990604401600060405180830381600087803b15801561275657600080fd5b505af115801561276a573d6000803e3d6000fd5b50505050847fa620b72378ee464490805a96e25b53e5c0076f0ce2d28f9691ae255a595b3bf3856040516117d491815260200190565b6002546040516369762fe560e11b8152600481018390526000916001600160a01b03169063d2ec5fca90602401602060405180830381865afa1580156127ea573d6000803e3d6000fd5b505050506040513d601f19601f8201168201806040525081019061280e9190612a64565b421092915050565b60006020828403121561282857600080fd5b5035919050565b6001600160a01b038116811461284457600080fd5b50565b6000806040838503121561285a57600080fd5b82359150602083013561286c8161282f565b809150509250929050565b80357fffffffff00000000000000000000000000000000000000000000000000000000811681146128a757600080fd5b919050565b6000602082840312156128be57600080fd5b61075b82612877565b60005b838110156128e25781810151838201526020016128ca565b50506000910152565b602081526000825180602084015261290a8160408501602087016128c7565b601f01601f19169190910160400192915050565b60008060006060848603121561293357600080fd5b833561293e8161282f565b9250602084013561294e8161282f565b9150604084013561295e8161282f565b809150509250925092565b6000806040838503121561297c57600080fd5b50508035926020909101359150565b600080600080606085870312156129a157600080fd5b843567ffffffffffffffff808211156129b957600080fd5b818701915087601f8301126129cd57600080fd5b8135818111156129dc57600080fd5b8860208285010111156129ee57600080fd5b6020928301965094505085013591506040850135612a0b8161282f565b939692955090935050565b60008060408385031215612a2957600080fd5b612a3283612877565b91506020830135801515811461286c57600080fd5b600060208284031215612a5957600080fd5b813561075b8161282f565b600060208284031215612a7657600080fd5b5051919050565b600060208284031215612a8f57600080fd5b815161075b8161282f565b7f4e487b7100000000000000000000000000000000000000000000000000000000600052604160045260246000fd5b6040516080810167ffffffffffffffff81118282101715612aec57612aec612a9a565b60405290565b600060208284031215612b0457600080fd5b815167ffffffffffffffff80821115612b1c57600080fd5b818401915084601f830112612b3057600080fd5b815181811115612b4257612b42612a9a565b604051601f8201601f19908116603f01168101908382118183101715612b6a57612b6a612a9a565b81604052828152876020848701011115612b8357600080fd5b612b948360208301602088016128c7565b979650505050505050565b600060808284031215612bb157600080fd5b82601f830112612bc057600080fd5b612bc8612ac9565b806080840185811115612bda57600080fd5b845b81811015612bf4578051845260209384019301612bdc565b509095945050505050565b600060808284031215612c1157600080fd5b82601f830112612c2057600080fd5b612c28612ac9565b806080840185811115612c3a57600080fd5b845b81811015612bf4578051612c4f8161282f565b845260209384019301612c3c565b7f4e487b7100000000000000000000000000000000000000000000000000000000600052601160045260246000fd5b8181038181111561092457610924612c5d565b8082018082111561092457610924612c5d565b83815260406020820152816040820152818360608301376000818301606090810191909152601f909201601f1916010192915050565b6000817fffffffffffffffffffffffffffffffffffffffffffffffffffffffffffffffff0483118215151615612d2057612d20612c5d565b50029056fea2646970667358221220e2c0dff0baacda3939067efeacf176bcc3ad56fa2951695d21d02d7517074b9864736f6c63430008100033",
    "linkReferences": {}
  },
  "methodIdentifiers": {
    "Dev()": "01e51ae8",
    "ERC721()": "8425abff",
    "HELIX2()": "b782426e",
    "PARENT()": "122b83f9",
    "PRICES()": "1eabcd34",
    "Registrar()": "b9f37c86",
    "STORE()": "507f1465",
    "active()": "02fb0c5e",
    "basePrice()": "c7876ea4",
    "controller(bytes32)": "dbd4e021",
    "expiry(bytes32)": "d2ec5fca",
    "label(bytes32)": "1fc4859e",
    "owner()": "8da5cb5b",
    "owner(bytes32)": "02571be3",
    "recordExists(bytes32)": "f79fe538",
    "register(string,bytes32,address)": "9177b086",
    "renew(bytes32,uint256)": "f544d82f",
    "resolver(bytes32)": "0178b8bf",
    "roothash()": "251c9422",
    "setConfig(address,address,address)": "3141e25b",
    "setController(bytes32,address)": "d3156905",
    "setControllerERC721(bytes32,address)": "01d49a5f",
    "setExpiry(bytes32,uint256)": "39de6469",
    "setInterface(bytes4,bool)": "c0a43a7c",
    "setOwner(bytes32,address)": "5b0fc9c3",
    "setOwnerERC721(bytes32,address)": "be22e756",
    "setRecord(bytes32,address)": "d9b76ed4",
    "setResolver(bytes32,address)": "1896f70a",
    "supportsInterface(bytes4)": "01ffc9a7",
    "theEnd()": "22b68deb",
    "toggleActive()": "29c68dc1",
    "transferOwnership(address)": "f2fde38b"
  },
  "id": 35
}