{
  "abi": [
    {
      "inputs": [
        {
          "internalType": "address",
          "name": "_helix2",
          "type": "address"
        }
      ],
      "stateMutability": "nonpayable",
      "type": "constructor"
    },
    {
      "anonymous": false,
      "inputs": [
        {
          "indexed": true,
          "internalType": "address",
          "name": "owner",
          "type": "address"
        },
        {
          "indexed": true,
          "internalType": "address",
          "name": "operator",
          "type": "address"
        },
        {
          "indexed": false,
          "internalType": "bool",
          "name": "approved",
          "type": "bool"
        }
      ],
      "name": "ApprovalForAll",
      "type": "event"
    },
    {
      "anonymous": false,
      "inputs": [
        {
          "indexed": true,
          "internalType": "bytes32",
          "name": "namehash",
          "type": "bytes32"
        },
        {
          "indexed": false,
          "internalType": "address",
          "name": "controller",
          "type": "address"
        }
      ],
      "name": "NewController",
      "type": "event"
    },
    {
      "anonymous": false,
      "inputs": [
        {
          "indexed": false,
          "internalType": "address",
          "name": "Dev",
          "type": "address"
        },
        {
          "indexed": false,
          "internalType": "address",
          "name": "newDev",
          "type": "address"
        }
      ],
      "name": "NewDev",
      "type": "event"
    },
    {
      "anonymous": false,
      "inputs": [
        {
          "indexed": true,
          "internalType": "bytes32",
          "name": "namehash",
          "type": "bytes32"
        },
        {
          "indexed": false,
          "internalType": "uint256",
          "name": "expiry",
          "type": "uint256"
        }
      ],
      "name": "NewExpiry",
      "type": "event"
    },
    {
      "anonymous": false,
      "inputs": [
        {
          "indexed": true,
          "internalType": "bytes32",
          "name": "namehash",
          "type": "bytes32"
        },
        {
          "indexed": false,
          "internalType": "address",
          "name": "owner",
          "type": "address"
        }
      ],
      "name": "NewName",
      "type": "event"
    },
    {
      "anonymous": false,
      "inputs": [
        {
          "indexed": true,
          "internalType": "bytes32",
          "name": "namehash",
          "type": "bytes32"
        },
        {
          "indexed": false,
          "internalType": "address",
          "name": "owner",
          "type": "address"
        }
      ],
      "name": "NewOwner",
      "type": "event"
    },
    {
      "anonymous": false,
      "inputs": [
        {
          "indexed": true,
          "internalType": "bytes32",
          "name": "namehash",
          "type": "bytes32"
        },
        {
          "indexed": false,
          "internalType": "address",
          "name": "resolver",
          "type": "address"
        }
      ],
      "name": "NewRecord",
      "type": "event"
    },
    {
      "anonymous": false,
      "inputs": [
        {
          "indexed": true,
          "internalType": "bytes32",
          "name": "namehash",
          "type": "bytes32"
        },
        {
          "indexed": false,
          "internalType": "address",
          "name": "resolver",
          "type": "address"
        }
      ],
      "name": "NewResolver",
      "type": "event"
    },
    {
      "inputs": [],
      "name": "Dev",
      "outputs": [
        {
          "internalType": "address",
          "name": "",
          "type": "address"
        }
      ],
      "stateMutability": "view",
      "type": "function"
    },
    {
      "inputs": [],
      "name": "HELIX2",
      "outputs": [
        {
          "internalType": "contract iHELIX2",
          "name": "",
          "type": "address"
        }
      ],
      "stateMutability": "view",
      "type": "function"
    },
    {
      "inputs": [
        {
          "internalType": "bytes32",
          "name": "",
          "type": "bytes32"
        }
      ],
      "name": "Names",
      "outputs": [
        {
          "internalType": "address",
          "name": "_owner",
          "type": "address"
        },
        {
          "internalType": "address",
          "name": "_resolver",
          "type": "address"
        },
        {
          "internalType": "address",
          "name": "_controller",
          "type": "address"
        },
        {
          "internalType": "uint256",
          "name": "_expiry",
          "type": "uint256"
        }
      ],
      "stateMutability": "view",
      "type": "function"
    },
    {
      "inputs": [],
      "name": "basePrice",
      "outputs": [
        {
          "internalType": "uint256",
          "name": "",
          "type": "uint256"
        }
      ],
      "stateMutability": "view",
      "type": "function"
    },
    {
      "inputs": [
        {
          "internalType": "address",
          "name": "newDev",
          "type": "address"
        }
      ],
      "name": "changeDev",
      "outputs": [],
      "stateMutability": "nonpayable",
      "type": "function"
    },
    {
      "inputs": [
        {
          "internalType": "bytes32",
          "name": "namehash",
          "type": "bytes32"
        }
      ],
      "name": "controller",
      "outputs": [
        {
          "internalType": "address",
          "name": "",
          "type": "address"
        }
      ],
      "stateMutability": "view",
      "type": "function"
    },
    {
      "inputs": [
        {
          "internalType": "bytes32",
          "name": "namehash",
          "type": "bytes32"
        }
      ],
      "name": "expiry",
      "outputs": [
        {
          "internalType": "uint256",
          "name": "",
          "type": "uint256"
        }
      ],
      "stateMutability": "view",
      "type": "function"
    },
    {
      "inputs": [
        {
          "internalType": "address",
          "name": "_owner",
          "type": "address"
        },
        {
          "internalType": "address",
          "name": "operator",
          "type": "address"
        }
      ],
      "name": "isApprovedForAll",
      "outputs": [
        {
          "internalType": "bool",
          "name": "",
          "type": "bool"
        }
      ],
      "stateMutability": "view",
      "type": "function"
    },
    {
      "inputs": [
        {
          "internalType": "bytes32",
          "name": "namehash",
          "type": "bytes32"
        }
      ],
      "name": "owner",
      "outputs": [
        {
          "internalType": "address",
          "name": "",
          "type": "address"
        }
      ],
      "stateMutability": "view",
      "type": "function"
    },
    {
      "inputs": [
        {
          "internalType": "bytes32",
          "name": "namehash",
          "type": "bytes32"
        }
      ],
      "name": "recordExists",
      "outputs": [
        {
          "internalType": "bool",
          "name": "",
          "type": "bool"
        }
      ],
      "stateMutability": "view",
      "type": "function"
    },
    {
      "inputs": [
        {
          "internalType": "bytes32",
          "name": "namehash",
          "type": "bytes32"
        }
      ],
      "name": "resolver",
      "outputs": [
        {
          "internalType": "address",
          "name": "",
          "type": "address"
        }
      ],
      "stateMutability": "view",
      "type": "function"
    },
    {
      "inputs": [],
      "name": "roothash",
      "outputs": [
        {
          "internalType": "bytes32",
          "name": "",
          "type": "bytes32"
        }
      ],
      "stateMutability": "view",
      "type": "function"
    },
    {
      "inputs": [
        {
          "internalType": "address",
          "name": "operator",
          "type": "address"
        },
        {
          "internalType": "bool",
          "name": "approved",
          "type": "bool"
        }
      ],
      "name": "setApprovalForAll",
      "outputs": [],
      "stateMutability": "payable",
      "type": "function"
    },
    {
      "inputs": [
        {
          "internalType": "bytes32",
          "name": "namehash",
          "type": "bytes32"
        },
        {
          "internalType": "address",
          "name": "_controller",
          "type": "address"
        }
      ],
      "name": "setController",
      "outputs": [],
      "stateMutability": "nonpayable",
      "type": "function"
    },
    {
      "inputs": [
        {
          "internalType": "bytes32",
          "name": "namehash",
          "type": "bytes32"
        },
        {
          "internalType": "uint256",
          "name": "_expiry",
          "type": "uint256"
        }
      ],
      "name": "setExpiry",
      "outputs": [],
      "stateMutability": "payable",
      "type": "function"
    },
    {
      "inputs": [
        {
          "internalType": "bytes32",
          "name": "namehash",
          "type": "bytes32"
        },
        {
          "internalType": "address",
          "name": "_owner",
          "type": "address"
        }
      ],
      "name": "setOwner",
      "outputs": [],
      "stateMutability": "nonpayable",
      "type": "function"
    },
    {
      "inputs": [
        {
          "internalType": "bytes32",
          "name": "namehash",
          "type": "bytes32"
        },
        {
          "internalType": "address",
          "name": "_resolver",
          "type": "address"
        }
      ],
      "name": "setRecord",
      "outputs": [],
      "stateMutability": "nonpayable",
      "type": "function"
    },
    {
      "inputs": [
        {
          "internalType": "bytes32",
          "name": "namehash",
          "type": "bytes32"
        },
        {
          "internalType": "address",
          "name": "_resolver",
          "type": "address"
        }
      ],
      "name": "setResolver",
      "outputs": [],
      "stateMutability": "nonpayable",
      "type": "function"
    },
    {
      "inputs": [],
      "name": "theEnd",
      "outputs": [
        {
          "internalType": "uint256",
          "name": "",
          "type": "uint256"
        }
      ],
      "stateMutability": "view",
      "type": "function"
    },
    {
      "inputs": [],
      "name": "withdrawEther",
      "outputs": [],
      "stateMutability": "payable",
      "type": "function"
    },
    {
      "inputs": [
        {
          "internalType": "address",
          "name": "token",
          "type": "address"
        }
      ],
      "name": "withdrawToken",
      "outputs": [],
      "stateMutability": "payable",
      "type": "function"
    }
  ],
  "bytecode": {
    "object": "0x60806040526703782dace9d900006004553480156200001d57600080fd5b50604051620019283803806200192883398101604081905262000040916200041e565b600180546001600160a01b03199081163317909155600080546001600160a01b03841692168217905560408051633215476b60e11b8152905163642a8ed6916004808201926080929091908290030181865afa158015620000a5573d6000803e3d6000fd5b505050506040513d601f19601f82011682018060405250810190620000cb919062000487565b516002556000546040805163bd9a548b60e01b815290516001600160a01b039092169163bd9a548b916004808201926080929091908290030181865afa1580156200011a573d6000803e3d6000fd5b505050506040513d601f19601f8201168201806040525081019062000140919062000487565b516003556200014e62000155565b506200052c565b6001546001600160a01b031633146200019e5760405162461bcd60e51b81526020600482015260076024820152662727aa2fa222ab60c91b604482015260640160405180910390fd5b600080805260056020527f05b8ccbb9d4d8fb16ea74ce3c29a41f1b461fbdaff4714a0d9a8eb05499746bc8054336001600160a01b03199182168117909255600480547f05b8ccbb9d4d8fb16ea74ce3c29a41f1b461fbdaff4714a0d9a8eb05499746bf557f05b8ccbb9d4d8fb16ea74ce3c29a41f1b461fbdaff4714a0d9a8eb05499746be80548316841790557f05b8ccbb9d4d8fb16ea74ce3c29a41f1b461fbdaff4714a0d9a8eb05499746bd80549092169092179055815460408051633215476b60e11b815290516001600160a01b039092169263642a8ed69282820192608092908290030181865afa1580156200029d573d6000803e3d6000fd5b505050506040513d601f19601f82011682018060405250810190620002c3919062000487565b905060005b60048110156200041a573360056000848460048110620002ec57620002ec620004ee565b6020020151815260200190815260200160002060000160006101000a8154816001600160a01b0302191690836001600160a01b0316021790555060045460056000848460048110620003425762000342620004ee565b60200201518152602001908152602001600020600301819055503360056000848460048110620003765762000376620004ee565b6020020151815260200190815260200160002060020160006101000a8154816001600160a01b0302191690836001600160a01b031602179055503360056000848460048110620003ca57620003ca620004ee565b6020020151815260200190815260200160002060010160006101000a8154816001600160a01b0302191690836001600160a01b031602179055508080620004119062000504565b915050620002c8565b5050565b6000602082840312156200043157600080fd5b81516001600160a01b03811681146200044957600080fd5b9392505050565b604051608081016001600160401b03811182821017156200048157634e487b7160e01b600052604160045260246000fd5b60405290565b6000608082840312156200049a57600080fd5b82601f830112620004aa57600080fd5b620004b462000450565b806080840185811115620004c757600080fd5b845b81811015620004e3578051845260209384019301620004c9565b509095945050505050565b634e487b7160e01b600052603260045260246000fd5b6000600182016200052557634e487b7160e01b600052601160045260246000fd5b5060010190565b6113ec806200053c6000396000f3fe60806040526004361061016a5760003560e01c806389476069116100cb578063d2ec5fca1161007f578063dbd4e02111610059578063dbd4e021146103f6578063e985e9c514610416578063f79fe5381461044657600080fd5b8063d2ec5fca14610386578063d3156905146103b6578063d9b76ed4146103d657600080fd5b8063a22cb465116100b0578063a22cb4651461033d578063b782426e14610350578063c7876ea41461037057600080fd5b806389476069146102a3578063997c9efa146102b657600080fd5b8063251c9422116101225780635b0fc9c3116101075780635b0fc9c31461025b5780637362377b1461027b57806388a8c95c1461028357600080fd5b8063251c94221461023257806339de64691461024857600080fd5b806302571be31161015357806302571be3146101cc5780631896f70a146101ec57806322b68deb1461020e57600080fd5b80630178b8bf1461016f57806301e51ae8146101ac575b600080fd5b34801561017b57600080fd5b5061018f61018a3660046111f4565b610478565b6040516001600160a01b0390911681526020015b60405180910390f35b3480156101b857600080fd5b5060015461018f906001600160a01b031681565b3480156101d857600080fd5b5061018f6101e73660046111f4565b610503565b3480156101f857600080fd5b5061020c610207366004611229565b610595565b005b34801561021a57600080fd5b5061022460045481565b6040519081526020016101a3565b34801561023e57600080fd5b5061022460025481565b61020c610256366004611255565b610732565b34801561026757600080fd5b5061020c610276366004611229565b61097f565b61020c610aeb565b34801561028f57600080fd5b5061020c61029e366004611277565b610b91565b61020c6102b1366004611277565b610c6c565b3480156102c257600080fd5b506103086102d13660046111f4565b60056020526000908152604090208054600182015460028301546003909301546001600160a01b0392831693918316929091169084565b6040516101a394939291906001600160a01b039485168152928416602084015292166040820152606081019190915260800190565b61020c61034b3660046112a0565b610d92565b34801561035c57600080fd5b5060005461018f906001600160a01b031681565b34801561037c57600080fd5b5061022460035481565b34801561039257600080fd5b506102246103a13660046111f4565b60009081526005602052604090206003015490565b3480156103c257600080fd5b5061020c6103d1366004611229565b610e1c565b3480156103e257600080fd5b5061020c6103f1366004611229565b610faf565b34801561040257600080fd5b5061018f6104113660046111f4565b611142565b34801561042257600080fd5b506104366104313660046112d7565b6111c4565b60405190151581526020016101a3565b34801561045257600080fd5b506104366104613660046111f4565b600090815260056020526040902060030154421090565b600081815260056020526040812060030154829042106104df5760405162461bcd60e51b815260206004820152600c60248201527f4e414d455f45585049524544000000000000000000000000000000000000000060448201526064015b60405180910390fd5b6000838152600560205260409020600101546001600160a01b031691505b50919050565b600081815260056020526040812060030154829042106105655760405162461bcd60e51b815260206004820152600c60248201527f4e414d455f45585049524544000000000000000000000000000000000000000060448201526064016104d6565b6000838152600560205260409020546001600160a01b031630810361058e5760009250506104fd565b9392505050565b600082815260056020526040902060030154829042106105f75760405162461bcd60e51b815260206004820152600c60248201527f4e414d455f45585049524544000000000000000000000000000000000000000060448201526064016104d6565b6000818152600560205260409020546001600160a01b03163381148061064057506001600160a01b038116600090815260066020908152604080832033845290915290205460ff165b8061066457506000828152600560205260409020600201546001600160a01b031633145b6106b05760405162461bcd60e51b815260206004820152601760248201527f4e4f545f4f574e45525f4f525f434f4e54524f4c4c455200000000000000000060448201526064016104d6565b60008481526005602090815260409182902060010180547fffffffffffffffffffffffff0000000000000000000000000000000000000000166001600160a01b038716908117909155915191825285917f335721b01866dc23fbee8b6b2c7b1e14d6f05c28cd35a2c934239f94095602a091015b60405180910390a250505050565b600082815260056020526040902060030154829042106107945760405162461bcd60e51b815260206004820152600c60248201527f4e414d455f45585049524544000000000000000000000000000000000000000060448201526064016104d6565b6000818152600560205260409020546001600160a01b0316338114806107dd57506001600160a01b038116600090815260066020908152604080832033845290915290205460ff165b8061080157506000828152600560205260409020600201546001600160a01b031633145b61084d5760405162461bcd60e51b815260206004820152601760248201527f4e4f545f4f574e45525f4f525f434f4e54524f4c4c455200000000000000000060448201526064016104d6565b60008481526005602052604090206003015483116108ad5760405162461bcd60e51b815260206004820152600a60248201527f4241445f4558504952590000000000000000000000000000000000000000000060448201526064016104d6565b6000848152600560205260408120600301546108c99085611330565b9050600354816108d99190611343565b3410156109285760405162461bcd60e51b815260206004820152601260248201527f494e53554646494349454e545f4554484552000000000000000000000000000060448201526064016104d6565b600085815260056020526040908190206003018590555185907fa620b72378ee464490805a96e25b53e5c0076f0ce2d28f9691ae255a595b3bf3906109709087815260200190565b60405180910390a25050505050565b600082815260056020526040902060030154829042106109e15760405162461bcd60e51b815260206004820152600c60248201527f4e414d455f45585049524544000000000000000000000000000000000000000060448201526064016104d6565b6000818152600560205260409020546001600160a01b031633811480610a2a57506001600160a01b038116600090815260066020908152604080832033845290915290205460ff165b610a765760405162461bcd60e51b815260206004820152600960248201527f4e4f545f4f574e4552000000000000000000000000000000000000000000000060448201526064016104d6565b60008481526005602090815260409182902080547fffffffffffffffffffffffff0000000000000000000000000000000000000000166001600160a01b038716908117909155915191825285917f52cfe144bbaaed60759c6425b5bdfcebf7736889a75f9de7cd4cf30c7a6b80789101610724565b6001546040516000916001600160a01b03169047908381818185875af1925050503d8060008114610b38576040519150601f19603f3d011682016040523d82523d6000602084013e610b3d565b606091505b5050905080610b8e5760405162461bcd60e51b815260206004820152601360248201527f4554485f5452414e534645525f4641494c45440000000000000000000000000060448201526064016104d6565b50565b6001546001600160a01b03163314610beb5760405162461bcd60e51b815260206004820152600760248201527f4e4f545f4445560000000000000000000000000000000000000000000000000060448201526064016104d6565b600154604080516001600160a01b03928316815291831660208301527fdec101f106d4fc7c85791843e64b198248c822298e3ed7046231d33f7783d816910160405180910390a1600180547fffffffffffffffffffffffff0000000000000000000000000000000000000000166001600160a01b0392909216919091179055565b6001546040517f70a0823100000000000000000000000000000000000000000000000000000000815230600482018190526001600160a01b03848116936323b872dd9391169084906370a0823190602401602060405180830381865afa158015610cda573d6000803e3d6000fd5b505050506040513d601f19601f82011682018060405250810190610cfe9190611380565b6040517fffffffff0000000000000000000000000000000000000000000000000000000060e086901b1681526001600160a01b03938416600482015292909116602483015260448201526064016020604051808303816000875af1158015610d6a573d6000803e3d6000fd5b505050506040513d601f19601f82011682018060405250810190610d8e9190611399565b5050565b3360008181526006602090815260408083206001600160a01b0387168085529083529281902080547fffffffffffffffffffffffffffffffffffffffffffffffffffffffffffffff001686151590811790915590519081529192917f17307eab39ab6107e8899845ad3d59bd9653f200f220920489ca2b5937696c31910160405180910390a35050565b60008281526005602052604090206003015482904210610e7e5760405162461bcd60e51b815260206004820152600c60248201527f4e414d455f45585049524544000000000000000000000000000000000000000060448201526064016104d6565b6000818152600560205260409020546001600160a01b031633811480610ec757506001600160a01b038116600090815260066020908152604080832033845290915290205460ff165b80610eeb57506000828152600560205260409020600201546001600160a01b031633145b610f375760405162461bcd60e51b815260206004820152601760248201527f4e4f545f4f574e45525f4f525f434f4e54524f4c4c455200000000000000000060448201526064016104d6565b60008481526005602090815260409182902060020180547fffffffffffffffffffffffff0000000000000000000000000000000000000000166001600160a01b038716908117909155915191825285917fe5108446a6097aab57fd36f346a515a78fddefa87d81662d44e0d7a463f920959101610724565b600082815260056020526040902060030154829042106110115760405162461bcd60e51b815260206004820152600c60248201527f4e414d455f45585049524544000000000000000000000000000000000000000060448201526064016104d6565b6000818152600560205260409020546001600160a01b03163381148061105a57506001600160a01b038116600090815260066020908152604080832033845290915290205460ff165b8061107e57506000828152600560205260409020600201546001600160a01b031633145b6110ca5760405162461bcd60e51b815260206004820152601760248201527f4e4f545f4f574e45525f4f525f434f4e54524f4c4c455200000000000000000060448201526064016104d6565b60008481526005602090815260409182902060010180547fffffffffffffffffffffffff0000000000000000000000000000000000000000166001600160a01b038716908117909155915191825285917fcb71326aeaad88869e8be8be2893e1119f7617ce4ea2411af127e218909be1f79101610724565b600081815260056020526040812060030154829042106111a45760405162461bcd60e51b815260206004820152600c60248201527f4e414d455f45585049524544000000000000000000000000000000000000000060448201526064016104d6565b50506000908152600560205260409020600201546001600160a01b031690565b6001600160a01b0380831660009081526006602090815260408083209385168352929052205460ff165b92915050565b60006020828403121561120657600080fd5b5035919050565b80356001600160a01b038116811461122457600080fd5b919050565b6000806040838503121561123c57600080fd5b8235915061124c6020840161120d565b90509250929050565b6000806040838503121561126857600080fd5b50508035926020909101359150565b60006020828403121561128957600080fd5b61058e8261120d565b8015158114610b8e57600080fd5b600080604083850312156112b357600080fd5b6112bc8361120d565b915060208301356112cc81611292565b809150509250929050565b600080604083850312156112ea57600080fd5b6112f38361120d565b915061124c6020840161120d565b7f4e487b7100000000000000000000000000000000000000000000000000000000600052601160045260246000fd5b818103818111156111ee576111ee611301565b6000817fffffffffffffffffffffffffffffffffffffffffffffffffffffffffffffffff048311821515161561137b5761137b611301565b500290565b60006020828403121561139257600080fd5b5051919050565b6000602082840312156113ab57600080fd5b815161058e8161129256fea26469706673582212200fee0297d9e466c83c4a5ca25d71262c28b2f2120cb0acf1498c33e03117ae1264736f6c63430008100033",
    "linkReferences": {}
  },
  "methodIdentifiers": {
    "Dev()": "01e51ae8",
    "HELIX2()": "b782426e",
    "Names(bytes32)": "997c9efa",
    "basePrice()": "c7876ea4",
    "changeDev(address)": "88a8c95c",
    "controller(bytes32)": "dbd4e021",
    "expiry(bytes32)": "d2ec5fca",
    "isApprovedForAll(address,address)": "e985e9c5",
    "owner(bytes32)": "02571be3",
    "recordExists(bytes32)": "f79fe538",
    "resolver(bytes32)": "0178b8bf",
    "roothash()": "251c9422",
    "setApprovalForAll(address,bool)": "a22cb465",
    "setController(bytes32,address)": "d3156905",
    "setExpiry(bytes32,uint256)": "39de6469",
    "setOwner(bytes32,address)": "5b0fc9c3",
    "setRecord(bytes32,address)": "d9b76ed4",
    "setResolver(bytes32,address)": "1896f70a",
    "theEnd()": "22b68deb",
    "withdrawEther()": "7362377b",
    "withdrawToken(address)": "89476069"
  },
  "id": 31
}