{
  "abi": [
    {
      "inputs": [
        {
          "internalType": "address",
          "name": "_helix2",
          "type": "address"
        },
        {
          "internalType": "address",
          "name": "_priceOracle",
          "type": "address"
        }
      ],
      "stateMutability": "nonpayable",
      "type": "constructor"
    },
    {
      "anonymous": false,
      "inputs": [
        {
          "indexed": true,
          "internalType": "address",
          "name": "owner",
          "type": "address"
        },
        {
          "indexed": true,
          "internalType": "address",
          "name": "spender",
          "type": "address"
        },
        {
          "indexed": true,
          "internalType": "uint256",
          "name": "tokenID",
          "type": "uint256"
        }
      ],
      "name": "Approval",
      "type": "event"
    },
    {
      "anonymous": false,
      "inputs": [
        {
          "indexed": true,
          "internalType": "address",
          "name": "owner",
          "type": "address"
        },
        {
          "indexed": true,
          "internalType": "address",
          "name": "operator",
          "type": "address"
        },
        {
          "indexed": false,
          "internalType": "bool",
          "name": "approved",
          "type": "bool"
        }
      ],
      "name": "ApprovalForAll",
      "type": "event"
    },
    {
      "anonymous": false,
      "inputs": [
        {
          "indexed": true,
          "internalType": "bytes32",
          "name": "namehash",
          "type": "bytes32"
        },
        {
          "indexed": false,
          "internalType": "address",
          "name": "controller",
          "type": "address"
        }
      ],
      "name": "NewController",
      "type": "event"
    },
    {
      "anonymous": false,
      "inputs": [
        {
          "indexed": true,
          "internalType": "bytes32",
          "name": "namehash",
          "type": "bytes32"
        },
        {
          "indexed": false,
          "internalType": "uint256",
          "name": "expiry",
          "type": "uint256"
        }
      ],
      "name": "NewExpiry",
      "type": "event"
    },
    {
      "anonymous": false,
      "inputs": [
        {
          "indexed": true,
          "internalType": "bytes32",
          "name": "namehash",
          "type": "bytes32"
        },
        {
          "indexed": false,
          "internalType": "address",
          "name": "owner",
          "type": "address"
        }
      ],
      "name": "NewOwner",
      "type": "event"
    },
    {
      "anonymous": false,
      "inputs": [
        {
          "indexed": true,
          "internalType": "bytes32",
          "name": "namehash",
          "type": "bytes32"
        },
        {
          "indexed": false,
          "internalType": "address",
          "name": "resolver",
          "type": "address"
        }
      ],
      "name": "NewRecord",
      "type": "event"
    },
    {
      "anonymous": false,
      "inputs": [
        {
          "indexed": true,
          "internalType": "bytes32",
          "name": "namehash",
          "type": "bytes32"
        },
        {
          "indexed": false,
          "internalType": "address",
          "name": "resolver",
          "type": "address"
        }
      ],
      "name": "NewResolver",
      "type": "event"
    },
    {
      "anonymous": false,
      "inputs": [
        {
          "indexed": true,
          "internalType": "address",
          "name": "previousOwner",
          "type": "address"
        },
        {
          "indexed": true,
          "internalType": "address",
          "name": "newOwner",
          "type": "address"
        }
      ],
      "name": "OwnershipTransferred",
      "type": "event"
    },
    {
      "anonymous": false,
      "inputs": [
        {
          "indexed": true,
          "internalType": "address",
          "name": "from",
          "type": "address"
        },
        {
          "indexed": true,
          "internalType": "address",
          "name": "to",
          "type": "address"
        },
        {
          "indexed": true,
          "internalType": "uint256",
          "name": "tokenID",
          "type": "uint256"
        }
      ],
      "name": "Transfer",
      "type": "event"
    },
    {
      "inputs": [],
      "name": "Dev",
      "outputs": [
        {
          "internalType": "address",
          "name": "",
          "type": "address"
        }
      ],
      "stateMutability": "view",
      "type": "function"
    },
    {
      "inputs": [],
      "name": "ERC721",
      "outputs": [
        {
          "internalType": "contract iERC721",
          "name": "",
          "type": "address"
        }
      ],
      "stateMutability": "view",
      "type": "function"
    },
    {
      "inputs": [],
      "name": "HELIX2",
      "outputs": [
        {
          "internalType": "contract iHELIX2",
          "name": "",
          "type": "address"
        }
      ],
      "stateMutability": "view",
      "type": "function"
    },
    {
      "inputs": [
        {
          "internalType": "bytes32",
          "name": "",
          "type": "bytes32"
        }
      ],
      "name": "Names",
      "outputs": [
        {
          "internalType": "string",
          "name": "_label",
          "type": "string"
        },
        {
          "internalType": "address",
          "name": "_owner",
          "type": "address"
        },
        {
          "internalType": "address",
          "name": "_resolver",
          "type": "address"
        },
        {
          "internalType": "address",
          "name": "_controller",
          "type": "address"
        },
        {
          "internalType": "uint256",
          "name": "_expiry",
          "type": "uint256"
        }
      ],
      "stateMutability": "view",
      "type": "function"
    },
    {
      "inputs": [],
      "name": "PRICES",
      "outputs": [
        {
          "internalType": "contract iPriceOracle",
          "name": "",
          "type": "address"
        }
      ],
      "stateMutability": "view",
      "type": "function"
    },
    {
      "inputs": [],
      "name": "Registrar",
      "outputs": [
        {
          "internalType": "address",
          "name": "",
          "type": "address"
        }
      ],
      "stateMutability": "view",
      "type": "function"
    },
    {
      "inputs": [],
      "name": "STORE",
      "outputs": [
        {
          "internalType": "contract iNAME",
          "name": "",
          "type": "address"
        }
      ],
      "stateMutability": "view",
      "type": "function"
    },
    {
      "inputs": [],
      "name": "_NAME_",
      "outputs": [
        {
          "internalType": "contract iNAME",
          "name": "",
          "type": "address"
        }
      ],
      "stateMutability": "view",
      "type": "function"
    },
    {
      "inputs": [],
      "name": "active",
      "outputs": [
        {
          "internalType": "bool",
          "name": "",
          "type": "bool"
        }
      ],
      "stateMutability": "view",
      "type": "function"
    },
    {
      "inputs": [],
      "name": "basePrice",
      "outputs": [
        {
          "internalType": "uint256",
          "name": "",
          "type": "uint256"
        }
      ],
      "stateMutability": "view",
      "type": "function"
    },
    {
      "inputs": [
        {
          "internalType": "bytes32",
          "name": "namehash",
          "type": "bytes32"
        }
      ],
      "name": "controller",
      "outputs": [
        {
          "internalType": "address",
          "name": "",
          "type": "address"
        }
      ],
      "stateMutability": "view",
      "type": "function"
    },
    {
      "inputs": [
        {
          "internalType": "bytes32",
          "name": "namehash",
          "type": "bytes32"
        }
      ],
      "name": "expiry",
      "outputs": [
        {
          "internalType": "uint256",
          "name": "",
          "type": "uint256"
        }
      ],
      "stateMutability": "view",
      "type": "function"
    },
    {
      "inputs": [
        {
          "internalType": "address",
          "name": "_owner",
          "type": "address"
        },
        {
          "internalType": "address",
          "name": "operator",
          "type": "address"
        }
      ],
      "name": "isApprovedForAll",
      "outputs": [
        {
          "internalType": "bool",
          "name": "",
          "type": "bool"
        }
      ],
      "stateMutability": "view",
      "type": "function"
    },
    {
      "inputs": [
        {
          "internalType": "bytes32",
          "name": "namehash",
          "type": "bytes32"
        }
      ],
      "name": "label",
      "outputs": [
        {
          "internalType": "string",
          "name": "",
          "type": "string"
        }
      ],
      "stateMutability": "view",
      "type": "function"
    },
    {
      "inputs": [
        {
          "internalType": "bytes32",
          "name": "namehash",
          "type": "bytes32"
        }
      ],
      "name": "owner",
      "outputs": [
        {
          "internalType": "address",
          "name": "",
          "type": "address"
        }
      ],
      "stateMutability": "view",
      "type": "function"
    },
    {
      "inputs": [],
      "name": "owner",
      "outputs": [
        {
          "internalType": "address",
          "name": "",
          "type": "address"
        }
      ],
      "stateMutability": "view",
      "type": "function"
    },
    {
      "inputs": [
        {
          "internalType": "bytes32",
          "name": "namehash",
          "type": "bytes32"
        }
      ],
      "name": "recordExists",
      "outputs": [
        {
          "internalType": "bool",
          "name": "",
          "type": "bool"
        }
      ],
      "stateMutability": "view",
      "type": "function"
    },
    {
      "inputs": [
        {
          "internalType": "string",
          "name": "_label",
          "type": "string"
        },
        {
          "internalType": "bytes32",
          "name": "namehash",
          "type": "bytes32"
        },
        {
          "internalType": "address",
          "name": "_owner",
          "type": "address"
        }
      ],
      "name": "register",
      "outputs": [],
      "stateMutability": "nonpayable",
      "type": "function"
    },
    {
      "inputs": [
        {
          "internalType": "bytes32",
          "name": "namehash",
          "type": "bytes32"
        },
        {
          "internalType": "uint256",
          "name": "_expiry",
          "type": "uint256"
        }
      ],
      "name": "renew",
      "outputs": [],
      "stateMutability": "payable",
      "type": "function"
    },
    {
      "inputs": [
        {
          "internalType": "bytes32",
          "name": "namehash",
          "type": "bytes32"
        }
      ],
      "name": "resolver",
      "outputs": [
        {
          "internalType": "address",
          "name": "",
          "type": "address"
        }
      ],
      "stateMutability": "view",
      "type": "function"
    },
    {
      "inputs": [],
      "name": "roothash",
      "outputs": [
        {
          "internalType": "bytes32",
          "name": "",
          "type": "bytes32"
        }
      ],
      "stateMutability": "view",
      "type": "function"
    },
    {
      "inputs": [
        {
          "internalType": "address",
          "name": "operator",
          "type": "address"
        },
        {
          "internalType": "bool",
          "name": "approved",
          "type": "bool"
        }
      ],
      "name": "setApprovalForAll",
      "outputs": [],
      "stateMutability": "nonpayable",
      "type": "function"
    },
    {
      "inputs": [
        {
          "internalType": "address",
          "name": "_helix2",
          "type": "address"
        },
        {
          "internalType": "address",
          "name": "_priceOracle",
          "type": "address"
        },
        {
          "internalType": "address",
          "name": "_store",
          "type": "address"
        }
      ],
      "name": "setConfig",
      "outputs": [],
      "stateMutability": "nonpayable",
      "type": "function"
    },
    {
      "inputs": [
        {
          "internalType": "bytes32",
          "name": "namehash",
          "type": "bytes32"
        },
        {
          "internalType": "address",
          "name": "_controller",
          "type": "address"
        }
      ],
      "name": "setController",
      "outputs": [],
      "stateMutability": "nonpayable",
      "type": "function"
    },
    {
      "inputs": [
        {
          "internalType": "bytes32",
          "name": "namehash",
          "type": "bytes32"
        },
        {
          "internalType": "address",
          "name": "_controller",
          "type": "address"
        }
      ],
      "name": "setControllerERC721",
      "outputs": [],
      "stateMutability": "nonpayable",
      "type": "function"
    },
    {
      "inputs": [
        {
          "internalType": "bytes32",
          "name": "namehash",
          "type": "bytes32"
        },
        {
          "internalType": "uint256",
          "name": "_expiry",
          "type": "uint256"
        }
      ],
      "name": "setExpiry",
      "outputs": [],
      "stateMutability": "nonpayable",
      "type": "function"
    },
    {
      "inputs": [
        {
          "internalType": "bytes32",
          "name": "namehash",
          "type": "bytes32"
        },
        {
          "internalType": "address",
          "name": "_owner",
          "type": "address"
        }
      ],
      "name": "setOwner",
      "outputs": [],
      "stateMutability": "nonpayable",
      "type": "function"
    },
    {
      "inputs": [
        {
          "internalType": "bytes32",
          "name": "namehash",
          "type": "bytes32"
        },
        {
          "internalType": "address",
          "name": "_owner",
          "type": "address"
        }
      ],
      "name": "setOwnerERC721",
      "outputs": [],
      "stateMutability": "nonpayable",
      "type": "function"
    },
    {
      "inputs": [
        {
          "internalType": "bytes32",
          "name": "namehash",
          "type": "bytes32"
        },
        {
          "internalType": "address",
          "name": "_resolver",
          "type": "address"
        }
      ],
      "name": "setRecord",
      "outputs": [],
      "stateMutability": "nonpayable",
      "type": "function"
    },
    {
      "inputs": [
        {
          "internalType": "bytes32",
          "name": "namehash",
          "type": "bytes32"
        },
        {
          "internalType": "address",
          "name": "_resolver",
          "type": "address"
        }
      ],
      "name": "setResolver",
      "outputs": [],
      "stateMutability": "nonpayable",
      "type": "function"
    },
    {
      "inputs": [],
      "name": "theEnd",
      "outputs": [
        {
          "internalType": "uint256",
          "name": "",
          "type": "uint256"
        }
      ],
      "stateMutability": "view",
      "type": "function"
    },
    {
      "inputs": [],
      "name": "toggleActive",
      "outputs": [],
      "stateMutability": "nonpayable",
      "type": "function"
    },
    {
      "inputs": [
        {
          "internalType": "address",
          "name": "newDev",
          "type": "address"
        }
      ],
      "name": "transferOwnership",
      "outputs": [],
      "stateMutability": "nonpayable",
      "type": "function"
    },
    {
      "inputs": [],
      "name": "withdrawEther",
      "outputs": [],
      "stateMutability": "nonpayable",
      "type": "function"
    }
  ],
  "bytecode": {
    "object": "0x60806040526005805460ff60a01b1916600160a01b1790556703782dace9d900006009553480156200003057600080fd5b50604051620037c5380380620037c5833981016040819052620000539162000189565b600580546001600160a01b03199081163317909155600080546001600160a01b03851692168217905560408051633215476b60e11b8152905163642a8ed6916004808201926080929091908290030181865afa158015620000b8573d6000803e3d6000fd5b505050506040513d601f19601f82011682018060405250810190620000de9190620001f8565b51600655600480546001600160a01b0319166001600160a01b03831690811782556040805163bd9a548b60e01b81529051919263bd9a548b9282820192608092908290030181865afa15801562000139573d6000803e3d6000fd5b505050506040513d601f19601f820116820180604052508101906200015f9190620001f8565b51600755506200025f9050565b80516001600160a01b03811681146200018457600080fd5b919050565b600080604083850312156200019d57600080fd5b620001a8836200016c565b9150620001b8602084016200016c565b90509250929050565b604051608081016001600160401b0381118282101715620001f257634e487b7160e01b600052604160045260246000fd5b60405290565b6000608082840312156200020b57600080fd5b82601f8301126200021b57600080fd5b62000225620001c1565b8060808401858111156200023857600080fd5b845b81811015620002545780518452602093840193016200023a565b509095945050505050565b613556806200026f6000396000f3fe6080604052600436106102195760003560e01c80638425abff1161011d578063c7876ea4116100b0578063dbd4e0211161007f578063f2fde38b11610064578063f2fde38b14610635578063f544d82f14610655578063f79fe5381461066857600080fd5b8063dbd4e021146105f5578063e985e9c51461061557600080fd5b8063c7876ea41461057f578063d2ec5fca14610595578063d3156905146105b5578063d9b76ed4146105d557600080fd5b8063a22cb465116100ec578063a22cb465146104ff578063b782426e1461051f578063b9f37c861461053f578063be22e7561461055f57600080fd5b80638425abff146104705780638da5cb5b146104905780639177b086146104ae578063997c9efa146104ce57600080fd5b80631fc4859e116101b05780633141e25b1161017f578063507f146511610164578063507f14651461041b5780635b0fc9c31461043b5780637362377b1461045b57600080fd5b80633141e25b146103db57806339de6469146103fb57600080fd5b80631fc4859e1461035f57806322b68deb1461038c578063251c9422146103b057806329c68dc1146103c657600080fd5b806302fb0c5e116101ec57806302fb0c5e146102bd5780631896f70a146102ff5780631e44663f1461031f5780631eabcd341461033f57600080fd5b80630178b8bf1461021e57806301d49a5f1461025b57806301e51ae81461027d57806302571be31461029d575b600080fd5b34801561022a57600080fd5b5061023e610239366004612f74565b610688565b6040516001600160a01b0390911681526020015b60405180910390f35b34801561026757600080fd5b5061027b610276366004612fa2565b6107df565b005b34801561028957600080fd5b5060055461023e906001600160a01b031681565b3480156102a957600080fd5b5061023e6102b8366004612f74565b6108fb565b3480156102c957600080fd5b506005546102ef9074010000000000000000000000000000000000000000900460ff1681565b6040519015158152602001610252565b34801561030b57600080fd5b5061027b61031a366004612fa2565b61098e565b34801561032b57600080fd5b5060015461023e906001600160a01b031681565b34801561034b57600080fd5b5060045461023e906001600160a01b031681565b34801561036b57600080fd5b5061037f61037a366004612f74565b610c68565b6040516102529190613022565b34801561039857600080fd5b506103a260095481565b604051908152602001610252565b3480156103bc57600080fd5b506103a260065481565b3480156103d257600080fd5b5061027b610cff565b3480156103e757600080fd5b5061027b6103f6366004613035565b610da6565b34801561040757600080fd5b5061027b610416366004613080565b6110a4565b34801561042757600080fd5b5060025461023e906001600160a01b031681565b34801561044757600080fd5b5061027b610456366004612fa2565b611269565b34801561046757600080fd5b5061027b611875565b34801561047c57600080fd5b5060035461023e906001600160a01b031681565b34801561049c57600080fd5b506005546001600160a01b031661023e565b3480156104ba57600080fd5b5061027b6104c93660046130a2565b61191b565b3480156104da57600080fd5b506104ee6104e9366004612f74565b611b3c565b60405161025295949392919061312d565b34801561050b57600080fd5b5061027b61051a36600461317c565b611c03565b34801561052b57600080fd5b5060005461023e906001600160a01b031681565b34801561054b57600080fd5b5060085461023e906001600160a01b031681565b34801561056b57600080fd5b5061027b61057a366004612fa2565b611ccf565b34801561058b57600080fd5b506103a260075481565b3480156105a157600080fd5b506103a26105b0366004612f74565b611e39565b3480156105c157600080fd5b5061027b6105d0366004612fa2565b611eab565b3480156105e157600080fd5b5061027b6105f0366004612fa2565b612222565b34801561060157600080fd5b5061023e610610366004612f74565b6124f2565b34801561062157600080fd5b506102ef6106303660046131aa565b6125fd565b34801561064157600080fd5b5061027b6106503660046131d8565b61268d565b61027b610663366004613080565b61275b565b34801561067457600080fd5b506102ef610683366004612f74565b612bfc565b6002546040516369762fe560e11b81526004810183905260009183916001600160a01b039091169063d2ec5fca90602401602060405180830381865afa1580156106d6573d6000803e3d6000fd5b505050506040513d601f19601f820116820180604052508101906106fa91906131f5565b421061074d5760405162461bcd60e51b815260206004820152600c60248201527f4e414d455f45585049524544000000000000000000000000000000000000000060448201526064015b60405180910390fd5b6002546040517f0178b8bf000000000000000000000000000000000000000000000000000000008152600481018590526000916001600160a01b031690630178b8bf906024015b602060405180830381865afa1580156107b1573d6000803e3d6000fd5b505050506040513d601f19601f820116820180604052508101906107d5919061320e565b9250505b50919050565b6008546001600160a01b031633146108395760405162461bcd60e51b815260206004820152600d60248201527f4e4f545f524547495354524152000000000000000000000000000000000000006044820152606401610744565b6002546040517fd3156905000000000000000000000000000000000000000000000000000000008152600481018490526001600160a01b0383811660248301529091169063d315690590604401600060405180830381600087803b1580156108a057600080fd5b505af11580156108b4573d6000803e3d6000fd5b50506040516001600160a01b03841681528492507fe5108446a6097aab57fd36f346a515a78fddefa87d81662d44e0d7a463f9209591506020015b60405180910390a25050565b6002546040516302571be360e01b81526004810183905260009182916001600160a01b03909116906302571be390602401602060405180830381865afa158015610949573d6000803e3d6000fd5b505050506040513d601f19601f8201168201806040525081019061096d919061320e565b9050306001600160a01b038216036109885750600092915050565b92915050565b6002546040516302571be360e01b81526004810184905283916000916001600160a01b03909116906302571be390602401602060405180830381865afa1580156109dc573d6000803e3d6000fd5b505050506040513d601f19601f82011682018060405250810190610a00919061320e565b6008549091506001600160a01b0316331480610a2457506001600160a01b03811633145b80610ab757506002546040517fe985e9c50000000000000000000000000000000000000000000000000000000081526001600160a01b0383811660048301523360248301529091169063e985e9c590604401602060405180830381865afa158015610a93573d6000803e3d6000fd5b505050506040513d601f19601f82011682018060405250810190610ab7919061322b565b80610b5857506002546040517fdbd4e021000000000000000000000000000000000000000000000000000000008152600481018490526001600160a01b039091169063dbd4e02190602401602060405180830381865afa158015610b1f573d6000803e3d6000fd5b505050506040513d601f19601f82011682018060405250810190610b43919061320e565b6001600160a01b0316336001600160a01b0316145b610ba45760405162461bcd60e51b815260206004820152600e60248201527f4e4f545f415554484f52495345440000000000000000000000000000000000006044820152606401610744565b6002546040517f1896f70a000000000000000000000000000000000000000000000000000000008152600481018690526001600160a01b03858116602483015290911690631896f70a90604401600060405180830381600087803b158015610c0b57600080fd5b505af1158015610c1f573d6000803e3d6000fd5b50506040516001600160a01b03861681528692507f335721b01866dc23fbee8b6b2c7b1e14d6f05c28cd35a2c934239f94095602a091506020015b60405180910390a250505050565b6002546040517f1fc4859e000000000000000000000000000000000000000000000000000000008152600481018390526060916000916001600160a01b0390911690631fc4859e90602401600060405180830381865afa158015610cd0573d6000803e3d6000fd5b505050506040513d6000823e601f3d908101601f19168201604052610cf891908101906132a0565b9392505050565b6005546001600160a01b03163314610d595760405162461bcd60e51b815260206004820152600760248201527f4e4f545f444556000000000000000000000000000000000000000000000000006044820152606401610744565b600580547fffffffffffffffffffffff00ffffffffffffffffffffffffffffffffffffffff8116740100000000000000000000000000000000000000009182900460ff1615909102179055565b6005546001600160a01b03163314610e005760405162461bcd60e51b815260206004820152600760248201527f4e4f545f444556000000000000000000000000000000000000000000000000006044820152606401610744565b6001600160a01b03831615610f9657600080547fffffffffffffffffffffffff0000000000000000000000000000000000000000166001600160a01b038516908117909155604080517f642a8ed6000000000000000000000000000000000000000000000000000000008152905163642a8ed6916004808201926080929091908290030181865afa158015610e99573d6000803e3d6000fd5b505050506040513d601f19601f82011682018060405250810190610ebd919061334d565b51600655600054604080517f4d3f733400000000000000000000000000000000000000000000000000000000815290516001600160a01b0390921691634d3f7334916004808201926080929091908290030181865afa158015610f24573d6000803e3d6000fd5b505050506040513d601f19601f82011682018060405250810190610f4891906133ad565b51600880546001600160a01b039092167fffffffffffffffffffffffff0000000000000000000000000000000000000000928316811790915560018054831682179055600380549092161790555b6001600160a01b03811615610fe057600280547fffffffffffffffffffffffff0000000000000000000000000000000000000000166001600160a01b038316179055610fe0612c72565b6001600160a01b0382161561109f57600480547fffffffffffffffffffffffff0000000000000000000000000000000000000000166001600160a01b0384169081178255604080517fbd9a548b0000000000000000000000000000000000000000000000000000000081529051919263bd9a548b9282820192608092908290030181865afa158015611076573d6000803e3d6000fd5b505050506040513d601f19601f8201168201806040525081019061109a919061334d565b516007555b505050565b6008546001600160a01b031633146110fe5760405162461bcd60e51b815260206004820152600d60248201527f4e4f545f524547495354524152000000000000000000000000000000000000006044820152606401610744565b6002546040516369762fe560e11b8152600481018490526001600160a01b039091169063d2ec5fca90602401602060405180830381865afa158015611147573d6000803e3d6000fd5b505050506040513d601f19601f8201168201806040525081019061116b91906131f5565b81116111b95760405162461bcd60e51b815260206004820152600a60248201527f4241445f455850495259000000000000000000000000000000000000000000006044820152606401610744565b6002546040517f39de646900000000000000000000000000000000000000000000000000000000815260048101849052602481018390526001600160a01b03909116906339de646990604401600060405180830381600087803b15801561121f57600080fd5b505af1158015611233573d6000803e3d6000fd5b50505050817fa620b72378ee464490805a96e25b53e5c0076f0ce2d28f9691ae255a595b3bf3826040516108ef91815260200190565b6002546040516369762fe560e11b81526004810184905283916001600160a01b03169063d2ec5fca90602401602060405180830381865afa1580156112b2573d6000803e3d6000fd5b505050506040513d601f19601f820116820180604052508101906112d691906131f5565b42106113245760405162461bcd60e51b815260206004820152600c60248201527f4e414d455f4558504952454400000000000000000000000000000000000000006044820152606401610744565b6002546040516302571be360e01b8152600481018390526000916001600160a01b0316906302571be390602401602060405180830381865afa15801561136e573d6000803e3d6000fd5b505050506040513d601f19601f82011682018060405250810190611392919061320e565b90506001600160a01b03811633148061143357506002546040517fe985e9c50000000000000000000000000000000000000000000000000000000081526001600160a01b0383811660048301523360248301529091169063e985e9c590604401602060405180830381865afa15801561140f573d6000803e3d6000fd5b505050506040513d601f19601f82011682018060405250810190611433919061322b565b61147f5760405162461bcd60e51b815260206004820152600960248201527f4e4f545f4f574e455200000000000000000000000000000000000000000000006044820152606401610744565b6001600160a01b0383166114d55760405162461bcd60e51b815260206004820152600b60248201527f43414e4e4f545f4255524e0000000000000000000000000000000000000000006044820152606401610744565b6002546040516302571be360e01b8152600481018690526000916001600160a01b0316906302571be390602401602060405180830381865afa15801561151f573d6000803e3d6000fd5b505050506040513d601f19601f82011682018060405250810190611543919061320e565b600180546003546040517f70a082310000000000000000000000000000000000000000000000000000000081526001600160a01b0380861660048301529495509184169363e30443bc938693909291909116906370a0823190602401602060405180830381865afa1580156115bc573d6000803e3d6000fd5b505050506040513d601f19601f820116820180604052508101906115e091906131f5565b6115ea919061343a565b6040517fffffffff0000000000000000000000000000000000000000000000000000000060e085901b1681526001600160a01b0390921660048301526024820152604401600060405180830381600087803b15801561164857600080fd5b505af115801561165c573d6000803e3d6000fd5b50506001546003546040517f70a082310000000000000000000000000000000000000000000000000000000081526001600160a01b038981166004830152928316945063e30443bc93508892909116906370a0823190602401602060405180830381865afa1580156116d2573d6000803e3d6000fd5b505050506040513d601f19601f820116820180604052508101906116f691906131f5565b61170190600161344d565b6040517fffffffff0000000000000000000000000000000000000000000000000000000060e085901b1681526001600160a01b0390921660048301526024820152604401600060405180830381600087803b15801561175f57600080fd5b505af1158015611773573d6000803e3d6000fd5b50506040518792506001600160a01b0380881692508416907fddf252ad1be2c89b69c2b068fc378daa952ba7f163c4a11628f55a4df523b3ef90600090a46002546040517f5b0fc9c3000000000000000000000000000000000000000000000000000000008152600481018790526001600160a01b03868116602483015290911690635b0fc9c390604401600060405180830381600087803b15801561181857600080fd5b505af115801561182c573d6000803e3d6000fd5b50506040516001600160a01b03871681528792507f52cfe144bbaaed60759c6425b5bdfcebf7736889a75f9de7cd4cf30c7a6b8078915060200160405180910390a25050505050565b6005546040516000916001600160a01b03169047908381818185875af1925050503d80600081146118c2576040519150601f19603f3d011682016040523d82523d6000602084013e6118c7565b606091505b50509050806119185760405162461bcd60e51b815260206004820152601360248201527f4554485f5452414e534645525f4641494c4544000000000000000000000000006044820152606401610744565b50565b6008546001600160a01b031633146119755760405162461bcd60e51b815260206004820152600d60248201527f4e4f545f524547495354524152000000000000000000000000000000000000006044820152606401610744565b6001600160a01b0381166119cb5760405162461bcd60e51b815260206004820152600b60248201527f43414e4e4f545f4255524e0000000000000000000000000000000000000000006044820152606401610744565b60405182906001600160a01b038316906000907fddf252ad1be2c89b69c2b068fc378daa952ba7f163c4a11628f55a4df523b3ef908290a46002546040517f5b0fc9c3000000000000000000000000000000000000000000000000000000008152600481018490526001600160a01b03838116602483015290911690635b0fc9c390604401600060405180830381600087803b158015611a6a57600080fd5b505af1158015611a7e573d6000803e3d6000fd5b50506002546040517fae2b6d0d0000000000000000000000000000000000000000000000000000000081526001600160a01b03909116925063ae2b6d0d9150611acf90859088908890600401613460565b600060405180830381600087803b158015611ae957600080fd5b505af1158015611afd573d6000803e3d6000fd5b50506040516001600160a01b03841681528492507f52cfe144bbaaed60759c6425b5bdfcebf7736889a75f9de7cd4cf30c7a6b80789150602001610c5a565b600a60205260009081526040902080548190611b5790613496565b80601f0160208091040260200160405190810160405280929190818152602001828054611b8390613496565b8015611bd05780601f10611ba557610100808354040283529160200191611bd0565b820191906000526020600020905b815481529060010190602001808311611bb357829003601f168201915b50505060018401546002850154600386015460049096015494956001600160a01b03928316959183169450909116915085565b6002546040517f367605ca0000000000000000000000000000000000000000000000000000000081523360048201526001600160a01b03848116602483015283151560448301529091169063367605ca90606401600060405180830381600087803b158015611c7157600080fd5b505af1158015611c85573d6000803e3d6000fd5b505060405183151581526001600160a01b03851692503391507f17307eab39ab6107e8899845ad3d59bd9653f200f220920489ca2b5937696c319060200160405180910390a35050565b6008546001600160a01b03163314611d295760405162461bcd60e51b815260206004820152600d60248201527f4e4f545f524547495354524152000000000000000000000000000000000000006044820152606401610744565b6001600160a01b038116611d7f5760405162461bcd60e51b815260206004820152600b60248201527f43414e4e4f545f4255524e0000000000000000000000000000000000000000006044820152606401610744565b6002546040517f5b0fc9c3000000000000000000000000000000000000000000000000000000008152600481018490526001600160a01b03838116602483015290911690635b0fc9c390604401600060405180830381600087803b158015611de657600080fd5b505af1158015611dfa573d6000803e3d6000fd5b50506040516001600160a01b03841681528492507f52cfe144bbaaed60759c6425b5bdfcebf7736889a75f9de7cd4cf30c7a6b807891506020016108ef565b6002546040516369762fe560e11b81526004810183905260009182916001600160a01b039091169063d2ec5fca90602401602060405180830381865afa158015611e87573d6000803e3d6000fd5b505050506040513d601f19601f82011682018060405250810190610cf891906131f5565b6002546040516302571be360e01b81526004810184905283916000916001600160a01b03909116906302571be390602401602060405180830381865afa158015611ef9573d6000803e3d6000fd5b505050506040513d601f19601f82011682018060405250810190611f1d919061320e565b6008549091506001600160a01b0316331480611f4157506001600160a01b03811633145b80611fd457506002546040517fe985e9c50000000000000000000000000000000000000000000000000000000081526001600160a01b0383811660048301523360248301529091169063e985e9c590604401602060405180830381865afa158015611fb0573d6000803e3d6000fd5b505050506040513d601f19601f82011682018060405250810190611fd4919061322b565b8061207557506002546040517fdbd4e021000000000000000000000000000000000000000000000000000000008152600481018490526001600160a01b039091169063dbd4e02190602401602060405180830381865afa15801561203c573d6000803e3d6000fd5b505050506040513d601f19601f82011682018060405250810190612060919061320e565b6001600160a01b0316336001600160a01b0316145b6120c15760405162461bcd60e51b815260206004820152600e60248201527f4e4f545f415554484f52495345440000000000000000000000000000000000006044820152606401610744565b6002546040516302571be360e01b81526004810186905285916001600160a01b03868116929116906302571be390602401602060405180830381865afa15801561210f573d6000803e3d6000fd5b505050506040513d601f19601f82011682018060405250810190612133919061320e565b6001600160a01b03167f8c5be1e5ebec7d5bd14f71427d1e84f3dd0314c0f7b2291e5b200ac8c7c3b92560405160405180910390a46002546040517fd3156905000000000000000000000000000000000000000000000000000000008152600481018690526001600160a01b0385811660248301529091169063d315690590604401600060405180830381600087803b1580156121cf57600080fd5b505af11580156121e3573d6000803e3d6000fd5b50506040516001600160a01b03861681528692507fe5108446a6097aab57fd36f346a515a78fddefa87d81662d44e0d7a463f920959150602001610c5a565b6002546040516302571be360e01b81526004810184905283916000916001600160a01b03909116906302571be390602401602060405180830381865afa158015612270573d6000803e3d6000fd5b505050506040513d601f19601f82011682018060405250810190612294919061320e565b6008549091506001600160a01b03163314806122b857506001600160a01b03811633145b8061234b57506002546040517fe985e9c50000000000000000000000000000000000000000000000000000000081526001600160a01b0383811660048301523360248301529091169063e985e9c590604401602060405180830381865afa158015612327573d6000803e3d6000fd5b505050506040513d601f19601f8201168201806040525081019061234b919061322b565b806123ec57506002546040517fdbd4e021000000000000000000000000000000000000000000000000000000008152600481018490526001600160a01b039091169063dbd4e02190602401602060405180830381865afa1580156123b3573d6000803e3d6000fd5b505050506040513d601f19601f820116820180604052508101906123d7919061320e565b6001600160a01b0316336001600160a01b0316145b6124385760405162461bcd60e51b815260206004820152600e60248201527f4e4f545f415554484f52495345440000000000000000000000000000000000006044820152606401610744565b6002546040517f1896f70a000000000000000000000000000000000000000000000000000000008152600481018690526001600160a01b03858116602483015290911690631896f70a90604401600060405180830381600087803b15801561249f57600080fd5b505af11580156124b3573d6000803e3d6000fd5b50506040516001600160a01b03861681528692507fcb71326aeaad88869e8be8be2893e1119f7617ce4ea2411af127e218909be1f79150602001610c5a565b6002546040516369762fe560e11b81526004810183905260009183916001600160a01b039091169063d2ec5fca90602401602060405180830381865afa158015612540573d6000803e3d6000fd5b505050506040513d601f19601f8201168201806040525081019061256491906131f5565b42106125b25760405162461bcd60e51b815260206004820152600c60248201527f4e414d455f4558504952454400000000000000000000000000000000000000006044820152606401610744565b6002546040517fdbd4e021000000000000000000000000000000000000000000000000000000008152600481018590526000916001600160a01b03169063dbd4e02190602401610794565b6002546040517fe985e9c50000000000000000000000000000000000000000000000000000000081526001600160a01b0384811660048301528381166024830152600092169063e985e9c590604401602060405180830381865afa158015612669573d6000803e3d6000fd5b505050506040513d601f19601f82011682018060405250810190610cf8919061322b565b6005546001600160a01b031633146126e75760405162461bcd60e51b815260206004820152600760248201527f4e4f545f444556000000000000000000000000000000000000000000000000006044820152606401610744565b6005546040516001600160a01b038084169216907f8be0079c531659141344cd1fd0a4f28419497f9722a3daafe3b4186f6b6457e090600090a3600580547fffffffffffffffffffffffff0000000000000000000000000000000000000000166001600160a01b0392909216919091179055565b6002546040516369762fe560e11b81526004810184905283916001600160a01b03169063d2ec5fca90602401602060405180830381865afa1580156127a4573d6000803e3d6000fd5b505050506040513d601f19601f820116820180604052508101906127c891906131f5565b42106128165760405162461bcd60e51b815260206004820152600c60248201527f4e414d455f4558504952454400000000000000000000000000000000000000006044820152606401610744565b6002546040516302571be360e01b8152600481018390526000916001600160a01b0316906302571be390602401602060405180830381865afa158015612860573d6000803e3d6000fd5b505050506040513d601f19601f82011682018060405250810190612884919061320e565b90506001600160a01b03811633148061292557506002546040517fe985e9c50000000000000000000000000000000000000000000000000000000081526001600160a01b0383811660048301523360248301529091169063e985e9c590604401602060405180830381865afa158015612901573d6000803e3d6000fd5b505050506040513d601f19601f82011682018060405250810190612925919061322b565b806129c657506002546040517fdbd4e021000000000000000000000000000000000000000000000000000000008152600481018490526001600160a01b039091169063dbd4e02190602401602060405180830381865afa15801561298d573d6000803e3d6000fd5b505050506040513d601f19601f820116820180604052508101906129b1919061320e565b6001600160a01b0316336001600160a01b0316145b612a125760405162461bcd60e51b815260206004820152601760248201527f4e4f545f4f574e45525f4f525f434f4e54524f4c4c45520000000000000000006044820152606401610744565b6002546040516369762fe560e11b8152600481018690526000916001600160a01b03169063d2ec5fca90602401602060405180830381865afa158015612a5c573d6000803e3d6000fd5b505050506040513d601f19601f82011682018060405250810190612a8091906131f5565b9050808411612ad15760405162461bcd60e51b815260206004820152600a60248201527f4241445f455850495259000000000000000000000000000000000000000000006044820152606401610744565b6000612add828661343a565b905060075481612aed91906134e3565b341015612b3c5760405162461bcd60e51b815260206004820152601260248201527f494e53554646494349454e545f455448455200000000000000000000000000006044820152606401610744565b6002546040517f39de646900000000000000000000000000000000000000000000000000000000815260048101889052602481018790526001600160a01b03909116906339de646990604401600060405180830381600087803b158015612ba257600080fd5b505af1158015612bb6573d6000803e3d6000fd5b50505050857fa620b72378ee464490805a96e25b53e5c0076f0ce2d28f9691ae255a595b3bf386604051612bec91815260200190565b60405180910390a2505050505050565b6002546040516369762fe560e11b8152600481018390526000916001600160a01b03169063d2ec5fca90602401602060405180830381865afa158015612c46573d6000803e3d6000fd5b505050506040513d601f19601f82011682018060405250810190612c6a91906131f5565b421092915050565b6005546001600160a01b03163314612ccc5760405162461bcd60e51b815260206004820152600760248201527f4e4f545f444556000000000000000000000000000000000000000000000000006044820152606401610744565b600254604080517fae2b6d0d000000000000000000000000000000000000000000000000000000008152600060048201526024810191909152600160448201527f2e0000000000000000000000000000000000000000000000000000000000000060648201526001600160a01b039091169063ae2b6d0d90608401600060405180830381600087803b158015612d6157600080fd5b505af1158015612d75573d6000803e3d6000fd5b50506002546040517f5b0fc9c3000000000000000000000000000000000000000000000000000000008152600060048201523360248201526001600160a01b039091169250635b0fc9c39150604401600060405180830381600087803b158015612dde57600080fd5b505af1158015612df2573d6000803e3d6000fd5b50506002546009546040517f39de64690000000000000000000000000000000000000000000000000000000081526000600482015260248101919091526001600160a01b0390911692506339de64699150604401600060405180830381600087803b158015612e6057600080fd5b505af1158015612e74573d6000803e3d6000fd5b50506002546040517fd3156905000000000000000000000000000000000000000000000000000000008152600060048201523360248201526001600160a01b03909116925063d31569059150604401600060405180830381600087803b158015612edd57600080fd5b505af1158015612ef1573d6000803e3d6000fd5b50506002546040517f1896f70a000000000000000000000000000000000000000000000000000000008152600060048201523360248201526001600160a01b039091169250631896f70a9150604401600060405180830381600087803b158015612f5a57600080fd5b505af1158015612f6e573d6000803e3d6000fd5b50505050565b600060208284031215612f8657600080fd5b5035919050565b6001600160a01b038116811461191857600080fd5b60008060408385031215612fb557600080fd5b823591506020830135612fc781612f8d565b809150509250929050565b60005b83811015612fed578181015183820152602001612fd5565b50506000910152565b6000815180845261300e816020860160208601612fd2565b601f01601f19169290920160200192915050565b602081526000610cf86020830184612ff6565b60008060006060848603121561304a57600080fd5b833561305581612f8d565b9250602084013561306581612f8d565b9150604084013561307581612f8d565b809150509250925092565b6000806040838503121561309357600080fd5b50508035926020909101359150565b600080600080606085870312156130b857600080fd5b843567ffffffffffffffff808211156130d057600080fd5b818701915087601f8301126130e457600080fd5b8135818111156130f357600080fd5b88602082850101111561310557600080fd5b602092830196509450508501359150604085013561312281612f8d565b939692955090935050565b60a08152600061314060a0830188612ff6565b6001600160a01b03968716602084015294861660408301525091909316606082015260800191909152919050565b801515811461191857600080fd5b6000806040838503121561318f57600080fd5b823561319a81612f8d565b91506020830135612fc78161316e565b600080604083850312156131bd57600080fd5b82356131c881612f8d565b91506020830135612fc781612f8d565b6000602082840312156131ea57600080fd5b8135610cf881612f8d565b60006020828403121561320757600080fd5b5051919050565b60006020828403121561322057600080fd5b8151610cf881612f8d565b60006020828403121561323d57600080fd5b8151610cf88161316e565b7f4e487b7100000000000000000000000000000000000000000000000000000000600052604160045260246000fd5b6040516080810167ffffffffffffffff8111828210171561329a5761329a613248565b60405290565b6000602082840312156132b257600080fd5b815167ffffffffffffffff808211156132ca57600080fd5b818401915084601f8301126132de57600080fd5b8151818111156132f0576132f0613248565b604051601f8201601f19908116603f0116810190838211818310171561331857613318613248565b8160405282815287602084870101111561333157600080fd5b613342836020830160208801612fd2565b979650505050505050565b60006080828403121561335f57600080fd5b82601f83011261336e57600080fd5b613376613277565b80608084018581111561338857600080fd5b845b818110156133a257805184526020938401930161338a565b509095945050505050565b6000608082840312156133bf57600080fd5b82601f8301126133ce57600080fd5b6133d6613277565b8060808401858111156133e857600080fd5b845b818110156133a25780516133fd81612f8d565b8452602093840193016133ea565b7f4e487b7100000000000000000000000000000000000000000000000000000000600052601160045260246000fd5b818103818111156109885761098861340b565b808201808211156109885761098861340b565b83815260406020820152816040820152818360608301376000818301606090810191909152601f909201601f1916010192915050565b600181811c908216806134aa57607f821691505b6020821081036107d9577f4e487b7100000000000000000000000000000000000000000000000000000000600052602260045260246000fd5b6000817fffffffffffffffffffffffffffffffffffffffffffffffffffffffffffffffff048311821515161561351b5761351b61340b565b50029056fea2646970667358221220fdc0fcba284454500d28df156e4531b1953ce245cd8673e0506a0e30e8eaff8664736f6c63430008100033",
    "linkReferences": {}
  },
  "methodIdentifiers": {
    "Dev()": "01e51ae8",
    "ERC721()": "8425abff",
    "HELIX2()": "b782426e",
    "Names(bytes32)": "997c9efa",
    "PRICES()": "1eabcd34",
    "Registrar()": "b9f37c86",
    "STORE()": "507f1465",
    "_NAME_()": "1e44663f",
    "active()": "02fb0c5e",
    "basePrice()": "c7876ea4",
    "controller(bytes32)": "dbd4e021",
    "expiry(bytes32)": "d2ec5fca",
    "isApprovedForAll(address,address)": "e985e9c5",
    "label(bytes32)": "1fc4859e",
    "owner()": "8da5cb5b",
    "owner(bytes32)": "02571be3",
    "recordExists(bytes32)": "f79fe538",
    "register(string,bytes32,address)": "9177b086",
    "renew(bytes32,uint256)": "f544d82f",
    "resolver(bytes32)": "0178b8bf",
    "roothash()": "251c9422",
    "setApprovalForAll(address,bool)": "a22cb465",
    "setConfig(address,address,address)": "3141e25b",
    "setController(bytes32,address)": "d3156905",
    "setControllerERC721(bytes32,address)": "01d49a5f",
    "setExpiry(bytes32,uint256)": "39de6469",
    "setOwner(bytes32,address)": "5b0fc9c3",
    "setOwnerERC721(bytes32,address)": "be22e756",
    "setRecord(bytes32,address)": "d9b76ed4",
    "setResolver(bytes32,address)": "1896f70a",
    "theEnd()": "22b68deb",
    "toggleActive()": "29c68dc1",
    "transferOwnership(address)": "f2fde38b",
    "withdrawEther()": "7362377b"
  },
  "id": 35
}