{
  "abi": [
    {
      "inputs": [
        {
          "internalType": "address",
          "name": "_helix2",
          "type": "address"
        },
        {
          "internalType": "address",
          "name": "_priceOracle",
          "type": "address"
        }
      ],
      "stateMutability": "nonpayable",
      "type": "constructor"
    },
    {
      "anonymous": false,
      "inputs": [
        {
          "indexed": true,
          "internalType": "bytes32",
          "name": "namehash",
          "type": "bytes32"
        },
        {
          "indexed": false,
          "internalType": "address",
          "name": "controller",
          "type": "address"
        }
      ],
      "name": "NewController",
      "type": "event"
    },
    {
      "anonymous": false,
      "inputs": [
        {
          "indexed": true,
          "internalType": "bytes32",
          "name": "namehash",
          "type": "bytes32"
        },
        {
          "indexed": false,
          "internalType": "uint256",
          "name": "expiry",
          "type": "uint256"
        }
      ],
      "name": "NewExpiry",
      "type": "event"
    },
    {
      "anonymous": false,
      "inputs": [
        {
          "indexed": true,
          "internalType": "bytes32",
          "name": "namehash",
          "type": "bytes32"
        },
        {
          "indexed": false,
          "internalType": "address",
          "name": "owner",
          "type": "address"
        }
      ],
      "name": "NewOwner",
      "type": "event"
    },
    {
      "anonymous": false,
      "inputs": [
        {
          "indexed": true,
          "internalType": "bytes32",
          "name": "namehash",
          "type": "bytes32"
        },
        {
          "indexed": false,
          "internalType": "address",
          "name": "resolver",
          "type": "address"
        }
      ],
      "name": "NewResolver",
      "type": "event"
    },
    {
      "anonymous": false,
      "inputs": [
        {
          "indexed": true,
          "internalType": "address",
          "name": "previousOwner",
          "type": "address"
        },
        {
          "indexed": true,
          "internalType": "address",
          "name": "newOwner",
          "type": "address"
        }
      ],
      "name": "OwnershipTransferred",
      "type": "event"
    },
    {
      "anonymous": false,
      "inputs": [
        {
          "indexed": true,
          "internalType": "address",
          "name": "from",
          "type": "address"
        },
        {
          "indexed": true,
          "internalType": "address",
          "name": "to",
          "type": "address"
        },
        {
          "indexed": true,
          "internalType": "uint256",
          "name": "tokenID",
          "type": "uint256"
        }
      ],
      "name": "Transfer",
      "type": "event"
    },
    {
      "stateMutability": "payable",
      "type": "fallback"
    },
    {
      "inputs": [],
      "name": "Dev",
      "outputs": [
        {
          "internalType": "address",
          "name": "",
          "type": "address"
        }
      ],
      "stateMutability": "view",
      "type": "function"
    },
    {
      "inputs": [],
      "name": "ERC721",
      "outputs": [
        {
          "internalType": "contract iERC721",
          "name": "",
          "type": "address"
        }
      ],
      "stateMutability": "view",
      "type": "function"
    },
    {
      "inputs": [],
      "name": "HELIX2",
      "outputs": [
        {
          "internalType": "contract iHELIX2",
          "name": "",
          "type": "address"
        }
      ],
      "stateMutability": "view",
      "type": "function"
    },
    {
      "inputs": [],
      "name": "PARENT",
      "outputs": [
        {
          "internalType": "contract iNAME",
          "name": "",
          "type": "address"
        }
      ],
      "stateMutability": "view",
      "type": "function"
    },
    {
      "inputs": [],
      "name": "PRICES",
      "outputs": [
        {
          "internalType": "contract iPriceOracle",
          "name": "",
          "type": "address"
        }
      ],
      "stateMutability": "view",
      "type": "function"
    },
    {
      "inputs": [],
      "name": "Registrar",
      "outputs": [
        {
          "internalType": "address",
          "name": "",
          "type": "address"
        }
      ],
      "stateMutability": "view",
      "type": "function"
    },
    {
      "inputs": [],
      "name": "STORE",
      "outputs": [
        {
          "internalType": "contract iNAME",
          "name": "",
          "type": "address"
        }
      ],
      "stateMutability": "view",
      "type": "function"
    },
    {
      "inputs": [],
      "name": "active",
      "outputs": [
        {
          "internalType": "bool",
          "name": "",
          "type": "bool"
        }
      ],
      "stateMutability": "view",
      "type": "function"
    },
    {
      "inputs": [],
      "name": "basePrice",
      "outputs": [
        {
          "internalType": "uint256",
          "name": "",
          "type": "uint256"
        }
      ],
      "stateMutability": "view",
      "type": "function"
    },
    {
      "inputs": [
        {
          "internalType": "bytes32",
          "name": "namehash",
          "type": "bytes32"
        }
      ],
      "name": "controller",
      "outputs": [
        {
          "internalType": "address",
          "name": "",
          "type": "address"
        }
      ],
      "stateMutability": "view",
      "type": "function"
    },
    {
      "inputs": [
        {
          "internalType": "bytes32",
          "name": "namehash",
          "type": "bytes32"
        }
      ],
      "name": "expiry",
      "outputs": [
        {
          "internalType": "uint256",
          "name": "",
          "type": "uint256"
        }
      ],
      "stateMutability": "view",
      "type": "function"
    },
    {
      "inputs": [
        {
          "internalType": "bytes32",
          "name": "namehash",
          "type": "bytes32"
        }
      ],
      "name": "label",
      "outputs": [
        {
          "internalType": "string",
          "name": "",
          "type": "string"
        }
      ],
      "stateMutability": "view",
      "type": "function"
    },
    {
      "inputs": [
        {
          "internalType": "bytes32",
          "name": "namehash",
          "type": "bytes32"
        }
      ],
      "name": "owner",
      "outputs": [
        {
          "internalType": "address",
          "name": "",
          "type": "address"
        }
      ],
      "stateMutability": "view",
      "type": "function"
    },
    {
      "inputs": [],
      "name": "owner",
      "outputs": [
        {
          "internalType": "address",
          "name": "",
          "type": "address"
        }
      ],
      "stateMutability": "view",
      "type": "function"
    },
    {
      "inputs": [
        {
          "internalType": "bytes32",
          "name": "namehash",
          "type": "bytes32"
        }
      ],
      "name": "recordExists",
      "outputs": [
        {
          "internalType": "bool",
          "name": "",
          "type": "bool"
        }
      ],
      "stateMutability": "view",
      "type": "function"
    },
    {
      "inputs": [
        {
          "internalType": "string",
          "name": "_label",
          "type": "string"
        },
        {
          "internalType": "bytes32",
          "name": "namehash",
          "type": "bytes32"
        },
        {
          "internalType": "address",
          "name": "_owner",
          "type": "address"
        }
      ],
      "name": "register",
      "outputs": [],
      "stateMutability": "nonpayable",
      "type": "function"
    },
    {
      "inputs": [
        {
          "internalType": "bytes32",
          "name": "namehash",
          "type": "bytes32"
        },
        {
          "internalType": "uint256",
          "name": "_expiry",
          "type": "uint256"
        }
      ],
      "name": "renew",
      "outputs": [],
      "stateMutability": "payable",
      "type": "function"
    },
    {
      "inputs": [
        {
          "internalType": "bytes32",
          "name": "namehash",
          "type": "bytes32"
        }
      ],
      "name": "resolver",
      "outputs": [
        {
          "internalType": "address",
          "name": "",
          "type": "address"
        }
      ],
      "stateMutability": "view",
      "type": "function"
    },
    {
      "inputs": [],
      "name": "roothash",
      "outputs": [
        {
          "internalType": "bytes32",
          "name": "",
          "type": "bytes32"
        }
      ],
      "stateMutability": "view",
      "type": "function"
    },
    {
      "inputs": [
        {
          "internalType": "address",
          "name": "_helix2",
          "type": "address"
        },
        {
          "internalType": "address",
          "name": "_priceOracle",
          "type": "address"
        },
        {
          "internalType": "address",
          "name": "_store",
          "type": "address"
        }
      ],
      "name": "setConfig",
      "outputs": [],
      "stateMutability": "nonpayable",
      "type": "function"
    },
    {
      "inputs": [
        {
          "internalType": "bytes32",
          "name": "namehash",
          "type": "bytes32"
        },
        {
          "internalType": "address",
          "name": "_controller",
          "type": "address"
        }
      ],
      "name": "setController",
      "outputs": [],
      "stateMutability": "nonpayable",
      "type": "function"
    },
    {
      "inputs": [
        {
          "internalType": "bytes32",
          "name": "namehash",
          "type": "bytes32"
        },
        {
          "internalType": "address",
          "name": "_controller",
          "type": "address"
        }
      ],
      "name": "setControllerERC721",
      "outputs": [],
      "stateMutability": "nonpayable",
      "type": "function"
    },
    {
      "inputs": [
        {
          "internalType": "bytes32",
          "name": "namehash",
          "type": "bytes32"
        },
        {
          "internalType": "uint256",
          "name": "_expiry",
          "type": "uint256"
        }
      ],
      "name": "setExpiry",
      "outputs": [],
      "stateMutability": "nonpayable",
      "type": "function"
    },
    {
      "inputs": [
        {
          "internalType": "bytes4",
          "name": "sig",
          "type": "bytes4"
        },
        {
          "internalType": "bool",
          "name": "value",
          "type": "bool"
        }
      ],
      "name": "setInterface",
      "outputs": [],
      "stateMutability": "payable",
      "type": "function"
    },
    {
      "inputs": [
        {
          "internalType": "bytes32",
          "name": "namehash",
          "type": "bytes32"
        },
        {
          "internalType": "address",
          "name": "_owner",
          "type": "address"
        }
      ],
      "name": "setOwner",
      "outputs": [],
      "stateMutability": "nonpayable",
      "type": "function"
    },
    {
      "inputs": [
        {
          "internalType": "bytes32",
          "name": "namehash",
          "type": "bytes32"
        },
        {
          "internalType": "address",
          "name": "_owner",
          "type": "address"
        }
      ],
      "name": "setOwnerERC721",
      "outputs": [],
      "stateMutability": "nonpayable",
      "type": "function"
    },
    {
      "inputs": [
        {
          "internalType": "bytes32",
          "name": "namehash",
          "type": "bytes32"
        },
        {
          "internalType": "address",
          "name": "_resolver",
          "type": "address"
        }
      ],
      "name": "setResolver",
      "outputs": [],
      "stateMutability": "nonpayable",
      "type": "function"
    },
    {
      "inputs": [
        {
          "internalType": "bytes4",
          "name": "",
          "type": "bytes4"
        }
      ],
      "name": "supportedInterfaces",
      "outputs": [
        {
          "internalType": "bool",
          "name": "",
          "type": "bool"
        }
      ],
      "stateMutability": "view",
      "type": "function"
    },
    {
      "inputs": [
        {
          "internalType": "bytes4",
          "name": "sig",
          "type": "bytes4"
        }
      ],
      "name": "supportsInterface",
      "outputs": [
        {
          "internalType": "bool",
          "name": "",
          "type": "bool"
        }
      ],
      "stateMutability": "view",
      "type": "function"
    },
    {
      "inputs": [],
      "name": "theEnd",
      "outputs": [
        {
          "internalType": "uint256",
          "name": "",
          "type": "uint256"
        }
      ],
      "stateMutability": "view",
      "type": "function"
    },
    {
      "inputs": [],
      "name": "toggleActive",
      "outputs": [],
      "stateMutability": "nonpayable",
      "type": "function"
    },
    {
      "inputs": [
        {
          "internalType": "address",
          "name": "newDev",
          "type": "address"
        }
      ],
      "name": "transferOwnership",
      "outputs": [],
      "stateMutability": "nonpayable",
      "type": "function"
    },
    {
      "stateMutability": "payable",
      "type": "receive"
    }
  ],
  "bytecode": {
    "object": "0x60806040526005805460ff60a01b1916600160a01b1790556703782dace9d90000600a553480156200003057600080fd5b5060405162002e1e38038062002e1e8339810160408190526200005391620001f3565b600580546001600160a01b03199081163317909155600080546001600160a01b03851692168217905560408051633215476b60e11b8152905163642a8ed6916004808201926080929091908290030181865afa158015620000b8573d6000803e3d6000fd5b505050506040513d601f19601f82011682018060405250810190620000de919062000262565b51600755600480546001600160a01b0319166001600160a01b03831690811782556040805163bd9a548b60e01b81529051919263bd9a548b9282820192608092908290030181865afa15801562000139573d6000803e3d6000fd5b505050506040513d601f19601f820116820180604052508101906200015f919062000262565b51600855505060066020527fc26d0f43ee7b5be8b3e73c997d2363c9017f54260646f191d292f9460993aef38054600160ff1991821681179092556307f5828d60e41b6000527f1b858a95fc2ef26ad406f257ccb9b94f844893f38989af5697ecb3aadbe0d69e80549091169091179055620002c9565b80516001600160a01b0381168114620001ee57600080fd5b919050565b600080604083850312156200020757600080fd5b6200021283620001d6565b91506200022260208401620001d6565b90509250929050565b604051608081016001600160401b03811182821017156200025c57634e487b7160e01b600052604160045260246000fd5b60405290565b6000608082840312156200027557600080fd5b82601f8301126200028557600080fd5b6200028f6200022b565b806080840185811115620002a257600080fd5b845b81811015620002be578051845260209384019301620002a4565b509095945050505050565b612b4580620002d96000396000f3fe6080604052600436106101e75760003560e01c8063507f146511610102578063c0a43a7c11610095578063dbd4e02111610064578063dbd4e021146105dc578063f2fde38b146105fc578063f544d82f1461061c578063f79fe5381461062f57600080fd5b8063c0a43a7c14610573578063c7876ea414610586578063d2ec5fca1461059c578063d3156905146105bc57600080fd5b80639177b086116100d15780639177b086146104f3578063b782426e14610513578063b9f37c8614610533578063be22e7561461055357600080fd5b8063507f1465146104755780635b0fc9c3146104955780638425abff146104b55780638da5cb5b146104d557600080fd5b80631896f70a1161017a578063251c942211610149578063251c94221461040a57806329c68dc1146104205780633141e25b1461043557806339de64691461045557600080fd5b80631896f70a146103795780631eabcd34146103995780631fc4859e146103b957806322b68deb146103e657600080fd5b806302571be3116101b657806302571be3146102d757806302fb0c5e146102f7578063122b83f9146103295780631584ba381461034957600080fd5b80630178b8bf146101f657806301d49a5f1461023357806301e51ae81461025557806301ffc9a71461027557600080fd5b366101f157600080fd5b600080fd5b34801561020257600080fd5b50610216610211366004612600565b61064f565b6040516001600160a01b0390911681526020015b60405180910390f35b34801561023f57600080fd5b5061025361024e366004612631565b6107a2565b005b34801561026157600080fd5b50600554610216906001600160a01b031681565b34801561028157600080fd5b506102c7610290366004612696565b7fffffffff000000000000000000000000000000000000000000000000000000001660009081526006602052604090205460ff1690565b604051901515815260200161022a565b3480156102e357600080fd5b506102166102f2366004612600565b6108be565b34801561030357600080fd5b506005546102c79074010000000000000000000000000000000000000000900460ff1681565b34801561033557600080fd5b50600154610216906001600160a01b031681565b34801561035557600080fd5b506102c7610364366004612696565b60066020526000908152604090205460ff1681565b34801561038557600080fd5b50610253610394366004612631565b61096a565b3480156103a557600080fd5b50600454610216906001600160a01b031681565b3480156103c557600080fd5b506103d96103d4366004612600565b610bca565b60405161022a91906126d5565b3480156103f257600080fd5b506103fc600a5481565b60405190815260200161022a565b34801561041657600080fd5b506103fc60075481565b34801561042c57600080fd5b50610253610d14565b34801561044157600080fd5b50610253610450366004612708565b610dbb565b34801561046157600080fd5b50610253610470366004612753565b6110b2565b34801561048157600080fd5b50600254610216906001600160a01b031681565b3480156104a157600080fd5b506102536104b0366004612631565b611277565b3480156104c157600080fd5b50600354610216906001600160a01b031681565b3480156104e157600080fd5b506005546001600160a01b0316610216565b3480156104ff57600080fd5b5061025361050e366004612775565b611823565b34801561051f57600080fd5b50600054610216906001600160a01b031681565b34801561053f57600080fd5b50600954610216906001600160a01b031681565b34801561055f57600080fd5b5061025361056e366004612631565b611a44565b610253610581366004612800565b611bae565b34801561059257600080fd5b506103fc60085481565b3480156105a857600080fd5b506103fc6105b7366004612600565b611cdc565b3480156105c857600080fd5b506102536105d7366004612631565b611d4a565b3480156105e857600080fd5b506102166105f7366004612600565b611fa0565b34801561060857600080fd5b50610253610617366004612831565b6120aa565b61025361062a366004612753565b612178565b34801561063b57600080fd5b506102c761064a366004612600565b61258a565b6002546040516369762fe560e11b81526004810183905260009183916001600160a01b039091169063d2ec5fca90602401602060405180830381865afa15801561069d573d6000803e3d6000fd5b505050506040513d601f19601f820116820180604052508101906106c1919061284e565b42106107145760405162461bcd60e51b815260206004820152600c60248201527f4e414d455f45585049524544000000000000000000000000000000000000000060448201526064015b60405180910390fd5b6002546040517f0178b8bf000000000000000000000000000000000000000000000000000000008152600481018590526001600160a01b0390911690630178b8bf906024015b602060405180830381865afa158015610777573d6000803e3d6000fd5b505050506040513d601f19601f8201168201806040525081019061079b9190612867565b9392505050565b6009546001600160a01b031633146107fc5760405162461bcd60e51b815260206004820152600d60248201527f4e4f545f52454749535452415200000000000000000000000000000000000000604482015260640161070b565b6002546040517fd3156905000000000000000000000000000000000000000000000000000000008152600481018490526001600160a01b0383811660248301529091169063d315690590604401600060405180830381600087803b15801561086357600080fd5b505af1158015610877573d6000803e3d6000fd5b50506040516001600160a01b03841681528492507fe5108446a6097aab57fd36f346a515a78fddefa87d81662d44e0d7a463f9209591506020015b60405180910390a25050565b6002546040517f02571be30000000000000000000000000000000000000000000000000000000081526004810183905260009182916001600160a01b03909116906302571be390602401602060405180830381865afa158015610925573d6000803e3d6000fd5b505050506040513d601f19601f820116820180604052508101906109499190612867565b9050306001600160a01b038216036109645750600092915050565b92915050565b6002546040517f02571be30000000000000000000000000000000000000000000000000000000081526004810184905283916000916001600160a01b03909116906302571be390602401602060405180830381865afa1580156109d1573d6000803e3d6000fd5b505050506040513d601f19601f820116820180604052508101906109f59190612867565b6009549091506001600160a01b0316331480610a1957506001600160a01b03811633145b80610aba57506002546040517fdbd4e021000000000000000000000000000000000000000000000000000000008152600481018490526001600160a01b039091169063dbd4e02190602401602060405180830381865afa158015610a81573d6000803e3d6000fd5b505050506040513d601f19601f82011682018060405250810190610aa59190612867565b6001600160a01b0316336001600160a01b0316145b610b065760405162461bcd60e51b815260206004820152600e60248201527f4e4f545f415554484f5249534544000000000000000000000000000000000000604482015260640161070b565b6002546040517f1896f70a000000000000000000000000000000000000000000000000000000008152600481018690526001600160a01b03858116602483015290911690631896f70a90604401600060405180830381600087803b158015610b6d57600080fd5b505af1158015610b81573d6000803e3d6000fd5b50506040516001600160a01b03861681528692507f335721b01866dc23fbee8b6b2c7b1e14d6f05c28cd35a2c934239f94095602a091506020015b60405180910390a250505050565b6002546040516369762fe560e11b81526004810183905260609183916001600160a01b039091169063d2ec5fca90602401602060405180830381865afa158015610c18573d6000803e3d6000fd5b505050506040513d601f19601f82011682018060405250810190610c3c919061284e565b4210610c8a5760405162461bcd60e51b815260206004820152600c60248201527f4e414d455f455850495245440000000000000000000000000000000000000000604482015260640161070b565b6002546040517f1fc4859e000000000000000000000000000000000000000000000000000000008152600481018590526001600160a01b0390911690631fc4859e90602401600060405180830381865afa158015610cec573d6000803e3d6000fd5b505050506040513d6000823e601f3d908101601f1916820160405261079b91908101906128dc565b6005546001600160a01b03163314610d6e5760405162461bcd60e51b815260206004820152600760248201527f4e4f545f44455600000000000000000000000000000000000000000000000000604482015260640161070b565b600580547fffffffffffffffffffffff00ffffffffffffffffffffffffffffffffffffffff8116740100000000000000000000000000000000000000009182900460ff1615909102179055565b6005546001600160a01b03163314610e155760405162461bcd60e51b815260206004820152600760248201527f4e4f545f44455600000000000000000000000000000000000000000000000000604482015260640161070b565b6001600160a01b03831615610fab57600080547fffffffffffffffffffffffff0000000000000000000000000000000000000000166001600160a01b038516908117909155604080517f642a8ed6000000000000000000000000000000000000000000000000000000008152905163642a8ed6916004808201926080929091908290030181865afa158015610eae573d6000803e3d6000fd5b505050506040513d601f19601f82011682018060405250810190610ed29190612989565b51600755600054604080517f4d3f733400000000000000000000000000000000000000000000000000000000815290516001600160a01b0390921691634d3f7334916004808201926080929091908290030181865afa158015610f39573d6000803e3d6000fd5b505050506040513d601f19601f82011682018060405250810190610f5d91906129e9565b51600980546001600160a01b039092167fffffffffffffffffffffffff0000000000000000000000000000000000000000928316811790915560018054831682179055600380549092161790555b6001600160a01b03811615610fee57600280547fffffffffffffffffffffffff0000000000000000000000000000000000000000166001600160a01b0383161790555b6001600160a01b038216156110ad57600480547fffffffffffffffffffffffff0000000000000000000000000000000000000000166001600160a01b0384169081178255604080517fbd9a548b0000000000000000000000000000000000000000000000000000000081529051919263bd9a548b9282820192608092908290030181865afa158015611084573d6000803e3d6000fd5b505050506040513d601f19601f820116820180604052508101906110a89190612989565b516008555b505050565b6009546001600160a01b0316331461110c5760405162461bcd60e51b815260206004820152600d60248201527f4e4f545f52454749535452415200000000000000000000000000000000000000604482015260640161070b565b6002546040516369762fe560e11b8152600481018490526001600160a01b039091169063d2ec5fca90602401602060405180830381865afa158015611155573d6000803e3d6000fd5b505050506040513d601f19601f82011682018060405250810190611179919061284e565b81116111c75760405162461bcd60e51b815260206004820152600a60248201527f4241445f45585049525900000000000000000000000000000000000000000000604482015260640161070b565b6002546040517f39de646900000000000000000000000000000000000000000000000000000000815260048101849052602481018390526001600160a01b03909116906339de646990604401600060405180830381600087803b15801561122d57600080fd5b505af1158015611241573d6000803e3d6000fd5b50505050817fa620b72378ee464490805a96e25b53e5c0076f0ce2d28f9691ae255a595b3bf3826040516108b291815260200190565b6002546040516369762fe560e11b81526004810184905283916001600160a01b03169063d2ec5fca90602401602060405180830381865afa1580156112c0573d6000803e3d6000fd5b505050506040513d601f19601f820116820180604052508101906112e4919061284e565b42106113325760405162461bcd60e51b815260206004820152600c60248201527f4e414d455f455850495245440000000000000000000000000000000000000000604482015260640161070b565b6002546040517f02571be3000000000000000000000000000000000000000000000000000000008152600481018390526000916001600160a01b0316906302571be390602401602060405180830381865afa158015611395573d6000803e3d6000fd5b505050506040513d601f19601f820116820180604052508101906113b99190612867565b90506001600160a01b03811633146114135760405162461bcd60e51b815260206004820152600960248201527f4e4f545f4f574e45520000000000000000000000000000000000000000000000604482015260640161070b565b6001600160a01b0383166114695760405162461bcd60e51b815260206004820152600b60248201527f43414e4e4f545f4255524e000000000000000000000000000000000000000000604482015260640161070b565b6002546040517f02571be3000000000000000000000000000000000000000000000000000000008152600481018690526000916001600160a01b0316906302571be390602401602060405180830381865afa1580156114cc573d6000803e3d6000fd5b505050506040513d601f19601f820116820180604052508101906114f09190612867565b600180546003546040517f70a082310000000000000000000000000000000000000000000000000000000081526001600160a01b0380861660048301529495509184169363e30443bc938693909291909116906370a0823190602401602060405180830381865afa158015611569573d6000803e3d6000fd5b505050506040513d601f19601f8201168201806040525081019061158d919061284e565b6115979190612a76565b6040517fffffffff0000000000000000000000000000000000000000000000000000000060e085901b1681526001600160a01b0390921660048301526024820152604401600060405180830381600087803b1580156115f557600080fd5b505af1158015611609573d6000803e3d6000fd5b50506001546003546040517f70a082310000000000000000000000000000000000000000000000000000000081526001600160a01b038981166004830152928316945063e30443bc93508892909116906370a0823190602401602060405180830381865afa15801561167f573d6000803e3d6000fd5b505050506040513d601f19601f820116820180604052508101906116a3919061284e565b6116ae906001612a89565b6040517fffffffff0000000000000000000000000000000000000000000000000000000060e085901b1681526001600160a01b0390921660048301526024820152604401600060405180830381600087803b15801561170c57600080fd5b505af1158015611720573d6000803e3d6000fd5b50506040518792506001600160a01b0380881692508416907fddf252ad1be2c89b69c2b068fc378daa952ba7f163c4a11628f55a4df523b3ef90600090a46002546040517f5b0fc9c3000000000000000000000000000000000000000000000000000000008152600481018790526001600160a01b03868116602483015290911690635b0fc9c390604401600060405180830381600087803b1580156117c557600080fd5b505af11580156117d9573d6000803e3d6000fd5b50506040516001600160a01b03871681528792507f52cfe144bbaaed60759c6425b5bdfcebf7736889a75f9de7cd4cf30c7a6b807891506020015b60405180910390a25050505050565b6009546001600160a01b0316331461187d5760405162461bcd60e51b815260206004820152600d60248201527f4e4f545f52454749535452415200000000000000000000000000000000000000604482015260640161070b565b6001600160a01b0381166118d35760405162461bcd60e51b815260206004820152600b60248201527f43414e4e4f545f4255524e000000000000000000000000000000000000000000604482015260640161070b565b60405182906001600160a01b038316906000907fddf252ad1be2c89b69c2b068fc378daa952ba7f163c4a11628f55a4df523b3ef908290a46002546040517f5b0fc9c3000000000000000000000000000000000000000000000000000000008152600481018490526001600160a01b03838116602483015290911690635b0fc9c390604401600060405180830381600087803b15801561197257600080fd5b505af1158015611986573d6000803e3d6000fd5b50506002546040517fae2b6d0d0000000000000000000000000000000000000000000000000000000081526001600160a01b03909116925063ae2b6d0d91506119d790859088908890600401612a9c565b600060405180830381600087803b1580156119f157600080fd5b505af1158015611a05573d6000803e3d6000fd5b50506040516001600160a01b03841681528492507f52cfe144bbaaed60759c6425b5bdfcebf7736889a75f9de7cd4cf30c7a6b80789150602001610bbc565b6009546001600160a01b03163314611a9e5760405162461bcd60e51b815260206004820152600d60248201527f4e4f545f52454749535452415200000000000000000000000000000000000000604482015260640161070b565b6001600160a01b038116611af45760405162461bcd60e51b815260206004820152600b60248201527f43414e4e4f545f4255524e000000000000000000000000000000000000000000604482015260640161070b565b6002546040517f5b0fc9c3000000000000000000000000000000000000000000000000000000008152600481018490526001600160a01b03838116602483015290911690635b0fc9c390604401600060405180830381600087803b158015611b5b57600080fd5b505af1158015611b6f573d6000803e3d6000fd5b50506040516001600160a01b03841681528492507f52cfe144bbaaed60759c6425b5bdfcebf7736889a75f9de7cd4cf30c7a6b807891506020016108b2565b6005546001600160a01b03163314611c085760405162461bcd60e51b815260206004820152600760248201527f4e4f545f44455600000000000000000000000000000000000000000000000000604482015260640161070b565b7fffffffff000000000000000000000000000000000000000000000000000000008083169003611c7a5760405162461bcd60e51b815260206004820152601a60248201527f494e56414c49445f494e544552464143455f53454c4543544f52000000000000604482015260640161070b565b7fffffffff0000000000000000000000000000000000000000000000000000000091909116600090815260066020526040902080547fffffffffffffffffffffffffffffffffffffffffffffffffffffffffffffff0016911515919091179055565b6002546040516369762fe560e11b8152600481018390526000916001600160a01b03169063d2ec5fca90602401602060405180830381865afa158015611d26573d6000803e3d6000fd5b505050506040513d601f19601f82011682018060405250810190610964919061284e565b6002546040517f02571be30000000000000000000000000000000000000000000000000000000081526004810184905283916000916001600160a01b03909116906302571be390602401602060405180830381865afa158015611db1573d6000803e3d6000fd5b505050506040513d601f19601f82011682018060405250810190611dd59190612867565b6009549091506001600160a01b0316331480611df957506001600160a01b03811633145b80611e9a57506002546040517fdbd4e021000000000000000000000000000000000000000000000000000000008152600481018490526001600160a01b039091169063dbd4e02190602401602060405180830381865afa158015611e61573d6000803e3d6000fd5b505050506040513d601f19601f82011682018060405250810190611e859190612867565b6001600160a01b0316336001600160a01b0316145b611ee65760405162461bcd60e51b815260206004820152600e60248201527f4e4f545f415554484f5249534544000000000000000000000000000000000000604482015260640161070b565b6002546040517fd3156905000000000000000000000000000000000000000000000000000000008152600481018690526001600160a01b0385811660248301529091169063d315690590604401600060405180830381600087803b158015611f4d57600080fd5b505af1158015611f61573d6000803e3d6000fd5b50506040516001600160a01b03861681528692507fe5108446a6097aab57fd36f346a515a78fddefa87d81662d44e0d7a463f920959150602001610bbc565b6002546040516369762fe560e11b81526004810183905260009183916001600160a01b039091169063d2ec5fca90602401602060405180830381865afa158015611fee573d6000803e3d6000fd5b505050506040513d601f19601f82011682018060405250810190612012919061284e565b42106120605760405162461bcd60e51b815260206004820152600c60248201527f4e414d455f455850495245440000000000000000000000000000000000000000604482015260640161070b565b6002546040517fdbd4e021000000000000000000000000000000000000000000000000000000008152600481018590526001600160a01b039091169063dbd4e0219060240161075a565b6005546001600160a01b031633146121045760405162461bcd60e51b815260206004820152600760248201527f4e4f545f44455600000000000000000000000000000000000000000000000000604482015260640161070b565b6005546040516001600160a01b038084169216907f8be0079c531659141344cd1fd0a4f28419497f9722a3daafe3b4186f6b6457e090600090a3600580547fffffffffffffffffffffffff0000000000000000000000000000000000000000166001600160a01b0392909216919091179055565b6002546040516369762fe560e11b81526004810184905283916001600160a01b03169063d2ec5fca90602401602060405180830381865afa1580156121c1573d6000803e3d6000fd5b505050506040513d601f19601f820116820180604052508101906121e5919061284e565b42106122335760405162461bcd60e51b815260206004820152600c60248201527f4e414d455f455850495245440000000000000000000000000000000000000000604482015260640161070b565b6002546040517f02571be3000000000000000000000000000000000000000000000000000000008152600481018390526000916001600160a01b0316906302571be390602401602060405180830381865afa158015612296573d6000803e3d6000fd5b505050506040513d601f19601f820116820180604052508101906122ba9190612867565b90506001600160a01b03811633148061236957506002546040517fdbd4e021000000000000000000000000000000000000000000000000000000008152600481018490526001600160a01b039091169063dbd4e02190602401602060405180830381865afa158015612330573d6000803e3d6000fd5b505050506040513d601f19601f820116820180604052508101906123549190612867565b6001600160a01b0316336001600160a01b0316145b6123b55760405162461bcd60e51b815260206004820152601760248201527f4e4f545f4f574e45525f4f525f434f4e54524f4c4c4552000000000000000000604482015260640161070b565b6002546040516369762fe560e11b8152600481018690526000916001600160a01b03169063d2ec5fca90602401602060405180830381865afa1580156123ff573d6000803e3d6000fd5b505050506040513d601f19601f82011682018060405250810190612423919061284e565b90508084116124745760405162461bcd60e51b815260206004820152600a60248201527f4241445f45585049525900000000000000000000000000000000000000000000604482015260640161070b565b6008546124818286612a76565b61248b9190612ad2565b3410156124da5760405162461bcd60e51b815260206004820152601260248201527f494e53554646494349454e545f45544845520000000000000000000000000000604482015260640161070b565b6002546040517f39de646900000000000000000000000000000000000000000000000000000000815260048101879052602481018690526001600160a01b03909116906339de646990604401600060405180830381600087803b15801561254057600080fd5b505af1158015612554573d6000803e3d6000fd5b50505050847fa620b72378ee464490805a96e25b53e5c0076f0ce2d28f9691ae255a595b3bf38560405161181491815260200190565b6002546040516369762fe560e11b8152600481018390526000916001600160a01b03169063d2ec5fca90602401602060405180830381865afa1580156125d4573d6000803e3d6000fd5b505050506040513d601f19601f820116820180604052508101906125f8919061284e565b421092915050565b60006020828403121561261257600080fd5b5035919050565b6001600160a01b038116811461262e57600080fd5b50565b6000806040838503121561264457600080fd5b82359150602083013561265681612619565b809150509250929050565b80357fffffffff000000000000000000000000000000000000000000000000000000008116811461269157600080fd5b919050565b6000602082840312156126a857600080fd5b61079b82612661565b60005b838110156126cc5781810151838201526020016126b4565b50506000910152565b60208152600082518060208401526126f48160408501602087016126b1565b601f01601f19169190910160400192915050565b60008060006060848603121561271d57600080fd5b833561272881612619565b9250602084013561273881612619565b9150604084013561274881612619565b809150509250925092565b6000806040838503121561276657600080fd5b50508035926020909101359150565b6000806000806060858703121561278b57600080fd5b843567ffffffffffffffff808211156127a357600080fd5b818701915087601f8301126127b757600080fd5b8135818111156127c657600080fd5b8860208285010111156127d857600080fd5b60209283019650945050850135915060408501356127f581612619565b939692955090935050565b6000806040838503121561281357600080fd5b61281c83612661565b91506020830135801515811461265657600080fd5b60006020828403121561284357600080fd5b813561079b81612619565b60006020828403121561286057600080fd5b5051919050565b60006020828403121561287957600080fd5b815161079b81612619565b7f4e487b7100000000000000000000000000000000000000000000000000000000600052604160045260246000fd5b6040516080810167ffffffffffffffff811182821017156128d6576128d6612884565b60405290565b6000602082840312156128ee57600080fd5b815167ffffffffffffffff8082111561290657600080fd5b818401915084601f83011261291a57600080fd5b81518181111561292c5761292c612884565b604051601f8201601f19908116603f0116810190838211818310171561295457612954612884565b8160405282815287602084870101111561296d57600080fd5b61297e8360208301602088016126b1565b979650505050505050565b60006080828403121561299b57600080fd5b82601f8301126129aa57600080fd5b6129b26128b3565b8060808401858111156129c457600080fd5b845b818110156129de5780518452602093840193016129c6565b509095945050505050565b6000608082840312156129fb57600080fd5b82601f830112612a0a57600080fd5b612a126128b3565b806080840185811115612a2457600080fd5b845b818110156129de578051612a3981612619565b845260209384019301612a26565b7f4e487b7100000000000000000000000000000000000000000000000000000000600052601160045260246000fd5b8181038181111561096457610964612a47565b8082018082111561096457610964612a47565b83815260406020820152816040820152818360608301376000818301606090810191909152601f909201601f1916010192915050565b6000817fffffffffffffffffffffffffffffffffffffffffffffffffffffffffffffffff0483118215151615612b0a57612b0a612a47565b50029056fea26469706673582212202cf926cb0ae4c4081e4e717aa60cc55f02d7b0573841ea88145bcb6ab1bdc28e64736f6c63430008100033",
    "linkReferences": {}
  },
  "methodIdentifiers": {
    "Dev()": "01e51ae8",
    "ERC721()": "8425abff",
    "HELIX2()": "b782426e",
    "PARENT()": "122b83f9",
    "PRICES()": "1eabcd34",
    "Registrar()": "b9f37c86",
    "STORE()": "507f1465",
    "active()": "02fb0c5e",
    "basePrice()": "c7876ea4",
    "controller(bytes32)": "dbd4e021",
    "expiry(bytes32)": "d2ec5fca",
    "label(bytes32)": "1fc4859e",
    "owner()": "8da5cb5b",
    "owner(bytes32)": "02571be3",
    "recordExists(bytes32)": "f79fe538",
    "register(string,bytes32,address)": "9177b086",
    "renew(bytes32,uint256)": "f544d82f",
    "resolver(bytes32)": "0178b8bf",
    "roothash()": "251c9422",
    "setConfig(address,address,address)": "3141e25b",
    "setController(bytes32,address)": "d3156905",
    "setControllerERC721(bytes32,address)": "01d49a5f",
    "setExpiry(bytes32,uint256)": "39de6469",
    "setInterface(bytes4,bool)": "c0a43a7c",
    "setOwner(bytes32,address)": "5b0fc9c3",
    "setOwnerERC721(bytes32,address)": "be22e756",
    "setResolver(bytes32,address)": "1896f70a",
    "supportedInterfaces(bytes4)": "1584ba38",
    "supportsInterface(bytes4)": "01ffc9a7",
    "theEnd()": "22b68deb",
    "toggleActive()": "29c68dc1",
    "transferOwnership(address)": "f2fde38b"
  },
  "id": 37
}