{
  "abi": [
    {
      "inputs": [
        {
          "internalType": "address",
          "name": "_helix2",
          "type": "address"
        },
        {
          "internalType": "address",
          "name": "_priceOracle",
          "type": "address"
        }
      ],
      "stateMutability": "nonpayable",
      "type": "constructor"
    },
    {
      "anonymous": false,
      "inputs": [
        {
          "indexed": true,
          "internalType": "bytes32",
          "name": "namehash",
          "type": "bytes32"
        },
        {
          "indexed": false,
          "internalType": "address",
          "name": "controller",
          "type": "address"
        }
      ],
      "name": "NewController",
      "type": "event"
    },
    {
      "anonymous": false,
      "inputs": [
        {
          "indexed": true,
          "internalType": "bytes32",
          "name": "namehash",
          "type": "bytes32"
        },
        {
          "indexed": false,
          "internalType": "uint256",
          "name": "expiry",
          "type": "uint256"
        }
      ],
      "name": "NewExpiry",
      "type": "event"
    },
    {
      "anonymous": false,
      "inputs": [
        {
          "indexed": true,
          "internalType": "bytes32",
          "name": "namehash",
          "type": "bytes32"
        },
        {
          "indexed": false,
          "internalType": "address",
          "name": "owner",
          "type": "address"
        }
      ],
      "name": "NewOwner",
      "type": "event"
    },
    {
      "anonymous": false,
      "inputs": [
        {
          "indexed": true,
          "internalType": "bytes32",
          "name": "namehash",
          "type": "bytes32"
        },
        {
          "indexed": false,
          "internalType": "address",
          "name": "resolver",
          "type": "address"
        }
      ],
      "name": "NewResolver",
      "type": "event"
    },
    {
      "anonymous": false,
      "inputs": [
        {
          "indexed": true,
          "internalType": "address",
          "name": "previousOwner",
          "type": "address"
        },
        {
          "indexed": true,
          "internalType": "address",
          "name": "newOwner",
          "type": "address"
        }
      ],
      "name": "OwnershipTransferred",
      "type": "event"
    },
    {
      "anonymous": false,
      "inputs": [
        {
          "indexed": true,
          "internalType": "address",
          "name": "from",
          "type": "address"
        },
        {
          "indexed": true,
          "internalType": "address",
          "name": "to",
          "type": "address"
        },
        {
          "indexed": true,
          "internalType": "uint256",
          "name": "tokenID",
          "type": "uint256"
        }
      ],
      "name": "Transfer",
      "type": "event"
    },
    {
      "inputs": [],
      "name": "Dev",
      "outputs": [
        {
          "internalType": "address",
          "name": "",
          "type": "address"
        }
      ],
      "stateMutability": "view",
      "type": "function"
    },
    {
      "inputs": [],
      "name": "ERC721",
      "outputs": [
        {
          "internalType": "contract iERC721",
          "name": "",
          "type": "address"
        }
      ],
      "stateMutability": "view",
      "type": "function"
    },
    {
      "inputs": [],
      "name": "HELIX2",
      "outputs": [
        {
          "internalType": "contract iHELIX2",
          "name": "",
          "type": "address"
        }
      ],
      "stateMutability": "view",
      "type": "function"
    },
    {
      "inputs": [],
      "name": "PARENT",
      "outputs": [
        {
          "internalType": "contract iNAME",
          "name": "",
          "type": "address"
        }
      ],
      "stateMutability": "view",
      "type": "function"
    },
    {
      "inputs": [],
      "name": "PRICES",
      "outputs": [
        {
          "internalType": "contract iPriceOracle",
          "name": "",
          "type": "address"
        }
      ],
      "stateMutability": "view",
      "type": "function"
    },
    {
      "inputs": [],
      "name": "Registrar",
      "outputs": [
        {
          "internalType": "address",
          "name": "",
          "type": "address"
        }
      ],
      "stateMutability": "view",
      "type": "function"
    },
    {
      "inputs": [],
      "name": "STORE",
      "outputs": [
        {
          "internalType": "contract iNAME",
          "name": "",
          "type": "address"
        }
      ],
      "stateMutability": "view",
      "type": "function"
    },
    {
      "inputs": [],
      "name": "active",
      "outputs": [
        {
          "internalType": "bool",
          "name": "",
          "type": "bool"
        }
      ],
      "stateMutability": "view",
      "type": "function"
    },
    {
      "inputs": [],
      "name": "basePrice",
      "outputs": [
        {
          "internalType": "uint256",
          "name": "",
          "type": "uint256"
        }
      ],
      "stateMutability": "view",
      "type": "function"
    },
    {
      "inputs": [
        {
          "internalType": "bytes32",
          "name": "namehash",
          "type": "bytes32"
        }
      ],
      "name": "controller",
      "outputs": [
        {
          "internalType": "address",
          "name": "",
          "type": "address"
        }
      ],
      "stateMutability": "view",
      "type": "function"
    },
    {
      "inputs": [
        {
          "internalType": "bytes32",
          "name": "namehash",
          "type": "bytes32"
        }
      ],
      "name": "expiry",
      "outputs": [
        {
          "internalType": "uint256",
          "name": "",
          "type": "uint256"
        }
      ],
      "stateMutability": "view",
      "type": "function"
    },
    {
      "inputs": [
        {
          "internalType": "bytes32",
          "name": "namehash",
          "type": "bytes32"
        }
      ],
      "name": "label",
      "outputs": [
        {
          "internalType": "string",
          "name": "",
          "type": "string"
        }
      ],
      "stateMutability": "view",
      "type": "function"
    },
    {
      "inputs": [
        {
          "internalType": "bytes32",
          "name": "namehash",
          "type": "bytes32"
        }
      ],
      "name": "owner",
      "outputs": [
        {
          "internalType": "address",
          "name": "",
          "type": "address"
        }
      ],
      "stateMutability": "view",
      "type": "function"
    },
    {
      "inputs": [],
      "name": "owner",
      "outputs": [
        {
          "internalType": "address",
          "name": "",
          "type": "address"
        }
      ],
      "stateMutability": "view",
      "type": "function"
    },
    {
      "inputs": [
        {
          "internalType": "bytes32",
          "name": "namehash",
          "type": "bytes32"
        }
      ],
      "name": "recordExists",
      "outputs": [
        {
          "internalType": "bool",
          "name": "",
          "type": "bool"
        }
      ],
      "stateMutability": "view",
      "type": "function"
    },
    {
      "inputs": [
        {
          "internalType": "string",
          "name": "_label",
          "type": "string"
        },
        {
          "internalType": "bytes32",
          "name": "namehash",
          "type": "bytes32"
        },
        {
          "internalType": "address",
          "name": "_owner",
          "type": "address"
        }
      ],
      "name": "register",
      "outputs": [],
      "stateMutability": "nonpayable",
      "type": "function"
    },
    {
      "inputs": [
        {
          "internalType": "bytes32",
          "name": "namehash",
          "type": "bytes32"
        },
        {
          "internalType": "uint256",
          "name": "_expiry",
          "type": "uint256"
        }
      ],
      "name": "renew",
      "outputs": [],
      "stateMutability": "payable",
      "type": "function"
    },
    {
      "inputs": [
        {
          "internalType": "bytes32",
          "name": "namehash",
          "type": "bytes32"
        }
      ],
      "name": "resolver",
      "outputs": [
        {
          "internalType": "address",
          "name": "",
          "type": "address"
        }
      ],
      "stateMutability": "view",
      "type": "function"
    },
    {
      "inputs": [],
      "name": "roothash",
      "outputs": [
        {
          "internalType": "bytes32",
          "name": "",
          "type": "bytes32"
        }
      ],
      "stateMutability": "view",
      "type": "function"
    },
    {
      "inputs": [
        {
          "internalType": "address",
          "name": "_helix2",
          "type": "address"
        },
        {
          "internalType": "address",
          "name": "_priceOracle",
          "type": "address"
        },
        {
          "internalType": "address",
          "name": "_store",
          "type": "address"
        }
      ],
      "name": "setConfig",
      "outputs": [],
      "stateMutability": "nonpayable",
      "type": "function"
    },
    {
      "inputs": [
        {
          "internalType": "bytes32",
          "name": "namehash",
          "type": "bytes32"
        },
        {
          "internalType": "address",
          "name": "_controller",
          "type": "address"
        }
      ],
      "name": "setController",
      "outputs": [],
      "stateMutability": "nonpayable",
      "type": "function"
    },
    {
      "inputs": [
        {
          "internalType": "bytes32",
          "name": "namehash",
          "type": "bytes32"
        },
        {
          "internalType": "address",
          "name": "_controller",
          "type": "address"
        }
      ],
      "name": "setControllerERC721",
      "outputs": [],
      "stateMutability": "nonpayable",
      "type": "function"
    },
    {
      "inputs": [
        {
          "internalType": "bytes32",
          "name": "namehash",
          "type": "bytes32"
        },
        {
          "internalType": "uint256",
          "name": "_expiry",
          "type": "uint256"
        }
      ],
      "name": "setExpiry",
      "outputs": [],
      "stateMutability": "nonpayable",
      "type": "function"
    },
    {
      "inputs": [
        {
          "internalType": "bytes4",
          "name": "sig",
          "type": "bytes4"
        },
        {
          "internalType": "bool",
          "name": "value",
          "type": "bool"
        }
      ],
      "name": "setInterface",
      "outputs": [],
      "stateMutability": "payable",
      "type": "function"
    },
    {
      "inputs": [
        {
          "internalType": "bytes32",
          "name": "namehash",
          "type": "bytes32"
        },
        {
          "internalType": "address",
          "name": "_owner",
          "type": "address"
        }
      ],
      "name": "setOwner",
      "outputs": [],
      "stateMutability": "nonpayable",
      "type": "function"
    },
    {
      "inputs": [
        {
          "internalType": "bytes32",
          "name": "namehash",
          "type": "bytes32"
        },
        {
          "internalType": "address",
          "name": "_owner",
          "type": "address"
        }
      ],
      "name": "setOwnerERC721",
      "outputs": [],
      "stateMutability": "nonpayable",
      "type": "function"
    },
    {
      "inputs": [
        {
          "internalType": "bytes32",
          "name": "namehash",
          "type": "bytes32"
        },
        {
          "internalType": "address",
          "name": "_resolver",
          "type": "address"
        }
      ],
      "name": "setResolver",
      "outputs": [],
      "stateMutability": "nonpayable",
      "type": "function"
    },
    {
      "inputs": [
        {
          "internalType": "bytes4",
          "name": "",
          "type": "bytes4"
        }
      ],
      "name": "supportsInterface",
      "outputs": [
        {
          "internalType": "bool",
          "name": "",
          "type": "bool"
        }
      ],
      "stateMutability": "view",
      "type": "function"
    },
    {
      "inputs": [],
      "name": "theEnd",
      "outputs": [
        {
          "internalType": "uint256",
          "name": "",
          "type": "uint256"
        }
      ],
      "stateMutability": "view",
      "type": "function"
    },
    {
      "inputs": [],
      "name": "toggleActive",
      "outputs": [],
      "stateMutability": "nonpayable",
      "type": "function"
    },
    {
      "inputs": [
        {
          "internalType": "address",
          "name": "newDev",
          "type": "address"
        }
      ],
      "name": "transferOwnership",
      "outputs": [],
      "stateMutability": "nonpayable",
      "type": "function"
    }
  ],
  "bytecode": {
    "object": "0x60806040526005805460ff60a01b1916600160a01b1790556703782dace9d90000600a553480156200003057600080fd5b5060405162002db338038062002db38339810160408190526200005391620001f3565b600580546001600160a01b03199081163317909155600080546001600160a01b03851692168217905560408051633215476b60e11b8152905163642a8ed6916004808201926080929091908290030181865afa158015620000b8573d6000803e3d6000fd5b505050506040513d601f19601f82011682018060405250810190620000de919062000262565b51600755600480546001600160a01b0319166001600160a01b03831690811782556040805163bd9a548b60e01b81529051919263bd9a548b9282820192608092908290030181865afa15801562000139573d6000803e3d6000fd5b505050506040513d601f19601f820116820180604052508101906200015f919062000262565b51600855505060066020527fc26d0f43ee7b5be8b3e73c997d2363c9017f54260646f191d292f9460993aef38054600160ff1991821681179092556307f5828d60e41b6000527f1b858a95fc2ef26ad406f257ccb9b94f844893f38989af5697ecb3aadbe0d69e80549091169091179055620002c9565b80516001600160a01b0381168114620001ee57600080fd5b919050565b600080604083850312156200020757600080fd5b6200021283620001d6565b91506200022260208401620001d6565b90509250929050565b604051608081016001600160401b03811182821017156200025c57634e487b7160e01b600052604160045260246000fd5b60405290565b6000608082840312156200027557600080fd5b82601f8301126200028557600080fd5b6200028f6200022b565b806080840185811115620002a257600080fd5b845b81811015620002be578051845260209384019301620002a4565b509095945050505050565b612ada80620002d96000396000f3fe6080604052600436106101d85760003560e01c8063507f146511610102578063c0a43a7c11610095578063dbd4e02111610064578063dbd4e02114610571578063f2fde38b14610591578063f544d82f146105b1578063f79fe538146105c457600080fd5b8063c0a43a7c14610508578063c7876ea41461051b578063d2ec5fca14610531578063d31569051461055157600080fd5b80639177b086116100d15780639177b08614610488578063b782426e146104a8578063b9f37c86146104c8578063be22e756146104e857600080fd5b8063507f14651461040a5780635b0fc9c31461042a5780638425abff1461044a5780638da5cb5b1461046a57600080fd5b80631896f70a1161017a578063251c942211610149578063251c94221461039f57806329c68dc1146103b55780633141e25b146103ca57806339de6469146103ea57600080fd5b80631896f70a1461030e5780631eabcd341461032e5780631fc4859e1461034e57806322b68deb1461037b57600080fd5b806301ffc9a7116101b657806301ffc9a71461025c57806302571be31461029c57806302fb0c5e146102bc578063122b83f9146102ee57600080fd5b80630178b8bf146101dd57806301d49a5f1461021a57806301e51ae81461023c575b600080fd5b3480156101e957600080fd5b506101fd6101f8366004612595565b6105e4565b6040516001600160a01b0390911681526020015b60405180910390f35b34801561022657600080fd5b5061023a6102353660046125c6565b610737565b005b34801561024857600080fd5b506005546101fd906001600160a01b031681565b34801561026857600080fd5b5061028c61027736600461262b565b60066020526000908152604090205460ff1681565b6040519015158152602001610211565b3480156102a857600080fd5b506101fd6102b7366004612595565b610853565b3480156102c857600080fd5b5060055461028c9074010000000000000000000000000000000000000000900460ff1681565b3480156102fa57600080fd5b506001546101fd906001600160a01b031681565b34801561031a57600080fd5b5061023a6103293660046125c6565b6108ff565b34801561033a57600080fd5b506004546101fd906001600160a01b031681565b34801561035a57600080fd5b5061036e610369366004612595565b610b5f565b604051610211919061266a565b34801561038757600080fd5b50610391600a5481565b604051908152602001610211565b3480156103ab57600080fd5b5061039160075481565b3480156103c157600080fd5b5061023a610ca9565b3480156103d657600080fd5b5061023a6103e536600461269d565b610d50565b3480156103f657600080fd5b5061023a6104053660046126e8565b611047565b34801561041657600080fd5b506002546101fd906001600160a01b031681565b34801561043657600080fd5b5061023a6104453660046125c6565b61120c565b34801561045657600080fd5b506003546101fd906001600160a01b031681565b34801561047657600080fd5b506005546001600160a01b03166101fd565b34801561049457600080fd5b5061023a6104a336600461270a565b6117b8565b3480156104b457600080fd5b506000546101fd906001600160a01b031681565b3480156104d457600080fd5b506009546101fd906001600160a01b031681565b3480156104f457600080fd5b5061023a6105033660046125c6565b6119d9565b61023a610516366004612795565b611b43565b34801561052757600080fd5b5061039160085481565b34801561053d57600080fd5b5061039161054c366004612595565b611c71565b34801561055d57600080fd5b5061023a61056c3660046125c6565b611cdf565b34801561057d57600080fd5b506101fd61058c366004612595565b611f35565b34801561059d57600080fd5b5061023a6105ac3660046127c6565b61203f565b61023a6105bf3660046126e8565b61210d565b3480156105d057600080fd5b5061028c6105df366004612595565b61251f565b6002546040516369762fe560e11b81526004810183905260009183916001600160a01b039091169063d2ec5fca90602401602060405180830381865afa158015610632573d6000803e3d6000fd5b505050506040513d601f19601f8201168201806040525081019061065691906127e3565b42106106a95760405162461bcd60e51b815260206004820152600c60248201527f4e414d455f45585049524544000000000000000000000000000000000000000060448201526064015b60405180910390fd5b6002546040517f0178b8bf000000000000000000000000000000000000000000000000000000008152600481018590526001600160a01b0390911690630178b8bf906024015b602060405180830381865afa15801561070c573d6000803e3d6000fd5b505050506040513d601f19601f8201168201806040525081019061073091906127fc565b9392505050565b6009546001600160a01b031633146107915760405162461bcd60e51b815260206004820152600d60248201527f4e4f545f5245474953545241520000000000000000000000000000000000000060448201526064016106a0565b6002546040517fd3156905000000000000000000000000000000000000000000000000000000008152600481018490526001600160a01b0383811660248301529091169063d315690590604401600060405180830381600087803b1580156107f857600080fd5b505af115801561080c573d6000803e3d6000fd5b50506040516001600160a01b03841681528492507fe5108446a6097aab57fd36f346a515a78fddefa87d81662d44e0d7a463f9209591506020015b60405180910390a25050565b6002546040517f02571be30000000000000000000000000000000000000000000000000000000081526004810183905260009182916001600160a01b03909116906302571be390602401602060405180830381865afa1580156108ba573d6000803e3d6000fd5b505050506040513d601f19601f820116820180604052508101906108de91906127fc565b9050306001600160a01b038216036108f95750600092915050565b92915050565b6002546040517f02571be30000000000000000000000000000000000000000000000000000000081526004810184905283916000916001600160a01b03909116906302571be390602401602060405180830381865afa158015610966573d6000803e3d6000fd5b505050506040513d601f19601f8201168201806040525081019061098a91906127fc565b6009549091506001600160a01b03163314806109ae57506001600160a01b03811633145b80610a4f57506002546040517fdbd4e021000000000000000000000000000000000000000000000000000000008152600481018490526001600160a01b039091169063dbd4e02190602401602060405180830381865afa158015610a16573d6000803e3d6000fd5b505050506040513d601f19601f82011682018060405250810190610a3a91906127fc565b6001600160a01b0316336001600160a01b0316145b610a9b5760405162461bcd60e51b815260206004820152600e60248201527f4e4f545f415554484f524953454400000000000000000000000000000000000060448201526064016106a0565b6002546040517f1896f70a000000000000000000000000000000000000000000000000000000008152600481018690526001600160a01b03858116602483015290911690631896f70a90604401600060405180830381600087803b158015610b0257600080fd5b505af1158015610b16573d6000803e3d6000fd5b50506040516001600160a01b03861681528692507f335721b01866dc23fbee8b6b2c7b1e14d6f05c28cd35a2c934239f94095602a091506020015b60405180910390a250505050565b6002546040516369762fe560e11b81526004810183905260609183916001600160a01b039091169063d2ec5fca90602401602060405180830381865afa158015610bad573d6000803e3d6000fd5b505050506040513d601f19601f82011682018060405250810190610bd191906127e3565b4210610c1f5760405162461bcd60e51b815260206004820152600c60248201527f4e414d455f45585049524544000000000000000000000000000000000000000060448201526064016106a0565b6002546040517f1fc4859e000000000000000000000000000000000000000000000000000000008152600481018590526001600160a01b0390911690631fc4859e90602401600060405180830381865afa158015610c81573d6000803e3d6000fd5b505050506040513d6000823e601f3d908101601f191682016040526107309190810190612871565b6005546001600160a01b03163314610d035760405162461bcd60e51b815260206004820152600760248201527f4e4f545f4445560000000000000000000000000000000000000000000000000060448201526064016106a0565b600580547fffffffffffffffffffffff00ffffffffffffffffffffffffffffffffffffffff8116740100000000000000000000000000000000000000009182900460ff1615909102179055565b6005546001600160a01b03163314610daa5760405162461bcd60e51b815260206004820152600760248201527f4e4f545f4445560000000000000000000000000000000000000000000000000060448201526064016106a0565b6001600160a01b03831615610f4057600080547fffffffffffffffffffffffff0000000000000000000000000000000000000000166001600160a01b038516908117909155604080517f642a8ed6000000000000000000000000000000000000000000000000000000008152905163642a8ed6916004808201926080929091908290030181865afa158015610e43573d6000803e3d6000fd5b505050506040513d601f19601f82011682018060405250810190610e67919061291e565b51600755600054604080517f4d3f733400000000000000000000000000000000000000000000000000000000815290516001600160a01b0390921691634d3f7334916004808201926080929091908290030181865afa158015610ece573d6000803e3d6000fd5b505050506040513d601f19601f82011682018060405250810190610ef2919061297e565b51600980546001600160a01b039092167fffffffffffffffffffffffff0000000000000000000000000000000000000000928316811790915560018054831682179055600380549092161790555b6001600160a01b03811615610f8357600280547fffffffffffffffffffffffff0000000000000000000000000000000000000000166001600160a01b0383161790555b6001600160a01b0382161561104257600480547fffffffffffffffffffffffff0000000000000000000000000000000000000000166001600160a01b0384169081178255604080517fbd9a548b0000000000000000000000000000000000000000000000000000000081529051919263bd9a548b9282820192608092908290030181865afa158015611019573d6000803e3d6000fd5b505050506040513d601f19601f8201168201806040525081019061103d919061291e565b516008555b505050565b6009546001600160a01b031633146110a15760405162461bcd60e51b815260206004820152600d60248201527f4e4f545f5245474953545241520000000000000000000000000000000000000060448201526064016106a0565b6002546040516369762fe560e11b8152600481018490526001600160a01b039091169063d2ec5fca90602401602060405180830381865afa1580156110ea573d6000803e3d6000fd5b505050506040513d601f19601f8201168201806040525081019061110e91906127e3565b811161115c5760405162461bcd60e51b815260206004820152600a60248201527f4241445f4558504952590000000000000000000000000000000000000000000060448201526064016106a0565b6002546040517f39de646900000000000000000000000000000000000000000000000000000000815260048101849052602481018390526001600160a01b03909116906339de646990604401600060405180830381600087803b1580156111c257600080fd5b505af11580156111d6573d6000803e3d6000fd5b50505050817fa620b72378ee464490805a96e25b53e5c0076f0ce2d28f9691ae255a595b3bf38260405161084791815260200190565b6002546040516369762fe560e11b81526004810184905283916001600160a01b03169063d2ec5fca90602401602060405180830381865afa158015611255573d6000803e3d6000fd5b505050506040513d601f19601f8201168201806040525081019061127991906127e3565b42106112c75760405162461bcd60e51b815260206004820152600c60248201527f4e414d455f45585049524544000000000000000000000000000000000000000060448201526064016106a0565b6002546040517f02571be3000000000000000000000000000000000000000000000000000000008152600481018390526000916001600160a01b0316906302571be390602401602060405180830381865afa15801561132a573d6000803e3d6000fd5b505050506040513d601f19601f8201168201806040525081019061134e91906127fc565b90506001600160a01b03811633146113a85760405162461bcd60e51b815260206004820152600960248201527f4e4f545f4f574e4552000000000000000000000000000000000000000000000060448201526064016106a0565b6001600160a01b0383166113fe5760405162461bcd60e51b815260206004820152600b60248201527f43414e4e4f545f4255524e00000000000000000000000000000000000000000060448201526064016106a0565b6002546040517f02571be3000000000000000000000000000000000000000000000000000000008152600481018690526000916001600160a01b0316906302571be390602401602060405180830381865afa158015611461573d6000803e3d6000fd5b505050506040513d601f19601f8201168201806040525081019061148591906127fc565b600180546003546040517f70a082310000000000000000000000000000000000000000000000000000000081526001600160a01b0380861660048301529495509184169363e30443bc938693909291909116906370a0823190602401602060405180830381865afa1580156114fe573d6000803e3d6000fd5b505050506040513d601f19601f8201168201806040525081019061152291906127e3565b61152c9190612a0b565b6040517fffffffff0000000000000000000000000000000000000000000000000000000060e085901b1681526001600160a01b0390921660048301526024820152604401600060405180830381600087803b15801561158a57600080fd5b505af115801561159e573d6000803e3d6000fd5b50506001546003546040517f70a082310000000000000000000000000000000000000000000000000000000081526001600160a01b038981166004830152928316945063e30443bc93508892909116906370a0823190602401602060405180830381865afa158015611614573d6000803e3d6000fd5b505050506040513d601f19601f8201168201806040525081019061163891906127e3565b611643906001612a1e565b6040517fffffffff0000000000000000000000000000000000000000000000000000000060e085901b1681526001600160a01b0390921660048301526024820152604401600060405180830381600087803b1580156116a157600080fd5b505af11580156116b5573d6000803e3d6000fd5b50506040518792506001600160a01b0380881692508416907fddf252ad1be2c89b69c2b068fc378daa952ba7f163c4a11628f55a4df523b3ef90600090a46002546040517f5b0fc9c3000000000000000000000000000000000000000000000000000000008152600481018790526001600160a01b03868116602483015290911690635b0fc9c390604401600060405180830381600087803b15801561175a57600080fd5b505af115801561176e573d6000803e3d6000fd5b50506040516001600160a01b03871681528792507f52cfe144bbaaed60759c6425b5bdfcebf7736889a75f9de7cd4cf30c7a6b807891506020015b60405180910390a25050505050565b6009546001600160a01b031633146118125760405162461bcd60e51b815260206004820152600d60248201527f4e4f545f5245474953545241520000000000000000000000000000000000000060448201526064016106a0565b6001600160a01b0381166118685760405162461bcd60e51b815260206004820152600b60248201527f43414e4e4f545f4255524e00000000000000000000000000000000000000000060448201526064016106a0565b60405182906001600160a01b038316906000907fddf252ad1be2c89b69c2b068fc378daa952ba7f163c4a11628f55a4df523b3ef908290a46002546040517f5b0fc9c3000000000000000000000000000000000000000000000000000000008152600481018490526001600160a01b03838116602483015290911690635b0fc9c390604401600060405180830381600087803b15801561190757600080fd5b505af115801561191b573d6000803e3d6000fd5b50506002546040517fae2b6d0d0000000000000000000000000000000000000000000000000000000081526001600160a01b03909116925063ae2b6d0d915061196c90859088908890600401612a31565b600060405180830381600087803b15801561198657600080fd5b505af115801561199a573d6000803e3d6000fd5b50506040516001600160a01b03841681528492507f52cfe144bbaaed60759c6425b5bdfcebf7736889a75f9de7cd4cf30c7a6b80789150602001610b51565b6009546001600160a01b03163314611a335760405162461bcd60e51b815260206004820152600d60248201527f4e4f545f5245474953545241520000000000000000000000000000000000000060448201526064016106a0565b6001600160a01b038116611a895760405162461bcd60e51b815260206004820152600b60248201527f43414e4e4f545f4255524e00000000000000000000000000000000000000000060448201526064016106a0565b6002546040517f5b0fc9c3000000000000000000000000000000000000000000000000000000008152600481018490526001600160a01b03838116602483015290911690635b0fc9c390604401600060405180830381600087803b158015611af057600080fd5b505af1158015611b04573d6000803e3d6000fd5b50506040516001600160a01b03841681528492507f52cfe144bbaaed60759c6425b5bdfcebf7736889a75f9de7cd4cf30c7a6b80789150602001610847565b6005546001600160a01b03163314611b9d5760405162461bcd60e51b815260206004820152600760248201527f4e4f545f4445560000000000000000000000000000000000000000000000000060448201526064016106a0565b7fffffffff000000000000000000000000000000000000000000000000000000008083169003611c0f5760405162461bcd60e51b815260206004820152601a60248201527f494e56414c49445f494e544552464143455f53454c4543544f5200000000000060448201526064016106a0565b7fffffffff0000000000000000000000000000000000000000000000000000000091909116600090815260066020526040902080547fffffffffffffffffffffffffffffffffffffffffffffffffffffffffffffff0016911515919091179055565b6002546040516369762fe560e11b8152600481018390526000916001600160a01b03169063d2ec5fca90602401602060405180830381865afa158015611cbb573d6000803e3d6000fd5b505050506040513d601f19601f820116820180604052508101906108f991906127e3565b6002546040517f02571be30000000000000000000000000000000000000000000000000000000081526004810184905283916000916001600160a01b03909116906302571be390602401602060405180830381865afa158015611d46573d6000803e3d6000fd5b505050506040513d601f19601f82011682018060405250810190611d6a91906127fc565b6009549091506001600160a01b0316331480611d8e57506001600160a01b03811633145b80611e2f57506002546040517fdbd4e021000000000000000000000000000000000000000000000000000000008152600481018490526001600160a01b039091169063dbd4e02190602401602060405180830381865afa158015611df6573d6000803e3d6000fd5b505050506040513d601f19601f82011682018060405250810190611e1a91906127fc565b6001600160a01b0316336001600160a01b0316145b611e7b5760405162461bcd60e51b815260206004820152600e60248201527f4e4f545f415554484f524953454400000000000000000000000000000000000060448201526064016106a0565b6002546040517fd3156905000000000000000000000000000000000000000000000000000000008152600481018690526001600160a01b0385811660248301529091169063d315690590604401600060405180830381600087803b158015611ee257600080fd5b505af1158015611ef6573d6000803e3d6000fd5b50506040516001600160a01b03861681528692507fe5108446a6097aab57fd36f346a515a78fddefa87d81662d44e0d7a463f920959150602001610b51565b6002546040516369762fe560e11b81526004810183905260009183916001600160a01b039091169063d2ec5fca90602401602060405180830381865afa158015611f83573d6000803e3d6000fd5b505050506040513d601f19601f82011682018060405250810190611fa791906127e3565b4210611ff55760405162461bcd60e51b815260206004820152600c60248201527f4e414d455f45585049524544000000000000000000000000000000000000000060448201526064016106a0565b6002546040517fdbd4e021000000000000000000000000000000000000000000000000000000008152600481018590526001600160a01b039091169063dbd4e021906024016106ef565b6005546001600160a01b031633146120995760405162461bcd60e51b815260206004820152600760248201527f4e4f545f4445560000000000000000000000000000000000000000000000000060448201526064016106a0565b6005546040516001600160a01b038084169216907f8be0079c531659141344cd1fd0a4f28419497f9722a3daafe3b4186f6b6457e090600090a3600580547fffffffffffffffffffffffff0000000000000000000000000000000000000000166001600160a01b0392909216919091179055565b6002546040516369762fe560e11b81526004810184905283916001600160a01b03169063d2ec5fca90602401602060405180830381865afa158015612156573d6000803e3d6000fd5b505050506040513d601f19601f8201168201806040525081019061217a91906127e3565b42106121c85760405162461bcd60e51b815260206004820152600c60248201527f4e414d455f45585049524544000000000000000000000000000000000000000060448201526064016106a0565b6002546040517f02571be3000000000000000000000000000000000000000000000000000000008152600481018390526000916001600160a01b0316906302571be390602401602060405180830381865afa15801561222b573d6000803e3d6000fd5b505050506040513d601f19601f8201168201806040525081019061224f91906127fc565b90506001600160a01b0381163314806122fe57506002546040517fdbd4e021000000000000000000000000000000000000000000000000000000008152600481018490526001600160a01b039091169063dbd4e02190602401602060405180830381865afa1580156122c5573d6000803e3d6000fd5b505050506040513d601f19601f820116820180604052508101906122e991906127fc565b6001600160a01b0316336001600160a01b0316145b61234a5760405162461bcd60e51b815260206004820152601760248201527f4e4f545f4f574e45525f4f525f434f4e54524f4c4c455200000000000000000060448201526064016106a0565b6002546040516369762fe560e11b8152600481018690526000916001600160a01b03169063d2ec5fca90602401602060405180830381865afa158015612394573d6000803e3d6000fd5b505050506040513d601f19601f820116820180604052508101906123b891906127e3565b90508084116124095760405162461bcd60e51b815260206004820152600a60248201527f4241445f4558504952590000000000000000000000000000000000000000000060448201526064016106a0565b6008546124168286612a0b565b6124209190612a67565b34101561246f5760405162461bcd60e51b815260206004820152601260248201527f494e53554646494349454e545f4554484552000000000000000000000000000060448201526064016106a0565b6002546040517f39de646900000000000000000000000000000000000000000000000000000000815260048101879052602481018690526001600160a01b03909116906339de646990604401600060405180830381600087803b1580156124d557600080fd5b505af11580156124e9573d6000803e3d6000fd5b50505050847fa620b72378ee464490805a96e25b53e5c0076f0ce2d28f9691ae255a595b3bf3856040516117a991815260200190565b6002546040516369762fe560e11b8152600481018390526000916001600160a01b03169063d2ec5fca90602401602060405180830381865afa158015612569573d6000803e3d6000fd5b505050506040513d601f19601f8201168201806040525081019061258d91906127e3565b421092915050565b6000602082840312156125a757600080fd5b5035919050565b6001600160a01b03811681146125c357600080fd5b50565b600080604083850312156125d957600080fd5b8235915060208301356125eb816125ae565b809150509250929050565b80357fffffffff000000000000000000000000000000000000000000000000000000008116811461262657600080fd5b919050565b60006020828403121561263d57600080fd5b610730826125f6565b60005b83811015612661578181015183820152602001612649565b50506000910152565b6020815260008251806020840152612689816040850160208701612646565b601f01601f19169190910160400192915050565b6000806000606084860312156126b257600080fd5b83356126bd816125ae565b925060208401356126cd816125ae565b915060408401356126dd816125ae565b809150509250925092565b600080604083850312156126fb57600080fd5b50508035926020909101359150565b6000806000806060858703121561272057600080fd5b843567ffffffffffffffff8082111561273857600080fd5b818701915087601f83011261274c57600080fd5b81358181111561275b57600080fd5b88602082850101111561276d57600080fd5b602092830196509450508501359150604085013561278a816125ae565b939692955090935050565b600080604083850312156127a857600080fd5b6127b1836125f6565b9150602083013580151581146125eb57600080fd5b6000602082840312156127d857600080fd5b8135610730816125ae565b6000602082840312156127f557600080fd5b5051919050565b60006020828403121561280e57600080fd5b8151610730816125ae565b7f4e487b7100000000000000000000000000000000000000000000000000000000600052604160045260246000fd5b6040516080810167ffffffffffffffff8111828210171561286b5761286b612819565b60405290565b60006020828403121561288357600080fd5b815167ffffffffffffffff8082111561289b57600080fd5b818401915084601f8301126128af57600080fd5b8151818111156128c1576128c1612819565b604051601f8201601f19908116603f011681019083821181831017156128e9576128e9612819565b8160405282815287602084870101111561290257600080fd5b612913836020830160208801612646565b979650505050505050565b60006080828403121561293057600080fd5b82601f83011261293f57600080fd5b612947612848565b80608084018581111561295957600080fd5b845b8181101561297357805184526020938401930161295b565b509095945050505050565b60006080828403121561299057600080fd5b82601f83011261299f57600080fd5b6129a7612848565b8060808401858111156129b957600080fd5b845b818110156129735780516129ce816125ae565b8452602093840193016129bb565b7f4e487b7100000000000000000000000000000000000000000000000000000000600052601160045260246000fd5b818103818111156108f9576108f96129dc565b808201808211156108f9576108f96129dc565b83815260406020820152816040820152818360608301376000818301606090810191909152601f909201601f1916010192915050565b6000817fffffffffffffffffffffffffffffffffffffffffffffffffffffffffffffffff0483118215151615612a9f57612a9f6129dc565b50029056fea264697066735822122017ea20eb382e0f5be52a360f29764059ebf4e99ff17545a0180f97106861c79b64736f6c63430008100033",
    "linkReferences": {}
  },
  "methodIdentifiers": {
    "Dev()": "01e51ae8",
    "ERC721()": "8425abff",
    "HELIX2()": "b782426e",
    "PARENT()": "122b83f9",
    "PRICES()": "1eabcd34",
    "Registrar()": "b9f37c86",
    "STORE()": "507f1465",
    "active()": "02fb0c5e",
    "basePrice()": "c7876ea4",
    "controller(bytes32)": "dbd4e021",
    "expiry(bytes32)": "d2ec5fca",
    "label(bytes32)": "1fc4859e",
    "owner()": "8da5cb5b",
    "owner(bytes32)": "02571be3",
    "recordExists(bytes32)": "f79fe538",
    "register(string,bytes32,address)": "9177b086",
    "renew(bytes32,uint256)": "f544d82f",
    "resolver(bytes32)": "0178b8bf",
    "roothash()": "251c9422",
    "setConfig(address,address,address)": "3141e25b",
    "setController(bytes32,address)": "d3156905",
    "setControllerERC721(bytes32,address)": "01d49a5f",
    "setExpiry(bytes32,uint256)": "39de6469",
    "setInterface(bytes4,bool)": "c0a43a7c",
    "setOwner(bytes32,address)": "5b0fc9c3",
    "setOwnerERC721(bytes32,address)": "be22e756",
    "setResolver(bytes32,address)": "1896f70a",
    "supportsInterface(bytes4)": "01ffc9a7",
    "theEnd()": "22b68deb",
    "toggleActive()": "29c68dc1",
    "transferOwnership(address)": "f2fde38b"
  },
  "id": 35
}