{
  "abi": [
    {
      "inputs": [
        {
          "internalType": "address",
          "name": "_helix2",
          "type": "address"
        }
      ],
      "stateMutability": "nonpayable",
      "type": "constructor"
    },
    {
      "anonymous": false,
      "inputs": [
        {
          "indexed": true,
          "internalType": "address",
          "name": "owner",
          "type": "address"
        },
        {
          "indexed": true,
          "internalType": "address",
          "name": "spender",
          "type": "address"
        },
        {
          "indexed": true,
          "internalType": "uint256",
          "name": "tokenID",
          "type": "uint256"
        }
      ],
      "name": "Approval",
      "type": "event"
    },
    {
      "anonymous": false,
      "inputs": [
        {
          "indexed": true,
          "internalType": "address",
          "name": "owner",
          "type": "address"
        },
        {
          "indexed": true,
          "internalType": "address",
          "name": "operator",
          "type": "address"
        },
        {
          "indexed": false,
          "internalType": "bool",
          "name": "approved",
          "type": "bool"
        }
      ],
      "name": "ApprovalForAll",
      "type": "event"
    },
    {
      "anonymous": false,
      "inputs": [
        {
          "indexed": true,
          "internalType": "bytes32",
          "name": "namehash",
          "type": "bytes32"
        },
        {
          "indexed": false,
          "internalType": "address",
          "name": "controller",
          "type": "address"
        }
      ],
      "name": "NewController",
      "type": "event"
    },
    {
      "anonymous": false,
      "inputs": [
        {
          "indexed": false,
          "internalType": "address",
          "name": "Dev",
          "type": "address"
        },
        {
          "indexed": false,
          "internalType": "address",
          "name": "newDev",
          "type": "address"
        }
      ],
      "name": "NewDev",
      "type": "event"
    },
    {
      "anonymous": false,
      "inputs": [
        {
          "indexed": true,
          "internalType": "bytes32",
          "name": "namehash",
          "type": "bytes32"
        },
        {
          "indexed": false,
          "internalType": "uint256",
          "name": "expiry",
          "type": "uint256"
        }
      ],
      "name": "NewExpiry",
      "type": "event"
    },
    {
      "anonymous": false,
      "inputs": [
        {
          "indexed": true,
          "internalType": "bytes32",
          "name": "namehash",
          "type": "bytes32"
        },
        {
          "indexed": false,
          "internalType": "address",
          "name": "owner",
          "type": "address"
        }
      ],
      "name": "NewName",
      "type": "event"
    },
    {
      "anonymous": false,
      "inputs": [
        {
          "indexed": true,
          "internalType": "bytes32",
          "name": "namehash",
          "type": "bytes32"
        },
        {
          "indexed": false,
          "internalType": "address",
          "name": "owner",
          "type": "address"
        }
      ],
      "name": "NewOwner",
      "type": "event"
    },
    {
      "anonymous": false,
      "inputs": [
        {
          "indexed": true,
          "internalType": "bytes32",
          "name": "namehash",
          "type": "bytes32"
        },
        {
          "indexed": false,
          "internalType": "address",
          "name": "resolver",
          "type": "address"
        }
      ],
      "name": "NewRecord",
      "type": "event"
    },
    {
      "anonymous": false,
      "inputs": [
        {
          "indexed": true,
          "internalType": "bytes32",
          "name": "namehash",
          "type": "bytes32"
        },
        {
          "indexed": false,
          "internalType": "address",
          "name": "owner",
          "type": "address"
        }
      ],
      "name": "NewRegistration",
      "type": "event"
    },
    {
      "anonymous": false,
      "inputs": [
        {
          "indexed": true,
          "internalType": "bytes32",
          "name": "namehash",
          "type": "bytes32"
        },
        {
          "indexed": false,
          "internalType": "address",
          "name": "resolver",
          "type": "address"
        }
      ],
      "name": "NewResolver",
      "type": "event"
    },
    {
      "anonymous": false,
      "inputs": [
        {
          "indexed": true,
          "internalType": "address",
          "name": "from",
          "type": "address"
        },
        {
          "indexed": true,
          "internalType": "address",
          "name": "to",
          "type": "address"
        },
        {
          "indexed": true,
          "internalType": "uint256",
          "name": "tokenID",
          "type": "uint256"
        }
      ],
      "name": "Transfer",
      "type": "event"
    },
    {
      "inputs": [],
      "name": "Dev",
      "outputs": [
        {
          "internalType": "address",
          "name": "",
          "type": "address"
        }
      ],
      "stateMutability": "view",
      "type": "function"
    },
    {
      "inputs": [],
      "name": "ERC721",
      "outputs": [
        {
          "internalType": "contract iERC721",
          "name": "",
          "type": "address"
        }
      ],
      "stateMutability": "view",
      "type": "function"
    },
    {
      "inputs": [],
      "name": "HELIX2",
      "outputs": [
        {
          "internalType": "contract iHELIX2",
          "name": "",
          "type": "address"
        }
      ],
      "stateMutability": "view",
      "type": "function"
    },
    {
      "inputs": [
        {
          "internalType": "bytes32",
          "name": "",
          "type": "bytes32"
        }
      ],
      "name": "Names",
      "outputs": [
        {
          "internalType": "address",
          "name": "_owner",
          "type": "address"
        },
        {
          "internalType": "address",
          "name": "_resolver",
          "type": "address"
        },
        {
          "internalType": "address",
          "name": "_controller",
          "type": "address"
        },
        {
          "internalType": "uint256",
          "name": "_expiry",
          "type": "uint256"
        }
      ],
      "stateMutability": "view",
      "type": "function"
    },
    {
      "inputs": [],
      "name": "_NAME_",
      "outputs": [
        {
          "internalType": "contract iNAME",
          "name": "",
          "type": "address"
        }
      ],
      "stateMutability": "view",
      "type": "function"
    },
    {
      "inputs": [],
      "name": "active",
      "outputs": [
        {
          "internalType": "bool",
          "name": "",
          "type": "bool"
        }
      ],
      "stateMutability": "view",
      "type": "function"
    },
    {
      "inputs": [],
      "name": "basePrice",
      "outputs": [
        {
          "internalType": "uint256",
          "name": "",
          "type": "uint256"
        }
      ],
      "stateMutability": "view",
      "type": "function"
    },
    {
      "inputs": [
        {
          "internalType": "address",
          "name": "newDev",
          "type": "address"
        }
      ],
      "name": "changeDev",
      "outputs": [],
      "stateMutability": "nonpayable",
      "type": "function"
    },
    {
      "inputs": [
        {
          "internalType": "bytes32",
          "name": "namehash",
          "type": "bytes32"
        }
      ],
      "name": "controller",
      "outputs": [
        {
          "internalType": "address",
          "name": "",
          "type": "address"
        }
      ],
      "stateMutability": "view",
      "type": "function"
    },
    {
      "inputs": [
        {
          "internalType": "bytes32",
          "name": "namehash",
          "type": "bytes32"
        }
      ],
      "name": "expiry",
      "outputs": [
        {
          "internalType": "uint256",
          "name": "",
          "type": "uint256"
        }
      ],
      "stateMutability": "view",
      "type": "function"
    },
    {
      "inputs": [
        {
          "internalType": "address",
          "name": "_owner",
          "type": "address"
        },
        {
          "internalType": "address",
          "name": "operator",
          "type": "address"
        }
      ],
      "name": "isApprovedForAll",
      "outputs": [
        {
          "internalType": "bool",
          "name": "",
          "type": "bool"
        }
      ],
      "stateMutability": "view",
      "type": "function"
    },
    {
      "inputs": [
        {
          "internalType": "bytes32",
          "name": "namehash",
          "type": "bytes32"
        }
      ],
      "name": "owner",
      "outputs": [
        {
          "internalType": "address",
          "name": "",
          "type": "address"
        }
      ],
      "stateMutability": "view",
      "type": "function"
    },
    {
      "inputs": [
        {
          "internalType": "bytes32",
          "name": "namehash",
          "type": "bytes32"
        }
      ],
      "name": "recordExists",
      "outputs": [
        {
          "internalType": "bool",
          "name": "",
          "type": "bool"
        }
      ],
      "stateMutability": "view",
      "type": "function"
    },
    {
      "inputs": [
        {
          "internalType": "bytes32",
          "name": "namehash",
          "type": "bytes32"
        },
        {
          "internalType": "address",
          "name": "_owner",
          "type": "address"
        }
      ],
      "name": "register",
      "outputs": [],
      "stateMutability": "nonpayable",
      "type": "function"
    },
    {
      "inputs": [],
      "name": "registrar",
      "outputs": [
        {
          "internalType": "address",
          "name": "",
          "type": "address"
        }
      ],
      "stateMutability": "view",
      "type": "function"
    },
    {
      "inputs": [
        {
          "internalType": "bytes32",
          "name": "namehash",
          "type": "bytes32"
        }
      ],
      "name": "resolver",
      "outputs": [
        {
          "internalType": "address",
          "name": "",
          "type": "address"
        }
      ],
      "stateMutability": "view",
      "type": "function"
    },
    {
      "inputs": [],
      "name": "roothash",
      "outputs": [
        {
          "internalType": "bytes32",
          "name": "",
          "type": "bytes32"
        }
      ],
      "stateMutability": "view",
      "type": "function"
    },
    {
      "inputs": [
        {
          "internalType": "address",
          "name": "operator",
          "type": "address"
        },
        {
          "internalType": "bool",
          "name": "approved",
          "type": "bool"
        }
      ],
      "name": "setApprovalForAll",
      "outputs": [],
      "stateMutability": "nonpayable",
      "type": "function"
    },
    {
      "inputs": [
        {
          "internalType": "bytes32",
          "name": "namehash",
          "type": "bytes32"
        },
        {
          "internalType": "address",
          "name": "_controller",
          "type": "address"
        }
      ],
      "name": "setController",
      "outputs": [],
      "stateMutability": "nonpayable",
      "type": "function"
    },
    {
      "inputs": [
        {
          "internalType": "bytes32",
          "name": "namehash",
          "type": "bytes32"
        },
        {
          "internalType": "address",
          "name": "_controller",
          "type": "address"
        }
      ],
      "name": "setControllerERC721",
      "outputs": [],
      "stateMutability": "nonpayable",
      "type": "function"
    },
    {
      "inputs": [
        {
          "internalType": "bytes32",
          "name": "namehash",
          "type": "bytes32"
        },
        {
          "internalType": "uint256",
          "name": "_expiry",
          "type": "uint256"
        }
      ],
      "name": "setExpiry",
      "outputs": [],
      "stateMutability": "payable",
      "type": "function"
    },
    {
      "inputs": [
        {
          "internalType": "bytes32",
          "name": "namehash",
          "type": "bytes32"
        },
        {
          "internalType": "address",
          "name": "_owner",
          "type": "address"
        }
      ],
      "name": "setOwner",
      "outputs": [],
      "stateMutability": "nonpayable",
      "type": "function"
    },
    {
      "inputs": [
        {
          "internalType": "bytes32",
          "name": "namehash",
          "type": "bytes32"
        },
        {
          "internalType": "address",
          "name": "_owner",
          "type": "address"
        }
      ],
      "name": "setOwnerERC721",
      "outputs": [],
      "stateMutability": "nonpayable",
      "type": "function"
    },
    {
      "inputs": [
        {
          "internalType": "bytes32",
          "name": "namehash",
          "type": "bytes32"
        },
        {
          "internalType": "address",
          "name": "_resolver",
          "type": "address"
        }
      ],
      "name": "setRecord",
      "outputs": [],
      "stateMutability": "nonpayable",
      "type": "function"
    },
    {
      "inputs": [
        {
          "internalType": "bytes32",
          "name": "namehash",
          "type": "bytes32"
        },
        {
          "internalType": "address",
          "name": "_resolver",
          "type": "address"
        }
      ],
      "name": "setResolver",
      "outputs": [],
      "stateMutability": "nonpayable",
      "type": "function"
    },
    {
      "inputs": [],
      "name": "theEnd",
      "outputs": [
        {
          "internalType": "uint256",
          "name": "",
          "type": "uint256"
        }
      ],
      "stateMutability": "view",
      "type": "function"
    },
    {
      "inputs": [],
      "name": "withdrawEther",
      "outputs": [],
      "stateMutability": "nonpayable",
      "type": "function"
    }
  ],
  "bytecode": {
    "object": "0x60806040526003805460ff60a01b1916600160a01b1790556703782dace9d900006007553480156200003057600080fd5b50604051620026a0380380620026a0833981016040819052620000539162000432565b600380546001600160a01b03199081163317909155600080546001600160a01b03841692168217905560408051633215476b60e11b8152905163642a8ed6916004808201926080929091908290030181865afa158015620000b8573d6000803e3d6000fd5b505050506040513d601f19601f82011682018060405250810190620000de91906200049b565b5160049081556000546040805163bd9a548b60e01b815290516001600160a01b039092169263bd9a548b9282820192608092908290030181865afa1580156200012b573d6000803e3d6000fd5b505050506040513d601f19601f820116820180604052508101906200015191906200049b565b516005556200015f62000166565b5062000540565b6003546001600160a01b03163314620001af5760405162461bcd60e51b81526020600482015260076024820152662727aa2fa222ab60c91b604482015260640160405180910390fd5b600080805260086020527f5eff886ea0ce6ca488a3d6e336d6c0f75f46d19b42c06ce5ee98e42c96d256c78054336001600160a01b031991821681179092556007547f5eff886ea0ce6ca488a3d6e336d6c0f75f46d19b42c06ce5ee98e42c96d256ca557f5eff886ea0ce6ca488a3d6e336d6c0f75f46d19b42c06ce5ee98e42c96d256c980548216831790557f5eff886ea0ce6ca488a3d6e336d6c0f75f46d19b42c06ce5ee98e42c96d256c880549091169091179055805460408051633215476b60e11b815290516001600160a01b039092169163642a8ed6916004808201926080929091908290030181865afa158015620002b1573d6000803e3d6000fd5b505050506040513d601f19601f82011682018060405250810190620002d791906200049b565b905060005b60048110156200042e57336008600084846004811062000300576200030062000502565b6020020151815260200190815260200160002060000160006101000a8154816001600160a01b0302191690836001600160a01b031602179055506007546008600084846004811062000356576200035662000502565b602002015181526020019081526020016000206003018190555033600860008484600481106200038a576200038a62000502565b6020020151815260200190815260200160002060020160006101000a8154816001600160a01b0302191690836001600160a01b031602179055503360086000848460048110620003de57620003de62000502565b6020020151815260200190815260200160002060010160006101000a8154816001600160a01b0302191690836001600160a01b031602179055508080620004259062000518565b915050620002dc565b5050565b6000602082840312156200044557600080fd5b81516001600160a01b03811681146200045d57600080fd5b9392505050565b604051608081016001600160401b03811182821017156200049557634e487b7160e01b600052604160045260246000fd5b60405290565b600060808284031215620004ae57600080fd5b82601f830112620004be57600080fd5b620004c862000464565b806080840185811115620004db57600080fd5b845b81811015620004f7578051845260209384019301620004dd565b509095945050505050565b634e487b7160e01b600052603260045260246000fd5b6000600182016200053957634e487b7160e01b600052601160045260246000fd5b5060010190565b61215080620005506000396000f3fe6080604052600436106101ac5760003560e01c80638425abff116100ec578063d22057a91161008a578063d9b76ed411610064578063d9b76ed414610521578063dbd4e02114610541578063e985e9c514610561578063f79fe5381461058157600080fd5b8063d22057a9146104b1578063d2ec5fca146104d1578063d31569051461050157600080fd5b8063a22cb465116100c6578063a22cb4651461043b578063b782426e1461045b578063be22e7561461047b578063c7876ea41461049b57600080fd5b80638425abff1461037457806388a8c95c14610394578063997c9efa146103b457600080fd5b80631e44663f116101595780632b20e397116101335780632b20e3971461030c57806339de64691461032c5780635b0fc9c31461033f5780637362377b1461035f57600080fd5b80631e44663f146102b257806322b68deb146102d2578063251c9422146102f657600080fd5b806302571be31161018a57806302571be31461023057806302fb0c5e146102505780631896f70a1461029257600080fd5b80630178b8bf146101b157806301d49a5f146101ee57806301e51ae814610210575b600080fd5b3480156101bd57600080fd5b506101d16101cc366004611eb5565b6105b3565b6040516001600160a01b0390911681526020015b60405180910390f35b3480156101fa57600080fd5b5061020e610209366004611ee3565b61063e565b005b34801561021c57600080fd5b506003546101d1906001600160a01b031681565b34801561023c57600080fd5b506101d161024b366004611eb5565b6107a2565b34801561025c57600080fd5b506003546102829074010000000000000000000000000000000000000000900460ff1681565b60405190151581526020016101e5565b34801561029e57600080fd5b5061020e6102ad366004611ee3565b610834565b3480156102be57600080fd5b506001546101d1906001600160a01b031681565b3480156102de57600080fd5b506102e860075481565b6040519081526020016101e5565b34801561030257600080fd5b506102e860045481565b34801561031857600080fd5b506006546101d1906001600160a01b031681565b61020e61033a366004611f13565b610a24565b34801561034b57600080fd5b5061020e61035a366004611ee3565b610e95565b34801561036b57600080fd5b5061020e61141d565b34801561038057600080fd5b506002546101d1906001600160a01b031681565b3480156103a057600080fd5b5061020e6103af366004611f35565b6114c3565b3480156103c057600080fd5b506104066103cf366004611eb5565b60086020526000908152604090208054600182015460028301546003909301546001600160a01b0392831693918316929091169084565b6040516101e594939291906001600160a01b039485168152928416602084015292166040820152606081019190915260800190565b34801561044757600080fd5b5061020e610456366004611f52565b611593565b34801561046757600080fd5b506000546101d1906001600160a01b031681565b34801561048757600080fd5b5061020e610496366004611ee3565b61161d565b3480156104a757600080fd5b506102e860055481565b3480156104bd57600080fd5b5061020e6104cc366004611ee3565b6117cc565b3480156104dd57600080fd5b506102e86104ec366004611eb5565b60009081526008602052604090206003015490565b34801561050d57600080fd5b5061020e61051c366004611ee3565b6119f1565b34801561052d57600080fd5b5061020e61053c366004611ee3565b611c1d565b34801561054d57600080fd5b506101d161055c366004611eb5565b611e03565b34801561056d57600080fd5b5061028261057c366004611f85565b611e85565b34801561058d57600080fd5b5061028261059c366004611eb5565b600090815260086020526040902060030154421090565b6000818152600860205260408120600301548290421061061a5760405162461bcd60e51b815260206004820152600c60248201527f4e414d455f45585049524544000000000000000000000000000000000000000060448201526064015b60405180910390fd5b6000838152600860205260409020600101546001600160a01b031691505b50919050565b60008054906101000a90046001600160a01b03166001600160a01b0316634d3f73346040518163ffffffff1660e01b8152600401608060405180830381865afa15801561068f573d6000803e3d6000fd5b505050506040513d601f19601f820116820180604052508101906106b39190611fc3565b516006805473ffffffffffffffffffffffffffffffffffffffff19166001600160a01b039092169182179055331461072d5760405162461bcd60e51b815260206004820152600d60248201527f4e4f545f524547495354524152000000000000000000000000000000000000006044820152606401610611565b600082815260086020908152604091829020600201805473ffffffffffffffffffffffffffffffffffffffff19166001600160a01b038516908117909155915191825283917fe5108446a6097aab57fd36f346a515a78fddefa87d81662d44e0d7a463f9209591015b60405180910390a25050565b600081815260086020526040812060030154829042106108045760405162461bcd60e51b815260206004820152600c60248201527f4e414d455f4558504952454400000000000000000000000000000000000000006044820152606401610611565b6000838152600860205260409020546001600160a01b031630810361082d576000925050610638565b9392505050565b600054604080517f4d3f7334000000000000000000000000000000000000000000000000000000008152905184926001600160a01b031691634d3f73349160048083019260809291908290030181865afa158015610896573d6000803e3d6000fd5b505050506040513d601f19601f820116820180604052508101906108ba9190611fc3565b516006805473ffffffffffffffffffffffffffffffffffffffff19166001600160a01b039283169081179091556000838152600860205260409020549091169033148061090f57506001600160a01b03811633145b8061093d57506001600160a01b038116600090815260096020908152604080832033845290915290205460ff165b8061096157506000828152600860205260409020600201546001600160a01b031633145b6109ad5760405162461bcd60e51b815260206004820152600e60248201527f4e4f545f415554484f52495345440000000000000000000000000000000000006044820152606401610611565b600084815260086020908152604091829020600101805473ffffffffffffffffffffffffffffffffffffffff19166001600160a01b038716908117909155915191825285917f335721b01866dc23fbee8b6b2c7b1e14d6f05c28cd35a2c934239f94095602a091015b60405180910390a250505050565b600054604080517f4d3f7334000000000000000000000000000000000000000000000000000000008152905184926001600160a01b031691634d3f73349160048083019260809291908290030181865afa158015610a86573d6000803e3d6000fd5b505050506040513d601f19601f82011682018060405250810190610aaa9190611fc3565b516006805473ffffffffffffffffffffffffffffffffffffffff19166001600160a01b0392831690811790915560008381526008602052604090205490911690331480610aff57506001600160a01b03811633145b80610b2d57506001600160a01b038116600090815260096020908152604080832033845290915290205460ff165b80610b5157506000828152600860205260409020600201546001600160a01b031633145b610b9d5760405162461bcd60e51b815260206004820152600e60248201527f4e4f545f415554484f52495345440000000000000000000000000000000000006044820152606401610611565b6000848152600860205260409020600301548311610bfd5760405162461bcd60e51b815260206004820152600a60248201527f4241445f455850495259000000000000000000000000000000000000000000006044820152606401610611565b60008054906101000a90046001600160a01b03166001600160a01b0316634d3f73346040518163ffffffff1660e01b8152600401608060405180830381865afa158015610c4e573d6000803e3d6000fd5b505050506040513d601f19601f82011682018060405250810190610c729190611fc3565b516006805473ffffffffffffffffffffffffffffffffffffffff19166001600160a01b0390921691821790553314610e4d57600084815260086020526040812060030154610cc0908561209e565b905060055481610cd091906120b1565b341015610d1f5760405162461bcd60e51b815260206004820152601260248201527f494e53554646494349454e545f455448455200000000000000000000000000006044820152606401610611565b60008581526008602052604090819020546001805460025493517f70a082310000000000000000000000000000000000000000000000000000000081526001600160a01b0393841660048201819052949184169363e30443bc93869390929116906370a0823190602401602060405180830381865afa158015610da6573d6000803e3d6000fd5b505050506040513d601f19601f82011682018060405250810190610dca91906120ee565b610dd4919061209e565b6040517fffffffff0000000000000000000000000000000000000000000000000000000060e085901b1681526001600160a01b0390921660048301526024820152604401600060405180830381600087803b158015610e3257600080fd5b505af1158015610e46573d6000803e3d6000fd5b5050505050505b600084815260086020526040908190206003018490555184907fa620b72378ee464490805a96e25b53e5c0076f0ce2d28f9691ae255a595b3bf390610a169086815260200190565b60008281526008602052604090206003015482904210610ef75760405162461bcd60e51b815260206004820152600c60248201527f4e414d455f4558504952454400000000000000000000000000000000000000006044820152606401610611565b6000818152600860205260409020546001600160a01b031633811480610f4057506001600160a01b038116600090815260096020908152604080832033845290915290205460ff165b610f8c5760405162461bcd60e51b815260206004820152600960248201527f4e4f545f4f574e455200000000000000000000000000000000000000000000006044820152606401610611565b6001600160a01b038316610fe25760405162461bcd60e51b815260206004820152600b60248201527f43414e4e4f545f4255524e0000000000000000000000000000000000000000006044820152606401610611565b60008481526008602052604080822054915481517f4d3f733400000000000000000000000000000000000000000000000000000000815291516001600160a01b039384169390911691634d3f73349160048083019260809291908290030181865afa158015611055573d6000803e3d6000fd5b505050506040513d601f19601f820116820180604052508101906110799190611fc3565b516001805473ffffffffffffffffffffffffffffffffffffffff19166001600160a01b03928316179055600054604080517f4d3f733400000000000000000000000000000000000000000000000000000000815290519190921691634d3f73349160048083019260809291908290030181865afa1580156110fe573d6000803e3d6000fd5b505050506040513d601f19601f820116820180604052508101906111229190611fc3565b51600280546001600160a01b0392831673ffffffffffffffffffffffffffffffffffffffff199091168117909155600180546040517f70a08231000000000000000000000000000000000000000000000000000000008152858516600482015293169263e30443bc928592916370a0823190602401602060405180830381865afa1580156111b4573d6000803e3d6000fd5b505050506040513d601f19601f820116820180604052508101906111d891906120ee565b6111e2919061209e565b6040517fffffffff0000000000000000000000000000000000000000000000000000000060e085901b1681526001600160a01b0390921660048301526024820152604401600060405180830381600087803b15801561124057600080fd5b505af1158015611254573d6000803e3d6000fd5b50506001546002546040517f70a082310000000000000000000000000000000000000000000000000000000081526001600160a01b038981166004830152928316945063e30443bc93508892909116906370a0823190602401602060405180830381865afa1580156112ca573d6000803e3d6000fd5b505050506040513d601f19601f820116820180604052508101906112ee91906120ee565b6112f9906001612107565b6040517fffffffff0000000000000000000000000000000000000000000000000000000060e085901b1681526001600160a01b0390921660048301526024820152604401600060405180830381600087803b15801561135757600080fd5b505af115801561136b573d6000803e3d6000fd5b50506040518792506001600160a01b0380881692508416907fddf252ad1be2c89b69c2b068fc378daa952ba7f163c4a11628f55a4df523b3ef90600090a4600085815260086020908152604091829020805473ffffffffffffffffffffffffffffffffffffffff19166001600160a01b038816908117909155915191825286917f52cfe144bbaaed60759c6425b5bdfcebf7736889a75f9de7cd4cf30c7a6b8078910160405180910390a25050505050565b6003546040516000916001600160a01b03169047908381818185875af1925050503d806000811461146a576040519150601f19603f3d011682016040523d82523d6000602084013e61146f565b606091505b50509050806114c05760405162461bcd60e51b815260206004820152601360248201527f4554485f5452414e534645525f4641494c4544000000000000000000000000006044820152606401610611565b50565b6003546001600160a01b0316331461151d5760405162461bcd60e51b815260206004820152600760248201527f4e4f545f444556000000000000000000000000000000000000000000000000006044820152606401610611565b600354604080516001600160a01b03928316815291831660208301527fdec101f106d4fc7c85791843e64b198248c822298e3ed7046231d33f7783d816910160405180910390a16003805473ffffffffffffffffffffffffffffffffffffffff19166001600160a01b0392909216919091179055565b3360008181526009602090815260408083206001600160a01b0387168085529083529281902080547fffffffffffffffffffffffffffffffffffffffffffffffffffffffffffffff001686151590811790915590519081529192917f17307eab39ab6107e8899845ad3d59bd9653f200f220920489ca2b5937696c31910160405180910390a35050565b60008054906101000a90046001600160a01b03166001600160a01b0316634d3f73346040518163ffffffff1660e01b8152600401608060405180830381865afa15801561166e573d6000803e3d6000fd5b505050506040513d601f19601f820116820180604052508101906116929190611fc3565b516006805473ffffffffffffffffffffffffffffffffffffffff19166001600160a01b039092169182179055331461170c5760405162461bcd60e51b815260206004820152600d60248201527f4e4f545f524547495354524152000000000000000000000000000000000000006044820152606401610611565b6001600160a01b0381166117625760405162461bcd60e51b815260206004820152600b60248201527f43414e4e4f545f4255524e0000000000000000000000000000000000000000006044820152606401610611565b600082815260086020908152604091829020805473ffffffffffffffffffffffffffffffffffffffff19166001600160a01b038516908117909155915191825283917f52cfe144bbaaed60759c6425b5bdfcebf7736889a75f9de7cd4cf30c7a6b80789101610796565b60008054906101000a90046001600160a01b03166001600160a01b0316634d3f73346040518163ffffffff1660e01b8152600401608060405180830381865afa15801561181d573d6000803e3d6000fd5b505050506040513d601f19601f820116820180604052508101906118419190611fc3565b516006805473ffffffffffffffffffffffffffffffffffffffff19166001600160a01b03909216918217905533146118bb5760405162461bcd60e51b815260206004820152600d60248201527f4e4f545f524547495354524152000000000000000000000000000000000000006044820152606401610611565b6001600160a01b0381166119115760405162461bcd60e51b815260206004820152600b60248201527f43414e4e4f545f4255524e0000000000000000000000000000000000000000006044820152606401610611565b60405182906001600160a01b038316906000907fddf252ad1be2c89b69c2b068fc378daa952ba7f163c4a11628f55a4df523b3ef908290a4600082815260086020908152604091829020805473ffffffffffffffffffffffffffffffffffffffff19166001600160a01b038516908117909155915191825283917f52cfe144bbaaed60759c6425b5bdfcebf7736889a75f9de7cd4cf30c7a6b8078910160405180910390a26040516001600160a01b038216815282907f734ba0462050e5425bb227eb0b80ce09a9de46c14e7eeb77e9b0c54deaca024690602001610796565b600054604080517f4d3f7334000000000000000000000000000000000000000000000000000000008152905184926001600160a01b031691634d3f73349160048083019260809291908290030181865afa158015611a53573d6000803e3d6000fd5b505050506040513d601f19601f82011682018060405250810190611a779190611fc3565b516006805473ffffffffffffffffffffffffffffffffffffffff19166001600160a01b0392831690811790915560008381526008602052604090205490911690331480611acc57506001600160a01b03811633145b80611afa57506001600160a01b038116600090815260096020908152604080832033845290915290205460ff165b80611b1e57506000828152600860205260409020600201546001600160a01b031633145b611b6a5760405162461bcd60e51b815260206004820152600e60248201527f4e4f545f415554484f52495345440000000000000000000000000000000000006044820152606401610611565b60008481526008602052604080822054905186926001600160a01b038088169316917f8c5be1e5ebec7d5bd14f71427d1e84f3dd0314c0f7b2291e5b200ac8c7c3b9259190a4600084815260086020908152604091829020600201805473ffffffffffffffffffffffffffffffffffffffff19166001600160a01b038716908117909155915191825285917fe5108446a6097aab57fd36f346a515a78fddefa87d81662d44e0d7a463f920959101610a16565b600054604080517f4d3f7334000000000000000000000000000000000000000000000000000000008152905184926001600160a01b031691634d3f73349160048083019260809291908290030181865afa158015611c7f573d6000803e3d6000fd5b505050506040513d601f19601f82011682018060405250810190611ca39190611fc3565b516006805473ffffffffffffffffffffffffffffffffffffffff19166001600160a01b0392831690811790915560008381526008602052604090205490911690331480611cf857506001600160a01b03811633145b80611d2657506001600160a01b038116600090815260096020908152604080832033845290915290205460ff165b80611d4a57506000828152600860205260409020600201546001600160a01b031633145b611d965760405162461bcd60e51b815260206004820152600e60248201527f4e4f545f415554484f52495345440000000000000000000000000000000000006044820152606401610611565b600084815260086020908152604091829020600101805473ffffffffffffffffffffffffffffffffffffffff19166001600160a01b038716908117909155915191825285917fcb71326aeaad88869e8be8be2893e1119f7617ce4ea2411af127e218909be1f79101610a16565b60008181526008602052604081206003015482904210611e655760405162461bcd60e51b815260206004820152600c60248201527f4e414d455f4558504952454400000000000000000000000000000000000000006044820152606401610611565b50506000908152600860205260409020600201546001600160a01b031690565b6001600160a01b0380831660009081526009602090815260408083209385168352929052205460ff165b92915050565b600060208284031215611ec757600080fd5b5035919050565b6001600160a01b03811681146114c057600080fd5b60008060408385031215611ef657600080fd5b823591506020830135611f0881611ece565b809150509250929050565b60008060408385031215611f2657600080fd5b50508035926020909101359150565b600060208284031215611f4757600080fd5b813561082d81611ece565b60008060408385031215611f6557600080fd5b8235611f7081611ece565b915060208301358015158114611f0857600080fd5b60008060408385031215611f9857600080fd5b8235611fa381611ece565b91506020830135611f0881611ece565b8051611fbe81611ece565b919050565b600060808284031215611fd557600080fd5b82601f830112611fe457600080fd5b6040516080810181811067ffffffffffffffff8211171561202e577f4e487b7100000000000000000000000000000000000000000000000000000000600052604160045260246000fd5b60405280608084018581111561204357600080fd5b845b818110156120645761205681611fb3565b835260209283019201612045565b509195945050505050565b7f4e487b7100000000000000000000000000000000000000000000000000000000600052601160045260246000fd5b81810381811115611eaf57611eaf61206f565b6000817fffffffffffffffffffffffffffffffffffffffffffffffffffffffffffffffff04831182151516156120e9576120e961206f565b500290565b60006020828403121561210057600080fd5b5051919050565b80820180821115611eaf57611eaf61206f56fea2646970667358221220575d1aec0225a9fce4eaef698cfbec204add1921f997e0731324c010fc89843a64736f6c63430008100033",
    "linkReferences": {}
  },
  "methodIdentifiers": {
    "Dev()": "01e51ae8",
    "ERC721()": "8425abff",
    "HELIX2()": "b782426e",
    "Names(bytes32)": "997c9efa",
    "_NAME_()": "1e44663f",
    "active()": "02fb0c5e",
    "basePrice()": "c7876ea4",
    "changeDev(address)": "88a8c95c",
    "controller(bytes32)": "dbd4e021",
    "expiry(bytes32)": "d2ec5fca",
    "isApprovedForAll(address,address)": "e985e9c5",
    "owner(bytes32)": "02571be3",
    "recordExists(bytes32)": "f79fe538",
    "register(bytes32,address)": "d22057a9",
    "registrar()": "2b20e397",
    "resolver(bytes32)": "0178b8bf",
    "roothash()": "251c9422",
    "setApprovalForAll(address,bool)": "a22cb465",
    "setController(bytes32,address)": "d3156905",
    "setControllerERC721(bytes32,address)": "01d49a5f",
    "setExpiry(bytes32,uint256)": "39de6469",
    "setOwner(bytes32,address)": "5b0fc9c3",
    "setOwnerERC721(bytes32,address)": "be22e756",
    "setRecord(bytes32,address)": "d9b76ed4",
    "setResolver(bytes32,address)": "1896f70a",
    "theEnd()": "22b68deb",
    "withdrawEther()": "7362377b"
  },
  "id": 29
}