{
  "abi": [
    {
      "inputs": [
        {
          "internalType": "address",
          "name": "_helix2",
          "type": "address"
        }
      ],
      "stateMutability": "nonpayable",
      "type": "constructor"
    },
    {
      "anonymous": false,
      "inputs": [
        {
          "indexed": true,
          "internalType": "address",
          "name": "owner",
          "type": "address"
        },
        {
          "indexed": true,
          "internalType": "address",
          "name": "spender",
          "type": "address"
        },
        {
          "indexed": true,
          "internalType": "uint256",
          "name": "tokenID",
          "type": "uint256"
        }
      ],
      "name": "Approval",
      "type": "event"
    },
    {
      "anonymous": false,
      "inputs": [
        {
          "indexed": true,
          "internalType": "address",
          "name": "owner",
          "type": "address"
        },
        {
          "indexed": true,
          "internalType": "address",
          "name": "operator",
          "type": "address"
        },
        {
          "indexed": false,
          "internalType": "bool",
          "name": "approved",
          "type": "bool"
        }
      ],
      "name": "ApprovalForAll",
      "type": "event"
    },
    {
      "anonymous": false,
      "inputs": [
        {
          "indexed": true,
          "internalType": "bytes32",
          "name": "namehash",
          "type": "bytes32"
        },
        {
          "indexed": false,
          "internalType": "address",
          "name": "controller",
          "type": "address"
        }
      ],
      "name": "NewController",
      "type": "event"
    },
    {
      "anonymous": false,
      "inputs": [
        {
          "indexed": false,
          "internalType": "address",
          "name": "Dev",
          "type": "address"
        },
        {
          "indexed": false,
          "internalType": "address",
          "name": "newDev",
          "type": "address"
        }
      ],
      "name": "NewDev",
      "type": "event"
    },
    {
      "anonymous": false,
      "inputs": [
        {
          "indexed": true,
          "internalType": "bytes32",
          "name": "namehash",
          "type": "bytes32"
        },
        {
          "indexed": false,
          "internalType": "uint256",
          "name": "expiry",
          "type": "uint256"
        }
      ],
      "name": "NewExpiry",
      "type": "event"
    },
    {
      "anonymous": false,
      "inputs": [
        {
          "indexed": true,
          "internalType": "bytes32",
          "name": "namehash",
          "type": "bytes32"
        },
        {
          "indexed": false,
          "internalType": "address",
          "name": "owner",
          "type": "address"
        }
      ],
      "name": "NewOwner",
      "type": "event"
    },
    {
      "anonymous": false,
      "inputs": [
        {
          "indexed": true,
          "internalType": "bytes32",
          "name": "namehash",
          "type": "bytes32"
        },
        {
          "indexed": false,
          "internalType": "address",
          "name": "resolver",
          "type": "address"
        }
      ],
      "name": "NewRecord",
      "type": "event"
    },
    {
      "anonymous": false,
      "inputs": [
        {
          "indexed": true,
          "internalType": "bytes32",
          "name": "namehash",
          "type": "bytes32"
        },
        {
          "indexed": false,
          "internalType": "address",
          "name": "resolver",
          "type": "address"
        }
      ],
      "name": "NewResolver",
      "type": "event"
    },
    {
      "anonymous": false,
      "inputs": [
        {
          "indexed": true,
          "internalType": "address",
          "name": "from",
          "type": "address"
        },
        {
          "indexed": true,
          "internalType": "address",
          "name": "to",
          "type": "address"
        },
        {
          "indexed": true,
          "internalType": "uint256",
          "name": "tokenID",
          "type": "uint256"
        }
      ],
      "name": "Transfer",
      "type": "event"
    },
    {
      "inputs": [],
      "name": "Dev",
      "outputs": [
        {
          "internalType": "address",
          "name": "",
          "type": "address"
        }
      ],
      "stateMutability": "view",
      "type": "function"
    },
    {
      "inputs": [],
      "name": "ERC721",
      "outputs": [
        {
          "internalType": "contract iERC721",
          "name": "",
          "type": "address"
        }
      ],
      "stateMutability": "view",
      "type": "function"
    },
    {
      "inputs": [],
      "name": "HELIX2",
      "outputs": [
        {
          "internalType": "contract iHELIX2",
          "name": "",
          "type": "address"
        }
      ],
      "stateMutability": "view",
      "type": "function"
    },
    {
      "inputs": [
        {
          "internalType": "bytes32",
          "name": "",
          "type": "bytes32"
        }
      ],
      "name": "Names",
      "outputs": [
        {
          "internalType": "string",
          "name": "_label",
          "type": "string"
        },
        {
          "internalType": "address",
          "name": "_owner",
          "type": "address"
        },
        {
          "internalType": "address",
          "name": "_resolver",
          "type": "address"
        },
        {
          "internalType": "address",
          "name": "_controller",
          "type": "address"
        },
        {
          "internalType": "uint256",
          "name": "_expiry",
          "type": "uint256"
        }
      ],
      "stateMutability": "view",
      "type": "function"
    },
    {
      "inputs": [],
      "name": "Registrar",
      "outputs": [
        {
          "internalType": "address",
          "name": "",
          "type": "address"
        }
      ],
      "stateMutability": "view",
      "type": "function"
    },
    {
      "inputs": [],
      "name": "_NAME_",
      "outputs": [
        {
          "internalType": "contract iNAME",
          "name": "",
          "type": "address"
        }
      ],
      "stateMutability": "view",
      "type": "function"
    },
    {
      "inputs": [],
      "name": "active",
      "outputs": [
        {
          "internalType": "bool",
          "name": "",
          "type": "bool"
        }
      ],
      "stateMutability": "view",
      "type": "function"
    },
    {
      "inputs": [],
      "name": "basePrice",
      "outputs": [
        {
          "internalType": "uint256",
          "name": "",
          "type": "uint256"
        }
      ],
      "stateMutability": "view",
      "type": "function"
    },
    {
      "inputs": [
        {
          "internalType": "address",
          "name": "newDev",
          "type": "address"
        }
      ],
      "name": "changeDev",
      "outputs": [],
      "stateMutability": "nonpayable",
      "type": "function"
    },
    {
      "inputs": [
        {
          "internalType": "bytes32",
          "name": "namehash",
          "type": "bytes32"
        }
      ],
      "name": "controller",
      "outputs": [
        {
          "internalType": "address",
          "name": "",
          "type": "address"
        }
      ],
      "stateMutability": "view",
      "type": "function"
    },
    {
      "inputs": [
        {
          "internalType": "bytes32",
          "name": "namehash",
          "type": "bytes32"
        }
      ],
      "name": "expiry",
      "outputs": [
        {
          "internalType": "uint256",
          "name": "",
          "type": "uint256"
        }
      ],
      "stateMutability": "view",
      "type": "function"
    },
    {
      "inputs": [
        {
          "internalType": "address",
          "name": "_owner",
          "type": "address"
        },
        {
          "internalType": "address",
          "name": "operator",
          "type": "address"
        }
      ],
      "name": "isApprovedForAll",
      "outputs": [
        {
          "internalType": "bool",
          "name": "",
          "type": "bool"
        }
      ],
      "stateMutability": "view",
      "type": "function"
    },
    {
      "inputs": [
        {
          "internalType": "bytes32",
          "name": "namehash",
          "type": "bytes32"
        }
      ],
      "name": "label",
      "outputs": [
        {
          "internalType": "string",
          "name": "",
          "type": "string"
        }
      ],
      "stateMutability": "view",
      "type": "function"
    },
    {
      "inputs": [
        {
          "internalType": "bytes32",
          "name": "namehash",
          "type": "bytes32"
        }
      ],
      "name": "owner",
      "outputs": [
        {
          "internalType": "address",
          "name": "",
          "type": "address"
        }
      ],
      "stateMutability": "view",
      "type": "function"
    },
    {
      "inputs": [
        {
          "internalType": "bytes32",
          "name": "namehash",
          "type": "bytes32"
        }
      ],
      "name": "recordExists",
      "outputs": [
        {
          "internalType": "bool",
          "name": "",
          "type": "bool"
        }
      ],
      "stateMutability": "view",
      "type": "function"
    },
    {
      "inputs": [
        {
          "internalType": "string",
          "name": "_label",
          "type": "string"
        },
        {
          "internalType": "bytes32",
          "name": "namehash",
          "type": "bytes32"
        },
        {
          "internalType": "address",
          "name": "_owner",
          "type": "address"
        }
      ],
      "name": "register",
      "outputs": [],
      "stateMutability": "nonpayable",
      "type": "function"
    },
    {
      "inputs": [
        {
          "internalType": "bytes32",
          "name": "namehash",
          "type": "bytes32"
        },
        {
          "internalType": "uint256",
          "name": "_expiry",
          "type": "uint256"
        }
      ],
      "name": "renew",
      "outputs": [],
      "stateMutability": "payable",
      "type": "function"
    },
    {
      "inputs": [
        {
          "internalType": "bytes32",
          "name": "namehash",
          "type": "bytes32"
        }
      ],
      "name": "resolver",
      "outputs": [
        {
          "internalType": "address",
          "name": "",
          "type": "address"
        }
      ],
      "stateMutability": "view",
      "type": "function"
    },
    {
      "inputs": [],
      "name": "roothash",
      "outputs": [
        {
          "internalType": "bytes32",
          "name": "",
          "type": "bytes32"
        }
      ],
      "stateMutability": "view",
      "type": "function"
    },
    {
      "inputs": [
        {
          "internalType": "address",
          "name": "operator",
          "type": "address"
        },
        {
          "internalType": "bool",
          "name": "approved",
          "type": "bool"
        }
      ],
      "name": "setApprovalForAll",
      "outputs": [],
      "stateMutability": "nonpayable",
      "type": "function"
    },
    {
      "inputs": [
        {
          "internalType": "address",
          "name": "_helix2",
          "type": "address"
        }
      ],
      "name": "setConfig",
      "outputs": [],
      "stateMutability": "nonpayable",
      "type": "function"
    },
    {
      "inputs": [
        {
          "internalType": "bytes32",
          "name": "namehash",
          "type": "bytes32"
        },
        {
          "internalType": "address",
          "name": "_controller",
          "type": "address"
        }
      ],
      "name": "setController",
      "outputs": [],
      "stateMutability": "nonpayable",
      "type": "function"
    },
    {
      "inputs": [
        {
          "internalType": "bytes32",
          "name": "namehash",
          "type": "bytes32"
        },
        {
          "internalType": "address",
          "name": "_controller",
          "type": "address"
        }
      ],
      "name": "setControllerERC721",
      "outputs": [],
      "stateMutability": "nonpayable",
      "type": "function"
    },
    {
      "inputs": [
        {
          "internalType": "bytes32",
          "name": "namehash",
          "type": "bytes32"
        },
        {
          "internalType": "uint256",
          "name": "_expiry",
          "type": "uint256"
        }
      ],
      "name": "setExpiry",
      "outputs": [],
      "stateMutability": "nonpayable",
      "type": "function"
    },
    {
      "inputs": [
        {
          "internalType": "bytes32",
          "name": "namehash",
          "type": "bytes32"
        },
        {
          "internalType": "address",
          "name": "_owner",
          "type": "address"
        }
      ],
      "name": "setOwner",
      "outputs": [],
      "stateMutability": "nonpayable",
      "type": "function"
    },
    {
      "inputs": [
        {
          "internalType": "bytes32",
          "name": "namehash",
          "type": "bytes32"
        },
        {
          "internalType": "address",
          "name": "_owner",
          "type": "address"
        }
      ],
      "name": "setOwnerERC721",
      "outputs": [],
      "stateMutability": "nonpayable",
      "type": "function"
    },
    {
      "inputs": [
        {
          "internalType": "bytes32",
          "name": "namehash",
          "type": "bytes32"
        },
        {
          "internalType": "address",
          "name": "_resolver",
          "type": "address"
        }
      ],
      "name": "setRecord",
      "outputs": [],
      "stateMutability": "nonpayable",
      "type": "function"
    },
    {
      "inputs": [
        {
          "internalType": "bytes32",
          "name": "namehash",
          "type": "bytes32"
        },
        {
          "internalType": "address",
          "name": "_resolver",
          "type": "address"
        }
      ],
      "name": "setResolver",
      "outputs": [],
      "stateMutability": "nonpayable",
      "type": "function"
    },
    {
      "inputs": [],
      "name": "theEnd",
      "outputs": [
        {
          "internalType": "uint256",
          "name": "",
          "type": "uint256"
        }
      ],
      "stateMutability": "view",
      "type": "function"
    },
    {
      "inputs": [],
      "name": "toggleActive",
      "outputs": [],
      "stateMutability": "nonpayable",
      "type": "function"
    },
    {
      "inputs": [],
      "name": "withdrawEther",
      "outputs": [],
      "stateMutability": "nonpayable",
      "type": "function"
    }
  ],
  "bytecode": {
    "object": "0x60806040526003805460ff60a01b1916600160a01b1790556703782dace9d900006007553480156200003057600080fd5b5060405162002a2c38038062002a2c8339810160408190526200005391620004dd565b600380546001600160a01b03199081163317909155600080546001600160a01b03841692168217905560408051633215476b60e11b8152905163642a8ed6916004808201926080929091908290030181865afa158015620000b8573d6000803e3d6000fd5b505050506040513d601f19601f82011682018060405250810190620000de919062000550565b5160049081556000546040805163bd9a548b60e01b815290516001600160a01b039092169263bd9a548b9282820192608092908290030181865afa1580156200012b573d6000803e3d6000fd5b505050506040513d601f19601f8201168201806040525081019062000151919062000550565b516005556200015f62000166565b5062000750565b6003546001600160a01b03163314620001af5760405162461bcd60e51b81526020600482015260076024820152662727aa2fa222ab60c91b604482015260640160405180910390fd5b6040805180820190915260018152601760f91b60208083019190915260008052600890527f5eff886ea0ce6ca488a3d6e336d6c0f75f46d19b42c06ce5ee98e42c96d256c7906200020190826200065c565b50600080805260086020527f5eff886ea0ce6ca488a3d6e336d6c0f75f46d19b42c06ce5ee98e42c96d256c88054336001600160a01b031991821681179092556007547f5eff886ea0ce6ca488a3d6e336d6c0f75f46d19b42c06ce5ee98e42c96d256cb557f5eff886ea0ce6ca488a3d6e336d6c0f75f46d19b42c06ce5ee98e42c96d256ca80548216831790557f5eff886ea0ce6ca488a3d6e336d6c0f75f46d19b42c06ce5ee98e42c96d256c980549091169091179055805460408051633215476b60e11b815290516001600160a01b039092169163642a8ed6916004808201926080929091908290030181865afa15801562000304573d6000803e3d6000fd5b505050506040513d601f19601f820116820180604052508101906200032a919062000550565b905060005b6004811015620004d957604051806040016040528060018152602001601760f91b815250600860008484600481106200036c576200036c620005b7565b6020020151815260200190815260200160002060000190816200039091906200065c565b503360086000848460048110620003ab57620003ab620005b7565b6020020151815260200190815260200160002060010160006101000a8154816001600160a01b0302191690836001600160a01b0316021790555060075460086000848460048110620004015762000401620005b7565b60200201518152602001908152602001600020600401819055503360086000848460048110620004355762000435620005b7565b6020020151815260200190815260200160002060030160006101000a8154816001600160a01b0302191690836001600160a01b031602179055503360086000848460048110620004895762000489620005b7565b6020020151815260200190815260200160002060020160006101000a8154816001600160a01b0302191690836001600160a01b031602179055508080620004d09062000728565b9150506200032f565b5050565b600060208284031215620004f057600080fd5b81516001600160a01b03811681146200050857600080fd5b9392505050565b634e487b7160e01b600052604160045260246000fd5b604051608081016001600160401b03811182821017156200054a576200054a6200050f565b60405290565b6000608082840312156200056357600080fd5b82601f8301126200057357600080fd5b6200057d62000525565b8060808401858111156200059057600080fd5b845b81811015620005ac57805184526020938401930162000592565b509095945050505050565b634e487b7160e01b600052603260045260246000fd5b600181811c90821680620005e257607f821691505b6020821081036200060357634e487b7160e01b600052602260045260246000fd5b50919050565b601f8211156200065757600081815260208120601f850160051c81016020861015620006325750805b601f850160051c820191505b8181101562000653578281556001016200063e565b5050505b505050565b81516001600160401b038111156200067857620006786200050f565b6200069081620006898454620005cd565b8462000609565b602080601f831160018114620006c85760008415620006af5750858301515b600019600386901b1c1916600185901b17855562000653565b600085815260208120601f198616915b82811015620006f957888601518255948401946001909101908401620006d8565b5085821015620007185787850151600019600388901b60f8161c191681555b5050505050600190811b01905550565b6000600182016200074957634e487b7160e01b600052601160045260246000fd5b5060010190565b6122cc80620007606000396000f3fe6080604052600436106101d85760003560e01c80638425abff11610102578063c7876ea411610095578063dbd4e02111610064578063dbd4e02114610586578063e985e9c5146105a6578063f544d82f146105ef578063f79fe5381461060257600080fd5b8063c7876ea414610500578063d2ec5fca14610516578063d315690514610546578063d9b76ed41461056657600080fd5b8063a22cb465116100d1578063a22cb46514610480578063b782426e146104a0578063b9f37c86146104c0578063be22e756146104e057600080fd5b80638425abff146103ef57806388a8c95c1461040f5780639177b0861461042f578063997c9efa1461044f57600080fd5b80631fc4859e1161017a57806329c68dc11161014957806329c68dc11461038557806339de64691461039a5780635b0fc9c3146103ba5780637362377b146103da57600080fd5b80631fc4859e146102fe57806320e3dbd41461032b57806322b68deb1461034b578063251c94221461036f57600080fd5b806302571be3116101b657806302571be31461025c57806302fb0c5e1461027c5780631896f70a146102be5780631e44663f146102de57600080fd5b80630178b8bf146101dd57806301d49a5f1461021a57806301e51ae81461023c575b600080fd5b3480156101e957600080fd5b506101fd6101f8366004611cd6565b610634565b6040516001600160a01b0390911681526020015b60405180910390f35b34801561022657600080fd5b5061023a610235366004611d04565b6106bf565b005b34801561024857600080fd5b506003546101fd906001600160a01b031681565b34801561026857600080fd5b506101fd610277366004611cd6565b61078e565b34801561028857600080fd5b506003546102ae9074010000000000000000000000000000000000000000900460ff1681565b6040519015158152602001610211565b3480156102ca57600080fd5b5061023a6102d9366004611d04565b6107bf565b3480156102ea57600080fd5b506001546101fd906001600160a01b031681565b34801561030a57600080fd5b5061031e610319366004611cd6565b61090d565b6040516102119190611d98565b34801561033757600080fd5b5061023a610346366004611db2565b6109b1565b34801561035757600080fd5b5061036160075481565b604051908152602001610211565b34801561037b57600080fd5b5061036160045481565b34801561039157600080fd5b5061023a610c07565b3480156103a657600080fd5b5061023a6103b5366004611dcf565b610cae565b3480156103c657600080fd5b5061023a6103d5366004611d04565b610db0565b3480156103e657600080fd5b5061023a6111f7565b3480156103fb57600080fd5b506002546101fd906001600160a01b031681565b34801561041b57600080fd5b5061023a61042a366004611db2565b61129d565b34801561043b57600080fd5b5061023a61044a366004611df1565b61136d565b34801561045b57600080fd5b5061046f61046a366004611cd6565b6114d4565b604051610211959493929190611e7c565b34801561048c57600080fd5b5061023a61049b366004611ebd565b61159b565b3480156104ac57600080fd5b506000546101fd906001600160a01b031681565b3480156104cc57600080fd5b506006546101fd906001600160a01b031681565b3480156104ec57600080fd5b5061023a6104fb366004611d04565b611625565b34801561050c57600080fd5b5061036160055481565b34801561052257600080fd5b50610361610531366004611cd6565b60009081526008602052604090206004015490565b34801561055257600080fd5b5061023a610561366004611d04565b611742565b34801561057257600080fd5b5061023a610581366004611d04565b6118cf565b34801561059257600080fd5b506101fd6105a1366004611cd6565b611a13565b3480156105b257600080fd5b506102ae6105c1366004611ef0565b6001600160a01b03918216600090815260096020908152604080832093909416825291909152205460ff1690565b61023a6105fd366004611dcf565b611a95565b34801561060e57600080fd5b506102ae61061d366004611cd6565b600090815260086020526040902060040154421090565b6000818152600860205260408120600401548290421061069b5760405162461bcd60e51b815260206004820152600c60248201527f4e414d455f45585049524544000000000000000000000000000000000000000060448201526064015b60405180910390fd5b6000838152600860205260409020600201546001600160a01b031691505b50919050565b6006546001600160a01b031633146107195760405162461bcd60e51b815260206004820152600d60248201527f4e4f545f524547495354524152000000000000000000000000000000000000006044820152606401610692565b600082815260086020908152604091829020600301805473ffffffffffffffffffffffffffffffffffffffff19166001600160a01b038516908117909155915191825283917fe5108446a6097aab57fd36f346a515a78fddefa87d81662d44e0d7a463f9209591015b60405180910390a25050565b6000818152600860205260408120600101546001600160a01b03163081036107b95750600092915050565b92915050565b60008281526008602052604090206001015460065483916001600160a01b0390811691163314806107f857506001600160a01b03811633145b8061082657506001600160a01b038116600090815260096020908152604080832033845290915290205460ff165b8061084a57506000828152600860205260409020600301546001600160a01b031633145b6108965760405162461bcd60e51b815260206004820152600e60248201527f4e4f545f415554484f52495345440000000000000000000000000000000000006044820152606401610692565b600084815260086020908152604091829020600201805473ffffffffffffffffffffffffffffffffffffffff19166001600160a01b038716908117909155915191825285917f335721b01866dc23fbee8b6b2c7b1e14d6f05c28cd35a2c934239f94095602a091015b60405180910390a250505050565b60008181526008602052604081208054606092919061092b90611f1e565b80601f016020809104026020016040519081016040528092919081815260200182805461095790611f1e565b80156109a45780601f10610979576101008083540402835291602001916109a4565b820191906000526020600020905b81548152906001019060200180831161098757829003601f168201915b5093979650505050505050565b6003546001600160a01b03163314610a0b5760405162461bcd60e51b815260206004820152600760248201527f4e4f545f444556000000000000000000000000000000000000000000000000006044820152606401610692565b6000805473ffffffffffffffffffffffffffffffffffffffff19166001600160a01b038316908117909155604080517f642a8ed6000000000000000000000000000000000000000000000000000000008152905163642a8ed6916004808201926080929091908290030181865afa158015610a8a573d6000803e3d6000fd5b505050506040513d601f19601f82011682018060405250810190610aae9190611fc3565b516004908155600054604080517fbd9a548b00000000000000000000000000000000000000000000000000000000815290516001600160a01b039092169263bd9a548b9282820192608092908290030181865afa158015610b13573d6000803e3d6000fd5b505050506040513d601f19601f82011682018060405250810190610b379190611fc3565b51600555600054604080517f4d3f733400000000000000000000000000000000000000000000000000000000815290516001600160a01b0390921691634d3f7334916004808201926080929091908290030181865afa158015610b9e573d6000803e3d6000fd5b505050506040513d601f19601f82011682018060405250810190610bc29190612023565b51600680546001600160a01b0390921673ffffffffffffffffffffffffffffffffffffffff199283168117909155600180548316821790556002805490921617905550565b6003546001600160a01b03163314610c615760405162461bcd60e51b815260206004820152600760248201527f4e4f545f444556000000000000000000000000000000000000000000000000006044820152606401610692565b600380547fffffffffffffffffffffff00ffffffffffffffffffffffffffffffffffffffff8116740100000000000000000000000000000000000000009182900460ff1615909102179055565b6006546001600160a01b03163314610d085760405162461bcd60e51b815260206004820152600d60248201527f4e4f545f524547495354524152000000000000000000000000000000000000006044820152606401610692565b6000828152600860205260409020600401548111610d685760405162461bcd60e51b815260206004820152600a60248201527f4241445f455850495259000000000000000000000000000000000000000000006044820152606401610692565b600082815260086020526040908190206004018290555182907fa620b72378ee464490805a96e25b53e5c0076f0ce2d28f9691ae255a595b3bf3906107829084815260200190565b60008281526008602052604090206004015482904210610e125760405162461bcd60e51b815260206004820152600c60248201527f4e414d455f4558504952454400000000000000000000000000000000000000006044820152606401610692565b6000818152600860205260409020600101546001600160a01b031633811480610e5e57506001600160a01b038116600090815260096020908152604080832033845290915290205460ff165b610eaa5760405162461bcd60e51b815260206004820152600960248201527f4e4f545f4f574e455200000000000000000000000000000000000000000000006044820152606401610692565b6001600160a01b038316610f005760405162461bcd60e51b815260206004820152600b60248201527f43414e4e4f545f4255524e0000000000000000000000000000000000000000006044820152606401610692565b60008481526008602052604090819020600190810154815460025493517f70a082310000000000000000000000000000000000000000000000000000000081526001600160a01b0392831660048201819052949183169363e30443bc93869391929116906370a0823190602401602060405180830381865afa158015610f8a573d6000803e3d6000fd5b505050506040513d601f19601f82011682018060405250810190610fae9190612081565b610fb891906120c9565b6040517fffffffff0000000000000000000000000000000000000000000000000000000060e085901b1681526001600160a01b0390921660048301526024820152604401600060405180830381600087803b15801561101657600080fd5b505af115801561102a573d6000803e3d6000fd5b50506001546002546040517f70a082310000000000000000000000000000000000000000000000000000000081526001600160a01b038981166004830152928316945063e30443bc93508892909116906370a0823190602401602060405180830381865afa1580156110a0573d6000803e3d6000fd5b505050506040513d601f19601f820116820180604052508101906110c49190612081565b6110cf9060016120dc565b6040517fffffffff0000000000000000000000000000000000000000000000000000000060e085901b1681526001600160a01b0390921660048301526024820152604401600060405180830381600087803b15801561112d57600080fd5b505af1158015611141573d6000803e3d6000fd5b50506040518792506001600160a01b0380881692508416907fddf252ad1be2c89b69c2b068fc378daa952ba7f163c4a11628f55a4df523b3ef90600090a4600085815260086020908152604091829020600101805473ffffffffffffffffffffffffffffffffffffffff19166001600160a01b038816908117909155915191825286917f52cfe144bbaaed60759c6425b5bdfcebf7736889a75f9de7cd4cf30c7a6b807891015b60405180910390a25050505050565b6003546040516000916001600160a01b03169047908381818185875af1925050503d8060008114611244576040519150601f19603f3d011682016040523d82523d6000602084013e611249565b606091505b505090508061129a5760405162461bcd60e51b815260206004820152601360248201527f4554485f5452414e534645525f4641494c4544000000000000000000000000006044820152606401610692565b50565b6003546001600160a01b031633146112f75760405162461bcd60e51b815260206004820152600760248201527f4e4f545f444556000000000000000000000000000000000000000000000000006044820152606401610692565b600354604080516001600160a01b03928316815291831660208301527fdec101f106d4fc7c85791843e64b198248c822298e3ed7046231d33f7783d816910160405180910390a16003805473ffffffffffffffffffffffffffffffffffffffff19166001600160a01b0392909216919091179055565b6006546001600160a01b031633146113c75760405162461bcd60e51b815260206004820152600d60248201527f4e4f545f524547495354524152000000000000000000000000000000000000006044820152606401610692565b6001600160a01b03811661141d5760405162461bcd60e51b815260206004820152600b60248201527f43414e4e4f545f4255524e0000000000000000000000000000000000000000006044820152606401610692565b60405182906001600160a01b038316906000907fddf252ad1be2c89b69c2b068fc378daa952ba7f163c4a11628f55a4df523b3ef908290a4600082815260086020526040902060018101805473ffffffffffffffffffffffffffffffffffffffff19166001600160a01b03841617905561149884868361213e565b506040516001600160a01b038216815282907f52cfe144bbaaed60759c6425b5bdfcebf7736889a75f9de7cd4cf30c7a6b8078906020016108ff565b6008602052600090815260409020805481906114ef90611f1e565b80601f016020809104026020016040519081016040528092919081815260200182805461151b90611f1e565b80156115685780601f1061153d57610100808354040283529160200191611568565b820191906000526020600020905b81548152906001019060200180831161154b57829003601f168201915b50505060018401546002850154600386015460049096015494956001600160a01b03928316959183169450909116915085565b3360008181526009602090815260408083206001600160a01b0387168085529083529281902080547fffffffffffffffffffffffffffffffffffffffffffffffffffffffffffffff001686151590811790915590519081529192917f17307eab39ab6107e8899845ad3d59bd9653f200f220920489ca2b5937696c31910160405180910390a35050565b6006546001600160a01b0316331461167f5760405162461bcd60e51b815260206004820152600d60248201527f4e4f545f524547495354524152000000000000000000000000000000000000006044820152606401610692565b6001600160a01b0381166116d55760405162461bcd60e51b815260206004820152600b60248201527f43414e4e4f545f4255524e0000000000000000000000000000000000000000006044820152606401610692565b600082815260086020908152604091829020600101805473ffffffffffffffffffffffffffffffffffffffff19166001600160a01b038516908117909155915191825283917f52cfe144bbaaed60759c6425b5bdfcebf7736889a75f9de7cd4cf30c7a6b80789101610782565b60008281526008602052604090206001015460065483916001600160a01b03908116911633148061177b57506001600160a01b03811633145b806117a957506001600160a01b038116600090815260096020908152604080832033845290915290205460ff165b806117cd57506000828152600860205260409020600301546001600160a01b031633145b6118195760405162461bcd60e51b815260206004820152600e60248201527f4e4f545f415554484f52495345440000000000000000000000000000000000006044820152606401610692565b60008481526008602052604080822060010154905186926001600160a01b038088169316917f8c5be1e5ebec7d5bd14f71427d1e84f3dd0314c0f7b2291e5b200ac8c7c3b9259190a4600084815260086020908152604091829020600301805473ffffffffffffffffffffffffffffffffffffffff19166001600160a01b038716908117909155915191825285917fe5108446a6097aab57fd36f346a515a78fddefa87d81662d44e0d7a463f9209591016108ff565b60008281526008602052604090206001015460065483916001600160a01b03908116911633148061190857506001600160a01b03811633145b8061193657506001600160a01b038116600090815260096020908152604080832033845290915290205460ff165b8061195a57506000828152600860205260409020600301546001600160a01b031633145b6119a65760405162461bcd60e51b815260206004820152600e60248201527f4e4f545f415554484f52495345440000000000000000000000000000000000006044820152606401610692565b600084815260086020908152604091829020600201805473ffffffffffffffffffffffffffffffffffffffff19166001600160a01b038716908117909155915191825285917fcb71326aeaad88869e8be8be2893e1119f7617ce4ea2411af127e218909be1f791016108ff565b60008181526008602052604081206004015482904210611a755760405162461bcd60e51b815260206004820152600c60248201527f4e414d455f4558504952454400000000000000000000000000000000000000006044820152606401610692565b50506000908152600860205260409020600301546001600160a01b031690565b60008281526008602052604090206004015482904210611af75760405162461bcd60e51b815260206004820152600c60248201527f4e414d455f4558504952454400000000000000000000000000000000000000006044820152606401610692565b6000818152600860205260409020600101546001600160a01b031633811480611b4357506001600160a01b038116600090815260096020908152604080832033845290915290205460ff165b80611b6757506000828152600860205260409020600301546001600160a01b031633145b611bb35760405162461bcd60e51b815260206004820152601760248201527f4e4f545f4f574e45525f4f525f434f4e54524f4c4c45520000000000000000006044820152606401610692565b6000848152600860205260409020600401548311611c135760405162461bcd60e51b815260206004820152600a60248201527f4241445f455850495259000000000000000000000000000000000000000000006044820152606401610692565b600084815260086020526040812060040154611c2f90856120c9565b905060055481611c3f9190612259565b341015611c8e5760405162461bcd60e51b815260206004820152601260248201527f494e53554646494349454e545f455448455200000000000000000000000000006044820152606401610692565b600085815260086020526040908190206004018590555185907fa620b72378ee464490805a96e25b53e5c0076f0ce2d28f9691ae255a595b3bf3906111e89087815260200190565b600060208284031215611ce857600080fd5b5035919050565b6001600160a01b038116811461129a57600080fd5b60008060408385031215611d1757600080fd5b823591506020830135611d2981611cef565b809150509250929050565b6000815180845260005b81811015611d5a57602081850181015186830182015201611d3e565b5060006020828601015260207fffffffffffffffffffffffffffffffffffffffffffffffffffffffffffffffe0601f83011685010191505092915050565b602081526000611dab6020830184611d34565b9392505050565b600060208284031215611dc457600080fd5b8135611dab81611cef565b60008060408385031215611de257600080fd5b50508035926020909101359150565b60008060008060608587031215611e0757600080fd5b843567ffffffffffffffff80821115611e1f57600080fd5b818701915087601f830112611e3357600080fd5b813581811115611e4257600080fd5b886020828501011115611e5457600080fd5b6020928301965094505085013591506040850135611e7181611cef565b939692955090935050565b60a081526000611e8f60a0830188611d34565b6001600160a01b03968716602084015294861660408301525091909316606082015260800191909152919050565b60008060408385031215611ed057600080fd5b8235611edb81611cef565b915060208301358015158114611d2957600080fd5b60008060408385031215611f0357600080fd5b8235611f0e81611cef565b91506020830135611d2981611cef565b600181811c90821680611f3257607f821691505b6020821081036106b9577f4e487b7100000000000000000000000000000000000000000000000000000000600052602260045260246000fd5b7f4e487b7100000000000000000000000000000000000000000000000000000000600052604160045260246000fd5b6040516080810167ffffffffffffffff81118282101715611fbd57611fbd611f6b565b60405290565b600060808284031215611fd557600080fd5b82601f830112611fe457600080fd5b611fec611f9a565b806080840185811115611ffe57600080fd5b845b81811015612018578051845260209384019301612000565b509095945050505050565b60006080828403121561203557600080fd5b82601f83011261204457600080fd5b61204c611f9a565b80608084018581111561205e57600080fd5b845b8181101561201857805161207381611cef565b845260209384019301612060565b60006020828403121561209357600080fd5b5051919050565b7f4e487b7100000000000000000000000000000000000000000000000000000000600052601160045260246000fd5b818103818111156107b9576107b961209a565b808201808211156107b9576107b961209a565b601f82111561213957600081815260208120601f850160051c810160208610156121165750805b601f850160051c820191505b8181101561213557828155600101612122565b5050505b505050565b67ffffffffffffffff83111561215657612156611f6b565b61216a836121648354611f1e565b836120ef565b6000601f8411600181146121bc57600085156121865750838201355b7fffffffffffffffffffffffffffffffffffffffffffffffffffffffffffffffff600387901b1c1916600186901b178355612252565b6000838152602090207fffffffffffffffffffffffffffffffffffffffffffffffffffffffffffffffe0861690835b8281101561220b57868501358255602094850194600190920191016121eb565b5086821015612246577fffffffffffffffffffffffffffffffffffffffffffffffffffffffffffffffff60f88860031b161c19848701351681555b505060018560011b0183555b5050505050565b6000817fffffffffffffffffffffffffffffffffffffffffffffffffffffffffffffffff04831182151516156122915761229161209a565b50029056fea264697066735822122072f6dc49713e286595e064f469dd90cb47b19e16f69445409fc729857c03085164736f6c63430008100033",
    "linkReferences": {}
  },
  "methodIdentifiers": {
    "Dev()": "01e51ae8",
    "ERC721()": "8425abff",
    "HELIX2()": "b782426e",
    "Names(bytes32)": "997c9efa",
    "Registrar()": "b9f37c86",
    "_NAME_()": "1e44663f",
    "active()": "02fb0c5e",
    "basePrice()": "c7876ea4",
    "changeDev(address)": "88a8c95c",
    "controller(bytes32)": "dbd4e021",
    "expiry(bytes32)": "d2ec5fca",
    "isApprovedForAll(address,address)": "e985e9c5",
    "label(bytes32)": "1fc4859e",
    "owner(bytes32)": "02571be3",
    "recordExists(bytes32)": "f79fe538",
    "register(string,bytes32,address)": "9177b086",
    "renew(bytes32,uint256)": "f544d82f",
    "resolver(bytes32)": "0178b8bf",
    "roothash()": "251c9422",
    "setApprovalForAll(address,bool)": "a22cb465",
    "setConfig(address)": "20e3dbd4",
    "setController(bytes32,address)": "d3156905",
    "setControllerERC721(bytes32,address)": "01d49a5f",
    "setExpiry(bytes32,uint256)": "39de6469",
    "setOwner(bytes32,address)": "5b0fc9c3",
    "setOwnerERC721(bytes32,address)": "be22e756",
    "setRecord(bytes32,address)": "d9b76ed4",
    "setResolver(bytes32,address)": "1896f70a",
    "theEnd()": "22b68deb",
    "toggleActive()": "29c68dc1",
    "withdrawEther()": "7362377b"
  },
  "id": 33
}