{
  "abi": [
    {
      "inputs": [
        {
          "internalType": "address",
          "name": "_helix2",
          "type": "address"
        },
        {
          "internalType": "address",
          "name": "_priceOracle",
          "type": "address"
        }
      ],
      "stateMutability": "nonpayable",
      "type": "constructor"
    },
    {
      "anonymous": false,
      "inputs": [
        {
          "indexed": true,
          "internalType": "address",
          "name": "owner",
          "type": "address"
        },
        {
          "indexed": true,
          "internalType": "address",
          "name": "spender",
          "type": "address"
        },
        {
          "indexed": true,
          "internalType": "uint256",
          "name": "tokenID",
          "type": "uint256"
        }
      ],
      "name": "Approval",
      "type": "event"
    },
    {
      "anonymous": false,
      "inputs": [
        {
          "indexed": true,
          "internalType": "address",
          "name": "owner",
          "type": "address"
        },
        {
          "indexed": true,
          "internalType": "address",
          "name": "operator",
          "type": "address"
        },
        {
          "indexed": false,
          "internalType": "bool",
          "name": "approved",
          "type": "bool"
        }
      ],
      "name": "ApprovalForAll",
      "type": "event"
    },
    {
      "anonymous": false,
      "inputs": [
        {
          "indexed": true,
          "internalType": "bytes32",
          "name": "namehash",
          "type": "bytes32"
        },
        {
          "indexed": false,
          "internalType": "address",
          "name": "controller",
          "type": "address"
        }
      ],
      "name": "NewController",
      "type": "event"
    },
    {
      "anonymous": false,
      "inputs": [
        {
          "indexed": false,
          "internalType": "address",
          "name": "Dev",
          "type": "address"
        },
        {
          "indexed": false,
          "internalType": "address",
          "name": "newDev",
          "type": "address"
        }
      ],
      "name": "NewDev",
      "type": "event"
    },
    {
      "anonymous": false,
      "inputs": [
        {
          "indexed": true,
          "internalType": "bytes32",
          "name": "namehash",
          "type": "bytes32"
        },
        {
          "indexed": false,
          "internalType": "uint256",
          "name": "expiry",
          "type": "uint256"
        }
      ],
      "name": "NewExpiry",
      "type": "event"
    },
    {
      "anonymous": false,
      "inputs": [
        {
          "indexed": true,
          "internalType": "bytes32",
          "name": "namehash",
          "type": "bytes32"
        },
        {
          "indexed": false,
          "internalType": "address",
          "name": "owner",
          "type": "address"
        }
      ],
      "name": "NewOwner",
      "type": "event"
    },
    {
      "anonymous": false,
      "inputs": [
        {
          "indexed": true,
          "internalType": "bytes32",
          "name": "namehash",
          "type": "bytes32"
        },
        {
          "indexed": false,
          "internalType": "address",
          "name": "resolver",
          "type": "address"
        }
      ],
      "name": "NewRecord",
      "type": "event"
    },
    {
      "anonymous": false,
      "inputs": [
        {
          "indexed": true,
          "internalType": "bytes32",
          "name": "namehash",
          "type": "bytes32"
        },
        {
          "indexed": false,
          "internalType": "address",
          "name": "resolver",
          "type": "address"
        }
      ],
      "name": "NewResolver",
      "type": "event"
    },
    {
      "anonymous": false,
      "inputs": [
        {
          "indexed": true,
          "internalType": "address",
          "name": "from",
          "type": "address"
        },
        {
          "indexed": true,
          "internalType": "address",
          "name": "to",
          "type": "address"
        },
        {
          "indexed": true,
          "internalType": "uint256",
          "name": "tokenID",
          "type": "uint256"
        }
      ],
      "name": "Transfer",
      "type": "event"
    },
    {
      "inputs": [],
      "name": "Dev",
      "outputs": [
        {
          "internalType": "address",
          "name": "",
          "type": "address"
        }
      ],
      "stateMutability": "view",
      "type": "function"
    },
    {
      "inputs": [],
      "name": "ERC721",
      "outputs": [
        {
          "internalType": "contract iERC721",
          "name": "",
          "type": "address"
        }
      ],
      "stateMutability": "view",
      "type": "function"
    },
    {
      "inputs": [],
      "name": "HELIX2",
      "outputs": [
        {
          "internalType": "contract iHELIX2",
          "name": "",
          "type": "address"
        }
      ],
      "stateMutability": "view",
      "type": "function"
    },
    {
      "inputs": [
        {
          "internalType": "bytes32",
          "name": "",
          "type": "bytes32"
        }
      ],
      "name": "Names",
      "outputs": [
        {
          "internalType": "string",
          "name": "_label",
          "type": "string"
        },
        {
          "internalType": "address",
          "name": "_owner",
          "type": "address"
        },
        {
          "internalType": "address",
          "name": "_resolver",
          "type": "address"
        },
        {
          "internalType": "address",
          "name": "_controller",
          "type": "address"
        },
        {
          "internalType": "uint256",
          "name": "_expiry",
          "type": "uint256"
        }
      ],
      "stateMutability": "view",
      "type": "function"
    },
    {
      "inputs": [],
      "name": "PRICES",
      "outputs": [
        {
          "internalType": "contract iPriceOracle",
          "name": "",
          "type": "address"
        }
      ],
      "stateMutability": "view",
      "type": "function"
    },
    {
      "inputs": [],
      "name": "Registrar",
      "outputs": [
        {
          "internalType": "address",
          "name": "",
          "type": "address"
        }
      ],
      "stateMutability": "view",
      "type": "function"
    },
    {
      "inputs": [],
      "name": "_NAME_",
      "outputs": [
        {
          "internalType": "contract iNAME",
          "name": "",
          "type": "address"
        }
      ],
      "stateMutability": "view",
      "type": "function"
    },
    {
      "inputs": [],
      "name": "active",
      "outputs": [
        {
          "internalType": "bool",
          "name": "",
          "type": "bool"
        }
      ],
      "stateMutability": "view",
      "type": "function"
    },
    {
      "inputs": [],
      "name": "basePrice",
      "outputs": [
        {
          "internalType": "uint256",
          "name": "",
          "type": "uint256"
        }
      ],
      "stateMutability": "view",
      "type": "function"
    },
    {
      "inputs": [
        {
          "internalType": "address",
          "name": "newDev",
          "type": "address"
        }
      ],
      "name": "changeDev",
      "outputs": [],
      "stateMutability": "nonpayable",
      "type": "function"
    },
    {
      "inputs": [
        {
          "internalType": "bytes32",
          "name": "namehash",
          "type": "bytes32"
        }
      ],
      "name": "controller",
      "outputs": [
        {
          "internalType": "address",
          "name": "",
          "type": "address"
        }
      ],
      "stateMutability": "view",
      "type": "function"
    },
    {
      "inputs": [
        {
          "internalType": "bytes32",
          "name": "namehash",
          "type": "bytes32"
        }
      ],
      "name": "expiry",
      "outputs": [
        {
          "internalType": "uint256",
          "name": "",
          "type": "uint256"
        }
      ],
      "stateMutability": "view",
      "type": "function"
    },
    {
      "inputs": [
        {
          "internalType": "address",
          "name": "_owner",
          "type": "address"
        },
        {
          "internalType": "address",
          "name": "operator",
          "type": "address"
        }
      ],
      "name": "isApprovedForAll",
      "outputs": [
        {
          "internalType": "bool",
          "name": "",
          "type": "bool"
        }
      ],
      "stateMutability": "view",
      "type": "function"
    },
    {
      "inputs": [
        {
          "internalType": "bytes32",
          "name": "namehash",
          "type": "bytes32"
        }
      ],
      "name": "label",
      "outputs": [
        {
          "internalType": "string",
          "name": "",
          "type": "string"
        }
      ],
      "stateMutability": "view",
      "type": "function"
    },
    {
      "inputs": [
        {
          "internalType": "bytes32",
          "name": "namehash",
          "type": "bytes32"
        }
      ],
      "name": "owner",
      "outputs": [
        {
          "internalType": "address",
          "name": "",
          "type": "address"
        }
      ],
      "stateMutability": "view",
      "type": "function"
    },
    {
      "inputs": [
        {
          "internalType": "bytes32",
          "name": "namehash",
          "type": "bytes32"
        }
      ],
      "name": "recordExists",
      "outputs": [
        {
          "internalType": "bool",
          "name": "",
          "type": "bool"
        }
      ],
      "stateMutability": "view",
      "type": "function"
    },
    {
      "inputs": [
        {
          "internalType": "string",
          "name": "_label",
          "type": "string"
        },
        {
          "internalType": "bytes32",
          "name": "namehash",
          "type": "bytes32"
        },
        {
          "internalType": "address",
          "name": "_owner",
          "type": "address"
        }
      ],
      "name": "register",
      "outputs": [],
      "stateMutability": "nonpayable",
      "type": "function"
    },
    {
      "inputs": [
        {
          "internalType": "bytes32",
          "name": "namehash",
          "type": "bytes32"
        },
        {
          "internalType": "uint256",
          "name": "_expiry",
          "type": "uint256"
        }
      ],
      "name": "renew",
      "outputs": [],
      "stateMutability": "payable",
      "type": "function"
    },
    {
      "inputs": [
        {
          "internalType": "bytes32",
          "name": "namehash",
          "type": "bytes32"
        }
      ],
      "name": "resolver",
      "outputs": [
        {
          "internalType": "address",
          "name": "",
          "type": "address"
        }
      ],
      "stateMutability": "view",
      "type": "function"
    },
    {
      "inputs": [],
      "name": "roothash",
      "outputs": [
        {
          "internalType": "bytes32",
          "name": "",
          "type": "bytes32"
        }
      ],
      "stateMutability": "view",
      "type": "function"
    },
    {
      "inputs": [
        {
          "internalType": "address",
          "name": "operator",
          "type": "address"
        },
        {
          "internalType": "bool",
          "name": "approved",
          "type": "bool"
        }
      ],
      "name": "setApprovalForAll",
      "outputs": [],
      "stateMutability": "nonpayable",
      "type": "function"
    },
    {
      "inputs": [
        {
          "internalType": "address",
          "name": "_helix2",
          "type": "address"
        },
        {
          "internalType": "address",
          "name": "_priceOracle",
          "type": "address"
        }
      ],
      "name": "setConfig",
      "outputs": [],
      "stateMutability": "nonpayable",
      "type": "function"
    },
    {
      "inputs": [
        {
          "internalType": "bytes32",
          "name": "namehash",
          "type": "bytes32"
        },
        {
          "internalType": "address",
          "name": "_controller",
          "type": "address"
        }
      ],
      "name": "setController",
      "outputs": [],
      "stateMutability": "nonpayable",
      "type": "function"
    },
    {
      "inputs": [
        {
          "internalType": "bytes32",
          "name": "namehash",
          "type": "bytes32"
        },
        {
          "internalType": "address",
          "name": "_controller",
          "type": "address"
        }
      ],
      "name": "setControllerERC721",
      "outputs": [],
      "stateMutability": "nonpayable",
      "type": "function"
    },
    {
      "inputs": [
        {
          "internalType": "bytes32",
          "name": "namehash",
          "type": "bytes32"
        },
        {
          "internalType": "uint256",
          "name": "_expiry",
          "type": "uint256"
        }
      ],
      "name": "setExpiry",
      "outputs": [],
      "stateMutability": "nonpayable",
      "type": "function"
    },
    {
      "inputs": [
        {
          "internalType": "bytes32",
          "name": "namehash",
          "type": "bytes32"
        },
        {
          "internalType": "address",
          "name": "_owner",
          "type": "address"
        }
      ],
      "name": "setOwner",
      "outputs": [],
      "stateMutability": "nonpayable",
      "type": "function"
    },
    {
      "inputs": [
        {
          "internalType": "bytes32",
          "name": "namehash",
          "type": "bytes32"
        },
        {
          "internalType": "address",
          "name": "_owner",
          "type": "address"
        }
      ],
      "name": "setOwnerERC721",
      "outputs": [],
      "stateMutability": "nonpayable",
      "type": "function"
    },
    {
      "inputs": [
        {
          "internalType": "bytes32",
          "name": "namehash",
          "type": "bytes32"
        },
        {
          "internalType": "address",
          "name": "_resolver",
          "type": "address"
        }
      ],
      "name": "setRecord",
      "outputs": [],
      "stateMutability": "nonpayable",
      "type": "function"
    },
    {
      "inputs": [
        {
          "internalType": "bytes32",
          "name": "namehash",
          "type": "bytes32"
        },
        {
          "internalType": "address",
          "name": "_resolver",
          "type": "address"
        }
      ],
      "name": "setResolver",
      "outputs": [],
      "stateMutability": "nonpayable",
      "type": "function"
    },
    {
      "inputs": [],
      "name": "theEnd",
      "outputs": [
        {
          "internalType": "uint256",
          "name": "",
          "type": "uint256"
        }
      ],
      "stateMutability": "view",
      "type": "function"
    },
    {
      "inputs": [],
      "name": "toggleActive",
      "outputs": [],
      "stateMutability": "nonpayable",
      "type": "function"
    },
    {
      "inputs": [],
      "name": "withdrawEther",
      "outputs": [],
      "stateMutability": "nonpayable",
      "type": "function"
    }
  ],
  "bytecode": {
    "object": "0x60806040526004805460ff60a01b1916600160a01b1790556703782dace9d900006008553480156200003057600080fd5b5060405162002a9c38038062002a9c833981016040819052620000539162000509565b600480546001600160a01b031990811633178255600080546001600160a01b03861692168217905560408051633215476b60e11b81529051919263642a8ed69282820192608092908290030181865afa158015620000b5573d6000803e3d6000fd5b505050506040513d601f19601f82011682018060405250810190620000db919062000582565b51600555600380546001600160a01b0319166001600160a01b0383169081179091556040805163bd9a548b60e01b8152905163bd9a548b916004808201926080929091908290030181865afa15801562000139573d6000803e3d6000fd5b505050506040513d601f19601f820116820180604052508101906200015f919062000582565b516006556200016d62000175565b505062000782565b6004546001600160a01b03163314620001be5760405162461bcd60e51b81526020600482015260076024820152662727aa2fa222ab60c91b604482015260640160405180910390fd5b6040805180820190915260018152601760f91b60208083019190915260008052600990527fec8156718a8372b1db44bb411437d0870f3e3790d4a08526d024ce1b0b668f6b906200021090826200068e565b50600080805260096020527fec8156718a8372b1db44bb411437d0870f3e3790d4a08526d024ce1b0b668f6c8054336001600160a01b031991821681179092556008547fec8156718a8372b1db44bb411437d0870f3e3790d4a08526d024ce1b0b668f6f557fec8156718a8372b1db44bb411437d0870f3e3790d4a08526d024ce1b0b668f6e80548216831790557fec8156718a8372b1db44bb411437d0870f3e3790d4a08526d024ce1b0b668f6d80549091169091179055805460408051633215476b60e11b815290516001600160a01b039092169163642a8ed6916004808201926080929091908290030181865afa15801562000313573d6000803e3d6000fd5b505050506040513d601f19601f8201168201806040525081019062000339919062000582565b905060005b6004811015620004e857604051806040016040528060018152602001601760f91b815250600960008484600481106200037b576200037b620005e9565b6020020151815260200190815260200160002060000190816200039f91906200068e565b503360096000848460048110620003ba57620003ba620005e9565b6020020151815260200190815260200160002060010160006101000a8154816001600160a01b0302191690836001600160a01b0316021790555060085460096000848460048110620004105762000410620005e9565b60200201518152602001908152602001600020600401819055503360096000848460048110620004445762000444620005e9565b6020020151815260200190815260200160002060030160006101000a8154816001600160a01b0302191690836001600160a01b031602179055503360096000848460048110620004985762000498620005e9565b6020020151815260200190815260200160002060020160006101000a8154816001600160a01b0302191690836001600160a01b031602179055508080620004df906200075a565b9150506200033e565b5050565b80516001600160a01b03811681146200050457600080fd5b919050565b600080604083850312156200051d57600080fd5b6200052883620004ec565b91506200053860208401620004ec565b90509250929050565b634e487b7160e01b600052604160045260246000fd5b604051608081016001600160401b03811182821017156200057c576200057c62000541565b60405290565b6000608082840312156200059557600080fd5b82601f830112620005a557600080fd5b620005af62000557565b806080840185811115620005c257600080fd5b845b81811015620005de578051845260209384019301620005c4565b509095945050505050565b634e487b7160e01b600052603260045260246000fd5b600181811c908216806200061457607f821691505b6020821081036200063557634e487b7160e01b600052602260045260246000fd5b50919050565b601f8211156200068957600081815260208120601f850160051c81016020861015620006645750805b601f850160051c820191505b81811015620006855782815560010162000670565b5050505b505050565b81516001600160401b03811115620006aa57620006aa62000541565b620006c281620006bb8454620005ff565b846200063b565b602080601f831160018114620006fa5760008415620006e15750858301515b600019600386901b1c1916600185901b17855562000685565b600085815260208120601f198616915b828110156200072b578886015182559484019460019091019084016200070a565b50858210156200074a5787850151600019600388901b60f8161c191681555b5050505050600190811b01905550565b6000600182016200077b57634e487b7160e01b600052601160045260246000fd5b5060010190565b61230a80620007926000396000f3fe6080604052600436106101e35760003560e01c806388a8c95c11610102578063c7876ea411610095578063dbd4e02111610064578063dbd4e021146105b1578063e985e9c5146105d1578063f544d82f1461061a578063f79fe5381461062d57600080fd5b8063c7876ea41461052b578063d2ec5fca14610541578063d315690514610571578063d9b76ed41461059157600080fd5b8063b602024b116100d1578063b602024b146104ab578063b782426e146104cb578063b9f37c86146104eb578063be22e7561461050b57600080fd5b806388a8c95c1461041a5780639177b0861461043a578063997c9efa1461045a578063a22cb4651461048b57600080fd5b80631fc4859e1161017a57806339de64691161014957806339de6469146103a55780635b0fc9c3146103c55780637362377b146103e55780638425abff146103fa57600080fd5b80631fc4859e1461032957806322b68deb14610356578063251c94221461037a57806329c68dc11461039057600080fd5b806302fb0c5e116101b657806302fb0c5e146102875780631896f70a146102c95780631e44663f146102e95780631eabcd341461030957600080fd5b80630178b8bf146101e857806301d49a5f1461022557806301e51ae81461024757806302571be314610267575b600080fd5b3480156101f457600080fd5b50610208610203366004611d14565b61065f565b6040516001600160a01b0390911681526020015b60405180910390f35b34801561023157600080fd5b50610245610240366004611d42565b6106ea565b005b34801561025357600080fd5b50600454610208906001600160a01b031681565b34801561027357600080fd5b50610208610282366004611d14565b6107b9565b34801561029357600080fd5b506004546102b99074010000000000000000000000000000000000000000900460ff1681565b604051901515815260200161021c565b3480156102d557600080fd5b506102456102e4366004611d42565b6107ea565b3480156102f557600080fd5b50600154610208906001600160a01b031681565b34801561031557600080fd5b50600354610208906001600160a01b031681565b34801561033557600080fd5b50610349610344366004611d14565b610938565b60405161021c9190611dd6565b34801561036257600080fd5b5061036c60085481565b60405190815260200161021c565b34801561038657600080fd5b5061036c60055481565b34801561039c57600080fd5b506102456109dc565b3480156103b157600080fd5b506102456103c0366004611df0565b610a83565b3480156103d157600080fd5b506102456103e0366004611d42565b610b85565b3480156103f157600080fd5b50610245610fcc565b34801561040657600080fd5b50600254610208906001600160a01b031681565b34801561042657600080fd5b50610245610435366004611e12565b611072565b34801561044657600080fd5b50610245610455366004611e2f565b611142565b34801561046657600080fd5b5061047a610475366004611d14565b6112a9565b60405161021c959493929190611eba565b34801561049757600080fd5b506102456104a6366004611efb565b611370565b3480156104b757600080fd5b506102456104c6366004611f2e565b6113fa565b3480156104d757600080fd5b50600054610208906001600160a01b031681565b3480156104f757600080fd5b50600754610208906001600160a01b031681565b34801561051757600080fd5b50610245610526366004611d42565b611663565b34801561053757600080fd5b5061036c60065481565b34801561054d57600080fd5b5061036c61055c366004611d14565b60009081526009602052604090206004015490565b34801561057d57600080fd5b5061024561058c366004611d42565b611780565b34801561059d57600080fd5b506102456105ac366004611d42565b61190d565b3480156105bd57600080fd5b506102086105cc366004611d14565b611a51565b3480156105dd57600080fd5b506102b96105ec366004611f2e565b6001600160a01b039182166000908152600a6020908152604080832093909416825291909152205460ff1690565b610245610628366004611df0565b611ad3565b34801561063957600080fd5b506102b9610648366004611d14565b600090815260096020526040902060040154421090565b600081815260096020526040812060040154829042106106c65760405162461bcd60e51b815260206004820152600c60248201527f4e414d455f45585049524544000000000000000000000000000000000000000060448201526064015b60405180910390fd5b6000838152600960205260409020600201546001600160a01b031691505b50919050565b6007546001600160a01b031633146107445760405162461bcd60e51b815260206004820152600d60248201527f4e4f545f5245474953545241520000000000000000000000000000000000000060448201526064016106bd565b600082815260096020908152604091829020600301805473ffffffffffffffffffffffffffffffffffffffff19166001600160a01b038516908117909155915191825283917fe5108446a6097aab57fd36f346a515a78fddefa87d81662d44e0d7a463f9209591015b60405180910390a25050565b6000818152600960205260408120600101546001600160a01b03163081036107e45750600092915050565b92915050565b60008281526009602052604090206001015460075483916001600160a01b03908116911633148061082357506001600160a01b03811633145b8061085157506001600160a01b0381166000908152600a6020908152604080832033845290915290205460ff165b8061087557506000828152600960205260409020600301546001600160a01b031633145b6108c15760405162461bcd60e51b815260206004820152600e60248201527f4e4f545f415554484f524953454400000000000000000000000000000000000060448201526064016106bd565b600084815260096020908152604091829020600201805473ffffffffffffffffffffffffffffffffffffffff19166001600160a01b038716908117909155915191825285917f335721b01866dc23fbee8b6b2c7b1e14d6f05c28cd35a2c934239f94095602a091015b60405180910390a250505050565b60008181526009602052604081208054606092919061095690611f5c565b80601f016020809104026020016040519081016040528092919081815260200182805461098290611f5c565b80156109cf5780601f106109a4576101008083540402835291602001916109cf565b820191906000526020600020905b8154815290600101906020018083116109b257829003601f168201915b5093979650505050505050565b6004546001600160a01b03163314610a365760405162461bcd60e51b815260206004820152600760248201527f4e4f545f4445560000000000000000000000000000000000000000000000000060448201526064016106bd565b600480547fffffffffffffffffffffff00ffffffffffffffffffffffffffffffffffffffff8116740100000000000000000000000000000000000000009182900460ff1615909102179055565b6007546001600160a01b03163314610add5760405162461bcd60e51b815260206004820152600d60248201527f4e4f545f5245474953545241520000000000000000000000000000000000000060448201526064016106bd565b6000828152600960205260409020600401548111610b3d5760405162461bcd60e51b815260206004820152600a60248201527f4241445f4558504952590000000000000000000000000000000000000000000060448201526064016106bd565b600082815260096020526040908190206004018290555182907fa620b72378ee464490805a96e25b53e5c0076f0ce2d28f9691ae255a595b3bf3906107ad9084815260200190565b60008281526009602052604090206004015482904210610be75760405162461bcd60e51b815260206004820152600c60248201527f4e414d455f45585049524544000000000000000000000000000000000000000060448201526064016106bd565b6000818152600960205260409020600101546001600160a01b031633811480610c3357506001600160a01b0381166000908152600a6020908152604080832033845290915290205460ff165b610c7f5760405162461bcd60e51b815260206004820152600960248201527f4e4f545f4f574e4552000000000000000000000000000000000000000000000060448201526064016106bd565b6001600160a01b038316610cd55760405162461bcd60e51b815260206004820152600b60248201527f43414e4e4f545f4255524e00000000000000000000000000000000000000000060448201526064016106bd565b60008481526009602052604090819020600190810154815460025493517f70a082310000000000000000000000000000000000000000000000000000000081526001600160a01b0392831660048201819052949183169363e30443bc93869391929116906370a0823190602401602060405180830381865afa158015610d5f573d6000803e3d6000fd5b505050506040513d601f19601f82011682018060405250810190610d839190611fa9565b610d8d9190611ff1565b6040517fffffffff0000000000000000000000000000000000000000000000000000000060e085901b1681526001600160a01b0390921660048301526024820152604401600060405180830381600087803b158015610deb57600080fd5b505af1158015610dff573d6000803e3d6000fd5b50506001546002546040517f70a082310000000000000000000000000000000000000000000000000000000081526001600160a01b038981166004830152928316945063e30443bc93508892909116906370a0823190602401602060405180830381865afa158015610e75573d6000803e3d6000fd5b505050506040513d601f19601f82011682018060405250810190610e999190611fa9565b610ea4906001612004565b6040517fffffffff0000000000000000000000000000000000000000000000000000000060e085901b1681526001600160a01b0390921660048301526024820152604401600060405180830381600087803b158015610f0257600080fd5b505af1158015610f16573d6000803e3d6000fd5b50506040518792506001600160a01b0380881692508416907fddf252ad1be2c89b69c2b068fc378daa952ba7f163c4a11628f55a4df523b3ef90600090a4600085815260096020908152604091829020600101805473ffffffffffffffffffffffffffffffffffffffff19166001600160a01b038816908117909155915191825286917f52cfe144bbaaed60759c6425b5bdfcebf7736889a75f9de7cd4cf30c7a6b807891015b60405180910390a25050505050565b6004546040516000916001600160a01b03169047908381818185875af1925050503d8060008114611019576040519150601f19603f3d011682016040523d82523d6000602084013e61101e565b606091505b505090508061106f5760405162461bcd60e51b815260206004820152601360248201527f4554485f5452414e534645525f4641494c45440000000000000000000000000060448201526064016106bd565b50565b6004546001600160a01b031633146110cc5760405162461bcd60e51b815260206004820152600760248201527f4e4f545f4445560000000000000000000000000000000000000000000000000060448201526064016106bd565b600454604080516001600160a01b03928316815291831660208301527fdec101f106d4fc7c85791843e64b198248c822298e3ed7046231d33f7783d816910160405180910390a16004805473ffffffffffffffffffffffffffffffffffffffff19166001600160a01b0392909216919091179055565b6007546001600160a01b0316331461119c5760405162461bcd60e51b815260206004820152600d60248201527f4e4f545f5245474953545241520000000000000000000000000000000000000060448201526064016106bd565b6001600160a01b0381166111f25760405162461bcd60e51b815260206004820152600b60248201527f43414e4e4f545f4255524e00000000000000000000000000000000000000000060448201526064016106bd565b60405182906001600160a01b038316906000907fddf252ad1be2c89b69c2b068fc378daa952ba7f163c4a11628f55a4df523b3ef908290a4600082815260096020526040902060018101805473ffffffffffffffffffffffffffffffffffffffff19166001600160a01b03841617905561126d848683612095565b506040516001600160a01b038216815282907f52cfe144bbaaed60759c6425b5bdfcebf7736889a75f9de7cd4cf30c7a6b80789060200161092a565b6009602052600090815260409020805481906112c490611f5c565b80601f01602080910402602001604051908101604052809291908181526020018280546112f090611f5c565b801561133d5780601f106113125761010080835404028352916020019161133d565b820191906000526020600020905b81548152906001019060200180831161132057829003601f168201915b50505060018401546002850154600386015460049096015494956001600160a01b03928316959183169450909116915085565b336000818152600a602090815260408083206001600160a01b0387168085529083529281902080547fffffffffffffffffffffffffffffffffffffffffffffffffffffffffffffff001686151590811790915590519081529192917f17307eab39ab6107e8899845ad3d59bd9653f200f220920489ca2b5937696c31910160405180910390a35050565b6004546001600160a01b031633146114545760405162461bcd60e51b815260206004820152600760248201527f4e4f545f4445560000000000000000000000000000000000000000000000000060448201526064016106bd565b600080546001600160a01b0380851673ffffffffffffffffffffffffffffffffffffffff1992831681179093556003805491851691909216179055604080517f642a8ed6000000000000000000000000000000000000000000000000000000008152905163642a8ed6916004808201926080929091908290030181865afa1580156114e3573d6000803e3d6000fd5b505050506040513d601f19601f8201168201806040525081019061150791906121d9565b51600555600354604080517fbd9a548b00000000000000000000000000000000000000000000000000000000815290516001600160a01b039092169163bd9a548b916004808201926080929091908290030181865afa15801561156e573d6000803e3d6000fd5b505050506040513d601f19601f8201168201806040525081019061159291906121d9565b51600655600054604080517f4d3f733400000000000000000000000000000000000000000000000000000000815290516001600160a01b0390921691634d3f7334916004808201926080929091908290030181865afa1580156115f9573d6000803e3d6000fd5b505050506040513d601f19601f8201168201806040525081019061161d9190612239565b51600780546001600160a01b0390921673ffffffffffffffffffffffffffffffffffffffff19928316811790915560018054831682179055600280549092161790555050565b6007546001600160a01b031633146116bd5760405162461bcd60e51b815260206004820152600d60248201527f4e4f545f5245474953545241520000000000000000000000000000000000000060448201526064016106bd565b6001600160a01b0381166117135760405162461bcd60e51b815260206004820152600b60248201527f43414e4e4f545f4255524e00000000000000000000000000000000000000000060448201526064016106bd565b600082815260096020908152604091829020600101805473ffffffffffffffffffffffffffffffffffffffff19166001600160a01b038516908117909155915191825283917f52cfe144bbaaed60759c6425b5bdfcebf7736889a75f9de7cd4cf30c7a6b807891016107ad565b60008281526009602052604090206001015460075483916001600160a01b0390811691163314806117b957506001600160a01b03811633145b806117e757506001600160a01b0381166000908152600a6020908152604080832033845290915290205460ff165b8061180b57506000828152600960205260409020600301546001600160a01b031633145b6118575760405162461bcd60e51b815260206004820152600e60248201527f4e4f545f415554484f524953454400000000000000000000000000000000000060448201526064016106bd565b60008481526009602052604080822060010154905186926001600160a01b038088169316917f8c5be1e5ebec7d5bd14f71427d1e84f3dd0314c0f7b2291e5b200ac8c7c3b9259190a4600084815260096020908152604091829020600301805473ffffffffffffffffffffffffffffffffffffffff19166001600160a01b038716908117909155915191825285917fe5108446a6097aab57fd36f346a515a78fddefa87d81662d44e0d7a463f92095910161092a565b60008281526009602052604090206001015460075483916001600160a01b03908116911633148061194657506001600160a01b03811633145b8061197457506001600160a01b0381166000908152600a6020908152604080832033845290915290205460ff165b8061199857506000828152600960205260409020600301546001600160a01b031633145b6119e45760405162461bcd60e51b815260206004820152600e60248201527f4e4f545f415554484f524953454400000000000000000000000000000000000060448201526064016106bd565b600084815260096020908152604091829020600201805473ffffffffffffffffffffffffffffffffffffffff19166001600160a01b038716908117909155915191825285917fcb71326aeaad88869e8be8be2893e1119f7617ce4ea2411af127e218909be1f7910161092a565b60008181526009602052604081206004015482904210611ab35760405162461bcd60e51b815260206004820152600c60248201527f4e414d455f45585049524544000000000000000000000000000000000000000060448201526064016106bd565b50506000908152600960205260409020600301546001600160a01b031690565b60008281526009602052604090206004015482904210611b355760405162461bcd60e51b815260206004820152600c60248201527f4e414d455f45585049524544000000000000000000000000000000000000000060448201526064016106bd565b6000818152600960205260409020600101546001600160a01b031633811480611b8157506001600160a01b0381166000908152600a6020908152604080832033845290915290205460ff165b80611ba557506000828152600960205260409020600301546001600160a01b031633145b611bf15760405162461bcd60e51b815260206004820152601760248201527f4e4f545f4f574e45525f4f525f434f4e54524f4c4c455200000000000000000060448201526064016106bd565b6000848152600960205260409020600401548311611c515760405162461bcd60e51b815260206004820152600a60248201527f4241445f4558504952590000000000000000000000000000000000000000000060448201526064016106bd565b600084815260096020526040812060040154611c6d9085611ff1565b905060065481611c7d9190612297565b341015611ccc5760405162461bcd60e51b815260206004820152601260248201527f494e53554646494349454e545f4554484552000000000000000000000000000060448201526064016106bd565b600085815260096020526040908190206004018590555185907fa620b72378ee464490805a96e25b53e5c0076f0ce2d28f9691ae255a595b3bf390610fbd9087815260200190565b600060208284031215611d2657600080fd5b5035919050565b6001600160a01b038116811461106f57600080fd5b60008060408385031215611d5557600080fd5b823591506020830135611d6781611d2d565b809150509250929050565b6000815180845260005b81811015611d9857602081850181015186830182015201611d7c565b5060006020828601015260207fffffffffffffffffffffffffffffffffffffffffffffffffffffffffffffffe0601f83011685010191505092915050565b602081526000611de96020830184611d72565b9392505050565b60008060408385031215611e0357600080fd5b50508035926020909101359150565b600060208284031215611e2457600080fd5b8135611de981611d2d565b60008060008060608587031215611e4557600080fd5b843567ffffffffffffffff80821115611e5d57600080fd5b818701915087601f830112611e7157600080fd5b813581811115611e8057600080fd5b886020828501011115611e9257600080fd5b6020928301965094505085013591506040850135611eaf81611d2d565b939692955090935050565b60a081526000611ecd60a0830188611d72565b6001600160a01b03968716602084015294861660408301525091909316606082015260800191909152919050565b60008060408385031215611f0e57600080fd5b8235611f1981611d2d565b915060208301358015158114611d6757600080fd5b60008060408385031215611f4157600080fd5b8235611f4c81611d2d565b91506020830135611d6781611d2d565b600181811c90821680611f7057607f821691505b6020821081036106e4577f4e487b7100000000000000000000000000000000000000000000000000000000600052602260045260246000fd5b600060208284031215611fbb57600080fd5b5051919050565b7f4e487b7100000000000000000000000000000000000000000000000000000000600052601160045260246000fd5b818103818111156107e4576107e4611fc2565b808201808211156107e4576107e4611fc2565b7f4e487b7100000000000000000000000000000000000000000000000000000000600052604160045260246000fd5b601f82111561209057600081815260208120601f850160051c8101602086101561206d5750805b601f850160051c820191505b8181101561208c57828155600101612079565b5050505b505050565b67ffffffffffffffff8311156120ad576120ad612017565b6120c1836120bb8354611f5c565b83612046565b6000601f84116001811461211357600085156120dd5750838201355b7fffffffffffffffffffffffffffffffffffffffffffffffffffffffffffffffff600387901b1c1916600186901b1783556121a9565b6000838152602090207fffffffffffffffffffffffffffffffffffffffffffffffffffffffffffffffe0861690835b828110156121625786850135825560209485019460019092019101612142565b508682101561219d577fffffffffffffffffffffffffffffffffffffffffffffffffffffffffffffffff60f88860031b161c19848701351681555b505060018560011b0183555b5050505050565b6040516080810167ffffffffffffffff811182821017156121d3576121d3612017565b60405290565b6000608082840312156121eb57600080fd5b82601f8301126121fa57600080fd5b6122026121b0565b80608084018581111561221457600080fd5b845b8181101561222e578051845260209384019301612216565b509095945050505050565b60006080828403121561224b57600080fd5b82601f83011261225a57600080fd5b6122626121b0565b80608084018581111561227457600080fd5b845b8181101561222e57805161228981611d2d565b845260209384019301612276565b6000817fffffffffffffffffffffffffffffffffffffffffffffffffffffffffffffffff04831182151516156122cf576122cf611fc2565b50029056fea2646970667358221220c4e8b6812577b3469eb25a6850942194109e2031f5484756858df8fe0f88e28864736f6c63430008100033",
    "linkReferences": {}
  },
  "methodIdentifiers": {
    "Dev()": "01e51ae8",
    "ERC721()": "8425abff",
    "HELIX2()": "b782426e",
    "Names(bytes32)": "997c9efa",
    "PRICES()": "1eabcd34",
    "Registrar()": "b9f37c86",
    "_NAME_()": "1e44663f",
    "active()": "02fb0c5e",
    "basePrice()": "c7876ea4",
    "changeDev(address)": "88a8c95c",
    "controller(bytes32)": "dbd4e021",
    "expiry(bytes32)": "d2ec5fca",
    "isApprovedForAll(address,address)": "e985e9c5",
    "label(bytes32)": "1fc4859e",
    "owner(bytes32)": "02571be3",
    "recordExists(bytes32)": "f79fe538",
    "register(string,bytes32,address)": "9177b086",
    "renew(bytes32,uint256)": "f544d82f",
    "resolver(bytes32)": "0178b8bf",
    "roothash()": "251c9422",
    "setApprovalForAll(address,bool)": "a22cb465",
    "setConfig(address,address)": "b602024b",
    "setController(bytes32,address)": "d3156905",
    "setControllerERC721(bytes32,address)": "01d49a5f",
    "setExpiry(bytes32,uint256)": "39de6469",
    "setOwner(bytes32,address)": "5b0fc9c3",
    "setOwnerERC721(bytes32,address)": "be22e756",
    "setRecord(bytes32,address)": "d9b76ed4",
    "setResolver(bytes32,address)": "1896f70a",
    "theEnd()": "22b68deb",
    "toggleActive()": "29c68dc1",
    "withdrawEther()": "7362377b"
  },
  "id": 35
}