{
  "abi": [
    {
      "inputs": [
        {
          "internalType": "address",
          "name": "_helix2",
          "type": "address"
        }
      ],
      "stateMutability": "nonpayable",
      "type": "constructor"
    },
    {
      "anonymous": false,
      "inputs": [
        {
          "indexed": true,
          "internalType": "address",
          "name": "owner",
          "type": "address"
        },
        {
          "indexed": true,
          "internalType": "address",
          "name": "operator",
          "type": "address"
        },
        {
          "indexed": false,
          "internalType": "bool",
          "name": "approved",
          "type": "bool"
        }
      ],
      "name": "ApprovalForAll",
      "type": "event"
    },
    {
      "anonymous": false,
      "inputs": [
        {
          "indexed": true,
          "internalType": "bytes32",
          "name": "namehash",
          "type": "bytes32"
        },
        {
          "indexed": false,
          "internalType": "address",
          "name": "controller",
          "type": "address"
        }
      ],
      "name": "NewController",
      "type": "event"
    },
    {
      "anonymous": false,
      "inputs": [
        {
          "indexed": false,
          "internalType": "address",
          "name": "Dev",
          "type": "address"
        },
        {
          "indexed": false,
          "internalType": "address",
          "name": "newDev",
          "type": "address"
        }
      ],
      "name": "NewDev",
      "type": "event"
    },
    {
      "anonymous": false,
      "inputs": [
        {
          "indexed": true,
          "internalType": "bytes32",
          "name": "namehash",
          "type": "bytes32"
        },
        {
          "indexed": false,
          "internalType": "uint256",
          "name": "expiry",
          "type": "uint256"
        }
      ],
      "name": "NewExpiry",
      "type": "event"
    },
    {
      "anonymous": false,
      "inputs": [
        {
          "indexed": true,
          "internalType": "bytes32",
          "name": "namehash",
          "type": "bytes32"
        },
        {
          "indexed": false,
          "internalType": "address",
          "name": "owner",
          "type": "address"
        }
      ],
      "name": "NewName",
      "type": "event"
    },
    {
      "anonymous": false,
      "inputs": [
        {
          "indexed": true,
          "internalType": "bytes32",
          "name": "namehash",
          "type": "bytes32"
        },
        {
          "indexed": false,
          "internalType": "address",
          "name": "owner",
          "type": "address"
        }
      ],
      "name": "NewOwner",
      "type": "event"
    },
    {
      "anonymous": false,
      "inputs": [
        {
          "indexed": true,
          "internalType": "bytes32",
          "name": "namehash",
          "type": "bytes32"
        },
        {
          "indexed": false,
          "internalType": "address",
          "name": "resolver",
          "type": "address"
        }
      ],
      "name": "NewRecord",
      "type": "event"
    },
    {
      "anonymous": false,
      "inputs": [
        {
          "indexed": true,
          "internalType": "bytes32",
          "name": "namehash",
          "type": "bytes32"
        },
        {
          "indexed": false,
          "internalType": "address",
          "name": "owner",
          "type": "address"
        }
      ],
      "name": "NewRegistration",
      "type": "event"
    },
    {
      "anonymous": false,
      "inputs": [
        {
          "indexed": true,
          "internalType": "bytes32",
          "name": "namehash",
          "type": "bytes32"
        },
        {
          "indexed": false,
          "internalType": "address",
          "name": "resolver",
          "type": "address"
        }
      ],
      "name": "NewResolver",
      "type": "event"
    },
    {
      "inputs": [],
      "name": "Dev",
      "outputs": [
        {
          "internalType": "address",
          "name": "",
          "type": "address"
        }
      ],
      "stateMutability": "view",
      "type": "function"
    },
    {
      "inputs": [],
      "name": "HELIX2",
      "outputs": [
        {
          "internalType": "contract iHELIX2",
          "name": "",
          "type": "address"
        }
      ],
      "stateMutability": "view",
      "type": "function"
    },
    {
      "inputs": [
        {
          "internalType": "bytes32",
          "name": "",
          "type": "bytes32"
        }
      ],
      "name": "Names",
      "outputs": [
        {
          "internalType": "address",
          "name": "_owner",
          "type": "address"
        },
        {
          "internalType": "address",
          "name": "_resolver",
          "type": "address"
        },
        {
          "internalType": "address",
          "name": "_controller",
          "type": "address"
        },
        {
          "internalType": "uint256",
          "name": "_expiry",
          "type": "uint256"
        }
      ],
      "stateMutability": "view",
      "type": "function"
    },
    {
      "inputs": [],
      "name": "active",
      "outputs": [
        {
          "internalType": "bool",
          "name": "",
          "type": "bool"
        }
      ],
      "stateMutability": "view",
      "type": "function"
    },
    {
      "inputs": [],
      "name": "basePrice",
      "outputs": [
        {
          "internalType": "uint256",
          "name": "",
          "type": "uint256"
        }
      ],
      "stateMutability": "view",
      "type": "function"
    },
    {
      "inputs": [
        {
          "internalType": "address",
          "name": "newDev",
          "type": "address"
        }
      ],
      "name": "changeDev",
      "outputs": [],
      "stateMutability": "nonpayable",
      "type": "function"
    },
    {
      "inputs": [
        {
          "internalType": "bytes32",
          "name": "namehash",
          "type": "bytes32"
        }
      ],
      "name": "controller",
      "outputs": [
        {
          "internalType": "address",
          "name": "",
          "type": "address"
        }
      ],
      "stateMutability": "view",
      "type": "function"
    },
    {
      "inputs": [
        {
          "internalType": "bytes32",
          "name": "namehash",
          "type": "bytes32"
        }
      ],
      "name": "expiry",
      "outputs": [
        {
          "internalType": "uint256",
          "name": "",
          "type": "uint256"
        }
      ],
      "stateMutability": "view",
      "type": "function"
    },
    {
      "inputs": [
        {
          "internalType": "address",
          "name": "_owner",
          "type": "address"
        },
        {
          "internalType": "address",
          "name": "operator",
          "type": "address"
        }
      ],
      "name": "isApprovedForAll",
      "outputs": [
        {
          "internalType": "bool",
          "name": "",
          "type": "bool"
        }
      ],
      "stateMutability": "view",
      "type": "function"
    },
    {
      "inputs": [
        {
          "internalType": "bytes32",
          "name": "namehash",
          "type": "bytes32"
        }
      ],
      "name": "owner",
      "outputs": [
        {
          "internalType": "address",
          "name": "",
          "type": "address"
        }
      ],
      "stateMutability": "view",
      "type": "function"
    },
    {
      "inputs": [
        {
          "internalType": "bytes32",
          "name": "namehash",
          "type": "bytes32"
        }
      ],
      "name": "recordExists",
      "outputs": [
        {
          "internalType": "bool",
          "name": "",
          "type": "bool"
        }
      ],
      "stateMutability": "view",
      "type": "function"
    },
    {
      "inputs": [
        {
          "internalType": "bytes32",
          "name": "namehash",
          "type": "bytes32"
        },
        {
          "internalType": "address",
          "name": "_owner",
          "type": "address"
        }
      ],
      "name": "register",
      "outputs": [],
      "stateMutability": "nonpayable",
      "type": "function"
    },
    {
      "inputs": [],
      "name": "registrar",
      "outputs": [
        {
          "internalType": "address",
          "name": "",
          "type": "address"
        }
      ],
      "stateMutability": "view",
      "type": "function"
    },
    {
      "inputs": [
        {
          "internalType": "bytes32",
          "name": "namehash",
          "type": "bytes32"
        }
      ],
      "name": "resolver",
      "outputs": [
        {
          "internalType": "address",
          "name": "",
          "type": "address"
        }
      ],
      "stateMutability": "view",
      "type": "function"
    },
    {
      "inputs": [],
      "name": "roothash",
      "outputs": [
        {
          "internalType": "bytes32",
          "name": "",
          "type": "bytes32"
        }
      ],
      "stateMutability": "view",
      "type": "function"
    },
    {
      "inputs": [
        {
          "internalType": "address",
          "name": "operator",
          "type": "address"
        },
        {
          "internalType": "bool",
          "name": "approved",
          "type": "bool"
        }
      ],
      "name": "setApprovalForAll",
      "outputs": [],
      "stateMutability": "payable",
      "type": "function"
    },
    {
      "inputs": [
        {
          "internalType": "bytes32",
          "name": "namehash",
          "type": "bytes32"
        },
        {
          "internalType": "address",
          "name": "_controller",
          "type": "address"
        }
      ],
      "name": "setController",
      "outputs": [],
      "stateMutability": "nonpayable",
      "type": "function"
    },
    {
      "inputs": [
        {
          "internalType": "bytes32",
          "name": "namehash",
          "type": "bytes32"
        },
        {
          "internalType": "address",
          "name": "_controller",
          "type": "address"
        }
      ],
      "name": "setControllerERC721",
      "outputs": [],
      "stateMutability": "nonpayable",
      "type": "function"
    },
    {
      "inputs": [
        {
          "internalType": "bytes32",
          "name": "namehash",
          "type": "bytes32"
        },
        {
          "internalType": "uint256",
          "name": "_expiry",
          "type": "uint256"
        }
      ],
      "name": "setExpiry",
      "outputs": [],
      "stateMutability": "payable",
      "type": "function"
    },
    {
      "inputs": [
        {
          "internalType": "bytes32",
          "name": "namehash",
          "type": "bytes32"
        },
        {
          "internalType": "address",
          "name": "_owner",
          "type": "address"
        }
      ],
      "name": "setOwner",
      "outputs": [],
      "stateMutability": "nonpayable",
      "type": "function"
    },
    {
      "inputs": [
        {
          "internalType": "bytes32",
          "name": "namehash",
          "type": "bytes32"
        },
        {
          "internalType": "address",
          "name": "_owner",
          "type": "address"
        }
      ],
      "name": "setOwnerERC721",
      "outputs": [],
      "stateMutability": "nonpayable",
      "type": "function"
    },
    {
      "inputs": [
        {
          "internalType": "bytes32",
          "name": "namehash",
          "type": "bytes32"
        },
        {
          "internalType": "address",
          "name": "_resolver",
          "type": "address"
        }
      ],
      "name": "setRecord",
      "outputs": [],
      "stateMutability": "nonpayable",
      "type": "function"
    },
    {
      "inputs": [
        {
          "internalType": "bytes32",
          "name": "namehash",
          "type": "bytes32"
        },
        {
          "internalType": "address",
          "name": "_resolver",
          "type": "address"
        }
      ],
      "name": "setResolver",
      "outputs": [],
      "stateMutability": "nonpayable",
      "type": "function"
    },
    {
      "inputs": [],
      "name": "theEnd",
      "outputs": [
        {
          "internalType": "uint256",
          "name": "",
          "type": "uint256"
        }
      ],
      "stateMutability": "view",
      "type": "function"
    },
    {
      "inputs": [],
      "name": "withdrawEther",
      "outputs": [],
      "stateMutability": "payable",
      "type": "function"
    }
  ],
  "bytecode": {
    "object": "0x60806040526001805460ff60a01b1916600160a01b1790556703782dace9d900006005553480156200003057600080fd5b5060405162001f4b38038062001f4b833981016040819052620000539162000434565b600180546001600160a01b03199081163317909155600080546001600160a01b03841692168217905560408051633215476b60e11b8152905163642a8ed6916004808201926080929091908290030181865afa158015620000b8573d6000803e3d6000fd5b505050506040513d601f19601f82011682018060405250810190620000de91906200049d565b516002556000546040805163bd9a548b60e01b815290516001600160a01b039092169163bd9a548b916004808201926080929091908290030181865afa1580156200012d573d6000803e3d6000fd5b505050506040513d601f19601f820116820180604052508101906200015391906200049d565b516003556200016162000168565b5062000542565b6001546001600160a01b03163314620001b15760405162461bcd60e51b81526020600482015260076024820152662727aa2fa222ab60c91b604482015260640160405180910390fd5b600080805260066020527f54cdd369e4e8a8515e52ca72ec816c2101831ad1f18bf44102ed171459c9b4f88054336001600160a01b031991821681179092556005547f54cdd369e4e8a8515e52ca72ec816c2101831ad1f18bf44102ed171459c9b4fb557f54cdd369e4e8a8515e52ca72ec816c2101831ad1f18bf44102ed171459c9b4fa80548216831790557f54cdd369e4e8a8515e52ca72ec816c2101831ad1f18bf44102ed171459c9b4f980549091169091179055805460408051633215476b60e11b815290516001600160a01b039092169163642a8ed6916004808201926080929091908290030181865afa158015620002b3573d6000803e3d6000fd5b505050506040513d601f19601f82011682018060405250810190620002d991906200049d565b905060005b60048110156200043057336006600084846004811062000302576200030262000504565b6020020151815260200190815260200160002060000160006101000a8154816001600160a01b0302191690836001600160a01b031602179055506005546006600084846004811062000358576200035862000504565b602002015181526020019081526020016000206003018190555033600660008484600481106200038c576200038c62000504565b6020020151815260200190815260200160002060020160006101000a8154816001600160a01b0302191690836001600160a01b031602179055503360066000848460048110620003e057620003e062000504565b6020020151815260200190815260200160002060010160006101000a8154816001600160a01b0302191690836001600160a01b03160217905550808062000427906200051a565b915050620002de565b5050565b6000602082840312156200044757600080fd5b81516001600160a01b03811681146200045f57600080fd5b9392505050565b604051608081016001600160401b03811182821017156200049757634e487b7160e01b600052604160045260246000fd5b60405290565b600060808284031215620004b057600080fd5b82601f830112620004c057600080fd5b620004ca62000466565b806080840185811115620004dd57600080fd5b845b81811015620004f9578051845260209384019301620004df565b509095945050505050565b634e487b7160e01b600052603260045260246000fd5b6000600182016200053b57634e487b7160e01b600052601160045260246000fd5b5060010190565b6119f980620005526000396000f3fe6080604052600436106101965760003560e01c806388a8c95c116100e1578063d22057a91161008a578063d9b76ed411610064578063d9b76ed4146104b1578063dbd4e021146104d1578063e985e9c5146104f1578063f79fe5381461051157600080fd5b8063d22057a914610441578063d2ec5fca14610461578063d31569051461049157600080fd5b8063b782426e116100bb578063b782426e146103eb578063be22e7561461040b578063c7876ea41461042b57600080fd5b806388a8c95c14610331578063997c9efa14610351578063a22cb465146103d857600080fd5b806322b68deb1161014357806339de64691161011d57806339de6469146102f65780635b0fc9c3146103095780637362377b1461032957600080fd5b806322b68deb1461029c578063251c9422146102c05780632b20e397146102d657600080fd5b806302571be31161017457806302571be31461021a57806302fb0c5e1461023a5780631896f70a1461027c57600080fd5b80630178b8bf1461019b57806301d49a5f146101d857806301e51ae8146101fa575b600080fd5b3480156101a757600080fd5b506101bb6101b636600461178a565b610543565b6040516001600160a01b0390911681526020015b60405180910390f35b3480156101e457600080fd5b506101f86101f33660046117b8565b6105ce565b005b34801561020657600080fd5b506001546101bb906001600160a01b031681565b34801561022657600080fd5b506101bb61023536600461178a565b610732565b34801561024657600080fd5b5060015461026c9074010000000000000000000000000000000000000000900460ff1681565b60405190151581526020016101cf565b34801561028857600080fd5b506101f86102973660046117b8565b6107c4565b3480156102a857600080fd5b506102b260055481565b6040519081526020016101cf565b3480156102cc57600080fd5b506102b260025481565b3480156102e257600080fd5b506004546101bb906001600160a01b031681565b6101f86103043660046117e8565b6109b4565b34801561031557600080fd5b506101f86103243660046117b8565b610cf9565b6101f8610e5a565b34801561033d57600080fd5b506101f861034c36600461180a565b610f00565b34801561035d57600080fd5b506103a361036c36600461178a565b60066020526000908152604090208054600182015460028301546003909301546001600160a01b0392831693918316929091169084565b6040516101cf94939291906001600160a01b039485168152928416602084015292166040820152606081019190915260800190565b6101f86103e6366004611827565b610fd0565b3480156103f757600080fd5b506000546101bb906001600160a01b031681565b34801561041757600080fd5b506101f86104263660046117b8565b61105a565b34801561043757600080fd5b506102b260035481565b34801561044d57600080fd5b506101f861045c3660046117b8565b6111b3565b34801561046d57600080fd5b506102b261047c36600461178a565b60009081526006602052604090206003015490565b34801561049d57600080fd5b506101f86104ac3660046117b8565b61130c565b3480156104bd57600080fd5b506101f86104cc3660046117b8565b6114f2565b3480156104dd57600080fd5b506101bb6104ec36600461178a565b6116d8565b3480156104fd57600080fd5b5061026c61050c36600461185a565b61175a565b34801561051d57600080fd5b5061026c61052c36600461178a565b600090815260066020526040902060030154421090565b600081815260066020526040812060030154829042106105aa5760405162461bcd60e51b815260206004820152600c60248201527f4e414d455f45585049524544000000000000000000000000000000000000000060448201526064015b60405180910390fd5b6000838152600660205260409020600101546001600160a01b031691505b50919050565b60008054906101000a90046001600160a01b03166001600160a01b0316634d3f73346040518163ffffffff1660e01b8152600401608060405180830381865afa15801561061f573d6000803e3d6000fd5b505050506040513d601f19601f820116820180604052508101906106439190611898565b516004805473ffffffffffffffffffffffffffffffffffffffff19166001600160a01b03909216918217905533146106bd5760405162461bcd60e51b815260206004820152600d60248201527f4e4f545f5245474953545241520000000000000000000000000000000000000060448201526064016105a1565b600082815260066020908152604091829020600201805473ffffffffffffffffffffffffffffffffffffffff19166001600160a01b038516908117909155915191825283917fe5108446a6097aab57fd36f346a515a78fddefa87d81662d44e0d7a463f9209591015b60405180910390a25050565b600081815260066020526040812060030154829042106107945760405162461bcd60e51b815260206004820152600c60248201527f4e414d455f45585049524544000000000000000000000000000000000000000060448201526064016105a1565b6000838152600660205260409020546001600160a01b03163081036107bd5760009250506105c8565b9392505050565b600054604080517f4d3f7334000000000000000000000000000000000000000000000000000000008152905184926001600160a01b031691634d3f73349160048083019260809291908290030181865afa158015610826573d6000803e3d6000fd5b505050506040513d601f19601f8201168201806040525081019061084a9190611898565b516004805473ffffffffffffffffffffffffffffffffffffffff19166001600160a01b039283169081179091556000838152600660205260409020549091169033148061089f57506001600160a01b03811633145b806108cd57506001600160a01b038116600090815260076020908152604080832033845290915290205460ff165b806108f157506000828152600660205260409020600201546001600160a01b031633145b61093d5760405162461bcd60e51b815260206004820152600e60248201527f4e4f545f415554484f524953454400000000000000000000000000000000000060448201526064016105a1565b600084815260066020908152604091829020600101805473ffffffffffffffffffffffffffffffffffffffff19166001600160a01b038716908117909155915191825285917f335721b01866dc23fbee8b6b2c7b1e14d6f05c28cd35a2c934239f94095602a091015b60405180910390a250505050565b600054604080517f4d3f7334000000000000000000000000000000000000000000000000000000008152905184926001600160a01b031691634d3f73349160048083019260809291908290030181865afa158015610a16573d6000803e3d6000fd5b505050506040513d601f19601f82011682018060405250810190610a3a9190611898565b516004805473ffffffffffffffffffffffffffffffffffffffff19166001600160a01b0392831690811790915560008381526006602052604090205490911690331480610a8f57506001600160a01b03811633145b80610abd57506001600160a01b038116600090815260076020908152604080832033845290915290205460ff165b80610ae157506000828152600660205260409020600201546001600160a01b031633145b610b2d5760405162461bcd60e51b815260206004820152600e60248201527f4e4f545f415554484f524953454400000000000000000000000000000000000060448201526064016105a1565b6000848152600660205260409020600301548311610b8d5760405162461bcd60e51b815260206004820152600a60248201527f4241445f4558504952590000000000000000000000000000000000000000000060448201526064016105a1565b60008054906101000a90046001600160a01b03166001600160a01b0316634d3f73346040518163ffffffff1660e01b8152600401608060405180830381865afa158015610bde573d6000803e3d6000fd5b505050506040513d601f19601f82011682018060405250810190610c029190611898565b516004805473ffffffffffffffffffffffffffffffffffffffff19166001600160a01b0390921691821790553314610cb157600084815260066020526040812060030154610c509085611973565b905060035481610c609190611986565b341015610caf5760405162461bcd60e51b815260206004820152601260248201527f494e53554646494349454e545f4554484552000000000000000000000000000060448201526064016105a1565b505b600084815260066020526040908190206003018490555184907fa620b72378ee464490805a96e25b53e5c0076f0ce2d28f9691ae255a595b3bf3906109a69086815260200190565b60008281526006602052604090206003015482904210610d5b5760405162461bcd60e51b815260206004820152600c60248201527f4e414d455f45585049524544000000000000000000000000000000000000000060448201526064016105a1565b6000818152600660205260409020546001600160a01b031633811480610da457506001600160a01b038116600090815260076020908152604080832033845290915290205460ff165b610df05760405162461bcd60e51b815260206004820152600960248201527f4e4f545f4f574e4552000000000000000000000000000000000000000000000060448201526064016105a1565b600084815260066020908152604091829020805473ffffffffffffffffffffffffffffffffffffffff19166001600160a01b038716908117909155915191825285917f52cfe144bbaaed60759c6425b5bdfcebf7736889a75f9de7cd4cf30c7a6b807891016109a6565b6001546040516000916001600160a01b03169047908381818185875af1925050503d8060008114610ea7576040519150601f19603f3d011682016040523d82523d6000602084013e610eac565b606091505b5050905080610efd5760405162461bcd60e51b815260206004820152601360248201527f4554485f5452414e534645525f4641494c45440000000000000000000000000060448201526064016105a1565b50565b6001546001600160a01b03163314610f5a5760405162461bcd60e51b815260206004820152600760248201527f4e4f545f4445560000000000000000000000000000000000000000000000000060448201526064016105a1565b600154604080516001600160a01b03928316815291831660208301527fdec101f106d4fc7c85791843e64b198248c822298e3ed7046231d33f7783d816910160405180910390a16001805473ffffffffffffffffffffffffffffffffffffffff19166001600160a01b0392909216919091179055565b3360008181526007602090815260408083206001600160a01b0387168085529083529281902080547fffffffffffffffffffffffffffffffffffffffffffffffffffffffffffffff001686151590811790915590519081529192917f17307eab39ab6107e8899845ad3d59bd9653f200f220920489ca2b5937696c31910160405180910390a35050565b60008054906101000a90046001600160a01b03166001600160a01b0316634d3f73346040518163ffffffff1660e01b8152600401608060405180830381865afa1580156110ab573d6000803e3d6000fd5b505050506040513d601f19601f820116820180604052508101906110cf9190611898565b516004805473ffffffffffffffffffffffffffffffffffffffff19166001600160a01b03909216918217905533146111495760405162461bcd60e51b815260206004820152600d60248201527f4e4f545f5245474953545241520000000000000000000000000000000000000060448201526064016105a1565b600082815260066020908152604091829020805473ffffffffffffffffffffffffffffffffffffffff19166001600160a01b038516908117909155915191825283917f52cfe144bbaaed60759c6425b5bdfcebf7736889a75f9de7cd4cf30c7a6b80789101610726565b60008054906101000a90046001600160a01b03166001600160a01b0316634d3f73346040518163ffffffff1660e01b8152600401608060405180830381865afa158015611204573d6000803e3d6000fd5b505050506040513d601f19601f820116820180604052508101906112289190611898565b516004805473ffffffffffffffffffffffffffffffffffffffff19166001600160a01b03909216918217905533146112a25760405162461bcd60e51b815260206004820152600d60248201527f4e4f545f5245474953545241520000000000000000000000000000000000000060448201526064016105a1565b600082815260066020908152604091829020805473ffffffffffffffffffffffffffffffffffffffff19166001600160a01b038516908117909155915191825283917f734ba0462050e5425bb227eb0b80ce09a9de46c14e7eeb77e9b0c54deaca02469101610726565b600054604080517f4d3f7334000000000000000000000000000000000000000000000000000000008152905184926001600160a01b031691634d3f73349160048083019260809291908290030181865afa15801561136e573d6000803e3d6000fd5b505050506040513d601f19601f820116820180604052508101906113929190611898565b516004805473ffffffffffffffffffffffffffffffffffffffff19166001600160a01b03928316908117909155600083815260066020526040902054909116903314806113e757506001600160a01b03811633145b8061141557506001600160a01b038116600090815260076020908152604080832033845290915290205460ff165b8061143957506000828152600660205260409020600201546001600160a01b031633145b6114855760405162461bcd60e51b815260206004820152600e60248201527f4e4f545f415554484f524953454400000000000000000000000000000000000060448201526064016105a1565b600084815260066020908152604091829020600201805473ffffffffffffffffffffffffffffffffffffffff19166001600160a01b038716908117909155915191825285917fe5108446a6097aab57fd36f346a515a78fddefa87d81662d44e0d7a463f9209591016109a6565b600054604080517f4d3f7334000000000000000000000000000000000000000000000000000000008152905184926001600160a01b031691634d3f73349160048083019260809291908290030181865afa158015611554573d6000803e3d6000fd5b505050506040513d601f19601f820116820180604052508101906115789190611898565b516004805473ffffffffffffffffffffffffffffffffffffffff19166001600160a01b03928316908117909155600083815260066020526040902054909116903314806115cd57506001600160a01b03811633145b806115fb57506001600160a01b038116600090815260076020908152604080832033845290915290205460ff165b8061161f57506000828152600660205260409020600201546001600160a01b031633145b61166b5760405162461bcd60e51b815260206004820152600e60248201527f4e4f545f415554484f524953454400000000000000000000000000000000000060448201526064016105a1565b600084815260066020908152604091829020600101805473ffffffffffffffffffffffffffffffffffffffff19166001600160a01b038716908117909155915191825285917fcb71326aeaad88869e8be8be2893e1119f7617ce4ea2411af127e218909be1f791016109a6565b6000818152600660205260408120600301548290421061173a5760405162461bcd60e51b815260206004820152600c60248201527f4e414d455f45585049524544000000000000000000000000000000000000000060448201526064016105a1565b50506000908152600660205260409020600201546001600160a01b031690565b6001600160a01b0380831660009081526007602090815260408083209385168352929052205460ff165b92915050565b60006020828403121561179c57600080fd5b5035919050565b6001600160a01b0381168114610efd57600080fd5b600080604083850312156117cb57600080fd5b8235915060208301356117dd816117a3565b809150509250929050565b600080604083850312156117fb57600080fd5b50508035926020909101359150565b60006020828403121561181c57600080fd5b81356107bd816117a3565b6000806040838503121561183a57600080fd5b8235611845816117a3565b9150602083013580151581146117dd57600080fd5b6000806040838503121561186d57600080fd5b8235611878816117a3565b915060208301356117dd816117a3565b8051611893816117a3565b919050565b6000608082840312156118aa57600080fd5b82601f8301126118b957600080fd5b6040516080810181811067ffffffffffffffff82111715611903577f4e487b7100000000000000000000000000000000000000000000000000000000600052604160045260246000fd5b60405280608084018581111561191857600080fd5b845b818110156119395761192b81611888565b83526020928301920161191a565b509195945050505050565b7f4e487b7100000000000000000000000000000000000000000000000000000000600052601160045260246000fd5b8181038181111561178457611784611944565b6000817fffffffffffffffffffffffffffffffffffffffffffffffffffffffffffffffff04831182151516156119be576119be611944565b50029056fea2646970667358221220870657abc7e8076a34592a1cf542fdae514778905327a16c77f419992d49b88064736f6c63430008100033",
    "linkReferences": {}
  },
  "methodIdentifiers": {
    "Dev()": "01e51ae8",
    "HELIX2()": "b782426e",
    "Names(bytes32)": "997c9efa",
    "active()": "02fb0c5e",
    "basePrice()": "c7876ea4",
    "changeDev(address)": "88a8c95c",
    "controller(bytes32)": "dbd4e021",
    "expiry(bytes32)": "d2ec5fca",
    "isApprovedForAll(address,address)": "e985e9c5",
    "owner(bytes32)": "02571be3",
    "recordExists(bytes32)": "f79fe538",
    "register(bytes32,address)": "d22057a9",
    "registrar()": "2b20e397",
    "resolver(bytes32)": "0178b8bf",
    "roothash()": "251c9422",
    "setApprovalForAll(address,bool)": "a22cb465",
    "setController(bytes32,address)": "d3156905",
    "setControllerERC721(bytes32,address)": "01d49a5f",
    "setExpiry(bytes32,uint256)": "39de6469",
    "setOwner(bytes32,address)": "5b0fc9c3",
    "setOwnerERC721(bytes32,address)": "be22e756",
    "setRecord(bytes32,address)": "d9b76ed4",
    "setResolver(bytes32,address)": "1896f70a",
    "theEnd()": "22b68deb",
    "withdrawEther()": "7362377b"
  },
  "id": 27
}