{
  "abi": [
    {
      "inputs": [
        {
          "internalType": "address",
          "name": "_helix2",
          "type": "address"
        }
      ],
      "stateMutability": "nonpayable",
      "type": "constructor"
    },
    {
      "anonymous": false,
      "inputs": [
        {
          "indexed": true,
          "internalType": "address",
          "name": "owner",
          "type": "address"
        },
        {
          "indexed": true,
          "internalType": "address",
          "name": "spender",
          "type": "address"
        },
        {
          "indexed": true,
          "internalType": "uint256",
          "name": "tokenID",
          "type": "uint256"
        }
      ],
      "name": "Approval",
      "type": "event"
    },
    {
      "anonymous": false,
      "inputs": [
        {
          "indexed": true,
          "internalType": "address",
          "name": "owner",
          "type": "address"
        },
        {
          "indexed": true,
          "internalType": "address",
          "name": "operator",
          "type": "address"
        },
        {
          "indexed": false,
          "internalType": "bool",
          "name": "approved",
          "type": "bool"
        }
      ],
      "name": "ApprovalForAll",
      "type": "event"
    },
    {
      "anonymous": false,
      "inputs": [
        {
          "indexed": true,
          "internalType": "bytes32",
          "name": "namehash",
          "type": "bytes32"
        },
        {
          "indexed": false,
          "internalType": "address",
          "name": "controller",
          "type": "address"
        }
      ],
      "name": "NewController",
      "type": "event"
    },
    {
      "anonymous": false,
      "inputs": [
        {
          "indexed": false,
          "internalType": "address",
          "name": "Dev",
          "type": "address"
        },
        {
          "indexed": false,
          "internalType": "address",
          "name": "newDev",
          "type": "address"
        }
      ],
      "name": "NewDev",
      "type": "event"
    },
    {
      "anonymous": false,
      "inputs": [
        {
          "indexed": true,
          "internalType": "bytes32",
          "name": "namehash",
          "type": "bytes32"
        },
        {
          "indexed": false,
          "internalType": "uint256",
          "name": "expiry",
          "type": "uint256"
        }
      ],
      "name": "NewExpiry",
      "type": "event"
    },
    {
      "anonymous": false,
      "inputs": [
        {
          "indexed": true,
          "internalType": "bytes32",
          "name": "namehash",
          "type": "bytes32"
        },
        {
          "indexed": false,
          "internalType": "address",
          "name": "owner",
          "type": "address"
        }
      ],
      "name": "NewName",
      "type": "event"
    },
    {
      "anonymous": false,
      "inputs": [
        {
          "indexed": true,
          "internalType": "bytes32",
          "name": "namehash",
          "type": "bytes32"
        },
        {
          "indexed": false,
          "internalType": "address",
          "name": "owner",
          "type": "address"
        }
      ],
      "name": "NewOwner",
      "type": "event"
    },
    {
      "anonymous": false,
      "inputs": [
        {
          "indexed": true,
          "internalType": "bytes32",
          "name": "namehash",
          "type": "bytes32"
        },
        {
          "indexed": false,
          "internalType": "address",
          "name": "resolver",
          "type": "address"
        }
      ],
      "name": "NewRecord",
      "type": "event"
    },
    {
      "anonymous": false,
      "inputs": [
        {
          "indexed": true,
          "internalType": "bytes32",
          "name": "namehash",
          "type": "bytes32"
        },
        {
          "indexed": false,
          "internalType": "address",
          "name": "owner",
          "type": "address"
        }
      ],
      "name": "NewRegistration",
      "type": "event"
    },
    {
      "anonymous": false,
      "inputs": [
        {
          "indexed": true,
          "internalType": "bytes32",
          "name": "namehash",
          "type": "bytes32"
        },
        {
          "indexed": false,
          "internalType": "address",
          "name": "resolver",
          "type": "address"
        }
      ],
      "name": "NewResolver",
      "type": "event"
    },
    {
      "anonymous": false,
      "inputs": [
        {
          "indexed": true,
          "internalType": "address",
          "name": "from",
          "type": "address"
        },
        {
          "indexed": true,
          "internalType": "address",
          "name": "to",
          "type": "address"
        },
        {
          "indexed": true,
          "internalType": "uint256",
          "name": "tokenID",
          "type": "uint256"
        }
      ],
      "name": "Transfer",
      "type": "event"
    },
    {
      "inputs": [],
      "name": "Dev",
      "outputs": [
        {
          "internalType": "address",
          "name": "",
          "type": "address"
        }
      ],
      "stateMutability": "view",
      "type": "function"
    },
    {
      "inputs": [],
      "name": "ERC721",
      "outputs": [
        {
          "internalType": "contract iERC721",
          "name": "",
          "type": "address"
        }
      ],
      "stateMutability": "view",
      "type": "function"
    },
    {
      "inputs": [],
      "name": "HELIX2",
      "outputs": [
        {
          "internalType": "contract iHELIX2",
          "name": "",
          "type": "address"
        }
      ],
      "stateMutability": "view",
      "type": "function"
    },
    {
      "inputs": [
        {
          "internalType": "bytes32",
          "name": "",
          "type": "bytes32"
        }
      ],
      "name": "Names",
      "outputs": [
        {
          "internalType": "address",
          "name": "_owner",
          "type": "address"
        },
        {
          "internalType": "address",
          "name": "_resolver",
          "type": "address"
        },
        {
          "internalType": "address",
          "name": "_controller",
          "type": "address"
        },
        {
          "internalType": "uint256",
          "name": "_expiry",
          "type": "uint256"
        }
      ],
      "stateMutability": "view",
      "type": "function"
    },
    {
      "inputs": [],
      "name": "Registrar",
      "outputs": [
        {
          "internalType": "address",
          "name": "",
          "type": "address"
        }
      ],
      "stateMutability": "view",
      "type": "function"
    },
    {
      "inputs": [],
      "name": "_NAME_",
      "outputs": [
        {
          "internalType": "contract iNAME",
          "name": "",
          "type": "address"
        }
      ],
      "stateMutability": "view",
      "type": "function"
    },
    {
      "inputs": [],
      "name": "active",
      "outputs": [
        {
          "internalType": "bool",
          "name": "",
          "type": "bool"
        }
      ],
      "stateMutability": "view",
      "type": "function"
    },
    {
      "inputs": [],
      "name": "basePrice",
      "outputs": [
        {
          "internalType": "uint256",
          "name": "",
          "type": "uint256"
        }
      ],
      "stateMutability": "view",
      "type": "function"
    },
    {
      "inputs": [
        {
          "internalType": "address",
          "name": "newDev",
          "type": "address"
        }
      ],
      "name": "changeDev",
      "outputs": [],
      "stateMutability": "nonpayable",
      "type": "function"
    },
    {
      "inputs": [
        {
          "internalType": "bytes32",
          "name": "namehash",
          "type": "bytes32"
        }
      ],
      "name": "controller",
      "outputs": [
        {
          "internalType": "address",
          "name": "",
          "type": "address"
        }
      ],
      "stateMutability": "view",
      "type": "function"
    },
    {
      "inputs": [
        {
          "internalType": "bytes32",
          "name": "namehash",
          "type": "bytes32"
        }
      ],
      "name": "expiry",
      "outputs": [
        {
          "internalType": "uint256",
          "name": "",
          "type": "uint256"
        }
      ],
      "stateMutability": "view",
      "type": "function"
    },
    {
      "inputs": [
        {
          "internalType": "address",
          "name": "_owner",
          "type": "address"
        },
        {
          "internalType": "address",
          "name": "operator",
          "type": "address"
        }
      ],
      "name": "isApprovedForAll",
      "outputs": [
        {
          "internalType": "bool",
          "name": "",
          "type": "bool"
        }
      ],
      "stateMutability": "view",
      "type": "function"
    },
    {
      "inputs": [
        {
          "internalType": "bytes32",
          "name": "namehash",
          "type": "bytes32"
        }
      ],
      "name": "owner",
      "outputs": [
        {
          "internalType": "address",
          "name": "",
          "type": "address"
        }
      ],
      "stateMutability": "view",
      "type": "function"
    },
    {
      "inputs": [
        {
          "internalType": "bytes32",
          "name": "namehash",
          "type": "bytes32"
        }
      ],
      "name": "recordExists",
      "outputs": [
        {
          "internalType": "bool",
          "name": "",
          "type": "bool"
        }
      ],
      "stateMutability": "view",
      "type": "function"
    },
    {
      "inputs": [
        {
          "internalType": "bytes32",
          "name": "namehash",
          "type": "bytes32"
        },
        {
          "internalType": "address",
          "name": "_owner",
          "type": "address"
        }
      ],
      "name": "register",
      "outputs": [],
      "stateMutability": "nonpayable",
      "type": "function"
    },
    {
      "inputs": [
        {
          "internalType": "bytes32",
          "name": "namehash",
          "type": "bytes32"
        },
        {
          "internalType": "uint256",
          "name": "_expiry",
          "type": "uint256"
        }
      ],
      "name": "renew",
      "outputs": [],
      "stateMutability": "payable",
      "type": "function"
    },
    {
      "inputs": [
        {
          "internalType": "bytes32",
          "name": "namehash",
          "type": "bytes32"
        }
      ],
      "name": "resolver",
      "outputs": [
        {
          "internalType": "address",
          "name": "",
          "type": "address"
        }
      ],
      "stateMutability": "view",
      "type": "function"
    },
    {
      "inputs": [],
      "name": "roothash",
      "outputs": [
        {
          "internalType": "bytes32",
          "name": "",
          "type": "bytes32"
        }
      ],
      "stateMutability": "view",
      "type": "function"
    },
    {
      "inputs": [
        {
          "internalType": "address",
          "name": "operator",
          "type": "address"
        },
        {
          "internalType": "bool",
          "name": "approved",
          "type": "bool"
        }
      ],
      "name": "setApprovalForAll",
      "outputs": [],
      "stateMutability": "nonpayable",
      "type": "function"
    },
    {
      "inputs": [
        {
          "internalType": "bytes32",
          "name": "namehash",
          "type": "bytes32"
        },
        {
          "internalType": "address",
          "name": "_controller",
          "type": "address"
        }
      ],
      "name": "setController",
      "outputs": [],
      "stateMutability": "nonpayable",
      "type": "function"
    },
    {
      "inputs": [
        {
          "internalType": "bytes32",
          "name": "namehash",
          "type": "bytes32"
        },
        {
          "internalType": "address",
          "name": "_controller",
          "type": "address"
        }
      ],
      "name": "setControllerERC721",
      "outputs": [],
      "stateMutability": "nonpayable",
      "type": "function"
    },
    {
      "inputs": [
        {
          "internalType": "bytes32",
          "name": "namehash",
          "type": "bytes32"
        },
        {
          "internalType": "uint256",
          "name": "_expiry",
          "type": "uint256"
        }
      ],
      "name": "setExpiry",
      "outputs": [],
      "stateMutability": "nonpayable",
      "type": "function"
    },
    {
      "inputs": [
        {
          "internalType": "bytes32",
          "name": "namehash",
          "type": "bytes32"
        },
        {
          "internalType": "address",
          "name": "_owner",
          "type": "address"
        }
      ],
      "name": "setOwner",
      "outputs": [],
      "stateMutability": "nonpayable",
      "type": "function"
    },
    {
      "inputs": [
        {
          "internalType": "bytes32",
          "name": "namehash",
          "type": "bytes32"
        },
        {
          "internalType": "address",
          "name": "_owner",
          "type": "address"
        }
      ],
      "name": "setOwnerERC721",
      "outputs": [],
      "stateMutability": "nonpayable",
      "type": "function"
    },
    {
      "inputs": [
        {
          "internalType": "bytes32",
          "name": "namehash",
          "type": "bytes32"
        },
        {
          "internalType": "address",
          "name": "_resolver",
          "type": "address"
        }
      ],
      "name": "setRecord",
      "outputs": [],
      "stateMutability": "nonpayable",
      "type": "function"
    },
    {
      "inputs": [
        {
          "internalType": "bytes32",
          "name": "namehash",
          "type": "bytes32"
        },
        {
          "internalType": "address",
          "name": "_resolver",
          "type": "address"
        }
      ],
      "name": "setResolver",
      "outputs": [],
      "stateMutability": "nonpayable",
      "type": "function"
    },
    {
      "inputs": [],
      "name": "theEnd",
      "outputs": [
        {
          "internalType": "uint256",
          "name": "",
          "type": "uint256"
        }
      ],
      "stateMutability": "view",
      "type": "function"
    },
    {
      "inputs": [],
      "name": "withdrawEther",
      "outputs": [],
      "stateMutability": "nonpayable",
      "type": "function"
    }
  ],
  "bytecode": {
    "object": "0x60806040526003805460ff60a01b1916600160a01b1790556703782dace9d900006007553480156200003057600080fd5b50604051620025d3380380620025d3833981016040819052620000539162000432565b600380546001600160a01b03199081163317909155600080546001600160a01b03841692168217905560408051633215476b60e11b8152905163642a8ed6916004808201926080929091908290030181865afa158015620000b8573d6000803e3d6000fd5b505050506040513d601f19601f82011682018060405250810190620000de91906200049b565b5160049081556000546040805163bd9a548b60e01b815290516001600160a01b039092169263bd9a548b9282820192608092908290030181865afa1580156200012b573d6000803e3d6000fd5b505050506040513d601f19601f820116820180604052508101906200015191906200049b565b516005556200015f62000166565b5062000540565b6003546001600160a01b03163314620001af5760405162461bcd60e51b81526020600482015260076024820152662727aa2fa222ab60c91b604482015260640160405180910390fd5b600080805260086020527f5eff886ea0ce6ca488a3d6e336d6c0f75f46d19b42c06ce5ee98e42c96d256c78054336001600160a01b031991821681179092556007547f5eff886ea0ce6ca488a3d6e336d6c0f75f46d19b42c06ce5ee98e42c96d256ca557f5eff886ea0ce6ca488a3d6e336d6c0f75f46d19b42c06ce5ee98e42c96d256c980548216831790557f5eff886ea0ce6ca488a3d6e336d6c0f75f46d19b42c06ce5ee98e42c96d256c880549091169091179055805460408051633215476b60e11b815290516001600160a01b039092169163642a8ed6916004808201926080929091908290030181865afa158015620002b1573d6000803e3d6000fd5b505050506040513d601f19601f82011682018060405250810190620002d791906200049b565b905060005b60048110156200042e57336008600084846004811062000300576200030062000502565b6020020151815260200190815260200160002060000160006101000a8154816001600160a01b0302191690836001600160a01b031602179055506007546008600084846004811062000356576200035662000502565b602002015181526020019081526020016000206003018190555033600860008484600481106200038a576200038a62000502565b6020020151815260200190815260200160002060020160006101000a8154816001600160a01b0302191690836001600160a01b031602179055503360086000848460048110620003de57620003de62000502565b6020020151815260200190815260200160002060010160006101000a8154816001600160a01b0302191690836001600160a01b031602179055508080620004259062000518565b915050620002dc565b5050565b6000602082840312156200044557600080fd5b81516001600160a01b03811681146200045d57600080fd5b9392505050565b604051608081016001600160401b03811182821017156200049557634e487b7160e01b600052604160045260246000fd5b60405290565b600060808284031215620004ae57600080fd5b82601f830112620004be57600080fd5b620004c862000464565b806080840185811115620004db57600080fd5b845b81811015620004f7578051845260209384019301620004dd565b509095945050505050565b634e487b7160e01b600052603260045260246000fd5b6000600182016200053957634e487b7160e01b600052601160045260246000fd5b5060010190565b61208380620005506000396000f3fe6080604052600436106101b75760003560e01c8063997c9efa116100ec578063d2ec5fca1161008a578063dbd4e02111610064578063dbd4e02114610559578063e985e9c514610579578063f544d82f146105c2578063f79fe538146105d557600080fd5b8063d2ec5fca146104e9578063d315690514610519578063d9b76ed41461053957600080fd5b8063b9f37c86116100c6578063b9f37c8614610473578063be22e75614610493578063c7876ea4146104b3578063d22057a9146104c957600080fd5b8063997c9efa146103ac578063a22cb46514610433578063b782426e1461045357600080fd5b806322b68deb116101595780635b0fc9c3116101335780635b0fc9c3146103375780637362377b146103575780638425abff1461036c57806388a8c95c1461038c57600080fd5b806322b68deb146102dd578063251c94221461030157806339de64691461031757600080fd5b806302571be31161019557806302571be31461023b57806302fb0c5e1461025b5780631896f70a1461029d5780631e44663f146102bd57600080fd5b80630178b8bf146101bc57806301d49a5f146101f957806301e51ae81461021b575b600080fd5b3480156101c857600080fd5b506101dc6101d7366004611de1565b610607565b6040516001600160a01b0390911681526020015b60405180910390f35b34801561020557600080fd5b50610219610214366004611e0f565b61068e565b005b34801561022757600080fd5b506003546101dc906001600160a01b031681565b34801561024757600080fd5b506101dc610256366004611de1565b6107f2565b34801561026757600080fd5b5060035461028d9074010000000000000000000000000000000000000000900460ff1681565b60405190151581526020016101f0565b3480156102a957600080fd5b506102196102b8366004611e0f565b610820565b3480156102c957600080fd5b506001546101dc906001600160a01b031681565b3480156102e957600080fd5b506102f360075481565b6040519081526020016101f0565b34801561030d57600080fd5b506102f360045481565b34801561032357600080fd5b50610219610332366004611e3f565b610a10565b34801561034357600080fd5b50610219610352366004611e0f565b610ba7565b34801561036357600080fd5b50610219611099565b34801561037857600080fd5b506002546101dc906001600160a01b031681565b34801561039857600080fd5b506102196103a7366004611e61565b61113f565b3480156103b857600080fd5b506103fe6103c7366004611de1565b60086020526000908152604090208054600182015460028301546003909301546001600160a01b0392831693918316929091169084565b6040516101f094939291906001600160a01b039485168152928416602084015292166040820152606081019190915260800190565b34801561043f57600080fd5b5061021961044e366004611e85565b61120f565b34801561045f57600080fd5b506000546101dc906001600160a01b031681565b34801561047f57600080fd5b506006546101dc906001600160a01b031681565b34801561049f57600080fd5b506102196104ae366004611e0f565b611299565b3480156104bf57600080fd5b506102f360055481565b3480156104d557600080fd5b506102196104e4366004611e0f565b611448565b3480156104f557600080fd5b506102f3610504366004611de1565b60009081526008602052604090206003015490565b34801561052557600080fd5b50610219610534366004611e0f565b61166d565b34801561054557600080fd5b50610219610554366004611e0f565b611899565b34801561056557600080fd5b506101dc610574366004611de1565b611a7f565b34801561058557600080fd5b5061028d610594366004611eb8565b6001600160a01b03918216600090815260096020908152604080832093909416825291909152205460ff1690565b6102196105d0366004611e3f565b611b01565b3480156105e157600080fd5b5061028d6105f0366004611de1565b600090815260086020526040902060030154421090565b6000818152600860205260408120600301548290421061066e5760405162461bcd60e51b815260206004820152600c60248201527f4e414d455f45585049524544000000000000000000000000000000000000000060448201526064015b60405180910390fd5b50506000908152600860205260409020600101546001600160a01b031690565b60008054906101000a90046001600160a01b03166001600160a01b0316634d3f73346040518163ffffffff1660e01b8152600401608060405180830381865afa1580156106df573d6000803e3d6000fd5b505050506040513d601f19601f820116820180604052508101906107039190611ef6565b516006805473ffffffffffffffffffffffffffffffffffffffff19166001600160a01b039092169182179055331461077d5760405162461bcd60e51b815260206004820152600d60248201527f4e4f545f524547495354524152000000000000000000000000000000000000006044820152606401610665565b600082815260086020908152604091829020600201805473ffffffffffffffffffffffffffffffffffffffff19166001600160a01b038516908117909155915191825283917fe5108446a6097aab57fd36f346a515a78fddefa87d81662d44e0d7a463f9209591015b60405180910390a25050565b6000818152600860205260408120546001600160a01b031630810361081a5750600092915050565b92915050565b600054604080517f4d3f7334000000000000000000000000000000000000000000000000000000008152905184926001600160a01b031691634d3f73349160048083019260809291908290030181865afa158015610882573d6000803e3d6000fd5b505050506040513d601f19601f820116820180604052508101906108a69190611ef6565b516006805473ffffffffffffffffffffffffffffffffffffffff19166001600160a01b03928316908117909155600083815260086020526040902054909116903314806108fb57506001600160a01b03811633145b8061092957506001600160a01b038116600090815260096020908152604080832033845290915290205460ff165b8061094d57506000828152600860205260409020600201546001600160a01b031633145b6109995760405162461bcd60e51b815260206004820152600e60248201527f4e4f545f415554484f52495345440000000000000000000000000000000000006044820152606401610665565b600084815260086020908152604091829020600101805473ffffffffffffffffffffffffffffffffffffffff19166001600160a01b038716908117909155915191825285917f335721b01866dc23fbee8b6b2c7b1e14d6f05c28cd35a2c934239f94095602a091015b60405180910390a250505050565b60008054906101000a90046001600160a01b03166001600160a01b0316634d3f73346040518163ffffffff1660e01b8152600401608060405180830381865afa158015610a61573d6000803e3d6000fd5b505050506040513d601f19601f82011682018060405250810190610a859190611ef6565b516006805473ffffffffffffffffffffffffffffffffffffffff19166001600160a01b0390921691821790553314610aff5760405162461bcd60e51b815260206004820152600d60248201527f4e4f545f524547495354524152000000000000000000000000000000000000006044820152606401610665565b6000828152600860205260409020600301548111610b5f5760405162461bcd60e51b815260206004820152600a60248201527f4241445f455850495259000000000000000000000000000000000000000000006044820152606401610665565b600082815260086020526040908190206003018290555182907fa620b72378ee464490805a96e25b53e5c0076f0ce2d28f9691ae255a595b3bf3906107e69084815260200190565b60008281526008602052604090206003015482904210610c095760405162461bcd60e51b815260206004820152600c60248201527f4e414d455f4558504952454400000000000000000000000000000000000000006044820152606401610665565b6000818152600860205260409020546001600160a01b031633811480610c5257506001600160a01b038116600090815260096020908152604080832033845290915290205460ff165b610c9e5760405162461bcd60e51b815260206004820152600960248201527f4e4f545f4f574e455200000000000000000000000000000000000000000000006044820152606401610665565b6001600160a01b038316610cf45760405162461bcd60e51b815260206004820152600b60248201527f43414e4e4f545f4255524e0000000000000000000000000000000000000000006044820152606401610665565b60008481526008602052604080822054915481517f4d3f733400000000000000000000000000000000000000000000000000000000815291516001600160a01b039384169390911691634d3f73349160048083019260809291908290030181865afa158015610d67573d6000803e3d6000fd5b505050506040513d601f19601f82011682018060405250810190610d8b9190611ef6565b51600680546001600160a01b0392831673ffffffffffffffffffffffffffffffffffffffff199182168117909255600180548216831781556002805490921683179091556040517f70a082310000000000000000000000000000000000000000000000000000000081529284166004840152909163e30443bc91849184906370a0823190602401602060405180830381865afa158015610e2f573d6000803e3d6000fd5b505050506040513d601f19601f82011682018060405250810190610e539190611fa2565b610e5d9190611fea565b6040517fffffffff0000000000000000000000000000000000000000000000000000000060e085901b1681526001600160a01b0390921660048301526024820152604401600060405180830381600087803b158015610ebb57600080fd5b505af1158015610ecf573d6000803e3d6000fd5b50506001546002546040517f70a082310000000000000000000000000000000000000000000000000000000081526001600160a01b038981166004830152928316945063e30443bc93508892909116906370a0823190602401602060405180830381865afa158015610f45573d6000803e3d6000fd5b505050506040513d601f19601f82011682018060405250810190610f699190611fa2565b610f74906001611ffd565b6040517fffffffff0000000000000000000000000000000000000000000000000000000060e085901b1681526001600160a01b0390921660048301526024820152604401600060405180830381600087803b158015610fd257600080fd5b505af1158015610fe6573d6000803e3d6000fd5b50506040518792506001600160a01b0380881692508416907fddf252ad1be2c89b69c2b068fc378daa952ba7f163c4a11628f55a4df523b3ef90600090a4600085815260086020908152604091829020805473ffffffffffffffffffffffffffffffffffffffff19166001600160a01b038816908117909155915191825286917f52cfe144bbaaed60759c6425b5bdfcebf7736889a75f9de7cd4cf30c7a6b807891015b60405180910390a25050505050565b6003546040516000916001600160a01b03169047908381818185875af1925050503d80600081146110e6576040519150601f19603f3d011682016040523d82523d6000602084013e6110eb565b606091505b505090508061113c5760405162461bcd60e51b815260206004820152601360248201527f4554485f5452414e534645525f4641494c4544000000000000000000000000006044820152606401610665565b50565b6003546001600160a01b031633146111995760405162461bcd60e51b815260206004820152600760248201527f4e4f545f444556000000000000000000000000000000000000000000000000006044820152606401610665565b600354604080516001600160a01b03928316815291831660208301527fdec101f106d4fc7c85791843e64b198248c822298e3ed7046231d33f7783d816910160405180910390a16003805473ffffffffffffffffffffffffffffffffffffffff19166001600160a01b0392909216919091179055565b3360008181526009602090815260408083206001600160a01b0387168085529083529281902080547fffffffffffffffffffffffffffffffffffffffffffffffffffffffffffffff001686151590811790915590519081529192917f17307eab39ab6107e8899845ad3d59bd9653f200f220920489ca2b5937696c31910160405180910390a35050565b60008054906101000a90046001600160a01b03166001600160a01b0316634d3f73346040518163ffffffff1660e01b8152600401608060405180830381865afa1580156112ea573d6000803e3d6000fd5b505050506040513d601f19601f8201168201806040525081019061130e9190611ef6565b516006805473ffffffffffffffffffffffffffffffffffffffff19166001600160a01b03909216918217905533146113885760405162461bcd60e51b815260206004820152600d60248201527f4e4f545f524547495354524152000000000000000000000000000000000000006044820152606401610665565b6001600160a01b0381166113de5760405162461bcd60e51b815260206004820152600b60248201527f43414e4e4f545f4255524e0000000000000000000000000000000000000000006044820152606401610665565b600082815260086020908152604091829020805473ffffffffffffffffffffffffffffffffffffffff19166001600160a01b038516908117909155915191825283917f52cfe144bbaaed60759c6425b5bdfcebf7736889a75f9de7cd4cf30c7a6b807891016107e6565b60008054906101000a90046001600160a01b03166001600160a01b0316634d3f73346040518163ffffffff1660e01b8152600401608060405180830381865afa158015611499573d6000803e3d6000fd5b505050506040513d601f19601f820116820180604052508101906114bd9190611ef6565b516006805473ffffffffffffffffffffffffffffffffffffffff19166001600160a01b03909216918217905533146115375760405162461bcd60e51b815260206004820152600d60248201527f4e4f545f524547495354524152000000000000000000000000000000000000006044820152606401610665565b6001600160a01b03811661158d5760405162461bcd60e51b815260206004820152600b60248201527f43414e4e4f545f4255524e0000000000000000000000000000000000000000006044820152606401610665565b60405182906001600160a01b038316906000907fddf252ad1be2c89b69c2b068fc378daa952ba7f163c4a11628f55a4df523b3ef908290a4600082815260086020908152604091829020805473ffffffffffffffffffffffffffffffffffffffff19166001600160a01b038516908117909155915191825283917f52cfe144bbaaed60759c6425b5bdfcebf7736889a75f9de7cd4cf30c7a6b8078910160405180910390a26040516001600160a01b038216815282907f734ba0462050e5425bb227eb0b80ce09a9de46c14e7eeb77e9b0c54deaca0246906020016107e6565b600054604080517f4d3f7334000000000000000000000000000000000000000000000000000000008152905184926001600160a01b031691634d3f73349160048083019260809291908290030181865afa1580156116cf573d6000803e3d6000fd5b505050506040513d601f19601f820116820180604052508101906116f39190611ef6565b516006805473ffffffffffffffffffffffffffffffffffffffff19166001600160a01b039283169081179091556000838152600860205260409020549091169033148061174857506001600160a01b03811633145b8061177657506001600160a01b038116600090815260096020908152604080832033845290915290205460ff165b8061179a57506000828152600860205260409020600201546001600160a01b031633145b6117e65760405162461bcd60e51b815260206004820152600e60248201527f4e4f545f415554484f52495345440000000000000000000000000000000000006044820152606401610665565b60008481526008602052604080822054905186926001600160a01b038088169316917f8c5be1e5ebec7d5bd14f71427d1e84f3dd0314c0f7b2291e5b200ac8c7c3b9259190a4600084815260086020908152604091829020600201805473ffffffffffffffffffffffffffffffffffffffff19166001600160a01b038716908117909155915191825285917fe5108446a6097aab57fd36f346a515a78fddefa87d81662d44e0d7a463f920959101610a02565b600054604080517f4d3f7334000000000000000000000000000000000000000000000000000000008152905184926001600160a01b031691634d3f73349160048083019260809291908290030181865afa1580156118fb573d6000803e3d6000fd5b505050506040513d601f19601f8201168201806040525081019061191f9190611ef6565b516006805473ffffffffffffffffffffffffffffffffffffffff19166001600160a01b039283169081179091556000838152600860205260409020549091169033148061197457506001600160a01b03811633145b806119a257506001600160a01b038116600090815260096020908152604080832033845290915290205460ff165b806119c657506000828152600860205260409020600201546001600160a01b031633145b611a125760405162461bcd60e51b815260206004820152600e60248201527f4e4f545f415554484f52495345440000000000000000000000000000000000006044820152606401610665565b600084815260086020908152604091829020600101805473ffffffffffffffffffffffffffffffffffffffff19166001600160a01b038716908117909155915191825285917fcb71326aeaad88869e8be8be2893e1119f7617ce4ea2411af127e218909be1f79101610a02565b60008181526008602052604081206003015482904210611ae15760405162461bcd60e51b815260206004820152600c60248201527f4e414d455f4558504952454400000000000000000000000000000000000000006044820152606401610665565b50506000908152600860205260409020600201546001600160a01b031690565b60008281526008602052604090206003015482904210611b635760405162461bcd60e51b815260206004820152600c60248201527f4e414d455f4558504952454400000000000000000000000000000000000000006044820152606401610665565b6000818152600860205260409020546001600160a01b031633811480611bac57506001600160a01b038116600090815260096020908152604080832033845290915290205460ff165b80611bd057506000828152600860205260409020600201546001600160a01b031633145b611c1c5760405162461bcd60e51b815260206004820152601760248201527f4e4f545f4f574e45525f4f525f434f4e54524f4c4c45520000000000000000006044820152606401610665565b6000848152600860205260409020600301548311611c7c5760405162461bcd60e51b815260206004820152600a60248201527f4241445f455850495259000000000000000000000000000000000000000000006044820152606401610665565b60008054906101000a90046001600160a01b03166001600160a01b0316634d3f73346040518163ffffffff1660e01b8152600401608060405180830381865afa158015611ccd573d6000803e3d6000fd5b505050506040513d601f19601f82011682018060405250810190611cf19190611ef6565b516006805473ffffffffffffffffffffffffffffffffffffffff19166001600160a01b03909216919091179055600084815260086020526040812060030154611d3a9085611fea565b905060055481611d4a9190612010565b341015611d995760405162461bcd60e51b815260206004820152601260248201527f494e53554646494349454e545f455448455200000000000000000000000000006044820152606401610665565b600085815260086020526040908190206003018590555185907fa620b72378ee464490805a96e25b53e5c0076f0ce2d28f9691ae255a595b3bf39061108a9087815260200190565b600060208284031215611df357600080fd5b5035919050565b6001600160a01b038116811461113c57600080fd5b60008060408385031215611e2257600080fd5b823591506020830135611e3481611dfa565b809150509250929050565b60008060408385031215611e5257600080fd5b50508035926020909101359150565b600060208284031215611e7357600080fd5b8135611e7e81611dfa565b9392505050565b60008060408385031215611e9857600080fd5b8235611ea381611dfa565b915060208301358015158114611e3457600080fd5b60008060408385031215611ecb57600080fd5b8235611ed681611dfa565b91506020830135611e3481611dfa565b8051611ef181611dfa565b919050565b600060808284031215611f0857600080fd5b82601f830112611f1757600080fd5b6040516080810181811067ffffffffffffffff82111715611f61577f4e487b7100000000000000000000000000000000000000000000000000000000600052604160045260246000fd5b604052806080840185811115611f7657600080fd5b845b81811015611f9757611f8981611ee6565b835260209283019201611f78565b509195945050505050565b600060208284031215611fb457600080fd5b5051919050565b7f4e487b7100000000000000000000000000000000000000000000000000000000600052601160045260246000fd5b8181038181111561081a5761081a611fbb565b8082018082111561081a5761081a611fbb565b6000817fffffffffffffffffffffffffffffffffffffffffffffffffffffffffffffffff048311821515161561204857612048611fbb565b50029056fea2646970667358221220bd9463ec32ea8fdca263e4957ba5e7327dbb05bc0463f8b4cdf58c2dee76309464736f6c63430008100033",
    "linkReferences": {}
  },
  "methodIdentifiers": {
    "Dev()": "01e51ae8",
    "ERC721()": "8425abff",
    "HELIX2()": "b782426e",
    "Names(bytes32)": "997c9efa",
    "Registrar()": "b9f37c86",
    "_NAME_()": "1e44663f",
    "active()": "02fb0c5e",
    "basePrice()": "c7876ea4",
    "changeDev(address)": "88a8c95c",
    "controller(bytes32)": "dbd4e021",
    "expiry(bytes32)": "d2ec5fca",
    "isApprovedForAll(address,address)": "e985e9c5",
    "owner(bytes32)": "02571be3",
    "recordExists(bytes32)": "f79fe538",
    "register(bytes32,address)": "d22057a9",
    "renew(bytes32,uint256)": "f544d82f",
    "resolver(bytes32)": "0178b8bf",
    "roothash()": "251c9422",
    "setApprovalForAll(address,bool)": "a22cb465",
    "setController(bytes32,address)": "d3156905",
    "setControllerERC721(bytes32,address)": "01d49a5f",
    "setExpiry(bytes32,uint256)": "39de6469",
    "setOwner(bytes32,address)": "5b0fc9c3",
    "setOwnerERC721(bytes32,address)": "be22e756",
    "setRecord(bytes32,address)": "d9b76ed4",
    "setResolver(bytes32,address)": "1896f70a",
    "theEnd()": "22b68deb",
    "withdrawEther()": "7362377b"
  },
  "id": 31
}