{
  "abi": [
    {
      "inputs": [
        {
          "internalType": "address",
          "name": "_registry",
          "type": "address"
        }
      ],
      "stateMutability": "nonpayable",
      "type": "constructor"
    },
    {
      "inputs": [],
      "name": "CannotBurn",
      "type": "error"
    },
    {
      "inputs": [
        {
          "internalType": "address",
          "name": "to",
          "type": "address"
        }
      ],
      "name": "ERC721IncompatibleReceiver",
      "type": "error"
    },
    {
      "inputs": [
        {
          "internalType": "address",
          "name": "_dev",
          "type": "address"
        },
        {
          "internalType": "address",
          "name": "_you",
          "type": "address"
        }
      ],
      "name": "OnlyDev",
      "type": "error"
    },
    {
      "inputs": [
        {
          "internalType": "address",
          "name": "operator",
          "type": "address"
        },
        {
          "internalType": "address",
          "name": "owner",
          "type": "address"
        },
        {
          "internalType": "uint256",
          "name": "tokenID",
          "type": "uint256"
        }
      ],
      "name": "Unauthorized",
      "type": "error"
    },
    {
      "anonymous": false,
      "inputs": [
        {
          "indexed": true,
          "internalType": "address",
          "name": "owner",
          "type": "address"
        },
        {
          "indexed": true,
          "internalType": "address",
          "name": "spender",
          "type": "address"
        },
        {
          "indexed": true,
          "internalType": "uint256",
          "name": "tokenID",
          "type": "uint256"
        }
      ],
      "name": "Approval",
      "type": "event"
    },
    {
      "anonymous": false,
      "inputs": [
        {
          "indexed": true,
          "internalType": "address",
          "name": "owner",
          "type": "address"
        },
        {
          "indexed": true,
          "internalType": "address",
          "name": "operator",
          "type": "address"
        },
        {
          "indexed": false,
          "internalType": "bool",
          "name": "approved",
          "type": "bool"
        }
      ],
      "name": "ApprovalForAll",
      "type": "event"
    },
    {
      "anonymous": false,
      "inputs": [
        {
          "indexed": true,
          "internalType": "bytes32",
          "name": "bondhash",
          "type": "bytes32"
        },
        {
          "indexed": false,
          "internalType": "address",
          "name": "owner",
          "type": "address"
        }
      ],
      "name": "NewBond",
      "type": "event"
    },
    {
      "anonymous": false,
      "inputs": [
        {
          "indexed": true,
          "internalType": "bytes32",
          "name": "bondhash",
          "type": "bytes32"
        },
        {
          "indexed": false,
          "internalType": "address",
          "name": "controller",
          "type": "address"
        }
      ],
      "name": "NewController",
      "type": "event"
    },
    {
      "anonymous": false,
      "inputs": [
        {
          "indexed": false,
          "internalType": "address",
          "name": "Dev",
          "type": "address"
        },
        {
          "indexed": false,
          "internalType": "address",
          "name": "newDev",
          "type": "address"
        }
      ],
      "name": "NewDev",
      "type": "event"
    },
    {
      "anonymous": false,
      "inputs": [
        {
          "indexed": true,
          "internalType": "bytes32",
          "name": "bondhash",
          "type": "bytes32"
        },
        {
          "indexed": false,
          "internalType": "uint256",
          "name": "expiry",
          "type": "uint256"
        }
      ],
      "name": "NewExpiry",
      "type": "event"
    },
    {
      "anonymous": false,
      "inputs": [
        {
          "indexed": true,
          "internalType": "bytes32",
          "name": "bondhash",
          "type": "bytes32"
        },
        {
          "indexed": false,
          "internalType": "address",
          "name": "owner",
          "type": "address"
        }
      ],
      "name": "NewOwner",
      "type": "event"
    },
    {
      "anonymous": false,
      "inputs": [
        {
          "indexed": true,
          "internalType": "bytes32",
          "name": "bondhash",
          "type": "bytes32"
        },
        {
          "indexed": false,
          "internalType": "address",
          "name": "resolver",
          "type": "address"
        }
      ],
      "name": "NewRecord",
      "type": "event"
    },
    {
      "anonymous": false,
      "inputs": [
        {
          "indexed": true,
          "internalType": "bytes32",
          "name": "bondhash",
          "type": "bytes32"
        },
        {
          "indexed": false,
          "internalType": "address",
          "name": "resolver",
          "type": "address"
        }
      ],
      "name": "NewResolver",
      "type": "event"
    },
    {
      "anonymous": false,
      "inputs": [
        {
          "indexed": true,
          "internalType": "address",
          "name": "from",
          "type": "address"
        },
        {
          "indexed": true,
          "internalType": "address",
          "name": "to",
          "type": "address"
        },
        {
          "indexed": true,
          "internalType": "uint256",
          "name": "tokenID",
          "type": "uint256"
        }
      ],
      "name": "Transfer",
      "type": "event"
    },
    {
      "stateMutability": "payable",
      "type": "fallback"
    },
    {
      "inputs": [],
      "name": "BONDS",
      "outputs": [
        {
          "internalType": "contract iBOND",
          "name": "",
          "type": "address"
        }
      ],
      "stateMutability": "view",
      "type": "function"
    },
    {
      "inputs": [],
      "name": "Dev",
      "outputs": [
        {
          "internalType": "address",
          "name": "",
          "type": "address"
        }
      ],
      "stateMutability": "view",
      "type": "function"
    },
    {
      "inputs": [
        {
          "internalType": "uint256",
          "name": "",
          "type": "uint256"
        }
      ],
      "name": "_approved",
      "outputs": [
        {
          "internalType": "address",
          "name": "",
          "type": "address"
        }
      ],
      "stateMutability": "view",
      "type": "function"
    },
    {
      "inputs": [],
      "name": "active",
      "outputs": [
        {
          "internalType": "bool",
          "name": "",
          "type": "bool"
        }
      ],
      "stateMutability": "view",
      "type": "function"
    },
    {
      "inputs": [
        {
          "internalType": "address",
          "name": "controller",
          "type": "address"
        },
        {
          "internalType": "uint256",
          "name": "tokenID",
          "type": "uint256"
        }
      ],
      "name": "approve",
      "outputs": [],
      "stateMutability": "payable",
      "type": "function"
    },
    {
      "inputs": [
        {
          "internalType": "address",
          "name": "wallet",
          "type": "address"
        }
      ],
      "name": "balanceOf",
      "outputs": [
        {
          "internalType": "uint256",
          "name": "",
          "type": "uint256"
        }
      ],
      "stateMutability": "view",
      "type": "function"
    },
    {
      "inputs": [],
      "name": "bond",
      "outputs": [
        {
          "internalType": "string",
          "name": "",
          "type": "string"
        }
      ],
      "stateMutability": "view",
      "type": "function"
    },
    {
      "inputs": [
        {
          "internalType": "address",
          "name": "newDev",
          "type": "address"
        }
      ],
      "name": "changeDev",
      "outputs": [],
      "stateMutability": "nonpayable",
      "type": "function"
    },
    {
      "inputs": [],
      "name": "defaultLifespan",
      "outputs": [
        {
          "internalType": "uint256",
          "name": "",
          "type": "uint256"
        }
      ],
      "stateMutability": "view",
      "type": "function"
    },
    {
      "inputs": [],
      "name": "defaultResolver",
      "outputs": [
        {
          "internalType": "address",
          "name": "",
          "type": "address"
        }
      ],
      "stateMutability": "view",
      "type": "function"
    },
    {
      "inputs": [],
      "name": "ensRegistry",
      "outputs": [
        {
          "internalType": "address",
          "name": "",
          "type": "address"
        }
      ],
      "stateMutability": "view",
      "type": "function"
    },
    {
      "inputs": [
        {
          "internalType": "uint256",
          "name": "",
          "type": "uint256"
        }
      ],
      "name": "helix2Registry",
      "outputs": [
        {
          "internalType": "address",
          "name": "",
          "type": "address"
        }
      ],
      "stateMutability": "view",
      "type": "function"
    },
    {
      "inputs": [
        {
          "internalType": "uint256",
          "name": "",
          "type": "uint256"
        }
      ],
      "name": "illegalBlocks",
      "outputs": [
        {
          "internalType": "string",
          "name": "",
          "type": "string"
        }
      ],
      "stateMutability": "view",
      "type": "function"
    },
    {
      "inputs": [
        {
          "internalType": "address",
          "name": "",
          "type": "address"
        },
        {
          "internalType": "address",
          "name": "",
          "type": "address"
        }
      ],
      "name": "isApprovedForAll",
      "outputs": [
        {
          "internalType": "bool",
          "name": "",
          "type": "bool"
        }
      ],
      "stateMutability": "view",
      "type": "function"
    },
    {
      "inputs": [],
      "name": "isDev",
      "outputs": [
        {
          "internalType": "address",
          "name": "",
          "type": "address"
        }
      ],
      "stateMutability": "view",
      "type": "function"
    },
    {
      "inputs": [
        {
          "internalType": "string",
          "name": "label",
          "type": "string"
        },
        {
          "internalType": "address",
          "name": "owner",
          "type": "address"
        },
        {
          "internalType": "uint256",
          "name": "lifespan",
          "type": "uint256"
        }
      ],
      "name": "newBond",
      "outputs": [
        {
          "internalType": "bytes32",
          "name": "",
          "type": "bytes32"
        }
      ],
      "stateMutability": "nonpayable",
      "type": "function"
    },
    {
      "inputs": [
        {
          "internalType": "uint256",
          "name": "tokenID",
          "type": "uint256"
        }
      ],
      "name": "ownerOf",
      "outputs": [
        {
          "internalType": "address",
          "name": "",
          "type": "address"
        }
      ],
      "stateMutability": "view",
      "type": "function"
    },
    {
      "inputs": [
        {
          "internalType": "uint256",
          "name": "",
          "type": "uint256"
        }
      ],
      "name": "roothash",
      "outputs": [
        {
          "internalType": "bytes32",
          "name": "",
          "type": "bytes32"
        }
      ],
      "stateMutability": "view",
      "type": "function"
    },
    {
      "inputs": [
        {
          "internalType": "address",
          "name": "from",
          "type": "address"
        },
        {
          "internalType": "address",
          "name": "to",
          "type": "address"
        },
        {
          "internalType": "uint256",
          "name": "tokenID",
          "type": "uint256"
        }
      ],
      "name": "safeTransferFrom",
      "outputs": [],
      "stateMutability": "payable",
      "type": "function"
    },
    {
      "inputs": [
        {
          "internalType": "address",
          "name": "from",
          "type": "address"
        },
        {
          "internalType": "address",
          "name": "to",
          "type": "address"
        },
        {
          "internalType": "uint256",
          "name": "tokenID",
          "type": "uint256"
        },
        {
          "internalType": "bytes",
          "name": "data",
          "type": "bytes"
        }
      ],
      "name": "safeTransferFrom",
      "outputs": [],
      "stateMutability": "payable",
      "type": "function"
    },
    {
      "inputs": [
        {
          "internalType": "address",
          "name": "controller",
          "type": "address"
        },
        {
          "internalType": "bool",
          "name": "flag",
          "type": "bool"
        }
      ],
      "name": "setApprovalForAll",
      "outputs": [],
      "stateMutability": "payable",
      "type": "function"
    },
    {
      "inputs": [
        {
          "internalType": "uint256",
          "name": "_lifespan",
          "type": "uint256"
        }
      ],
      "name": "setDefaultLifespan",
      "outputs": [],
      "stateMutability": "nonpayable",
      "type": "function"
    },
    {
      "inputs": [
        {
          "internalType": "address",
          "name": "_resolver",
          "type": "address"
        }
      ],
      "name": "setDefaultResolver",
      "outputs": [],
      "stateMutability": "nonpayable",
      "type": "function"
    },
    {
      "inputs": [
        {
          "internalType": "bytes4",
          "name": "sig",
          "type": "bytes4"
        },
        {
          "internalType": "bool",
          "name": "value",
          "type": "bool"
        }
      ],
      "name": "setInterface",
      "outputs": [],
      "stateMutability": "payable",
      "type": "function"
    },
    {
      "inputs": [
        {
          "internalType": "uint256",
          "name": "",
          "type": "uint256"
        }
      ],
      "name": "sizes",
      "outputs": [
        {
          "internalType": "uint256",
          "name": "",
          "type": "uint256"
        }
      ],
      "stateMutability": "view",
      "type": "function"
    },
    {
      "inputs": [
        {
          "internalType": "bytes4",
          "name": "",
          "type": "bytes4"
        }
      ],
      "name": "supportsInterface",
      "outputs": [
        {
          "internalType": "bool",
          "name": "",
          "type": "bool"
        }
      ],
      "stateMutability": "view",
      "type": "function"
    },
    {
      "inputs": [],
      "name": "symbol",
      "outputs": [
        {
          "internalType": "string",
          "name": "",
          "type": "string"
        }
      ],
      "stateMutability": "view",
      "type": "function"
    },
    {
      "inputs": [
        {
          "internalType": "address",
          "name": "from",
          "type": "address"
        },
        {
          "internalType": "address",
          "name": "to",
          "type": "address"
        },
        {
          "internalType": "uint256",
          "name": "tokenID",
          "type": "uint256"
        }
      ],
      "name": "transferFrom",
      "outputs": [],
      "stateMutability": "payable",
      "type": "function"
    },
    {
      "inputs": [],
      "name": "withdrawEther",
      "outputs": [],
      "stateMutability": "payable",
      "type": "function"
    },
    {
      "inputs": [
        {
          "internalType": "address",
          "name": "token",
          "type": "address"
        }
      ],
      "name": "withdrawToken",
      "outputs": [],
      "stateMutability": "payable",
      "type": "function"
    },
    {
      "stateMutability": "payable",
      "type": "receive"
    }
  ],
  "bytecode": {
    "object": "0x6001610100818152601760f91b610120526080908152610140828152603f60f81b6101605260a052610180828152602160f81b6101a05260c0526102006040526101c0828152602360f81b6101e05260e0526200005f9190600462000339565b5060408051608081018252602080825280820181905291810182905260608101919091526200009390600590600462000389565b5060408051608081018252600060a082018190527f6f010af653ebe3cb07d297a4ef13366103d392ceffa68dd48232e6e9ff2187bf60c0808401919091528351808403909101815260e0830184528051602091820120835283518082018390527f5f179612d7132c8ed24ba0e286d60d398c4aa1c234eb2274ca1bba47718e9d3181860152845180820386018152606091820186528051908301208285015284518083018490527f3275a893b2c93461554cf2a4dd7f413d56decdd6f3fdf0589dbb8bc4fd742386818701528551808203870181529082018652805190830120848601528451808301939093527face738c68088218d015fbdce138f062893d86818ac98932f7ce2907c5976fbde83860152845180840386018152928101909452815191012091810191909152620001d0906009906004620003cd565b50600d80546001600160a01b0319166e0c2e074ec69a0dfb2997ba6c7d2e1e1790556040805160808101825260018152600260208201526003918101919091526004606082018190526200022791600e91620003fe565b506012805460ff191660011790556401cf7c58006019553480156200024b57600080fd5b5060405162002641380380620026418339810160408190526200026e91620004c3565b6000805460136020527f317681100331673b27c2499894e78912f138ae85f2dd790e454ff96a89cf2d778054600160ff1991821681179092557f5829b1f18259a9cdcd4268c3b072804d2f8e3dedbb1b883db1fa2055bb26d84f8054821683179055635b5e139f60e01b84527f65cb089fa41783e5af12e88573d882f263c09532a373334f0b809825d5a904ab80549091169091179055601a80546001600160a01b03199081166001600160a01b039590951694909417905582163392831617909117905562000666565b826004810192821562000377579160200282015b828111156200037757825182906200036690826200059a565b50916020019190600101906200034d565b506200038592915062000449565b5090565b8260048101928215620003bf579160200282015b82811115620003bf578251829060ff169055916020019190600101906200039d565b50620003859291506200046a565b8260048101928215620003bf579160200282015b82811115620003bf578251825591602001919060010190620003e1565b8260048101928215620003bf579160200282015b82811115620003bf57825182546001600160a01b0319166001600160a01b0390911617825560209092019160019091019062000412565b808211156200038557600062000460828262000481565b5060010162000449565b5b808211156200038557600081556001016200046b565b5080546200048f906200050b565b6000825580601f10620004a0575050565b601f016020900490600052602060002090810190620004c091906200046a565b50565b600060208284031215620004d657600080fd5b81516001600160a01b0381168114620004ee57600080fd5b9392505050565b634e487b7160e01b600052604160045260246000fd5b600181811c908216806200052057607f821691505b6020821081036200054157634e487b7160e01b600052602260045260246000fd5b50919050565b601f8211156200059557600081815260208120601f850160051c81016020861015620005705750805b601f850160051c820191505b8181101562000591578281556001016200057c565b5050505b505050565b81516001600160401b03811115620005b657620005b6620004f5565b620005ce81620005c784546200050b565b8462000547565b602080601f831160018114620006065760008415620005ed5750858301515b600019600386901b1c1916600185901b17855562000591565b600085815260208120601f198616915b82811015620006375788860151825594840194600190910190840162000616565b5085821015620006565787850151600019600388901b60f8161c191681555b5050505050600190811b01905550565b611fcb80620006766000396000f3fe6080604052600436106101d15760003560e01c8063828eab0e116100f7578063a22cb46511610095578063c66485b211610064578063c66485b21461054c578063d9a9b0c61461056c578063e985e9c51461058c578063f079914f146105c757600080fd5b8063a22cb465146104f3578063b4abea2414610506578063b88d4fde14610526578063c0a43a7c1461053957600080fd5b80638dfcb1c7116100d15780638dfcb1c7146104345780639024d2821461045457806395d89b411461048a57806397b5f7d0146104d357600080fd5b8063828eab0e146103e157806388a8c95c14610401578063894760691461042157600080fd5b806342842e0e1161016f57806370dec5f01161013e57806370dec5f0146103795780637362377b146103995780637d73b231146103a157806380b29beb146103c157600080fd5b806342842e0e146102b05780636352211e146102e357806364c9ec6f1461030357806370a082311461035957600080fd5b8063095ea7b3116101ab578063095ea7b3146102775780630e6c0bdb1461028c57806323b872dd146102b057806339506308146102c357600080fd5b806301e51ae8146101e057806301ffc9a71461021d57806302fb0c5e1461025d57600080fd5b366101db57600080fd5b600080fd5b3480156101ec57600080fd5b50600054610200906001600160a01b031681565b6040516001600160a01b0390911681526020015b60405180910390f35b34801561022957600080fd5b5061024d61023836600461197c565b60136020526000908152604090205460ff1681565b6040519015158152602001610214565b34801561026957600080fd5b5060125461024d9060ff1681565b61028a6102853660046119b5565b6105e5565b005b34801561029857600080fd5b506102a260195481565b604051908152602001610214565b61028a6102be3660046119e1565b61070e565b3480156102cf57600080fd5b5061028a6102de366004611a22565b61072e565b3480156102ef57600080fd5b506102006102fe366004611a22565b61078c565b34801561030f57600080fd5b5061034c6040518060400160405280601381526020017f48656c69783220426f6e6420536572766963650000000000000000000000000081525081565b6040516102149190611a9f565b34801561036557600080fd5b506102a2610374366004611ab2565b61080c565b34801561038557600080fd5b50610200610394366004611a22565b610880565b61028a6108a0565b3480156103ad57600080fd5b50600d54610200906001600160a01b031681565b3480156103cd57600080fd5b5061034c6103dc366004611a22565b610946565b3480156103ed57600080fd5b50601b54610200906001600160a01b031681565b34801561040d57600080fd5b5061028a61041c366004611ab2565b6109e6565b61028a61042f366004611ab2565b610ac0565b34801561044057600080fd5b506102a261044f366004611a22565b610be6565b34801561046057600080fd5b5061020061046f366004611a22565b6016602052600090815260409020546001600160a01b031681565b34801561049657600080fd5b5061034c6040518060400160405280600381526020017f484253000000000000000000000000000000000000000000000000000000000081525081565b3480156104df57600080fd5b506102a26104ee366004611acf565b610bfd565b61028a610501366004611b66565b611323565b34801561051257600080fd5b50601a54610200906001600160a01b031681565b61028a610534366004611bce565b6113ad565b61028a610547366004611ccc565b6113bf565b34801561055857600080fd5b5061028a610567366004611ab2565b6114ec565b34801561057857600080fd5b506102a2610587366004611a22565b61157f565b34801561059857600080fd5b5061024d6105a7366004611cea565b601760209081526000928352604080842090915290825290205460ff1681565b3480156105d357600080fd5b506000546001600160a01b0316610200565b6000818152601460205260409020546001600160a01b03163314158061063857506000818152601460209081526040808320546001600160a01b031683526017825280832033845290915290205460ff16155b1561069d57600081815260146020526040908190205490517f431ef6160000000000000000000000000000000000000000000000000000000081523360048201526001600160a01b039091166024820152604481018290526064015b60405180910390fd5b60008181526016602052604080822080547fffffffffffffffffffffffff0000000000000000000000000000000000000000166001600160a01b0386169081179091559051839233917f8c5be1e5ebec7d5bd14f71427d1e84f3dd0314c0f7b2291e5b200ac8c7c3b9259190a45050565b6107298383836040518060200160405280600081525061158f565b505050565b6000546001600160a01b03163314610787576000546040517f8ea458f60000000000000000000000000000000000000000000000000000000081526001600160a01b039091166004820152336024820152604401610694565b601955565b6000818152601460205260408120546001600160a01b03166107f05760405162461bcd60e51b815260206004820152600f60248201527f494e56414c49445f544f4b454e494400000000000000000000000000000000006044820152606401610694565b506000908152601460205260409020546001600160a01b031690565b60006001600160a01b0382166108645760405162461bcd60e51b815260206004820152600c60248201527f5a45524f5f4144445245535300000000000000000000000000000000000000006044820152606401610694565b506001600160a01b031660009081526015602052604090205490565b600e816004811061089057600080fd5b01546001600160a01b0316905081565b600080546040516001600160a01b039091169047908381818185875af1925050503d80600081146108ed576040519150601f19603f3d011682016040523d82523d6000602084013e6108f2565b606091505b50509050806109435760405162461bcd60e51b815260206004820152601360248201527f4554485f5452414e534645525f4641494c4544000000000000000000000000006044820152606401610694565b50565b6001816004811061095657600080fd5b01805490915061096590611d18565b80601f016020809104026020016040519081016040528092919081815260200182805461099190611d18565b80156109de5780601f106109b3576101008083540402835291602001916109de565b820191906000526020600020905b8154815290600101906020018083116109c157829003601f168201915b505050505081565b6000546001600160a01b03163314610a3f576000546040517f8ea458f60000000000000000000000000000000000000000000000000000000081526001600160a01b039091166004820152336024820152604401610694565b600054604080516001600160a01b03928316815291831660208301527fdec101f106d4fc7c85791843e64b198248c822298e3ed7046231d33f7783d816910160405180910390a1600080547fffffffffffffffffffffffff0000000000000000000000000000000000000000166001600160a01b0392909216919091179055565b6000546040517f70a0823100000000000000000000000000000000000000000000000000000000815230600482018190526001600160a01b03848116936323b872dd9391169084906370a0823190602401602060405180830381865afa158015610b2e573d6000803e3d6000fd5b505050506040513d601f19601f82011682018060405250810190610b529190611d6b565b6040517fffffffff0000000000000000000000000000000000000000000000000000000060e086901b1681526001600160a01b03938416600482015292909116602483015260448201526064016020604051808303816000875af1158015610bbe573d6000803e3d6000fd5b505050506040513d601f19601f82011682018060405250810190610be29190611d84565b5050565b60098160048110610bf657600080fd5b0154905081565b601a546000908590859083906001600160a01b03166302571be360098301548585604051602001610c2f929190611da1565b60405160208183030381529060405280519060200120604051602001610c5f929190918252602082015260400190565b604051602081830303815290604052805190602001206040518263ffffffff1660e01b8152600401610c9391815260200190565b602060405180830381865afa158015610cb0573d6000803e3d6000fd5b505050506040513d601f19601f82011682018060405250810190610cd49190611db1565b90506001600160a01b03811615610d2d5760405162461bcd60e51b815260206004820152600b60248201527f424f4e445f4558495354530000000000000000000000000000000000000000006044820152606401610694565b87876005600101548111610d835760405162461bcd60e51b815260206004820152600d60248201527f494c4c4547414c5f4c4142454c000000000000000000000000000000000000006044820152606401610694565b81818080601f016020809104026020016040519081016040528093929190818152602001838380828437600092019190915250506040517fa6470fd600000000000000000000000000000000000000000000000000000000815273__$47e4ffaaf323c41735ff299f8946896ce0$__9363a6470fd69350610e0b925090600190600401611dce565b602060405180830381865af4158015610e28573d6000803e3d6000fd5b505050506040513d601f19601f82011682018060405250810190610e4c9190611d84565b15610e995760405162461bcd60e51b815260206004820152600d60248201527f494c4c4547414c5f4348415253000000000000000000000000000000000000006044820152606401610694565b898988600060098101548484604051602001610eb6929190611da1565b60405160208183030381529060405280519060200120604051602001610ee6929190918252602082015260400190565b6040516020818303038152906040528051906020012090508142610f0a9190611efc565b601a546040517fd2ec5fca000000000000000000000000000000000000000000000000000000008152600481018490526001600160a01b039091169063d2ec5fca90602401602060405180830381865afa158015610f6c573d6000803e3d6000fd5b505050506040513d601f19601f82011682018060405250810190610f909190611d6b565b10610fdd5760405162461bcd60e51b815260206004820152601060248201527f424f4e445f4e4f545f45585049524544000000000000000000000000000000006044820152606401610694565b600060098101548f8f604051602001610ff7929190611da1565b60405160208183030381529060405280519060200120604051602001611027929190918252602082015260400190565b604051602081830303815290604052805190602001209050601a60009054906101000a90046001600160a01b03166001600160a01b0316635b0fc9c3828f6040518363ffffffff1660e01b81526004016110949291909182526001600160a01b0316602082015260400190565b600060405180830381600087803b1580156110ae57600080fd5b505af11580156110c2573d6000803e3d6000fd5b5050601a546001600160a01b031691506339de64699050826110e48f42611efc565b6040517fffffffff0000000000000000000000000000000000000000000000000000000060e085901b16815260048101929092526024820152604401600060405180830381600087803b15801561113a57600080fd5b505af115801561114e573d6000803e3d6000fd5b50505050601a60009054906101000a90046001600160a01b03166001600160a01b031663d3156905828f6040518363ffffffff1660e01b81526004016111a79291909182526001600160a01b0316602082015260400190565b600060405180830381600087803b1580156111c157600080fd5b505af11580156111d5573d6000803e3d6000fd5b5050601a54601b546040517f1896f70a000000000000000000000000000000000000000000000000000000008152600481018690526001600160a01b03918216602482015291169250631896f70a9150604401600060405180830381600087803b15801561124257600080fd5b505af1158015611256573d6000803e3d6000fd5b505050508c601460008360001c815260200190815260200160002060006101000a8154816001600160a01b0302191690836001600160a01b03160217905550601560008e6001600160a01b03166001600160a01b0316815260200190815260200160002060008154809291906001019190505550807fd5ee2ea22ce7866fb21fe6ec251e21cf91deeaee59734688457b06cb69ad878b8e60405161130991906001600160a01b0391909116815260200190565b60405180910390a29e9d5050505050505050505050505050565b3360008181526017602090815260408083206001600160a01b0387168085529083529281902080547fffffffffffffffffffffffffffffffffffffffffffffffffffffffffffffff001686151590811790915590519081529192917f17307eab39ab6107e8899845ad3d59bd9653f200f220920489ca2b5937696c31910160405180910390a35050565b6113b98484848461158f565b50505050565b6000546001600160a01b03163314611418576000546040517f8ea458f60000000000000000000000000000000000000000000000000000000081526001600160a01b039091166004820152336024820152604401610694565b7fffffffff00000000000000000000000000000000000000000000000000000000808316900361148a5760405162461bcd60e51b815260206004820152601a60248201527f494e56414c49445f494e544552464143455f53454c4543544f520000000000006044820152606401610694565b7fffffffff0000000000000000000000000000000000000000000000000000000091909116600090815260136020526040902080547fffffffffffffffffffffffffffffffffffffffffffffffffffffffffffffff0016911515919091179055565b6000546001600160a01b03163314611545576000546040517f8ea458f60000000000000000000000000000000000000000000000000000000081526001600160a01b039091166004820152336024820152604401610694565b601b80547fffffffffffffffffffffffff0000000000000000000000000000000000000000166001600160a01b0392909216919091179055565b60058160048110610bf657600080fd5b6001600160a01b0383166115cf576040517f5788079900000000000000000000000000000000000000000000000000000000815260040160405180910390fd5b6000828152601460205260409020546001600160a01b0385811691161461164d57600082815260146020526040908190205490517f431ef6160000000000000000000000000000000000000000000000000000000081526001600160a01b039182166004820152908516602482015260448101839052606401610694565b6000828152601460205260409020546001600160a01b0316331480159061169857506001600160a01b038416600090815260176020908152604080832033845290915290205460ff16155b80156116bb57506000828152601660205260409020546001600160a01b03163314155b1561170a576040517f431ef6160000000000000000000000000000000000000000000000000000000081523360048201526001600160a01b038516602482015260448101839052606401610694565b600082815260166020908152604080832080547fffffffffffffffffffffffff00000000000000000000000000000000000000009081169091556014835281842080546001600160a01b03898116919093168117909155908816808552601590935281842080547fffffffffffffffffffffffffffffffffffffffffffffffffffffffffffffffff01905580845281842080546001019055905185939192917fddf252ad1be2c89b69c2b068fc378daa952ba7f163c4a11628f55a4df523b3ef91a46001600160a01b0383163b156113b9576040517f150b7a020000000000000000000000000000000000000000000000000000000081526001600160a01b0384169063150b7a0290611827903390889087908790600401611f3c565b6020604051808303816000875af1925050508015611880575060408051601f3d9081017fffffffffffffffffffffffffffffffffffffffffffffffffffffffffffffffe016820190925261187d91810190611f78565b60015b6118c1576040517f3a9f8cb30000000000000000000000000000000000000000000000000000000081526001600160a01b0384166004820152602401610694565b7fffffffff0000000000000000000000000000000000000000000000000000000081167f150b7a020000000000000000000000000000000000000000000000000000000014611947576040517f3a9f8cb30000000000000000000000000000000000000000000000000000000081526001600160a01b0385166004820152602401610694565b5050505050565b7fffffffff000000000000000000000000000000000000000000000000000000008116811461094357600080fd5b60006020828403121561198e57600080fd5b81356119998161194e565b9392505050565b6001600160a01b038116811461094357600080fd5b600080604083850312156119c857600080fd5b82356119d3816119a0565b946020939093013593505050565b6000806000606084860312156119f657600080fd5b8335611a01816119a0565b92506020840135611a11816119a0565b929592945050506040919091013590565b600060208284031215611a3457600080fd5b5035919050565b6000815180845260005b81811015611a6157602081850181015186830182015201611a45565b5060006020828601015260207fffffffffffffffffffffffffffffffffffffffffffffffffffffffffffffffe0601f83011685010191505092915050565b6020815260006119996020830184611a3b565b600060208284031215611ac457600080fd5b8135611999816119a0565b60008060008060608587031215611ae557600080fd5b843567ffffffffffffffff80821115611afd57600080fd5b818701915087601f830112611b1157600080fd5b813581811115611b2057600080fd5b886020828501011115611b3257600080fd5b60209283019650945050850135611b48816119a0565b9396929550929360400135925050565b801515811461094357600080fd5b60008060408385031215611b7957600080fd5b8235611b84816119a0565b91506020830135611b9481611b58565b809150509250929050565b7f4e487b7100000000000000000000000000000000000000000000000000000000600052604160045260246000fd5b60008060008060808587031215611be457600080fd5b8435611bef816119a0565b93506020850135611bff816119a0565b925060408501359150606085013567ffffffffffffffff80821115611c2357600080fd5b818701915087601f830112611c3757600080fd5b813581811115611c4957611c49611b9f565b604051601f82017fffffffffffffffffffffffffffffffffffffffffffffffffffffffffffffffe0908116603f01168101908382118183101715611c8f57611c8f611b9f565b816040528281528a6020848701011115611ca857600080fd5b82602086016020830137600060208483010152809550505050505092959194509250565b60008060408385031215611cdf57600080fd5b8235611b848161194e565b60008060408385031215611cfd57600080fd5b8235611d08816119a0565b91506020830135611b94816119a0565b600181811c90821680611d2c57607f821691505b602082108103611d65577f4e487b7100000000000000000000000000000000000000000000000000000000600052602260045260246000fd5b50919050565b600060208284031215611d7d57600080fd5b5051919050565b600060208284031215611d9657600080fd5b815161199981611b58565b8183823760009101908152919050565b600060208284031215611dc357600080fd5b8151611999816119a0565b604081526000611de16040830185611a3b565b60208382038185015281829050608083018660005b6004808210611e055750611eee565b86840385528254600090600181811c9080831680611e2457607f831692505b8a83108103611e59577f4e487b7100000000000000000000000000000000000000000000000000000000855260228652602485fd5b828952602089019550808015611e765760018114611eaa57611ed5565b7fffffffffffffffffffffffffffffffffffffffffffffffffffffffffffffff008516875283151560051b87019550611ed5565b60008981526020902060005b85811015611ecf57815489820152908401908d01611eb6565b88019650505b5050978901979296505050929092019150600101611df6565b509098975050505050505050565b80820180821115611f36577f4e487b7100000000000000000000000000000000000000000000000000000000600052601160045260246000fd5b92915050565b60006001600160a01b03808716835280861660208401525083604083015260806060830152611f6e6080830184611a3b565b9695505050505050565b600060208284031215611f8a57600080fd5b81516119998161194e56fea2646970667358221220a275b3e8240daa03c12399642f4e9616598884f8d06fa75b4be65528f2bbf20364736f6c63430008100033",
    "linkReferences": {
      "src/Utils/LibString.sol": {
        "LibString": [
          {
            "start": 5205,
            "length": 20
          }
        ]
      }
    }
  },
  "methodIdentifiers": {
    "BONDS()": "b4abea24",
    "Dev()": "01e51ae8",
    "_approved(uint256)": "9024d282",
    "active()": "02fb0c5e",
    "approve(address,uint256)": "095ea7b3",
    "balanceOf(address)": "70a08231",
    "bond()": "64c9ec6f",
    "changeDev(address)": "88a8c95c",
    "defaultLifespan()": "0e6c0bdb",
    "defaultResolver()": "828eab0e",
    "ensRegistry()": "7d73b231",
    "helix2Registry(uint256)": "70dec5f0",
    "illegalBlocks(uint256)": "80b29beb",
    "isApprovedForAll(address,address)": "e985e9c5",
    "isDev()": "f079914f",
    "newBond(string,address,uint256)": "97b5f7d0",
    "ownerOf(uint256)": "6352211e",
    "roothash(uint256)": "8dfcb1c7",
    "safeTransferFrom(address,address,uint256)": "42842e0e",
    "safeTransferFrom(address,address,uint256,bytes)": "b88d4fde",
    "setApprovalForAll(address,bool)": "a22cb465",
    "setDefaultLifespan(uint256)": "39506308",
    "setDefaultResolver(address)": "c66485b2",
    "setInterface(bytes4,bool)": "c0a43a7c",
    "sizes(uint256)": "d9a9b0c6",
    "supportsInterface(bytes4)": "01ffc9a7",
    "symbol()": "95d89b41",
    "transferFrom(address,address,uint256)": "23b872dd",
    "withdrawEther()": "7362377b",
    "withdrawToken(address)": "89476069"
  },
  "id": 27
}