{
  "abi": [
    {
      "inputs": [
        {
          "internalType": "address",
          "name": "_registry",
          "type": "address"
        }
      ],
      "stateMutability": "nonpayable",
      "type": "constructor"
    },
    {
      "inputs": [],
      "name": "CannotBurn",
      "type": "error"
    },
    {
      "inputs": [
        {
          "internalType": "address",
          "name": "to",
          "type": "address"
        }
      ],
      "name": "ERC721IncompatibleReceiver",
      "type": "error"
    },
    {
      "inputs": [
        {
          "internalType": "address",
          "name": "_dev",
          "type": "address"
        },
        {
          "internalType": "address",
          "name": "_you",
          "type": "address"
        }
      ],
      "name": "OnlyDev",
      "type": "error"
    },
    {
      "inputs": [
        {
          "internalType": "address",
          "name": "operator",
          "type": "address"
        },
        {
          "internalType": "address",
          "name": "owner",
          "type": "address"
        },
        {
          "internalType": "uint256",
          "name": "tokenID",
          "type": "uint256"
        }
      ],
      "name": "Unauthorized",
      "type": "error"
    },
    {
      "anonymous": false,
      "inputs": [
        {
          "indexed": true,
          "internalType": "address",
          "name": "owner",
          "type": "address"
        },
        {
          "indexed": true,
          "internalType": "address",
          "name": "spender",
          "type": "address"
        },
        {
          "indexed": true,
          "internalType": "uint256",
          "name": "tokenID",
          "type": "uint256"
        }
      ],
      "name": "Approval",
      "type": "event"
    },
    {
      "anonymous": false,
      "inputs": [
        {
          "indexed": true,
          "internalType": "address",
          "name": "owner",
          "type": "address"
        },
        {
          "indexed": true,
          "internalType": "address",
          "name": "operator",
          "type": "address"
        },
        {
          "indexed": false,
          "internalType": "bool",
          "name": "approved",
          "type": "bool"
        }
      ],
      "name": "ApprovalForAll",
      "type": "event"
    },
    {
      "anonymous": false,
      "inputs": [
        {
          "indexed": true,
          "internalType": "bytes32",
          "name": "bondhash",
          "type": "bytes32"
        },
        {
          "indexed": false,
          "internalType": "bytes32",
          "name": "cation",
          "type": "bytes32"
        }
      ],
      "name": "NewBond",
      "type": "event"
    },
    {
      "anonymous": false,
      "inputs": [
        {
          "indexed": true,
          "internalType": "bytes32",
          "name": "bondhash",
          "type": "bytes32"
        },
        {
          "indexed": false,
          "internalType": "bytes32",
          "name": "cation",
          "type": "bytes32"
        }
      ],
      "name": "NewCation",
      "type": "event"
    },
    {
      "anonymous": false,
      "inputs": [
        {
          "indexed": true,
          "internalType": "bytes32",
          "name": "bondhash",
          "type": "bytes32"
        },
        {
          "indexed": false,
          "internalType": "address",
          "name": "controller",
          "type": "address"
        }
      ],
      "name": "NewController",
      "type": "event"
    },
    {
      "anonymous": false,
      "inputs": [
        {
          "indexed": false,
          "internalType": "address",
          "name": "Dev",
          "type": "address"
        },
        {
          "indexed": false,
          "internalType": "address",
          "name": "newDev",
          "type": "address"
        }
      ],
      "name": "NewDev",
      "type": "event"
    },
    {
      "anonymous": false,
      "inputs": [
        {
          "indexed": true,
          "internalType": "bytes32",
          "name": "bondhash",
          "type": "bytes32"
        },
        {
          "indexed": false,
          "internalType": "uint256",
          "name": "expiry",
          "type": "uint256"
        }
      ],
      "name": "NewExpiry",
      "type": "event"
    },
    {
      "anonymous": false,
      "inputs": [
        {
          "indexed": true,
          "internalType": "bytes32",
          "name": "bondhash",
          "type": "bytes32"
        },
        {
          "indexed": false,
          "internalType": "address",
          "name": "resolver",
          "type": "address"
        }
      ],
      "name": "NewRecord",
      "type": "event"
    },
    {
      "anonymous": false,
      "inputs": [
        {
          "indexed": true,
          "internalType": "bytes32",
          "name": "bondhash",
          "type": "bytes32"
        },
        {
          "indexed": false,
          "internalType": "address",
          "name": "resolver",
          "type": "address"
        }
      ],
      "name": "NewResolver",
      "type": "event"
    },
    {
      "anonymous": false,
      "inputs": [
        {
          "indexed": true,
          "internalType": "address",
          "name": "from",
          "type": "address"
        },
        {
          "indexed": true,
          "internalType": "address",
          "name": "to",
          "type": "address"
        },
        {
          "indexed": true,
          "internalType": "uint256",
          "name": "tokenID",
          "type": "uint256"
        }
      ],
      "name": "Transfer",
      "type": "event"
    },
    {
      "stateMutability": "payable",
      "type": "fallback"
    },
    {
      "inputs": [],
      "name": "BONDS",
      "outputs": [
        {
          "internalType": "contract iBOND",
          "name": "",
          "type": "address"
        }
      ],
      "stateMutability": "view",
      "type": "function"
    },
    {
      "inputs": [],
      "name": "Dev",
      "outputs": [
        {
          "internalType": "address",
          "name": "",
          "type": "address"
        }
      ],
      "stateMutability": "view",
      "type": "function"
    },
    {
      "inputs": [],
      "name": "HELIX2",
      "outputs": [
        {
          "internalType": "contract iHELIX2",
          "name": "",
          "type": "address"
        }
      ],
      "stateMutability": "view",
      "type": "function"
    },
    {
      "inputs": [],
      "name": "NAMES",
      "outputs": [
        {
          "internalType": "contract iNAME",
          "name": "",
          "type": "address"
        }
      ],
      "stateMutability": "view",
      "type": "function"
    },
    {
      "inputs": [
        {
          "internalType": "uint256",
          "name": "",
          "type": "uint256"
        }
      ],
      "name": "_approved",
      "outputs": [
        {
          "internalType": "address",
          "name": "",
          "type": "address"
        }
      ],
      "stateMutability": "view",
      "type": "function"
    },
    {
      "inputs": [],
      "name": "active",
      "outputs": [
        {
          "internalType": "bool",
          "name": "",
          "type": "bool"
        }
      ],
      "stateMutability": "view",
      "type": "function"
    },
    {
      "inputs": [
        {
          "internalType": "address",
          "name": "controller",
          "type": "address"
        },
        {
          "internalType": "uint256",
          "name": "tokenID",
          "type": "uint256"
        }
      ],
      "name": "approve",
      "outputs": [],
      "stateMutability": "payable",
      "type": "function"
    },
    {
      "inputs": [
        {
          "internalType": "address",
          "name": "wallet",
          "type": "address"
        }
      ],
      "name": "balanceOf",
      "outputs": [
        {
          "internalType": "uint256",
          "name": "",
          "type": "uint256"
        }
      ],
      "stateMutability": "view",
      "type": "function"
    },
    {
      "inputs": [],
      "name": "basePrice",
      "outputs": [
        {
          "internalType": "uint256",
          "name": "",
          "type": "uint256"
        }
      ],
      "stateMutability": "view",
      "type": "function"
    },
    {
      "inputs": [],
      "name": "bond",
      "outputs": [
        {
          "internalType": "string",
          "name": "",
          "type": "string"
        }
      ],
      "stateMutability": "view",
      "type": "function"
    },
    {
      "inputs": [
        {
          "internalType": "address",
          "name": "newDev",
          "type": "address"
        }
      ],
      "name": "changeDev",
      "outputs": [],
      "stateMutability": "nonpayable",
      "type": "function"
    },
    {
      "inputs": [],
      "name": "defaultLifespan",
      "outputs": [
        {
          "internalType": "uint256",
          "name": "",
          "type": "uint256"
        }
      ],
      "stateMutability": "view",
      "type": "function"
    },
    {
      "inputs": [],
      "name": "defaultResolver",
      "outputs": [
        {
          "internalType": "address",
          "name": "",
          "type": "address"
        }
      ],
      "stateMutability": "view",
      "type": "function"
    },
    {
      "inputs": [],
      "name": "ensRegistry",
      "outputs": [
        {
          "internalType": "address",
          "name": "",
          "type": "address"
        }
      ],
      "stateMutability": "view",
      "type": "function"
    },
    {
      "inputs": [],
      "name": "getPrices",
      "outputs": [
        {
          "internalType": "uint256[4]",
          "name": "",
          "type": "uint256[4]"
        }
      ],
      "stateMutability": "view",
      "type": "function"
    },
    {
      "inputs": [],
      "name": "getRegistry",
      "outputs": [
        {
          "internalType": "address[4]",
          "name": "",
          "type": "address[4]"
        }
      ],
      "stateMutability": "view",
      "type": "function"
    },
    {
      "inputs": [],
      "name": "getRoothash",
      "outputs": [
        {
          "internalType": "bytes32[4]",
          "name": "",
          "type": "bytes32[4]"
        }
      ],
      "stateMutability": "view",
      "type": "function"
    },
    {
      "inputs": [
        {
          "internalType": "uint256",
          "name": "",
          "type": "uint256"
        }
      ],
      "name": "helix2Registry",
      "outputs": [
        {
          "internalType": "address",
          "name": "",
          "type": "address"
        }
      ],
      "stateMutability": "view",
      "type": "function"
    },
    {
      "inputs": [
        {
          "internalType": "uint256",
          "name": "",
          "type": "uint256"
        }
      ],
      "name": "illegalBlocks",
      "outputs": [
        {
          "internalType": "string",
          "name": "",
          "type": "string"
        }
      ],
      "stateMutability": "view",
      "type": "function"
    },
    {
      "inputs": [
        {
          "internalType": "address",
          "name": "",
          "type": "address"
        },
        {
          "internalType": "address",
          "name": "",
          "type": "address"
        }
      ],
      "name": "isApprovedForAll",
      "outputs": [
        {
          "internalType": "bool",
          "name": "",
          "type": "bool"
        }
      ],
      "stateMutability": "view",
      "type": "function"
    },
    {
      "inputs": [],
      "name": "isDev",
      "outputs": [
        {
          "internalType": "address",
          "name": "",
          "type": "address"
        }
      ],
      "stateMutability": "view",
      "type": "function"
    },
    {
      "inputs": [
        {
          "internalType": "string",
          "name": "_alias",
          "type": "string"
        },
        {
          "internalType": "bytes32",
          "name": "cation",
          "type": "bytes32"
        },
        {
          "internalType": "bytes32",
          "name": "anion",
          "type": "bytes32"
        },
        {
          "internalType": "uint256",
          "name": "lifespan",
          "type": "uint256"
        }
      ],
      "name": "newBond",
      "outputs": [
        {
          "internalType": "bytes32",
          "name": "",
          "type": "bytes32"
        }
      ],
      "stateMutability": "payable",
      "type": "function"
    },
    {
      "inputs": [
        {
          "internalType": "uint256",
          "name": "tokenID",
          "type": "uint256"
        }
      ],
      "name": "ownerOf",
      "outputs": [
        {
          "internalType": "address",
          "name": "",
          "type": "address"
        }
      ],
      "stateMutability": "view",
      "type": "function"
    },
    {
      "inputs": [
        {
          "internalType": "uint256",
          "name": "",
          "type": "uint256"
        }
      ],
      "name": "prices",
      "outputs": [
        {
          "internalType": "uint256",
          "name": "",
          "type": "uint256"
        }
      ],
      "stateMutability": "view",
      "type": "function"
    },
    {
      "inputs": [
        {
          "internalType": "uint256",
          "name": "",
          "type": "uint256"
        }
      ],
      "name": "roothash",
      "outputs": [
        {
          "internalType": "bytes32",
          "name": "",
          "type": "bytes32"
        }
      ],
      "stateMutability": "view",
      "type": "function"
    },
    {
      "inputs": [
        {
          "internalType": "address",
          "name": "from",
          "type": "address"
        },
        {
          "internalType": "address",
          "name": "to",
          "type": "address"
        },
        {
          "internalType": "uint256",
          "name": "tokenID",
          "type": "uint256"
        }
      ],
      "name": "safeTransferFrom",
      "outputs": [],
      "stateMutability": "payable",
      "type": "function"
    },
    {
      "inputs": [
        {
          "internalType": "address",
          "name": "from",
          "type": "address"
        },
        {
          "internalType": "address",
          "name": "to",
          "type": "address"
        },
        {
          "internalType": "uint256",
          "name": "tokenID",
          "type": "uint256"
        },
        {
          "internalType": "bytes",
          "name": "data",
          "type": "bytes"
        }
      ],
      "name": "safeTransferFrom",
      "outputs": [],
      "stateMutability": "payable",
      "type": "function"
    },
    {
      "inputs": [
        {
          "internalType": "address",
          "name": "controller",
          "type": "address"
        },
        {
          "internalType": "bool",
          "name": "flag",
          "type": "bool"
        }
      ],
      "name": "setApprovalForAll",
      "outputs": [],
      "stateMutability": "payable",
      "type": "function"
    },
    {
      "inputs": [
        {
          "internalType": "uint256",
          "name": "_lifespan",
          "type": "uint256"
        }
      ],
      "name": "setDefaultLifespan",
      "outputs": [],
      "stateMutability": "nonpayable",
      "type": "function"
    },
    {
      "inputs": [
        {
          "internalType": "address",
          "name": "_resolver",
          "type": "address"
        }
      ],
      "name": "setDefaultResolver",
      "outputs": [],
      "stateMutability": "nonpayable",
      "type": "function"
    },
    {
      "inputs": [
        {
          "internalType": "bytes4",
          "name": "sig",
          "type": "bytes4"
        },
        {
          "internalType": "bool",
          "name": "value",
          "type": "bool"
        }
      ],
      "name": "setInterface",
      "outputs": [],
      "stateMutability": "payable",
      "type": "function"
    },
    {
      "inputs": [
        {
          "internalType": "uint256",
          "name": "",
          "type": "uint256"
        }
      ],
      "name": "sizes",
      "outputs": [
        {
          "internalType": "uint256",
          "name": "",
          "type": "uint256"
        }
      ],
      "stateMutability": "view",
      "type": "function"
    },
    {
      "inputs": [
        {
          "internalType": "bytes4",
          "name": "",
          "type": "bytes4"
        }
      ],
      "name": "supportsInterface",
      "outputs": [
        {
          "internalType": "bool",
          "name": "",
          "type": "bool"
        }
      ],
      "stateMutability": "view",
      "type": "function"
    },
    {
      "inputs": [],
      "name": "symbol",
      "outputs": [
        {
          "internalType": "string",
          "name": "",
          "type": "string"
        }
      ],
      "stateMutability": "view",
      "type": "function"
    },
    {
      "inputs": [
        {
          "internalType": "address",
          "name": "from",
          "type": "address"
        },
        {
          "internalType": "address",
          "name": "to",
          "type": "address"
        },
        {
          "internalType": "uint256",
          "name": "tokenID",
          "type": "uint256"
        }
      ],
      "name": "transferFrom",
      "outputs": [],
      "stateMutability": "payable",
      "type": "function"
    },
    {
      "inputs": [],
      "name": "withdrawEther",
      "outputs": [],
      "stateMutability": "payable",
      "type": "function"
    },
    {
      "inputs": [
        {
          "internalType": "address",
          "name": "token",
          "type": "address"
        }
      ],
      "name": "withdrawToken",
      "outputs": [],
      "stateMutability": "payable",
      "type": "function"
    },
    {
      "stateMutability": "payable",
      "type": "receive"
    }
  ],
  "bytecode": {
    "object": "0x6001610100818152601760f91b610120526080908152610140828152603f60f81b6101605260a052610180828152602160f81b6101a05260c0526102006040526101c0828152602360f81b6101e05260e0526200005f9190600462000488565b50604080516080810182526020808252808201819052918101829052606081019190915262000093906005906004620004d8565b5060408051608081018252600060a082018190527f6f010af653ebe3cb07d297a4ef13366103d392ceffa68dd48232e6e9ff2187bf60c0808401919091528351808403909101815260e0830184528051602091820120835283518082018390527f5f179612d7132c8ed24ba0e286d60d398c4aa1c234eb2274ca1bba47718e9d3181860152845180820386018152606091820186528051908301208285015284518083018490527f3275a893b2c93461554cf2a4dd7f413d56decdd6f3fdf0589dbb8bc4fd742386818701528551808203870181529082018652805190830120848601528451808301939093527face738c68088218d015fbdce138f062893d86818ac98932f7ce2907c5976fbde83860152845180840386018152928101909452815191012091810191909152620001d09060099060046200051c565b50600d80546001600160a01b0319166e0c2e074ec69a0dfb2997ba6c7d2e1e1790556040805160808101825260018152600260208201526003918101919091526004606082018190526200022791600e916200054d565b506040805160808101825262030d408082526020820181905291810182905260608101919091526200025e90601290600462000598565b506016805460ff19166001179055601c80546001600160a01b031916905560408051635ab1bd5360e01b81529051600091635ab1bd539160048083019260809291908290030181865afa158015620002ba573d6000803e3d6000fd5b505050506040513d601f19601f82011682018060405250810190620002e09190620006a8565b60016020020151601d80546001600160a01b0319166001600160a01b039283161790556401cf7c5800601f55601c546040805163bd9a548b60e01b81529051919092169163bd9a548b9160048083019260809291908290030181865afa1580156200034f573d6000803e3d6000fd5b505050506040513d601f19601f8201168201806040525081019062000375919062000718565b6020908101519055602180546001600160a01b03191690553480156200039a57600080fd5b5060405162002ba238038062002ba2833981016040819052620003bd9162000774565b6000805460176020527f4152fdd4960944ad2843ab0640e4bafb0ddf2caf06de54df701cf7a17df044aa8054600160ff1991821681179092557f6779f08d87897b1938d8ae1ed3d650e2616775c110ff5d98b7f82c079d97c7788054821683179055635b5e139f60e01b84527f244a57cf9422b23a74eac7556da7a02b4681eb0e2f9c3613963f0b44ad43886080549091169091179055602180546001600160a01b03199081166001600160a01b0395909516949094179055821633928316179091179055620008f4565b8260048101928215620004c6579160200282015b82811115620004c65782518290620004b5908262000828565b50916020019190600101906200049c565b50620004d4929150620005d0565b5090565b82600481019282156200050e579160200282015b828111156200050e578251829060ff16905591602001919060010190620004ec565b50620004d4929150620005f1565b82600481019282156200050e579160200282015b828111156200050e57825182559160200191906001019062000530565b82600481019282156200050e579160200282015b828111156200050e57825182546001600160a01b0319166001600160a01b0390911617825560209092019160019091019062000561565b82600481019282156200050e579160200282015b828111156200050e578251829062ffffff16905591602001919060010190620005ac565b80821115620004d4576000620005e7828262000608565b50600101620005d0565b5b80821115620004d45760008155600101620005f2565b508054620006169062000799565b6000825580601f1062000627575050565b601f016020900490600052602060002090810190620006479190620005f1565b50565b634e487b7160e01b600052604160045260246000fd5b604051608081016001600160401b03811182821017156200068557620006856200064a565b60405290565b80516001600160a01b0381168114620006a357600080fd5b919050565b600060808284031215620006bb57600080fd5b82601f830112620006cb57600080fd5b620006d562000660565b806080840185811115620006e857600080fd5b845b818110156200070d57620006fe816200068b565b845260209384019301620006ea565b509095945050505050565b6000608082840312156200072b57600080fd5b82601f8301126200073b57600080fd5b6200074562000660565b8060808401858111156200075857600080fd5b845b818110156200070d5780518452602093840193016200075a565b6000602082840312156200078757600080fd5b62000792826200068b565b9392505050565b600181811c90821680620007ae57607f821691505b602082108103620007cf57634e487b7160e01b600052602260045260246000fd5b50919050565b601f8211156200082357600081815260208120601f850160051c81016020861015620007fe5750805b601f850160051c820191505b818110156200081f578281556001016200080a565b5050505b505050565b81516001600160401b038111156200084457620008446200064a565b6200085c8162000855845462000799565b84620007d5565b602080601f8311600181146200089457600084156200087b5750858301515b600019600386901b1c1916600185901b1785556200081f565b600085815260208120601f198616915b82811015620008c557888601518255948401946001909101908401620008a4565b5085821015620008e45787850151600019600388901b60f8161c191681555b5050505050600190811b01905550565b61229e80620009046000396000f3fe60806040526004361061026e5760003560e01c806380b29beb11610153578063b782426e116100cb578063c66485b21161007f578063d9a9b0c611610064578063d9a9b0c6146106cb578063e985e9c5146106eb578063f079914f1461072657600080fd5b8063c66485b214610695578063c7876ea4146106b557600080fd5b8063bc31c1c1116100b0578063bc31c1c11461064d578063bd9a548b1461066d578063c0a43a7c1461068257600080fd5b8063b782426e1461061a578063b88d4fde1461063a57600080fd5b80638dfcb1c71161012257806395d89b411161010757806395d89b411461059e578063a22cb465146105e7578063b4abea24146105fa57600080fd5b80638dfcb1c7146105485780639024d2821461056857600080fd5b806380b29beb146104d5578063828eab0e146104f557806388a8c95c14610515578063894760691461053557600080fd5b806342842e0e116101e657806364c9ec6f116101b557806370dec5f01161019a57806370dec5f01461048d5780637362377b146104ad5780637d73b231146104b557600080fd5b806364c9ec6f1461041757806370a082311461046d57600080fd5b806342842e0e146103805780635ab1bd53146103b35780636352211e146103d5578063642a8ed6146103f557600080fd5b8063095ea7b31161023d578063222dcf7211610222578063222dcf721461036d57806323b872dd14610380578063395063081461039357600080fd5b8063095ea7b3146103345780630e6c0bdb1461034957600080fd5b806301e51ae81461027d57806301ffc9a7146102ba57806302fb0c5e146102fa57806305e84aa01461031457600080fd5b3661027857600080fd5b600080fd5b34801561028957600080fd5b5060005461029d906001600160a01b031681565b6040516001600160a01b0390911681526020015b60405180910390f35b3480156102c657600080fd5b506102ea6102d5366004611bd9565b60176020526000908152604090205460ff1681565b60405190151581526020016102b1565b34801561030657600080fd5b506016546102ea9060ff1681565b34801561032057600080fd5b50601d5461029d906001600160a01b031681565b610347610342366004611c12565b610744565b005b34801561035557600080fd5b5061035f601f5481565b6040519081526020016102b1565b61035f61037b366004611ce3565b61086d565b61034761038e366004611d4b565b610fcb565b34801561039f57600080fd5b506103476103ae366004611d8c565b610feb565b3480156103bf57600080fd5b506103c8611049565b6040516102b19190611da5565b3480156103e157600080fd5b5061029d6103f0366004611d8c565b61108e565b34801561040157600080fd5b5061040a61110e565b6040516102b19190611ddf565b34801561042357600080fd5b506104606040518060400160405280601381526020017f48656c69783220426f6e6420536572766963650000000000000000000000000081525081565b6040516102b19190611e57565b34801561047957600080fd5b5061035f610488366004611e6a565b611149565b34801561049957600080fd5b5061029d6104a8366004611d8c565b6111bd565b6103476111dd565b3480156104c157600080fd5b50600d5461029d906001600160a01b031681565b3480156104e157600080fd5b506104606104f0366004611d8c565b611283565b34801561050157600080fd5b5060225461029d906001600160a01b031681565b34801561052157600080fd5b50610347610530366004611e6a565b611323565b610347610543366004611e6a565b6113fd565b34801561055457600080fd5b5061035f610563366004611d8c565b611523565b34801561057457600080fd5b5061029d610583366004611d8c565b601a602052600090815260409020546001600160a01b031681565b3480156105aa57600080fd5b506104606040518060400160405280600381526020017f484253000000000000000000000000000000000000000000000000000000000081525081565b6103476105f5366004611e95565b61153a565b34801561060657600080fd5b5060215461029d906001600160a01b031681565b34801561062657600080fd5b50601c5461029d906001600160a01b031681565b610347610648366004611ece565b6115c4565b34801561065957600080fd5b5061035f610668366004611d8c565b6115d6565b34801561067957600080fd5b5061040a6115e6565b610347610690366004611f4e565b61161c565b3480156106a157600080fd5b506103476106b0366004611e6a565b611749565b3480156106c157600080fd5b5061035f60205481565b3480156106d757600080fd5b5061035f6106e6366004611d8c565b6117dc565b3480156106f757600080fd5b506102ea610706366004611f6c565b601b60209081526000928352604080842090915290825290205460ff1681565b34801561073257600080fd5b506000546001600160a01b031661029d565b6000818152601860205260409020546001600160a01b03163314158061079757506000818152601860209081526040808320546001600160a01b03168352601b825280832033845290915290205460ff16155b156107fc57600081815260186020526040908190205490517f431ef6160000000000000000000000000000000000000000000000000000000081523360048201526001600160a01b039091166024820152604481018290526064015b60405180910390fd5b6000818152601a602052604080822080547fffffffffffffffffffffffff0000000000000000000000000000000000000000166001600160a01b0386169081179091559051839233917f8c5be1e5ebec7d5bd14f71427d1e84f3dd0314c0f7b2291e5b200ac8c7c3b9259190a45050565b6000846005600101548151106108c55760405162461bcd60e51b815260206004820152600d60248201527f494c4c4547414c5f4c4142454c0000000000000000000000000000000000000060448201526064016107f3565b6040517f8572a5d300000000000000000000000000000000000000000000000000000000815273__$47e4ffaaf323c41735ff299f8946896ce0$__90638572a5d390610918908490600190600401611fed565b602060405180830381865af4158015610935573d6000803e3d6000fd5b505050506040513d601f19601f82011682018060405250810190610959919061211b565b156109a65760405162461bcd60e51b815260206004820152600d60248201527f494c4c4547414c5f43484152530000000000000000000000000000000000000060448201526064016107f3565b601d546040517f02571be3000000000000000000000000000000000000000000000000000000008152600481018790526000916001600160a01b0316906302571be390602401602060405180830381865afa158015610a09573d6000803e3d6000fd5b505050506040513d601f19601f82011682018060405250810190610a2d9190612138565b9050601f54841015610a815760405162461bcd60e51b815260206004820152601260248201527f4c4946455350414e5f544f4f5f53484f5254000000000000000000000000000060448201526064016107f3565b83602054610a8f9190612184565b341015610ade5760405162461bcd60e51b815260206004820152601260248201527f494e53554646494349454e545f4554484552000000000000000000000000000060448201526064016107f3565b600087604051602001610af191906121c1565b60408051808303601f190181528282528051602091820120600a549184018b90529183015260608201819052915060009060800160408051808303601f190181529082905280516020909101206021547f8146970a00000000000000000000000000000000000000000000000000000000835260048301829052602483018b90529092506001600160a01b031690638146970a90604401600060405180830381600087803b158015610ba257600080fd5b505af1158015610bb6573d6000803e3d6000fd5b50506021546040517fa3be52a200000000000000000000000000000000000000000000000000000000815260048101859052602481018b90526001600160a01b03909116925063a3be52a29150604401600060405180830381600087803b158015610c2057600080fd5b505af1158015610c34573d6000803e3d6000fd5b50506021546001600160a01b031691506339de6469905082610c5689426121dd565b6040517fffffffff0000000000000000000000000000000000000000000000000000000060e085901b16815260048101929092526024820152604401600060405180830381600087803b158015610cac57600080fd5b505af1158015610cc0573d6000803e3d6000fd5b50506021546040517fd3156905000000000000000000000000000000000000000000000000000000008152600481018590526001600160a01b038781166024830152909116925063d31569059150604401600060405180830381600087803b158015610d2b57600080fd5b505af1158015610d3f573d6000803e3d6000fd5b50506021546022546040517f1896f70a000000000000000000000000000000000000000000000000000000008152600481018690526001600160a01b03918216602482015291169250631896f70a9150604401600060405180830381600087803b158015610dac57600080fd5b505af1158015610dc0573d6000803e3d6000fd5b50506021546040517f1f06e91c00000000000000000000000000000000000000000000000000000000815260048101859052602481018690526001600160a01b039091169250631f06e91c9150604401600060405180830381600087803b158015610e2a57600080fd5b505af1158015610e3e573d6000803e3d6000fd5b50506021546040517fe7db171700000000000000000000000000000000000000000000000000000000815260048101859052600060248201526001600160a01b03909116925063e7db17179150604401600060405180830381600087803b158015610ea857600080fd5b505af1158015610ebc573d6000803e3d6000fd5b50506021546040517f21ec2b5b000000000000000000000000000000000000000000000000000000008152600481018590526001600160a01b0390911692506321ec2b5b9150602401600060405180830381600087803b158015610f1f57600080fd5b505af1158015610f33573d6000803e3d6000fd5b505050600082815260186020908152604080832080547fffffffffffffffffffffffff0000000000000000000000000000000000000000166001600160a01b038916908117909155835260198252918290208054600101905590518a81528392507f83b933ae5067371fb6246d78f0c57549a6f46923196d7537844c75e24bdaaf34910160405180910390a298975050505050505050565b610fe6838383604051806020016040528060008152506117ec565b505050565b6000546001600160a01b03163314611044576000546040517f8ea458f60000000000000000000000000000000000000000000000000000000081526001600160a01b0390911660048201523360248201526044016107f3565b601f55565b611051611b8d565b60408051608081019182905290600e9060049082845b81546001600160a01b03168152600190910190602001808311611067575050505050905090565b6000818152601860205260408120546001600160a01b03166110f25760405162461bcd60e51b815260206004820152600f60248201527f494e56414c49445f544f4b454e4944000000000000000000000000000000000060448201526064016107f3565b506000908152601860205260409020546001600160a01b031690565b611116611b8d565b6040805160808101918290529060099060049082845b81548152602001906001019080831161112c575050505050905090565b60006001600160a01b0382166111a15760405162461bcd60e51b815260206004820152600c60248201527f5a45524f5f41444452455353000000000000000000000000000000000000000060448201526064016107f3565b506001600160a01b031660009081526019602052604090205490565b600e81600481106111cd57600080fd5b01546001600160a01b0316905081565b600080546040516001600160a01b039091169047908381818185875af1925050503d806000811461122a576040519150601f19603f3d011682016040523d82523d6000602084013e61122f565b606091505b50509050806112805760405162461bcd60e51b815260206004820152601360248201527f4554485f5452414e534645525f4641494c45440000000000000000000000000060448201526064016107f3565b50565b6001816004811061129357600080fd5b0180549091506112a290611f9a565b80601f01602080910402602001604051908101604052809291908181526020018280546112ce90611f9a565b801561131b5780601f106112f05761010080835404028352916020019161131b565b820191906000526020600020905b8154815290600101906020018083116112fe57829003601f168201915b505050505081565b6000546001600160a01b0316331461137c576000546040517f8ea458f60000000000000000000000000000000000000000000000000000000081526001600160a01b0390911660048201523360248201526044016107f3565b600054604080516001600160a01b03928316815291831660208301527fdec101f106d4fc7c85791843e64b198248c822298e3ed7046231d33f7783d816910160405180910390a1600080547fffffffffffffffffffffffff0000000000000000000000000000000000000000166001600160a01b0392909216919091179055565b6000546040517f70a0823100000000000000000000000000000000000000000000000000000000815230600482018190526001600160a01b03848116936323b872dd9391169084906370a0823190602401602060405180830381865afa15801561146b573d6000803e3d6000fd5b505050506040513d601f19601f8201168201806040525081019061148f91906121f6565b6040517fffffffff0000000000000000000000000000000000000000000000000000000060e086901b1681526001600160a01b03938416600482015292909116602483015260448201526064016020604051808303816000875af11580156114fb573d6000803e3d6000fd5b505050506040513d601f19601f8201168201806040525081019061151f919061211b565b5050565b6009816004811061153357600080fd5b0154905081565b336000818152601b602090815260408083206001600160a01b0387168085529083529281902080547fffffffffffffffffffffffffffffffffffffffffffffffffffffffffffffff001686151590811790915590519081529192917f17307eab39ab6107e8899845ad3d59bd9653f200f220920489ca2b5937696c31910160405180910390a35050565b6115d0848484846117ec565b50505050565b6012816004811061153357600080fd5b6115ee611b8d565b604080516080810191829052601280548252909160049060136020850180831161112c575050505050905090565b6000546001600160a01b03163314611675576000546040517f8ea458f60000000000000000000000000000000000000000000000000000000081526001600160a01b0390911660048201523360248201526044016107f3565b7fffffffff0000000000000000000000000000000000000000000000000000000080831690036116e75760405162461bcd60e51b815260206004820152601a60248201527f494e56414c49445f494e544552464143455f53454c4543544f5200000000000060448201526064016107f3565b7fffffffff0000000000000000000000000000000000000000000000000000000091909116600090815260176020526040902080547fffffffffffffffffffffffffffffffffffffffffffffffffffffffffffffff0016911515919091179055565b6000546001600160a01b031633146117a2576000546040517f8ea458f60000000000000000000000000000000000000000000000000000000081526001600160a01b0390911660048201523360248201526044016107f3565b602280547fffffffffffffffffffffffff0000000000000000000000000000000000000000166001600160a01b0392909216919091179055565b6005816004811061153357600080fd5b6001600160a01b03831661182c576040517f5788079900000000000000000000000000000000000000000000000000000000815260040160405180910390fd5b6000828152601860205260409020546001600160a01b038581169116146118aa57600082815260186020526040908190205490517f431ef6160000000000000000000000000000000000000000000000000000000081526001600160a01b0391821660048201529085166024820152604481018390526064016107f3565b6000828152601860205260409020546001600160a01b031633148015906118f557506001600160a01b0384166000908152601b6020908152604080832033845290915290205460ff16155b801561191857506000828152601a60205260409020546001600160a01b03163314155b15611967576040517f431ef6160000000000000000000000000000000000000000000000000000000081523360048201526001600160a01b0385166024820152604481018390526064016107f3565b6000828152601a6020908152604080832080547fffffffffffffffffffffffff00000000000000000000000000000000000000009081169091556018835281842080546001600160a01b03898116919093168117909155908816808552601990935281842080547fffffffffffffffffffffffffffffffffffffffffffffffffffffffffffffffff01905580845281842080546001019055905185939192917fddf252ad1be2c89b69c2b068fc378daa952ba7f163c4a11628f55a4df523b3ef91a46001600160a01b0383163b156115d0576040517f150b7a020000000000000000000000000000000000000000000000000000000081526001600160a01b0384169063150b7a0290611a8490339088908790879060040161220f565b6020604051808303816000875af1925050508015611abf575060408051601f3d908101601f19168201909252611abc9181019061224b565b60015b611b00576040517f3a9f8cb30000000000000000000000000000000000000000000000000000000081526001600160a01b03841660048201526024016107f3565b7fffffffff0000000000000000000000000000000000000000000000000000000081167f150b7a020000000000000000000000000000000000000000000000000000000014611b86576040517f3a9f8cb30000000000000000000000000000000000000000000000000000000081526001600160a01b03851660048201526024016107f3565b5050505050565b60405180608001604052806004906020820280368337509192915050565b7fffffffff000000000000000000000000000000000000000000000000000000008116811461128057600080fd5b600060208284031215611beb57600080fd5b8135611bf681611bab565b9392505050565b6001600160a01b038116811461128057600080fd5b60008060408385031215611c2557600080fd5b8235611c3081611bfd565b946020939093013593505050565b7f4e487b7100000000000000000000000000000000000000000000000000000000600052604160045260246000fd5b600067ffffffffffffffff80841115611c8857611c88611c3e565b604051601f8501601f19908116603f01168101908282118183101715611cb057611cb0611c3e565b81604052809350858152868686011115611cc957600080fd5b858560208301376000602087830101525050509392505050565b60008060008060808587031215611cf957600080fd5b843567ffffffffffffffff811115611d1057600080fd5b8501601f81018713611d2157600080fd5b611d3087823560208401611c6d565b97602087013597506040870135966060013595509350505050565b600080600060608486031215611d6057600080fd5b8335611d6b81611bfd565b92506020840135611d7b81611bfd565b929592945050506040919091013590565b600060208284031215611d9e57600080fd5b5035919050565b60808101818360005b6004811015611dd65781516001600160a01b0316835260209283019290910190600101611dae565b50505092915050565b60808101818360005b6004811015611dd6578151835260209283019290910190600101611de8565b60005b83811015611e22578181015183820152602001611e0a565b50506000910152565b60008151808452611e43816020860160208601611e07565b601f01601f19169290920160200192915050565b602081526000611bf66020830184611e2b565b600060208284031215611e7c57600080fd5b8135611bf681611bfd565b801515811461128057600080fd5b60008060408385031215611ea857600080fd5b8235611eb381611bfd565b91506020830135611ec381611e87565b809150509250929050565b60008060008060808587031215611ee457600080fd5b8435611eef81611bfd565b93506020850135611eff81611bfd565b925060408501359150606085013567ffffffffffffffff811115611f2257600080fd5b8501601f81018713611f3357600080fd5b611f4287823560208401611c6d565b91505092959194509250565b60008060408385031215611f6157600080fd5b8235611eb381611bab565b60008060408385031215611f7f57600080fd5b8235611f8a81611bfd565b91506020830135611ec381611bfd565b600181811c90821680611fae57607f821691505b602082108103611fe7577f4e487b7100000000000000000000000000000000000000000000000000000000600052602260045260246000fd5b50919050565b6040815260006120006040830185611e2b565b60208382038185015281829050608083018660005b6004808210612024575061210d565b86840385528254600090600181811c908083168061204357607f831692505b8a83108103612078577f4e487b7100000000000000000000000000000000000000000000000000000000855260228652602485fd5b82895260208901955080801561209557600181146120c9576120f4565b7fffffffffffffffffffffffffffffffffffffffffffffffffffffffffffffff008516875283151560051b870195506120f4565b60008981526020902060005b858110156120ee57815489820152908401908d016120d5565b88019650505b5050978901979296505050929092019150600101612015565b509098975050505050505050565b60006020828403121561212d57600080fd5b8151611bf681611e87565b60006020828403121561214a57600080fd5b8151611bf681611bfd565b7f4e487b7100000000000000000000000000000000000000000000000000000000600052601160045260246000fd5b6000817fffffffffffffffffffffffffffffffffffffffffffffffffffffffffffffffff04831182151516156121bc576121bc612155565b500290565b600082516121d3818460208701611e07565b9190910192915050565b808201808211156121f0576121f0612155565b92915050565b60006020828403121561220857600080fd5b5051919050565b60006001600160a01b038087168352808616602084015250836040830152608060608301526122416080830184611e2b565b9695505050505050565b60006020828403121561225d57600080fd5b8151611bf681611bab56fea2646970667358221220a63417645af4055b5a7b67d79f6beb28a65181e5c112cd217c32819d9338af8864736f6c63430008100033",
    "linkReferences": {
      "src/Utils/LibString.sol": {
        "LibString": [
          {
            "start": 4593,
            "length": 20
          }
        ]
      }
    }
  },
  "methodIdentifiers": {
    "BONDS()": "b4abea24",
    "Dev()": "01e51ae8",
    "HELIX2()": "b782426e",
    "NAMES()": "05e84aa0",
    "_approved(uint256)": "9024d282",
    "active()": "02fb0c5e",
    "approve(address,uint256)": "095ea7b3",
    "balanceOf(address)": "70a08231",
    "basePrice()": "c7876ea4",
    "bond()": "64c9ec6f",
    "changeDev(address)": "88a8c95c",
    "defaultLifespan()": "0e6c0bdb",
    "defaultResolver()": "828eab0e",
    "ensRegistry()": "7d73b231",
    "getPrices()": "bd9a548b",
    "getRegistry()": "5ab1bd53",
    "getRoothash()": "642a8ed6",
    "helix2Registry(uint256)": "70dec5f0",
    "illegalBlocks(uint256)": "80b29beb",
    "isApprovedForAll(address,address)": "e985e9c5",
    "isDev()": "f079914f",
    "newBond(string,bytes32,bytes32,uint256)": "222dcf72",
    "ownerOf(uint256)": "6352211e",
    "prices(uint256)": "bc31c1c1",
    "roothash(uint256)": "8dfcb1c7",
    "safeTransferFrom(address,address,uint256)": "42842e0e",
    "safeTransferFrom(address,address,uint256,bytes)": "b88d4fde",
    "setApprovalForAll(address,bool)": "a22cb465",
    "setDefaultLifespan(uint256)": "39506308",
    "setDefaultResolver(address)": "c66485b2",
    "setInterface(bytes4,bool)": "c0a43a7c",
    "sizes(uint256)": "d9a9b0c6",
    "supportsInterface(bytes4)": "01ffc9a7",
    "symbol()": "95d89b41",
    "transferFrom(address,address,uint256)": "23b872dd",
    "withdrawEther()": "7362377b",
    "withdrawToken(address)": "89476069"
  },
  "id": 25
}