{
  "abi": [
    {
      "inputs": [
        {
          "internalType": "address",
          "name": "_registry",
          "type": "address"
        }
      ],
      "stateMutability": "nonpayable",
      "type": "constructor"
    },
    {
      "inputs": [],
      "name": "CannotBurn",
      "type": "error"
    },
    {
      "inputs": [
        {
          "internalType": "address",
          "name": "to",
          "type": "address"
        }
      ],
      "name": "ERC721IncompatibleReceiver",
      "type": "error"
    },
    {
      "inputs": [
        {
          "internalType": "address",
          "name": "_dev",
          "type": "address"
        },
        {
          "internalType": "address",
          "name": "_you",
          "type": "address"
        }
      ],
      "name": "OnlyDev",
      "type": "error"
    },
    {
      "inputs": [
        {
          "internalType": "address",
          "name": "operator",
          "type": "address"
        },
        {
          "internalType": "address",
          "name": "owner",
          "type": "address"
        },
        {
          "internalType": "uint256",
          "name": "tokenID",
          "type": "uint256"
        }
      ],
      "name": "Unauthorized",
      "type": "error"
    },
    {
      "anonymous": false,
      "inputs": [
        {
          "indexed": true,
          "internalType": "address",
          "name": "owner",
          "type": "address"
        },
        {
          "indexed": true,
          "internalType": "address",
          "name": "spender",
          "type": "address"
        },
        {
          "indexed": true,
          "internalType": "uint256",
          "name": "tokenID",
          "type": "uint256"
        }
      ],
      "name": "Approval",
      "type": "event"
    },
    {
      "anonymous": false,
      "inputs": [
        {
          "indexed": true,
          "internalType": "address",
          "name": "owner",
          "type": "address"
        },
        {
          "indexed": true,
          "internalType": "address",
          "name": "operator",
          "type": "address"
        },
        {
          "indexed": false,
          "internalType": "bool",
          "name": "approved",
          "type": "bool"
        }
      ],
      "name": "ApprovalForAll",
      "type": "event"
    },
    {
      "anonymous": false,
      "inputs": [
        {
          "indexed": true,
          "internalType": "bytes32",
          "name": "bondhash",
          "type": "bytes32"
        },
        {
          "indexed": false,
          "internalType": "bytes32",
          "name": "cation",
          "type": "bytes32"
        }
      ],
      "name": "NewBond",
      "type": "event"
    },
    {
      "anonymous": false,
      "inputs": [
        {
          "indexed": true,
          "internalType": "bytes32",
          "name": "bondhash",
          "type": "bytes32"
        },
        {
          "indexed": false,
          "internalType": "bytes32",
          "name": "cation",
          "type": "bytes32"
        }
      ],
      "name": "NewCation",
      "type": "event"
    },
    {
      "anonymous": false,
      "inputs": [
        {
          "indexed": true,
          "internalType": "bytes32",
          "name": "bondhash",
          "type": "bytes32"
        },
        {
          "indexed": false,
          "internalType": "address",
          "name": "controller",
          "type": "address"
        }
      ],
      "name": "NewController",
      "type": "event"
    },
    {
      "anonymous": false,
      "inputs": [
        {
          "indexed": false,
          "internalType": "address",
          "name": "Dev",
          "type": "address"
        },
        {
          "indexed": false,
          "internalType": "address",
          "name": "newDev",
          "type": "address"
        }
      ],
      "name": "NewDev",
      "type": "event"
    },
    {
      "anonymous": false,
      "inputs": [
        {
          "indexed": true,
          "internalType": "bytes32",
          "name": "bondhash",
          "type": "bytes32"
        },
        {
          "indexed": false,
          "internalType": "uint256",
          "name": "expiry",
          "type": "uint256"
        }
      ],
      "name": "NewExpiry",
      "type": "event"
    },
    {
      "anonymous": false,
      "inputs": [
        {
          "indexed": true,
          "internalType": "bytes32",
          "name": "bondhash",
          "type": "bytes32"
        },
        {
          "indexed": false,
          "internalType": "address",
          "name": "resolver",
          "type": "address"
        }
      ],
      "name": "NewRecord",
      "type": "event"
    },
    {
      "anonymous": false,
      "inputs": [
        {
          "indexed": true,
          "internalType": "bytes32",
          "name": "bondhash",
          "type": "bytes32"
        },
        {
          "indexed": false,
          "internalType": "address",
          "name": "resolver",
          "type": "address"
        }
      ],
      "name": "NewResolver",
      "type": "event"
    },
    {
      "anonymous": false,
      "inputs": [
        {
          "indexed": true,
          "internalType": "address",
          "name": "from",
          "type": "address"
        },
        {
          "indexed": true,
          "internalType": "address",
          "name": "to",
          "type": "address"
        },
        {
          "indexed": true,
          "internalType": "uint256",
          "name": "tokenID",
          "type": "uint256"
        }
      ],
      "name": "Transfer",
      "type": "event"
    },
    {
      "stateMutability": "payable",
      "type": "fallback"
    },
    {
      "inputs": [],
      "name": "BONDS",
      "outputs": [
        {
          "internalType": "contract iBOND",
          "name": "",
          "type": "address"
        }
      ],
      "stateMutability": "view",
      "type": "function"
    },
    {
      "inputs": [],
      "name": "Dev",
      "outputs": [
        {
          "internalType": "address",
          "name": "",
          "type": "address"
        }
      ],
      "stateMutability": "view",
      "type": "function"
    },
    {
      "inputs": [],
      "name": "HELIX2",
      "outputs": [
        {
          "internalType": "contract iHELIX2",
          "name": "",
          "type": "address"
        }
      ],
      "stateMutability": "view",
      "type": "function"
    },
    {
      "inputs": [],
      "name": "NAMES",
      "outputs": [
        {
          "internalType": "contract iNAME",
          "name": "",
          "type": "address"
        }
      ],
      "stateMutability": "view",
      "type": "function"
    },
    {
      "inputs": [
        {
          "internalType": "uint256",
          "name": "",
          "type": "uint256"
        }
      ],
      "name": "_approved",
      "outputs": [
        {
          "internalType": "address",
          "name": "",
          "type": "address"
        }
      ],
      "stateMutability": "view",
      "type": "function"
    },
    {
      "inputs": [],
      "name": "active",
      "outputs": [
        {
          "internalType": "bool",
          "name": "",
          "type": "bool"
        }
      ],
      "stateMutability": "view",
      "type": "function"
    },
    {
      "inputs": [
        {
          "internalType": "address",
          "name": "controller",
          "type": "address"
        },
        {
          "internalType": "uint256",
          "name": "tokenID",
          "type": "uint256"
        }
      ],
      "name": "approve",
      "outputs": [],
      "stateMutability": "payable",
      "type": "function"
    },
    {
      "inputs": [
        {
          "internalType": "address",
          "name": "wallet",
          "type": "address"
        }
      ],
      "name": "balanceOf",
      "outputs": [
        {
          "internalType": "uint256",
          "name": "",
          "type": "uint256"
        }
      ],
      "stateMutability": "view",
      "type": "function"
    },
    {
      "inputs": [],
      "name": "basePrice",
      "outputs": [
        {
          "internalType": "uint256",
          "name": "",
          "type": "uint256"
        }
      ],
      "stateMutability": "view",
      "type": "function"
    },
    {
      "inputs": [],
      "name": "bond",
      "outputs": [
        {
          "internalType": "string",
          "name": "",
          "type": "string"
        }
      ],
      "stateMutability": "view",
      "type": "function"
    },
    {
      "inputs": [
        {
          "internalType": "address",
          "name": "newDev",
          "type": "address"
        }
      ],
      "name": "changeDev",
      "outputs": [],
      "stateMutability": "nonpayable",
      "type": "function"
    },
    {
      "inputs": [],
      "name": "defaultLifespan",
      "outputs": [
        {
          "internalType": "uint256",
          "name": "",
          "type": "uint256"
        }
      ],
      "stateMutability": "view",
      "type": "function"
    },
    {
      "inputs": [],
      "name": "defaultResolver",
      "outputs": [
        {
          "internalType": "address",
          "name": "",
          "type": "address"
        }
      ],
      "stateMutability": "view",
      "type": "function"
    },
    {
      "inputs": [],
      "name": "ensRegistry",
      "outputs": [
        {
          "internalType": "address",
          "name": "",
          "type": "address"
        }
      ],
      "stateMutability": "view",
      "type": "function"
    },
    {
      "inputs": [],
      "name": "getPrices",
      "outputs": [
        {
          "internalType": "uint256[4]",
          "name": "",
          "type": "uint256[4]"
        }
      ],
      "stateMutability": "view",
      "type": "function"
    },
    {
      "inputs": [],
      "name": "getRegistry",
      "outputs": [
        {
          "internalType": "address[4]",
          "name": "",
          "type": "address[4]"
        }
      ],
      "stateMutability": "view",
      "type": "function"
    },
    {
      "inputs": [],
      "name": "getRoothash",
      "outputs": [
        {
          "internalType": "bytes32[4]",
          "name": "",
          "type": "bytes32[4]"
        }
      ],
      "stateMutability": "view",
      "type": "function"
    },
    {
      "inputs": [
        {
          "internalType": "uint256",
          "name": "",
          "type": "uint256"
        }
      ],
      "name": "helix2Registry",
      "outputs": [
        {
          "internalType": "address",
          "name": "",
          "type": "address"
        }
      ],
      "stateMutability": "view",
      "type": "function"
    },
    {
      "inputs": [
        {
          "internalType": "uint256",
          "name": "",
          "type": "uint256"
        }
      ],
      "name": "illegalBlocks",
      "outputs": [
        {
          "internalType": "string",
          "name": "",
          "type": "string"
        }
      ],
      "stateMutability": "view",
      "type": "function"
    },
    {
      "inputs": [
        {
          "internalType": "address",
          "name": "",
          "type": "address"
        },
        {
          "internalType": "address",
          "name": "",
          "type": "address"
        }
      ],
      "name": "isApprovedForAll",
      "outputs": [
        {
          "internalType": "bool",
          "name": "",
          "type": "bool"
        }
      ],
      "stateMutability": "view",
      "type": "function"
    },
    {
      "inputs": [],
      "name": "isDev",
      "outputs": [
        {
          "internalType": "address",
          "name": "",
          "type": "address"
        }
      ],
      "stateMutability": "view",
      "type": "function"
    },
    {
      "inputs": [
        {
          "internalType": "string",
          "name": "label",
          "type": "string"
        },
        {
          "internalType": "bytes32",
          "name": "cation",
          "type": "bytes32"
        },
        {
          "internalType": "bytes32",
          "name": "anion",
          "type": "bytes32"
        },
        {
          "internalType": "uint256",
          "name": "lifespan",
          "type": "uint256"
        }
      ],
      "name": "newBond",
      "outputs": [
        {
          "internalType": "bytes32",
          "name": "",
          "type": "bytes32"
        }
      ],
      "stateMutability": "payable",
      "type": "function"
    },
    {
      "inputs": [
        {
          "internalType": "uint256",
          "name": "tokenID",
          "type": "uint256"
        }
      ],
      "name": "ownerOf",
      "outputs": [
        {
          "internalType": "address",
          "name": "",
          "type": "address"
        }
      ],
      "stateMutability": "view",
      "type": "function"
    },
    {
      "inputs": [
        {
          "internalType": "uint256",
          "name": "",
          "type": "uint256"
        }
      ],
      "name": "prices",
      "outputs": [
        {
          "internalType": "uint256",
          "name": "",
          "type": "uint256"
        }
      ],
      "stateMutability": "view",
      "type": "function"
    },
    {
      "inputs": [
        {
          "internalType": "uint256",
          "name": "",
          "type": "uint256"
        }
      ],
      "name": "roothash",
      "outputs": [
        {
          "internalType": "bytes32",
          "name": "",
          "type": "bytes32"
        }
      ],
      "stateMutability": "view",
      "type": "function"
    },
    {
      "inputs": [
        {
          "internalType": "address",
          "name": "from",
          "type": "address"
        },
        {
          "internalType": "address",
          "name": "to",
          "type": "address"
        },
        {
          "internalType": "uint256",
          "name": "tokenID",
          "type": "uint256"
        }
      ],
      "name": "safeTransferFrom",
      "outputs": [],
      "stateMutability": "payable",
      "type": "function"
    },
    {
      "inputs": [
        {
          "internalType": "address",
          "name": "from",
          "type": "address"
        },
        {
          "internalType": "address",
          "name": "to",
          "type": "address"
        },
        {
          "internalType": "uint256",
          "name": "tokenID",
          "type": "uint256"
        },
        {
          "internalType": "bytes",
          "name": "data",
          "type": "bytes"
        }
      ],
      "name": "safeTransferFrom",
      "outputs": [],
      "stateMutability": "payable",
      "type": "function"
    },
    {
      "inputs": [
        {
          "internalType": "address",
          "name": "controller",
          "type": "address"
        },
        {
          "internalType": "bool",
          "name": "flag",
          "type": "bool"
        }
      ],
      "name": "setApprovalForAll",
      "outputs": [],
      "stateMutability": "payable",
      "type": "function"
    },
    {
      "inputs": [
        {
          "internalType": "uint256",
          "name": "_lifespan",
          "type": "uint256"
        }
      ],
      "name": "setDefaultLifespan",
      "outputs": [],
      "stateMutability": "nonpayable",
      "type": "function"
    },
    {
      "inputs": [
        {
          "internalType": "address",
          "name": "_resolver",
          "type": "address"
        }
      ],
      "name": "setDefaultResolver",
      "outputs": [],
      "stateMutability": "nonpayable",
      "type": "function"
    },
    {
      "inputs": [
        {
          "internalType": "bytes4",
          "name": "sig",
          "type": "bytes4"
        },
        {
          "internalType": "bool",
          "name": "value",
          "type": "bool"
        }
      ],
      "name": "setInterface",
      "outputs": [],
      "stateMutability": "payable",
      "type": "function"
    },
    {
      "inputs": [
        {
          "internalType": "uint256",
          "name": "",
          "type": "uint256"
        }
      ],
      "name": "sizes",
      "outputs": [
        {
          "internalType": "uint256",
          "name": "",
          "type": "uint256"
        }
      ],
      "stateMutability": "view",
      "type": "function"
    },
    {
      "inputs": [
        {
          "internalType": "bytes4",
          "name": "",
          "type": "bytes4"
        }
      ],
      "name": "supportsInterface",
      "outputs": [
        {
          "internalType": "bool",
          "name": "",
          "type": "bool"
        }
      ],
      "stateMutability": "view",
      "type": "function"
    },
    {
      "inputs": [],
      "name": "symbol",
      "outputs": [
        {
          "internalType": "string",
          "name": "",
          "type": "string"
        }
      ],
      "stateMutability": "view",
      "type": "function"
    },
    {
      "inputs": [
        {
          "internalType": "address",
          "name": "from",
          "type": "address"
        },
        {
          "internalType": "address",
          "name": "to",
          "type": "address"
        },
        {
          "internalType": "uint256",
          "name": "tokenID",
          "type": "uint256"
        }
      ],
      "name": "transferFrom",
      "outputs": [],
      "stateMutability": "payable",
      "type": "function"
    },
    {
      "inputs": [],
      "name": "withdrawEther",
      "outputs": [],
      "stateMutability": "payable",
      "type": "function"
    },
    {
      "inputs": [
        {
          "internalType": "address",
          "name": "token",
          "type": "address"
        }
      ],
      "name": "withdrawToken",
      "outputs": [],
      "stateMutability": "payable",
      "type": "function"
    },
    {
      "stateMutability": "payable",
      "type": "receive"
    }
  ],
  "bytecode": {
    "object": "0x6001610100818152601760f91b610120526080908152610140828152603f60f81b6101605260a052610180828152602160f81b6101a05260c0526102006040526101c0828152602360f81b6101e05260e0526200005f9190600462000488565b50604080516080810182526020808252808201819052918101829052606081019190915262000093906005906004620004d8565b5060408051608081018252600060a082018190527f6f010af653ebe3cb07d297a4ef13366103d392ceffa68dd48232e6e9ff2187bf60c0808401919091528351808403909101815260e0830184528051602091820120835283518082018390527f5f179612d7132c8ed24ba0e286d60d398c4aa1c234eb2274ca1bba47718e9d3181860152845180820386018152606091820186528051908301208285015284518083018490527f3275a893b2c93461554cf2a4dd7f413d56decdd6f3fdf0589dbb8bc4fd742386818701528551808203870181529082018652805190830120848601528451808301939093527face738c68088218d015fbdce138f062893d86818ac98932f7ce2907c5976fbde83860152845180840386018152928101909452815191012091810191909152620001d09060099060046200051c565b50600d80546001600160a01b0319166e0c2e074ec69a0dfb2997ba6c7d2e1e1790556040805160808101825260018152600260208201526003918101919091526004606082018190526200022791600e916200054d565b506040805160808101825262030d408082526020820181905291810182905260608101919091526200025e90601290600462000598565b506016805460ff19166001179055601c80546001600160a01b031916905560408051635ab1bd5360e01b81529051600091635ab1bd539160048083019260809291908290030181865afa158015620002ba573d6000803e3d6000fd5b505050506040513d601f19601f82011682018060405250810190620002e09190620006a8565b60016020020151601d80546001600160a01b0319166001600160a01b039283161790556401cf7c5800601f55601c546040805163bd9a548b60e01b81529051919092169163bd9a548b9160048083019260809291908290030181865afa1580156200034f573d6000803e3d6000fd5b505050506040513d601f19601f8201168201806040525081019062000375919062000718565b6020908101519055602180546001600160a01b03191690553480156200039a57600080fd5b5060405162002d2438038062002d24833981016040819052620003bd9162000774565b6000805460176020527f4152fdd4960944ad2843ab0640e4bafb0ddf2caf06de54df701cf7a17df044aa8054600160ff1991821681179092557f6779f08d87897b1938d8ae1ed3d650e2616775c110ff5d98b7f82c079d97c7788054821683179055635b5e139f60e01b84527f244a57cf9422b23a74eac7556da7a02b4681eb0e2f9c3613963f0b44ad43886080549091169091179055602180546001600160a01b03199081166001600160a01b0395909516949094179055821633928316179091179055620008f4565b8260048101928215620004c6579160200282015b82811115620004c65782518290620004b5908262000828565b50916020019190600101906200049c565b50620004d4929150620005d0565b5090565b82600481019282156200050e579160200282015b828111156200050e578251829060ff16905591602001919060010190620004ec565b50620004d4929150620005f1565b82600481019282156200050e579160200282015b828111156200050e57825182559160200191906001019062000530565b82600481019282156200050e579160200282015b828111156200050e57825182546001600160a01b0319166001600160a01b0390911617825560209092019160019091019062000561565b82600481019282156200050e579160200282015b828111156200050e578251829062ffffff16905591602001919060010190620005ac565b80821115620004d4576000620005e7828262000608565b50600101620005d0565b5b80821115620004d45760008155600101620005f2565b508054620006169062000799565b6000825580601f1062000627575050565b601f016020900490600052602060002090810190620006479190620005f1565b50565b634e487b7160e01b600052604160045260246000fd5b604051608081016001600160401b03811182821017156200068557620006856200064a565b60405290565b80516001600160a01b0381168114620006a357600080fd5b919050565b600060808284031215620006bb57600080fd5b82601f830112620006cb57600080fd5b620006d562000660565b806080840185811115620006e857600080fd5b845b818110156200070d57620006fe816200068b565b845260209384019301620006ea565b509095945050505050565b6000608082840312156200072b57600080fd5b82601f8301126200073b57600080fd5b6200074562000660565b8060808401858111156200075857600080fd5b845b818110156200070d5780518452602093840193016200075a565b6000602082840312156200078757600080fd5b62000792826200068b565b9392505050565b600181811c90821680620007ae57607f821691505b602082108103620007cf57634e487b7160e01b600052602260045260246000fd5b50919050565b601f8211156200082357600081815260208120601f850160051c81016020861015620007fe5750805b601f850160051c820191505b818110156200081f578281556001016200080a565b5050505b505050565b81516001600160401b038111156200084457620008446200064a565b6200085c8162000855845462000799565b84620007d5565b602080601f8311600181146200089457600084156200087b5750858301515b600019600386901b1c1916600185901b1785556200081f565b600085815260208120601f198616915b82811015620008c557888601518255948401946001909101908401620008a4565b5085821015620008e45787850151600019600388901b60f8161c191681555b5050505050600190811b01905550565b61242080620009046000396000f3fe60806040526004361061026e5760003560e01c806380b29beb11610153578063b782426e116100cb578063c66485b21161007f578063d9a9b0c611610064578063d9a9b0c6146106cb578063e985e9c5146106eb578063f079914f1461072657600080fd5b8063c66485b214610695578063c7876ea4146106b557600080fd5b8063bc31c1c1116100b0578063bc31c1c11461064d578063bd9a548b1461066d578063c0a43a7c1461068257600080fd5b8063b782426e1461061a578063b88d4fde1461063a57600080fd5b80638dfcb1c71161012257806395d89b411161010757806395d89b411461059e578063a22cb465146105e7578063b4abea24146105fa57600080fd5b80638dfcb1c7146105485780639024d2821461056857600080fd5b806380b29beb146104d5578063828eab0e146104f557806388a8c95c14610515578063894760691461053557600080fd5b806342842e0e116101e657806364c9ec6f116101b557806370dec5f01161019a57806370dec5f01461048d5780637362377b146104ad5780637d73b231146104b557600080fd5b806364c9ec6f1461041757806370a082311461046d57600080fd5b806342842e0e146103805780635ab1bd53146103b35780636352211e146103d5578063642a8ed6146103f557600080fd5b8063095ea7b31161023d578063222dcf7211610222578063222dcf721461036d57806323b872dd14610380578063395063081461039357600080fd5b8063095ea7b3146103345780630e6c0bdb1461034957600080fd5b806301e51ae81461027d57806301ffc9a7146102ba57806302fb0c5e146102fa57806305e84aa01461031457600080fd5b3661027857600080fd5b600080fd5b34801561028957600080fd5b5060005461029d906001600160a01b031681565b6040516001600160a01b0390911681526020015b60405180910390f35b3480156102c657600080fd5b506102ea6102d5366004611d5b565b60176020526000908152604090205460ff1681565b60405190151581526020016102b1565b34801561030657600080fd5b506016546102ea9060ff1681565b34801561032057600080fd5b50601d5461029d906001600160a01b031681565b610347610342366004611d94565b610744565b005b34801561035557600080fd5b5061035f601f5481565b6040519081526020016102b1565b61035f61037b366004611e65565b61086d565b61034761038e366004611ecd565b61114d565b34801561039f57600080fd5b506103476103ae366004611f0e565b61116d565b3480156103bf57600080fd5b506103c86111cb565b6040516102b19190611f27565b3480156103e157600080fd5b5061029d6103f0366004611f0e565b611210565b34801561040157600080fd5b5061040a611290565b6040516102b19190611f61565b34801561042357600080fd5b506104606040518060400160405280601381526020017f48656c69783220426f6e6420536572766963650000000000000000000000000081525081565b6040516102b19190611fd9565b34801561047957600080fd5b5061035f610488366004611fec565b6112cb565b34801561049957600080fd5b5061029d6104a8366004611f0e565b61133f565b61034761135f565b3480156104c157600080fd5b50600d5461029d906001600160a01b031681565b3480156104e157600080fd5b506104606104f0366004611f0e565b611405565b34801561050157600080fd5b5060225461029d906001600160a01b031681565b34801561052157600080fd5b50610347610530366004611fec565b6114a5565b610347610543366004611fec565b61157f565b34801561055457600080fd5b5061035f610563366004611f0e565b6116a5565b34801561057457600080fd5b5061029d610583366004611f0e565b601a602052600090815260409020546001600160a01b031681565b3480156105aa57600080fd5b506104606040518060400160405280600381526020017f484253000000000000000000000000000000000000000000000000000000000081525081565b6103476105f5366004612017565b6116bc565b34801561060657600080fd5b5060215461029d906001600160a01b031681565b34801561062657600080fd5b50601c5461029d906001600160a01b031681565b610347610648366004612050565b611746565b34801561065957600080fd5b5061035f610668366004611f0e565b611758565b34801561067957600080fd5b5061040a611768565b6103476106903660046120d0565b61179e565b3480156106a157600080fd5b506103476106b0366004611fec565b6118cb565b3480156106c157600080fd5b5061035f60205481565b3480156106d757600080fd5b5061035f6106e6366004611f0e565b61195e565b3480156106f757600080fd5b506102ea6107063660046120ee565b601b60209081526000928352604080842090915290825290205460ff1681565b34801561073257600080fd5b506000546001600160a01b031661029d565b6000818152601860205260409020546001600160a01b03163314158061079757506000818152601860209081526040808320546001600160a01b03168352601b825280832033845290915290205460ff16155b156107fc57600081815260186020526040908190205490517f431ef6160000000000000000000000000000000000000000000000000000000081523360048201526001600160a01b039091166024820152604481018290526064015b60405180910390fd5b6000818152601a602052604080822080547fffffffffffffffffffffffff0000000000000000000000000000000000000000166001600160a01b0386169081179091559051839233917f8c5be1e5ebec7d5bd14f71427d1e84f3dd0314c0f7b2291e5b200ac8c7c3b9259190a45050565b602154600090859082906001600160a01b031663f61ccd536009600101548460405160200161089c919061211c565b604051602081830303815290604052805190602001206040516020016108cc929190918252602082015260400190565b604051602081830303815290604052805190602001206040518263ffffffff1660e01b815260040161090091815260200190565b602060405180830381865afa15801561091d573d6000803e3d6000fd5b505050506040513d601f19601f820116820180604052508101906109419190612138565b601d546040517f02571be3000000000000000000000000000000000000000000000000000000008152600481018390529192506000916001600160a01b03909116906302571be390602401602060405180830381865afa1580156109a9573d6000803e3d6000fd5b505050506040513d601f19601f820116820180604052508101906109cd9190612151565b90506001600160a01b03811615610a265760405162461bcd60e51b815260206004820152600b60248201527f424f4e445f45584953545300000000000000000000000000000000000000000060448201526064016107f3565b87600560010154815111610a7c5760405162461bcd60e51b815260206004820152600d60248201527f494c4c4547414c5f4c4142454c0000000000000000000000000000000000000060448201526064016107f3565b6040517fa6470fd600000000000000000000000000000000000000000000000000000000815273__$47e4ffaaf323c41735ff299f8946896ce0$__9063a6470fd690610acf9084906001906004016121c1565b602060405180830381865af4158015610aec573d6000803e3d6000fd5b505050506040513d601f19601f82011682018060405250810190610b1091906122ef565b15610b5d5760405162461bcd60e51b815260206004820152600d60248201527f494c4c4547414c5f43484152530000000000000000000000000000000000000060448201526064016107f3565b88600060096001015482604051602001610b77919061211c565b60405160208183030381529060405280519060200120604051602001610ba7929190918252602082015260400190565b60408051808303601f190181529082905280516020909101206021547fd2ec5fca0000000000000000000000000000000000000000000000000000000083526004830182905290925042916001600160a01b039091169063d2ec5fca90602401602060405180830381865afa158015610c24573d6000803e3d6000fd5b505050506040513d601f19601f82011682018060405250810190610c489190612138565b10610c955760405162461bcd60e51b815260206004820152601060248201527f424f4e445f4e4f545f455850495245440000000000000000000000000000000060448201526064016107f3565b601d546040517f02571be3000000000000000000000000000000000000000000000000000000008152600481018c90526000916001600160a01b0316906302571be390602401602060405180830381865afa158015610cf8573d6000803e3d6000fd5b505050506040513d601f19601f82011682018060405250810190610d1c9190612151565b9050601f54891015610d705760405162461bcd60e51b815260206004820152601260248201527f4c4946455350414e5f544f4f5f53484f5254000000000000000000000000000060448201526064016107f3565b88602054610d7e919061233b565b341015610dcd5760405162461bcd60e51b815260206004820152601260248201527f494e53554646494349454e545f4554484552000000000000000000000000000060448201526064016107f3565b60006009600101548d604051602001610de6919061211c565b60405160208183030381529060405280519060200120604051602001610e16929190918252602082015260400190565b60408051601f198184030181529082905280516020909101206021547f8146970a00000000000000000000000000000000000000000000000000000000835260048301829052602483018f90529092506001600160a01b031690638146970a90604401600060405180830381600087803b158015610e9357600080fd5b505af1158015610ea7573d6000803e3d6000fd5b50506021546040517fa3be52a200000000000000000000000000000000000000000000000000000000815260048101859052602481018f90526001600160a01b03909116925063a3be52a29150604401600060405180830381600087803b158015610f1157600080fd5b505af1158015610f25573d6000803e3d6000fd5b50506021546001600160a01b031691506339de6469905082610f478d42612378565b6040517fffffffff0000000000000000000000000000000000000000000000000000000060e085901b16815260048101929092526024820152604401600060405180830381600087803b158015610f9d57600080fd5b505af1158015610fb1573d6000803e3d6000fd5b50506021546040517fd3156905000000000000000000000000000000000000000000000000000000008152600481018590526001600160a01b038681166024830152909116925063d31569059150604401600060405180830381600087803b15801561101c57600080fd5b505af1158015611030573d6000803e3d6000fd5b50506021546022546040517f1896f70a000000000000000000000000000000000000000000000000000000008152600481018690526001600160a01b03918216602482015291169250631896f70a9150604401600060405180830381600087803b15801561109d57600080fd5b505af11580156110b1573d6000803e3d6000fd5b505050600082815260186020908152604080832080547fffffffffffffffffffffffff0000000000000000000000000000000000000000166001600160a01b038816908117909155835260198252918290208054600101905590518e81528392507f83b933ae5067371fb6246d78f0c57549a6f46923196d7537844c75e24bdaaf34910160405180910390a29c9b505050505050505050505050565b6111688383836040518060200160405280600081525061196e565b505050565b6000546001600160a01b031633146111c6576000546040517f8ea458f60000000000000000000000000000000000000000000000000000000081526001600160a01b0390911660048201523360248201526044016107f3565b601f55565b6111d3611d0f565b60408051608081019182905290600e9060049082845b81546001600160a01b031681526001909101906020018083116111e9575050505050905090565b6000818152601860205260408120546001600160a01b03166112745760405162461bcd60e51b815260206004820152600f60248201527f494e56414c49445f544f4b454e4944000000000000000000000000000000000060448201526064016107f3565b506000908152601860205260409020546001600160a01b031690565b611298611d0f565b6040805160808101918290529060099060049082845b8154815260200190600101908083116112ae575050505050905090565b60006001600160a01b0382166113235760405162461bcd60e51b815260206004820152600c60248201527f5a45524f5f41444452455353000000000000000000000000000000000000000060448201526064016107f3565b506001600160a01b031660009081526019602052604090205490565b600e816004811061134f57600080fd5b01546001600160a01b0316905081565b600080546040516001600160a01b039091169047908381818185875af1925050503d80600081146113ac576040519150601f19603f3d011682016040523d82523d6000602084013e6113b1565b606091505b50509050806114025760405162461bcd60e51b815260206004820152601360248201527f4554485f5452414e534645525f4641494c45440000000000000000000000000060448201526064016107f3565b50565b6001816004811061141557600080fd5b0180549091506114249061216e565b80601f01602080910402602001604051908101604052809291908181526020018280546114509061216e565b801561149d5780601f106114725761010080835404028352916020019161149d565b820191906000526020600020905b81548152906001019060200180831161148057829003601f168201915b505050505081565b6000546001600160a01b031633146114fe576000546040517f8ea458f60000000000000000000000000000000000000000000000000000000081526001600160a01b0390911660048201523360248201526044016107f3565b600054604080516001600160a01b03928316815291831660208301527fdec101f106d4fc7c85791843e64b198248c822298e3ed7046231d33f7783d816910160405180910390a1600080547fffffffffffffffffffffffff0000000000000000000000000000000000000000166001600160a01b0392909216919091179055565b6000546040517f70a0823100000000000000000000000000000000000000000000000000000000815230600482018190526001600160a01b03848116936323b872dd9391169084906370a0823190602401602060405180830381865afa1580156115ed573d6000803e3d6000fd5b505050506040513d601f19601f820116820180604052508101906116119190612138565b6040517fffffffff0000000000000000000000000000000000000000000000000000000060e086901b1681526001600160a01b03938416600482015292909116602483015260448201526064016020604051808303816000875af115801561167d573d6000803e3d6000fd5b505050506040513d601f19601f820116820180604052508101906116a191906122ef565b5050565b600981600481106116b557600080fd5b0154905081565b336000818152601b602090815260408083206001600160a01b0387168085529083529281902080547fffffffffffffffffffffffffffffffffffffffffffffffffffffffffffffff001686151590811790915590519081529192917f17307eab39ab6107e8899845ad3d59bd9653f200f220920489ca2b5937696c31910160405180910390a35050565b6117528484848461196e565b50505050565b601281600481106116b557600080fd5b611770611d0f565b60408051608081019182905260128054825290916004906013602085018083116112ae575050505050905090565b6000546001600160a01b031633146117f7576000546040517f8ea458f60000000000000000000000000000000000000000000000000000000081526001600160a01b0390911660048201523360248201526044016107f3565b7fffffffff0000000000000000000000000000000000000000000000000000000080831690036118695760405162461bcd60e51b815260206004820152601a60248201527f494e56414c49445f494e544552464143455f53454c4543544f5200000000000060448201526064016107f3565b7fffffffff0000000000000000000000000000000000000000000000000000000091909116600090815260176020526040902080547fffffffffffffffffffffffffffffffffffffffffffffffffffffffffffffff0016911515919091179055565b6000546001600160a01b03163314611924576000546040517f8ea458f60000000000000000000000000000000000000000000000000000000081526001600160a01b0390911660048201523360248201526044016107f3565b602280547fffffffffffffffffffffffff0000000000000000000000000000000000000000166001600160a01b0392909216919091179055565b600581600481106116b557600080fd5b6001600160a01b0383166119ae576040517f5788079900000000000000000000000000000000000000000000000000000000815260040160405180910390fd5b6000828152601860205260409020546001600160a01b03858116911614611a2c57600082815260186020526040908190205490517f431ef6160000000000000000000000000000000000000000000000000000000081526001600160a01b0391821660048201529085166024820152604481018390526064016107f3565b6000828152601860205260409020546001600160a01b03163314801590611a7757506001600160a01b0384166000908152601b6020908152604080832033845290915290205460ff16155b8015611a9a57506000828152601a60205260409020546001600160a01b03163314155b15611ae9576040517f431ef6160000000000000000000000000000000000000000000000000000000081523360048201526001600160a01b0385166024820152604481018390526064016107f3565b6000828152601a6020908152604080832080547fffffffffffffffffffffffff00000000000000000000000000000000000000009081169091556018835281842080546001600160a01b03898116919093168117909155908816808552601990935281842080547fffffffffffffffffffffffffffffffffffffffffffffffffffffffffffffffff01905580845281842080546001019055905185939192917fddf252ad1be2c89b69c2b068fc378daa952ba7f163c4a11628f55a4df523b3ef91a46001600160a01b0383163b15611752576040517f150b7a020000000000000000000000000000000000000000000000000000000081526001600160a01b0384169063150b7a0290611c06903390889087908790600401612391565b6020604051808303816000875af1925050508015611c41575060408051601f3d908101601f19168201909252611c3e918101906123cd565b60015b611c82576040517f3a9f8cb30000000000000000000000000000000000000000000000000000000081526001600160a01b03841660048201526024016107f3565b7fffffffff0000000000000000000000000000000000000000000000000000000081167f150b7a020000000000000000000000000000000000000000000000000000000014611d08576040517f3a9f8cb30000000000000000000000000000000000000000000000000000000081526001600160a01b03851660048201526024016107f3565b5050505050565b60405180608001604052806004906020820280368337509192915050565b7fffffffff000000000000000000000000000000000000000000000000000000008116811461140257600080fd5b600060208284031215611d6d57600080fd5b8135611d7881611d2d565b9392505050565b6001600160a01b038116811461140257600080fd5b60008060408385031215611da757600080fd5b8235611db281611d7f565b946020939093013593505050565b7f4e487b7100000000000000000000000000000000000000000000000000000000600052604160045260246000fd5b600067ffffffffffffffff80841115611e0a57611e0a611dc0565b604051601f8501601f19908116603f01168101908282118183101715611e3257611e32611dc0565b81604052809350858152868686011115611e4b57600080fd5b858560208301376000602087830101525050509392505050565b60008060008060808587031215611e7b57600080fd5b843567ffffffffffffffff811115611e9257600080fd5b8501601f81018713611ea357600080fd5b611eb287823560208401611def565b97602087013597506040870135966060013595509350505050565b600080600060608486031215611ee257600080fd5b8335611eed81611d7f565b92506020840135611efd81611d7f565b929592945050506040919091013590565b600060208284031215611f2057600080fd5b5035919050565b60808101818360005b6004811015611f585781516001600160a01b0316835260209283019290910190600101611f30565b50505092915050565b60808101818360005b6004811015611f58578151835260209283019290910190600101611f6a565b60005b83811015611fa4578181015183820152602001611f8c565b50506000910152565b60008151808452611fc5816020860160208601611f89565b601f01601f19169290920160200192915050565b602081526000611d786020830184611fad565b600060208284031215611ffe57600080fd5b8135611d7881611d7f565b801515811461140257600080fd5b6000806040838503121561202a57600080fd5b823561203581611d7f565b9150602083013561204581612009565b809150509250929050565b6000806000806080858703121561206657600080fd5b843561207181611d7f565b9350602085013561208181611d7f565b925060408501359150606085013567ffffffffffffffff8111156120a457600080fd5b8501601f810187136120b557600080fd5b6120c487823560208401611def565b91505092959194509250565b600080604083850312156120e357600080fd5b823561203581611d2d565b6000806040838503121561210157600080fd5b823561210c81611d7f565b9150602083013561204581611d7f565b6000825161212e818460208701611f89565b9190910192915050565b60006020828403121561214a57600080fd5b5051919050565b60006020828403121561216357600080fd5b8151611d7881611d7f565b600181811c9082168061218257607f821691505b6020821081036121bb577f4e487b7100000000000000000000000000000000000000000000000000000000600052602260045260246000fd5b50919050565b6040815260006121d46040830185611fad565b60208382038185015281829050608083018660005b60048082106121f857506122e1565b86840385528254600090600181811c908083168061221757607f831692505b8a8310810361224c577f4e487b7100000000000000000000000000000000000000000000000000000000855260228652602485fd5b828952602089019550808015612269576001811461229d576122c8565b7fffffffffffffffffffffffffffffffffffffffffffffffffffffffffffffff008516875283151560051b870195506122c8565b60008981526020902060005b858110156122c257815489820152908401908d016122a9565b88019650505b50509789019792965050509290920191506001016121e9565b509098975050505050505050565b60006020828403121561230157600080fd5b8151611d7881612009565b7f4e487b7100000000000000000000000000000000000000000000000000000000600052601160045260246000fd5b6000817fffffffffffffffffffffffffffffffffffffffffffffffffffffffffffffffff04831182151516156123735761237361230c565b500290565b8082018082111561238b5761238b61230c565b92915050565b60006001600160a01b038087168352808616602084015250836040830152608060608301526123c36080830184611fad565b9695505050505050565b6000602082840312156123df57600080fd5b8151611d7881611d2d56fea2646970667358221220b9481d205810a50306f6a935381957c1f777b085e814011e3d6670d7f3f4680a64736f6c63430008100033",
    "linkReferences": {
      "src/Utils/LibString.sol": {
        "LibString": [
          {
            "start": 5032,
            "length": 20
          }
        ]
      }
    }
  },
  "methodIdentifiers": {
    "BONDS()": "b4abea24",
    "Dev()": "01e51ae8",
    "HELIX2()": "b782426e",
    "NAMES()": "05e84aa0",
    "_approved(uint256)": "9024d282",
    "active()": "02fb0c5e",
    "approve(address,uint256)": "095ea7b3",
    "balanceOf(address)": "70a08231",
    "basePrice()": "c7876ea4",
    "bond()": "64c9ec6f",
    "changeDev(address)": "88a8c95c",
    "defaultLifespan()": "0e6c0bdb",
    "defaultResolver()": "828eab0e",
    "ensRegistry()": "7d73b231",
    "getPrices()": "bd9a548b",
    "getRegistry()": "5ab1bd53",
    "getRoothash()": "642a8ed6",
    "helix2Registry(uint256)": "70dec5f0",
    "illegalBlocks(uint256)": "80b29beb",
    "isApprovedForAll(address,address)": "e985e9c5",
    "isDev()": "f079914f",
    "newBond(string,bytes32,bytes32,uint256)": "222dcf72",
    "ownerOf(uint256)": "6352211e",
    "prices(uint256)": "bc31c1c1",
    "roothash(uint256)": "8dfcb1c7",
    "safeTransferFrom(address,address,uint256)": "42842e0e",
    "safeTransferFrom(address,address,uint256,bytes)": "b88d4fde",
    "setApprovalForAll(address,bool)": "a22cb465",
    "setDefaultLifespan(uint256)": "39506308",
    "setDefaultResolver(address)": "c66485b2",
    "setInterface(bytes4,bool)": "c0a43a7c",
    "sizes(uint256)": "d9a9b0c6",
    "supportsInterface(bytes4)": "01ffc9a7",
    "symbol()": "95d89b41",
    "transferFrom(address,address,uint256)": "23b872dd",
    "withdrawEther()": "7362377b",
    "withdrawToken(address)": "89476069"
  },
  "id": 10
}