{
  "abi": [
    {
      "inputs": [
        {
          "internalType": "address",
          "name": "_registry",
          "type": "address"
        }
      ],
      "stateMutability": "nonpayable",
      "type": "constructor"
    },
    {
      "inputs": [],
      "name": "CannotBurn",
      "type": "error"
    },
    {
      "inputs": [
        {
          "internalType": "address",
          "name": "to",
          "type": "address"
        }
      ],
      "name": "ERC721IncompatibleReceiver",
      "type": "error"
    },
    {
      "inputs": [
        {
          "internalType": "address",
          "name": "_dev",
          "type": "address"
        },
        {
          "internalType": "address",
          "name": "_you",
          "type": "address"
        }
      ],
      "name": "OnlyDev",
      "type": "error"
    },
    {
      "inputs": [
        {
          "internalType": "address",
          "name": "operator",
          "type": "address"
        },
        {
          "internalType": "address",
          "name": "owner",
          "type": "address"
        },
        {
          "internalType": "uint256",
          "name": "tokenID",
          "type": "uint256"
        }
      ],
      "name": "Unauthorized",
      "type": "error"
    },
    {
      "anonymous": false,
      "inputs": [
        {
          "indexed": true,
          "internalType": "address",
          "name": "owner",
          "type": "address"
        },
        {
          "indexed": true,
          "internalType": "address",
          "name": "spender",
          "type": "address"
        },
        {
          "indexed": true,
          "internalType": "uint256",
          "name": "tokenID",
          "type": "uint256"
        }
      ],
      "name": "Approval",
      "type": "event"
    },
    {
      "anonymous": false,
      "inputs": [
        {
          "indexed": true,
          "internalType": "address",
          "name": "owner",
          "type": "address"
        },
        {
          "indexed": true,
          "internalType": "address",
          "name": "operator",
          "type": "address"
        },
        {
          "indexed": false,
          "internalType": "bool",
          "name": "approved",
          "type": "bool"
        }
      ],
      "name": "ApprovalForAll",
      "type": "event"
    },
    {
      "anonymous": false,
      "inputs": [
        {
          "indexed": true,
          "internalType": "bytes32",
          "name": "bondhash",
          "type": "bytes32"
        },
        {
          "indexed": false,
          "internalType": "address",
          "name": "owner",
          "type": "address"
        }
      ],
      "name": "NewBond",
      "type": "event"
    },
    {
      "anonymous": false,
      "inputs": [
        {
          "indexed": true,
          "internalType": "bytes32",
          "name": "bondhash",
          "type": "bytes32"
        },
        {
          "indexed": false,
          "internalType": "address",
          "name": "controller",
          "type": "address"
        }
      ],
      "name": "NewController",
      "type": "event"
    },
    {
      "anonymous": false,
      "inputs": [
        {
          "indexed": false,
          "internalType": "address",
          "name": "Dev",
          "type": "address"
        },
        {
          "indexed": false,
          "internalType": "address",
          "name": "newDev",
          "type": "address"
        }
      ],
      "name": "NewDev",
      "type": "event"
    },
    {
      "anonymous": false,
      "inputs": [
        {
          "indexed": true,
          "internalType": "bytes32",
          "name": "bondhash",
          "type": "bytes32"
        },
        {
          "indexed": false,
          "internalType": "uint256",
          "name": "expiry",
          "type": "uint256"
        }
      ],
      "name": "NewExpiry",
      "type": "event"
    },
    {
      "anonymous": false,
      "inputs": [
        {
          "indexed": true,
          "internalType": "bytes32",
          "name": "bondhash",
          "type": "bytes32"
        },
        {
          "indexed": false,
          "internalType": "address",
          "name": "owner",
          "type": "address"
        }
      ],
      "name": "NewOwner",
      "type": "event"
    },
    {
      "anonymous": false,
      "inputs": [
        {
          "indexed": true,
          "internalType": "bytes32",
          "name": "bondhash",
          "type": "bytes32"
        },
        {
          "indexed": false,
          "internalType": "address",
          "name": "resolver",
          "type": "address"
        }
      ],
      "name": "NewRecord",
      "type": "event"
    },
    {
      "anonymous": false,
      "inputs": [
        {
          "indexed": true,
          "internalType": "bytes32",
          "name": "bondhash",
          "type": "bytes32"
        },
        {
          "indexed": false,
          "internalType": "address",
          "name": "resolver",
          "type": "address"
        }
      ],
      "name": "NewResolver",
      "type": "event"
    },
    {
      "anonymous": false,
      "inputs": [
        {
          "indexed": true,
          "internalType": "address",
          "name": "from",
          "type": "address"
        },
        {
          "indexed": true,
          "internalType": "address",
          "name": "to",
          "type": "address"
        },
        {
          "indexed": true,
          "internalType": "uint256",
          "name": "tokenID",
          "type": "uint256"
        }
      ],
      "name": "Transfer",
      "type": "event"
    },
    {
      "stateMutability": "payable",
      "type": "fallback"
    },
    {
      "inputs": [],
      "name": "BONDS",
      "outputs": [
        {
          "internalType": "contract iBOND",
          "name": "",
          "type": "address"
        }
      ],
      "stateMutability": "view",
      "type": "function"
    },
    {
      "inputs": [],
      "name": "Dev",
      "outputs": [
        {
          "internalType": "address",
          "name": "",
          "type": "address"
        }
      ],
      "stateMutability": "view",
      "type": "function"
    },
    {
      "inputs": [
        {
          "internalType": "uint256",
          "name": "",
          "type": "uint256"
        }
      ],
      "name": "_approved",
      "outputs": [
        {
          "internalType": "address",
          "name": "",
          "type": "address"
        }
      ],
      "stateMutability": "view",
      "type": "function"
    },
    {
      "inputs": [],
      "name": "active",
      "outputs": [
        {
          "internalType": "bool",
          "name": "",
          "type": "bool"
        }
      ],
      "stateMutability": "view",
      "type": "function"
    },
    {
      "inputs": [
        {
          "internalType": "address",
          "name": "controller",
          "type": "address"
        },
        {
          "internalType": "uint256",
          "name": "tokenID",
          "type": "uint256"
        }
      ],
      "name": "approve",
      "outputs": [],
      "stateMutability": "payable",
      "type": "function"
    },
    {
      "inputs": [
        {
          "internalType": "address",
          "name": "wallet",
          "type": "address"
        }
      ],
      "name": "balanceOf",
      "outputs": [
        {
          "internalType": "uint256",
          "name": "",
          "type": "uint256"
        }
      ],
      "stateMutability": "view",
      "type": "function"
    },
    {
      "inputs": [],
      "name": "bond",
      "outputs": [
        {
          "internalType": "string",
          "name": "",
          "type": "string"
        }
      ],
      "stateMutability": "view",
      "type": "function"
    },
    {
      "inputs": [
        {
          "internalType": "address",
          "name": "newDev",
          "type": "address"
        }
      ],
      "name": "changeDev",
      "outputs": [],
      "stateMutability": "nonpayable",
      "type": "function"
    },
    {
      "inputs": [],
      "name": "defaultLifespan",
      "outputs": [
        {
          "internalType": "uint256",
          "name": "",
          "type": "uint256"
        }
      ],
      "stateMutability": "view",
      "type": "function"
    },
    {
      "inputs": [],
      "name": "defaultResolver",
      "outputs": [
        {
          "internalType": "address",
          "name": "",
          "type": "address"
        }
      ],
      "stateMutability": "view",
      "type": "function"
    },
    {
      "inputs": [],
      "name": "ensRegistry",
      "outputs": [
        {
          "internalType": "address",
          "name": "",
          "type": "address"
        }
      ],
      "stateMutability": "view",
      "type": "function"
    },
    {
      "inputs": [],
      "name": "getPrices",
      "outputs": [
        {
          "internalType": "uint256[4]",
          "name": "",
          "type": "uint256[4]"
        }
      ],
      "stateMutability": "view",
      "type": "function"
    },
    {
      "inputs": [],
      "name": "getRegistry",
      "outputs": [
        {
          "internalType": "address[4]",
          "name": "",
          "type": "address[4]"
        }
      ],
      "stateMutability": "view",
      "type": "function"
    },
    {
      "inputs": [],
      "name": "getRoothash",
      "outputs": [
        {
          "internalType": "bytes32[4]",
          "name": "",
          "type": "bytes32[4]"
        }
      ],
      "stateMutability": "view",
      "type": "function"
    },
    {
      "inputs": [
        {
          "internalType": "uint256",
          "name": "",
          "type": "uint256"
        }
      ],
      "name": "helix2Registry",
      "outputs": [
        {
          "internalType": "address",
          "name": "",
          "type": "address"
        }
      ],
      "stateMutability": "view",
      "type": "function"
    },
    {
      "inputs": [
        {
          "internalType": "uint256",
          "name": "",
          "type": "uint256"
        }
      ],
      "name": "illegalBlocks",
      "outputs": [
        {
          "internalType": "string",
          "name": "",
          "type": "string"
        }
      ],
      "stateMutability": "view",
      "type": "function"
    },
    {
      "inputs": [
        {
          "internalType": "address",
          "name": "",
          "type": "address"
        },
        {
          "internalType": "address",
          "name": "",
          "type": "address"
        }
      ],
      "name": "isApprovedForAll",
      "outputs": [
        {
          "internalType": "bool",
          "name": "",
          "type": "bool"
        }
      ],
      "stateMutability": "view",
      "type": "function"
    },
    {
      "inputs": [],
      "name": "isDev",
      "outputs": [
        {
          "internalType": "address",
          "name": "",
          "type": "address"
        }
      ],
      "stateMutability": "view",
      "type": "function"
    },
    {
      "inputs": [
        {
          "internalType": "string",
          "name": "label",
          "type": "string"
        },
        {
          "internalType": "address",
          "name": "owner",
          "type": "address"
        },
        {
          "internalType": "uint256",
          "name": "lifespan",
          "type": "uint256"
        }
      ],
      "name": "newBond",
      "outputs": [
        {
          "internalType": "bytes32",
          "name": "",
          "type": "bytes32"
        }
      ],
      "stateMutability": "nonpayable",
      "type": "function"
    },
    {
      "inputs": [
        {
          "internalType": "uint256",
          "name": "tokenID",
          "type": "uint256"
        }
      ],
      "name": "ownerOf",
      "outputs": [
        {
          "internalType": "address",
          "name": "",
          "type": "address"
        }
      ],
      "stateMutability": "view",
      "type": "function"
    },
    {
      "inputs": [
        {
          "internalType": "uint256",
          "name": "",
          "type": "uint256"
        }
      ],
      "name": "prices",
      "outputs": [
        {
          "internalType": "uint256",
          "name": "",
          "type": "uint256"
        }
      ],
      "stateMutability": "view",
      "type": "function"
    },
    {
      "inputs": [
        {
          "internalType": "uint256",
          "name": "",
          "type": "uint256"
        }
      ],
      "name": "roothash",
      "outputs": [
        {
          "internalType": "bytes32",
          "name": "",
          "type": "bytes32"
        }
      ],
      "stateMutability": "view",
      "type": "function"
    },
    {
      "inputs": [
        {
          "internalType": "address",
          "name": "from",
          "type": "address"
        },
        {
          "internalType": "address",
          "name": "to",
          "type": "address"
        },
        {
          "internalType": "uint256",
          "name": "tokenID",
          "type": "uint256"
        }
      ],
      "name": "safeTransferFrom",
      "outputs": [],
      "stateMutability": "payable",
      "type": "function"
    },
    {
      "inputs": [
        {
          "internalType": "address",
          "name": "from",
          "type": "address"
        },
        {
          "internalType": "address",
          "name": "to",
          "type": "address"
        },
        {
          "internalType": "uint256",
          "name": "tokenID",
          "type": "uint256"
        },
        {
          "internalType": "bytes",
          "name": "data",
          "type": "bytes"
        }
      ],
      "name": "safeTransferFrom",
      "outputs": [],
      "stateMutability": "payable",
      "type": "function"
    },
    {
      "inputs": [
        {
          "internalType": "address",
          "name": "controller",
          "type": "address"
        },
        {
          "internalType": "bool",
          "name": "flag",
          "type": "bool"
        }
      ],
      "name": "setApprovalForAll",
      "outputs": [],
      "stateMutability": "payable",
      "type": "function"
    },
    {
      "inputs": [
        {
          "internalType": "uint256",
          "name": "_lifespan",
          "type": "uint256"
        }
      ],
      "name": "setDefaultLifespan",
      "outputs": [],
      "stateMutability": "nonpayable",
      "type": "function"
    },
    {
      "inputs": [
        {
          "internalType": "address",
          "name": "_resolver",
          "type": "address"
        }
      ],
      "name": "setDefaultResolver",
      "outputs": [],
      "stateMutability": "nonpayable",
      "type": "function"
    },
    {
      "inputs": [
        {
          "internalType": "bytes4",
          "name": "sig",
          "type": "bytes4"
        },
        {
          "internalType": "bool",
          "name": "value",
          "type": "bool"
        }
      ],
      "name": "setInterface",
      "outputs": [],
      "stateMutability": "payable",
      "type": "function"
    },
    {
      "inputs": [
        {
          "internalType": "uint256",
          "name": "",
          "type": "uint256"
        }
      ],
      "name": "sizes",
      "outputs": [
        {
          "internalType": "uint256",
          "name": "",
          "type": "uint256"
        }
      ],
      "stateMutability": "view",
      "type": "function"
    },
    {
      "inputs": [
        {
          "internalType": "bytes4",
          "name": "",
          "type": "bytes4"
        }
      ],
      "name": "supportsInterface",
      "outputs": [
        {
          "internalType": "bool",
          "name": "",
          "type": "bool"
        }
      ],
      "stateMutability": "view",
      "type": "function"
    },
    {
      "inputs": [],
      "name": "symbol",
      "outputs": [
        {
          "internalType": "string",
          "name": "",
          "type": "string"
        }
      ],
      "stateMutability": "view",
      "type": "function"
    },
    {
      "inputs": [
        {
          "internalType": "address",
          "name": "from",
          "type": "address"
        },
        {
          "internalType": "address",
          "name": "to",
          "type": "address"
        },
        {
          "internalType": "uint256",
          "name": "tokenID",
          "type": "uint256"
        }
      ],
      "name": "transferFrom",
      "outputs": [],
      "stateMutability": "payable",
      "type": "function"
    },
    {
      "inputs": [],
      "name": "withdrawEther",
      "outputs": [],
      "stateMutability": "payable",
      "type": "function"
    },
    {
      "inputs": [
        {
          "internalType": "address",
          "name": "token",
          "type": "address"
        }
      ],
      "name": "withdrawToken",
      "outputs": [],
      "stateMutability": "payable",
      "type": "function"
    },
    {
      "stateMutability": "payable",
      "type": "receive"
    }
  ],
  "bytecode": {
    "object": "0x6001610100818152601760f91b610120526080908152610140828152603f60f81b6101605260a052610180828152602160f81b6101a05260c0526102006040526101c0828152602360f81b6101e05260e0526200005f9190600462000373565b50604080516080810182526020808252808201819052918101829052606081019190915262000093906005906004620003c3565b5060408051608081018252600060a082018190527f6f010af653ebe3cb07d297a4ef13366103d392ceffa68dd48232e6e9ff2187bf60c0808401919091528351808403909101815260e0830184528051602091820120835283518082018390527f5f179612d7132c8ed24ba0e286d60d398c4aa1c234eb2274ca1bba47718e9d3181860152845180820386018152606091820186528051908301208285015284518083018490527f3275a893b2c93461554cf2a4dd7f413d56decdd6f3fdf0589dbb8bc4fd742386818701528551808203870181529082018652805190830120848601528451808301939093527face738c68088218d015fbdce138f062893d86818ac98932f7ce2907c5976fbde83860152845180840386018152928101909452815191012091810191909152620001d090600990600462000407565b50600d80546001600160a01b0319166e0c2e074ec69a0dfb2997ba6c7d2e1e1790556040805160808101825260018152600260208201526003918101919091526004606082018190526200022791600e9162000438565b5060408051608081018252652d79883d20008082526020820181905291810182905260608101919091526200026190601290600462000483565b506016805460ff191660011790556401cf7c5800601d553480156200028557600080fd5b50604051620028c1380380620028c1833981016040819052620002a89162000538565b6000805460176020527f4152fdd4960944ad2843ab0640e4bafb0ddf2caf06de54df701cf7a17df044aa8054600160ff1991821681179092557f6779f08d87897b1938d8ae1ed3d650e2616775c110ff5d98b7f82c079d97c7788054821683179055635b5e139f60e01b84527f244a57cf9422b23a74eac7556da7a02b4681eb0e2f9c3613963f0b44ad43886080549091169091179055601e80546001600160a01b03199081166001600160a01b0395909516949094179055821633928316179091179055620006db565b8260048101928215620003b1579160200282015b82811115620003b15782518290620003a090826200060f565b509160200191906001019062000387565b50620003bf929150620004be565b5090565b8260048101928215620003f9579160200282015b82811115620003f9578251829060ff16905591602001919060010190620003d7565b50620003bf929150620004df565b8260048101928215620003f9579160200282015b82811115620003f95782518255916020019190600101906200041b565b8260048101928215620003f9579160200282015b82811115620003f957825182546001600160a01b0319166001600160a01b039091161782556020909201916001909101906200044c565b8260048101928215620003f9579160200282015b82811115620003f9578251829065ffffffffffff1690559160200191906001019062000497565b80821115620003bf576000620004d58282620004f6565b50600101620004be565b5b80821115620003bf5760008155600101620004e0565b508054620005049062000580565b6000825580601f1062000515575050565b601f016020900490600052602060002090810190620005359190620004df565b50565b6000602082840312156200054b57600080fd5b81516001600160a01b03811681146200056357600080fd5b9392505050565b634e487b7160e01b600052604160045260246000fd5b600181811c908216806200059557607f821691505b602082108103620005b657634e487b7160e01b600052602260045260246000fd5b50919050565b601f8211156200060a57600081815260208120601f850160051c81016020861015620005e55750805b601f850160051c820191505b818110156200060657828155600101620005f1565b5050505b505050565b81516001600160401b038111156200062b576200062b6200056a565b62000643816200063c845462000580565b84620005bc565b602080601f8311600181146200067b5760008415620006625750858301515b600019600386901b1c1916600185901b17855562000606565b600085815260208120601f198616915b82811015620006ac578886015182559484019460019091019084016200068b565b5085821015620006cb5787850151600019600388901b60f8161c191681555b5050505050600190811b01905550565b6121d680620006eb6000396000f3fe60806040526004361061021d5760003560e01c8063828eab0e1161011d578063b4abea24116100b0578063c0a43a7c1161007f578063d9a9b0c611610064578063d9a9b0c614610631578063e985e9c514610651578063f079914f1461068c57600080fd5b8063c0a43a7c146105fe578063c66485b21461061157600080fd5b8063b4abea2414610596578063b88d4fde146105b6578063bc31c1c1146105c9578063bd9a548b146105e957600080fd5b80639024d282116100ec5780639024d282146104e457806395d89b411461051a57806397b5f7d014610563578063a22cb4651461058357600080fd5b8063828eab0e1461047157806388a8c95c1461049157806389476069146104b15780638dfcb1c7146104c457600080fd5b80635ab1bd53116101b057806370a082311161017f5780637362377b116101645780637362377b146104295780637d73b2311461043157806380b29beb1461045157600080fd5b806370a08231146103e957806370dec5f01461040957600080fd5b80635ab1bd531461032f5780636352211e14610351578063642a8ed61461037157806364c9ec6f1461039357600080fd5b80630e6c0bdb116101ec5780630e6c0bdb146102d857806323b872dd146102fc578063395063081461030f57806342842e0e146102fc57600080fd5b806301e51ae81461022c57806301ffc9a71461026957806302fb0c5e146102a9578063095ea7b3146102c357600080fd5b3661022757600080fd5b600080fd5b34801561023857600080fd5b5060005461024c906001600160a01b031681565b6040516001600160a01b0390911681526020015b60405180910390f35b34801561027557600080fd5b50610299610284366004611b25565b60176020526000908152604090205460ff1681565b6040519015158152602001610260565b3480156102b557600080fd5b506016546102999060ff1681565b6102d66102d1366004611b5e565b6106aa565b005b3480156102e457600080fd5b506102ee601d5481565b604051908152602001610260565b6102d661030a366004611b8a565b6107d3565b34801561031b57600080fd5b506102d661032a366004611bcb565b6107f3565b34801561033b57600080fd5b50610344610851565b6040516102609190611be4565b34801561035d57600080fd5b5061024c61036c366004611bcb565b610896565b34801561037d57600080fd5b50610386610916565b6040516102609190611c1e565b34801561039f57600080fd5b506103dc6040518060400160405280601381526020017f48656c69783220426f6e6420536572766963650000000000000000000000000081525081565b6040516102609190611caa565b3480156103f557600080fd5b506102ee610404366004611cbd565b610951565b34801561041557600080fd5b5061024c610424366004611bcb565b6109c5565b6102d66109e5565b34801561043d57600080fd5b50600d5461024c906001600160a01b031681565b34801561045d57600080fd5b506103dc61046c366004611bcb565b610a8b565b34801561047d57600080fd5b50601f5461024c906001600160a01b031681565b34801561049d57600080fd5b506102d66104ac366004611cbd565b610b2b565b6102d66104bf366004611cbd565b610c05565b3480156104d057600080fd5b506102ee6104df366004611bcb565b610d2b565b3480156104f057600080fd5b5061024c6104ff366004611bcb565b601a602052600090815260409020546001600160a01b031681565b34801561052657600080fd5b506103dc6040518060400160405280600381526020017f484253000000000000000000000000000000000000000000000000000000000081525081565b34801561056f57600080fd5b506102ee61057e366004611cda565b610d42565b6102d6610591366004611d71565b611468565b3480156105a257600080fd5b50601e5461024c906001600160a01b031681565b6102d66105c4366004611dd9565b6114f2565b3480156105d557600080fd5b506102ee6105e4366004611bcb565b611504565b3480156105f557600080fd5b50610386611514565b6102d661060c366004611ed7565b61154a565b34801561061d57600080fd5b506102d661062c366004611cbd565b611677565b34801561063d57600080fd5b506102ee61064c366004611bcb565b61170a565b34801561065d57600080fd5b5061029961066c366004611ef5565b601b60209081526000928352604080842090915290825290205460ff1681565b34801561069857600080fd5b506000546001600160a01b031661024c565b6000818152601860205260409020546001600160a01b0316331415806106fd57506000818152601860209081526040808320546001600160a01b03168352601b825280832033845290915290205460ff16155b1561076257600081815260186020526040908190205490517f431ef6160000000000000000000000000000000000000000000000000000000081523360048201526001600160a01b039091166024820152604481018290526064015b60405180910390fd5b6000818152601a602052604080822080547fffffffffffffffffffffffff0000000000000000000000000000000000000000166001600160a01b0386169081179091559051839233917f8c5be1e5ebec7d5bd14f71427d1e84f3dd0314c0f7b2291e5b200ac8c7c3b9259190a45050565b6107ee8383836040518060200160405280600081525061171a565b505050565b6000546001600160a01b0316331461084c576000546040517f8ea458f60000000000000000000000000000000000000000000000000000000081526001600160a01b039091166004820152336024820152604401610759565b601d55565b610859611ad9565b60408051608081019182905290600e9060049082845b81546001600160a01b0316815260019091019060200180831161086f575050505050905090565b6000818152601860205260408120546001600160a01b03166108fa5760405162461bcd60e51b815260206004820152600f60248201527f494e56414c49445f544f4b454e494400000000000000000000000000000000006044820152606401610759565b506000908152601860205260409020546001600160a01b031690565b61091e611ad9565b6040805160808101918290529060099060049082845b815481526020019060010190808311610934575050505050905090565b60006001600160a01b0382166109a95760405162461bcd60e51b815260206004820152600c60248201527f5a45524f5f4144445245535300000000000000000000000000000000000000006044820152606401610759565b506001600160a01b031660009081526019602052604090205490565b600e81600481106109d557600080fd5b01546001600160a01b0316905081565b600080546040516001600160a01b039091169047908381818185875af1925050503d8060008114610a32576040519150601f19603f3d011682016040523d82523d6000602084013e610a37565b606091505b5050905080610a885760405162461bcd60e51b815260206004820152601360248201527f4554485f5452414e534645525f4641494c4544000000000000000000000000006044820152606401610759565b50565b60018160048110610a9b57600080fd5b018054909150610aaa90611f23565b80601f0160208091040260200160405190810160405280929190818152602001828054610ad690611f23565b8015610b235780601f10610af857610100808354040283529160200191610b23565b820191906000526020600020905b815481529060010190602001808311610b0657829003601f168201915b505050505081565b6000546001600160a01b03163314610b84576000546040517f8ea458f60000000000000000000000000000000000000000000000000000000081526001600160a01b039091166004820152336024820152604401610759565b600054604080516001600160a01b03928316815291831660208301527fdec101f106d4fc7c85791843e64b198248c822298e3ed7046231d33f7783d816910160405180910390a1600080547fffffffffffffffffffffffff0000000000000000000000000000000000000000166001600160a01b0392909216919091179055565b6000546040517f70a0823100000000000000000000000000000000000000000000000000000000815230600482018190526001600160a01b03848116936323b872dd9391169084906370a0823190602401602060405180830381865afa158015610c73573d6000803e3d6000fd5b505050506040513d601f19601f82011682018060405250810190610c979190611f76565b6040517fffffffff0000000000000000000000000000000000000000000000000000000060e086901b1681526001600160a01b03938416600482015292909116602483015260448201526064016020604051808303816000875af1158015610d03573d6000803e3d6000fd5b505050506040513d601f19601f82011682018060405250810190610d279190611f8f565b5050565b60098160048110610d3b57600080fd5b0154905081565b601e546000908590859083906001600160a01b03166302571be360098301548585604051602001610d74929190611fac565b60405160208183030381529060405280519060200120604051602001610da4929190918252602082015260400190565b604051602081830303815290604052805190602001206040518263ffffffff1660e01b8152600401610dd891815260200190565b602060405180830381865afa158015610df5573d6000803e3d6000fd5b505050506040513d601f19601f82011682018060405250810190610e199190611fbc565b90506001600160a01b03811615610e725760405162461bcd60e51b815260206004820152600b60248201527f424f4e445f4558495354530000000000000000000000000000000000000000006044820152606401610759565b87876005600101548111610ec85760405162461bcd60e51b815260206004820152600d60248201527f494c4c4547414c5f4c4142454c000000000000000000000000000000000000006044820152606401610759565b81818080601f016020809104026020016040519081016040528093929190818152602001838380828437600092019190915250506040517fa6470fd600000000000000000000000000000000000000000000000000000000815273__$47e4ffaaf323c41735ff299f8946896ce0$__9363a6470fd69350610f50925090600190600401611fd9565b602060405180830381865af4158015610f6d573d6000803e3d6000fd5b505050506040513d601f19601f82011682018060405250810190610f919190611f8f565b15610fde5760405162461bcd60e51b815260206004820152600d60248201527f494c4c4547414c5f4348415253000000000000000000000000000000000000006044820152606401610759565b898988600060098101548484604051602001610ffb929190611fac565b6040516020818303038152906040528051906020012060405160200161102b929190918252602082015260400190565b604051602081830303815290604052805190602001209050814261104f9190612107565b601e546040517fd2ec5fca000000000000000000000000000000000000000000000000000000008152600481018490526001600160a01b039091169063d2ec5fca90602401602060405180830381865afa1580156110b1573d6000803e3d6000fd5b505050506040513d601f19601f820116820180604052508101906110d59190611f76565b106111225760405162461bcd60e51b815260206004820152601060248201527f424f4e445f4e4f545f45585049524544000000000000000000000000000000006044820152606401610759565b600060098101548f8f60405160200161113c929190611fac565b6040516020818303038152906040528051906020012060405160200161116c929190918252602082015260400190565b604051602081830303815290604052805190602001209050601e60009054906101000a90046001600160a01b03166001600160a01b0316635b0fc9c3828f6040518363ffffffff1660e01b81526004016111d99291909182526001600160a01b0316602082015260400190565b600060405180830381600087803b1580156111f357600080fd5b505af1158015611207573d6000803e3d6000fd5b5050601e546001600160a01b031691506339de64699050826112298f42612107565b6040517fffffffff0000000000000000000000000000000000000000000000000000000060e085901b16815260048101929092526024820152604401600060405180830381600087803b15801561127f57600080fd5b505af1158015611293573d6000803e3d6000fd5b50505050601e60009054906101000a90046001600160a01b03166001600160a01b031663d3156905828f6040518363ffffffff1660e01b81526004016112ec9291909182526001600160a01b0316602082015260400190565b600060405180830381600087803b15801561130657600080fd5b505af115801561131a573d6000803e3d6000fd5b5050601e54601f546040517f1896f70a000000000000000000000000000000000000000000000000000000008152600481018690526001600160a01b03918216602482015291169250631896f70a9150604401600060405180830381600087803b15801561138757600080fd5b505af115801561139b573d6000803e3d6000fd5b505050508c601860008360001c815260200190815260200160002060006101000a8154816001600160a01b0302191690836001600160a01b03160217905550601960008e6001600160a01b03166001600160a01b0316815260200190815260200160002060008154809291906001019190505550807fd5ee2ea22ce7866fb21fe6ec251e21cf91deeaee59734688457b06cb69ad878b8e60405161144e91906001600160a01b0391909116815260200190565b60405180910390a29e9d5050505050505050505050505050565b336000818152601b602090815260408083206001600160a01b0387168085529083529281902080547fffffffffffffffffffffffffffffffffffffffffffffffffffffffffffffff001686151590811790915590519081529192917f17307eab39ab6107e8899845ad3d59bd9653f200f220920489ca2b5937696c31910160405180910390a35050565b6114fe8484848461171a565b50505050565b60128160048110610d3b57600080fd5b61151c611ad9565b6040805160808101918290526012805482529091600490601360208501808311610934575050505050905090565b6000546001600160a01b031633146115a3576000546040517f8ea458f60000000000000000000000000000000000000000000000000000000081526001600160a01b039091166004820152336024820152604401610759565b7fffffffff0000000000000000000000000000000000000000000000000000000080831690036116155760405162461bcd60e51b815260206004820152601a60248201527f494e56414c49445f494e544552464143455f53454c4543544f520000000000006044820152606401610759565b7fffffffff0000000000000000000000000000000000000000000000000000000091909116600090815260176020526040902080547fffffffffffffffffffffffffffffffffffffffffffffffffffffffffffffff0016911515919091179055565b6000546001600160a01b031633146116d0576000546040517f8ea458f60000000000000000000000000000000000000000000000000000000081526001600160a01b039091166004820152336024820152604401610759565b601f80547fffffffffffffffffffffffff0000000000000000000000000000000000000000166001600160a01b0392909216919091179055565b60058160048110610d3b57600080fd5b6001600160a01b03831661175a576040517f5788079900000000000000000000000000000000000000000000000000000000815260040160405180910390fd5b6000828152601860205260409020546001600160a01b038581169116146117d857600082815260186020526040908190205490517f431ef6160000000000000000000000000000000000000000000000000000000081526001600160a01b039182166004820152908516602482015260448101839052606401610759565b6000828152601860205260409020546001600160a01b0316331480159061182357506001600160a01b0384166000908152601b6020908152604080832033845290915290205460ff16155b801561184657506000828152601a60205260409020546001600160a01b03163314155b15611895576040517f431ef6160000000000000000000000000000000000000000000000000000000081523360048201526001600160a01b038516602482015260448101839052606401610759565b6000828152601a6020908152604080832080547fffffffffffffffffffffffff00000000000000000000000000000000000000009081169091556018835281842080546001600160a01b03898116919093168117909155908816808552601990935281842080547fffffffffffffffffffffffffffffffffffffffffffffffffffffffffffffffff01905580845281842080546001019055905185939192917fddf252ad1be2c89b69c2b068fc378daa952ba7f163c4a11628f55a4df523b3ef91a46001600160a01b0383163b156114fe576040517f150b7a020000000000000000000000000000000000000000000000000000000081526001600160a01b0384169063150b7a02906119b2903390889087908790600401612147565b6020604051808303816000875af1925050508015611a0b575060408051601f3d9081017fffffffffffffffffffffffffffffffffffffffffffffffffffffffffffffffe0168201909252611a0891810190612183565b60015b611a4c576040517f3a9f8cb30000000000000000000000000000000000000000000000000000000081526001600160a01b0384166004820152602401610759565b7fffffffff0000000000000000000000000000000000000000000000000000000081167f150b7a020000000000000000000000000000000000000000000000000000000014611ad2576040517f3a9f8cb30000000000000000000000000000000000000000000000000000000081526001600160a01b0385166004820152602401610759565b5050505050565b60405180608001604052806004906020820280368337509192915050565b7fffffffff0000000000000000000000000000000000000000000000000000000081168114610a8857600080fd5b600060208284031215611b3757600080fd5b8135611b4281611af7565b9392505050565b6001600160a01b0381168114610a8857600080fd5b60008060408385031215611b7157600080fd5b8235611b7c81611b49565b946020939093013593505050565b600080600060608486031215611b9f57600080fd5b8335611baa81611b49565b92506020840135611bba81611b49565b929592945050506040919091013590565b600060208284031215611bdd57600080fd5b5035919050565b60808101818360005b6004811015611c155781516001600160a01b0316835260209283019290910190600101611bed565b50505092915050565b60808101818360005b6004811015611c15578151835260209283019290910190600101611c27565b6000815180845260005b81811015611c6c57602081850181015186830182015201611c50565b5060006020828601015260207fffffffffffffffffffffffffffffffffffffffffffffffffffffffffffffffe0601f83011685010191505092915050565b602081526000611b426020830184611c46565b600060208284031215611ccf57600080fd5b8135611b4281611b49565b60008060008060608587031215611cf057600080fd5b843567ffffffffffffffff80821115611d0857600080fd5b818701915087601f830112611d1c57600080fd5b813581811115611d2b57600080fd5b886020828501011115611d3d57600080fd5b60209283019650945050850135611d5381611b49565b9396929550929360400135925050565b8015158114610a8857600080fd5b60008060408385031215611d8457600080fd5b8235611d8f81611b49565b91506020830135611d9f81611d63565b809150509250929050565b7f4e487b7100000000000000000000000000000000000000000000000000000000600052604160045260246000fd5b60008060008060808587031215611def57600080fd5b8435611dfa81611b49565b93506020850135611e0a81611b49565b925060408501359150606085013567ffffffffffffffff80821115611e2e57600080fd5b818701915087601f830112611e4257600080fd5b813581811115611e5457611e54611daa565b604051601f82017fffffffffffffffffffffffffffffffffffffffffffffffffffffffffffffffe0908116603f01168101908382118183101715611e9a57611e9a611daa565b816040528281528a6020848701011115611eb357600080fd5b82602086016020830137600060208483010152809550505050505092959194509250565b60008060408385031215611eea57600080fd5b8235611d8f81611af7565b60008060408385031215611f0857600080fd5b8235611f1381611b49565b91506020830135611d9f81611b49565b600181811c90821680611f3757607f821691505b602082108103611f70577f4e487b7100000000000000000000000000000000000000000000000000000000600052602260045260246000fd5b50919050565b600060208284031215611f8857600080fd5b5051919050565b600060208284031215611fa157600080fd5b8151611b4281611d63565b8183823760009101908152919050565b600060208284031215611fce57600080fd5b8151611b4281611b49565b604081526000611fec6040830185611c46565b60208382038185015281829050608083018660005b600480821061201057506120f9565b86840385528254600090600181811c908083168061202f57607f831692505b8a83108103612064577f4e487b7100000000000000000000000000000000000000000000000000000000855260228652602485fd5b82895260208901955080801561208157600181146120b5576120e0565b7fffffffffffffffffffffffffffffffffffffffffffffffffffffffffffffff008516875283151560051b870195506120e0565b60008981526020902060005b858110156120da57815489820152908401908d016120c1565b88019650505b5050978901979296505050929092019150600101612001565b509098975050505050505050565b80820180821115612141577f4e487b7100000000000000000000000000000000000000000000000000000000600052601160045260246000fd5b92915050565b60006001600160a01b038087168352808616602084015250836040830152608060608301526121796080830184611c46565b9695505050505050565b60006020828403121561219557600080fd5b8151611b4281611af756fea2646970667358221220c33979560c6c5ef2f361965d45673890e4020acfd96313797fc2d9130954aa7464736f6c63430008100033",
    "linkReferences": {
      "src/Utils/LibString.sol": {
        "LibString": [
          {
            "start": 5647,
            "length": 20
          }
        ]
      }
    }
  },
  "methodIdentifiers": {
    "BONDS()": "b4abea24",
    "Dev()": "01e51ae8",
    "_approved(uint256)": "9024d282",
    "active()": "02fb0c5e",
    "approve(address,uint256)": "095ea7b3",
    "balanceOf(address)": "70a08231",
    "bond()": "64c9ec6f",
    "changeDev(address)": "88a8c95c",
    "defaultLifespan()": "0e6c0bdb",
    "defaultResolver()": "828eab0e",
    "ensRegistry()": "7d73b231",
    "getPrices()": "bd9a548b",
    "getRegistry()": "5ab1bd53",
    "getRoothash()": "642a8ed6",
    "helix2Registry(uint256)": "70dec5f0",
    "illegalBlocks(uint256)": "80b29beb",
    "isApprovedForAll(address,address)": "e985e9c5",
    "isDev()": "f079914f",
    "newBond(string,address,uint256)": "97b5f7d0",
    "ownerOf(uint256)": "6352211e",
    "prices(uint256)": "bc31c1c1",
    "roothash(uint256)": "8dfcb1c7",
    "safeTransferFrom(address,address,uint256)": "42842e0e",
    "safeTransferFrom(address,address,uint256,bytes)": "b88d4fde",
    "setApprovalForAll(address,bool)": "a22cb465",
    "setDefaultLifespan(uint256)": "39506308",
    "setDefaultResolver(address)": "c66485b2",
    "setInterface(bytes4,bool)": "c0a43a7c",
    "sizes(uint256)": "d9a9b0c6",
    "supportsInterface(bytes4)": "01ffc9a7",
    "symbol()": "95d89b41",
    "transferFrom(address,address,uint256)": "23b872dd",
    "withdrawEther()": "7362377b",
    "withdrawToken(address)": "89476069"
  },
  "id": 11
}