{
  "abi": [
    {
      "inputs": [
        {
          "internalType": "address",
          "name": "__registry",
          "type": "address"
        },
        {
          "internalType": "address",
          "name": "_registry",
          "type": "address"
        },
        {
          "internalType": "address",
          "name": "_helix2",
          "type": "address"
        }
      ],
      "stateMutability": "nonpayable",
      "type": "constructor"
    },
    {
      "inputs": [
        {
          "internalType": "address",
          "name": "_dev",
          "type": "address"
        },
        {
          "internalType": "address",
          "name": "_you",
          "type": "address"
        }
      ],
      "name": "OnlyDev",
      "type": "error"
    },
    {
      "anonymous": false,
      "inputs": [
        {
          "indexed": true,
          "internalType": "bytes32",
          "name": "bondhash",
          "type": "bytes32"
        },
        {
          "indexed": false,
          "internalType": "bytes32",
          "name": "cation",
          "type": "bytes32"
        }
      ],
      "name": "NewBond",
      "type": "event"
    },
    {
      "anonymous": false,
      "inputs": [
        {
          "indexed": false,
          "internalType": "address",
          "name": "Dev",
          "type": "address"
        },
        {
          "indexed": false,
          "internalType": "address",
          "name": "newDev",
          "type": "address"
        }
      ],
      "name": "NewDev",
      "type": "event"
    },
    {
      "inputs": [],
      "name": "BONDS",
      "outputs": [
        {
          "internalType": "contract iBOND",
          "name": "",
          "type": "address"
        }
      ],
      "stateMutability": "view",
      "type": "function"
    },
    {
      "inputs": [],
      "name": "Dev",
      "outputs": [
        {
          "internalType": "address",
          "name": "",
          "type": "address"
        }
      ],
      "stateMutability": "view",
      "type": "function"
    },
    {
      "inputs": [],
      "name": "HELIX2",
      "outputs": [
        {
          "internalType": "contract iHELIX2",
          "name": "",
          "type": "address"
        }
      ],
      "stateMutability": "view",
      "type": "function"
    },
    {
      "inputs": [],
      "name": "NAMES",
      "outputs": [
        {
          "internalType": "contract iNAME",
          "name": "",
          "type": "address"
        }
      ],
      "stateMutability": "view",
      "type": "function"
    },
    {
      "inputs": [],
      "name": "active",
      "outputs": [
        {
          "internalType": "bool",
          "name": "",
          "type": "bool"
        }
      ],
      "stateMutability": "view",
      "type": "function"
    },
    {
      "inputs": [],
      "name": "basePrice",
      "outputs": [
        {
          "internalType": "uint256",
          "name": "",
          "type": "uint256"
        }
      ],
      "stateMutability": "view",
      "type": "function"
    },
    {
      "inputs": [],
      "name": "bond",
      "outputs": [
        {
          "internalType": "string",
          "name": "",
          "type": "string"
        }
      ],
      "stateMutability": "view",
      "type": "function"
    },
    {
      "inputs": [
        {
          "internalType": "address",
          "name": "newDev",
          "type": "address"
        }
      ],
      "name": "changeDev",
      "outputs": [],
      "stateMutability": "nonpayable",
      "type": "function"
    },
    {
      "inputs": [],
      "name": "defaultLifespan",
      "outputs": [
        {
          "internalType": "uint256",
          "name": "",
          "type": "uint256"
        }
      ],
      "stateMutability": "view",
      "type": "function"
    },
    {
      "inputs": [],
      "name": "defaultResolver",
      "outputs": [
        {
          "internalType": "address",
          "name": "",
          "type": "address"
        }
      ],
      "stateMutability": "view",
      "type": "function"
    },
    {
      "inputs": [
        {
          "internalType": "uint256",
          "name": "",
          "type": "uint256"
        }
      ],
      "name": "illegalBlocks",
      "outputs": [
        {
          "internalType": "string",
          "name": "",
          "type": "string"
        }
      ],
      "stateMutability": "view",
      "type": "function"
    },
    {
      "inputs": [
        {
          "internalType": "string",
          "name": "_alias",
          "type": "string"
        },
        {
          "internalType": "bytes32",
          "name": "cation",
          "type": "bytes32"
        },
        {
          "internalType": "bytes32",
          "name": "anion",
          "type": "bytes32"
        },
        {
          "internalType": "uint256",
          "name": "lifespan",
          "type": "uint256"
        }
      ],
      "name": "newBond",
      "outputs": [
        {
          "internalType": "bytes32",
          "name": "",
          "type": "bytes32"
        }
      ],
      "stateMutability": "payable",
      "type": "function"
    },
    {
      "inputs": [
        {
          "internalType": "uint256",
          "name": "_lifespan",
          "type": "uint256"
        }
      ],
      "name": "setDefaultLifespan",
      "outputs": [],
      "stateMutability": "nonpayable",
      "type": "function"
    },
    {
      "inputs": [
        {
          "internalType": "address",
          "name": "_resolver",
          "type": "address"
        }
      ],
      "name": "setDefaultResolver",
      "outputs": [],
      "stateMutability": "nonpayable",
      "type": "function"
    },
    {
      "inputs": [],
      "name": "sizeLimit",
      "outputs": [
        {
          "internalType": "uint256",
          "name": "",
          "type": "uint256"
        }
      ],
      "stateMutability": "view",
      "type": "function"
    },
    {
      "inputs": [],
      "name": "symbol",
      "outputs": [
        {
          "internalType": "string",
          "name": "",
          "type": "string"
        }
      ],
      "stateMutability": "view",
      "type": "function"
    }
  ],
  "bytecode": {
    "object": "0x6080604052600c805460ff60a01b1916600160a01b1790553480156200002457600080fd5b5060405162001c1b38038062001c1b833981016040819052620000479162000362565b600980546001600160a01b038084166001600160a01b03199283168117909355600a8054868316908416179055600b8054918716919092161790556040805163bd9a548b60e01b8152905163bd9a548b916004808201926080929091908290030181865afa158015620000be573d6000803e3d6000fd5b505050506040513d601f19601f82011682018060405250810190620000e4919062000420565b602001516003556009546040805163335076e760e11b815290516001600160a01b03909216916366a0edce916004808201926080929091908290030181865afa15801562000136573d6000803e3d6000fd5b505050506040513d601f19601f820116820180604052508101906200015c919062000420565b60200151600490815560095460408051637615671560e11b815290516001600160a01b039092169263ec2ace2a9282820192608092908290030181865afa158015620001ac573d6000803e3d6000fd5b505050506040513d601f19601f82011682018060405250810190620001d2919062000420565b60200151600255600954604080516330b5337f60e21b815290516001600160a01b039092169163c2d4cdfc916004808201926000929091908290030181865afa15801562000224573d6000803e3d6000fd5b505050506040513d6000823e601f3d908101601f191682016040526200024e919081019062000487565b6200025e9060059060046200027b565b5050600080546001600160a01b0319163317905550620006f79050565b8260048101928215620002b9579160200282015b82811115620002b95782518290620002a890826200062b565b50916020019190600101906200028f565b50620002c7929150620002cb565b5090565b80821115620002c7576000620002e28282620002ec565b50600101620002cb565b508054620002fa906200059c565b6000825580601f106200030b575050565b601f0160209004906000526020600020908101906200032b91906200032e565b50565b5b80821115620002c757600081556001016200032f565b80516001600160a01b03811681146200035d57600080fd5b919050565b6000806000606084860312156200037857600080fd5b620003838462000345565b9250620003936020850162000345565b9150620003a36040850162000345565b90509250925092565b634e487b7160e01b600052604160045260246000fd5b604051608081016001600160401b0381118282101715620003e757620003e7620003ac565b60405290565b604051601f8201601f191681016001600160401b0381118282101715620004185762000418620003ac565b604052919050565b6000608082840312156200043357600080fd5b82601f8301126200044357600080fd5b6200044d620003c2565b8060808401858111156200046057600080fd5b845b818110156200047c57805184526020938401930162000462565b509095945050505050565b600060208083850312156200049b57600080fd5b82516001600160401b0380821115620004b357600080fd5b8185019150601f8681840112620004c957600080fd5b620004d3620003c2565b806080850189811115620004e657600080fd5b855b818110156200058d57805186811115620005025760008081fd5b87018581018c13620005145760008081fd5b805187811115620005295762000529620003ac565b6200053c818801601f19168b01620003ed565b8181528d8b838501011115620005525760008081fd5b60005b8281101562000572578381018c01518282018d01528b0162000555565b5060009181018b0191909152855250928701928701620004e8565b50909998505050505050505050565b600181811c90821680620005b157607f821691505b602082108103620005d257634e487b7160e01b600052602260045260246000fd5b50919050565b601f8211156200062657600081815260208120601f850160051c81016020861015620006015750805b601f850160051c820191505b8181101562000622578281556001016200060d565b5050505b505050565b81516001600160401b03811115620006475762000647620003ac565b6200065f816200065884546200059c565b84620005d8565b602080601f8311600181146200069757600084156200067e5750858301515b600019600386901b1c1916600185901b17855562000622565b600085815260208120601f198616915b82811015620006c857888601518255948401946001909101908401620006a7565b5085821015620006e75787850151600019600388901b60f8161c191681555b5050505050600190811b01905550565b61151480620007076000396000f3fe6080604052600436106100f35760003560e01c806380b29beb1161008a578063b4abea2411610059578063b4abea2414610339578063b782426e14610366578063c66485b214610393578063c7876ea4146103b357600080fd5b806380b29beb14610283578063828eab0e146102a357806388a8c95c146102d057806395d89b41146102f057600080fd5b8063210fd271116100c6578063210fd271146101e2578063222dcf72146101f8578063395063081461020b57806364c9ec6f1461022d57600080fd5b806301e51ae8146100f857806302fb0c5e1461014f57806305e84aa0146101915780630e6c0bdb146101be575b600080fd5b34801561010457600080fd5b506000546101259073ffffffffffffffffffffffffffffffffffffffff1681565b60405173ffffffffffffffffffffffffffffffffffffffff90911681526020015b60405180910390f35b34801561015b57600080fd5b50600c546101819074010000000000000000000000000000000000000000900460ff1681565b6040519015158152602001610146565b34801561019d57600080fd5b50600a546101259073ffffffffffffffffffffffffffffffffffffffff1681565b3480156101ca57600080fd5b506101d460025481565b604051908152602001610146565b3480156101ee57600080fd5b506101d460045481565b6101d461020636600461108e565b6103c9565b34801561021757600080fd5b5061022b61022636600461113a565b610d4e565b005b34801561023957600080fd5b506102766040518060400160405280601381526020017f48656c69783220426f6e6420536572766963650000000000000000000000000081525081565b60405161014691906111a3565b34801561028f57600080fd5b5061027661029e36600461113a565b610dc6565b3480156102af57600080fd5b50600c546101259073ffffffffffffffffffffffffffffffffffffffff1681565b3480156102dc57600080fd5b5061022b6102eb3660046111e2565b610e66565b3480156102fc57600080fd5b506102766040518060400160405280600381526020017f484253000000000000000000000000000000000000000000000000000000000081525081565b34801561034557600080fd5b50600b546101259073ffffffffffffffffffffffffffffffffffffffff1681565b34801561037257600080fd5b506009546101259073ffffffffffffffffffffffffffffffffffffffff1681565b34801561039f57600080fd5b5061022b6103ae3660046111e2565b610f74565b3480156103bf57600080fd5b506101d460035481565b60008460045481511061043d576040517f08c379a000000000000000000000000000000000000000000000000000000000815260206004820152600d60248201527f494c4c4547414c5f4c4142454c0000000000000000000000000000000000000060448201526064015b60405180910390fd5b6040517fa6470fd600000000000000000000000000000000000000000000000000000000815273__$47e4ffaaf323c41735ff299f8946896ce0$__9063a6470fd690610490908490600590600401611252565b602060405180830381865af41580156104ad573d6000803e3d6000fd5b505050506040513d601f19601f820116820180604052508101906104d19190611380565b15610538576040517f08c379a000000000000000000000000000000000000000000000000000000000815260206004820152600d60248201527f494c4c4547414c5f4348415253000000000000000000000000000000000000006044820152606401610434565b600a546040517f02571be30000000000000000000000000000000000000000000000000000000081526004810187905260009173ffffffffffffffffffffffffffffffffffffffff16906302571be390602401602060405180830381865afa1580156105a8573d6000803e3d6000fd5b505050506040513d601f19601f820116820180604052508101906105cc91906113a2565b905060025484101561063a576040517f08c379a000000000000000000000000000000000000000000000000000000000815260206004820152601260248201527f4c4946455350414e5f544f4f5f53484f525400000000000000000000000000006044820152606401610434565b8360035461064891906113ee565b3410156106b1576040517f08c379a000000000000000000000000000000000000000000000000000000000815260206004820152601260248201527f494e53554646494349454e545f455448455200000000000000000000000000006044820152606401610434565b6000876040516020016106c4919061142b565b6040516020818303038152906040528051906020012090506000600960009054906101000a900473ffffffffffffffffffffffffffffffffffffffff1673ffffffffffffffffffffffffffffffffffffffff1663642a8ed66040518163ffffffff1660e01b8152600401608060405180830381865afa15801561074b573d6000803e3d6000fd5b505050506040513d601f19601f8201168201806040525081019061076f9190611447565b602090810151604080519283018b9052820181905260608201849052915060009060800160408051808303601f19018152908290528051602090910120600b547ff79fe5380000000000000000000000000000000000000000000000000000000083526004830182905290925073ffffffffffffffffffffffffffffffffffffffff169063f79fe53890602401602060405180830381865afa158015610819573d6000803e3d6000fd5b505050506040513d601f19601f8201168201806040525081019061083d9190611380565b156108a4576040517f08c379a000000000000000000000000000000000000000000000000000000000815260206004820152600b60248201527f424f4e445f4558495354530000000000000000000000000000000000000000006044820152606401610434565b600b546040517f2f92673200000000000000000000000000000000000000000000000000000000815260048101839052602481018b905273ffffffffffffffffffffffffffffffffffffffff90911690632f92673290604401600060405180830381600087803b15801561091757600080fd5b505af115801561092b573d6000803e3d6000fd5b5050600b546040517fa3be52a200000000000000000000000000000000000000000000000000000000815260048101859052602481018c905273ffffffffffffffffffffffffffffffffffffffff909116925063a3be52a29150604401600060405180830381600087803b1580156109a257600080fd5b505af11580156109b6573d6000803e3d6000fd5b5050600b5473ffffffffffffffffffffffffffffffffffffffff1691506339de64699050826109e58a426114c5565b6040517fffffffff0000000000000000000000000000000000000000000000000000000060e085901b16815260048101929092526024820152604401600060405180830381600087803b158015610a3b57600080fd5b505af1158015610a4f573d6000803e3d6000fd5b5050600b546040517fd31569050000000000000000000000000000000000000000000000000000000081526004810185905273ffffffffffffffffffffffffffffffffffffffff8881166024830152909116925063d31569059150604401600060405180830381600087803b158015610ac757600080fd5b505af1158015610adb573d6000803e3d6000fd5b5050600b54600c546040517f1896f70a0000000000000000000000000000000000000000000000000000000081526004810186905273ffffffffffffffffffffffffffffffffffffffff918216602482015291169250631896f70a9150604401600060405180830381600087803b158015610b5557600080fd5b505af1158015610b69573d6000803e3d6000fd5b5050600b546040517f1f06e91c000000000000000000000000000000000000000000000000000000008152600481018590526024810187905273ffffffffffffffffffffffffffffffffffffffff9091169250631f06e91c9150604401600060405180830381600087803b158015610be057600080fd5b505af1158015610bf4573d6000803e3d6000fd5b5050600b546040517fd07699aa000000000000000000000000000000000000000000000000000000008152600481018590526000602482015273ffffffffffffffffffffffffffffffffffffffff909116925063d07699aa9150604401600060405180830381600087803b158015610c6b57600080fd5b505af1158015610c7f573d6000803e3d6000fd5b5050600b546040517f21ec2b5b0000000000000000000000000000000000000000000000000000000081526004810185905273ffffffffffffffffffffffffffffffffffffffff90911692506321ec2b5b9150602401600060405180830381600087803b158015610cef57600080fd5b505af1158015610d03573d6000803e3d6000fd5b50505050807f83b933ae5067371fb6246d78f0c57549a6f46923196d7537844c75e24bdaaf348a604051610d3991815260200190565b60405180910390a29998505050505050505050565b60005473ffffffffffffffffffffffffffffffffffffffff163314610dc1576000546040517f8ea458f600000000000000000000000000000000000000000000000000000000815273ffffffffffffffffffffffffffffffffffffffff9091166004820152336024820152604401610434565b600255565b60058160048110610dd657600080fd5b018054909150610de5906111ff565b80601f0160208091040260200160405190810160405280929190818152602001828054610e11906111ff565b8015610e5e5780601f10610e3357610100808354040283529160200191610e5e565b820191906000526020600020905b815481529060010190602001808311610e4157829003601f168201915b505050505081565b60005473ffffffffffffffffffffffffffffffffffffffff163314610ed9576000546040517f8ea458f600000000000000000000000000000000000000000000000000000000815273ffffffffffffffffffffffffffffffffffffffff9091166004820152336024820152604401610434565b6000546040805173ffffffffffffffffffffffffffffffffffffffff928316815291831660208301527fdec101f106d4fc7c85791843e64b198248c822298e3ed7046231d33f7783d816910160405180910390a1600080547fffffffffffffffffffffffff00000000000000000000000000000000000000001673ffffffffffffffffffffffffffffffffffffffff92909216919091179055565b60005473ffffffffffffffffffffffffffffffffffffffff163314610fe7576000546040517f8ea458f600000000000000000000000000000000000000000000000000000000815273ffffffffffffffffffffffffffffffffffffffff9091166004820152336024820152604401610434565b600c80547fffffffffffffffffffffffff00000000000000000000000000000000000000001673ffffffffffffffffffffffffffffffffffffffff92909216919091179055565b7f4e487b7100000000000000000000000000000000000000000000000000000000600052604160045260246000fd5b604051601f8201601f1916810167ffffffffffffffff811182821017156110865761108661102e565b604052919050565b600080600080608085870312156110a457600080fd5b843567ffffffffffffffff808211156110bc57600080fd5b818701915087601f8301126110d057600080fd5b81356020828211156110e4576110e461102e565b6110f681601f19601f8501160161105d565b9250818352898183860101111561110c57600080fd5b8181850182850137600091830181019190915290989087013597506040870135966060013595509350505050565b60006020828403121561114c57600080fd5b5035919050565b60005b8381101561116e578181015183820152602001611156565b50506000910152565b6000815180845261118f816020860160208601611153565b601f01601f19169290920160200192915050565b6020815260006111b66020830184611177565b9392505050565b73ffffffffffffffffffffffffffffffffffffffff811681146111df57600080fd5b50565b6000602082840312156111f457600080fd5b81356111b6816111bd565b600181811c9082168061121357607f821691505b60208210810361124c577f4e487b7100000000000000000000000000000000000000000000000000000000600052602260045260246000fd5b50919050565b6040815260006112656040830185611177565b60208382038185015281829050608083018660005b60048082106112895750611372565b86840385528254600090600181811c90808316806112a857607f831692505b8a831081036112dd577f4e487b7100000000000000000000000000000000000000000000000000000000855260228652602485fd5b8289526020890195508080156112fa576001811461132e57611359565b7fffffffffffffffffffffffffffffffffffffffffffffffffffffffffffffff008516875283151560051b87019550611359565b60008981526020902060005b8581101561135357815489820152908401908d0161133a565b88019650505b505097890197929650505092909201915060010161127a565b509098975050505050505050565b60006020828403121561139257600080fd5b815180151581146111b657600080fd5b6000602082840312156113b457600080fd5b81516111b6816111bd565b7f4e487b7100000000000000000000000000000000000000000000000000000000600052601160045260246000fd5b6000817fffffffffffffffffffffffffffffffffffffffffffffffffffffffffffffffff0483118215151615611426576114266113bf565b500290565b6000825161143d818460208701611153565b9190910192915050565b60006080828403121561145957600080fd5b82601f83011261146857600080fd5b6040516080810181811067ffffffffffffffff8211171561148b5761148b61102e565b6040528060808401858111156114a057600080fd5b845b818110156114ba5780518352602092830192016114a2565b509195945050505050565b808201808211156114d8576114d86113bf565b9291505056fea2646970667358221220120fb1a1713290144aa3c6445326c5dd4be5fe45efdbabbc2fed330653616fa564736f6c63430008100033",
    "linkReferences": {
      "src/Utils/LibString.sol": {
        "LibString": [
          {
            "start": 2924,
            "length": 20
          }
        ]
      }
    }
  },
  "methodIdentifiers": {
    "BONDS()": "b4abea24",
    "Dev()": "01e51ae8",
    "HELIX2()": "b782426e",
    "NAMES()": "05e84aa0",
    "active()": "02fb0c5e",
    "basePrice()": "c7876ea4",
    "bond()": "64c9ec6f",
    "changeDev(address)": "88a8c95c",
    "defaultLifespan()": "0e6c0bdb",
    "defaultResolver()": "828eab0e",
    "illegalBlocks(uint256)": "80b29beb",
    "newBond(string,bytes32,bytes32,uint256)": "222dcf72",
    "setDefaultLifespan(uint256)": "39506308",
    "setDefaultResolver(address)": "c66485b2",
    "sizeLimit()": "210fd271",
    "symbol()": "95d89b41"
  },
  "id": 17
}