{
  "abi": [
    {
      "inputs": [
        {
          "internalType": "address",
          "name": "__registry",
          "type": "address"
        },
        {
          "internalType": "address",
          "name": "_registry",
          "type": "address"
        },
        {
          "internalType": "address",
          "name": "_helix2",
          "type": "address"
        }
      ],
      "stateMutability": "nonpayable",
      "type": "constructor"
    },
    {
      "inputs": [
        {
          "internalType": "address",
          "name": "_dev",
          "type": "address"
        },
        {
          "internalType": "address",
          "name": "_you",
          "type": "address"
        }
      ],
      "name": "OnlyDev",
      "type": "error"
    },
    {
      "anonymous": false,
      "inputs": [
        {
          "indexed": false,
          "internalType": "string",
          "name": "_alias",
          "type": "string"
        },
        {
          "indexed": true,
          "internalType": "bytes32",
          "name": "bondhash",
          "type": "bytes32"
        },
        {
          "indexed": false,
          "internalType": "bytes32",
          "name": "cation",
          "type": "bytes32"
        }
      ],
      "name": "NewBond",
      "type": "event"
    },
    {
      "anonymous": false,
      "inputs": [
        {
          "indexed": false,
          "internalType": "address",
          "name": "Dev",
          "type": "address"
        },
        {
          "indexed": false,
          "internalType": "address",
          "name": "newDev",
          "type": "address"
        }
      ],
      "name": "NewDev",
      "type": "event"
    },
    {
      "inputs": [],
      "name": "BONDS",
      "outputs": [
        {
          "internalType": "contract iBOND",
          "name": "",
          "type": "address"
        }
      ],
      "stateMutability": "view",
      "type": "function"
    },
    {
      "inputs": [],
      "name": "Dev",
      "outputs": [
        {
          "internalType": "address",
          "name": "",
          "type": "address"
        }
      ],
      "stateMutability": "view",
      "type": "function"
    },
    {
      "inputs": [],
      "name": "HELIX2",
      "outputs": [
        {
          "internalType": "contract iHELIX2",
          "name": "",
          "type": "address"
        }
      ],
      "stateMutability": "view",
      "type": "function"
    },
    {
      "inputs": [],
      "name": "NAMES",
      "outputs": [
        {
          "internalType": "contract iNAME",
          "name": "",
          "type": "address"
        }
      ],
      "stateMutability": "view",
      "type": "function"
    },
    {
      "inputs": [],
      "name": "active",
      "outputs": [
        {
          "internalType": "bool",
          "name": "",
          "type": "bool"
        }
      ],
      "stateMutability": "view",
      "type": "function"
    },
    {
      "inputs": [],
      "name": "basePrice",
      "outputs": [
        {
          "internalType": "uint256",
          "name": "",
          "type": "uint256"
        }
      ],
      "stateMutability": "view",
      "type": "function"
    },
    {
      "inputs": [],
      "name": "bond",
      "outputs": [
        {
          "internalType": "string",
          "name": "",
          "type": "string"
        }
      ],
      "stateMutability": "view",
      "type": "function"
    },
    {
      "inputs": [
        {
          "internalType": "address",
          "name": "newDev",
          "type": "address"
        }
      ],
      "name": "changeDev",
      "outputs": [],
      "stateMutability": "nonpayable",
      "type": "function"
    },
    {
      "inputs": [],
      "name": "defaultLifespan",
      "outputs": [
        {
          "internalType": "uint256",
          "name": "",
          "type": "uint256"
        }
      ],
      "stateMutability": "view",
      "type": "function"
    },
    {
      "inputs": [],
      "name": "defaultResolver",
      "outputs": [
        {
          "internalType": "address",
          "name": "",
          "type": "address"
        }
      ],
      "stateMutability": "view",
      "type": "function"
    },
    {
      "inputs": [
        {
          "internalType": "uint256",
          "name": "",
          "type": "uint256"
        }
      ],
      "name": "illegalBlocks",
      "outputs": [
        {
          "internalType": "string",
          "name": "",
          "type": "string"
        }
      ],
      "stateMutability": "view",
      "type": "function"
    },
    {
      "inputs": [
        {
          "internalType": "string",
          "name": "_alias",
          "type": "string"
        },
        {
          "internalType": "bytes32",
          "name": "cation",
          "type": "bytes32"
        },
        {
          "internalType": "bytes32",
          "name": "anion",
          "type": "bytes32"
        },
        {
          "internalType": "uint256",
          "name": "lifespan",
          "type": "uint256"
        }
      ],
      "name": "newBond",
      "outputs": [
        {
          "internalType": "bytes32",
          "name": "",
          "type": "bytes32"
        }
      ],
      "stateMutability": "payable",
      "type": "function"
    },
    {
      "inputs": [],
      "name": "roothash",
      "outputs": [
        {
          "internalType": "bytes32",
          "name": "",
          "type": "bytes32"
        }
      ],
      "stateMutability": "view",
      "type": "function"
    },
    {
      "inputs": [
        {
          "internalType": "uint256",
          "name": "_lifespan",
          "type": "uint256"
        }
      ],
      "name": "setDefaultLifespan",
      "outputs": [],
      "stateMutability": "nonpayable",
      "type": "function"
    },
    {
      "inputs": [
        {
          "internalType": "address",
          "name": "_resolver",
          "type": "address"
        }
      ],
      "name": "setDefaultResolver",
      "outputs": [],
      "stateMutability": "nonpayable",
      "type": "function"
    },
    {
      "inputs": [
        {
          "internalType": "uint256",
          "name": "",
          "type": "uint256"
        }
      ],
      "name": "sizeLimit",
      "outputs": [
        {
          "internalType": "uint256",
          "name": "",
          "type": "uint256"
        }
      ],
      "stateMutability": "view",
      "type": "function"
    },
    {
      "inputs": [],
      "name": "symbol",
      "outputs": [
        {
          "internalType": "string",
          "name": "",
          "type": "string"
        }
      ],
      "stateMutability": "view",
      "type": "function"
    },
    {
      "inputs": [],
      "name": "toggleActive",
      "outputs": [],
      "stateMutability": "nonpayable",
      "type": "function"
    }
  ],
  "bytecode": {
    "object": "0x6080604052600e805460ff60a01b1916600160a01b1790553480156200002457600080fd5b50604051620020913803806200209183398101604081905262000047916200043e565b600b80546001600160a01b038084166001600160a01b03199283168117909355600c8054868316908416179055600d8054918716919092161790556040805163bd9a548b60e01b8152905163bd9a548b916004808201926080929091908290030181865afa158015620000be573d6000803e3d6000fd5b505050506040513d601f19601f82011682018060405250810190620000e4919062000521565b60200151600355600b546040805163335076e760e11b815290516001600160a01b03909216916366a0edce91600480820192610100929091908290030181865afa15801562000137573d6000803e3d6000fd5b505050506040513d601f19601f820116820180604052508101906200015d919062000588565b602001516200017190600490600262000318565b50600b60009054906101000a90046001600160a01b03166001600160a01b031663ec2ace2a6040518163ffffffff1660e01b8152600401608060405180830381865afa158015620001c6573d6000803e3d6000fd5b505050506040513d601f19601f82011682018060405250810190620001ec919062000521565b60200151600255600b54604080516330b5337f60e21b815290516001600160a01b039092169163c2d4cdfc916004808201926000929091908290030181865afa1580156200023e573d6000803e3d6000fd5b505050506040513d6000823e601f3d908101601f191682016040526200026891908101906200063f565b620002789060079060046200035b565b50600b60009054906101000a90046001600160a01b03166001600160a01b031663642a8ed66040518163ffffffff1660e01b8152600401608060405180830381865afa158015620002cd573d6000803e3d6000fd5b505050506040513d601f19601f82011682018060405250810190620002f3919062000521565b600160200201516006555050600080546001600160a01b0319163317905550620008af565b826002810192821562000349579160200282015b82811115620003495782518255916020019190600101906200032c565b5062000357929150620003a7565b5090565b826004810192821562000399579160200282015b82811115620003995782518290620003889082620007e3565b50916020019190600101906200036f565b5062000357929150620003be565b5b80821115620003575760008155600101620003a8565b8082111562000357576000620003d58282620003df565b50600101620003be565b508054620003ed9062000754565b6000825580601f10620003fe575050565b601f0160209004906000526020600020908101906200041e9190620003a7565b50565b80516001600160a01b03811681146200043957600080fd5b919050565b6000806000606084860312156200045457600080fd5b6200045f8462000421565b92506200046f6020850162000421565b91506200047f6040850162000421565b90509250925092565b634e487b7160e01b600052604160045260246000fd5b604051608081016001600160401b0381118282101715620004c357620004c362000488565b60405290565b604080519081016001600160401b0381118282101715620004c357620004c362000488565b604051601f8201601f191681016001600160401b038111828210171562000519576200051962000488565b604052919050565b6000608082840312156200053457600080fd5b82601f8301126200054457600080fd5b6200054e6200049e565b8060808401858111156200056157600080fd5b845b818110156200057d57805184526020938401930162000563565b509095945050505050565b60006101008083850312156200059d57600080fd5b601f8481850112620005ae57600080fd5b620005b86200049e565b918401918086841115620005cb57600080fd5b855b8481101562000634578784820112620005e65760008081fd5b620005f0620004c9565b80604083018a811115620006045760008081fd5b835b818110156200062057805184526020938401930162000606565b5050845250602090920191604001620005cd565b509695505050505050565b600060208083850312156200065357600080fd5b82516001600160401b03808211156200066b57600080fd5b8185019150601f86818401126200068157600080fd5b6200068b6200049e565b8060808501898111156200069e57600080fd5b855b818110156200074557805186811115620006ba5760008081fd5b87018581018c13620006cc5760008081fd5b805187811115620006e157620006e162000488565b620006f4818801601f19168b01620004ee565b8181528d8b8385010111156200070a5760008081fd5b60005b828110156200072a578381018c01518282018d01528b016200070d565b5060009181018b0191909152855250928701928701620006a0565b50909998505050505050505050565b600181811c908216806200076957607f821691505b6020821081036200078a57634e487b7160e01b600052602260045260246000fd5b50919050565b601f821115620007de57600081815260208120601f850160051c81016020861015620007b95750805b601f850160051c820191505b81811015620007da57828155600101620007c5565b5050505b505050565b81516001600160401b03811115620007ff57620007ff62000488565b620008178162000810845462000754565b8462000790565b602080601f8311600181146200084f5760008415620008365750858301515b600019600386901b1c1916600185901b178555620007da565b600085815260208120601f198616915b8281101562000880578886015182559484019460019091019084016200085f565b50858210156200089f5787850151600019600388901b60f8161c191681555b5050505050600190811b01905550565b6117d280620008bf6000396000f3fe6080604052600436106101295760003560e01c8063769da4bb116100a557806395d89b4111610074578063b782426e11610059578063b782426e146103d1578063c66485b2146103fe578063c7876ea41461041e57600080fd5b806395d89b411461035b578063b4abea24146103a457600080fd5b8063769da4bb146102ce57806380b29beb146102ee578063828eab0e1461030e57806388a8c95c1461033b57600080fd5b8063222dcf72116100fc57806329c68dc1116100e157806329c68dc114610241578063395063081461025857806364c9ec6f1461027857600080fd5b8063222dcf7214610218578063251c94221461022b57600080fd5b806301e51ae81461012e57806302fb0c5e1461018557806305e84aa0146101c75780630e6c0bdb146101f4575b600080fd5b34801561013a57600080fd5b5060005461015b9073ffffffffffffffffffffffffffffffffffffffff1681565b60405173ffffffffffffffffffffffffffffffffffffffff90911681526020015b60405180910390f35b34801561019157600080fd5b50600e546101b79074010000000000000000000000000000000000000000900460ff1681565b604051901515815260200161017c565b3480156101d357600080fd5b50600c5461015b9073ffffffffffffffffffffffffffffffffffffffff1681565b34801561020057600080fd5b5061020a60025481565b60405190815260200161017c565b61020a610226366004611328565b610434565b34801561023757600080fd5b5061020a60065481565b34801561024d57600080fd5b50610256610d3b565b005b34801561026457600080fd5b506102566102733660046113ed565b610dfb565b34801561028457600080fd5b506102c16040518060400160405280601381526020017f48656c69783220426f6e6420536572766963650000000000000000000000000081525081565b60405161017c9190611456565b3480156102da57600080fd5b5061020a6102e93660046113ed565b610e73565b3480156102fa57600080fd5b506102c16103093660046113ed565b610e8a565b34801561031a57600080fd5b50600e5461015b9073ffffffffffffffffffffffffffffffffffffffff1681565b34801561034757600080fd5b50610256610356366004611495565b610f2a565b34801561036757600080fd5b506102c16040518060400160405280600381526020017f484253000000000000000000000000000000000000000000000000000000000081525081565b3480156103b057600080fd5b50600d5461015b9073ffffffffffffffffffffffffffffffffffffffff1681565b3480156103dd57600080fd5b50600b5461015b9073ffffffffffffffffffffffffffffffffffffffff1681565b34801561040a57600080fd5b50610256610419366004611495565b611038565b34801561042a57600080fd5b5061020a60035481565b6000846004820154610445826110f2565b11801561045b5750600554610459826110f2565b105b6104c6576040517f08c379a000000000000000000000000000000000000000000000000000000000815260206004820152600d60248201527f494c4c4547414c5f4c4142454c0000000000000000000000000000000000000060448201526064015b60405180910390fd5b6040517fa6470fd600000000000000000000000000000000000000000000000000000000815273__$47e4ffaaf323c41735ff299f8946896ce0$__9063a6470fd690610519908490600790600401611534565b602060405180830381865af4158015610536573d6000803e3d6000fd5b505050506040513d601f19601f8201168201806040525081019061055a9190611662565b156105c1576040517f08c379a000000000000000000000000000000000000000000000000000000000815260206004820152600d60248201527f494c4c4547414c5f43484152530000000000000000000000000000000000000060448201526064016104bd565b600c546040517f02571be30000000000000000000000000000000000000000000000000000000081526004810187905260009173ffffffffffffffffffffffffffffffffffffffff16906302571be390602401602060405180830381865afa158015610631573d6000803e3d6000fd5b505050506040513d601f19601f820116820180604052508101906106559190611684565b90506002548410156106c3576040517f08c379a000000000000000000000000000000000000000000000000000000000815260206004820152601260248201527f4c4946455350414e5f544f4f5f53484f5254000000000000000000000000000060448201526064016104bd565b836003546106d191906116d0565b34101561073a576040517f08c379a000000000000000000000000000000000000000000000000000000000815260206004820152601260248201527f494e53554646494349454e545f4554484552000000000000000000000000000060448201526064016104bd565b60008760405160200161074d919061170d565b60408051601f1981840301815282825280516020918201206006549184018b90529183015260608201819052915060009060800160408051808303601f19018152908290528051602090910120600d547ff79fe5380000000000000000000000000000000000000000000000000000000083526004830182905290925073ffffffffffffffffffffffffffffffffffffffff169063f79fe53890602401602060405180830381865afa158015610807573d6000803e3d6000fd5b505050506040513d601f19601f8201168201806040525081019061082b9190611662565b15610892576040517f08c379a000000000000000000000000000000000000000000000000000000000815260206004820152600b60248201527f424f4e445f45584953545300000000000000000000000000000000000000000060448201526064016104bd565b600d546040517f2f92673200000000000000000000000000000000000000000000000000000000815260048101839052602481018a905273ffffffffffffffffffffffffffffffffffffffff90911690632f92673290604401600060405180830381600087803b15801561090557600080fd5b505af1158015610919573d6000803e3d6000fd5b5050600d546040517fa3be52a200000000000000000000000000000000000000000000000000000000815260048101859052602481018b905273ffffffffffffffffffffffffffffffffffffffff909116925063a3be52a29150604401600060405180830381600087803b15801561099057600080fd5b505af11580156109a4573d6000803e3d6000fd5b5050600d5473ffffffffffffffffffffffffffffffffffffffff1691506339de64699050826109d38942611729565b6040517fffffffff0000000000000000000000000000000000000000000000000000000060e085901b16815260048101929092526024820152604401600060405180830381600087803b158015610a2957600080fd5b505af1158015610a3d573d6000803e3d6000fd5b5050600d546040517fd31569050000000000000000000000000000000000000000000000000000000081526004810185905273ffffffffffffffffffffffffffffffffffffffff8781166024830152909116925063d31569059150604401600060405180830381600087803b158015610ab557600080fd5b505af1158015610ac9573d6000803e3d6000fd5b5050600d54600e546040517f1896f70a0000000000000000000000000000000000000000000000000000000081526004810186905273ffffffffffffffffffffffffffffffffffffffff918216602482015291169250631896f70a9150604401600060405180830381600087803b158015610b4357600080fd5b505af1158015610b57573d6000803e3d6000fd5b5050600d546040517f1f06e91c000000000000000000000000000000000000000000000000000000008152600481018590526024810186905273ffffffffffffffffffffffffffffffffffffffff9091169250631f06e91c9150604401600060405180830381600087803b158015610bce57600080fd5b505af1158015610be2573d6000803e3d6000fd5b5050600d546040517fd07699aa000000000000000000000000000000000000000000000000000000008152600481018590526000602482015273ffffffffffffffffffffffffffffffffffffffff909116925063d07699aa9150604401600060405180830381600087803b158015610c5957600080fd5b505af1158015610c6d573d6000803e3d6000fd5b5050600d546040517f21ec2b5b0000000000000000000000000000000000000000000000000000000081526004810185905273ffffffffffffffffffffffffffffffffffffffff90911692506321ec2b5b9150602401600060405180830381600087803b158015610cdd57600080fd5b505af1158015610cf1573d6000803e3d6000fd5b50505050807f052a5ffdcc547557a87b015d1f52a71e5250f576ed4db9aa36ef566b87f33f418a8a604051610d27929190611742565b60405180910390a298975050505050505050565b60005473ffffffffffffffffffffffffffffffffffffffff163314610dae576000546040517f8ea458f600000000000000000000000000000000000000000000000000000000815273ffffffffffffffffffffffffffffffffffffffff90911660048201523360248201526044016104bd565b600e80547fffffffffffffffffffffff00ffffffffffffffffffffffffffffffffffffffff8116740100000000000000000000000000000000000000009182900460ff1615909102179055565b60005473ffffffffffffffffffffffffffffffffffffffff163314610e6e576000546040517f8ea458f600000000000000000000000000000000000000000000000000000000815273ffffffffffffffffffffffffffffffffffffffff90911660048201523360248201526044016104bd565b600255565b60048160028110610e8357600080fd5b0154905081565b60078160048110610e9a57600080fd5b018054909150610ea9906114e1565b80601f0160208091040260200160405190810160405280929190818152602001828054610ed5906114e1565b8015610f225780601f10610ef757610100808354040283529160200191610f22565b820191906000526020600020905b815481529060010190602001808311610f0557829003601f168201915b505050505081565b60005473ffffffffffffffffffffffffffffffffffffffff163314610f9d576000546040517f8ea458f600000000000000000000000000000000000000000000000000000000815273ffffffffffffffffffffffffffffffffffffffff90911660048201523360248201526044016104bd565b6000546040805173ffffffffffffffffffffffffffffffffffffffff928316815291831660208301527fdec101f106d4fc7c85791843e64b198248c822298e3ed7046231d33f7783d816910160405180910390a1600080547fffffffffffffffffffffffff00000000000000000000000000000000000000001673ffffffffffffffffffffffffffffffffffffffff92909216919091179055565b60005473ffffffffffffffffffffffffffffffffffffffff1633146110ab576000546040517f8ea458f600000000000000000000000000000000000000000000000000000000815273ffffffffffffffffffffffffffffffffffffffff90911660048201523360248201526044016104bd565b600e80547fffffffffffffffffffffffff00000000000000000000000000000000000000001673ffffffffffffffffffffffffffffffffffffffff92909216919091179055565b8051600090819081905b808210156112f0576000858381518110611118576111186114b2565b01602001517fff000000000000000000000000000000000000000000000000000000000000001690507f800000000000000000000000000000000000000000000000000000000000000081101561117b57611174600184611729565b92506112dd565b7fe0000000000000000000000000000000000000000000000000000000000000007fff00000000000000000000000000000000000000000000000000000000000000821610156111d057611174600284611729565b7ff0000000000000000000000000000000000000000000000000000000000000007fff000000000000000000000000000000000000000000000000000000000000008216101561122557611174600384611729565b7ff8000000000000000000000000000000000000000000000000000000000000007fff000000000000000000000000000000000000000000000000000000000000008216101561127a57611174600484611729565b7ffc000000000000000000000000000000000000000000000000000000000000007fff00000000000000000000000000000000000000000000000000000000000000821610156112cf57611174600584611729565b6112da600684611729565b92505b50826112e881611764565b9350506110fc565b50909392505050565b7f4e487b7100000000000000000000000000000000000000000000000000000000600052604160045260246000fd5b6000806000806080858703121561133e57600080fd5b843567ffffffffffffffff8082111561135657600080fd5b818701915087601f83011261136a57600080fd5b81358181111561137c5761137c6112f9565b604051601f8201601f19908116603f011681019083821181831017156113a4576113a46112f9565b816040528281528a60208487010111156113bd57600080fd5b82602086016020830137600060209382018401529a91890135995050604088013597606001359650945050505050565b6000602082840312156113ff57600080fd5b5035919050565b60005b83811015611421578181015183820152602001611409565b50506000910152565b60008151808452611442816020860160208601611406565b601f01601f19169290920160200192915050565b602081526000611469602083018461142a565b9392505050565b73ffffffffffffffffffffffffffffffffffffffff8116811461149257600080fd5b50565b6000602082840312156114a757600080fd5b813561146981611470565b7f4e487b7100000000000000000000000000000000000000000000000000000000600052603260045260246000fd5b600181811c908216806114f557607f821691505b60208210810361152e577f4e487b7100000000000000000000000000000000000000000000000000000000600052602260045260246000fd5b50919050565b604081526000611547604083018561142a565b60208382038185015281829050608083018660005b600480821061156b5750611654565b86840385528254600090600181811c908083168061158a57607f831692505b8a831081036115bf577f4e487b7100000000000000000000000000000000000000000000000000000000855260228652602485fd5b8289526020890195508080156115dc57600181146116105761163b565b7fffffffffffffffffffffffffffffffffffffffffffffffffffffffffffffff008516875283151560051b8701955061163b565b60008981526020902060005b8581101561163557815489820152908401908d0161161c565b88019650505b505097890197929650505092909201915060010161155c565b509098975050505050505050565b60006020828403121561167457600080fd5b8151801515811461146957600080fd5b60006020828403121561169657600080fd5b815161146981611470565b7f4e487b7100000000000000000000000000000000000000000000000000000000600052601160045260246000fd5b6000817fffffffffffffffffffffffffffffffffffffffffffffffffffffffffffffffff0483118215151615611708576117086116a1565b500290565b6000825161171f818460208701611406565b9190910192915050565b8082018082111561173c5761173c6116a1565b92915050565b604081526000611755604083018561142a565b90508260208301529392505050565b60007fffffffffffffffffffffffffffffffffffffffffffffffffffffffffffffffff8203611795576117956116a1565b506001019056fea26469706673582212207489bc7d5c71e37f6493c509e9e61c9c418d9bfd8525e0ec7b3ce8e4c3d5a32a64736f6c63430008100033",
    "linkReferences": {
      "src/Utils/LibString.sol": {
        "LibString": [
          {
            "start": 3501,
            "length": 20
          }
        ]
      }
    }
  },
  "methodIdentifiers": {
    "BONDS()": "b4abea24",
    "Dev()": "01e51ae8",
    "HELIX2()": "b782426e",
    "NAMES()": "05e84aa0",
    "active()": "02fb0c5e",
    "basePrice()": "c7876ea4",
    "bond()": "64c9ec6f",
    "changeDev(address)": "88a8c95c",
    "defaultLifespan()": "0e6c0bdb",
    "defaultResolver()": "828eab0e",
    "illegalBlocks(uint256)": "80b29beb",
    "newBond(string,bytes32,bytes32,uint256)": "222dcf72",
    "roothash()": "251c9422",
    "setDefaultLifespan(uint256)": "39506308",
    "setDefaultResolver(address)": "c66485b2",
    "sizeLimit(uint256)": "769da4bb",
    "symbol()": "95d89b41",
    "toggleActive()": "29c68dc1"
  },
  "id": 17
}