{
  "abi": [
    {
      "inputs": [
        {
          "internalType": "address",
          "name": "__registry",
          "type": "address"
        },
        {
          "internalType": "address",
          "name": "_registry",
          "type": "address"
        },
        {
          "internalType": "address",
          "name": "_helix2",
          "type": "address"
        }
      ],
      "stateMutability": "nonpayable",
      "type": "constructor"
    },
    {
      "inputs": [
        {
          "internalType": "address",
          "name": "_dev",
          "type": "address"
        },
        {
          "internalType": "address",
          "name": "_you",
          "type": "address"
        }
      ],
      "name": "OnlyDev",
      "type": "error"
    },
    {
      "anonymous": false,
      "inputs": [
        {
          "indexed": true,
          "internalType": "bytes32",
          "name": "bondhash",
          "type": "bytes32"
        },
        {
          "indexed": false,
          "internalType": "bytes32",
          "name": "cation",
          "type": "bytes32"
        }
      ],
      "name": "NewBond",
      "type": "event"
    },
    {
      "anonymous": false,
      "inputs": [
        {
          "indexed": false,
          "internalType": "address",
          "name": "Dev",
          "type": "address"
        },
        {
          "indexed": false,
          "internalType": "address",
          "name": "newDev",
          "type": "address"
        }
      ],
      "name": "NewDev",
      "type": "event"
    },
    {
      "inputs": [],
      "name": "BONDS",
      "outputs": [
        {
          "internalType": "contract iBOND",
          "name": "",
          "type": "address"
        }
      ],
      "stateMutability": "view",
      "type": "function"
    },
    {
      "inputs": [],
      "name": "Dev",
      "outputs": [
        {
          "internalType": "address",
          "name": "",
          "type": "address"
        }
      ],
      "stateMutability": "view",
      "type": "function"
    },
    {
      "inputs": [],
      "name": "HELIX2",
      "outputs": [
        {
          "internalType": "contract iHELIX2",
          "name": "",
          "type": "address"
        }
      ],
      "stateMutability": "view",
      "type": "function"
    },
    {
      "inputs": [],
      "name": "NAMES",
      "outputs": [
        {
          "internalType": "contract iNAME",
          "name": "",
          "type": "address"
        }
      ],
      "stateMutability": "view",
      "type": "function"
    },
    {
      "inputs": [],
      "name": "active",
      "outputs": [
        {
          "internalType": "bool",
          "name": "",
          "type": "bool"
        }
      ],
      "stateMutability": "view",
      "type": "function"
    },
    {
      "inputs": [],
      "name": "basePrice",
      "outputs": [
        {
          "internalType": "uint256",
          "name": "",
          "type": "uint256"
        }
      ],
      "stateMutability": "view",
      "type": "function"
    },
    {
      "inputs": [],
      "name": "bond",
      "outputs": [
        {
          "internalType": "string",
          "name": "",
          "type": "string"
        }
      ],
      "stateMutability": "view",
      "type": "function"
    },
    {
      "inputs": [
        {
          "internalType": "address",
          "name": "newDev",
          "type": "address"
        }
      ],
      "name": "changeDev",
      "outputs": [],
      "stateMutability": "nonpayable",
      "type": "function"
    },
    {
      "inputs": [],
      "name": "defaultLifespan",
      "outputs": [
        {
          "internalType": "uint256",
          "name": "",
          "type": "uint256"
        }
      ],
      "stateMutability": "view",
      "type": "function"
    },
    {
      "inputs": [],
      "name": "defaultResolver",
      "outputs": [
        {
          "internalType": "address",
          "name": "",
          "type": "address"
        }
      ],
      "stateMutability": "view",
      "type": "function"
    },
    {
      "inputs": [
        {
          "internalType": "uint256",
          "name": "",
          "type": "uint256"
        }
      ],
      "name": "illegalBlocks",
      "outputs": [
        {
          "internalType": "string",
          "name": "",
          "type": "string"
        }
      ],
      "stateMutability": "view",
      "type": "function"
    },
    {
      "inputs": [
        {
          "internalType": "string",
          "name": "_alias",
          "type": "string"
        },
        {
          "internalType": "bytes32",
          "name": "cation",
          "type": "bytes32"
        },
        {
          "internalType": "bytes32",
          "name": "anion",
          "type": "bytes32"
        },
        {
          "internalType": "uint256",
          "name": "lifespan",
          "type": "uint256"
        }
      ],
      "name": "newBond",
      "outputs": [
        {
          "internalType": "bytes32",
          "name": "",
          "type": "bytes32"
        }
      ],
      "stateMutability": "payable",
      "type": "function"
    },
    {
      "inputs": [
        {
          "internalType": "uint256",
          "name": "_lifespan",
          "type": "uint256"
        }
      ],
      "name": "setDefaultLifespan",
      "outputs": [],
      "stateMutability": "nonpayable",
      "type": "function"
    },
    {
      "inputs": [
        {
          "internalType": "address",
          "name": "_resolver",
          "type": "address"
        }
      ],
      "name": "setDefaultResolver",
      "outputs": [],
      "stateMutability": "nonpayable",
      "type": "function"
    },
    {
      "inputs": [],
      "name": "sizeLimit",
      "outputs": [
        {
          "internalType": "uint256",
          "name": "",
          "type": "uint256"
        }
      ],
      "stateMutability": "view",
      "type": "function"
    },
    {
      "inputs": [],
      "name": "symbol",
      "outputs": [
        {
          "internalType": "string",
          "name": "",
          "type": "string"
        }
      ],
      "stateMutability": "view",
      "type": "function"
    }
  ],
  "bytecode": {
    "object": "0x60806040526401cf7c5800600255600c805460ff60a01b1916600160a01b1790553480156200002d57600080fd5b5060405162001ab238038062001ab28339810160408190526200005091620002f3565b600980546001600160a01b038084166001600160a01b03199283168117909355600a8054868316908416179055600b8054918716919092161790556040805163bd9a548b60e01b8152905163bd9a548b916004808201926080929091908290030181865afa158015620000c7573d6000803e3d6000fd5b505050506040513d601f19601f82011682018060405250810190620000ed9190620003b1565b602001516003556009546040805163335076e760e11b815290516001600160a01b03909216916366a0edce916004808201926080929091908290030181865afa1580156200013f573d6000803e3d6000fd5b505050506040513d601f19601f82011682018060405250810190620001659190620003b1565b602001516004908155600954604080516330b5337f60e21b815290516001600160a01b039092169263c2d4cdfc9282820192600092908290030181865afa158015620001b5573d6000803e3d6000fd5b505050506040513d6000823e601f3d908101601f19168201604052620001df919081019062000418565b620001ef9060059060046200020c565b5050600080546001600160a01b0319163317905550620006889050565b82600481019282156200024a579160200282015b828111156200024a5782518290620002399082620005bc565b509160200191906001019062000220565b50620002589291506200025c565b5090565b80821115620002585760006200027382826200027d565b506001016200025c565b5080546200028b906200052d565b6000825580601f106200029c575050565b601f016020900490600052602060002090810190620002bc9190620002bf565b50565b5b80821115620002585760008155600101620002c0565b80516001600160a01b0381168114620002ee57600080fd5b919050565b6000806000606084860312156200030957600080fd5b6200031484620002d6565b92506200032460208501620002d6565b91506200033460408501620002d6565b90509250925092565b634e487b7160e01b600052604160045260246000fd5b604051608081016001600160401b03811182821017156200037857620003786200033d565b60405290565b604051601f8201601f191681016001600160401b0381118282101715620003a957620003a96200033d565b604052919050565b600060808284031215620003c457600080fd5b82601f830112620003d457600080fd5b620003de62000353565b806080840185811115620003f157600080fd5b845b818110156200040d578051845260209384019301620003f3565b509095945050505050565b600060208083850312156200042c57600080fd5b82516001600160401b03808211156200044457600080fd5b8185019150601f86818401126200045a57600080fd5b6200046462000353565b8060808501898111156200047757600080fd5b855b818110156200051e57805186811115620004935760008081fd5b87018581018c13620004a55760008081fd5b805187811115620004ba57620004ba6200033d565b620004cd818801601f19168b016200037e565b8181528d8b838501011115620004e35760008081fd5b60005b8281101562000503578381018c01518282018d01528b01620004e6565b5060009181018b019190915285525092870192870162000479565b50909998505050505050505050565b600181811c908216806200054257607f821691505b6020821081036200056357634e487b7160e01b600052602260045260246000fd5b50919050565b601f821115620005b757600081815260208120601f850160051c81016020861015620005925750805b601f850160051c820191505b81811015620005b3578281556001016200059e565b5050505b505050565b81516001600160401b03811115620005d857620005d86200033d565b620005f081620005e984546200052d565b8462000569565b602080601f8311600181146200062857600084156200060f5750858301515b600019600386901b1c1916600185901b178555620005b3565b600085815260208120601f198616915b82811015620006595788860151825594840194600190910190840162000638565b5085821015620006785787850151600019600388901b60f8161c191681555b5050505050600190811b01905550565b61141a80620006986000396000f3fe6080604052600436106100f35760003560e01c806380b29beb1161008a578063b4abea2411610059578063b4abea2414610339578063b782426e14610366578063c66485b214610393578063c7876ea4146103b357600080fd5b806380b29beb14610283578063828eab0e146102a357806388a8c95c146102d057806395d89b41146102f057600080fd5b8063210fd271116100c6578063210fd271146101e2578063222dcf72146101f8578063395063081461020b57806364c9ec6f1461022d57600080fd5b806301e51ae8146100f857806302fb0c5e1461014f57806305e84aa0146101915780630e6c0bdb146101be575b600080fd5b34801561010457600080fd5b506000546101259073ffffffffffffffffffffffffffffffffffffffff1681565b60405173ffffffffffffffffffffffffffffffffffffffff90911681526020015b60405180910390f35b34801561015b57600080fd5b50600c546101819074010000000000000000000000000000000000000000900460ff1681565b6040519015158152602001610146565b34801561019d57600080fd5b50600a546101259073ffffffffffffffffffffffffffffffffffffffff1681565b3480156101ca57600080fd5b506101d460025481565b604051908152602001610146565b3480156101ee57600080fd5b506101d460045481565b6101d4610206366004610f94565b6103c9565b34801561021757600080fd5b5061022b610226366004611040565b610c54565b005b34801561023957600080fd5b506102766040518060400160405280601381526020017f48656c69783220426f6e6420536572766963650000000000000000000000000081525081565b60405161014691906110a9565b34801561028f57600080fd5b5061027661029e366004611040565b610ccc565b3480156102af57600080fd5b50600c546101259073ffffffffffffffffffffffffffffffffffffffff1681565b3480156102dc57600080fd5b5061022b6102eb3660046110e8565b610d6c565b3480156102fc57600080fd5b506102766040518060400160405280600381526020017f484253000000000000000000000000000000000000000000000000000000000081525081565b34801561034557600080fd5b50600b546101259073ffffffffffffffffffffffffffffffffffffffff1681565b34801561037257600080fd5b506009546101259073ffffffffffffffffffffffffffffffffffffffff1681565b34801561039f57600080fd5b5061022b6103ae3660046110e8565b610e7a565b3480156103bf57600080fd5b506101d460035481565b60008460045481511061043d576040517f08c379a000000000000000000000000000000000000000000000000000000000815260206004820152600d60248201527f494c4c4547414c5f4c4142454c0000000000000000000000000000000000000060448201526064015b60405180910390fd5b6040517f8572a5d300000000000000000000000000000000000000000000000000000000815273__$47e4ffaaf323c41735ff299f8946896ce0$__90638572a5d390610490908490600590600401611158565b602060405180830381865af41580156104ad573d6000803e3d6000fd5b505050506040513d601f19601f820116820180604052508101906104d19190611286565b15610538576040517f08c379a000000000000000000000000000000000000000000000000000000000815260206004820152600d60248201527f494c4c4547414c5f4348415253000000000000000000000000000000000000006044820152606401610434565b600a546040517f02571be30000000000000000000000000000000000000000000000000000000081526004810187905260009173ffffffffffffffffffffffffffffffffffffffff16906302571be390602401602060405180830381865afa1580156105a8573d6000803e3d6000fd5b505050506040513d601f19601f820116820180604052508101906105cc91906112a8565b905060025484101561063a576040517f08c379a000000000000000000000000000000000000000000000000000000000815260206004820152601260248201527f4c4946455350414e5f544f4f5f53484f525400000000000000000000000000006044820152606401610434565b8360035461064891906112f4565b3410156106b1576040517f08c379a000000000000000000000000000000000000000000000000000000000815260206004820152601260248201527f494e53554646494349454e545f455448455200000000000000000000000000006044820152606401610434565b6000876040516020016106c49190611331565b6040516020818303038152906040528051906020012090506000600960009054906101000a900473ffffffffffffffffffffffffffffffffffffffff1673ffffffffffffffffffffffffffffffffffffffff1663642a8ed66040518163ffffffff1660e01b8152600401608060405180830381865afa15801561074b573d6000803e3d6000fd5b505050506040513d601f19601f8201168201806040525081019061076f919061134d565b602090810151604080519283018b9052820181905260608201849052915060009060800160408051808303601f19018152908290528051602090910120600b547f8146970a00000000000000000000000000000000000000000000000000000000835260048301829052602483018c905290925073ffffffffffffffffffffffffffffffffffffffff1690638146970a90604401600060405180830381600087803b15801561081d57600080fd5b505af1158015610831573d6000803e3d6000fd5b5050600b546040517fa3be52a200000000000000000000000000000000000000000000000000000000815260048101859052602481018c905273ffffffffffffffffffffffffffffffffffffffff909116925063a3be52a29150604401600060405180830381600087803b1580156108a857600080fd5b505af11580156108bc573d6000803e3d6000fd5b5050600b5473ffffffffffffffffffffffffffffffffffffffff1691506339de64699050826108eb8a426113cb565b6040517fffffffff0000000000000000000000000000000000000000000000000000000060e085901b16815260048101929092526024820152604401600060405180830381600087803b15801561094157600080fd5b505af1158015610955573d6000803e3d6000fd5b5050600b546040517fd31569050000000000000000000000000000000000000000000000000000000081526004810185905273ffffffffffffffffffffffffffffffffffffffff8881166024830152909116925063d31569059150604401600060405180830381600087803b1580156109cd57600080fd5b505af11580156109e1573d6000803e3d6000fd5b5050600b54600c546040517f1896f70a0000000000000000000000000000000000000000000000000000000081526004810186905273ffffffffffffffffffffffffffffffffffffffff918216602482015291169250631896f70a9150604401600060405180830381600087803b158015610a5b57600080fd5b505af1158015610a6f573d6000803e3d6000fd5b5050600b546040517f1f06e91c000000000000000000000000000000000000000000000000000000008152600481018590526024810187905273ffffffffffffffffffffffffffffffffffffffff9091169250631f06e91c9150604401600060405180830381600087803b158015610ae657600080fd5b505af1158015610afa573d6000803e3d6000fd5b5050600b546040517fd07699aa000000000000000000000000000000000000000000000000000000008152600481018590526000602482015273ffffffffffffffffffffffffffffffffffffffff909116925063d07699aa9150604401600060405180830381600087803b158015610b7157600080fd5b505af1158015610b85573d6000803e3d6000fd5b5050600b546040517f21ec2b5b0000000000000000000000000000000000000000000000000000000081526004810185905273ffffffffffffffffffffffffffffffffffffffff90911692506321ec2b5b9150602401600060405180830381600087803b158015610bf557600080fd5b505af1158015610c09573d6000803e3d6000fd5b50505050807f83b933ae5067371fb6246d78f0c57549a6f46923196d7537844c75e24bdaaf348a604051610c3f91815260200190565b60405180910390a29998505050505050505050565b60005473ffffffffffffffffffffffffffffffffffffffff163314610cc7576000546040517f8ea458f600000000000000000000000000000000000000000000000000000000815273ffffffffffffffffffffffffffffffffffffffff9091166004820152336024820152604401610434565b600255565b60058160048110610cdc57600080fd5b018054909150610ceb90611105565b80601f0160208091040260200160405190810160405280929190818152602001828054610d1790611105565b8015610d645780601f10610d3957610100808354040283529160200191610d64565b820191906000526020600020905b815481529060010190602001808311610d4757829003601f168201915b505050505081565b60005473ffffffffffffffffffffffffffffffffffffffff163314610ddf576000546040517f8ea458f600000000000000000000000000000000000000000000000000000000815273ffffffffffffffffffffffffffffffffffffffff9091166004820152336024820152604401610434565b6000546040805173ffffffffffffffffffffffffffffffffffffffff928316815291831660208301527fdec101f106d4fc7c85791843e64b198248c822298e3ed7046231d33f7783d816910160405180910390a1600080547fffffffffffffffffffffffff00000000000000000000000000000000000000001673ffffffffffffffffffffffffffffffffffffffff92909216919091179055565b60005473ffffffffffffffffffffffffffffffffffffffff163314610eed576000546040517f8ea458f600000000000000000000000000000000000000000000000000000000815273ffffffffffffffffffffffffffffffffffffffff9091166004820152336024820152604401610434565b600c80547fffffffffffffffffffffffff00000000000000000000000000000000000000001673ffffffffffffffffffffffffffffffffffffffff92909216919091179055565b7f4e487b7100000000000000000000000000000000000000000000000000000000600052604160045260246000fd5b604051601f8201601f1916810167ffffffffffffffff81118282101715610f8c57610f8c610f34565b604052919050565b60008060008060808587031215610faa57600080fd5b843567ffffffffffffffff80821115610fc257600080fd5b818701915087601f830112610fd657600080fd5b8135602082821115610fea57610fea610f34565b610ffc81601f19601f85011601610f63565b9250818352898183860101111561101257600080fd5b8181850182850137600091830181019190915290989087013597506040870135966060013595509350505050565b60006020828403121561105257600080fd5b5035919050565b60005b8381101561107457818101518382015260200161105c565b50506000910152565b60008151808452611095816020860160208601611059565b601f01601f19169290920160200192915050565b6020815260006110bc602083018461107d565b9392505050565b73ffffffffffffffffffffffffffffffffffffffff811681146110e557600080fd5b50565b6000602082840312156110fa57600080fd5b81356110bc816110c3565b600181811c9082168061111957607f821691505b602082108103611152577f4e487b7100000000000000000000000000000000000000000000000000000000600052602260045260246000fd5b50919050565b60408152600061116b604083018561107d565b60208382038185015281829050608083018660005b600480821061118f5750611278565b86840385528254600090600181811c90808316806111ae57607f831692505b8a831081036111e3577f4e487b7100000000000000000000000000000000000000000000000000000000855260228652602485fd5b82895260208901955080801561120057600181146112345761125f565b7fffffffffffffffffffffffffffffffffffffffffffffffffffffffffffffff008516875283151560051b8701955061125f565b60008981526020902060005b8581101561125957815489820152908401908d01611240565b88019650505b5050978901979296505050929092019150600101611180565b509098975050505050505050565b60006020828403121561129857600080fd5b815180151581146110bc57600080fd5b6000602082840312156112ba57600080fd5b81516110bc816110c3565b7f4e487b7100000000000000000000000000000000000000000000000000000000600052601160045260246000fd5b6000817fffffffffffffffffffffffffffffffffffffffffffffffffffffffffffffffff048311821515161561132c5761132c6112c5565b500290565b60008251611343818460208701611059565b9190910192915050565b60006080828403121561135f57600080fd5b82601f83011261136e57600080fd5b6040516080810181811067ffffffffffffffff8211171561139157611391610f34565b6040528060808401858111156113a657600080fd5b845b818110156113c05780518352602092830192016113a8565b509195945050505050565b808201808211156113de576113de6112c5565b9291505056fea2646970667358221220c1ddaee1fa6820a0a285809bff521f18ee15a7cbabedb8317a555479f751ec6864736f6c63430008100033",
    "linkReferences": {
      "src/Utils/LibString.sol": {
        "LibString": [
          {
            "start": 2813,
            "length": 20
          }
        ]
      }
    }
  },
  "methodIdentifiers": {
    "BONDS()": "b4abea24",
    "Dev()": "01e51ae8",
    "HELIX2()": "b782426e",
    "NAMES()": "05e84aa0",
    "active()": "02fb0c5e",
    "basePrice()": "c7876ea4",
    "bond()": "64c9ec6f",
    "changeDev(address)": "88a8c95c",
    "defaultLifespan()": "0e6c0bdb",
    "defaultResolver()": "828eab0e",
    "illegalBlocks(uint256)": "80b29beb",
    "newBond(string,bytes32,bytes32,uint256)": "222dcf72",
    "setDefaultLifespan(uint256)": "39506308",
    "setDefaultResolver(address)": "c66485b2",
    "sizeLimit()": "210fd271",
    "symbol()": "95d89b41"
  },
  "id": 15
}