{
  "abi": [
    {
      "inputs": [
        {
          "internalType": "address",
          "name": "__registry",
          "type": "address"
        },
        {
          "internalType": "address",
          "name": "_registry",
          "type": "address"
        },
        {
          "internalType": "address",
          "name": "_helix2",
          "type": "address"
        },
        {
          "internalType": "address",
          "name": "_priceOracle",
          "type": "address"
        }
      ],
      "stateMutability": "nonpayable",
      "type": "constructor"
    },
    {
      "inputs": [
        {
          "internalType": "address",
          "name": "_dev",
          "type": "address"
        },
        {
          "internalType": "address",
          "name": "_you",
          "type": "address"
        }
      ],
      "name": "OnlyDev",
      "type": "error"
    },
    {
      "anonymous": false,
      "inputs": [
        {
          "indexed": false,
          "internalType": "string",
          "name": "_alias",
          "type": "string"
        },
        {
          "indexed": true,
          "internalType": "bytes32",
          "name": "bondhash",
          "type": "bytes32"
        },
        {
          "indexed": false,
          "internalType": "bytes32",
          "name": "cation",
          "type": "bytes32"
        }
      ],
      "name": "NewBond",
      "type": "event"
    },
    {
      "anonymous": false,
      "inputs": [
        {
          "indexed": false,
          "internalType": "address",
          "name": "Dev",
          "type": "address"
        },
        {
          "indexed": false,
          "internalType": "address",
          "name": "newDev",
          "type": "address"
        }
      ],
      "name": "NewDev",
      "type": "event"
    },
    {
      "inputs": [],
      "name": "BONDS",
      "outputs": [
        {
          "internalType": "contract iBOND",
          "name": "",
          "type": "address"
        }
      ],
      "stateMutability": "view",
      "type": "function"
    },
    {
      "inputs": [],
      "name": "Dev",
      "outputs": [
        {
          "internalType": "address",
          "name": "",
          "type": "address"
        }
      ],
      "stateMutability": "view",
      "type": "function"
    },
    {
      "inputs": [],
      "name": "HELIX2",
      "outputs": [
        {
          "internalType": "contract iHELIX2",
          "name": "",
          "type": "address"
        }
      ],
      "stateMutability": "view",
      "type": "function"
    },
    {
      "inputs": [],
      "name": "NAMES",
      "outputs": [
        {
          "internalType": "contract iNAME",
          "name": "",
          "type": "address"
        }
      ],
      "stateMutability": "view",
      "type": "function"
    },
    {
      "inputs": [],
      "name": "PRICES",
      "outputs": [
        {
          "internalType": "contract iPriceOracle",
          "name": "",
          "type": "address"
        }
      ],
      "stateMutability": "view",
      "type": "function"
    },
    {
      "inputs": [],
      "name": "active",
      "outputs": [
        {
          "internalType": "bool",
          "name": "",
          "type": "bool"
        }
      ],
      "stateMutability": "view",
      "type": "function"
    },
    {
      "inputs": [],
      "name": "basePrice",
      "outputs": [
        {
          "internalType": "uint256",
          "name": "",
          "type": "uint256"
        }
      ],
      "stateMutability": "view",
      "type": "function"
    },
    {
      "inputs": [],
      "name": "bond",
      "outputs": [
        {
          "internalType": "string",
          "name": "",
          "type": "string"
        }
      ],
      "stateMutability": "view",
      "type": "function"
    },
    {
      "inputs": [
        {
          "internalType": "address",
          "name": "newDev",
          "type": "address"
        }
      ],
      "name": "changeDev",
      "outputs": [],
      "stateMutability": "nonpayable",
      "type": "function"
    },
    {
      "inputs": [],
      "name": "defaultLifespan",
      "outputs": [
        {
          "internalType": "uint256",
          "name": "",
          "type": "uint256"
        }
      ],
      "stateMutability": "view",
      "type": "function"
    },
    {
      "inputs": [],
      "name": "defaultResolver",
      "outputs": [
        {
          "internalType": "address",
          "name": "",
          "type": "address"
        }
      ],
      "stateMutability": "view",
      "type": "function"
    },
    {
      "inputs": [
        {
          "internalType": "uint256",
          "name": "",
          "type": "uint256"
        }
      ],
      "name": "illegalBlocks",
      "outputs": [
        {
          "internalType": "string",
          "name": "",
          "type": "string"
        }
      ],
      "stateMutability": "view",
      "type": "function"
    },
    {
      "inputs": [
        {
          "internalType": "string",
          "name": "_alias",
          "type": "string"
        },
        {
          "internalType": "bytes32",
          "name": "cation",
          "type": "bytes32"
        },
        {
          "internalType": "bytes32",
          "name": "anion",
          "type": "bytes32"
        },
        {
          "internalType": "uint256",
          "name": "lifespan",
          "type": "uint256"
        }
      ],
      "name": "newBond",
      "outputs": [
        {
          "internalType": "bytes32",
          "name": "",
          "type": "bytes32"
        }
      ],
      "stateMutability": "payable",
      "type": "function"
    },
    {
      "inputs": [],
      "name": "roothash",
      "outputs": [
        {
          "internalType": "bytes32",
          "name": "",
          "type": "bytes32"
        }
      ],
      "stateMutability": "view",
      "type": "function"
    },
    {
      "inputs": [
        {
          "internalType": "uint256",
          "name": "_lifespan",
          "type": "uint256"
        }
      ],
      "name": "setDefaultLifespan",
      "outputs": [],
      "stateMutability": "nonpayable",
      "type": "function"
    },
    {
      "inputs": [
        {
          "internalType": "address",
          "name": "_resolver",
          "type": "address"
        }
      ],
      "name": "setDefaultResolver",
      "outputs": [],
      "stateMutability": "nonpayable",
      "type": "function"
    },
    {
      "inputs": [
        {
          "internalType": "uint256",
          "name": "",
          "type": "uint256"
        }
      ],
      "name": "sizeLimit",
      "outputs": [
        {
          "internalType": "uint256",
          "name": "",
          "type": "uint256"
        }
      ],
      "stateMutability": "view",
      "type": "function"
    },
    {
      "inputs": [],
      "name": "symbol",
      "outputs": [
        {
          "internalType": "string",
          "name": "",
          "type": "string"
        }
      ],
      "stateMutability": "view",
      "type": "function"
    },
    {
      "inputs": [],
      "name": "toggleActive",
      "outputs": [],
      "stateMutability": "nonpayable",
      "type": "function"
    }
  ],
  "bytecode": {
    "object": "0x6080604052600f805460ff60a01b1916600160a01b1790553480156200002457600080fd5b506040516200209e3803806200209e83398101604081905262000047916200044d565b600c80546001600160a01b038085166001600160a01b031992831617909255600d8054868416908316179055600e8054878416908316179055600b805492841692909116821790556040805163bd9a548b60e01b8152905163bd9a548b916004808201926080929091908290030181865afa158015620000cb573d6000803e3d6000fd5b505050506040513d601f19601f82011682018060405250810190620000f1919062000543565b60200151600355600c546040805163335076e760e11b815290516001600160a01b03909216916366a0edce91600480820192610100929091908290030181865afa15801562000144573d6000803e3d6000fd5b505050506040513d601f19601f820116820180604052508101906200016a9190620005aa565b602001516200017e90600490600262000327565b50600c60009054906101000a90046001600160a01b03166001600160a01b031663ec2ace2a6040518163ffffffff1660e01b8152600401608060405180830381865afa158015620001d3573d6000803e3d6000fd5b505050506040513d601f19601f82011682018060405250810190620001f9919062000543565b60200151600255600c54604080516330b5337f60e21b815290516001600160a01b039092169163c2d4cdfc916004808201926000929091908290030181865afa1580156200024b573d6000803e3d6000fd5b505050506040513d6000823e601f3d908101601f1916820160405262000275919081019062000661565b620002859060079060046200036a565b50600c60009054906101000a90046001600160a01b03166001600160a01b031663642a8ed66040518163ffffffff1660e01b8152600401608060405180830381865afa158015620002da573d6000803e3d6000fd5b505050506040513d601f19601f8201168201806040525081019062000300919062000543565b600160200201516006555050600080546001600160a01b0319163317905550620008d19050565b826002810192821562000358579160200282015b82811115620003585782518255916020019190600101906200033b565b5062000366929150620003b6565b5090565b8260048101928215620003a8579160200282015b82811115620003a8578251829062000397908262000805565b50916020019190600101906200037e565b5062000366929150620003cd565b5b80821115620003665760008155600101620003b7565b8082111562000366576000620003e48282620003ee565b50600101620003cd565b508054620003fc9062000776565b6000825580601f106200040d575050565b601f0160209004906000526020600020908101906200042d9190620003b6565b50565b80516001600160a01b03811681146200044857600080fd5b919050565b600080600080608085870312156200046457600080fd5b6200046f8562000430565b93506200047f6020860162000430565b92506200048f6040860162000430565b91506200049f6060860162000430565b905092959194509250565b634e487b7160e01b600052604160045260246000fd5b604051608081016001600160401b0381118282101715620004e557620004e5620004aa565b60405290565b604080519081016001600160401b0381118282101715620004e557620004e5620004aa565b604051601f8201601f191681016001600160401b03811182821017156200053b576200053b620004aa565b604052919050565b6000608082840312156200055657600080fd5b82601f8301126200056657600080fd5b62000570620004c0565b8060808401858111156200058357600080fd5b845b818110156200059f57805184526020938401930162000585565b509095945050505050565b6000610100808385031215620005bf57600080fd5b601f8481850112620005d057600080fd5b620005da620004c0565b918401918086841115620005ed57600080fd5b855b8481101562000656578784820112620006085760008081fd5b62000612620004eb565b80604083018a811115620006265760008081fd5b835b818110156200064257805184526020938401930162000628565b5050845250602090920191604001620005ef565b509695505050505050565b600060208083850312156200067557600080fd5b82516001600160401b03808211156200068d57600080fd5b8185019150601f8681840112620006a357600080fd5b620006ad620004c0565b806080850189811115620006c057600080fd5b855b818110156200076757805186811115620006dc5760008081fd5b87018581018c13620006ee5760008081fd5b805187811115620007035762000703620004aa565b62000716818801601f19168b0162000510565b8181528d8b8385010111156200072c5760008081fd5b60005b828110156200074c578381018c01518282018d01528b016200072f565b5060009181018b0191909152855250928701928701620006c2565b50909998505050505050505050565b600181811c908216806200078b57607f821691505b602082108103620007ac57634e487b7160e01b600052602260045260246000fd5b50919050565b601f8211156200080057600081815260208120601f850160051c81016020861015620007db5750805b601f850160051c820191505b81811015620007fc57828155600101620007e7565b5050505b505050565b81516001600160401b03811115620008215762000821620004aa565b620008398162000832845462000776565b84620007b2565b602080601f831160018114620008715760008415620008585750858301515b600019600386901b1c1916600185901b178555620007fc565b600085815260208120601f198616915b82811015620008a25788860151825594840194600190910190840162000881565b5085821015620008c15787850151600019600388901b60f8161c191681555b5050505050600190811b01905550565b6117bd80620008e16000396000f3fe6080604052600436106101445760003560e01c806364c9ec6f116100c057806395d89b4111610074578063b782426e11610059578063b782426e14610419578063c66485b214610446578063c7876ea41461046657600080fd5b806395d89b41146103a3578063b4abea24146103ec57600080fd5b806380b29beb116100a557806380b29beb14610336578063828eab0e1461035657806388a8c95c1461038357600080fd5b806364c9ec6f146102c0578063769da4bb1461031657600080fd5b80631eabcd3411610117578063251c9422116100fc578063251c94221461027357806329c68dc11461028957806339506308146102a057600080fd5b80631eabcd3414610233578063222dcf721461026057600080fd5b806301e51ae81461014957806302fb0c5e146101a057806305e84aa0146101e25780630e6c0bdb1461020f575b600080fd5b34801561015557600080fd5b506000546101769073ffffffffffffffffffffffffffffffffffffffff1681565b60405173ffffffffffffffffffffffffffffffffffffffff90911681526020015b60405180910390f35b3480156101ac57600080fd5b50600f546101d29074010000000000000000000000000000000000000000900460ff1681565b6040519015158152602001610197565b3480156101ee57600080fd5b50600d546101769073ffffffffffffffffffffffffffffffffffffffff1681565b34801561021b57600080fd5b5061022560025481565b604051908152602001610197565b34801561023f57600080fd5b50600b546101769073ffffffffffffffffffffffffffffffffffffffff1681565b61022561026e366004611447565b61047c565b34801561027f57600080fd5b5061022560065481565b34801561029557600080fd5b5061029e610dbc565b005b3480156102ac57600080fd5b5061029e6102bb36600461150c565b610e7c565b3480156102cc57600080fd5b506103096040518060400160405280601381526020017f48656c69783220426f6e6420536572766963650000000000000000000000000081525081565b6040516101979190611575565b34801561032257600080fd5b5061022561033136600461150c565b610ef4565b34801561034257600080fd5b5061030961035136600461150c565b610f0b565b34801561036257600080fd5b50600f546101769073ffffffffffffffffffffffffffffffffffffffff1681565b34801561038f57600080fd5b5061029e61039e3660046115b4565b610fab565b3480156103af57600080fd5b506103096040518060400160405280600381526020017f484253000000000000000000000000000000000000000000000000000000000081525081565b3480156103f857600080fd5b50600e546101769073ffffffffffffffffffffffffffffffffffffffff1681565b34801561042557600080fd5b50600c546101769073ffffffffffffffffffffffffffffffffffffffff1681565b34801561045257600080fd5b5061029e6104613660046115b4565b6110b9565b34801561047257600080fd5b5061022560035481565b600084600482015461048d82611173565b1180156104a357506005546104a182611173565b105b61050e576040517f08c379a000000000000000000000000000000000000000000000000000000000815260206004820152600d60248201527f494c4c4547414c5f4c4142454c0000000000000000000000000000000000000060448201526064015b60405180910390fd5b60408051608081019091526105db90600760046000835b828210156105c857838201805461053b90611600565b80601f016020809104026020016040519081016040528092919081815260200182805461056790611600565b80156105b45780601f10610589576101008083540402835291602001916105b4565b820191906000526020600020905b81548152906001019060200180831161059757829003601f168201915b505050505081526020019060010190610525565b505050508261137a90919063ffffffff16565b15610642576040517f08c379a000000000000000000000000000000000000000000000000000000000815260206004820152600d60248201527f494c4c4547414c5f4348415253000000000000000000000000000000000000006044820152606401610505565b600d546040517f02571be30000000000000000000000000000000000000000000000000000000081526004810187905260009173ffffffffffffffffffffffffffffffffffffffff16906302571be390602401602060405180830381865afa1580156106b2573d6000803e3d6000fd5b505050506040513d601f19601f820116820180604052508101906106d69190611653565b9050600254841015610744576040517f08c379a000000000000000000000000000000000000000000000000000000000815260206004820152601260248201527f4c4946455350414e5f544f4f5f53484f525400000000000000000000000000006044820152606401610505565b83600354610752919061169f565b3410156107bb576040517f08c379a000000000000000000000000000000000000000000000000000000000815260206004820152601260248201527f494e53554646494349454e545f455448455200000000000000000000000000006044820152606401610505565b6000876040516020016107ce91906116dc565b60408051601f1981840301815282825280516020918201206006549184018b90529183015260608201819052915060009060800160408051808303601f19018152908290528051602090910120600e547ff79fe5380000000000000000000000000000000000000000000000000000000083526004830182905290925073ffffffffffffffffffffffffffffffffffffffff169063f79fe53890602401602060405180830381865afa158015610888573d6000803e3d6000fd5b505050506040513d601f19601f820116820180604052508101906108ac91906116f8565b15610913576040517f08c379a000000000000000000000000000000000000000000000000000000000815260206004820152600b60248201527f424f4e445f4558495354530000000000000000000000000000000000000000006044820152606401610505565b600e546040517f2f92673200000000000000000000000000000000000000000000000000000000815260048101839052602481018a905273ffffffffffffffffffffffffffffffffffffffff90911690632f92673290604401600060405180830381600087803b15801561098657600080fd5b505af115801561099a573d6000803e3d6000fd5b5050600e546040517fa3be52a200000000000000000000000000000000000000000000000000000000815260048101859052602481018b905273ffffffffffffffffffffffffffffffffffffffff909116925063a3be52a29150604401600060405180830381600087803b158015610a1157600080fd5b505af1158015610a25573d6000803e3d6000fd5b5050600e5473ffffffffffffffffffffffffffffffffffffffff1691506339de6469905082610a54894261171a565b6040517fffffffff0000000000000000000000000000000000000000000000000000000060e085901b16815260048101929092526024820152604401600060405180830381600087803b158015610aaa57600080fd5b505af1158015610abe573d6000803e3d6000fd5b5050600e546040517fd31569050000000000000000000000000000000000000000000000000000000081526004810185905273ffffffffffffffffffffffffffffffffffffffff8781166024830152909116925063d31569059150604401600060405180830381600087803b158015610b3657600080fd5b505af1158015610b4a573d6000803e3d6000fd5b5050600e54600f546040517f1896f70a0000000000000000000000000000000000000000000000000000000081526004810186905273ffffffffffffffffffffffffffffffffffffffff918216602482015291169250631896f70a9150604401600060405180830381600087803b158015610bc457600080fd5b505af1158015610bd8573d6000803e3d6000fd5b5050600e546040517f1f06e91c000000000000000000000000000000000000000000000000000000008152600481018590526024810186905273ffffffffffffffffffffffffffffffffffffffff9091169250631f06e91c9150604401600060405180830381600087803b158015610c4f57600080fd5b505af1158015610c63573d6000803e3d6000fd5b5050600e546040517fd07699aa000000000000000000000000000000000000000000000000000000008152600481018590526000602482015273ffffffffffffffffffffffffffffffffffffffff909116925063d07699aa9150604401600060405180830381600087803b158015610cda57600080fd5b505af1158015610cee573d6000803e3d6000fd5b5050600e546040517f21ec2b5b0000000000000000000000000000000000000000000000000000000081526004810185905273ffffffffffffffffffffffffffffffffffffffff90911692506321ec2b5b9150602401600060405180830381600087803b158015610d5e57600080fd5b505af1158015610d72573d6000803e3d6000fd5b50505050807f052a5ffdcc547557a87b015d1f52a71e5250f576ed4db9aa36ef566b87f33f418a8a604051610da892919061172d565b60405180910390a298975050505050505050565b60005473ffffffffffffffffffffffffffffffffffffffff163314610e2f576000546040517f8ea458f600000000000000000000000000000000000000000000000000000000815273ffffffffffffffffffffffffffffffffffffffff9091166004820152336024820152604401610505565b600f80547fffffffffffffffffffffff00ffffffffffffffffffffffffffffffffffffffff8116740100000000000000000000000000000000000000009182900460ff1615909102179055565b60005473ffffffffffffffffffffffffffffffffffffffff163314610eef576000546040517f8ea458f600000000000000000000000000000000000000000000000000000000815273ffffffffffffffffffffffffffffffffffffffff9091166004820152336024820152604401610505565b600255565b60048160028110610f0457600080fd5b0154905081565b60078160048110610f1b57600080fd5b018054909150610f2a90611600565b80601f0160208091040260200160405190810160405280929190818152602001828054610f5690611600565b8015610fa35780601f10610f7857610100808354040283529160200191610fa3565b820191906000526020600020905b815481529060010190602001808311610f8657829003601f168201915b505050505081565b60005473ffffffffffffffffffffffffffffffffffffffff16331461101e576000546040517f8ea458f600000000000000000000000000000000000000000000000000000000815273ffffffffffffffffffffffffffffffffffffffff9091166004820152336024820152604401610505565b6000546040805173ffffffffffffffffffffffffffffffffffffffff928316815291831660208301527fdec101f106d4fc7c85791843e64b198248c822298e3ed7046231d33f7783d816910160405180910390a1600080547fffffffffffffffffffffffff00000000000000000000000000000000000000001673ffffffffffffffffffffffffffffffffffffffff92909216919091179055565b60005473ffffffffffffffffffffffffffffffffffffffff16331461112c576000546040517f8ea458f600000000000000000000000000000000000000000000000000000000815273ffffffffffffffffffffffffffffffffffffffff9091166004820152336024820152604401610505565b600f80547fffffffffffffffffffffffff00000000000000000000000000000000000000001673ffffffffffffffffffffffffffffffffffffffff92909216919091179055565b8051600090819081905b80821015611371576000858381518110611199576111996115d1565b01602001517fff000000000000000000000000000000000000000000000000000000000000001690507f80000000000000000000000000000000000000000000000000000000000000008110156111fc576111f560018461171a565b925061135e565b7fe0000000000000000000000000000000000000000000000000000000000000007fff0000000000000000000000000000000000000000000000000000000000000082161015611251576111f560028461171a565b7ff0000000000000000000000000000000000000000000000000000000000000007fff00000000000000000000000000000000000000000000000000000000000000821610156112a6576111f560038461171a565b7ff8000000000000000000000000000000000000000000000000000000000000007fff00000000000000000000000000000000000000000000000000000000000000821610156112fb576111f560048461171a565b7ffc000000000000000000000000000000000000000000000000000000000000007fff0000000000000000000000000000000000000000000000000000000000000082161015611350576111f560058461171a565b61135b60068461171a565b92505b50826113698161174f565b93505061117d565b50909392505050565b6000805b600481101561140c578360405160200161139891906116dc565b604051602081830303815290604052805190602001208382600481106113c0576113c06115d1565b60200201516040516020016113d591906116dc565b60405160208183030381529060405280519060200120036113fa576001915050611412565b806114048161174f565b91505061137e565b50600090505b92915050565b7f4e487b7100000000000000000000000000000000000000000000000000000000600052604160045260246000fd5b6000806000806080858703121561145d57600080fd5b843567ffffffffffffffff8082111561147557600080fd5b818701915087601f83011261148957600080fd5b81358181111561149b5761149b611418565b604051601f8201601f19908116603f011681019083821181831017156114c3576114c3611418565b816040528281528a60208487010111156114dc57600080fd5b82602086016020830137600060209382018401529a91890135995050604088013597606001359650945050505050565b60006020828403121561151e57600080fd5b5035919050565b60005b83811015611540578181015183820152602001611528565b50506000910152565b60008151808452611561816020860160208601611525565b601f01601f19169290920160200192915050565b6020815260006115886020830184611549565b9392505050565b73ffffffffffffffffffffffffffffffffffffffff811681146115b157600080fd5b50565b6000602082840312156115c657600080fd5b81356115888161158f565b7f4e487b7100000000000000000000000000000000000000000000000000000000600052603260045260246000fd5b600181811c9082168061161457607f821691505b60208210810361164d577f4e487b7100000000000000000000000000000000000000000000000000000000600052602260045260246000fd5b50919050565b60006020828403121561166557600080fd5b81516115888161158f565b7f4e487b7100000000000000000000000000000000000000000000000000000000600052601160045260246000fd5b6000817fffffffffffffffffffffffffffffffffffffffffffffffffffffffffffffffff04831182151516156116d7576116d7611670565b500290565b600082516116ee818460208701611525565b9190910192915050565b60006020828403121561170a57600080fd5b8151801515811461158857600080fd5b8082018082111561141257611412611670565b6040815260006117406040830185611549565b90508260208301529392505050565b60007fffffffffffffffffffffffffffffffffffffffffffffffffffffffffffffffff820361178057611780611670565b506001019056fea2646970667358221220a03c05787cc30dfd8bc91390a9cb0f74e648f65f4c1429255265c1fa8150367c64736f6c63430008100033",
    "linkReferences": {}
  },
  "methodIdentifiers": {
    "BONDS()": "b4abea24",
    "Dev()": "01e51ae8",
    "HELIX2()": "b782426e",
    "NAMES()": "05e84aa0",
    "PRICES()": "1eabcd34",
    "active()": "02fb0c5e",
    "basePrice()": "c7876ea4",
    "bond()": "64c9ec6f",
    "changeDev(address)": "88a8c95c",
    "defaultLifespan()": "0e6c0bdb",
    "defaultResolver()": "828eab0e",
    "illegalBlocks(uint256)": "80b29beb",
    "newBond(string,bytes32,bytes32,uint256)": "222dcf72",
    "roothash()": "251c9422",
    "setDefaultLifespan(uint256)": "39506308",
    "setDefaultResolver(address)": "c66485b2",
    "sizeLimit(uint256)": "769da4bb",
    "symbol()": "95d89b41",
    "toggleActive()": "29c68dc1"
  },
  "id": 17
}