{
  "abi": [
    {
      "inputs": [
        {
          "internalType": "address",
          "name": "__registry",
          "type": "address"
        },
        {
          "internalType": "address",
          "name": "_registry",
          "type": "address"
        },
        {
          "internalType": "address",
          "name": "_helix2",
          "type": "address"
        },
        {
          "internalType": "address",
          "name": "_priceOracle",
          "type": "address"
        }
      ],
      "stateMutability": "nonpayable",
      "type": "constructor"
    },
    {
      "inputs": [
        {
          "internalType": "address",
          "name": "_dev",
          "type": "address"
        },
        {
          "internalType": "address",
          "name": "_you",
          "type": "address"
        }
      ],
      "name": "OnlyDev",
      "type": "error"
    },
    {
      "anonymous": false,
      "inputs": [
        {
          "indexed": false,
          "internalType": "string",
          "name": "_alias",
          "type": "string"
        },
        {
          "indexed": true,
          "internalType": "bytes32",
          "name": "bondhash",
          "type": "bytes32"
        },
        {
          "indexed": false,
          "internalType": "bytes32",
          "name": "cation",
          "type": "bytes32"
        }
      ],
      "name": "NewBond",
      "type": "event"
    },
    {
      "anonymous": false,
      "inputs": [
        {
          "indexed": true,
          "internalType": "address",
          "name": "previousOwner",
          "type": "address"
        },
        {
          "indexed": true,
          "internalType": "address",
          "name": "newOwner",
          "type": "address"
        }
      ],
      "name": "OwnershipTransferred",
      "type": "event"
    },
    {
      "inputs": [],
      "name": "BONDS",
      "outputs": [
        {
          "internalType": "contract iBOND",
          "name": "",
          "type": "address"
        }
      ],
      "stateMutability": "view",
      "type": "function"
    },
    {
      "inputs": [],
      "name": "Dev",
      "outputs": [
        {
          "internalType": "address",
          "name": "",
          "type": "address"
        }
      ],
      "stateMutability": "view",
      "type": "function"
    },
    {
      "inputs": [],
      "name": "HELIX2",
      "outputs": [
        {
          "internalType": "contract iHELIX2",
          "name": "",
          "type": "address"
        }
      ],
      "stateMutability": "view",
      "type": "function"
    },
    {
      "inputs": [],
      "name": "NAMES",
      "outputs": [
        {
          "internalType": "contract iNAME",
          "name": "",
          "type": "address"
        }
      ],
      "stateMutability": "view",
      "type": "function"
    },
    {
      "inputs": [],
      "name": "PRICES",
      "outputs": [
        {
          "internalType": "contract iPriceOracle",
          "name": "",
          "type": "address"
        }
      ],
      "stateMutability": "view",
      "type": "function"
    },
    {
      "inputs": [],
      "name": "active",
      "outputs": [
        {
          "internalType": "bool",
          "name": "",
          "type": "bool"
        }
      ],
      "stateMutability": "view",
      "type": "function"
    },
    {
      "inputs": [],
      "name": "basePrice",
      "outputs": [
        {
          "internalType": "uint256",
          "name": "",
          "type": "uint256"
        }
      ],
      "stateMutability": "view",
      "type": "function"
    },
    {
      "inputs": [],
      "name": "bond",
      "outputs": [
        {
          "internalType": "string",
          "name": "",
          "type": "string"
        }
      ],
      "stateMutability": "view",
      "type": "function"
    },
    {
      "inputs": [],
      "name": "defaultLifespan",
      "outputs": [
        {
          "internalType": "uint256",
          "name": "",
          "type": "uint256"
        }
      ],
      "stateMutability": "view",
      "type": "function"
    },
    {
      "inputs": [],
      "name": "defaultResolver",
      "outputs": [
        {
          "internalType": "address",
          "name": "",
          "type": "address"
        }
      ],
      "stateMutability": "view",
      "type": "function"
    },
    {
      "inputs": [
        {
          "internalType": "uint256",
          "name": "",
          "type": "uint256"
        }
      ],
      "name": "illegalBlocks",
      "outputs": [
        {
          "internalType": "string",
          "name": "",
          "type": "string"
        }
      ],
      "stateMutability": "view",
      "type": "function"
    },
    {
      "inputs": [
        {
          "internalType": "string",
          "name": "_alias",
          "type": "string"
        },
        {
          "internalType": "bytes32",
          "name": "cation",
          "type": "bytes32"
        },
        {
          "internalType": "bytes32",
          "name": "anion",
          "type": "bytes32"
        },
        {
          "internalType": "uint256",
          "name": "lifespan",
          "type": "uint256"
        }
      ],
      "name": "newBond",
      "outputs": [
        {
          "internalType": "bytes32",
          "name": "",
          "type": "bytes32"
        }
      ],
      "stateMutability": "payable",
      "type": "function"
    },
    {
      "inputs": [],
      "name": "owner",
      "outputs": [
        {
          "internalType": "address",
          "name": "",
          "type": "address"
        }
      ],
      "stateMutability": "view",
      "type": "function"
    },
    {
      "inputs": [],
      "name": "roothash",
      "outputs": [
        {
          "internalType": "bytes32",
          "name": "",
          "type": "bytes32"
        }
      ],
      "stateMutability": "view",
      "type": "function"
    },
    {
      "inputs": [
        {
          "internalType": "uint256",
          "name": "_lifespan",
          "type": "uint256"
        }
      ],
      "name": "setDefaultLifespan",
      "outputs": [],
      "stateMutability": "nonpayable",
      "type": "function"
    },
    {
      "inputs": [
        {
          "internalType": "address",
          "name": "_resolver",
          "type": "address"
        }
      ],
      "name": "setDefaultResolver",
      "outputs": [],
      "stateMutability": "nonpayable",
      "type": "function"
    },
    {
      "inputs": [
        {
          "internalType": "uint256",
          "name": "",
          "type": "uint256"
        }
      ],
      "name": "sizeLimit",
      "outputs": [
        {
          "internalType": "uint256",
          "name": "",
          "type": "uint256"
        }
      ],
      "stateMutability": "view",
      "type": "function"
    },
    {
      "inputs": [],
      "name": "symbol",
      "outputs": [
        {
          "internalType": "string",
          "name": "",
          "type": "string"
        }
      ],
      "stateMutability": "view",
      "type": "function"
    },
    {
      "inputs": [],
      "name": "toggleActive",
      "outputs": [],
      "stateMutability": "nonpayable",
      "type": "function"
    },
    {
      "inputs": [
        {
          "internalType": "address",
          "name": "newDev",
          "type": "address"
        }
      ],
      "name": "transferOwnership",
      "outputs": [],
      "stateMutability": "nonpayable",
      "type": "function"
    }
  ],
  "bytecode": {
    "object": "0x6080604052600f805460ff60a01b1916600160a01b1790553480156200002457600080fd5b50604051620020d6380380620020d683398101604081905262000047916200044d565b600c80546001600160a01b038085166001600160a01b031992831617909255600d8054868416908316179055600e8054878416908316179055600b805492841692909116821790556040805163bd9a548b60e01b8152905163bd9a548b916004808201926080929091908290030181865afa158015620000cb573d6000803e3d6000fd5b505050506040513d601f19601f82011682018060405250810190620000f1919062000543565b60200151600355600c546040805163335076e760e11b815290516001600160a01b03909216916366a0edce91600480820192610100929091908290030181865afa15801562000144573d6000803e3d6000fd5b505050506040513d601f19601f820116820180604052508101906200016a9190620005aa565b602001516200017e90600490600262000327565b50600c60009054906101000a90046001600160a01b03166001600160a01b031663ec2ace2a6040518163ffffffff1660e01b8152600401608060405180830381865afa158015620001d3573d6000803e3d6000fd5b505050506040513d601f19601f82011682018060405250810190620001f9919062000543565b60200151600255600c54604080516330b5337f60e21b815290516001600160a01b039092169163c2d4cdfc916004808201926000929091908290030181865afa1580156200024b573d6000803e3d6000fd5b505050506040513d6000823e601f3d908101601f1916820160405262000275919081019062000661565b620002859060079060046200036a565b50600c60009054906101000a90046001600160a01b03166001600160a01b031663642a8ed66040518163ffffffff1660e01b8152600401608060405180830381865afa158015620002da573d6000803e3d6000fd5b505050506040513d601f19601f8201168201806040525081019062000300919062000543565b600160200201516006555050600080546001600160a01b0319163317905550620008d19050565b826002810192821562000358579160200282015b82811115620003585782518255916020019190600101906200033b565b5062000366929150620003b6565b5090565b8260048101928215620003a8579160200282015b82811115620003a8578251829062000397908262000805565b50916020019190600101906200037e565b5062000366929150620003cd565b5b80821115620003665760008155600101620003b7565b8082111562000366576000620003e48282620003ee565b50600101620003cd565b508054620003fc9062000776565b6000825580601f106200040d575050565b601f0160209004906000526020600020908101906200042d9190620003b6565b50565b80516001600160a01b03811681146200044857600080fd5b919050565b600080600080608085870312156200046457600080fd5b6200046f8562000430565b93506200047f6020860162000430565b92506200048f6040860162000430565b91506200049f6060860162000430565b905092959194509250565b634e487b7160e01b600052604160045260246000fd5b604051608081016001600160401b0381118282101715620004e557620004e5620004aa565b60405290565b604080519081016001600160401b0381118282101715620004e557620004e5620004aa565b604051601f8201601f191681016001600160401b03811182821017156200053b576200053b620004aa565b604052919050565b6000608082840312156200055657600080fd5b82601f8301126200056657600080fd5b62000570620004c0565b8060808401858111156200058357600080fd5b845b818110156200059f57805184526020938401930162000585565b509095945050505050565b6000610100808385031215620005bf57600080fd5b601f8481850112620005d057600080fd5b620005da620004c0565b918401918086841115620005ed57600080fd5b855b8481101562000656578784820112620006085760008081fd5b62000612620004eb565b80604083018a811115620006265760008081fd5b835b818110156200064257805184526020938401930162000628565b5050845250602090920191604001620005ef565b509695505050505050565b600060208083850312156200067557600080fd5b82516001600160401b03808211156200068d57600080fd5b8185019150601f8681840112620006a357600080fd5b620006ad620004c0565b806080850189811115620006c057600080fd5b855b818110156200076757805186811115620006dc5760008081fd5b87018581018c13620006ee5760008081fd5b805187811115620007035762000703620004aa565b62000716818801601f19168b0162000510565b8181528d8b8385010111156200072c5760008081fd5b60005b828110156200074c578381018c01518282018d01528b016200072f565b5060009181018b0191909152855250928701928701620006c2565b50909998505050505050505050565b600181811c908216806200078b57607f821691505b602082108103620007ac57634e487b7160e01b600052602260045260246000fd5b50919050565b601f8211156200080057600081815260208120601f850160051c81016020861015620007db5750805b601f850160051c820191505b81811015620007fc57828155600101620007e7565b5050505b505050565b81516001600160401b03811115620008215762000821620004aa565b620008398162000832845462000776565b84620007b2565b602080601f831160018114620008715760008415620008585750858301515b600019600386901b1c1916600185901b178555620007fc565b600085815260208120601f198616915b82811015620008a25788860151825594840194600190910190840162000881565b5085821015620008c15787850151600019600388901b60f8161c191681555b5050505050600190811b01905550565b6117f580620008e16000396000f3fe60806040526004361061015f5760003560e01c8063769da4bb116100c0578063b4abea2411610074578063c66485b211610059578063c66485b21461046c578063c7876ea41461048c578063f2fde38b146104a257600080fd5b8063b4abea2414610412578063b782426e1461043f57600080fd5b8063828eab0e116100a5578063828eab0e146103715780638da5cb5b1461039e57806395d89b41146103c957600080fd5b8063769da4bb1461033157806380b29beb1461035157600080fd5b8063222dcf721161011757806329c68dc1116100fc57806329c68dc1146102a457806339506308146102bb57806364c9ec6f146102db57600080fd5b8063222dcf721461027b578063251c94221461028e57600080fd5b806305e84aa01161014857806305e84aa0146101fd5780630e6c0bdb1461022a5780631eabcd341461024e57600080fd5b806301e51ae81461016457806302fb0c5e146101bb575b600080fd5b34801561017057600080fd5b506000546101919073ffffffffffffffffffffffffffffffffffffffff1681565b60405173ffffffffffffffffffffffffffffffffffffffff90911681526020015b60405180910390f35b3480156101c757600080fd5b50600f546101ed9074010000000000000000000000000000000000000000900460ff1681565b60405190151581526020016101b2565b34801561020957600080fd5b50600d546101919073ffffffffffffffffffffffffffffffffffffffff1681565b34801561023657600080fd5b5061024060025481565b6040519081526020016101b2565b34801561025a57600080fd5b50600b546101919073ffffffffffffffffffffffffffffffffffffffff1681565b61024061028936600461147f565b6104c2565b34801561029a57600080fd5b5061024060065481565b3480156102b057600080fd5b506102b9610e02565b005b3480156102c757600080fd5b506102b96102d6366004611544565b610ec2565b3480156102e757600080fd5b506103246040518060400160405280601381526020017f48656c69783220426f6e6420536572766963650000000000000000000000000081525081565b6040516101b291906115ad565b34801561033d57600080fd5b5061024061034c366004611544565b610f3a565b34801561035d57600080fd5b5061032461036c366004611544565b610f51565b34801561037d57600080fd5b50600f546101919073ffffffffffffffffffffffffffffffffffffffff1681565b3480156103aa57600080fd5b5060005473ffffffffffffffffffffffffffffffffffffffff16610191565b3480156103d557600080fd5b506103246040518060400160405280600381526020017f484253000000000000000000000000000000000000000000000000000000000081525081565b34801561041e57600080fd5b50600e546101919073ffffffffffffffffffffffffffffffffffffffff1681565b34801561044b57600080fd5b50600c546101919073ffffffffffffffffffffffffffffffffffffffff1681565b34801561047857600080fd5b506102b96104873660046115ec565b610ff1565b34801561049857600080fd5b5061024060035481565b3480156104ae57600080fd5b506102b96104bd3660046115ec565b6110ab565b60008460048201546104d3826111ab565b1180156104e957506005546104e7826111ab565b105b610554576040517f08c379a000000000000000000000000000000000000000000000000000000000815260206004820152600d60248201527f494c4c4547414c5f4c4142454c0000000000000000000000000000000000000060448201526064015b60405180910390fd5b604080516080810190915261062190600760046000835b8282101561060e57838201805461058190611638565b80601f01602080910402602001604051908101604052809291908181526020018280546105ad90611638565b80156105fa5780601f106105cf576101008083540402835291602001916105fa565b820191906000526020600020905b8154815290600101906020018083116105dd57829003601f168201915b50505050508152602001906001019061056b565b50505050826113b290919063ffffffff16565b15610688576040517f08c379a000000000000000000000000000000000000000000000000000000000815260206004820152600d60248201527f494c4c4547414c5f434841525300000000000000000000000000000000000000604482015260640161054b565b600d546040517f02571be30000000000000000000000000000000000000000000000000000000081526004810187905260009173ffffffffffffffffffffffffffffffffffffffff16906302571be390602401602060405180830381865afa1580156106f8573d6000803e3d6000fd5b505050506040513d601f19601f8201168201806040525081019061071c919061168b565b905060025484101561078a576040517f08c379a000000000000000000000000000000000000000000000000000000000815260206004820152601260248201527f4c4946455350414e5f544f4f5f53484f52540000000000000000000000000000604482015260640161054b565b8360035461079891906116d7565b341015610801576040517f08c379a000000000000000000000000000000000000000000000000000000000815260206004820152601260248201527f494e53554646494349454e545f45544845520000000000000000000000000000604482015260640161054b565b6000876040516020016108149190611714565b60408051601f1981840301815282825280516020918201206006549184018b90529183015260608201819052915060009060800160408051808303601f19018152908290528051602090910120600e547ff79fe5380000000000000000000000000000000000000000000000000000000083526004830182905290925073ffffffffffffffffffffffffffffffffffffffff169063f79fe53890602401602060405180830381865afa1580156108ce573d6000803e3d6000fd5b505050506040513d601f19601f820116820180604052508101906108f29190611730565b15610959576040517f08c379a000000000000000000000000000000000000000000000000000000000815260206004820152600b60248201527f424f4e445f455849535453000000000000000000000000000000000000000000604482015260640161054b565b600e546040517f2f92673200000000000000000000000000000000000000000000000000000000815260048101839052602481018a905273ffffffffffffffffffffffffffffffffffffffff90911690632f92673290604401600060405180830381600087803b1580156109cc57600080fd5b505af11580156109e0573d6000803e3d6000fd5b5050600e546040517fa3be52a200000000000000000000000000000000000000000000000000000000815260048101859052602481018b905273ffffffffffffffffffffffffffffffffffffffff909116925063a3be52a29150604401600060405180830381600087803b158015610a5757600080fd5b505af1158015610a6b573d6000803e3d6000fd5b5050600e5473ffffffffffffffffffffffffffffffffffffffff1691506339de6469905082610a9a8942611752565b6040517fffffffff0000000000000000000000000000000000000000000000000000000060e085901b16815260048101929092526024820152604401600060405180830381600087803b158015610af057600080fd5b505af1158015610b04573d6000803e3d6000fd5b5050600e546040517fd31569050000000000000000000000000000000000000000000000000000000081526004810185905273ffffffffffffffffffffffffffffffffffffffff8781166024830152909116925063d31569059150604401600060405180830381600087803b158015610b7c57600080fd5b505af1158015610b90573d6000803e3d6000fd5b5050600e54600f546040517f1896f70a0000000000000000000000000000000000000000000000000000000081526004810186905273ffffffffffffffffffffffffffffffffffffffff918216602482015291169250631896f70a9150604401600060405180830381600087803b158015610c0a57600080fd5b505af1158015610c1e573d6000803e3d6000fd5b5050600e546040517f1f06e91c000000000000000000000000000000000000000000000000000000008152600481018590526024810186905273ffffffffffffffffffffffffffffffffffffffff9091169250631f06e91c9150604401600060405180830381600087803b158015610c9557600080fd5b505af1158015610ca9573d6000803e3d6000fd5b5050600e546040517fd07699aa000000000000000000000000000000000000000000000000000000008152600481018590526000602482015273ffffffffffffffffffffffffffffffffffffffff909116925063d07699aa9150604401600060405180830381600087803b158015610d2057600080fd5b505af1158015610d34573d6000803e3d6000fd5b5050600e546040517f21ec2b5b0000000000000000000000000000000000000000000000000000000081526004810185905273ffffffffffffffffffffffffffffffffffffffff90911692506321ec2b5b9150602401600060405180830381600087803b158015610da457600080fd5b505af1158015610db8573d6000803e3d6000fd5b50505050807f052a5ffdcc547557a87b015d1f52a71e5250f576ed4db9aa36ef566b87f33f418a8a604051610dee929190611765565b60405180910390a298975050505050505050565b60005473ffffffffffffffffffffffffffffffffffffffff163314610e75576000546040517f8ea458f600000000000000000000000000000000000000000000000000000000815273ffffffffffffffffffffffffffffffffffffffff909116600482015233602482015260440161054b565b600f80547fffffffffffffffffffffff00ffffffffffffffffffffffffffffffffffffffff8116740100000000000000000000000000000000000000009182900460ff1615909102179055565b60005473ffffffffffffffffffffffffffffffffffffffff163314610f35576000546040517f8ea458f600000000000000000000000000000000000000000000000000000000815273ffffffffffffffffffffffffffffffffffffffff909116600482015233602482015260440161054b565b600255565b60048160028110610f4a57600080fd5b0154905081565b60078160048110610f6157600080fd5b018054909150610f7090611638565b80601f0160208091040260200160405190810160405280929190818152602001828054610f9c90611638565b8015610fe95780601f10610fbe57610100808354040283529160200191610fe9565b820191906000526020600020905b815481529060010190602001808311610fcc57829003601f168201915b505050505081565b60005473ffffffffffffffffffffffffffffffffffffffff163314611064576000546040517f8ea458f600000000000000000000000000000000000000000000000000000000815273ffffffffffffffffffffffffffffffffffffffff909116600482015233602482015260440161054b565b600f80547fffffffffffffffffffffffff00000000000000000000000000000000000000001673ffffffffffffffffffffffffffffffffffffffff92909216919091179055565b60005473ffffffffffffffffffffffffffffffffffffffff16331461111e576000546040517f8ea458f600000000000000000000000000000000000000000000000000000000815273ffffffffffffffffffffffffffffffffffffffff909116600482015233602482015260440161054b565b6000805460405173ffffffffffffffffffffffffffffffffffffffff808516939216917f8be0079c531659141344cd1fd0a4f28419497f9722a3daafe3b4186f6b6457e091a3600080547fffffffffffffffffffffffff00000000000000000000000000000000000000001673ffffffffffffffffffffffffffffffffffffffff92909216919091179055565b8051600090819081905b808210156113a95760008583815181106111d1576111d1611609565b01602001517fff000000000000000000000000000000000000000000000000000000000000001690507f80000000000000000000000000000000000000000000000000000000000000008110156112345761122d600184611752565b9250611396565b7fe0000000000000000000000000000000000000000000000000000000000000007fff00000000000000000000000000000000000000000000000000000000000000821610156112895761122d600284611752565b7ff0000000000000000000000000000000000000000000000000000000000000007fff00000000000000000000000000000000000000000000000000000000000000821610156112de5761122d600384611752565b7ff8000000000000000000000000000000000000000000000000000000000000007fff00000000000000000000000000000000000000000000000000000000000000821610156113335761122d600484611752565b7ffc000000000000000000000000000000000000000000000000000000000000007fff00000000000000000000000000000000000000000000000000000000000000821610156113885761122d600584611752565b611393600684611752565b92505b50826113a181611787565b9350506111b5565b50909392505050565b6000805b600481101561144457836040516020016113d09190611714565b604051602081830303815290604052805190602001208382600481106113f8576113f8611609565b602002015160405160200161140d9190611714565b604051602081830303815290604052805190602001200361143257600191505061144a565b8061143c81611787565b9150506113b6565b50600090505b92915050565b7f4e487b7100000000000000000000000000000000000000000000000000000000600052604160045260246000fd5b6000806000806080858703121561149557600080fd5b843567ffffffffffffffff808211156114ad57600080fd5b818701915087601f8301126114c157600080fd5b8135818111156114d3576114d3611450565b604051601f8201601f19908116603f011681019083821181831017156114fb576114fb611450565b816040528281528a602084870101111561151457600080fd5b82602086016020830137600060209382018401529a91890135995050604088013597606001359650945050505050565b60006020828403121561155657600080fd5b5035919050565b60005b83811015611578578181015183820152602001611560565b50506000910152565b6000815180845261159981602086016020860161155d565b601f01601f19169290920160200192915050565b6020815260006115c06020830184611581565b9392505050565b73ffffffffffffffffffffffffffffffffffffffff811681146115e957600080fd5b50565b6000602082840312156115fe57600080fd5b81356115c0816115c7565b7f4e487b7100000000000000000000000000000000000000000000000000000000600052603260045260246000fd5b600181811c9082168061164c57607f821691505b602082108103611685577f4e487b7100000000000000000000000000000000000000000000000000000000600052602260045260246000fd5b50919050565b60006020828403121561169d57600080fd5b81516115c0816115c7565b7f4e487b7100000000000000000000000000000000000000000000000000000000600052601160045260246000fd5b6000817fffffffffffffffffffffffffffffffffffffffffffffffffffffffffffffffff048311821515161561170f5761170f6116a8565b500290565b6000825161172681846020870161155d565b9190910192915050565b60006020828403121561174257600080fd5b815180151581146115c057600080fd5b8082018082111561144a5761144a6116a8565b6040815260006117786040830185611581565b90508260208301529392505050565b60007fffffffffffffffffffffffffffffffffffffffffffffffffffffffffffffffff82036117b8576117b86116a8565b506001019056fea26469706673582212205fd41e3396c525d6f908aa06be4c4f5451f708a21f7585de5f248ab7e8142fc464736f6c63430008100033",
    "linkReferences": {}
  },
  "methodIdentifiers": {
    "BONDS()": "b4abea24",
    "Dev()": "01e51ae8",
    "HELIX2()": "b782426e",
    "NAMES()": "05e84aa0",
    "PRICES()": "1eabcd34",
    "active()": "02fb0c5e",
    "basePrice()": "c7876ea4",
    "bond()": "64c9ec6f",
    "defaultLifespan()": "0e6c0bdb",
    "defaultResolver()": "828eab0e",
    "illegalBlocks(uint256)": "80b29beb",
    "newBond(string,bytes32,bytes32,uint256)": "222dcf72",
    "owner()": "8da5cb5b",
    "roothash()": "251c9422",
    "setDefaultLifespan(uint256)": "39506308",
    "setDefaultResolver(address)": "c66485b2",
    "sizeLimit(uint256)": "769da4bb",
    "symbol()": "95d89b41",
    "toggleActive()": "29c68dc1",
    "transferOwnership(address)": "f2fde38b"
  },
  "id": 17
}