{
  "abi": [
    {
      "inputs": [
        {
          "internalType": "address",
          "name": "__registry",
          "type": "address"
        },
        {
          "internalType": "address",
          "name": "_registry",
          "type": "address"
        },
        {
          "internalType": "address",
          "name": "_helix2",
          "type": "address"
        }
      ],
      "stateMutability": "nonpayable",
      "type": "constructor"
    },
    {
      "inputs": [
        {
          "internalType": "address",
          "name": "_dev",
          "type": "address"
        },
        {
          "internalType": "address",
          "name": "_you",
          "type": "address"
        }
      ],
      "name": "OnlyDev",
      "type": "error"
    },
    {
      "anonymous": false,
      "inputs": [
        {
          "indexed": true,
          "internalType": "bytes32",
          "name": "bondhash",
          "type": "bytes32"
        },
        {
          "indexed": false,
          "internalType": "bytes32",
          "name": "cation",
          "type": "bytes32"
        }
      ],
      "name": "NewBond",
      "type": "event"
    },
    {
      "anonymous": false,
      "inputs": [
        {
          "indexed": false,
          "internalType": "address",
          "name": "Dev",
          "type": "address"
        },
        {
          "indexed": false,
          "internalType": "address",
          "name": "newDev",
          "type": "address"
        }
      ],
      "name": "NewDev",
      "type": "event"
    },
    {
      "inputs": [],
      "name": "BONDS",
      "outputs": [
        {
          "internalType": "contract iBOND",
          "name": "",
          "type": "address"
        }
      ],
      "stateMutability": "view",
      "type": "function"
    },
    {
      "inputs": [],
      "name": "Dev",
      "outputs": [
        {
          "internalType": "address",
          "name": "",
          "type": "address"
        }
      ],
      "stateMutability": "view",
      "type": "function"
    },
    {
      "inputs": [],
      "name": "HELIX2",
      "outputs": [
        {
          "internalType": "contract iHELIX2",
          "name": "",
          "type": "address"
        }
      ],
      "stateMutability": "view",
      "type": "function"
    },
    {
      "inputs": [],
      "name": "NAMES",
      "outputs": [
        {
          "internalType": "contract iNAME",
          "name": "",
          "type": "address"
        }
      ],
      "stateMutability": "view",
      "type": "function"
    },
    {
      "inputs": [],
      "name": "active",
      "outputs": [
        {
          "internalType": "bool",
          "name": "",
          "type": "bool"
        }
      ],
      "stateMutability": "view",
      "type": "function"
    },
    {
      "inputs": [],
      "name": "basePrice",
      "outputs": [
        {
          "internalType": "uint256",
          "name": "",
          "type": "uint256"
        }
      ],
      "stateMutability": "view",
      "type": "function"
    },
    {
      "inputs": [],
      "name": "bond",
      "outputs": [
        {
          "internalType": "string",
          "name": "",
          "type": "string"
        }
      ],
      "stateMutability": "view",
      "type": "function"
    },
    {
      "inputs": [
        {
          "internalType": "address",
          "name": "newDev",
          "type": "address"
        }
      ],
      "name": "changeDev",
      "outputs": [],
      "stateMutability": "nonpayable",
      "type": "function"
    },
    {
      "inputs": [],
      "name": "defaultLifespan",
      "outputs": [
        {
          "internalType": "uint256",
          "name": "",
          "type": "uint256"
        }
      ],
      "stateMutability": "view",
      "type": "function"
    },
    {
      "inputs": [],
      "name": "defaultResolver",
      "outputs": [
        {
          "internalType": "address",
          "name": "",
          "type": "address"
        }
      ],
      "stateMutability": "view",
      "type": "function"
    },
    {
      "inputs": [
        {
          "internalType": "uint256",
          "name": "",
          "type": "uint256"
        }
      ],
      "name": "illegalBlocks",
      "outputs": [
        {
          "internalType": "string",
          "name": "",
          "type": "string"
        }
      ],
      "stateMutability": "view",
      "type": "function"
    },
    {
      "inputs": [
        {
          "internalType": "string",
          "name": "_alias",
          "type": "string"
        },
        {
          "internalType": "bytes32",
          "name": "cation",
          "type": "bytes32"
        },
        {
          "internalType": "bytes32",
          "name": "anion",
          "type": "bytes32"
        },
        {
          "internalType": "uint256",
          "name": "lifespan",
          "type": "uint256"
        }
      ],
      "name": "newBond",
      "outputs": [
        {
          "internalType": "bytes32",
          "name": "",
          "type": "bytes32"
        }
      ],
      "stateMutability": "payable",
      "type": "function"
    },
    {
      "inputs": [],
      "name": "roothash",
      "outputs": [
        {
          "internalType": "bytes32",
          "name": "",
          "type": "bytes32"
        }
      ],
      "stateMutability": "view",
      "type": "function"
    },
    {
      "inputs": [
        {
          "internalType": "uint256",
          "name": "_lifespan",
          "type": "uint256"
        }
      ],
      "name": "setDefaultLifespan",
      "outputs": [],
      "stateMutability": "nonpayable",
      "type": "function"
    },
    {
      "inputs": [
        {
          "internalType": "address",
          "name": "_resolver",
          "type": "address"
        }
      ],
      "name": "setDefaultResolver",
      "outputs": [],
      "stateMutability": "nonpayable",
      "type": "function"
    },
    {
      "inputs": [],
      "name": "sizeLimit",
      "outputs": [
        {
          "internalType": "uint256",
          "name": "",
          "type": "uint256"
        }
      ],
      "stateMutability": "view",
      "type": "function"
    },
    {
      "inputs": [],
      "name": "symbol",
      "outputs": [
        {
          "internalType": "string",
          "name": "",
          "type": "string"
        }
      ],
      "stateMutability": "view",
      "type": "function"
    }
  ],
  "bytecode": {
    "object": "0x6080604052600d805460ff60a01b1916600160a01b1790553480156200002457600080fd5b5060405162001b9d38038062001b9d8339810160408190526200004791620003e5565b600a80546001600160a01b038084166001600160a01b03199283168117909355600b8054868316908416179055600c8054918716919092161790556040805163bd9a548b60e01b8152905163bd9a548b916004808201926080929091908290030181865afa158015620000be573d6000803e3d6000fd5b505050506040513d601f19601f82011682018060405250810190620000e49190620004a3565b60200151600355600a546040805163335076e760e11b815290516001600160a01b03909216916366a0edce916004808201926080929091908290030181865afa15801562000136573d6000803e3d6000fd5b505050506040513d601f19601f820116820180604052508101906200015c9190620004a3565b602001516004908155600a5460408051637615671560e11b815290516001600160a01b039092169263ec2ace2a9282820192608092908290030181865afa158015620001ac573d6000803e3d6000fd5b505050506040513d601f19601f82011682018060405250810190620001d29190620004a3565b60200151600255600a54604080516330b5337f60e21b815290516001600160a01b039092169163c2d4cdfc916004808201926000929091908290030181865afa15801562000224573d6000803e3d6000fd5b505050506040513d6000823e601f3d908101601f191682016040526200024e91908101906200050a565b6200025e906006906004620002fe565b50600a60009054906101000a90046001600160a01b03166001600160a01b031663642a8ed66040518163ffffffff1660e01b8152600401608060405180830381865afa158015620002b3573d6000803e3d6000fd5b505050506040513d601f19601f82011682018060405250810190620002d99190620004a3565b600160200201516005555050600080546001600160a01b03191633179055506200077a565b82600481019282156200033c579160200282015b828111156200033c57825182906200032b9082620006ae565b509160200191906001019062000312565b506200034a9291506200034e565b5090565b808211156200034a5760006200036582826200036f565b506001016200034e565b5080546200037d906200061f565b6000825580601f106200038e575050565b601f016020900490600052602060002090810190620003ae9190620003b1565b50565b5b808211156200034a5760008155600101620003b2565b80516001600160a01b0381168114620003e057600080fd5b919050565b600080600060608486031215620003fb57600080fd5b6200040684620003c8565b92506200041660208501620003c8565b91506200042660408501620003c8565b90509250925092565b634e487b7160e01b600052604160045260246000fd5b604051608081016001600160401b03811182821017156200046a576200046a6200042f565b60405290565b604051601f8201601f191681016001600160401b03811182821017156200049b576200049b6200042f565b604052919050565b600060808284031215620004b657600080fd5b82601f830112620004c657600080fd5b620004d062000445565b806080840185811115620004e357600080fd5b845b81811015620004ff578051845260209384019301620004e5565b509095945050505050565b600060208083850312156200051e57600080fd5b82516001600160401b03808211156200053657600080fd5b8185019150601f86818401126200054c57600080fd5b6200055662000445565b8060808501898111156200056957600080fd5b855b818110156200061057805186811115620005855760008081fd5b87018581018c13620005975760008081fd5b805187811115620005ac57620005ac6200042f565b620005bf818801601f19168b0162000470565b8181528d8b838501011115620005d55760008081fd5b60005b82811015620005f5578381018c01518282018d01528b01620005d8565b5060009181018b01919091528552509287019287016200056b565b50909998505050505050505050565b600181811c908216806200063457607f821691505b6020821081036200065557634e487b7160e01b600052602260045260246000fd5b50919050565b601f821115620006a957600081815260208120601f850160051c81016020861015620006845750805b601f850160051c820191505b81811015620006a55782815560010162000690565b5050505b505050565b81516001600160401b03811115620006ca57620006ca6200042f565b620006e281620006db84546200061f565b846200065b565b602080601f8311600181146200071a5760008415620007015750858301515b600019600386901b1c1916600185901b178555620006a5565b600085815260208120601f198616915b828110156200074b578886015182559484019460019091019084016200072a565b50858210156200076a5787850151600019600388901b60f8161c191681555b5050505050600190811b01905550565b611413806200078a6000396000f3fe60806040526004361061010e5760003560e01c806364c9ec6f116100a557806395d89b4111610074578063b782426e11610059578063b782426e14610397578063c66485b2146103c4578063c7876ea4146103e457600080fd5b806395d89b4114610321578063b4abea241461036a57600080fd5b806364c9ec6f1461025e57806380b29beb146102b4578063828eab0e146102d457806388a8c95c1461030157600080fd5b8063210fd271116100e1578063210fd271146101fd578063222dcf7214610213578063251c942214610226578063395063081461023c57600080fd5b806301e51ae81461011357806302fb0c5e1461016a57806305e84aa0146101ac5780630e6c0bdb146101d9575b600080fd5b34801561011f57600080fd5b506000546101409073ffffffffffffffffffffffffffffffffffffffff1681565b60405173ffffffffffffffffffffffffffffffffffffffff90911681526020015b60405180910390f35b34801561017657600080fd5b50600d5461019c9074010000000000000000000000000000000000000000900460ff1681565b6040519015158152602001610161565b3480156101b857600080fd5b50600b546101409073ffffffffffffffffffffffffffffffffffffffff1681565b3480156101e557600080fd5b506101ef60025481565b604051908152602001610161565b34801561020957600080fd5b506101ef60045481565b6101ef610221366004610ff2565b6103fa565b34801561023257600080fd5b506101ef60055481565b34801561024857600080fd5b5061025c6102573660046110b7565b610ce3565b005b34801561026a57600080fd5b506102a76040518060400160405280601381526020017f48656c69783220426f6e6420536572766963650000000000000000000000000081525081565b6040516101619190611120565b3480156102c057600080fd5b506102a76102cf3660046110b7565b610d5b565b3480156102e057600080fd5b50600d546101409073ffffffffffffffffffffffffffffffffffffffff1681565b34801561030d57600080fd5b5061025c61031c36600461115f565b610dfb565b34801561032d57600080fd5b506102a76040518060400160405280600381526020017f484253000000000000000000000000000000000000000000000000000000000081525081565b34801561037657600080fd5b50600c546101409073ffffffffffffffffffffffffffffffffffffffff1681565b3480156103a357600080fd5b50600a546101409073ffffffffffffffffffffffffffffffffffffffff1681565b3480156103d057600080fd5b5061025c6103df36600461115f565b610f09565b3480156103f057600080fd5b506101ef60035481565b60008460045481511061046e576040517f08c379a000000000000000000000000000000000000000000000000000000000815260206004820152600d60248201527f494c4c4547414c5f4c4142454c0000000000000000000000000000000000000060448201526064015b60405180910390fd5b6040517fa6470fd600000000000000000000000000000000000000000000000000000000815273__$47e4ffaaf323c41735ff299f8946896ce0$__9063a6470fd6906104c19084906006906004016111cf565b602060405180830381865af41580156104de573d6000803e3d6000fd5b505050506040513d601f19601f8201168201806040525081019061050291906112fd565b15610569576040517f08c379a000000000000000000000000000000000000000000000000000000000815260206004820152600d60248201527f494c4c4547414c5f4348415253000000000000000000000000000000000000006044820152606401610465565b600b546040517f02571be30000000000000000000000000000000000000000000000000000000081526004810187905260009173ffffffffffffffffffffffffffffffffffffffff16906302571be390602401602060405180830381865afa1580156105d9573d6000803e3d6000fd5b505050506040513d601f19601f820116820180604052508101906105fd919061131f565b905060025484101561066b576040517f08c379a000000000000000000000000000000000000000000000000000000000815260206004820152601260248201527f4c4946455350414e5f544f4f5f53484f525400000000000000000000000000006044820152606401610465565b83600354610679919061136b565b3410156106e2576040517f08c379a000000000000000000000000000000000000000000000000000000000815260206004820152601260248201527f494e53554646494349454e545f455448455200000000000000000000000000006044820152606401610465565b6000876040516020016106f591906113a8565b60408051601f1981840301815282825280516020918201206005549184018b90529183015260608201819052915060009060800160408051808303601f19018152908290528051602090910120600c547ff79fe5380000000000000000000000000000000000000000000000000000000083526004830182905290925073ffffffffffffffffffffffffffffffffffffffff169063f79fe53890602401602060405180830381865afa1580156107af573d6000803e3d6000fd5b505050506040513d601f19601f820116820180604052508101906107d391906112fd565b1561083a576040517f08c379a000000000000000000000000000000000000000000000000000000000815260206004820152600b60248201527f424f4e445f4558495354530000000000000000000000000000000000000000006044820152606401610465565b600c546040517f2f92673200000000000000000000000000000000000000000000000000000000815260048101839052602481018a905273ffffffffffffffffffffffffffffffffffffffff90911690632f92673290604401600060405180830381600087803b1580156108ad57600080fd5b505af11580156108c1573d6000803e3d6000fd5b5050600c546040517fa3be52a200000000000000000000000000000000000000000000000000000000815260048101859052602481018b905273ffffffffffffffffffffffffffffffffffffffff909116925063a3be52a29150604401600060405180830381600087803b15801561093857600080fd5b505af115801561094c573d6000803e3d6000fd5b5050600c5473ffffffffffffffffffffffffffffffffffffffff1691506339de646990508261097b89426113c4565b6040517fffffffff0000000000000000000000000000000000000000000000000000000060e085901b16815260048101929092526024820152604401600060405180830381600087803b1580156109d157600080fd5b505af11580156109e5573d6000803e3d6000fd5b5050600c546040517fd31569050000000000000000000000000000000000000000000000000000000081526004810185905273ffffffffffffffffffffffffffffffffffffffff8781166024830152909116925063d31569059150604401600060405180830381600087803b158015610a5d57600080fd5b505af1158015610a71573d6000803e3d6000fd5b5050600c54600d546040517f1896f70a0000000000000000000000000000000000000000000000000000000081526004810186905273ffffffffffffffffffffffffffffffffffffffff918216602482015291169250631896f70a9150604401600060405180830381600087803b158015610aeb57600080fd5b505af1158015610aff573d6000803e3d6000fd5b5050600c546040517f1f06e91c000000000000000000000000000000000000000000000000000000008152600481018590526024810186905273ffffffffffffffffffffffffffffffffffffffff9091169250631f06e91c9150604401600060405180830381600087803b158015610b7657600080fd5b505af1158015610b8a573d6000803e3d6000fd5b5050600c546040517fd07699aa000000000000000000000000000000000000000000000000000000008152600481018590526000602482015273ffffffffffffffffffffffffffffffffffffffff909116925063d07699aa9150604401600060405180830381600087803b158015610c0157600080fd5b505af1158015610c15573d6000803e3d6000fd5b5050600c546040517f21ec2b5b0000000000000000000000000000000000000000000000000000000081526004810185905273ffffffffffffffffffffffffffffffffffffffff90911692506321ec2b5b9150602401600060405180830381600087803b158015610c8557600080fd5b505af1158015610c99573d6000803e3d6000fd5b50505050807f83b933ae5067371fb6246d78f0c57549a6f46923196d7537844c75e24bdaaf3489604051610ccf91815260200190565b60405180910390a298975050505050505050565b60005473ffffffffffffffffffffffffffffffffffffffff163314610d56576000546040517f8ea458f600000000000000000000000000000000000000000000000000000000815273ffffffffffffffffffffffffffffffffffffffff9091166004820152336024820152604401610465565b600255565b60068160048110610d6b57600080fd5b018054909150610d7a9061117c565b80601f0160208091040260200160405190810160405280929190818152602001828054610da69061117c565b8015610df35780601f10610dc857610100808354040283529160200191610df3565b820191906000526020600020905b815481529060010190602001808311610dd657829003601f168201915b505050505081565b60005473ffffffffffffffffffffffffffffffffffffffff163314610e6e576000546040517f8ea458f600000000000000000000000000000000000000000000000000000000815273ffffffffffffffffffffffffffffffffffffffff9091166004820152336024820152604401610465565b6000546040805173ffffffffffffffffffffffffffffffffffffffff928316815291831660208301527fdec101f106d4fc7c85791843e64b198248c822298e3ed7046231d33f7783d816910160405180910390a1600080547fffffffffffffffffffffffff00000000000000000000000000000000000000001673ffffffffffffffffffffffffffffffffffffffff92909216919091179055565b60005473ffffffffffffffffffffffffffffffffffffffff163314610f7c576000546040517f8ea458f600000000000000000000000000000000000000000000000000000000815273ffffffffffffffffffffffffffffffffffffffff9091166004820152336024820152604401610465565b600d80547fffffffffffffffffffffffff00000000000000000000000000000000000000001673ffffffffffffffffffffffffffffffffffffffff92909216919091179055565b7f4e487b7100000000000000000000000000000000000000000000000000000000600052604160045260246000fd5b6000806000806080858703121561100857600080fd5b843567ffffffffffffffff8082111561102057600080fd5b818701915087601f83011261103457600080fd5b81358181111561104657611046610fc3565b604051601f8201601f19908116603f0116810190838211818310171561106e5761106e610fc3565b816040528281528a602084870101111561108757600080fd5b82602086016020830137600060209382018401529a91890135995050604088013597606001359650945050505050565b6000602082840312156110c957600080fd5b5035919050565b60005b838110156110eb5781810151838201526020016110d3565b50506000910152565b6000815180845261110c8160208601602086016110d0565b601f01601f19169290920160200192915050565b60208152600061113360208301846110f4565b9392505050565b73ffffffffffffffffffffffffffffffffffffffff8116811461115c57600080fd5b50565b60006020828403121561117157600080fd5b81356111338161113a565b600181811c9082168061119057607f821691505b6020821081036111c9577f4e487b7100000000000000000000000000000000000000000000000000000000600052602260045260246000fd5b50919050565b6040815260006111e260408301856110f4565b60208382038185015281829050608083018660005b600480821061120657506112ef565b86840385528254600090600181811c908083168061122557607f831692505b8a8310810361125a577f4e487b7100000000000000000000000000000000000000000000000000000000855260228652602485fd5b82895260208901955080801561127757600181146112ab576112d6565b7fffffffffffffffffffffffffffffffffffffffffffffffffffffffffffffff008516875283151560051b870195506112d6565b60008981526020902060005b858110156112d057815489820152908401908d016112b7565b88019650505b50509789019792965050509290920191506001016111f7565b509098975050505050505050565b60006020828403121561130f57600080fd5b8151801515811461113357600080fd5b60006020828403121561133157600080fd5b81516111338161113a565b7f4e487b7100000000000000000000000000000000000000000000000000000000600052601160045260246000fd5b6000817fffffffffffffffffffffffffffffffffffffffffffffffffffffffffffffffff04831182151516156113a3576113a361133c565b500290565b600082516113ba8184602087016110d0565b9190910192915050565b808201808211156113d7576113d761133c565b9291505056fea264697066735822122005cafae4900c1869cc699a264dfbdadfd97ce7a43c264e84fa7306be20a079d564736f6c63430008100033",
    "linkReferences": {
      "src/Utils/LibString.sol": {
        "LibString": [
          {
            "start": 3104,
            "length": 20
          }
        ]
      }
    }
  },
  "methodIdentifiers": {
    "BONDS()": "b4abea24",
    "Dev()": "01e51ae8",
    "HELIX2()": "b782426e",
    "NAMES()": "05e84aa0",
    "active()": "02fb0c5e",
    "basePrice()": "c7876ea4",
    "bond()": "64c9ec6f",
    "changeDev(address)": "88a8c95c",
    "defaultLifespan()": "0e6c0bdb",
    "defaultResolver()": "828eab0e",
    "illegalBlocks(uint256)": "80b29beb",
    "newBond(string,bytes32,bytes32,uint256)": "222dcf72",
    "roothash()": "251c9422",
    "setDefaultLifespan(uint256)": "39506308",
    "setDefaultResolver(address)": "c66485b2",
    "sizeLimit()": "210fd271",
    "symbol()": "95d89b41"
  },
  "id": 16
}