{
  "abi": [
    {
      "inputs": [
        {
          "internalType": "address",
          "name": "_registry",
          "type": "address"
        }
      ],
      "stateMutability": "nonpayable",
      "type": "constructor"
    },
    {
      "inputs": [],
      "name": "CannotBurn",
      "type": "error"
    },
    {
      "inputs": [
        {
          "internalType": "address",
          "name": "to",
          "type": "address"
        }
      ],
      "name": "ERC721IncompatibleReceiver",
      "type": "error"
    },
    {
      "inputs": [
        {
          "internalType": "address",
          "name": "_dev",
          "type": "address"
        },
        {
          "internalType": "address",
          "name": "_you",
          "type": "address"
        }
      ],
      "name": "OnlyDev",
      "type": "error"
    },
    {
      "inputs": [
        {
          "internalType": "address",
          "name": "operator",
          "type": "address"
        },
        {
          "internalType": "address",
          "name": "owner",
          "type": "address"
        },
        {
          "internalType": "uint256",
          "name": "tokenID",
          "type": "uint256"
        }
      ],
      "name": "Unauthorized",
      "type": "error"
    },
    {
      "anonymous": false,
      "inputs": [
        {
          "indexed": true,
          "internalType": "address",
          "name": "owner",
          "type": "address"
        },
        {
          "indexed": true,
          "internalType": "address",
          "name": "spender",
          "type": "address"
        },
        {
          "indexed": true,
          "internalType": "uint256",
          "name": "tokenID",
          "type": "uint256"
        }
      ],
      "name": "Approval",
      "type": "event"
    },
    {
      "anonymous": false,
      "inputs": [
        {
          "indexed": true,
          "internalType": "address",
          "name": "owner",
          "type": "address"
        },
        {
          "indexed": true,
          "internalType": "address",
          "name": "operator",
          "type": "address"
        },
        {
          "indexed": false,
          "internalType": "bool",
          "name": "approved",
          "type": "bool"
        }
      ],
      "name": "ApprovalForAll",
      "type": "event"
    },
    {
      "anonymous": false,
      "inputs": [
        {
          "indexed": true,
          "internalType": "bytes32",
          "name": "namehash",
          "type": "bytes32"
        },
        {
          "indexed": false,
          "internalType": "address",
          "name": "controller",
          "type": "address"
        }
      ],
      "name": "NewController",
      "type": "event"
    },
    {
      "anonymous": false,
      "inputs": [
        {
          "indexed": false,
          "internalType": "address",
          "name": "Dev",
          "type": "address"
        },
        {
          "indexed": false,
          "internalType": "address",
          "name": "newDev",
          "type": "address"
        }
      ],
      "name": "NewDev",
      "type": "event"
    },
    {
      "anonymous": false,
      "inputs": [
        {
          "indexed": true,
          "internalType": "bytes32",
          "name": "namehash",
          "type": "bytes32"
        },
        {
          "indexed": false,
          "internalType": "uint256",
          "name": "expiry",
          "type": "uint256"
        }
      ],
      "name": "NewExpiry",
      "type": "event"
    },
    {
      "anonymous": false,
      "inputs": [
        {
          "indexed": true,
          "internalType": "bytes32",
          "name": "namehash",
          "type": "bytes32"
        },
        {
          "indexed": false,
          "internalType": "address",
          "name": "owner",
          "type": "address"
        }
      ],
      "name": "NewName",
      "type": "event"
    },
    {
      "anonymous": false,
      "inputs": [
        {
          "indexed": true,
          "internalType": "bytes32",
          "name": "namehash",
          "type": "bytes32"
        },
        {
          "indexed": false,
          "internalType": "address",
          "name": "owner",
          "type": "address"
        }
      ],
      "name": "NewOwner",
      "type": "event"
    },
    {
      "anonymous": false,
      "inputs": [
        {
          "indexed": true,
          "internalType": "bytes32",
          "name": "namehash",
          "type": "bytes32"
        },
        {
          "indexed": false,
          "internalType": "address",
          "name": "resolver",
          "type": "address"
        }
      ],
      "name": "NewRecord",
      "type": "event"
    },
    {
      "anonymous": false,
      "inputs": [
        {
          "indexed": true,
          "internalType": "bytes32",
          "name": "namehash",
          "type": "bytes32"
        },
        {
          "indexed": false,
          "internalType": "address",
          "name": "resolver",
          "type": "address"
        }
      ],
      "name": "NewResolver",
      "type": "event"
    },
    {
      "anonymous": false,
      "inputs": [
        {
          "indexed": true,
          "internalType": "address",
          "name": "from",
          "type": "address"
        },
        {
          "indexed": true,
          "internalType": "address",
          "name": "to",
          "type": "address"
        },
        {
          "indexed": true,
          "internalType": "uint256",
          "name": "tokenID",
          "type": "uint256"
        }
      ],
      "name": "Transfer",
      "type": "event"
    },
    {
      "stateMutability": "payable",
      "type": "fallback"
    },
    {
      "inputs": [],
      "name": "Dev",
      "outputs": [
        {
          "internalType": "address",
          "name": "",
          "type": "address"
        }
      ],
      "stateMutability": "view",
      "type": "function"
    },
    {
      "inputs": [],
      "name": "NAMES",
      "outputs": [
        {
          "internalType": "contract iNAME",
          "name": "",
          "type": "address"
        }
      ],
      "stateMutability": "view",
      "type": "function"
    },
    {
      "inputs": [
        {
          "internalType": "uint256",
          "name": "",
          "type": "uint256"
        }
      ],
      "name": "_approved",
      "outputs": [
        {
          "internalType": "address",
          "name": "",
          "type": "address"
        }
      ],
      "stateMutability": "view",
      "type": "function"
    },
    {
      "inputs": [],
      "name": "active",
      "outputs": [
        {
          "internalType": "bool",
          "name": "",
          "type": "bool"
        }
      ],
      "stateMutability": "view",
      "type": "function"
    },
    {
      "inputs": [
        {
          "internalType": "address",
          "name": "controller",
          "type": "address"
        },
        {
          "internalType": "uint256",
          "name": "tokenID",
          "type": "uint256"
        }
      ],
      "name": "approve",
      "outputs": [],
      "stateMutability": "payable",
      "type": "function"
    },
    {
      "inputs": [
        {
          "internalType": "address",
          "name": "wallet",
          "type": "address"
        }
      ],
      "name": "balanceOf",
      "outputs": [
        {
          "internalType": "uint256",
          "name": "",
          "type": "uint256"
        }
      ],
      "stateMutability": "view",
      "type": "function"
    },
    {
      "inputs": [
        {
          "internalType": "address",
          "name": "newDev",
          "type": "address"
        }
      ],
      "name": "changeDev",
      "outputs": [],
      "stateMutability": "nonpayable",
      "type": "function"
    },
    {
      "inputs": [],
      "name": "defaultLifespan",
      "outputs": [
        {
          "internalType": "uint256",
          "name": "",
          "type": "uint256"
        }
      ],
      "stateMutability": "view",
      "type": "function"
    },
    {
      "inputs": [],
      "name": "defaultResolver",
      "outputs": [
        {
          "internalType": "address",
          "name": "",
          "type": "address"
        }
      ],
      "stateMutability": "view",
      "type": "function"
    },
    {
      "inputs": [],
      "name": "ensRegistry",
      "outputs": [
        {
          "internalType": "address",
          "name": "",
          "type": "address"
        }
      ],
      "stateMutability": "view",
      "type": "function"
    },
    {
      "inputs": [
        {
          "internalType": "uint256",
          "name": "",
          "type": "uint256"
        }
      ],
      "name": "helix2Registry",
      "outputs": [
        {
          "internalType": "address",
          "name": "",
          "type": "address"
        }
      ],
      "stateMutability": "view",
      "type": "function"
    },
    {
      "inputs": [
        {
          "internalType": "uint256",
          "name": "",
          "type": "uint256"
        }
      ],
      "name": "illegal",
      "outputs": [
        {
          "internalType": "string",
          "name": "",
          "type": "string"
        }
      ],
      "stateMutability": "view",
      "type": "function"
    },
    {
      "inputs": [
        {
          "internalType": "address",
          "name": "",
          "type": "address"
        },
        {
          "internalType": "address",
          "name": "",
          "type": "address"
        }
      ],
      "name": "isApprovedForAll",
      "outputs": [
        {
          "internalType": "bool",
          "name": "",
          "type": "bool"
        }
      ],
      "stateMutability": "view",
      "type": "function"
    },
    {
      "inputs": [],
      "name": "isDev",
      "outputs": [
        {
          "internalType": "address",
          "name": "",
          "type": "address"
        }
      ],
      "stateMutability": "view",
      "type": "function"
    },
    {
      "inputs": [],
      "name": "name",
      "outputs": [
        {
          "internalType": "string",
          "name": "",
          "type": "string"
        }
      ],
      "stateMutability": "view",
      "type": "function"
    },
    {
      "inputs": [
        {
          "internalType": "string",
          "name": "label",
          "type": "string"
        },
        {
          "internalType": "address",
          "name": "owner",
          "type": "address"
        },
        {
          "internalType": "uint256",
          "name": "lifespan",
          "type": "uint256"
        }
      ],
      "name": "newName",
      "outputs": [
        {
          "internalType": "bytes32",
          "name": "",
          "type": "bytes32"
        }
      ],
      "stateMutability": "nonpayable",
      "type": "function"
    },
    {
      "inputs": [
        {
          "internalType": "uint256",
          "name": "tokenID",
          "type": "uint256"
        }
      ],
      "name": "ownerOf",
      "outputs": [
        {
          "internalType": "address",
          "name": "",
          "type": "address"
        }
      ],
      "stateMutability": "view",
      "type": "function"
    },
    {
      "inputs": [
        {
          "internalType": "uint256",
          "name": "",
          "type": "uint256"
        }
      ],
      "name": "roothash",
      "outputs": [
        {
          "internalType": "bytes32",
          "name": "",
          "type": "bytes32"
        }
      ],
      "stateMutability": "view",
      "type": "function"
    },
    {
      "inputs": [
        {
          "internalType": "address",
          "name": "from",
          "type": "address"
        },
        {
          "internalType": "address",
          "name": "to",
          "type": "address"
        },
        {
          "internalType": "uint256",
          "name": "tokenID",
          "type": "uint256"
        }
      ],
      "name": "safeTransferFrom",
      "outputs": [],
      "stateMutability": "payable",
      "type": "function"
    },
    {
      "inputs": [
        {
          "internalType": "address",
          "name": "from",
          "type": "address"
        },
        {
          "internalType": "address",
          "name": "to",
          "type": "address"
        },
        {
          "internalType": "uint256",
          "name": "tokenID",
          "type": "uint256"
        },
        {
          "internalType": "bytes",
          "name": "data",
          "type": "bytes"
        }
      ],
      "name": "safeTransferFrom",
      "outputs": [],
      "stateMutability": "payable",
      "type": "function"
    },
    {
      "inputs": [
        {
          "internalType": "address",
          "name": "controller",
          "type": "address"
        },
        {
          "internalType": "bool",
          "name": "flag",
          "type": "bool"
        }
      ],
      "name": "setApprovalForAll",
      "outputs": [],
      "stateMutability": "payable",
      "type": "function"
    },
    {
      "inputs": [
        {
          "internalType": "uint256",
          "name": "_lifespan",
          "type": "uint256"
        }
      ],
      "name": "setDefaultLifespan",
      "outputs": [],
      "stateMutability": "nonpayable",
      "type": "function"
    },
    {
      "inputs": [
        {
          "internalType": "address",
          "name": "_resolver",
          "type": "address"
        }
      ],
      "name": "setDefaultResolver",
      "outputs": [],
      "stateMutability": "nonpayable",
      "type": "function"
    },
    {
      "inputs": [
        {
          "internalType": "bytes4",
          "name": "sig",
          "type": "bytes4"
        },
        {
          "internalType": "bool",
          "name": "value",
          "type": "bool"
        }
      ],
      "name": "setInterface",
      "outputs": [],
      "stateMutability": "payable",
      "type": "function"
    },
    {
      "inputs": [
        {
          "internalType": "bytes4",
          "name": "",
          "type": "bytes4"
        }
      ],
      "name": "supportsInterface",
      "outputs": [
        {
          "internalType": "bool",
          "name": "",
          "type": "bool"
        }
      ],
      "stateMutability": "view",
      "type": "function"
    },
    {
      "inputs": [],
      "name": "symbol",
      "outputs": [
        {
          "internalType": "string",
          "name": "",
          "type": "string"
        }
      ],
      "stateMutability": "view",
      "type": "function"
    },
    {
      "inputs": [
        {
          "internalType": "address",
          "name": "from",
          "type": "address"
        },
        {
          "internalType": "address",
          "name": "to",
          "type": "address"
        },
        {
          "internalType": "uint256",
          "name": "tokenID",
          "type": "uint256"
        }
      ],
      "name": "transferFrom",
      "outputs": [],
      "stateMutability": "payable",
      "type": "function"
    },
    {
      "inputs": [],
      "name": "withdrawEther",
      "outputs": [],
      "stateMutability": "payable",
      "type": "function"
    },
    {
      "inputs": [
        {
          "internalType": "address",
          "name": "token",
          "type": "address"
        }
      ],
      "name": "withdrawToken",
      "outputs": [],
      "stateMutability": "payable",
      "type": "function"
    },
    {
      "stateMutability": "payable",
      "type": "receive"
    }
  ],
  "bytecode": {
    "object": "0x6001610100818152601760f91b610120526080908152610140828152603f60f81b6101605260a052610180828152602160f81b6101a05260c0526102006040526101c0828152602360f81b6101e05260e0526200005f9190600462000305565b5060408051608081018252600060a082018190527f6f010af653ebe3cb07d297a4ef13366103d392ceffa68dd48232e6e9ff2187bf60c0808401919091528351808403909101815260e0830184528051602091820120835283518082018390527f5f179612d7132c8ed24ba0e286d60d398c4aa1c234eb2274ca1bba47718e9d3181860152845180820386018152606091820186528051908301208285015284518083018490527f3275a893b2c93461554cf2a4dd7f413d56decdd6f3fdf0589dbb8bc4fd742386818701528551808203870181529082018652805190830120848601528451808301939093527face738c68088218d015fbdce138f062893d86818ac98932f7ce2907c5976fbde838601528451808403860181529281019094528151910120918101919091526200019c90600590600462000355565b50600980546001600160a01b0319166e0c2e074ec69a0dfb2997ba6c7d2e1e179055604080516080810182526001815260026020820152600391810191909152600460608201819052620001f391600a9162000394565b50600e805460ff191660011790556401cf7c58006015553480156200021757600080fd5b5060405162002598380380620025988339810160408190526200023a9162000459565b60008054600f6020527f3aa969a5e869ecc16e89c97c89e3207c7759edfb538969e312931204fe7a785e8054600160ff1991821681179092557f76407abb02557ed7bf5e7c01febb21800b7b5cc64fc1d01186117505303ed5b98054821683179055635b5e139f60e01b84527f3a43fb1441ba21032a6ba1c23a30c0e4262c1302ac7b621eb741d42a1347074780549091169091179055601680546001600160a01b03199081166001600160a01b0395909516949094179055821633928316179091179055620005fc565b826004810192821562000343579160200282015b8281111562000343578251829062000332908262000530565b509160200191906001019062000319565b5062000351929150620003df565b5090565b826004810192821562000386579160200282015b828111156200038657825182559160200191906001019062000369565b506200035192915062000400565b826004810192821562000386579160200282015b828111156200038657825182546001600160a01b0319166001600160a01b03909116178255602090920191600190910190620003a8565b8082111562000351576000620003f6828262000417565b50600101620003df565b5b8082111562000351576000815560010162000401565b5080546200042590620004a1565b6000825580601f1062000436575050565b601f01602090049060005260206000209081019062000456919062000400565b50565b6000602082840312156200046c57600080fd5b81516001600160a01b03811681146200048457600080fd5b9392505050565b634e487b7160e01b600052604160045260246000fd5b600181811c90821680620004b657607f821691505b602082108103620004d757634e487b7160e01b600052602260045260246000fd5b50919050565b601f8211156200052b57600081815260208120601f850160051c81016020861015620005065750805b601f850160051c820191505b81811015620005275782815560010162000512565b5050505b505050565b81516001600160401b038111156200054c576200054c6200048b565b62000564816200055d8454620004a1565b84620004dd565b602080601f8311600181146200059c5760008415620005835750858301515b600019600386901b1c1916600185901b17855562000527565b600085815260208120601f198616915b82811015620005cd57888601518255948401946001909101908401620005ac565b5085821015620005ec5787850151600019600388901b60f8161c191681555b5050505050600190811b01905550565b611f8c806200060c6000396000f3fe6080604052600436106101c65760003560e01c80637d73b231116100f75780639024d28211610095578063c0a43a7c11610064578063c0a43a7c1461052e578063c66485b214610541578063e985e9c514610561578063f079914f1461059c57600080fd5b80639024d2821461048957806395d89b41146104bf578063a22cb46514610508578063b88d4fde1461051b57600080fd5b8063828eab0e116100d1578063828eab0e1461041657806388a8c95c1461043657806389476069146104565780638dfcb1c71461046957600080fd5b80637d73b231146103b65780637e49c892146103d65780637f9348aa146103f657600080fd5b806323b872dd116101645780636352211e1161013e5780636352211e1461034e57806370a082311461036e57806370dec5f01461038e5780637362377b146103ae57600080fd5b806323b872dd1461031b578063395063081461032e57806342842e0e1461031b57600080fd5b806305e84aa0116101a057806305e84aa01461026c57806306fdde031461028c578063095ea7b3146102e25780630e6c0bdb146102f757600080fd5b806301e51ae8146101d557806301ffc9a71461021257806302fb0c5e1461025257600080fd5b366101d057600080fd5b600080fd5b3480156101e157600080fd5b506000546101f5906001600160a01b031681565b6040516001600160a01b0390911681526020015b60405180910390f35b34801561021e57600080fd5b5061024261022d36600461193d565b600f6020526000908152604090205460ff1681565b6040519015158152602001610209565b34801561025e57600080fd5b50600e546102429060ff1681565b34801561027857600080fd5b506016546101f5906001600160a01b031681565b34801561029857600080fd5b506102d56040518060400160405280601381526020017f48656c697832204e616d6520536572766963650000000000000000000000000081525081565b60405161020991906119c5565b6102f56102f03660046119ed565b6105ba565b005b34801561030357600080fd5b5061030d60155481565b604051908152602001610209565b6102f5610329366004611a19565b6106e3565b34801561033a57600080fd5b506102f5610349366004611a5a565b610703565b34801561035a57600080fd5b506101f5610369366004611a5a565b610761565b34801561037a57600080fd5b5061030d610389366004611a73565b6107e1565b34801561039a57600080fd5b506101f56103a9366004611a5a565b610855565b6102f5610875565b3480156103c257600080fd5b506009546101f5906001600160a01b031681565b3480156103e257600080fd5b506102d56103f1366004611a5a565b61091b565b34801561040257600080fd5b5061030d610411366004611a90565b6109bb565b34801561042257600080fd5b506017546101f5906001600160a01b031681565b34801561044257600080fd5b506102f5610451366004611a73565b6110dd565b6102f5610464366004611a73565b6111b7565b34801561047557600080fd5b5061030d610484366004611a5a565b6112dd565b34801561049557600080fd5b506101f56104a4366004611a5a565b6012602052600090815260409020546001600160a01b031681565b3480156104cb57600080fd5b506102d56040518060400160405280600381526020017f484e53000000000000000000000000000000000000000000000000000000000081525081565b6102f5610516366004611b27565b6112f4565b6102f5610529366004611b8f565b61137e565b6102f561053c366004611c8d565b611390565b34801561054d57600080fd5b506102f561055c366004611a73565b6114bd565b34801561056d57600080fd5b5061024261057c366004611cab565b601360209081526000928352604080842090915290825290205460ff1681565b3480156105a857600080fd5b506000546001600160a01b03166101f5565b6000818152601060205260409020546001600160a01b03163314158061060d57506000818152601060209081526040808320546001600160a01b031683526013825280832033845290915290205460ff16155b1561067257600081815260106020526040908190205490517f431ef6160000000000000000000000000000000000000000000000000000000081523360048201526001600160a01b039091166024820152604481018290526064015b60405180910390fd5b60008181526012602052604080822080547fffffffffffffffffffffffff0000000000000000000000000000000000000000166001600160a01b0386169081179091559051839233917f8c5be1e5ebec7d5bd14f71427d1e84f3dd0314c0f7b2291e5b200ac8c7c3b9259190a45050565b6106fe83838360405180602001604052806000815250611550565b505050565b6000546001600160a01b0316331461075c576000546040517f8ea458f60000000000000000000000000000000000000000000000000000000081526001600160a01b039091166004820152336024820152604401610669565b601555565b6000818152601060205260408120546001600160a01b03166107c55760405162461bcd60e51b815260206004820152600f60248201527f494e56414c49445f544f4b454e494400000000000000000000000000000000006044820152606401610669565b506000908152601060205260409020546001600160a01b031690565b60006001600160a01b0382166108395760405162461bcd60e51b815260206004820152600c60248201527f5a45524f5f4144445245535300000000000000000000000000000000000000006044820152606401610669565b506001600160a01b031660009081526011602052604090205490565b600a816004811061086557600080fd5b01546001600160a01b0316905081565b600080546040516001600160a01b039091169047908381818185875af1925050503d80600081146108c2576040519150601f19603f3d011682016040523d82523d6000602084013e6108c7565b606091505b50509050806109185760405162461bcd60e51b815260206004820152601360248201527f4554485f5452414e534645525f4641494c4544000000000000000000000000006044820152606401610669565b50565b6001816004811061092b57600080fd5b01805490915061093a90611cd9565b80601f016020809104026020016040519081016040528092919081815260200182805461096690611cd9565b80156109b35780601f10610988576101008083540402835291602001916109b3565b820191906000526020600020905b81548152906001019060200180831161099657829003601f168201915b505050505081565b6016546000908590859083906001600160a01b03166302571be3600583015485856040516020016109ed929190611d2c565b60405160208183030381529060405280519060200120604051602001610a1d929190918252602082015260400190565b604051602081830303815290604052805190602001206040518263ffffffff1660e01b8152600401610a5191815260200190565b602060405180830381865afa158015610a6e573d6000803e3d6000fd5b505050506040513d601f19601f82011682018060405250810190610a929190611d3c565b90506001600160a01b03811615610aeb5760405162461bcd60e51b815260206004820152600b60248201527f4e414d455f4558495354530000000000000000000000000000000000000000006044820152606401610669565b8787600a8111610b3d5760405162461bcd60e51b815260206004820152600d60248201527f494c4c4547414c5f4c4142454c000000000000000000000000000000000000006044820152606401610669565b81818080601f016020809104026020016040519081016040528093929190818152602001838380828437600092019190915250506040517fa6470fd600000000000000000000000000000000000000000000000000000000815273__$47e4ffaaf323c41735ff299f8946896ce0$__9363a6470fd69350610bc5925090600190600401611d59565b602060405180830381865af4158015610be2573d6000803e3d6000fd5b505050506040513d601f19601f82011682018060405250810190610c069190611e87565b15610c535760405162461bcd60e51b815260206004820152600d60248201527f494c4c4547414c5f4348415253000000000000000000000000000000000000006044820152606401610669565b898988600060058101548484604051602001610c70929190611d2c565b60405160208183030381529060405280519060200120604051602001610ca0929190918252602082015260400190565b6040516020818303038152906040528051906020012090508142610cc49190611ea4565b6016546040517fd2ec5fca000000000000000000000000000000000000000000000000000000008152600481018490526001600160a01b039091169063d2ec5fca90602401602060405180830381865afa158015610d26573d6000803e3d6000fd5b505050506040513d601f19601f82011682018060405250810190610d4a9190611ee4565b10610d975760405162461bcd60e51b815260206004820152601060248201527f4e414d455f4e4f545f45585049524544000000000000000000000000000000006044820152606401610669565b600060058101548f8f604051602001610db1929190611d2c565b60405160208183030381529060405280519060200120604051602001610de1929190918252602082015260400190565b604051602081830303815290604052805190602001209050601660009054906101000a90046001600160a01b03166001600160a01b0316635b0fc9c3828f6040518363ffffffff1660e01b8152600401610e4e9291909182526001600160a01b0316602082015260400190565b600060405180830381600087803b158015610e6857600080fd5b505af1158015610e7c573d6000803e3d6000fd5b50506016546001600160a01b031691506339de6469905082610e9e8f42611ea4565b6040517fffffffff0000000000000000000000000000000000000000000000000000000060e085901b16815260048101929092526024820152604401600060405180830381600087803b158015610ef457600080fd5b505af1158015610f08573d6000803e3d6000fd5b50505050601660009054906101000a90046001600160a01b03166001600160a01b031663d3156905828f6040518363ffffffff1660e01b8152600401610f619291909182526001600160a01b0316602082015260400190565b600060405180830381600087803b158015610f7b57600080fd5b505af1158015610f8f573d6000803e3d6000fd5b50506016546017546040517f1896f70a000000000000000000000000000000000000000000000000000000008152600481018690526001600160a01b03918216602482015291169250631896f70a9150604401600060405180830381600087803b158015610ffc57600080fd5b505af1158015611010573d6000803e3d6000fd5b505050508c601060008360001c815260200190815260200160002060006101000a8154816001600160a01b0302191690836001600160a01b03160217905550601160008e6001600160a01b03166001600160a01b0316815260200190815260200160002060008154809291906001019190505550807f78d6d6769df86b6a2c7c8cae6d315c13f042c135e9d38a0da87f76d46d81ece78e6040516110c391906001600160a01b0391909116815260200190565b60405180910390a29e9d5050505050505050505050505050565b6000546001600160a01b03163314611136576000546040517f8ea458f60000000000000000000000000000000000000000000000000000000081526001600160a01b039091166004820152336024820152604401610669565b600054604080516001600160a01b03928316815291831660208301527fdec101f106d4fc7c85791843e64b198248c822298e3ed7046231d33f7783d816910160405180910390a1600080547fffffffffffffffffffffffff0000000000000000000000000000000000000000166001600160a01b0392909216919091179055565b6000546040517f70a0823100000000000000000000000000000000000000000000000000000000815230600482018190526001600160a01b03848116936323b872dd9391169084906370a0823190602401602060405180830381865afa158015611225573d6000803e3d6000fd5b505050506040513d601f19601f820116820180604052508101906112499190611ee4565b6040517fffffffff0000000000000000000000000000000000000000000000000000000060e086901b1681526001600160a01b03938416600482015292909116602483015260448201526064016020604051808303816000875af11580156112b5573d6000803e3d6000fd5b505050506040513d601f19601f820116820180604052508101906112d99190611e87565b5050565b600581600481106112ed57600080fd5b0154905081565b3360008181526013602090815260408083206001600160a01b0387168085529083529281902080547fffffffffffffffffffffffffffffffffffffffffffffffffffffffffffffff001686151590811790915590519081529192917f17307eab39ab6107e8899845ad3d59bd9653f200f220920489ca2b5937696c31910160405180910390a35050565b61138a84848484611550565b50505050565b6000546001600160a01b031633146113e9576000546040517f8ea458f60000000000000000000000000000000000000000000000000000000081526001600160a01b039091166004820152336024820152604401610669565b7fffffffff00000000000000000000000000000000000000000000000000000000808316900361145b5760405162461bcd60e51b815260206004820152601a60248201527f494e56414c49445f494e544552464143455f53454c4543544f520000000000006044820152606401610669565b7fffffffff00000000000000000000000000000000000000000000000000000000919091166000908152600f6020526040902080547fffffffffffffffffffffffffffffffffffffffffffffffffffffffffffffff0016911515919091179055565b6000546001600160a01b03163314611516576000546040517f8ea458f60000000000000000000000000000000000000000000000000000000081526001600160a01b039091166004820152336024820152604401610669565b601780547fffffffffffffffffffffffff0000000000000000000000000000000000000000166001600160a01b0392909216919091179055565b6001600160a01b038316611590576040517f5788079900000000000000000000000000000000000000000000000000000000815260040160405180910390fd5b6000828152601060205260409020546001600160a01b0385811691161461160e57600082815260106020526040908190205490517f431ef6160000000000000000000000000000000000000000000000000000000081526001600160a01b039182166004820152908516602482015260448101839052606401610669565b6000828152601060205260409020546001600160a01b0316331480159061165957506001600160a01b038416600090815260136020908152604080832033845290915290205460ff16155b801561167c57506000828152601260205260409020546001600160a01b03163314155b156116cb576040517f431ef6160000000000000000000000000000000000000000000000000000000081523360048201526001600160a01b038516602482015260448101839052606401610669565b600082815260126020908152604080832080547fffffffffffffffffffffffff00000000000000000000000000000000000000009081169091556010835281842080546001600160a01b03898116919093168117909155908816808552601190935281842080547fffffffffffffffffffffffffffffffffffffffffffffffffffffffffffffffff01905580845281842080546001019055905185939192917fddf252ad1be2c89b69c2b068fc378daa952ba7f163c4a11628f55a4df523b3ef91a46001600160a01b0383163b1561138a576040517f150b7a020000000000000000000000000000000000000000000000000000000081526001600160a01b0384169063150b7a02906117e8903390889087908790600401611efd565b6020604051808303816000875af1925050508015611841575060408051601f3d9081017fffffffffffffffffffffffffffffffffffffffffffffffffffffffffffffffe016820190925261183e91810190611f39565b60015b611882576040517f3a9f8cb30000000000000000000000000000000000000000000000000000000081526001600160a01b0384166004820152602401610669565b7fffffffff0000000000000000000000000000000000000000000000000000000081167f150b7a020000000000000000000000000000000000000000000000000000000014611908576040517f3a9f8cb30000000000000000000000000000000000000000000000000000000081526001600160a01b0385166004820152602401610669565b5050505050565b7fffffffff000000000000000000000000000000000000000000000000000000008116811461091857600080fd5b60006020828403121561194f57600080fd5b813561195a8161190f565b9392505050565b6000815180845260005b818110156119875760208185018101518683018201520161196b565b5060006020828601015260207fffffffffffffffffffffffffffffffffffffffffffffffffffffffffffffffe0601f83011685010191505092915050565b60208152600061195a6020830184611961565b6001600160a01b038116811461091857600080fd5b60008060408385031215611a0057600080fd5b8235611a0b816119d8565b946020939093013593505050565b600080600060608486031215611a2e57600080fd5b8335611a39816119d8565b92506020840135611a49816119d8565b929592945050506040919091013590565b600060208284031215611a6c57600080fd5b5035919050565b600060208284031215611a8557600080fd5b813561195a816119d8565b60008060008060608587031215611aa657600080fd5b843567ffffffffffffffff80821115611abe57600080fd5b818701915087601f830112611ad257600080fd5b813581811115611ae157600080fd5b886020828501011115611af357600080fd5b60209283019650945050850135611b09816119d8565b9396929550929360400135925050565b801515811461091857600080fd5b60008060408385031215611b3a57600080fd5b8235611b45816119d8565b91506020830135611b5581611b19565b809150509250929050565b7f4e487b7100000000000000000000000000000000000000000000000000000000600052604160045260246000fd5b60008060008060808587031215611ba557600080fd5b8435611bb0816119d8565b93506020850135611bc0816119d8565b925060408501359150606085013567ffffffffffffffff80821115611be457600080fd5b818701915087601f830112611bf857600080fd5b813581811115611c0a57611c0a611b60565b604051601f82017fffffffffffffffffffffffffffffffffffffffffffffffffffffffffffffffe0908116603f01168101908382118183101715611c5057611c50611b60565b816040528281528a6020848701011115611c6957600080fd5b82602086016020830137600060208483010152809550505050505092959194509250565b60008060408385031215611ca057600080fd5b8235611b458161190f565b60008060408385031215611cbe57600080fd5b8235611cc9816119d8565b91506020830135611b55816119d8565b600181811c90821680611ced57607f821691505b602082108103611d26577f4e487b7100000000000000000000000000000000000000000000000000000000600052602260045260246000fd5b50919050565b8183823760009101908152919050565b600060208284031215611d4e57600080fd5b815161195a816119d8565b604081526000611d6c6040830185611961565b60208382038185015281829050608083018660005b6004808210611d905750611e79565b86840385528254600090600181811c9080831680611daf57607f831692505b8a83108103611de4577f4e487b7100000000000000000000000000000000000000000000000000000000855260228652602485fd5b828952602089019550808015611e015760018114611e3557611e60565b7fffffffffffffffffffffffffffffffffffffffffffffffffffffffffffffff008516875283151560051b87019550611e60565b60008981526020902060005b85811015611e5a57815489820152908401908d01611e41565b88019650505b5050978901979296505050929092019150600101611d81565b509098975050505050505050565b600060208284031215611e9957600080fd5b815161195a81611b19565b80820180821115611ede577f4e487b7100000000000000000000000000000000000000000000000000000000600052601160045260246000fd5b92915050565b600060208284031215611ef657600080fd5b5051919050565b60006001600160a01b03808716835280861660208401525083604083015260806060830152611f2f6080830184611961565b9695505050505050565b600060208284031215611f4b57600080fd5b815161195a8161190f56fea264697066735822122083fc6abeceff8e67cd91883e6464182e095fec3b2a6be4bf28c8bf6510ddaa6e64736f6c63430008100033",
    "linkReferences": {
      "src/Utils/LibString.sol": {
        "LibString": [
          {
            "start": 4517,
            "length": 20
          }
        ]
      }
    }
  },
  "methodIdentifiers": {
    "Dev()": "01e51ae8",
    "NAMES()": "05e84aa0",
    "_approved(uint256)": "9024d282",
    "active()": "02fb0c5e",
    "approve(address,uint256)": "095ea7b3",
    "balanceOf(address)": "70a08231",
    "changeDev(address)": "88a8c95c",
    "defaultLifespan()": "0e6c0bdb",
    "defaultResolver()": "828eab0e",
    "ensRegistry()": "7d73b231",
    "helix2Registry(uint256)": "70dec5f0",
    "illegal(uint256)": "7e49c892",
    "isApprovedForAll(address,address)": "e985e9c5",
    "isDev()": "f079914f",
    "name()": "06fdde03",
    "newName(string,address,uint256)": "7f9348aa",
    "ownerOf(uint256)": "6352211e",
    "roothash(uint256)": "8dfcb1c7",
    "safeTransferFrom(address,address,uint256)": "42842e0e",
    "safeTransferFrom(address,address,uint256,bytes)": "b88d4fde",
    "setApprovalForAll(address,bool)": "a22cb465",
    "setDefaultLifespan(uint256)": "39506308",
    "setDefaultResolver(address)": "c66485b2",
    "setInterface(bytes4,bool)": "c0a43a7c",
    "supportsInterface(bytes4)": "01ffc9a7",
    "symbol()": "95d89b41",
    "transferFrom(address,address,uint256)": "23b872dd",
    "withdrawEther()": "7362377b",
    "withdrawToken(address)": "89476069"
  },
  "id": 4
}