{
  "abi": [
    {
      "inputs": [
        {
          "internalType": "address",
          "name": "_registry",
          "type": "address"
        },
        {
          "internalType": "address",
          "name": "_helix2",
          "type": "address"
        }
      ],
      "stateMutability": "nonpayable",
      "type": "constructor"
    },
    {
      "inputs": [
        {
          "internalType": "bytes32",
          "name": "moleculehash",
          "type": "bytes32"
        },
        {
          "internalType": "bytes32",
          "name": "anion",
          "type": "bytes32"
        }
      ],
      "name": "AnionNotFound",
      "type": "error"
    },
    {
      "anonymous": false,
      "inputs": [
        {
          "indexed": true,
          "internalType": "address",
          "name": "cation",
          "type": "address"
        },
        {
          "indexed": true,
          "internalType": "address",
          "name": "operator",
          "type": "address"
        },
        {
          "indexed": false,
          "internalType": "bool",
          "name": "approved",
          "type": "bool"
        }
      ],
      "name": "ApprovalForAll",
      "type": "event"
    },
    {
      "anonymous": false,
      "inputs": [
        {
          "indexed": true,
          "internalType": "bytes32",
          "name": "molyhash",
          "type": "bytes32"
        },
        {
          "indexed": false,
          "internalType": "address",
          "name": "config",
          "type": "address"
        },
        {
          "indexed": false,
          "internalType": "uint8",
          "name": "rule",
          "type": "uint8"
        }
      ],
      "name": "Hooked",
      "type": "event"
    },
    {
      "anonymous": false,
      "inputs": [
        {
          "indexed": true,
          "internalType": "bytes32",
          "name": "molyhash",
          "type": "bytes32"
        },
        {
          "indexed": false,
          "internalType": "bytes32",
          "name": "_alias",
          "type": "bytes32"
        }
      ],
      "name": "NewAlias",
      "type": "event"
    },
    {
      "anonymous": false,
      "inputs": [
        {
          "indexed": true,
          "internalType": "bytes32",
          "name": "molyhash",
          "type": "bytes32"
        },
        {
          "indexed": false,
          "internalType": "bytes32",
          "name": "anion",
          "type": "bytes32"
        }
      ],
      "name": "NewAnion",
      "type": "event"
    },
    {
      "anonymous": false,
      "inputs": [
        {
          "indexed": true,
          "internalType": "bytes32",
          "name": "molyhash",
          "type": "bytes32"
        },
        {
          "indexed": false,
          "internalType": "bytes32[]",
          "name": "anion",
          "type": "bytes32[]"
        }
      ],
      "name": "NewAnions",
      "type": "event"
    },
    {
      "anonymous": false,
      "inputs": [
        {
          "indexed": true,
          "internalType": "bytes32",
          "name": "molyhash",
          "type": "bytes32"
        },
        {
          "indexed": false,
          "internalType": "bytes32",
          "name": "cation",
          "type": "bytes32"
        }
      ],
      "name": "NewCation",
      "type": "event"
    },
    {
      "anonymous": false,
      "inputs": [
        {
          "indexed": true,
          "internalType": "bytes32",
          "name": "molyhash",
          "type": "bytes32"
        },
        {
          "indexed": false,
          "internalType": "address",
          "name": "controller",
          "type": "address"
        }
      ],
      "name": "NewController",
      "type": "event"
    },
    {
      "anonymous": false,
      "inputs": [
        {
          "indexed": true,
          "internalType": "bytes32",
          "name": "molyhash",
          "type": "bytes32"
        },
        {
          "indexed": false,
          "internalType": "bool",
          "name": "covalence",
          "type": "bool"
        }
      ],
      "name": "NewCovalence",
      "type": "event"
    },
    {
      "anonymous": false,
      "inputs": [
        {
          "indexed": false,
          "internalType": "address",
          "name": "Dev",
          "type": "address"
        },
        {
          "indexed": false,
          "internalType": "address",
          "name": "newDev",
          "type": "address"
        }
      ],
      "name": "NewDev",
      "type": "event"
    },
    {
      "anonymous": false,
      "inputs": [
        {
          "indexed": true,
          "internalType": "bytes32",
          "name": "molyhash",
          "type": "bytes32"
        },
        {
          "indexed": false,
          "internalType": "uint256",
          "name": "expiry",
          "type": "uint256"
        }
      ],
      "name": "NewExpiry",
      "type": "event"
    },
    {
      "anonymous": false,
      "inputs": [
        {
          "indexed": true,
          "internalType": "bytes32",
          "name": "molyhash",
          "type": "bytes32"
        },
        {
          "indexed": false,
          "internalType": "bytes32",
          "name": "cation",
          "type": "bytes32"
        }
      ],
      "name": "NewMolecule",
      "type": "event"
    },
    {
      "anonymous": false,
      "inputs": [
        {
          "indexed": true,
          "internalType": "bytes32",
          "name": "molyhash",
          "type": "bytes32"
        },
        {
          "indexed": false,
          "internalType": "address",
          "name": "resolver",
          "type": "address"
        }
      ],
      "name": "NewRecord",
      "type": "event"
    },
    {
      "anonymous": false,
      "inputs": [
        {
          "indexed": true,
          "internalType": "bytes32",
          "name": "molyhash",
          "type": "bytes32"
        },
        {
          "indexed": false,
          "internalType": "address",
          "name": "resolver",
          "type": "address"
        }
      ],
      "name": "NewResolver",
      "type": "event"
    },
    {
      "anonymous": false,
      "inputs": [
        {
          "indexed": true,
          "internalType": "bytes32",
          "name": "molyhash",
          "type": "bytes32"
        },
        {
          "indexed": false,
          "internalType": "bytes32",
          "name": "anion",
          "type": "bytes32"
        }
      ],
      "name": "PopAnion",
      "type": "event"
    },
    {
      "anonymous": false,
      "inputs": [
        {
          "indexed": true,
          "internalType": "bytes32",
          "name": "molyhash",
          "type": "bytes32"
        },
        {
          "indexed": false,
          "internalType": "address",
          "name": "config",
          "type": "address"
        },
        {
          "indexed": false,
          "internalType": "uint8",
          "name": "rule",
          "type": "uint8"
        }
      ],
      "name": "Rehooked",
      "type": "event"
    },
    {
      "anonymous": false,
      "inputs": [
        {
          "indexed": true,
          "internalType": "bytes32",
          "name": "molyhash",
          "type": "bytes32"
        },
        {
          "indexed": false,
          "internalType": "address",
          "name": "config",
          "type": "address"
        }
      ],
      "name": "Unhooked",
      "type": "event"
    },
    {
      "anonymous": false,
      "inputs": [
        {
          "indexed": true,
          "internalType": "bytes32",
          "name": "molyhash",
          "type": "bytes32"
        }
      ],
      "name": "UnhookedAll",
      "type": "event"
    },
    {
      "inputs": [],
      "name": "Dev",
      "outputs": [
        {
          "internalType": "address",
          "name": "",
          "type": "address"
        }
      ],
      "stateMutability": "view",
      "type": "function"
    },
    {
      "inputs": [],
      "name": "HELIX2",
      "outputs": [
        {
          "internalType": "contract iHELIX2",
          "name": "",
          "type": "address"
        }
      ],
      "stateMutability": "view",
      "type": "function"
    },
    {
      "inputs": [
        {
          "internalType": "bytes32",
          "name": "",
          "type": "bytes32"
        }
      ],
      "name": "Molecules",
      "outputs": [
        {
          "internalType": "bytes32",
          "name": "_cation",
          "type": "bytes32"
        },
        {
          "internalType": "bytes32",
          "name": "_alias",
          "type": "bytes32"
        },
        {
          "internalType": "address",
          "name": "_resolver",
          "type": "address"
        },
        {
          "internalType": "address",
          "name": "_controller",
          "type": "address"
        },
        {
          "internalType": "bool",
          "name": "_covalence",
          "type": "bool"
        },
        {
          "internalType": "uint256",
          "name": "_expiry",
          "type": "uint256"
        }
      ],
      "stateMutability": "view",
      "type": "function"
    },
    {
      "inputs": [],
      "name": "NAMES",
      "outputs": [
        {
          "internalType": "contract iNAME",
          "name": "",
          "type": "address"
        }
      ],
      "stateMutability": "view",
      "type": "function"
    },
    {
      "inputs": [
        {
          "internalType": "bytes32",
          "name": "molyhash",
          "type": "bytes32"
        },
        {
          "internalType": "bytes32",
          "name": "_anion",
          "type": "bytes32"
        }
      ],
      "name": "addAnion",
      "outputs": [],
      "stateMutability": "nonpayable",
      "type": "function"
    },
    {
      "inputs": [
        {
          "internalType": "bytes32",
          "name": "molyhash",
          "type": "bytes32"
        }
      ],
      "name": "alias_",
      "outputs": [
        {
          "internalType": "bytes32",
          "name": "",
          "type": "bytes32"
        }
      ],
      "stateMutability": "view",
      "type": "function"
    },
    {
      "inputs": [
        {
          "internalType": "bytes32",
          "name": "molyhash",
          "type": "bytes32"
        }
      ],
      "name": "anion",
      "outputs": [
        {
          "internalType": "bytes32[]",
          "name": "",
          "type": "bytes32[]"
        }
      ],
      "stateMutability": "view",
      "type": "function"
    },
    {
      "inputs": [],
      "name": "basePrice",
      "outputs": [
        {
          "internalType": "uint256",
          "name": "",
          "type": "uint256"
        }
      ],
      "stateMutability": "view",
      "type": "function"
    },
    {
      "inputs": [
        {
          "internalType": "bytes32",
          "name": "molyhash",
          "type": "bytes32"
        }
      ],
      "name": "cation",
      "outputs": [
        {
          "internalType": "bytes32",
          "name": "",
          "type": "bytes32"
        }
      ],
      "stateMutability": "view",
      "type": "function"
    },
    {
      "inputs": [
        {
          "internalType": "address",
          "name": "newDev",
          "type": "address"
        }
      ],
      "name": "changeDev",
      "outputs": [],
      "stateMutability": "nonpayable",
      "type": "function"
    },
    {
      "inputs": [
        {
          "internalType": "bytes32",
          "name": "molyhash",
          "type": "bytes32"
        }
      ],
      "name": "controller",
      "outputs": [
        {
          "internalType": "address",
          "name": "",
          "type": "address"
        }
      ],
      "stateMutability": "view",
      "type": "function"
    },
    {
      "inputs": [
        {
          "internalType": "bytes32",
          "name": "molyhash",
          "type": "bytes32"
        }
      ],
      "name": "covalence",
      "outputs": [
        {
          "internalType": "bool",
          "name": "",
          "type": "bool"
        }
      ],
      "stateMutability": "view",
      "type": "function"
    },
    {
      "inputs": [
        {
          "internalType": "bytes32",
          "name": "molyhash",
          "type": "bytes32"
        }
      ],
      "name": "expiry",
      "outputs": [
        {
          "internalType": "uint256",
          "name": "",
          "type": "uint256"
        }
      ],
      "stateMutability": "view",
      "type": "function"
    },
    {
      "inputs": [
        {
          "internalType": "bytes32",
          "name": "molyhash",
          "type": "bytes32"
        },
        {
          "internalType": "uint8",
          "name": "rule",
          "type": "uint8"
        },
        {
          "internalType": "address",
          "name": "config",
          "type": "address"
        }
      ],
      "name": "hook",
      "outputs": [],
      "stateMutability": "nonpayable",
      "type": "function"
    },
    {
      "inputs": [
        {
          "internalType": "bytes32",
          "name": "molyhash",
          "type": "bytes32"
        }
      ],
      "name": "hooksWithRules",
      "outputs": [
        {
          "internalType": "address[]",
          "name": "",
          "type": "address[]"
        },
        {
          "internalType": "uint8[]",
          "name": "",
          "type": "uint8[]"
        }
      ],
      "stateMutability": "view",
      "type": "function"
    },
    {
      "inputs": [
        {
          "internalType": "bytes32",
          "name": "_cation",
          "type": "bytes32"
        },
        {
          "internalType": "address",
          "name": "operator",
          "type": "address"
        }
      ],
      "name": "isApprovedForAll",
      "outputs": [
        {
          "internalType": "bool",
          "name": "",
          "type": "bool"
        }
      ],
      "stateMutability": "view",
      "type": "function"
    },
    {
      "inputs": [
        {
          "internalType": "bytes32",
          "name": "molyhash",
          "type": "bytes32"
        },
        {
          "internalType": "bytes32",
          "name": "_anion",
          "type": "bytes32"
        }
      ],
      "name": "isNotDuplicateAnion",
      "outputs": [
        {
          "internalType": "bool",
          "name": "",
          "type": "bool"
        }
      ],
      "stateMutability": "view",
      "type": "function"
    },
    {
      "inputs": [
        {
          "internalType": "bytes32",
          "name": "molyhash",
          "type": "bytes32"
        },
        {
          "internalType": "address",
          "name": "config",
          "type": "address"
        }
      ],
      "name": "isNotDuplicateHook",
      "outputs": [
        {
          "internalType": "bool",
          "name": "",
          "type": "bool"
        }
      ],
      "stateMutability": "view",
      "type": "function"
    },
    {
      "inputs": [
        {
          "internalType": "bytes32",
          "name": "molyhash",
          "type": "bytes32"
        },
        {
          "internalType": "bytes32",
          "name": "__anion",
          "type": "bytes32"
        }
      ],
      "name": "popAnion",
      "outputs": [],
      "stateMutability": "nonpayable",
      "type": "function"
    },
    {
      "inputs": [
        {
          "internalType": "bytes32",
          "name": "molyhash",
          "type": "bytes32"
        }
      ],
      "name": "recordExists",
      "outputs": [
        {
          "internalType": "bool",
          "name": "",
          "type": "bool"
        }
      ],
      "stateMutability": "view",
      "type": "function"
    },
    {
      "inputs": [
        {
          "internalType": "bytes32",
          "name": "molyhash",
          "type": "bytes32"
        },
        {
          "internalType": "uint8",
          "name": "rule",
          "type": "uint8"
        },
        {
          "internalType": "address",
          "name": "config",
          "type": "address"
        }
      ],
      "name": "rehook",
      "outputs": [],
      "stateMutability": "nonpayable",
      "type": "function"
    },
    {
      "inputs": [
        {
          "internalType": "bytes32",
          "name": "molyhash",
          "type": "bytes32"
        }
      ],
      "name": "resolver",
      "outputs": [
        {
          "internalType": "address",
          "name": "",
          "type": "address"
        }
      ],
      "stateMutability": "view",
      "type": "function"
    },
    {
      "inputs": [],
      "name": "roothash",
      "outputs": [
        {
          "internalType": "bytes32",
          "name": "",
          "type": "bytes32"
        }
      ],
      "stateMutability": "view",
      "type": "function"
    },
    {
      "inputs": [
        {
          "internalType": "bytes32",
          "name": "molyhash",
          "type": "bytes32"
        },
        {
          "internalType": "bytes32",
          "name": "_alias",
          "type": "bytes32"
        }
      ],
      "name": "setAlias",
      "outputs": [],
      "stateMutability": "nonpayable",
      "type": "function"
    },
    {
      "inputs": [
        {
          "internalType": "bytes32",
          "name": "molyhash",
          "type": "bytes32"
        },
        {
          "internalType": "bytes32[]",
          "name": "_anion",
          "type": "bytes32[]"
        }
      ],
      "name": "setAnions",
      "outputs": [],
      "stateMutability": "nonpayable",
      "type": "function"
    },
    {
      "inputs": [
        {
          "internalType": "address",
          "name": "operator",
          "type": "address"
        },
        {
          "internalType": "bool",
          "name": "approved",
          "type": "bool"
        }
      ],
      "name": "setApprovalForAll",
      "outputs": [],
      "stateMutability": "nonpayable",
      "type": "function"
    },
    {
      "inputs": [
        {
          "internalType": "bytes32",
          "name": "molyhash",
          "type": "bytes32"
        },
        {
          "internalType": "bytes32",
          "name": "_cation",
          "type": "bytes32"
        }
      ],
      "name": "setCation",
      "outputs": [],
      "stateMutability": "nonpayable",
      "type": "function"
    },
    {
      "inputs": [
        {
          "internalType": "bytes32",
          "name": "molyhash",
          "type": "bytes32"
        },
        {
          "internalType": "address",
          "name": "_controller",
          "type": "address"
        }
      ],
      "name": "setController",
      "outputs": [],
      "stateMutability": "nonpayable",
      "type": "function"
    },
    {
      "inputs": [
        {
          "internalType": "bytes32",
          "name": "molyhash",
          "type": "bytes32"
        },
        {
          "internalType": "bool",
          "name": "_covalence",
          "type": "bool"
        }
      ],
      "name": "setCovalence",
      "outputs": [],
      "stateMutability": "nonpayable",
      "type": "function"
    },
    {
      "inputs": [
        {
          "internalType": "bytes32",
          "name": "molyhash",
          "type": "bytes32"
        },
        {
          "internalType": "uint256",
          "name": "_expiry",
          "type": "uint256"
        }
      ],
      "name": "setExpiry",
      "outputs": [],
      "stateMutability": "payable",
      "type": "function"
    },
    {
      "inputs": [
        {
          "internalType": "bytes32",
          "name": "molyhash",
          "type": "bytes32"
        },
        {
          "internalType": "address",
          "name": "_resolver",
          "type": "address"
        }
      ],
      "name": "setRecord",
      "outputs": [],
      "stateMutability": "nonpayable",
      "type": "function"
    },
    {
      "inputs": [
        {
          "internalType": "bytes32",
          "name": "molyhash",
          "type": "bytes32"
        },
        {
          "internalType": "address",
          "name": "_resolver",
          "type": "address"
        }
      ],
      "name": "setResolver",
      "outputs": [],
      "stateMutability": "nonpayable",
      "type": "function"
    },
    {
      "inputs": [],
      "name": "theEnd",
      "outputs": [
        {
          "internalType": "uint256",
          "name": "",
          "type": "uint256"
        }
      ],
      "stateMutability": "view",
      "type": "function"
    },
    {
      "inputs": [
        {
          "internalType": "bytes32",
          "name": "molyhash",
          "type": "bytes32"
        },
        {
          "internalType": "address",
          "name": "config",
          "type": "address"
        }
      ],
      "name": "unhook",
      "outputs": [],
      "stateMutability": "nonpayable",
      "type": "function"
    },
    {
      "inputs": [
        {
          "internalType": "bytes32",
          "name": "molyhash",
          "type": "bytes32"
        }
      ],
      "name": "unhookAll",
      "outputs": [],
      "stateMutability": "nonpayable",
      "type": "function"
    },
    {
      "inputs": [],
      "name": "withdrawEther",
      "outputs": [],
      "stateMutability": "payable",
      "type": "function"
    },
    {
      "inputs": [
        {
          "internalType": "address",
          "name": "token",
          "type": "address"
        }
      ],
      "name": "withdrawToken",
      "outputs": [],
      "stateMutability": "payable",
      "type": "function"
    }
  ],
  "bytecode": {
    "object": "0x60806040526703782dace9d900006005553480156200001d57600080fd5b506040516200435c3803806200435c833981016040819052620000409162000748565b60028054336001600160a01b0319918216179091556000805482166001600160a01b03848116918217909255600180549093169185169190911790915560408051633215476b60e11b8152905163642a8ed6916004808201926080929091908290030181865afa158015620000b9573d6000803e3d6000fd5b505050506040513d601f19601f82011682018060405250810190620000df9190620007b7565b604090810151600355600054815163bd9a548b60e01b815291516001600160a01b039091169163bd9a548b9160048083019260809291908290030181865afa15801562000130573d6000803e3d6000fd5b505050506040513d601f19601f82011682018060405250810190620001569190620007b7565b60400151600455620001676200016f565b50506200085c565b7f3530788012b75d807ed21d67650284173cf1b5aa003fda795c62c56bc64b06ed805460ff19169055604080516020818101909252600080825280526006909152620001df907f54cdd369e4e8a8515e52ca72ec816c2101831ad1f18bf44102ed171459c9b4f89060016200066c565b5060007f54cdd369e4e8a8515e52ca72ec816c2101831ad1f18bf44102ed171459c9b4fa819055604080516020818101909252828152918052600690526200024b907f54cdd369e4e8a8515e52ca72ec816c2101831ad1f18bf44102ed171459c9b4fb906001620006d6565b50600080805260066020527f54cdd369e4e8a8515e52ca72ec816c2101831ad1f18bf44102ed171459c9b4fc8190557f54cdd369e4e8a8515e52ca72ec816c2101831ad1f18bf44102ed171459c9b4fe80546005547f54cdd369e4e8a8515e52ca72ec816c2101831ad1f18bf44102ed171459c9b4ff556001600160a81b03191633908117600160a01b179091557f54cdd369e4e8a8515e52ca72ec816c2101831ad1f18bf44102ed171459c9b4fd80546001600160a01b0319169091179055805460408051633215476b60e11b815290516001600160a01b03929092169163642a8ed6916004818101926080929091908290030181865afa15801562000356573d6000803e3d6000fd5b505050506040513d601f19601f820116820180604052508101906200037c9190620007b7565b905060005b60048110156200066857600060066000848460048110620003a657620003a66200081e565b60209081029190910151825281810192909252604090810160009081208180526001018352818120805460ff191660ff959095169490941790935580519182019052818152906006908484600481106200040457620004046200081e565b602002015181526020019081526020016000206000019060016200042a9291906200066c565b508181600481106200044057620004406200081e565b6020020151600660008484600481106200045e576200045e6200081e565b602002015181526020019081526020016000206002018190555060405180602001604052808383600481106200049857620004986200081e565b6020020151905260066000848460048110620004b857620004b86200081e565b60200201518152602001908152602001600020600301906001620004de929190620006d6565b50818160048110620004f457620004f46200081e565b6020020151600660008484600481106200051257620005126200081e565b60200201518152602001908152602001600020600401819055506001600660008484600481106200054757620005476200081e565b6020020151815260200190815260200160002060060160146101000a81548160ff021916908315150217905550600554600660008484600481106200059057620005906200081e565b60200201518152602001908152602001600020600701819055503360066000848460048110620005c457620005c46200081e565b6020020151815260200190815260200160002060060160006101000a8154816001600160a01b0302191690836001600160a01b0316021790555033600660008484600481106200061857620006186200081e565b6020020151815260200190815260200160002060050160006101000a8154816001600160a01b0302191690836001600160a01b0316021790555080806200065f9062000834565b91505062000381565b5050565b828054828255906000526020600020908101928215620006c4579160200282015b82811115620006c457825182546001600160a01b0319166001600160a01b039091161782556020909201916001909101906200068d565b50620006d292915062000714565b5090565b828054828255906000526020600020908101928215620006c4579160200282015b82811115620006c4578251825591602001919060010190620006f7565b5b80821115620006d2576000815560010162000715565b80516001600160a01b03811681146200074357600080fd5b919050565b600080604083850312156200075c57600080fd5b62000767836200072b565b915062000777602084016200072b565b90509250929050565b604051608081016001600160401b0381118282101715620007b157634e487b7160e01b600052604160045260246000fd5b60405290565b600060808284031215620007ca57600080fd5b82601f830112620007da57600080fd5b620007e462000780565b806080840185811115620007f757600080fd5b845b8181101562000813578051845260209384019301620007f9565b509095945050505050565b634e487b7160e01b600052603260045260246000fd5b6000600182016200085557634e487b7160e01b600052601160045260246000fd5b5060010190565b613af0806200086c6000396000f3fe60806040526004361061026a5760003560e01c8063741b4cd011610153578063c5bc4c0b116100cb578063d9b76ed41161007f578063f61ccd5311610064578063f61ccd531461075c578063f79fe5381461077c578063f8c91244146107ae57600080fd5b8063d9b76ed41461071c578063dbd4e0211461073c57600080fd5b8063d07699aa116100b0578063d07699aa146106ac578063d2ec5fca146106cc578063d3156905146106fc57600080fd5b8063c5bc4c0b14610676578063c7876ea41461069657600080fd5b80638dcad13911610122578063af6328f611610107578063af6328f614610581578063b069862814610636578063b782426e1461065657600080fd5b80638dcad13914610541578063a22cb4651461056157600080fd5b8063741b4cd0146104ce5780638146970a146104ee57806388a8c95c1461050e578063894760691461052e57600080fd5b806321ec2b5b116101e657806334026859116101b557806351a764421161019a57806351a76442146104865780636ff24830146104a65780637362377b146104c657600080fd5b8063340268591461045357806339de64691461047357600080fd5b806321ec2b5b146103d957806322b68deb146103f9578063241270d51461041d578063251c94221461043d57600080fd5b806305e84aa01161023d5780630e68b116116102225780630e68b1161461036c5780631896f70a146103995780631f06e91c146103b957600080fd5b806305e84aa01461031e5780630aac66251461033e57600080fd5b8063015399e61461026f5780630178b8bf1461029157806301e51ae8146102ce578063049a491c146102ee575b600080fd5b34801561027b57600080fd5b5061028f61028a366004613533565b6107ce565b005b34801561029d57600080fd5b506102b16102ac36600461357b565b610a25565b6040516001600160a01b0390911681526020015b60405180910390f35b3480156102da57600080fd5b506002546102b1906001600160a01b031681565b3480156102fa57600080fd5b5061030e610309366004613594565b610a9e565b60405190151581526020016102c5565b34801561032a57600080fd5b506001546102b1906001600160a01b031681565b34801561034a57600080fd5b5061035e61035936600461357b565b610b50565b6040516102c59291906135c4565b34801561037857600080fd5b5061038c61038736600461357b565b610d07565b6040516102c5919061364b565b3480156103a557600080fd5b5061028f6103b4366004613594565b610dc6565b3480156103c557600080fd5b5061028f6103d436600461368f565b610fcb565b3480156103e557600080fd5b5061028f6103f436600461357b565b611195565b34801561040557600080fd5b5061040f60055481565b6040519081526020016102c5565b34801561042957600080fd5b5061028f610438366004613594565b6114d0565b34801561044957600080fd5b5061040f60035481565b34801561045f57600080fd5b5061030e61046e36600461357b565b61190c565b61028f61048136600461368f565b611994565b34801561049257600080fd5b5061028f6104a1366004613533565b611c39565b3480156104b257600080fd5b5061028f6104c136600461368f565b611e94565b61028f6120c5565b3480156104da57600080fd5b5061028f6104e93660046136e0565b61216b565b3480156104fa57600080fd5b5061028f61050936600461368f565b612433565b34801561051a57600080fd5b5061028f6105293660046137c8565b6125d8565b61028f61053c3660046137c8565b6126b3565b34801561054d57600080fd5b5061028f61055c36600461368f565b6127d9565b34801561056d57600080fd5b5061028f61057c3660046137fa565b612b9b565b34801561058d57600080fd5b506105fa61059c36600461357b565b600660208190526000918252604090912060028101546004820154600583015493830154600790930154919390926001600160a01b0391821692918116917401000000000000000000000000000000000000000090910460ff169086565b6040805196875260208701959095526001600160a01b0393841694860194909452911660608401521515608083015260a082015260c0016102c5565b34801561064257600080fd5b5061030e610651366004613594565b612c07565b34801561066257600080fd5b506000546102b1906001600160a01b031681565b34801561068257600080fd5b5061040f61069136600461357b565b612cab565b3480156106a257600080fd5b5061040f60045481565b3480156106b857600080fd5b5061028f6106c7366004613828565b612d17565b3480156106d857600080fd5b5061040f6106e736600461357b565b60009081526006602052604090206007015490565b34801561070857600080fd5b5061028f610717366004613594565b612f23565b34801561072857600080fd5b5061028f610737366004613594565b61311d565b34801561074857600080fd5b506102b161075736600461357b565b613317565b34801561076857600080fd5b5061040f61077736600461357b565b61338d565b34801561078857600080fd5b5061030e61079736600461357b565b600090815260066020526040902060070154421090565b3480156107ba57600080fd5b5061030e6107c936600461368f565b613488565b600083815260066020526040902060070154839042106108285760405162461bcd60e51b815260206004820152601060248201526f1353d31150d5531157d156141254915160821b60448201526064015b60405180910390fd5b6000818152600660205260408082206002015460015491516302571be360e01b8152600481018290529092916001600160a01b0316906302571be390602401602060405180830381865afa158015610884573d6000803e3d6000fd5b505050506040513d601f19601f820116820180604052508101906108a8919061384d565b90506001600160a01b0381163314806108e457506001600160a01b038116600090815260076020908152604080832033845290915290205460ff165b6109305760405162461bcd60e51b815260206004820152600960248201527f4e4f545f4f574e45520000000000000000000000000000000000000000000000604482015260640161081f565b60008681526006602090815260408083206001600160a01b038816845260010190915290205460ff8087169116036109aa5760405162461bcd60e51b815260206004820152600b60248201527f52554c455f455849535453000000000000000000000000000000000000000000604482015260640161081f565b60008681526006602090815260408083206001600160a01b0388168085526001909101835292819020805460ff191660ff8a1690811790915581519384529183019190915287917fe43a78ddf6157361fe34d04905786138f88d3eda20b1f7dc0e2c619f9267310091015b60405180910390a2505050505050565b60008181526006602052604081206007015482904210610a7a5760405162461bcd60e51b815260206004820152601060248201526f1353d31150d5531157d156141254915160821b604482015260640161081f565b6000838152600660205260409020600501546001600160a01b031691505b50919050565b60008281526006602052604080822090517f2306f46600000000000000000000000000000000000000000000000000000000815273__$47e4ffaaf323c41735ff299f8946896ce0$__91632306f46691610b05916001600160a01b0387169160040161386a565b602060405180830381865af4158015610b22573d6000803e3d6000fd5b505050506040513d601f19601f82011682018060405250810190610b4691906138ca565b1590505b92915050565b600081815260066020526040902060070154606090819083904210610baa5760405162461bcd60e51b815260206004820152601060248201526f1353d31150d5531157d156141254915160821b604482015260640161081f565b600084815260066020908152604080832080548251818502810185019093528083529192909190830182828015610c0a57602002820191906000526020600020905b81546001600160a01b03168152600190910190602001808311610bec575b505050505090506000815167ffffffffffffffff811115610c2d57610c2d6136b1565b604051908082528060200260200182016040528015610c56578160200160208202803683370190505b50905060005b8251811015610cfb57600660008881526020019081526020016000206001016000848381518110610c8f57610c8f6138e7565b60200260200101516001600160a01b03166001600160a01b0316815260200190815260200160002060009054906101000a900460ff16828281518110610cd757610cd76138e7565b60ff9092166020928302919091019091015280610cf381613945565b915050610c5c565b50909350915050915091565b60008181526006602052604090206007015460609082904210610d5f5760405162461bcd60e51b815260206004820152601060248201526f1353d31150d5531157d156141254915160821b604482015260640161081f565b600083815260066020908152604080832060030180548251818502810185019093528083529192909190830182828015610db857602002820191906000526020600020905b815481526020019060010190808311610da4575b509398975050505050505050565b60008281526006602052604090206007015482904210610e1b5760405162461bcd60e51b815260206004820152601060248201526f1353d31150d5531157d156141254915160821b604482015260640161081f565b6000818152600660205260408082206002015460015491516302571be360e01b8152600481018290529092916001600160a01b0316906302571be390602401602060405180830381865afa158015610e77573d6000803e3d6000fd5b505050506040513d601f19601f82011682018060405250810190610e9b919061384d565b90506001600160a01b038116331480610ed757506001600160a01b038116600090815260076020908152604080832033845290915290205460ff165b80610efc5750600083815260066020819052604090912001546001600160a01b031633145b610f485760405162461bcd60e51b815260206004820152601760248201527f4e4f545f4f574e45525f4f525f434f4e54524f4c4c4552000000000000000000604482015260640161081f565b60008581526006602090815260409182902060050180547fffffffffffffffffffffffff0000000000000000000000000000000000000000166001600160a01b038816908117909155915191825286917f335721b01866dc23fbee8b6b2c7b1e14d6f05c28cd35a2c934239f94095602a091015b60405180910390a25050505050565b600082815260066020526040902060070154829042106110205760405162461bcd60e51b815260206004820152601060248201526f1353d31150d5531157d156141254915160821b604482015260640161081f565b6000818152600660205260408082206002015460015491516302571be360e01b8152600481018290529092916001600160a01b0316906302571be390602401602060405180830381865afa15801561107c573d6000803e3d6000fd5b505050506040513d601f19601f820116820180604052508101906110a0919061384d565b90506001600160a01b0381163314806110dc57506001600160a01b038116600090815260076020908152604080832033845290915290205460ff165b806111015750600083815260066020819052604090912001546001600160a01b031633145b61114d5760405162461bcd60e51b815260206004820152601760248201527f4e4f545f4f574e45525f4f525f434f4e54524f4c4c4552000000000000000000604482015260640161081f565b600085815260066020526040908190206004018590555185907f4247841fd58468a6fb10925898bdd83c426da7b5519ee71597106dfdc675122990610fbc9087815260200190565b600081815260066020526040902060070154819042106111ea5760405162461bcd60e51b815260206004820152601060248201526f1353d31150d5531157d156141254915160821b604482015260640161081f565b6000818152600660205260408082206002015460015491516302571be360e01b8152600481018290529092916001600160a01b0316906302571be390602401602060405180830381865afa158015611246573d6000803e3d6000fd5b505050506040513d601f19601f8201168201806040525081019061126a919061384d565b90506001600160a01b0381163314806112a657506001600160a01b038116600090815260076020908152604080832033845290915290205460ff165b6112f25760405162461bcd60e51b815260206004820152600960248201527f4e4f545f4f574e45520000000000000000000000000000000000000000000000604482015260640161081f565b60008481526006602090815260408083208054825181850281018501909352808352919290919083018282801561135257602002820191906000526020600020905b81546001600160a01b03168152600190910190602001808311611334575b5050505050905060005b8151811015611443576000600660008881526020019081526020016000206001016000848481518110611391576113916138e7565b60200260200101516001600160a01b03166001600160a01b0316815260200190815260200160002060006101000a81548160ff021916908360ff160217905550857fc4c4b4793ac649a3a05ee26afdd6d54122cea2e3298a195a786ab7e899c21e34838381518110611405576114056138e7565b602002602001015160405161142991906001600160a01b0391909116815260200190565b60405180910390a28061143b81613945565b91505061135c565b50600085815260066020526040812061145b916134ec565b60405185907f6b91085369552b61ca16180a741663b69fb6b3b967f7271116521d84e2291dc590600090a25050506000918252506006602090815260408220805460018101825590835291200180547fffffffffffffffffffffffff0000000000000000000000000000000000000000169055565b600082815260066020526040902060070154829042106115255760405162461bcd60e51b815260206004820152601060248201526f1353d31150d5531157d156141254915160821b604482015260640161081f565b6000818152600660205260408082206002015460015491516302571be360e01b8152600481018290529092916001600160a01b0316906302571be390602401602060405180830381865afa158015611581573d6000803e3d6000fd5b505050506040513d601f19601f820116820180604052508101906115a5919061384d565b90506001600160a01b0381163314806115e157506001600160a01b038116600090815260076020908152604080832033845290915290205460ff165b61162d5760405162461bcd60e51b815260206004820152600960248201527f4e4f545f4f574e45520000000000000000000000000000000000000000000000604482015260640161081f565b60008581526006602090815260408083208054825181850281018501909352808352919290919083018282801561168d57602002820191906000526020600020905b81546001600160a01b0316815260019091019060200180831161166f575b50506040517f2306f46600000000000000000000000000000000000000000000000000000000815293945073__$47e4ffaaf323c41735ff299f8946896ce0$__93632306f46693506116f092506001600160a01b038a169150859060040161397d565b602060405180830381865af415801561170d573d6000803e3d6000fd5b505050506040513d601f19601f8201168201806040525081019061173191906138ca565b156118d1576040517fcd23ef4c00000000000000000000000000000000000000000000000000000000815260009073__$47e4ffaaf323c41735ff299f8946896ce0$__9063cd23ef4c90611794906001600160a01b038a1690869060040161397d565b602060405180830381865af41580156117b1573d6000803e3d6000fd5b505050506040513d601f19601f820116820180604052508101906117d591906139ca565b905080611817576040516000815287907fc4c4b4793ac649a3a05ee26afdd6d54122cea2e3298a195a786ab7e899c21e349060200160405180910390a26118cb565b60008781526006602090815260408083206001600160a01b038a168085526001909101835292819020805460ff191690555191825288917fc4c4b4793ac649a3a05ee26afdd6d54122cea2e3298a195a786ab7e899c21e34910160405180910390a26000878152600660205260409020805482908110611899576118996138e7565b600091825260209091200180547fffffffffffffffffffffffff00000000000000000000000000000000000000001690555b50611904565b6040516000815286907fc4c4b4793ac649a3a05ee26afdd6d54122cea2e3298a195a786ab7e899c21e3490602001610a15565b505050505050565b600081815260066020526040812060070154829042106119615760405162461bcd60e51b815260206004820152601060248201526f1353d31150d5531157d156141254915160821b604482015260640161081f565b50506000908152600660208190526040909120015474010000000000000000000000000000000000000000900460ff1690565b600082815260066020526040902060070154829042106119e95760405162461bcd60e51b815260206004820152601060248201526f1353d31150d5531157d156141254915160821b604482015260640161081f565b6000818152600660205260408082206002015460015491516302571be360e01b8152600481018290529092916001600160a01b0316906302571be390602401602060405180830381865afa158015611a45573d6000803e3d6000fd5b505050506040513d601f19601f82011682018060405250810190611a69919061384d565b90506001600160a01b038116331480611aa557506001600160a01b038116600090815260076020908152604080832033845290915290205460ff165b80611aca5750600083815260066020819052604090912001546001600160a01b031633145b611b165760405162461bcd60e51b815260206004820152601760248201527f4e4f545f4f574e45525f4f525f434f4e54524f4c4c4552000000000000000000604482015260640161081f565b6000858152600660205260409020600701548411611b765760405162461bcd60e51b815260206004820152600a60248201527f4241445f45585049525900000000000000000000000000000000000000000000604482015260640161081f565b600085815260066020526040812060070154611b9290866139e3565b905060045481611ba291906139f6565b341015611bf15760405162461bcd60e51b815260206004820152601260248201527f494e53554646494349454e545f45544845520000000000000000000000000000604482015260640161081f565b600086815260066020526040908190206007018690555186907fa620b72378ee464490805a96e25b53e5c0076f0ce2d28f9691ae255a595b3bf390610a159088815260200190565b60008381526006602052604090206007015483904210611c8e5760405162461bcd60e51b815260206004820152601060248201526f1353d31150d5531157d156141254915160821b604482015260640161081f565b6000818152600660205260408082206002015460015491516302571be360e01b8152600481018290529092916001600160a01b0316906302571be390602401602060405180830381865afa158015611cea573d6000803e3d6000fd5b505050506040513d601f19601f82011682018060405250810190611d0e919061384d565b90506001600160a01b038116331480611d4a57506001600160a01b038116600090815260076020908152604080832033845290915290205460ff165b611d965760405162461bcd60e51b815260206004820152600960248201527f4e4f545f4f574e45520000000000000000000000000000000000000000000000604482015260640161081f565b611da08685610a9e565b611dec5760405162461bcd60e51b815260206004820152600b60248201527f484f4f4b5f455849535453000000000000000000000000000000000000000000604482015260640161081f565b600086815260066020908152604080832080546001808201835582865284862090910180547fffffffffffffffffffffffff0000000000000000000000000000000000000000166001600160a01b038b169081179091558086529101835292819020805460ff191660ff8a1690811790915581519384529183019190915287917fc733a2bc621cc97eef6ed4f708f126e72e6acb76c0a1c0461c9dd31f7b9870659101610a15565b60008281526006602052604090206007015482904210611ee95760405162461bcd60e51b815260206004820152601060248201526f1353d31150d5531157d156141254915160821b604482015260640161081f565b6000818152600660205260408082206002015460015491516302571be360e01b8152600481018290529092916001600160a01b0316906302571be390602401602060405180830381865afa158015611f45573d6000803e3d6000fd5b505050506040513d601f19601f82011682018060405250810190611f69919061384d565b90506001600160a01b038116331480611fa557506001600160a01b038116600090815260076020908152604080832033845290915290205460ff165b80611fca5750600083815260066020819052604090912001546001600160a01b031633145b6120165760405162461bcd60e51b815260206004820152601760248201527f4e4f545f4f574e45525f4f525f434f4e54524f4c4c4552000000000000000000604482015260640161081f565b6120208585613488565b61206c5760405162461bcd60e51b815260206004820152600c60248201527f414e494f4e5f4558495354530000000000000000000000000000000000000000604482015260640161081f565b6000858152600660209081526040808320600301805460018101825590845291909220018590555185907f600ffddd29393ca43c0a11fa6b0b7096631364178cb42f9d546c0a2cd22525ee90610fbc9087815260200190565b6002546040516000916001600160a01b03169047908381818185875af1925050503d8060008114612112576040519150601f19603f3d011682016040523d82523d6000602084013e612117565b606091505b50509050806121685760405162461bcd60e51b815260206004820152601360248201527f4554485f5452414e534645525f4641494c454400000000000000000000000000604482015260640161081f565b50565b600082815260066020526040902060070154829042106121c05760405162461bcd60e51b815260206004820152601060248201526f1353d31150d5531157d156141254915160821b604482015260640161081f565b6000818152600660205260408082206002015460015491516302571be360e01b8152600481018290529092916001600160a01b0316906302571be390602401602060405180830381865afa15801561221c573d6000803e3d6000fd5b505050506040513d601f19601f82011682018060405250810190612240919061384d565b90506001600160a01b03811633148061227c57506001600160a01b038116600090815260076020908152604080832033845290915290205460ff165b806122a15750600083815260066020819052604090912001546001600160a01b031633145b6122ed5760405162461bcd60e51b815260206004820152601760248201527f4e4f545f4f574e45525f4f525f434f4e54524f4c4c4552000000000000000000604482015260640161081f565b60005b84518110156124025784818151811061230b5761230b6138e7565b602002602001015173__$47e4ffaaf323c41735ff299f8946896ce0$__636fd8c6859091600660008a81526020019081526020016000206003016040518363ffffffff1660e01b8152600401612362929190613a33565b602060405180830381865af415801561237f573d6000803e3d6000fd5b505050506040513d601f19601f820116820180604052508101906123a391906138ca565b156123f057600660008781526020019081526020016000206003018582815181106123d0576123d06138e7565b602090810291909101810151825460018101845560009384529190922001555b806123fa81613945565b9150506122f0565b50847f580d99949e5d5a02f35dc5b91b800697d53dccb814e200f24f97b4bfbeb8667c85604051610fbc919061364b565b600082815260066020526040902060070154829042106124885760405162461bcd60e51b815260206004820152601060248201526f1353d31150d5531157d156141254915160821b604482015260640161081f565b6000818152600660205260408082206002015460015491516302571be360e01b8152600481018290529092916001600160a01b0316906302571be390602401602060405180830381865afa1580156124e4573d6000803e3d6000fd5b505050506040513d601f19601f82011682018060405250810190612508919061384d565b90506001600160a01b03811633148061254457506001600160a01b038116600090815260076020908152604080832033845290915290205460ff165b6125905760405162461bcd60e51b815260206004820152600960248201527f4e4f545f4f574e45520000000000000000000000000000000000000000000000604482015260640161081f565b600085815260066020526040908190206002018590555185907f4810581adf2c16a86a375dbb1ed89b0b0f7e64d48d24e1948b3dfe6581e4d79590610fbc9087815260200190565b6002546001600160a01b031633146126325760405162461bcd60e51b815260206004820152600760248201527f4e4f545f44455600000000000000000000000000000000000000000000000000604482015260640161081f565b600254604080516001600160a01b03928316815291831660208301527fdec101f106d4fc7c85791843e64b198248c822298e3ed7046231d33f7783d816910160405180910390a1600280547fffffffffffffffffffffffff0000000000000000000000000000000000000000166001600160a01b0392909216919091179055565b6002546040517f70a0823100000000000000000000000000000000000000000000000000000000815230600482018190526001600160a01b03848116936323b872dd9391169084906370a0823190602401602060405180830381865afa158015612721573d6000803e3d6000fd5b505050506040513d601f19601f8201168201806040525081019061274591906139ca565b6040517fffffffff0000000000000000000000000000000000000000000000000000000060e086901b1681526001600160a01b03938416600482015292909116602483015260448201526064016020604051808303816000875af11580156127b1573d6000803e3d6000fd5b505050506040513d601f19601f820116820180604052508101906127d591906138ca565b5050565b6000828152600660205260409020600701548290421061282e5760405162461bcd60e51b815260206004820152601060248201526f1353d31150d5531157d156141254915160821b604482015260640161081f565b6000818152600660205260408082206002015460015491516302571be360e01b8152600481018290529092916001600160a01b0316906302571be390602401602060405180830381865afa15801561288a573d6000803e3d6000fd5b505050506040513d601f19601f820116820180604052508101906128ae919061384d565b90506001600160a01b0381163314806128ea57506001600160a01b038116600090815260076020908152604080832033845290915290205460ff165b8061290f5750600083815260066020819052604090912001546001600160a01b031633145b61295b5760405162461bcd60e51b815260206004820152601760248201527f4e4f545f4f574e45525f4f525f434f4e54524f4c4c4552000000000000000000604482015260640161081f565b6000858152600660209081526040808320600301805482518185028101850190935280835291929091908301828280156129b457602002820191906000526020600020905b8154815260200190600101908083116129a0575b50506040517f6fd8c68500000000000000000000000000000000000000000000000000000000815293945073__$47e4ffaaf323c41735ff299f8946896ce0$__93636fd8c6859350612a0e92508991508590600401613a79565b602060405180830381865af4158015612a2b573d6000803e3d6000fd5b505050506040513d601f19601f82011682018060405250810190612a4f91906138ca565b15612b5f576040517fda92b9ed00000000000000000000000000000000000000000000000000000000815260009073__$47e4ffaaf323c41735ff299f8946896ce0$__9063da92b9ed90612aa99089908690600401613a79565b602060405180830381865af4158015612ac6573d6000803e3d6000fd5b505050506040513d601f19601f82011682018060405250810190612aea91906139ca565b600088815260066020526040902060030180549192509082908110612b1157612b116138e7565b9060005260206000200160009055867f5c379d054844760656a56e062f50208b458cfa0c4427574f5a2828d19602b4e987604051612b5191815260200190565b60405180910390a250611904565b6040517f5adb3bc7000000000000000000000000000000000000000000000000000000008152600481018790526024810186905260440161081f565b3360008181526007602090815260408083206001600160a01b03871680855290835292819020805460ff191686151590811790915590519081529192917f17307eab39ab6107e8899845ad3d59bd9653f200f220920489ca2b5937696c31910160405180910390a35050565b6001546040516302571be360e01b81526004810184905260009182916001600160a01b03909116906302571be390602401602060405180830381865afa158015612c55573d6000803e3d6000fd5b505050506040513d601f19601f82011682018060405250810190612c79919061384d565b6001600160a01b0390811660009081526007602090815260408083209387168352929052205460ff1691505092915050565b60008181526006602052604081206007015482904210612d005760405162461bcd60e51b815260206004820152601060248201526f1353d31150d5531157d156141254915160821b604482015260640161081f565b505060009081526006602052604090206004015490565b60008281526006602052604090206007015482904210612d6c5760405162461bcd60e51b815260206004820152601060248201526f1353d31150d5531157d156141254915160821b604482015260640161081f565b6000818152600660205260408082206002015460015491516302571be360e01b8152600481018290529092916001600160a01b0316906302571be390602401602060405180830381865afa158015612dc8573d6000803e3d6000fd5b505050506040513d601f19601f82011682018060405250810190612dec919061384d565b90506001600160a01b038116331480612e2857506001600160a01b038116600090815260076020908152604080832033845290915290205460ff165b80612e4d5750600083815260066020819052604090912001546001600160a01b031633145b612e995760405162461bcd60e51b815260206004820152601760248201527f4e4f545f4f574e45525f4f525f434f4e54524f4c4c4552000000000000000000604482015260640161081f565b60008581526006602081905260409182902001805486151574010000000000000000000000000000000000000000027fffffffffffffffffffffff00ffffffffffffffffffffffffffffffffffffffff9091161790555185907fe6ccdb52b4954ab2c3e293f1dbfe593e6c5630962a1944bfcf20c5563eeb846290610fbc90871515815260200190565b60008281526006602052604090206007015482904210612f785760405162461bcd60e51b815260206004820152601060248201526f1353d31150d5531157d156141254915160821b604482015260640161081f565b6000818152600660205260408082206002015460015491516302571be360e01b8152600481018290529092916001600160a01b0316906302571be390602401602060405180830381865afa158015612fd4573d6000803e3d6000fd5b505050506040513d601f19601f82011682018060405250810190612ff8919061384d565b90506001600160a01b03811633148061303457506001600160a01b038116600090815260076020908152604080832033845290915290205460ff165b806130595750600083815260066020819052604090912001546001600160a01b031633145b6130a55760405162461bcd60e51b815260206004820152601760248201527f4e4f545f4f574e45525f4f525f434f4e54524f4c4c4552000000000000000000604482015260640161081f565b60008581526006602081815260409283902090910180547fffffffffffffffffffffffff0000000000000000000000000000000000000000166001600160a01b038816908117909155915191825286917fe5108446a6097aab57fd36f346a515a78fddefa87d81662d44e0d7a463f920959101610fbc565b600082815260066020526040902060070154829042106131725760405162461bcd60e51b815260206004820152601060248201526f1353d31150d5531157d156141254915160821b604482015260640161081f565b6000818152600660205260408082206002015460015491516302571be360e01b8152600481018290529092916001600160a01b0316906302571be390602401602060405180830381865afa1580156131ce573d6000803e3d6000fd5b505050506040513d601f19601f820116820180604052508101906131f2919061384d565b90506001600160a01b03811633148061322e57506001600160a01b038116600090815260076020908152604080832033845290915290205460ff165b806132535750600083815260066020819052604090912001546001600160a01b031633145b61329f5760405162461bcd60e51b815260206004820152601760248201527f4e4f545f4f574e45525f4f525f434f4e54524f4c4c4552000000000000000000604482015260640161081f565b60008581526006602090815260409182902060050180547fffffffffffffffffffffffff0000000000000000000000000000000000000000166001600160a01b038816908117909155915191825286917fcb71326aeaad88869e8be8be2893e1119f7617ce4ea2411af127e218909be1f79101610fbc565b6000818152600660205260408120600701548290421061336c5760405162461bcd60e51b815260206004820152601060248201526f1353d31150d5531157d156141254915160821b604482015260640161081f565b5050600090815260066020819052604090912001546001600160a01b031690565b600081815260066020526040812060070154829042106133e25760405162461bcd60e51b815260206004820152601060248201526f1353d31150d5531157d156141254915160821b604482015260640161081f565b6000838152600660205260408082206002015460015491516302571be360e01b8152600481018290529092916001600160a01b0316906302571be390602401602060405180830381865afa15801561343e573d6000803e3d6000fd5b505050506040513d601f19601f82011682018060405250810190613462919061384d565b9050306001600160a01b038216036134805760035493505050610a98565b509392505050565b60008281526006602052604080822090517f6fd8c68500000000000000000000000000000000000000000000000000000000815273__$47e4ffaaf323c41735ff299f8946896ce0$__91636fd8c68591610b05918691600390910190600401613a33565b508054600082559060005260206000209081019061216891905b8082111561351a5760008155600101613506565b5090565b6001600160a01b038116811461216857600080fd5b60008060006060848603121561354857600080fd5b83359250602084013560ff8116811461356057600080fd5b915060408401356135708161351e565b809150509250925092565b60006020828403121561358d57600080fd5b5035919050565b600080604083850312156135a757600080fd5b8235915060208301356135b98161351e565b809150509250929050565b604080825283519082018190526000906020906060840190828701845b828110156136065781516001600160a01b0316845292840192908401906001016135e1565b5050508381038285015284518082528583019183019060005b8181101561363e57835160ff168352928401929184019160010161361f565b5090979650505050505050565b6020808252825182820181905260009190848201906040850190845b8181101561368357835183529284019291840191600101613667565b50909695505050505050565b600080604083850312156136a257600080fd5b50508035926020909101359150565b7f4e487b7100000000000000000000000000000000000000000000000000000000600052604160045260246000fd5b600080604083850312156136f357600080fd5b8235915060208084013567ffffffffffffffff8082111561371357600080fd5b818601915086601f83011261372757600080fd5b813581811115613739576137396136b1565b8060051b6040517fffffffffffffffffffffffffffffffffffffffffffffffffffffffffffffffe0603f8301168101818110858211171561377c5761377c6136b1565b60405291825284820192508381018501918983111561379a57600080fd5b938501935b828510156137b85784358452938501939285019261379f565b8096505050505050509250929050565b6000602082840312156137da57600080fd5b81356137e58161351e565b9392505050565b801515811461216857600080fd5b6000806040838503121561380d57600080fd5b82356138188161351e565b915060208301356135b9816137ec565b6000806040838503121561383b57600080fd5b8235915060208301356135b9816137ec565b60006020828403121561385f57600080fd5b81516137e58161351e565b6000604082016001600160a01b03808616845260206040818601528286548085526060870191508760005282600020945060005b818110156138bc57855485168352600195860195928401920161389e565b509098975050505050505050565b6000602082840312156138dc57600080fd5b81516137e5816137ec565b7f4e487b7100000000000000000000000000000000000000000000000000000000600052603260045260246000fd5b7f4e487b7100000000000000000000000000000000000000000000000000000000600052601160045260246000fd5b60007fffffffffffffffffffffffffffffffffffffffffffffffffffffffffffffffff820361397657613976613916565b5060010190565b6000604082016001600160a01b0380861684526020604081860152828651808552606087019150828801945060005b818110156138bc5785518516835294830194918301916001016139ac565b6000602082840312156139dc57600080fd5b5051919050565b81810381811115610b4a57610b4a613916565b6000817fffffffffffffffffffffffffffffffffffffffffffffffffffffffffffffffff0483118215151615613a2e57613a2e613916565b500290565b60006040820184835260206040818501528185548084526060860191508660005282600020935060005b8181101561363e57845483526001948501949284019201613a5d565b6000604082018483526020604081850152818551808452606086019150828701935060005b8181101561363e57845183529383019391830191600101613a9e56fea2646970667358221220a7e402cd12919dff3daa4fae756a2a8b769051d90f69fc00fa2c9e048319059864736f6c63430008100033",
    "linkReferences": {
      "src/Utils/LibString.sol": {
        "LibString": [
          {
            "start": 4928,
            "length": 20
          },
          {
            "start": 7974,
            "length": 20
          },
          {
            "start": 8141,
            "length": 20
          },
          {
            "start": 11137,
            "length": 20
          },
          {
            "start": 12877,
            "length": 20
          },
          {
            "start": 13035,
            "length": 20
          },
          {
            "start": 15658,
            "length": 20
          }
        ]
      }
    }
  },
  "methodIdentifiers": {
    "Dev()": "01e51ae8",
    "HELIX2()": "b782426e",
    "Molecules(bytes32)": "af6328f6",
    "NAMES()": "05e84aa0",
    "addAnion(bytes32,bytes32)": "6ff24830",
    "alias_(bytes32)": "c5bc4c0b",
    "anion(bytes32)": "0e68b116",
    "basePrice()": "c7876ea4",
    "cation(bytes32)": "f61ccd53",
    "changeDev(address)": "88a8c95c",
    "controller(bytes32)": "dbd4e021",
    "covalence(bytes32)": "34026859",
    "expiry(bytes32)": "d2ec5fca",
    "hook(bytes32,uint8,address)": "51a76442",
    "hooksWithRules(bytes32)": "0aac6625",
    "isApprovedForAll(bytes32,address)": "b0698628",
    "isNotDuplicateAnion(bytes32,bytes32)": "f8c91244",
    "isNotDuplicateHook(bytes32,address)": "049a491c",
    "popAnion(bytes32,bytes32)": "8dcad139",
    "recordExists(bytes32)": "f79fe538",
    "rehook(bytes32,uint8,address)": "015399e6",
    "resolver(bytes32)": "0178b8bf",
    "roothash()": "251c9422",
    "setAlias(bytes32,bytes32)": "1f06e91c",
    "setAnions(bytes32,bytes32[])": "741b4cd0",
    "setApprovalForAll(address,bool)": "a22cb465",
    "setCation(bytes32,bytes32)": "8146970a",
    "setController(bytes32,address)": "d3156905",
    "setCovalence(bytes32,bool)": "d07699aa",
    "setExpiry(bytes32,uint256)": "39de6469",
    "setRecord(bytes32,address)": "d9b76ed4",
    "setResolver(bytes32,address)": "1896f70a",
    "theEnd()": "22b68deb",
    "unhook(bytes32,address)": "241270d5",
    "unhookAll(bytes32)": "21ec2b5b",
    "withdrawEther()": "7362377b",
    "withdrawToken(address)": "89476069"
  },
  "id": 30
}