{
  "abi": [
    {
      "inputs": [
        {
          "internalType": "address",
          "name": "_registry",
          "type": "address"
        },
        {
          "internalType": "address",
          "name": "_helix2",
          "type": "address"
        },
        {
          "internalType": "address",
          "name": "_priceOracle",
          "type": "address"
        }
      ],
      "stateMutability": "nonpayable",
      "type": "constructor"
    },
    {
      "inputs": [],
      "name": "BAD_ANION",
      "type": "error"
    },
    {
      "inputs": [],
      "name": "BAD_HOOK",
      "type": "error"
    },
    {
      "inputs": [],
      "name": "BAD_RULE",
      "type": "error"
    },
    {
      "anonymous": false,
      "inputs": [
        {
          "indexed": true,
          "internalType": "bytes32",
          "name": "molyhash",
          "type": "bytes32"
        },
        {
          "indexed": false,
          "internalType": "address",
          "name": "config",
          "type": "address"
        },
        {
          "indexed": false,
          "internalType": "uint8",
          "name": "rule",
          "type": "uint8"
        }
      ],
      "name": "Hooked",
      "type": "event"
    },
    {
      "anonymous": false,
      "inputs": [
        {
          "indexed": true,
          "internalType": "bytes32",
          "name": "molyhash",
          "type": "bytes32"
        },
        {
          "indexed": false,
          "internalType": "bytes32",
          "name": "anion",
          "type": "bytes32"
        }
      ],
      "name": "NewAnion",
      "type": "event"
    },
    {
      "anonymous": false,
      "inputs": [
        {
          "indexed": true,
          "internalType": "bytes32",
          "name": "molyhash",
          "type": "bytes32"
        },
        {
          "indexed": false,
          "internalType": "bytes32[]",
          "name": "anion",
          "type": "bytes32[]"
        }
      ],
      "name": "NewAnions",
      "type": "event"
    },
    {
      "anonymous": false,
      "inputs": [
        {
          "indexed": true,
          "internalType": "bytes32",
          "name": "molyhash",
          "type": "bytes32"
        },
        {
          "indexed": false,
          "internalType": "bytes32",
          "name": "cation",
          "type": "bytes32"
        }
      ],
      "name": "NewCation",
      "type": "event"
    },
    {
      "anonymous": false,
      "inputs": [
        {
          "indexed": true,
          "internalType": "bytes32",
          "name": "molyhash",
          "type": "bytes32"
        },
        {
          "indexed": false,
          "internalType": "address",
          "name": "controller",
          "type": "address"
        }
      ],
      "name": "NewController",
      "type": "event"
    },
    {
      "anonymous": false,
      "inputs": [
        {
          "indexed": true,
          "internalType": "bytes32",
          "name": "molyhash",
          "type": "bytes32"
        },
        {
          "indexed": false,
          "internalType": "bool",
          "name": "covalence",
          "type": "bool"
        }
      ],
      "name": "NewCovalence",
      "type": "event"
    },
    {
      "anonymous": false,
      "inputs": [
        {
          "indexed": true,
          "internalType": "bytes32",
          "name": "molyhash",
          "type": "bytes32"
        },
        {
          "indexed": false,
          "internalType": "uint256",
          "name": "expiry",
          "type": "uint256"
        }
      ],
      "name": "NewExpiry",
      "type": "event"
    },
    {
      "anonymous": false,
      "inputs": [
        {
          "indexed": true,
          "internalType": "bytes32",
          "name": "molyhash",
          "type": "bytes32"
        },
        {
          "indexed": false,
          "internalType": "address",
          "name": "resolver",
          "type": "address"
        }
      ],
      "name": "NewResolver",
      "type": "event"
    },
    {
      "anonymous": false,
      "inputs": [
        {
          "indexed": true,
          "internalType": "address",
          "name": "previousOwner",
          "type": "address"
        },
        {
          "indexed": true,
          "internalType": "address",
          "name": "newOwner",
          "type": "address"
        }
      ],
      "name": "OwnershipTransferred",
      "type": "event"
    },
    {
      "anonymous": false,
      "inputs": [
        {
          "indexed": true,
          "internalType": "bytes32",
          "name": "molyhash",
          "type": "bytes32"
        },
        {
          "indexed": false,
          "internalType": "bytes32",
          "name": "anion",
          "type": "bytes32"
        }
      ],
      "name": "PopAnion",
      "type": "event"
    },
    {
      "anonymous": false,
      "inputs": [
        {
          "indexed": true,
          "internalType": "bytes32",
          "name": "molyhash",
          "type": "bytes32"
        },
        {
          "indexed": false,
          "internalType": "address",
          "name": "config",
          "type": "address"
        },
        {
          "indexed": false,
          "internalType": "uint8",
          "name": "rule",
          "type": "uint8"
        }
      ],
      "name": "Rehooked",
      "type": "event"
    },
    {
      "anonymous": false,
      "inputs": [
        {
          "indexed": true,
          "internalType": "bytes32",
          "name": "molyhash",
          "type": "bytes32"
        },
        {
          "indexed": false,
          "internalType": "uint8",
          "name": "rule",
          "type": "uint8"
        }
      ],
      "name": "Unhooked",
      "type": "event"
    },
    {
      "anonymous": false,
      "inputs": [
        {
          "indexed": true,
          "internalType": "bytes32",
          "name": "molyhash",
          "type": "bytes32"
        }
      ],
      "name": "UnhookedAll",
      "type": "event"
    },
    {
      "inputs": [],
      "name": "Dev",
      "outputs": [
        {
          "internalType": "address",
          "name": "",
          "type": "address"
        }
      ],
      "stateMutability": "view",
      "type": "function"
    },
    {
      "inputs": [],
      "name": "HELIX2",
      "outputs": [
        {
          "internalType": "contract iHELIX2",
          "name": "",
          "type": "address"
        }
      ],
      "stateMutability": "view",
      "type": "function"
    },
    {
      "inputs": [
        {
          "internalType": "bytes32",
          "name": "",
          "type": "bytes32"
        }
      ],
      "name": "Molecules",
      "outputs": [
        {
          "internalType": "bytes32",
          "name": "_cation",
          "type": "bytes32"
        },
        {
          "internalType": "bytes32",
          "name": "_label",
          "type": "bytes32"
        },
        {
          "internalType": "address",
          "name": "_resolver",
          "type": "address"
        },
        {
          "internalType": "address",
          "name": "_controller",
          "type": "address"
        },
        {
          "internalType": "bool",
          "name": "_covalence",
          "type": "bool"
        },
        {
          "internalType": "uint256",
          "name": "_expiry",
          "type": "uint256"
        }
      ],
      "stateMutability": "view",
      "type": "function"
    },
    {
      "inputs": [],
      "name": "NAMES",
      "outputs": [
        {
          "internalType": "contract iNAME",
          "name": "",
          "type": "address"
        }
      ],
      "stateMutability": "view",
      "type": "function"
    },
    {
      "inputs": [],
      "name": "PRICES",
      "outputs": [
        {
          "internalType": "contract iPriceOracle",
          "name": "",
          "type": "address"
        }
      ],
      "stateMutability": "view",
      "type": "function"
    },
    {
      "inputs": [],
      "name": "Registrar",
      "outputs": [
        {
          "internalType": "address",
          "name": "",
          "type": "address"
        }
      ],
      "stateMutability": "view",
      "type": "function"
    },
    {
      "inputs": [],
      "name": "STORE",
      "outputs": [
        {
          "internalType": "contract iMOLECULE",
          "name": "",
          "type": "address"
        }
      ],
      "stateMutability": "view",
      "type": "function"
    },
    {
      "inputs": [],
      "name": "active",
      "outputs": [
        {
          "internalType": "bool",
          "name": "",
          "type": "bool"
        }
      ],
      "stateMutability": "view",
      "type": "function"
    },
    {
      "inputs": [
        {
          "internalType": "bytes32",
          "name": "molyhash",
          "type": "bytes32"
        },
        {
          "internalType": "bytes32",
          "name": "_anion",
          "type": "bytes32"
        }
      ],
      "name": "addAnion",
      "outputs": [],
      "stateMutability": "nonpayable",
      "type": "function"
    },
    {
      "inputs": [
        {
          "internalType": "bytes32",
          "name": "molyhash",
          "type": "bytes32"
        }
      ],
      "name": "anions",
      "outputs": [
        {
          "internalType": "bytes32[]",
          "name": "",
          "type": "bytes32[]"
        }
      ],
      "stateMutability": "view",
      "type": "function"
    },
    {
      "inputs": [],
      "name": "basePrice",
      "outputs": [
        {
          "internalType": "uint256",
          "name": "",
          "type": "uint256"
        }
      ],
      "stateMutability": "view",
      "type": "function"
    },
    {
      "inputs": [
        {
          "internalType": "bytes32",
          "name": "molyhash",
          "type": "bytes32"
        }
      ],
      "name": "cation",
      "outputs": [
        {
          "internalType": "bytes32",
          "name": "",
          "type": "bytes32"
        }
      ],
      "stateMutability": "view",
      "type": "function"
    },
    {
      "inputs": [
        {
          "internalType": "bytes32",
          "name": "molyhash",
          "type": "bytes32"
        }
      ],
      "name": "controller",
      "outputs": [
        {
          "internalType": "address",
          "name": "",
          "type": "address"
        }
      ],
      "stateMutability": "view",
      "type": "function"
    },
    {
      "inputs": [
        {
          "internalType": "bytes32",
          "name": "molyhash",
          "type": "bytes32"
        }
      ],
      "name": "covalence",
      "outputs": [
        {
          "internalType": "bool",
          "name": "",
          "type": "bool"
        }
      ],
      "stateMutability": "view",
      "type": "function"
    },
    {
      "inputs": [
        {
          "internalType": "bytes32",
          "name": "molyhash",
          "type": "bytes32"
        }
      ],
      "name": "expiry",
      "outputs": [
        {
          "internalType": "uint256",
          "name": "",
          "type": "uint256"
        }
      ],
      "stateMutability": "view",
      "type": "function"
    },
    {
      "inputs": [
        {
          "internalType": "bytes32",
          "name": "molyhash",
          "type": "bytes32"
        },
        {
          "internalType": "address",
          "name": "config",
          "type": "address"
        },
        {
          "internalType": "uint8",
          "name": "rule",
          "type": "uint8"
        }
      ],
      "name": "hook",
      "outputs": [],
      "stateMutability": "nonpayable",
      "type": "function"
    },
    {
      "inputs": [
        {
          "internalType": "bytes32",
          "name": "molyhash",
          "type": "bytes32"
        }
      ],
      "name": "hooksWithRules",
      "outputs": [
        {
          "internalType": "uint8[]",
          "name": "_rules",
          "type": "uint8[]"
        },
        {
          "internalType": "address[]",
          "name": "_hooks",
          "type": "address[]"
        }
      ],
      "stateMutability": "view",
      "type": "function"
    },
    {
      "inputs": [
        {
          "internalType": "bytes32",
          "name": "molyhash",
          "type": "bytes32"
        },
        {
          "internalType": "bytes32",
          "name": "_anion",
          "type": "bytes32"
        }
      ],
      "name": "isNotDuplicateAnion",
      "outputs": [
        {
          "internalType": "bool",
          "name": "",
          "type": "bool"
        }
      ],
      "stateMutability": "view",
      "type": "function"
    },
    {
      "inputs": [
        {
          "internalType": "bytes32",
          "name": "molyhash",
          "type": "bytes32"
        },
        {
          "internalType": "uint8",
          "name": "rule",
          "type": "uint8"
        }
      ],
      "name": "isNotDuplicateRule",
      "outputs": [
        {
          "internalType": "bool",
          "name": "",
          "type": "bool"
        }
      ],
      "stateMutability": "view",
      "type": "function"
    },
    {
      "inputs": [
        {
          "internalType": "bytes32",
          "name": "molyhash",
          "type": "bytes32"
        }
      ],
      "name": "label",
      "outputs": [
        {
          "internalType": "bytes32",
          "name": "",
          "type": "bytes32"
        }
      ],
      "stateMutability": "view",
      "type": "function"
    },
    {
      "inputs": [],
      "name": "owner",
      "outputs": [
        {
          "internalType": "address",
          "name": "",
          "type": "address"
        }
      ],
      "stateMutability": "view",
      "type": "function"
    },
    {
      "inputs": [
        {
          "internalType": "bytes32",
          "name": "molyhash",
          "type": "bytes32"
        },
        {
          "internalType": "bytes32",
          "name": "_anion",
          "type": "bytes32"
        }
      ],
      "name": "popAnion",
      "outputs": [],
      "stateMutability": "nonpayable",
      "type": "function"
    },
    {
      "inputs": [
        {
          "internalType": "bytes32",
          "name": "molyhash",
          "type": "bytes32"
        }
      ],
      "name": "recordExists",
      "outputs": [
        {
          "internalType": "bool",
          "name": "",
          "type": "bool"
        }
      ],
      "stateMutability": "view",
      "type": "function"
    },
    {
      "inputs": [
        {
          "internalType": "bytes32",
          "name": "molyhash",
          "type": "bytes32"
        },
        {
          "internalType": "bytes32",
          "name": "_cation",
          "type": "bytes32"
        }
      ],
      "name": "register",
      "outputs": [],
      "stateMutability": "nonpayable",
      "type": "function"
    },
    {
      "inputs": [
        {
          "internalType": "bytes32",
          "name": "molyhash",
          "type": "bytes32"
        },
        {
          "internalType": "address",
          "name": "config",
          "type": "address"
        },
        {
          "internalType": "uint8",
          "name": "rule",
          "type": "uint8"
        }
      ],
      "name": "rehook",
      "outputs": [],
      "stateMutability": "nonpayable",
      "type": "function"
    },
    {
      "inputs": [
        {
          "internalType": "bytes32",
          "name": "molyhash",
          "type": "bytes32"
        },
        {
          "internalType": "uint256",
          "name": "_expiry",
          "type": "uint256"
        }
      ],
      "name": "renew",
      "outputs": [],
      "stateMutability": "payable",
      "type": "function"
    },
    {
      "inputs": [
        {
          "internalType": "bytes32",
          "name": "molyhash",
          "type": "bytes32"
        }
      ],
      "name": "resolver",
      "outputs": [
        {
          "internalType": "address",
          "name": "",
          "type": "address"
        }
      ],
      "stateMutability": "view",
      "type": "function"
    },
    {
      "inputs": [],
      "name": "roothash",
      "outputs": [
        {
          "internalType": "bytes32",
          "name": "",
          "type": "bytes32"
        }
      ],
      "stateMutability": "view",
      "type": "function"
    },
    {
      "inputs": [
        {
          "internalType": "bytes32",
          "name": "molyhash",
          "type": "bytes32"
        },
        {
          "internalType": "bytes32[]",
          "name": "_anions",
          "type": "bytes32[]"
        }
      ],
      "name": "setAnions",
      "outputs": [],
      "stateMutability": "nonpayable",
      "type": "function"
    },
    {
      "inputs": [
        {
          "internalType": "bytes32",
          "name": "molyhash",
          "type": "bytes32"
        },
        {
          "internalType": "bytes32",
          "name": "_cation",
          "type": "bytes32"
        }
      ],
      "name": "setCation",
      "outputs": [],
      "stateMutability": "nonpayable",
      "type": "function"
    },
    {
      "inputs": [
        {
          "internalType": "address",
          "name": "_helix2",
          "type": "address"
        },
        {
          "internalType": "address",
          "name": "_priceOracle",
          "type": "address"
        },
        {
          "internalType": "address",
          "name": "_store",
          "type": "address"
        }
      ],
      "name": "setConfig",
      "outputs": [],
      "stateMutability": "nonpayable",
      "type": "function"
    },
    {
      "inputs": [
        {
          "internalType": "bytes32",
          "name": "molyhash",
          "type": "bytes32"
        },
        {
          "internalType": "address",
          "name": "_controller",
          "type": "address"
        }
      ],
      "name": "setController",
      "outputs": [],
      "stateMutability": "nonpayable",
      "type": "function"
    },
    {
      "inputs": [
        {
          "internalType": "bytes32",
          "name": "molyhash",
          "type": "bytes32"
        },
        {
          "internalType": "bool",
          "name": "_covalence",
          "type": "bool"
        }
      ],
      "name": "setCovalence",
      "outputs": [],
      "stateMutability": "nonpayable",
      "type": "function"
    },
    {
      "inputs": [
        {
          "internalType": "bytes32",
          "name": "molyhash",
          "type": "bytes32"
        },
        {
          "internalType": "uint256",
          "name": "_expiry",
          "type": "uint256"
        }
      ],
      "name": "setExpiry",
      "outputs": [],
      "stateMutability": "nonpayable",
      "type": "function"
    },
    {
      "inputs": [
        {
          "internalType": "bytes4",
          "name": "sig",
          "type": "bytes4"
        },
        {
          "internalType": "bool",
          "name": "value",
          "type": "bool"
        }
      ],
      "name": "setInterface",
      "outputs": [],
      "stateMutability": "payable",
      "type": "function"
    },
    {
      "inputs": [
        {
          "internalType": "bytes32",
          "name": "molyhash",
          "type": "bytes32"
        },
        {
          "internalType": "bytes32",
          "name": "_label",
          "type": "bytes32"
        }
      ],
      "name": "setLabel",
      "outputs": [],
      "stateMutability": "nonpayable",
      "type": "function"
    },
    {
      "inputs": [
        {
          "internalType": "bytes32",
          "name": "molyhash",
          "type": "bytes32"
        },
        {
          "internalType": "address",
          "name": "_resolver",
          "type": "address"
        }
      ],
      "name": "setResolver",
      "outputs": [],
      "stateMutability": "nonpayable",
      "type": "function"
    },
    {
      "inputs": [
        {
          "internalType": "bytes4",
          "name": "",
          "type": "bytes4"
        }
      ],
      "name": "supportsInterface",
      "outputs": [
        {
          "internalType": "bool",
          "name": "",
          "type": "bool"
        }
      ],
      "stateMutability": "view",
      "type": "function"
    },
    {
      "inputs": [],
      "name": "theEnd",
      "outputs": [
        {
          "internalType": "uint256",
          "name": "",
          "type": "uint256"
        }
      ],
      "stateMutability": "view",
      "type": "function"
    },
    {
      "inputs": [],
      "name": "toggleActive",
      "outputs": [],
      "stateMutability": "nonpayable",
      "type": "function"
    },
    {
      "inputs": [
        {
          "internalType": "address",
          "name": "newDev",
          "type": "address"
        }
      ],
      "name": "transferOwnership",
      "outputs": [],
      "stateMutability": "nonpayable",
      "type": "function"
    },
    {
      "inputs": [
        {
          "internalType": "bytes32",
          "name": "molyhash",
          "type": "bytes32"
        },
        {
          "internalType": "uint8",
          "name": "rule",
          "type": "uint8"
        }
      ],
      "name": "unhook",
      "outputs": [],
      "stateMutability": "nonpayable",
      "type": "function"
    },
    {
      "inputs": [
        {
          "internalType": "bytes32",
          "name": "molyhash",
          "type": "bytes32"
        }
      ],
      "name": "unhookAll",
      "outputs": [],
      "stateMutability": "nonpayable",
      "type": "function"
    }
  ],
  "bytecode": {
    "object": "0x60806040526004805460ff60a01b1916600160a01b1790556703782dace9d900006009553480156200003057600080fd5b506040516200548238038062005482833981016040819052620000539162000211565b60048054336001600160a01b03199182161782556000805482166001600160a01b03868116918217909255600180549093169187169190911790915560408051633215476b60e11b81529051919263642a8ed69282820192608092908290030181865afa158015620000c9573d6000803e3d6000fd5b505050506040513d601f19601f82011682018060405250810190620000ef919062000292565b60026020020151600655600380546001600160a01b0319166001600160a01b0383169081179091556040805163bd9a548b60e01b8152905163bd9a548b916004808201926080929091908290030181865afa15801562000153573d6000803e3d6000fd5b505050506040513d601f19601f8201168201806040525081019062000179919062000292565b6040015160075550506005602052507f4bcc8a24ccebcb02e06809ffdc3dbdc56f736cf28155948650f9bec809bea48e8054600160ff1991821681179092556307f5828d60e41b6000527f744f038481816166db36c1c96c51289c139e33b5b050399f9ec0fad34d16e76880549091169091179055620002f9565b80516001600160a01b03811681146200020c57600080fd5b919050565b6000806000606084860312156200022757600080fd5b6200023284620001f4565b92506200024260208501620001f4565b91506200025260408501620001f4565b90509250925092565b604051608081016001600160401b03811182821017156200028c57634e487b7160e01b600052604160045260246000fd5b60405290565b600060808284031215620002a557600080fd5b82601f830112620002b557600080fd5b620002bf6200025b565b806080840185811115620002d257600080fd5b845b81811015620002ee578051845260209384019301620002d4565b509095945050505050565b61517980620003096000396000f3fe6080604052600436106102dc5760003560e01c80638146970a11610184578063d07699aa116100d6578063e79eaa261161008a578063f61ccd5311610064578063f61ccd53146108a8578063f79fe538146108c8578063f8c91244146108e857600080fd5b8063e79eaa2614610855578063f2fde38b14610875578063f544d82f1461089557600080fd5b8063d3156905116100bb578063d3156905146107f5578063dbd4e02114610815578063deee4da91461083557600080fd5b8063d07699aa146107b5578063d2ec5fca146107d557600080fd5b8063af6328f611610138578063b9f37c8611610112578063b9f37c861461076c578063c0a43a7c1461078c578063c7876ea41461079f57600080fd5b8063af6328f61461067a578063b612e9b91461072c578063b782426e1461074c57600080fd5b8063849a799c11610169578063849a799c1461061c5780638da5cb5b1461063c5780638dcad1391461065a57600080fd5b80638146970a146105dc57806383669726146105fc57600080fd5b806322b68deb1161023d57806334026859116101f1578063622dad7f116101cb578063622dad7f1461056f5780636ff248301461059c578063741b4cd0146105bc57600080fd5b8063340268591461050f57806339de64691461052f578063507f14651461054f57600080fd5b806329c68dc11161022257806329c68dc1146104ba5780632f926732146104cf5780633141e25b146104ef57600080fd5b806322b68deb1461048e578063251c9422146104a457600080fd5b80630aac6625116102945780631eabcd34116102795780631eabcd34146104205780631fc4859e1461044057806321ec2b5b1461046e57600080fd5b80630aac6625146103d05780631896f70a146103fe57600080fd5b806301ffc9a7116102c557806301ffc9a71461033e57806302fb0c5e1461037e57806305e84aa0146103b057600080fd5b80630178b8bf146102e157806301e51ae81461031e575b600080fd5b3480156102ed57600080fd5b506103016102fc366004614961565b610908565b6040516001600160a01b0390911681526020015b60405180910390f35b34801561032a57600080fd5b50600454610301906001600160a01b031681565b34801561034a57600080fd5b5061036e6103593660046149af565b60056020526000908152604090205460ff1681565b6040519015158152602001610315565b34801561038a57600080fd5b5060045461036e9074010000000000000000000000000000000000000000900460ff1681565b3480156103bc57600080fd5b50600154610301906001600160a01b031681565b3480156103dc57600080fd5b506103f06103eb366004614961565b610a5d565b6040516103159291906149d1565b34801561040a57600080fd5b5061041e610419366004614a70565b610bb2565b005b34801561042c57600080fd5b50600354610301906001600160a01b031681565b34801561044c57600080fd5b5061046061045b366004614961565b610e54565b604051908152602001610315565b34801561047a57600080fd5b5061041e610489366004614961565b610f9a565b34801561049a57600080fd5b5061046060095481565b3480156104b057600080fd5b5061046060065481565b3480156104c657600080fd5b5061041e61121f565b3480156104db57600080fd5b5061041e6104ea366004614aa0565b6112c6565b3480156104fb57600080fd5b5061041e61050a366004614ac2565b6114a0565b34801561051b57600080fd5b5061036e61052a366004614961565b611790565b34801561053b57600080fd5b5061041e61054a366004614aa0565b6118d6565b34801561055b57600080fd5b50600254610301906001600160a01b031681565b34801561057b57600080fd5b5061058f61058a366004614961565b611a9b565b6040516103159190614b0d565b3480156105a857600080fd5b5061041e6105b7366004614aa0565b611be5565b3480156105c857600080fd5b5061041e6105d7366004614bfe565b611f69565b3480156105e857600080fd5b5061041e6105f7366004614aa0565b6122ee565b34801561060857600080fd5b5061041e610617366004614caf565b612660565b34801561062857600080fd5b5061041e610637366004614caf565b612b1f565b34801561064857600080fd5b506004546001600160a01b0316610301565b34801561066657600080fd5b5061041e610675366004614aa0565b612ebe565b34801561068657600080fd5b506106f0610695366004614961565b600a6020526000908152604090206002810154600482015460058301546006840154600790940154929391926001600160a01b03918216929182169174010000000000000000000000000000000000000000900460ff169086565b6040805196875260208701959095526001600160a01b0393841694860194909452911660608401521515608083015260a082015260c001610315565b34801561073857600080fd5b5061041e610747366004614ce6565b6132dd565b34801561075857600080fd5b50600054610301906001600160a01b031681565b34801561077857600080fd5b50600854610301906001600160a01b031681565b61041e61079a366004614d19565b6136f9565b3480156107ab57600080fd5b5061046060075481565b3480156107c157600080fd5b5061041e6107d0366004614d45565b613827565b3480156107e157600080fd5b506104606107f0366004614961565b613ab7565b34801561080157600080fd5b5061041e610810366004614a70565b613b2b565b34801561082157600080fd5b50610301610830366004614961565b613dc2565b34801561084157600080fd5b5061041e610850366004614aa0565b613eb3565b34801561086157600080fd5b5061036e610870366004614ce6565b613f87565b34801561088157600080fd5b5061041e610890366004614d6a565b61402f565b61041e6108a3366004614aa0565b6140fd565b3480156108b457600080fd5b506104606108c3366004614961565b614550565b3480156108d457600080fd5b5061036e6108e3366004614961565b614717565b3480156108f457600080fd5b5061036e610903366004614aa0565b61478d565b6002546040516369762fe560e11b81526004810183905260009183916001600160a01b039091169063d2ec5fca90602401602060405180830381865afa158015610956573d6000803e3d6000fd5b505050506040513d601f19601f8201168201806040525081019061097a9190614d87565b42106109cd5760405162461bcd60e51b815260206004820152601060248201527f4d4f4c4543554c455f455850495245440000000000000000000000000000000060448201526064015b60405180910390fd5b6002546040517f0178b8bf000000000000000000000000000000000000000000000000000000008152600481018590526001600160a01b0390911690630178b8bf906024015b602060405180830381865afa158015610a30573d6000803e3d6000fd5b505050506040513d601f19601f82011682018060405250810190610a549190614da0565b91505b50919050565b6002546040516369762fe560e11b815260048101839052606091829184916001600160a01b03169063d2ec5fca90602401602060405180830381865afa158015610aab573d6000803e3d6000fd5b505050506040513d601f19601f82011682018060405250810190610acf9190614d87565b4210610b1d5760405162461bcd60e51b815260206004820152601060248201527f4d4f4c4543554c455f455850495245440000000000000000000000000000000060448201526064016109c4565b6002546040517f0aac6625000000000000000000000000000000000000000000000000000000008152600481018690526001600160a01b0390911690630aac662590602401600060405180830381865afa158015610b7f573d6000803e3d6000fd5b505050506040513d6000823e601f3d908101601f19168201604052610ba79190810190614e2c565b909590945092505050565b60025460405163f61ccd5360e01b81526004810184905283916000916001600160a01b039091169063f61ccd5390602401602060405180830381865afa158015610c00573d6000803e3d6000fd5b505050506040513d601f19601f82011682018060405250810190610c249190614d87565b6001546040516302571be360e01b8152600481018390529192506000916001600160a01b03909116906302571be390602401602060405180830381865afa158015610c73573d6000803e3d6000fd5b505050506040513d601f19601f82011682018060405250810190610c979190614da0565b6008549091506001600160a01b0316331480610cbb57506001600160a01b03811633145b80610d43575060025460405163dbd4e02160e01b8152600481018590526001600160a01b039091169063dbd4e02190602401602060405180830381865afa158015610d0a573d6000803e3d6000fd5b505050506040513d601f19601f82011682018060405250810190610d2e9190614da0565b6001600160a01b0316336001600160a01b0316145b610d8f5760405162461bcd60e51b815260206004820152600e60248201527f4e4f545f415554484f524953454400000000000000000000000000000000000060448201526064016109c4565b6002546040517f1896f70a000000000000000000000000000000000000000000000000000000008152600481018790526001600160a01b03868116602483015290911690631896f70a90604401600060405180830381600087803b158015610df657600080fd5b505af1158015610e0a573d6000803e3d6000fd5b50506040516001600160a01b03871681528792507f335721b01866dc23fbee8b6b2c7b1e14d6f05c28cd35a2c934239f94095602a091506020015b60405180910390a25050505050565b6002546040516369762fe560e11b81526004810183905260009183916001600160a01b039091169063d2ec5fca90602401602060405180830381865afa158015610ea2573d6000803e3d6000fd5b505050506040513d601f19601f82011682018060405250810190610ec69190614d87565b4210610f145760405162461bcd60e51b815260206004820152601060248201527f4d4f4c4543554c455f455850495245440000000000000000000000000000000060448201526064016109c4565b6002546040517f1fc4859e000000000000000000000000000000000000000000000000000000008152600481018590526001600160a01b0390911690631fc4859e90602401602060405180830381865afa158015610f76573d6000803e3d6000fd5b505050506040513d601f19601f82011682018060405250810190610a549190614d87565b60025460405163f61ccd5360e01b81526004810183905282916000916001600160a01b039091169063f61ccd5390602401602060405180830381865afa158015610fe8573d6000803e3d6000fd5b505050506040513d601f19601f8201168201806040525081019061100c9190614d87565b6001546040516302571be360e01b8152600481018390529192506000916001600160a01b03909116906302571be390602401602060405180830381865afa15801561105b573d6000803e3d6000fd5b505050506040513d601f19601f8201168201806040525081019061107f9190614da0565b6008549091506001600160a01b03163314806110a357506001600160a01b03811633145b8061112b575060025460405163dbd4e02160e01b8152600481018590526001600160a01b039091169063dbd4e02190602401602060405180830381865afa1580156110f2573d6000803e3d6000fd5b505050506040513d601f19601f820116820180604052508101906111169190614da0565b6001600160a01b0316336001600160a01b0316145b6111775760405162461bcd60e51b815260206004820152600e60248201527f4e4f545f415554484f524953454400000000000000000000000000000000000060448201526064016109c4565b6002546040517f21ec2b5b000000000000000000000000000000000000000000000000000000008152600481018690526001600160a01b03909116906321ec2b5b90602401600060405180830381600087803b1580156111d657600080fd5b505af11580156111ea573d6000803e3d6000fd5b50506040518692507f6b91085369552b61ca16180a741663b69fb6b3b967f7271116521d84e2291dc59150600090a250505050565b6004546001600160a01b031633146112795760405162461bcd60e51b815260206004820152600760248201527f4e4f545f4445560000000000000000000000000000000000000000000000000060448201526064016109c4565b600480547fffffffffffffffffffffff00ffffffffffffffffffffffffffffffffffffffff8116740100000000000000000000000000000000000000009182900460ff1615909102179055565b6008546001600160a01b031633146113205760405162461bcd60e51b815260206004820152600d60248201527f4e4f545f5245474953545241520000000000000000000000000000000000000060448201526064016109c4565b6001546040516302571be360e01b8152600481018390526000916001600160a01b0316906302571be390602401602060405180830381865afa15801561136a573d6000803e3d6000fd5b505050506040513d601f19601f8201168201806040525081019061138e9190614da0565b6001600160a01b0316036113e45760405162461bcd60e51b815260206004820152600b60248201527f43414e4e4f545f4255524e00000000000000000000000000000000000000000060448201526064016109c4565b6002546040517f8146970a00000000000000000000000000000000000000000000000000000000815260048101849052602481018390526001600160a01b0390911690638146970a90604401600060405180830381600087803b15801561144a57600080fd5b505af115801561145e573d6000803e3d6000fd5b50505050817f4810581adf2c16a86a375dbb1ed89b0b0f7e64d48d24e1948b3dfe6581e4d7958260405161149491815260200190565b60405180910390a25050565b6004546001600160a01b031633146114fa5760405162461bcd60e51b815260206004820152600760248201527f4e4f545f4445560000000000000000000000000000000000000000000000000060448201526064016109c4565b6001600160a01b0383161561168357600080547fffffffffffffffffffffffff0000000000000000000000000000000000000000166001600160a01b038516908117909155604080517f642a8ed6000000000000000000000000000000000000000000000000000000008152905163642a8ed6916004808201926080929091908290030181865afa158015611593573d6000803e3d6000fd5b505050506040513d601f19601f820116820180604052508101906115b79190614ef1565b60409081015160065560005481517f4d3f733400000000000000000000000000000000000000000000000000000000815291516001600160a01b0390911691634d3f73349160048083019260809291908290030181865afa158015611620573d6000803e3d6000fd5b505050506040513d601f19601f820116820180604052508101906116449190614f80565b60026020020151600880547fffffffffffffffffffffffff0000000000000000000000000000000000000000166001600160a01b039092169190911790555b6001600160a01b038116156116c657600280547fffffffffffffffffffffffff0000000000000000000000000000000000000000166001600160a01b0383161790555b6001600160a01b0382161561178b57600380547fffffffffffffffffffffffff0000000000000000000000000000000000000000166001600160a01b038416908117909155604080517fbd9a548b000000000000000000000000000000000000000000000000000000008152905163bd9a548b916004808201926080929091908290030181865afa15801561175f573d6000803e3d6000fd5b505050506040513d601f19601f820116820180604052508101906117839190614ef1565b604001516007555b505050565b6002546040516369762fe560e11b81526004810183905260009183916001600160a01b039091169063d2ec5fca90602401602060405180830381865afa1580156117de573d6000803e3d6000fd5b505050506040513d601f19601f820116820180604052508101906118029190614d87565b42106118505760405162461bcd60e51b815260206004820152601060248201527f4d4f4c4543554c455f455850495245440000000000000000000000000000000060448201526064016109c4565b6002546040517f34026859000000000000000000000000000000000000000000000000000000008152600481018590526001600160a01b0390911690633402685990602401602060405180830381865afa1580156118b2573d6000803e3d6000fd5b505050506040513d601f19601f82011682018060405250810190610a549190614fde565b6008546001600160a01b031633146119305760405162461bcd60e51b815260206004820152600d60248201527f4e4f545f5245474953545241520000000000000000000000000000000000000060448201526064016109c4565b6002546040516369762fe560e11b8152600481018490526001600160a01b039091169063d2ec5fca90602401602060405180830381865afa158015611979573d6000803e3d6000fd5b505050506040513d601f19601f8201168201806040525081019061199d9190614d87565b81116119eb5760405162461bcd60e51b815260206004820152600a60248201527f4241445f4558504952590000000000000000000000000000000000000000000060448201526064016109c4565b6002546040517f39de646900000000000000000000000000000000000000000000000000000000815260048101849052602481018390526001600160a01b03909116906339de646990604401600060405180830381600087803b158015611a5157600080fd5b505af1158015611a65573d6000803e3d6000fd5b50505050817fa620b72378ee464490805a96e25b53e5c0076f0ce2d28f9691ae255a595b3bf38260405161149491815260200190565b6002546040516369762fe560e11b81526004810183905260609183916001600160a01b039091169063d2ec5fca90602401602060405180830381865afa158015611ae9573d6000803e3d6000fd5b505050506040513d601f19601f82011682018060405250810190611b0d9190614d87565b4210611b5b5760405162461bcd60e51b815260206004820152601060248201527f4d4f4c4543554c455f455850495245440000000000000000000000000000000060448201526064016109c4565b6002546040517f622dad7f000000000000000000000000000000000000000000000000000000008152600481018590526001600160a01b039091169063622dad7f90602401600060405180830381865afa158015611bbd573d6000803e3d6000fd5b505050506040513d6000823e601f3d908101601f19168201604052610a549190810190614ffb565b6002546040516369762fe560e11b81526004810184905283916001600160a01b03169063d2ec5fca90602401602060405180830381865afa158015611c2e573d6000803e3d6000fd5b505050506040513d601f19601f82011682018060405250810190611c529190614d87565b4210611ca05760405162461bcd60e51b815260206004820152601060248201527f4d4f4c4543554c455f455850495245440000000000000000000000000000000060448201526064016109c4565b60025460405163f61ccd5360e01b8152600481018390526000916001600160a01b03169063f61ccd5390602401602060405180830381865afa158015611cea573d6000803e3d6000fd5b505050506040513d601f19601f82011682018060405250810190611d0e9190614d87565b6001546040516302571be360e01b8152600481018390529192506000916001600160a01b03909116906302571be390602401602060405180830381865afa158015611d5d573d6000803e3d6000fd5b505050506040513d601f19601f82011682018060405250810190611d819190614da0565b90506001600160a01b038116331480611e17575060025460405163dbd4e02160e01b8152600481018590526001600160a01b039091169063dbd4e02190602401602060405180830381865afa158015611dde573d6000803e3d6000fd5b505050506040513d601f19601f82011682018060405250810190611e029190614da0565b6001600160a01b0316336001600160a01b0316145b611e635760405162461bcd60e51b815260206004820152601760248201527f4e4f545f4f574e45525f4f525f434f4e54524f4c4c455200000000000000000060448201526064016109c4565b611e6d858561478d565b611eb95760405162461bcd60e51b815260206004820152600c60248201527f414e494f4e5f455849535453000000000000000000000000000000000000000060448201526064016109c4565b6002546040517f6ff2483000000000000000000000000000000000000000000000000000000000815260048101879052602481018690526001600160a01b0390911690636ff2483090604401600060405180830381600087803b158015611f1f57600080fd5b505af1158015611f33573d6000803e3d6000fd5b50505050847f600ffddd29393ca43c0a11fa6b0b7096631364178cb42f9d546c0a2cd22525ee85604051610e4591815260200190565b60025460405163f61ccd5360e01b81526004810184905283916000916001600160a01b039091169063f61ccd5390602401602060405180830381865afa158015611fb7573d6000803e3d6000fd5b505050506040513d601f19601f82011682018060405250810190611fdb9190614d87565b6001546040516302571be360e01b8152600481018390529192506000916001600160a01b03909116906302571be390602401602060405180830381865afa15801561202a573d6000803e3d6000fd5b505050506040513d601f19601f8201168201806040525081019061204e9190614da0565b6008549091506001600160a01b031633148061207257506001600160a01b03811633145b806120fa575060025460405163dbd4e02160e01b8152600481018590526001600160a01b039091169063dbd4e02190602401602060405180830381865afa1580156120c1573d6000803e3d6000fd5b505050506040513d601f19601f820116820180604052508101906120e59190614da0565b6001600160a01b0316336001600160a01b0316145b6121465760405162461bcd60e51b815260206004820152600e60248201527f4e4f545f415554484f524953454400000000000000000000000000000000000060448201526064016109c4565b6002546040517f622dad7f000000000000000000000000000000000000000000000000000000008152600481018790526000916001600160a01b03169063622dad7f90602401600060405180830381865afa1580156121a9573d6000803e3d6000fd5b505050506040513d6000823e601f3d908101601f191682016040526121d19190810190614ffb565b905060005b85518110156122ad5761220b828783815181106121f5576121f5614f51565b602002602001015161482d90919063ffffffff16565b61229b5760025486516001600160a01b0390911690636ff2483090899089908590811061223a5761223a614f51565b60200260200101516040518363ffffffff1660e01b8152600401612268929190918252602082015260400190565b600060405180830381600087803b15801561228257600080fd5b505af1158015612296573d6000803e3d6000fd5b505050505b806122a5816150bb565b9150506121d6565b50857f580d99949e5d5a02f35dc5b91b800697d53dccb814e200f24f97b4bfbeb8667c866040516122de9190614b0d565b60405180910390a2505050505050565b6002546040516369762fe560e11b81526004810184905283916001600160a01b03169063d2ec5fca90602401602060405180830381865afa158015612337573d6000803e3d6000fd5b505050506040513d601f19601f8201168201806040525081019061235b9190614d87565b42106123a95760405162461bcd60e51b815260206004820152601060248201527f4d4f4c4543554c455f455850495245440000000000000000000000000000000060448201526064016109c4565b60015460025460405163f61ccd5360e01b8152600481018490526000926001600160a01b03908116926302571be39291169063f61ccd5390602401602060405180830381865afa158015612401573d6000803e3d6000fd5b505050506040513d601f19601f820116820180604052508101906124259190614d87565b6040518263ffffffff1660e01b815260040161244391815260200190565b602060405180830381865afa158015612460573d6000803e3d6000fd5b505050506040513d601f19601f820116820180604052508101906124849190614da0565b90506001600160a01b03811633146124de5760405162461bcd60e51b815260206004820152600960248201527f4e4f545f4f574e4552000000000000000000000000000000000000000000000060448201526064016109c4565b6001546040516302571be360e01b8152600481018590526000916001600160a01b0316906302571be390602401602060405180830381865afa158015612528573d6000803e3d6000fd5b505050506040513d601f19601f8201168201806040525081019061254c9190614da0565b6001600160a01b0316036125a25760405162461bcd60e51b815260206004820152600b60248201527f43414e4e4f545f4255524e00000000000000000000000000000000000000000060448201526064016109c4565b6002546040517f8146970a00000000000000000000000000000000000000000000000000000000815260048101869052602481018590526001600160a01b0390911690638146970a90604401600060405180830381600087803b15801561260857600080fd5b505af115801561261c573d6000803e3d6000fd5b50505050837f4810581adf2c16a86a375dbb1ed89b0b0f7e64d48d24e1948b3dfe6581e4d7958460405161265291815260200190565b60405180910390a250505050565b6002546040516369762fe560e11b81526004810185905284916001600160a01b03169063d2ec5fca90602401602060405180830381865afa1580156126a9573d6000803e3d6000fd5b505050506040513d601f19601f820116820180604052508101906126cd9190614d87565b421061271b5760405162461bcd60e51b815260206004820152601060248201527f4d4f4c4543554c455f455850495245440000000000000000000000000000000060448201526064016109c4565b60025460405163f61ccd5360e01b8152600481018390526000916001600160a01b03169063f61ccd5390602401602060405180830381865afa158015612765573d6000803e3d6000fd5b505050506040513d601f19601f820116820180604052508101906127899190614d87565b6001546040516302571be360e01b8152600481018390529192506000916001600160a01b03909116906302571be390602401602060405180830381865afa1580156127d8573d6000803e3d6000fd5b505050506040513d601f19601f820116820180604052508101906127fc9190614da0565b90506001600160a01b038116331480612892575060025460405163dbd4e02160e01b8152600481018590526001600160a01b039091169063dbd4e02190602401602060405180830381865afa158015612859573d6000803e3d6000fd5b505050506040513d601f19601f8201168201806040525081019061287d9190614da0565b6001600160a01b0316336001600160a01b0316145b6128de5760405162461bcd60e51b815260206004820152601760248201527f4e4f545f4f574e45525f4f525f434f4e54524f4c4c455200000000000000000060448201526064016109c4565b6002546040517f0aac66250000000000000000000000000000000000000000000000000000000081526004810188905260009182916001600160a01b0390911690630aac662590602401600060405180830381865afa158015612945573d6000803e3d6000fd5b505050506040513d6000823e601f3d908101601f1916820160405261296d9190810190614e2c565b909250905061297f60ff871683614880565b15612ae357600061299360ff8816846148cf565b9050876001600160a01b03168282815181106129b1576129b1614f51565b60200260200101516001600160a01b031603612a0f5760405162461bcd60e51b815260206004820152600b60248201527f52554c455f45584953545300000000000000000000000000000000000000000060448201526064016109c4565b6002546040517f83669726000000000000000000000000000000000000000000000000000000008152600481018b90526001600160a01b038a8116602483015260ff8a16604483015290911690638366972690606401600060405180830381600087803b158015612a7f57600080fd5b505af1158015612a93573d6000803e3d6000fd5b5050604080516001600160a01b038c16815260ff8b1660208201528c93507fe43a78ddf6157361fe34d04905786138f88d3eda20b1f7dc0e2c619f9267310092500160405180910390a250612b15565b6040517f7b4e5bfe00000000000000000000000000000000000000000000000000000000815260040160405180910390fd5b5050505050505050565b6002546040516369762fe560e11b81526004810185905284916001600160a01b03169063d2ec5fca90602401602060405180830381865afa158015612b68573d6000803e3d6000fd5b505050506040513d601f19601f82011682018060405250810190612b8c9190614d87565b4210612bda5760405162461bcd60e51b815260206004820152601060248201527f4d4f4c4543554c455f455850495245440000000000000000000000000000000060448201526064016109c4565b60025460405163f61ccd5360e01b8152600481018390526000916001600160a01b03169063f61ccd5390602401602060405180830381865afa158015612c24573d6000803e3d6000fd5b505050506040513d601f19601f82011682018060405250810190612c489190614d87565b6001546040516302571be360e01b8152600481018390529192506000916001600160a01b03909116906302571be390602401602060405180830381865afa158015612c97573d6000803e3d6000fd5b505050506040513d601f19601f82011682018060405250810190612cbb9190614da0565b90506001600160a01b038116331480612d51575060025460405163dbd4e02160e01b8152600481018590526001600160a01b039091169063dbd4e02190602401602060405180830381865afa158015612d18573d6000803e3d6000fd5b505050506040513d601f19601f82011682018060405250810190612d3c9190614da0565b6001600160a01b0316336001600160a01b0316145b612d9d5760405162461bcd60e51b815260206004820152601760248201527f4e4f545f4f574e45525f4f525f434f4e54524f4c4c455200000000000000000060448201526064016109c4565b612da78685613f87565b612df35760405162461bcd60e51b815260206004820152600b60248201527f52554c455f45584953545300000000000000000000000000000000000000000060448201526064016109c4565b6002546040517f849a799c000000000000000000000000000000000000000000000000000000008152600481018890526001600160a01b03878116602483015260ff871660448301529091169063849a799c90606401600060405180830381600087803b158015612e6357600080fd5b505af1158015612e77573d6000803e3d6000fd5b5050604080516001600160a01b038916815260ff881660208201528993507fc733a2bc621cc97eef6ed4f708f126e72e6acb76c0a1c0461c9dd31f7b9870659250016122de565b6002546040516369762fe560e11b81526004810184905283916001600160a01b03169063d2ec5fca90602401602060405180830381865afa158015612f07573d6000803e3d6000fd5b505050506040513d601f19601f82011682018060405250810190612f2b9190614d87565b4210612f795760405162461bcd60e51b815260206004820152601060248201527f4d4f4c4543554c455f455850495245440000000000000000000000000000000060448201526064016109c4565b60025460405163f61ccd5360e01b8152600481018390526000916001600160a01b03169063f61ccd5390602401602060405180830381865afa158015612fc3573d6000803e3d6000fd5b505050506040513d601f19601f82011682018060405250810190612fe79190614d87565b6001546040516302571be360e01b8152600481018390529192506000916001600160a01b03909116906302571be390602401602060405180830381865afa158015613036573d6000803e3d6000fd5b505050506040513d601f19601f8201168201806040525081019061305a9190614da0565b90506001600160a01b0381163314806130f0575060025460405163dbd4e02160e01b8152600481018590526001600160a01b039091169063dbd4e02190602401602060405180830381865afa1580156130b7573d6000803e3d6000fd5b505050506040513d601f19601f820116820180604052508101906130db9190614da0565b6001600160a01b0316336001600160a01b0316145b61313c5760405162461bcd60e51b815260206004820152601760248201527f4e4f545f4f574e45525f4f525f434f4e54524f4c4c455200000000000000000060448201526064016109c4565b6002546040517f622dad7f000000000000000000000000000000000000000000000000000000008152600481018790526000916001600160a01b03169063622dad7f90602401600060405180830381865afa15801561319f573d6000803e3d6000fd5b505050506040513d6000823e601f3d908101601f191682016040526131c79190810190614ffb565b90506131d3858261482d565b156132a35760006131e4868361491b565b6002546040517f90072f97000000000000000000000000000000000000000000000000000000008152600481018a9052602481018390529192506001600160a01b0316906390072f9790604401600060405180830381600087803b15801561324b57600080fd5b505af115801561325f573d6000803e3d6000fd5b50505050867f5c379d054844760656a56e062f50208b458cfa0c4427574f5a2828d19602b4e98760405161329591815260200190565b60405180910390a2506132d5565b6040517f62316f6700000000000000000000000000000000000000000000000000000000815260040160405180910390fd5b505050505050565b6002546040516369762fe560e11b81526004810184905283916001600160a01b03169063d2ec5fca90602401602060405180830381865afa158015613326573d6000803e3d6000fd5b505050506040513d601f19601f8201168201806040525081019061334a9190614d87565b42106133985760405162461bcd60e51b815260206004820152601060248201527f4d4f4c4543554c455f455850495245440000000000000000000000000000000060448201526064016109c4565b60025460405163f61ccd5360e01b8152600481018390526000916001600160a01b03169063f61ccd5390602401602060405180830381865afa1580156133e2573d6000803e3d6000fd5b505050506040513d601f19601f820116820180604052508101906134069190614d87565b6001546040516302571be360e01b8152600481018390529192506000916001600160a01b03909116906302571be390602401602060405180830381865afa158015613455573d6000803e3d6000fd5b505050506040513d601f19601f820116820180604052508101906134799190614da0565b90506001600160a01b03811633148061350f575060025460405163dbd4e02160e01b8152600481018590526001600160a01b039091169063dbd4e02190602401602060405180830381865afa1580156134d6573d6000803e3d6000fd5b505050506040513d601f19601f820116820180604052508101906134fa9190614da0565b6001600160a01b0316336001600160a01b0316145b61355b5760405162461bcd60e51b815260206004820152601760248201527f4e4f545f4f574e45525f4f525f434f4e54524f4c4c455200000000000000000060448201526064016109c4565b6002546040517f0aac6625000000000000000000000000000000000000000000000000000000008152600481018790526000916001600160a01b031690630aac662590602401600060405180830381865afa1580156135be573d6000803e3d6000fd5b505050506040513d6000823e601f3d908101601f191682016040526135e69190810190614e2c565b5090506135f660ff861682614880565b156136c757600061360a60ff8716836148cf565b6002546040517f833fda08000000000000000000000000000000000000000000000000000000008152600481018a905260ff89166024820152604481018390529192506001600160a01b03169063833fda0890606401600060405180830381600087803b15801561367a57600080fd5b505af115801561368e573d6000803e3d6000fd5b505060405160ff891681528992507fbf47c0c608c230f7dffbcf65f8cdc76f5f920e4750eea1dcd09138a7359226ac9150602001613295565b6040517fe8dd1d3e00000000000000000000000000000000000000000000000000000000815260040160405180910390fd5b6004546001600160a01b031633146137535760405162461bcd60e51b815260206004820152600760248201527f4e4f545f4445560000000000000000000000000000000000000000000000000060448201526064016109c4565b7fffffffff0000000000000000000000000000000000000000000000000000000080831690036137c55760405162461bcd60e51b815260206004820152601a60248201527f494e56414c49445f494e544552464143455f53454c4543544f5200000000000060448201526064016109c4565b7fffffffff0000000000000000000000000000000000000000000000000000000091909116600090815260056020526040902080547fffffffffffffffffffffffffffffffffffffffffffffffffffffffffffffff0016911515919091179055565b60025460405163f61ccd5360e01b81526004810184905283916000916001600160a01b039091169063f61ccd5390602401602060405180830381865afa158015613875573d6000803e3d6000fd5b505050506040513d601f19601f820116820180604052508101906138999190614d87565b6001546040516302571be360e01b8152600481018390529192506000916001600160a01b03909116906302571be390602401602060405180830381865afa1580156138e8573d6000803e3d6000fd5b505050506040513d601f19601f8201168201806040525081019061390c9190614da0565b6008549091506001600160a01b031633148061393057506001600160a01b03811633145b806139b8575060025460405163dbd4e02160e01b8152600481018590526001600160a01b039091169063dbd4e02190602401602060405180830381865afa15801561397f573d6000803e3d6000fd5b505050506040513d601f19601f820116820180604052508101906139a39190614da0565b6001600160a01b0316336001600160a01b0316145b613a045760405162461bcd60e51b815260206004820152600e60248201527f4e4f545f415554484f524953454400000000000000000000000000000000000060448201526064016109c4565b6002546040517fd07699aa0000000000000000000000000000000000000000000000000000000081526004810187905285151560248201526001600160a01b039091169063d07699aa90604401600060405180830381600087803b158015613a6b57600080fd5b505af1158015613a7f573d6000803e3d6000fd5b50505050847fe6ccdb52b4954ab2c3e293f1dbfe593e6c5630962a1944bfcf20c5563eeb846285604051610e45911515815260200190565b6002546040516369762fe560e11b8152600481018390526000916001600160a01b03169063d2ec5fca90602401602060405180830381865afa158015613b01573d6000803e3d6000fd5b505050506040513d601f19601f82011682018060405250810190613b259190614d87565b92915050565b60025460405163f61ccd5360e01b81526004810184905283916000916001600160a01b039091169063f61ccd5390602401602060405180830381865afa158015613b79573d6000803e3d6000fd5b505050506040513d601f19601f82011682018060405250810190613b9d9190614d87565b6001546040516302571be360e01b8152600481018390529192506000916001600160a01b03909116906302571be390602401602060405180830381865afa158015613bec573d6000803e3d6000fd5b505050506040513d601f19601f82011682018060405250810190613c109190614da0565b6008549091506001600160a01b0316331480613c3457506001600160a01b03811633145b80613cbc575060025460405163dbd4e02160e01b8152600481018590526001600160a01b039091169063dbd4e02190602401602060405180830381865afa158015613c83573d6000803e3d6000fd5b505050506040513d601f19601f82011682018060405250810190613ca79190614da0565b6001600160a01b0316336001600160a01b0316145b613d085760405162461bcd60e51b815260206004820152600e60248201527f4e4f545f415554484f524953454400000000000000000000000000000000000060448201526064016109c4565b6002546040517fd3156905000000000000000000000000000000000000000000000000000000008152600481018790526001600160a01b0386811660248301529091169063d315690590604401600060405180830381600087803b158015613d6f57600080fd5b505af1158015613d83573d6000803e3d6000fd5b50506040516001600160a01b03871681528792507fe5108446a6097aab57fd36f346a515a78fddefa87d81662d44e0d7a463f920959150602001610e45565b6002546040516369762fe560e11b81526004810183905260009183916001600160a01b039091169063d2ec5fca90602401602060405180830381865afa158015613e10573d6000803e3d6000fd5b505050506040513d601f19601f82011682018060405250810190613e349190614d87565b4210613e825760405162461bcd60e51b815260206004820152601060248201527f4d4f4c4543554c455f455850495245440000000000000000000000000000000060448201526064016109c4565b60025460405163dbd4e02160e01b8152600481018590526001600160a01b039091169063dbd4e02190602401610a13565b6008546001600160a01b03163314613f0d5760405162461bcd60e51b815260206004820152600d60248201527f4e4f545f5245474953545241520000000000000000000000000000000000000060448201526064016109c4565b6002546040517fdeee4da900000000000000000000000000000000000000000000000000000000815260048101849052602481018390526001600160a01b039091169063deee4da990604401600060405180830381600087803b158015613f7357600080fd5b505af11580156132d5573d6000803e3d6000fd5b6002546040517f0aac66250000000000000000000000000000000000000000000000000000000081526004810184905260009182916001600160a01b0390911690630aac662590602401600060405180830381865afa158015613fee573d6000803e3d6000fd5b505050506040513d6000823e601f3d908101601f191682016040526140169190810190614e2c565b50905061402660ff841682614880565b15949350505050565b6004546001600160a01b031633146140895760405162461bcd60e51b815260206004820152600760248201527f4e4f545f4445560000000000000000000000000000000000000000000000000060448201526064016109c4565b6004546040516001600160a01b038084169216907f8be0079c531659141344cd1fd0a4f28419497f9722a3daafe3b4186f6b6457e090600090a3600480547fffffffffffffffffffffffff0000000000000000000000000000000000000000166001600160a01b0392909216919091179055565b6002546040516369762fe560e11b81526004810184905283916001600160a01b03169063d2ec5fca90602401602060405180830381865afa158015614146573d6000803e3d6000fd5b505050506040513d601f19601f8201168201806040525081019061416a9190614d87565b42106141b85760405162461bcd60e51b815260206004820152601060248201527f4d4f4c4543554c455f455850495245440000000000000000000000000000000060448201526064016109c4565b60025460405163f61ccd5360e01b8152600481018390526000916001600160a01b03169063f61ccd5390602401602060405180830381865afa158015614202573d6000803e3d6000fd5b505050506040513d601f19601f820116820180604052508101906142269190614d87565b6001546040516302571be360e01b8152600481018390529192506000916001600160a01b03909116906302571be390602401602060405180830381865afa158015614275573d6000803e3d6000fd5b505050506040513d601f19601f820116820180604052508101906142999190614da0565b90506001600160a01b03811633148061432f575060025460405163dbd4e02160e01b8152600481018590526001600160a01b039091169063dbd4e02190602401602060405180830381865afa1580156142f6573d6000803e3d6000fd5b505050506040513d601f19601f8201168201806040525081019061431a9190614da0565b6001600160a01b0316336001600160a01b0316145b61437b5760405162461bcd60e51b815260206004820152601760248201527f4e4f545f4f574e45525f4f525f434f4e54524f4c4c455200000000000000000060448201526064016109c4565b6002546040516369762fe560e11b8152600481018790526000916001600160a01b03169063d2ec5fca90602401602060405180830381865afa1580156143c5573d6000803e3d6000fd5b505050506040513d601f19601f820116820180604052508101906143e99190614d87565b905080851161443a5760405162461bcd60e51b815260206004820152600a60248201527f4241445f4558504952590000000000000000000000000000000000000000000060448201526064016109c4565b60075461444782876150f3565b6144519190615106565b3410156144a05760405162461bcd60e51b815260206004820152601260248201527f494e53554646494349454e545f4554484552000000000000000000000000000060448201526064016109c4565b6002546040517f39de646900000000000000000000000000000000000000000000000000000000815260048101889052602481018790526001600160a01b03909116906339de646990604401600060405180830381600087803b15801561450657600080fd5b505af115801561451a573d6000803e3d6000fd5b50505050857fa620b72378ee464490805a96e25b53e5c0076f0ce2d28f9691ae255a595b3bf3866040516122de91815260200190565b6002546040516369762fe560e11b81526004810183905260009183916001600160a01b039091169063d2ec5fca90602401602060405180830381865afa15801561459e573d6000803e3d6000fd5b505050506040513d601f19601f820116820180604052508101906145c29190614d87565b42106146105760405162461bcd60e51b815260206004820152601060248201527f4d4f4c4543554c455f455850495245440000000000000000000000000000000060448201526064016109c4565b60025460405163f61ccd5360e01b8152600481018590526000916001600160a01b03169063f61ccd5390602401602060405180830381865afa15801561465a573d6000803e3d6000fd5b505050506040513d601f19601f8201168201806040525081019061467e9190614d87565b6001546040516302571be360e01b8152600481018390529192506000916001600160a01b03909116906302571be390602401602060405180830381865afa1580156146cd573d6000803e3d6000fd5b505050506040513d601f19601f820116820180604052508101906146f19190614da0565b9050306001600160a01b0382160361470f575060009250610a579050565b509392505050565b6002546040516369762fe560e11b8152600481018390526000916001600160a01b03169063d2ec5fca90602401602060405180830381865afa158015614761573d6000803e3d6000fd5b505050506040513d601f19601f820116820180604052508101906147859190614d87565b421092915050565b6002546040517f622dad7f00000000000000000000000000000000000000000000000000000000815260048101849052600091614825916001600160a01b039091169063622dad7f90602401600060405180830381865afa1580156147f6573d6000803e3d6000fd5b505050506040513d6000823e601f3d908101601f1916820160405261481e9190810190614ffb565b839061482d565b159392505050565b6000805b8251811015614876578383828151811061484d5761484d614f51565b602002602001015103614864576001915050613b25565b8061486e816150bb565b915050614831565b5060009392505050565b6000805b8251811015614876578360ff168382815181106148a3576148a3614f51565b602002602001015160ff16036148bd576001915050613b25565b806148c7816150bb565b915050614884565b6000805b8251811015614876578360ff168382815181106148f2576148f2614f51565b602002602001015160ff1603614909579050613b25565b80614913816150bb565b9150506148d3565b6000805b8251811015614876578383828151811061493b5761493b614f51565b60200260200101510361494f579050613b25565b80614959816150bb565b91505061491f565b60006020828403121561497357600080fd5b5035919050565b80357fffffffff00000000000000000000000000000000000000000000000000000000811681146149aa57600080fd5b919050565b6000602082840312156149c157600080fd5b6149ca8261497a565b9392505050565b604080825283519082018190526000906020906060840190828701845b82811015614a0d57815160ff16845292840192908401906001016149ee565b5050508381038285015284518082528583019183019060005b81811015614a4b5783516001600160a01b031683529284019291840191600101614a26565b5090979650505050505050565b6001600160a01b0381168114614a6d57600080fd5b50565b60008060408385031215614a8357600080fd5b823591506020830135614a9581614a58565b809150509250929050565b60008060408385031215614ab357600080fd5b50508035926020909101359150565b600080600060608486031215614ad757600080fd5b8335614ae281614a58565b92506020840135614af281614a58565b91506040840135614b0281614a58565b809150509250925092565b6020808252825182820181905260009190848201906040850190845b81811015614b4557835183529284019291840191600101614b29565b50909695505050505050565b7f4e487b7100000000000000000000000000000000000000000000000000000000600052604160045260246000fd5b6040516080810167ffffffffffffffff81118282101715614ba357614ba3614b51565b60405290565b604051601f8201601f1916810167ffffffffffffffff81118282101715614bd257614bd2614b51565b604052919050565b600067ffffffffffffffff821115614bf457614bf4614b51565b5060051b60200190565b60008060408385031215614c1157600080fd5b8235915060208084013567ffffffffffffffff811115614c3057600080fd5b8401601f81018613614c4157600080fd5b8035614c54614c4f82614bda565b614ba9565b81815260059190911b82018301908381019088831115614c7357600080fd5b928401925b82841015614c9157833582529284019290840190614c78565b80955050505050509250929050565b60ff81168114614a6d57600080fd5b600080600060608486031215614cc457600080fd5b833592506020840135614cd681614a58565b91506040840135614b0281614ca0565b60008060408385031215614cf957600080fd5b823591506020830135614a9581614ca0565b8015158114614a6d57600080fd5b60008060408385031215614d2c57600080fd5b614d358361497a565b91506020830135614a9581614d0b565b60008060408385031215614d5857600080fd5b823591506020830135614a9581614d0b565b600060208284031215614d7c57600080fd5b81356149ca81614a58565b600060208284031215614d9957600080fd5b5051919050565b600060208284031215614db257600080fd5b81516149ca81614a58565b600082601f830112614dce57600080fd5b81516020614dde614c4f83614bda565b82815260059290921b84018101918181019086841115614dfd57600080fd5b8286015b84811015614e21578051614e1481614a58565b8352918301918301614e01565b509695505050505050565b60008060408385031215614e3f57600080fd5b825167ffffffffffffffff80821115614e5757600080fd5b818501915085601f830112614e6b57600080fd5b81516020614e7b614c4f83614bda565b82815260059290921b84018101918181019089841115614e9a57600080fd5b948201945b83861015614ec1578551614eb281614ca0565b82529482019490820190614e9f565b91880151919650909350505080821115614eda57600080fd5b50614ee785828601614dbd565b9150509250929050565b600060808284031215614f0357600080fd5b82601f830112614f1257600080fd5b614f1a614b80565b806080840185811115614f2c57600080fd5b845b81811015614f46578051845260209384019301614f2e565b509095945050505050565b7f4e487b7100000000000000000000000000000000000000000000000000000000600052603260045260246000fd5b600060808284031215614f9257600080fd5b82601f830112614fa157600080fd5b614fa9614b80565b806080840185811115614fbb57600080fd5b845b81811015614f46578051614fd081614a58565b845260209384019301614fbd565b600060208284031215614ff057600080fd5b81516149ca81614d0b565b6000602080838503121561500e57600080fd5b825167ffffffffffffffff81111561502557600080fd5b8301601f8101851361503657600080fd5b8051615044614c4f82614bda565b81815260059190911b8201830190838101908783111561506357600080fd5b928401925b8284101561508157835182529284019290840190615068565b979650505050505050565b7f4e487b7100000000000000000000000000000000000000000000000000000000600052601160045260246000fd5b60007fffffffffffffffffffffffffffffffffffffffffffffffffffffffffffffffff82036150ec576150ec61508c565b5060010190565b81810381811115613b2557613b2561508c565b6000817fffffffffffffffffffffffffffffffffffffffffffffffffffffffffffffffff048311821515161561513e5761513e61508c565b50029056fea2646970667358221220041e8b9e8332ba991c6f6f0212f27832b5ee9810c347ec0aab32948b176de32c64736f6c63430008100033",
    "linkReferences": {}
  },
  "methodIdentifiers": {
    "Dev()": "01e51ae8",
    "HELIX2()": "b782426e",
    "Molecules(bytes32)": "af6328f6",
    "NAMES()": "05e84aa0",
    "PRICES()": "1eabcd34",
    "Registrar()": "b9f37c86",
    "STORE()": "507f1465",
    "active()": "02fb0c5e",
    "addAnion(bytes32,bytes32)": "6ff24830",
    "anions(bytes32)": "622dad7f",
    "basePrice()": "c7876ea4",
    "cation(bytes32)": "f61ccd53",
    "controller(bytes32)": "dbd4e021",
    "covalence(bytes32)": "34026859",
    "expiry(bytes32)": "d2ec5fca",
    "hook(bytes32,address,uint8)": "849a799c",
    "hooksWithRules(bytes32)": "0aac6625",
    "isNotDuplicateAnion(bytes32,bytes32)": "f8c91244",
    "isNotDuplicateRule(bytes32,uint8)": "e79eaa26",
    "label(bytes32)": "1fc4859e",
    "owner()": "8da5cb5b",
    "popAnion(bytes32,bytes32)": "8dcad139",
    "recordExists(bytes32)": "f79fe538",
    "register(bytes32,bytes32)": "2f926732",
    "rehook(bytes32,address,uint8)": "83669726",
    "renew(bytes32,uint256)": "f544d82f",
    "resolver(bytes32)": "0178b8bf",
    "roothash()": "251c9422",
    "setAnions(bytes32,bytes32[])": "741b4cd0",
    "setCation(bytes32,bytes32)": "8146970a",
    "setConfig(address,address,address)": "3141e25b",
    "setController(bytes32,address)": "d3156905",
    "setCovalence(bytes32,bool)": "d07699aa",
    "setExpiry(bytes32,uint256)": "39de6469",
    "setInterface(bytes4,bool)": "c0a43a7c",
    "setLabel(bytes32,bytes32)": "deee4da9",
    "setResolver(bytes32,address)": "1896f70a",
    "supportsInterface(bytes4)": "01ffc9a7",
    "theEnd()": "22b68deb",
    "toggleActive()": "29c68dc1",
    "transferOwnership(address)": "f2fde38b",
    "unhook(bytes32,uint8)": "b612e9b9",
    "unhookAll(bytes32)": "21ec2b5b"
  },
  "id": 46
}