{
  "abi": [
    {
      "inputs": [
        {
          "internalType": "address",
          "name": "_registry",
          "type": "address"
        },
        {
          "internalType": "address",
          "name": "_helix2",
          "type": "address"
        }
      ],
      "stateMutability": "nonpayable",
      "type": "constructor"
    },
    {
      "inputs": [
        {
          "internalType": "bytes32",
          "name": "moleculehash",
          "type": "bytes32"
        },
        {
          "internalType": "bytes32",
          "name": "anion",
          "type": "bytes32"
        }
      ],
      "name": "AnionNotFound",
      "type": "error"
    },
    {
      "anonymous": false,
      "inputs": [
        {
          "indexed": true,
          "internalType": "address",
          "name": "cation",
          "type": "address"
        },
        {
          "indexed": true,
          "internalType": "address",
          "name": "operator",
          "type": "address"
        },
        {
          "indexed": false,
          "internalType": "bool",
          "name": "approved",
          "type": "bool"
        }
      ],
      "name": "ApprovalForAll",
      "type": "event"
    },
    {
      "anonymous": false,
      "inputs": [
        {
          "indexed": true,
          "internalType": "bytes32",
          "name": "molyhash",
          "type": "bytes32"
        },
        {
          "indexed": false,
          "internalType": "address",
          "name": "config",
          "type": "address"
        },
        {
          "indexed": false,
          "internalType": "uint8",
          "name": "rule",
          "type": "uint8"
        }
      ],
      "name": "Hooked",
      "type": "event"
    },
    {
      "anonymous": false,
      "inputs": [
        {
          "indexed": true,
          "internalType": "bytes32",
          "name": "molyhash",
          "type": "bytes32"
        },
        {
          "indexed": false,
          "internalType": "bytes32",
          "name": "_alias",
          "type": "bytes32"
        }
      ],
      "name": "NewAlias",
      "type": "event"
    },
    {
      "anonymous": false,
      "inputs": [
        {
          "indexed": true,
          "internalType": "bytes32",
          "name": "molyhash",
          "type": "bytes32"
        },
        {
          "indexed": false,
          "internalType": "bytes32",
          "name": "anion",
          "type": "bytes32"
        }
      ],
      "name": "NewAnion",
      "type": "event"
    },
    {
      "anonymous": false,
      "inputs": [
        {
          "indexed": true,
          "internalType": "bytes32",
          "name": "molyhash",
          "type": "bytes32"
        },
        {
          "indexed": false,
          "internalType": "bytes32[]",
          "name": "anion",
          "type": "bytes32[]"
        }
      ],
      "name": "NewAnions",
      "type": "event"
    },
    {
      "anonymous": false,
      "inputs": [
        {
          "indexed": true,
          "internalType": "bytes32",
          "name": "molyhash",
          "type": "bytes32"
        },
        {
          "indexed": false,
          "internalType": "bytes32",
          "name": "cation",
          "type": "bytes32"
        }
      ],
      "name": "NewCation",
      "type": "event"
    },
    {
      "anonymous": false,
      "inputs": [
        {
          "indexed": true,
          "internalType": "bytes32",
          "name": "molyhash",
          "type": "bytes32"
        },
        {
          "indexed": false,
          "internalType": "address",
          "name": "controller",
          "type": "address"
        }
      ],
      "name": "NewController",
      "type": "event"
    },
    {
      "anonymous": false,
      "inputs": [
        {
          "indexed": true,
          "internalType": "bytes32",
          "name": "molyhash",
          "type": "bytes32"
        },
        {
          "indexed": false,
          "internalType": "bool",
          "name": "covalence",
          "type": "bool"
        }
      ],
      "name": "NewCovalence",
      "type": "event"
    },
    {
      "anonymous": false,
      "inputs": [
        {
          "indexed": false,
          "internalType": "address",
          "name": "Dev",
          "type": "address"
        },
        {
          "indexed": false,
          "internalType": "address",
          "name": "newDev",
          "type": "address"
        }
      ],
      "name": "NewDev",
      "type": "event"
    },
    {
      "anonymous": false,
      "inputs": [
        {
          "indexed": true,
          "internalType": "bytes32",
          "name": "molyhash",
          "type": "bytes32"
        },
        {
          "indexed": false,
          "internalType": "uint256",
          "name": "expiry",
          "type": "uint256"
        }
      ],
      "name": "NewExpiry",
      "type": "event"
    },
    {
      "anonymous": false,
      "inputs": [
        {
          "indexed": true,
          "internalType": "bytes32",
          "name": "molyhash",
          "type": "bytes32"
        },
        {
          "indexed": false,
          "internalType": "bytes32",
          "name": "cation",
          "type": "bytes32"
        }
      ],
      "name": "NewMolecule",
      "type": "event"
    },
    {
      "anonymous": false,
      "inputs": [
        {
          "indexed": true,
          "internalType": "bytes32",
          "name": "molyhash",
          "type": "bytes32"
        },
        {
          "indexed": false,
          "internalType": "address",
          "name": "resolver",
          "type": "address"
        }
      ],
      "name": "NewRecord",
      "type": "event"
    },
    {
      "anonymous": false,
      "inputs": [
        {
          "indexed": true,
          "internalType": "bytes32",
          "name": "molyhash",
          "type": "bytes32"
        },
        {
          "indexed": false,
          "internalType": "bytes32",
          "name": "cation",
          "type": "bytes32"
        }
      ],
      "name": "NewRegistration",
      "type": "event"
    },
    {
      "anonymous": false,
      "inputs": [
        {
          "indexed": true,
          "internalType": "bytes32",
          "name": "molyhash",
          "type": "bytes32"
        },
        {
          "indexed": false,
          "internalType": "address",
          "name": "resolver",
          "type": "address"
        }
      ],
      "name": "NewResolver",
      "type": "event"
    },
    {
      "anonymous": false,
      "inputs": [
        {
          "indexed": true,
          "internalType": "bytes32",
          "name": "molyhash",
          "type": "bytes32"
        },
        {
          "indexed": false,
          "internalType": "bytes32",
          "name": "anion",
          "type": "bytes32"
        }
      ],
      "name": "PopAnion",
      "type": "event"
    },
    {
      "anonymous": false,
      "inputs": [
        {
          "indexed": true,
          "internalType": "bytes32",
          "name": "molyhash",
          "type": "bytes32"
        },
        {
          "indexed": false,
          "internalType": "address",
          "name": "config",
          "type": "address"
        },
        {
          "indexed": false,
          "internalType": "uint8",
          "name": "rule",
          "type": "uint8"
        }
      ],
      "name": "Rehooked",
      "type": "event"
    },
    {
      "anonymous": false,
      "inputs": [
        {
          "indexed": true,
          "internalType": "bytes32",
          "name": "molyhash",
          "type": "bytes32"
        },
        {
          "indexed": false,
          "internalType": "address",
          "name": "config",
          "type": "address"
        }
      ],
      "name": "Unhooked",
      "type": "event"
    },
    {
      "anonymous": false,
      "inputs": [
        {
          "indexed": true,
          "internalType": "bytes32",
          "name": "molyhash",
          "type": "bytes32"
        }
      ],
      "name": "UnhookedAll",
      "type": "event"
    },
    {
      "inputs": [],
      "name": "Dev",
      "outputs": [
        {
          "internalType": "address",
          "name": "",
          "type": "address"
        }
      ],
      "stateMutability": "view",
      "type": "function"
    },
    {
      "inputs": [],
      "name": "HELIX2",
      "outputs": [
        {
          "internalType": "contract iHELIX2",
          "name": "",
          "type": "address"
        }
      ],
      "stateMutability": "view",
      "type": "function"
    },
    {
      "inputs": [
        {
          "internalType": "bytes32",
          "name": "",
          "type": "bytes32"
        }
      ],
      "name": "Molecules",
      "outputs": [
        {
          "internalType": "bytes32",
          "name": "_cation",
          "type": "bytes32"
        },
        {
          "internalType": "bytes32",
          "name": "_alias",
          "type": "bytes32"
        },
        {
          "internalType": "address",
          "name": "_resolver",
          "type": "address"
        },
        {
          "internalType": "address",
          "name": "_controller",
          "type": "address"
        },
        {
          "internalType": "bool",
          "name": "_covalence",
          "type": "bool"
        },
        {
          "internalType": "uint256",
          "name": "_expiry",
          "type": "uint256"
        }
      ],
      "stateMutability": "view",
      "type": "function"
    },
    {
      "inputs": [],
      "name": "NAMES",
      "outputs": [
        {
          "internalType": "contract iNAME",
          "name": "",
          "type": "address"
        }
      ],
      "stateMutability": "view",
      "type": "function"
    },
    {
      "inputs": [],
      "name": "Registrar",
      "outputs": [
        {
          "internalType": "address",
          "name": "",
          "type": "address"
        }
      ],
      "stateMutability": "view",
      "type": "function"
    },
    {
      "inputs": [],
      "name": "active",
      "outputs": [
        {
          "internalType": "bool",
          "name": "",
          "type": "bool"
        }
      ],
      "stateMutability": "view",
      "type": "function"
    },
    {
      "inputs": [
        {
          "internalType": "bytes32",
          "name": "molyhash",
          "type": "bytes32"
        },
        {
          "internalType": "bytes32",
          "name": "_anion",
          "type": "bytes32"
        }
      ],
      "name": "addAnion",
      "outputs": [],
      "stateMutability": "nonpayable",
      "type": "function"
    },
    {
      "inputs": [
        {
          "internalType": "bytes32",
          "name": "molyhash",
          "type": "bytes32"
        }
      ],
      "name": "alias_",
      "outputs": [
        {
          "internalType": "bytes32",
          "name": "",
          "type": "bytes32"
        }
      ],
      "stateMutability": "view",
      "type": "function"
    },
    {
      "inputs": [
        {
          "internalType": "bytes32",
          "name": "molyhash",
          "type": "bytes32"
        }
      ],
      "name": "anion",
      "outputs": [
        {
          "internalType": "bytes32[]",
          "name": "",
          "type": "bytes32[]"
        }
      ],
      "stateMutability": "view",
      "type": "function"
    },
    {
      "inputs": [],
      "name": "basePrice",
      "outputs": [
        {
          "internalType": "uint256",
          "name": "",
          "type": "uint256"
        }
      ],
      "stateMutability": "view",
      "type": "function"
    },
    {
      "inputs": [
        {
          "internalType": "bytes32",
          "name": "molyhash",
          "type": "bytes32"
        }
      ],
      "name": "cation",
      "outputs": [
        {
          "internalType": "bytes32",
          "name": "",
          "type": "bytes32"
        }
      ],
      "stateMutability": "view",
      "type": "function"
    },
    {
      "inputs": [
        {
          "internalType": "address",
          "name": "newDev",
          "type": "address"
        }
      ],
      "name": "changeDev",
      "outputs": [],
      "stateMutability": "nonpayable",
      "type": "function"
    },
    {
      "inputs": [
        {
          "internalType": "bytes32",
          "name": "molyhash",
          "type": "bytes32"
        }
      ],
      "name": "controller",
      "outputs": [
        {
          "internalType": "address",
          "name": "",
          "type": "address"
        }
      ],
      "stateMutability": "view",
      "type": "function"
    },
    {
      "inputs": [
        {
          "internalType": "bytes32",
          "name": "molyhash",
          "type": "bytes32"
        }
      ],
      "name": "covalence",
      "outputs": [
        {
          "internalType": "bool",
          "name": "",
          "type": "bool"
        }
      ],
      "stateMutability": "view",
      "type": "function"
    },
    {
      "inputs": [
        {
          "internalType": "bytes32",
          "name": "molyhash",
          "type": "bytes32"
        }
      ],
      "name": "expiry",
      "outputs": [
        {
          "internalType": "uint256",
          "name": "",
          "type": "uint256"
        }
      ],
      "stateMutability": "view",
      "type": "function"
    },
    {
      "inputs": [
        {
          "internalType": "bytes32",
          "name": "molyhash",
          "type": "bytes32"
        },
        {
          "internalType": "uint8",
          "name": "rule",
          "type": "uint8"
        },
        {
          "internalType": "address",
          "name": "config",
          "type": "address"
        }
      ],
      "name": "hook",
      "outputs": [],
      "stateMutability": "nonpayable",
      "type": "function"
    },
    {
      "inputs": [
        {
          "internalType": "bytes32",
          "name": "molyhash",
          "type": "bytes32"
        }
      ],
      "name": "hooksWithRules",
      "outputs": [
        {
          "internalType": "address[]",
          "name": "",
          "type": "address[]"
        },
        {
          "internalType": "uint8[]",
          "name": "",
          "type": "uint8[]"
        }
      ],
      "stateMutability": "view",
      "type": "function"
    },
    {
      "inputs": [
        {
          "internalType": "bytes32",
          "name": "_cation",
          "type": "bytes32"
        },
        {
          "internalType": "address",
          "name": "operator",
          "type": "address"
        }
      ],
      "name": "isApprovedForAll",
      "outputs": [
        {
          "internalType": "bool",
          "name": "",
          "type": "bool"
        }
      ],
      "stateMutability": "view",
      "type": "function"
    },
    {
      "inputs": [
        {
          "internalType": "bytes32",
          "name": "molyhash",
          "type": "bytes32"
        },
        {
          "internalType": "bytes32",
          "name": "_anion",
          "type": "bytes32"
        }
      ],
      "name": "isNotDuplicateAnion",
      "outputs": [
        {
          "internalType": "bool",
          "name": "",
          "type": "bool"
        }
      ],
      "stateMutability": "view",
      "type": "function"
    },
    {
      "inputs": [
        {
          "internalType": "bytes32",
          "name": "molyhash",
          "type": "bytes32"
        },
        {
          "internalType": "address",
          "name": "config",
          "type": "address"
        }
      ],
      "name": "isNotDuplicateHook",
      "outputs": [
        {
          "internalType": "bool",
          "name": "",
          "type": "bool"
        }
      ],
      "stateMutability": "view",
      "type": "function"
    },
    {
      "inputs": [
        {
          "internalType": "bytes32",
          "name": "molyhash",
          "type": "bytes32"
        },
        {
          "internalType": "bytes32",
          "name": "__anion",
          "type": "bytes32"
        }
      ],
      "name": "popAnion",
      "outputs": [],
      "stateMutability": "nonpayable",
      "type": "function"
    },
    {
      "inputs": [
        {
          "internalType": "bytes32",
          "name": "molyhash",
          "type": "bytes32"
        }
      ],
      "name": "recordExists",
      "outputs": [
        {
          "internalType": "bool",
          "name": "",
          "type": "bool"
        }
      ],
      "stateMutability": "view",
      "type": "function"
    },
    {
      "inputs": [
        {
          "internalType": "bytes32",
          "name": "molyhash",
          "type": "bytes32"
        },
        {
          "internalType": "bytes32",
          "name": "_cation",
          "type": "bytes32"
        }
      ],
      "name": "register",
      "outputs": [],
      "stateMutability": "nonpayable",
      "type": "function"
    },
    {
      "inputs": [
        {
          "internalType": "bytes32",
          "name": "molyhash",
          "type": "bytes32"
        },
        {
          "internalType": "uint8",
          "name": "rule",
          "type": "uint8"
        },
        {
          "internalType": "address",
          "name": "config",
          "type": "address"
        }
      ],
      "name": "rehook",
      "outputs": [],
      "stateMutability": "nonpayable",
      "type": "function"
    },
    {
      "inputs": [
        {
          "internalType": "bytes32",
          "name": "molyhash",
          "type": "bytes32"
        },
        {
          "internalType": "uint256",
          "name": "_expiry",
          "type": "uint256"
        }
      ],
      "name": "renew",
      "outputs": [],
      "stateMutability": "payable",
      "type": "function"
    },
    {
      "inputs": [
        {
          "internalType": "bytes32",
          "name": "molyhash",
          "type": "bytes32"
        }
      ],
      "name": "resolver",
      "outputs": [
        {
          "internalType": "address",
          "name": "",
          "type": "address"
        }
      ],
      "stateMutability": "view",
      "type": "function"
    },
    {
      "inputs": [],
      "name": "roothash",
      "outputs": [
        {
          "internalType": "bytes32",
          "name": "",
          "type": "bytes32"
        }
      ],
      "stateMutability": "view",
      "type": "function"
    },
    {
      "inputs": [
        {
          "internalType": "bytes32",
          "name": "molyhash",
          "type": "bytes32"
        },
        {
          "internalType": "bytes32",
          "name": "_alias",
          "type": "bytes32"
        }
      ],
      "name": "setAlias",
      "outputs": [],
      "stateMutability": "nonpayable",
      "type": "function"
    },
    {
      "inputs": [
        {
          "internalType": "bytes32",
          "name": "molyhash",
          "type": "bytes32"
        },
        {
          "internalType": "bytes32[]",
          "name": "_anion",
          "type": "bytes32[]"
        }
      ],
      "name": "setAnions",
      "outputs": [],
      "stateMutability": "nonpayable",
      "type": "function"
    },
    {
      "inputs": [
        {
          "internalType": "address",
          "name": "operator",
          "type": "address"
        },
        {
          "internalType": "bool",
          "name": "approved",
          "type": "bool"
        }
      ],
      "name": "setApprovalForAll",
      "outputs": [],
      "stateMutability": "nonpayable",
      "type": "function"
    },
    {
      "inputs": [
        {
          "internalType": "bytes32",
          "name": "molyhash",
          "type": "bytes32"
        },
        {
          "internalType": "bytes32",
          "name": "_cation",
          "type": "bytes32"
        }
      ],
      "name": "setCation",
      "outputs": [],
      "stateMutability": "nonpayable",
      "type": "function"
    },
    {
      "inputs": [
        {
          "internalType": "bytes32",
          "name": "molyhash",
          "type": "bytes32"
        },
        {
          "internalType": "address",
          "name": "_controller",
          "type": "address"
        }
      ],
      "name": "setController",
      "outputs": [],
      "stateMutability": "nonpayable",
      "type": "function"
    },
    {
      "inputs": [
        {
          "internalType": "bytes32",
          "name": "molyhash",
          "type": "bytes32"
        },
        {
          "internalType": "bool",
          "name": "_covalence",
          "type": "bool"
        }
      ],
      "name": "setCovalence",
      "outputs": [],
      "stateMutability": "nonpayable",
      "type": "function"
    },
    {
      "inputs": [
        {
          "internalType": "bytes32",
          "name": "molyhash",
          "type": "bytes32"
        },
        {
          "internalType": "uint256",
          "name": "_expiry",
          "type": "uint256"
        }
      ],
      "name": "setExpiry",
      "outputs": [],
      "stateMutability": "nonpayable",
      "type": "function"
    },
    {
      "inputs": [
        {
          "internalType": "bytes32",
          "name": "molyhash",
          "type": "bytes32"
        },
        {
          "internalType": "address",
          "name": "_resolver",
          "type": "address"
        }
      ],
      "name": "setRecord",
      "outputs": [],
      "stateMutability": "nonpayable",
      "type": "function"
    },
    {
      "inputs": [
        {
          "internalType": "bytes32",
          "name": "molyhash",
          "type": "bytes32"
        },
        {
          "internalType": "address",
          "name": "_resolver",
          "type": "address"
        }
      ],
      "name": "setResolver",
      "outputs": [],
      "stateMutability": "nonpayable",
      "type": "function"
    },
    {
      "inputs": [],
      "name": "theEnd",
      "outputs": [
        {
          "internalType": "uint256",
          "name": "",
          "type": "uint256"
        }
      ],
      "stateMutability": "view",
      "type": "function"
    },
    {
      "inputs": [
        {
          "internalType": "bytes32",
          "name": "molyhash",
          "type": "bytes32"
        },
        {
          "internalType": "address",
          "name": "config",
          "type": "address"
        }
      ],
      "name": "unhook",
      "outputs": [],
      "stateMutability": "nonpayable",
      "type": "function"
    },
    {
      "inputs": [
        {
          "internalType": "bytes32",
          "name": "molyhash",
          "type": "bytes32"
        }
      ],
      "name": "unhookAll",
      "outputs": [],
      "stateMutability": "nonpayable",
      "type": "function"
    },
    {
      "inputs": [],
      "name": "withdrawEther",
      "outputs": [],
      "stateMutability": "nonpayable",
      "type": "function"
    }
  ],
  "bytecode": {
    "object": "0x60806040526002805460ff60a01b1916600160a01b1790556703782dace9d900006006553480156200003057600080fd5b50604051620049f5380380620049f583398101604081905262000053916200075b565b60028054336001600160a01b0319918216179091556000805482166001600160a01b03848116918217909255600180549093169185169190911790915560408051633215476b60e11b8152905163642a8ed6916004808201926080929091908290030181865afa158015620000cc573d6000803e3d6000fd5b505050506040513d601f19601f82011682018060405250810190620000f29190620007ca565b604090810151600355600054815163bd9a548b60e01b815291516001600160a01b039091169163bd9a548b9160048083019260809291908290030181865afa15801562000143573d6000803e3d6000fd5b505050506040513d601f19601f82011682018060405250810190620001699190620007ca565b604001516004556200017a62000182565b50506200086f565b7fb4b4801cca1cad359bff6b5ea99d95160f00cbe1164fb7231c42c3e8b5f2593b805460ff19169055604080516020818101909252600080825280526007909152620001f2907f6d5257204ebe7d88fd91ae87941cb2dd9d8062b64ae5a2bd2d28ec40b9fbf6df9060016200067f565b5060007f6d5257204ebe7d88fd91ae87941cb2dd9d8062b64ae5a2bd2d28ec40b9fbf6e1819055604080516020818101909252828152918052600790526200025e907f6d5257204ebe7d88fd91ae87941cb2dd9d8062b64ae5a2bd2d28ec40b9fbf6e2906001620006e9565b50600080805260076020527f6d5257204ebe7d88fd91ae87941cb2dd9d8062b64ae5a2bd2d28ec40b9fbf6e38190557f6d5257204ebe7d88fd91ae87941cb2dd9d8062b64ae5a2bd2d28ec40b9fbf6e580546006547f6d5257204ebe7d88fd91ae87941cb2dd9d8062b64ae5a2bd2d28ec40b9fbf6e6556001600160a81b03191633908117600160a01b179091557f6d5257204ebe7d88fd91ae87941cb2dd9d8062b64ae5a2bd2d28ec40b9fbf6e480546001600160a01b0319169091179055805460408051633215476b60e11b815290516001600160a01b03929092169163642a8ed6916004818101926080929091908290030181865afa15801562000369573d6000803e3d6000fd5b505050506040513d601f19601f820116820180604052508101906200038f9190620007ca565b905060005b60048110156200067b57600060076000848460048110620003b957620003b962000831565b60209081029190910151825281810192909252604090810160009081208180526001018352818120805460ff191660ff9590951694909417909355805191820190528181529060079084846004811062000417576200041762000831565b602002015181526020019081526020016000206000019060016200043d9291906200067f565b5081816004811062000453576200045362000831565b60200201516007600084846004811062000471576200047162000831565b60200201518152602001908152602001600020600201819055506040518060200160405280838360048110620004ab57620004ab62000831565b6020020151905260076000848460048110620004cb57620004cb62000831565b60200201518152602001908152602001600020600301906001620004f1929190620006e9565b5081816004811062000507576200050762000831565b60200201516007600084846004811062000525576200052562000831565b60200201518152602001908152602001600020600401819055506001600760008484600481106200055a576200055a62000831565b6020020151815260200190815260200160002060060160146101000a81548160ff02191690831515021790555060065460076000848460048110620005a357620005a362000831565b60200201518152602001908152602001600020600701819055503360076000848460048110620005d757620005d762000831565b6020020151815260200190815260200160002060060160006101000a8154816001600160a01b0302191690836001600160a01b0316021790555033600760008484600481106200062b576200062b62000831565b6020020151815260200190815260200160002060050160006101000a8154816001600160a01b0302191690836001600160a01b031602179055508080620006729062000847565b91505062000394565b5050565b828054828255906000526020600020908101928215620006d7579160200282015b82811115620006d757825182546001600160a01b0319166001600160a01b03909116178255602090920191600190910190620006a0565b50620006e592915062000727565b5090565b828054828255906000526020600020908101928215620006d7579160200282015b82811115620006d75782518255916020019190600101906200070a565b5b80821115620006e5576000815560010162000728565b80516001600160a01b03811681146200075657600080fd5b919050565b600080604083850312156200076f57600080fd5b6200077a836200073e565b91506200078a602084016200073e565b90509250929050565b604051608081016001600160401b0381118282101715620007c457634e487b7160e01b600052604160045260246000fd5b60405290565b600060808284031215620007dd57600080fd5b82601f830112620007ed57600080fd5b620007f762000793565b8060808401858111156200080a57600080fd5b845b81811015620008265780518452602093840193016200080c565b509095945050505050565b634e487b7160e01b600052603260045260246000fd5b6000600182016200086857634e487b7160e01b600052601160045260246000fd5b5060010190565b614176806200087f6000396000f3fe6080604052600436106102bb5760003560e01c8063741b4cd01161016e578063c7876ea4116100cb578063dbd4e0211161007f578063f61ccd5311610064578063f61ccd531461083a578063f79fe5381461085a578063f8c912441461088d57600080fd5b8063dbd4e02114610807578063f544d82f1461082757600080fd5b8063d2ec5fca116100b0578063d2ec5fca14610796578063d3156905146107c7578063d9b76ed4146107e757600080fd5b8063c7876ea414610760578063d07699aa1461077657600080fd5b8063af6328f611610122578063b782426e11610107578063b782426e14610700578063b9f37c8614610720578063c5bc4c0b1461074057600080fd5b8063af6328f61461062b578063b0698628146106e057600080fd5b806388a8c95c1161015357806388a8c95c146105cb5780638dcad139146105eb578063a22cb4651461060b57600080fd5b8063741b4cd01461058b5780638146970a146105ab57600080fd5b806321ec2b5b1161021c57806334026859116101d057806351a76442116101b557806351a76442146105365780636ff24830146105565780637362377b1461057657600080fd5b806334026859146104f657806339de64691461051657600080fd5b8063241270d511610201578063241270d5146104a0578063251c9422146104c05780632f926732146104d657600080fd5b806321ec2b5b1461045c57806322b68deb1461047c57600080fd5b806305e84aa0116102735780630e68b116116102585780630e68b116146103ef5780631896f70a1461041c5780631f06e91c1461043c57600080fd5b806305e84aa0146103a15780630aac6625146103c157600080fd5b806301e51ae8116102a457806301e51ae81461031f57806302fb0c5e1461033f578063049a491c1461038157600080fd5b8063015399e6146102c05780630178b8bf146102e2575b600080fd5b3480156102cc57600080fd5b506102e06102db366004613b19565b6108ad565b005b3480156102ee57600080fd5b506103026102fd366004613b61565b610b12565b6040516001600160a01b0390911681526020015b60405180910390f35b34801561032b57600080fd5b50600254610302906001600160a01b031681565b34801561034b57600080fd5b506002546103719074010000000000000000000000000000000000000000900460ff1681565b6040519015158152602001610316565b34801561038d57600080fd5b5061037161039c366004613b7a565b610b98565b3480156103ad57600080fd5b50600154610302906001600160a01b031681565b3480156103cd57600080fd5b506103e16103dc366004613b61565b610c4a565b604051610316929190613baa565b3480156103fb57600080fd5b5061040f61040a366004613b61565b610e10565b6040516103169190613c31565b34801561042857600080fd5b506102e0610437366004613b7a565b610edf565b34801561044857600080fd5b506102e0610457366004613c75565b611131565b34801561046857600080fd5b506102e0610477366004613b61565b611353565b34801561048857600080fd5b5061049260065481565b604051908152602001610316565b3480156104ac57600080fd5b506102e06104bb366004613b7a565b611691565b3480156104cc57600080fd5b5061049260035481565b3480156104e257600080fd5b506102e06104f1366004613c75565b611ad0565b34801561050257600080fd5b50610371610511366004613b61565b611b89565b34801561052257600080fd5b506102e0610531366004613c75565b611c1d565b34801561054257600080fd5b506102e0610551366004613b19565b611dc4565b34801561056257600080fd5b506102e0610571366004613c75565b612022565b34801561058257600080fd5b506102e06122ab565b34801561059757600080fd5b506102e06105a6366004613d15565b612351565b3480156105b757600080fd5b506102e06105c6366004613c75565b612671565b3480156105d757600080fd5b506102e06105e6366004613dc7565b612824565b3480156105f757600080fd5b506102e0610606366004613c75565b6128f4565b34801561061757600080fd5b506102e0610626366004613df9565b612d0e565b34801561063757600080fd5b506106a4610646366004613b61565b600760208190526000918252604090912060028101546004820154600583015460068401549390940154919390926001600160a01b0391821692918116917401000000000000000000000000000000000000000090910460ff169086565b6040805196875260208701959095526001600160a01b0393841694860194909452911660608401521515608083015260a082015260c001610316565b3480156106ec57600080fd5b506103716106fb366004613b7a565b612d7a565b34801561070c57600080fd5b50600054610302906001600160a01b031681565b34801561072c57600080fd5b50600554610302906001600160a01b031681565b34801561074c57600080fd5b5061049261075b366004613b61565b612e1e565b34801561076c57600080fd5b5061049260045481565b34801561078257600080fd5b506102e0610791366004613e27565b612e97565b3480156107a257600080fd5b506104926107b1366004613b61565b6000908152600760208190526040909120015490565b3480156107d357600080fd5b506102e06107e2366004613b7a565b6130fb565b3480156107f357600080fd5b506102e0610802366004613b7a565b613342565b34801561081357600080fd5b50610302610822366004613b61565b613589565b6102e0610835366004613c75565b61360b565b34801561084657600080fd5b50610492610855366004613b61565b613966565b34801561086657600080fd5b50610371610875366004613b61565b60009081526007602081905260409091200154421090565b34801561089957600080fd5b506103716108a8366004613c75565b613a6e565b60008381526007602081905260409091200154839042106109155760405162461bcd60e51b815260206004820152601060248201527f4d4f4c4543554c455f455850495245440000000000000000000000000000000060448201526064015b60405180910390fd5b6000818152600760205260408082206002015460015491516302571be360e01b8152600481018290529092916001600160a01b0316906302571be390602401602060405180830381865afa158015610971573d6000803e3d6000fd5b505050506040513d601f19601f820116820180604052508101906109959190613e4c565b90506001600160a01b0381163314806109d157506001600160a01b038116600090815260086020908152604080832033845290915290205460ff165b610a1d5760405162461bcd60e51b815260206004820152600960248201527f4e4f545f4f574e45520000000000000000000000000000000000000000000000604482015260640161090c565b60008681526007602090815260408083206001600160a01b038816845260010190915290205460ff808716911603610a975760405162461bcd60e51b815260206004820152600b60248201527f52554c455f455849535453000000000000000000000000000000000000000000604482015260640161090c565b60008681526007602090815260408083206001600160a01b0388168085526001909101835292819020805460ff191660ff8a1690811790915581519384529183019190915287917fe43a78ddf6157361fe34d04905786138f88d3eda20b1f7dc0e2c619f9267310091015b60405180910390a2505050505050565b60008181526007602081905260408220015482904210610b745760405162461bcd60e51b815260206004820152601060248201527f4d4f4c4543554c455f4558504952454400000000000000000000000000000000604482015260640161090c565b6000838152600760205260409020600501546001600160a01b031691505b50919050565b60008281526007602052604080822090517f2306f46600000000000000000000000000000000000000000000000000000000815273__$47e4ffaaf323c41735ff299f8946896ce0$__91632306f46691610bff916001600160a01b03871691600401613e69565b602060405180830381865af4158015610c1c573d6000803e3d6000fd5b505050506040513d601f19601f82011682018060405250810190610c409190613ec9565b1590505b92915050565b6060808260076000828152602001908152602001600020600701544210610cb35760405162461bcd60e51b815260206004820152601060248201527f4d4f4c4543554c455f4558504952454400000000000000000000000000000000604482015260640161090c565b600084815260076020908152604080832080548251818502810185019093528083529192909190830182828015610d1357602002820191906000526020600020905b81546001600160a01b03168152600190910190602001808311610cf5575b505050505090506000815167ffffffffffffffff811115610d3657610d36613c97565b604051908082528060200260200182016040528015610d5f578160200160208202803683370190505b50905060005b8251811015610e0457600760008881526020019081526020016000206001016000848381518110610d9857610d98613ee6565b60200260200101516001600160a01b03166001600160a01b0316815260200190815260200160002060009054906101000a900460ff16828281518110610de057610de0613ee6565b60ff9092166020928302919091019091015280610dfc81613f44565b915050610d65565b50909350915050915091565b60608160076000828152602001908152602001600020600701544210610e785760405162461bcd60e51b815260206004820152601060248201527f4d4f4c4543554c455f4558504952454400000000000000000000000000000000604482015260640161090c565b600083815260076020908152604080832060030180548251818502810185019093528083529192909190830182828015610ed157602002820191906000526020600020905b815481526020019060010190808311610ebd575b509398975050505050505050565b6000546040805163134fdccd60e21b8152905184926001600160a01b031691634d3f73349160048083019260809291908290030181865afa158015610f28573d6000803e3d6000fd5b505050506040513d601f19601f82011682018060405250810190610f4c9190613f7c565b604090810151600580546001600160a01b0392831673ffffffffffffffffffffffffffffffffffffffff19909116179055600083815260076020528281206002015460015493516302571be360e01b8152600481018290529093919291909116906302571be390602401602060405180830381865afa158015610fd3573d6000803e3d6000fd5b505050506040513d601f19601f82011682018060405250810190610ff79190613e4c565b6005549091506001600160a01b031633148061101b57506001600160a01b03811633145b8061104957506001600160a01b038116600090815260086020908152604080832033845290915290205460ff165b8061106d57506000838152600760205260409020600601546001600160a01b031633145b6110b95760405162461bcd60e51b815260206004820152600e60248201527f4e4f545f415554484f5249534544000000000000000000000000000000000000604482015260640161090c565b600085815260076020908152604091829020600501805473ffffffffffffffffffffffffffffffffffffffff19166001600160a01b038816908117909155915191825286917f335721b01866dc23fbee8b6b2c7b1e14d6f05c28cd35a2c934239f94095602a091015b60405180910390a25050505050565b6000546040805163134fdccd60e21b8152905184926001600160a01b031691634d3f73349160048083019260809291908290030181865afa15801561117a573d6000803e3d6000fd5b505050506040513d601f19601f8201168201806040525081019061119e9190613f7c565b604090810151600580546001600160a01b0392831673ffffffffffffffffffffffffffffffffffffffff19909116179055600083815260076020528281206002015460015493516302571be360e01b8152600481018290529093919291909116906302571be390602401602060405180830381865afa158015611225573d6000803e3d6000fd5b505050506040513d601f19601f820116820180604052508101906112499190613e4c565b6005549091506001600160a01b031633148061126d57506001600160a01b03811633145b8061129b57506001600160a01b038116600090815260086020908152604080832033845290915290205460ff165b806112bf57506000838152600760205260409020600601546001600160a01b031633145b61130b5760405162461bcd60e51b815260206004820152600e60248201527f4e4f545f415554484f5249534544000000000000000000000000000000000000604482015260640161090c565b600085815260076020526040908190206004018590555185907f4247841fd58468a6fb10925898bdd83c426da7b5519ee71597106dfdc6751229906111229087815260200190565b60008181526007602081905260409091200154819042106113b65760405162461bcd60e51b815260206004820152601060248201527f4d4f4c4543554c455f4558504952454400000000000000000000000000000000604482015260640161090c565b6000818152600760205260408082206002015460015491516302571be360e01b8152600481018290529092916001600160a01b0316906302571be390602401602060405180830381865afa158015611412573d6000803e3d6000fd5b505050506040513d601f19601f820116820180604052508101906114369190613e4c565b90506001600160a01b03811633148061147257506001600160a01b038116600090815260086020908152604080832033845290915290205460ff165b6114be5760405162461bcd60e51b815260206004820152600960248201527f4e4f545f4f574e45520000000000000000000000000000000000000000000000604482015260640161090c565b60008481526007602090815260408083208054825181850281018501909352808352919290919083018282801561151e57602002820191906000526020600020905b81546001600160a01b03168152600190910190602001808311611500575b5050505050905060005b815181101561160f57600060076000888152602001908152602001600020600101600084848151811061155d5761155d613ee6565b60200260200101516001600160a01b03166001600160a01b0316815260200190815260200160002060006101000a81548160ff021916908360ff160217905550857fc4c4b4793ac649a3a05ee26afdd6d54122cea2e3298a195a786ab7e899c21e348383815181106115d1576115d1613ee6565b60200260200101516040516115f591906001600160a01b0391909116815260200190565b60405180910390a28061160781613f44565b915050611528565b50600085815260076020526040812061162791613ad2565b60405185907f6b91085369552b61ca16180a741663b69fb6b3b967f7271116521d84e2291dc590600090a250505060009182525060076020908152604082208054600181018255908352912001805473ffffffffffffffffffffffffffffffffffffffff19169055565b60008281526007602081905260409091200154829042106116f45760405162461bcd60e51b815260206004820152601060248201527f4d4f4c4543554c455f4558504952454400000000000000000000000000000000604482015260640161090c565b6000818152600760205260408082206002015460015491516302571be360e01b8152600481018290529092916001600160a01b0316906302571be390602401602060405180830381865afa158015611750573d6000803e3d6000fd5b505050506040513d601f19601f820116820180604052508101906117749190613e4c565b90506001600160a01b0381163314806117b057506001600160a01b038116600090815260086020908152604080832033845290915290205460ff165b6117fc5760405162461bcd60e51b815260206004820152600960248201527f4e4f545f4f574e45520000000000000000000000000000000000000000000000604482015260640161090c565b60008581526007602090815260408083208054825181850281018501909352808352919290919083018282801561185c57602002820191906000526020600020905b81546001600160a01b0316815260019091019060200180831161183e575b50506040517f2306f46600000000000000000000000000000000000000000000000000000000815293945073__$47e4ffaaf323c41735ff299f8946896ce0$__93632306f46693506118bf92506001600160a01b038a1691508590600401614003565b602060405180830381865af41580156118dc573d6000803e3d6000fd5b505050506040513d601f19601f820116820180604052508101906119009190613ec9565b15611a95576040517fcd23ef4c00000000000000000000000000000000000000000000000000000000815260009073__$47e4ffaaf323c41735ff299f8946896ce0$__9063cd23ef4c90611963906001600160a01b038a16908690600401614003565b602060405180830381865af4158015611980573d6000803e3d6000fd5b505050506040513d601f19601f820116820180604052508101906119a49190614050565b9050806119e6576040516000815287907fc4c4b4793ac649a3a05ee26afdd6d54122cea2e3298a195a786ab7e899c21e349060200160405180910390a2611a8f565b60008781526007602090815260408083206001600160a01b038a168085526001909101835292819020805460ff191690555191825288917fc4c4b4793ac649a3a05ee26afdd6d54122cea2e3298a195a786ab7e899c21e34910160405180910390a26000878152600760205260409020805482908110611a6857611a68613ee6565b6000918252602090912001805473ffffffffffffffffffffffffffffffffffffffff191690555b50611ac8565b6040516000815286907fc4c4b4793ac649a3a05ee26afdd6d54122cea2e3298a195a786ab7e899c21e3490602001610b02565b505050505050565b600082815260076020819052604090912001548290421015611b345760405162461bcd60e51b815260206004820152600f60248201527f4d4f4c4543554c455f4558495354530000000000000000000000000000000000604482015260640161090c565b600083815260076020526040908190206002018390555183907facb5de0f65735f798ae8baf163fb3380a7813aca2c739ba9e39179007206585a90611b7c9085815260200190565b60405180910390a2505050565b60008181526007602081905260408220015482904210611beb5760405162461bcd60e51b815260206004820152601060248201527f4d4f4c4543554c455f4558504952454400000000000000000000000000000000604482015260640161090c565b505060009081526007602052604090206006015474010000000000000000000000000000000000000000900460ff1690565b60008054906101000a90046001600160a01b03166001600160a01b0316634d3f73346040518163ffffffff1660e01b8152600401608060405180830381865afa158015611c6e573d6000803e3d6000fd5b505050506040513d601f19601f82011682018060405250810190611c929190613f7c565b604001516005805473ffffffffffffffffffffffffffffffffffffffff19166001600160a01b0390921691821790553314611d0f5760405162461bcd60e51b815260206004820152600d60248201527f4e4f545f52454749535452415200000000000000000000000000000000000000604482015260640161090c565b600082815260076020819052604090912001548111611d705760405162461bcd60e51b815260206004820152600a60248201527f4241445f45585049525900000000000000000000000000000000000000000000604482015260640161090c565b600082815260076020819052604091829020018290555182907fa620b72378ee464490805a96e25b53e5c0076f0ce2d28f9691ae255a595b3bf390611db89084815260200190565b60405180910390a25050565b6000838152600760208190526040909120015483904210611e275760405162461bcd60e51b815260206004820152601060248201527f4d4f4c4543554c455f4558504952454400000000000000000000000000000000604482015260640161090c565b6000818152600760205260408082206002015460015491516302571be360e01b8152600481018290529092916001600160a01b0316906302571be390602401602060405180830381865afa158015611e83573d6000803e3d6000fd5b505050506040513d601f19601f82011682018060405250810190611ea79190613e4c565b90506001600160a01b038116331480611ee357506001600160a01b038116600090815260086020908152604080832033845290915290205460ff165b611f2f5760405162461bcd60e51b815260206004820152600960248201527f4e4f545f4f574e45520000000000000000000000000000000000000000000000604482015260640161090c565b611f398685610b98565b611f855760405162461bcd60e51b815260206004820152600b60248201527f484f4f4b5f455849535453000000000000000000000000000000000000000000604482015260640161090c565b6000868152600760209081526040808320805460018082018355828652848620909101805473ffffffffffffffffffffffffffffffffffffffff19166001600160a01b038b169081179091558086529101835292819020805460ff191660ff8a1690811790915581519384529183019190915287917fc733a2bc621cc97eef6ed4f708f126e72e6acb76c0a1c0461c9dd31f7b9870659101610b02565b6000546040805163134fdccd60e21b8152905184926001600160a01b031691634d3f73349160048083019260809291908290030181865afa15801561206b573d6000803e3d6000fd5b505050506040513d601f19601f8201168201806040525081019061208f9190613f7c565b604090810151600580546001600160a01b0392831673ffffffffffffffffffffffffffffffffffffffff19909116179055600083815260076020528281206002015460015493516302571be360e01b8152600481018290529093919291909116906302571be390602401602060405180830381865afa158015612116573d6000803e3d6000fd5b505050506040513d601f19601f8201168201806040525081019061213a9190613e4c565b6005549091506001600160a01b031633148061215e57506001600160a01b03811633145b8061218c57506001600160a01b038116600090815260086020908152604080832033845290915290205460ff165b806121b057506000838152600760205260409020600601546001600160a01b031633145b6121fc5760405162461bcd60e51b815260206004820152600e60248201527f4e4f545f415554484f5249534544000000000000000000000000000000000000604482015260640161090c565b6122068585613a6e565b6122525760405162461bcd60e51b815260206004820152600c60248201527f414e494f4e5f4558495354530000000000000000000000000000000000000000604482015260640161090c565b6000858152600760209081526040808320600301805460018101825590845291909220018590555185907f600ffddd29393ca43c0a11fa6b0b7096631364178cb42f9d546c0a2cd22525ee906111229087815260200190565b6002546040516000916001600160a01b03169047908381818185875af1925050503d80600081146122f8576040519150601f19603f3d011682016040523d82523d6000602084013e6122fd565b606091505b505090508061234e5760405162461bcd60e51b815260206004820152601360248201527f4554485f5452414e534645525f4641494c454400000000000000000000000000604482015260640161090c565b50565b6000546040805163134fdccd60e21b8152905184926001600160a01b031691634d3f73349160048083019260809291908290030181865afa15801561239a573d6000803e3d6000fd5b505050506040513d601f19601f820116820180604052508101906123be9190613f7c565b604090810151600580546001600160a01b0392831673ffffffffffffffffffffffffffffffffffffffff19909116179055600083815260076020528281206002015460015493516302571be360e01b8152600481018290529093919291909116906302571be390602401602060405180830381865afa158015612445573d6000803e3d6000fd5b505050506040513d601f19601f820116820180604052508101906124699190613e4c565b6005549091506001600160a01b031633148061248d57506001600160a01b03811633145b806124bb57506001600160a01b038116600090815260086020908152604080832033845290915290205460ff165b806124df57506000838152600760205260409020600601546001600160a01b031633145b61252b5760405162461bcd60e51b815260206004820152600e60248201527f4e4f545f415554484f5249534544000000000000000000000000000000000000604482015260640161090c565b60005b84518110156126405784818151811061254957612549613ee6565b602002602001015173__$47e4ffaaf323c41735ff299f8946896ce0$__636fd8c6859091600760008a81526020019081526020016000206003016040518363ffffffff1660e01b81526004016125a0929190614069565b602060405180830381865af41580156125bd573d6000803e3d6000fd5b505050506040513d601f19601f820116820180604052508101906125e19190613ec9565b1561262e576007600087815260200190815260200160002060030185828151811061260e5761260e613ee6565b602090810291909101810151825460018101845560009384529190922001555b8061263881613f44565b91505061252e565b50847f580d99949e5d5a02f35dc5b91b800697d53dccb814e200f24f97b4bfbeb8667c856040516111229190613c31565b60008281526007602081905260409091200154829042106126d45760405162461bcd60e51b815260206004820152601060248201527f4d4f4c4543554c455f4558504952454400000000000000000000000000000000604482015260640161090c565b6000818152600760205260408082206002015460015491516302571be360e01b8152600481018290529092916001600160a01b0316906302571be390602401602060405180830381865afa158015612730573d6000803e3d6000fd5b505050506040513d601f19601f820116820180604052508101906127549190613e4c565b90506001600160a01b03811633148061279057506001600160a01b038116600090815260086020908152604080832033845290915290205460ff165b6127dc5760405162461bcd60e51b815260206004820152600960248201527f4e4f545f4f574e45520000000000000000000000000000000000000000000000604482015260640161090c565b600085815260076020526040908190206002018590555185907f4810581adf2c16a86a375dbb1ed89b0b0f7e64d48d24e1948b3dfe6581e4d795906111229087815260200190565b6002546001600160a01b0316331461287e5760405162461bcd60e51b815260206004820152600760248201527f4e4f545f44455600000000000000000000000000000000000000000000000000604482015260640161090c565b600254604080516001600160a01b03928316815291831660208301527fdec101f106d4fc7c85791843e64b198248c822298e3ed7046231d33f7783d816910160405180910390a16002805473ffffffffffffffffffffffffffffffffffffffff19166001600160a01b0392909216919091179055565b6000546040805163134fdccd60e21b8152905184926001600160a01b031691634d3f73349160048083019260809291908290030181865afa15801561293d573d6000803e3d6000fd5b505050506040513d601f19601f820116820180604052508101906129619190613f7c565b604090810151600580546001600160a01b0392831673ffffffffffffffffffffffffffffffffffffffff19909116179055600083815260076020528281206002015460015493516302571be360e01b8152600481018290529093919291909116906302571be390602401602060405180830381865afa1580156129e8573d6000803e3d6000fd5b505050506040513d601f19601f82011682018060405250810190612a0c9190613e4c565b6005549091506001600160a01b0316331480612a3057506001600160a01b03811633145b80612a5e57506001600160a01b038116600090815260086020908152604080832033845290915290205460ff165b80612a8257506000838152600760205260409020600601546001600160a01b031633145b612ace5760405162461bcd60e51b815260206004820152600e60248201527f4e4f545f415554484f5249534544000000000000000000000000000000000000604482015260640161090c565b600085815260076020908152604080832060030180548251818502810185019093528083529192909190830182828015612b2757602002820191906000526020600020905b815481526020019060010190808311612b13575b50506040517f6fd8c68500000000000000000000000000000000000000000000000000000000815293945073__$47e4ffaaf323c41735ff299f8946896ce0$__93636fd8c6859350612b81925089915085906004016140af565b602060405180830381865af4158015612b9e573d6000803e3d6000fd5b505050506040513d601f19601f82011682018060405250810190612bc29190613ec9565b15612cd2576040517fda92b9ed00000000000000000000000000000000000000000000000000000000815260009073__$47e4ffaaf323c41735ff299f8946896ce0$__9063da92b9ed90612c1c90899086906004016140af565b602060405180830381865af4158015612c39573d6000803e3d6000fd5b505050506040513d601f19601f82011682018060405250810190612c5d9190614050565b600088815260076020526040902060030180549192509082908110612c8457612c84613ee6565b9060005260206000200160009055867f5c379d054844760656a56e062f50208b458cfa0c4427574f5a2828d19602b4e987604051612cc491815260200190565b60405180910390a250611ac8565b6040517f5adb3bc7000000000000000000000000000000000000000000000000000000008152600481018790526024810186905260440161090c565b3360008181526008602090815260408083206001600160a01b03871680855290835292819020805460ff191686151590811790915590519081529192917f17307eab39ab6107e8899845ad3d59bd9653f200f220920489ca2b5937696c31910160405180910390a35050565b6001546040516302571be360e01b81526004810184905260009182916001600160a01b03909116906302571be390602401602060405180830381865afa158015612dc8573d6000803e3d6000fd5b505050506040513d601f19601f82011682018060405250810190612dec9190613e4c565b6001600160a01b0390811660009081526008602090815260408083209387168352929052205460ff1691505092915050565b60008181526007602081905260408220015482904210612e805760405162461bcd60e51b815260206004820152601060248201527f4d4f4c4543554c455f4558504952454400000000000000000000000000000000604482015260640161090c565b505060009081526007602052604090206004015490565b6000546040805163134fdccd60e21b8152905184926001600160a01b031691634d3f73349160048083019260809291908290030181865afa158015612ee0573d6000803e3d6000fd5b505050506040513d601f19601f82011682018060405250810190612f049190613f7c565b604090810151600580546001600160a01b0392831673ffffffffffffffffffffffffffffffffffffffff19909116179055600083815260076020528281206002015460015493516302571be360e01b8152600481018290529093919291909116906302571be390602401602060405180830381865afa158015612f8b573d6000803e3d6000fd5b505050506040513d601f19601f82011682018060405250810190612faf9190613e4c565b6005549091506001600160a01b0316331480612fd357506001600160a01b03811633145b8061300157506001600160a01b038116600090815260086020908152604080832033845290915290205460ff165b8061302557506000838152600760205260409020600601546001600160a01b031633145b6130715760405162461bcd60e51b815260206004820152600e60248201527f4e4f545f415554484f5249534544000000000000000000000000000000000000604482015260640161090c565b60008581526007602052604090819020600601805486151574010000000000000000000000000000000000000000027fffffffffffffffffffffff00ffffffffffffffffffffffffffffffffffffffff9091161790555185907fe6ccdb52b4954ab2c3e293f1dbfe593e6c5630962a1944bfcf20c5563eeb84629061112290871515815260200190565b6000546040805163134fdccd60e21b8152905184926001600160a01b031691634d3f73349160048083019260809291908290030181865afa158015613144573d6000803e3d6000fd5b505050506040513d601f19601f820116820180604052508101906131689190613f7c565b604090810151600580546001600160a01b0392831673ffffffffffffffffffffffffffffffffffffffff19909116179055600083815260076020528281206002015460015493516302571be360e01b8152600481018290529093919291909116906302571be390602401602060405180830381865afa1580156131ef573d6000803e3d6000fd5b505050506040513d601f19601f820116820180604052508101906132139190613e4c565b6005549091506001600160a01b031633148061323757506001600160a01b03811633145b8061326557506001600160a01b038116600090815260086020908152604080832033845290915290205460ff165b8061328957506000838152600760205260409020600601546001600160a01b031633145b6132d55760405162461bcd60e51b815260206004820152600e60248201527f4e4f545f415554484f5249534544000000000000000000000000000000000000604482015260640161090c565b600085815260076020908152604091829020600601805473ffffffffffffffffffffffffffffffffffffffff19166001600160a01b038816908117909155915191825286917fe5108446a6097aab57fd36f346a515a78fddefa87d81662d44e0d7a463f920959101611122565b6000546040805163134fdccd60e21b8152905184926001600160a01b031691634d3f73349160048083019260809291908290030181865afa15801561338b573d6000803e3d6000fd5b505050506040513d601f19601f820116820180604052508101906133af9190613f7c565b604090810151600580546001600160a01b0392831673ffffffffffffffffffffffffffffffffffffffff19909116179055600083815260076020528281206002015460015493516302571be360e01b8152600481018290529093919291909116906302571be390602401602060405180830381865afa158015613436573d6000803e3d6000fd5b505050506040513d601f19601f8201168201806040525081019061345a9190613e4c565b6005549091506001600160a01b031633148061347e57506001600160a01b03811633145b806134ac57506001600160a01b038116600090815260086020908152604080832033845290915290205460ff165b806134d057506000838152600760205260409020600601546001600160a01b031633145b61351c5760405162461bcd60e51b815260206004820152600e60248201527f4e4f545f415554484f5249534544000000000000000000000000000000000000604482015260640161090c565b600085815260076020908152604091829020600501805473ffffffffffffffffffffffffffffffffffffffff19166001600160a01b038816908117909155915191825286917fcb71326aeaad88869e8be8be2893e1119f7617ce4ea2411af127e218909be1f79101611122565b600081815260076020819052604082200154829042106135eb5760405162461bcd60e51b815260206004820152601060248201527f4d4f4c4543554c455f4558504952454400000000000000000000000000000000604482015260640161090c565b50506000908152600760205260409020600601546001600160a01b031690565b600082815260076020819052604090912001548290421061366e5760405162461bcd60e51b815260206004820152600c60248201527f424f4e445f455850495245440000000000000000000000000000000000000000604482015260640161090c565b6000818152600760205260408082206002015460015491516302571be360e01b8152600481018290529092916001600160a01b0316906302571be390602401602060405180830381865afa1580156136ca573d6000803e3d6000fd5b505050506040513d601f19601f820116820180604052508101906136ee9190613e4c565b90506001600160a01b03811633148061372a57506001600160a01b038116600090815260086020908152604080832033845290915290205460ff165b8061374e57506000838152600760205260409020600601546001600160a01b031633145b61379a5760405162461bcd60e51b815260206004820152601760248201527f4e4f545f4f574e45525f4f525f434f4e54524f4c4c4552000000000000000000604482015260640161090c565b6000858152600760208190526040909120015484116137fb5760405162461bcd60e51b815260206004820152600a60248201527f4241445f45585049525900000000000000000000000000000000000000000000604482015260640161090c565b60008054906101000a90046001600160a01b03166001600160a01b0316634d3f73346040518163ffffffff1660e01b8152600401608060405180830381865afa15801561384c573d6000803e3d6000fd5b505050506040513d601f19601f820116820180604052508101906138709190613f7c565b6020908101516005805473ffffffffffffffffffffffffffffffffffffffff19166001600160a01b03909216919091179055600086815260079182905260408120909101546138bf90866140f0565b9050600454816138cf9190614103565b34101561391e5760405162461bcd60e51b815260206004820152601260248201527f494e53554646494349454e545f45544845520000000000000000000000000000604482015260640161090c565b600086815260076020819052604091829020018690555186907fa620b72378ee464490805a96e25b53e5c0076f0ce2d28f9691ae255a595b3bf390610b029088815260200190565b600081815260076020819052604082200154829042106139c85760405162461bcd60e51b815260206004820152601060248201527f4d4f4c4543554c455f4558504952454400000000000000000000000000000000604482015260640161090c565b6000838152600760205260408082206002015460015491516302571be360e01b8152600481018290529092916001600160a01b0316906302571be390602401602060405180830381865afa158015613a24573d6000803e3d6000fd5b505050506040513d601f19601f82011682018060405250810190613a489190613e4c565b9050306001600160a01b03821603613a665760035493505050610b92565b509392505050565b60008281526007602052604080822090517f6fd8c68500000000000000000000000000000000000000000000000000000000815273__$47e4ffaaf323c41735ff299f8946896ce0$__91636fd8c68591610bff918691600390910190600401614069565b508054600082559060005260206000209081019061234e91905b80821115613b005760008155600101613aec565b5090565b6001600160a01b038116811461234e57600080fd5b600080600060608486031215613b2e57600080fd5b83359250602084013560ff81168114613b4657600080fd5b91506040840135613b5681613b04565b809150509250925092565b600060208284031215613b7357600080fd5b5035919050565b60008060408385031215613b8d57600080fd5b823591506020830135613b9f81613b04565b809150509250929050565b604080825283519082018190526000906020906060840190828701845b82811015613bec5781516001600160a01b031684529284019290840190600101613bc7565b5050508381038285015284518082528583019183019060005b81811015613c2457835160ff1683529284019291840191600101613c05565b5090979650505050505050565b6020808252825182820181905260009190848201906040850190845b81811015613c6957835183529284019291840191600101613c4d565b50909695505050505050565b60008060408385031215613c8857600080fd5b50508035926020909101359150565b7f4e487b7100000000000000000000000000000000000000000000000000000000600052604160045260246000fd5b604051601f82017fffffffffffffffffffffffffffffffffffffffffffffffffffffffffffffffe016810167ffffffffffffffff81118282101715613d0d57613d0d613c97565b604052919050565b60008060408385031215613d2857600080fd5b8235915060208084013567ffffffffffffffff80821115613d4857600080fd5b818601915086601f830112613d5c57600080fd5b813581811115613d6e57613d6e613c97565b8060051b9150613d7f848301613cc6565b8181529183018401918481019089841115613d9957600080fd5b938501935b83851015613db757843582529385019390850190613d9e565b8096505050505050509250929050565b600060208284031215613dd957600080fd5b8135613de481613b04565b9392505050565b801515811461234e57600080fd5b60008060408385031215613e0c57600080fd5b8235613e1781613b04565b91506020830135613b9f81613deb565b60008060408385031215613e3a57600080fd5b823591506020830135613b9f81613deb565b600060208284031215613e5e57600080fd5b8151613de481613b04565b6000604082016001600160a01b03808616845260206040818601528286548085526060870191508760005282600020945060005b81811015613ebb578554851683526001958601959284019201613e9d565b509098975050505050505050565b600060208284031215613edb57600080fd5b8151613de481613deb565b7f4e487b7100000000000000000000000000000000000000000000000000000000600052603260045260246000fd5b7f4e487b7100000000000000000000000000000000000000000000000000000000600052601160045260246000fd5b60007fffffffffffffffffffffffffffffffffffffffffffffffffffffffffffffffff8203613f7557613f75613f15565b5060010190565b600060808284031215613f8e57600080fd5b82601f830112613f9d57600080fd5b6040516080810181811067ffffffffffffffff82111715613fc057613fc0613c97565b604052806080840185811115613fd557600080fd5b845b81811015613ff8578051613fea81613b04565b835260209283019201613fd7565b509195945050505050565b6000604082016001600160a01b0380861684526020604081860152828651808552606087019150828801945060005b81811015613ebb578551851683529483019491830191600101614032565b60006020828403121561406257600080fd5b5051919050565b60006040820184835260206040818501528185548084526060860191508660005282600020935060005b81811015613c2457845483526001948501949284019201614093565b6000604082018483526020604081850152818551808452606086019150828701935060005b81811015613c24578451835293830193918301916001016140d4565b81810381811115610c4457610c44613f15565b6000817fffffffffffffffffffffffffffffffffffffffffffffffffffffffffffffffff048311821515161561413b5761413b613f15565b50029056fea2646970667358221220b166ffa1dcd706cbd1df9c1670101ac2297059aff0a4ea945b93a9b6ea35c34164736f6c63430008100033",
    "linkReferences": {
      "src/Utils/LibString.sol": {
        "LibString": [
          {
            "start": 5197,
            "length": 20
          },
          {
            "start": 8456,
            "length": 20
          },
          {
            "start": 8623,
            "length": 20
          },
          {
            "start": 11730,
            "length": 20
          },
          {
            "start": 13267,
            "length": 20
          },
          {
            "start": 13425,
            "length": 20
          },
          {
            "start": 17187,
            "length": 20
          }
        ]
      }
    }
  },
  "methodIdentifiers": {
    "Dev()": "01e51ae8",
    "HELIX2()": "b782426e",
    "Molecules(bytes32)": "af6328f6",
    "NAMES()": "05e84aa0",
    "Registrar()": "b9f37c86",
    "active()": "02fb0c5e",
    "addAnion(bytes32,bytes32)": "6ff24830",
    "alias_(bytes32)": "c5bc4c0b",
    "anion(bytes32)": "0e68b116",
    "basePrice()": "c7876ea4",
    "cation(bytes32)": "f61ccd53",
    "changeDev(address)": "88a8c95c",
    "controller(bytes32)": "dbd4e021",
    "covalence(bytes32)": "34026859",
    "expiry(bytes32)": "d2ec5fca",
    "hook(bytes32,uint8,address)": "51a76442",
    "hooksWithRules(bytes32)": "0aac6625",
    "isApprovedForAll(bytes32,address)": "b0698628",
    "isNotDuplicateAnion(bytes32,bytes32)": "f8c91244",
    "isNotDuplicateHook(bytes32,address)": "049a491c",
    "popAnion(bytes32,bytes32)": "8dcad139",
    "recordExists(bytes32)": "f79fe538",
    "register(bytes32,bytes32)": "2f926732",
    "rehook(bytes32,uint8,address)": "015399e6",
    "renew(bytes32,uint256)": "f544d82f",
    "resolver(bytes32)": "0178b8bf",
    "roothash()": "251c9422",
    "setAlias(bytes32,bytes32)": "1f06e91c",
    "setAnions(bytes32,bytes32[])": "741b4cd0",
    "setApprovalForAll(address,bool)": "a22cb465",
    "setCation(bytes32,bytes32)": "8146970a",
    "setController(bytes32,address)": "d3156905",
    "setCovalence(bytes32,bool)": "d07699aa",
    "setExpiry(bytes32,uint256)": "39de6469",
    "setRecord(bytes32,address)": "d9b76ed4",
    "setResolver(bytes32,address)": "1896f70a",
    "theEnd()": "22b68deb",
    "unhook(bytes32,address)": "241270d5",
    "unhookAll(bytes32)": "21ec2b5b",
    "withdrawEther()": "7362377b"
  },
  "id": 24
}