{
  "abi": [
    {
      "inputs": [
        {
          "internalType": "address",
          "name": "_registry",
          "type": "address"
        },
        {
          "internalType": "address",
          "name": "_helix2",
          "type": "address"
        },
        {
          "internalType": "address",
          "name": "_priceOracle",
          "type": "address"
        }
      ],
      "stateMutability": "nonpayable",
      "type": "constructor"
    },
    {
      "inputs": [],
      "name": "BAD_ANION",
      "type": "error"
    },
    {
      "inputs": [],
      "name": "BAD_HOOK",
      "type": "error"
    },
    {
      "inputs": [],
      "name": "BAD_RULE",
      "type": "error"
    },
    {
      "anonymous": false,
      "inputs": [
        {
          "indexed": true,
          "internalType": "bytes32",
          "name": "molyhash",
          "type": "bytes32"
        },
        {
          "indexed": false,
          "internalType": "address",
          "name": "config",
          "type": "address"
        },
        {
          "indexed": false,
          "internalType": "uint8",
          "name": "rule",
          "type": "uint8"
        }
      ],
      "name": "Hooked",
      "type": "event"
    },
    {
      "anonymous": false,
      "inputs": [
        {
          "indexed": true,
          "internalType": "bytes32",
          "name": "molyhash",
          "type": "bytes32"
        },
        {
          "indexed": false,
          "internalType": "bytes32",
          "name": "anion",
          "type": "bytes32"
        }
      ],
      "name": "NewAnion",
      "type": "event"
    },
    {
      "anonymous": false,
      "inputs": [
        {
          "indexed": true,
          "internalType": "bytes32",
          "name": "molyhash",
          "type": "bytes32"
        },
        {
          "indexed": false,
          "internalType": "bytes32[]",
          "name": "anion",
          "type": "bytes32[]"
        }
      ],
      "name": "NewAnions",
      "type": "event"
    },
    {
      "anonymous": false,
      "inputs": [
        {
          "indexed": true,
          "internalType": "bytes32",
          "name": "molyhash",
          "type": "bytes32"
        },
        {
          "indexed": false,
          "internalType": "bytes32",
          "name": "cation",
          "type": "bytes32"
        }
      ],
      "name": "NewCation",
      "type": "event"
    },
    {
      "anonymous": false,
      "inputs": [
        {
          "indexed": true,
          "internalType": "bytes32",
          "name": "molyhash",
          "type": "bytes32"
        },
        {
          "indexed": false,
          "internalType": "address",
          "name": "controller",
          "type": "address"
        }
      ],
      "name": "NewController",
      "type": "event"
    },
    {
      "anonymous": false,
      "inputs": [
        {
          "indexed": true,
          "internalType": "bytes32",
          "name": "molyhash",
          "type": "bytes32"
        },
        {
          "indexed": false,
          "internalType": "bool",
          "name": "covalence",
          "type": "bool"
        }
      ],
      "name": "NewCovalence",
      "type": "event"
    },
    {
      "anonymous": false,
      "inputs": [
        {
          "indexed": true,
          "internalType": "bytes32",
          "name": "molyhash",
          "type": "bytes32"
        },
        {
          "indexed": false,
          "internalType": "uint256",
          "name": "expiry",
          "type": "uint256"
        }
      ],
      "name": "NewExpiry",
      "type": "event"
    },
    {
      "anonymous": false,
      "inputs": [
        {
          "indexed": true,
          "internalType": "bytes32",
          "name": "molyhash",
          "type": "bytes32"
        },
        {
          "indexed": false,
          "internalType": "address",
          "name": "resolver",
          "type": "address"
        }
      ],
      "name": "NewResolver",
      "type": "event"
    },
    {
      "anonymous": false,
      "inputs": [
        {
          "indexed": true,
          "internalType": "address",
          "name": "previousOwner",
          "type": "address"
        },
        {
          "indexed": true,
          "internalType": "address",
          "name": "newOwner",
          "type": "address"
        }
      ],
      "name": "OwnershipTransferred",
      "type": "event"
    },
    {
      "anonymous": false,
      "inputs": [
        {
          "indexed": true,
          "internalType": "bytes32",
          "name": "molyhash",
          "type": "bytes32"
        },
        {
          "indexed": false,
          "internalType": "bytes32",
          "name": "anion",
          "type": "bytes32"
        }
      ],
      "name": "PopAnion",
      "type": "event"
    },
    {
      "anonymous": false,
      "inputs": [
        {
          "indexed": true,
          "internalType": "bytes32",
          "name": "molyhash",
          "type": "bytes32"
        },
        {
          "indexed": false,
          "internalType": "address",
          "name": "config",
          "type": "address"
        },
        {
          "indexed": false,
          "internalType": "uint8",
          "name": "rule",
          "type": "uint8"
        }
      ],
      "name": "Rehooked",
      "type": "event"
    },
    {
      "anonymous": false,
      "inputs": [
        {
          "indexed": true,
          "internalType": "bytes32",
          "name": "molyhash",
          "type": "bytes32"
        },
        {
          "indexed": false,
          "internalType": "uint8",
          "name": "rule",
          "type": "uint8"
        }
      ],
      "name": "Unhooked",
      "type": "event"
    },
    {
      "anonymous": false,
      "inputs": [
        {
          "indexed": true,
          "internalType": "bytes32",
          "name": "molyhash",
          "type": "bytes32"
        }
      ],
      "name": "UnhookedAll",
      "type": "event"
    },
    {
      "inputs": [],
      "name": "Dev",
      "outputs": [
        {
          "internalType": "address",
          "name": "",
          "type": "address"
        }
      ],
      "stateMutability": "view",
      "type": "function"
    },
    {
      "inputs": [],
      "name": "HELIX2",
      "outputs": [
        {
          "internalType": "contract iHELIX2",
          "name": "",
          "type": "address"
        }
      ],
      "stateMutability": "view",
      "type": "function"
    },
    {
      "inputs": [
        {
          "internalType": "bytes32",
          "name": "",
          "type": "bytes32"
        }
      ],
      "name": "Molecules",
      "outputs": [
        {
          "internalType": "bytes32",
          "name": "_cation",
          "type": "bytes32"
        },
        {
          "internalType": "bytes32",
          "name": "_label",
          "type": "bytes32"
        },
        {
          "internalType": "address",
          "name": "_resolver",
          "type": "address"
        },
        {
          "internalType": "address",
          "name": "_controller",
          "type": "address"
        },
        {
          "internalType": "bool",
          "name": "_covalence",
          "type": "bool"
        },
        {
          "internalType": "uint256",
          "name": "_expiry",
          "type": "uint256"
        }
      ],
      "stateMutability": "view",
      "type": "function"
    },
    {
      "inputs": [],
      "name": "NAMES",
      "outputs": [
        {
          "internalType": "contract iNAME",
          "name": "",
          "type": "address"
        }
      ],
      "stateMutability": "view",
      "type": "function"
    },
    {
      "inputs": [],
      "name": "PRICES",
      "outputs": [
        {
          "internalType": "contract iPriceOracle",
          "name": "",
          "type": "address"
        }
      ],
      "stateMutability": "view",
      "type": "function"
    },
    {
      "inputs": [],
      "name": "Registrar",
      "outputs": [
        {
          "internalType": "address",
          "name": "",
          "type": "address"
        }
      ],
      "stateMutability": "view",
      "type": "function"
    },
    {
      "inputs": [],
      "name": "STORE",
      "outputs": [
        {
          "internalType": "contract iMOLECULE",
          "name": "",
          "type": "address"
        }
      ],
      "stateMutability": "view",
      "type": "function"
    },
    {
      "inputs": [],
      "name": "active",
      "outputs": [
        {
          "internalType": "bool",
          "name": "",
          "type": "bool"
        }
      ],
      "stateMutability": "view",
      "type": "function"
    },
    {
      "inputs": [
        {
          "internalType": "bytes32",
          "name": "molyhash",
          "type": "bytes32"
        },
        {
          "internalType": "bytes32",
          "name": "_anion",
          "type": "bytes32"
        }
      ],
      "name": "addAnion",
      "outputs": [],
      "stateMutability": "nonpayable",
      "type": "function"
    },
    {
      "inputs": [
        {
          "internalType": "bytes32",
          "name": "molyhash",
          "type": "bytes32"
        }
      ],
      "name": "anions",
      "outputs": [
        {
          "internalType": "bytes32[]",
          "name": "",
          "type": "bytes32[]"
        }
      ],
      "stateMutability": "view",
      "type": "function"
    },
    {
      "inputs": [],
      "name": "basePrice",
      "outputs": [
        {
          "internalType": "uint256",
          "name": "",
          "type": "uint256"
        }
      ],
      "stateMutability": "view",
      "type": "function"
    },
    {
      "inputs": [
        {
          "internalType": "bytes32",
          "name": "molyhash",
          "type": "bytes32"
        }
      ],
      "name": "cation",
      "outputs": [
        {
          "internalType": "bytes32",
          "name": "",
          "type": "bytes32"
        }
      ],
      "stateMutability": "view",
      "type": "function"
    },
    {
      "inputs": [
        {
          "internalType": "bytes32",
          "name": "molyhash",
          "type": "bytes32"
        }
      ],
      "name": "controller",
      "outputs": [
        {
          "internalType": "address",
          "name": "",
          "type": "address"
        }
      ],
      "stateMutability": "view",
      "type": "function"
    },
    {
      "inputs": [
        {
          "internalType": "bytes32",
          "name": "molyhash",
          "type": "bytes32"
        }
      ],
      "name": "covalence",
      "outputs": [
        {
          "internalType": "bool",
          "name": "",
          "type": "bool"
        }
      ],
      "stateMutability": "view",
      "type": "function"
    },
    {
      "inputs": [
        {
          "internalType": "bytes32",
          "name": "molyhash",
          "type": "bytes32"
        }
      ],
      "name": "expiry",
      "outputs": [
        {
          "internalType": "uint256",
          "name": "",
          "type": "uint256"
        }
      ],
      "stateMutability": "view",
      "type": "function"
    },
    {
      "inputs": [
        {
          "internalType": "bytes32",
          "name": "molyhash",
          "type": "bytes32"
        },
        {
          "internalType": "address",
          "name": "config",
          "type": "address"
        },
        {
          "internalType": "uint8",
          "name": "rule",
          "type": "uint8"
        }
      ],
      "name": "hook",
      "outputs": [],
      "stateMutability": "nonpayable",
      "type": "function"
    },
    {
      "inputs": [
        {
          "internalType": "bytes32",
          "name": "molyhash",
          "type": "bytes32"
        }
      ],
      "name": "hooksWithRules",
      "outputs": [
        {
          "internalType": "uint8[]",
          "name": "_rules",
          "type": "uint8[]"
        },
        {
          "internalType": "address[]",
          "name": "_hooks",
          "type": "address[]"
        }
      ],
      "stateMutability": "view",
      "type": "function"
    },
    {
      "inputs": [
        {
          "internalType": "bytes32",
          "name": "molyhash",
          "type": "bytes32"
        },
        {
          "internalType": "bytes32",
          "name": "_anion",
          "type": "bytes32"
        }
      ],
      "name": "isNotDuplicateAnion",
      "outputs": [
        {
          "internalType": "bool",
          "name": "",
          "type": "bool"
        }
      ],
      "stateMutability": "view",
      "type": "function"
    },
    {
      "inputs": [
        {
          "internalType": "bytes32",
          "name": "molyhash",
          "type": "bytes32"
        },
        {
          "internalType": "uint8",
          "name": "rule",
          "type": "uint8"
        }
      ],
      "name": "isNotDuplicateRule",
      "outputs": [
        {
          "internalType": "bool",
          "name": "",
          "type": "bool"
        }
      ],
      "stateMutability": "view",
      "type": "function"
    },
    {
      "inputs": [
        {
          "internalType": "bytes32",
          "name": "molyhash",
          "type": "bytes32"
        }
      ],
      "name": "label",
      "outputs": [
        {
          "internalType": "bytes32",
          "name": "",
          "type": "bytes32"
        }
      ],
      "stateMutability": "view",
      "type": "function"
    },
    {
      "inputs": [],
      "name": "owner",
      "outputs": [
        {
          "internalType": "address",
          "name": "",
          "type": "address"
        }
      ],
      "stateMutability": "view",
      "type": "function"
    },
    {
      "inputs": [
        {
          "internalType": "bytes32",
          "name": "molyhash",
          "type": "bytes32"
        },
        {
          "internalType": "bytes32",
          "name": "_anion",
          "type": "bytes32"
        }
      ],
      "name": "popAnion",
      "outputs": [],
      "stateMutability": "nonpayable",
      "type": "function"
    },
    {
      "inputs": [
        {
          "internalType": "bytes32",
          "name": "molyhash",
          "type": "bytes32"
        }
      ],
      "name": "recordExists",
      "outputs": [
        {
          "internalType": "bool",
          "name": "",
          "type": "bool"
        }
      ],
      "stateMutability": "view",
      "type": "function"
    },
    {
      "inputs": [
        {
          "internalType": "bytes32",
          "name": "molyhash",
          "type": "bytes32"
        },
        {
          "internalType": "bytes32",
          "name": "_cation",
          "type": "bytes32"
        }
      ],
      "name": "register",
      "outputs": [],
      "stateMutability": "nonpayable",
      "type": "function"
    },
    {
      "inputs": [
        {
          "internalType": "bytes32",
          "name": "molyhash",
          "type": "bytes32"
        },
        {
          "internalType": "address",
          "name": "config",
          "type": "address"
        },
        {
          "internalType": "uint8",
          "name": "rule",
          "type": "uint8"
        }
      ],
      "name": "rehook",
      "outputs": [],
      "stateMutability": "nonpayable",
      "type": "function"
    },
    {
      "inputs": [
        {
          "internalType": "bytes32",
          "name": "molyhash",
          "type": "bytes32"
        },
        {
          "internalType": "uint256",
          "name": "_expiry",
          "type": "uint256"
        }
      ],
      "name": "renew",
      "outputs": [],
      "stateMutability": "payable",
      "type": "function"
    },
    {
      "inputs": [
        {
          "internalType": "bytes32",
          "name": "molyhash",
          "type": "bytes32"
        }
      ],
      "name": "resolver",
      "outputs": [
        {
          "internalType": "address",
          "name": "",
          "type": "address"
        }
      ],
      "stateMutability": "view",
      "type": "function"
    },
    {
      "inputs": [],
      "name": "roothash",
      "outputs": [
        {
          "internalType": "bytes32",
          "name": "",
          "type": "bytes32"
        }
      ],
      "stateMutability": "view",
      "type": "function"
    },
    {
      "inputs": [
        {
          "internalType": "bytes32",
          "name": "molyhash",
          "type": "bytes32"
        },
        {
          "internalType": "bytes32[]",
          "name": "_anions",
          "type": "bytes32[]"
        }
      ],
      "name": "setAnions",
      "outputs": [],
      "stateMutability": "nonpayable",
      "type": "function"
    },
    {
      "inputs": [
        {
          "internalType": "bytes32",
          "name": "molyhash",
          "type": "bytes32"
        },
        {
          "internalType": "bytes32",
          "name": "_cation",
          "type": "bytes32"
        }
      ],
      "name": "setCation",
      "outputs": [],
      "stateMutability": "nonpayable",
      "type": "function"
    },
    {
      "inputs": [
        {
          "internalType": "address",
          "name": "_helix2",
          "type": "address"
        },
        {
          "internalType": "address",
          "name": "_priceOracle",
          "type": "address"
        },
        {
          "internalType": "address",
          "name": "_store",
          "type": "address"
        }
      ],
      "name": "setConfig",
      "outputs": [],
      "stateMutability": "nonpayable",
      "type": "function"
    },
    {
      "inputs": [
        {
          "internalType": "bytes32",
          "name": "molyhash",
          "type": "bytes32"
        },
        {
          "internalType": "address",
          "name": "_controller",
          "type": "address"
        }
      ],
      "name": "setController",
      "outputs": [],
      "stateMutability": "nonpayable",
      "type": "function"
    },
    {
      "inputs": [
        {
          "internalType": "bytes32",
          "name": "molyhash",
          "type": "bytes32"
        },
        {
          "internalType": "bool",
          "name": "_covalence",
          "type": "bool"
        }
      ],
      "name": "setCovalence",
      "outputs": [],
      "stateMutability": "nonpayable",
      "type": "function"
    },
    {
      "inputs": [
        {
          "internalType": "bytes32",
          "name": "molyhash",
          "type": "bytes32"
        },
        {
          "internalType": "uint256",
          "name": "_expiry",
          "type": "uint256"
        }
      ],
      "name": "setExpiry",
      "outputs": [],
      "stateMutability": "nonpayable",
      "type": "function"
    },
    {
      "inputs": [
        {
          "internalType": "bytes4",
          "name": "sig",
          "type": "bytes4"
        },
        {
          "internalType": "bool",
          "name": "value",
          "type": "bool"
        }
      ],
      "name": "setInterface",
      "outputs": [],
      "stateMutability": "payable",
      "type": "function"
    },
    {
      "inputs": [
        {
          "internalType": "bytes32",
          "name": "molyhash",
          "type": "bytes32"
        },
        {
          "internalType": "bytes32",
          "name": "_label",
          "type": "bytes32"
        }
      ],
      "name": "setLabel",
      "outputs": [],
      "stateMutability": "nonpayable",
      "type": "function"
    },
    {
      "inputs": [
        {
          "internalType": "bytes32",
          "name": "molyhash",
          "type": "bytes32"
        },
        {
          "internalType": "address",
          "name": "_resolver",
          "type": "address"
        }
      ],
      "name": "setResolver",
      "outputs": [],
      "stateMutability": "nonpayable",
      "type": "function"
    },
    {
      "inputs": [
        {
          "internalType": "bytes4",
          "name": "",
          "type": "bytes4"
        }
      ],
      "name": "supportedInterfaces",
      "outputs": [
        {
          "internalType": "bool",
          "name": "",
          "type": "bool"
        }
      ],
      "stateMutability": "view",
      "type": "function"
    },
    {
      "inputs": [
        {
          "internalType": "bytes4",
          "name": "sig",
          "type": "bytes4"
        }
      ],
      "name": "supportsInterface",
      "outputs": [
        {
          "internalType": "bool",
          "name": "",
          "type": "bool"
        }
      ],
      "stateMutability": "view",
      "type": "function"
    },
    {
      "inputs": [],
      "name": "theEnd",
      "outputs": [
        {
          "internalType": "uint256",
          "name": "",
          "type": "uint256"
        }
      ],
      "stateMutability": "view",
      "type": "function"
    },
    {
      "inputs": [],
      "name": "toggleActive",
      "outputs": [],
      "stateMutability": "nonpayable",
      "type": "function"
    },
    {
      "inputs": [
        {
          "internalType": "address",
          "name": "newDev",
          "type": "address"
        }
      ],
      "name": "transferOwnership",
      "outputs": [],
      "stateMutability": "nonpayable",
      "type": "function"
    },
    {
      "inputs": [
        {
          "internalType": "bytes32",
          "name": "molyhash",
          "type": "bytes32"
        },
        {
          "internalType": "uint8",
          "name": "rule",
          "type": "uint8"
        }
      ],
      "name": "unhook",
      "outputs": [],
      "stateMutability": "nonpayable",
      "type": "function"
    },
    {
      "inputs": [
        {
          "internalType": "bytes32",
          "name": "molyhash",
          "type": "bytes32"
        }
      ],
      "name": "unhookAll",
      "outputs": [],
      "stateMutability": "nonpayable",
      "type": "function"
    }
  ],
  "bytecode": {
    "object": "0x60806040526004805460ff60a01b1916600160a01b1790556703782dace9d900006009553480156200003057600080fd5b50604051620054df380380620054df833981016040819052620000539162000211565b60048054336001600160a01b03199182161782556000805482166001600160a01b03868116918217909255600180549093169187169190911790915560408051633215476b60e11b81529051919263642a8ed69282820192608092908290030181865afa158015620000c9573d6000803e3d6000fd5b505050506040513d601f19601f82011682018060405250810190620000ef919062000292565b60026020020151600655600380546001600160a01b0319166001600160a01b0383169081179091556040805163bd9a548b60e01b8152905163bd9a548b916004808201926080929091908290030181865afa15801562000153573d6000803e3d6000fd5b505050506040513d601f19601f8201168201806040525081019062000179919062000292565b6040015160075550506005602052507f4bcc8a24ccebcb02e06809ffdc3dbdc56f736cf28155948650f9bec809bea48e8054600160ff1991821681179092556307f5828d60e41b6000527f744f038481816166db36c1c96c51289c139e33b5b050399f9ec0fad34d16e76880549091169091179055620002f9565b80516001600160a01b03811681146200020c57600080fd5b919050565b6000806000606084860312156200022757600080fd5b6200023284620001f4565b92506200024260208501620001f4565b91506200025260408501620001f4565b90509250925092565b604051608081016001600160401b03811182821017156200028c57634e487b7160e01b600052604160045260246000fd5b60405290565b600060808284031215620002a557600080fd5b82601f830112620002b557600080fd5b620002bf6200025b565b806080840185811115620002d257600080fd5b845b81811015620002ee578051845260209384019301620002d4565b509095945050505050565b6151d680620003096000396000f3fe6080604052600436106102e75760003560e01c80638146970a11610184578063d07699aa116100d6578063e79eaa261161008a578063f61ccd5311610064578063f61ccd5314610905578063f79fe53814610925578063f8c912441461094557600080fd5b8063e79eaa26146108b2578063f2fde38b146108d2578063f544d82f146108f257600080fd5b8063d3156905116100bb578063d315690514610852578063dbd4e02114610872578063deee4da91461089257600080fd5b8063d07699aa14610812578063d2ec5fca1461083257600080fd5b8063af6328f611610138578063b9f37c8611610112578063b9f37c86146107c9578063c0a43a7c146107e9578063c7876ea4146107fc57600080fd5b8063af6328f6146106d7578063b612e9b914610789578063b782426e146107a957600080fd5b8063849a799c11610169578063849a799c146106795780638da5cb5b146106995780638dcad139146106b757600080fd5b80638146970a14610639578063836697261461065957600080fd5b806322b68deb1161023d57806334026859116101f1578063622dad7f116101cb578063622dad7f146105cc5780636ff24830146105f9578063741b4cd01461061957600080fd5b8063340268591461056c57806339de64691461058c578063507f1465146105ac57600080fd5b806329c68dc11161022257806329c68dc1146105175780632f9267321461052c5780633141e25b1461054c57600080fd5b806322b68deb146104eb578063251c94221461050157600080fd5b80630aac66251161029f5780631eabcd34116102795780631eabcd341461047d5780631fc4859e1461049d57806321ec2b5b146104cb57600080fd5b80630aac6625146103fd5780631584ba381461042b5780631896f70a1461045b57600080fd5b806301ffc9a7116102d057806301ffc9a71461034957806302fb0c5e146103ab57806305e84aa0146103dd57600080fd5b80630178b8bf146102ec57806301e51ae814610329575b600080fd5b3480156102f857600080fd5b5061030c6103073660046149be565b610965565b6040516001600160a01b0390911681526020015b60405180910390f35b34801561033557600080fd5b5060045461030c906001600160a01b031681565b34801561035557600080fd5b5061039b610364366004614a0c565b7fffffffff000000000000000000000000000000000000000000000000000000001660009081526005602052604090205460ff1690565b6040519015158152602001610320565b3480156103b757600080fd5b5060045461039b9074010000000000000000000000000000000000000000900460ff1681565b3480156103e957600080fd5b5060015461030c906001600160a01b031681565b34801561040957600080fd5b5061041d6104183660046149be565b610aba565b604051610320929190614a2e565b34801561043757600080fd5b5061039b610446366004614a0c565b60056020526000908152604090205460ff1681565b34801561046757600080fd5b5061047b610476366004614acd565b610c0f565b005b34801561048957600080fd5b5060035461030c906001600160a01b031681565b3480156104a957600080fd5b506104bd6104b83660046149be565b610eb1565b604051908152602001610320565b3480156104d757600080fd5b5061047b6104e63660046149be565b610ff7565b3480156104f757600080fd5b506104bd60095481565b34801561050d57600080fd5b506104bd60065481565b34801561052357600080fd5b5061047b61127c565b34801561053857600080fd5b5061047b610547366004614afd565b611323565b34801561055857600080fd5b5061047b610567366004614b1f565b6114fd565b34801561057857600080fd5b5061039b6105873660046149be565b6117ed565b34801561059857600080fd5b5061047b6105a7366004614afd565b611933565b3480156105b857600080fd5b5060025461030c906001600160a01b031681565b3480156105d857600080fd5b506105ec6105e73660046149be565b611af8565b6040516103209190614b6a565b34801561060557600080fd5b5061047b610614366004614afd565b611c42565b34801561062557600080fd5b5061047b610634366004614c5b565b611fc6565b34801561064557600080fd5b5061047b610654366004614afd565b61234b565b34801561066557600080fd5b5061047b610674366004614d0c565b6126bd565b34801561068557600080fd5b5061047b610694366004614d0c565b612b7c565b3480156106a557600080fd5b506004546001600160a01b031661030c565b3480156106c357600080fd5b5061047b6106d2366004614afd565b612f1b565b3480156106e357600080fd5b5061074d6106f23660046149be565b600a6020526000908152604090206002810154600482015460058301546006840154600790940154929391926001600160a01b03918216929182169174010000000000000000000000000000000000000000900460ff169086565b6040805196875260208701959095526001600160a01b0393841694860194909452911660608401521515608083015260a082015260c001610320565b34801561079557600080fd5b5061047b6107a4366004614d43565b61333a565b3480156107b557600080fd5b5060005461030c906001600160a01b031681565b3480156107d557600080fd5b5060085461030c906001600160a01b031681565b61047b6107f7366004614d76565b613756565b34801561080857600080fd5b506104bd60075481565b34801561081e57600080fd5b5061047b61082d366004614da2565b613884565b34801561083e57600080fd5b506104bd61084d3660046149be565b613b14565b34801561085e57600080fd5b5061047b61086d366004614acd565b613b88565b34801561087e57600080fd5b5061030c61088d3660046149be565b613e1f565b34801561089e57600080fd5b5061047b6108ad366004614afd565b613f10565b3480156108be57600080fd5b5061039b6108cd366004614d43565b613fe4565b3480156108de57600080fd5b5061047b6108ed366004614dc7565b61408c565b61047b610900366004614afd565b61415a565b34801561091157600080fd5b506104bd6109203660046149be565b6145ad565b34801561093157600080fd5b5061039b6109403660046149be565b614774565b34801561095157600080fd5b5061039b610960366004614afd565b6147ea565b6002546040516369762fe560e11b81526004810183905260009183916001600160a01b039091169063d2ec5fca90602401602060405180830381865afa1580156109b3573d6000803e3d6000fd5b505050506040513d601f19601f820116820180604052508101906109d79190614de4565b4210610a2a5760405162461bcd60e51b815260206004820152601060248201527f4d4f4c4543554c455f455850495245440000000000000000000000000000000060448201526064015b60405180910390fd5b6002546040517f0178b8bf000000000000000000000000000000000000000000000000000000008152600481018590526001600160a01b0390911690630178b8bf906024015b602060405180830381865afa158015610a8d573d6000803e3d6000fd5b505050506040513d601f19601f82011682018060405250810190610ab19190614dfd565b91505b50919050565b6002546040516369762fe560e11b815260048101839052606091829184916001600160a01b03169063d2ec5fca90602401602060405180830381865afa158015610b08573d6000803e3d6000fd5b505050506040513d601f19601f82011682018060405250810190610b2c9190614de4565b4210610b7a5760405162461bcd60e51b815260206004820152601060248201527f4d4f4c4543554c455f45585049524544000000000000000000000000000000006044820152606401610a21565b6002546040517f0aac6625000000000000000000000000000000000000000000000000000000008152600481018690526001600160a01b0390911690630aac662590602401600060405180830381865afa158015610bdc573d6000803e3d6000fd5b505050506040513d6000823e601f3d908101601f19168201604052610c049190810190614e89565b909590945092505050565b60025460405163f61ccd5360e01b81526004810184905283916000916001600160a01b039091169063f61ccd5390602401602060405180830381865afa158015610c5d573d6000803e3d6000fd5b505050506040513d601f19601f82011682018060405250810190610c819190614de4565b6001546040516302571be360e01b8152600481018390529192506000916001600160a01b03909116906302571be390602401602060405180830381865afa158015610cd0573d6000803e3d6000fd5b505050506040513d601f19601f82011682018060405250810190610cf49190614dfd565b6008549091506001600160a01b0316331480610d1857506001600160a01b03811633145b80610da0575060025460405163dbd4e02160e01b8152600481018590526001600160a01b039091169063dbd4e02190602401602060405180830381865afa158015610d67573d6000803e3d6000fd5b505050506040513d601f19601f82011682018060405250810190610d8b9190614dfd565b6001600160a01b0316336001600160a01b0316145b610dec5760405162461bcd60e51b815260206004820152600e60248201527f4e4f545f415554484f52495345440000000000000000000000000000000000006044820152606401610a21565b6002546040517f1896f70a000000000000000000000000000000000000000000000000000000008152600481018790526001600160a01b03868116602483015290911690631896f70a90604401600060405180830381600087803b158015610e5357600080fd5b505af1158015610e67573d6000803e3d6000fd5b50506040516001600160a01b03871681528792507f335721b01866dc23fbee8b6b2c7b1e14d6f05c28cd35a2c934239f94095602a091506020015b60405180910390a25050505050565b6002546040516369762fe560e11b81526004810183905260009183916001600160a01b039091169063d2ec5fca90602401602060405180830381865afa158015610eff573d6000803e3d6000fd5b505050506040513d601f19601f82011682018060405250810190610f239190614de4565b4210610f715760405162461bcd60e51b815260206004820152601060248201527f4d4f4c4543554c455f45585049524544000000000000000000000000000000006044820152606401610a21565b6002546040517f1fc4859e000000000000000000000000000000000000000000000000000000008152600481018590526001600160a01b0390911690631fc4859e90602401602060405180830381865afa158015610fd3573d6000803e3d6000fd5b505050506040513d601f19601f82011682018060405250810190610ab19190614de4565b60025460405163f61ccd5360e01b81526004810183905282916000916001600160a01b039091169063f61ccd5390602401602060405180830381865afa158015611045573d6000803e3d6000fd5b505050506040513d601f19601f820116820180604052508101906110699190614de4565b6001546040516302571be360e01b8152600481018390529192506000916001600160a01b03909116906302571be390602401602060405180830381865afa1580156110b8573d6000803e3d6000fd5b505050506040513d601f19601f820116820180604052508101906110dc9190614dfd565b6008549091506001600160a01b031633148061110057506001600160a01b03811633145b80611188575060025460405163dbd4e02160e01b8152600481018590526001600160a01b039091169063dbd4e02190602401602060405180830381865afa15801561114f573d6000803e3d6000fd5b505050506040513d601f19601f820116820180604052508101906111739190614dfd565b6001600160a01b0316336001600160a01b0316145b6111d45760405162461bcd60e51b815260206004820152600e60248201527f4e4f545f415554484f52495345440000000000000000000000000000000000006044820152606401610a21565b6002546040517f21ec2b5b000000000000000000000000000000000000000000000000000000008152600481018690526001600160a01b03909116906321ec2b5b90602401600060405180830381600087803b15801561123357600080fd5b505af1158015611247573d6000803e3d6000fd5b50506040518692507f6b91085369552b61ca16180a741663b69fb6b3b967f7271116521d84e2291dc59150600090a250505050565b6004546001600160a01b031633146112d65760405162461bcd60e51b815260206004820152600760248201527f4e4f545f444556000000000000000000000000000000000000000000000000006044820152606401610a21565b600480547fffffffffffffffffffffff00ffffffffffffffffffffffffffffffffffffffff8116740100000000000000000000000000000000000000009182900460ff1615909102179055565b6008546001600160a01b0316331461137d5760405162461bcd60e51b815260206004820152600d60248201527f4e4f545f524547495354524152000000000000000000000000000000000000006044820152606401610a21565b6001546040516302571be360e01b8152600481018390526000916001600160a01b0316906302571be390602401602060405180830381865afa1580156113c7573d6000803e3d6000fd5b505050506040513d601f19601f820116820180604052508101906113eb9190614dfd565b6001600160a01b0316036114415760405162461bcd60e51b815260206004820152600b60248201527f43414e4e4f545f4255524e0000000000000000000000000000000000000000006044820152606401610a21565b6002546040517f8146970a00000000000000000000000000000000000000000000000000000000815260048101849052602481018390526001600160a01b0390911690638146970a90604401600060405180830381600087803b1580156114a757600080fd5b505af11580156114bb573d6000803e3d6000fd5b50505050817f4810581adf2c16a86a375dbb1ed89b0b0f7e64d48d24e1948b3dfe6581e4d795826040516114f191815260200190565b60405180910390a25050565b6004546001600160a01b031633146115575760405162461bcd60e51b815260206004820152600760248201527f4e4f545f444556000000000000000000000000000000000000000000000000006044820152606401610a21565b6001600160a01b038316156116e057600080547fffffffffffffffffffffffff0000000000000000000000000000000000000000166001600160a01b038516908117909155604080517f642a8ed6000000000000000000000000000000000000000000000000000000008152905163642a8ed6916004808201926080929091908290030181865afa1580156115f0573d6000803e3d6000fd5b505050506040513d601f19601f820116820180604052508101906116149190614f4e565b60409081015160065560005481517f4d3f733400000000000000000000000000000000000000000000000000000000815291516001600160a01b0390911691634d3f73349160048083019260809291908290030181865afa15801561167d573d6000803e3d6000fd5b505050506040513d601f19601f820116820180604052508101906116a19190614fdd565b60026020020151600880547fffffffffffffffffffffffff0000000000000000000000000000000000000000166001600160a01b039092169190911790555b6001600160a01b0381161561172357600280547fffffffffffffffffffffffff0000000000000000000000000000000000000000166001600160a01b0383161790555b6001600160a01b038216156117e857600380547fffffffffffffffffffffffff0000000000000000000000000000000000000000166001600160a01b038416908117909155604080517fbd9a548b000000000000000000000000000000000000000000000000000000008152905163bd9a548b916004808201926080929091908290030181865afa1580156117bc573d6000803e3d6000fd5b505050506040513d601f19601f820116820180604052508101906117e09190614f4e565b604001516007555b505050565b6002546040516369762fe560e11b81526004810183905260009183916001600160a01b039091169063d2ec5fca90602401602060405180830381865afa15801561183b573d6000803e3d6000fd5b505050506040513d601f19601f8201168201806040525081019061185f9190614de4565b42106118ad5760405162461bcd60e51b815260206004820152601060248201527f4d4f4c4543554c455f45585049524544000000000000000000000000000000006044820152606401610a21565b6002546040517f34026859000000000000000000000000000000000000000000000000000000008152600481018590526001600160a01b0390911690633402685990602401602060405180830381865afa15801561190f573d6000803e3d6000fd5b505050506040513d601f19601f82011682018060405250810190610ab1919061503b565b6008546001600160a01b0316331461198d5760405162461bcd60e51b815260206004820152600d60248201527f4e4f545f524547495354524152000000000000000000000000000000000000006044820152606401610a21565b6002546040516369762fe560e11b8152600481018490526001600160a01b039091169063d2ec5fca90602401602060405180830381865afa1580156119d6573d6000803e3d6000fd5b505050506040513d601f19601f820116820180604052508101906119fa9190614de4565b8111611a485760405162461bcd60e51b815260206004820152600a60248201527f4241445f455850495259000000000000000000000000000000000000000000006044820152606401610a21565b6002546040517f39de646900000000000000000000000000000000000000000000000000000000815260048101849052602481018390526001600160a01b03909116906339de646990604401600060405180830381600087803b158015611aae57600080fd5b505af1158015611ac2573d6000803e3d6000fd5b50505050817fa620b72378ee464490805a96e25b53e5c0076f0ce2d28f9691ae255a595b3bf3826040516114f191815260200190565b6002546040516369762fe560e11b81526004810183905260609183916001600160a01b039091169063d2ec5fca90602401602060405180830381865afa158015611b46573d6000803e3d6000fd5b505050506040513d601f19601f82011682018060405250810190611b6a9190614de4565b4210611bb85760405162461bcd60e51b815260206004820152601060248201527f4d4f4c4543554c455f45585049524544000000000000000000000000000000006044820152606401610a21565b6002546040517f622dad7f000000000000000000000000000000000000000000000000000000008152600481018590526001600160a01b039091169063622dad7f90602401600060405180830381865afa158015611c1a573d6000803e3d6000fd5b505050506040513d6000823e601f3d908101601f19168201604052610ab19190810190615058565b6002546040516369762fe560e11b81526004810184905283916001600160a01b03169063d2ec5fca90602401602060405180830381865afa158015611c8b573d6000803e3d6000fd5b505050506040513d601f19601f82011682018060405250810190611caf9190614de4565b4210611cfd5760405162461bcd60e51b815260206004820152601060248201527f4d4f4c4543554c455f45585049524544000000000000000000000000000000006044820152606401610a21565b60025460405163f61ccd5360e01b8152600481018390526000916001600160a01b03169063f61ccd5390602401602060405180830381865afa158015611d47573d6000803e3d6000fd5b505050506040513d601f19601f82011682018060405250810190611d6b9190614de4565b6001546040516302571be360e01b8152600481018390529192506000916001600160a01b03909116906302571be390602401602060405180830381865afa158015611dba573d6000803e3d6000fd5b505050506040513d601f19601f82011682018060405250810190611dde9190614dfd565b90506001600160a01b038116331480611e74575060025460405163dbd4e02160e01b8152600481018590526001600160a01b039091169063dbd4e02190602401602060405180830381865afa158015611e3b573d6000803e3d6000fd5b505050506040513d601f19601f82011682018060405250810190611e5f9190614dfd565b6001600160a01b0316336001600160a01b0316145b611ec05760405162461bcd60e51b815260206004820152601760248201527f4e4f545f4f574e45525f4f525f434f4e54524f4c4c45520000000000000000006044820152606401610a21565b611eca85856147ea565b611f165760405162461bcd60e51b815260206004820152600c60248201527f414e494f4e5f45584953545300000000000000000000000000000000000000006044820152606401610a21565b6002546040517f6ff2483000000000000000000000000000000000000000000000000000000000815260048101879052602481018690526001600160a01b0390911690636ff2483090604401600060405180830381600087803b158015611f7c57600080fd5b505af1158015611f90573d6000803e3d6000fd5b50505050847f600ffddd29393ca43c0a11fa6b0b7096631364178cb42f9d546c0a2cd22525ee85604051610ea291815260200190565b60025460405163f61ccd5360e01b81526004810184905283916000916001600160a01b039091169063f61ccd5390602401602060405180830381865afa158015612014573d6000803e3d6000fd5b505050506040513d601f19601f820116820180604052508101906120389190614de4565b6001546040516302571be360e01b8152600481018390529192506000916001600160a01b03909116906302571be390602401602060405180830381865afa158015612087573d6000803e3d6000fd5b505050506040513d601f19601f820116820180604052508101906120ab9190614dfd565b6008549091506001600160a01b03163314806120cf57506001600160a01b03811633145b80612157575060025460405163dbd4e02160e01b8152600481018590526001600160a01b039091169063dbd4e02190602401602060405180830381865afa15801561211e573d6000803e3d6000fd5b505050506040513d601f19601f820116820180604052508101906121429190614dfd565b6001600160a01b0316336001600160a01b0316145b6121a35760405162461bcd60e51b815260206004820152600e60248201527f4e4f545f415554484f52495345440000000000000000000000000000000000006044820152606401610a21565b6002546040517f622dad7f000000000000000000000000000000000000000000000000000000008152600481018790526000916001600160a01b03169063622dad7f90602401600060405180830381865afa158015612206573d6000803e3d6000fd5b505050506040513d6000823e601f3d908101601f1916820160405261222e9190810190615058565b905060005b855181101561230a576122688287838151811061225257612252614fae565b602002602001015161488a90919063ffffffff16565b6122f85760025486516001600160a01b0390911690636ff2483090899089908590811061229757612297614fae565b60200260200101516040518363ffffffff1660e01b81526004016122c5929190918252602082015260400190565b600060405180830381600087803b1580156122df57600080fd5b505af11580156122f3573d6000803e3d6000fd5b505050505b8061230281615118565b915050612233565b50857f580d99949e5d5a02f35dc5b91b800697d53dccb814e200f24f97b4bfbeb8667c8660405161233b9190614b6a565b60405180910390a2505050505050565b6002546040516369762fe560e11b81526004810184905283916001600160a01b03169063d2ec5fca90602401602060405180830381865afa158015612394573d6000803e3d6000fd5b505050506040513d601f19601f820116820180604052508101906123b89190614de4565b42106124065760405162461bcd60e51b815260206004820152601060248201527f4d4f4c4543554c455f45585049524544000000000000000000000000000000006044820152606401610a21565b60015460025460405163f61ccd5360e01b8152600481018490526000926001600160a01b03908116926302571be39291169063f61ccd5390602401602060405180830381865afa15801561245e573d6000803e3d6000fd5b505050506040513d601f19601f820116820180604052508101906124829190614de4565b6040518263ffffffff1660e01b81526004016124a091815260200190565b602060405180830381865afa1580156124bd573d6000803e3d6000fd5b505050506040513d601f19601f820116820180604052508101906124e19190614dfd565b90506001600160a01b038116331461253b5760405162461bcd60e51b815260206004820152600960248201527f4e4f545f4f574e455200000000000000000000000000000000000000000000006044820152606401610a21565b6001546040516302571be360e01b8152600481018590526000916001600160a01b0316906302571be390602401602060405180830381865afa158015612585573d6000803e3d6000fd5b505050506040513d601f19601f820116820180604052508101906125a99190614dfd565b6001600160a01b0316036125ff5760405162461bcd60e51b815260206004820152600b60248201527f43414e4e4f545f4255524e0000000000000000000000000000000000000000006044820152606401610a21565b6002546040517f8146970a00000000000000000000000000000000000000000000000000000000815260048101869052602481018590526001600160a01b0390911690638146970a90604401600060405180830381600087803b15801561266557600080fd5b505af1158015612679573d6000803e3d6000fd5b50505050837f4810581adf2c16a86a375dbb1ed89b0b0f7e64d48d24e1948b3dfe6581e4d795846040516126af91815260200190565b60405180910390a250505050565b6002546040516369762fe560e11b81526004810185905284916001600160a01b03169063d2ec5fca90602401602060405180830381865afa158015612706573d6000803e3d6000fd5b505050506040513d601f19601f8201168201806040525081019061272a9190614de4565b42106127785760405162461bcd60e51b815260206004820152601060248201527f4d4f4c4543554c455f45585049524544000000000000000000000000000000006044820152606401610a21565b60025460405163f61ccd5360e01b8152600481018390526000916001600160a01b03169063f61ccd5390602401602060405180830381865afa1580156127c2573d6000803e3d6000fd5b505050506040513d601f19601f820116820180604052508101906127e69190614de4565b6001546040516302571be360e01b8152600481018390529192506000916001600160a01b03909116906302571be390602401602060405180830381865afa158015612835573d6000803e3d6000fd5b505050506040513d601f19601f820116820180604052508101906128599190614dfd565b90506001600160a01b0381163314806128ef575060025460405163dbd4e02160e01b8152600481018590526001600160a01b039091169063dbd4e02190602401602060405180830381865afa1580156128b6573d6000803e3d6000fd5b505050506040513d601f19601f820116820180604052508101906128da9190614dfd565b6001600160a01b0316336001600160a01b0316145b61293b5760405162461bcd60e51b815260206004820152601760248201527f4e4f545f4f574e45525f4f525f434f4e54524f4c4c45520000000000000000006044820152606401610a21565b6002546040517f0aac66250000000000000000000000000000000000000000000000000000000081526004810188905260009182916001600160a01b0390911690630aac662590602401600060405180830381865afa1580156129a2573d6000803e3d6000fd5b505050506040513d6000823e601f3d908101601f191682016040526129ca9190810190614e89565b90925090506129dc60ff8716836148dd565b15612b405760006129f060ff88168461492c565b9050876001600160a01b0316828281518110612a0e57612a0e614fae565b60200260200101516001600160a01b031603612a6c5760405162461bcd60e51b815260206004820152600b60248201527f52554c455f4558495354530000000000000000000000000000000000000000006044820152606401610a21565b6002546040517f83669726000000000000000000000000000000000000000000000000000000008152600481018b90526001600160a01b038a8116602483015260ff8a16604483015290911690638366972690606401600060405180830381600087803b158015612adc57600080fd5b505af1158015612af0573d6000803e3d6000fd5b5050604080516001600160a01b038c16815260ff8b1660208201528c93507fe43a78ddf6157361fe34d04905786138f88d3eda20b1f7dc0e2c619f9267310092500160405180910390a250612b72565b6040517f7b4e5bfe00000000000000000000000000000000000000000000000000000000815260040160405180910390fd5b5050505050505050565b6002546040516369762fe560e11b81526004810185905284916001600160a01b03169063d2ec5fca90602401602060405180830381865afa158015612bc5573d6000803e3d6000fd5b505050506040513d601f19601f82011682018060405250810190612be99190614de4565b4210612c375760405162461bcd60e51b815260206004820152601060248201527f4d4f4c4543554c455f45585049524544000000000000000000000000000000006044820152606401610a21565b60025460405163f61ccd5360e01b8152600481018390526000916001600160a01b03169063f61ccd5390602401602060405180830381865afa158015612c81573d6000803e3d6000fd5b505050506040513d601f19601f82011682018060405250810190612ca59190614de4565b6001546040516302571be360e01b8152600481018390529192506000916001600160a01b03909116906302571be390602401602060405180830381865afa158015612cf4573d6000803e3d6000fd5b505050506040513d601f19601f82011682018060405250810190612d189190614dfd565b90506001600160a01b038116331480612dae575060025460405163dbd4e02160e01b8152600481018590526001600160a01b039091169063dbd4e02190602401602060405180830381865afa158015612d75573d6000803e3d6000fd5b505050506040513d601f19601f82011682018060405250810190612d999190614dfd565b6001600160a01b0316336001600160a01b0316145b612dfa5760405162461bcd60e51b815260206004820152601760248201527f4e4f545f4f574e45525f4f525f434f4e54524f4c4c45520000000000000000006044820152606401610a21565b612e048685613fe4565b612e505760405162461bcd60e51b815260206004820152600b60248201527f52554c455f4558495354530000000000000000000000000000000000000000006044820152606401610a21565b6002546040517f849a799c000000000000000000000000000000000000000000000000000000008152600481018890526001600160a01b03878116602483015260ff871660448301529091169063849a799c90606401600060405180830381600087803b158015612ec057600080fd5b505af1158015612ed4573d6000803e3d6000fd5b5050604080516001600160a01b038916815260ff881660208201528993507fc733a2bc621cc97eef6ed4f708f126e72e6acb76c0a1c0461c9dd31f7b98706592500161233b565b6002546040516369762fe560e11b81526004810184905283916001600160a01b03169063d2ec5fca90602401602060405180830381865afa158015612f64573d6000803e3d6000fd5b505050506040513d601f19601f82011682018060405250810190612f889190614de4565b4210612fd65760405162461bcd60e51b815260206004820152601060248201527f4d4f4c4543554c455f45585049524544000000000000000000000000000000006044820152606401610a21565b60025460405163f61ccd5360e01b8152600481018390526000916001600160a01b03169063f61ccd5390602401602060405180830381865afa158015613020573d6000803e3d6000fd5b505050506040513d601f19601f820116820180604052508101906130449190614de4565b6001546040516302571be360e01b8152600481018390529192506000916001600160a01b03909116906302571be390602401602060405180830381865afa158015613093573d6000803e3d6000fd5b505050506040513d601f19601f820116820180604052508101906130b79190614dfd565b90506001600160a01b03811633148061314d575060025460405163dbd4e02160e01b8152600481018590526001600160a01b039091169063dbd4e02190602401602060405180830381865afa158015613114573d6000803e3d6000fd5b505050506040513d601f19601f820116820180604052508101906131389190614dfd565b6001600160a01b0316336001600160a01b0316145b6131995760405162461bcd60e51b815260206004820152601760248201527f4e4f545f4f574e45525f4f525f434f4e54524f4c4c45520000000000000000006044820152606401610a21565b6002546040517f622dad7f000000000000000000000000000000000000000000000000000000008152600481018790526000916001600160a01b03169063622dad7f90602401600060405180830381865afa1580156131fc573d6000803e3d6000fd5b505050506040513d6000823e601f3d908101601f191682016040526132249190810190615058565b9050613230858261488a565b156133005760006132418683614978565b6002546040517f90072f97000000000000000000000000000000000000000000000000000000008152600481018a9052602481018390529192506001600160a01b0316906390072f9790604401600060405180830381600087803b1580156132a857600080fd5b505af11580156132bc573d6000803e3d6000fd5b50505050867f5c379d054844760656a56e062f50208b458cfa0c4427574f5a2828d19602b4e9876040516132f291815260200190565b60405180910390a250613332565b6040517f62316f6700000000000000000000000000000000000000000000000000000000815260040160405180910390fd5b505050505050565b6002546040516369762fe560e11b81526004810184905283916001600160a01b03169063d2ec5fca90602401602060405180830381865afa158015613383573d6000803e3d6000fd5b505050506040513d601f19601f820116820180604052508101906133a79190614de4565b42106133f55760405162461bcd60e51b815260206004820152601060248201527f4d4f4c4543554c455f45585049524544000000000000000000000000000000006044820152606401610a21565b60025460405163f61ccd5360e01b8152600481018390526000916001600160a01b03169063f61ccd5390602401602060405180830381865afa15801561343f573d6000803e3d6000fd5b505050506040513d601f19601f820116820180604052508101906134639190614de4565b6001546040516302571be360e01b8152600481018390529192506000916001600160a01b03909116906302571be390602401602060405180830381865afa1580156134b2573d6000803e3d6000fd5b505050506040513d601f19601f820116820180604052508101906134d69190614dfd565b90506001600160a01b03811633148061356c575060025460405163dbd4e02160e01b8152600481018590526001600160a01b039091169063dbd4e02190602401602060405180830381865afa158015613533573d6000803e3d6000fd5b505050506040513d601f19601f820116820180604052508101906135579190614dfd565b6001600160a01b0316336001600160a01b0316145b6135b85760405162461bcd60e51b815260206004820152601760248201527f4e4f545f4f574e45525f4f525f434f4e54524f4c4c45520000000000000000006044820152606401610a21565b6002546040517f0aac6625000000000000000000000000000000000000000000000000000000008152600481018790526000916001600160a01b031690630aac662590602401600060405180830381865afa15801561361b573d6000803e3d6000fd5b505050506040513d6000823e601f3d908101601f191682016040526136439190810190614e89565b50905061365360ff8616826148dd565b1561372457600061366760ff87168361492c565b6002546040517f833fda08000000000000000000000000000000000000000000000000000000008152600481018a905260ff89166024820152604481018390529192506001600160a01b03169063833fda0890606401600060405180830381600087803b1580156136d757600080fd5b505af11580156136eb573d6000803e3d6000fd5b505060405160ff891681528992507fbf47c0c608c230f7dffbcf65f8cdc76f5f920e4750eea1dcd09138a7359226ac91506020016132f2565b6040517fe8dd1d3e00000000000000000000000000000000000000000000000000000000815260040160405180910390fd5b6004546001600160a01b031633146137b05760405162461bcd60e51b815260206004820152600760248201527f4e4f545f444556000000000000000000000000000000000000000000000000006044820152606401610a21565b7fffffffff0000000000000000000000000000000000000000000000000000000080831690036138225760405162461bcd60e51b815260206004820152601a60248201527f494e56414c49445f494e544552464143455f53454c4543544f520000000000006044820152606401610a21565b7fffffffff0000000000000000000000000000000000000000000000000000000091909116600090815260056020526040902080547fffffffffffffffffffffffffffffffffffffffffffffffffffffffffffffff0016911515919091179055565b60025460405163f61ccd5360e01b81526004810184905283916000916001600160a01b039091169063f61ccd5390602401602060405180830381865afa1580156138d2573d6000803e3d6000fd5b505050506040513d601f19601f820116820180604052508101906138f69190614de4565b6001546040516302571be360e01b8152600481018390529192506000916001600160a01b03909116906302571be390602401602060405180830381865afa158015613945573d6000803e3d6000fd5b505050506040513d601f19601f820116820180604052508101906139699190614dfd565b6008549091506001600160a01b031633148061398d57506001600160a01b03811633145b80613a15575060025460405163dbd4e02160e01b8152600481018590526001600160a01b039091169063dbd4e02190602401602060405180830381865afa1580156139dc573d6000803e3d6000fd5b505050506040513d601f19601f82011682018060405250810190613a009190614dfd565b6001600160a01b0316336001600160a01b0316145b613a615760405162461bcd60e51b815260206004820152600e60248201527f4e4f545f415554484f52495345440000000000000000000000000000000000006044820152606401610a21565b6002546040517fd07699aa0000000000000000000000000000000000000000000000000000000081526004810187905285151560248201526001600160a01b039091169063d07699aa90604401600060405180830381600087803b158015613ac857600080fd5b505af1158015613adc573d6000803e3d6000fd5b50505050847fe6ccdb52b4954ab2c3e293f1dbfe593e6c5630962a1944bfcf20c5563eeb846285604051610ea2911515815260200190565b6002546040516369762fe560e11b8152600481018390526000916001600160a01b03169063d2ec5fca90602401602060405180830381865afa158015613b5e573d6000803e3d6000fd5b505050506040513d601f19601f82011682018060405250810190613b829190614de4565b92915050565b60025460405163f61ccd5360e01b81526004810184905283916000916001600160a01b039091169063f61ccd5390602401602060405180830381865afa158015613bd6573d6000803e3d6000fd5b505050506040513d601f19601f82011682018060405250810190613bfa9190614de4565b6001546040516302571be360e01b8152600481018390529192506000916001600160a01b03909116906302571be390602401602060405180830381865afa158015613c49573d6000803e3d6000fd5b505050506040513d601f19601f82011682018060405250810190613c6d9190614dfd565b6008549091506001600160a01b0316331480613c9157506001600160a01b03811633145b80613d19575060025460405163dbd4e02160e01b8152600481018590526001600160a01b039091169063dbd4e02190602401602060405180830381865afa158015613ce0573d6000803e3d6000fd5b505050506040513d601f19601f82011682018060405250810190613d049190614dfd565b6001600160a01b0316336001600160a01b0316145b613d655760405162461bcd60e51b815260206004820152600e60248201527f4e4f545f415554484f52495345440000000000000000000000000000000000006044820152606401610a21565b6002546040517fd3156905000000000000000000000000000000000000000000000000000000008152600481018790526001600160a01b0386811660248301529091169063d315690590604401600060405180830381600087803b158015613dcc57600080fd5b505af1158015613de0573d6000803e3d6000fd5b50506040516001600160a01b03871681528792507fe5108446a6097aab57fd36f346a515a78fddefa87d81662d44e0d7a463f920959150602001610ea2565b6002546040516369762fe560e11b81526004810183905260009183916001600160a01b039091169063d2ec5fca90602401602060405180830381865afa158015613e6d573d6000803e3d6000fd5b505050506040513d601f19601f82011682018060405250810190613e919190614de4565b4210613edf5760405162461bcd60e51b815260206004820152601060248201527f4d4f4c4543554c455f45585049524544000000000000000000000000000000006044820152606401610a21565b60025460405163dbd4e02160e01b8152600481018590526001600160a01b039091169063dbd4e02190602401610a70565b6008546001600160a01b03163314613f6a5760405162461bcd60e51b815260206004820152600d60248201527f4e4f545f524547495354524152000000000000000000000000000000000000006044820152606401610a21565b6002546040517fdeee4da900000000000000000000000000000000000000000000000000000000815260048101849052602481018390526001600160a01b039091169063deee4da990604401600060405180830381600087803b158015613fd057600080fd5b505af1158015613332573d6000803e3d6000fd5b6002546040517f0aac66250000000000000000000000000000000000000000000000000000000081526004810184905260009182916001600160a01b0390911690630aac662590602401600060405180830381865afa15801561404b573d6000803e3d6000fd5b505050506040513d6000823e601f3d908101601f191682016040526140739190810190614e89565b50905061408360ff8416826148dd565b15949350505050565b6004546001600160a01b031633146140e65760405162461bcd60e51b815260206004820152600760248201527f4e4f545f444556000000000000000000000000000000000000000000000000006044820152606401610a21565b6004546040516001600160a01b038084169216907f8be0079c531659141344cd1fd0a4f28419497f9722a3daafe3b4186f6b6457e090600090a3600480547fffffffffffffffffffffffff0000000000000000000000000000000000000000166001600160a01b0392909216919091179055565b6002546040516369762fe560e11b81526004810184905283916001600160a01b03169063d2ec5fca90602401602060405180830381865afa1580156141a3573d6000803e3d6000fd5b505050506040513d601f19601f820116820180604052508101906141c79190614de4565b42106142155760405162461bcd60e51b815260206004820152601060248201527f4d4f4c4543554c455f45585049524544000000000000000000000000000000006044820152606401610a21565b60025460405163f61ccd5360e01b8152600481018390526000916001600160a01b03169063f61ccd5390602401602060405180830381865afa15801561425f573d6000803e3d6000fd5b505050506040513d601f19601f820116820180604052508101906142839190614de4565b6001546040516302571be360e01b8152600481018390529192506000916001600160a01b03909116906302571be390602401602060405180830381865afa1580156142d2573d6000803e3d6000fd5b505050506040513d601f19601f820116820180604052508101906142f69190614dfd565b90506001600160a01b03811633148061438c575060025460405163dbd4e02160e01b8152600481018590526001600160a01b039091169063dbd4e02190602401602060405180830381865afa158015614353573d6000803e3d6000fd5b505050506040513d601f19601f820116820180604052508101906143779190614dfd565b6001600160a01b0316336001600160a01b0316145b6143d85760405162461bcd60e51b815260206004820152601760248201527f4e4f545f4f574e45525f4f525f434f4e54524f4c4c45520000000000000000006044820152606401610a21565b6002546040516369762fe560e11b8152600481018790526000916001600160a01b03169063d2ec5fca90602401602060405180830381865afa158015614422573d6000803e3d6000fd5b505050506040513d601f19601f820116820180604052508101906144469190614de4565b90508085116144975760405162461bcd60e51b815260206004820152600a60248201527f4241445f455850495259000000000000000000000000000000000000000000006044820152606401610a21565b6007546144a48287615150565b6144ae9190615163565b3410156144fd5760405162461bcd60e51b815260206004820152601260248201527f494e53554646494349454e545f455448455200000000000000000000000000006044820152606401610a21565b6002546040517f39de646900000000000000000000000000000000000000000000000000000000815260048101889052602481018790526001600160a01b03909116906339de646990604401600060405180830381600087803b15801561456357600080fd5b505af1158015614577573d6000803e3d6000fd5b50505050857fa620b72378ee464490805a96e25b53e5c0076f0ce2d28f9691ae255a595b3bf38660405161233b91815260200190565b6002546040516369762fe560e11b81526004810183905260009183916001600160a01b039091169063d2ec5fca90602401602060405180830381865afa1580156145fb573d6000803e3d6000fd5b505050506040513d601f19601f8201168201806040525081019061461f9190614de4565b421061466d5760405162461bcd60e51b815260206004820152601060248201527f4d4f4c4543554c455f45585049524544000000000000000000000000000000006044820152606401610a21565b60025460405163f61ccd5360e01b8152600481018590526000916001600160a01b03169063f61ccd5390602401602060405180830381865afa1580156146b7573d6000803e3d6000fd5b505050506040513d601f19601f820116820180604052508101906146db9190614de4565b6001546040516302571be360e01b8152600481018390529192506000916001600160a01b03909116906302571be390602401602060405180830381865afa15801561472a573d6000803e3d6000fd5b505050506040513d601f19601f8201168201806040525081019061474e9190614dfd565b9050306001600160a01b0382160361476c575060009250610ab49050565b509392505050565b6002546040516369762fe560e11b8152600481018390526000916001600160a01b03169063d2ec5fca90602401602060405180830381865afa1580156147be573d6000803e3d6000fd5b505050506040513d601f19601f820116820180604052508101906147e29190614de4565b421092915050565b6002546040517f622dad7f00000000000000000000000000000000000000000000000000000000815260048101849052600091614882916001600160a01b039091169063622dad7f90602401600060405180830381865afa158015614853573d6000803e3d6000fd5b505050506040513d6000823e601f3d908101601f1916820160405261487b9190810190615058565b839061488a565b159392505050565b6000805b82518110156148d357838382815181106148aa576148aa614fae565b6020026020010151036148c1576001915050613b82565b806148cb81615118565b91505061488e565b5060009392505050565b6000805b82518110156148d3578360ff1683828151811061490057614900614fae565b602002602001015160ff160361491a576001915050613b82565b8061492481615118565b9150506148e1565b6000805b82518110156148d3578360ff1683828151811061494f5761494f614fae565b602002602001015160ff1603614966579050613b82565b8061497081615118565b915050614930565b6000805b82518110156148d3578383828151811061499857614998614fae565b6020026020010151036149ac579050613b82565b806149b681615118565b91505061497c565b6000602082840312156149d057600080fd5b5035919050565b80357fffffffff0000000000000000000000000000000000000000000000000000000081168114614a0757600080fd5b919050565b600060208284031215614a1e57600080fd5b614a27826149d7565b9392505050565b604080825283519082018190526000906020906060840190828701845b82811015614a6a57815160ff1684529284019290840190600101614a4b565b5050508381038285015284518082528583019183019060005b81811015614aa85783516001600160a01b031683529284019291840191600101614a83565b5090979650505050505050565b6001600160a01b0381168114614aca57600080fd5b50565b60008060408385031215614ae057600080fd5b823591506020830135614af281614ab5565b809150509250929050565b60008060408385031215614b1057600080fd5b50508035926020909101359150565b600080600060608486031215614b3457600080fd5b8335614b3f81614ab5565b92506020840135614b4f81614ab5565b91506040840135614b5f81614ab5565b809150509250925092565b6020808252825182820181905260009190848201906040850190845b81811015614ba257835183529284019291840191600101614b86565b50909695505050505050565b7f4e487b7100000000000000000000000000000000000000000000000000000000600052604160045260246000fd5b6040516080810167ffffffffffffffff81118282101715614c0057614c00614bae565b60405290565b604051601f8201601f1916810167ffffffffffffffff81118282101715614c2f57614c2f614bae565b604052919050565b600067ffffffffffffffff821115614c5157614c51614bae565b5060051b60200190565b60008060408385031215614c6e57600080fd5b8235915060208084013567ffffffffffffffff811115614c8d57600080fd5b8401601f81018613614c9e57600080fd5b8035614cb1614cac82614c37565b614c06565b81815260059190911b82018301908381019088831115614cd057600080fd5b928401925b82841015614cee57833582529284019290840190614cd5565b80955050505050509250929050565b60ff81168114614aca57600080fd5b600080600060608486031215614d2157600080fd5b833592506020840135614d3381614ab5565b91506040840135614b5f81614cfd565b60008060408385031215614d5657600080fd5b823591506020830135614af281614cfd565b8015158114614aca57600080fd5b60008060408385031215614d8957600080fd5b614d92836149d7565b91506020830135614af281614d68565b60008060408385031215614db557600080fd5b823591506020830135614af281614d68565b600060208284031215614dd957600080fd5b8135614a2781614ab5565b600060208284031215614df657600080fd5b5051919050565b600060208284031215614e0f57600080fd5b8151614a2781614ab5565b600082601f830112614e2b57600080fd5b81516020614e3b614cac83614c37565b82815260059290921b84018101918181019086841115614e5a57600080fd5b8286015b84811015614e7e578051614e7181614ab5565b8352918301918301614e5e565b509695505050505050565b60008060408385031215614e9c57600080fd5b825167ffffffffffffffff80821115614eb457600080fd5b818501915085601f830112614ec857600080fd5b81516020614ed8614cac83614c37565b82815260059290921b84018101918181019089841115614ef757600080fd5b948201945b83861015614f1e578551614f0f81614cfd565b82529482019490820190614efc565b91880151919650909350505080821115614f3757600080fd5b50614f4485828601614e1a565b9150509250929050565b600060808284031215614f6057600080fd5b82601f830112614f6f57600080fd5b614f77614bdd565b806080840185811115614f8957600080fd5b845b81811015614fa3578051845260209384019301614f8b565b509095945050505050565b7f4e487b7100000000000000000000000000000000000000000000000000000000600052603260045260246000fd5b600060808284031215614fef57600080fd5b82601f830112614ffe57600080fd5b615006614bdd565b80608084018581111561501857600080fd5b845b81811015614fa357805161502d81614ab5565b84526020938401930161501a565b60006020828403121561504d57600080fd5b8151614a2781614d68565b6000602080838503121561506b57600080fd5b825167ffffffffffffffff81111561508257600080fd5b8301601f8101851361509357600080fd5b80516150a1614cac82614c37565b81815260059190911b820183019083810190878311156150c057600080fd5b928401925b828410156150de578351825292840192908401906150c5565b979650505050505050565b7f4e487b7100000000000000000000000000000000000000000000000000000000600052601160045260246000fd5b60007fffffffffffffffffffffffffffffffffffffffffffffffffffffffffffffffff8203615149576151496150e9565b5060010190565b81810381811115613b8257613b826150e9565b6000817fffffffffffffffffffffffffffffffffffffffffffffffffffffffffffffffff048311821515161561519b5761519b6150e9565b50029056fea2646970667358221220a7821e9a38e9c2b46695e85e9d0ecf124b4e36cee0318482e9a224dbf778e27a64736f6c63430008100033",
    "linkReferences": {}
  },
  "methodIdentifiers": {
    "Dev()": "01e51ae8",
    "HELIX2()": "b782426e",
    "Molecules(bytes32)": "af6328f6",
    "NAMES()": "05e84aa0",
    "PRICES()": "1eabcd34",
    "Registrar()": "b9f37c86",
    "STORE()": "507f1465",
    "active()": "02fb0c5e",
    "addAnion(bytes32,bytes32)": "6ff24830",
    "anions(bytes32)": "622dad7f",
    "basePrice()": "c7876ea4",
    "cation(bytes32)": "f61ccd53",
    "controller(bytes32)": "dbd4e021",
    "covalence(bytes32)": "34026859",
    "expiry(bytes32)": "d2ec5fca",
    "hook(bytes32,address,uint8)": "849a799c",
    "hooksWithRules(bytes32)": "0aac6625",
    "isNotDuplicateAnion(bytes32,bytes32)": "f8c91244",
    "isNotDuplicateRule(bytes32,uint8)": "e79eaa26",
    "label(bytes32)": "1fc4859e",
    "owner()": "8da5cb5b",
    "popAnion(bytes32,bytes32)": "8dcad139",
    "recordExists(bytes32)": "f79fe538",
    "register(bytes32,bytes32)": "2f926732",
    "rehook(bytes32,address,uint8)": "83669726",
    "renew(bytes32,uint256)": "f544d82f",
    "resolver(bytes32)": "0178b8bf",
    "roothash()": "251c9422",
    "setAnions(bytes32,bytes32[])": "741b4cd0",
    "setCation(bytes32,bytes32)": "8146970a",
    "setConfig(address,address,address)": "3141e25b",
    "setController(bytes32,address)": "d3156905",
    "setCovalence(bytes32,bool)": "d07699aa",
    "setExpiry(bytes32,uint256)": "39de6469",
    "setInterface(bytes4,bool)": "c0a43a7c",
    "setLabel(bytes32,bytes32)": "deee4da9",
    "setResolver(bytes32,address)": "1896f70a",
    "supportedInterfaces(bytes4)": "1584ba38",
    "supportsInterface(bytes4)": "01ffc9a7",
    "theEnd()": "22b68deb",
    "toggleActive()": "29c68dc1",
    "transferOwnership(address)": "f2fde38b",
    "unhook(bytes32,uint8)": "b612e9b9",
    "unhookAll(bytes32)": "21ec2b5b"
  },
  "id": 29
}