{
  "abi": [
    {
      "inputs": [
        {
          "internalType": "address",
          "name": "_registry",
          "type": "address"
        },
        {
          "internalType": "address",
          "name": "_helix2",
          "type": "address"
        }
      ],
      "stateMutability": "nonpayable",
      "type": "constructor"
    },
    {
      "inputs": [],
      "name": "BAD_ANION",
      "type": "error"
    },
    {
      "inputs": [],
      "name": "BAD_HOOK",
      "type": "error"
    },
    {
      "anonymous": false,
      "inputs": [
        {
          "indexed": true,
          "internalType": "address",
          "name": "cation",
          "type": "address"
        },
        {
          "indexed": true,
          "internalType": "address",
          "name": "operator",
          "type": "address"
        },
        {
          "indexed": false,
          "internalType": "bool",
          "name": "approved",
          "type": "bool"
        }
      ],
      "name": "ApprovalForAll",
      "type": "event"
    },
    {
      "anonymous": false,
      "inputs": [
        {
          "indexed": true,
          "internalType": "bytes32",
          "name": "molyhash",
          "type": "bytes32"
        },
        {
          "indexed": false,
          "internalType": "address",
          "name": "config",
          "type": "address"
        },
        {
          "indexed": false,
          "internalType": "uint8",
          "name": "rule",
          "type": "uint8"
        }
      ],
      "name": "Hooked",
      "type": "event"
    },
    {
      "anonymous": false,
      "inputs": [
        {
          "indexed": true,
          "internalType": "bytes32",
          "name": "molyhash",
          "type": "bytes32"
        },
        {
          "indexed": false,
          "internalType": "bytes32",
          "name": "_alias",
          "type": "bytes32"
        }
      ],
      "name": "NewAlias",
      "type": "event"
    },
    {
      "anonymous": false,
      "inputs": [
        {
          "indexed": true,
          "internalType": "bytes32",
          "name": "molyhash",
          "type": "bytes32"
        },
        {
          "indexed": false,
          "internalType": "bytes32",
          "name": "anion",
          "type": "bytes32"
        }
      ],
      "name": "NewAnion",
      "type": "event"
    },
    {
      "anonymous": false,
      "inputs": [
        {
          "indexed": true,
          "internalType": "bytes32",
          "name": "molyhash",
          "type": "bytes32"
        },
        {
          "indexed": false,
          "internalType": "bytes32[]",
          "name": "anion",
          "type": "bytes32[]"
        }
      ],
      "name": "NewAnions",
      "type": "event"
    },
    {
      "anonymous": false,
      "inputs": [
        {
          "indexed": true,
          "internalType": "bytes32",
          "name": "molyhash",
          "type": "bytes32"
        },
        {
          "indexed": false,
          "internalType": "bytes32",
          "name": "cation",
          "type": "bytes32"
        }
      ],
      "name": "NewCation",
      "type": "event"
    },
    {
      "anonymous": false,
      "inputs": [
        {
          "indexed": true,
          "internalType": "bytes32",
          "name": "molyhash",
          "type": "bytes32"
        },
        {
          "indexed": false,
          "internalType": "address",
          "name": "controller",
          "type": "address"
        }
      ],
      "name": "NewController",
      "type": "event"
    },
    {
      "anonymous": false,
      "inputs": [
        {
          "indexed": true,
          "internalType": "bytes32",
          "name": "molyhash",
          "type": "bytes32"
        },
        {
          "indexed": false,
          "internalType": "bool",
          "name": "covalence",
          "type": "bool"
        }
      ],
      "name": "NewCovalence",
      "type": "event"
    },
    {
      "anonymous": false,
      "inputs": [
        {
          "indexed": false,
          "internalType": "address",
          "name": "Dev",
          "type": "address"
        },
        {
          "indexed": false,
          "internalType": "address",
          "name": "newDev",
          "type": "address"
        }
      ],
      "name": "NewDev",
      "type": "event"
    },
    {
      "anonymous": false,
      "inputs": [
        {
          "indexed": true,
          "internalType": "bytes32",
          "name": "molyhash",
          "type": "bytes32"
        },
        {
          "indexed": false,
          "internalType": "uint256",
          "name": "expiry",
          "type": "uint256"
        }
      ],
      "name": "NewExpiry",
      "type": "event"
    },
    {
      "anonymous": false,
      "inputs": [
        {
          "indexed": true,
          "internalType": "bytes32",
          "name": "molyhash",
          "type": "bytes32"
        },
        {
          "indexed": false,
          "internalType": "bytes32",
          "name": "cation",
          "type": "bytes32"
        }
      ],
      "name": "NewMolecule",
      "type": "event"
    },
    {
      "anonymous": false,
      "inputs": [
        {
          "indexed": true,
          "internalType": "bytes32",
          "name": "molyhash",
          "type": "bytes32"
        },
        {
          "indexed": false,
          "internalType": "address",
          "name": "resolver",
          "type": "address"
        }
      ],
      "name": "NewRecord",
      "type": "event"
    },
    {
      "anonymous": false,
      "inputs": [
        {
          "indexed": true,
          "internalType": "bytes32",
          "name": "molyhash",
          "type": "bytes32"
        },
        {
          "indexed": false,
          "internalType": "bytes32",
          "name": "cation",
          "type": "bytes32"
        }
      ],
      "name": "NewRegistration",
      "type": "event"
    },
    {
      "anonymous": false,
      "inputs": [
        {
          "indexed": true,
          "internalType": "bytes32",
          "name": "molyhash",
          "type": "bytes32"
        },
        {
          "indexed": false,
          "internalType": "address",
          "name": "resolver",
          "type": "address"
        }
      ],
      "name": "NewResolver",
      "type": "event"
    },
    {
      "anonymous": false,
      "inputs": [
        {
          "indexed": true,
          "internalType": "bytes32",
          "name": "molyhash",
          "type": "bytes32"
        },
        {
          "indexed": false,
          "internalType": "bytes32",
          "name": "anion",
          "type": "bytes32"
        }
      ],
      "name": "PopAnion",
      "type": "event"
    },
    {
      "anonymous": false,
      "inputs": [
        {
          "indexed": true,
          "internalType": "bytes32",
          "name": "molyhash",
          "type": "bytes32"
        },
        {
          "indexed": false,
          "internalType": "address",
          "name": "config",
          "type": "address"
        },
        {
          "indexed": false,
          "internalType": "uint8",
          "name": "rule",
          "type": "uint8"
        }
      ],
      "name": "Rehooked",
      "type": "event"
    },
    {
      "anonymous": false,
      "inputs": [
        {
          "indexed": true,
          "internalType": "bytes32",
          "name": "molyhash",
          "type": "bytes32"
        },
        {
          "indexed": false,
          "internalType": "address",
          "name": "config",
          "type": "address"
        }
      ],
      "name": "Unhooked",
      "type": "event"
    },
    {
      "anonymous": false,
      "inputs": [
        {
          "indexed": true,
          "internalType": "bytes32",
          "name": "molyhash",
          "type": "bytes32"
        }
      ],
      "name": "UnhookedAll",
      "type": "event"
    },
    {
      "inputs": [],
      "name": "Dev",
      "outputs": [
        {
          "internalType": "address",
          "name": "",
          "type": "address"
        }
      ],
      "stateMutability": "view",
      "type": "function"
    },
    {
      "inputs": [],
      "name": "HELIX2",
      "outputs": [
        {
          "internalType": "contract iHELIX2",
          "name": "",
          "type": "address"
        }
      ],
      "stateMutability": "view",
      "type": "function"
    },
    {
      "inputs": [
        {
          "internalType": "bytes32",
          "name": "",
          "type": "bytes32"
        }
      ],
      "name": "Molecules",
      "outputs": [
        {
          "internalType": "bytes32",
          "name": "_cation",
          "type": "bytes32"
        },
        {
          "internalType": "bytes32",
          "name": "_alias",
          "type": "bytes32"
        },
        {
          "internalType": "address",
          "name": "_resolver",
          "type": "address"
        },
        {
          "internalType": "address",
          "name": "_controller",
          "type": "address"
        },
        {
          "internalType": "bool",
          "name": "_covalence",
          "type": "bool"
        },
        {
          "internalType": "uint256",
          "name": "_expiry",
          "type": "uint256"
        }
      ],
      "stateMutability": "view",
      "type": "function"
    },
    {
      "inputs": [],
      "name": "NAMES",
      "outputs": [
        {
          "internalType": "contract iNAME",
          "name": "",
          "type": "address"
        }
      ],
      "stateMutability": "view",
      "type": "function"
    },
    {
      "inputs": [],
      "name": "Registrar",
      "outputs": [
        {
          "internalType": "address",
          "name": "",
          "type": "address"
        }
      ],
      "stateMutability": "view",
      "type": "function"
    },
    {
      "inputs": [],
      "name": "active",
      "outputs": [
        {
          "internalType": "bool",
          "name": "",
          "type": "bool"
        }
      ],
      "stateMutability": "view",
      "type": "function"
    },
    {
      "inputs": [
        {
          "internalType": "bytes32",
          "name": "molyhash",
          "type": "bytes32"
        },
        {
          "internalType": "bytes32",
          "name": "_anion",
          "type": "bytes32"
        }
      ],
      "name": "addAnion",
      "outputs": [],
      "stateMutability": "nonpayable",
      "type": "function"
    },
    {
      "inputs": [
        {
          "internalType": "bytes32",
          "name": "molyhash",
          "type": "bytes32"
        }
      ],
      "name": "alias_",
      "outputs": [
        {
          "internalType": "bytes32",
          "name": "",
          "type": "bytes32"
        }
      ],
      "stateMutability": "view",
      "type": "function"
    },
    {
      "inputs": [
        {
          "internalType": "bytes32",
          "name": "molyhash",
          "type": "bytes32"
        }
      ],
      "name": "anion",
      "outputs": [
        {
          "internalType": "bytes32[]",
          "name": "",
          "type": "bytes32[]"
        }
      ],
      "stateMutability": "view",
      "type": "function"
    },
    {
      "inputs": [],
      "name": "basePrice",
      "outputs": [
        {
          "internalType": "uint256",
          "name": "",
          "type": "uint256"
        }
      ],
      "stateMutability": "view",
      "type": "function"
    },
    {
      "inputs": [
        {
          "internalType": "bytes32",
          "name": "molyhash",
          "type": "bytes32"
        }
      ],
      "name": "cation",
      "outputs": [
        {
          "internalType": "bytes32",
          "name": "",
          "type": "bytes32"
        }
      ],
      "stateMutability": "view",
      "type": "function"
    },
    {
      "inputs": [
        {
          "internalType": "address",
          "name": "newDev",
          "type": "address"
        }
      ],
      "name": "changeDev",
      "outputs": [],
      "stateMutability": "nonpayable",
      "type": "function"
    },
    {
      "inputs": [
        {
          "internalType": "bytes32",
          "name": "molyhash",
          "type": "bytes32"
        }
      ],
      "name": "controller",
      "outputs": [
        {
          "internalType": "address",
          "name": "",
          "type": "address"
        }
      ],
      "stateMutability": "view",
      "type": "function"
    },
    {
      "inputs": [
        {
          "internalType": "bytes32",
          "name": "molyhash",
          "type": "bytes32"
        }
      ],
      "name": "covalence",
      "outputs": [
        {
          "internalType": "bool",
          "name": "",
          "type": "bool"
        }
      ],
      "stateMutability": "view",
      "type": "function"
    },
    {
      "inputs": [
        {
          "internalType": "bytes32",
          "name": "molyhash",
          "type": "bytes32"
        }
      ],
      "name": "expiry",
      "outputs": [
        {
          "internalType": "uint256",
          "name": "",
          "type": "uint256"
        }
      ],
      "stateMutability": "view",
      "type": "function"
    },
    {
      "inputs": [
        {
          "internalType": "bytes32",
          "name": "molyhash",
          "type": "bytes32"
        },
        {
          "internalType": "uint8",
          "name": "rule",
          "type": "uint8"
        },
        {
          "internalType": "address",
          "name": "config",
          "type": "address"
        }
      ],
      "name": "hook",
      "outputs": [],
      "stateMutability": "nonpayable",
      "type": "function"
    },
    {
      "inputs": [
        {
          "internalType": "bytes32",
          "name": "molyhash",
          "type": "bytes32"
        }
      ],
      "name": "hooksWithRules",
      "outputs": [
        {
          "internalType": "address[]",
          "name": "_hooks",
          "type": "address[]"
        },
        {
          "internalType": "uint8[]",
          "name": "_rules",
          "type": "uint8[]"
        }
      ],
      "stateMutability": "view",
      "type": "function"
    },
    {
      "inputs": [
        {
          "internalType": "bytes32",
          "name": "_cation",
          "type": "bytes32"
        },
        {
          "internalType": "address",
          "name": "operator",
          "type": "address"
        }
      ],
      "name": "isApprovedForAll",
      "outputs": [
        {
          "internalType": "bool",
          "name": "",
          "type": "bool"
        }
      ],
      "stateMutability": "view",
      "type": "function"
    },
    {
      "inputs": [
        {
          "internalType": "bytes32",
          "name": "molyhash",
          "type": "bytes32"
        },
        {
          "internalType": "bytes32",
          "name": "_anion",
          "type": "bytes32"
        }
      ],
      "name": "isNotDuplicateAnion",
      "outputs": [
        {
          "internalType": "bool",
          "name": "",
          "type": "bool"
        }
      ],
      "stateMutability": "view",
      "type": "function"
    },
    {
      "inputs": [
        {
          "internalType": "bytes32",
          "name": "molyhash",
          "type": "bytes32"
        },
        {
          "internalType": "address",
          "name": "config",
          "type": "address"
        }
      ],
      "name": "isNotDuplicateHook",
      "outputs": [
        {
          "internalType": "bool",
          "name": "",
          "type": "bool"
        }
      ],
      "stateMutability": "view",
      "type": "function"
    },
    {
      "inputs": [
        {
          "internalType": "bytes32",
          "name": "molyhash",
          "type": "bytes32"
        },
        {
          "internalType": "bytes32",
          "name": "__anion",
          "type": "bytes32"
        }
      ],
      "name": "popAnion",
      "outputs": [],
      "stateMutability": "nonpayable",
      "type": "function"
    },
    {
      "inputs": [
        {
          "internalType": "bytes32",
          "name": "molyhash",
          "type": "bytes32"
        }
      ],
      "name": "recordExists",
      "outputs": [
        {
          "internalType": "bool",
          "name": "",
          "type": "bool"
        }
      ],
      "stateMutability": "view",
      "type": "function"
    },
    {
      "inputs": [
        {
          "internalType": "bytes32",
          "name": "molyhash",
          "type": "bytes32"
        },
        {
          "internalType": "bytes32",
          "name": "_cation",
          "type": "bytes32"
        }
      ],
      "name": "register",
      "outputs": [],
      "stateMutability": "nonpayable",
      "type": "function"
    },
    {
      "inputs": [
        {
          "internalType": "bytes32",
          "name": "molyhash",
          "type": "bytes32"
        },
        {
          "internalType": "uint8",
          "name": "rule",
          "type": "uint8"
        },
        {
          "internalType": "address",
          "name": "config",
          "type": "address"
        }
      ],
      "name": "rehook",
      "outputs": [],
      "stateMutability": "nonpayable",
      "type": "function"
    },
    {
      "inputs": [
        {
          "internalType": "bytes32",
          "name": "molyhash",
          "type": "bytes32"
        },
        {
          "internalType": "uint256",
          "name": "_expiry",
          "type": "uint256"
        }
      ],
      "name": "renew",
      "outputs": [],
      "stateMutability": "payable",
      "type": "function"
    },
    {
      "inputs": [
        {
          "internalType": "bytes32",
          "name": "molyhash",
          "type": "bytes32"
        }
      ],
      "name": "resolver",
      "outputs": [
        {
          "internalType": "address",
          "name": "",
          "type": "address"
        }
      ],
      "stateMutability": "view",
      "type": "function"
    },
    {
      "inputs": [],
      "name": "roothash",
      "outputs": [
        {
          "internalType": "bytes32",
          "name": "",
          "type": "bytes32"
        }
      ],
      "stateMutability": "view",
      "type": "function"
    },
    {
      "inputs": [
        {
          "internalType": "bytes32",
          "name": "molyhash",
          "type": "bytes32"
        },
        {
          "internalType": "bytes32",
          "name": "_alias",
          "type": "bytes32"
        }
      ],
      "name": "setAlias",
      "outputs": [],
      "stateMutability": "nonpayable",
      "type": "function"
    },
    {
      "inputs": [
        {
          "internalType": "bytes32",
          "name": "molyhash",
          "type": "bytes32"
        },
        {
          "internalType": "bytes32[]",
          "name": "_anion",
          "type": "bytes32[]"
        }
      ],
      "name": "setAnions",
      "outputs": [],
      "stateMutability": "nonpayable",
      "type": "function"
    },
    {
      "inputs": [
        {
          "internalType": "address",
          "name": "operator",
          "type": "address"
        },
        {
          "internalType": "bool",
          "name": "approved",
          "type": "bool"
        }
      ],
      "name": "setApprovalForAll",
      "outputs": [],
      "stateMutability": "nonpayable",
      "type": "function"
    },
    {
      "inputs": [
        {
          "internalType": "bytes32",
          "name": "molyhash",
          "type": "bytes32"
        },
        {
          "internalType": "bytes32",
          "name": "_cation",
          "type": "bytes32"
        }
      ],
      "name": "setCation",
      "outputs": [],
      "stateMutability": "nonpayable",
      "type": "function"
    },
    {
      "inputs": [
        {
          "internalType": "bytes32",
          "name": "molyhash",
          "type": "bytes32"
        },
        {
          "internalType": "address",
          "name": "_controller",
          "type": "address"
        }
      ],
      "name": "setController",
      "outputs": [],
      "stateMutability": "nonpayable",
      "type": "function"
    },
    {
      "inputs": [
        {
          "internalType": "bytes32",
          "name": "molyhash",
          "type": "bytes32"
        },
        {
          "internalType": "bool",
          "name": "_covalence",
          "type": "bool"
        }
      ],
      "name": "setCovalence",
      "outputs": [],
      "stateMutability": "nonpayable",
      "type": "function"
    },
    {
      "inputs": [
        {
          "internalType": "bytes32",
          "name": "molyhash",
          "type": "bytes32"
        },
        {
          "internalType": "uint256",
          "name": "_expiry",
          "type": "uint256"
        }
      ],
      "name": "setExpiry",
      "outputs": [],
      "stateMutability": "nonpayable",
      "type": "function"
    },
    {
      "inputs": [
        {
          "internalType": "bytes32",
          "name": "molyhash",
          "type": "bytes32"
        },
        {
          "internalType": "address",
          "name": "_resolver",
          "type": "address"
        }
      ],
      "name": "setRecord",
      "outputs": [],
      "stateMutability": "nonpayable",
      "type": "function"
    },
    {
      "inputs": [
        {
          "internalType": "bytes32",
          "name": "molyhash",
          "type": "bytes32"
        },
        {
          "internalType": "address",
          "name": "_resolver",
          "type": "address"
        }
      ],
      "name": "setResolver",
      "outputs": [],
      "stateMutability": "nonpayable",
      "type": "function"
    },
    {
      "inputs": [],
      "name": "theEnd",
      "outputs": [
        {
          "internalType": "uint256",
          "name": "",
          "type": "uint256"
        }
      ],
      "stateMutability": "view",
      "type": "function"
    },
    {
      "inputs": [
        {
          "internalType": "bytes32",
          "name": "molyhash",
          "type": "bytes32"
        },
        {
          "internalType": "address",
          "name": "config",
          "type": "address"
        }
      ],
      "name": "unhook",
      "outputs": [],
      "stateMutability": "nonpayable",
      "type": "function"
    },
    {
      "inputs": [
        {
          "internalType": "bytes32",
          "name": "molyhash",
          "type": "bytes32"
        }
      ],
      "name": "unhookAll",
      "outputs": [],
      "stateMutability": "nonpayable",
      "type": "function"
    },
    {
      "inputs": [],
      "name": "withdrawEther",
      "outputs": [],
      "stateMutability": "nonpayable",
      "type": "function"
    }
  ],
  "bytecode": {
    "object": "0x60806040526002805460ff60a01b1916600160a01b1790556703782dace9d900006006553480156200003057600080fd5b5060405162004b9e38038062004b9e83398101604081905262000053916200075b565b60028054336001600160a01b0319918216179091556000805482166001600160a01b03848116918217909255600180549093169185169190911790915560408051633215476b60e11b8152905163642a8ed6916004808201926080929091908290030181865afa158015620000cc573d6000803e3d6000fd5b505050506040513d601f19601f82011682018060405250810190620000f29190620007ca565b604090810151600355600054815163bd9a548b60e01b815291516001600160a01b039091169163bd9a548b9160048083019260809291908290030181865afa15801562000143573d6000803e3d6000fd5b505050506040513d601f19601f82011682018060405250810190620001699190620007ca565b604001516004556200017a62000182565b50506200086f565b7fb4b4801cca1cad359bff6b5ea99d95160f00cbe1164fb7231c42c3e8b5f2593b805460ff19169055604080516020818101909252600080825280526007909152620001f2907f6d5257204ebe7d88fd91ae87941cb2dd9d8062b64ae5a2bd2d28ec40b9fbf6df9060016200067f565b5060007f6d5257204ebe7d88fd91ae87941cb2dd9d8062b64ae5a2bd2d28ec40b9fbf6e1819055604080516020818101909252828152918052600790526200025e907f6d5257204ebe7d88fd91ae87941cb2dd9d8062b64ae5a2bd2d28ec40b9fbf6e2906001620006e9565b50600080805260076020527f6d5257204ebe7d88fd91ae87941cb2dd9d8062b64ae5a2bd2d28ec40b9fbf6e38190557f6d5257204ebe7d88fd91ae87941cb2dd9d8062b64ae5a2bd2d28ec40b9fbf6e580546006547f6d5257204ebe7d88fd91ae87941cb2dd9d8062b64ae5a2bd2d28ec40b9fbf6e6556001600160a81b03191633908117600160a01b179091557f6d5257204ebe7d88fd91ae87941cb2dd9d8062b64ae5a2bd2d28ec40b9fbf6e480546001600160a01b0319169091179055805460408051633215476b60e11b815290516001600160a01b03929092169163642a8ed6916004818101926080929091908290030181865afa15801562000369573d6000803e3d6000fd5b505050506040513d601f19601f820116820180604052508101906200038f9190620007ca565b905060005b60048110156200067b57600060076000848460048110620003b957620003b962000831565b60209081029190910151825281810192909252604090810160009081208180526001018352818120805460ff191660ff9590951694909417909355805191820190528181529060079084846004811062000417576200041762000831565b602002015181526020019081526020016000206000019060016200043d9291906200067f565b5081816004811062000453576200045362000831565b60200201516007600084846004811062000471576200047162000831565b60200201518152602001908152602001600020600201819055506040518060200160405280838360048110620004ab57620004ab62000831565b6020020151905260076000848460048110620004cb57620004cb62000831565b60200201518152602001908152602001600020600301906001620004f1929190620006e9565b5081816004811062000507576200050762000831565b60200201516007600084846004811062000525576200052562000831565b60200201518152602001908152602001600020600401819055506001600760008484600481106200055a576200055a62000831565b6020020151815260200190815260200160002060060160146101000a81548160ff02191690831515021790555060065460076000848460048110620005a357620005a362000831565b60200201518152602001908152602001600020600701819055503360076000848460048110620005d757620005d762000831565b6020020151815260200190815260200160002060060160006101000a8154816001600160a01b0302191690836001600160a01b0316021790555033600760008484600481106200062b576200062b62000831565b6020020151815260200190815260200160002060050160006101000a8154816001600160a01b0302191690836001600160a01b031602179055508080620006729062000847565b91505062000394565b5050565b828054828255906000526020600020908101928215620006d7579160200282015b82811115620006d757825182546001600160a01b0319166001600160a01b03909116178255602090920191600190910190620006a0565b50620006e592915062000727565b5090565b828054828255906000526020600020908101928215620006d7579160200282015b82811115620006d75782518255916020019190600101906200070a565b5b80821115620006e5576000815560010162000728565b80516001600160a01b03811681146200075657600080fd5b919050565b600080604083850312156200076f57600080fd5b6200077a836200073e565b91506200078a602084016200073e565b90509250929050565b604051608081016001600160401b0381118282101715620007c457634e487b7160e01b600052604160045260246000fd5b60405290565b600060808284031215620007dd57600080fd5b82601f830112620007ed57600080fd5b620007f762000793565b8060808401858111156200080a57600080fd5b845b81811015620008265780518452602093840193016200080c565b509095945050505050565b634e487b7160e01b600052603260045260246000fd5b6000600182016200086857634e487b7160e01b600052601160045260246000fd5b5060010190565b61431f806200087f6000396000f3fe6080604052600436106102bb5760003560e01c8063741b4cd01161016e578063c7876ea4116100cb578063dbd4e0211161007f578063f61ccd5311610064578063f61ccd531461083a578063f79fe5381461085a578063f8c912441461088d57600080fd5b8063dbd4e02114610807578063f544d82f1461082757600080fd5b8063d2ec5fca116100b0578063d2ec5fca14610796578063d3156905146107c7578063d9b76ed4146107e757600080fd5b8063c7876ea414610760578063d07699aa1461077657600080fd5b8063af6328f611610122578063b782426e11610107578063b782426e14610700578063b9f37c8614610720578063c5bc4c0b1461074057600080fd5b8063af6328f61461062b578063b0698628146106e057600080fd5b806388a8c95c1161015357806388a8c95c146105cb5780638dcad139146105eb578063a22cb4651461060b57600080fd5b8063741b4cd01461058b5780638146970a146105ab57600080fd5b806321ec2b5b1161021c57806334026859116101d057806351a76442116101b557806351a76442146105365780636ff24830146105565780637362377b1461057657600080fd5b806334026859146104f657806339de64691461051657600080fd5b8063241270d511610201578063241270d5146104a0578063251c9422146104c05780632f926732146104d657600080fd5b806321ec2b5b1461045c57806322b68deb1461047c57600080fd5b806305e84aa0116102735780630e68b116116102585780630e68b116146103ef5780631896f70a1461041c5780631f06e91c1461043c57600080fd5b806305e84aa0146103a15780630aac6625146103c157600080fd5b806301e51ae8116102a457806301e51ae81461031f57806302fb0c5e1461033f578063049a491c1461038157600080fd5b8063015399e6146102c05780630178b8bf146102e2575b600080fd5b3480156102cc57600080fd5b506102e06102db366004613cc2565b6108ad565b005b3480156102ee57600080fd5b506103026102fd366004613d0a565b610b36565b6040516001600160a01b0390911681526020015b60405180910390f35b34801561032b57600080fd5b50600254610302906001600160a01b031681565b34801561034b57600080fd5b506002546103719074010000000000000000000000000000000000000000900460ff1681565b6040519015158152602001610316565b34801561038d57600080fd5b5061037161039c366004613d23565b610bbc565b3480156103ad57600080fd5b50600154610302906001600160a01b031681565b3480156103cd57600080fd5b506103e16103dc366004613d0a565b610c6e565b604051610316929190613d53565b3480156103fb57600080fd5b5061040f61040a366004613d0a565b610e2b565b6040516103169190613dda565b34801561042857600080fd5b506102e0610437366004613d23565b610efa565b34801561044857600080fd5b506102e0610457366004613e1e565b611165565b34801561046857600080fd5b506102e0610477366004613d0a565b6112ab565b34801561048857600080fd5b5061049260065481565b604051908152602001610316565b3480156104ac57600080fd5b506102e06104bb366004613d23565b611639565b3480156104cc57600080fd5b5061049260035481565b3480156104e257600080fd5b506102e06104f1366004613e1e565b611a5b565b34801561050257600080fd5b50610371610511366004613d0a565b611c93565b34801561052257600080fd5b506102e0610531366004613e1e565b611d27565b34801561054257600080fd5b506102e0610551366004613cc2565b611ec2565b34801561056257600080fd5b506102e0610571366004613e1e565b612144565b34801561058257600080fd5b506102e0612382565b34801561059757600080fd5b506102e06105a6366004613ebe565b612428565b3480156105b757600080fd5b506102e06105c6366004613e1e565b612760565b3480156105d757600080fd5b506102e06105e6366004613f70565b6129d7565b3480156105f757600080fd5b506102e0610606366004613e1e565b612aa7565b34801561061757600080fd5b506102e0610626366004613fa2565b612e6c565b34801561063757600080fd5b506106a4610646366004613d0a565b600760208190526000918252604090912060028101546004820154600583015460068401549390940154919390926001600160a01b0391821692918116917401000000000000000000000000000000000000000090910460ff169086565b6040805196875260208701959095526001600160a01b0393841694860194909452911660608401521515608083015260a082015260c001610316565b3480156106ec57600080fd5b506103716106fb366004613d23565b612ed8565b34801561070c57600080fd5b50600054610302906001600160a01b031681565b34801561072c57600080fd5b50600554610302906001600160a01b031681565b34801561074c57600080fd5b5061049261075b366004613d0a565b612f7c565b34801561076c57600080fd5b5061049260045481565b34801561078257600080fd5b506102e0610791366004613fd0565b612ff5565b3480156107a257600080fd5b506104926107b1366004613d0a565b6000908152600760208190526040909120015490565b3480156107d357600080fd5b506102e06107e2366004613d23565b613272565b3480156107f357600080fd5b506102e0610802366004613d23565b6134d2565b34801561081357600080fd5b50610302610822366004613d0a565b613732565b6102e0610835366004613e1e565b6137b4565b34801561084657600080fd5b50610492610855366004613d0a565b613b0f565b34801561086657600080fd5b50610371610875366004613d0a565b60009081526007602081905260409091200154421090565b34801561089957600080fd5b506103716108a8366004613e1e565b613c17565b60008381526007602081905260409091200154839042106109155760405162461bcd60e51b815260206004820152601060248201527f4d4f4c4543554c455f455850495245440000000000000000000000000000000060448201526064015b60405180910390fd5b6000818152600760205260408082206002015460015491516302571be360e01b8152600481018290529092916001600160a01b0316906302571be390602401602060405180830381865afa158015610971573d6000803e3d6000fd5b505050506040513d601f19601f820116820180604052508101906109959190613ff5565b90506001600160a01b0381163314806109d157506001600160a01b038116600090815260086020908152604080832033845290915290205460ff165b806109f557506000838152600760205260409020600601546001600160a01b031633145b610a415760405162461bcd60e51b815260206004820152601760248201527f4e4f545f4f574e45525f4f525f434f4e54524f4c4c4552000000000000000000604482015260640161090c565b60008681526007602090815260408083206001600160a01b038816845260010190915290205460ff808716911603610abb5760405162461bcd60e51b815260206004820152600b60248201527f52554c455f455849535453000000000000000000000000000000000000000000604482015260640161090c565b60008681526007602090815260408083206001600160a01b0388168085526001909101835292819020805460ff191660ff8a1690811790915581519384529183019190915287917fe43a78ddf6157361fe34d04905786138f88d3eda20b1f7dc0e2c619f9267310091015b60405180910390a2505050505050565b60008181526007602081905260408220015482904210610b985760405162461bcd60e51b815260206004820152601060248201527f4d4f4c4543554c455f4558504952454400000000000000000000000000000000604482015260640161090c565b6000838152600760205260409020600501546001600160a01b031691505b50919050565b60008281526007602052604080822090517f2306f46600000000000000000000000000000000000000000000000000000000815273__$47e4ffaaf323c41735ff299f8946896ce0$__91632306f46691610c23916001600160a01b03871691600401614012565b602060405180830381865af4158015610c40573d6000803e3d6000fd5b505050506040513d601f19601f82011682018060405250810190610c649190614072565b1590505b92915050565b6060808260076000828152602001908152602001600020600701544210610cd75760405162461bcd60e51b815260206004820152601060248201527f4d4f4c4543554c455f4558504952454400000000000000000000000000000000604482015260640161090c565b60008481526007602090815260409182902080548351818402810184019094528084529091830182828015610d3557602002820191906000526020600020905b81546001600160a01b03168152600190910190602001808311610d17575b50505050509250825167ffffffffffffffff811115610d5657610d56613e40565b604051908082528060200260200182016040528015610d7f578160200160208202803683370190505b50915060005b8351811015610e2457600760008681526020019081526020016000206001016000858381518110610db857610db861408f565b60200260200101516001600160a01b03166001600160a01b0316815260200190815260200160002060009054906101000a900460ff16838281518110610e0057610e0061408f565b60ff9092166020928302919091019091015280610e1c816140ed565b915050610d85565b5050915091565b60608160076000828152602001908152602001600020600701544210610e935760405162461bcd60e51b815260206004820152601060248201527f4d4f4c4543554c455f4558504952454400000000000000000000000000000000604482015260640161090c565b600083815260076020908152604080832060030180548251818502810185019093528083529192909190830182828015610eec57602002820191906000526020600020905b815481526020019060010190808311610ed8575b509398975050505050505050565b600054604080517f4d3f7334000000000000000000000000000000000000000000000000000000008152905184926001600160a01b031691634d3f73349160048083019260809291908290030181865afa158015610f5c573d6000803e3d6000fd5b505050506040513d601f19601f82011682018060405250810190610f809190614125565b604090810151600580546001600160a01b0392831673ffffffffffffffffffffffffffffffffffffffff19909116179055600083815260076020528281206002015460015493516302571be360e01b8152600481018290529093919291909116906302571be390602401602060405180830381865afa158015611007573d6000803e3d6000fd5b505050506040513d601f19601f8201168201806040525081019061102b9190613ff5565b6005549091506001600160a01b031633148061104f57506001600160a01b03811633145b8061107d57506001600160a01b038116600090815260086020908152604080832033845290915290205460ff165b806110a157506000838152600760205260409020600601546001600160a01b031633145b6110ed5760405162461bcd60e51b815260206004820152600e60248201527f4e4f545f415554484f5249534544000000000000000000000000000000000000604482015260640161090c565b600085815260076020908152604091829020600501805473ffffffffffffffffffffffffffffffffffffffff19166001600160a01b038816908117909155915191825286917f335721b01866dc23fbee8b6b2c7b1e14d6f05c28cd35a2c934239f94095602a091015b60405180910390a25050505050565b60008054906101000a90046001600160a01b03166001600160a01b0316634d3f73346040518163ffffffff1660e01b8152600401608060405180830381865afa1580156111b6573d6000803e3d6000fd5b505050506040513d601f19601f820116820180604052508101906111da9190614125565b604001516005805473ffffffffffffffffffffffffffffffffffffffff19166001600160a01b03909216918217905533146112575760405162461bcd60e51b815260206004820152600d60248201527f4e4f545f52454749535452415200000000000000000000000000000000000000604482015260640161090c565b600082815260076020526040908190206004018290555182907f4247841fd58468a6fb10925898bdd83c426da7b5519ee71597106dfdc67512299061129f9084815260200190565b60405180910390a25050565b600054604080517f4d3f7334000000000000000000000000000000000000000000000000000000008152905183926001600160a01b031691634d3f73349160048083019260809291908290030181865afa15801561130d573d6000803e3d6000fd5b505050506040513d601f19601f820116820180604052508101906113319190614125565b604090810151600580546001600160a01b0392831673ffffffffffffffffffffffffffffffffffffffff19909116179055600083815260076020528281206002015460015493516302571be360e01b8152600481018290529093919291909116906302571be390602401602060405180830381865afa1580156113b8573d6000803e3d6000fd5b505050506040513d601f19601f820116820180604052508101906113dc9190613ff5565b6005549091506001600160a01b031633148061140057506001600160a01b03811633145b8061142e57506001600160a01b038116600090815260086020908152604080832033845290915290205460ff165b8061145257506000838152600760205260409020600601546001600160a01b031633145b61149e5760405162461bcd60e51b815260206004820152600e60248201527f4e4f545f415554484f5249534544000000000000000000000000000000000000604482015260640161090c565b6000848152600760209081526040808320805482518185028101850190935280835291929091908301828280156114fe57602002820191906000526020600020905b81546001600160a01b031681526001909101906020018083116114e0575b5050505050905060005b81518110156115ef57600060076000888152602001908152602001600020600101600084848151811061153d5761153d61408f565b60200260200101516001600160a01b03166001600160a01b0316815260200190815260200160002060006101000a81548160ff021916908360ff160217905550857fc4c4b4793ac649a3a05ee26afdd6d54122cea2e3298a195a786ab7e899c21e348383815181106115b1576115b161408f565b60200260200101516040516115d591906001600160a01b0391909116815260200190565b60405180910390a2806115e7816140ed565b915050611508565b50600085815260076020526040812061160791613c7b565b60405185907f6b91085369552b61ca16180a741663b69fb6b3b967f7271116521d84e2291dc590600090a25050505050565b600082815260076020819052604090912001548290421061169c5760405162461bcd60e51b815260206004820152601060248201527f4d4f4c4543554c455f4558504952454400000000000000000000000000000000604482015260640161090c565b6000818152600760205260408082206002015460015491516302571be360e01b8152600481018290529092916001600160a01b0316906302571be390602401602060405180830381865afa1580156116f8573d6000803e3d6000fd5b505050506040513d601f19601f8201168201806040525081019061171c9190613ff5565b90506001600160a01b03811633148061175857506001600160a01b038116600090815260086020908152604080832033845290915290205460ff165b8061177c57506000838152600760205260409020600601546001600160a01b031633145b6117c85760405162461bcd60e51b815260206004820152601760248201527f4e4f545f4f574e45525f4f525f434f4e54524f4c4c4552000000000000000000604482015260640161090c565b60008581526007602090815260408083208054825181850281018501909352808352919290919083018282801561182857602002820191906000526020600020905b81546001600160a01b0316815260019091019060200180831161180a575b50506040517f2306f46600000000000000000000000000000000000000000000000000000000815293945073__$47e4ffaaf323c41735ff299f8946896ce0$__93632306f466935061188b92506001600160a01b038a16915085906004016141ac565b602060405180830381865af41580156118a8573d6000803e3d6000fd5b505050506040513d601f19601f820116820180604052508101906118cc9190614072565b15611a21576040517fcd23ef4c00000000000000000000000000000000000000000000000000000000815260009073__$47e4ffaaf323c41735ff299f8946896ce0$__9063cd23ef4c9061192f906001600160a01b038a169086906004016141ac565b602060405180830381865af415801561194c573d6000803e3d6000fd5b505050506040513d601f19601f8201168201806040525081019061197091906141f9565b60008881526007602090815260408083206001600160a01b038b168085526001909101835292819020805460ff191690555191825291925088917fc4c4b4793ac649a3a05ee26afdd6d54122cea2e3298a195a786ab7e899c21e34910160405180910390a260008781526007602052604090208054829081106119f5576119f561408f565b6000918252602090912001805473ffffffffffffffffffffffffffffffffffffffff1916905550611a53565b6040517fe8dd1d3e00000000000000000000000000000000000000000000000000000000815260040160405180910390fd5b505050505050565b60008054906101000a90046001600160a01b03166001600160a01b0316634d3f73346040518163ffffffff1660e01b8152600401608060405180830381865afa158015611aac573d6000803e3d6000fd5b505050506040513d601f19601f82011682018060405250810190611ad09190614125565b604001516005805473ffffffffffffffffffffffffffffffffffffffff19166001600160a01b0390921691821790553314611b4d5760405162461bcd60e51b815260206004820152600d60248201527f4e4f545f52454749535452415200000000000000000000000000000000000000604482015260640161090c565b6001546040516302571be360e01b8152600481018390526000916001600160a01b0316906302571be390602401602060405180830381865afa158015611b97573d6000803e3d6000fd5b505050506040513d601f19601f82011682018060405250810190611bbb9190613ff5565b6001600160a01b031603611c115760405162461bcd60e51b815260206004820152600b60248201527f43414e4e4f545f4255524e000000000000000000000000000000000000000000604482015260640161090c565b600082815260076020526040908190206002018290555182907f4810581adf2c16a86a375dbb1ed89b0b0f7e64d48d24e1948b3dfe6581e4d79590611c599084815260200190565b60405180910390a2817facb5de0f65735f798ae8baf163fb3380a7813aca2c739ba9e39179007206585a8260405161129f91815260200190565b60008181526007602081905260408220015482904210611cf55760405162461bcd60e51b815260206004820152601060248201527f4d4f4c4543554c455f4558504952454400000000000000000000000000000000604482015260640161090c565b505060009081526007602052604090206006015474010000000000000000000000000000000000000000900460ff1690565b60008054906101000a90046001600160a01b03166001600160a01b0316634d3f73346040518163ffffffff1660e01b8152600401608060405180830381865afa158015611d78573d6000803e3d6000fd5b505050506040513d601f19601f82011682018060405250810190611d9c9190614125565b604001516005805473ffffffffffffffffffffffffffffffffffffffff19166001600160a01b0390921691821790553314611e195760405162461bcd60e51b815260206004820152600d60248201527f4e4f545f52454749535452415200000000000000000000000000000000000000604482015260640161090c565b600082815260076020819052604090912001548111611e7a5760405162461bcd60e51b815260206004820152600a60248201527f4241445f45585049525900000000000000000000000000000000000000000000604482015260640161090c565b600082815260076020819052604091829020018290555182907fa620b72378ee464490805a96e25b53e5c0076f0ce2d28f9691ae255a595b3bf39061129f9084815260200190565b6000838152600760208190526040909120015483904210611f255760405162461bcd60e51b815260206004820152601060248201527f4d4f4c4543554c455f4558504952454400000000000000000000000000000000604482015260640161090c565b6000818152600760205260408082206002015460015491516302571be360e01b8152600481018290529092916001600160a01b0316906302571be390602401602060405180830381865afa158015611f81573d6000803e3d6000fd5b505050506040513d601f19601f82011682018060405250810190611fa59190613ff5565b90506001600160a01b038116331480611fe157506001600160a01b038116600090815260086020908152604080832033845290915290205460ff165b8061200557506000838152600760205260409020600601546001600160a01b031633145b6120515760405162461bcd60e51b815260206004820152601760248201527f4e4f545f4f574e45525f4f525f434f4e54524f4c4c4552000000000000000000604482015260640161090c565b61205b8685610bbc565b6120a75760405162461bcd60e51b815260206004820152600b60248201527f484f4f4b5f455849535453000000000000000000000000000000000000000000604482015260640161090c565b6000868152600760209081526040808320805460018082018355828652848620909101805473ffffffffffffffffffffffffffffffffffffffff19166001600160a01b038b169081179091558086529101835292819020805460ff191660ff8a1690811790915581519384529183019190915287917fc733a2bc621cc97eef6ed4f708f126e72e6acb76c0a1c0461c9dd31f7b9870659101610b26565b60008281526007602081905260409091200154829042106121a75760405162461bcd60e51b815260206004820152601060248201527f4d4f4c4543554c455f4558504952454400000000000000000000000000000000604482015260640161090c565b6000818152600760205260408082206002015460015491516302571be360e01b8152600481018290529092916001600160a01b0316906302571be390602401602060405180830381865afa158015612203573d6000803e3d6000fd5b505050506040513d601f19601f820116820180604052508101906122279190613ff5565b90506001600160a01b03811633148061226357506001600160a01b038116600090815260086020908152604080832033845290915290205460ff165b8061228757506000838152600760205260409020600601546001600160a01b031633145b6122d35760405162461bcd60e51b815260206004820152601760248201527f4e4f545f4f574e45525f4f525f434f4e54524f4c4c4552000000000000000000604482015260640161090c565b6122dd8585613c17565b6123295760405162461bcd60e51b815260206004820152600c60248201527f414e494f4e5f4558495354530000000000000000000000000000000000000000604482015260640161090c565b6000858152600760209081526040808320600301805460018101825590845291909220018590555185907f600ffddd29393ca43c0a11fa6b0b7096631364178cb42f9d546c0a2cd22525ee906111569087815260200190565b6002546040516000916001600160a01b03169047908381818185875af1925050503d80600081146123cf576040519150601f19603f3d011682016040523d82523d6000602084013e6123d4565b606091505b50509050806124255760405162461bcd60e51b815260206004820152601360248201527f4554485f5452414e534645525f4641494c454400000000000000000000000000604482015260640161090c565b50565b600054604080517f4d3f7334000000000000000000000000000000000000000000000000000000008152905184926001600160a01b031691634d3f73349160048083019260809291908290030181865afa15801561248a573d6000803e3d6000fd5b505050506040513d601f19601f820116820180604052508101906124ae9190614125565b604090810151600580546001600160a01b0392831673ffffffffffffffffffffffffffffffffffffffff19909116179055600083815260076020528281206002015460015493516302571be360e01b8152600481018290529093919291909116906302571be390602401602060405180830381865afa158015612535573d6000803e3d6000fd5b505050506040513d601f19601f820116820180604052508101906125599190613ff5565b6005549091506001600160a01b031633148061257d57506001600160a01b03811633145b806125ab57506001600160a01b038116600090815260086020908152604080832033845290915290205460ff165b806125cf57506000838152600760205260409020600601546001600160a01b031633145b61261b5760405162461bcd60e51b815260206004820152600e60248201527f4e4f545f415554484f5249534544000000000000000000000000000000000000604482015260640161090c565b60005b845181101561272f578481815181106126395761263961408f565b602002602001015173__$47e4ffaaf323c41735ff299f8946896ce0$__636fd8c6859091600760008a81526020019081526020016000206003016040518363ffffffff1660e01b8152600401612690929190614212565b602060405180830381865af41580156126ad573d6000803e3d6000fd5b505050506040513d601f19601f820116820180604052508101906126d19190614072565b61271d57600760008781526020019081526020016000206003018582815181106126fd576126fd61408f565b602090810291909101810151825460018101845560009384529190922001555b80612727816140ed565b91505061261e565b50847f580d99949e5d5a02f35dc5b91b800697d53dccb814e200f24f97b4bfbeb8667c856040516111569190613dda565b60008281526007602081905260409091200154829042106127c35760405162461bcd60e51b815260206004820152601060248201527f4d4f4c4543554c455f4558504952454400000000000000000000000000000000604482015260640161090c565b6000818152600760205260408082206002015460015491516302571be360e01b8152600481018290529092916001600160a01b0316906302571be390602401602060405180830381865afa15801561281f573d6000803e3d6000fd5b505050506040513d601f19601f820116820180604052508101906128439190613ff5565b90506001600160a01b03811633148061287f57506001600160a01b038116600090815260086020908152604080832033845290915290205460ff165b6128cb5760405162461bcd60e51b815260206004820152600960248201527f4e4f545f4f574e45520000000000000000000000000000000000000000000000604482015260640161090c565b6001546040516302571be360e01b8152600481018690526000916001600160a01b0316906302571be390602401602060405180830381865afa158015612915573d6000803e3d6000fd5b505050506040513d601f19601f820116820180604052508101906129399190613ff5565b6001600160a01b03160361298f5760405162461bcd60e51b815260206004820152600b60248201527f43414e4e4f545f4255524e000000000000000000000000000000000000000000604482015260640161090c565b600085815260076020526040908190206002018590555185907f4810581adf2c16a86a375dbb1ed89b0b0f7e64d48d24e1948b3dfe6581e4d795906111569087815260200190565b6002546001600160a01b03163314612a315760405162461bcd60e51b815260206004820152600760248201527f4e4f545f44455600000000000000000000000000000000000000000000000000604482015260640161090c565b600254604080516001600160a01b03928316815291831660208301527fdec101f106d4fc7c85791843e64b198248c822298e3ed7046231d33f7783d816910160405180910390a16002805473ffffffffffffffffffffffffffffffffffffffff19166001600160a01b0392909216919091179055565b6000828152600760208190526040909120015482904210612b0a5760405162461bcd60e51b815260206004820152601060248201527f4d4f4c4543554c455f4558504952454400000000000000000000000000000000604482015260640161090c565b6000818152600760205260408082206002015460015491516302571be360e01b8152600481018290529092916001600160a01b0316906302571be390602401602060405180830381865afa158015612b66573d6000803e3d6000fd5b505050506040513d601f19601f82011682018060405250810190612b8a9190613ff5565b90506001600160a01b038116331480612bc657506001600160a01b038116600090815260086020908152604080832033845290915290205460ff165b80612bea57506000838152600760205260409020600601546001600160a01b031633145b612c365760405162461bcd60e51b815260206004820152601760248201527f4e4f545f4f574e45525f4f525f434f4e54524f4c4c4552000000000000000000604482015260640161090c565b600085815260076020908152604080832060030180548251818502810185019093528083529192909190830182828015612c8f57602002820191906000526020600020905b815481526020019060010190808311612c7b575b50506040517f6fd8c68500000000000000000000000000000000000000000000000000000000815293945073__$47e4ffaaf323c41735ff299f8946896ce0$__93636fd8c6859350612ce992508991508590600401614258565b602060405180830381865af4158015612d06573d6000803e3d6000fd5b505050506040513d601f19601f82011682018060405250810190612d2a9190614072565b15612e3a576040517fda92b9ed00000000000000000000000000000000000000000000000000000000815260009073__$47e4ffaaf323c41735ff299f8946896ce0$__9063da92b9ed90612d849089908690600401614258565b602060405180830381865af4158015612da1573d6000803e3d6000fd5b505050506040513d601f19601f82011682018060405250810190612dc591906141f9565b600088815260076020526040902060030180549192509082908110612dec57612dec61408f565b9060005260206000200160009055867f5c379d054844760656a56e062f50208b458cfa0c4427574f5a2828d19602b4e987604051612e2c91815260200190565b60405180910390a250611a53565b6040517f62316f6700000000000000000000000000000000000000000000000000000000815260040160405180910390fd5b3360008181526008602090815260408083206001600160a01b03871680855290835292819020805460ff191686151590811790915590519081529192917f17307eab39ab6107e8899845ad3d59bd9653f200f220920489ca2b5937696c31910160405180910390a35050565b6001546040516302571be360e01b81526004810184905260009182916001600160a01b03909116906302571be390602401602060405180830381865afa158015612f26573d6000803e3d6000fd5b505050506040513d601f19601f82011682018060405250810190612f4a9190613ff5565b6001600160a01b0390811660009081526008602090815260408083209387168352929052205460ff1691505092915050565b60008181526007602081905260408220015482904210612fde5760405162461bcd60e51b815260206004820152601060248201527f4d4f4c4543554c455f4558504952454400000000000000000000000000000000604482015260640161090c565b505060009081526007602052604090206004015490565b600054604080517f4d3f7334000000000000000000000000000000000000000000000000000000008152905184926001600160a01b031691634d3f73349160048083019260809291908290030181865afa158015613057573d6000803e3d6000fd5b505050506040513d601f19601f8201168201806040525081019061307b9190614125565b604090810151600580546001600160a01b0392831673ffffffffffffffffffffffffffffffffffffffff19909116179055600083815260076020528281206002015460015493516302571be360e01b8152600481018290529093919291909116906302571be390602401602060405180830381865afa158015613102573d6000803e3d6000fd5b505050506040513d601f19601f820116820180604052508101906131269190613ff5565b6005549091506001600160a01b031633148061314a57506001600160a01b03811633145b8061317857506001600160a01b038116600090815260086020908152604080832033845290915290205460ff165b8061319c57506000838152600760205260409020600601546001600160a01b031633145b6131e85760405162461bcd60e51b815260206004820152600e60248201527f4e4f545f415554484f5249534544000000000000000000000000000000000000604482015260640161090c565b60008581526007602052604090819020600601805486151574010000000000000000000000000000000000000000027fffffffffffffffffffffff00ffffffffffffffffffffffffffffffffffffffff9091161790555185907fe6ccdb52b4954ab2c3e293f1dbfe593e6c5630962a1944bfcf20c5563eeb84629061115690871515815260200190565b600054604080517f4d3f7334000000000000000000000000000000000000000000000000000000008152905184926001600160a01b031691634d3f73349160048083019260809291908290030181865afa1580156132d4573d6000803e3d6000fd5b505050506040513d601f19601f820116820180604052508101906132f89190614125565b604090810151600580546001600160a01b0392831673ffffffffffffffffffffffffffffffffffffffff19909116179055600083815260076020528281206002015460015493516302571be360e01b8152600481018290529093919291909116906302571be390602401602060405180830381865afa15801561337f573d6000803e3d6000fd5b505050506040513d601f19601f820116820180604052508101906133a39190613ff5565b6005549091506001600160a01b03163314806133c757506001600160a01b03811633145b806133f557506001600160a01b038116600090815260086020908152604080832033845290915290205460ff165b8061341957506000838152600760205260409020600601546001600160a01b031633145b6134655760405162461bcd60e51b815260206004820152600e60248201527f4e4f545f415554484f5249534544000000000000000000000000000000000000604482015260640161090c565b600085815260076020908152604091829020600601805473ffffffffffffffffffffffffffffffffffffffff19166001600160a01b038816908117909155915191825286917fe5108446a6097aab57fd36f346a515a78fddefa87d81662d44e0d7a463f920959101611156565b600054604080517f4d3f7334000000000000000000000000000000000000000000000000000000008152905184926001600160a01b031691634d3f73349160048083019260809291908290030181865afa158015613534573d6000803e3d6000fd5b505050506040513d601f19601f820116820180604052508101906135589190614125565b604090810151600580546001600160a01b0392831673ffffffffffffffffffffffffffffffffffffffff19909116179055600083815260076020528281206002015460015493516302571be360e01b8152600481018290529093919291909116906302571be390602401602060405180830381865afa1580156135df573d6000803e3d6000fd5b505050506040513d601f19601f820116820180604052508101906136039190613ff5565b6005549091506001600160a01b031633148061362757506001600160a01b03811633145b8061365557506001600160a01b038116600090815260086020908152604080832033845290915290205460ff165b8061367957506000838152600760205260409020600601546001600160a01b031633145b6136c55760405162461bcd60e51b815260206004820152600e60248201527f4e4f545f415554484f5249534544000000000000000000000000000000000000604482015260640161090c565b600085815260076020908152604091829020600501805473ffffffffffffffffffffffffffffffffffffffff19166001600160a01b038816908117909155915191825286917fcb71326aeaad88869e8be8be2893e1119f7617ce4ea2411af127e218909be1f79101611156565b600081815260076020819052604082200154829042106137945760405162461bcd60e51b815260206004820152601060248201527f4d4f4c4543554c455f4558504952454400000000000000000000000000000000604482015260640161090c565b50506000908152600760205260409020600601546001600160a01b031690565b60008281526007602081905260409091200154829042106138175760405162461bcd60e51b815260206004820152601060248201527f4d4f4c4543554c455f4558504952454400000000000000000000000000000000604482015260640161090c565b6000818152600760205260408082206002015460015491516302571be360e01b8152600481018290529092916001600160a01b0316906302571be390602401602060405180830381865afa158015613873573d6000803e3d6000fd5b505050506040513d601f19601f820116820180604052508101906138979190613ff5565b90506001600160a01b0381163314806138d357506001600160a01b038116600090815260086020908152604080832033845290915290205460ff165b806138f757506000838152600760205260409020600601546001600160a01b031633145b6139435760405162461bcd60e51b815260206004820152601760248201527f4e4f545f4f574e45525f4f525f434f4e54524f4c4c4552000000000000000000604482015260640161090c565b6000858152600760208190526040909120015484116139a45760405162461bcd60e51b815260206004820152600a60248201527f4241445f45585049525900000000000000000000000000000000000000000000604482015260640161090c565b60008054906101000a90046001600160a01b03166001600160a01b0316634d3f73346040518163ffffffff1660e01b8152600401608060405180830381865afa1580156139f5573d6000803e3d6000fd5b505050506040513d601f19601f82011682018060405250810190613a199190614125565b6020908101516005805473ffffffffffffffffffffffffffffffffffffffff19166001600160a01b0390921691909117905560008681526007918290526040812090910154613a689086614299565b905060045481613a7891906142ac565b341015613ac75760405162461bcd60e51b815260206004820152601260248201527f494e53554646494349454e545f45544845520000000000000000000000000000604482015260640161090c565b600086815260076020819052604091829020018690555186907fa620b72378ee464490805a96e25b53e5c0076f0ce2d28f9691ae255a595b3bf390610b269088815260200190565b60008181526007602081905260408220015482904210613b715760405162461bcd60e51b815260206004820152601060248201527f4d4f4c4543554c455f4558504952454400000000000000000000000000000000604482015260640161090c565b6000838152600760205260408082206002015460015491516302571be360e01b8152600481018290529092916001600160a01b0316906302571be390602401602060405180830381865afa158015613bcd573d6000803e3d6000fd5b505050506040513d601f19601f82011682018060405250810190613bf19190613ff5565b9050306001600160a01b03821603613c0f5760035493505050610bb6565b509392505050565b60008281526007602052604080822090517f6fd8c68500000000000000000000000000000000000000000000000000000000815273__$47e4ffaaf323c41735ff299f8946896ce0$__91636fd8c68591610c23918691600390910190600401614212565b508054600082559060005260206000209081019061242591905b80821115613ca95760008155600101613c95565b5090565b6001600160a01b038116811461242557600080fd5b600080600060608486031215613cd757600080fd5b83359250602084013560ff81168114613cef57600080fd5b91506040840135613cff81613cad565b809150509250925092565b600060208284031215613d1c57600080fd5b5035919050565b60008060408385031215613d3657600080fd5b823591506020830135613d4881613cad565b809150509250929050565b604080825283519082018190526000906020906060840190828701845b82811015613d955781516001600160a01b031684529284019290840190600101613d70565b5050508381038285015284518082528583019183019060005b81811015613dcd57835160ff1683529284019291840191600101613dae565b5090979650505050505050565b6020808252825182820181905260009190848201906040850190845b81811015613e1257835183529284019291840191600101613df6565b50909695505050505050565b60008060408385031215613e3157600080fd5b50508035926020909101359150565b7f4e487b7100000000000000000000000000000000000000000000000000000000600052604160045260246000fd5b604051601f82017fffffffffffffffffffffffffffffffffffffffffffffffffffffffffffffffe016810167ffffffffffffffff81118282101715613eb657613eb6613e40565b604052919050565b60008060408385031215613ed157600080fd5b8235915060208084013567ffffffffffffffff80821115613ef157600080fd5b818601915086601f830112613f0557600080fd5b813581811115613f1757613f17613e40565b8060051b9150613f28848301613e6f565b8181529183018401918481019089841115613f4257600080fd5b938501935b83851015613f6057843582529385019390850190613f47565b8096505050505050509250929050565b600060208284031215613f8257600080fd5b8135613f8d81613cad565b9392505050565b801515811461242557600080fd5b60008060408385031215613fb557600080fd5b8235613fc081613cad565b91506020830135613d4881613f94565b60008060408385031215613fe357600080fd5b823591506020830135613d4881613f94565b60006020828403121561400757600080fd5b8151613f8d81613cad565b6000604082016001600160a01b03808616845260206040818601528286548085526060870191508760005282600020945060005b81811015614064578554851683526001958601959284019201614046565b509098975050505050505050565b60006020828403121561408457600080fd5b8151613f8d81613f94565b7f4e487b7100000000000000000000000000000000000000000000000000000000600052603260045260246000fd5b7f4e487b7100000000000000000000000000000000000000000000000000000000600052601160045260246000fd5b60007fffffffffffffffffffffffffffffffffffffffffffffffffffffffffffffffff820361411e5761411e6140be565b5060010190565b60006080828403121561413757600080fd5b82601f83011261414657600080fd5b6040516080810181811067ffffffffffffffff8211171561416957614169613e40565b60405280608084018581111561417e57600080fd5b845b818110156141a157805161419381613cad565b835260209283019201614180565b509195945050505050565b6000604082016001600160a01b0380861684526020604081860152828651808552606087019150828801945060005b818110156140645785518516835294830194918301916001016141db565b60006020828403121561420b57600080fd5b5051919050565b60006040820184835260206040818501528185548084526060860191508660005282600020935060005b81811015613dcd5784548352600194850194928401920161423c565b6000604082018483526020604081850152818551808452606086019150828701935060005b81811015613dcd5784518352938301939183019160010161427d565b81810381811115610c6857610c686140be565b6000817fffffffffffffffffffffffffffffffffffffffffffffffffffffffffffffffff04831182151516156142e4576142e46140be565b50029056fea26469706673582212207f8aa727a529674d784e519e8fcc5ca7cef3fbec652adb25d7eb6b6a9c4003e464736f6c63430008100033",
    "linkReferences": {
      "src/Utils/LibString.sol": {
        "LibString": [
          {
            "start": 5233,
            "length": 20
          },
          {
            "start": 8404,
            "length": 20
          },
          {
            "start": 8571,
            "length": 20
          },
          {
            "start": 11970,
            "length": 20
          },
          {
            "start": 13627,
            "length": 20
          },
          {
            "start": 13785,
            "length": 20
          },
          {
            "start": 17612,
            "length": 20
          }
        ]
      }
    }
  },
  "methodIdentifiers": {
    "Dev()": "01e51ae8",
    "HELIX2()": "b782426e",
    "Molecules(bytes32)": "af6328f6",
    "NAMES()": "05e84aa0",
    "Registrar()": "b9f37c86",
    "active()": "02fb0c5e",
    "addAnion(bytes32,bytes32)": "6ff24830",
    "alias_(bytes32)": "c5bc4c0b",
    "anion(bytes32)": "0e68b116",
    "basePrice()": "c7876ea4",
    "cation(bytes32)": "f61ccd53",
    "changeDev(address)": "88a8c95c",
    "controller(bytes32)": "dbd4e021",
    "covalence(bytes32)": "34026859",
    "expiry(bytes32)": "d2ec5fca",
    "hook(bytes32,uint8,address)": "51a76442",
    "hooksWithRules(bytes32)": "0aac6625",
    "isApprovedForAll(bytes32,address)": "b0698628",
    "isNotDuplicateAnion(bytes32,bytes32)": "f8c91244",
    "isNotDuplicateHook(bytes32,address)": "049a491c",
    "popAnion(bytes32,bytes32)": "8dcad139",
    "recordExists(bytes32)": "f79fe538",
    "register(bytes32,bytes32)": "2f926732",
    "rehook(bytes32,uint8,address)": "015399e6",
    "renew(bytes32,uint256)": "f544d82f",
    "resolver(bytes32)": "0178b8bf",
    "roothash()": "251c9422",
    "setAlias(bytes32,bytes32)": "1f06e91c",
    "setAnions(bytes32,bytes32[])": "741b4cd0",
    "setApprovalForAll(address,bool)": "a22cb465",
    "setCation(bytes32,bytes32)": "8146970a",
    "setController(bytes32,address)": "d3156905",
    "setCovalence(bytes32,bool)": "d07699aa",
    "setExpiry(bytes32,uint256)": "39de6469",
    "setRecord(bytes32,address)": "d9b76ed4",
    "setResolver(bytes32,address)": "1896f70a",
    "theEnd()": "22b68deb",
    "unhook(bytes32,address)": "241270d5",
    "unhookAll(bytes32)": "21ec2b5b",
    "withdrawEther()": "7362377b"
  },
  "id": 26
}