{
  "abi": [
    {
      "inputs": [
        {
          "internalType": "address",
          "name": "_registry",
          "type": "address"
        },
        {
          "internalType": "address",
          "name": "_helix2",
          "type": "address"
        }
      ],
      "stateMutability": "nonpayable",
      "type": "constructor"
    },
    {
      "inputs": [
        {
          "internalType": "bytes32",
          "name": "moleculehash",
          "type": "bytes32"
        },
        {
          "internalType": "bytes32",
          "name": "anion",
          "type": "bytes32"
        }
      ],
      "name": "AnionNotFound",
      "type": "error"
    },
    {
      "anonymous": false,
      "inputs": [
        {
          "indexed": true,
          "internalType": "address",
          "name": "cation",
          "type": "address"
        },
        {
          "indexed": true,
          "internalType": "address",
          "name": "operator",
          "type": "address"
        },
        {
          "indexed": false,
          "internalType": "bool",
          "name": "approved",
          "type": "bool"
        }
      ],
      "name": "ApprovalForAll",
      "type": "event"
    },
    {
      "anonymous": false,
      "inputs": [
        {
          "indexed": true,
          "internalType": "bytes32",
          "name": "molyhash",
          "type": "bytes32"
        },
        {
          "indexed": false,
          "internalType": "address",
          "name": "config",
          "type": "address"
        },
        {
          "indexed": false,
          "internalType": "uint8",
          "name": "rule",
          "type": "uint8"
        }
      ],
      "name": "Hooked",
      "type": "event"
    },
    {
      "anonymous": false,
      "inputs": [
        {
          "indexed": true,
          "internalType": "bytes32",
          "name": "molyhash",
          "type": "bytes32"
        },
        {
          "indexed": false,
          "internalType": "bytes32",
          "name": "_alias",
          "type": "bytes32"
        }
      ],
      "name": "NewAlias",
      "type": "event"
    },
    {
      "anonymous": false,
      "inputs": [
        {
          "indexed": true,
          "internalType": "bytes32",
          "name": "molyhash",
          "type": "bytes32"
        },
        {
          "indexed": false,
          "internalType": "bytes32",
          "name": "anion",
          "type": "bytes32"
        }
      ],
      "name": "NewAnion",
      "type": "event"
    },
    {
      "anonymous": false,
      "inputs": [
        {
          "indexed": true,
          "internalType": "bytes32",
          "name": "molyhash",
          "type": "bytes32"
        },
        {
          "indexed": false,
          "internalType": "bytes32[]",
          "name": "anion",
          "type": "bytes32[]"
        }
      ],
      "name": "NewAnions",
      "type": "event"
    },
    {
      "anonymous": false,
      "inputs": [
        {
          "indexed": true,
          "internalType": "bytes32",
          "name": "molyhash",
          "type": "bytes32"
        },
        {
          "indexed": false,
          "internalType": "bytes32",
          "name": "cation",
          "type": "bytes32"
        }
      ],
      "name": "NewCation",
      "type": "event"
    },
    {
      "anonymous": false,
      "inputs": [
        {
          "indexed": true,
          "internalType": "bytes32",
          "name": "molyhash",
          "type": "bytes32"
        },
        {
          "indexed": false,
          "internalType": "address",
          "name": "controller",
          "type": "address"
        }
      ],
      "name": "NewController",
      "type": "event"
    },
    {
      "anonymous": false,
      "inputs": [
        {
          "indexed": true,
          "internalType": "bytes32",
          "name": "molyhash",
          "type": "bytes32"
        },
        {
          "indexed": false,
          "internalType": "bool",
          "name": "covalence",
          "type": "bool"
        }
      ],
      "name": "NewCovalence",
      "type": "event"
    },
    {
      "anonymous": false,
      "inputs": [
        {
          "indexed": false,
          "internalType": "address",
          "name": "Dev",
          "type": "address"
        },
        {
          "indexed": false,
          "internalType": "address",
          "name": "newDev",
          "type": "address"
        }
      ],
      "name": "NewDev",
      "type": "event"
    },
    {
      "anonymous": false,
      "inputs": [
        {
          "indexed": true,
          "internalType": "bytes32",
          "name": "molyhash",
          "type": "bytes32"
        },
        {
          "indexed": false,
          "internalType": "uint256",
          "name": "expiry",
          "type": "uint256"
        }
      ],
      "name": "NewExpiry",
      "type": "event"
    },
    {
      "anonymous": false,
      "inputs": [
        {
          "indexed": true,
          "internalType": "bytes32",
          "name": "molyhash",
          "type": "bytes32"
        },
        {
          "indexed": false,
          "internalType": "bytes32",
          "name": "cation",
          "type": "bytes32"
        }
      ],
      "name": "NewMolecule",
      "type": "event"
    },
    {
      "anonymous": false,
      "inputs": [
        {
          "indexed": true,
          "internalType": "bytes32",
          "name": "molyhash",
          "type": "bytes32"
        },
        {
          "indexed": false,
          "internalType": "address",
          "name": "resolver",
          "type": "address"
        }
      ],
      "name": "NewRecord",
      "type": "event"
    },
    {
      "anonymous": false,
      "inputs": [
        {
          "indexed": true,
          "internalType": "bytes32",
          "name": "molyhash",
          "type": "bytes32"
        },
        {
          "indexed": false,
          "internalType": "bytes32",
          "name": "cation",
          "type": "bytes32"
        }
      ],
      "name": "NewRegistration",
      "type": "event"
    },
    {
      "anonymous": false,
      "inputs": [
        {
          "indexed": true,
          "internalType": "bytes32",
          "name": "molyhash",
          "type": "bytes32"
        },
        {
          "indexed": false,
          "internalType": "address",
          "name": "resolver",
          "type": "address"
        }
      ],
      "name": "NewResolver",
      "type": "event"
    },
    {
      "anonymous": false,
      "inputs": [
        {
          "indexed": true,
          "internalType": "bytes32",
          "name": "molyhash",
          "type": "bytes32"
        },
        {
          "indexed": false,
          "internalType": "bytes32",
          "name": "anion",
          "type": "bytes32"
        }
      ],
      "name": "PopAnion",
      "type": "event"
    },
    {
      "anonymous": false,
      "inputs": [
        {
          "indexed": true,
          "internalType": "bytes32",
          "name": "molyhash",
          "type": "bytes32"
        },
        {
          "indexed": false,
          "internalType": "address",
          "name": "config",
          "type": "address"
        },
        {
          "indexed": false,
          "internalType": "uint8",
          "name": "rule",
          "type": "uint8"
        }
      ],
      "name": "Rehooked",
      "type": "event"
    },
    {
      "anonymous": false,
      "inputs": [
        {
          "indexed": true,
          "internalType": "bytes32",
          "name": "molyhash",
          "type": "bytes32"
        },
        {
          "indexed": false,
          "internalType": "address",
          "name": "config",
          "type": "address"
        }
      ],
      "name": "Unhooked",
      "type": "event"
    },
    {
      "anonymous": false,
      "inputs": [
        {
          "indexed": true,
          "internalType": "bytes32",
          "name": "molyhash",
          "type": "bytes32"
        }
      ],
      "name": "UnhookedAll",
      "type": "event"
    },
    {
      "inputs": [],
      "name": "Dev",
      "outputs": [
        {
          "internalType": "address",
          "name": "",
          "type": "address"
        }
      ],
      "stateMutability": "view",
      "type": "function"
    },
    {
      "inputs": [],
      "name": "HELIX2",
      "outputs": [
        {
          "internalType": "contract iHELIX2",
          "name": "",
          "type": "address"
        }
      ],
      "stateMutability": "view",
      "type": "function"
    },
    {
      "inputs": [
        {
          "internalType": "bytes32",
          "name": "",
          "type": "bytes32"
        }
      ],
      "name": "Molecules",
      "outputs": [
        {
          "internalType": "bytes32",
          "name": "_cation",
          "type": "bytes32"
        },
        {
          "internalType": "bytes32",
          "name": "_alias",
          "type": "bytes32"
        },
        {
          "internalType": "address",
          "name": "_resolver",
          "type": "address"
        },
        {
          "internalType": "address",
          "name": "_controller",
          "type": "address"
        },
        {
          "internalType": "bool",
          "name": "_covalence",
          "type": "bool"
        },
        {
          "internalType": "uint256",
          "name": "_expiry",
          "type": "uint256"
        }
      ],
      "stateMutability": "view",
      "type": "function"
    },
    {
      "inputs": [],
      "name": "NAMES",
      "outputs": [
        {
          "internalType": "contract iNAME",
          "name": "",
          "type": "address"
        }
      ],
      "stateMutability": "view",
      "type": "function"
    },
    {
      "inputs": [],
      "name": "active",
      "outputs": [
        {
          "internalType": "bool",
          "name": "",
          "type": "bool"
        }
      ],
      "stateMutability": "view",
      "type": "function"
    },
    {
      "inputs": [
        {
          "internalType": "bytes32",
          "name": "molyhash",
          "type": "bytes32"
        },
        {
          "internalType": "bytes32",
          "name": "_anion",
          "type": "bytes32"
        }
      ],
      "name": "addAnion",
      "outputs": [],
      "stateMutability": "nonpayable",
      "type": "function"
    },
    {
      "inputs": [
        {
          "internalType": "bytes32",
          "name": "molyhash",
          "type": "bytes32"
        }
      ],
      "name": "alias_",
      "outputs": [
        {
          "internalType": "bytes32",
          "name": "",
          "type": "bytes32"
        }
      ],
      "stateMutability": "view",
      "type": "function"
    },
    {
      "inputs": [
        {
          "internalType": "bytes32",
          "name": "molyhash",
          "type": "bytes32"
        }
      ],
      "name": "anion",
      "outputs": [
        {
          "internalType": "bytes32[]",
          "name": "",
          "type": "bytes32[]"
        }
      ],
      "stateMutability": "view",
      "type": "function"
    },
    {
      "inputs": [],
      "name": "basePrice",
      "outputs": [
        {
          "internalType": "uint256",
          "name": "",
          "type": "uint256"
        }
      ],
      "stateMutability": "view",
      "type": "function"
    },
    {
      "inputs": [
        {
          "internalType": "bytes32",
          "name": "molyhash",
          "type": "bytes32"
        }
      ],
      "name": "cation",
      "outputs": [
        {
          "internalType": "bytes32",
          "name": "",
          "type": "bytes32"
        }
      ],
      "stateMutability": "view",
      "type": "function"
    },
    {
      "inputs": [
        {
          "internalType": "address",
          "name": "newDev",
          "type": "address"
        }
      ],
      "name": "changeDev",
      "outputs": [],
      "stateMutability": "nonpayable",
      "type": "function"
    },
    {
      "inputs": [
        {
          "internalType": "bytes32",
          "name": "molyhash",
          "type": "bytes32"
        }
      ],
      "name": "controller",
      "outputs": [
        {
          "internalType": "address",
          "name": "",
          "type": "address"
        }
      ],
      "stateMutability": "view",
      "type": "function"
    },
    {
      "inputs": [
        {
          "internalType": "bytes32",
          "name": "molyhash",
          "type": "bytes32"
        }
      ],
      "name": "covalence",
      "outputs": [
        {
          "internalType": "bool",
          "name": "",
          "type": "bool"
        }
      ],
      "stateMutability": "view",
      "type": "function"
    },
    {
      "inputs": [
        {
          "internalType": "bytes32",
          "name": "molyhash",
          "type": "bytes32"
        }
      ],
      "name": "expiry",
      "outputs": [
        {
          "internalType": "uint256",
          "name": "",
          "type": "uint256"
        }
      ],
      "stateMutability": "view",
      "type": "function"
    },
    {
      "inputs": [
        {
          "internalType": "bytes32",
          "name": "molyhash",
          "type": "bytes32"
        },
        {
          "internalType": "uint8",
          "name": "rule",
          "type": "uint8"
        },
        {
          "internalType": "address",
          "name": "config",
          "type": "address"
        }
      ],
      "name": "hook",
      "outputs": [],
      "stateMutability": "nonpayable",
      "type": "function"
    },
    {
      "inputs": [
        {
          "internalType": "bytes32",
          "name": "molyhash",
          "type": "bytes32"
        }
      ],
      "name": "hooksWithRules",
      "outputs": [
        {
          "internalType": "address[]",
          "name": "",
          "type": "address[]"
        },
        {
          "internalType": "uint8[]",
          "name": "",
          "type": "uint8[]"
        }
      ],
      "stateMutability": "view",
      "type": "function"
    },
    {
      "inputs": [
        {
          "internalType": "bytes32",
          "name": "_cation",
          "type": "bytes32"
        },
        {
          "internalType": "address",
          "name": "operator",
          "type": "address"
        }
      ],
      "name": "isApprovedForAll",
      "outputs": [
        {
          "internalType": "bool",
          "name": "",
          "type": "bool"
        }
      ],
      "stateMutability": "view",
      "type": "function"
    },
    {
      "inputs": [
        {
          "internalType": "bytes32",
          "name": "molyhash",
          "type": "bytes32"
        },
        {
          "internalType": "bytes32",
          "name": "_anion",
          "type": "bytes32"
        }
      ],
      "name": "isNotDuplicateAnion",
      "outputs": [
        {
          "internalType": "bool",
          "name": "",
          "type": "bool"
        }
      ],
      "stateMutability": "view",
      "type": "function"
    },
    {
      "inputs": [
        {
          "internalType": "bytes32",
          "name": "molyhash",
          "type": "bytes32"
        },
        {
          "internalType": "address",
          "name": "config",
          "type": "address"
        }
      ],
      "name": "isNotDuplicateHook",
      "outputs": [
        {
          "internalType": "bool",
          "name": "",
          "type": "bool"
        }
      ],
      "stateMutability": "view",
      "type": "function"
    },
    {
      "inputs": [
        {
          "internalType": "bytes32",
          "name": "molyhash",
          "type": "bytes32"
        },
        {
          "internalType": "bytes32",
          "name": "__anion",
          "type": "bytes32"
        }
      ],
      "name": "popAnion",
      "outputs": [],
      "stateMutability": "nonpayable",
      "type": "function"
    },
    {
      "inputs": [
        {
          "internalType": "bytes32",
          "name": "molyhash",
          "type": "bytes32"
        }
      ],
      "name": "recordExists",
      "outputs": [
        {
          "internalType": "bool",
          "name": "",
          "type": "bool"
        }
      ],
      "stateMutability": "view",
      "type": "function"
    },
    {
      "inputs": [
        {
          "internalType": "bytes32",
          "name": "molyhash",
          "type": "bytes32"
        },
        {
          "internalType": "bytes32",
          "name": "_cation",
          "type": "bytes32"
        }
      ],
      "name": "register",
      "outputs": [],
      "stateMutability": "nonpayable",
      "type": "function"
    },
    {
      "inputs": [],
      "name": "registrar",
      "outputs": [
        {
          "internalType": "address",
          "name": "",
          "type": "address"
        }
      ],
      "stateMutability": "view",
      "type": "function"
    },
    {
      "inputs": [
        {
          "internalType": "bytes32",
          "name": "molyhash",
          "type": "bytes32"
        },
        {
          "internalType": "uint8",
          "name": "rule",
          "type": "uint8"
        },
        {
          "internalType": "address",
          "name": "config",
          "type": "address"
        }
      ],
      "name": "rehook",
      "outputs": [],
      "stateMutability": "nonpayable",
      "type": "function"
    },
    {
      "inputs": [
        {
          "internalType": "bytes32",
          "name": "molyhash",
          "type": "bytes32"
        }
      ],
      "name": "resolver",
      "outputs": [
        {
          "internalType": "address",
          "name": "",
          "type": "address"
        }
      ],
      "stateMutability": "view",
      "type": "function"
    },
    {
      "inputs": [],
      "name": "roothash",
      "outputs": [
        {
          "internalType": "bytes32",
          "name": "",
          "type": "bytes32"
        }
      ],
      "stateMutability": "view",
      "type": "function"
    },
    {
      "inputs": [
        {
          "internalType": "bytes32",
          "name": "molyhash",
          "type": "bytes32"
        },
        {
          "internalType": "bytes32",
          "name": "_alias",
          "type": "bytes32"
        }
      ],
      "name": "setAlias",
      "outputs": [],
      "stateMutability": "nonpayable",
      "type": "function"
    },
    {
      "inputs": [
        {
          "internalType": "bytes32",
          "name": "molyhash",
          "type": "bytes32"
        },
        {
          "internalType": "bytes32[]",
          "name": "_anion",
          "type": "bytes32[]"
        }
      ],
      "name": "setAnions",
      "outputs": [],
      "stateMutability": "nonpayable",
      "type": "function"
    },
    {
      "inputs": [
        {
          "internalType": "address",
          "name": "operator",
          "type": "address"
        },
        {
          "internalType": "bool",
          "name": "approved",
          "type": "bool"
        }
      ],
      "name": "setApprovalForAll",
      "outputs": [],
      "stateMutability": "nonpayable",
      "type": "function"
    },
    {
      "inputs": [
        {
          "internalType": "bytes32",
          "name": "molyhash",
          "type": "bytes32"
        },
        {
          "internalType": "bytes32",
          "name": "_cation",
          "type": "bytes32"
        }
      ],
      "name": "setCation",
      "outputs": [],
      "stateMutability": "nonpayable",
      "type": "function"
    },
    {
      "inputs": [
        {
          "internalType": "bytes32",
          "name": "molyhash",
          "type": "bytes32"
        },
        {
          "internalType": "address",
          "name": "_controller",
          "type": "address"
        }
      ],
      "name": "setController",
      "outputs": [],
      "stateMutability": "nonpayable",
      "type": "function"
    },
    {
      "inputs": [
        {
          "internalType": "bytes32",
          "name": "molyhash",
          "type": "bytes32"
        },
        {
          "internalType": "bool",
          "name": "_covalence",
          "type": "bool"
        }
      ],
      "name": "setCovalence",
      "outputs": [],
      "stateMutability": "nonpayable",
      "type": "function"
    },
    {
      "inputs": [
        {
          "internalType": "bytes32",
          "name": "molyhash",
          "type": "bytes32"
        },
        {
          "internalType": "uint256",
          "name": "_expiry",
          "type": "uint256"
        }
      ],
      "name": "setExpiry",
      "outputs": [],
      "stateMutability": "payable",
      "type": "function"
    },
    {
      "inputs": [
        {
          "internalType": "bytes32",
          "name": "molyhash",
          "type": "bytes32"
        },
        {
          "internalType": "address",
          "name": "_resolver",
          "type": "address"
        }
      ],
      "name": "setRecord",
      "outputs": [],
      "stateMutability": "nonpayable",
      "type": "function"
    },
    {
      "inputs": [
        {
          "internalType": "bytes32",
          "name": "molyhash",
          "type": "bytes32"
        },
        {
          "internalType": "address",
          "name": "_resolver",
          "type": "address"
        }
      ],
      "name": "setResolver",
      "outputs": [],
      "stateMutability": "nonpayable",
      "type": "function"
    },
    {
      "inputs": [],
      "name": "theEnd",
      "outputs": [
        {
          "internalType": "uint256",
          "name": "",
          "type": "uint256"
        }
      ],
      "stateMutability": "view",
      "type": "function"
    },
    {
      "inputs": [
        {
          "internalType": "bytes32",
          "name": "molyhash",
          "type": "bytes32"
        },
        {
          "internalType": "address",
          "name": "config",
          "type": "address"
        }
      ],
      "name": "unhook",
      "outputs": [],
      "stateMutability": "nonpayable",
      "type": "function"
    },
    {
      "inputs": [
        {
          "internalType": "bytes32",
          "name": "molyhash",
          "type": "bytes32"
        }
      ],
      "name": "unhookAll",
      "outputs": [],
      "stateMutability": "nonpayable",
      "type": "function"
    },
    {
      "inputs": [],
      "name": "withdrawEther",
      "outputs": [],
      "stateMutability": "payable",
      "type": "function"
    }
  ],
  "bytecode": {
    "object": "0x60806040526002805460ff60a01b1916600160a01b1790556703782dace9d900006006553480156200003057600080fd5b50604051620048553803806200485583398101604081905262000053916200075b565b60028054336001600160a01b0319918216179091556000805482166001600160a01b03848116918217909255600180549093169185169190911790915560408051633215476b60e11b8152905163642a8ed6916004808201926080929091908290030181865afa158015620000cc573d6000803e3d6000fd5b505050506040513d601f19601f82011682018060405250810190620000f29190620007ca565b604090810151600355600054815163bd9a548b60e01b815291516001600160a01b039091169163bd9a548b9160048083019260809291908290030181865afa15801562000143573d6000803e3d6000fd5b505050506040513d601f19601f82011682018060405250810190620001699190620007ca565b604001516004556200017a62000182565b50506200086f565b7fb4b4801cca1cad359bff6b5ea99d95160f00cbe1164fb7231c42c3e8b5f2593b805460ff19169055604080516020818101909252600080825280526007909152620001f2907f6d5257204ebe7d88fd91ae87941cb2dd9d8062b64ae5a2bd2d28ec40b9fbf6df9060016200067f565b5060007f6d5257204ebe7d88fd91ae87941cb2dd9d8062b64ae5a2bd2d28ec40b9fbf6e1819055604080516020818101909252828152918052600790526200025e907f6d5257204ebe7d88fd91ae87941cb2dd9d8062b64ae5a2bd2d28ec40b9fbf6e2906001620006e9565b50600080805260076020527f6d5257204ebe7d88fd91ae87941cb2dd9d8062b64ae5a2bd2d28ec40b9fbf6e38190557f6d5257204ebe7d88fd91ae87941cb2dd9d8062b64ae5a2bd2d28ec40b9fbf6e580546006547f6d5257204ebe7d88fd91ae87941cb2dd9d8062b64ae5a2bd2d28ec40b9fbf6e6556001600160a81b03191633908117600160a01b179091557f6d5257204ebe7d88fd91ae87941cb2dd9d8062b64ae5a2bd2d28ec40b9fbf6e480546001600160a01b0319169091179055805460408051633215476b60e11b815290516001600160a01b03929092169163642a8ed6916004818101926080929091908290030181865afa15801562000369573d6000803e3d6000fd5b505050506040513d601f19601f820116820180604052508101906200038f9190620007ca565b905060005b60048110156200067b57600060076000848460048110620003b957620003b962000831565b60209081029190910151825281810192909252604090810160009081208180526001018352818120805460ff191660ff9590951694909417909355805191820190528181529060079084846004811062000417576200041762000831565b602002015181526020019081526020016000206000019060016200043d9291906200067f565b5081816004811062000453576200045362000831565b60200201516007600084846004811062000471576200047162000831565b60200201518152602001908152602001600020600201819055506040518060200160405280838360048110620004ab57620004ab62000831565b6020020151905260076000848460048110620004cb57620004cb62000831565b60200201518152602001908152602001600020600301906001620004f1929190620006e9565b5081816004811062000507576200050762000831565b60200201516007600084846004811062000525576200052562000831565b60200201518152602001908152602001600020600401819055506001600760008484600481106200055a576200055a62000831565b6020020151815260200190815260200160002060060160146101000a81548160ff02191690831515021790555060065460076000848460048110620005a357620005a362000831565b60200201518152602001908152602001600020600701819055503360076000848460048110620005d757620005d762000831565b6020020151815260200190815260200160002060060160006101000a8154816001600160a01b0302191690836001600160a01b0316021790555033600760008484600481106200062b576200062b62000831565b6020020151815260200190815260200160002060050160006101000a8154816001600160a01b0302191690836001600160a01b031602179055508080620006729062000847565b91505062000394565b5050565b828054828255906000526020600020908101928215620006d7579160200282015b82811115620006d757825182546001600160a01b0319166001600160a01b03909116178255602090920191600190910190620006a0565b50620006e592915062000727565b5090565b828054828255906000526020600020908101928215620006d7579160200282015b82811115620006d75782518255916020019190600101906200070a565b5b80821115620006e5576000815560010162000728565b80516001600160a01b03811681146200075657600080fd5b919050565b600080604083850312156200076f57600080fd5b6200077a836200073e565b91506200078a602084016200073e565b90509250929050565b604051608081016001600160401b0381118282101715620007c457634e487b7160e01b600052604160045260246000fd5b60405290565b600060808284031215620007dd57600080fd5b82601f830112620007ed57600080fd5b620007f762000793565b8060808401858111156200080a57600080fd5b845b81811015620008265780518452602093840193016200080c565b509095945050505050565b634e487b7160e01b600052603260045260246000fd5b6000600182016200086857634e487b7160e01b600052601160045260246000fd5b5060010190565b613fd6806200087f6000396000f3fe6080604052600436106102a05760003560e01c80636ff248301161016e578063c5bc4c0b116100cb578063d9b76ed41161007f578063f61ccd5311610064578063f61ccd53146107f2578063f79fe53814610812578063f8c912441461084557600080fd5b8063d9b76ed4146107b2578063dbd4e021146107d257600080fd5b8063d07699aa116100b0578063d07699aa14610741578063d2ec5fca14610761578063d31569051461079257600080fd5b8063c5bc4c0b1461070b578063c7876ea41461072b57600080fd5b80638dcad13911610122578063af6328f611610107578063af6328f614610616578063b0698628146106cb578063b782426e146106eb57600080fd5b80638dcad139146105d6578063a22cb465146105f657600080fd5b8063741b4cd011610153578063741b4cd0146105765780638146970a1461059657806388a8c95c146105b657600080fd5b80636ff248301461054e5780637362377b1461056e57600080fd5b80631f06e91c1161021c5780632b20e397116101d057806334026859116101b557806334026859146104fb57806339de64691461051b57806351a764421461052e57600080fd5b80632b20e397146104bb5780632f926732146104db57600080fd5b806322b68deb1161020157806322b68deb14610461578063241270d514610485578063251c9422146104a557600080fd5b80631f06e91c1461042157806321ec2b5b1461044157600080fd5b8063049a491c116102735780630aac6625116102585780630aac6625146103a65780630e68b116146103d45780631896f70a1461040157600080fd5b8063049a491c1461036657806305e84aa01461038657600080fd5b8063015399e6146102a55780630178b8bf146102c757806301e51ae81461030457806302fb0c5e14610324575b600080fd5b3480156102b157600080fd5b506102c56102c0366004613979565b610865565b005b3480156102d357600080fd5b506102e76102e23660046139c1565b610aca565b6040516001600160a01b0390911681526020015b60405180910390f35b34801561031057600080fd5b506002546102e7906001600160a01b031681565b34801561033057600080fd5b506002546103569074010000000000000000000000000000000000000000900460ff1681565b60405190151581526020016102fb565b34801561037257600080fd5b506103566103813660046139da565b610b50565b34801561039257600080fd5b506001546102e7906001600160a01b031681565b3480156103b257600080fd5b506103c66103c13660046139c1565b610c02565b6040516102fb929190613a0a565b3480156103e057600080fd5b506103f46103ef3660046139c1565b610dc8565b6040516102fb9190613a91565b34801561040d57600080fd5b506102c561041c3660046139da565b610e97565b34801561042d57600080fd5b506102c561043c366004613ad5565b6110e9565b34801561044d57600080fd5b506102c561045c3660046139c1565b61130b565b34801561046d57600080fd5b5061047760065481565b6040519081526020016102fb565b34801561049157600080fd5b506102c56104a03660046139da565b611649565b3480156104b157600080fd5b5061047760035481565b3480156104c757600080fd5b506005546102e7906001600160a01b031681565b3480156104e757600080fd5b506102c56104f6366004613ad5565b611a88565b34801561050757600080fd5b506103566105163660046139c1565b611b41565b6102c5610529366004613ad5565b611bd5565b34801561053a57600080fd5b506102c5610549366004613979565b611f7f565b34801561055a57600080fd5b506102c5610569366004613ad5565b6121dd565b6102c5612466565b34801561058257600080fd5b506102c5610591366004613b75565b61250c565b3480156105a257600080fd5b506102c56105b1366004613ad5565b61282c565b3480156105c257600080fd5b506102c56105d1366004613c27565b6129df565b3480156105e257600080fd5b506102c56105f1366004613ad5565b612aaf565b34801561060257600080fd5b506102c5610611366004613c59565b612ec9565b34801561062257600080fd5b5061068f6106313660046139c1565b600760208190526000918252604090912060028101546004820154600583015460068401549390940154919390926001600160a01b0391821692918116917401000000000000000000000000000000000000000090910460ff169086565b6040805196875260208701959095526001600160a01b0393841694860194909452911660608401521515608083015260a082015260c0016102fb565b3480156106d757600080fd5b506103566106e63660046139da565b612f35565b3480156106f757600080fd5b506000546102e7906001600160a01b031681565b34801561071757600080fd5b506104776107263660046139c1565b612fd9565b34801561073757600080fd5b5061047760045481565b34801561074d57600080fd5b506102c561075c366004613c87565b613052565b34801561076d57600080fd5b5061047761077c3660046139c1565b6000908152600760208190526040909120015490565b34801561079e57600080fd5b506102c56107ad3660046139da565b6132b6565b3480156107be57600080fd5b506102c56107cd3660046139da565b6134fd565b3480156107de57600080fd5b506102e76107ed3660046139c1565b613744565b3480156107fe57600080fd5b5061047761080d3660046139c1565b6137c6565b34801561081e57600080fd5b5061035661082d3660046139c1565b60009081526007602081905260409091200154421090565b34801561085157600080fd5b50610356610860366004613ad5565b6138ce565b60008381526007602081905260409091200154839042106108cd5760405162461bcd60e51b815260206004820152601060248201527f4d4f4c4543554c455f455850495245440000000000000000000000000000000060448201526064015b60405180910390fd5b6000818152600760205260408082206002015460015491516302571be360e01b8152600481018290529092916001600160a01b0316906302571be390602401602060405180830381865afa158015610929573d6000803e3d6000fd5b505050506040513d601f19601f8201168201806040525081019061094d9190613cac565b90506001600160a01b03811633148061098957506001600160a01b038116600090815260086020908152604080832033845290915290205460ff165b6109d55760405162461bcd60e51b815260206004820152600960248201527f4e4f545f4f574e4552000000000000000000000000000000000000000000000060448201526064016108c4565b60008681526007602090815260408083206001600160a01b038816845260010190915290205460ff808716911603610a4f5760405162461bcd60e51b815260206004820152600b60248201527f52554c455f45584953545300000000000000000000000000000000000000000060448201526064016108c4565b60008681526007602090815260408083206001600160a01b0388168085526001909101835292819020805460ff191660ff8a1690811790915581519384529183019190915287917fe43a78ddf6157361fe34d04905786138f88d3eda20b1f7dc0e2c619f9267310091015b60405180910390a2505050505050565b60008181526007602081905260408220015482904210610b2c5760405162461bcd60e51b815260206004820152601060248201527f4d4f4c4543554c455f455850495245440000000000000000000000000000000060448201526064016108c4565b6000838152600760205260409020600501546001600160a01b031691505b50919050565b60008281526007602052604080822090517f2306f46600000000000000000000000000000000000000000000000000000000815273__$47e4ffaaf323c41735ff299f8946896ce0$__91632306f46691610bb7916001600160a01b03871691600401613cc9565b602060405180830381865af4158015610bd4573d6000803e3d6000fd5b505050506040513d601f19601f82011682018060405250810190610bf89190613d29565b1590505b92915050565b6060808260076000828152602001908152602001600020600701544210610c6b5760405162461bcd60e51b815260206004820152601060248201527f4d4f4c4543554c455f455850495245440000000000000000000000000000000060448201526064016108c4565b600084815260076020908152604080832080548251818502810185019093528083529192909190830182828015610ccb57602002820191906000526020600020905b81546001600160a01b03168152600190910190602001808311610cad575b505050505090506000815167ffffffffffffffff811115610cee57610cee613af7565b604051908082528060200260200182016040528015610d17578160200160208202803683370190505b50905060005b8251811015610dbc57600760008881526020019081526020016000206001016000848381518110610d5057610d50613d46565b60200260200101516001600160a01b03166001600160a01b0316815260200190815260200160002060009054906101000a900460ff16828281518110610d9857610d98613d46565b60ff9092166020928302919091019091015280610db481613da4565b915050610d1d565b50909350915050915091565b60608160076000828152602001908152602001600020600701544210610e305760405162461bcd60e51b815260206004820152601060248201527f4d4f4c4543554c455f455850495245440000000000000000000000000000000060448201526064016108c4565b600083815260076020908152604080832060030180548251818502810185019093528083529192909190830182828015610e8957602002820191906000526020600020905b815481526020019060010190808311610e75575b509398975050505050505050565b6000546040805163134fdccd60e21b8152905184926001600160a01b031691634d3f73349160048083019260809291908290030181865afa158015610ee0573d6000803e3d6000fd5b505050506040513d601f19601f82011682018060405250810190610f049190613ddc565b604090810151600580546001600160a01b0392831673ffffffffffffffffffffffffffffffffffffffff19909116179055600083815260076020528281206002015460015493516302571be360e01b8152600481018290529093919291909116906302571be390602401602060405180830381865afa158015610f8b573d6000803e3d6000fd5b505050506040513d601f19601f82011682018060405250810190610faf9190613cac565b6005549091506001600160a01b0316331480610fd357506001600160a01b03811633145b8061100157506001600160a01b038116600090815260086020908152604080832033845290915290205460ff165b8061102557506000838152600760205260409020600601546001600160a01b031633145b6110715760405162461bcd60e51b815260206004820152600e60248201527f4e4f545f415554484f524953454400000000000000000000000000000000000060448201526064016108c4565b600085815260076020908152604091829020600501805473ffffffffffffffffffffffffffffffffffffffff19166001600160a01b038816908117909155915191825286917f335721b01866dc23fbee8b6b2c7b1e14d6f05c28cd35a2c934239f94095602a091015b60405180910390a25050505050565b6000546040805163134fdccd60e21b8152905184926001600160a01b031691634d3f73349160048083019260809291908290030181865afa158015611132573d6000803e3d6000fd5b505050506040513d601f19601f820116820180604052508101906111569190613ddc565b604090810151600580546001600160a01b0392831673ffffffffffffffffffffffffffffffffffffffff19909116179055600083815260076020528281206002015460015493516302571be360e01b8152600481018290529093919291909116906302571be390602401602060405180830381865afa1580156111dd573d6000803e3d6000fd5b505050506040513d601f19601f820116820180604052508101906112019190613cac565b6005549091506001600160a01b031633148061122557506001600160a01b03811633145b8061125357506001600160a01b038116600090815260086020908152604080832033845290915290205460ff165b8061127757506000838152600760205260409020600601546001600160a01b031633145b6112c35760405162461bcd60e51b815260206004820152600e60248201527f4e4f545f415554484f524953454400000000000000000000000000000000000060448201526064016108c4565b600085815260076020526040908190206004018590555185907f4247841fd58468a6fb10925898bdd83c426da7b5519ee71597106dfdc6751229906110da9087815260200190565b600081815260076020819052604090912001548190421061136e5760405162461bcd60e51b815260206004820152601060248201527f4d4f4c4543554c455f455850495245440000000000000000000000000000000060448201526064016108c4565b6000818152600760205260408082206002015460015491516302571be360e01b8152600481018290529092916001600160a01b0316906302571be390602401602060405180830381865afa1580156113ca573d6000803e3d6000fd5b505050506040513d601f19601f820116820180604052508101906113ee9190613cac565b90506001600160a01b03811633148061142a57506001600160a01b038116600090815260086020908152604080832033845290915290205460ff165b6114765760405162461bcd60e51b815260206004820152600960248201527f4e4f545f4f574e4552000000000000000000000000000000000000000000000060448201526064016108c4565b6000848152600760209081526040808320805482518185028101850190935280835291929091908301828280156114d657602002820191906000526020600020905b81546001600160a01b031681526001909101906020018083116114b8575b5050505050905060005b81518110156115c757600060076000888152602001908152602001600020600101600084848151811061151557611515613d46565b60200260200101516001600160a01b03166001600160a01b0316815260200190815260200160002060006101000a81548160ff021916908360ff160217905550857fc4c4b4793ac649a3a05ee26afdd6d54122cea2e3298a195a786ab7e899c21e3483838151811061158957611589613d46565b60200260200101516040516115ad91906001600160a01b0391909116815260200190565b60405180910390a2806115bf81613da4565b9150506114e0565b5060008581526007602052604081206115df91613932565b60405185907f6b91085369552b61ca16180a741663b69fb6b3b967f7271116521d84e2291dc590600090a250505060009182525060076020908152604082208054600181018255908352912001805473ffffffffffffffffffffffffffffffffffffffff19169055565b60008281526007602081905260409091200154829042106116ac5760405162461bcd60e51b815260206004820152601060248201527f4d4f4c4543554c455f455850495245440000000000000000000000000000000060448201526064016108c4565b6000818152600760205260408082206002015460015491516302571be360e01b8152600481018290529092916001600160a01b0316906302571be390602401602060405180830381865afa158015611708573d6000803e3d6000fd5b505050506040513d601f19601f8201168201806040525081019061172c9190613cac565b90506001600160a01b03811633148061176857506001600160a01b038116600090815260086020908152604080832033845290915290205460ff165b6117b45760405162461bcd60e51b815260206004820152600960248201527f4e4f545f4f574e4552000000000000000000000000000000000000000000000060448201526064016108c4565b60008581526007602090815260408083208054825181850281018501909352808352919290919083018282801561181457602002820191906000526020600020905b81546001600160a01b031681526001909101906020018083116117f6575b50506040517f2306f46600000000000000000000000000000000000000000000000000000000815293945073__$47e4ffaaf323c41735ff299f8946896ce0$__93632306f466935061187792506001600160a01b038a1691508590600401613e63565b602060405180830381865af4158015611894573d6000803e3d6000fd5b505050506040513d601f19601f820116820180604052508101906118b89190613d29565b15611a4d576040517fcd23ef4c00000000000000000000000000000000000000000000000000000000815260009073__$47e4ffaaf323c41735ff299f8946896ce0$__9063cd23ef4c9061191b906001600160a01b038a16908690600401613e63565b602060405180830381865af4158015611938573d6000803e3d6000fd5b505050506040513d601f19601f8201168201806040525081019061195c9190613eb0565b90508061199e576040516000815287907fc4c4b4793ac649a3a05ee26afdd6d54122cea2e3298a195a786ab7e899c21e349060200160405180910390a2611a47565b60008781526007602090815260408083206001600160a01b038a168085526001909101835292819020805460ff191690555191825288917fc4c4b4793ac649a3a05ee26afdd6d54122cea2e3298a195a786ab7e899c21e34910160405180910390a26000878152600760205260409020805482908110611a2057611a20613d46565b6000918252602090912001805473ffffffffffffffffffffffffffffffffffffffff191690555b50611a80565b6040516000815286907fc4c4b4793ac649a3a05ee26afdd6d54122cea2e3298a195a786ab7e899c21e3490602001610aba565b505050505050565b600082815260076020819052604090912001548290421015611aec5760405162461bcd60e51b815260206004820152600f60248201527f4d4f4c4543554c455f455849535453000000000000000000000000000000000060448201526064016108c4565b600083815260076020526040908190206002018390555183907facb5de0f65735f798ae8baf163fb3380a7813aca2c739ba9e39179007206585a90611b349085815260200190565b60405180910390a2505050565b60008181526007602081905260408220015482904210611ba35760405162461bcd60e51b815260206004820152601060248201527f4d4f4c4543554c455f455850495245440000000000000000000000000000000060448201526064016108c4565b505060009081526007602052604090206006015474010000000000000000000000000000000000000000900460ff1690565b6000546040805163134fdccd60e21b8152905184926001600160a01b031691634d3f73349160048083019260809291908290030181865afa158015611c1e573d6000803e3d6000fd5b505050506040513d601f19601f82011682018060405250810190611c429190613ddc565b604090810151600580546001600160a01b0392831673ffffffffffffffffffffffffffffffffffffffff19909116179055600083815260076020528281206002015460015493516302571be360e01b8152600481018290529093919291909116906302571be390602401602060405180830381865afa158015611cc9573d6000803e3d6000fd5b505050506040513d601f19601f82011682018060405250810190611ced9190613cac565b6005549091506001600160a01b0316331480611d1157506001600160a01b03811633145b80611d3f57506001600160a01b038116600090815260086020908152604080832033845290915290205460ff165b80611d6357506000838152600760205260409020600601546001600160a01b031633145b611daf5760405162461bcd60e51b815260206004820152600e60248201527f4e4f545f415554484f524953454400000000000000000000000000000000000060448201526064016108c4565b600085815260076020819052604090912001548411611e105760405162461bcd60e51b815260206004820152600a60248201527f4241445f4558504952590000000000000000000000000000000000000000000060448201526064016108c4565b60008054906101000a90046001600160a01b03166001600160a01b0316634d3f73346040518163ffffffff1660e01b8152600401608060405180830381865afa158015611e61573d6000803e3d6000fd5b505050506040513d601f19601f82011682018060405250810190611e859190613ddc565b604001516005805473ffffffffffffffffffffffffffffffffffffffff19166001600160a01b0390921691821790553314611f3757600085815260076020819052604082200154611ed69086613ec9565b905060045481611ee69190613edc565b341015611f355760405162461bcd60e51b815260206004820152601260248201527f494e53554646494349454e545f4554484552000000000000000000000000000060448201526064016108c4565b505b600085815260076020819052604091829020018590555185907fa620b72378ee464490805a96e25b53e5c0076f0ce2d28f9691ae255a595b3bf3906110da9087815260200190565b6000838152600760208190526040909120015483904210611fe25760405162461bcd60e51b815260206004820152601060248201527f4d4f4c4543554c455f455850495245440000000000000000000000000000000060448201526064016108c4565b6000818152600760205260408082206002015460015491516302571be360e01b8152600481018290529092916001600160a01b0316906302571be390602401602060405180830381865afa15801561203e573d6000803e3d6000fd5b505050506040513d601f19601f820116820180604052508101906120629190613cac565b90506001600160a01b03811633148061209e57506001600160a01b038116600090815260086020908152604080832033845290915290205460ff165b6120ea5760405162461bcd60e51b815260206004820152600960248201527f4e4f545f4f574e4552000000000000000000000000000000000000000000000060448201526064016108c4565b6120f48685610b50565b6121405760405162461bcd60e51b815260206004820152600b60248201527f484f4f4b5f45584953545300000000000000000000000000000000000000000060448201526064016108c4565b6000868152600760209081526040808320805460018082018355828652848620909101805473ffffffffffffffffffffffffffffffffffffffff19166001600160a01b038b169081179091558086529101835292819020805460ff191660ff8a1690811790915581519384529183019190915287917fc733a2bc621cc97eef6ed4f708f126e72e6acb76c0a1c0461c9dd31f7b9870659101610aba565b6000546040805163134fdccd60e21b8152905184926001600160a01b031691634d3f73349160048083019260809291908290030181865afa158015612226573d6000803e3d6000fd5b505050506040513d601f19601f8201168201806040525081019061224a9190613ddc565b604090810151600580546001600160a01b0392831673ffffffffffffffffffffffffffffffffffffffff19909116179055600083815260076020528281206002015460015493516302571be360e01b8152600481018290529093919291909116906302571be390602401602060405180830381865afa1580156122d1573d6000803e3d6000fd5b505050506040513d601f19601f820116820180604052508101906122f59190613cac565b6005549091506001600160a01b031633148061231957506001600160a01b03811633145b8061234757506001600160a01b038116600090815260086020908152604080832033845290915290205460ff165b8061236b57506000838152600760205260409020600601546001600160a01b031633145b6123b75760405162461bcd60e51b815260206004820152600e60248201527f4e4f545f415554484f524953454400000000000000000000000000000000000060448201526064016108c4565b6123c185856138ce565b61240d5760405162461bcd60e51b815260206004820152600c60248201527f414e494f4e5f455849535453000000000000000000000000000000000000000060448201526064016108c4565b6000858152600760209081526040808320600301805460018101825590845291909220018590555185907f600ffddd29393ca43c0a11fa6b0b7096631364178cb42f9d546c0a2cd22525ee906110da9087815260200190565b6002546040516000916001600160a01b03169047908381818185875af1925050503d80600081146124b3576040519150601f19603f3d011682016040523d82523d6000602084013e6124b8565b606091505b50509050806125095760405162461bcd60e51b815260206004820152601360248201527f4554485f5452414e534645525f4641494c45440000000000000000000000000060448201526064016108c4565b50565b6000546040805163134fdccd60e21b8152905184926001600160a01b031691634d3f73349160048083019260809291908290030181865afa158015612555573d6000803e3d6000fd5b505050506040513d601f19601f820116820180604052508101906125799190613ddc565b604090810151600580546001600160a01b0392831673ffffffffffffffffffffffffffffffffffffffff19909116179055600083815260076020528281206002015460015493516302571be360e01b8152600481018290529093919291909116906302571be390602401602060405180830381865afa158015612600573d6000803e3d6000fd5b505050506040513d601f19601f820116820180604052508101906126249190613cac565b6005549091506001600160a01b031633148061264857506001600160a01b03811633145b8061267657506001600160a01b038116600090815260086020908152604080832033845290915290205460ff165b8061269a57506000838152600760205260409020600601546001600160a01b031633145b6126e65760405162461bcd60e51b815260206004820152600e60248201527f4e4f545f415554484f524953454400000000000000000000000000000000000060448201526064016108c4565b60005b84518110156127fb5784818151811061270457612704613d46565b602002602001015173__$47e4ffaaf323c41735ff299f8946896ce0$__636fd8c6859091600760008a81526020019081526020016000206003016040518363ffffffff1660e01b815260040161275b929190613f19565b602060405180830381865af4158015612778573d6000803e3d6000fd5b505050506040513d601f19601f8201168201806040525081019061279c9190613d29565b156127e957600760008781526020019081526020016000206003018582815181106127c9576127c9613d46565b602090810291909101810151825460018101845560009384529190922001555b806127f381613da4565b9150506126e9565b50847f580d99949e5d5a02f35dc5b91b800697d53dccb814e200f24f97b4bfbeb8667c856040516110da9190613a91565b600082815260076020819052604090912001548290421061288f5760405162461bcd60e51b815260206004820152601060248201527f4d4f4c4543554c455f455850495245440000000000000000000000000000000060448201526064016108c4565b6000818152600760205260408082206002015460015491516302571be360e01b8152600481018290529092916001600160a01b0316906302571be390602401602060405180830381865afa1580156128eb573d6000803e3d6000fd5b505050506040513d601f19601f8201168201806040525081019061290f9190613cac565b90506001600160a01b03811633148061294b57506001600160a01b038116600090815260086020908152604080832033845290915290205460ff165b6129975760405162461bcd60e51b815260206004820152600960248201527f4e4f545f4f574e4552000000000000000000000000000000000000000000000060448201526064016108c4565b600085815260076020526040908190206002018590555185907f4810581adf2c16a86a375dbb1ed89b0b0f7e64d48d24e1948b3dfe6581e4d795906110da9087815260200190565b6002546001600160a01b03163314612a395760405162461bcd60e51b815260206004820152600760248201527f4e4f545f4445560000000000000000000000000000000000000000000000000060448201526064016108c4565b600254604080516001600160a01b03928316815291831660208301527fdec101f106d4fc7c85791843e64b198248c822298e3ed7046231d33f7783d816910160405180910390a16002805473ffffffffffffffffffffffffffffffffffffffff19166001600160a01b0392909216919091179055565b6000546040805163134fdccd60e21b8152905184926001600160a01b031691634d3f73349160048083019260809291908290030181865afa158015612af8573d6000803e3d6000fd5b505050506040513d601f19601f82011682018060405250810190612b1c9190613ddc565b604090810151600580546001600160a01b0392831673ffffffffffffffffffffffffffffffffffffffff19909116179055600083815260076020528281206002015460015493516302571be360e01b8152600481018290529093919291909116906302571be390602401602060405180830381865afa158015612ba3573d6000803e3d6000fd5b505050506040513d601f19601f82011682018060405250810190612bc79190613cac565b6005549091506001600160a01b0316331480612beb57506001600160a01b03811633145b80612c1957506001600160a01b038116600090815260086020908152604080832033845290915290205460ff165b80612c3d57506000838152600760205260409020600601546001600160a01b031633145b612c895760405162461bcd60e51b815260206004820152600e60248201527f4e4f545f415554484f524953454400000000000000000000000000000000000060448201526064016108c4565b600085815260076020908152604080832060030180548251818502810185019093528083529192909190830182828015612ce257602002820191906000526020600020905b815481526020019060010190808311612cce575b50506040517f6fd8c68500000000000000000000000000000000000000000000000000000000815293945073__$47e4ffaaf323c41735ff299f8946896ce0$__93636fd8c6859350612d3c92508991508590600401613f5f565b602060405180830381865af4158015612d59573d6000803e3d6000fd5b505050506040513d601f19601f82011682018060405250810190612d7d9190613d29565b15612e8d576040517fda92b9ed00000000000000000000000000000000000000000000000000000000815260009073__$47e4ffaaf323c41735ff299f8946896ce0$__9063da92b9ed90612dd79089908690600401613f5f565b602060405180830381865af4158015612df4573d6000803e3d6000fd5b505050506040513d601f19601f82011682018060405250810190612e189190613eb0565b600088815260076020526040902060030180549192509082908110612e3f57612e3f613d46565b9060005260206000200160009055867f5c379d054844760656a56e062f50208b458cfa0c4427574f5a2828d19602b4e987604051612e7f91815260200190565b60405180910390a250611a80565b6040517f5adb3bc700000000000000000000000000000000000000000000000000000000815260048101879052602481018690526044016108c4565b3360008181526008602090815260408083206001600160a01b03871680855290835292819020805460ff191686151590811790915590519081529192917f17307eab39ab6107e8899845ad3d59bd9653f200f220920489ca2b5937696c31910160405180910390a35050565b6001546040516302571be360e01b81526004810184905260009182916001600160a01b03909116906302571be390602401602060405180830381865afa158015612f83573d6000803e3d6000fd5b505050506040513d601f19601f82011682018060405250810190612fa79190613cac565b6001600160a01b0390811660009081526008602090815260408083209387168352929052205460ff1691505092915050565b6000818152600760208190526040822001548290421061303b5760405162461bcd60e51b815260206004820152601060248201527f4d4f4c4543554c455f455850495245440000000000000000000000000000000060448201526064016108c4565b505060009081526007602052604090206004015490565b6000546040805163134fdccd60e21b8152905184926001600160a01b031691634d3f73349160048083019260809291908290030181865afa15801561309b573d6000803e3d6000fd5b505050506040513d601f19601f820116820180604052508101906130bf9190613ddc565b604090810151600580546001600160a01b0392831673ffffffffffffffffffffffffffffffffffffffff19909116179055600083815260076020528281206002015460015493516302571be360e01b8152600481018290529093919291909116906302571be390602401602060405180830381865afa158015613146573d6000803e3d6000fd5b505050506040513d601f19601f8201168201806040525081019061316a9190613cac565b6005549091506001600160a01b031633148061318e57506001600160a01b03811633145b806131bc57506001600160a01b038116600090815260086020908152604080832033845290915290205460ff165b806131e057506000838152600760205260409020600601546001600160a01b031633145b61322c5760405162461bcd60e51b815260206004820152600e60248201527f4e4f545f415554484f524953454400000000000000000000000000000000000060448201526064016108c4565b60008581526007602052604090819020600601805486151574010000000000000000000000000000000000000000027fffffffffffffffffffffff00ffffffffffffffffffffffffffffffffffffffff9091161790555185907fe6ccdb52b4954ab2c3e293f1dbfe593e6c5630962a1944bfcf20c5563eeb8462906110da90871515815260200190565b6000546040805163134fdccd60e21b8152905184926001600160a01b031691634d3f73349160048083019260809291908290030181865afa1580156132ff573d6000803e3d6000fd5b505050506040513d601f19601f820116820180604052508101906133239190613ddc565b604090810151600580546001600160a01b0392831673ffffffffffffffffffffffffffffffffffffffff19909116179055600083815260076020528281206002015460015493516302571be360e01b8152600481018290529093919291909116906302571be390602401602060405180830381865afa1580156133aa573d6000803e3d6000fd5b505050506040513d601f19601f820116820180604052508101906133ce9190613cac565b6005549091506001600160a01b03163314806133f257506001600160a01b03811633145b8061342057506001600160a01b038116600090815260086020908152604080832033845290915290205460ff165b8061344457506000838152600760205260409020600601546001600160a01b031633145b6134905760405162461bcd60e51b815260206004820152600e60248201527f4e4f545f415554484f524953454400000000000000000000000000000000000060448201526064016108c4565b600085815260076020908152604091829020600601805473ffffffffffffffffffffffffffffffffffffffff19166001600160a01b038816908117909155915191825286917fe5108446a6097aab57fd36f346a515a78fddefa87d81662d44e0d7a463f9209591016110da565b6000546040805163134fdccd60e21b8152905184926001600160a01b031691634d3f73349160048083019260809291908290030181865afa158015613546573d6000803e3d6000fd5b505050506040513d601f19601f8201168201806040525081019061356a9190613ddc565b604090810151600580546001600160a01b0392831673ffffffffffffffffffffffffffffffffffffffff19909116179055600083815260076020528281206002015460015493516302571be360e01b8152600481018290529093919291909116906302571be390602401602060405180830381865afa1580156135f1573d6000803e3d6000fd5b505050506040513d601f19601f820116820180604052508101906136159190613cac565b6005549091506001600160a01b031633148061363957506001600160a01b03811633145b8061366757506001600160a01b038116600090815260086020908152604080832033845290915290205460ff165b8061368b57506000838152600760205260409020600601546001600160a01b031633145b6136d75760405162461bcd60e51b815260206004820152600e60248201527f4e4f545f415554484f524953454400000000000000000000000000000000000060448201526064016108c4565b600085815260076020908152604091829020600501805473ffffffffffffffffffffffffffffffffffffffff19166001600160a01b038816908117909155915191825286917fcb71326aeaad88869e8be8be2893e1119f7617ce4ea2411af127e218909be1f791016110da565b600081815260076020819052604082200154829042106137a65760405162461bcd60e51b815260206004820152601060248201527f4d4f4c4543554c455f455850495245440000000000000000000000000000000060448201526064016108c4565b50506000908152600760205260409020600601546001600160a01b031690565b600081815260076020819052604082200154829042106138285760405162461bcd60e51b815260206004820152601060248201527f4d4f4c4543554c455f455850495245440000000000000000000000000000000060448201526064016108c4565b6000838152600760205260408082206002015460015491516302571be360e01b8152600481018290529092916001600160a01b0316906302571be390602401602060405180830381865afa158015613884573d6000803e3d6000fd5b505050506040513d601f19601f820116820180604052508101906138a89190613cac565b9050306001600160a01b038216036138c65760035493505050610b4a565b509392505050565b60008281526007602052604080822090517f6fd8c68500000000000000000000000000000000000000000000000000000000815273__$47e4ffaaf323c41735ff299f8946896ce0$__91636fd8c68591610bb7918691600390910190600401613f19565b508054600082559060005260206000209081019061250991905b80821115613960576000815560010161394c565b5090565b6001600160a01b038116811461250957600080fd5b60008060006060848603121561398e57600080fd5b83359250602084013560ff811681146139a657600080fd5b915060408401356139b681613964565b809150509250925092565b6000602082840312156139d357600080fd5b5035919050565b600080604083850312156139ed57600080fd5b8235915060208301356139ff81613964565b809150509250929050565b604080825283519082018190526000906020906060840190828701845b82811015613a4c5781516001600160a01b031684529284019290840190600101613a27565b5050508381038285015284518082528583019183019060005b81811015613a8457835160ff1683529284019291840191600101613a65565b5090979650505050505050565b6020808252825182820181905260009190848201906040850190845b81811015613ac957835183529284019291840191600101613aad565b50909695505050505050565b60008060408385031215613ae857600080fd5b50508035926020909101359150565b7f4e487b7100000000000000000000000000000000000000000000000000000000600052604160045260246000fd5b604051601f82017fffffffffffffffffffffffffffffffffffffffffffffffffffffffffffffffe016810167ffffffffffffffff81118282101715613b6d57613b6d613af7565b604052919050565b60008060408385031215613b8857600080fd5b8235915060208084013567ffffffffffffffff80821115613ba857600080fd5b818601915086601f830112613bbc57600080fd5b813581811115613bce57613bce613af7565b8060051b9150613bdf848301613b26565b8181529183018401918481019089841115613bf957600080fd5b938501935b83851015613c1757843582529385019390850190613bfe565b8096505050505050509250929050565b600060208284031215613c3957600080fd5b8135613c4481613964565b9392505050565b801515811461250957600080fd5b60008060408385031215613c6c57600080fd5b8235613c7781613964565b915060208301356139ff81613c4b565b60008060408385031215613c9a57600080fd5b8235915060208301356139ff81613c4b565b600060208284031215613cbe57600080fd5b8151613c4481613964565b6000604082016001600160a01b03808616845260206040818601528286548085526060870191508760005282600020945060005b81811015613d1b578554851683526001958601959284019201613cfd565b509098975050505050505050565b600060208284031215613d3b57600080fd5b8151613c4481613c4b565b7f4e487b7100000000000000000000000000000000000000000000000000000000600052603260045260246000fd5b7f4e487b7100000000000000000000000000000000000000000000000000000000600052601160045260246000fd5b60007fffffffffffffffffffffffffffffffffffffffffffffffffffffffffffffffff8203613dd557613dd5613d75565b5060010190565b600060808284031215613dee57600080fd5b82601f830112613dfd57600080fd5b6040516080810181811067ffffffffffffffff82111715613e2057613e20613af7565b604052806080840185811115613e3557600080fd5b845b81811015613e58578051613e4a81613964565b835260209283019201613e37565b509195945050505050565b6000604082016001600160a01b0380861684526020604081860152828651808552606087019150828801945060005b81811015613d1b578551851683529483019491830191600101613e92565b600060208284031215613ec257600080fd5b5051919050565b81810381811115610bfc57610bfc613d75565b6000817fffffffffffffffffffffffffffffffffffffffffffffffffffffffffffffffff0483118215151615613f1457613f14613d75565b500290565b60006040820184835260206040818501528185548084526060860191508660005282600020935060005b81811015613a8457845483526001948501949284019201613f43565b6000604082018483526020604081850152818551808452606086019150828701935060005b81811015613a8457845183529383019391830191600101613f8456fea26469706673582212207adcf60022ba6aa1e60e32856dc6e70fe998e6a6337ff7a523a1be7267a6d7ee64736f6c63430008100033",
    "linkReferences": {
      "src/Utils/LibString.sol": {
        "LibString": [
          {
            "start": 5125,
            "length": 20
          },
          {
            "start": 8384,
            "length": 20
          },
          {
            "start": 8551,
            "length": 20
          },
          {
            "start": 12173,
            "length": 20
          },
          {
            "start": 13710,
            "length": 20
          },
          {
            "start": 13868,
            "length": 20
          },
          {
            "start": 16771,
            "length": 20
          }
        ]
      }
    }
  },
  "methodIdentifiers": {
    "Dev()": "01e51ae8",
    "HELIX2()": "b782426e",
    "Molecules(bytes32)": "af6328f6",
    "NAMES()": "05e84aa0",
    "active()": "02fb0c5e",
    "addAnion(bytes32,bytes32)": "6ff24830",
    "alias_(bytes32)": "c5bc4c0b",
    "anion(bytes32)": "0e68b116",
    "basePrice()": "c7876ea4",
    "cation(bytes32)": "f61ccd53",
    "changeDev(address)": "88a8c95c",
    "controller(bytes32)": "dbd4e021",
    "covalence(bytes32)": "34026859",
    "expiry(bytes32)": "d2ec5fca",
    "hook(bytes32,uint8,address)": "51a76442",
    "hooksWithRules(bytes32)": "0aac6625",
    "isApprovedForAll(bytes32,address)": "b0698628",
    "isNotDuplicateAnion(bytes32,bytes32)": "f8c91244",
    "isNotDuplicateHook(bytes32,address)": "049a491c",
    "popAnion(bytes32,bytes32)": "8dcad139",
    "recordExists(bytes32)": "f79fe538",
    "register(bytes32,bytes32)": "2f926732",
    "registrar()": "2b20e397",
    "rehook(bytes32,uint8,address)": "015399e6",
    "resolver(bytes32)": "0178b8bf",
    "roothash()": "251c9422",
    "setAlias(bytes32,bytes32)": "1f06e91c",
    "setAnions(bytes32,bytes32[])": "741b4cd0",
    "setApprovalForAll(address,bool)": "a22cb465",
    "setCation(bytes32,bytes32)": "8146970a",
    "setController(bytes32,address)": "d3156905",
    "setCovalence(bytes32,bool)": "d07699aa",
    "setExpiry(bytes32,uint256)": "39de6469",
    "setRecord(bytes32,address)": "d9b76ed4",
    "setResolver(bytes32,address)": "1896f70a",
    "theEnd()": "22b68deb",
    "unhook(bytes32,address)": "241270d5",
    "unhookAll(bytes32)": "21ec2b5b",
    "withdrawEther()": "7362377b"
  },
  "id": 22
}