{
  "abi": [
    {
      "inputs": [
        {
          "internalType": "address",
          "name": "_registry",
          "type": "address"
        },
        {
          "internalType": "address",
          "name": "_helix2",
          "type": "address"
        },
        {
          "internalType": "address",
          "name": "_priceOracle",
          "type": "address"
        }
      ],
      "stateMutability": "nonpayable",
      "type": "constructor"
    },
    {
      "inputs": [],
      "name": "BAD_ANION",
      "type": "error"
    },
    {
      "inputs": [],
      "name": "BAD_HOOK",
      "type": "error"
    },
    {
      "anonymous": false,
      "inputs": [
        {
          "indexed": true,
          "internalType": "address",
          "name": "cation",
          "type": "address"
        },
        {
          "indexed": true,
          "internalType": "address",
          "name": "operator",
          "type": "address"
        },
        {
          "indexed": false,
          "internalType": "bool",
          "name": "approved",
          "type": "bool"
        }
      ],
      "name": "ApprovalForAll",
      "type": "event"
    },
    {
      "anonymous": false,
      "inputs": [
        {
          "indexed": true,
          "internalType": "bytes32",
          "name": "bondhash",
          "type": "bytes32"
        },
        {
          "indexed": false,
          "internalType": "address",
          "name": "config",
          "type": "address"
        },
        {
          "indexed": false,
          "internalType": "uint8",
          "name": "rule",
          "type": "uint8"
        }
      ],
      "name": "Hooked",
      "type": "event"
    },
    {
      "anonymous": false,
      "inputs": [
        {
          "indexed": true,
          "internalType": "bytes32",
          "name": "molyhash",
          "type": "bytes32"
        },
        {
          "indexed": false,
          "internalType": "bytes32",
          "name": "anion",
          "type": "bytes32"
        }
      ],
      "name": "NewAnion",
      "type": "event"
    },
    {
      "anonymous": false,
      "inputs": [
        {
          "indexed": true,
          "internalType": "bytes32",
          "name": "molyhash",
          "type": "bytes32"
        },
        {
          "indexed": false,
          "internalType": "bytes32[]",
          "name": "anion",
          "type": "bytes32[]"
        }
      ],
      "name": "NewAnions",
      "type": "event"
    },
    {
      "anonymous": false,
      "inputs": [
        {
          "indexed": true,
          "internalType": "bytes32",
          "name": "molyhash",
          "type": "bytes32"
        },
        {
          "indexed": false,
          "internalType": "bytes32",
          "name": "cation",
          "type": "bytes32"
        }
      ],
      "name": "NewCation",
      "type": "event"
    },
    {
      "anonymous": false,
      "inputs": [
        {
          "indexed": true,
          "internalType": "bytes32",
          "name": "molyhash",
          "type": "bytes32"
        },
        {
          "indexed": false,
          "internalType": "address",
          "name": "controller",
          "type": "address"
        }
      ],
      "name": "NewController",
      "type": "event"
    },
    {
      "anonymous": false,
      "inputs": [
        {
          "indexed": true,
          "internalType": "bytes32",
          "name": "molyhash",
          "type": "bytes32"
        },
        {
          "indexed": false,
          "internalType": "bool",
          "name": "covalence",
          "type": "bool"
        }
      ],
      "name": "NewCovalence",
      "type": "event"
    },
    {
      "anonymous": false,
      "inputs": [
        {
          "indexed": false,
          "internalType": "address",
          "name": "Dev",
          "type": "address"
        },
        {
          "indexed": false,
          "internalType": "address",
          "name": "newDev",
          "type": "address"
        }
      ],
      "name": "NewDev",
      "type": "event"
    },
    {
      "anonymous": false,
      "inputs": [
        {
          "indexed": true,
          "internalType": "bytes32",
          "name": "molyhash",
          "type": "bytes32"
        },
        {
          "indexed": false,
          "internalType": "uint256",
          "name": "expiry",
          "type": "uint256"
        }
      ],
      "name": "NewExpiry",
      "type": "event"
    },
    {
      "anonymous": false,
      "inputs": [
        {
          "indexed": true,
          "internalType": "bytes32",
          "name": "molyhash",
          "type": "bytes32"
        },
        {
          "indexed": false,
          "internalType": "address",
          "name": "resolver",
          "type": "address"
        }
      ],
      "name": "NewRecord",
      "type": "event"
    },
    {
      "anonymous": false,
      "inputs": [
        {
          "indexed": true,
          "internalType": "bytes32",
          "name": "molyhash",
          "type": "bytes32"
        },
        {
          "indexed": false,
          "internalType": "address",
          "name": "resolver",
          "type": "address"
        }
      ],
      "name": "NewResolver",
      "type": "event"
    },
    {
      "anonymous": false,
      "inputs": [
        {
          "indexed": true,
          "internalType": "bytes32",
          "name": "molyhash",
          "type": "bytes32"
        },
        {
          "indexed": false,
          "internalType": "bytes32",
          "name": "anion",
          "type": "bytes32"
        }
      ],
      "name": "PopAnion",
      "type": "event"
    },
    {
      "anonymous": false,
      "inputs": [
        {
          "indexed": true,
          "internalType": "bytes32",
          "name": "bondhash",
          "type": "bytes32"
        },
        {
          "indexed": false,
          "internalType": "address",
          "name": "config",
          "type": "address"
        },
        {
          "indexed": false,
          "internalType": "uint8",
          "name": "rule",
          "type": "uint8"
        }
      ],
      "name": "Rehooked",
      "type": "event"
    },
    {
      "anonymous": false,
      "inputs": [
        {
          "indexed": true,
          "internalType": "bytes32",
          "name": "bondhash",
          "type": "bytes32"
        },
        {
          "indexed": false,
          "internalType": "uint8",
          "name": "rule",
          "type": "uint8"
        }
      ],
      "name": "Unhooked",
      "type": "event"
    },
    {
      "anonymous": false,
      "inputs": [
        {
          "indexed": true,
          "internalType": "bytes32",
          "name": "molyhash",
          "type": "bytes32"
        }
      ],
      "name": "UnhookedAll",
      "type": "event"
    },
    {
      "inputs": [],
      "name": "Dev",
      "outputs": [
        {
          "internalType": "address",
          "name": "",
          "type": "address"
        }
      ],
      "stateMutability": "view",
      "type": "function"
    },
    {
      "inputs": [],
      "name": "HELIX2",
      "outputs": [
        {
          "internalType": "contract iHELIX2",
          "name": "",
          "type": "address"
        }
      ],
      "stateMutability": "view",
      "type": "function"
    },
    {
      "inputs": [
        {
          "internalType": "bytes32",
          "name": "",
          "type": "bytes32"
        }
      ],
      "name": "Molecules",
      "outputs": [
        {
          "internalType": "bytes32",
          "name": "_cation",
          "type": "bytes32"
        },
        {
          "internalType": "bytes32",
          "name": "_alias",
          "type": "bytes32"
        },
        {
          "internalType": "address",
          "name": "_resolver",
          "type": "address"
        },
        {
          "internalType": "address",
          "name": "_controller",
          "type": "address"
        },
        {
          "internalType": "bool",
          "name": "_covalence",
          "type": "bool"
        },
        {
          "internalType": "uint256",
          "name": "_expiry",
          "type": "uint256"
        }
      ],
      "stateMutability": "view",
      "type": "function"
    },
    {
      "inputs": [],
      "name": "NAMES",
      "outputs": [
        {
          "internalType": "contract iNAME",
          "name": "",
          "type": "address"
        }
      ],
      "stateMutability": "view",
      "type": "function"
    },
    {
      "inputs": [],
      "name": "PRICES",
      "outputs": [
        {
          "internalType": "contract iPriceOracle",
          "name": "",
          "type": "address"
        }
      ],
      "stateMutability": "view",
      "type": "function"
    },
    {
      "inputs": [],
      "name": "Registrar",
      "outputs": [
        {
          "internalType": "address",
          "name": "",
          "type": "address"
        }
      ],
      "stateMutability": "view",
      "type": "function"
    },
    {
      "inputs": [],
      "name": "active",
      "outputs": [
        {
          "internalType": "bool",
          "name": "",
          "type": "bool"
        }
      ],
      "stateMutability": "view",
      "type": "function"
    },
    {
      "inputs": [
        {
          "internalType": "bytes32",
          "name": "molyhash",
          "type": "bytes32"
        },
        {
          "internalType": "bytes32",
          "name": "_anion",
          "type": "bytes32"
        }
      ],
      "name": "addAnion",
      "outputs": [],
      "stateMutability": "nonpayable",
      "type": "function"
    },
    {
      "inputs": [
        {
          "internalType": "bytes32",
          "name": "molyhash",
          "type": "bytes32"
        }
      ],
      "name": "alias_",
      "outputs": [
        {
          "internalType": "bytes32",
          "name": "",
          "type": "bytes32"
        }
      ],
      "stateMutability": "view",
      "type": "function"
    },
    {
      "inputs": [
        {
          "internalType": "bytes32",
          "name": "molyhash",
          "type": "bytes32"
        }
      ],
      "name": "anion",
      "outputs": [
        {
          "internalType": "bytes32[]",
          "name": "",
          "type": "bytes32[]"
        }
      ],
      "stateMutability": "view",
      "type": "function"
    },
    {
      "inputs": [],
      "name": "basePrice",
      "outputs": [
        {
          "internalType": "uint256",
          "name": "",
          "type": "uint256"
        }
      ],
      "stateMutability": "view",
      "type": "function"
    },
    {
      "inputs": [
        {
          "internalType": "bytes32",
          "name": "molyhash",
          "type": "bytes32"
        }
      ],
      "name": "cation",
      "outputs": [
        {
          "internalType": "bytes32",
          "name": "",
          "type": "bytes32"
        }
      ],
      "stateMutability": "view",
      "type": "function"
    },
    {
      "inputs": [
        {
          "internalType": "address",
          "name": "newDev",
          "type": "address"
        }
      ],
      "name": "changeDev",
      "outputs": [],
      "stateMutability": "nonpayable",
      "type": "function"
    },
    {
      "inputs": [
        {
          "internalType": "bytes32",
          "name": "molyhash",
          "type": "bytes32"
        }
      ],
      "name": "controller",
      "outputs": [
        {
          "internalType": "address",
          "name": "",
          "type": "address"
        }
      ],
      "stateMutability": "view",
      "type": "function"
    },
    {
      "inputs": [
        {
          "internalType": "bytes32",
          "name": "molyhash",
          "type": "bytes32"
        }
      ],
      "name": "covalence",
      "outputs": [
        {
          "internalType": "bool",
          "name": "",
          "type": "bool"
        }
      ],
      "stateMutability": "view",
      "type": "function"
    },
    {
      "inputs": [
        {
          "internalType": "bytes32",
          "name": "molyhash",
          "type": "bytes32"
        }
      ],
      "name": "expiry",
      "outputs": [
        {
          "internalType": "uint256",
          "name": "",
          "type": "uint256"
        }
      ],
      "stateMutability": "view",
      "type": "function"
    },
    {
      "inputs": [
        {
          "internalType": "bytes32",
          "name": "molyhash",
          "type": "bytes32"
        },
        {
          "internalType": "address",
          "name": "config",
          "type": "address"
        },
        {
          "internalType": "uint8",
          "name": "rule",
          "type": "uint8"
        }
      ],
      "name": "hook",
      "outputs": [],
      "stateMutability": "nonpayable",
      "type": "function"
    },
    {
      "inputs": [
        {
          "internalType": "bytes32",
          "name": "molyhash",
          "type": "bytes32"
        }
      ],
      "name": "hooksWithRules",
      "outputs": [
        {
          "internalType": "uint8[]",
          "name": "_rules",
          "type": "uint8[]"
        },
        {
          "internalType": "address[]",
          "name": "_hooks",
          "type": "address[]"
        }
      ],
      "stateMutability": "view",
      "type": "function"
    },
    {
      "inputs": [
        {
          "internalType": "bytes32",
          "name": "_cation",
          "type": "bytes32"
        },
        {
          "internalType": "address",
          "name": "operator",
          "type": "address"
        }
      ],
      "name": "isApprovedForAll",
      "outputs": [
        {
          "internalType": "bool",
          "name": "",
          "type": "bool"
        }
      ],
      "stateMutability": "view",
      "type": "function"
    },
    {
      "inputs": [
        {
          "internalType": "bytes32",
          "name": "molyhash",
          "type": "bytes32"
        },
        {
          "internalType": "bytes32",
          "name": "_anion",
          "type": "bytes32"
        }
      ],
      "name": "isNotDuplicateAnion",
      "outputs": [
        {
          "internalType": "bool",
          "name": "",
          "type": "bool"
        }
      ],
      "stateMutability": "view",
      "type": "function"
    },
    {
      "inputs": [
        {
          "internalType": "bytes32",
          "name": "molyhash",
          "type": "bytes32"
        },
        {
          "internalType": "uint8",
          "name": "rule",
          "type": "uint8"
        }
      ],
      "name": "isNotDuplicateHook",
      "outputs": [
        {
          "internalType": "bool",
          "name": "",
          "type": "bool"
        }
      ],
      "stateMutability": "view",
      "type": "function"
    },
    {
      "inputs": [
        {
          "internalType": "bytes32",
          "name": "molyhash",
          "type": "bytes32"
        },
        {
          "internalType": "bytes32",
          "name": "__anion",
          "type": "bytes32"
        }
      ],
      "name": "popAnion",
      "outputs": [],
      "stateMutability": "nonpayable",
      "type": "function"
    },
    {
      "inputs": [
        {
          "internalType": "bytes32",
          "name": "molyhash",
          "type": "bytes32"
        }
      ],
      "name": "recordExists",
      "outputs": [
        {
          "internalType": "bool",
          "name": "",
          "type": "bool"
        }
      ],
      "stateMutability": "view",
      "type": "function"
    },
    {
      "inputs": [
        {
          "internalType": "bytes32",
          "name": "molyhash",
          "type": "bytes32"
        },
        {
          "internalType": "bytes32",
          "name": "_cation",
          "type": "bytes32"
        }
      ],
      "name": "register",
      "outputs": [],
      "stateMutability": "nonpayable",
      "type": "function"
    },
    {
      "inputs": [
        {
          "internalType": "bytes32",
          "name": "molyhash",
          "type": "bytes32"
        },
        {
          "internalType": "address",
          "name": "config",
          "type": "address"
        },
        {
          "internalType": "uint8",
          "name": "rule",
          "type": "uint8"
        }
      ],
      "name": "rehook",
      "outputs": [],
      "stateMutability": "nonpayable",
      "type": "function"
    },
    {
      "inputs": [
        {
          "internalType": "bytes32",
          "name": "molyhash",
          "type": "bytes32"
        },
        {
          "internalType": "uint256",
          "name": "_expiry",
          "type": "uint256"
        }
      ],
      "name": "renew",
      "outputs": [],
      "stateMutability": "payable",
      "type": "function"
    },
    {
      "inputs": [
        {
          "internalType": "bytes32",
          "name": "molyhash",
          "type": "bytes32"
        }
      ],
      "name": "resolver",
      "outputs": [
        {
          "internalType": "address",
          "name": "",
          "type": "address"
        }
      ],
      "stateMutability": "view",
      "type": "function"
    },
    {
      "inputs": [],
      "name": "roothash",
      "outputs": [
        {
          "internalType": "bytes32",
          "name": "",
          "type": "bytes32"
        }
      ],
      "stateMutability": "view",
      "type": "function"
    },
    {
      "inputs": [
        {
          "internalType": "bytes32",
          "name": "molyhash",
          "type": "bytes32"
        },
        {
          "internalType": "bytes32",
          "name": "_alias",
          "type": "bytes32"
        }
      ],
      "name": "setAlias",
      "outputs": [],
      "stateMutability": "nonpayable",
      "type": "function"
    },
    {
      "inputs": [
        {
          "internalType": "bytes32",
          "name": "molyhash",
          "type": "bytes32"
        },
        {
          "internalType": "bytes32[]",
          "name": "_anion",
          "type": "bytes32[]"
        }
      ],
      "name": "setAnions",
      "outputs": [],
      "stateMutability": "nonpayable",
      "type": "function"
    },
    {
      "inputs": [
        {
          "internalType": "address",
          "name": "operator",
          "type": "address"
        },
        {
          "internalType": "bool",
          "name": "approved",
          "type": "bool"
        }
      ],
      "name": "setApprovalForAll",
      "outputs": [],
      "stateMutability": "nonpayable",
      "type": "function"
    },
    {
      "inputs": [
        {
          "internalType": "bytes32",
          "name": "molyhash",
          "type": "bytes32"
        },
        {
          "internalType": "bytes32",
          "name": "_cation",
          "type": "bytes32"
        }
      ],
      "name": "setCation",
      "outputs": [],
      "stateMutability": "nonpayable",
      "type": "function"
    },
    {
      "inputs": [
        {
          "internalType": "address",
          "name": "_helix2",
          "type": "address"
        },
        {
          "internalType": "address",
          "name": "_priceOracle",
          "type": "address"
        }
      ],
      "name": "setConfig",
      "outputs": [],
      "stateMutability": "nonpayable",
      "type": "function"
    },
    {
      "inputs": [
        {
          "internalType": "bytes32",
          "name": "molyhash",
          "type": "bytes32"
        },
        {
          "internalType": "address",
          "name": "_controller",
          "type": "address"
        }
      ],
      "name": "setController",
      "outputs": [],
      "stateMutability": "nonpayable",
      "type": "function"
    },
    {
      "inputs": [
        {
          "internalType": "bytes32",
          "name": "molyhash",
          "type": "bytes32"
        },
        {
          "internalType": "bool",
          "name": "_covalence",
          "type": "bool"
        }
      ],
      "name": "setCovalence",
      "outputs": [],
      "stateMutability": "nonpayable",
      "type": "function"
    },
    {
      "inputs": [
        {
          "internalType": "bytes32",
          "name": "molyhash",
          "type": "bytes32"
        },
        {
          "internalType": "uint256",
          "name": "_expiry",
          "type": "uint256"
        }
      ],
      "name": "setExpiry",
      "outputs": [],
      "stateMutability": "nonpayable",
      "type": "function"
    },
    {
      "inputs": [
        {
          "internalType": "bytes32",
          "name": "molyhash",
          "type": "bytes32"
        },
        {
          "internalType": "address",
          "name": "_resolver",
          "type": "address"
        }
      ],
      "name": "setRecord",
      "outputs": [],
      "stateMutability": "nonpayable",
      "type": "function"
    },
    {
      "inputs": [
        {
          "internalType": "bytes32",
          "name": "molyhash",
          "type": "bytes32"
        },
        {
          "internalType": "address",
          "name": "_resolver",
          "type": "address"
        }
      ],
      "name": "setResolver",
      "outputs": [],
      "stateMutability": "nonpayable",
      "type": "function"
    },
    {
      "inputs": [],
      "name": "theEnd",
      "outputs": [
        {
          "internalType": "uint256",
          "name": "",
          "type": "uint256"
        }
      ],
      "stateMutability": "view",
      "type": "function"
    },
    {
      "inputs": [],
      "name": "toggleActive",
      "outputs": [],
      "stateMutability": "nonpayable",
      "type": "function"
    },
    {
      "inputs": [
        {
          "internalType": "bytes32",
          "name": "molyhash",
          "type": "bytes32"
        },
        {
          "internalType": "uint8",
          "name": "rule",
          "type": "uint8"
        }
      ],
      "name": "unhook",
      "outputs": [],
      "stateMutability": "nonpayable",
      "type": "function"
    },
    {
      "inputs": [
        {
          "internalType": "bytes32",
          "name": "molyhash",
          "type": "bytes32"
        }
      ],
      "name": "unhookAll",
      "outputs": [],
      "stateMutability": "nonpayable",
      "type": "function"
    },
    {
      "inputs": [],
      "name": "withdrawEther",
      "outputs": [],
      "stateMutability": "nonpayable",
      "type": "function"
    }
  ],
  "bytecode": {
    "object": "0x60806040526003805460ff60a01b1916600160a01b1790556703782dace9d900006007553480156200003057600080fd5b50604051620047a2380380620047a28339810160408190526200005391620007c4565b60038054336001600160a01b0319918216179091556000805482166001600160a01b03858116918217909255600180549093169186169190911790915560408051633215476b60e11b8152905163642a8ed6916004808201926080929091908290030181865afa158015620000cc573d6000803e3d6000fd5b505050506040513d601f19601f82011682018060405250810190620000f2919062000845565b600260200201516004908155600280546001600160a01b0319166001600160a01b0384169081179091556040805163bd9a548b60e01b81529051919263bd9a548b9282820192608092908290030181865afa15801562000156573d6000803e3d6000fd5b505050506040513d601f19601f820116820180604052508101906200017c919062000845565b604001516005556200018d62000196565b505050620008ea565b7fe0f13b40287d4b83ba2a967e6b5baa79fd9f355757d595c15018be21fb9a246880546001600160a01b03191690556040805160208181019092526000808252805260089091526200020c907f5eff886ea0ce6ca488a3d6e336d6c0f75f46d19b42c06ce5ee98e42c96d256c7906001620006a5565b5060007f5eff886ea0ce6ca488a3d6e336d6c0f75f46d19b42c06ce5ee98e42c96d256c98190556040805160208181019092528281529180526008905262000278907f5eff886ea0ce6ca488a3d6e336d6c0f75f46d19b42c06ce5ee98e42c96d256ca90600162000752565b50600080805260086020527f5eff886ea0ce6ca488a3d6e336d6c0f75f46d19b42c06ce5ee98e42c96d256cb8190557f5eff886ea0ce6ca488a3d6e336d6c0f75f46d19b42c06ce5ee98e42c96d256cd80546007547f5eff886ea0ce6ca488a3d6e336d6c0f75f46d19b42c06ce5ee98e42c96d256ce556001600160a81b03191633908117600160a01b179091557f5eff886ea0ce6ca488a3d6e336d6c0f75f46d19b42c06ce5ee98e42c96d256cc80546001600160a01b0319169091179055805460408051633215476b60e11b815290516001600160a01b03929092169163642a8ed6916004818101926080929091908290030181865afa15801562000383573d6000803e3d6000fd5b505050506040513d601f19601f82011682018060405250810190620003a9919062000845565b905060005b6004811015620006a157600060086000848460048110620003d357620003d3620008ac565b6020908102919091015182528181019290925260409081016000908120818052600101835281812080546001600160a01b0319166001600160a01b03959095169490941790935580519182019052818152906008908484600481106200043d576200043d620008ac565b6020020151815260200190815260200160002060000190600162000463929190620006a5565b50818160048110620004795762000479620008ac565b602002015160086000848460048110620004975762000497620008ac565b60200201518152602001908152602001600020600201819055506040518060200160405280838360048110620004d157620004d1620008ac565b6020020151905260086000848460048110620004f157620004f1620008ac565b602002015181526020019081526020016000206003019060016200051792919062000752565b508181600481106200052d576200052d620008ac565b6020020151600860008484600481106200054b576200054b620008ac565b6020020151815260200190815260200160002060040181905550600160086000848460048110620005805762000580620008ac565b6020020151815260200190815260200160002060060160146101000a81548160ff02191690831515021790555060075460086000848460048110620005c957620005c9620008ac565b60200201518152602001908152602001600020600701819055503360086000848460048110620005fd57620005fd620008ac565b6020020151815260200190815260200160002060060160006101000a8154816001600160a01b0302191690836001600160a01b031602179055503360086000848460048110620006515762000651620008ac565b6020020151815260200190815260200160002060050160006101000a8154816001600160a01b0302191690836001600160a01b0316021790555080806200069890620008c2565b915050620003ae565b5050565b82805482825590600052602060002090601f01602090048101928215620007405791602002820160005b838211156200070f57835183826101000a81548160ff021916908360ff1602179055509260200192600101602081600001049283019260010302620006cf565b80156200073e5782816101000a81549060ff02191690556001016020816000010492830192600103026200070f565b505b506200074e92915062000790565b5090565b82805482825590600052602060002090810192821562000740579160200282015b828111156200074057825182559160200191906001019062000773565b5b808211156200074e576000815560010162000791565b80516001600160a01b0381168114620007bf57600080fd5b919050565b600080600060608486031215620007da57600080fd5b620007e584620007a7565b9250620007f560208501620007a7565b91506200080560408501620007a7565b90509250925092565b604051608081016001600160401b03811182821017156200083f57634e487b7160e01b600052604160045260246000fd5b60405290565b6000608082840312156200085857600080fd5b82601f8301126200086857600080fd5b620008726200080e565b8060808401858111156200088557600080fd5b845b81811015620008a157805184526020938401930162000887565b509095945050505050565b634e487b7160e01b600052603260045260246000fd5b600060018201620008e357634e487b7160e01b600052601160045260246000fd5b5060010190565b613ea880620008fa6000396000f3fe6080604052600436106102dc5760003560e01c80638366972611610184578063c5bc4c0b116100d6578063d9b76ed41161008a578063f61ccd5311610064578063f61ccd53146108ac578063f79fe538146108cc578063f8c91244146108fe57600080fd5b8063d9b76ed414610859578063dbd4e02114610879578063f544d82f1461089957600080fd5b8063d07699aa116100bb578063d07699aa146107e9578063d2ec5fca14610809578063d31569051461083957600080fd5b8063c5bc4c0b146107b3578063c7876ea4146107d357600080fd5b8063af6328f611610138578063b612e9b911610112578063b612e9b914610753578063b782426e14610773578063b9f37c861461079357600080fd5b8063af6328f614610661578063b069862814610713578063b602024b1461073357600080fd5b806388a8c95c1161016957806388a8c95c146106015780638dcad13914610621578063a22cb4651461064157600080fd5b806383669726146105c1578063849a799c146105e157600080fd5b806322b68deb1161023d57806339de6469116101f15780637362377b116101cb5780637362377b1461056c578063741b4cd0146105815780638146970a146105a157600080fd5b806339de64691461050c5780634d5055841461052c5780636ff248301461054c57600080fd5b806329c68dc11161022257806329c68dc1146104b75780632f926732146104cc57806334026859146104ec57600080fd5b806322b68deb1461047d578063251c9422146104a157600080fd5b80630e68b116116102945780631eabcd34116102795780631eabcd341461041d5780631f06e91c1461043d57806321ec2b5b1461045d57600080fd5b80630e68b116146103ce5780631896f70a146103fb57600080fd5b806302fb0c5e116102c557806302fb0c5e1461033e57806305e84aa0146103805780630aac6625146103a057600080fd5b80630178b8bf146102e157806301e51ae81461031e575b600080fd5b3480156102ed57600080fd5b506103016102fc3660046138dc565b61091e565b6040516001600160a01b0390911681526020015b60405180910390f35b34801561032a57600080fd5b50600354610301906001600160a01b031681565b34801561034a57600080fd5b506003546103709074010000000000000000000000000000000000000000900460ff1681565b6040519015158152602001610315565b34801561038c57600080fd5b50600154610301906001600160a01b031681565b3480156103ac57600080fd5b506103c06103bb3660046138dc565b6109a9565b6040516103159291906138f5565b3480156103da57600080fd5b506103ee6103e93660046138dc565b610b78565b604051610315919061397c565b34801561040757600080fd5b5061041b6104163660046139d5565b610c44565b005b34801561042957600080fd5b50600254610301906001600160a01b031681565b34801561044957600080fd5b5061041b610458366004613a05565b610e0a565b34801561046957600080fd5b5061041b6104783660046138dc565b610e79565b34801561048957600080fd5b5061049360075481565b604051908152602001610315565b3480156104ad57600080fd5b5061049360045481565b3480156104c357600080fd5b5061041b611165565b3480156104d857600080fd5b5061041b6104e7366004613a05565b61120c565b3480156104f857600080fd5b506103706105073660046138dc565b61137e565b34801561051857600080fd5b5061041b610527366004613a05565b611412565b34801561053857600080fd5b50610370610547366004613a3d565b611514565b34801561055857600080fd5b5061041b610567366004613a05565b6115a8565b34801561057857600080fd5b5061041b6117e5565b34801561058d57600080fd5b5061041b61059c366004613b10565b61188b565b3480156105ad57600080fd5b5061041b6105bc366004613a05565b611af0565b3480156105cd57600080fd5b5061041b6105dc366004613bc2565b611d66565b3480156105ed57600080fd5b5061041b6105fc366004613bc2565b612007565b34801561060d57600080fd5b5061041b61061c366004613c00565b6122a2565b34801561062d57600080fd5b5061041b61063c366004613a05565b61237d565b34801561064d57600080fd5b5061041b61065c366004613c34565b61263e565b34801561066d57600080fd5b506106d761067c3660046138dc565b60086020526000908152604090206002810154600482015460058301546006840154600790940154929391926001600160a01b03918216929182169174010000000000000000000000000000000000000000900460ff169086565b6040805196875260208701959095526001600160a01b0393841694860194909452911660608401521515608083015260a082015260c001610315565b34801561071f57600080fd5b5061037061072e3660046139d5565b6126c8565b34801561073f57600080fd5b5061041b61074e366004613c60565b61276c565b34801561075f57600080fd5b5061041b61076e366004613a3d565b6129e2565b34801561077f57600080fd5b50600054610301906001600160a01b031681565b34801561079f57600080fd5b50600654610301906001600160a01b031681565b3480156107bf57600080fd5b506104936107ce3660046138dc565b612d0c565b3480156107df57600080fd5b5061049360055481565b3480156107f557600080fd5b5061041b610804366004613c8e565b612d85565b34801561081557600080fd5b506104936108243660046138dc565b60009081526008602052604090206007015490565b34801561084557600080fd5b5061041b6108543660046139d5565b612f52565b34801561086557600080fd5b5061041b6108743660046139d5565b61310d565b34801561088557600080fd5b506103016108943660046138dc565b6132c8565b61041b6108a7366004613a05565b61334a565b3480156108b857600080fd5b506104936108c73660046138dc565b6135fb565b3480156108d857600080fd5b506103706108e73660046138dc565b600090815260086020526040902060070154421090565b34801561090a57600080fd5b50610370610919366004613a05565b613703565b600081815260086020526040812060070154829042106109855760405162461bcd60e51b815260206004820152601060248201527f4d4f4c4543554c455f455850495245440000000000000000000000000000000060448201526064015b60405180910390fd5b6000838152600860205260409020600501546001600160a01b031691505b50919050565b600081815260086020526040902060070154606090819083904210610a105760405162461bcd60e51b815260206004820152601060248201527f4d4f4c4543554c455f4558504952454400000000000000000000000000000000604482015260640161097c565b60008481526008602090815260409182902080548351818402810184019094528084529091830182828015610a8257602002820191906000526020600020906000905b825461010083900a900460ff16815260206001928301818104948501949093039092029101808411610a535790505b50505050509250825167ffffffffffffffff811115610aa357610aa3613a69565b604051908082528060200260200182016040528015610acc578160200160208202803683370190505b50915060005b8351811015610b7157600860008681526020019081526020016000206001016000858381518110610b0557610b05613cb1565b602002602001015160ff1660ff16815260200190815260200160002060009054906101000a90046001600160a01b0316838281518110610b4757610b47613cb1565b6001600160a01b039092166020928302919091019091015280610b6981613d0f565b915050610ad2565b5050915091565b60008181526008602052604090206007015460609082904210610bdd5760405162461bcd60e51b815260206004820152601060248201527f4d4f4c4543554c455f4558504952454400000000000000000000000000000000604482015260640161097c565b600083815260086020908152604080832060030180548251818502810185019093528083529192909190830182828015610c3657602002820191906000526020600020905b815481526020019060010190808311610c22575b509398975050505050505050565b6000828152600860205260408082206002015460015491516302571be360e01b815260048101829052859391926001600160a01b0316906302571be390602401602060405180830381865afa158015610ca1573d6000803e3d6000fd5b505050506040513d601f19601f82011682018060405250810190610cc59190613d47565b6006549091506001600160a01b0316331480610ce957506001600160a01b03811633145b80610d1757506001600160a01b038116600090815260096020908152604080832033845290915290205460ff165b80610d3b57506000838152600860205260409020600601546001600160a01b031633145b610d875760405162461bcd60e51b815260206004820152600e60248201527f4e4f545f415554484f5249534544000000000000000000000000000000000000604482015260640161097c565b60008581526008602090815260409182902060050180547fffffffffffffffffffffffff0000000000000000000000000000000000000000166001600160a01b038816908117909155915191825286917f335721b01866dc23fbee8b6b2c7b1e14d6f05c28cd35a2c934239f94095602a091015b60405180910390a25050505050565b6006546001600160a01b03163314610e645760405162461bcd60e51b815260206004820152600d60248201527f4e4f545f52454749535452415200000000000000000000000000000000000000604482015260640161097c565b60009182526008602052604090912060040155565b6000818152600860205260408082206002015460015491516302571be360e01b815260048101829052849391926001600160a01b0316906302571be390602401602060405180830381865afa158015610ed6573d6000803e3d6000fd5b505050506040513d601f19601f82011682018060405250810190610efa9190613d47565b6006549091506001600160a01b0316331480610f1e57506001600160a01b03811633145b80610f4c57506001600160a01b038116600090815260096020908152604080832033845290915290205460ff165b80610f7057506000838152600860205260409020600601546001600160a01b031633145b610fbc5760405162461bcd60e51b815260206004820152600e60248201527f4e4f545f415554484f5249534544000000000000000000000000000000000000604482015260640161097c565b60008481526008602090815260408083208054825181850281018501909352808352919290919083018282801561103057602002820191906000526020600020906000905b825461010083900a900460ff168152602060019283018181049485019490930390920291018084116110015790505b5050505050905060005b815181101561111b57600060086000888152602001908152602001600020600101600084848151811061106f5761106f613cb1565b602002602001015160ff1660ff16815260200190815260200160002060006101000a8154816001600160a01b0302191690836001600160a01b03160217905550857fbf47c0c608c230f7dffbcf65f8cdc76f5f920e4750eea1dcd09138a7359226ac8383815181106110e3576110e3613cb1565b6020026020010151604051611101919060ff91909116815260200190565b60405180910390a28061111381613d0f565b91505061103a565b506000858152600860205260408120611133916138a3565b60405185907f6b91085369552b61ca16180a741663b69fb6b3b967f7271116521d84e2291dc590600090a25050505050565b6003546001600160a01b031633146111bf5760405162461bcd60e51b815260206004820152600760248201527f4e4f545f44455600000000000000000000000000000000000000000000000000604482015260640161097c565b600380547fffffffffffffffffffffff00ffffffffffffffffffffffffffffffffffffffff8116740100000000000000000000000000000000000000009182900460ff1615909102179055565b6006546001600160a01b031633146112665760405162461bcd60e51b815260206004820152600d60248201527f4e4f545f52454749535452415200000000000000000000000000000000000000604482015260640161097c565b6001546040516302571be360e01b8152600481018390526000916001600160a01b0316906302571be390602401602060405180830381865afa1580156112b0573d6000803e3d6000fd5b505050506040513d601f19601f820116820180604052508101906112d49190613d47565b6001600160a01b03160361132a5760405162461bcd60e51b815260206004820152600b60248201527f43414e4e4f545f4255524e000000000000000000000000000000000000000000604482015260640161097c565b600082815260086020526040908190206002018290555182907f4810581adf2c16a86a375dbb1ed89b0b0f7e64d48d24e1948b3dfe6581e4d795906113729084815260200190565b60405180910390a25050565b600081815260086020526040812060070154829042106113e05760405162461bcd60e51b815260206004820152601060248201527f4d4f4c4543554c455f4558504952454400000000000000000000000000000000604482015260640161097c565b505060009081526008602052604090206006015474010000000000000000000000000000000000000000900460ff1690565b6006546001600160a01b0316331461146c5760405162461bcd60e51b815260206004820152600d60248201527f4e4f545f52454749535452415200000000000000000000000000000000000000604482015260640161097c565b60008281526008602052604090206007015481116114cc5760405162461bcd60e51b815260206004820152600a60248201527f4241445f45585049525900000000000000000000000000000000000000000000604482015260640161097c565b600082815260086020526040908190206007018290555182907fa620b72378ee464490805a96e25b53e5c0076f0ce2d28f9691ae255a595b3bf3906113729084815260200190565b6000828152600860209081526040808320805482518185028101850190935280835261159e9383018282801561158757602002820191906000526020600020906000905b825461010083900a900460ff168152602060019283018181049485019490930390920291018084116115585790505b50505050508360ff1661376f90919063ffffffff16565b1590505b92915050565b6000828152600860205260409020600701548290421061160a5760405162461bcd60e51b815260206004820152601060248201527f4d4f4c4543554c455f4558504952454400000000000000000000000000000000604482015260640161097c565b6000818152600860205260408082206002015460015491516302571be360e01b8152600481018290529092916001600160a01b0316906302571be390602401602060405180830381865afa158015611666573d6000803e3d6000fd5b505050506040513d601f19601f8201168201806040525081019061168a9190613d47565b90506001600160a01b0381163314806116c657506001600160a01b038116600090815260096020908152604080832033845290915290205460ff165b806116ea57506000838152600860205260409020600601546001600160a01b031633145b6117365760405162461bcd60e51b815260206004820152601760248201527f4e4f545f4f574e45525f4f525f434f4e54524f4c4c4552000000000000000000604482015260640161097c565b6117408585613703565b61178c5760405162461bcd60e51b815260206004820152600c60248201527f414e494f4e5f4558495354530000000000000000000000000000000000000000604482015260640161097c565b6000858152600860209081526040808320600301805460018101825590845291909220018590555185907f600ffddd29393ca43c0a11fa6b0b7096631364178cb42f9d546c0a2cd22525ee90610dfb9087815260200190565b6003546040516000916001600160a01b03169047908381818185875af1925050503d8060008114611832576040519150601f19603f3d011682016040523d82523d6000602084013e611837565b606091505b50509050806118885760405162461bcd60e51b815260206004820152601360248201527f4554485f5452414e534645525f4641494c454400000000000000000000000000604482015260640161097c565b50565b6000828152600860205260408082206002015460015491516302571be360e01b815260048101829052859391926001600160a01b0316906302571be390602401602060405180830381865afa1580156118e8573d6000803e3d6000fd5b505050506040513d601f19601f8201168201806040525081019061190c9190613d47565b6006549091506001600160a01b031633148061193057506001600160a01b03811633145b8061195e57506001600160a01b038116600090815260096020908152604080832033845290915290205460ff165b8061198257506000838152600860205260409020600601546001600160a01b031633145b6119ce5760405162461bcd60e51b815260206004820152600e60248201527f4e4f545f415554484f5249534544000000000000000000000000000000000000604482015260640161097c565b60005b8451811015611abf576000868152600860209081526040918290206003018054835181840281018401909452808452611a619392830182828015611a3457602002820191906000526020600020905b815481526020019060010190808311611a20575b5050505050868381518110611a4b57611a4b613cb1565b60200260200101516137c890919063ffffffff16565b611aad5760086000878152602001908152602001600020600301858281518110611a8d57611a8d613cb1565b602090810291909101810151825460018101845560009384529190922001555b80611ab781613d0f565b9150506119d1565b50847f580d99949e5d5a02f35dc5b91b800697d53dccb814e200f24f97b4bfbeb8667c85604051610dfb919061397c565b60008281526008602052604090206007015482904210611b525760405162461bcd60e51b815260206004820152601060248201527f4d4f4c4543554c455f4558504952454400000000000000000000000000000000604482015260640161097c565b6000818152600860205260408082206002015460015491516302571be360e01b8152600481018290529092916001600160a01b0316906302571be390602401602060405180830381865afa158015611bae573d6000803e3d6000fd5b505050506040513d601f19601f82011682018060405250810190611bd29190613d47565b90506001600160a01b038116331480611c0e57506001600160a01b038116600090815260096020908152604080832033845290915290205460ff165b611c5a5760405162461bcd60e51b815260206004820152600960248201527f4e4f545f4f574e45520000000000000000000000000000000000000000000000604482015260640161097c565b6001546040516302571be360e01b8152600481018690526000916001600160a01b0316906302571be390602401602060405180830381865afa158015611ca4573d6000803e3d6000fd5b505050506040513d601f19601f82011682018060405250810190611cc89190613d47565b6001600160a01b031603611d1e5760405162461bcd60e51b815260206004820152600b60248201527f43414e4e4f545f4255524e000000000000000000000000000000000000000000604482015260640161097c565b600085815260086020526040908190206002018590555185907f4810581adf2c16a86a375dbb1ed89b0b0f7e64d48d24e1948b3dfe6581e4d79590610dfb9087815260200190565b60008381526008602052604090206007015483904210611dc85760405162461bcd60e51b815260206004820152601060248201527f4d4f4c4543554c455f4558504952454400000000000000000000000000000000604482015260640161097c565b6000818152600860205260408082206002015460015491516302571be360e01b8152600481018290529092916001600160a01b0316906302571be390602401602060405180830381865afa158015611e24573d6000803e3d6000fd5b505050506040513d601f19601f82011682018060405250810190611e489190613d47565b90506001600160a01b038116331480611e8457506001600160a01b038116600090815260096020908152604080832033845290915290205460ff165b80611ea857506000838152600860205260409020600601546001600160a01b031633145b611ef45760405162461bcd60e51b815260206004820152601760248201527f4e4f545f4f574e45525f4f525f434f4e54524f4c4c4552000000000000000000604482015260640161097c565b600086815260086020908152604080832060ff881684526001019091529020546001600160a01b03808716911603611f6e5760405162461bcd60e51b815260206004820152600b60248201527f52554c455f455849535453000000000000000000000000000000000000000000604482015260640161097c565b600086815260086020908152604080832060ff8816808552600190910183529281902080547fffffffffffffffffffffffff0000000000000000000000000000000000000000166001600160a01b038a1690811790915581519081529182019290925287917fe43a78ddf6157361fe34d04905786138f88d3eda20b1f7dc0e2c619f9267310091015b60405180910390a2505050505050565b600083815260086020526040902060070154839042106120695760405162461bcd60e51b815260206004820152601060248201527f4d4f4c4543554c455f4558504952454400000000000000000000000000000000604482015260640161097c565b6000818152600860205260408082206002015460015491516302571be360e01b8152600481018290529092916001600160a01b0316906302571be390602401602060405180830381865afa1580156120c5573d6000803e3d6000fd5b505050506040513d601f19601f820116820180604052508101906120e99190613d47565b90506001600160a01b03811633148061212557506001600160a01b038116600090815260096020908152604080832033845290915290205460ff165b8061214957506000838152600860205260409020600601546001600160a01b031633145b6121955760405162461bcd60e51b815260206004820152601760248201527f4e4f545f4f574e45525f4f525f434f4e54524f4c4c4552000000000000000000604482015260640161097c565b61219f8685611514565b6121eb5760405162461bcd60e51b815260206004820152600b60248201527f484f4f4b5f455849535453000000000000000000000000000000000000000000604482015260640161097c565b600086815260086020908152604080832080546001808201835582865284862085830401805460ff8c8116601f9095166101000a85810291021990911617905581865290910183529281902080546001600160a01b038a167fffffffffffffffffffffffff0000000000000000000000000000000000000000909116811790915581519081529182019290925287917fc733a2bc621cc97eef6ed4f708f126e72e6acb76c0a1c0461c9dd31f7b9870659101611ff7565b6003546001600160a01b031633146122fc5760405162461bcd60e51b815260206004820152600760248201527f4e4f545f44455600000000000000000000000000000000000000000000000000604482015260640161097c565b600354604080516001600160a01b03928316815291831660208301527fdec101f106d4fc7c85791843e64b198248c822298e3ed7046231d33f7783d816910160405180910390a1600380547fffffffffffffffffffffffff0000000000000000000000000000000000000000166001600160a01b0392909216919091179055565b600082815260086020526040902060070154829042106123df5760405162461bcd60e51b815260206004820152601060248201527f4d4f4c4543554c455f4558504952454400000000000000000000000000000000604482015260640161097c565b6000818152600860205260408082206002015460015491516302571be360e01b8152600481018290529092916001600160a01b0316906302571be390602401602060405180830381865afa15801561243b573d6000803e3d6000fd5b505050506040513d601f19601f8201168201806040525081019061245f9190613d47565b90506001600160a01b03811633148061249b57506001600160a01b038116600090815260096020908152604080832033845290915290205460ff165b806124bf57506000838152600860205260409020600601546001600160a01b031633145b61250b5760405162461bcd60e51b815260206004820152601760248201527f4e4f545f4f574e45525f4f525f434f4e54524f4c4c4552000000000000000000604482015260640161097c565b60008581526008602090815260408083206003018054825181850281018501909352808352919290919083018282801561256457602002820191906000526020600020905b815481526020019060010190808311612550575b5050505050905061257e81866137c890919063ffffffff16565b1561260457600061258f8683613811565b6000888152600860205260409020600301805491925090829081106125b6576125b6613cb1565b9060005260206000200160009055867f5c379d054844760656a56e062f50208b458cfa0c4427574f5a2828d19602b4e9876040516125f691815260200190565b60405180910390a250612636565b6040517f62316f6700000000000000000000000000000000000000000000000000000000815260040160405180910390fd5b505050505050565b3360008181526009602090815260408083206001600160a01b0387168085529083529281902080547fffffffffffffffffffffffffffffffffffffffffffffffffffffffffffffff001686151590811790915590519081529192917f17307eab39ab6107e8899845ad3d59bd9653f200f220920489ca2b5937696c31910160405180910390a35050565b6001546040516302571be360e01b81526004810184905260009182916001600160a01b03909116906302571be390602401602060405180830381865afa158015612716573d6000803e3d6000fd5b505050506040513d601f19601f8201168201806040525081019061273a9190613d47565b6001600160a01b0390811660009081526009602090815260408083209387168352929052205460ff1691505092915050565b6003546001600160a01b031633146127c65760405162461bcd60e51b815260206004820152600760248201527f4e4f545f44455600000000000000000000000000000000000000000000000000604482015260640161097c565b600080546001600160a01b038085167fffffffffffffffffffffffff000000000000000000000000000000000000000092831681179093556002805491851691909216179055604080517f642a8ed6000000000000000000000000000000000000000000000000000000008152905163642a8ed6916004808201926080929091908290030181865afa158015612860573d6000803e3d6000fd5b505050506040513d601f19601f820116820180604052508101906128849190613d64565b600260200201516004908155600254604080517fbd9a548b00000000000000000000000000000000000000000000000000000000815290516001600160a01b039092169263bd9a548b9282820192608092908290030181865afa1580156128ef573d6000803e3d6000fd5b505050506040513d601f19601f820116820180604052508101906129139190613d64565b60409081015160055560005481517f4d3f733400000000000000000000000000000000000000000000000000000000815291516001600160a01b0390911691634d3f73349160048083019260809291908290030181865afa15801561297c573d6000803e3d6000fd5b505050506040513d601f19601f820116820180604052508101906129a09190613dc4565b60026020020151600680547fffffffffffffffffffffffff0000000000000000000000000000000000000000166001600160a01b039092169190911790555050565b60008281526008602052604090206007015482904210612a445760405162461bcd60e51b815260206004820152601060248201527f4d4f4c4543554c455f4558504952454400000000000000000000000000000000604482015260640161097c565b6000818152600860205260408082206002015460015491516302571be360e01b8152600481018290529092916001600160a01b0316906302571be390602401602060405180830381865afa158015612aa0573d6000803e3d6000fd5b505050506040513d601f19601f82011682018060405250810190612ac49190613d47565b90506001600160a01b038116331480612b0057506001600160a01b038116600090815260096020908152604080832033845290915290205460ff165b80612b2457506000838152600860205260409020600601546001600160a01b031633145b612b705760405162461bcd60e51b815260206004820152601760248201527f4e4f545f4f574e45525f4f525f434f4e54524f4c4c4552000000000000000000604482015260640161097c565b600085815260086020908152604080832080548251818502810185019093528083529192909190830182828015612be457602002820191906000526020600020906000905b825461010083900a900460ff16815260206001928301818104948501949093039092029101808411612bb55790505b50505050509050612c01818660ff1661376f90919063ffffffff16565b15612cda576000612c1560ff871683613857565b600088815260086020908152604080832060ff8b16808552600190910183529281902080547fffffffffffffffffffffffff00000000000000000000000000000000000000001690555191825291925088917fbf47c0c608c230f7dffbcf65f8cdc76f5f920e4750eea1dcd09138a7359226ac910160405180910390a26000878152600860205260409020805482908110612cb257612cb2613cb1565b90600052602060002090602091828204019190066101000a81549060ff021916905550612636565b6040517fe8dd1d3e00000000000000000000000000000000000000000000000000000000815260040160405180910390fd5b60008181526008602052604081206007015482904210612d6e5760405162461bcd60e51b815260206004820152601060248201527f4d4f4c4543554c455f4558504952454400000000000000000000000000000000604482015260640161097c565b505060009081526008602052604090206004015490565b6000828152600860205260408082206002015460015491516302571be360e01b815260048101829052859391926001600160a01b0316906302571be390602401602060405180830381865afa158015612de2573d6000803e3d6000fd5b505050506040513d601f19601f82011682018060405250810190612e069190613d47565b6006549091506001600160a01b0316331480612e2a57506001600160a01b03811633145b80612e5857506001600160a01b038116600090815260096020908152604080832033845290915290205460ff165b80612e7c57506000838152600860205260409020600601546001600160a01b031633145b612ec85760405162461bcd60e51b815260206004820152600e60248201527f4e4f545f415554484f5249534544000000000000000000000000000000000000604482015260640161097c565b60008581526008602052604090819020600601805486151574010000000000000000000000000000000000000000027fffffffffffffffffffffff00ffffffffffffffffffffffffffffffffffffffff9091161790555185907fe6ccdb52b4954ab2c3e293f1dbfe593e6c5630962a1944bfcf20c5563eeb846290610dfb90871515815260200190565b6000828152600860205260408082206002015460015491516302571be360e01b815260048101829052859391926001600160a01b0316906302571be390602401602060405180830381865afa158015612faf573d6000803e3d6000fd5b505050506040513d601f19601f82011682018060405250810190612fd39190613d47565b6006549091506001600160a01b0316331480612ff757506001600160a01b03811633145b8061302557506001600160a01b038116600090815260096020908152604080832033845290915290205460ff165b8061304957506000838152600860205260409020600601546001600160a01b031633145b6130955760405162461bcd60e51b815260206004820152600e60248201527f4e4f545f415554484f5249534544000000000000000000000000000000000000604482015260640161097c565b60008581526008602090815260409182902060060180547fffffffffffffffffffffffff0000000000000000000000000000000000000000166001600160a01b038816908117909155915191825286917fe5108446a6097aab57fd36f346a515a78fddefa87d81662d44e0d7a463f920959101610dfb565b6000828152600860205260408082206002015460015491516302571be360e01b815260048101829052859391926001600160a01b0316906302571be390602401602060405180830381865afa15801561316a573d6000803e3d6000fd5b505050506040513d601f19601f8201168201806040525081019061318e9190613d47565b6006549091506001600160a01b03163314806131b257506001600160a01b03811633145b806131e057506001600160a01b038116600090815260096020908152604080832033845290915290205460ff165b8061320457506000838152600860205260409020600601546001600160a01b031633145b6132505760405162461bcd60e51b815260206004820152600e60248201527f4e4f545f415554484f5249534544000000000000000000000000000000000000604482015260640161097c565b60008581526008602090815260409182902060050180547fffffffffffffffffffffffff0000000000000000000000000000000000000000166001600160a01b038816908117909155915191825286917fcb71326aeaad88869e8be8be2893e1119f7617ce4ea2411af127e218909be1f79101610dfb565b6000818152600860205260408120600701548290421061332a5760405162461bcd60e51b815260206004820152601060248201527f4d4f4c4543554c455f4558504952454400000000000000000000000000000000604482015260640161097c565b50506000908152600860205260409020600601546001600160a01b031690565b600082815260086020526040902060070154829042106133ac5760405162461bcd60e51b815260206004820152601060248201527f4d4f4c4543554c455f4558504952454400000000000000000000000000000000604482015260640161097c565b6000818152600860205260408082206002015460015491516302571be360e01b8152600481018290529092916001600160a01b0316906302571be390602401602060405180830381865afa158015613408573d6000803e3d6000fd5b505050506040513d601f19601f8201168201806040525081019061342c9190613d47565b90506001600160a01b03811633148061346857506001600160a01b038116600090815260096020908152604080832033845290915290205460ff165b8061348c57506000838152600860205260409020600601546001600160a01b031633145b6134d85760405162461bcd60e51b815260206004820152601760248201527f4e4f545f4f574e45525f4f525f434f4e54524f4c4c4552000000000000000000604482015260640161097c565b60008581526008602052604090206007015484116135385760405162461bcd60e51b815260206004820152600a60248201527f4241445f45585049525900000000000000000000000000000000000000000000604482015260640161097c565b6000858152600860205260408120600701546135549086613e22565b9050600554816135649190613e35565b3410156135b35760405162461bcd60e51b815260206004820152601260248201527f494e53554646494349454e545f45544845520000000000000000000000000000604482015260640161097c565b600086815260086020526040908190206007018690555186907fa620b72378ee464490805a96e25b53e5c0076f0ce2d28f9691ae255a595b3bf390611ff79088815260200190565b6000818152600860205260408120600701548290421061365d5760405162461bcd60e51b815260206004820152601060248201527f4d4f4c4543554c455f4558504952454400000000000000000000000000000000604482015260640161097c565b6000838152600860205260408082206002015460015491516302571be360e01b8152600481018290529092916001600160a01b0316906302571be390602401602060405180830381865afa1580156136b9573d6000803e3d6000fd5b505050506040513d601f19601f820116820180604052508101906136dd9190613d47565b9050306001600160a01b038216036136fb57600454935050506109a3565b509392505050565b6000828152600860209081526040808320600301805482518185028101850190935280835261159e9383018282801561375b57602002820191906000526020600020905b815481526020019060010190808311613747575b5050505050836137c890919063ffffffff16565b6000805b82518110156137be578360ff1683828151811061379257613792613cb1565b602002602001015160ff16036137ac5760019150506115a2565b806137b681613d0f565b915050613773565b5060009392505050565b6000805b82518110156137be57838382815181106137e8576137e8613cb1565b6020026020010151036137ff5760019150506115a2565b8061380981613d0f565b9150506137cc565b6000805b82518110156137be578383828151811061383157613831613cb1565b6020026020010151036138455790506115a2565b8061384f81613d0f565b915050613815565b6000805b82518110156137be578360ff1683828151811061387a5761387a613cb1565b602002602001015160ff16036138915790506115a2565b8061389b81613d0f565b91505061385b565b50805460008255601f01602090049060005260206000209081019061188891905b808211156138d857600081556001016138c4565b5090565b6000602082840312156138ee57600080fd5b5035919050565b604080825283519082018190526000906020906060840190828701845b8281101561393157815160ff1684529284019290840190600101613912565b5050508381038285015284518082528583019183019060005b8181101561396f5783516001600160a01b03168352928401929184019160010161394a565b5090979650505050505050565b6020808252825182820181905260009190848201906040850190845b818110156139b457835183529284019291840191600101613998565b50909695505050505050565b6001600160a01b038116811461188857600080fd5b600080604083850312156139e857600080fd5b8235915060208301356139fa816139c0565b809150509250929050565b60008060408385031215613a1857600080fd5b50508035926020909101359150565b803560ff81168114613a3857600080fd5b919050565b60008060408385031215613a5057600080fd5b82359150613a6060208401613a27565b90509250929050565b7f4e487b7100000000000000000000000000000000000000000000000000000000600052604160045260246000fd5b6040516080810167ffffffffffffffff81118282101715613abb57613abb613a69565b60405290565b604051601f82017fffffffffffffffffffffffffffffffffffffffffffffffffffffffffffffffe016810167ffffffffffffffff81118282101715613b0857613b08613a69565b604052919050565b60008060408385031215613b2357600080fd5b8235915060208084013567ffffffffffffffff80821115613b4357600080fd5b818601915086601f830112613b5757600080fd5b813581811115613b6957613b69613a69565b8060051b9150613b7a848301613ac1565b8181529183018401918481019089841115613b9457600080fd5b938501935b83851015613bb257843582529385019390850190613b99565b8096505050505050509250929050565b600080600060608486031215613bd757600080fd5b833592506020840135613be9816139c0565b9150613bf760408501613a27565b90509250925092565b600060208284031215613c1257600080fd5b8135613c1d816139c0565b9392505050565b80358015158114613a3857600080fd5b60008060408385031215613c4757600080fd5b8235613c52816139c0565b9150613a6060208401613c24565b60008060408385031215613c7357600080fd5b8235613c7e816139c0565b915060208301356139fa816139c0565b60008060408385031215613ca157600080fd5b82359150613a6060208401613c24565b7f4e487b7100000000000000000000000000000000000000000000000000000000600052603260045260246000fd5b7f4e487b7100000000000000000000000000000000000000000000000000000000600052601160045260246000fd5b60007fffffffffffffffffffffffffffffffffffffffffffffffffffffffffffffffff8203613d4057613d40613ce0565b5060010190565b600060208284031215613d5957600080fd5b8151613c1d816139c0565b600060808284031215613d7657600080fd5b82601f830112613d8557600080fd5b613d8d613a98565b806080840185811115613d9f57600080fd5b845b81811015613db9578051845260209384019301613da1565b509095945050505050565b600060808284031215613dd657600080fd5b82601f830112613de557600080fd5b613ded613a98565b806080840185811115613dff57600080fd5b845b81811015613db9578051613e14816139c0565b845260209384019301613e01565b818103818111156115a2576115a2613ce0565b6000817fffffffffffffffffffffffffffffffffffffffffffffffffffffffffffffffff0483118215151615613e6d57613e6d613ce0565b50029056fea264697066735822122094d1f1a7c03ba06a9e9147fa31187daa5fd29fb41a60690ad249ddb927b7dfb064736f6c63430008100033",
    "linkReferences": {}
  },
  "methodIdentifiers": {
    "Dev()": "01e51ae8",
    "HELIX2()": "b782426e",
    "Molecules(bytes32)": "af6328f6",
    "NAMES()": "05e84aa0",
    "PRICES()": "1eabcd34",
    "Registrar()": "b9f37c86",
    "active()": "02fb0c5e",
    "addAnion(bytes32,bytes32)": "6ff24830",
    "alias_(bytes32)": "c5bc4c0b",
    "anion(bytes32)": "0e68b116",
    "basePrice()": "c7876ea4",
    "cation(bytes32)": "f61ccd53",
    "changeDev(address)": "88a8c95c",
    "controller(bytes32)": "dbd4e021",
    "covalence(bytes32)": "34026859",
    "expiry(bytes32)": "d2ec5fca",
    "hook(bytes32,address,uint8)": "849a799c",
    "hooksWithRules(bytes32)": "0aac6625",
    "isApprovedForAll(bytes32,address)": "b0698628",
    "isNotDuplicateAnion(bytes32,bytes32)": "f8c91244",
    "isNotDuplicateHook(bytes32,uint8)": "4d505584",
    "popAnion(bytes32,bytes32)": "8dcad139",
    "recordExists(bytes32)": "f79fe538",
    "register(bytes32,bytes32)": "2f926732",
    "rehook(bytes32,address,uint8)": "83669726",
    "renew(bytes32,uint256)": "f544d82f",
    "resolver(bytes32)": "0178b8bf",
    "roothash()": "251c9422",
    "setAlias(bytes32,bytes32)": "1f06e91c",
    "setAnions(bytes32,bytes32[])": "741b4cd0",
    "setApprovalForAll(address,bool)": "a22cb465",
    "setCation(bytes32,bytes32)": "8146970a",
    "setConfig(address,address)": "b602024b",
    "setController(bytes32,address)": "d3156905",
    "setCovalence(bytes32,bool)": "d07699aa",
    "setExpiry(bytes32,uint256)": "39de6469",
    "setRecord(bytes32,address)": "d9b76ed4",
    "setResolver(bytes32,address)": "1896f70a",
    "theEnd()": "22b68deb",
    "toggleActive()": "29c68dc1",
    "unhook(bytes32,uint8)": "b612e9b9",
    "unhookAll(bytes32)": "21ec2b5b",
    "withdrawEther()": "7362377b"
  },
  "id": 26
}