{
  "abi": [
    {
      "inputs": [
        {
          "internalType": "address",
          "name": "_registry",
          "type": "address"
        },
        {
          "internalType": "address",
          "name": "_helix2",
          "type": "address"
        }
      ],
      "stateMutability": "nonpayable",
      "type": "constructor"
    },
    {
      "inputs": [
        {
          "internalType": "bytes32",
          "name": "moleculehash",
          "type": "bytes32"
        },
        {
          "internalType": "bytes32",
          "name": "anion",
          "type": "bytes32"
        }
      ],
      "name": "AnionNotFound",
      "type": "error"
    },
    {
      "anonymous": false,
      "inputs": [
        {
          "indexed": true,
          "internalType": "address",
          "name": "cation",
          "type": "address"
        },
        {
          "indexed": true,
          "internalType": "address",
          "name": "operator",
          "type": "address"
        },
        {
          "indexed": false,
          "internalType": "bool",
          "name": "approved",
          "type": "bool"
        }
      ],
      "name": "ApprovalForAll",
      "type": "event"
    },
    {
      "anonymous": false,
      "inputs": [
        {
          "indexed": true,
          "internalType": "bytes32",
          "name": "molyhash",
          "type": "bytes32"
        },
        {
          "indexed": false,
          "internalType": "address",
          "name": "config",
          "type": "address"
        },
        {
          "indexed": false,
          "internalType": "uint8",
          "name": "rule",
          "type": "uint8"
        }
      ],
      "name": "Hooked",
      "type": "event"
    },
    {
      "anonymous": false,
      "inputs": [
        {
          "indexed": true,
          "internalType": "bytes32",
          "name": "molyhash",
          "type": "bytes32"
        },
        {
          "indexed": false,
          "internalType": "bytes32",
          "name": "_alias",
          "type": "bytes32"
        }
      ],
      "name": "NewAlias",
      "type": "event"
    },
    {
      "anonymous": false,
      "inputs": [
        {
          "indexed": true,
          "internalType": "bytes32",
          "name": "molyhash",
          "type": "bytes32"
        },
        {
          "indexed": false,
          "internalType": "bytes32",
          "name": "anion",
          "type": "bytes32"
        }
      ],
      "name": "NewAnion",
      "type": "event"
    },
    {
      "anonymous": false,
      "inputs": [
        {
          "indexed": true,
          "internalType": "bytes32",
          "name": "molyhash",
          "type": "bytes32"
        },
        {
          "indexed": false,
          "internalType": "bytes32[]",
          "name": "anion",
          "type": "bytes32[]"
        }
      ],
      "name": "NewAnions",
      "type": "event"
    },
    {
      "anonymous": false,
      "inputs": [
        {
          "indexed": true,
          "internalType": "bytes32",
          "name": "molyhash",
          "type": "bytes32"
        },
        {
          "indexed": false,
          "internalType": "bytes32",
          "name": "cation",
          "type": "bytes32"
        }
      ],
      "name": "NewCation",
      "type": "event"
    },
    {
      "anonymous": false,
      "inputs": [
        {
          "indexed": true,
          "internalType": "bytes32",
          "name": "molyhash",
          "type": "bytes32"
        },
        {
          "indexed": false,
          "internalType": "address",
          "name": "controller",
          "type": "address"
        }
      ],
      "name": "NewController",
      "type": "event"
    },
    {
      "anonymous": false,
      "inputs": [
        {
          "indexed": true,
          "internalType": "bytes32",
          "name": "molyhash",
          "type": "bytes32"
        },
        {
          "indexed": false,
          "internalType": "bool",
          "name": "covalence",
          "type": "bool"
        }
      ],
      "name": "NewCovalence",
      "type": "event"
    },
    {
      "anonymous": false,
      "inputs": [
        {
          "indexed": false,
          "internalType": "address",
          "name": "Dev",
          "type": "address"
        },
        {
          "indexed": false,
          "internalType": "address",
          "name": "newDev",
          "type": "address"
        }
      ],
      "name": "NewDev",
      "type": "event"
    },
    {
      "anonymous": false,
      "inputs": [
        {
          "indexed": true,
          "internalType": "bytes32",
          "name": "molyhash",
          "type": "bytes32"
        },
        {
          "indexed": false,
          "internalType": "uint256",
          "name": "expiry",
          "type": "uint256"
        }
      ],
      "name": "NewExpiry",
      "type": "event"
    },
    {
      "anonymous": false,
      "inputs": [
        {
          "indexed": true,
          "internalType": "bytes32",
          "name": "molyhash",
          "type": "bytes32"
        },
        {
          "indexed": false,
          "internalType": "bytes32",
          "name": "cation",
          "type": "bytes32"
        }
      ],
      "name": "NewMolecule",
      "type": "event"
    },
    {
      "anonymous": false,
      "inputs": [
        {
          "indexed": true,
          "internalType": "bytes32",
          "name": "molyhash",
          "type": "bytes32"
        },
        {
          "indexed": false,
          "internalType": "address",
          "name": "resolver",
          "type": "address"
        }
      ],
      "name": "NewRecord",
      "type": "event"
    },
    {
      "anonymous": false,
      "inputs": [
        {
          "indexed": true,
          "internalType": "bytes32",
          "name": "molyhash",
          "type": "bytes32"
        },
        {
          "indexed": false,
          "internalType": "address",
          "name": "resolver",
          "type": "address"
        }
      ],
      "name": "NewResolver",
      "type": "event"
    },
    {
      "anonymous": false,
      "inputs": [
        {
          "indexed": true,
          "internalType": "bytes32",
          "name": "molyhash",
          "type": "bytes32"
        },
        {
          "indexed": false,
          "internalType": "bytes32",
          "name": "anion",
          "type": "bytes32"
        }
      ],
      "name": "PopAnion",
      "type": "event"
    },
    {
      "anonymous": false,
      "inputs": [
        {
          "indexed": true,
          "internalType": "bytes32",
          "name": "molyhash",
          "type": "bytes32"
        },
        {
          "indexed": false,
          "internalType": "address",
          "name": "config",
          "type": "address"
        },
        {
          "indexed": false,
          "internalType": "uint8",
          "name": "rule",
          "type": "uint8"
        }
      ],
      "name": "Rehooked",
      "type": "event"
    },
    {
      "anonymous": false,
      "inputs": [
        {
          "indexed": true,
          "internalType": "bytes32",
          "name": "molyhash",
          "type": "bytes32"
        },
        {
          "indexed": false,
          "internalType": "address",
          "name": "config",
          "type": "address"
        }
      ],
      "name": "Unhooked",
      "type": "event"
    },
    {
      "anonymous": false,
      "inputs": [
        {
          "indexed": true,
          "internalType": "bytes32",
          "name": "molyhash",
          "type": "bytes32"
        }
      ],
      "name": "UnhookedAll",
      "type": "event"
    },
    {
      "inputs": [],
      "name": "Dev",
      "outputs": [
        {
          "internalType": "address",
          "name": "",
          "type": "address"
        }
      ],
      "stateMutability": "view",
      "type": "function"
    },
    {
      "inputs": [],
      "name": "HELIX2",
      "outputs": [
        {
          "internalType": "contract iHELIX2",
          "name": "",
          "type": "address"
        }
      ],
      "stateMutability": "view",
      "type": "function"
    },
    {
      "inputs": [
        {
          "internalType": "bytes32",
          "name": "",
          "type": "bytes32"
        }
      ],
      "name": "Molecules",
      "outputs": [
        {
          "internalType": "bytes32",
          "name": "_cation",
          "type": "bytes32"
        },
        {
          "internalType": "bytes32",
          "name": "_alias",
          "type": "bytes32"
        },
        {
          "internalType": "address",
          "name": "_resolver",
          "type": "address"
        },
        {
          "internalType": "address",
          "name": "_controller",
          "type": "address"
        },
        {
          "internalType": "bool",
          "name": "_covalence",
          "type": "bool"
        },
        {
          "internalType": "uint256",
          "name": "_expiry",
          "type": "uint256"
        }
      ],
      "stateMutability": "view",
      "type": "function"
    },
    {
      "inputs": [],
      "name": "NAMES",
      "outputs": [
        {
          "internalType": "contract iNAME",
          "name": "",
          "type": "address"
        }
      ],
      "stateMutability": "view",
      "type": "function"
    },
    {
      "inputs": [
        {
          "internalType": "bytes32",
          "name": "molyhash",
          "type": "bytes32"
        },
        {
          "internalType": "bytes32",
          "name": "_anion",
          "type": "bytes32"
        }
      ],
      "name": "addAnion",
      "outputs": [],
      "stateMutability": "nonpayable",
      "type": "function"
    },
    {
      "inputs": [
        {
          "internalType": "bytes32",
          "name": "molyhash",
          "type": "bytes32"
        }
      ],
      "name": "anion",
      "outputs": [
        {
          "internalType": "bytes32[]",
          "name": "",
          "type": "bytes32[]"
        }
      ],
      "stateMutability": "view",
      "type": "function"
    },
    {
      "inputs": [],
      "name": "basePrice",
      "outputs": [
        {
          "internalType": "uint256",
          "name": "",
          "type": "uint256"
        }
      ],
      "stateMutability": "view",
      "type": "function"
    },
    {
      "inputs": [
        {
          "internalType": "bytes32",
          "name": "molyhash",
          "type": "bytes32"
        }
      ],
      "name": "cation",
      "outputs": [
        {
          "internalType": "bytes32",
          "name": "",
          "type": "bytes32"
        }
      ],
      "stateMutability": "view",
      "type": "function"
    },
    {
      "inputs": [
        {
          "internalType": "address",
          "name": "newDev",
          "type": "address"
        }
      ],
      "name": "changeDev",
      "outputs": [],
      "stateMutability": "nonpayable",
      "type": "function"
    },
    {
      "inputs": [
        {
          "internalType": "bytes32",
          "name": "molyhash",
          "type": "bytes32"
        }
      ],
      "name": "controller",
      "outputs": [
        {
          "internalType": "address",
          "name": "",
          "type": "address"
        }
      ],
      "stateMutability": "view",
      "type": "function"
    },
    {
      "inputs": [
        {
          "internalType": "bytes32",
          "name": "molyhash",
          "type": "bytes32"
        }
      ],
      "name": "covalence",
      "outputs": [
        {
          "internalType": "bool",
          "name": "",
          "type": "bool"
        }
      ],
      "stateMutability": "view",
      "type": "function"
    },
    {
      "inputs": [
        {
          "internalType": "bytes32",
          "name": "molyhash",
          "type": "bytes32"
        }
      ],
      "name": "expiry",
      "outputs": [
        {
          "internalType": "uint256",
          "name": "",
          "type": "uint256"
        }
      ],
      "stateMutability": "view",
      "type": "function"
    },
    {
      "inputs": [
        {
          "internalType": "bytes32",
          "name": "molyhash",
          "type": "bytes32"
        },
        {
          "internalType": "uint8",
          "name": "rule",
          "type": "uint8"
        },
        {
          "internalType": "address",
          "name": "config",
          "type": "address"
        }
      ],
      "name": "hook",
      "outputs": [],
      "stateMutability": "nonpayable",
      "type": "function"
    },
    {
      "inputs": [
        {
          "internalType": "bytes32",
          "name": "molyhash",
          "type": "bytes32"
        }
      ],
      "name": "hooks",
      "outputs": [
        {
          "internalType": "address[]",
          "name": "",
          "type": "address[]"
        },
        {
          "internalType": "uint8[]",
          "name": "",
          "type": "uint8[]"
        }
      ],
      "stateMutability": "view",
      "type": "function"
    },
    {
      "inputs": [
        {
          "internalType": "bytes32",
          "name": "_cation",
          "type": "bytes32"
        },
        {
          "internalType": "address",
          "name": "operator",
          "type": "address"
        }
      ],
      "name": "isApprovedForAll",
      "outputs": [
        {
          "internalType": "bool",
          "name": "",
          "type": "bool"
        }
      ],
      "stateMutability": "view",
      "type": "function"
    },
    {
      "inputs": [
        {
          "internalType": "bytes32",
          "name": "molyhash",
          "type": "bytes32"
        },
        {
          "internalType": "bytes32",
          "name": "_anion",
          "type": "bytes32"
        }
      ],
      "name": "isNotDuplicateAnion",
      "outputs": [
        {
          "internalType": "bool",
          "name": "",
          "type": "bool"
        }
      ],
      "stateMutability": "view",
      "type": "function"
    },
    {
      "inputs": [
        {
          "internalType": "bytes32",
          "name": "molyhash",
          "type": "bytes32"
        },
        {
          "internalType": "address",
          "name": "config",
          "type": "address"
        }
      ],
      "name": "isNotDuplicateHook",
      "outputs": [
        {
          "internalType": "bool",
          "name": "",
          "type": "bool"
        }
      ],
      "stateMutability": "view",
      "type": "function"
    },
    {
      "inputs": [
        {
          "internalType": "bytes32",
          "name": "molyhash",
          "type": "bytes32"
        },
        {
          "internalType": "bytes32",
          "name": "__anion",
          "type": "bytes32"
        }
      ],
      "name": "popAnion",
      "outputs": [],
      "stateMutability": "nonpayable",
      "type": "function"
    },
    {
      "inputs": [
        {
          "internalType": "bytes32",
          "name": "molyhash",
          "type": "bytes32"
        }
      ],
      "name": "recordExists",
      "outputs": [
        {
          "internalType": "bool",
          "name": "",
          "type": "bool"
        }
      ],
      "stateMutability": "view",
      "type": "function"
    },
    {
      "inputs": [
        {
          "internalType": "bytes32",
          "name": "molyhash",
          "type": "bytes32"
        },
        {
          "internalType": "uint8",
          "name": "rule",
          "type": "uint8"
        },
        {
          "internalType": "address",
          "name": "config",
          "type": "address"
        }
      ],
      "name": "rehook",
      "outputs": [],
      "stateMutability": "nonpayable",
      "type": "function"
    },
    {
      "inputs": [
        {
          "internalType": "bytes32",
          "name": "molyhash",
          "type": "bytes32"
        }
      ],
      "name": "resolver",
      "outputs": [
        {
          "internalType": "address",
          "name": "",
          "type": "address"
        }
      ],
      "stateMutability": "view",
      "type": "function"
    },
    {
      "inputs": [],
      "name": "roothash",
      "outputs": [
        {
          "internalType": "bytes32",
          "name": "",
          "type": "bytes32"
        }
      ],
      "stateMutability": "view",
      "type": "function"
    },
    {
      "inputs": [
        {
          "internalType": "bytes32",
          "name": "molyhash",
          "type": "bytes32"
        },
        {
          "internalType": "bytes32",
          "name": "_alias",
          "type": "bytes32"
        }
      ],
      "name": "setAlias",
      "outputs": [],
      "stateMutability": "nonpayable",
      "type": "function"
    },
    {
      "inputs": [
        {
          "internalType": "bytes32",
          "name": "molyhash",
          "type": "bytes32"
        },
        {
          "internalType": "bytes32[]",
          "name": "_anion",
          "type": "bytes32[]"
        }
      ],
      "name": "setAnions",
      "outputs": [],
      "stateMutability": "nonpayable",
      "type": "function"
    },
    {
      "inputs": [
        {
          "internalType": "address",
          "name": "operator",
          "type": "address"
        },
        {
          "internalType": "bool",
          "name": "approved",
          "type": "bool"
        }
      ],
      "name": "setApprovalForAll",
      "outputs": [],
      "stateMutability": "nonpayable",
      "type": "function"
    },
    {
      "inputs": [
        {
          "internalType": "bytes32",
          "name": "molyhash",
          "type": "bytes32"
        },
        {
          "internalType": "bytes32",
          "name": "_cation",
          "type": "bytes32"
        }
      ],
      "name": "setCation",
      "outputs": [],
      "stateMutability": "nonpayable",
      "type": "function"
    },
    {
      "inputs": [
        {
          "internalType": "bytes32",
          "name": "molyhash",
          "type": "bytes32"
        },
        {
          "internalType": "address",
          "name": "_controller",
          "type": "address"
        }
      ],
      "name": "setController",
      "outputs": [],
      "stateMutability": "nonpayable",
      "type": "function"
    },
    {
      "inputs": [
        {
          "internalType": "bytes32",
          "name": "molyhash",
          "type": "bytes32"
        },
        {
          "internalType": "bool",
          "name": "_covalence",
          "type": "bool"
        }
      ],
      "name": "setCovalence",
      "outputs": [],
      "stateMutability": "nonpayable",
      "type": "function"
    },
    {
      "inputs": [
        {
          "internalType": "bytes32",
          "name": "molyhash",
          "type": "bytes32"
        },
        {
          "internalType": "uint256",
          "name": "_expiry",
          "type": "uint256"
        }
      ],
      "name": "setExpiry",
      "outputs": [],
      "stateMutability": "payable",
      "type": "function"
    },
    {
      "inputs": [
        {
          "internalType": "bytes32",
          "name": "molyhash",
          "type": "bytes32"
        },
        {
          "internalType": "address",
          "name": "_resolver",
          "type": "address"
        }
      ],
      "name": "setRecord",
      "outputs": [],
      "stateMutability": "nonpayable",
      "type": "function"
    },
    {
      "inputs": [
        {
          "internalType": "bytes32",
          "name": "molyhash",
          "type": "bytes32"
        },
        {
          "internalType": "address",
          "name": "_resolver",
          "type": "address"
        }
      ],
      "name": "setResolver",
      "outputs": [],
      "stateMutability": "nonpayable",
      "type": "function"
    },
    {
      "inputs": [],
      "name": "theEnd",
      "outputs": [
        {
          "internalType": "uint256",
          "name": "",
          "type": "uint256"
        }
      ],
      "stateMutability": "view",
      "type": "function"
    },
    {
      "inputs": [
        {
          "internalType": "bytes32",
          "name": "molyhash",
          "type": "bytes32"
        },
        {
          "internalType": "address",
          "name": "config",
          "type": "address"
        }
      ],
      "name": "unhook",
      "outputs": [],
      "stateMutability": "nonpayable",
      "type": "function"
    },
    {
      "inputs": [
        {
          "internalType": "bytes32",
          "name": "molyhash",
          "type": "bytes32"
        }
      ],
      "name": "unhookAll",
      "outputs": [],
      "stateMutability": "nonpayable",
      "type": "function"
    },
    {
      "inputs": [],
      "name": "withdrawEther",
      "outputs": [],
      "stateMutability": "payable",
      "type": "function"
    },
    {
      "inputs": [
        {
          "internalType": "address",
          "name": "token",
          "type": "address"
        }
      ],
      "name": "withdrawToken",
      "outputs": [],
      "stateMutability": "payable",
      "type": "function"
    }
  ],
  "bytecode": {
    "object": "0x60806040526703782dace9d900006005553480156200001d57600080fd5b506040516200402c3803806200402c8339810160408190526200004091620004dd565b60028054336001600160a01b0319918216179091556000805482166001600160a01b03848116918217909255600180549093169185169190911790915560408051633215476b60e11b8152905163642a8ed6916004808201926080929091908290030181865afa158015620000b9573d6000803e3d6000fd5b505050506040513d601f19601f82011682018060405250810190620000df91906200054c565b604090810151600355600054815163bd9a548b60e01b815291516001600160a01b039091169163bd9a548b9160048083019260809291908290030181865afa15801562000130573d6000803e3d6000fd5b505050506040513d601f19601f820116820180604052508101906200015691906200054c565b60400151600455620001676200016f565b5050620005b3565b7f3530788012b75d807ed21d67650284173cf1b5aa003fda795c62c56bc64b06ed805460ff19169055604080516020818101909252600080825280526006909152620001ce906000805160206200400c83398151915290600162000401565b5060007f54cdd369e4e8a8515e52ca72ec816c2101831ad1f18bf44102ed171459c9b4fa819055604080516020818101909252828152918052600690526200023a907f54cdd369e4e8a8515e52ca72ec816c2101831ad1f18bf44102ed171459c9b4fb9060016200046b565b5060007f54cdd369e4e8a8515e52ca72ec816c2101831ad1f18bf44102ed171459c9b4fc8190557f54cdd369e4e8a8515e52ca72ec816c2101831ad1f18bf44102ed171459c9b4fe80546005547f54cdd369e4e8a8515e52ca72ec816c2101831ad1f18bf44102ed171459c9b4ff556001600160a81b03191633908117600160a01b179091557f54cdd369e4e8a8515e52ca72ec816c2101831ad1f18bf44102ed171459c9b4fd80546001600160a01b03191690911790557f3530788012b75d807ed21d67650284173cf1b5aa003fda795c62c56bc64b06ed805460ff19169055604080516020818101909252828152918052600690526200034f906000805160206200400c83398151915290600162000401565b5060038054600081815260066020818152604080842060028101869055815180840190925285825294909352526200038e92919091019060016200046b565b506003805460008181526006602081905260408083206004810194909455928101805460ff60a01b1916600160a01b1790556005805485548452848420600701558454835283832090910180546001600160a01b0319908116339081179092559454835292909120018054909216179055565b82805482825590600052602060002090810192821562000459579160200282015b828111156200045957825182546001600160a01b0319166001600160a01b0390911617825560209092019160019091019062000422565b5062000467929150620004a9565b5090565b82805482825590600052602060002090810192821562000459579160200282015b82811115620004595782518255916020019190600101906200048c565b5b80821115620004675760008155600101620004aa565b80516001600160a01b0381168114620004d857600080fd5b919050565b60008060408385031215620004f157600080fd5b620004fc83620004c0565b91506200050c60208401620004c0565b90509250929050565b604051608081016001600160401b03811182821017156200054657634e487b7160e01b600052604160045260246000fd5b60405290565b6000608082840312156200055f57600080fd5b82601f8301126200056f57600080fd5b6200057962000515565b8060808401858111156200058c57600080fd5b845b81811015620005a85780518452602093840193016200058e565b509095945050505050565b613a4980620005c36000396000f3fe60806040526004361061024f5760003560e01c80637cf096c311610138578063c7876ea4116100b0578063d9b76ed41161007f578063f61ccd5311610064578063f61ccd5314610721578063f79fe53814610741578063f8c912441461077357600080fd5b8063d9b76ed4146106e1578063dbd4e0211461070157600080fd5b8063c7876ea41461065b578063d07699aa14610671578063d2ec5fca14610691578063d3156905146106c157600080fd5b80638dcad13911610107578063af6328f6116100ec578063af6328f614610566578063b06986281461061b578063b782426e1461063b57600080fd5b80638dcad13914610526578063a22cb4651461054657600080fd5b80637cf096c3146104a55780638146970a146104d357806388a8c95c146104f3578063894760691461051357600080fd5b806322b68deb116101cb57806339de64691161019a5780636ff248301161017f5780636ff248301461045d5780637362377b1461047d578063741b4cd01461048557600080fd5b806339de64691461042a57806351a764421461043d57600080fd5b806322b68deb146103b0578063241270d5146103d4578063251c9422146103f4578063340268591461040a57600080fd5b806305e84aa0116102225780631896f70a116102075780631896f70a146103505780631f06e91c1461037057806321ec2b5b1461039057600080fd5b806305e84aa0146103035780630e68b1161461032357600080fd5b8063015399e6146102545780630178b8bf1461027657806301e51ae8146102b3578063049a491c146102d3575b600080fd5b34801561026057600080fd5b5061027461026f36600461348c565b610793565b005b34801561028257600080fd5b506102966102913660046134d4565b6109ea565b6040516001600160a01b0390911681526020015b60405180910390f35b3480156102bf57600080fd5b50600254610296906001600160a01b031681565b3480156102df57600080fd5b506102f36102ee3660046134ed565b610a63565b60405190151581526020016102aa565b34801561030f57600080fd5b50600154610296906001600160a01b031681565b34801561032f57600080fd5b5061034361033e3660046134d4565b610b15565b6040516102aa919061351d565b34801561035c57600080fd5b5061027461036b3660046134ed565b610bd4565b34801561037c57600080fd5b5061027461038b366004613561565b610dd9565b34801561039c57600080fd5b506102746103ab3660046134d4565b610fa3565b3480156103bc57600080fd5b506103c660055481565b6040519081526020016102aa565b3480156103e057600080fd5b506102746103ef3660046134ed565b6112de565b34801561040057600080fd5b506103c660035481565b34801561041657600080fd5b506102f36104253660046134d4565b61171a565b610274610438366004613561565b6117a2565b34801561044957600080fd5b5061027461045836600461348c565b611a47565b34801561046957600080fd5b50610274610478366004613561565b611ca2565b610274611ed3565b34801561049157600080fd5b506102746104a03660046135b2565b611f79565b3480156104b157600080fd5b506104c56104c03660046134d4565b612241565b6040516102aa92919061369a565b3480156104df57600080fd5b506102746104ee366004613561565b6123f8565b3480156104ff57600080fd5b5061027461050e366004613721565b61259d565b610274610521366004613721565b612678565b34801561053257600080fd5b50610274610541366004613561565b61279e565b34801561055257600080fd5b50610274610561366004613753565b612b60565b34801561057257600080fd5b506105df6105813660046134d4565b600660208190526000918252604090912060028101546004820154600583015493830154600790930154919390926001600160a01b0391821692918116917401000000000000000000000000000000000000000090910460ff169086565b6040805196875260208701959095526001600160a01b0393841694860194909452911660608401521515608083015260a082015260c0016102aa565b34801561062757600080fd5b506102f36106363660046134ed565b612bcc565b34801561064757600080fd5b50600054610296906001600160a01b031681565b34801561066757600080fd5b506103c660045481565b34801561067d57600080fd5b5061027461068c366004613781565b612c70565b34801561069d57600080fd5b506103c66106ac3660046134d4565b60009081526006602052604090206007015490565b3480156106cd57600080fd5b506102746106dc3660046134ed565b612e7c565b3480156106ed57600080fd5b506102746106fc3660046134ed565b613076565b34801561070d57600080fd5b5061029661071c3660046134d4565b613270565b34801561072d57600080fd5b506103c661073c3660046134d4565b6132e6565b34801561074d57600080fd5b506102f361075c3660046134d4565b600090815260066020526040902060070154421090565b34801561077f57600080fd5b506102f361078e366004613561565b6133e1565b600083815260066020526040902060070154839042106107ed5760405162461bcd60e51b815260206004820152601060248201526f1353d31150d5531157d156141254915160821b60448201526064015b60405180910390fd5b6000818152600660205260408082206002015460015491516302571be360e01b8152600481018290529092916001600160a01b0316906302571be390602401602060405180830381865afa158015610849573d6000803e3d6000fd5b505050506040513d601f19601f8201168201806040525081019061086d91906137a6565b90506001600160a01b0381163314806108a957506001600160a01b038116600090815260076020908152604080832033845290915290205460ff165b6108f55760405162461bcd60e51b815260206004820152600960248201527f4e4f545f4f574e4552000000000000000000000000000000000000000000000060448201526064016107e4565b60008681526006602090815260408083206001600160a01b038816845260010190915290205460ff80871691160361096f5760405162461bcd60e51b815260206004820152600b60248201527f52554c455f45584953545300000000000000000000000000000000000000000060448201526064016107e4565b60008681526006602090815260408083206001600160a01b0388168085526001909101835292819020805460ff191660ff8a1690811790915581519384529183019190915287917fe43a78ddf6157361fe34d04905786138f88d3eda20b1f7dc0e2c619f9267310091015b60405180910390a2505050505050565b60008181526006602052604081206007015482904210610a3f5760405162461bcd60e51b815260206004820152601060248201526f1353d31150d5531157d156141254915160821b60448201526064016107e4565b6000838152600660205260409020600501546001600160a01b031691505b50919050565b60008281526006602052604080822090517f2306f46600000000000000000000000000000000000000000000000000000000815273__$47e4ffaaf323c41735ff299f8946896ce0$__91632306f46691610aca916001600160a01b038716916004016137c3565b602060405180830381865af4158015610ae7573d6000803e3d6000fd5b505050506040513d601f19601f82011682018060405250810190610b0b9190613823565b1590505b92915050565b60008181526006602052604090206007015460609082904210610b6d5760405162461bcd60e51b815260206004820152601060248201526f1353d31150d5531157d156141254915160821b60448201526064016107e4565b600083815260066020908152604080832060030180548251818502810185019093528083529192909190830182828015610bc657602002820191906000526020600020905b815481526020019060010190808311610bb2575b509398975050505050505050565b60008281526006602052604090206007015482904210610c295760405162461bcd60e51b815260206004820152601060248201526f1353d31150d5531157d156141254915160821b60448201526064016107e4565b6000818152600660205260408082206002015460015491516302571be360e01b8152600481018290529092916001600160a01b0316906302571be390602401602060405180830381865afa158015610c85573d6000803e3d6000fd5b505050506040513d601f19601f82011682018060405250810190610ca991906137a6565b90506001600160a01b038116331480610ce557506001600160a01b038116600090815260076020908152604080832033845290915290205460ff165b80610d0a5750600083815260066020819052604090912001546001600160a01b031633145b610d565760405162461bcd60e51b815260206004820152601760248201527f4e4f545f4f574e45525f4f525f434f4e54524f4c4c455200000000000000000060448201526064016107e4565b60008581526006602090815260409182902060050180547fffffffffffffffffffffffff0000000000000000000000000000000000000000166001600160a01b038816908117909155915191825286917f335721b01866dc23fbee8b6b2c7b1e14d6f05c28cd35a2c934239f94095602a091015b60405180910390a25050505050565b60008281526006602052604090206007015482904210610e2e5760405162461bcd60e51b815260206004820152601060248201526f1353d31150d5531157d156141254915160821b60448201526064016107e4565b6000818152600660205260408082206002015460015491516302571be360e01b8152600481018290529092916001600160a01b0316906302571be390602401602060405180830381865afa158015610e8a573d6000803e3d6000fd5b505050506040513d601f19601f82011682018060405250810190610eae91906137a6565b90506001600160a01b038116331480610eea57506001600160a01b038116600090815260076020908152604080832033845290915290205460ff165b80610f0f5750600083815260066020819052604090912001546001600160a01b031633145b610f5b5760405162461bcd60e51b815260206004820152601760248201527f4e4f545f4f574e45525f4f525f434f4e54524f4c4c455200000000000000000060448201526064016107e4565b600085815260066020526040908190206004018590555185907f4247841fd58468a6fb10925898bdd83c426da7b5519ee71597106dfdc675122990610dca9087815260200190565b60008181526006602052604090206007015481904210610ff85760405162461bcd60e51b815260206004820152601060248201526f1353d31150d5531157d156141254915160821b60448201526064016107e4565b6000818152600660205260408082206002015460015491516302571be360e01b8152600481018290529092916001600160a01b0316906302571be390602401602060405180830381865afa158015611054573d6000803e3d6000fd5b505050506040513d601f19601f8201168201806040525081019061107891906137a6565b90506001600160a01b0381163314806110b457506001600160a01b038116600090815260076020908152604080832033845290915290205460ff165b6111005760405162461bcd60e51b815260206004820152600960248201527f4e4f545f4f574e4552000000000000000000000000000000000000000000000060448201526064016107e4565b60008481526006602090815260408083208054825181850281018501909352808352919290919083018282801561116057602002820191906000526020600020905b81546001600160a01b03168152600190910190602001808311611142575b5050505050905060005b815181101561125157600060066000888152602001908152602001600020600101600084848151811061119f5761119f613840565b60200260200101516001600160a01b03166001600160a01b0316815260200190815260200160002060006101000a81548160ff021916908360ff160217905550857fc4c4b4793ac649a3a05ee26afdd6d54122cea2e3298a195a786ab7e899c21e3483838151811061121357611213613840565b602002602001015160405161123791906001600160a01b0391909116815260200190565b60405180910390a2806112498161389e565b91505061116a565b50600085815260066020526040812061126991613445565b60405185907f6b91085369552b61ca16180a741663b69fb6b3b967f7271116521d84e2291dc590600090a25050506000918252506006602090815260408220805460018101825590835291200180547fffffffffffffffffffffffff0000000000000000000000000000000000000000169055565b600082815260066020526040902060070154829042106113335760405162461bcd60e51b815260206004820152601060248201526f1353d31150d5531157d156141254915160821b60448201526064016107e4565b6000818152600660205260408082206002015460015491516302571be360e01b8152600481018290529092916001600160a01b0316906302571be390602401602060405180830381865afa15801561138f573d6000803e3d6000fd5b505050506040513d601f19601f820116820180604052508101906113b391906137a6565b90506001600160a01b0381163314806113ef57506001600160a01b038116600090815260076020908152604080832033845290915290205460ff165b61143b5760405162461bcd60e51b815260206004820152600960248201527f4e4f545f4f574e4552000000000000000000000000000000000000000000000060448201526064016107e4565b60008581526006602090815260408083208054825181850281018501909352808352919290919083018282801561149b57602002820191906000526020600020905b81546001600160a01b0316815260019091019060200180831161147d575b50506040517f2306f46600000000000000000000000000000000000000000000000000000000815293945073__$47e4ffaaf323c41735ff299f8946896ce0$__93632306f46693506114fe92506001600160a01b038a16915085906004016138d6565b602060405180830381865af415801561151b573d6000803e3d6000fd5b505050506040513d601f19601f8201168201806040525081019061153f9190613823565b156116df576040517fcd23ef4c00000000000000000000000000000000000000000000000000000000815260009073__$47e4ffaaf323c41735ff299f8946896ce0$__9063cd23ef4c906115a2906001600160a01b038a169086906004016138d6565b602060405180830381865af41580156115bf573d6000803e3d6000fd5b505050506040513d601f19601f820116820180604052508101906115e39190613923565b905080611625576040516000815287907fc4c4b4793ac649a3a05ee26afdd6d54122cea2e3298a195a786ab7e899c21e349060200160405180910390a26116d9565b60008781526006602090815260408083206001600160a01b038a168085526001909101835292819020805460ff191690555191825288917fc4c4b4793ac649a3a05ee26afdd6d54122cea2e3298a195a786ab7e899c21e34910160405180910390a260008781526006602052604090208054829081106116a7576116a7613840565b600091825260209091200180547fffffffffffffffffffffffff00000000000000000000000000000000000000001690555b50611712565b6040516000815286907fc4c4b4793ac649a3a05ee26afdd6d54122cea2e3298a195a786ab7e899c21e34906020016109da565b505050505050565b6000818152600660205260408120600701548290421061176f5760405162461bcd60e51b815260206004820152601060248201526f1353d31150d5531157d156141254915160821b60448201526064016107e4565b50506000908152600660208190526040909120015474010000000000000000000000000000000000000000900460ff1690565b600082815260066020526040902060070154829042106117f75760405162461bcd60e51b815260206004820152601060248201526f1353d31150d5531157d156141254915160821b60448201526064016107e4565b6000818152600660205260408082206002015460015491516302571be360e01b8152600481018290529092916001600160a01b0316906302571be390602401602060405180830381865afa158015611853573d6000803e3d6000fd5b505050506040513d601f19601f8201168201806040525081019061187791906137a6565b90506001600160a01b0381163314806118b357506001600160a01b038116600090815260076020908152604080832033845290915290205460ff165b806118d85750600083815260066020819052604090912001546001600160a01b031633145b6119245760405162461bcd60e51b815260206004820152601760248201527f4e4f545f4f574e45525f4f525f434f4e54524f4c4c455200000000000000000060448201526064016107e4565b60008581526006602052604090206007015484116119845760405162461bcd60e51b815260206004820152600a60248201527f4241445f4558504952590000000000000000000000000000000000000000000060448201526064016107e4565b6000858152600660205260408120600701546119a0908661393c565b9050600454816119b0919061394f565b3410156119ff5760405162461bcd60e51b815260206004820152601260248201527f494e53554646494349454e545f4554484552000000000000000000000000000060448201526064016107e4565b600086815260066020526040908190206007018690555186907fa620b72378ee464490805a96e25b53e5c0076f0ce2d28f9691ae255a595b3bf3906109da9088815260200190565b60008381526006602052604090206007015483904210611a9c5760405162461bcd60e51b815260206004820152601060248201526f1353d31150d5531157d156141254915160821b60448201526064016107e4565b6000818152600660205260408082206002015460015491516302571be360e01b8152600481018290529092916001600160a01b0316906302571be390602401602060405180830381865afa158015611af8573d6000803e3d6000fd5b505050506040513d601f19601f82011682018060405250810190611b1c91906137a6565b90506001600160a01b038116331480611b5857506001600160a01b038116600090815260076020908152604080832033845290915290205460ff165b611ba45760405162461bcd60e51b815260206004820152600960248201527f4e4f545f4f574e4552000000000000000000000000000000000000000000000060448201526064016107e4565b611bae8685610a63565b611bfa5760405162461bcd60e51b815260206004820152600b60248201527f484f4f4b5f45584953545300000000000000000000000000000000000000000060448201526064016107e4565b600086815260066020908152604080832080546001808201835582865284862090910180547fffffffffffffffffffffffff0000000000000000000000000000000000000000166001600160a01b038b169081179091558086529101835292819020805460ff191660ff8a1690811790915581519384529183019190915287917fc733a2bc621cc97eef6ed4f708f126e72e6acb76c0a1c0461c9dd31f7b98706591016109da565b60008281526006602052604090206007015482904210611cf75760405162461bcd60e51b815260206004820152601060248201526f1353d31150d5531157d156141254915160821b60448201526064016107e4565b6000818152600660205260408082206002015460015491516302571be360e01b8152600481018290529092916001600160a01b0316906302571be390602401602060405180830381865afa158015611d53573d6000803e3d6000fd5b505050506040513d601f19601f82011682018060405250810190611d7791906137a6565b90506001600160a01b038116331480611db357506001600160a01b038116600090815260076020908152604080832033845290915290205460ff165b80611dd85750600083815260066020819052604090912001546001600160a01b031633145b611e245760405162461bcd60e51b815260206004820152601760248201527f4e4f545f4f574e45525f4f525f434f4e54524f4c4c455200000000000000000060448201526064016107e4565b611e2e85856133e1565b611e7a5760405162461bcd60e51b815260206004820152600c60248201527f414e494f4e5f455849535453000000000000000000000000000000000000000060448201526064016107e4565b6000858152600660209081526040808320600301805460018101825590845291909220018590555185907f600ffddd29393ca43c0a11fa6b0b7096631364178cb42f9d546c0a2cd22525ee90610dca9087815260200190565b6002546040516000916001600160a01b03169047908381818185875af1925050503d8060008114611f20576040519150601f19603f3d011682016040523d82523d6000602084013e611f25565b606091505b5050905080611f765760405162461bcd60e51b815260206004820152601360248201527f4554485f5452414e534645525f4641494c45440000000000000000000000000060448201526064016107e4565b50565b60008281526006602052604090206007015482904210611fce5760405162461bcd60e51b815260206004820152601060248201526f1353d31150d5531157d156141254915160821b60448201526064016107e4565b6000818152600660205260408082206002015460015491516302571be360e01b8152600481018290529092916001600160a01b0316906302571be390602401602060405180830381865afa15801561202a573d6000803e3d6000fd5b505050506040513d601f19601f8201168201806040525081019061204e91906137a6565b90506001600160a01b03811633148061208a57506001600160a01b038116600090815260076020908152604080832033845290915290205460ff165b806120af5750600083815260066020819052604090912001546001600160a01b031633145b6120fb5760405162461bcd60e51b815260206004820152601760248201527f4e4f545f4f574e45525f4f525f434f4e54524f4c4c455200000000000000000060448201526064016107e4565b60005b84518110156122105784818151811061211957612119613840565b602002602001015173__$47e4ffaaf323c41735ff299f8946896ce0$__636fd8c6859091600660008a81526020019081526020016000206003016040518363ffffffff1660e01b815260040161217092919061398c565b602060405180830381865af415801561218d573d6000803e3d6000fd5b505050506040513d601f19601f820116820180604052508101906121b19190613823565b156121fe57600660008781526020019081526020016000206003018582815181106121de576121de613840565b602090810291909101810151825460018101845560009384529190922001555b806122088161389e565b9150506120fe565b50847f580d99949e5d5a02f35dc5b91b800697d53dccb814e200f24f97b4bfbeb8667c85604051610dca919061351d565b60008181526006602052604090206007015460609081908390421061229b5760405162461bcd60e51b815260206004820152601060248201526f1353d31150d5531157d156141254915160821b60448201526064016107e4565b6000848152600660209081526040808320805482518185028101850190935280835291929091908301828280156122fb57602002820191906000526020600020905b81546001600160a01b031681526001909101906020018083116122dd575b505050505090506000815167ffffffffffffffff81111561231e5761231e613583565b604051908082528060200260200182016040528015612347578160200160208202803683370190505b50905060005b82518110156123ec5760066000888152602001908152602001600020600101600084838151811061238057612380613840565b60200260200101516001600160a01b03166001600160a01b0316815260200190815260200160002060009054906101000a900460ff168282815181106123c8576123c8613840565b60ff90921660209283029190910190910152806123e48161389e565b91505061234d565b50909350915050915091565b6000828152600660205260409020600701548290421061244d5760405162461bcd60e51b815260206004820152601060248201526f1353d31150d5531157d156141254915160821b60448201526064016107e4565b6000818152600660205260408082206002015460015491516302571be360e01b8152600481018290529092916001600160a01b0316906302571be390602401602060405180830381865afa1580156124a9573d6000803e3d6000fd5b505050506040513d601f19601f820116820180604052508101906124cd91906137a6565b90506001600160a01b03811633148061250957506001600160a01b038116600090815260076020908152604080832033845290915290205460ff165b6125555760405162461bcd60e51b815260206004820152600960248201527f4e4f545f4f574e4552000000000000000000000000000000000000000000000060448201526064016107e4565b600085815260066020526040908190206002018590555185907f4810581adf2c16a86a375dbb1ed89b0b0f7e64d48d24e1948b3dfe6581e4d79590610dca9087815260200190565b6002546001600160a01b031633146125f75760405162461bcd60e51b815260206004820152600760248201527f4e4f545f4445560000000000000000000000000000000000000000000000000060448201526064016107e4565b600254604080516001600160a01b03928316815291831660208301527fdec101f106d4fc7c85791843e64b198248c822298e3ed7046231d33f7783d816910160405180910390a1600280547fffffffffffffffffffffffff0000000000000000000000000000000000000000166001600160a01b0392909216919091179055565b6002546040517f70a0823100000000000000000000000000000000000000000000000000000000815230600482018190526001600160a01b03848116936323b872dd9391169084906370a0823190602401602060405180830381865afa1580156126e6573d6000803e3d6000fd5b505050506040513d601f19601f8201168201806040525081019061270a9190613923565b6040517fffffffff0000000000000000000000000000000000000000000000000000000060e086901b1681526001600160a01b03938416600482015292909116602483015260448201526064016020604051808303816000875af1158015612776573d6000803e3d6000fd5b505050506040513d601f19601f8201168201806040525081019061279a9190613823565b5050565b600082815260066020526040902060070154829042106127f35760405162461bcd60e51b815260206004820152601060248201526f1353d31150d5531157d156141254915160821b60448201526064016107e4565b6000818152600660205260408082206002015460015491516302571be360e01b8152600481018290529092916001600160a01b0316906302571be390602401602060405180830381865afa15801561284f573d6000803e3d6000fd5b505050506040513d601f19601f8201168201806040525081019061287391906137a6565b90506001600160a01b0381163314806128af57506001600160a01b038116600090815260076020908152604080832033845290915290205460ff165b806128d45750600083815260066020819052604090912001546001600160a01b031633145b6129205760405162461bcd60e51b815260206004820152601760248201527f4e4f545f4f574e45525f4f525f434f4e54524f4c4c455200000000000000000060448201526064016107e4565b60008581526006602090815260408083206003018054825181850281018501909352808352919290919083018282801561297957602002820191906000526020600020905b815481526020019060010190808311612965575b50506040517f6fd8c68500000000000000000000000000000000000000000000000000000000815293945073__$47e4ffaaf323c41735ff299f8946896ce0$__93636fd8c68593506129d3925089915085906004016139d2565b602060405180830381865af41580156129f0573d6000803e3d6000fd5b505050506040513d601f19601f82011682018060405250810190612a149190613823565b15612b24576040517fda92b9ed00000000000000000000000000000000000000000000000000000000815260009073__$47e4ffaaf323c41735ff299f8946896ce0$__9063da92b9ed90612a6e90899086906004016139d2565b602060405180830381865af4158015612a8b573d6000803e3d6000fd5b505050506040513d601f19601f82011682018060405250810190612aaf9190613923565b600088815260066020526040902060030180549192509082908110612ad657612ad6613840565b9060005260206000200160009055867f5c379d054844760656a56e062f50208b458cfa0c4427574f5a2828d19602b4e987604051612b1691815260200190565b60405180910390a250611712565b6040517f5adb3bc700000000000000000000000000000000000000000000000000000000815260048101879052602481018690526044016107e4565b3360008181526007602090815260408083206001600160a01b03871680855290835292819020805460ff191686151590811790915590519081529192917f17307eab39ab6107e8899845ad3d59bd9653f200f220920489ca2b5937696c31910160405180910390a35050565b6001546040516302571be360e01b81526004810184905260009182916001600160a01b03909116906302571be390602401602060405180830381865afa158015612c1a573d6000803e3d6000fd5b505050506040513d601f19601f82011682018060405250810190612c3e91906137a6565b6001600160a01b0390811660009081526007602090815260408083209387168352929052205460ff1691505092915050565b60008281526006602052604090206007015482904210612cc55760405162461bcd60e51b815260206004820152601060248201526f1353d31150d5531157d156141254915160821b60448201526064016107e4565b6000818152600660205260408082206002015460015491516302571be360e01b8152600481018290529092916001600160a01b0316906302571be390602401602060405180830381865afa158015612d21573d6000803e3d6000fd5b505050506040513d601f19601f82011682018060405250810190612d4591906137a6565b90506001600160a01b038116331480612d8157506001600160a01b038116600090815260076020908152604080832033845290915290205460ff165b80612da65750600083815260066020819052604090912001546001600160a01b031633145b612df25760405162461bcd60e51b815260206004820152601760248201527f4e4f545f4f574e45525f4f525f434f4e54524f4c4c455200000000000000000060448201526064016107e4565b60008581526006602081905260409182902001805486151574010000000000000000000000000000000000000000027fffffffffffffffffffffff00ffffffffffffffffffffffffffffffffffffffff9091161790555185907fe6ccdb52b4954ab2c3e293f1dbfe593e6c5630962a1944bfcf20c5563eeb846290610dca90871515815260200190565b60008281526006602052604090206007015482904210612ed15760405162461bcd60e51b815260206004820152601060248201526f1353d31150d5531157d156141254915160821b60448201526064016107e4565b6000818152600660205260408082206002015460015491516302571be360e01b8152600481018290529092916001600160a01b0316906302571be390602401602060405180830381865afa158015612f2d573d6000803e3d6000fd5b505050506040513d601f19601f82011682018060405250810190612f5191906137a6565b90506001600160a01b038116331480612f8d57506001600160a01b038116600090815260076020908152604080832033845290915290205460ff165b80612fb25750600083815260066020819052604090912001546001600160a01b031633145b612ffe5760405162461bcd60e51b815260206004820152601760248201527f4e4f545f4f574e45525f4f525f434f4e54524f4c4c455200000000000000000060448201526064016107e4565b60008581526006602081815260409283902090910180547fffffffffffffffffffffffff0000000000000000000000000000000000000000166001600160a01b038816908117909155915191825286917fe5108446a6097aab57fd36f346a515a78fddefa87d81662d44e0d7a463f920959101610dca565b600082815260066020526040902060070154829042106130cb5760405162461bcd60e51b815260206004820152601060248201526f1353d31150d5531157d156141254915160821b60448201526064016107e4565b6000818152600660205260408082206002015460015491516302571be360e01b8152600481018290529092916001600160a01b0316906302571be390602401602060405180830381865afa158015613127573d6000803e3d6000fd5b505050506040513d601f19601f8201168201806040525081019061314b91906137a6565b90506001600160a01b03811633148061318757506001600160a01b038116600090815260076020908152604080832033845290915290205460ff165b806131ac5750600083815260066020819052604090912001546001600160a01b031633145b6131f85760405162461bcd60e51b815260206004820152601760248201527f4e4f545f4f574e45525f4f525f434f4e54524f4c4c455200000000000000000060448201526064016107e4565b60008581526006602090815260409182902060050180547fffffffffffffffffffffffff0000000000000000000000000000000000000000166001600160a01b038816908117909155915191825286917fcb71326aeaad88869e8be8be2893e1119f7617ce4ea2411af127e218909be1f79101610dca565b600081815260066020526040812060070154829042106132c55760405162461bcd60e51b815260206004820152601060248201526f1353d31150d5531157d156141254915160821b60448201526064016107e4565b5050600090815260066020819052604090912001546001600160a01b031690565b6000818152600660205260408120600701548290421061333b5760405162461bcd60e51b815260206004820152601060248201526f1353d31150d5531157d156141254915160821b60448201526064016107e4565b6000838152600660205260408082206002015460015491516302571be360e01b8152600481018290529092916001600160a01b0316906302571be390602401602060405180830381865afa158015613397573d6000803e3d6000fd5b505050506040513d601f19601f820116820180604052508101906133bb91906137a6565b9050306001600160a01b038216036133d95760035493505050610a5d565b509392505050565b60008281526006602052604080822090517f6fd8c68500000000000000000000000000000000000000000000000000000000815273__$47e4ffaaf323c41735ff299f8946896ce0$__91636fd8c68591610aca91869160039091019060040161398c565b5080546000825590600052602060002090810190611f7691905b80821115613473576000815560010161345f565b5090565b6001600160a01b0381168114611f7657600080fd5b6000806000606084860312156134a157600080fd5b83359250602084013560ff811681146134b957600080fd5b915060408401356134c981613477565b809150509250925092565b6000602082840312156134e657600080fd5b5035919050565b6000806040838503121561350057600080fd5b82359150602083013561351281613477565b809150509250929050565b6020808252825182820181905260009190848201906040850190845b8181101561355557835183529284019291840191600101613539565b50909695505050505050565b6000806040838503121561357457600080fd5b50508035926020909101359150565b7f4e487b7100000000000000000000000000000000000000000000000000000000600052604160045260246000fd5b600080604083850312156135c557600080fd5b8235915060208084013567ffffffffffffffff808211156135e557600080fd5b818601915086601f8301126135f957600080fd5b81358181111561360b5761360b613583565b8060051b6040517fffffffffffffffffffffffffffffffffffffffffffffffffffffffffffffffe0603f8301168101818110858211171561364e5761364e613583565b60405291825284820192508381018501918983111561366c57600080fd5b938501935b8285101561368a57843584529385019392850192613671565b8096505050505050509250929050565b604080825283519082018190526000906020906060840190828701845b828110156136dc5781516001600160a01b0316845292840192908401906001016136b7565b5050508381038285015284518082528583019183019060005b8181101561371457835160ff16835292840192918401916001016136f5565b5090979650505050505050565b60006020828403121561373357600080fd5b813561373e81613477565b9392505050565b8015158114611f7657600080fd5b6000806040838503121561376657600080fd5b823561377181613477565b9150602083013561351281613745565b6000806040838503121561379457600080fd5b82359150602083013561351281613745565b6000602082840312156137b857600080fd5b815161373e81613477565b6000604082016001600160a01b03808616845260206040818601528286548085526060870191508760005282600020945060005b818110156138155785548516835260019586019592840192016137f7565b509098975050505050505050565b60006020828403121561383557600080fd5b815161373e81613745565b7f4e487b7100000000000000000000000000000000000000000000000000000000600052603260045260246000fd5b7f4e487b7100000000000000000000000000000000000000000000000000000000600052601160045260246000fd5b60007fffffffffffffffffffffffffffffffffffffffffffffffffffffffffffffffff82036138cf576138cf61386f565b5060010190565b6000604082016001600160a01b0380861684526020604081860152828651808552606087019150828801945060005b81811015613815578551851683529483019491830191600101613905565b60006020828403121561393557600080fd5b5051919050565b81810381811115610b0f57610b0f61386f565b6000817fffffffffffffffffffffffffffffffffffffffffffffffffffffffffffffffff04831182151516156139875761398761386f565b500290565b60006040820184835260206040818501528185548084526060860191508660005282600020935060005b81811015613714578454835260019485019492840192016139b6565b6000604082018483526020604081850152818551808452606086019150828701935060005b81811015613714578451835293830193918301916001016139f756fea264697066735822122013a42477a3bcd600436d7692f08a039c7880c9d596f0325240f688504dbeaccd64736f6c6343000810003354cdd369e4e8a8515e52ca72ec816c2101831ad1f18bf44102ed171459c9b4f8",
    "linkReferences": {
      "src/Utils/LibString.sol": {
        "LibString": [
          {
            "start": 4188,
            "length": 20
          },
          {
            "start": 6795,
            "length": 20
          },
          {
            "start": 6962,
            "length": 20
          },
          {
            "start": 9958,
            "length": 20
          },
          {
            "start": 12137,
            "length": 20
          },
          {
            "start": 12295,
            "length": 20
          },
          {
            "start": 14810,
            "length": 20
          }
        ]
      }
    }
  },
  "methodIdentifiers": {
    "Dev()": "01e51ae8",
    "HELIX2()": "b782426e",
    "Molecules(bytes32)": "af6328f6",
    "NAMES()": "05e84aa0",
    "addAnion(bytes32,bytes32)": "6ff24830",
    "anion(bytes32)": "0e68b116",
    "basePrice()": "c7876ea4",
    "cation(bytes32)": "f61ccd53",
    "changeDev(address)": "88a8c95c",
    "controller(bytes32)": "dbd4e021",
    "covalence(bytes32)": "34026859",
    "expiry(bytes32)": "d2ec5fca",
    "hook(bytes32,uint8,address)": "51a76442",
    "hooks(bytes32)": "7cf096c3",
    "isApprovedForAll(bytes32,address)": "b0698628",
    "isNotDuplicateAnion(bytes32,bytes32)": "f8c91244",
    "isNotDuplicateHook(bytes32,address)": "049a491c",
    "popAnion(bytes32,bytes32)": "8dcad139",
    "recordExists(bytes32)": "f79fe538",
    "rehook(bytes32,uint8,address)": "015399e6",
    "resolver(bytes32)": "0178b8bf",
    "roothash()": "251c9422",
    "setAlias(bytes32,bytes32)": "1f06e91c",
    "setAnions(bytes32,bytes32[])": "741b4cd0",
    "setApprovalForAll(address,bool)": "a22cb465",
    "setCation(bytes32,bytes32)": "8146970a",
    "setController(bytes32,address)": "d3156905",
    "setCovalence(bytes32,bool)": "d07699aa",
    "setExpiry(bytes32,uint256)": "39de6469",
    "setRecord(bytes32,address)": "d9b76ed4",
    "setResolver(bytes32,address)": "1896f70a",
    "theEnd()": "22b68deb",
    "unhook(bytes32,address)": "241270d5",
    "unhookAll(bytes32)": "21ec2b5b",
    "withdrawEther()": "7362377b",
    "withdrawToken(address)": "89476069"
  },
  "id": 30
}