{
  "abi": [
    {
      "inputs": [
        {
          "internalType": "address",
          "name": "_registry",
          "type": "address"
        },
        {
          "internalType": "address",
          "name": "_helix2",
          "type": "address"
        }
      ],
      "stateMutability": "nonpayable",
      "type": "constructor"
    },
    {
      "inputs": [],
      "name": "BAD_ANION",
      "type": "error"
    },
    {
      "inputs": [],
      "name": "BAD_HOOK",
      "type": "error"
    },
    {
      "anonymous": false,
      "inputs": [
        {
          "indexed": true,
          "internalType": "address",
          "name": "cation",
          "type": "address"
        },
        {
          "indexed": true,
          "internalType": "address",
          "name": "operator",
          "type": "address"
        },
        {
          "indexed": false,
          "internalType": "bool",
          "name": "approved",
          "type": "bool"
        }
      ],
      "name": "ApprovalForAll",
      "type": "event"
    },
    {
      "anonymous": false,
      "inputs": [
        {
          "indexed": true,
          "internalType": "bytes32",
          "name": "bondhash",
          "type": "bytes32"
        },
        {
          "indexed": false,
          "internalType": "address",
          "name": "config",
          "type": "address"
        },
        {
          "indexed": false,
          "internalType": "uint8",
          "name": "rule",
          "type": "uint8"
        }
      ],
      "name": "Hooked",
      "type": "event"
    },
    {
      "anonymous": false,
      "inputs": [
        {
          "indexed": true,
          "internalType": "bytes32",
          "name": "molyhash",
          "type": "bytes32"
        },
        {
          "indexed": false,
          "internalType": "bytes32",
          "name": "_alias",
          "type": "bytes32"
        }
      ],
      "name": "NewAlias",
      "type": "event"
    },
    {
      "anonymous": false,
      "inputs": [
        {
          "indexed": true,
          "internalType": "bytes32",
          "name": "molyhash",
          "type": "bytes32"
        },
        {
          "indexed": false,
          "internalType": "bytes32",
          "name": "anion",
          "type": "bytes32"
        }
      ],
      "name": "NewAnion",
      "type": "event"
    },
    {
      "anonymous": false,
      "inputs": [
        {
          "indexed": true,
          "internalType": "bytes32",
          "name": "molyhash",
          "type": "bytes32"
        },
        {
          "indexed": false,
          "internalType": "bytes32[]",
          "name": "anion",
          "type": "bytes32[]"
        }
      ],
      "name": "NewAnions",
      "type": "event"
    },
    {
      "anonymous": false,
      "inputs": [
        {
          "indexed": true,
          "internalType": "bytes32",
          "name": "molyhash",
          "type": "bytes32"
        },
        {
          "indexed": false,
          "internalType": "bytes32",
          "name": "cation",
          "type": "bytes32"
        }
      ],
      "name": "NewCation",
      "type": "event"
    },
    {
      "anonymous": false,
      "inputs": [
        {
          "indexed": true,
          "internalType": "bytes32",
          "name": "molyhash",
          "type": "bytes32"
        },
        {
          "indexed": false,
          "internalType": "address",
          "name": "controller",
          "type": "address"
        }
      ],
      "name": "NewController",
      "type": "event"
    },
    {
      "anonymous": false,
      "inputs": [
        {
          "indexed": true,
          "internalType": "bytes32",
          "name": "molyhash",
          "type": "bytes32"
        },
        {
          "indexed": false,
          "internalType": "bool",
          "name": "covalence",
          "type": "bool"
        }
      ],
      "name": "NewCovalence",
      "type": "event"
    },
    {
      "anonymous": false,
      "inputs": [
        {
          "indexed": false,
          "internalType": "address",
          "name": "Dev",
          "type": "address"
        },
        {
          "indexed": false,
          "internalType": "address",
          "name": "newDev",
          "type": "address"
        }
      ],
      "name": "NewDev",
      "type": "event"
    },
    {
      "anonymous": false,
      "inputs": [
        {
          "indexed": true,
          "internalType": "bytes32",
          "name": "molyhash",
          "type": "bytes32"
        },
        {
          "indexed": false,
          "internalType": "uint256",
          "name": "expiry",
          "type": "uint256"
        }
      ],
      "name": "NewExpiry",
      "type": "event"
    },
    {
      "anonymous": false,
      "inputs": [
        {
          "indexed": true,
          "internalType": "bytes32",
          "name": "molyhash",
          "type": "bytes32"
        },
        {
          "indexed": false,
          "internalType": "bytes32",
          "name": "cation",
          "type": "bytes32"
        }
      ],
      "name": "NewMolecule",
      "type": "event"
    },
    {
      "anonymous": false,
      "inputs": [
        {
          "indexed": true,
          "internalType": "bytes32",
          "name": "molyhash",
          "type": "bytes32"
        },
        {
          "indexed": false,
          "internalType": "address",
          "name": "resolver",
          "type": "address"
        }
      ],
      "name": "NewRecord",
      "type": "event"
    },
    {
      "anonymous": false,
      "inputs": [
        {
          "indexed": true,
          "internalType": "bytes32",
          "name": "molyhash",
          "type": "bytes32"
        },
        {
          "indexed": false,
          "internalType": "bytes32",
          "name": "cation",
          "type": "bytes32"
        }
      ],
      "name": "NewRegistration",
      "type": "event"
    },
    {
      "anonymous": false,
      "inputs": [
        {
          "indexed": true,
          "internalType": "bytes32",
          "name": "molyhash",
          "type": "bytes32"
        },
        {
          "indexed": false,
          "internalType": "address",
          "name": "resolver",
          "type": "address"
        }
      ],
      "name": "NewResolver",
      "type": "event"
    },
    {
      "anonymous": false,
      "inputs": [
        {
          "indexed": true,
          "internalType": "bytes32",
          "name": "molyhash",
          "type": "bytes32"
        },
        {
          "indexed": false,
          "internalType": "bytes32",
          "name": "anion",
          "type": "bytes32"
        }
      ],
      "name": "PopAnion",
      "type": "event"
    },
    {
      "anonymous": false,
      "inputs": [
        {
          "indexed": true,
          "internalType": "bytes32",
          "name": "bondhash",
          "type": "bytes32"
        },
        {
          "indexed": false,
          "internalType": "address",
          "name": "config",
          "type": "address"
        },
        {
          "indexed": false,
          "internalType": "uint8",
          "name": "rule",
          "type": "uint8"
        }
      ],
      "name": "Rehooked",
      "type": "event"
    },
    {
      "anonymous": false,
      "inputs": [
        {
          "indexed": true,
          "internalType": "bytes32",
          "name": "bondhash",
          "type": "bytes32"
        },
        {
          "indexed": false,
          "internalType": "uint8",
          "name": "rule",
          "type": "uint8"
        }
      ],
      "name": "Unhooked",
      "type": "event"
    },
    {
      "anonymous": false,
      "inputs": [
        {
          "indexed": true,
          "internalType": "bytes32",
          "name": "molyhash",
          "type": "bytes32"
        }
      ],
      "name": "UnhookedAll",
      "type": "event"
    },
    {
      "inputs": [],
      "name": "Dev",
      "outputs": [
        {
          "internalType": "address",
          "name": "",
          "type": "address"
        }
      ],
      "stateMutability": "view",
      "type": "function"
    },
    {
      "inputs": [],
      "name": "HELIX2",
      "outputs": [
        {
          "internalType": "contract iHELIX2",
          "name": "",
          "type": "address"
        }
      ],
      "stateMutability": "view",
      "type": "function"
    },
    {
      "inputs": [
        {
          "internalType": "bytes32",
          "name": "",
          "type": "bytes32"
        }
      ],
      "name": "Molecules",
      "outputs": [
        {
          "internalType": "bytes32",
          "name": "_cation",
          "type": "bytes32"
        },
        {
          "internalType": "bytes32",
          "name": "_alias",
          "type": "bytes32"
        },
        {
          "internalType": "address",
          "name": "_resolver",
          "type": "address"
        },
        {
          "internalType": "address",
          "name": "_controller",
          "type": "address"
        },
        {
          "internalType": "bool",
          "name": "_covalence",
          "type": "bool"
        },
        {
          "internalType": "uint256",
          "name": "_expiry",
          "type": "uint256"
        }
      ],
      "stateMutability": "view",
      "type": "function"
    },
    {
      "inputs": [],
      "name": "NAMES",
      "outputs": [
        {
          "internalType": "contract iNAME",
          "name": "",
          "type": "address"
        }
      ],
      "stateMutability": "view",
      "type": "function"
    },
    {
      "inputs": [],
      "name": "Registrar",
      "outputs": [
        {
          "internalType": "address",
          "name": "",
          "type": "address"
        }
      ],
      "stateMutability": "view",
      "type": "function"
    },
    {
      "inputs": [],
      "name": "active",
      "outputs": [
        {
          "internalType": "bool",
          "name": "",
          "type": "bool"
        }
      ],
      "stateMutability": "view",
      "type": "function"
    },
    {
      "inputs": [
        {
          "internalType": "bytes32",
          "name": "molyhash",
          "type": "bytes32"
        },
        {
          "internalType": "bytes32",
          "name": "_anion",
          "type": "bytes32"
        }
      ],
      "name": "addAnion",
      "outputs": [],
      "stateMutability": "nonpayable",
      "type": "function"
    },
    {
      "inputs": [
        {
          "internalType": "bytes32",
          "name": "molyhash",
          "type": "bytes32"
        }
      ],
      "name": "alias_",
      "outputs": [
        {
          "internalType": "bytes32",
          "name": "",
          "type": "bytes32"
        }
      ],
      "stateMutability": "view",
      "type": "function"
    },
    {
      "inputs": [
        {
          "internalType": "bytes32",
          "name": "molyhash",
          "type": "bytes32"
        }
      ],
      "name": "anion",
      "outputs": [
        {
          "internalType": "bytes32[]",
          "name": "",
          "type": "bytes32[]"
        }
      ],
      "stateMutability": "view",
      "type": "function"
    },
    {
      "inputs": [],
      "name": "basePrice",
      "outputs": [
        {
          "internalType": "uint256",
          "name": "",
          "type": "uint256"
        }
      ],
      "stateMutability": "view",
      "type": "function"
    },
    {
      "inputs": [
        {
          "internalType": "bytes32",
          "name": "molyhash",
          "type": "bytes32"
        }
      ],
      "name": "cation",
      "outputs": [
        {
          "internalType": "bytes32",
          "name": "",
          "type": "bytes32"
        }
      ],
      "stateMutability": "view",
      "type": "function"
    },
    {
      "inputs": [
        {
          "internalType": "address",
          "name": "newDev",
          "type": "address"
        }
      ],
      "name": "changeDev",
      "outputs": [],
      "stateMutability": "nonpayable",
      "type": "function"
    },
    {
      "inputs": [
        {
          "internalType": "bytes32",
          "name": "molyhash",
          "type": "bytes32"
        }
      ],
      "name": "controller",
      "outputs": [
        {
          "internalType": "address",
          "name": "",
          "type": "address"
        }
      ],
      "stateMutability": "view",
      "type": "function"
    },
    {
      "inputs": [
        {
          "internalType": "bytes32",
          "name": "molyhash",
          "type": "bytes32"
        }
      ],
      "name": "covalence",
      "outputs": [
        {
          "internalType": "bool",
          "name": "",
          "type": "bool"
        }
      ],
      "stateMutability": "view",
      "type": "function"
    },
    {
      "inputs": [
        {
          "internalType": "bytes32",
          "name": "molyhash",
          "type": "bytes32"
        }
      ],
      "name": "expiry",
      "outputs": [
        {
          "internalType": "uint256",
          "name": "",
          "type": "uint256"
        }
      ],
      "stateMutability": "view",
      "type": "function"
    },
    {
      "inputs": [
        {
          "internalType": "bytes32",
          "name": "molyhash",
          "type": "bytes32"
        },
        {
          "internalType": "address",
          "name": "config",
          "type": "address"
        },
        {
          "internalType": "uint8",
          "name": "rule",
          "type": "uint8"
        }
      ],
      "name": "hook",
      "outputs": [],
      "stateMutability": "nonpayable",
      "type": "function"
    },
    {
      "inputs": [
        {
          "internalType": "bytes32",
          "name": "molyhash",
          "type": "bytes32"
        }
      ],
      "name": "hooksWithRules",
      "outputs": [
        {
          "internalType": "uint8[]",
          "name": "_rules",
          "type": "uint8[]"
        },
        {
          "internalType": "address[]",
          "name": "_hooks",
          "type": "address[]"
        }
      ],
      "stateMutability": "view",
      "type": "function"
    },
    {
      "inputs": [
        {
          "internalType": "bytes32",
          "name": "_cation",
          "type": "bytes32"
        },
        {
          "internalType": "address",
          "name": "operator",
          "type": "address"
        }
      ],
      "name": "isApprovedForAll",
      "outputs": [
        {
          "internalType": "bool",
          "name": "",
          "type": "bool"
        }
      ],
      "stateMutability": "view",
      "type": "function"
    },
    {
      "inputs": [
        {
          "internalType": "bytes32",
          "name": "molyhash",
          "type": "bytes32"
        },
        {
          "internalType": "bytes32",
          "name": "_anion",
          "type": "bytes32"
        }
      ],
      "name": "isNotDuplicateAnion",
      "outputs": [
        {
          "internalType": "bool",
          "name": "",
          "type": "bool"
        }
      ],
      "stateMutability": "view",
      "type": "function"
    },
    {
      "inputs": [
        {
          "internalType": "bytes32",
          "name": "molyhash",
          "type": "bytes32"
        },
        {
          "internalType": "uint8",
          "name": "rule",
          "type": "uint8"
        }
      ],
      "name": "isNotDuplicateHook",
      "outputs": [
        {
          "internalType": "bool",
          "name": "",
          "type": "bool"
        }
      ],
      "stateMutability": "view",
      "type": "function"
    },
    {
      "inputs": [
        {
          "internalType": "bytes32",
          "name": "molyhash",
          "type": "bytes32"
        },
        {
          "internalType": "bytes32",
          "name": "__anion",
          "type": "bytes32"
        }
      ],
      "name": "popAnion",
      "outputs": [],
      "stateMutability": "nonpayable",
      "type": "function"
    },
    {
      "inputs": [
        {
          "internalType": "bytes32",
          "name": "molyhash",
          "type": "bytes32"
        }
      ],
      "name": "recordExists",
      "outputs": [
        {
          "internalType": "bool",
          "name": "",
          "type": "bool"
        }
      ],
      "stateMutability": "view",
      "type": "function"
    },
    {
      "inputs": [
        {
          "internalType": "bytes32",
          "name": "molyhash",
          "type": "bytes32"
        },
        {
          "internalType": "bytes32",
          "name": "_cation",
          "type": "bytes32"
        }
      ],
      "name": "register",
      "outputs": [],
      "stateMutability": "nonpayable",
      "type": "function"
    },
    {
      "inputs": [
        {
          "internalType": "bytes32",
          "name": "molyhash",
          "type": "bytes32"
        },
        {
          "internalType": "address",
          "name": "config",
          "type": "address"
        },
        {
          "internalType": "uint8",
          "name": "rule",
          "type": "uint8"
        }
      ],
      "name": "rehook",
      "outputs": [],
      "stateMutability": "nonpayable",
      "type": "function"
    },
    {
      "inputs": [
        {
          "internalType": "bytes32",
          "name": "molyhash",
          "type": "bytes32"
        },
        {
          "internalType": "uint256",
          "name": "_expiry",
          "type": "uint256"
        }
      ],
      "name": "renew",
      "outputs": [],
      "stateMutability": "payable",
      "type": "function"
    },
    {
      "inputs": [
        {
          "internalType": "bytes32",
          "name": "molyhash",
          "type": "bytes32"
        }
      ],
      "name": "resolver",
      "outputs": [
        {
          "internalType": "address",
          "name": "",
          "type": "address"
        }
      ],
      "stateMutability": "view",
      "type": "function"
    },
    {
      "inputs": [],
      "name": "roothash",
      "outputs": [
        {
          "internalType": "bytes32",
          "name": "",
          "type": "bytes32"
        }
      ],
      "stateMutability": "view",
      "type": "function"
    },
    {
      "inputs": [
        {
          "internalType": "bytes32",
          "name": "molyhash",
          "type": "bytes32"
        },
        {
          "internalType": "bytes32",
          "name": "_alias",
          "type": "bytes32"
        }
      ],
      "name": "setAlias",
      "outputs": [],
      "stateMutability": "nonpayable",
      "type": "function"
    },
    {
      "inputs": [
        {
          "internalType": "bytes32",
          "name": "molyhash",
          "type": "bytes32"
        },
        {
          "internalType": "bytes32[]",
          "name": "_anion",
          "type": "bytes32[]"
        }
      ],
      "name": "setAnions",
      "outputs": [],
      "stateMutability": "nonpayable",
      "type": "function"
    },
    {
      "inputs": [
        {
          "internalType": "address",
          "name": "operator",
          "type": "address"
        },
        {
          "internalType": "bool",
          "name": "approved",
          "type": "bool"
        }
      ],
      "name": "setApprovalForAll",
      "outputs": [],
      "stateMutability": "nonpayable",
      "type": "function"
    },
    {
      "inputs": [
        {
          "internalType": "bytes32",
          "name": "molyhash",
          "type": "bytes32"
        },
        {
          "internalType": "bytes32",
          "name": "_cation",
          "type": "bytes32"
        }
      ],
      "name": "setCation",
      "outputs": [],
      "stateMutability": "nonpayable",
      "type": "function"
    },
    {
      "inputs": [
        {
          "internalType": "bytes32",
          "name": "molyhash",
          "type": "bytes32"
        },
        {
          "internalType": "address",
          "name": "_controller",
          "type": "address"
        }
      ],
      "name": "setController",
      "outputs": [],
      "stateMutability": "nonpayable",
      "type": "function"
    },
    {
      "inputs": [
        {
          "internalType": "bytes32",
          "name": "molyhash",
          "type": "bytes32"
        },
        {
          "internalType": "bool",
          "name": "_covalence",
          "type": "bool"
        }
      ],
      "name": "setCovalence",
      "outputs": [],
      "stateMutability": "nonpayable",
      "type": "function"
    },
    {
      "inputs": [
        {
          "internalType": "bytes32",
          "name": "molyhash",
          "type": "bytes32"
        },
        {
          "internalType": "uint256",
          "name": "_expiry",
          "type": "uint256"
        }
      ],
      "name": "setExpiry",
      "outputs": [],
      "stateMutability": "nonpayable",
      "type": "function"
    },
    {
      "inputs": [
        {
          "internalType": "bytes32",
          "name": "molyhash",
          "type": "bytes32"
        },
        {
          "internalType": "address",
          "name": "_resolver",
          "type": "address"
        }
      ],
      "name": "setRecord",
      "outputs": [],
      "stateMutability": "nonpayable",
      "type": "function"
    },
    {
      "inputs": [
        {
          "internalType": "bytes32",
          "name": "molyhash",
          "type": "bytes32"
        },
        {
          "internalType": "address",
          "name": "_resolver",
          "type": "address"
        }
      ],
      "name": "setResolver",
      "outputs": [],
      "stateMutability": "nonpayable",
      "type": "function"
    },
    {
      "inputs": [],
      "name": "theEnd",
      "outputs": [
        {
          "internalType": "uint256",
          "name": "",
          "type": "uint256"
        }
      ],
      "stateMutability": "view",
      "type": "function"
    },
    {
      "inputs": [
        {
          "internalType": "bytes32",
          "name": "molyhash",
          "type": "bytes32"
        },
        {
          "internalType": "uint8",
          "name": "rule",
          "type": "uint8"
        }
      ],
      "name": "unhook",
      "outputs": [],
      "stateMutability": "nonpayable",
      "type": "function"
    },
    {
      "inputs": [
        {
          "internalType": "bytes32",
          "name": "molyhash",
          "type": "bytes32"
        }
      ],
      "name": "unhookAll",
      "outputs": [],
      "stateMutability": "nonpayable",
      "type": "function"
    },
    {
      "inputs": [],
      "name": "withdrawEther",
      "outputs": [],
      "stateMutability": "nonpayable",
      "type": "function"
    }
  ],
  "bytecode": {
    "object": "0x60806040526002805460ff60a01b1916600160a01b1790556703782dace9d900006006553480156200003057600080fd5b5060405162005309380380620053098339810160408190526200005391620007b0565b60028054336001600160a01b0319918216179091556000805482166001600160a01b03848116918217909255600180549093169185169190911790915560408051633215476b60e11b8152905163642a8ed6916004808201926080929091908290030181865afa158015620000cc573d6000803e3d6000fd5b505050506040513d601f19601f82011682018060405250810190620000f291906200081f565b604090810151600355600054815163bd9a548b60e01b815291516001600160a01b039091169163bd9a548b9160048083019260809291908290030181865afa15801562000143573d6000803e3d6000fd5b505050506040513d601f19601f820116820180604052508101906200016991906200081f565b604001516004556200017a62000182565b5050620008c4565b7fb4b4801cca1cad359bff6b5ea99d95160f00cbe1164fb7231c42c3e8b5f2593b80546001600160a01b0319169055604080516020818101909252600080825280526007909152620001f8907f6d5257204ebe7d88fd91ae87941cb2dd9d8062b64ae5a2bd2d28ec40b9fbf6df90600162000691565b5060007f6d5257204ebe7d88fd91ae87941cb2dd9d8062b64ae5a2bd2d28ec40b9fbf6e18190556040805160208181019092528281529180526007905262000264907f6d5257204ebe7d88fd91ae87941cb2dd9d8062b64ae5a2bd2d28ec40b9fbf6e29060016200073e565b50600080805260076020527f6d5257204ebe7d88fd91ae87941cb2dd9d8062b64ae5a2bd2d28ec40b9fbf6e38190557f6d5257204ebe7d88fd91ae87941cb2dd9d8062b64ae5a2bd2d28ec40b9fbf6e580546006547f6d5257204ebe7d88fd91ae87941cb2dd9d8062b64ae5a2bd2d28ec40b9fbf6e6556001600160a81b03191633908117600160a01b179091557f6d5257204ebe7d88fd91ae87941cb2dd9d8062b64ae5a2bd2d28ec40b9fbf6e480546001600160a01b0319169091179055805460408051633215476b60e11b815290516001600160a01b03929092169163642a8ed6916004818101926080929091908290030181865afa1580156200036f573d6000803e3d6000fd5b505050506040513d601f19601f820116820180604052508101906200039591906200081f565b905060005b60048110156200068d57600060076000848460048110620003bf57620003bf62000886565b6020908102919091015182528181019290925260409081016000908120818052600101835281812080546001600160a01b0319166001600160a01b039590951694909417909355805191820190528181529060079084846004811062000429576200042962000886565b602002015181526020019081526020016000206000019060016200044f92919062000691565b5081816004811062000465576200046562000886565b60200201516007600084846004811062000483576200048362000886565b60200201518152602001908152602001600020600201819055506040518060200160405280838360048110620004bd57620004bd62000886565b6020020151905260076000848460048110620004dd57620004dd62000886565b60200201518152602001908152602001600020600301906001620005039291906200073e565b5081816004811062000519576200051962000886565b60200201516007600084846004811062000537576200053762000886565b60200201518152602001908152602001600020600401819055506001600760008484600481106200056c576200056c62000886565b6020020151815260200190815260200160002060060160146101000a81548160ff02191690831515021790555060065460076000848460048110620005b557620005b562000886565b60200201518152602001908152602001600020600701819055503360076000848460048110620005e957620005e962000886565b6020020151815260200190815260200160002060060160006101000a8154816001600160a01b0302191690836001600160a01b0316021790555033600760008484600481106200063d576200063d62000886565b6020020151815260200190815260200160002060050160006101000a8154816001600160a01b0302191690836001600160a01b03160217905550808062000684906200089c565b9150506200039a565b5050565b82805482825590600052602060002090601f016020900481019282156200072c5791602002820160005b83821115620006fb57835183826101000a81548160ff021916908360ff1602179055509260200192600101602081600001049283019260010302620006bb565b80156200072a5782816101000a81549060ff0219169055600101602081600001049283019260010302620006fb565b505b506200073a9291506200077c565b5090565b8280548282559060005260206000209081019282156200072c579160200282015b828111156200072c5782518255916020019190600101906200075f565b5b808211156200073a57600081556001016200077d565b80516001600160a01b0381168114620007ab57600080fd5b919050565b60008060408385031215620007c457600080fd5b620007cf8362000793565b9150620007df6020840162000793565b90509250929050565b604051608081016001600160401b03811182821017156200081957634e487b7160e01b600052604160045260246000fd5b60405290565b6000608082840312156200083257600080fd5b82601f8301126200084257600080fd5b6200084c620007e8565b8060808401858111156200085f57600080fd5b845b818110156200087b57805184526020938401930162000861565b509095945050505050565b634e487b7160e01b600052603260045260246000fd5b600060018201620008bd57634e487b7160e01b600052601160045260246000fd5b5060010190565b614a3580620008d46000396000f3fe6080604052600436106102bb5760003560e01c8063849a799c1161016e578063c7876ea4116100cb578063dbd4e0211161007f578063f61ccd5311610064578063f61ccd531461083a578063f79fe5381461085a578063f8c912441461088d57600080fd5b8063dbd4e02114610807578063f544d82f1461082757600080fd5b8063d2ec5fca116100b0578063d2ec5fca14610796578063d3156905146107c7578063d9b76ed4146107e757600080fd5b8063c7876ea414610760578063d07699aa1461077657600080fd5b8063b069862811610122578063b782426e11610107578063b782426e14610700578063b9f37c8614610720578063c5bc4c0b1461074057600080fd5b8063b0698628146106c0578063b612e9b9146106e057600080fd5b80638dcad139116101535780638dcad139146105cb578063a22cb465146105eb578063af6328f61461060b57600080fd5b8063849a799c1461058b57806388a8c95c146105ab57600080fd5b8063251c94221161021c5780636ff24830116101d0578063741b4cd0116101b5578063741b4cd01461052b5780638146970a1461054b578063836697261461056b57600080fd5b80636ff24830146104f65780637362377b1461051657600080fd5b80633402685911610201578063340268591461049657806339de6469146104b65780634d505584146104d657600080fd5b8063251c9422146104605780632f9267321461047657600080fd5b80630e68b116116102735780631f06e91c116102585780631f06e91c146103fc57806321ec2b5b1461041c57806322b68deb1461043c57600080fd5b80630e68b116146103ad5780631896f70a146103da57600080fd5b806302fb0c5e116102a457806302fb0c5e1461031d57806305e84aa01461035f5780630aac66251461037f57600080fd5b80630178b8bf146102c057806301e51ae8146102fd575b600080fd5b3480156102cc57600080fd5b506102e06102db366004613d21565b6108ad565b6040516001600160a01b0390911681526020015b60405180910390f35b34801561030957600080fd5b506002546102e0906001600160a01b031681565b34801561032957600080fd5b5060025461034f9074010000000000000000000000000000000000000000900460ff1681565b60405190151581526020016102f4565b34801561036b57600080fd5b506001546102e0906001600160a01b031681565b34801561038b57600080fd5b5061039f61039a366004613d21565b610938565b6040516102f4929190613d3a565b3480156103b957600080fd5b506103cd6103c8366004613d21565b610b09565b6040516102f49190613dc1565b3480156103e657600080fd5b506103fa6103f5366004613e1a565b610bd8565b005b34801561040857600080fd5b506103fa610417366004613e4a565b610e43565b34801561042857600080fd5b506103fa610437366004613d21565b610f89565b34801561044857600080fd5b5061045260065481565b6040519081526020016102f4565b34801561046c57600080fd5b5061045260035481565b34801561048257600080fd5b506103fa610491366004613e4a565b611325565b3480156104a257600080fd5b5061034f6104b1366004613d21565b61155d565b3480156104c257600080fd5b506103fa6104d1366004613e4a565b6115f1565b3480156104e257600080fd5b5061034f6104f1366004613e82565b61178c565b34801561050257600080fd5b506103fa610511366004613e4a565b611838565b34801561052257600080fd5b506103fa611a76565b34801561053757600080fd5b506103fa610546366004613f2c565b611b1c565b34801561055757600080fd5b506103fa610566366004613e4a565b611e54565b34801561057757600080fd5b506103fa610586366004613fde565b6120cb565b34801561059757600080fd5b506103fa6105a6366004613fde565b612362565b3480156105b757600080fd5b506103fa6105c636600461401c565b6125f3565b3480156105d757600080fd5b506103fa6105e6366004613e4a565b6126c3565b3480156105f757600080fd5b506103fa61060636600461404e565b612a90565b34801561061757600080fd5b50610684610626366004613d21565b600760208190526000918252604090912060028101546004820154600583015460068401549390940154919390926001600160a01b0391821692918116917401000000000000000000000000000000000000000090910460ff169086565b6040805196875260208701959095526001600160a01b0393841694860194909452911660608401521515608083015260a082015260c0016102f4565b3480156106cc57600080fd5b5061034f6106db366004613e1a565b612b1a565b3480156106ec57600080fd5b506103fa6106fb366004613e82565b612bbe565b34801561070c57600080fd5b506000546102e0906001600160a01b031681565b34801561072c57600080fd5b506005546102e0906001600160a01b031681565b34801561074c57600080fd5b5061045261075b366004613d21565b612fe9565b34801561076c57600080fd5b5061045260045481565b34801561078257600080fd5b506103fa61079136600461407c565b613062565b3480156107a257600080fd5b506104526107b1366004613d21565b6000908152600760208190526040909120015490565b3480156107d357600080fd5b506103fa6107e2366004613e1a565b6132df565b3480156107f357600080fd5b506103fa610802366004613e1a565b61353f565b34801561081357600080fd5b506102e0610822366004613d21565b61379f565b6103fa610835366004613e4a565b613821565b34801561084657600080fd5b50610452610855366004613d21565b613b7c565b34801561086657600080fd5b5061034f610875366004613d21565b60009081526007602081905260409091200154421090565b34801561089957600080fd5b5061034f6108a8366004613e4a565b613c84565b600081815260076020819052604082200154829042106109145760405162461bcd60e51b815260206004820152601060248201527f4d4f4c4543554c455f455850495245440000000000000000000000000000000060448201526064015b60405180910390fd5b6000838152600760205260409020600501546001600160a01b031691505b50919050565b60608082600760008281526020019081526020016000206007015442106109a15760405162461bcd60e51b815260206004820152601060248201527f4d4f4c4543554c455f4558504952454400000000000000000000000000000000604482015260640161090b565b60008481526007602090815260409182902080548351818402810184019094528084529091830182828015610a1357602002820191906000526020600020906000905b825461010083900a900460ff168152602060019283018181049485019490930390920291018084116109e45790505b50505050509250825167ffffffffffffffff811115610a3457610a34613eae565b604051908082528060200260200182016040528015610a5d578160200160208202803683370190505b50915060005b8351811015610b0257600760008681526020019081526020016000206001016000858381518110610a9657610a966140a1565b602002602001015160ff1660ff16815260200190815260200160002060009054906101000a90046001600160a01b0316838281518110610ad857610ad86140a1565b6001600160a01b039092166020928302919091019091015280610afa816140ff565b915050610a63565b5050915091565b60608160076000828152602001908152602001600020600701544210610b715760405162461bcd60e51b815260206004820152601060248201527f4d4f4c4543554c455f4558504952454400000000000000000000000000000000604482015260640161090b565b600083815260076020908152604080832060030180548251818502810185019093528083529192909190830182828015610bca57602002820191906000526020600020905b815481526020019060010190808311610bb6575b509398975050505050505050565b600054604080517f4d3f7334000000000000000000000000000000000000000000000000000000008152905184926001600160a01b031691634d3f73349160048083019260809291908290030181865afa158015610c3a573d6000803e3d6000fd5b505050506040513d601f19601f82011682018060405250810190610c5e9190614137565b604090810151600580546001600160a01b0392831673ffffffffffffffffffffffffffffffffffffffff19909116179055600083815260076020528281206002015460015493516302571be360e01b8152600481018290529093919291909116906302571be390602401602060405180830381865afa158015610ce5573d6000803e3d6000fd5b505050506040513d601f19601f82011682018060405250810190610d0991906141be565b6005549091506001600160a01b0316331480610d2d57506001600160a01b03811633145b80610d5b57506001600160a01b038116600090815260086020908152604080832033845290915290205460ff165b80610d7f57506000838152600760205260409020600601546001600160a01b031633145b610dcb5760405162461bcd60e51b815260206004820152600e60248201527f4e4f545f415554484f5249534544000000000000000000000000000000000000604482015260640161090b565b600085815260076020908152604091829020600501805473ffffffffffffffffffffffffffffffffffffffff19166001600160a01b038816908117909155915191825286917f335721b01866dc23fbee8b6b2c7b1e14d6f05c28cd35a2c934239f94095602a091015b60405180910390a25050505050565b60008054906101000a90046001600160a01b03166001600160a01b0316634d3f73346040518163ffffffff1660e01b8152600401608060405180830381865afa158015610e94573d6000803e3d6000fd5b505050506040513d601f19601f82011682018060405250810190610eb89190614137565b604001516005805473ffffffffffffffffffffffffffffffffffffffff19166001600160a01b0390921691821790553314610f355760405162461bcd60e51b815260206004820152600d60248201527f4e4f545f52454749535452415200000000000000000000000000000000000000604482015260640161090b565b600082815260076020526040908190206004018290555182907f4247841fd58468a6fb10925898bdd83c426da7b5519ee71597106dfdc675122990610f7d9084815260200190565b60405180910390a25050565b600054604080517f4d3f7334000000000000000000000000000000000000000000000000000000008152905183926001600160a01b031691634d3f73349160048083019260809291908290030181865afa158015610feb573d6000803e3d6000fd5b505050506040513d601f19601f8201168201806040525081019061100f9190614137565b604090810151600580546001600160a01b0392831673ffffffffffffffffffffffffffffffffffffffff19909116179055600083815260076020528281206002015460015493516302571be360e01b8152600481018290529093919291909116906302571be390602401602060405180830381865afa158015611096573d6000803e3d6000fd5b505050506040513d601f19601f820116820180604052508101906110ba91906141be565b6005549091506001600160a01b03163314806110de57506001600160a01b03811633145b8061110c57506001600160a01b038116600090815260086020908152604080832033845290915290205460ff165b8061113057506000838152600760205260409020600601546001600160a01b031633145b61117c5760405162461bcd60e51b815260206004820152600e60248201527f4e4f545f415554484f5249534544000000000000000000000000000000000000604482015260640161090b565b6000848152600760209081526040808320805482518185028101850190935280835291929091908301828280156111f057602002820191906000526020600020906000905b825461010083900a900460ff168152602060019283018181049485019490930390920291018084116111c15790505b5050505050905060005b81518110156112db57600060076000888152602001908152602001600020600101600084848151811061122f5761122f6140a1565b602002602001015160ff1660ff16815260200190815260200160002060006101000a8154816001600160a01b0302191690836001600160a01b03160217905550857fbf47c0c608c230f7dffbcf65f8cdc76f5f920e4750eea1dcd09138a7359226ac8383815181106112a3576112a36140a1565b60200260200101516040516112c1919060ff91909116815260200190565b60405180910390a2806112d3816140ff565b9150506111fa565b5060008581526007602052604081206112f391613ce8565b60405185907f6b91085369552b61ca16180a741663b69fb6b3b967f7271116521d84e2291dc590600090a25050505050565b60008054906101000a90046001600160a01b03166001600160a01b0316634d3f73346040518163ffffffff1660e01b8152600401608060405180830381865afa158015611376573d6000803e3d6000fd5b505050506040513d601f19601f8201168201806040525081019061139a9190614137565b604001516005805473ffffffffffffffffffffffffffffffffffffffff19166001600160a01b03909216918217905533146114175760405162461bcd60e51b815260206004820152600d60248201527f4e4f545f52454749535452415200000000000000000000000000000000000000604482015260640161090b565b6001546040516302571be360e01b8152600481018390526000916001600160a01b0316906302571be390602401602060405180830381865afa158015611461573d6000803e3d6000fd5b505050506040513d601f19601f8201168201806040525081019061148591906141be565b6001600160a01b0316036114db5760405162461bcd60e51b815260206004820152600b60248201527f43414e4e4f545f4255524e000000000000000000000000000000000000000000604482015260640161090b565b600082815260076020526040908190206002018290555182907f4810581adf2c16a86a375dbb1ed89b0b0f7e64d48d24e1948b3dfe6581e4d795906115239084815260200190565b60405180910390a2817facb5de0f65735f798ae8baf163fb3380a7813aca2c739ba9e39179007206585a82604051610f7d91815260200190565b600081815260076020819052604082200154829042106115bf5760405162461bcd60e51b815260206004820152601060248201527f4d4f4c4543554c455f4558504952454400000000000000000000000000000000604482015260640161090b565b505060009081526007602052604090206006015474010000000000000000000000000000000000000000900460ff1690565b60008054906101000a90046001600160a01b03166001600160a01b0316634d3f73346040518163ffffffff1660e01b8152600401608060405180830381865afa158015611642573d6000803e3d6000fd5b505050506040513d601f19601f820116820180604052508101906116669190614137565b604001516005805473ffffffffffffffffffffffffffffffffffffffff19166001600160a01b03909216918217905533146116e35760405162461bcd60e51b815260206004820152600d60248201527f4e4f545f52454749535452415200000000000000000000000000000000000000604482015260640161090b565b6000828152600760208190526040909120015481116117445760405162461bcd60e51b815260206004820152600a60248201527f4241445f45585049525900000000000000000000000000000000000000000000604482015260640161090b565b600082815260076020819052604091829020018290555182907fa620b72378ee464490805a96e25b53e5c0076f0ce2d28f9691ae255a595b3bf390610f7d9084815260200190565b60008281526007602052604080822090517f26c6421b00000000000000000000000000000000000000000000000000000000815273__$47e4ffaaf323c41735ff299f8946896ce0$__916326c6421b916117ed9160ff8716916004016141db565b602060405180830381865af415801561180a573d6000803e3d6000fd5b505050506040513d601f19601f8201168201806040525081019061182e91906148ab565b1590505b92915050565b600082815260076020819052604090912001548290421061189b5760405162461bcd60e51b815260206004820152601060248201527f4d4f4c4543554c455f4558504952454400000000000000000000000000000000604482015260640161090b565b6000818152600760205260408082206002015460015491516302571be360e01b8152600481018290529092916001600160a01b0316906302571be390602401602060405180830381865afa1580156118f7573d6000803e3d6000fd5b505050506040513d601f19601f8201168201806040525081019061191b91906141be565b90506001600160a01b03811633148061195757506001600160a01b038116600090815260086020908152604080832033845290915290205460ff165b8061197b57506000838152600760205260409020600601546001600160a01b031633145b6119c75760405162461bcd60e51b815260206004820152601760248201527f4e4f545f4f574e45525f4f525f434f4e54524f4c4c4552000000000000000000604482015260640161090b565b6119d18585613c84565b611a1d5760405162461bcd60e51b815260206004820152600c60248201527f414e494f4e5f4558495354530000000000000000000000000000000000000000604482015260640161090b565b6000858152600760209081526040808320600301805460018101825590845291909220018590555185907f600ffddd29393ca43c0a11fa6b0b7096631364178cb42f9d546c0a2cd22525ee90610e349087815260200190565b6002546040516000916001600160a01b03169047908381818185875af1925050503d8060008114611ac3576040519150601f19603f3d011682016040523d82523d6000602084013e611ac8565b606091505b5050905080611b195760405162461bcd60e51b815260206004820152601360248201527f4554485f5452414e534645525f4641494c454400000000000000000000000000604482015260640161090b565b50565b600054604080517f4d3f7334000000000000000000000000000000000000000000000000000000008152905184926001600160a01b031691634d3f73349160048083019260809291908290030181865afa158015611b7e573d6000803e3d6000fd5b505050506040513d601f19601f82011682018060405250810190611ba29190614137565b604090810151600580546001600160a01b0392831673ffffffffffffffffffffffffffffffffffffffff19909116179055600083815260076020528281206002015460015493516302571be360e01b8152600481018290529093919291909116906302571be390602401602060405180830381865afa158015611c29573d6000803e3d6000fd5b505050506040513d601f19601f82011682018060405250810190611c4d91906141be565b6005549091506001600160a01b0316331480611c7157506001600160a01b03811633145b80611c9f57506001600160a01b038116600090815260086020908152604080832033845290915290205460ff165b80611cc357506000838152600760205260409020600601546001600160a01b031633145b611d0f5760405162461bcd60e51b815260206004820152600e60248201527f4e4f545f415554484f5249534544000000000000000000000000000000000000604482015260640161090b565b60005b8451811015611e2357848181518110611d2d57611d2d6140a1565b602002602001015173__$47e4ffaaf323c41735ff299f8946896ce0$__636fd8c6859091600760008a81526020019081526020016000206003016040518363ffffffff1660e01b8152600401611d849291906148c8565b602060405180830381865af4158015611da1573d6000803e3d6000fd5b505050506040513d601f19601f82011682018060405250810190611dc591906148ab565b611e115760076000878152602001908152602001600020600301858281518110611df157611df16140a1565b602090810291909101810151825460018101845560009384529190922001555b80611e1b816140ff565b915050611d12565b50847f580d99949e5d5a02f35dc5b91b800697d53dccb814e200f24f97b4bfbeb8667c85604051610e349190613dc1565b6000828152600760208190526040909120015482904210611eb75760405162461bcd60e51b815260206004820152601060248201527f4d4f4c4543554c455f4558504952454400000000000000000000000000000000604482015260640161090b565b6000818152600760205260408082206002015460015491516302571be360e01b8152600481018290529092916001600160a01b0316906302571be390602401602060405180830381865afa158015611f13573d6000803e3d6000fd5b505050506040513d601f19601f82011682018060405250810190611f3791906141be565b90506001600160a01b038116331480611f7357506001600160a01b038116600090815260086020908152604080832033845290915290205460ff165b611fbf5760405162461bcd60e51b815260206004820152600960248201527f4e4f545f4f574e45520000000000000000000000000000000000000000000000604482015260640161090b565b6001546040516302571be360e01b8152600481018690526000916001600160a01b0316906302571be390602401602060405180830381865afa158015612009573d6000803e3d6000fd5b505050506040513d601f19601f8201168201806040525081019061202d91906141be565b6001600160a01b0316036120835760405162461bcd60e51b815260206004820152600b60248201527f43414e4e4f545f4255524e000000000000000000000000000000000000000000604482015260640161090b565b600085815260076020526040908190206002018590555185907f4810581adf2c16a86a375dbb1ed89b0b0f7e64d48d24e1948b3dfe6581e4d79590610e349087815260200190565b600083815260076020819052604090912001548390421061212e5760405162461bcd60e51b815260206004820152601060248201527f4d4f4c4543554c455f4558504952454400000000000000000000000000000000604482015260640161090b565b6000818152600760205260408082206002015460015491516302571be360e01b8152600481018290529092916001600160a01b0316906302571be390602401602060405180830381865afa15801561218a573d6000803e3d6000fd5b505050506040513d601f19601f820116820180604052508101906121ae91906141be565b90506001600160a01b0381163314806121ea57506001600160a01b038116600090815260086020908152604080832033845290915290205460ff165b8061220e57506000838152600760205260409020600601546001600160a01b031633145b61225a5760405162461bcd60e51b815260206004820152601760248201527f4e4f545f4f574e45525f4f525f434f4e54524f4c4c4552000000000000000000604482015260640161090b565b600086815260076020908152604080832060ff881684526001019091529020546001600160a01b038087169116036122d45760405162461bcd60e51b815260206004820152600b60248201527f52554c455f455849535453000000000000000000000000000000000000000000604482015260640161090b565b600086815260076020908152604080832060ff88168085526001909101835292819020805473ffffffffffffffffffffffffffffffffffffffff19166001600160a01b038a1690811790915581519081529182019290925287917fe43a78ddf6157361fe34d04905786138f88d3eda20b1f7dc0e2c619f9267310091015b60405180910390a2505050505050565b60008381526007602081905260409091200154839042106123c55760405162461bcd60e51b815260206004820152601060248201527f4d4f4c4543554c455f4558504952454400000000000000000000000000000000604482015260640161090b565b6000818152600760205260408082206002015460015491516302571be360e01b8152600481018290529092916001600160a01b0316906302571be390602401602060405180830381865afa158015612421573d6000803e3d6000fd5b505050506040513d601f19601f8201168201806040525081019061244591906141be565b90506001600160a01b03811633148061248157506001600160a01b038116600090815260086020908152604080832033845290915290205460ff165b806124a557506000838152600760205260409020600601546001600160a01b031633145b6124f15760405162461bcd60e51b815260206004820152601760248201527f4e4f545f4f574e45525f4f525f434f4e54524f4c4c4552000000000000000000604482015260640161090b565b6124fb868561178c565b6125475760405162461bcd60e51b815260206004820152600b60248201527f484f4f4b5f455849535453000000000000000000000000000000000000000000604482015260640161090b565b600086815260076020908152604080832080546001808201835582865284862085830401805460ff8c8116601f9095166101000a85810291021990911617905581865290910183529281902080546001600160a01b038a1673ffffffffffffffffffffffffffffffffffffffff19909116811790915581519081529182019290925287917fc733a2bc621cc97eef6ed4f708f126e72e6acb76c0a1c0461c9dd31f7b9870659101612352565b6002546001600160a01b0316331461264d5760405162461bcd60e51b815260206004820152600760248201527f4e4f545f44455600000000000000000000000000000000000000000000000000604482015260640161090b565b600254604080516001600160a01b03928316815291831660208301527fdec101f106d4fc7c85791843e64b198248c822298e3ed7046231d33f7783d816910160405180910390a16002805473ffffffffffffffffffffffffffffffffffffffff19166001600160a01b0392909216919091179055565b60008281526007602081905260409091200154829042106127265760405162461bcd60e51b815260206004820152601060248201527f4d4f4c4543554c455f4558504952454400000000000000000000000000000000604482015260640161090b565b6000818152600760205260408082206002015460015491516302571be360e01b8152600481018290529092916001600160a01b0316906302571be390602401602060405180830381865afa158015612782573d6000803e3d6000fd5b505050506040513d601f19601f820116820180604052508101906127a691906141be565b90506001600160a01b0381163314806127e257506001600160a01b038116600090815260086020908152604080832033845290915290205460ff165b8061280657506000838152600760205260409020600601546001600160a01b031633145b6128525760405162461bcd60e51b815260206004820152601760248201527f4e4f545f4f574e45525f4f525f434f4e54524f4c4c4552000000000000000000604482015260640161090b565b6000858152600760209081526040808320600301805482518185028101850190935280835291929091908301828280156128ab57602002820191906000526020600020905b815481526020019060010190808311612897575b50506040517f6fd8c68500000000000000000000000000000000000000000000000000000000815293945073__$47e4ffaaf323c41735ff299f8946896ce0$__93636fd8c68593506129059250899150859060040161490e565b602060405180830381865af4158015612922573d6000803e3d6000fd5b505050506040513d601f19601f8201168201806040525081019061294691906148ab565b15612a56576040517fda92b9ed00000000000000000000000000000000000000000000000000000000815260009073__$47e4ffaaf323c41735ff299f8946896ce0$__9063da92b9ed906129a0908990869060040161490e565b602060405180830381865af41580156129bd573d6000803e3d6000fd5b505050506040513d601f19601f820116820180604052508101906129e1919061494f565b600088815260076020526040902060030180549192509082908110612a0857612a086140a1565b9060005260206000200160009055867f5c379d054844760656a56e062f50208b458cfa0c4427574f5a2828d19602b4e987604051612a4891815260200190565b60405180910390a250612a88565b6040517f62316f6700000000000000000000000000000000000000000000000000000000815260040160405180910390fd5b505050505050565b3360008181526008602090815260408083206001600160a01b0387168085529083529281902080547fffffffffffffffffffffffffffffffffffffffffffffffffffffffffffffff001686151590811790915590519081529192917f17307eab39ab6107e8899845ad3d59bd9653f200f220920489ca2b5937696c31910160405180910390a35050565b6001546040516302571be360e01b81526004810184905260009182916001600160a01b03909116906302571be390602401602060405180830381865afa158015612b68573d6000803e3d6000fd5b505050506040513d601f19601f82011682018060405250810190612b8c91906141be565b6001600160a01b0390811660009081526008602090815260408083209387168352929052205460ff1691505092915050565b6000828152600760208190526040909120015482904210612c215760405162461bcd60e51b815260206004820152601060248201527f4d4f4c4543554c455f4558504952454400000000000000000000000000000000604482015260640161090b565b6000818152600760205260408082206002015460015491516302571be360e01b8152600481018290529092916001600160a01b0316906302571be390602401602060405180830381865afa158015612c7d573d6000803e3d6000fd5b505050506040513d601f19601f82011682018060405250810190612ca191906141be565b90506001600160a01b038116331480612cdd57506001600160a01b038116600090815260086020908152604080832033845290915290205460ff165b80612d0157506000838152600760205260409020600601546001600160a01b031633145b612d4d5760405162461bcd60e51b815260206004820152601760248201527f4e4f545f4f574e45525f4f525f434f4e54524f4c4c4552000000000000000000604482015260640161090b565b600085815260076020908152604080832080548251818502810185019093528083529192909190830182828015612dc157602002820191906000526020600020906000905b825461010083900a900460ff16815260206001928301818104948501949093039092029101808411612d925790505b50506040517f26c6421b00000000000000000000000000000000000000000000000000000000815293945073__$47e4ffaaf323c41735ff299f8946896ce0$__936326c6421b9350612e1e925060ff8a1691508590600401614968565b602060405180830381865af4158015612e3b573d6000803e3d6000fd5b505050506040513d601f19601f82011682018060405250810190612e5f91906148ab565b15612fb7576040517f8ab65ceb00000000000000000000000000000000000000000000000000000000815260009073__$47e4ffaaf323c41735ff299f8946896ce0$__90638ab65ceb90612ebc9060ff8a16908690600401614968565b602060405180830381865af4158015612ed9573d6000803e3d6000fd5b505050506040513d601f19601f82011682018060405250810190612efd919061494f565b600088815260076020908152604080832060ff8b168085526001909101835292819020805473ffffffffffffffffffffffffffffffffffffffff191690555191825291925088917fbf47c0c608c230f7dffbcf65f8cdc76f5f920e4750eea1dcd09138a7359226ac910160405180910390a26000878152600760205260409020805482908110612f8f57612f8f6140a1565b90600052602060002090602091828204019190066101000a81549060ff021916905550612a88565b6040517fe8dd1d3e00000000000000000000000000000000000000000000000000000000815260040160405180910390fd5b6000818152600760208190526040822001548290421061304b5760405162461bcd60e51b815260206004820152601060248201527f4d4f4c4543554c455f4558504952454400000000000000000000000000000000604482015260640161090b565b505060009081526007602052604090206004015490565b600054604080517f4d3f7334000000000000000000000000000000000000000000000000000000008152905184926001600160a01b031691634d3f73349160048083019260809291908290030181865afa1580156130c4573d6000803e3d6000fd5b505050506040513d601f19601f820116820180604052508101906130e89190614137565b604090810151600580546001600160a01b0392831673ffffffffffffffffffffffffffffffffffffffff19909116179055600083815260076020528281206002015460015493516302571be360e01b8152600481018290529093919291909116906302571be390602401602060405180830381865afa15801561316f573d6000803e3d6000fd5b505050506040513d601f19601f8201168201806040525081019061319391906141be565b6005549091506001600160a01b03163314806131b757506001600160a01b03811633145b806131e557506001600160a01b038116600090815260086020908152604080832033845290915290205460ff165b8061320957506000838152600760205260409020600601546001600160a01b031633145b6132555760405162461bcd60e51b815260206004820152600e60248201527f4e4f545f415554484f5249534544000000000000000000000000000000000000604482015260640161090b565b60008581526007602052604090819020600601805486151574010000000000000000000000000000000000000000027fffffffffffffffffffffff00ffffffffffffffffffffffffffffffffffffffff9091161790555185907fe6ccdb52b4954ab2c3e293f1dbfe593e6c5630962a1944bfcf20c5563eeb846290610e3490871515815260200190565b600054604080517f4d3f7334000000000000000000000000000000000000000000000000000000008152905184926001600160a01b031691634d3f73349160048083019260809291908290030181865afa158015613341573d6000803e3d6000fd5b505050506040513d601f19601f820116820180604052508101906133659190614137565b604090810151600580546001600160a01b0392831673ffffffffffffffffffffffffffffffffffffffff19909116179055600083815260076020528281206002015460015493516302571be360e01b8152600481018290529093919291909116906302571be390602401602060405180830381865afa1580156133ec573d6000803e3d6000fd5b505050506040513d601f19601f8201168201806040525081019061341091906141be565b6005549091506001600160a01b031633148061343457506001600160a01b03811633145b8061346257506001600160a01b038116600090815260086020908152604080832033845290915290205460ff165b8061348657506000838152600760205260409020600601546001600160a01b031633145b6134d25760405162461bcd60e51b815260206004820152600e60248201527f4e4f545f415554484f5249534544000000000000000000000000000000000000604482015260640161090b565b600085815260076020908152604091829020600601805473ffffffffffffffffffffffffffffffffffffffff19166001600160a01b038816908117909155915191825286917fe5108446a6097aab57fd36f346a515a78fddefa87d81662d44e0d7a463f920959101610e34565b600054604080517f4d3f7334000000000000000000000000000000000000000000000000000000008152905184926001600160a01b031691634d3f73349160048083019260809291908290030181865afa1580156135a1573d6000803e3d6000fd5b505050506040513d601f19601f820116820180604052508101906135c59190614137565b604090810151600580546001600160a01b0392831673ffffffffffffffffffffffffffffffffffffffff19909116179055600083815260076020528281206002015460015493516302571be360e01b8152600481018290529093919291909116906302571be390602401602060405180830381865afa15801561364c573d6000803e3d6000fd5b505050506040513d601f19601f8201168201806040525081019061367091906141be565b6005549091506001600160a01b031633148061369457506001600160a01b03811633145b806136c257506001600160a01b038116600090815260086020908152604080832033845290915290205460ff165b806136e657506000838152600760205260409020600601546001600160a01b031633145b6137325760405162461bcd60e51b815260206004820152600e60248201527f4e4f545f415554484f5249534544000000000000000000000000000000000000604482015260640161090b565b600085815260076020908152604091829020600501805473ffffffffffffffffffffffffffffffffffffffff19166001600160a01b038816908117909155915191825286917fcb71326aeaad88869e8be8be2893e1119f7617ce4ea2411af127e218909be1f79101610e34565b600081815260076020819052604082200154829042106138015760405162461bcd60e51b815260206004820152601060248201527f4d4f4c4543554c455f4558504952454400000000000000000000000000000000604482015260640161090b565b50506000908152600760205260409020600601546001600160a01b031690565b60008281526007602081905260409091200154829042106138845760405162461bcd60e51b815260206004820152601060248201527f4d4f4c4543554c455f4558504952454400000000000000000000000000000000604482015260640161090b565b6000818152600760205260408082206002015460015491516302571be360e01b8152600481018290529092916001600160a01b0316906302571be390602401602060405180830381865afa1580156138e0573d6000803e3d6000fd5b505050506040513d601f19601f8201168201806040525081019061390491906141be565b90506001600160a01b03811633148061394057506001600160a01b038116600090815260086020908152604080832033845290915290205460ff165b8061396457506000838152600760205260409020600601546001600160a01b031633145b6139b05760405162461bcd60e51b815260206004820152601760248201527f4e4f545f4f574e45525f4f525f434f4e54524f4c4c4552000000000000000000604482015260640161090b565b600085815260076020819052604090912001548411613a115760405162461bcd60e51b815260206004820152600a60248201527f4241445f45585049525900000000000000000000000000000000000000000000604482015260640161090b565b60008054906101000a90046001600160a01b03166001600160a01b0316634d3f73346040518163ffffffff1660e01b8152600401608060405180830381865afa158015613a62573d6000803e3d6000fd5b505050506040513d601f19601f82011682018060405250810190613a869190614137565b6020908101516005805473ffffffffffffffffffffffffffffffffffffffff19166001600160a01b0390921691909117905560008681526007918290526040812090910154613ad590866149af565b905060045481613ae591906149c2565b341015613b345760405162461bcd60e51b815260206004820152601260248201527f494e53554646494349454e545f45544845520000000000000000000000000000604482015260640161090b565b600086815260076020819052604091829020018690555186907fa620b72378ee464490805a96e25b53e5c0076f0ce2d28f9691ae255a595b3bf3906123529088815260200190565b60008181526007602081905260408220015482904210613bde5760405162461bcd60e51b815260206004820152601060248201527f4d4f4c4543554c455f4558504952454400000000000000000000000000000000604482015260640161090b565b6000838152600760205260408082206002015460015491516302571be360e01b8152600481018290529092916001600160a01b0316906302571be390602401602060405180830381865afa158015613c3a573d6000803e3d6000fd5b505050506040513d601f19601f82011682018060405250810190613c5e91906141be565b9050306001600160a01b03821603613c7c5760035493505050610932565b509392505050565b60008281526007602052604080822090517f6fd8c68500000000000000000000000000000000000000000000000000000000815273__$47e4ffaaf323c41735ff299f8946896ce0$__91636fd8c685916117ed9186916003909101906004016148c8565b50805460008255601f016020900490600052602060002090810190611b1991905b80821115613d1d5760008155600101613d09565b5090565b600060208284031215613d3357600080fd5b5035919050565b604080825283519082018190526000906020906060840190828701845b82811015613d7657815160ff1684529284019290840190600101613d57565b5050508381038285015284518082528583019183019060005b81811015613db45783516001600160a01b031683529284019291840191600101613d8f565b5090979650505050505050565b6020808252825182820181905260009190848201906040850190845b81811015613df957835183529284019291840191600101613ddd565b50909695505050505050565b6001600160a01b0381168114611b1957600080fd5b60008060408385031215613e2d57600080fd5b823591506020830135613e3f81613e05565b809150509250929050565b60008060408385031215613e5d57600080fd5b50508035926020909101359150565b803560ff81168114613e7d57600080fd5b919050565b60008060408385031215613e9557600080fd5b82359150613ea560208401613e6c565b90509250929050565b7f4e487b7100000000000000000000000000000000000000000000000000000000600052604160045260246000fd5b604051601f82017fffffffffffffffffffffffffffffffffffffffffffffffffffffffffffffffe016810167ffffffffffffffff81118282101715613f2457613f24613eae565b604052919050565b60008060408385031215613f3f57600080fd5b8235915060208084013567ffffffffffffffff80821115613f5f57600080fd5b818601915086601f830112613f7357600080fd5b813581811115613f8557613f85613eae565b8060051b9150613f96848301613edd565b8181529183018401918481019089841115613fb057600080fd5b938501935b83851015613fce57843582529385019390850190613fb5565b8096505050505050509250929050565b600080600060608486031215613ff357600080fd5b83359250602084013561400581613e05565b915061401360408501613e6c565b90509250925092565b60006020828403121561402e57600080fd5b813561403981613e05565b9392505050565b8015158114611b1957600080fd5b6000806040838503121561406157600080fd5b823561406c81613e05565b91506020830135613e3f81614040565b6000806040838503121561408f57600080fd5b823591506020830135613e3f81614040565b7f4e487b7100000000000000000000000000000000000000000000000000000000600052603260045260246000fd5b7f4e487b7100000000000000000000000000000000000000000000000000000000600052601160045260246000fd5b60007fffffffffffffffffffffffffffffffffffffffffffffffffffffffffffffffff8203614130576141306140d0565b5060010190565b60006080828403121561414957600080fd5b82601f83011261415857600080fd5b6040516080810181811067ffffffffffffffff8211171561417b5761417b613eae565b60405280608084018581111561419057600080fd5b845b818110156141b35780516141a581613e05565b835260209283019201614192565b509195945050505050565b6000602082840312156141d057600080fd5b815161403981613e05565b60006040820160ff80861684526020604081860152828654614201818690815260200190565b60008981526020812096509092505b81601f8201101561449757855460ff868216168452614238858501878360081c1660ff169052565b61424c60408501878360101c1660ff169052565b6060614261818601888460181c1660ff169052565b608061427581870189858a1c1660ff169052565b60a061428a8188018a8660281c1660ff169052565b60c061429f8189018b8760301c1660ff169052565b60e06142b4818a018c8860381c1660ff169052565b6142c96101008a018c8860401c1660ff169052565b6142de6101208a018c8860481c1660ff169052565b6142f36101408a018c8860501c1660ff169052565b6143086101608a018c8860581c1660ff169052565b60ff86861c8c16166101808a015261432b6101a08a018c8860681c1660ff169052565b6143406101c08a018c8860701c1660ff169052565b6143556101e08a018c8860781c1660ff169052565b60ff86851c8c16166102008a01526143786102208a018c8860881c1660ff169052565b61438d6102408a018c8860901c1660ff169052565b6143a26102608a018c8860981c1660ff169052565b60ff86841c8c16166102808a01526143c56102a08a018c8860a81c1660ff169052565b6143da6102c08a018c8860b01c1660ff169052565b6143ef6102e08a018c8860b81c1660ff169052565b60ff86831c8c16166103008a01526144126103208a018c8860c81c1660ff169052565b6144276103408a018c8860d01c1660ff169052565b61443c6103608a018c8860d81c1660ff169052565b60ff86821c8c16166103808a015250505050506144646103a08501878360e81c1660ff169052565b6144796103c08501878360f01c1660ff169052565b60f81c6103e084015260019590950194610400909201918301614210565b945494818110156144b25760ff868616168352918301916001015b818110156144d3576144cb83868860081c1660ff169052565b918301916001015b818110156144f4576144ec83868860101c1660ff169052565b918301916001015b818110156145155761450d83868860181c1660ff169052565b918301916001015b8181101561452f5760ff86851c8616168352918301916001015b818110156145505761454883868860281c1660ff169052565b918301916001015b818110156145715761456983868860301c1660ff169052565b918301916001015b818110156145925761458a83868860381c1660ff169052565b918301916001015b818110156145b3576145ab83868860401c1660ff169052565b918301916001015b818110156145d4576145cc83868860481c1660ff169052565b918301916001015b818110156145f5576145ed83868860501c1660ff169052565b918301916001015b818110156146165761460e83868860581c1660ff169052565b918301916001015b818110156146375761462f83868860601c1660ff169052565b918301916001015b818110156146585761465083868860681c1660ff169052565b918301916001015b818110156146795761467183868860701c1660ff169052565b918301916001015b8181101561469a5761469283868860781c1660ff169052565b918301916001015b818110156146bb576146b383868860801c1660ff169052565b918301916001015b818110156146dc576146d483868860881c1660ff169052565b918301916001015b818110156146fd576146f583868860901c1660ff169052565b918301916001015b8181101561471e5761471683868860981c1660ff169052565b918301916001015b8181101561473f5761473783868860a01c1660ff169052565b918301916001015b818110156147605761475883868860a81c1660ff169052565b918301916001015b818110156147815761477983868860b01c1660ff169052565b918301916001015b818110156147a25761479a83868860b81c1660ff169052565b918301916001015b818110156147c3576147bb83868860c01c1660ff169052565b918301916001015b818110156147e4576147dc83868860c81c1660ff169052565b918301916001015b81811015614805576147fd83868860d01c1660ff169052565b918301916001015b818110156148265761481e83868860d81c1660ff169052565b918301916001015b818110156148475761483f83868860e01c1660ff169052565b918301916001015b818110156148685761486083868860e81c1660ff169052565b918301916001015b818110156148895761488183868860f01c1660ff169052565b918301916001015b8181101561489d5760f886901c8352918301915b509098975050505050505050565b6000602082840312156148bd57600080fd5b815161403981614040565b60006040820184835260206040818501528185548084526060860191508660005282600020935060005b81811015613db4578454835260019485019492840192016148f2565b6000604082018483526020604081850152818551808452606086019150828701935060005b81811015613db457845183529383019391830191600101614933565b60006020828403121561496157600080fd5b5051919050565b60006040820160ff80861684526020604081860152828651808552606087019150828801945060005b8181101561489d578551851683529483019491830191600101614991565b81810381811115611832576118326140d0565b6000817fffffffffffffffffffffffffffffffffffffffffffffffffffffffffffffffff04831182151516156149fa576149fa6140d0565b50029056fea2646970667358221220548b7c9db707450d34fb0c9fed1c4320fb17776f9cd7632a1fdd4f636776b2fd64736f6c63430008100033",
    "linkReferences": {
      "src/Utils/LibString.sol": {
        "LibString": [
          {
            "start": 8342,
            "length": 20
          },
          {
            "start": 9739,
            "length": 20
          },
          {
            "start": 12716,
            "length": 20
          },
          {
            "start": 12874,
            "length": 20
          },
          {
            "start": 14018,
            "length": 20
          },
          {
            "start": 14179,
            "length": 20
          },
          {
            "start": 17806,
            "length": 20
          }
        ]
      }
    }
  },
  "methodIdentifiers": {
    "Dev()": "01e51ae8",
    "HELIX2()": "b782426e",
    "Molecules(bytes32)": "af6328f6",
    "NAMES()": "05e84aa0",
    "Registrar()": "b9f37c86",
    "active()": "02fb0c5e",
    "addAnion(bytes32,bytes32)": "6ff24830",
    "alias_(bytes32)": "c5bc4c0b",
    "anion(bytes32)": "0e68b116",
    "basePrice()": "c7876ea4",
    "cation(bytes32)": "f61ccd53",
    "changeDev(address)": "88a8c95c",
    "controller(bytes32)": "dbd4e021",
    "covalence(bytes32)": "34026859",
    "expiry(bytes32)": "d2ec5fca",
    "hook(bytes32,address,uint8)": "849a799c",
    "hooksWithRules(bytes32)": "0aac6625",
    "isApprovedForAll(bytes32,address)": "b0698628",
    "isNotDuplicateAnion(bytes32,bytes32)": "f8c91244",
    "isNotDuplicateHook(bytes32,uint8)": "4d505584",
    "popAnion(bytes32,bytes32)": "8dcad139",
    "recordExists(bytes32)": "f79fe538",
    "register(bytes32,bytes32)": "2f926732",
    "rehook(bytes32,address,uint8)": "83669726",
    "renew(bytes32,uint256)": "f544d82f",
    "resolver(bytes32)": "0178b8bf",
    "roothash()": "251c9422",
    "setAlias(bytes32,bytes32)": "1f06e91c",
    "setAnions(bytes32,bytes32[])": "741b4cd0",
    "setApprovalForAll(address,bool)": "a22cb465",
    "setCation(bytes32,bytes32)": "8146970a",
    "setController(bytes32,address)": "d3156905",
    "setCovalence(bytes32,bool)": "d07699aa",
    "setExpiry(bytes32,uint256)": "39de6469",
    "setRecord(bytes32,address)": "d9b76ed4",
    "setResolver(bytes32,address)": "1896f70a",
    "theEnd()": "22b68deb",
    "unhook(bytes32,uint8)": "b612e9b9",
    "unhookAll(bytes32)": "21ec2b5b",
    "withdrawEther()": "7362377b"
  },
  "id": 24
}