{
  "abi": [
    {
      "inputs": [
        {
          "internalType": "address",
          "name": "_registry",
          "type": "address"
        },
        {
          "internalType": "address",
          "name": "_helix2",
          "type": "address"
        },
        {
          "internalType": "address",
          "name": "_priceOracle",
          "type": "address"
        }
      ],
      "stateMutability": "nonpayable",
      "type": "constructor"
    },
    {
      "inputs": [],
      "name": "BAD_ANION",
      "type": "error"
    },
    {
      "inputs": [],
      "name": "BAD_HOOK",
      "type": "error"
    },
    {
      "anonymous": false,
      "inputs": [
        {
          "indexed": true,
          "internalType": "address",
          "name": "cation",
          "type": "address"
        },
        {
          "indexed": true,
          "internalType": "address",
          "name": "operator",
          "type": "address"
        },
        {
          "indexed": false,
          "internalType": "bool",
          "name": "approved",
          "type": "bool"
        }
      ],
      "name": "ApprovalForAll",
      "type": "event"
    },
    {
      "anonymous": false,
      "inputs": [
        {
          "indexed": true,
          "internalType": "bytes32",
          "name": "bondhash",
          "type": "bytes32"
        },
        {
          "indexed": false,
          "internalType": "address",
          "name": "config",
          "type": "address"
        },
        {
          "indexed": false,
          "internalType": "uint8",
          "name": "rule",
          "type": "uint8"
        }
      ],
      "name": "Hooked",
      "type": "event"
    },
    {
      "anonymous": false,
      "inputs": [
        {
          "indexed": true,
          "internalType": "bytes32",
          "name": "molyhash",
          "type": "bytes32"
        },
        {
          "indexed": false,
          "internalType": "bytes32",
          "name": "anion",
          "type": "bytes32"
        }
      ],
      "name": "NewAnion",
      "type": "event"
    },
    {
      "anonymous": false,
      "inputs": [
        {
          "indexed": true,
          "internalType": "bytes32",
          "name": "molyhash",
          "type": "bytes32"
        },
        {
          "indexed": false,
          "internalType": "bytes32[]",
          "name": "anion",
          "type": "bytes32[]"
        }
      ],
      "name": "NewAnions",
      "type": "event"
    },
    {
      "anonymous": false,
      "inputs": [
        {
          "indexed": true,
          "internalType": "bytes32",
          "name": "molyhash",
          "type": "bytes32"
        },
        {
          "indexed": false,
          "internalType": "bytes32",
          "name": "cation",
          "type": "bytes32"
        }
      ],
      "name": "NewCation",
      "type": "event"
    },
    {
      "anonymous": false,
      "inputs": [
        {
          "indexed": true,
          "internalType": "bytes32",
          "name": "molyhash",
          "type": "bytes32"
        },
        {
          "indexed": false,
          "internalType": "address",
          "name": "controller",
          "type": "address"
        }
      ],
      "name": "NewController",
      "type": "event"
    },
    {
      "anonymous": false,
      "inputs": [
        {
          "indexed": true,
          "internalType": "bytes32",
          "name": "molyhash",
          "type": "bytes32"
        },
        {
          "indexed": false,
          "internalType": "bool",
          "name": "covalence",
          "type": "bool"
        }
      ],
      "name": "NewCovalence",
      "type": "event"
    },
    {
      "anonymous": false,
      "inputs": [
        {
          "indexed": true,
          "internalType": "bytes32",
          "name": "molyhash",
          "type": "bytes32"
        },
        {
          "indexed": false,
          "internalType": "uint256",
          "name": "expiry",
          "type": "uint256"
        }
      ],
      "name": "NewExpiry",
      "type": "event"
    },
    {
      "anonymous": false,
      "inputs": [
        {
          "indexed": true,
          "internalType": "bytes32",
          "name": "molyhash",
          "type": "bytes32"
        },
        {
          "indexed": false,
          "internalType": "address",
          "name": "resolver",
          "type": "address"
        }
      ],
      "name": "NewRecord",
      "type": "event"
    },
    {
      "anonymous": false,
      "inputs": [
        {
          "indexed": true,
          "internalType": "bytes32",
          "name": "molyhash",
          "type": "bytes32"
        },
        {
          "indexed": false,
          "internalType": "address",
          "name": "resolver",
          "type": "address"
        }
      ],
      "name": "NewResolver",
      "type": "event"
    },
    {
      "anonymous": false,
      "inputs": [
        {
          "indexed": true,
          "internalType": "address",
          "name": "previousOwner",
          "type": "address"
        },
        {
          "indexed": true,
          "internalType": "address",
          "name": "newOwner",
          "type": "address"
        }
      ],
      "name": "OwnershipTransferred",
      "type": "event"
    },
    {
      "anonymous": false,
      "inputs": [
        {
          "indexed": true,
          "internalType": "bytes32",
          "name": "molyhash",
          "type": "bytes32"
        },
        {
          "indexed": false,
          "internalType": "bytes32",
          "name": "anion",
          "type": "bytes32"
        }
      ],
      "name": "PopAnion",
      "type": "event"
    },
    {
      "anonymous": false,
      "inputs": [
        {
          "indexed": true,
          "internalType": "bytes32",
          "name": "bondhash",
          "type": "bytes32"
        },
        {
          "indexed": false,
          "internalType": "address",
          "name": "config",
          "type": "address"
        },
        {
          "indexed": false,
          "internalType": "uint8",
          "name": "rule",
          "type": "uint8"
        }
      ],
      "name": "Rehooked",
      "type": "event"
    },
    {
      "anonymous": false,
      "inputs": [
        {
          "indexed": true,
          "internalType": "bytes32",
          "name": "bondhash",
          "type": "bytes32"
        },
        {
          "indexed": false,
          "internalType": "uint8",
          "name": "rule",
          "type": "uint8"
        }
      ],
      "name": "Unhooked",
      "type": "event"
    },
    {
      "anonymous": false,
      "inputs": [
        {
          "indexed": true,
          "internalType": "bytes32",
          "name": "molyhash",
          "type": "bytes32"
        }
      ],
      "name": "UnhookedAll",
      "type": "event"
    },
    {
      "inputs": [],
      "name": "Dev",
      "outputs": [
        {
          "internalType": "address",
          "name": "",
          "type": "address"
        }
      ],
      "stateMutability": "view",
      "type": "function"
    },
    {
      "inputs": [],
      "name": "HELIX2",
      "outputs": [
        {
          "internalType": "contract iHELIX2",
          "name": "",
          "type": "address"
        }
      ],
      "stateMutability": "view",
      "type": "function"
    },
    {
      "inputs": [
        {
          "internalType": "bytes32",
          "name": "",
          "type": "bytes32"
        }
      ],
      "name": "Molecules",
      "outputs": [
        {
          "internalType": "bytes32",
          "name": "_cation",
          "type": "bytes32"
        },
        {
          "internalType": "bytes32",
          "name": "_alias",
          "type": "bytes32"
        },
        {
          "internalType": "address",
          "name": "_resolver",
          "type": "address"
        },
        {
          "internalType": "address",
          "name": "_controller",
          "type": "address"
        },
        {
          "internalType": "bool",
          "name": "_covalence",
          "type": "bool"
        },
        {
          "internalType": "uint256",
          "name": "_expiry",
          "type": "uint256"
        }
      ],
      "stateMutability": "view",
      "type": "function"
    },
    {
      "inputs": [],
      "name": "NAMES",
      "outputs": [
        {
          "internalType": "contract iNAME",
          "name": "",
          "type": "address"
        }
      ],
      "stateMutability": "view",
      "type": "function"
    },
    {
      "inputs": [],
      "name": "PRICES",
      "outputs": [
        {
          "internalType": "contract iPriceOracle",
          "name": "",
          "type": "address"
        }
      ],
      "stateMutability": "view",
      "type": "function"
    },
    {
      "inputs": [],
      "name": "Registrar",
      "outputs": [
        {
          "internalType": "address",
          "name": "",
          "type": "address"
        }
      ],
      "stateMutability": "view",
      "type": "function"
    },
    {
      "inputs": [],
      "name": "active",
      "outputs": [
        {
          "internalType": "bool",
          "name": "",
          "type": "bool"
        }
      ],
      "stateMutability": "view",
      "type": "function"
    },
    {
      "inputs": [
        {
          "internalType": "bytes32",
          "name": "molyhash",
          "type": "bytes32"
        },
        {
          "internalType": "bytes32",
          "name": "_anion",
          "type": "bytes32"
        }
      ],
      "name": "addAnion",
      "outputs": [],
      "stateMutability": "nonpayable",
      "type": "function"
    },
    {
      "inputs": [
        {
          "internalType": "bytes32",
          "name": "molyhash",
          "type": "bytes32"
        }
      ],
      "name": "alias_",
      "outputs": [
        {
          "internalType": "bytes32",
          "name": "",
          "type": "bytes32"
        }
      ],
      "stateMutability": "view",
      "type": "function"
    },
    {
      "inputs": [
        {
          "internalType": "bytes32",
          "name": "molyhash",
          "type": "bytes32"
        }
      ],
      "name": "anion",
      "outputs": [
        {
          "internalType": "bytes32[]",
          "name": "",
          "type": "bytes32[]"
        }
      ],
      "stateMutability": "view",
      "type": "function"
    },
    {
      "inputs": [],
      "name": "basePrice",
      "outputs": [
        {
          "internalType": "uint256",
          "name": "",
          "type": "uint256"
        }
      ],
      "stateMutability": "view",
      "type": "function"
    },
    {
      "inputs": [
        {
          "internalType": "bytes32",
          "name": "molyhash",
          "type": "bytes32"
        }
      ],
      "name": "cation",
      "outputs": [
        {
          "internalType": "bytes32",
          "name": "",
          "type": "bytes32"
        }
      ],
      "stateMutability": "view",
      "type": "function"
    },
    {
      "inputs": [
        {
          "internalType": "bytes32",
          "name": "molyhash",
          "type": "bytes32"
        }
      ],
      "name": "controller",
      "outputs": [
        {
          "internalType": "address",
          "name": "",
          "type": "address"
        }
      ],
      "stateMutability": "view",
      "type": "function"
    },
    {
      "inputs": [
        {
          "internalType": "bytes32",
          "name": "molyhash",
          "type": "bytes32"
        }
      ],
      "name": "covalence",
      "outputs": [
        {
          "internalType": "bool",
          "name": "",
          "type": "bool"
        }
      ],
      "stateMutability": "view",
      "type": "function"
    },
    {
      "inputs": [
        {
          "internalType": "bytes32",
          "name": "molyhash",
          "type": "bytes32"
        }
      ],
      "name": "expiry",
      "outputs": [
        {
          "internalType": "uint256",
          "name": "",
          "type": "uint256"
        }
      ],
      "stateMutability": "view",
      "type": "function"
    },
    {
      "inputs": [
        {
          "internalType": "bytes32",
          "name": "molyhash",
          "type": "bytes32"
        },
        {
          "internalType": "address",
          "name": "config",
          "type": "address"
        },
        {
          "internalType": "uint8",
          "name": "rule",
          "type": "uint8"
        }
      ],
      "name": "hook",
      "outputs": [],
      "stateMutability": "nonpayable",
      "type": "function"
    },
    {
      "inputs": [
        {
          "internalType": "bytes32",
          "name": "molyhash",
          "type": "bytes32"
        }
      ],
      "name": "hooksWithRules",
      "outputs": [
        {
          "internalType": "uint8[]",
          "name": "_rules",
          "type": "uint8[]"
        },
        {
          "internalType": "address[]",
          "name": "_hooks",
          "type": "address[]"
        }
      ],
      "stateMutability": "view",
      "type": "function"
    },
    {
      "inputs": [
        {
          "internalType": "bytes32",
          "name": "_cation",
          "type": "bytes32"
        },
        {
          "internalType": "address",
          "name": "operator",
          "type": "address"
        }
      ],
      "name": "isApprovedForAll",
      "outputs": [
        {
          "internalType": "bool",
          "name": "",
          "type": "bool"
        }
      ],
      "stateMutability": "view",
      "type": "function"
    },
    {
      "inputs": [
        {
          "internalType": "bytes32",
          "name": "molyhash",
          "type": "bytes32"
        },
        {
          "internalType": "bytes32",
          "name": "_anion",
          "type": "bytes32"
        }
      ],
      "name": "isNotDuplicateAnion",
      "outputs": [
        {
          "internalType": "bool",
          "name": "",
          "type": "bool"
        }
      ],
      "stateMutability": "view",
      "type": "function"
    },
    {
      "inputs": [
        {
          "internalType": "bytes32",
          "name": "molyhash",
          "type": "bytes32"
        },
        {
          "internalType": "uint8",
          "name": "rule",
          "type": "uint8"
        }
      ],
      "name": "isNotDuplicateHook",
      "outputs": [
        {
          "internalType": "bool",
          "name": "",
          "type": "bool"
        }
      ],
      "stateMutability": "view",
      "type": "function"
    },
    {
      "inputs": [],
      "name": "owner",
      "outputs": [
        {
          "internalType": "address",
          "name": "",
          "type": "address"
        }
      ],
      "stateMutability": "view",
      "type": "function"
    },
    {
      "inputs": [
        {
          "internalType": "bytes32",
          "name": "molyhash",
          "type": "bytes32"
        },
        {
          "internalType": "bytes32",
          "name": "__anion",
          "type": "bytes32"
        }
      ],
      "name": "popAnion",
      "outputs": [],
      "stateMutability": "nonpayable",
      "type": "function"
    },
    {
      "inputs": [
        {
          "internalType": "bytes32",
          "name": "molyhash",
          "type": "bytes32"
        }
      ],
      "name": "recordExists",
      "outputs": [
        {
          "internalType": "bool",
          "name": "",
          "type": "bool"
        }
      ],
      "stateMutability": "view",
      "type": "function"
    },
    {
      "inputs": [
        {
          "internalType": "bytes32",
          "name": "molyhash",
          "type": "bytes32"
        },
        {
          "internalType": "bytes32",
          "name": "_cation",
          "type": "bytes32"
        }
      ],
      "name": "register",
      "outputs": [],
      "stateMutability": "nonpayable",
      "type": "function"
    },
    {
      "inputs": [
        {
          "internalType": "bytes32",
          "name": "molyhash",
          "type": "bytes32"
        },
        {
          "internalType": "address",
          "name": "config",
          "type": "address"
        },
        {
          "internalType": "uint8",
          "name": "rule",
          "type": "uint8"
        }
      ],
      "name": "rehook",
      "outputs": [],
      "stateMutability": "nonpayable",
      "type": "function"
    },
    {
      "inputs": [
        {
          "internalType": "bytes32",
          "name": "molyhash",
          "type": "bytes32"
        },
        {
          "internalType": "uint256",
          "name": "_expiry",
          "type": "uint256"
        }
      ],
      "name": "renew",
      "outputs": [],
      "stateMutability": "payable",
      "type": "function"
    },
    {
      "inputs": [
        {
          "internalType": "bytes32",
          "name": "molyhash",
          "type": "bytes32"
        }
      ],
      "name": "resolver",
      "outputs": [
        {
          "internalType": "address",
          "name": "",
          "type": "address"
        }
      ],
      "stateMutability": "view",
      "type": "function"
    },
    {
      "inputs": [],
      "name": "roothash",
      "outputs": [
        {
          "internalType": "bytes32",
          "name": "",
          "type": "bytes32"
        }
      ],
      "stateMutability": "view",
      "type": "function"
    },
    {
      "inputs": [
        {
          "internalType": "bytes32",
          "name": "molyhash",
          "type": "bytes32"
        },
        {
          "internalType": "bytes32",
          "name": "_alias",
          "type": "bytes32"
        }
      ],
      "name": "setAlias",
      "outputs": [],
      "stateMutability": "nonpayable",
      "type": "function"
    },
    {
      "inputs": [
        {
          "internalType": "bytes32",
          "name": "molyhash",
          "type": "bytes32"
        },
        {
          "internalType": "bytes32[]",
          "name": "_anion",
          "type": "bytes32[]"
        }
      ],
      "name": "setAnions",
      "outputs": [],
      "stateMutability": "nonpayable",
      "type": "function"
    },
    {
      "inputs": [
        {
          "internalType": "address",
          "name": "operator",
          "type": "address"
        },
        {
          "internalType": "bool",
          "name": "approved",
          "type": "bool"
        }
      ],
      "name": "setApprovalForAll",
      "outputs": [],
      "stateMutability": "nonpayable",
      "type": "function"
    },
    {
      "inputs": [
        {
          "internalType": "bytes32",
          "name": "molyhash",
          "type": "bytes32"
        },
        {
          "internalType": "bytes32",
          "name": "_cation",
          "type": "bytes32"
        }
      ],
      "name": "setCation",
      "outputs": [],
      "stateMutability": "nonpayable",
      "type": "function"
    },
    {
      "inputs": [
        {
          "internalType": "address",
          "name": "_helix2",
          "type": "address"
        },
        {
          "internalType": "address",
          "name": "_priceOracle",
          "type": "address"
        }
      ],
      "name": "setConfig",
      "outputs": [],
      "stateMutability": "nonpayable",
      "type": "function"
    },
    {
      "inputs": [
        {
          "internalType": "bytes32",
          "name": "molyhash",
          "type": "bytes32"
        },
        {
          "internalType": "address",
          "name": "_controller",
          "type": "address"
        }
      ],
      "name": "setController",
      "outputs": [],
      "stateMutability": "nonpayable",
      "type": "function"
    },
    {
      "inputs": [
        {
          "internalType": "bytes32",
          "name": "molyhash",
          "type": "bytes32"
        },
        {
          "internalType": "bool",
          "name": "_covalence",
          "type": "bool"
        }
      ],
      "name": "setCovalence",
      "outputs": [],
      "stateMutability": "nonpayable",
      "type": "function"
    },
    {
      "inputs": [
        {
          "internalType": "bytes32",
          "name": "molyhash",
          "type": "bytes32"
        },
        {
          "internalType": "uint256",
          "name": "_expiry",
          "type": "uint256"
        }
      ],
      "name": "setExpiry",
      "outputs": [],
      "stateMutability": "nonpayable",
      "type": "function"
    },
    {
      "inputs": [
        {
          "internalType": "bytes4",
          "name": "sig",
          "type": "bytes4"
        },
        {
          "internalType": "bool",
          "name": "value",
          "type": "bool"
        }
      ],
      "name": "setInterface",
      "outputs": [],
      "stateMutability": "payable",
      "type": "function"
    },
    {
      "inputs": [
        {
          "internalType": "bytes32",
          "name": "molyhash",
          "type": "bytes32"
        },
        {
          "internalType": "address",
          "name": "_resolver",
          "type": "address"
        }
      ],
      "name": "setRecord",
      "outputs": [],
      "stateMutability": "nonpayable",
      "type": "function"
    },
    {
      "inputs": [
        {
          "internalType": "bytes32",
          "name": "molyhash",
          "type": "bytes32"
        },
        {
          "internalType": "address",
          "name": "_resolver",
          "type": "address"
        }
      ],
      "name": "setResolver",
      "outputs": [],
      "stateMutability": "nonpayable",
      "type": "function"
    },
    {
      "inputs": [
        {
          "internalType": "bytes4",
          "name": "",
          "type": "bytes4"
        }
      ],
      "name": "supportsInterface",
      "outputs": [
        {
          "internalType": "bool",
          "name": "",
          "type": "bool"
        }
      ],
      "stateMutability": "view",
      "type": "function"
    },
    {
      "inputs": [],
      "name": "theEnd",
      "outputs": [
        {
          "internalType": "uint256",
          "name": "",
          "type": "uint256"
        }
      ],
      "stateMutability": "view",
      "type": "function"
    },
    {
      "inputs": [],
      "name": "toggleActive",
      "outputs": [],
      "stateMutability": "nonpayable",
      "type": "function"
    },
    {
      "inputs": [
        {
          "internalType": "address",
          "name": "newDev",
          "type": "address"
        }
      ],
      "name": "transferOwnership",
      "outputs": [],
      "stateMutability": "nonpayable",
      "type": "function"
    },
    {
      "inputs": [
        {
          "internalType": "bytes32",
          "name": "molyhash",
          "type": "bytes32"
        },
        {
          "internalType": "uint8",
          "name": "rule",
          "type": "uint8"
        }
      ],
      "name": "unhook",
      "outputs": [],
      "stateMutability": "nonpayable",
      "type": "function"
    },
    {
      "inputs": [
        {
          "internalType": "bytes32",
          "name": "molyhash",
          "type": "bytes32"
        }
      ],
      "name": "unhookAll",
      "outputs": [],
      "stateMutability": "nonpayable",
      "type": "function"
    },
    {
      "inputs": [],
      "name": "withdrawEther",
      "outputs": [],
      "stateMutability": "nonpayable",
      "type": "function"
    }
  ],
  "bytecode": {
    "object": "0x60806040526003805460ff60a01b1916600160a01b1790556703782dace9d900006008553480156200003057600080fd5b5060405162004a1538038062004a1583398101604081905262000053916200082f565b60038054336001600160a01b0319918216179091556000805482166001600160a01b03858116918217909255600180549093169186169190911790915560408051633215476b60e11b8152905163642a8ed6916004808201926080929091908290030181865afa158015620000cc573d6000803e3d6000fd5b505050506040513d601f19601f82011682018060405250810190620000f29190620008b0565b60026020020151600555600280546001600160a01b0319166001600160a01b0383169081179091556040805163bd9a548b60e01b8152905163bd9a548b916004808201926080929091908290030181865afa15801562000156573d6000803e3d6000fd5b505050506040513d601f19601f820116820180604052508101906200017c9190620008b0565b604001516006556200018d62000201565b50506004602052507f9ff9ac02fe2241bbbf840cdf8e2fa501fea5a38af884024799704b0d9c3c91538054600160ff1991821681179092556307f5828d60e41b6000527fc82dc5f2518c2395ca0d51dc9b325ef0b4257094f40955b36ce2692f79e7f5af8054909116909117905562000955565b7f6193e49d899b753da8c8433ce9056a624e41a66c4def64ed86198ab352ac661b80546001600160a01b031916905560408051602081810190925260008082528052600990915262000277907fec8156718a8372b1db44bb411437d0870f3e3790d4a08526d024ce1b0b668f6b90600162000710565b5060007fec8156718a8372b1db44bb411437d0870f3e3790d4a08526d024ce1b0b668f6d81905560408051602081810190925282815291805260099052620002e3907fec8156718a8372b1db44bb411437d0870f3e3790d4a08526d024ce1b0b668f6e906001620007bd565b50600080805260096020527fec8156718a8372b1db44bb411437d0870f3e3790d4a08526d024ce1b0b668f6f8190557fec8156718a8372b1db44bb411437d0870f3e3790d4a08526d024ce1b0b668f7180546008547fec8156718a8372b1db44bb411437d0870f3e3790d4a08526d024ce1b0b668f72556001600160a81b03191633908117600160a01b179091557fec8156718a8372b1db44bb411437d0870f3e3790d4a08526d024ce1b0b668f7080546001600160a01b0319169091179055805460408051633215476b60e11b815290516001600160a01b03929092169163642a8ed6916004818101926080929091908290030181865afa158015620003ee573d6000803e3d6000fd5b505050506040513d601f19601f82011682018060405250810190620004149190620008b0565b905060005b60048110156200070c576000600960008484600481106200043e576200043e62000917565b6020908102919091015182528181019290925260409081016000908120818052600101835281812080546001600160a01b0319166001600160a01b0395909516949094179093558051918201905281815290600990848460048110620004a857620004a862000917565b60200201518152602001908152602001600020600001906001620004ce92919062000710565b50818160048110620004e457620004e462000917565b60200201516009600084846004811062000502576200050262000917565b602002015181526020019081526020016000206002018190555060405180602001604052808383600481106200053c576200053c62000917565b60200201519052600960008484600481106200055c576200055c62000917565b6020020151815260200190815260200160002060030190600162000582929190620007bd565b5081816004811062000598576200059862000917565b602002015160096000848460048110620005b657620005b662000917565b6020020151815260200190815260200160002060040181905550600160096000848460048110620005eb57620005eb62000917565b6020020151815260200190815260200160002060060160146101000a81548160ff0219169083151502179055506008546009600084846004811062000634576200063462000917565b6020020151815260200190815260200160002060070181905550336009600084846004811062000668576200066862000917565b6020020151815260200190815260200160002060060160006101000a8154816001600160a01b0302191690836001600160a01b031602179055503360096000848460048110620006bc57620006bc62000917565b6020020151815260200190815260200160002060050160006101000a8154816001600160a01b0302191690836001600160a01b03160217905550808062000703906200092d565b91505062000419565b5050565b82805482825590600052602060002090601f01602090048101928215620007ab5791602002820160005b838211156200077a57835183826101000a81548160ff021916908360ff16021790555092602001926001016020816000010492830192600103026200073a565b8015620007a95782816101000a81549060ff02191690556001016020816000010492830192600103026200077a565b505b50620007b9929150620007fb565b5090565b828054828255906000526020600020908101928215620007ab579160200282015b82811115620007ab578251825591602001919060010190620007de565b5b80821115620007b95760008155600101620007fc565b80516001600160a01b03811681146200082a57600080fd5b919050565b6000806000606084860312156200084557600080fd5b620008508462000812565b9250620008606020850162000812565b9150620008706040850162000812565b90509250925092565b604051608081016001600160401b0381118282101715620008aa57634e487b7160e01b600052604160045260246000fd5b60405290565b600060808284031215620008c357600080fd5b82601f830112620008d357600080fd5b620008dd62000879565b806080840185811115620008f057600080fd5b845b818110156200090c578051845260209384019301620008f2565b509095945050505050565b634e487b7160e01b600052603260045260246000fd5b6000600182016200094e57634e487b7160e01b600052601160045260246000fd5b5060010190565b6140b080620009656000396000f3fe6080604052600436106102fd5760003560e01c8063849a799c1161018f578063c5bc4c0b116100e1578063dbd4e0211161008a578063f61ccd5311610064578063f61ccd531461092e578063f79fe5381461094e578063f8c912441461098057600080fd5b8063dbd4e021146108db578063f2fde38b146108fb578063f544d82f1461091b57600080fd5b8063d2ec5fca116100bb578063d2ec5fca1461086b578063d31569051461089b578063d9b76ed4146108bb57600080fd5b8063c5bc4c0b14610815578063c7876ea414610835578063d07699aa1461084b57600080fd5b8063b069862811610143578063b782426e1161011d578063b782426e146107c2578063b9f37c86146107e2578063c0a43a7c1461080257600080fd5b8063b069862814610762578063b602024b14610782578063b612e9b9146107a257600080fd5b80638dcad139116101745780638dcad13914610670578063a22cb46514610690578063af6328f6146106b057600080fd5b8063849a799c146106325780638da5cb5b1461065257600080fd5b806322b68deb116102535780634d505584116101fc578063741b4cd0116101d6578063741b4cd0146105d25780638146970a146105f2578063836697261461061257600080fd5b80634d5055841461057d5780636ff248301461059d5780637362377b146105bd57600080fd5b80632f9267321161022d5780632f9267321461051d578063340268591461053d57806339de64691461055d57600080fd5b806322b68deb146104ce578063251c9422146104f257806329c68dc11461050857600080fd5b80630aac6625116102b55780631eabcd341161028f5780631eabcd341461046e5780631f06e91c1461048e57806321ec2b5b146104ae57600080fd5b80630aac6625146103f15780630e68b1161461041f5780631896f70a1461044c57600080fd5b806301ffc9a7116102e657806301ffc9a71461035f57806302fb0c5e1461039f57806305e84aa0146103d157600080fd5b80630178b8bf1461030257806301e51ae81461033f575b600080fd5b34801561030e57600080fd5b5061032261031d366004613a7d565b6109a0565b6040516001600160a01b0390911681526020015b60405180910390f35b34801561034b57600080fd5b50600354610322906001600160a01b031681565b34801561036b57600080fd5b5061038f61037a366004613acb565b60046020526000908152604090205460ff1681565b6040519015158152602001610336565b3480156103ab57600080fd5b5060035461038f9074010000000000000000000000000000000000000000900460ff1681565b3480156103dd57600080fd5b50600154610322906001600160a01b031681565b3480156103fd57600080fd5b5061041161040c366004613a7d565b610a2b565b604051610336929190613aed565b34801561042b57600080fd5b5061043f61043a366004613a7d565b610bfa565b6040516103369190613b74565b34801561045857600080fd5b5061046c610467366004613bcd565b610cc6565b005b34801561047a57600080fd5b50600254610322906001600160a01b031681565b34801561049a57600080fd5b5061046c6104a9366004613bfd565b610e8c565b3480156104ba57600080fd5b5061046c6104c9366004613a7d565b610efb565b3480156104da57600080fd5b506104e460085481565b604051908152602001610336565b3480156104fe57600080fd5b506104e460055481565b34801561051457600080fd5b5061046c6111e7565b34801561052957600080fd5b5061046c610538366004613bfd565b61128e565b34801561054957600080fd5b5061038f610558366004613a7d565b611400565b34801561056957600080fd5b5061046c610578366004613bfd565b611494565b34801561058957600080fd5b5061038f610598366004613c30565b611596565b3480156105a957600080fd5b5061046c6105b8366004613bfd565b61162a565b3480156105c957600080fd5b5061046c611867565b3480156105de57600080fd5b5061046c6105ed366004613d03565b61190d565b3480156105fe57600080fd5b5061046c61060d366004613bfd565b611b72565b34801561061e57600080fd5b5061046c61062d366004613db5565b611de8565b34801561063e57600080fd5b5061046c61064d366004613db5565b612089565b34801561065e57600080fd5b506003546001600160a01b0316610322565b34801561067c57600080fd5b5061046c61068b366004613bfd565b612324565b34801561069c57600080fd5b5061046c6106ab366004613e03565b6125e5565b3480156106bc57600080fd5b506107266106cb366004613a7d565b60096020526000908152604090206002810154600482015460058301546006840154600790940154929391926001600160a01b03918216929182169174010000000000000000000000000000000000000000900460ff169086565b6040805196875260208701959095526001600160a01b0393841694860194909452911660608401521515608083015260a082015260c001610336565b34801561076e57600080fd5b5061038f61077d366004613bcd565b61266f565b34801561078e57600080fd5b5061046c61079d366004613e2f565b612713565b3480156107ae57600080fd5b5061046c6107bd366004613c30565b612987565b3480156107ce57600080fd5b50600054610322906001600160a01b031681565b3480156107ee57600080fd5b50600754610322906001600160a01b031681565b61046c610810366004613e5d565b612cb1565b34801561082157600080fd5b506104e4610830366004613a7d565b612ddf565b34801561084157600080fd5b506104e460065481565b34801561085757600080fd5b5061046c610866366004613e79565b612e58565b34801561087757600080fd5b506104e4610886366004613a7d565b60009081526009602052604090206007015490565b3480156108a757600080fd5b5061046c6108b6366004613bcd565b613025565b3480156108c757600080fd5b5061046c6108d6366004613bcd565b6131e0565b3480156108e757600080fd5b506103226108f6366004613a7d565b61339b565b34801561090757600080fd5b5061046c610916366004613e9c565b61341d565b61046c610929366004613bfd565b6134eb565b34801561093a57600080fd5b506104e4610949366004613a7d565b61379c565b34801561095a57600080fd5b5061038f610969366004613a7d565b600090815260096020526040902060070154421090565b34801561098c57600080fd5b5061038f61099b366004613bfd565b6138a4565b60008181526009602052604081206007015482904210610a075760405162461bcd60e51b815260206004820152601060248201527f4d4f4c4543554c455f455850495245440000000000000000000000000000000060448201526064015b60405180910390fd5b6000838152600960205260409020600501546001600160a01b031691505b50919050565b600081815260096020526040902060070154606090819083904210610a925760405162461bcd60e51b815260206004820152601060248201527f4d4f4c4543554c455f455850495245440000000000000000000000000000000060448201526064016109fe565b60008481526009602090815260409182902080548351818402810184019094528084529091830182828015610b0457602002820191906000526020600020906000905b825461010083900a900460ff16815260206001928301818104948501949093039092029101808411610ad55790505b50505050509250825167ffffffffffffffff811115610b2557610b25613c5c565b604051908082528060200260200182016040528015610b4e578160200160208202803683370190505b50915060005b8351811015610bf357600960008681526020019081526020016000206001016000858381518110610b8757610b87613eb9565b602002602001015160ff1660ff16815260200190815260200160002060009054906101000a90046001600160a01b0316838281518110610bc957610bc9613eb9565b6001600160a01b039092166020928302919091019091015280610beb81613f17565b915050610b54565b5050915091565b60008181526009602052604090206007015460609082904210610c5f5760405162461bcd60e51b815260206004820152601060248201527f4d4f4c4543554c455f455850495245440000000000000000000000000000000060448201526064016109fe565b600083815260096020908152604080832060030180548251818502810185019093528083529192909190830182828015610cb857602002820191906000526020600020905b815481526020019060010190808311610ca4575b509398975050505050505050565b6000828152600960205260408082206002015460015491516302571be360e01b815260048101829052859391926001600160a01b0316906302571be390602401602060405180830381865afa158015610d23573d6000803e3d6000fd5b505050506040513d601f19601f82011682018060405250810190610d479190613f4f565b6007549091506001600160a01b0316331480610d6b57506001600160a01b03811633145b80610d9957506001600160a01b0381166000908152600a6020908152604080832033845290915290205460ff165b80610dbd57506000838152600960205260409020600601546001600160a01b031633145b610e095760405162461bcd60e51b815260206004820152600e60248201527f4e4f545f415554484f524953454400000000000000000000000000000000000060448201526064016109fe565b60008581526009602090815260409182902060050180547fffffffffffffffffffffffff0000000000000000000000000000000000000000166001600160a01b038816908117909155915191825286917f335721b01866dc23fbee8b6b2c7b1e14d6f05c28cd35a2c934239f94095602a091015b60405180910390a25050505050565b6007546001600160a01b03163314610ee65760405162461bcd60e51b815260206004820152600d60248201527f4e4f545f5245474953545241520000000000000000000000000000000000000060448201526064016109fe565b60009182526009602052604090912060040155565b6000818152600960205260408082206002015460015491516302571be360e01b815260048101829052849391926001600160a01b0316906302571be390602401602060405180830381865afa158015610f58573d6000803e3d6000fd5b505050506040513d601f19601f82011682018060405250810190610f7c9190613f4f565b6007549091506001600160a01b0316331480610fa057506001600160a01b03811633145b80610fce57506001600160a01b0381166000908152600a6020908152604080832033845290915290205460ff165b80610ff257506000838152600960205260409020600601546001600160a01b031633145b61103e5760405162461bcd60e51b815260206004820152600e60248201527f4e4f545f415554484f524953454400000000000000000000000000000000000060448201526064016109fe565b6000848152600960209081526040808320805482518185028101850190935280835291929091908301828280156110b257602002820191906000526020600020906000905b825461010083900a900460ff168152602060019283018181049485019490930390920291018084116110835790505b5050505050905060005b815181101561119d5760006009600088815260200190815260200160002060010160008484815181106110f1576110f1613eb9565b602002602001015160ff1660ff16815260200190815260200160002060006101000a8154816001600160a01b0302191690836001600160a01b03160217905550857fbf47c0c608c230f7dffbcf65f8cdc76f5f920e4750eea1dcd09138a7359226ac83838151811061116557611165613eb9565b6020026020010151604051611183919060ff91909116815260200190565b60405180910390a28061119581613f17565b9150506110bc565b5060008581526009602052604081206111b591613a44565b60405185907f6b91085369552b61ca16180a741663b69fb6b3b967f7271116521d84e2291dc590600090a25050505050565b6003546001600160a01b031633146112415760405162461bcd60e51b815260206004820152600760248201527f4e4f545f4445560000000000000000000000000000000000000000000000000060448201526064016109fe565b600380547fffffffffffffffffffffff00ffffffffffffffffffffffffffffffffffffffff8116740100000000000000000000000000000000000000009182900460ff1615909102179055565b6007546001600160a01b031633146112e85760405162461bcd60e51b815260206004820152600d60248201527f4e4f545f5245474953545241520000000000000000000000000000000000000060448201526064016109fe565b6001546040516302571be360e01b8152600481018390526000916001600160a01b0316906302571be390602401602060405180830381865afa158015611332573d6000803e3d6000fd5b505050506040513d601f19601f820116820180604052508101906113569190613f4f565b6001600160a01b0316036113ac5760405162461bcd60e51b815260206004820152600b60248201527f43414e4e4f545f4255524e00000000000000000000000000000000000000000060448201526064016109fe565b600082815260096020526040908190206002018290555182907f4810581adf2c16a86a375dbb1ed89b0b0f7e64d48d24e1948b3dfe6581e4d795906113f49084815260200190565b60405180910390a25050565b600081815260096020526040812060070154829042106114625760405162461bcd60e51b815260206004820152601060248201527f4d4f4c4543554c455f455850495245440000000000000000000000000000000060448201526064016109fe565b505060009081526009602052604090206006015474010000000000000000000000000000000000000000900460ff1690565b6007546001600160a01b031633146114ee5760405162461bcd60e51b815260206004820152600d60248201527f4e4f545f5245474953545241520000000000000000000000000000000000000060448201526064016109fe565b600082815260096020526040902060070154811161154e5760405162461bcd60e51b815260206004820152600a60248201527f4241445f4558504952590000000000000000000000000000000000000000000060448201526064016109fe565b600082815260096020526040908190206007018290555182907fa620b72378ee464490805a96e25b53e5c0076f0ce2d28f9691ae255a595b3bf3906113f49084815260200190565b600082815260096020908152604080832080548251818502810185019093528083526116209383018282801561160957602002820191906000526020600020906000905b825461010083900a900460ff168152602060019283018181049485019490930390920291018084116115da5790505b50505050508360ff1661391090919063ffffffff16565b1590505b92915050565b6000828152600960205260409020600701548290421061168c5760405162461bcd60e51b815260206004820152601060248201527f4d4f4c4543554c455f455850495245440000000000000000000000000000000060448201526064016109fe565b6000818152600960205260408082206002015460015491516302571be360e01b8152600481018290529092916001600160a01b0316906302571be390602401602060405180830381865afa1580156116e8573d6000803e3d6000fd5b505050506040513d601f19601f8201168201806040525081019061170c9190613f4f565b90506001600160a01b03811633148061174857506001600160a01b0381166000908152600a6020908152604080832033845290915290205460ff165b8061176c57506000838152600960205260409020600601546001600160a01b031633145b6117b85760405162461bcd60e51b815260206004820152601760248201527f4e4f545f4f574e45525f4f525f434f4e54524f4c4c455200000000000000000060448201526064016109fe565b6117c285856138a4565b61180e5760405162461bcd60e51b815260206004820152600c60248201527f414e494f4e5f455849535453000000000000000000000000000000000000000060448201526064016109fe565b6000858152600960209081526040808320600301805460018101825590845291909220018590555185907f600ffddd29393ca43c0a11fa6b0b7096631364178cb42f9d546c0a2cd22525ee90610e7d9087815260200190565b6003546040516000916001600160a01b03169047908381818185875af1925050503d80600081146118b4576040519150601f19603f3d011682016040523d82523d6000602084013e6118b9565b606091505b505090508061190a5760405162461bcd60e51b815260206004820152601360248201527f4554485f5452414e534645525f4641494c45440000000000000000000000000060448201526064016109fe565b50565b6000828152600960205260408082206002015460015491516302571be360e01b815260048101829052859391926001600160a01b0316906302571be390602401602060405180830381865afa15801561196a573d6000803e3d6000fd5b505050506040513d601f19601f8201168201806040525081019061198e9190613f4f565b6007549091506001600160a01b03163314806119b257506001600160a01b03811633145b806119e057506001600160a01b0381166000908152600a6020908152604080832033845290915290205460ff165b80611a0457506000838152600960205260409020600601546001600160a01b031633145b611a505760405162461bcd60e51b815260206004820152600e60248201527f4e4f545f415554484f524953454400000000000000000000000000000000000060448201526064016109fe565b60005b8451811015611b41576000868152600960209081526040918290206003018054835181840281018401909452808452611ae39392830182828015611ab657602002820191906000526020600020905b815481526020019060010190808311611aa2575b5050505050868381518110611acd57611acd613eb9565b602002602001015161396990919063ffffffff16565b611b2f5760096000878152602001908152602001600020600301858281518110611b0f57611b0f613eb9565b602090810291909101810151825460018101845560009384529190922001555b80611b3981613f17565b915050611a53565b50847f580d99949e5d5a02f35dc5b91b800697d53dccb814e200f24f97b4bfbeb8667c85604051610e7d9190613b74565b60008281526009602052604090206007015482904210611bd45760405162461bcd60e51b815260206004820152601060248201527f4d4f4c4543554c455f455850495245440000000000000000000000000000000060448201526064016109fe565b6000818152600960205260408082206002015460015491516302571be360e01b8152600481018290529092916001600160a01b0316906302571be390602401602060405180830381865afa158015611c30573d6000803e3d6000fd5b505050506040513d601f19601f82011682018060405250810190611c549190613f4f565b90506001600160a01b038116331480611c9057506001600160a01b0381166000908152600a6020908152604080832033845290915290205460ff165b611cdc5760405162461bcd60e51b815260206004820152600960248201527f4e4f545f4f574e4552000000000000000000000000000000000000000000000060448201526064016109fe565b6001546040516302571be360e01b8152600481018690526000916001600160a01b0316906302571be390602401602060405180830381865afa158015611d26573d6000803e3d6000fd5b505050506040513d601f19601f82011682018060405250810190611d4a9190613f4f565b6001600160a01b031603611da05760405162461bcd60e51b815260206004820152600b60248201527f43414e4e4f545f4255524e00000000000000000000000000000000000000000060448201526064016109fe565b600085815260096020526040908190206002018590555185907f4810581adf2c16a86a375dbb1ed89b0b0f7e64d48d24e1948b3dfe6581e4d79590610e7d9087815260200190565b60008381526009602052604090206007015483904210611e4a5760405162461bcd60e51b815260206004820152601060248201527f4d4f4c4543554c455f455850495245440000000000000000000000000000000060448201526064016109fe565b6000818152600960205260408082206002015460015491516302571be360e01b8152600481018290529092916001600160a01b0316906302571be390602401602060405180830381865afa158015611ea6573d6000803e3d6000fd5b505050506040513d601f19601f82011682018060405250810190611eca9190613f4f565b90506001600160a01b038116331480611f0657506001600160a01b0381166000908152600a6020908152604080832033845290915290205460ff165b80611f2a57506000838152600960205260409020600601546001600160a01b031633145b611f765760405162461bcd60e51b815260206004820152601760248201527f4e4f545f4f574e45525f4f525f434f4e54524f4c4c455200000000000000000060448201526064016109fe565b600086815260096020908152604080832060ff881684526001019091529020546001600160a01b03808716911603611ff05760405162461bcd60e51b815260206004820152600b60248201527f52554c455f45584953545300000000000000000000000000000000000000000060448201526064016109fe565b600086815260096020908152604080832060ff8816808552600190910183529281902080547fffffffffffffffffffffffff0000000000000000000000000000000000000000166001600160a01b038a1690811790915581519081529182019290925287917fe43a78ddf6157361fe34d04905786138f88d3eda20b1f7dc0e2c619f9267310091015b60405180910390a2505050505050565b600083815260096020526040902060070154839042106120eb5760405162461bcd60e51b815260206004820152601060248201527f4d4f4c4543554c455f455850495245440000000000000000000000000000000060448201526064016109fe565b6000818152600960205260408082206002015460015491516302571be360e01b8152600481018290529092916001600160a01b0316906302571be390602401602060405180830381865afa158015612147573d6000803e3d6000fd5b505050506040513d601f19601f8201168201806040525081019061216b9190613f4f565b90506001600160a01b0381163314806121a757506001600160a01b0381166000908152600a6020908152604080832033845290915290205460ff165b806121cb57506000838152600960205260409020600601546001600160a01b031633145b6122175760405162461bcd60e51b815260206004820152601760248201527f4e4f545f4f574e45525f4f525f434f4e54524f4c4c455200000000000000000060448201526064016109fe565b6122218685611596565b61226d5760405162461bcd60e51b815260206004820152600b60248201527f484f4f4b5f45584953545300000000000000000000000000000000000000000060448201526064016109fe565b600086815260096020908152604080832080546001808201835582865284862085830401805460ff8c8116601f9095166101000a85810291021990911617905581865290910183529281902080546001600160a01b038a167fffffffffffffffffffffffff0000000000000000000000000000000000000000909116811790915581519081529182019290925287917fc733a2bc621cc97eef6ed4f708f126e72e6acb76c0a1c0461c9dd31f7b9870659101612079565b600082815260096020526040902060070154829042106123865760405162461bcd60e51b815260206004820152601060248201527f4d4f4c4543554c455f455850495245440000000000000000000000000000000060448201526064016109fe565b6000818152600960205260408082206002015460015491516302571be360e01b8152600481018290529092916001600160a01b0316906302571be390602401602060405180830381865afa1580156123e2573d6000803e3d6000fd5b505050506040513d601f19601f820116820180604052508101906124069190613f4f565b90506001600160a01b03811633148061244257506001600160a01b0381166000908152600a6020908152604080832033845290915290205460ff165b8061246657506000838152600960205260409020600601546001600160a01b031633145b6124b25760405162461bcd60e51b815260206004820152601760248201527f4e4f545f4f574e45525f4f525f434f4e54524f4c4c455200000000000000000060448201526064016109fe565b60008581526009602090815260408083206003018054825181850281018501909352808352919290919083018282801561250b57602002820191906000526020600020905b8154815260200190600101908083116124f7575b50505050509050612525818661396990919063ffffffff16565b156125ab57600061253686836139b2565b60008881526009602052604090206003018054919250908290811061255d5761255d613eb9565b9060005260206000200160009055867f5c379d054844760656a56e062f50208b458cfa0c4427574f5a2828d19602b4e98760405161259d91815260200190565b60405180910390a2506125dd565b6040517f62316f6700000000000000000000000000000000000000000000000000000000815260040160405180910390fd5b505050505050565b336000818152600a602090815260408083206001600160a01b0387168085529083529281902080547fffffffffffffffffffffffffffffffffffffffffffffffffffffffffffffff001686151590811790915590519081529192917f17307eab39ab6107e8899845ad3d59bd9653f200f220920489ca2b5937696c31910160405180910390a35050565b6001546040516302571be360e01b81526004810184905260009182916001600160a01b03909116906302571be390602401602060405180830381865afa1580156126bd573d6000803e3d6000fd5b505050506040513d601f19601f820116820180604052508101906126e19190613f4f565b6001600160a01b039081166000908152600a602090815260408083209387168352929052205460ff1691505092915050565b6003546001600160a01b0316331461276d5760405162461bcd60e51b815260206004820152600760248201527f4e4f545f4445560000000000000000000000000000000000000000000000000060448201526064016109fe565b600080546001600160a01b038085167fffffffffffffffffffffffff000000000000000000000000000000000000000092831681179093556002805491851691909216179055604080517f642a8ed6000000000000000000000000000000000000000000000000000000008152905163642a8ed6916004808201926080929091908290030181865afa158015612807573d6000803e3d6000fd5b505050506040513d601f19601f8201168201806040525081019061282b9190613f6c565b60409081015160055560025481517fbd9a548b00000000000000000000000000000000000000000000000000000000815291516001600160a01b039091169163bd9a548b9160048083019260809291908290030181865afa158015612894573d6000803e3d6000fd5b505050506040513d601f19601f820116820180604052508101906128b89190613f6c565b60409081015160065560005481517f4d3f733400000000000000000000000000000000000000000000000000000000815291516001600160a01b0390911691634d3f73349160048083019260809291908290030181865afa158015612921573d6000803e3d6000fd5b505050506040513d601f19601f820116820180604052508101906129459190613fcc565b60026020020151600780547fffffffffffffffffffffffff0000000000000000000000000000000000000000166001600160a01b039092169190911790555050565b600082815260096020526040902060070154829042106129e95760405162461bcd60e51b815260206004820152601060248201527f4d4f4c4543554c455f455850495245440000000000000000000000000000000060448201526064016109fe565b6000818152600960205260408082206002015460015491516302571be360e01b8152600481018290529092916001600160a01b0316906302571be390602401602060405180830381865afa158015612a45573d6000803e3d6000fd5b505050506040513d601f19601f82011682018060405250810190612a699190613f4f565b90506001600160a01b038116331480612aa557506001600160a01b0381166000908152600a6020908152604080832033845290915290205460ff165b80612ac957506000838152600960205260409020600601546001600160a01b031633145b612b155760405162461bcd60e51b815260206004820152601760248201527f4e4f545f4f574e45525f4f525f434f4e54524f4c4c455200000000000000000060448201526064016109fe565b600085815260096020908152604080832080548251818502810185019093528083529192909190830182828015612b8957602002820191906000526020600020906000905b825461010083900a900460ff16815260206001928301818104948501949093039092029101808411612b5a5790505b50505050509050612ba6818660ff1661391090919063ffffffff16565b15612c7f576000612bba60ff8716836139f8565b600088815260096020908152604080832060ff8b16808552600190910183529281902080547fffffffffffffffffffffffff00000000000000000000000000000000000000001690555191825291925088917fbf47c0c608c230f7dffbcf65f8cdc76f5f920e4750eea1dcd09138a7359226ac910160405180910390a26000878152600960205260409020805482908110612c5757612c57613eb9565b90600052602060002090602091828204019190066101000a81549060ff0219169055506125dd565b6040517fe8dd1d3e00000000000000000000000000000000000000000000000000000000815260040160405180910390fd5b6003546001600160a01b03163314612d0b5760405162461bcd60e51b815260206004820152600760248201527f4e4f545f4445560000000000000000000000000000000000000000000000000060448201526064016109fe565b7fffffffff000000000000000000000000000000000000000000000000000000008083169003612d7d5760405162461bcd60e51b815260206004820152601a60248201527f494e56414c49445f494e544552464143455f53454c4543544f5200000000000060448201526064016109fe565b7fffffffff0000000000000000000000000000000000000000000000000000000091909116600090815260046020526040902080547fffffffffffffffffffffffffffffffffffffffffffffffffffffffffffffff0016911515919091179055565b60008181526009602052604081206007015482904210612e415760405162461bcd60e51b815260206004820152601060248201527f4d4f4c4543554c455f455850495245440000000000000000000000000000000060448201526064016109fe565b505060009081526009602052604090206004015490565b6000828152600960205260408082206002015460015491516302571be360e01b815260048101829052859391926001600160a01b0316906302571be390602401602060405180830381865afa158015612eb5573d6000803e3d6000fd5b505050506040513d601f19601f82011682018060405250810190612ed99190613f4f565b6007549091506001600160a01b0316331480612efd57506001600160a01b03811633145b80612f2b57506001600160a01b0381166000908152600a6020908152604080832033845290915290205460ff165b80612f4f57506000838152600960205260409020600601546001600160a01b031633145b612f9b5760405162461bcd60e51b815260206004820152600e60248201527f4e4f545f415554484f524953454400000000000000000000000000000000000060448201526064016109fe565b60008581526009602052604090819020600601805486151574010000000000000000000000000000000000000000027fffffffffffffffffffffff00ffffffffffffffffffffffffffffffffffffffff9091161790555185907fe6ccdb52b4954ab2c3e293f1dbfe593e6c5630962a1944bfcf20c5563eeb846290610e7d90871515815260200190565b6000828152600960205260408082206002015460015491516302571be360e01b815260048101829052859391926001600160a01b0316906302571be390602401602060405180830381865afa158015613082573d6000803e3d6000fd5b505050506040513d601f19601f820116820180604052508101906130a69190613f4f565b6007549091506001600160a01b03163314806130ca57506001600160a01b03811633145b806130f857506001600160a01b0381166000908152600a6020908152604080832033845290915290205460ff165b8061311c57506000838152600960205260409020600601546001600160a01b031633145b6131685760405162461bcd60e51b815260206004820152600e60248201527f4e4f545f415554484f524953454400000000000000000000000000000000000060448201526064016109fe565b60008581526009602090815260409182902060060180547fffffffffffffffffffffffff0000000000000000000000000000000000000000166001600160a01b038816908117909155915191825286917fe5108446a6097aab57fd36f346a515a78fddefa87d81662d44e0d7a463f920959101610e7d565b6000828152600960205260408082206002015460015491516302571be360e01b815260048101829052859391926001600160a01b0316906302571be390602401602060405180830381865afa15801561323d573d6000803e3d6000fd5b505050506040513d601f19601f820116820180604052508101906132619190613f4f565b6007549091506001600160a01b031633148061328557506001600160a01b03811633145b806132b357506001600160a01b0381166000908152600a6020908152604080832033845290915290205460ff165b806132d757506000838152600960205260409020600601546001600160a01b031633145b6133235760405162461bcd60e51b815260206004820152600e60248201527f4e4f545f415554484f524953454400000000000000000000000000000000000060448201526064016109fe565b60008581526009602090815260409182902060050180547fffffffffffffffffffffffff0000000000000000000000000000000000000000166001600160a01b038816908117909155915191825286917fcb71326aeaad88869e8be8be2893e1119f7617ce4ea2411af127e218909be1f79101610e7d565b600081815260096020526040812060070154829042106133fd5760405162461bcd60e51b815260206004820152601060248201527f4d4f4c4543554c455f455850495245440000000000000000000000000000000060448201526064016109fe565b50506000908152600960205260409020600601546001600160a01b031690565b6003546001600160a01b031633146134775760405162461bcd60e51b815260206004820152600760248201527f4e4f545f4445560000000000000000000000000000000000000000000000000060448201526064016109fe565b6003546040516001600160a01b038084169216907f8be0079c531659141344cd1fd0a4f28419497f9722a3daafe3b4186f6b6457e090600090a3600380547fffffffffffffffffffffffff0000000000000000000000000000000000000000166001600160a01b0392909216919091179055565b6000828152600960205260409020600701548290421061354d5760405162461bcd60e51b815260206004820152601060248201527f4d4f4c4543554c455f455850495245440000000000000000000000000000000060448201526064016109fe565b6000818152600960205260408082206002015460015491516302571be360e01b8152600481018290529092916001600160a01b0316906302571be390602401602060405180830381865afa1580156135a9573d6000803e3d6000fd5b505050506040513d601f19601f820116820180604052508101906135cd9190613f4f565b90506001600160a01b03811633148061360957506001600160a01b0381166000908152600a6020908152604080832033845290915290205460ff165b8061362d57506000838152600960205260409020600601546001600160a01b031633145b6136795760405162461bcd60e51b815260206004820152601760248201527f4e4f545f4f574e45525f4f525f434f4e54524f4c4c455200000000000000000060448201526064016109fe565b60008581526009602052604090206007015484116136d95760405162461bcd60e51b815260206004820152600a60248201527f4241445f4558504952590000000000000000000000000000000000000000000060448201526064016109fe565b6000858152600960205260408120600701546136f5908661402a565b905060065481613705919061403d565b3410156137545760405162461bcd60e51b815260206004820152601260248201527f494e53554646494349454e545f4554484552000000000000000000000000000060448201526064016109fe565b600086815260096020526040908190206007018690555186907fa620b72378ee464490805a96e25b53e5c0076f0ce2d28f9691ae255a595b3bf3906120799088815260200190565b600081815260096020526040812060070154829042106137fe5760405162461bcd60e51b815260206004820152601060248201527f4d4f4c4543554c455f455850495245440000000000000000000000000000000060448201526064016109fe565b6000838152600960205260408082206002015460015491516302571be360e01b8152600481018290529092916001600160a01b0316906302571be390602401602060405180830381865afa15801561385a573d6000803e3d6000fd5b505050506040513d601f19601f8201168201806040525081019061387e9190613f4f565b9050306001600160a01b0382160361389c5760055493505050610a25565b509392505050565b60008281526009602090815260408083206003018054825181850281018501909352808352611620938301828280156138fc57602002820191906000526020600020905b8154815260200190600101908083116138e8575b50505050508361396990919063ffffffff16565b6000805b825181101561395f578360ff1683828151811061393357613933613eb9565b602002602001015160ff160361394d576001915050611624565b8061395781613f17565b915050613914565b5060009392505050565b6000805b825181101561395f578383828151811061398957613989613eb9565b6020026020010151036139a0576001915050611624565b806139aa81613f17565b91505061396d565b6000805b825181101561395f57838382815181106139d2576139d2613eb9565b6020026020010151036139e6579050611624565b806139f081613f17565b9150506139b6565b6000805b825181101561395f578360ff16838281518110613a1b57613a1b613eb9565b602002602001015160ff1603613a32579050611624565b80613a3c81613f17565b9150506139fc565b50805460008255601f01602090049060005260206000209081019061190a91905b80821115613a795760008155600101613a65565b5090565b600060208284031215613a8f57600080fd5b5035919050565b80357fffffffff0000000000000000000000000000000000000000000000000000000081168114613ac657600080fd5b919050565b600060208284031215613add57600080fd5b613ae682613a96565b9392505050565b604080825283519082018190526000906020906060840190828701845b82811015613b2957815160ff1684529284019290840190600101613b0a565b5050508381038285015284518082528583019183019060005b81811015613b675783516001600160a01b031683529284019291840191600101613b42565b5090979650505050505050565b6020808252825182820181905260009190848201906040850190845b81811015613bac57835183529284019291840191600101613b90565b50909695505050505050565b6001600160a01b038116811461190a57600080fd5b60008060408385031215613be057600080fd5b823591506020830135613bf281613bb8565b809150509250929050565b60008060408385031215613c1057600080fd5b50508035926020909101359150565b803560ff81168114613ac657600080fd5b60008060408385031215613c4357600080fd5b82359150613c5360208401613c1f565b90509250929050565b7f4e487b7100000000000000000000000000000000000000000000000000000000600052604160045260246000fd5b6040516080810167ffffffffffffffff81118282101715613cae57613cae613c5c565b60405290565b604051601f82017fffffffffffffffffffffffffffffffffffffffffffffffffffffffffffffffe016810167ffffffffffffffff81118282101715613cfb57613cfb613c5c565b604052919050565b60008060408385031215613d1657600080fd5b8235915060208084013567ffffffffffffffff80821115613d3657600080fd5b818601915086601f830112613d4a57600080fd5b813581811115613d5c57613d5c613c5c565b8060051b9150613d6d848301613cb4565b8181529183018401918481019089841115613d8757600080fd5b938501935b83851015613da557843582529385019390850190613d8c565b8096505050505050509250929050565b600080600060608486031215613dca57600080fd5b833592506020840135613ddc81613bb8565b9150613dea60408501613c1f565b90509250925092565b80358015158114613ac657600080fd5b60008060408385031215613e1657600080fd5b8235613e2181613bb8565b9150613c5360208401613df3565b60008060408385031215613e4257600080fd5b8235613e4d81613bb8565b91506020830135613bf281613bb8565b60008060408385031215613e7057600080fd5b613e2183613a96565b60008060408385031215613e8c57600080fd5b82359150613c5360208401613df3565b600060208284031215613eae57600080fd5b8135613ae681613bb8565b7f4e487b7100000000000000000000000000000000000000000000000000000000600052603260045260246000fd5b7f4e487b7100000000000000000000000000000000000000000000000000000000600052601160045260246000fd5b60007fffffffffffffffffffffffffffffffffffffffffffffffffffffffffffffffff8203613f4857613f48613ee8565b5060010190565b600060208284031215613f6157600080fd5b8151613ae681613bb8565b600060808284031215613f7e57600080fd5b82601f830112613f8d57600080fd5b613f95613c8b565b806080840185811115613fa757600080fd5b845b81811015613fc1578051845260209384019301613fa9565b509095945050505050565b600060808284031215613fde57600080fd5b82601f830112613fed57600080fd5b613ff5613c8b565b80608084018581111561400757600080fd5b845b81811015613fc157805161401c81613bb8565b845260209384019301614009565b8181038181111561162457611624613ee8565b6000817fffffffffffffffffffffffffffffffffffffffffffffffffffffffffffffffff048311821515161561407557614075613ee8565b50029056fea2646970667358221220459270561e5f8db7e7daa7dab0ecbce3ccff45d33e14ef9dd42da5ba8f5cd6c264736f6c63430008100033",
    "linkReferences": {}
  },
  "methodIdentifiers": {
    "Dev()": "01e51ae8",
    "HELIX2()": "b782426e",
    "Molecules(bytes32)": "af6328f6",
    "NAMES()": "05e84aa0",
    "PRICES()": "1eabcd34",
    "Registrar()": "b9f37c86",
    "active()": "02fb0c5e",
    "addAnion(bytes32,bytes32)": "6ff24830",
    "alias_(bytes32)": "c5bc4c0b",
    "anion(bytes32)": "0e68b116",
    "basePrice()": "c7876ea4",
    "cation(bytes32)": "f61ccd53",
    "controller(bytes32)": "dbd4e021",
    "covalence(bytes32)": "34026859",
    "expiry(bytes32)": "d2ec5fca",
    "hook(bytes32,address,uint8)": "849a799c",
    "hooksWithRules(bytes32)": "0aac6625",
    "isApprovedForAll(bytes32,address)": "b0698628",
    "isNotDuplicateAnion(bytes32,bytes32)": "f8c91244",
    "isNotDuplicateHook(bytes32,uint8)": "4d505584",
    "owner()": "8da5cb5b",
    "popAnion(bytes32,bytes32)": "8dcad139",
    "recordExists(bytes32)": "f79fe538",
    "register(bytes32,bytes32)": "2f926732",
    "rehook(bytes32,address,uint8)": "83669726",
    "renew(bytes32,uint256)": "f544d82f",
    "resolver(bytes32)": "0178b8bf",
    "roothash()": "251c9422",
    "setAlias(bytes32,bytes32)": "1f06e91c",
    "setAnions(bytes32,bytes32[])": "741b4cd0",
    "setApprovalForAll(address,bool)": "a22cb465",
    "setCation(bytes32,bytes32)": "8146970a",
    "setConfig(address,address)": "b602024b",
    "setController(bytes32,address)": "d3156905",
    "setCovalence(bytes32,bool)": "d07699aa",
    "setExpiry(bytes32,uint256)": "39de6469",
    "setInterface(bytes4,bool)": "c0a43a7c",
    "setRecord(bytes32,address)": "d9b76ed4",
    "setResolver(bytes32,address)": "1896f70a",
    "supportsInterface(bytes4)": "01ffc9a7",
    "theEnd()": "22b68deb",
    "toggleActive()": "29c68dc1",
    "transferOwnership(address)": "f2fde38b",
    "unhook(bytes32,uint8)": "b612e9b9",
    "unhookAll(bytes32)": "21ec2b5b",
    "withdrawEther()": "7362377b"
  },
  "id": 28
}