{
  "abi": [
    {
      "inputs": [
        {
          "internalType": "address",
          "name": "_registry",
          "type": "address"
        },
        {
          "internalType": "address",
          "name": "_helix2",
          "type": "address"
        }
      ],
      "stateMutability": "nonpayable",
      "type": "constructor"
    },
    {
      "inputs": [
        {
          "internalType": "bytes32",
          "name": "moleculehash",
          "type": "bytes32"
        },
        {
          "internalType": "bytes32",
          "name": "anion",
          "type": "bytes32"
        }
      ],
      "name": "BAD_ANION",
      "type": "error"
    },
    {
      "inputs": [],
      "name": "BAD_HOOK",
      "type": "error"
    },
    {
      "anonymous": false,
      "inputs": [
        {
          "indexed": true,
          "internalType": "address",
          "name": "cation",
          "type": "address"
        },
        {
          "indexed": true,
          "internalType": "address",
          "name": "operator",
          "type": "address"
        },
        {
          "indexed": false,
          "internalType": "bool",
          "name": "approved",
          "type": "bool"
        }
      ],
      "name": "ApprovalForAll",
      "type": "event"
    },
    {
      "anonymous": false,
      "inputs": [
        {
          "indexed": true,
          "internalType": "bytes32",
          "name": "molyhash",
          "type": "bytes32"
        },
        {
          "indexed": false,
          "internalType": "address",
          "name": "config",
          "type": "address"
        },
        {
          "indexed": false,
          "internalType": "uint8",
          "name": "rule",
          "type": "uint8"
        }
      ],
      "name": "Hooked",
      "type": "event"
    },
    {
      "anonymous": false,
      "inputs": [
        {
          "indexed": true,
          "internalType": "bytes32",
          "name": "molyhash",
          "type": "bytes32"
        },
        {
          "indexed": false,
          "internalType": "bytes32",
          "name": "_alias",
          "type": "bytes32"
        }
      ],
      "name": "NewAlias",
      "type": "event"
    },
    {
      "anonymous": false,
      "inputs": [
        {
          "indexed": true,
          "internalType": "bytes32",
          "name": "molyhash",
          "type": "bytes32"
        },
        {
          "indexed": false,
          "internalType": "bytes32",
          "name": "anion",
          "type": "bytes32"
        }
      ],
      "name": "NewAnion",
      "type": "event"
    },
    {
      "anonymous": false,
      "inputs": [
        {
          "indexed": true,
          "internalType": "bytes32",
          "name": "molyhash",
          "type": "bytes32"
        },
        {
          "indexed": false,
          "internalType": "bytes32[]",
          "name": "anion",
          "type": "bytes32[]"
        }
      ],
      "name": "NewAnions",
      "type": "event"
    },
    {
      "anonymous": false,
      "inputs": [
        {
          "indexed": true,
          "internalType": "bytes32",
          "name": "molyhash",
          "type": "bytes32"
        },
        {
          "indexed": false,
          "internalType": "bytes32",
          "name": "cation",
          "type": "bytes32"
        }
      ],
      "name": "NewCation",
      "type": "event"
    },
    {
      "anonymous": false,
      "inputs": [
        {
          "indexed": true,
          "internalType": "bytes32",
          "name": "molyhash",
          "type": "bytes32"
        },
        {
          "indexed": false,
          "internalType": "address",
          "name": "controller",
          "type": "address"
        }
      ],
      "name": "NewController",
      "type": "event"
    },
    {
      "anonymous": false,
      "inputs": [
        {
          "indexed": true,
          "internalType": "bytes32",
          "name": "molyhash",
          "type": "bytes32"
        },
        {
          "indexed": false,
          "internalType": "bool",
          "name": "covalence",
          "type": "bool"
        }
      ],
      "name": "NewCovalence",
      "type": "event"
    },
    {
      "anonymous": false,
      "inputs": [
        {
          "indexed": false,
          "internalType": "address",
          "name": "Dev",
          "type": "address"
        },
        {
          "indexed": false,
          "internalType": "address",
          "name": "newDev",
          "type": "address"
        }
      ],
      "name": "NewDev",
      "type": "event"
    },
    {
      "anonymous": false,
      "inputs": [
        {
          "indexed": true,
          "internalType": "bytes32",
          "name": "molyhash",
          "type": "bytes32"
        },
        {
          "indexed": false,
          "internalType": "uint256",
          "name": "expiry",
          "type": "uint256"
        }
      ],
      "name": "NewExpiry",
      "type": "event"
    },
    {
      "anonymous": false,
      "inputs": [
        {
          "indexed": true,
          "internalType": "bytes32",
          "name": "molyhash",
          "type": "bytes32"
        },
        {
          "indexed": false,
          "internalType": "bytes32",
          "name": "cation",
          "type": "bytes32"
        }
      ],
      "name": "NewMolecule",
      "type": "event"
    },
    {
      "anonymous": false,
      "inputs": [
        {
          "indexed": true,
          "internalType": "bytes32",
          "name": "molyhash",
          "type": "bytes32"
        },
        {
          "indexed": false,
          "internalType": "address",
          "name": "resolver",
          "type": "address"
        }
      ],
      "name": "NewRecord",
      "type": "event"
    },
    {
      "anonymous": false,
      "inputs": [
        {
          "indexed": true,
          "internalType": "bytes32",
          "name": "molyhash",
          "type": "bytes32"
        },
        {
          "indexed": false,
          "internalType": "bytes32",
          "name": "cation",
          "type": "bytes32"
        }
      ],
      "name": "NewRegistration",
      "type": "event"
    },
    {
      "anonymous": false,
      "inputs": [
        {
          "indexed": true,
          "internalType": "bytes32",
          "name": "molyhash",
          "type": "bytes32"
        },
        {
          "indexed": false,
          "internalType": "address",
          "name": "resolver",
          "type": "address"
        }
      ],
      "name": "NewResolver",
      "type": "event"
    },
    {
      "anonymous": false,
      "inputs": [
        {
          "indexed": true,
          "internalType": "bytes32",
          "name": "molyhash",
          "type": "bytes32"
        },
        {
          "indexed": false,
          "internalType": "bytes32",
          "name": "anion",
          "type": "bytes32"
        }
      ],
      "name": "PopAnion",
      "type": "event"
    },
    {
      "anonymous": false,
      "inputs": [
        {
          "indexed": true,
          "internalType": "bytes32",
          "name": "molyhash",
          "type": "bytes32"
        },
        {
          "indexed": false,
          "internalType": "address",
          "name": "config",
          "type": "address"
        },
        {
          "indexed": false,
          "internalType": "uint8",
          "name": "rule",
          "type": "uint8"
        }
      ],
      "name": "Rehooked",
      "type": "event"
    },
    {
      "anonymous": false,
      "inputs": [
        {
          "indexed": true,
          "internalType": "bytes32",
          "name": "molyhash",
          "type": "bytes32"
        },
        {
          "indexed": false,
          "internalType": "address",
          "name": "config",
          "type": "address"
        }
      ],
      "name": "Unhooked",
      "type": "event"
    },
    {
      "anonymous": false,
      "inputs": [
        {
          "indexed": true,
          "internalType": "bytes32",
          "name": "molyhash",
          "type": "bytes32"
        }
      ],
      "name": "UnhookedAll",
      "type": "event"
    },
    {
      "inputs": [],
      "name": "Dev",
      "outputs": [
        {
          "internalType": "address",
          "name": "",
          "type": "address"
        }
      ],
      "stateMutability": "view",
      "type": "function"
    },
    {
      "inputs": [],
      "name": "HELIX2",
      "outputs": [
        {
          "internalType": "contract iHELIX2",
          "name": "",
          "type": "address"
        }
      ],
      "stateMutability": "view",
      "type": "function"
    },
    {
      "inputs": [
        {
          "internalType": "bytes32",
          "name": "",
          "type": "bytes32"
        }
      ],
      "name": "Molecules",
      "outputs": [
        {
          "internalType": "bytes32",
          "name": "_cation",
          "type": "bytes32"
        },
        {
          "internalType": "bytes32",
          "name": "_alias",
          "type": "bytes32"
        },
        {
          "internalType": "address",
          "name": "_resolver",
          "type": "address"
        },
        {
          "internalType": "address",
          "name": "_controller",
          "type": "address"
        },
        {
          "internalType": "bool",
          "name": "_covalence",
          "type": "bool"
        },
        {
          "internalType": "uint256",
          "name": "_expiry",
          "type": "uint256"
        }
      ],
      "stateMutability": "view",
      "type": "function"
    },
    {
      "inputs": [],
      "name": "NAMES",
      "outputs": [
        {
          "internalType": "contract iNAME",
          "name": "",
          "type": "address"
        }
      ],
      "stateMutability": "view",
      "type": "function"
    },
    {
      "inputs": [],
      "name": "Registrar",
      "outputs": [
        {
          "internalType": "address",
          "name": "",
          "type": "address"
        }
      ],
      "stateMutability": "view",
      "type": "function"
    },
    {
      "inputs": [],
      "name": "active",
      "outputs": [
        {
          "internalType": "bool",
          "name": "",
          "type": "bool"
        }
      ],
      "stateMutability": "view",
      "type": "function"
    },
    {
      "inputs": [
        {
          "internalType": "bytes32",
          "name": "molyhash",
          "type": "bytes32"
        },
        {
          "internalType": "bytes32",
          "name": "_anion",
          "type": "bytes32"
        }
      ],
      "name": "addAnion",
      "outputs": [],
      "stateMutability": "nonpayable",
      "type": "function"
    },
    {
      "inputs": [
        {
          "internalType": "bytes32",
          "name": "molyhash",
          "type": "bytes32"
        }
      ],
      "name": "alias_",
      "outputs": [
        {
          "internalType": "bytes32",
          "name": "",
          "type": "bytes32"
        }
      ],
      "stateMutability": "view",
      "type": "function"
    },
    {
      "inputs": [
        {
          "internalType": "bytes32",
          "name": "molyhash",
          "type": "bytes32"
        }
      ],
      "name": "anion",
      "outputs": [
        {
          "internalType": "bytes32[]",
          "name": "",
          "type": "bytes32[]"
        }
      ],
      "stateMutability": "view",
      "type": "function"
    },
    {
      "inputs": [],
      "name": "basePrice",
      "outputs": [
        {
          "internalType": "uint256",
          "name": "",
          "type": "uint256"
        }
      ],
      "stateMutability": "view",
      "type": "function"
    },
    {
      "inputs": [
        {
          "internalType": "bytes32",
          "name": "molyhash",
          "type": "bytes32"
        }
      ],
      "name": "cation",
      "outputs": [
        {
          "internalType": "bytes32",
          "name": "",
          "type": "bytes32"
        }
      ],
      "stateMutability": "view",
      "type": "function"
    },
    {
      "inputs": [
        {
          "internalType": "address",
          "name": "newDev",
          "type": "address"
        }
      ],
      "name": "changeDev",
      "outputs": [],
      "stateMutability": "nonpayable",
      "type": "function"
    },
    {
      "inputs": [
        {
          "internalType": "bytes32",
          "name": "molyhash",
          "type": "bytes32"
        }
      ],
      "name": "controller",
      "outputs": [
        {
          "internalType": "address",
          "name": "",
          "type": "address"
        }
      ],
      "stateMutability": "view",
      "type": "function"
    },
    {
      "inputs": [
        {
          "internalType": "bytes32",
          "name": "molyhash",
          "type": "bytes32"
        }
      ],
      "name": "covalence",
      "outputs": [
        {
          "internalType": "bool",
          "name": "",
          "type": "bool"
        }
      ],
      "stateMutability": "view",
      "type": "function"
    },
    {
      "inputs": [
        {
          "internalType": "bytes32",
          "name": "molyhash",
          "type": "bytes32"
        }
      ],
      "name": "expiry",
      "outputs": [
        {
          "internalType": "uint256",
          "name": "",
          "type": "uint256"
        }
      ],
      "stateMutability": "view",
      "type": "function"
    },
    {
      "inputs": [
        {
          "internalType": "bytes32",
          "name": "molyhash",
          "type": "bytes32"
        },
        {
          "internalType": "uint8",
          "name": "rule",
          "type": "uint8"
        },
        {
          "internalType": "address",
          "name": "config",
          "type": "address"
        }
      ],
      "name": "hook",
      "outputs": [],
      "stateMutability": "nonpayable",
      "type": "function"
    },
    {
      "inputs": [
        {
          "internalType": "bytes32",
          "name": "molyhash",
          "type": "bytes32"
        }
      ],
      "name": "hooksWithRules",
      "outputs": [
        {
          "internalType": "address[]",
          "name": "_hooks",
          "type": "address[]"
        },
        {
          "internalType": "uint8[]",
          "name": "_rules",
          "type": "uint8[]"
        }
      ],
      "stateMutability": "view",
      "type": "function"
    },
    {
      "inputs": [
        {
          "internalType": "bytes32",
          "name": "_cation",
          "type": "bytes32"
        },
        {
          "internalType": "address",
          "name": "operator",
          "type": "address"
        }
      ],
      "name": "isApprovedForAll",
      "outputs": [
        {
          "internalType": "bool",
          "name": "",
          "type": "bool"
        }
      ],
      "stateMutability": "view",
      "type": "function"
    },
    {
      "inputs": [
        {
          "internalType": "bytes32",
          "name": "molyhash",
          "type": "bytes32"
        },
        {
          "internalType": "bytes32",
          "name": "_anion",
          "type": "bytes32"
        }
      ],
      "name": "isNotDuplicateAnion",
      "outputs": [
        {
          "internalType": "bool",
          "name": "",
          "type": "bool"
        }
      ],
      "stateMutability": "view",
      "type": "function"
    },
    {
      "inputs": [
        {
          "internalType": "bytes32",
          "name": "molyhash",
          "type": "bytes32"
        },
        {
          "internalType": "address",
          "name": "config",
          "type": "address"
        }
      ],
      "name": "isNotDuplicateHook",
      "outputs": [
        {
          "internalType": "bool",
          "name": "",
          "type": "bool"
        }
      ],
      "stateMutability": "view",
      "type": "function"
    },
    {
      "inputs": [
        {
          "internalType": "bytes32",
          "name": "molyhash",
          "type": "bytes32"
        },
        {
          "internalType": "bytes32",
          "name": "__anion",
          "type": "bytes32"
        }
      ],
      "name": "popAnion",
      "outputs": [],
      "stateMutability": "nonpayable",
      "type": "function"
    },
    {
      "inputs": [
        {
          "internalType": "bytes32",
          "name": "molyhash",
          "type": "bytes32"
        }
      ],
      "name": "recordExists",
      "outputs": [
        {
          "internalType": "bool",
          "name": "",
          "type": "bool"
        }
      ],
      "stateMutability": "view",
      "type": "function"
    },
    {
      "inputs": [
        {
          "internalType": "bytes32",
          "name": "molyhash",
          "type": "bytes32"
        },
        {
          "internalType": "bytes32",
          "name": "_cation",
          "type": "bytes32"
        }
      ],
      "name": "register",
      "outputs": [],
      "stateMutability": "nonpayable",
      "type": "function"
    },
    {
      "inputs": [
        {
          "internalType": "bytes32",
          "name": "molyhash",
          "type": "bytes32"
        },
        {
          "internalType": "uint8",
          "name": "rule",
          "type": "uint8"
        },
        {
          "internalType": "address",
          "name": "config",
          "type": "address"
        }
      ],
      "name": "rehook",
      "outputs": [],
      "stateMutability": "nonpayable",
      "type": "function"
    },
    {
      "inputs": [
        {
          "internalType": "bytes32",
          "name": "molyhash",
          "type": "bytes32"
        },
        {
          "internalType": "uint256",
          "name": "_expiry",
          "type": "uint256"
        }
      ],
      "name": "renew",
      "outputs": [],
      "stateMutability": "payable",
      "type": "function"
    },
    {
      "inputs": [
        {
          "internalType": "bytes32",
          "name": "molyhash",
          "type": "bytes32"
        }
      ],
      "name": "resolver",
      "outputs": [
        {
          "internalType": "address",
          "name": "",
          "type": "address"
        }
      ],
      "stateMutability": "view",
      "type": "function"
    },
    {
      "inputs": [],
      "name": "roothash",
      "outputs": [
        {
          "internalType": "bytes32",
          "name": "",
          "type": "bytes32"
        }
      ],
      "stateMutability": "view",
      "type": "function"
    },
    {
      "inputs": [
        {
          "internalType": "bytes32",
          "name": "molyhash",
          "type": "bytes32"
        },
        {
          "internalType": "bytes32",
          "name": "_alias",
          "type": "bytes32"
        }
      ],
      "name": "setAlias",
      "outputs": [],
      "stateMutability": "nonpayable",
      "type": "function"
    },
    {
      "inputs": [
        {
          "internalType": "bytes32",
          "name": "molyhash",
          "type": "bytes32"
        },
        {
          "internalType": "bytes32[]",
          "name": "_anion",
          "type": "bytes32[]"
        }
      ],
      "name": "setAnions",
      "outputs": [],
      "stateMutability": "nonpayable",
      "type": "function"
    },
    {
      "inputs": [
        {
          "internalType": "address",
          "name": "operator",
          "type": "address"
        },
        {
          "internalType": "bool",
          "name": "approved",
          "type": "bool"
        }
      ],
      "name": "setApprovalForAll",
      "outputs": [],
      "stateMutability": "nonpayable",
      "type": "function"
    },
    {
      "inputs": [
        {
          "internalType": "bytes32",
          "name": "molyhash",
          "type": "bytes32"
        },
        {
          "internalType": "bytes32",
          "name": "_cation",
          "type": "bytes32"
        }
      ],
      "name": "setCation",
      "outputs": [],
      "stateMutability": "nonpayable",
      "type": "function"
    },
    {
      "inputs": [
        {
          "internalType": "bytes32",
          "name": "molyhash",
          "type": "bytes32"
        },
        {
          "internalType": "address",
          "name": "_controller",
          "type": "address"
        }
      ],
      "name": "setController",
      "outputs": [],
      "stateMutability": "nonpayable",
      "type": "function"
    },
    {
      "inputs": [
        {
          "internalType": "bytes32",
          "name": "molyhash",
          "type": "bytes32"
        },
        {
          "internalType": "bool",
          "name": "_covalence",
          "type": "bool"
        }
      ],
      "name": "setCovalence",
      "outputs": [],
      "stateMutability": "nonpayable",
      "type": "function"
    },
    {
      "inputs": [
        {
          "internalType": "bytes32",
          "name": "molyhash",
          "type": "bytes32"
        },
        {
          "internalType": "uint256",
          "name": "_expiry",
          "type": "uint256"
        }
      ],
      "name": "setExpiry",
      "outputs": [],
      "stateMutability": "nonpayable",
      "type": "function"
    },
    {
      "inputs": [
        {
          "internalType": "bytes32",
          "name": "molyhash",
          "type": "bytes32"
        },
        {
          "internalType": "address",
          "name": "_resolver",
          "type": "address"
        }
      ],
      "name": "setRecord",
      "outputs": [],
      "stateMutability": "nonpayable",
      "type": "function"
    },
    {
      "inputs": [
        {
          "internalType": "bytes32",
          "name": "molyhash",
          "type": "bytes32"
        },
        {
          "internalType": "address",
          "name": "_resolver",
          "type": "address"
        }
      ],
      "name": "setResolver",
      "outputs": [],
      "stateMutability": "nonpayable",
      "type": "function"
    },
    {
      "inputs": [],
      "name": "theEnd",
      "outputs": [
        {
          "internalType": "uint256",
          "name": "",
          "type": "uint256"
        }
      ],
      "stateMutability": "view",
      "type": "function"
    },
    {
      "inputs": [
        {
          "internalType": "bytes32",
          "name": "molyhash",
          "type": "bytes32"
        },
        {
          "internalType": "address",
          "name": "config",
          "type": "address"
        }
      ],
      "name": "unhook",
      "outputs": [],
      "stateMutability": "nonpayable",
      "type": "function"
    },
    {
      "inputs": [
        {
          "internalType": "bytes32",
          "name": "molyhash",
          "type": "bytes32"
        },
        {
          "internalType": "uint256",
          "name": "init",
          "type": "uint256"
        }
      ],
      "name": "unhookAll",
      "outputs": [],
      "stateMutability": "nonpayable",
      "type": "function"
    },
    {
      "inputs": [],
      "name": "withdrawEther",
      "outputs": [],
      "stateMutability": "nonpayable",
      "type": "function"
    }
  ],
  "bytecode": {
    "object": "0x60806040526002805460ff60a01b1916600160a01b1790556703782dace9d900006006553480156200003057600080fd5b5060405162004c4238038062004c4283398101604081905262000053916200075b565b60028054336001600160a01b0319918216179091556000805482166001600160a01b03848116918217909255600180549093169185169190911790915560408051633215476b60e11b8152905163642a8ed6916004808201926080929091908290030181865afa158015620000cc573d6000803e3d6000fd5b505050506040513d601f19601f82011682018060405250810190620000f29190620007ca565b604090810151600355600054815163bd9a548b60e01b815291516001600160a01b039091169163bd9a548b9160048083019260809291908290030181865afa15801562000143573d6000803e3d6000fd5b505050506040513d601f19601f82011682018060405250810190620001699190620007ca565b604001516004556200017a62000182565b50506200086f565b7fb4b4801cca1cad359bff6b5ea99d95160f00cbe1164fb7231c42c3e8b5f2593b805460ff19169055604080516020818101909252600080825280526007909152620001f2907f6d5257204ebe7d88fd91ae87941cb2dd9d8062b64ae5a2bd2d28ec40b9fbf6df9060016200067f565b5060007f6d5257204ebe7d88fd91ae87941cb2dd9d8062b64ae5a2bd2d28ec40b9fbf6e1819055604080516020818101909252828152918052600790526200025e907f6d5257204ebe7d88fd91ae87941cb2dd9d8062b64ae5a2bd2d28ec40b9fbf6e2906001620006e9565b50600080805260076020527f6d5257204ebe7d88fd91ae87941cb2dd9d8062b64ae5a2bd2d28ec40b9fbf6e38190557f6d5257204ebe7d88fd91ae87941cb2dd9d8062b64ae5a2bd2d28ec40b9fbf6e580546006547f6d5257204ebe7d88fd91ae87941cb2dd9d8062b64ae5a2bd2d28ec40b9fbf6e6556001600160a81b03191633908117600160a01b179091557f6d5257204ebe7d88fd91ae87941cb2dd9d8062b64ae5a2bd2d28ec40b9fbf6e480546001600160a01b0319169091179055805460408051633215476b60e11b815290516001600160a01b03929092169163642a8ed6916004818101926080929091908290030181865afa15801562000369573d6000803e3d6000fd5b505050506040513d601f19601f820116820180604052508101906200038f9190620007ca565b905060005b60048110156200067b57600060076000848460048110620003b957620003b962000831565b60209081029190910151825281810192909252604090810160009081208180526001018352818120805460ff191660ff9590951694909417909355805191820190528181529060079084846004811062000417576200041762000831565b602002015181526020019081526020016000206000019060016200043d9291906200067f565b5081816004811062000453576200045362000831565b60200201516007600084846004811062000471576200047162000831565b60200201518152602001908152602001600020600201819055506040518060200160405280838360048110620004ab57620004ab62000831565b6020020151905260076000848460048110620004cb57620004cb62000831565b60200201518152602001908152602001600020600301906001620004f1929190620006e9565b5081816004811062000507576200050762000831565b60200201516007600084846004811062000525576200052562000831565b60200201518152602001908152602001600020600401819055506001600760008484600481106200055a576200055a62000831565b6020020151815260200190815260200160002060060160146101000a81548160ff02191690831515021790555060065460076000848460048110620005a357620005a362000831565b60200201518152602001908152602001600020600701819055503360076000848460048110620005d757620005d762000831565b6020020151815260200190815260200160002060060160006101000a8154816001600160a01b0302191690836001600160a01b0316021790555033600760008484600481106200062b576200062b62000831565b6020020151815260200190815260200160002060050160006101000a8154816001600160a01b0302191690836001600160a01b031602179055508080620006729062000847565b91505062000394565b5050565b828054828255906000526020600020908101928215620006d7579160200282015b82811115620006d757825182546001600160a01b0319166001600160a01b03909116178255602090920191600190910190620006a0565b50620006e592915062000727565b5090565b828054828255906000526020600020908101928215620006d7579160200282015b82811115620006d75782518255916020019190600101906200070a565b5b80821115620006e5576000815560010162000728565b80516001600160a01b03811681146200075657600080fd5b919050565b600080604083850312156200076f57600080fd5b6200077a836200073e565b91506200078a602084016200073e565b90509250929050565b604051608081016001600160401b0381118282101715620007c457634e487b7160e01b600052604160045260246000fd5b60405290565b600060808284031215620007dd57600080fd5b82601f830112620007ed57600080fd5b620007f762000793565b8060808401858111156200080a57600080fd5b845b81811015620008265780518452602093840193016200080c565b509095945050505050565b634e487b7160e01b600052603260045260246000fd5b6000600182016200086857634e487b7160e01b600052601160045260246000fd5b5060010190565b6143c3806200087f6000396000f3fe6080604052600436106102bb5760003560e01c80638146970a1161016e578063c7876ea4116100cb578063dbd4e0211161007f578063f61ccd5311610064578063f61ccd531461083a578063f79fe5381461085a578063f8c912441461088d57600080fd5b8063dbd4e02114610807578063f544d82f1461082757600080fd5b8063d2ec5fca116100b0578063d2ec5fca14610796578063d3156905146107c7578063d9b76ed4146107e757600080fd5b8063c7876ea414610760578063d07699aa1461077657600080fd5b8063b069862811610122578063b782426e11610107578063b782426e14610700578063b9f37c8614610720578063c5bc4c0b1461074057600080fd5b8063b0698628146106c0578063b2dd2e55146106e057600080fd5b80638dcad139116101535780638dcad139146105cb578063a22cb465146105eb578063af6328f61461060b57600080fd5b80638146970a1461058b57806388a8c95c146105ab57600080fd5b806322b68deb1161021c57806339de6469116101d05780636ff24830116101b55780636ff24830146105365780637362377b14610556578063741b4cd01461056b57600080fd5b806339de6469146104f657806351a764421461051657600080fd5b8063251c942211610201578063251c9422146104a05780632f926732146104b657806334026859146104d657600080fd5b806322b68deb1461045c578063241270d51461048057600080fd5b806305e84aa0116102735780630e68b116116102585780630e68b116146103ef5780631896f70a1461041c5780631f06e91c1461043c57600080fd5b806305e84aa0146103a15780630aac6625146103c157600080fd5b806301e51ae8116102a457806301e51ae81461031f57806302fb0c5e1461033f578063049a491c1461038157600080fd5b8063015399e6146102c05780630178b8bf146102e2575b600080fd5b3480156102cc57600080fd5b506102e06102db366004613d66565b6108ad565b005b3480156102ee57600080fd5b506103026102fd366004613dae565b610b36565b6040516001600160a01b0390911681526020015b60405180910390f35b34801561032b57600080fd5b50600254610302906001600160a01b031681565b34801561034b57600080fd5b506002546103719074010000000000000000000000000000000000000000900460ff1681565b6040519015158152602001610316565b34801561038d57600080fd5b5061037161039c366004613dc7565b610bbc565b3480156103ad57600080fd5b50600154610302906001600160a01b031681565b3480156103cd57600080fd5b506103e16103dc366004613dae565b610c6e565b604051610316929190613df7565b3480156103fb57600080fd5b5061040f61040a366004613dae565b610e2b565b6040516103169190613e7e565b34801561042857600080fd5b506102e0610437366004613dc7565b610efa565b34801561044857600080fd5b506102e0610457366004613ec2565b61114c565b34801561046857600080fd5b5061047260065481565b604051908152602001610316565b34801561048c57600080fd5b506102e061049b366004613dc7565b611292565b3480156104ac57600080fd5b5061047260035481565b3480156104c257600080fd5b506102e06104d1366004613ec2565b6116f5565b3480156104e257600080fd5b506103716104f1366004613dae565b61192d565b34801561050257600080fd5b506102e0610511366004613ec2565b6119c1565b34801561052257600080fd5b506102e0610531366004613d66565b611b5c565b34801561054257600080fd5b506102e0610551366004613ec2565b611dde565b34801561056257600080fd5b506102e0612067565b34801561057757600080fd5b506102e0610586366004613f62565b61210d565b34801561059757600080fd5b506102e06105a6366004613ec2565b61242d565b3480156105b757600080fd5b506102e06105c6366004614014565b6126a4565b3480156105d757600080fd5b506102e06105e6366004613ec2565b612774565b3480156105f757600080fd5b506102e0610606366004614046565b612b8e565b34801561061757600080fd5b50610684610626366004613dae565b600760208190526000918252604090912060028101546004820154600583015460068401549390940154919390926001600160a01b0391821692918116917401000000000000000000000000000000000000000090910460ff169086565b6040805196875260208701959095526001600160a01b0393841694860194909452911660608401521515608083015260a082015260c001610316565b3480156106cc57600080fd5b506103716106db366004613dc7565b612bfa565b3480156106ec57600080fd5b506102e06106fb366004613ec2565b612c9e565b34801561070c57600080fd5b50600054610302906001600160a01b031681565b34801561072c57600080fd5b50600554610302906001600160a01b031681565b34801561074c57600080fd5b5061047261075b366004613dae565b61306b565b34801561076c57600080fd5b5061047260045481565b34801561078257600080fd5b506102e0610791366004614074565b6130e4565b3480156107a257600080fd5b506104726107b1366004613dae565b6000908152600760208190526040909120015490565b3480156107d357600080fd5b506102e06107e2366004613dc7565b613348565b3480156107f357600080fd5b506102e0610802366004613dc7565b61358f565b34801561081357600080fd5b50610302610822366004613dae565b6137d6565b6102e0610835366004613ec2565b613858565b34801561084657600080fd5b50610472610855366004613dae565b613bb3565b34801561086657600080fd5b50610371610875366004613dae565b60009081526007602081905260409091200154421090565b34801561089957600080fd5b506103716108a8366004613ec2565b613cbb565b60008381526007602081905260409091200154839042106109155760405162461bcd60e51b815260206004820152600c60248201527f424f4e445f45585049524544000000000000000000000000000000000000000060448201526064015b60405180910390fd5b6000818152600760205260408082206002015460015491516302571be360e01b8152600481018290529092916001600160a01b0316906302571be390602401602060405180830381865afa158015610971573d6000803e3d6000fd5b505050506040513d601f19601f820116820180604052508101906109959190614099565b90506001600160a01b0381163314806109d157506001600160a01b038116600090815260086020908152604080832033845290915290205460ff165b806109f557506000838152600760205260409020600601546001600160a01b031633145b610a415760405162461bcd60e51b815260206004820152601760248201527f4e4f545f4f574e45525f4f525f434f4e54524f4c4c4552000000000000000000604482015260640161090c565b60008681526007602090815260408083206001600160a01b038816845260010190915290205460ff808716911603610abb5760405162461bcd60e51b815260206004820152600b60248201527f52554c455f455849535453000000000000000000000000000000000000000000604482015260640161090c565b60008681526007602090815260408083206001600160a01b0388168085526001909101835292819020805460ff191660ff8a1690811790915581519384529183019190915287917fe43a78ddf6157361fe34d04905786138f88d3eda20b1f7dc0e2c619f9267310091015b60405180910390a2505050505050565b60008181526007602081905260408220015482904210610b985760405162461bcd60e51b815260206004820152601060248201527f4d4f4c4543554c455f4558504952454400000000000000000000000000000000604482015260640161090c565b6000838152600760205260409020600501546001600160a01b031691505b50919050565b60008281526007602052604080822090517f2306f46600000000000000000000000000000000000000000000000000000000815273__$47e4ffaaf323c41735ff299f8946896ce0$__91632306f46691610c23916001600160a01b038716916004016140b6565b602060405180830381865af4158015610c40573d6000803e3d6000fd5b505050506040513d601f19601f82011682018060405250810190610c649190614116565b1590505b92915050565b6060808260076000828152602001908152602001600020600701544210610cd75760405162461bcd60e51b815260206004820152601060248201527f4d4f4c4543554c455f4558504952454400000000000000000000000000000000604482015260640161090c565b60008481526007602090815260409182902080548351818402810184019094528084529091830182828015610d3557602002820191906000526020600020905b81546001600160a01b03168152600190910190602001808311610d17575b50505050509250825167ffffffffffffffff811115610d5657610d56613ee4565b604051908082528060200260200182016040528015610d7f578160200160208202803683370190505b50915060005b8351811015610e2457600760008681526020019081526020016000206001016000858381518110610db857610db8614133565b60200260200101516001600160a01b03166001600160a01b0316815260200190815260200160002060009054906101000a900460ff16838281518110610e0057610e00614133565b60ff9092166020928302919091019091015280610e1c81614191565b915050610d85565b5050915091565b60608160076000828152602001908152602001600020600701544210610e935760405162461bcd60e51b815260206004820152601060248201527f4d4f4c4543554c455f4558504952454400000000000000000000000000000000604482015260640161090c565b600083815260076020908152604080832060030180548251818502810185019093528083529192909190830182828015610eec57602002820191906000526020600020905b815481526020019060010190808311610ed8575b509398975050505050505050565b6000546040805163134fdccd60e21b8152905184926001600160a01b031691634d3f73349160048083019260809291908290030181865afa158015610f43573d6000803e3d6000fd5b505050506040513d601f19601f82011682018060405250810190610f6791906141c9565b604090810151600580546001600160a01b0392831673ffffffffffffffffffffffffffffffffffffffff19909116179055600083815260076020528281206002015460015493516302571be360e01b8152600481018290529093919291909116906302571be390602401602060405180830381865afa158015610fee573d6000803e3d6000fd5b505050506040513d601f19601f820116820180604052508101906110129190614099565b6005549091506001600160a01b031633148061103657506001600160a01b03811633145b8061106457506001600160a01b038116600090815260086020908152604080832033845290915290205460ff165b8061108857506000838152600760205260409020600601546001600160a01b031633145b6110d45760405162461bcd60e51b815260206004820152600e60248201527f4e4f545f415554484f5249534544000000000000000000000000000000000000604482015260640161090c565b600085815260076020908152604091829020600501805473ffffffffffffffffffffffffffffffffffffffff19166001600160a01b038816908117909155915191825286917f335721b01866dc23fbee8b6b2c7b1e14d6f05c28cd35a2c934239f94095602a091015b60405180910390a25050505050565b60008054906101000a90046001600160a01b03166001600160a01b0316634d3f73346040518163ffffffff1660e01b8152600401608060405180830381865afa15801561119d573d6000803e3d6000fd5b505050506040513d601f19601f820116820180604052508101906111c191906141c9565b604001516005805473ffffffffffffffffffffffffffffffffffffffff19166001600160a01b039092169182179055331461123e5760405162461bcd60e51b815260206004820152600d60248201527f4e4f545f52454749535452415200000000000000000000000000000000000000604482015260640161090c565b600082815260076020526040908190206004018290555182907f4247841fd58468a6fb10925898bdd83c426da7b5519ee71597106dfdc6751229906112869084815260200190565b60405180910390a25050565b60008281526007602081905260409091200154829042106112f55760405162461bcd60e51b815260206004820152600c60248201527f424f4e445f455850495245440000000000000000000000000000000000000000604482015260640161090c565b6000818152600760205260408082206002015460015491516302571be360e01b8152600481018290529092916001600160a01b0316906302571be390602401602060405180830381865afa158015611351573d6000803e3d6000fd5b505050506040513d601f19601f820116820180604052508101906113759190614099565b90506001600160a01b0381163314806113b157506001600160a01b038116600090815260086020908152604080832033845290915290205460ff165b806113d557506000838152600760205260409020600601546001600160a01b031633145b6114215760405162461bcd60e51b815260206004820152601760248201527f4e4f545f4f574e45525f4f525f434f4e54524f4c4c4552000000000000000000604482015260640161090c565b60008581526007602090815260408083208054825181850281018501909352808352919290919083018282801561148157602002820191906000526020600020905b81546001600160a01b03168152600190910190602001808311611463575b50506040517f2306f46600000000000000000000000000000000000000000000000000000000815293945073__$47e4ffaaf323c41735ff299f8946896ce0$__93632306f46693506114e492506001600160a01b038a1691508590600401614250565b602060405180830381865af4158015611501573d6000803e3d6000fd5b505050506040513d601f19601f820116820180604052508101906115259190614116565b156116ba576040517fcd23ef4c00000000000000000000000000000000000000000000000000000000815260009073__$47e4ffaaf323c41735ff299f8946896ce0$__9063cd23ef4c90611588906001600160a01b038a16908690600401614250565b602060405180830381865af41580156115a5573d6000803e3d6000fd5b505050506040513d601f19601f820116820180604052508101906115c9919061429d565b90508061160b576040516000815287907fc4c4b4793ac649a3a05ee26afdd6d54122cea2e3298a195a786ab7e899c21e349060200160405180910390a26116b4565b60008781526007602090815260408083206001600160a01b038a168085526001909101835292819020805460ff191690555191825288917fc4c4b4793ac649a3a05ee26afdd6d54122cea2e3298a195a786ab7e899c21e34910160405180910390a2600087815260076020526040902080548290811061168d5761168d614133565b6000918252602090912001805473ffffffffffffffffffffffffffffffffffffffff191690555b506116ed565b6040516000815286907fc4c4b4793ac649a3a05ee26afdd6d54122cea2e3298a195a786ab7e899c21e3490602001610b26565b505050505050565b60008054906101000a90046001600160a01b03166001600160a01b0316634d3f73346040518163ffffffff1660e01b8152600401608060405180830381865afa158015611746573d6000803e3d6000fd5b505050506040513d601f19601f8201168201806040525081019061176a91906141c9565b604001516005805473ffffffffffffffffffffffffffffffffffffffff19166001600160a01b03909216918217905533146117e75760405162461bcd60e51b815260206004820152600d60248201527f4e4f545f52454749535452415200000000000000000000000000000000000000604482015260640161090c565b6001546040516302571be360e01b8152600481018390526000916001600160a01b0316906302571be390602401602060405180830381865afa158015611831573d6000803e3d6000fd5b505050506040513d601f19601f820116820180604052508101906118559190614099565b6001600160a01b0316036118ab5760405162461bcd60e51b815260206004820152600b60248201527f43414e4e4f545f4255524e000000000000000000000000000000000000000000604482015260640161090c565b600082815260076020526040908190206002018290555182907f4810581adf2c16a86a375dbb1ed89b0b0f7e64d48d24e1948b3dfe6581e4d795906118f39084815260200190565b60405180910390a2817facb5de0f65735f798ae8baf163fb3380a7813aca2c739ba9e39179007206585a8260405161128691815260200190565b6000818152600760208190526040822001548290421061198f5760405162461bcd60e51b815260206004820152601060248201527f4d4f4c4543554c455f4558504952454400000000000000000000000000000000604482015260640161090c565b505060009081526007602052604090206006015474010000000000000000000000000000000000000000900460ff1690565b60008054906101000a90046001600160a01b03166001600160a01b0316634d3f73346040518163ffffffff1660e01b8152600401608060405180830381865afa158015611a12573d6000803e3d6000fd5b505050506040513d601f19601f82011682018060405250810190611a3691906141c9565b604001516005805473ffffffffffffffffffffffffffffffffffffffff19166001600160a01b0390921691821790553314611ab35760405162461bcd60e51b815260206004820152600d60248201527f4e4f545f52454749535452415200000000000000000000000000000000000000604482015260640161090c565b600082815260076020819052604090912001548111611b145760405162461bcd60e51b815260206004820152600a60248201527f4241445f45585049525900000000000000000000000000000000000000000000604482015260640161090c565b600082815260076020819052604091829020018290555182907fa620b72378ee464490805a96e25b53e5c0076f0ce2d28f9691ae255a595b3bf3906112869084815260200190565b6000838152600760208190526040909120015483904210611bbf5760405162461bcd60e51b815260206004820152600c60248201527f424f4e445f455850495245440000000000000000000000000000000000000000604482015260640161090c565b6000818152600760205260408082206002015460015491516302571be360e01b8152600481018290529092916001600160a01b0316906302571be390602401602060405180830381865afa158015611c1b573d6000803e3d6000fd5b505050506040513d601f19601f82011682018060405250810190611c3f9190614099565b90506001600160a01b038116331480611c7b57506001600160a01b038116600090815260086020908152604080832033845290915290205460ff165b80611c9f57506000838152600760205260409020600601546001600160a01b031633145b611ceb5760405162461bcd60e51b815260206004820152601760248201527f4e4f545f4f574e45525f4f525f434f4e54524f4c4c4552000000000000000000604482015260640161090c565b611cf58685610bbc565b611d415760405162461bcd60e51b815260206004820152600b60248201527f484f4f4b5f455849535453000000000000000000000000000000000000000000604482015260640161090c565b6000868152600760209081526040808320805460018082018355828652848620909101805473ffffffffffffffffffffffffffffffffffffffff19166001600160a01b038b169081179091558086529101835292819020805460ff191660ff8a1690811790915581519384529183019190915287917fc733a2bc621cc97eef6ed4f708f126e72e6acb76c0a1c0461c9dd31f7b9870659101610b26565b6000546040805163134fdccd60e21b8152905184926001600160a01b031691634d3f73349160048083019260809291908290030181865afa158015611e27573d6000803e3d6000fd5b505050506040513d601f19601f82011682018060405250810190611e4b91906141c9565b604090810151600580546001600160a01b0392831673ffffffffffffffffffffffffffffffffffffffff19909116179055600083815260076020528281206002015460015493516302571be360e01b8152600481018290529093919291909116906302571be390602401602060405180830381865afa158015611ed2573d6000803e3d6000fd5b505050506040513d601f19601f82011682018060405250810190611ef69190614099565b6005549091506001600160a01b0316331480611f1a57506001600160a01b03811633145b80611f4857506001600160a01b038116600090815260086020908152604080832033845290915290205460ff165b80611f6c57506000838152600760205260409020600601546001600160a01b031633145b611fb85760405162461bcd60e51b815260206004820152600e60248201527f4e4f545f415554484f5249534544000000000000000000000000000000000000604482015260640161090c565b611fc28585613cbb565b61200e5760405162461bcd60e51b815260206004820152600c60248201527f414e494f4e5f4558495354530000000000000000000000000000000000000000604482015260640161090c565b6000858152600760209081526040808320600301805460018101825590845291909220018590555185907f600ffddd29393ca43c0a11fa6b0b7096631364178cb42f9d546c0a2cd22525ee9061113d9087815260200190565b6002546040516000916001600160a01b03169047908381818185875af1925050503d80600081146120b4576040519150601f19603f3d011682016040523d82523d6000602084013e6120b9565b606091505b505090508061210a5760405162461bcd60e51b815260206004820152601360248201527f4554485f5452414e534645525f4641494c454400000000000000000000000000604482015260640161090c565b50565b6000546040805163134fdccd60e21b8152905184926001600160a01b031691634d3f73349160048083019260809291908290030181865afa158015612156573d6000803e3d6000fd5b505050506040513d601f19601f8201168201806040525081019061217a91906141c9565b604090810151600580546001600160a01b0392831673ffffffffffffffffffffffffffffffffffffffff19909116179055600083815260076020528281206002015460015493516302571be360e01b8152600481018290529093919291909116906302571be390602401602060405180830381865afa158015612201573d6000803e3d6000fd5b505050506040513d601f19601f820116820180604052508101906122259190614099565b6005549091506001600160a01b031633148061224957506001600160a01b03811633145b8061227757506001600160a01b038116600090815260086020908152604080832033845290915290205460ff165b8061229b57506000838152600760205260409020600601546001600160a01b031633145b6122e75760405162461bcd60e51b815260206004820152600e60248201527f4e4f545f415554484f5249534544000000000000000000000000000000000000604482015260640161090c565b60005b84518110156123fc5784818151811061230557612305614133565b602002602001015173__$47e4ffaaf323c41735ff299f8946896ce0$__636fd8c6859091600760008a81526020019081526020016000206003016040518363ffffffff1660e01b815260040161235c9291906142b6565b602060405180830381865af4158015612379573d6000803e3d6000fd5b505050506040513d601f19601f8201168201806040525081019061239d9190614116565b156123ea57600760008781526020019081526020016000206003018582815181106123ca576123ca614133565b602090810291909101810151825460018101845560009384529190922001555b806123f481614191565b9150506122ea565b50847f580d99949e5d5a02f35dc5b91b800697d53dccb814e200f24f97b4bfbeb8667c8560405161113d9190613e7e565b60008281526007602081905260409091200154829042106124905760405162461bcd60e51b815260206004820152601060248201527f4d4f4c4543554c455f4558504952454400000000000000000000000000000000604482015260640161090c565b6000818152600760205260408082206002015460015491516302571be360e01b8152600481018290529092916001600160a01b0316906302571be390602401602060405180830381865afa1580156124ec573d6000803e3d6000fd5b505050506040513d601f19601f820116820180604052508101906125109190614099565b90506001600160a01b03811633148061254c57506001600160a01b038116600090815260086020908152604080832033845290915290205460ff165b6125985760405162461bcd60e51b815260206004820152600960248201527f4e4f545f4f574e45520000000000000000000000000000000000000000000000604482015260640161090c565b6001546040516302571be360e01b8152600481018690526000916001600160a01b0316906302571be390602401602060405180830381865afa1580156125e2573d6000803e3d6000fd5b505050506040513d601f19601f820116820180604052508101906126069190614099565b6001600160a01b03160361265c5760405162461bcd60e51b815260206004820152600b60248201527f43414e4e4f545f4255524e000000000000000000000000000000000000000000604482015260640161090c565b600085815260076020526040908190206002018590555185907f4810581adf2c16a86a375dbb1ed89b0b0f7e64d48d24e1948b3dfe6581e4d7959061113d9087815260200190565b6002546001600160a01b031633146126fe5760405162461bcd60e51b815260206004820152600760248201527f4e4f545f44455600000000000000000000000000000000000000000000000000604482015260640161090c565b600254604080516001600160a01b03928316815291831660208301527fdec101f106d4fc7c85791843e64b198248c822298e3ed7046231d33f7783d816910160405180910390a16002805473ffffffffffffffffffffffffffffffffffffffff19166001600160a01b0392909216919091179055565b6000546040805163134fdccd60e21b8152905184926001600160a01b031691634d3f73349160048083019260809291908290030181865afa1580156127bd573d6000803e3d6000fd5b505050506040513d601f19601f820116820180604052508101906127e191906141c9565b604090810151600580546001600160a01b0392831673ffffffffffffffffffffffffffffffffffffffff19909116179055600083815260076020528281206002015460015493516302571be360e01b8152600481018290529093919291909116906302571be390602401602060405180830381865afa158015612868573d6000803e3d6000fd5b505050506040513d601f19601f8201168201806040525081019061288c9190614099565b6005549091506001600160a01b03163314806128b057506001600160a01b03811633145b806128de57506001600160a01b038116600090815260086020908152604080832033845290915290205460ff165b8061290257506000838152600760205260409020600601546001600160a01b031633145b61294e5760405162461bcd60e51b815260206004820152600e60248201527f4e4f545f415554484f5249534544000000000000000000000000000000000000604482015260640161090c565b6000858152600760209081526040808320600301805482518185028101850190935280835291929091908301828280156129a757602002820191906000526020600020905b815481526020019060010190808311612993575b50506040517f6fd8c68500000000000000000000000000000000000000000000000000000000815293945073__$47e4ffaaf323c41735ff299f8946896ce0$__93636fd8c6859350612a01925089915085906004016142fc565b602060405180830381865af4158015612a1e573d6000803e3d6000fd5b505050506040513d601f19601f82011682018060405250810190612a429190614116565b15612b52576040517fda92b9ed00000000000000000000000000000000000000000000000000000000815260009073__$47e4ffaaf323c41735ff299f8946896ce0$__9063da92b9ed90612a9c90899086906004016142fc565b602060405180830381865af4158015612ab9573d6000803e3d6000fd5b505050506040513d601f19601f82011682018060405250810190612add919061429d565b600088815260076020526040902060030180549192509082908110612b0457612b04614133565b9060005260206000200160009055867f5c379d054844760656a56e062f50208b458cfa0c4427574f5a2828d19602b4e987604051612b4491815260200190565b60405180910390a2506116ed565b6040517ff8399aa1000000000000000000000000000000000000000000000000000000008152600481018790526024810186905260440161090c565b3360008181526008602090815260408083206001600160a01b03871680855290835292819020805460ff191686151590811790915590519081529192917f17307eab39ab6107e8899845ad3d59bd9653f200f220920489ca2b5937696c31910160405180910390a35050565b6001546040516302571be360e01b81526004810184905260009182916001600160a01b03909116906302571be390602401602060405180830381865afa158015612c48573d6000803e3d6000fd5b505050506040513d601f19601f82011682018060405250810190612c6c9190614099565b6001600160a01b0390811660009081526008602090815260408083209387168352929052205460ff1691505092915050565b6000546040805163134fdccd60e21b8152905184926001600160a01b031691634d3f73349160048083019260809291908290030181865afa158015612ce7573d6000803e3d6000fd5b505050506040513d601f19601f82011682018060405250810190612d0b91906141c9565b604090810151600580546001600160a01b0392831673ffffffffffffffffffffffffffffffffffffffff19909116179055600083815260076020528281206002015460015493516302571be360e01b8152600481018290529093919291909116906302571be390602401602060405180830381865afa158015612d92573d6000803e3d6000fd5b505050506040513d601f19601f82011682018060405250810190612db69190614099565b6005549091506001600160a01b0316331480612dda57506001600160a01b03811633145b80612e0857506001600160a01b038116600090815260086020908152604080832033845290915290205460ff165b80612e2c57506000838152600760205260409020600601546001600160a01b031633145b612e785760405162461bcd60e51b815260206004820152600e60248201527f4e4f545f415554484f5249534544000000000000000000000000000000000000604482015260640161090c565b600085815260076020908152604080832080548251818502810185019093528083529192909190830182828015612ed857602002820191906000526020600020905b81546001600160a01b03168152600190910190602001808311612eba575b5050505050905060005b8151811015612fc9576000600760008981526020019081526020016000206001016000848481518110612f1757612f17614133565b60200260200101516001600160a01b03166001600160a01b0316815260200190815260200160002060006101000a81548160ff021916908360ff160217905550867fc4c4b4793ac649a3a05ee26afdd6d54122cea2e3298a195a786ab7e899c21e34838381518110612f8b57612f8b614133565b6020026020010151604051612faf91906001600160a01b0391909116815260200190565b60405180910390a280612fc181614191565b915050612ee2565b506000868152600760205260408120612fe191613d1f565b60405186907f6b91085369552b61ca16180a741663b69fb6b3b967f7271116521d84e2291dc590600090a260005b8581101561306257600087815260076020908152604082208054600181018255908352912001805473ffffffffffffffffffffffffffffffffffffffff191690558061305a81614191565b91505061300f565b50505050505050565b600081815260076020819052604082200154829042106130cd5760405162461bcd60e51b815260206004820152601060248201527f4d4f4c4543554c455f4558504952454400000000000000000000000000000000604482015260640161090c565b505060009081526007602052604090206004015490565b6000546040805163134fdccd60e21b8152905184926001600160a01b031691634d3f73349160048083019260809291908290030181865afa15801561312d573d6000803e3d6000fd5b505050506040513d601f19601f8201168201806040525081019061315191906141c9565b604090810151600580546001600160a01b0392831673ffffffffffffffffffffffffffffffffffffffff19909116179055600083815260076020528281206002015460015493516302571be360e01b8152600481018290529093919291909116906302571be390602401602060405180830381865afa1580156131d8573d6000803e3d6000fd5b505050506040513d601f19601f820116820180604052508101906131fc9190614099565b6005549091506001600160a01b031633148061322057506001600160a01b03811633145b8061324e57506001600160a01b038116600090815260086020908152604080832033845290915290205460ff165b8061327257506000838152600760205260409020600601546001600160a01b031633145b6132be5760405162461bcd60e51b815260206004820152600e60248201527f4e4f545f415554484f5249534544000000000000000000000000000000000000604482015260640161090c565b60008581526007602052604090819020600601805486151574010000000000000000000000000000000000000000027fffffffffffffffffffffff00ffffffffffffffffffffffffffffffffffffffff9091161790555185907fe6ccdb52b4954ab2c3e293f1dbfe593e6c5630962a1944bfcf20c5563eeb84629061113d90871515815260200190565b6000546040805163134fdccd60e21b8152905184926001600160a01b031691634d3f73349160048083019260809291908290030181865afa158015613391573d6000803e3d6000fd5b505050506040513d601f19601f820116820180604052508101906133b591906141c9565b604090810151600580546001600160a01b0392831673ffffffffffffffffffffffffffffffffffffffff19909116179055600083815260076020528281206002015460015493516302571be360e01b8152600481018290529093919291909116906302571be390602401602060405180830381865afa15801561343c573d6000803e3d6000fd5b505050506040513d601f19601f820116820180604052508101906134609190614099565b6005549091506001600160a01b031633148061348457506001600160a01b03811633145b806134b257506001600160a01b038116600090815260086020908152604080832033845290915290205460ff165b806134d657506000838152600760205260409020600601546001600160a01b031633145b6135225760405162461bcd60e51b815260206004820152600e60248201527f4e4f545f415554484f5249534544000000000000000000000000000000000000604482015260640161090c565b600085815260076020908152604091829020600601805473ffffffffffffffffffffffffffffffffffffffff19166001600160a01b038816908117909155915191825286917fe5108446a6097aab57fd36f346a515a78fddefa87d81662d44e0d7a463f92095910161113d565b6000546040805163134fdccd60e21b8152905184926001600160a01b031691634d3f73349160048083019260809291908290030181865afa1580156135d8573d6000803e3d6000fd5b505050506040513d601f19601f820116820180604052508101906135fc91906141c9565b604090810151600580546001600160a01b0392831673ffffffffffffffffffffffffffffffffffffffff19909116179055600083815260076020528281206002015460015493516302571be360e01b8152600481018290529093919291909116906302571be390602401602060405180830381865afa158015613683573d6000803e3d6000fd5b505050506040513d601f19601f820116820180604052508101906136a79190614099565b6005549091506001600160a01b03163314806136cb57506001600160a01b03811633145b806136f957506001600160a01b038116600090815260086020908152604080832033845290915290205460ff165b8061371d57506000838152600760205260409020600601546001600160a01b031633145b6137695760405162461bcd60e51b815260206004820152600e60248201527f4e4f545f415554484f5249534544000000000000000000000000000000000000604482015260640161090c565b600085815260076020908152604091829020600501805473ffffffffffffffffffffffffffffffffffffffff19166001600160a01b038816908117909155915191825286917fcb71326aeaad88869e8be8be2893e1119f7617ce4ea2411af127e218909be1f7910161113d565b600081815260076020819052604082200154829042106138385760405162461bcd60e51b815260206004820152601060248201527f4d4f4c4543554c455f4558504952454400000000000000000000000000000000604482015260640161090c565b50506000908152600760205260409020600601546001600160a01b031690565b60008281526007602081905260409091200154829042106138bb5760405162461bcd60e51b815260206004820152600c60248201527f424f4e445f455850495245440000000000000000000000000000000000000000604482015260640161090c565b6000818152600760205260408082206002015460015491516302571be360e01b8152600481018290529092916001600160a01b0316906302571be390602401602060405180830381865afa158015613917573d6000803e3d6000fd5b505050506040513d601f19601f8201168201806040525081019061393b9190614099565b90506001600160a01b03811633148061397757506001600160a01b038116600090815260086020908152604080832033845290915290205460ff165b8061399b57506000838152600760205260409020600601546001600160a01b031633145b6139e75760405162461bcd60e51b815260206004820152601760248201527f4e4f545f4f574e45525f4f525f434f4e54524f4c4c4552000000000000000000604482015260640161090c565b600085815260076020819052604090912001548411613a485760405162461bcd60e51b815260206004820152600a60248201527f4241445f45585049525900000000000000000000000000000000000000000000604482015260640161090c565b60008054906101000a90046001600160a01b03166001600160a01b0316634d3f73346040518163ffffffff1660e01b8152600401608060405180830381865afa158015613a99573d6000803e3d6000fd5b505050506040513d601f19601f82011682018060405250810190613abd91906141c9565b6020908101516005805473ffffffffffffffffffffffffffffffffffffffff19166001600160a01b0390921691909117905560008681526007918290526040812090910154613b0c908661433d565b905060045481613b1c9190614350565b341015613b6b5760405162461bcd60e51b815260206004820152601260248201527f494e53554646494349454e545f45544845520000000000000000000000000000604482015260640161090c565b600086815260076020819052604091829020018690555186907fa620b72378ee464490805a96e25b53e5c0076f0ce2d28f9691ae255a595b3bf390610b269088815260200190565b60008181526007602081905260408220015482904210613c155760405162461bcd60e51b815260206004820152601060248201527f4d4f4c4543554c455f4558504952454400000000000000000000000000000000604482015260640161090c565b6000838152600760205260408082206002015460015491516302571be360e01b8152600481018290529092916001600160a01b0316906302571be390602401602060405180830381865afa158015613c71573d6000803e3d6000fd5b505050506040513d601f19601f82011682018060405250810190613c959190614099565b9050306001600160a01b03821603613cb35760035493505050610bb6565b509392505050565b60008281526007602052604080822090517f6fd8c68500000000000000000000000000000000000000000000000000000000815273__$47e4ffaaf323c41735ff299f8946896ce0$__91636fd8c68591610c239186916003909101906004016142b6565b508054600082559060005260206000209081019061210a91905b80821115613d4d5760008155600101613d39565b5090565b6001600160a01b038116811461210a57600080fd5b600080600060608486031215613d7b57600080fd5b83359250602084013560ff81168114613d9357600080fd5b91506040840135613da381613d51565b809150509250925092565b600060208284031215613dc057600080fd5b5035919050565b60008060408385031215613dda57600080fd5b823591506020830135613dec81613d51565b809150509250929050565b604080825283519082018190526000906020906060840190828701845b82811015613e395781516001600160a01b031684529284019290840190600101613e14565b5050508381038285015284518082528583019183019060005b81811015613e7157835160ff1683529284019291840191600101613e52565b5090979650505050505050565b6020808252825182820181905260009190848201906040850190845b81811015613eb657835183529284019291840191600101613e9a565b50909695505050505050565b60008060408385031215613ed557600080fd5b50508035926020909101359150565b7f4e487b7100000000000000000000000000000000000000000000000000000000600052604160045260246000fd5b604051601f82017fffffffffffffffffffffffffffffffffffffffffffffffffffffffffffffffe016810167ffffffffffffffff81118282101715613f5a57613f5a613ee4565b604052919050565b60008060408385031215613f7557600080fd5b8235915060208084013567ffffffffffffffff80821115613f9557600080fd5b818601915086601f830112613fa957600080fd5b813581811115613fbb57613fbb613ee4565b8060051b9150613fcc848301613f13565b8181529183018401918481019089841115613fe657600080fd5b938501935b8385101561400457843582529385019390850190613feb565b8096505050505050509250929050565b60006020828403121561402657600080fd5b813561403181613d51565b9392505050565b801515811461210a57600080fd5b6000806040838503121561405957600080fd5b823561406481613d51565b91506020830135613dec81614038565b6000806040838503121561408757600080fd5b823591506020830135613dec81614038565b6000602082840312156140ab57600080fd5b815161403181613d51565b6000604082016001600160a01b03808616845260206040818601528286548085526060870191508760005282600020945060005b818110156141085785548516835260019586019592840192016140ea565b509098975050505050505050565b60006020828403121561412857600080fd5b815161403181614038565b7f4e487b7100000000000000000000000000000000000000000000000000000000600052603260045260246000fd5b7f4e487b7100000000000000000000000000000000000000000000000000000000600052601160045260246000fd5b60007fffffffffffffffffffffffffffffffffffffffffffffffffffffffffffffffff82036141c2576141c2614162565b5060010190565b6000608082840312156141db57600080fd5b82601f8301126141ea57600080fd5b6040516080810181811067ffffffffffffffff8211171561420d5761420d613ee4565b60405280608084018581111561422257600080fd5b845b8181101561424557805161423781613d51565b835260209283019201614224565b509195945050505050565b6000604082016001600160a01b0380861684526020604081860152828651808552606087019150828801945060005b8181101561410857855185168352948301949183019160010161427f565b6000602082840312156142af57600080fd5b5051919050565b60006040820184835260206040818501528185548084526060860191508660005282600020935060005b81811015613e71578454835260019485019492840192016142e0565b6000604082018483526020604081850152818551808452606086019150828701935060005b81811015613e7157845183529383019391830191600101614321565b81810381811115610c6857610c68614162565b6000817fffffffffffffffffffffffffffffffffffffffffffffffffffffffffffffffff048311821515161561438857614388614162565b50029056fea2646970667358221220b663da4bacb8ab2d22587f29a4ed2d7889a2749c1702aa3267d33c67faf9990164736f6c63430008100033",
    "linkReferences": {
      "src/Utils/LibString.sol": {
        "LibString": [
          {
            "start": 5233,
            "length": 20
          },
          {
            "start": 7469,
            "length": 20
          },
          {
            "start": 7636,
            "length": 20
          },
          {
            "start": 11150,
            "length": 20
          },
          {
            "start": 12883,
            "length": 20
          },
          {
            "start": 13041,
            "length": 20
          },
          {
            "start": 17776,
            "length": 20
          }
        ]
      }
    }
  },
  "methodIdentifiers": {
    "Dev()": "01e51ae8",
    "HELIX2()": "b782426e",
    "Molecules(bytes32)": "af6328f6",
    "NAMES()": "05e84aa0",
    "Registrar()": "b9f37c86",
    "active()": "02fb0c5e",
    "addAnion(bytes32,bytes32)": "6ff24830",
    "alias_(bytes32)": "c5bc4c0b",
    "anion(bytes32)": "0e68b116",
    "basePrice()": "c7876ea4",
    "cation(bytes32)": "f61ccd53",
    "changeDev(address)": "88a8c95c",
    "controller(bytes32)": "dbd4e021",
    "covalence(bytes32)": "34026859",
    "expiry(bytes32)": "d2ec5fca",
    "hook(bytes32,uint8,address)": "51a76442",
    "hooksWithRules(bytes32)": "0aac6625",
    "isApprovedForAll(bytes32,address)": "b0698628",
    "isNotDuplicateAnion(bytes32,bytes32)": "f8c91244",
    "isNotDuplicateHook(bytes32,address)": "049a491c",
    "popAnion(bytes32,bytes32)": "8dcad139",
    "recordExists(bytes32)": "f79fe538",
    "register(bytes32,bytes32)": "2f926732",
    "rehook(bytes32,uint8,address)": "015399e6",
    "renew(bytes32,uint256)": "f544d82f",
    "resolver(bytes32)": "0178b8bf",
    "roothash()": "251c9422",
    "setAlias(bytes32,bytes32)": "1f06e91c",
    "setAnions(bytes32,bytes32[])": "741b4cd0",
    "setApprovalForAll(address,bool)": "a22cb465",
    "setCation(bytes32,bytes32)": "8146970a",
    "setController(bytes32,address)": "d3156905",
    "setCovalence(bytes32,bool)": "d07699aa",
    "setExpiry(bytes32,uint256)": "39de6469",
    "setRecord(bytes32,address)": "d9b76ed4",
    "setResolver(bytes32,address)": "1896f70a",
    "theEnd()": "22b68deb",
    "unhook(bytes32,address)": "241270d5",
    "unhookAll(bytes32,uint256)": "b2dd2e55",
    "withdrawEther()": "7362377b"
  },
  "id": 24
}