{
  "abi": [
    {
      "inputs": [
        {
          "internalType": "address",
          "name": "_registry",
          "type": "address"
        },
        {
          "internalType": "address",
          "name": "_helix2",
          "type": "address"
        }
      ],
      "stateMutability": "nonpayable",
      "type": "constructor"
    },
    {
      "inputs": [],
      "name": "BAD_ANION",
      "type": "error"
    },
    {
      "inputs": [],
      "name": "BAD_HOOK",
      "type": "error"
    },
    {
      "anonymous": false,
      "inputs": [
        {
          "indexed": true,
          "internalType": "address",
          "name": "cation",
          "type": "address"
        },
        {
          "indexed": true,
          "internalType": "address",
          "name": "operator",
          "type": "address"
        },
        {
          "indexed": false,
          "internalType": "bool",
          "name": "approved",
          "type": "bool"
        }
      ],
      "name": "ApprovalForAll",
      "type": "event"
    },
    {
      "anonymous": false,
      "inputs": [
        {
          "indexed": true,
          "internalType": "bytes32",
          "name": "bondhash",
          "type": "bytes32"
        },
        {
          "indexed": false,
          "internalType": "address",
          "name": "config",
          "type": "address"
        },
        {
          "indexed": false,
          "internalType": "uint8",
          "name": "rule",
          "type": "uint8"
        }
      ],
      "name": "Hooked",
      "type": "event"
    },
    {
      "anonymous": false,
      "inputs": [
        {
          "indexed": true,
          "internalType": "bytes32",
          "name": "molyhash",
          "type": "bytes32"
        },
        {
          "indexed": false,
          "internalType": "bytes32",
          "name": "anion",
          "type": "bytes32"
        }
      ],
      "name": "NewAnion",
      "type": "event"
    },
    {
      "anonymous": false,
      "inputs": [
        {
          "indexed": true,
          "internalType": "bytes32",
          "name": "molyhash",
          "type": "bytes32"
        },
        {
          "indexed": false,
          "internalType": "bytes32[]",
          "name": "anion",
          "type": "bytes32[]"
        }
      ],
      "name": "NewAnions",
      "type": "event"
    },
    {
      "anonymous": false,
      "inputs": [
        {
          "indexed": true,
          "internalType": "bytes32",
          "name": "molyhash",
          "type": "bytes32"
        },
        {
          "indexed": false,
          "internalType": "bytes32",
          "name": "cation",
          "type": "bytes32"
        }
      ],
      "name": "NewCation",
      "type": "event"
    },
    {
      "anonymous": false,
      "inputs": [
        {
          "indexed": true,
          "internalType": "bytes32",
          "name": "molyhash",
          "type": "bytes32"
        },
        {
          "indexed": false,
          "internalType": "address",
          "name": "controller",
          "type": "address"
        }
      ],
      "name": "NewController",
      "type": "event"
    },
    {
      "anonymous": false,
      "inputs": [
        {
          "indexed": true,
          "internalType": "bytes32",
          "name": "molyhash",
          "type": "bytes32"
        },
        {
          "indexed": false,
          "internalType": "bool",
          "name": "covalence",
          "type": "bool"
        }
      ],
      "name": "NewCovalence",
      "type": "event"
    },
    {
      "anonymous": false,
      "inputs": [
        {
          "indexed": false,
          "internalType": "address",
          "name": "Dev",
          "type": "address"
        },
        {
          "indexed": false,
          "internalType": "address",
          "name": "newDev",
          "type": "address"
        }
      ],
      "name": "NewDev",
      "type": "event"
    },
    {
      "anonymous": false,
      "inputs": [
        {
          "indexed": true,
          "internalType": "bytes32",
          "name": "molyhash",
          "type": "bytes32"
        },
        {
          "indexed": false,
          "internalType": "uint256",
          "name": "expiry",
          "type": "uint256"
        }
      ],
      "name": "NewExpiry",
      "type": "event"
    },
    {
      "anonymous": false,
      "inputs": [
        {
          "indexed": true,
          "internalType": "bytes32",
          "name": "molyhash",
          "type": "bytes32"
        },
        {
          "indexed": false,
          "internalType": "address",
          "name": "resolver",
          "type": "address"
        }
      ],
      "name": "NewRecord",
      "type": "event"
    },
    {
      "anonymous": false,
      "inputs": [
        {
          "indexed": true,
          "internalType": "bytes32",
          "name": "molyhash",
          "type": "bytes32"
        },
        {
          "indexed": false,
          "internalType": "address",
          "name": "resolver",
          "type": "address"
        }
      ],
      "name": "NewResolver",
      "type": "event"
    },
    {
      "anonymous": false,
      "inputs": [
        {
          "indexed": true,
          "internalType": "bytes32",
          "name": "molyhash",
          "type": "bytes32"
        },
        {
          "indexed": false,
          "internalType": "bytes32",
          "name": "anion",
          "type": "bytes32"
        }
      ],
      "name": "PopAnion",
      "type": "event"
    },
    {
      "anonymous": false,
      "inputs": [
        {
          "indexed": true,
          "internalType": "bytes32",
          "name": "bondhash",
          "type": "bytes32"
        },
        {
          "indexed": false,
          "internalType": "address",
          "name": "config",
          "type": "address"
        },
        {
          "indexed": false,
          "internalType": "uint8",
          "name": "rule",
          "type": "uint8"
        }
      ],
      "name": "Rehooked",
      "type": "event"
    },
    {
      "anonymous": false,
      "inputs": [
        {
          "indexed": true,
          "internalType": "bytes32",
          "name": "bondhash",
          "type": "bytes32"
        },
        {
          "indexed": false,
          "internalType": "uint8",
          "name": "rule",
          "type": "uint8"
        }
      ],
      "name": "Unhooked",
      "type": "event"
    },
    {
      "anonymous": false,
      "inputs": [
        {
          "indexed": true,
          "internalType": "bytes32",
          "name": "molyhash",
          "type": "bytes32"
        }
      ],
      "name": "UnhookedAll",
      "type": "event"
    },
    {
      "inputs": [],
      "name": "Dev",
      "outputs": [
        {
          "internalType": "address",
          "name": "",
          "type": "address"
        }
      ],
      "stateMutability": "view",
      "type": "function"
    },
    {
      "inputs": [],
      "name": "HELIX2",
      "outputs": [
        {
          "internalType": "contract iHELIX2",
          "name": "",
          "type": "address"
        }
      ],
      "stateMutability": "view",
      "type": "function"
    },
    {
      "inputs": [
        {
          "internalType": "bytes32",
          "name": "",
          "type": "bytes32"
        }
      ],
      "name": "Molecules",
      "outputs": [
        {
          "internalType": "bytes32",
          "name": "_cation",
          "type": "bytes32"
        },
        {
          "internalType": "bytes32",
          "name": "_alias",
          "type": "bytes32"
        },
        {
          "internalType": "address",
          "name": "_resolver",
          "type": "address"
        },
        {
          "internalType": "address",
          "name": "_controller",
          "type": "address"
        },
        {
          "internalType": "bool",
          "name": "_covalence",
          "type": "bool"
        },
        {
          "internalType": "uint256",
          "name": "_expiry",
          "type": "uint256"
        }
      ],
      "stateMutability": "view",
      "type": "function"
    },
    {
      "inputs": [],
      "name": "NAMES",
      "outputs": [
        {
          "internalType": "contract iNAME",
          "name": "",
          "type": "address"
        }
      ],
      "stateMutability": "view",
      "type": "function"
    },
    {
      "inputs": [],
      "name": "Registrar",
      "outputs": [
        {
          "internalType": "address",
          "name": "",
          "type": "address"
        }
      ],
      "stateMutability": "view",
      "type": "function"
    },
    {
      "inputs": [],
      "name": "active",
      "outputs": [
        {
          "internalType": "bool",
          "name": "",
          "type": "bool"
        }
      ],
      "stateMutability": "view",
      "type": "function"
    },
    {
      "inputs": [
        {
          "internalType": "bytes32",
          "name": "molyhash",
          "type": "bytes32"
        },
        {
          "internalType": "bytes32",
          "name": "_anion",
          "type": "bytes32"
        }
      ],
      "name": "addAnion",
      "outputs": [],
      "stateMutability": "nonpayable",
      "type": "function"
    },
    {
      "inputs": [
        {
          "internalType": "bytes32",
          "name": "molyhash",
          "type": "bytes32"
        }
      ],
      "name": "alias_",
      "outputs": [
        {
          "internalType": "bytes32",
          "name": "",
          "type": "bytes32"
        }
      ],
      "stateMutability": "view",
      "type": "function"
    },
    {
      "inputs": [
        {
          "internalType": "bytes32",
          "name": "molyhash",
          "type": "bytes32"
        }
      ],
      "name": "anion",
      "outputs": [
        {
          "internalType": "bytes32[]",
          "name": "",
          "type": "bytes32[]"
        }
      ],
      "stateMutability": "view",
      "type": "function"
    },
    {
      "inputs": [],
      "name": "basePrice",
      "outputs": [
        {
          "internalType": "uint256",
          "name": "",
          "type": "uint256"
        }
      ],
      "stateMutability": "view",
      "type": "function"
    },
    {
      "inputs": [
        {
          "internalType": "bytes32",
          "name": "molyhash",
          "type": "bytes32"
        }
      ],
      "name": "cation",
      "outputs": [
        {
          "internalType": "bytes32",
          "name": "",
          "type": "bytes32"
        }
      ],
      "stateMutability": "view",
      "type": "function"
    },
    {
      "inputs": [
        {
          "internalType": "address",
          "name": "newDev",
          "type": "address"
        }
      ],
      "name": "changeDev",
      "outputs": [],
      "stateMutability": "nonpayable",
      "type": "function"
    },
    {
      "inputs": [
        {
          "internalType": "bytes32",
          "name": "molyhash",
          "type": "bytes32"
        }
      ],
      "name": "controller",
      "outputs": [
        {
          "internalType": "address",
          "name": "",
          "type": "address"
        }
      ],
      "stateMutability": "view",
      "type": "function"
    },
    {
      "inputs": [
        {
          "internalType": "bytes32",
          "name": "molyhash",
          "type": "bytes32"
        }
      ],
      "name": "covalence",
      "outputs": [
        {
          "internalType": "bool",
          "name": "",
          "type": "bool"
        }
      ],
      "stateMutability": "view",
      "type": "function"
    },
    {
      "inputs": [
        {
          "internalType": "bytes32",
          "name": "molyhash",
          "type": "bytes32"
        }
      ],
      "name": "expiry",
      "outputs": [
        {
          "internalType": "uint256",
          "name": "",
          "type": "uint256"
        }
      ],
      "stateMutability": "view",
      "type": "function"
    },
    {
      "inputs": [
        {
          "internalType": "bytes32",
          "name": "molyhash",
          "type": "bytes32"
        },
        {
          "internalType": "address",
          "name": "config",
          "type": "address"
        },
        {
          "internalType": "uint8",
          "name": "rule",
          "type": "uint8"
        }
      ],
      "name": "hook",
      "outputs": [],
      "stateMutability": "nonpayable",
      "type": "function"
    },
    {
      "inputs": [
        {
          "internalType": "bytes32",
          "name": "molyhash",
          "type": "bytes32"
        }
      ],
      "name": "hooksWithRules",
      "outputs": [
        {
          "internalType": "uint8[]",
          "name": "_rules",
          "type": "uint8[]"
        },
        {
          "internalType": "address[]",
          "name": "_hooks",
          "type": "address[]"
        }
      ],
      "stateMutability": "view",
      "type": "function"
    },
    {
      "inputs": [
        {
          "internalType": "bytes32",
          "name": "_cation",
          "type": "bytes32"
        },
        {
          "internalType": "address",
          "name": "operator",
          "type": "address"
        }
      ],
      "name": "isApprovedForAll",
      "outputs": [
        {
          "internalType": "bool",
          "name": "",
          "type": "bool"
        }
      ],
      "stateMutability": "view",
      "type": "function"
    },
    {
      "inputs": [
        {
          "internalType": "bytes32",
          "name": "molyhash",
          "type": "bytes32"
        },
        {
          "internalType": "bytes32",
          "name": "_anion",
          "type": "bytes32"
        }
      ],
      "name": "isNotDuplicateAnion",
      "outputs": [
        {
          "internalType": "bool",
          "name": "",
          "type": "bool"
        }
      ],
      "stateMutability": "view",
      "type": "function"
    },
    {
      "inputs": [
        {
          "internalType": "bytes32",
          "name": "molyhash",
          "type": "bytes32"
        },
        {
          "internalType": "uint8",
          "name": "rule",
          "type": "uint8"
        }
      ],
      "name": "isNotDuplicateHook",
      "outputs": [
        {
          "internalType": "bool",
          "name": "",
          "type": "bool"
        }
      ],
      "stateMutability": "view",
      "type": "function"
    },
    {
      "inputs": [
        {
          "internalType": "bytes32",
          "name": "molyhash",
          "type": "bytes32"
        },
        {
          "internalType": "bytes32",
          "name": "__anion",
          "type": "bytes32"
        }
      ],
      "name": "popAnion",
      "outputs": [],
      "stateMutability": "nonpayable",
      "type": "function"
    },
    {
      "inputs": [
        {
          "internalType": "bytes32",
          "name": "molyhash",
          "type": "bytes32"
        }
      ],
      "name": "recordExists",
      "outputs": [
        {
          "internalType": "bool",
          "name": "",
          "type": "bool"
        }
      ],
      "stateMutability": "view",
      "type": "function"
    },
    {
      "inputs": [
        {
          "internalType": "bytes32",
          "name": "molyhash",
          "type": "bytes32"
        },
        {
          "internalType": "bytes32",
          "name": "_cation",
          "type": "bytes32"
        }
      ],
      "name": "register",
      "outputs": [],
      "stateMutability": "nonpayable",
      "type": "function"
    },
    {
      "inputs": [
        {
          "internalType": "bytes32",
          "name": "molyhash",
          "type": "bytes32"
        },
        {
          "internalType": "address",
          "name": "config",
          "type": "address"
        },
        {
          "internalType": "uint8",
          "name": "rule",
          "type": "uint8"
        }
      ],
      "name": "rehook",
      "outputs": [],
      "stateMutability": "nonpayable",
      "type": "function"
    },
    {
      "inputs": [
        {
          "internalType": "bytes32",
          "name": "molyhash",
          "type": "bytes32"
        },
        {
          "internalType": "uint256",
          "name": "_expiry",
          "type": "uint256"
        }
      ],
      "name": "renew",
      "outputs": [],
      "stateMutability": "payable",
      "type": "function"
    },
    {
      "inputs": [
        {
          "internalType": "bytes32",
          "name": "molyhash",
          "type": "bytes32"
        }
      ],
      "name": "resolver",
      "outputs": [
        {
          "internalType": "address",
          "name": "",
          "type": "address"
        }
      ],
      "stateMutability": "view",
      "type": "function"
    },
    {
      "inputs": [],
      "name": "roothash",
      "outputs": [
        {
          "internalType": "bytes32",
          "name": "",
          "type": "bytes32"
        }
      ],
      "stateMutability": "view",
      "type": "function"
    },
    {
      "inputs": [
        {
          "internalType": "bytes32",
          "name": "molyhash",
          "type": "bytes32"
        },
        {
          "internalType": "bytes32",
          "name": "_alias",
          "type": "bytes32"
        }
      ],
      "name": "setAlias",
      "outputs": [],
      "stateMutability": "nonpayable",
      "type": "function"
    },
    {
      "inputs": [
        {
          "internalType": "bytes32",
          "name": "molyhash",
          "type": "bytes32"
        },
        {
          "internalType": "bytes32[]",
          "name": "_anion",
          "type": "bytes32[]"
        }
      ],
      "name": "setAnions",
      "outputs": [],
      "stateMutability": "nonpayable",
      "type": "function"
    },
    {
      "inputs": [
        {
          "internalType": "address",
          "name": "operator",
          "type": "address"
        },
        {
          "internalType": "bool",
          "name": "approved",
          "type": "bool"
        }
      ],
      "name": "setApprovalForAll",
      "outputs": [],
      "stateMutability": "nonpayable",
      "type": "function"
    },
    {
      "inputs": [
        {
          "internalType": "bytes32",
          "name": "molyhash",
          "type": "bytes32"
        },
        {
          "internalType": "bytes32",
          "name": "_cation",
          "type": "bytes32"
        }
      ],
      "name": "setCation",
      "outputs": [],
      "stateMutability": "nonpayable",
      "type": "function"
    },
    {
      "inputs": [
        {
          "internalType": "address",
          "name": "_helix2",
          "type": "address"
        }
      ],
      "name": "setConfig",
      "outputs": [],
      "stateMutability": "nonpayable",
      "type": "function"
    },
    {
      "inputs": [
        {
          "internalType": "bytes32",
          "name": "molyhash",
          "type": "bytes32"
        },
        {
          "internalType": "address",
          "name": "_controller",
          "type": "address"
        }
      ],
      "name": "setController",
      "outputs": [],
      "stateMutability": "nonpayable",
      "type": "function"
    },
    {
      "inputs": [
        {
          "internalType": "bytes32",
          "name": "molyhash",
          "type": "bytes32"
        },
        {
          "internalType": "bool",
          "name": "_covalence",
          "type": "bool"
        }
      ],
      "name": "setCovalence",
      "outputs": [],
      "stateMutability": "nonpayable",
      "type": "function"
    },
    {
      "inputs": [
        {
          "internalType": "bytes32",
          "name": "molyhash",
          "type": "bytes32"
        },
        {
          "internalType": "uint256",
          "name": "_expiry",
          "type": "uint256"
        }
      ],
      "name": "setExpiry",
      "outputs": [],
      "stateMutability": "nonpayable",
      "type": "function"
    },
    {
      "inputs": [
        {
          "internalType": "bytes32",
          "name": "molyhash",
          "type": "bytes32"
        },
        {
          "internalType": "address",
          "name": "_resolver",
          "type": "address"
        }
      ],
      "name": "setRecord",
      "outputs": [],
      "stateMutability": "nonpayable",
      "type": "function"
    },
    {
      "inputs": [
        {
          "internalType": "bytes32",
          "name": "molyhash",
          "type": "bytes32"
        },
        {
          "internalType": "address",
          "name": "_resolver",
          "type": "address"
        }
      ],
      "name": "setResolver",
      "outputs": [],
      "stateMutability": "nonpayable",
      "type": "function"
    },
    {
      "inputs": [],
      "name": "theEnd",
      "outputs": [
        {
          "internalType": "uint256",
          "name": "",
          "type": "uint256"
        }
      ],
      "stateMutability": "view",
      "type": "function"
    },
    {
      "inputs": [],
      "name": "toggleActive",
      "outputs": [],
      "stateMutability": "nonpayable",
      "type": "function"
    },
    {
      "inputs": [
        {
          "internalType": "bytes32",
          "name": "molyhash",
          "type": "bytes32"
        },
        {
          "internalType": "uint8",
          "name": "rule",
          "type": "uint8"
        }
      ],
      "name": "unhook",
      "outputs": [],
      "stateMutability": "nonpayable",
      "type": "function"
    },
    {
      "inputs": [
        {
          "internalType": "bytes32",
          "name": "molyhash",
          "type": "bytes32"
        }
      ],
      "name": "unhookAll",
      "outputs": [],
      "stateMutability": "nonpayable",
      "type": "function"
    },
    {
      "inputs": [],
      "name": "withdrawEther",
      "outputs": [],
      "stateMutability": "nonpayable",
      "type": "function"
    }
  ],
  "bytecode": {
    "object": "0x60806040526002805460ff60a01b1916600160a01b1790556703782dace9d900006006553480156200003057600080fd5b5060405162005010380380620050108339810160408190526200005391620007b0565b60028054336001600160a01b0319918216179091556000805482166001600160a01b03848116918217909255600180549093169185169190911790915560408051633215476b60e11b8152905163642a8ed6916004808201926080929091908290030181865afa158015620000cc573d6000803e3d6000fd5b505050506040513d601f19601f82011682018060405250810190620000f291906200081f565b604090810151600355600054815163bd9a548b60e01b815291516001600160a01b039091169163bd9a548b9160048083019260809291908290030181865afa15801562000143573d6000803e3d6000fd5b505050506040513d601f19601f820116820180604052508101906200016991906200081f565b604001516004556200017a62000182565b5050620008c4565b7fb4b4801cca1cad359bff6b5ea99d95160f00cbe1164fb7231c42c3e8b5f2593b80546001600160a01b0319169055604080516020818101909252600080825280526007909152620001f8907f6d5257204ebe7d88fd91ae87941cb2dd9d8062b64ae5a2bd2d28ec40b9fbf6df90600162000691565b5060007f6d5257204ebe7d88fd91ae87941cb2dd9d8062b64ae5a2bd2d28ec40b9fbf6e18190556040805160208181019092528281529180526007905262000264907f6d5257204ebe7d88fd91ae87941cb2dd9d8062b64ae5a2bd2d28ec40b9fbf6e29060016200073e565b50600080805260076020527f6d5257204ebe7d88fd91ae87941cb2dd9d8062b64ae5a2bd2d28ec40b9fbf6e38190557f6d5257204ebe7d88fd91ae87941cb2dd9d8062b64ae5a2bd2d28ec40b9fbf6e580546006547f6d5257204ebe7d88fd91ae87941cb2dd9d8062b64ae5a2bd2d28ec40b9fbf6e6556001600160a81b03191633908117600160a01b179091557f6d5257204ebe7d88fd91ae87941cb2dd9d8062b64ae5a2bd2d28ec40b9fbf6e480546001600160a01b0319169091179055805460408051633215476b60e11b815290516001600160a01b03929092169163642a8ed6916004818101926080929091908290030181865afa1580156200036f573d6000803e3d6000fd5b505050506040513d601f19601f820116820180604052508101906200039591906200081f565b905060005b60048110156200068d57600060076000848460048110620003bf57620003bf62000886565b6020908102919091015182528181019290925260409081016000908120818052600101835281812080546001600160a01b0319166001600160a01b039590951694909417909355805191820190528181529060079084846004811062000429576200042962000886565b602002015181526020019081526020016000206000019060016200044f92919062000691565b5081816004811062000465576200046562000886565b60200201516007600084846004811062000483576200048362000886565b60200201518152602001908152602001600020600201819055506040518060200160405280838360048110620004bd57620004bd62000886565b6020020151905260076000848460048110620004dd57620004dd62000886565b60200201518152602001908152602001600020600301906001620005039291906200073e565b5081816004811062000519576200051962000886565b60200201516007600084846004811062000537576200053762000886565b60200201518152602001908152602001600020600401819055506001600760008484600481106200056c576200056c62000886565b6020020151815260200190815260200160002060060160146101000a81548160ff02191690831515021790555060065460076000848460048110620005b557620005b562000886565b60200201518152602001908152602001600020600701819055503360076000848460048110620005e957620005e962000886565b6020020151815260200190815260200160002060060160006101000a8154816001600160a01b0302191690836001600160a01b0316021790555033600760008484600481106200063d576200063d62000886565b6020020151815260200190815260200160002060050160006101000a8154816001600160a01b0302191690836001600160a01b03160217905550808062000684906200089c565b9150506200039a565b5050565b82805482825590600052602060002090601f016020900481019282156200072c5791602002820160005b83821115620006fb57835183826101000a81548160ff021916908360ff1602179055509260200192600101602081600001049283019260010302620006bb565b80156200072a5782816101000a81549060ff0219169055600101602081600001049283019260010302620006fb565b505b506200073a9291506200077c565b5090565b8280548282559060005260206000209081019282156200072c579160200282015b828111156200072c5782518255916020019190600101906200075f565b5b808211156200073a57600081556001016200077d565b80516001600160a01b0381168114620007ab57600080fd5b919050565b60008060408385031215620007c457600080fd5b620007cf8362000793565b9150620007df6020840162000793565b90509250929050565b604051608081016001600160401b03811182821017156200081957634e487b7160e01b600052604160045260246000fd5b60405290565b6000608082840312156200083257600080fd5b82601f8301126200084257600080fd5b6200084c620007e8565b8060808401858111156200085f57600080fd5b845b818110156200087b57805184526020938401930162000861565b509095945050505050565b634e487b7160e01b600052603260045260246000fd5b600060018201620008bd57634e487b7160e01b600052601160045260246000fd5b5060010190565b61473c80620008d46000396000f3fe6080604052600436106102d15760003560e01c80638366972611610179578063c5bc4c0b116100d6578063d9b76ed41161008a578063f61ccd5311610064578063f61ccd5314610885578063f79fe538146108a5578063f8c91244146108d857600080fd5b8063d9b76ed414610832578063dbd4e02114610852578063f544d82f1461087257600080fd5b8063d07699aa116100bb578063d07699aa146107c1578063d2ec5fca146107e1578063d31569051461081257600080fd5b8063c5bc4c0b1461078b578063c7876ea4146107ab57600080fd5b8063af6328f61161012d578063b612e9b911610112578063b612e9b91461072b578063b782426e1461074b578063b9f37c861461076b57600080fd5b8063af6328f614610656578063b06986281461070b57600080fd5b806388a8c95c1161015e57806388a8c95c146105f65780638dcad13914610616578063a22cb4651461063657600080fd5b806383669726146105b6578063849a799c146105d657600080fd5b806322b68deb1161023257806339de6469116101e65780637362377b116101c05780637362377b14610561578063741b4cd0146105765780638146970a1461059657600080fd5b806339de6469146105015780634d505584146105215780636ff248301461054157600080fd5b806329c68dc11161021757806329c68dc1146104ac5780632f926732146104c157806334026859146104e157600080fd5b806322b68deb14610472578063251c94221461049657600080fd5b80630e68b116116102895780631f06e91c1161026e5780631f06e91c1461041257806320e3dbd41461043257806321ec2b5b1461045257600080fd5b80630e68b116146103c35780631896f70a146103f057600080fd5b806302fb0c5e116102ba57806302fb0c5e1461033357806305e84aa0146103755780630aac66251461039557600080fd5b80630178b8bf146102d657806301e51ae814610313575b600080fd5b3480156102e257600080fd5b506102f66102f13660046139c8565b6108f8565b6040516001600160a01b0390911681526020015b60405180910390f35b34801561031f57600080fd5b506002546102f6906001600160a01b031681565b34801561033f57600080fd5b506002546103659074010000000000000000000000000000000000000000900460ff1681565b604051901515815260200161030a565b34801561038157600080fd5b506001546102f6906001600160a01b031681565b3480156103a157600080fd5b506103b56103b03660046139c8565b610983565b60405161030a9291906139e1565b3480156103cf57600080fd5b506103e36103de3660046139c8565b610b54565b60405161030a9190613a68565b3480156103fc57600080fd5b5061041061040b366004613ac1565b610c23565b005b34801561041e57600080fd5b5061041061042d366004613af1565b610de9565b34801561043e57600080fd5b5061041061044d366004613b13565b610e58565b34801561045e57600080fd5b5061041061046d3660046139c8565b6110bd565b34801561047e57600080fd5b5061048860065481565b60405190815260200161030a565b3480156104a257600080fd5b5061048860035481565b3480156104b857600080fd5b506104106113a9565b3480156104cd57600080fd5b506104106104dc366004613af1565b611450565b3480156104ed57600080fd5b506103656104fc3660046139c8565b6115c2565b34801561050d57600080fd5b5061041061051c366004613af1565b611656565b34801561052d57600080fd5b5061036561053c366004613b4d565b611759565b34801561054d57600080fd5b5061041061055c366004613af1565b611805565b34801561056d57600080fd5b50610410611a43565b34801561058257600080fd5b50610410610591366004613c20565b611ae9565b3480156105a257600080fd5b506104106105b1366004613af1565b611d71565b3480156105c257600080fd5b506104106105d1366004613cd2565b611fe8565b3480156105e257600080fd5b506104106105f1366004613cd2565b61228a565b34801561060257600080fd5b50610410610611366004613b13565b612526565b34801561062257600080fd5b50610410610631366004613af1565b612601565b34801561064257600080fd5b50610410610651366004613d1e565b6129ce565b34801561066257600080fd5b506106cf6106713660046139c8565b600760208190526000918252604090912060028101546004820154600583015460068401549390940154919390926001600160a01b0391821692918116917401000000000000000000000000000000000000000090910460ff169086565b6040805196875260208701959095526001600160a01b0393841694860194909452911660608401521515608083015260a082015260c00161030a565b34801561071757600080fd5b50610365610726366004613ac1565b612a58565b34801561073757600080fd5b50610410610746366004613b4d565b612afc565b34801561075757600080fd5b506000546102f6906001600160a01b031681565b34801561077757600080fd5b506005546102f6906001600160a01b031681565b34801561079757600080fd5b506104886107a63660046139c8565b612f32565b3480156107b757600080fd5b5061048860045481565b3480156107cd57600080fd5b506104106107dc366004613d4c565b612fab565b3480156107ed57600080fd5b506104886107fc3660046139c8565b6000908152600760208190526040909120015490565b34801561081e57600080fd5b5061041061082d366004613ac1565b613178565b34801561083e57600080fd5b5061041061084d366004613ac1565b613333565b34801561085e57600080fd5b506102f661086d3660046139c8565b6134ee565b610410610880366004613af1565b613570565b34801561089157600080fd5b506104886108a03660046139c8565b613823565b3480156108b157600080fd5b506103656108c03660046139c8565b60009081526007602081905260409091200154421090565b3480156108e457600080fd5b506103656108f3366004613af1565b61392b565b6000818152600760208190526040822001548290421061095f5760405162461bcd60e51b815260206004820152601060248201527f4d4f4c4543554c455f455850495245440000000000000000000000000000000060448201526064015b60405180910390fd5b6000838152600760205260409020600501546001600160a01b031691505b50919050565b60608082600760008281526020019081526020016000206007015442106109ec5760405162461bcd60e51b815260206004820152601060248201527f4d4f4c4543554c455f45585049524544000000000000000000000000000000006044820152606401610956565b60008481526007602090815260409182902080548351818402810184019094528084529091830182828015610a5e57602002820191906000526020600020906000905b825461010083900a900460ff16815260206001928301818104948501949093039092029101808411610a2f5790505b50505050509250825167ffffffffffffffff811115610a7f57610a7f613b79565b604051908082528060200260200182016040528015610aa8578160200160208202803683370190505b50915060005b8351811015610b4d57600760008681526020019081526020016000206001016000858381518110610ae157610ae1613d71565b602002602001015160ff1660ff16815260200190815260200160002060009054906101000a90046001600160a01b0316838281518110610b2357610b23613d71565b6001600160a01b039092166020928302919091019091015280610b4581613dcf565b915050610aae565b5050915091565b60608160076000828152602001908152602001600020600701544210610bbc5760405162461bcd60e51b815260206004820152601060248201527f4d4f4c4543554c455f45585049524544000000000000000000000000000000006044820152606401610956565b600083815260076020908152604080832060030180548251818502810185019093528083529192909190830182828015610c1557602002820191906000526020600020905b815481526020019060010190808311610c01575b509398975050505050505050565b6000828152600760205260408082206002015460015491516302571be360e01b815260048101829052859391926001600160a01b0316906302571be390602401602060405180830381865afa158015610c80573d6000803e3d6000fd5b505050506040513d601f19601f82011682018060405250810190610ca49190613e07565b6005549091506001600160a01b0316331480610cc857506001600160a01b03811633145b80610cf657506001600160a01b038116600090815260086020908152604080832033845290915290205460ff165b80610d1a57506000838152600760205260409020600601546001600160a01b031633145b610d665760405162461bcd60e51b815260206004820152600e60248201527f4e4f545f415554484f52495345440000000000000000000000000000000000006044820152606401610956565b60008581526007602090815260409182902060050180547fffffffffffffffffffffffff0000000000000000000000000000000000000000166001600160a01b038816908117909155915191825286917f335721b01866dc23fbee8b6b2c7b1e14d6f05c28cd35a2c934239f94095602a091015b60405180910390a25050505050565b6005546001600160a01b03163314610e435760405162461bcd60e51b815260206004820152600d60248201527f4e4f545f524547495354524152000000000000000000000000000000000000006044820152606401610956565b60009182526007602052604090912060040155565b6002546001600160a01b03163314610eb25760405162461bcd60e51b815260206004820152600760248201527f4e4f545f444556000000000000000000000000000000000000000000000000006044820152606401610956565b600080547fffffffffffffffffffffffff0000000000000000000000000000000000000000166001600160a01b038316908117909155604080517f642a8ed6000000000000000000000000000000000000000000000000000000008152905163642a8ed6916004808201926080929091908290030181865afa158015610f3c573d6000803e3d6000fd5b505050506040513d601f19601f82011682018060405250810190610f609190613e24565b60409081015160035560005481517fbd9a548b00000000000000000000000000000000000000000000000000000000815291516001600160a01b039091169163bd9a548b9160048083019260809291908290030181865afa158015610fc9573d6000803e3d6000fd5b505050506040513d601f19601f82011682018060405250810190610fed9190613e24565b600260200201516004908155600054604080517f4d3f733400000000000000000000000000000000000000000000000000000000815290516001600160a01b0390921692634d3f73349282820192608092908290030181865afa158015611058573d6000803e3d6000fd5b505050506040513d601f19601f8201168201806040525081019061107c9190613e84565b60026020020151600580547fffffffffffffffffffffffff0000000000000000000000000000000000000000166001600160a01b0390921691909117905550565b6000818152600760205260408082206002015460015491516302571be360e01b815260048101829052849391926001600160a01b0316906302571be390602401602060405180830381865afa15801561111a573d6000803e3d6000fd5b505050506040513d601f19601f8201168201806040525081019061113e9190613e07565b6005549091506001600160a01b031633148061116257506001600160a01b03811633145b8061119057506001600160a01b038116600090815260086020908152604080832033845290915290205460ff165b806111b457506000838152600760205260409020600601546001600160a01b031633145b6112005760405162461bcd60e51b815260206004820152600e60248201527f4e4f545f415554484f52495345440000000000000000000000000000000000006044820152606401610956565b60008481526007602090815260408083208054825181850281018501909352808352919290919083018282801561127457602002820191906000526020600020906000905b825461010083900a900460ff168152602060019283018181049485019490930390920291018084116112455790505b5050505050905060005b815181101561135f5760006007600088815260200190815260200160002060010160008484815181106112b3576112b3613d71565b602002602001015160ff1660ff16815260200190815260200160002060006101000a8154816001600160a01b0302191690836001600160a01b03160217905550857fbf47c0c608c230f7dffbcf65f8cdc76f5f920e4750eea1dcd09138a7359226ac83838151811061132757611327613d71565b6020026020010151604051611345919060ff91909116815260200190565b60405180910390a28061135781613dcf565b91505061127e565b5060008581526007602052604081206113779161398f565b60405185907f6b91085369552b61ca16180a741663b69fb6b3b967f7271116521d84e2291dc590600090a25050505050565b6002546001600160a01b031633146114035760405162461bcd60e51b815260206004820152600760248201527f4e4f545f444556000000000000000000000000000000000000000000000000006044820152606401610956565b600280547fffffffffffffffffffffff00ffffffffffffffffffffffffffffffffffffffff8116740100000000000000000000000000000000000000009182900460ff1615909102179055565b6005546001600160a01b031633146114aa5760405162461bcd60e51b815260206004820152600d60248201527f4e4f545f524547495354524152000000000000000000000000000000000000006044820152606401610956565b6001546040516302571be360e01b8152600481018390526000916001600160a01b0316906302571be390602401602060405180830381865afa1580156114f4573d6000803e3d6000fd5b505050506040513d601f19601f820116820180604052508101906115189190613e07565b6001600160a01b03160361156e5760405162461bcd60e51b815260206004820152600b60248201527f43414e4e4f545f4255524e0000000000000000000000000000000000000000006044820152606401610956565b600082815260076020526040908190206002018290555182907f4810581adf2c16a86a375dbb1ed89b0b0f7e64d48d24e1948b3dfe6581e4d795906115b69084815260200190565b60405180910390a25050565b600081815260076020819052604082200154829042106116245760405162461bcd60e51b815260206004820152601060248201527f4d4f4c4543554c455f45585049524544000000000000000000000000000000006044820152606401610956565b505060009081526007602052604090206006015474010000000000000000000000000000000000000000900460ff1690565b6005546001600160a01b031633146116b05760405162461bcd60e51b815260206004820152600d60248201527f4e4f545f524547495354524152000000000000000000000000000000000000006044820152606401610956565b6000828152600760208190526040909120015481116117115760405162461bcd60e51b815260206004820152600a60248201527f4241445f455850495259000000000000000000000000000000000000000000006044820152606401610956565b600082815260076020819052604091829020018290555182907fa620b72378ee464490805a96e25b53e5c0076f0ce2d28f9691ae255a595b3bf3906115b69084815260200190565b60008281526007602052604080822090517f26c6421b00000000000000000000000000000000000000000000000000000000815273__$47e4ffaaf323c41735ff299f8946896ce0$__916326c6421b916117ba9160ff871691600401613ee2565b602060405180830381865af41580156117d7573d6000803e3d6000fd5b505050506040513d601f19601f820116820180604052508101906117fb91906145b2565b1590505b92915050565b60008281526007602081905260409091200154829042106118685760405162461bcd60e51b815260206004820152601060248201527f4d4f4c4543554c455f45585049524544000000000000000000000000000000006044820152606401610956565b6000818152600760205260408082206002015460015491516302571be360e01b8152600481018290529092916001600160a01b0316906302571be390602401602060405180830381865afa1580156118c4573d6000803e3d6000fd5b505050506040513d601f19601f820116820180604052508101906118e89190613e07565b90506001600160a01b03811633148061192457506001600160a01b038116600090815260086020908152604080832033845290915290205460ff165b8061194857506000838152600760205260409020600601546001600160a01b031633145b6119945760405162461bcd60e51b815260206004820152601760248201527f4e4f545f4f574e45525f4f525f434f4e54524f4c4c45520000000000000000006044820152606401610956565b61199e858561392b565b6119ea5760405162461bcd60e51b815260206004820152600c60248201527f414e494f4e5f45584953545300000000000000000000000000000000000000006044820152606401610956565b6000858152600760209081526040808320600301805460018101825590845291909220018590555185907f600ffddd29393ca43c0a11fa6b0b7096631364178cb42f9d546c0a2cd22525ee90610dda9087815260200190565b6002546040516000916001600160a01b03169047908381818185875af1925050503d8060008114611a90576040519150601f19603f3d011682016040523d82523d6000602084013e611a95565b606091505b5050905080611ae65760405162461bcd60e51b815260206004820152601360248201527f4554485f5452414e534645525f4641494c4544000000000000000000000000006044820152606401610956565b50565b6000828152600760205260408082206002015460015491516302571be360e01b815260048101829052859391926001600160a01b0316906302571be390602401602060405180830381865afa158015611b46573d6000803e3d6000fd5b505050506040513d601f19601f82011682018060405250810190611b6a9190613e07565b6005549091506001600160a01b0316331480611b8e57506001600160a01b03811633145b80611bbc57506001600160a01b038116600090815260086020908152604080832033845290915290205460ff165b80611be057506000838152600760205260409020600601546001600160a01b031633145b611c2c5760405162461bcd60e51b815260206004820152600e60248201527f4e4f545f415554484f52495345440000000000000000000000000000000000006044820152606401610956565b60005b8451811015611d4057848181518110611c4a57611c4a613d71565b602002602001015173__$47e4ffaaf323c41735ff299f8946896ce0$__636fd8c6859091600760008a81526020019081526020016000206003016040518363ffffffff1660e01b8152600401611ca19291906145cf565b602060405180830381865af4158015611cbe573d6000803e3d6000fd5b505050506040513d601f19601f82011682018060405250810190611ce291906145b2565b611d2e5760076000878152602001908152602001600020600301858281518110611d0e57611d0e613d71565b602090810291909101810151825460018101845560009384529190922001555b80611d3881613dcf565b915050611c2f565b50847f580d99949e5d5a02f35dc5b91b800697d53dccb814e200f24f97b4bfbeb8667c85604051610dda9190613a68565b6000828152600760208190526040909120015482904210611dd45760405162461bcd60e51b815260206004820152601060248201527f4d4f4c4543554c455f45585049524544000000000000000000000000000000006044820152606401610956565b6000818152600760205260408082206002015460015491516302571be360e01b8152600481018290529092916001600160a01b0316906302571be390602401602060405180830381865afa158015611e30573d6000803e3d6000fd5b505050506040513d601f19601f82011682018060405250810190611e549190613e07565b90506001600160a01b038116331480611e9057506001600160a01b038116600090815260086020908152604080832033845290915290205460ff165b611edc5760405162461bcd60e51b815260206004820152600960248201527f4e4f545f4f574e455200000000000000000000000000000000000000000000006044820152606401610956565b6001546040516302571be360e01b8152600481018690526000916001600160a01b0316906302571be390602401602060405180830381865afa158015611f26573d6000803e3d6000fd5b505050506040513d601f19601f82011682018060405250810190611f4a9190613e07565b6001600160a01b031603611fa05760405162461bcd60e51b815260206004820152600b60248201527f43414e4e4f545f4255524e0000000000000000000000000000000000000000006044820152606401610956565b600085815260076020526040908190206002018590555185907f4810581adf2c16a86a375dbb1ed89b0b0f7e64d48d24e1948b3dfe6581e4d79590610dda9087815260200190565b600083815260076020819052604090912001548390421061204b5760405162461bcd60e51b815260206004820152601060248201527f4d4f4c4543554c455f45585049524544000000000000000000000000000000006044820152606401610956565b6000818152600760205260408082206002015460015491516302571be360e01b8152600481018290529092916001600160a01b0316906302571be390602401602060405180830381865afa1580156120a7573d6000803e3d6000fd5b505050506040513d601f19601f820116820180604052508101906120cb9190613e07565b90506001600160a01b03811633148061210757506001600160a01b038116600090815260086020908152604080832033845290915290205460ff165b8061212b57506000838152600760205260409020600601546001600160a01b031633145b6121775760405162461bcd60e51b815260206004820152601760248201527f4e4f545f4f574e45525f4f525f434f4e54524f4c4c45520000000000000000006044820152606401610956565b600086815260076020908152604080832060ff881684526001019091529020546001600160a01b038087169116036121f15760405162461bcd60e51b815260206004820152600b60248201527f52554c455f4558495354530000000000000000000000000000000000000000006044820152606401610956565b600086815260076020908152604080832060ff8816808552600190910183529281902080547fffffffffffffffffffffffff0000000000000000000000000000000000000000166001600160a01b038a1690811790915581519081529182019290925287917fe43a78ddf6157361fe34d04905786138f88d3eda20b1f7dc0e2c619f9267310091015b60405180910390a2505050505050565b60008381526007602081905260409091200154839042106122ed5760405162461bcd60e51b815260206004820152601060248201527f4d4f4c4543554c455f45585049524544000000000000000000000000000000006044820152606401610956565b6000818152600760205260408082206002015460015491516302571be360e01b8152600481018290529092916001600160a01b0316906302571be390602401602060405180830381865afa158015612349573d6000803e3d6000fd5b505050506040513d601f19601f8201168201806040525081019061236d9190613e07565b90506001600160a01b0381163314806123a957506001600160a01b038116600090815260086020908152604080832033845290915290205460ff165b806123cd57506000838152600760205260409020600601546001600160a01b031633145b6124195760405162461bcd60e51b815260206004820152601760248201527f4e4f545f4f574e45525f4f525f434f4e54524f4c4c45520000000000000000006044820152606401610956565b6124238685611759565b61246f5760405162461bcd60e51b815260206004820152600b60248201527f484f4f4b5f4558495354530000000000000000000000000000000000000000006044820152606401610956565b600086815260076020908152604080832080546001808201835582865284862085830401805460ff8c8116601f9095166101000a85810291021990911617905581865290910183529281902080546001600160a01b038a167fffffffffffffffffffffffff0000000000000000000000000000000000000000909116811790915581519081529182019290925287917fc733a2bc621cc97eef6ed4f708f126e72e6acb76c0a1c0461c9dd31f7b987065910161227a565b6002546001600160a01b031633146125805760405162461bcd60e51b815260206004820152600760248201527f4e4f545f444556000000000000000000000000000000000000000000000000006044820152606401610956565b600254604080516001600160a01b03928316815291831660208301527fdec101f106d4fc7c85791843e64b198248c822298e3ed7046231d33f7783d816910160405180910390a1600280547fffffffffffffffffffffffff0000000000000000000000000000000000000000166001600160a01b0392909216919091179055565b60008281526007602081905260409091200154829042106126645760405162461bcd60e51b815260206004820152601060248201527f4d4f4c4543554c455f45585049524544000000000000000000000000000000006044820152606401610956565b6000818152600760205260408082206002015460015491516302571be360e01b8152600481018290529092916001600160a01b0316906302571be390602401602060405180830381865afa1580156126c0573d6000803e3d6000fd5b505050506040513d601f19601f820116820180604052508101906126e49190613e07565b90506001600160a01b03811633148061272057506001600160a01b038116600090815260086020908152604080832033845290915290205460ff165b8061274457506000838152600760205260409020600601546001600160a01b031633145b6127905760405162461bcd60e51b815260206004820152601760248201527f4e4f545f4f574e45525f4f525f434f4e54524f4c4c45520000000000000000006044820152606401610956565b6000858152600760209081526040808320600301805482518185028101850190935280835291929091908301828280156127e957602002820191906000526020600020905b8154815260200190600101908083116127d5575b50506040517f6fd8c68500000000000000000000000000000000000000000000000000000000815293945073__$47e4ffaaf323c41735ff299f8946896ce0$__93636fd8c685935061284392508991508590600401614615565b602060405180830381865af4158015612860573d6000803e3d6000fd5b505050506040513d601f19601f8201168201806040525081019061288491906145b2565b15612994576040517fda92b9ed00000000000000000000000000000000000000000000000000000000815260009073__$47e4ffaaf323c41735ff299f8946896ce0$__9063da92b9ed906128de9089908690600401614615565b602060405180830381865af41580156128fb573d6000803e3d6000fd5b505050506040513d601f19601f8201168201806040525081019061291f9190614656565b60008881526007602052604090206003018054919250908290811061294657612946613d71565b9060005260206000200160009055867f5c379d054844760656a56e062f50208b458cfa0c4427574f5a2828d19602b4e98760405161298691815260200190565b60405180910390a2506129c6565b6040517f62316f6700000000000000000000000000000000000000000000000000000000815260040160405180910390fd5b505050505050565b3360008181526008602090815260408083206001600160a01b0387168085529083529281902080547fffffffffffffffffffffffffffffffffffffffffffffffffffffffffffffff001686151590811790915590519081529192917f17307eab39ab6107e8899845ad3d59bd9653f200f220920489ca2b5937696c31910160405180910390a35050565b6001546040516302571be360e01b81526004810184905260009182916001600160a01b03909116906302571be390602401602060405180830381865afa158015612aa6573d6000803e3d6000fd5b505050506040513d601f19601f82011682018060405250810190612aca9190613e07565b6001600160a01b0390811660009081526008602090815260408083209387168352929052205460ff1691505092915050565b6000828152600760208190526040909120015482904210612b5f5760405162461bcd60e51b815260206004820152601060248201527f4d4f4c4543554c455f45585049524544000000000000000000000000000000006044820152606401610956565b6000818152600760205260408082206002015460015491516302571be360e01b8152600481018290529092916001600160a01b0316906302571be390602401602060405180830381865afa158015612bbb573d6000803e3d6000fd5b505050506040513d601f19601f82011682018060405250810190612bdf9190613e07565b90506001600160a01b038116331480612c1b57506001600160a01b038116600090815260086020908152604080832033845290915290205460ff165b80612c3f57506000838152600760205260409020600601546001600160a01b031633145b612c8b5760405162461bcd60e51b815260206004820152601760248201527f4e4f545f4f574e45525f4f525f434f4e54524f4c4c45520000000000000000006044820152606401610956565b600085815260076020908152604080832080548251818502810185019093528083529192909190830182828015612cff57602002820191906000526020600020906000905b825461010083900a900460ff16815260206001928301818104948501949093039092029101808411612cd05790505b50506040517f26c6421b00000000000000000000000000000000000000000000000000000000815293945073__$47e4ffaaf323c41735ff299f8946896ce0$__936326c6421b9350612d5c925060ff8a169150859060040161466f565b602060405180830381865af4158015612d79573d6000803e3d6000fd5b505050506040513d601f19601f82011682018060405250810190612d9d91906145b2565b15612f00576040517f8ab65ceb00000000000000000000000000000000000000000000000000000000815260009073__$47e4ffaaf323c41735ff299f8946896ce0$__90638ab65ceb90612dfa9060ff8a1690869060040161466f565b602060405180830381865af4158015612e17573d6000803e3d6000fd5b505050506040513d601f19601f82011682018060405250810190612e3b9190614656565b600088815260076020908152604080832060ff8b16808552600190910183529281902080547fffffffffffffffffffffffff00000000000000000000000000000000000000001690555191825291925088917fbf47c0c608c230f7dffbcf65f8cdc76f5f920e4750eea1dcd09138a7359226ac910160405180910390a26000878152600760205260409020805482908110612ed857612ed8613d71565b90600052602060002090602091828204019190066101000a81549060ff0219169055506129c6565b6040517fe8dd1d3e00000000000000000000000000000000000000000000000000000000815260040160405180910390fd5b60008181526007602081905260408220015482904210612f945760405162461bcd60e51b815260206004820152601060248201527f4d4f4c4543554c455f45585049524544000000000000000000000000000000006044820152606401610956565b505060009081526007602052604090206004015490565b6000828152600760205260408082206002015460015491516302571be360e01b815260048101829052859391926001600160a01b0316906302571be390602401602060405180830381865afa158015613008573d6000803e3d6000fd5b505050506040513d601f19601f8201168201806040525081019061302c9190613e07565b6005549091506001600160a01b031633148061305057506001600160a01b03811633145b8061307e57506001600160a01b038116600090815260086020908152604080832033845290915290205460ff165b806130a257506000838152600760205260409020600601546001600160a01b031633145b6130ee5760405162461bcd60e51b815260206004820152600e60248201527f4e4f545f415554484f52495345440000000000000000000000000000000000006044820152606401610956565b60008581526007602052604090819020600601805486151574010000000000000000000000000000000000000000027fffffffffffffffffffffff00ffffffffffffffffffffffffffffffffffffffff9091161790555185907fe6ccdb52b4954ab2c3e293f1dbfe593e6c5630962a1944bfcf20c5563eeb846290610dda90871515815260200190565b6000828152600760205260408082206002015460015491516302571be360e01b815260048101829052859391926001600160a01b0316906302571be390602401602060405180830381865afa1580156131d5573d6000803e3d6000fd5b505050506040513d601f19601f820116820180604052508101906131f99190613e07565b6005549091506001600160a01b031633148061321d57506001600160a01b03811633145b8061324b57506001600160a01b038116600090815260086020908152604080832033845290915290205460ff165b8061326f57506000838152600760205260409020600601546001600160a01b031633145b6132bb5760405162461bcd60e51b815260206004820152600e60248201527f4e4f545f415554484f52495345440000000000000000000000000000000000006044820152606401610956565b60008581526007602090815260409182902060060180547fffffffffffffffffffffffff0000000000000000000000000000000000000000166001600160a01b038816908117909155915191825286917fe5108446a6097aab57fd36f346a515a78fddefa87d81662d44e0d7a463f920959101610dda565b6000828152600760205260408082206002015460015491516302571be360e01b815260048101829052859391926001600160a01b0316906302571be390602401602060405180830381865afa158015613390573d6000803e3d6000fd5b505050506040513d601f19601f820116820180604052508101906133b49190613e07565b6005549091506001600160a01b03163314806133d857506001600160a01b03811633145b8061340657506001600160a01b038116600090815260086020908152604080832033845290915290205460ff165b8061342a57506000838152600760205260409020600601546001600160a01b031633145b6134765760405162461bcd60e51b815260206004820152600e60248201527f4e4f545f415554484f52495345440000000000000000000000000000000000006044820152606401610956565b60008581526007602090815260409182902060050180547fffffffffffffffffffffffff0000000000000000000000000000000000000000166001600160a01b038816908117909155915191825286917fcb71326aeaad88869e8be8be2893e1119f7617ce4ea2411af127e218909be1f79101610dda565b600081815260076020819052604082200154829042106135505760405162461bcd60e51b815260206004820152601060248201527f4d4f4c4543554c455f45585049524544000000000000000000000000000000006044820152606401610956565b50506000908152600760205260409020600601546001600160a01b031690565b60008281526007602081905260409091200154829042106135d35760405162461bcd60e51b815260206004820152601060248201527f4d4f4c4543554c455f45585049524544000000000000000000000000000000006044820152606401610956565b6000818152600760205260408082206002015460015491516302571be360e01b8152600481018290529092916001600160a01b0316906302571be390602401602060405180830381865afa15801561362f573d6000803e3d6000fd5b505050506040513d601f19601f820116820180604052508101906136539190613e07565b90506001600160a01b03811633148061368f57506001600160a01b038116600090815260086020908152604080832033845290915290205460ff165b806136b357506000838152600760205260409020600601546001600160a01b031633145b6136ff5760405162461bcd60e51b815260206004820152601760248201527f4e4f545f4f574e45525f4f525f434f4e54524f4c4c45520000000000000000006044820152606401610956565b6000858152600760208190526040909120015484116137605760405162461bcd60e51b815260206004820152600a60248201527f4241445f455850495259000000000000000000000000000000000000000000006044820152606401610956565b60008581526007602081905260408220015461377c90866146b6565b90506004548161378c91906146c9565b3410156137db5760405162461bcd60e51b815260206004820152601260248201527f494e53554646494349454e545f455448455200000000000000000000000000006044820152606401610956565b600086815260076020819052604091829020018690555186907fa620b72378ee464490805a96e25b53e5c0076f0ce2d28f9691ae255a595b3bf39061227a9088815260200190565b600081815260076020819052604082200154829042106138855760405162461bcd60e51b815260206004820152601060248201527f4d4f4c4543554c455f45585049524544000000000000000000000000000000006044820152606401610956565b6000838152600760205260408082206002015460015491516302571be360e01b8152600481018290529092916001600160a01b0316906302571be390602401602060405180830381865afa1580156138e1573d6000803e3d6000fd5b505050506040513d601f19601f820116820180604052508101906139059190613e07565b9050306001600160a01b03821603613923576003549350505061097d565b509392505050565b60008281526007602052604080822090517f6fd8c68500000000000000000000000000000000000000000000000000000000815273__$47e4ffaaf323c41735ff299f8946896ce0$__91636fd8c685916117ba9186916003909101906004016145cf565b50805460008255601f016020900490600052602060002090810190611ae691905b808211156139c457600081556001016139b0565b5090565b6000602082840312156139da57600080fd5b5035919050565b604080825283519082018190526000906020906060840190828701845b82811015613a1d57815160ff16845292840192908401906001016139fe565b5050508381038285015284518082528583019183019060005b81811015613a5b5783516001600160a01b031683529284019291840191600101613a36565b5090979650505050505050565b6020808252825182820181905260009190848201906040850190845b81811015613aa057835183529284019291840191600101613a84565b50909695505050505050565b6001600160a01b0381168114611ae657600080fd5b60008060408385031215613ad457600080fd5b823591506020830135613ae681613aac565b809150509250929050565b60008060408385031215613b0457600080fd5b50508035926020909101359150565b600060208284031215613b2557600080fd5b8135613b3081613aac565b9392505050565b803560ff81168114613b4857600080fd5b919050565b60008060408385031215613b6057600080fd5b82359150613b7060208401613b37565b90509250929050565b7f4e487b7100000000000000000000000000000000000000000000000000000000600052604160045260246000fd5b6040516080810167ffffffffffffffff81118282101715613bcb57613bcb613b79565b60405290565b604051601f82017fffffffffffffffffffffffffffffffffffffffffffffffffffffffffffffffe016810167ffffffffffffffff81118282101715613c1857613c18613b79565b604052919050565b60008060408385031215613c3357600080fd5b8235915060208084013567ffffffffffffffff80821115613c5357600080fd5b818601915086601f830112613c6757600080fd5b813581811115613c7957613c79613b79565b8060051b9150613c8a848301613bd1565b8181529183018401918481019089841115613ca457600080fd5b938501935b83851015613cc257843582529385019390850190613ca9565b8096505050505050509250929050565b600080600060608486031215613ce757600080fd5b833592506020840135613cf981613aac565b9150613d0760408501613b37565b90509250925092565b8015158114611ae657600080fd5b60008060408385031215613d3157600080fd5b8235613d3c81613aac565b91506020830135613ae681613d10565b60008060408385031215613d5f57600080fd5b823591506020830135613ae681613d10565b7f4e487b7100000000000000000000000000000000000000000000000000000000600052603260045260246000fd5b7f4e487b7100000000000000000000000000000000000000000000000000000000600052601160045260246000fd5b60007fffffffffffffffffffffffffffffffffffffffffffffffffffffffffffffffff8203613e0057613e00613da0565b5060010190565b600060208284031215613e1957600080fd5b8151613b3081613aac565b600060808284031215613e3657600080fd5b82601f830112613e4557600080fd5b613e4d613ba8565b806080840185811115613e5f57600080fd5b845b81811015613e79578051845260209384019301613e61565b509095945050505050565b600060808284031215613e9657600080fd5b82601f830112613ea557600080fd5b613ead613ba8565b806080840185811115613ebf57600080fd5b845b81811015613e79578051613ed481613aac565b845260209384019301613ec1565b60006040820160ff80861684526020604081860152828654613f08818690815260200190565b60008981526020812096509092505b81601f8201101561419e57855460ff868216168452613f3f858501878360081c1660ff169052565b613f5360408501878360101c1660ff169052565b6060613f68818601888460181c1660ff169052565b6080613f7c81870189858a1c1660ff169052565b60a0613f918188018a8660281c1660ff169052565b60c0613fa68189018b8760301c1660ff169052565b60e0613fbb818a018c8860381c1660ff169052565b613fd06101008a018c8860401c1660ff169052565b613fe56101208a018c8860481c1660ff169052565b613ffa6101408a018c8860501c1660ff169052565b61400f6101608a018c8860581c1660ff169052565b60ff86861c8c16166101808a01526140326101a08a018c8860681c1660ff169052565b6140476101c08a018c8860701c1660ff169052565b61405c6101e08a018c8860781c1660ff169052565b60ff86851c8c16166102008a015261407f6102208a018c8860881c1660ff169052565b6140946102408a018c8860901c1660ff169052565b6140a96102608a018c8860981c1660ff169052565b60ff86841c8c16166102808a01526140cc6102a08a018c8860a81c1660ff169052565b6140e16102c08a018c8860b01c1660ff169052565b6140f66102e08a018c8860b81c1660ff169052565b60ff86831c8c16166103008a01526141196103208a018c8860c81c1660ff169052565b61412e6103408a018c8860d01c1660ff169052565b6141436103608a018c8860d81c1660ff169052565b60ff86821c8c16166103808a0152505050505061416b6103a08501878360e81c1660ff169052565b6141806103c08501878360f01c1660ff169052565b60f81c6103e084015260019590950194610400909201918301613f17565b945494818110156141b95760ff868616168352918301916001015b818110156141da576141d283868860081c1660ff169052565b918301916001015b818110156141fb576141f383868860101c1660ff169052565b918301916001015b8181101561421c5761421483868860181c1660ff169052565b918301916001015b818110156142365760ff86851c8616168352918301916001015b818110156142575761424f83868860281c1660ff169052565b918301916001015b818110156142785761427083868860301c1660ff169052565b918301916001015b818110156142995761429183868860381c1660ff169052565b918301916001015b818110156142ba576142b283868860401c1660ff169052565b918301916001015b818110156142db576142d383868860481c1660ff169052565b918301916001015b818110156142fc576142f483868860501c1660ff169052565b918301916001015b8181101561431d5761431583868860581c1660ff169052565b918301916001015b8181101561433e5761433683868860601c1660ff169052565b918301916001015b8181101561435f5761435783868860681c1660ff169052565b918301916001015b818110156143805761437883868860701c1660ff169052565b918301916001015b818110156143a15761439983868860781c1660ff169052565b918301916001015b818110156143c2576143ba83868860801c1660ff169052565b918301916001015b818110156143e3576143db83868860881c1660ff169052565b918301916001015b81811015614404576143fc83868860901c1660ff169052565b918301916001015b818110156144255761441d83868860981c1660ff169052565b918301916001015b818110156144465761443e83868860a01c1660ff169052565b918301916001015b818110156144675761445f83868860a81c1660ff169052565b918301916001015b818110156144885761448083868860b01c1660ff169052565b918301916001015b818110156144a9576144a183868860b81c1660ff169052565b918301916001015b818110156144ca576144c283868860c01c1660ff169052565b918301916001015b818110156144eb576144e383868860c81c1660ff169052565b918301916001015b8181101561450c5761450483868860d01c1660ff169052565b918301916001015b8181101561452d5761452583868860d81c1660ff169052565b918301916001015b8181101561454e5761454683868860e01c1660ff169052565b918301916001015b8181101561456f5761456783868860e81c1660ff169052565b918301916001015b818110156145905761458883868860f01c1660ff169052565b918301916001015b818110156145a45760f886901c8352918301915b509098975050505050505050565b6000602082840312156145c457600080fd5b8151613b3081613d10565b60006040820184835260206040818501528185548084526060860191508660005282600020935060005b81811015613a5b578454835260019485019492840192016145f9565b6000604082018483526020604081850152818551808452606086019150828701935060005b81811015613a5b5784518352938301939183019160010161463a565b60006020828403121561466857600080fd5b5051919050565b60006040820160ff80861684526020604081860152828651808552606087019150828801945060005b818110156145a4578551851683529483019491830191600101614698565b818103818111156117ff576117ff613da0565b6000817fffffffffffffffffffffffffffffffffffffffffffffffffffffffffffffffff048311821515161561470157614701613da0565b50029056fea26469706673582212202d8969c1f3433fa6944539e5d625fbfa4037d5538ed96cca411268afce36b70764736f6c63430008100033",
    "linkReferences": {
      "src/Utils/LibString.sol": {
        "LibString": [
          {
            "start": 8291,
            "length": 20
          },
          {
            "start": 9512,
            "length": 20
          },
          {
            "start": 12522,
            "length": 20
          },
          {
            "start": 12680,
            "length": 20
          },
          {
            "start": 13824,
            "length": 20
          },
          {
            "start": 13985,
            "length": 20
          },
          {
            "start": 16949,
            "length": 20
          }
        ]
      }
    }
  },
  "methodIdentifiers": {
    "Dev()": "01e51ae8",
    "HELIX2()": "b782426e",
    "Molecules(bytes32)": "af6328f6",
    "NAMES()": "05e84aa0",
    "Registrar()": "b9f37c86",
    "active()": "02fb0c5e",
    "addAnion(bytes32,bytes32)": "6ff24830",
    "alias_(bytes32)": "c5bc4c0b",
    "anion(bytes32)": "0e68b116",
    "basePrice()": "c7876ea4",
    "cation(bytes32)": "f61ccd53",
    "changeDev(address)": "88a8c95c",
    "controller(bytes32)": "dbd4e021",
    "covalence(bytes32)": "34026859",
    "expiry(bytes32)": "d2ec5fca",
    "hook(bytes32,address,uint8)": "849a799c",
    "hooksWithRules(bytes32)": "0aac6625",
    "isApprovedForAll(bytes32,address)": "b0698628",
    "isNotDuplicateAnion(bytes32,bytes32)": "f8c91244",
    "isNotDuplicateHook(bytes32,uint8)": "4d505584",
    "popAnion(bytes32,bytes32)": "8dcad139",
    "recordExists(bytes32)": "f79fe538",
    "register(bytes32,bytes32)": "2f926732",
    "rehook(bytes32,address,uint8)": "83669726",
    "renew(bytes32,uint256)": "f544d82f",
    "resolver(bytes32)": "0178b8bf",
    "roothash()": "251c9422",
    "setAlias(bytes32,bytes32)": "1f06e91c",
    "setAnions(bytes32,bytes32[])": "741b4cd0",
    "setApprovalForAll(address,bool)": "a22cb465",
    "setCation(bytes32,bytes32)": "8146970a",
    "setConfig(address)": "20e3dbd4",
    "setController(bytes32,address)": "d3156905",
    "setCovalence(bytes32,bool)": "d07699aa",
    "setExpiry(bytes32,uint256)": "39de6469",
    "setRecord(bytes32,address)": "d9b76ed4",
    "setResolver(bytes32,address)": "1896f70a",
    "theEnd()": "22b68deb",
    "toggleActive()": "29c68dc1",
    "unhook(bytes32,uint8)": "b612e9b9",
    "unhookAll(bytes32)": "21ec2b5b",
    "withdrawEther()": "7362377b"
  },
  "id": 26
}