{
  "abi": [
    {
      "inputs": [
        {
          "internalType": "address",
          "name": "_registry",
          "type": "address"
        },
        {
          "internalType": "address",
          "name": "_helix2",
          "type": "address"
        }
      ],
      "stateMutability": "nonpayable",
      "type": "constructor"
    },
    {
      "inputs": [
        {
          "internalType": "bytes32",
          "name": "moleculehash",
          "type": "bytes32"
        },
        {
          "internalType": "bytes32",
          "name": "anion",
          "type": "bytes32"
        }
      ],
      "name": "AnionNotFound",
      "type": "error"
    },
    {
      "anonymous": false,
      "inputs": [
        {
          "indexed": true,
          "internalType": "address",
          "name": "cation",
          "type": "address"
        },
        {
          "indexed": true,
          "internalType": "address",
          "name": "operator",
          "type": "address"
        },
        {
          "indexed": false,
          "internalType": "bool",
          "name": "approved",
          "type": "bool"
        }
      ],
      "name": "ApprovalForAll",
      "type": "event"
    },
    {
      "anonymous": false,
      "inputs": [
        {
          "indexed": true,
          "internalType": "bytes32",
          "name": "molyhash",
          "type": "bytes32"
        },
        {
          "indexed": false,
          "internalType": "address",
          "name": "config",
          "type": "address"
        },
        {
          "indexed": false,
          "internalType": "uint8",
          "name": "rule",
          "type": "uint8"
        }
      ],
      "name": "Hooked",
      "type": "event"
    },
    {
      "anonymous": false,
      "inputs": [
        {
          "indexed": true,
          "internalType": "bytes32",
          "name": "molyhash",
          "type": "bytes32"
        },
        {
          "indexed": false,
          "internalType": "bytes32",
          "name": "_alias",
          "type": "bytes32"
        }
      ],
      "name": "NewAlias",
      "type": "event"
    },
    {
      "anonymous": false,
      "inputs": [
        {
          "indexed": true,
          "internalType": "bytes32",
          "name": "molyhash",
          "type": "bytes32"
        },
        {
          "indexed": false,
          "internalType": "bytes32",
          "name": "anion",
          "type": "bytes32"
        }
      ],
      "name": "NewAnion",
      "type": "event"
    },
    {
      "anonymous": false,
      "inputs": [
        {
          "indexed": true,
          "internalType": "bytes32",
          "name": "molyhash",
          "type": "bytes32"
        },
        {
          "indexed": false,
          "internalType": "bytes32[]",
          "name": "anion",
          "type": "bytes32[]"
        }
      ],
      "name": "NewAnions",
      "type": "event"
    },
    {
      "anonymous": false,
      "inputs": [
        {
          "indexed": true,
          "internalType": "bytes32",
          "name": "molyhash",
          "type": "bytes32"
        },
        {
          "indexed": false,
          "internalType": "bytes32",
          "name": "cation",
          "type": "bytes32"
        }
      ],
      "name": "NewCation",
      "type": "event"
    },
    {
      "anonymous": false,
      "inputs": [
        {
          "indexed": true,
          "internalType": "bytes32",
          "name": "molyhash",
          "type": "bytes32"
        },
        {
          "indexed": false,
          "internalType": "address",
          "name": "controller",
          "type": "address"
        }
      ],
      "name": "NewController",
      "type": "event"
    },
    {
      "anonymous": false,
      "inputs": [
        {
          "indexed": true,
          "internalType": "bytes32",
          "name": "molyhash",
          "type": "bytes32"
        },
        {
          "indexed": false,
          "internalType": "bool",
          "name": "covalence",
          "type": "bool"
        }
      ],
      "name": "NewCovalence",
      "type": "event"
    },
    {
      "anonymous": false,
      "inputs": [
        {
          "indexed": false,
          "internalType": "address",
          "name": "Dev",
          "type": "address"
        },
        {
          "indexed": false,
          "internalType": "address",
          "name": "newDev",
          "type": "address"
        }
      ],
      "name": "NewDev",
      "type": "event"
    },
    {
      "anonymous": false,
      "inputs": [
        {
          "indexed": true,
          "internalType": "bytes32",
          "name": "molyhash",
          "type": "bytes32"
        },
        {
          "indexed": false,
          "internalType": "uint256",
          "name": "expiry",
          "type": "uint256"
        }
      ],
      "name": "NewExpiry",
      "type": "event"
    },
    {
      "anonymous": false,
      "inputs": [
        {
          "indexed": true,
          "internalType": "bytes32",
          "name": "molyhash",
          "type": "bytes32"
        },
        {
          "indexed": false,
          "internalType": "bytes32",
          "name": "cation",
          "type": "bytes32"
        }
      ],
      "name": "NewMolecule",
      "type": "event"
    },
    {
      "anonymous": false,
      "inputs": [
        {
          "indexed": true,
          "internalType": "bytes32",
          "name": "molyhash",
          "type": "bytes32"
        },
        {
          "indexed": false,
          "internalType": "address",
          "name": "resolver",
          "type": "address"
        }
      ],
      "name": "NewRecord",
      "type": "event"
    },
    {
      "anonymous": false,
      "inputs": [
        {
          "indexed": true,
          "internalType": "bytes32",
          "name": "molyhash",
          "type": "bytes32"
        },
        {
          "indexed": false,
          "internalType": "bytes32",
          "name": "cation",
          "type": "bytes32"
        }
      ],
      "name": "NewRegistration",
      "type": "event"
    },
    {
      "anonymous": false,
      "inputs": [
        {
          "indexed": true,
          "internalType": "bytes32",
          "name": "molyhash",
          "type": "bytes32"
        },
        {
          "indexed": false,
          "internalType": "address",
          "name": "resolver",
          "type": "address"
        }
      ],
      "name": "NewResolver",
      "type": "event"
    },
    {
      "anonymous": false,
      "inputs": [
        {
          "indexed": true,
          "internalType": "bytes32",
          "name": "molyhash",
          "type": "bytes32"
        },
        {
          "indexed": false,
          "internalType": "bytes32",
          "name": "anion",
          "type": "bytes32"
        }
      ],
      "name": "PopAnion",
      "type": "event"
    },
    {
      "anonymous": false,
      "inputs": [
        {
          "indexed": true,
          "internalType": "bytes32",
          "name": "molyhash",
          "type": "bytes32"
        },
        {
          "indexed": false,
          "internalType": "address",
          "name": "config",
          "type": "address"
        },
        {
          "indexed": false,
          "internalType": "uint8",
          "name": "rule",
          "type": "uint8"
        }
      ],
      "name": "Rehooked",
      "type": "event"
    },
    {
      "anonymous": false,
      "inputs": [
        {
          "indexed": true,
          "internalType": "bytes32",
          "name": "molyhash",
          "type": "bytes32"
        },
        {
          "indexed": false,
          "internalType": "address",
          "name": "config",
          "type": "address"
        }
      ],
      "name": "Unhooked",
      "type": "event"
    },
    {
      "anonymous": false,
      "inputs": [
        {
          "indexed": true,
          "internalType": "bytes32",
          "name": "molyhash",
          "type": "bytes32"
        }
      ],
      "name": "UnhookedAll",
      "type": "event"
    },
    {
      "inputs": [],
      "name": "Dev",
      "outputs": [
        {
          "internalType": "address",
          "name": "",
          "type": "address"
        }
      ],
      "stateMutability": "view",
      "type": "function"
    },
    {
      "inputs": [],
      "name": "HELIX2",
      "outputs": [
        {
          "internalType": "contract iHELIX2",
          "name": "",
          "type": "address"
        }
      ],
      "stateMutability": "view",
      "type": "function"
    },
    {
      "inputs": [
        {
          "internalType": "bytes32",
          "name": "",
          "type": "bytes32"
        }
      ],
      "name": "Molecules",
      "outputs": [
        {
          "internalType": "bytes32",
          "name": "_cation",
          "type": "bytes32"
        },
        {
          "internalType": "bytes32",
          "name": "_alias",
          "type": "bytes32"
        },
        {
          "internalType": "address",
          "name": "_resolver",
          "type": "address"
        },
        {
          "internalType": "address",
          "name": "_controller",
          "type": "address"
        },
        {
          "internalType": "bool",
          "name": "_covalence",
          "type": "bool"
        },
        {
          "internalType": "uint256",
          "name": "_expiry",
          "type": "uint256"
        }
      ],
      "stateMutability": "view",
      "type": "function"
    },
    {
      "inputs": [],
      "name": "NAMES",
      "outputs": [
        {
          "internalType": "contract iNAME",
          "name": "",
          "type": "address"
        }
      ],
      "stateMutability": "view",
      "type": "function"
    },
    {
      "inputs": [],
      "name": "active",
      "outputs": [
        {
          "internalType": "bool",
          "name": "",
          "type": "bool"
        }
      ],
      "stateMutability": "view",
      "type": "function"
    },
    {
      "inputs": [
        {
          "internalType": "bytes32",
          "name": "molyhash",
          "type": "bytes32"
        },
        {
          "internalType": "bytes32",
          "name": "_anion",
          "type": "bytes32"
        }
      ],
      "name": "addAnion",
      "outputs": [],
      "stateMutability": "nonpayable",
      "type": "function"
    },
    {
      "inputs": [
        {
          "internalType": "bytes32",
          "name": "molyhash",
          "type": "bytes32"
        }
      ],
      "name": "alias_",
      "outputs": [
        {
          "internalType": "bytes32",
          "name": "",
          "type": "bytes32"
        }
      ],
      "stateMutability": "view",
      "type": "function"
    },
    {
      "inputs": [
        {
          "internalType": "bytes32",
          "name": "molyhash",
          "type": "bytes32"
        }
      ],
      "name": "anion",
      "outputs": [
        {
          "internalType": "bytes32[]",
          "name": "",
          "type": "bytes32[]"
        }
      ],
      "stateMutability": "view",
      "type": "function"
    },
    {
      "inputs": [],
      "name": "basePrice",
      "outputs": [
        {
          "internalType": "uint256",
          "name": "",
          "type": "uint256"
        }
      ],
      "stateMutability": "view",
      "type": "function"
    },
    {
      "inputs": [
        {
          "internalType": "bytes32",
          "name": "molyhash",
          "type": "bytes32"
        }
      ],
      "name": "cation",
      "outputs": [
        {
          "internalType": "bytes32",
          "name": "",
          "type": "bytes32"
        }
      ],
      "stateMutability": "view",
      "type": "function"
    },
    {
      "inputs": [
        {
          "internalType": "address",
          "name": "newDev",
          "type": "address"
        }
      ],
      "name": "changeDev",
      "outputs": [],
      "stateMutability": "nonpayable",
      "type": "function"
    },
    {
      "inputs": [
        {
          "internalType": "bytes32",
          "name": "molyhash",
          "type": "bytes32"
        }
      ],
      "name": "controller",
      "outputs": [
        {
          "internalType": "address",
          "name": "",
          "type": "address"
        }
      ],
      "stateMutability": "view",
      "type": "function"
    },
    {
      "inputs": [
        {
          "internalType": "bytes32",
          "name": "molyhash",
          "type": "bytes32"
        }
      ],
      "name": "covalence",
      "outputs": [
        {
          "internalType": "bool",
          "name": "",
          "type": "bool"
        }
      ],
      "stateMutability": "view",
      "type": "function"
    },
    {
      "inputs": [
        {
          "internalType": "bytes32",
          "name": "molyhash",
          "type": "bytes32"
        }
      ],
      "name": "expiry",
      "outputs": [
        {
          "internalType": "uint256",
          "name": "",
          "type": "uint256"
        }
      ],
      "stateMutability": "view",
      "type": "function"
    },
    {
      "inputs": [
        {
          "internalType": "bytes32",
          "name": "molyhash",
          "type": "bytes32"
        },
        {
          "internalType": "uint8",
          "name": "rule",
          "type": "uint8"
        },
        {
          "internalType": "address",
          "name": "config",
          "type": "address"
        }
      ],
      "name": "hook",
      "outputs": [],
      "stateMutability": "nonpayable",
      "type": "function"
    },
    {
      "inputs": [
        {
          "internalType": "bytes32",
          "name": "molyhash",
          "type": "bytes32"
        }
      ],
      "name": "hooksWithRules",
      "outputs": [
        {
          "internalType": "address[]",
          "name": "",
          "type": "address[]"
        },
        {
          "internalType": "uint8[]",
          "name": "",
          "type": "uint8[]"
        }
      ],
      "stateMutability": "view",
      "type": "function"
    },
    {
      "inputs": [
        {
          "internalType": "bytes32",
          "name": "_cation",
          "type": "bytes32"
        },
        {
          "internalType": "address",
          "name": "operator",
          "type": "address"
        }
      ],
      "name": "isApprovedForAll",
      "outputs": [
        {
          "internalType": "bool",
          "name": "",
          "type": "bool"
        }
      ],
      "stateMutability": "view",
      "type": "function"
    },
    {
      "inputs": [
        {
          "internalType": "bytes32",
          "name": "molyhash",
          "type": "bytes32"
        },
        {
          "internalType": "bytes32",
          "name": "_anion",
          "type": "bytes32"
        }
      ],
      "name": "isNotDuplicateAnion",
      "outputs": [
        {
          "internalType": "bool",
          "name": "",
          "type": "bool"
        }
      ],
      "stateMutability": "view",
      "type": "function"
    },
    {
      "inputs": [
        {
          "internalType": "bytes32",
          "name": "molyhash",
          "type": "bytes32"
        },
        {
          "internalType": "address",
          "name": "config",
          "type": "address"
        }
      ],
      "name": "isNotDuplicateHook",
      "outputs": [
        {
          "internalType": "bool",
          "name": "",
          "type": "bool"
        }
      ],
      "stateMutability": "view",
      "type": "function"
    },
    {
      "inputs": [
        {
          "internalType": "bytes32",
          "name": "molyhash",
          "type": "bytes32"
        },
        {
          "internalType": "bytes32",
          "name": "__anion",
          "type": "bytes32"
        }
      ],
      "name": "popAnion",
      "outputs": [],
      "stateMutability": "nonpayable",
      "type": "function"
    },
    {
      "inputs": [
        {
          "internalType": "bytes32",
          "name": "molyhash",
          "type": "bytes32"
        }
      ],
      "name": "recordExists",
      "outputs": [
        {
          "internalType": "bool",
          "name": "",
          "type": "bool"
        }
      ],
      "stateMutability": "view",
      "type": "function"
    },
    {
      "inputs": [
        {
          "internalType": "bytes32",
          "name": "molyhash",
          "type": "bytes32"
        },
        {
          "internalType": "bytes32",
          "name": "_cation",
          "type": "bytes32"
        }
      ],
      "name": "register",
      "outputs": [],
      "stateMutability": "nonpayable",
      "type": "function"
    },
    {
      "inputs": [],
      "name": "registrar",
      "outputs": [
        {
          "internalType": "address",
          "name": "",
          "type": "address"
        }
      ],
      "stateMutability": "view",
      "type": "function"
    },
    {
      "inputs": [
        {
          "internalType": "bytes32",
          "name": "molyhash",
          "type": "bytes32"
        },
        {
          "internalType": "uint8",
          "name": "rule",
          "type": "uint8"
        },
        {
          "internalType": "address",
          "name": "config",
          "type": "address"
        }
      ],
      "name": "rehook",
      "outputs": [],
      "stateMutability": "nonpayable",
      "type": "function"
    },
    {
      "inputs": [
        {
          "internalType": "bytes32",
          "name": "molyhash",
          "type": "bytes32"
        }
      ],
      "name": "resolver",
      "outputs": [
        {
          "internalType": "address",
          "name": "",
          "type": "address"
        }
      ],
      "stateMutability": "view",
      "type": "function"
    },
    {
      "inputs": [],
      "name": "roothash",
      "outputs": [
        {
          "internalType": "bytes32",
          "name": "",
          "type": "bytes32"
        }
      ],
      "stateMutability": "view",
      "type": "function"
    },
    {
      "inputs": [
        {
          "internalType": "bytes32",
          "name": "molyhash",
          "type": "bytes32"
        },
        {
          "internalType": "bytes32",
          "name": "_alias",
          "type": "bytes32"
        }
      ],
      "name": "setAlias",
      "outputs": [],
      "stateMutability": "nonpayable",
      "type": "function"
    },
    {
      "inputs": [
        {
          "internalType": "bytes32",
          "name": "molyhash",
          "type": "bytes32"
        },
        {
          "internalType": "bytes32[]",
          "name": "_anion",
          "type": "bytes32[]"
        }
      ],
      "name": "setAnions",
      "outputs": [],
      "stateMutability": "nonpayable",
      "type": "function"
    },
    {
      "inputs": [
        {
          "internalType": "address",
          "name": "operator",
          "type": "address"
        },
        {
          "internalType": "bool",
          "name": "approved",
          "type": "bool"
        }
      ],
      "name": "setApprovalForAll",
      "outputs": [],
      "stateMutability": "nonpayable",
      "type": "function"
    },
    {
      "inputs": [
        {
          "internalType": "bytes32",
          "name": "molyhash",
          "type": "bytes32"
        },
        {
          "internalType": "bytes32",
          "name": "_cation",
          "type": "bytes32"
        }
      ],
      "name": "setCation",
      "outputs": [],
      "stateMutability": "nonpayable",
      "type": "function"
    },
    {
      "inputs": [
        {
          "internalType": "bytes32",
          "name": "molyhash",
          "type": "bytes32"
        },
        {
          "internalType": "address",
          "name": "_controller",
          "type": "address"
        }
      ],
      "name": "setController",
      "outputs": [],
      "stateMutability": "nonpayable",
      "type": "function"
    },
    {
      "inputs": [
        {
          "internalType": "bytes32",
          "name": "molyhash",
          "type": "bytes32"
        },
        {
          "internalType": "bool",
          "name": "_covalence",
          "type": "bool"
        }
      ],
      "name": "setCovalence",
      "outputs": [],
      "stateMutability": "nonpayable",
      "type": "function"
    },
    {
      "inputs": [
        {
          "internalType": "bytes32",
          "name": "molyhash",
          "type": "bytes32"
        },
        {
          "internalType": "uint256",
          "name": "_expiry",
          "type": "uint256"
        }
      ],
      "name": "setExpiry",
      "outputs": [],
      "stateMutability": "payable",
      "type": "function"
    },
    {
      "inputs": [
        {
          "internalType": "bytes32",
          "name": "molyhash",
          "type": "bytes32"
        },
        {
          "internalType": "address",
          "name": "_resolver",
          "type": "address"
        }
      ],
      "name": "setRecord",
      "outputs": [],
      "stateMutability": "nonpayable",
      "type": "function"
    },
    {
      "inputs": [
        {
          "internalType": "bytes32",
          "name": "molyhash",
          "type": "bytes32"
        },
        {
          "internalType": "address",
          "name": "_resolver",
          "type": "address"
        }
      ],
      "name": "setResolver",
      "outputs": [],
      "stateMutability": "nonpayable",
      "type": "function"
    },
    {
      "inputs": [],
      "name": "theEnd",
      "outputs": [
        {
          "internalType": "uint256",
          "name": "",
          "type": "uint256"
        }
      ],
      "stateMutability": "view",
      "type": "function"
    },
    {
      "inputs": [
        {
          "internalType": "bytes32",
          "name": "molyhash",
          "type": "bytes32"
        },
        {
          "internalType": "address",
          "name": "config",
          "type": "address"
        }
      ],
      "name": "unhook",
      "outputs": [],
      "stateMutability": "nonpayable",
      "type": "function"
    },
    {
      "inputs": [
        {
          "internalType": "bytes32",
          "name": "molyhash",
          "type": "bytes32"
        }
      ],
      "name": "unhookAll",
      "outputs": [],
      "stateMutability": "nonpayable",
      "type": "function"
    },
    {
      "inputs": [],
      "name": "withdrawEther",
      "outputs": [],
      "stateMutability": "nonpayable",
      "type": "function"
    }
  ],
  "bytecode": {
    "object": "0x60806040526002805460ff60a01b1916600160a01b1790556703782dace9d900006006553480156200003057600080fd5b50604051620048623803806200486283398101604081905262000053916200075b565b60028054336001600160a01b0319918216179091556000805482166001600160a01b03848116918217909255600180549093169185169190911790915560408051633215476b60e11b8152905163642a8ed6916004808201926080929091908290030181865afa158015620000cc573d6000803e3d6000fd5b505050506040513d601f19601f82011682018060405250810190620000f29190620007ca565b604090810151600355600054815163bd9a548b60e01b815291516001600160a01b039091169163bd9a548b9160048083019260809291908290030181865afa15801562000143573d6000803e3d6000fd5b505050506040513d601f19601f82011682018060405250810190620001699190620007ca565b604001516004556200017a62000182565b50506200086f565b7fb4b4801cca1cad359bff6b5ea99d95160f00cbe1164fb7231c42c3e8b5f2593b805460ff19169055604080516020818101909252600080825280526007909152620001f2907f6d5257204ebe7d88fd91ae87941cb2dd9d8062b64ae5a2bd2d28ec40b9fbf6df9060016200067f565b5060007f6d5257204ebe7d88fd91ae87941cb2dd9d8062b64ae5a2bd2d28ec40b9fbf6e1819055604080516020818101909252828152918052600790526200025e907f6d5257204ebe7d88fd91ae87941cb2dd9d8062b64ae5a2bd2d28ec40b9fbf6e2906001620006e9565b50600080805260076020527f6d5257204ebe7d88fd91ae87941cb2dd9d8062b64ae5a2bd2d28ec40b9fbf6e38190557f6d5257204ebe7d88fd91ae87941cb2dd9d8062b64ae5a2bd2d28ec40b9fbf6e580546006547f6d5257204ebe7d88fd91ae87941cb2dd9d8062b64ae5a2bd2d28ec40b9fbf6e6556001600160a81b03191633908117600160a01b179091557f6d5257204ebe7d88fd91ae87941cb2dd9d8062b64ae5a2bd2d28ec40b9fbf6e480546001600160a01b0319169091179055805460408051633215476b60e11b815290516001600160a01b03929092169163642a8ed6916004818101926080929091908290030181865afa15801562000369573d6000803e3d6000fd5b505050506040513d601f19601f820116820180604052508101906200038f9190620007ca565b905060005b60048110156200067b57600060076000848460048110620003b957620003b962000831565b60209081029190910151825281810192909252604090810160009081208180526001018352818120805460ff191660ff9590951694909417909355805191820190528181529060079084846004811062000417576200041762000831565b602002015181526020019081526020016000206000019060016200043d9291906200067f565b5081816004811062000453576200045362000831565b60200201516007600084846004811062000471576200047162000831565b60200201518152602001908152602001600020600201819055506040518060200160405280838360048110620004ab57620004ab62000831565b6020020151905260076000848460048110620004cb57620004cb62000831565b60200201518152602001908152602001600020600301906001620004f1929190620006e9565b5081816004811062000507576200050762000831565b60200201516007600084846004811062000525576200052562000831565b60200201518152602001908152602001600020600401819055506001600760008484600481106200055a576200055a62000831565b6020020151815260200190815260200160002060060160146101000a81548160ff02191690831515021790555060065460076000848460048110620005a357620005a362000831565b60200201518152602001908152602001600020600701819055503360076000848460048110620005d757620005d762000831565b6020020151815260200190815260200160002060060160006101000a8154816001600160a01b0302191690836001600160a01b0316021790555033600760008484600481106200062b576200062b62000831565b6020020151815260200190815260200160002060050160006101000a8154816001600160a01b0302191690836001600160a01b031602179055508080620006729062000847565b91505062000394565b5050565b828054828255906000526020600020908101928215620006d7579160200282015b82811115620006d757825182546001600160a01b0319166001600160a01b03909116178255602090920191600190910190620006a0565b50620006e592915062000727565b5090565b828054828255906000526020600020908101928215620006d7579160200282015b82811115620006d75782518255916020019190600101906200070a565b5b80821115620006e5576000815560010162000728565b80516001600160a01b03811681146200075657600080fd5b919050565b600080604083850312156200076f57600080fd5b6200077a836200073e565b91506200078a602084016200073e565b90509250929050565b604051608081016001600160401b0381118282101715620007c457634e487b7160e01b600052604160045260246000fd5b60405290565b600060808284031215620007dd57600080fd5b82601f830112620007ed57600080fd5b620007f762000793565b8060808401858111156200080a57600080fd5b845b81811015620008265780518452602093840193016200080c565b509095945050505050565b634e487b7160e01b600052603260045260246000fd5b6000600182016200086857634e487b7160e01b600052601160045260246000fd5b5060010190565b613fe3806200087f6000396000f3fe6080604052600436106102a05760003560e01c80636ff248301161016e578063c5bc4c0b116100cb578063d9b76ed41161007f578063f61ccd5311610064578063f61ccd53146107ff578063f79fe5381461081f578063f8c912441461085257600080fd5b8063d9b76ed4146107bf578063dbd4e021146107df57600080fd5b8063d07699aa116100b0578063d07699aa1461074e578063d2ec5fca1461076e578063d31569051461079f57600080fd5b8063c5bc4c0b14610718578063c7876ea41461073857600080fd5b80638dcad13911610122578063af6328f611610107578063af6328f614610623578063b0698628146106d8578063b782426e146106f857600080fd5b80638dcad139146105e3578063a22cb4651461060357600080fd5b8063741b4cd011610153578063741b4cd0146105835780638146970a146105a357806388a8c95c146105c357600080fd5b80636ff248301461054e5780637362377b1461056e57600080fd5b80631f06e91c1161021c5780632b20e397116101d057806334026859116101b557806334026859146104fb57806339de64691461051b57806351a764421461052e57600080fd5b80632b20e397146104bb5780632f926732146104db57600080fd5b806322b68deb1161020157806322b68deb14610461578063241270d514610485578063251c9422146104a557600080fd5b80631f06e91c1461042157806321ec2b5b1461044157600080fd5b8063049a491c116102735780630aac6625116102585780630aac6625146103a65780630e68b116146103d45780631896f70a1461040157600080fd5b8063049a491c1461036657806305e84aa01461038657600080fd5b8063015399e6146102a55780630178b8bf146102c757806301e51ae81461030457806302fb0c5e14610324575b600080fd5b3480156102b157600080fd5b506102c56102c0366004613986565b610872565b005b3480156102d357600080fd5b506102e76102e23660046139ce565b610ad7565b6040516001600160a01b0390911681526020015b60405180910390f35b34801561031057600080fd5b506002546102e7906001600160a01b031681565b34801561033057600080fd5b506002546103569074010000000000000000000000000000000000000000900460ff1681565b60405190151581526020016102fb565b34801561037257600080fd5b506103566103813660046139e7565b610b5d565b34801561039257600080fd5b506001546102e7906001600160a01b031681565b3480156103b257600080fd5b506103c66103c13660046139ce565b610c0f565b6040516102fb929190613a17565b3480156103e057600080fd5b506103f46103ef3660046139ce565b610dd5565b6040516102fb9190613a9e565b34801561040d57600080fd5b506102c561041c3660046139e7565b610ea4565b34801561042d57600080fd5b506102c561043c366004613ae2565b6110f6565b34801561044d57600080fd5b506102c561045c3660046139ce565b611318565b34801561046d57600080fd5b5061047760065481565b6040519081526020016102fb565b34801561049157600080fd5b506102c56104a03660046139e7565b611656565b3480156104b157600080fd5b5061047760035481565b3480156104c757600080fd5b506005546102e7906001600160a01b031681565b3480156104e757600080fd5b506102c56104f6366004613ae2565b611a95565b34801561050757600080fd5b506103566105163660046139ce565b611b4e565b6102c5610529366004613ae2565b611be2565b34801561053a57600080fd5b506102c5610549366004613986565b611f8c565b34801561055a57600080fd5b506102c5610569366004613ae2565b6121ea565b34801561057a57600080fd5b506102c5612473565b34801561058f57600080fd5b506102c561059e366004613b82565b612519565b3480156105af57600080fd5b506102c56105be366004613ae2565b612839565b3480156105cf57600080fd5b506102c56105de366004613c34565b6129ec565b3480156105ef57600080fd5b506102c56105fe366004613ae2565b612abc565b34801561060f57600080fd5b506102c561061e366004613c66565b612ed6565b34801561062f57600080fd5b5061069c61063e3660046139ce565b600760208190526000918252604090912060028101546004820154600583015460068401549390940154919390926001600160a01b0391821692918116917401000000000000000000000000000000000000000090910460ff169086565b6040805196875260208701959095526001600160a01b0393841694860194909452911660608401521515608083015260a082015260c0016102fb565b3480156106e457600080fd5b506103566106f33660046139e7565b612f42565b34801561070457600080fd5b506000546102e7906001600160a01b031681565b34801561072457600080fd5b506104776107333660046139ce565b612fe6565b34801561074457600080fd5b5061047760045481565b34801561075a57600080fd5b506102c5610769366004613c94565b61305f565b34801561077a57600080fd5b506104776107893660046139ce565b6000908152600760208190526040909120015490565b3480156107ab57600080fd5b506102c56107ba3660046139e7565b6132c3565b3480156107cb57600080fd5b506102c56107da3660046139e7565b61350a565b3480156107eb57600080fd5b506102e76107fa3660046139ce565b613751565b34801561080b57600080fd5b5061047761081a3660046139ce565b6137d3565b34801561082b57600080fd5b5061035661083a3660046139ce565b60009081526007602081905260409091200154421090565b34801561085e57600080fd5b5061035661086d366004613ae2565b6138db565b60008381526007602081905260409091200154839042106108da5760405162461bcd60e51b815260206004820152601060248201527f4d4f4c4543554c455f455850495245440000000000000000000000000000000060448201526064015b60405180910390fd5b6000818152600760205260408082206002015460015491516302571be360e01b8152600481018290529092916001600160a01b0316906302571be390602401602060405180830381865afa158015610936573d6000803e3d6000fd5b505050506040513d601f19601f8201168201806040525081019061095a9190613cb9565b90506001600160a01b03811633148061099657506001600160a01b038116600090815260086020908152604080832033845290915290205460ff165b6109e25760405162461bcd60e51b815260206004820152600960248201527f4e4f545f4f574e4552000000000000000000000000000000000000000000000060448201526064016108d1565b60008681526007602090815260408083206001600160a01b038816845260010190915290205460ff808716911603610a5c5760405162461bcd60e51b815260206004820152600b60248201527f52554c455f45584953545300000000000000000000000000000000000000000060448201526064016108d1565b60008681526007602090815260408083206001600160a01b0388168085526001909101835292819020805460ff191660ff8a1690811790915581519384529183019190915287917fe43a78ddf6157361fe34d04905786138f88d3eda20b1f7dc0e2c619f9267310091015b60405180910390a2505050505050565b60008181526007602081905260408220015482904210610b395760405162461bcd60e51b815260206004820152601060248201527f4d4f4c4543554c455f455850495245440000000000000000000000000000000060448201526064016108d1565b6000838152600760205260409020600501546001600160a01b031691505b50919050565b60008281526007602052604080822090517f2306f46600000000000000000000000000000000000000000000000000000000815273__$47e4ffaaf323c41735ff299f8946896ce0$__91632306f46691610bc4916001600160a01b03871691600401613cd6565b602060405180830381865af4158015610be1573d6000803e3d6000fd5b505050506040513d601f19601f82011682018060405250810190610c059190613d36565b1590505b92915050565b6060808260076000828152602001908152602001600020600701544210610c785760405162461bcd60e51b815260206004820152601060248201527f4d4f4c4543554c455f455850495245440000000000000000000000000000000060448201526064016108d1565b600084815260076020908152604080832080548251818502810185019093528083529192909190830182828015610cd857602002820191906000526020600020905b81546001600160a01b03168152600190910190602001808311610cba575b505050505090506000815167ffffffffffffffff811115610cfb57610cfb613b04565b604051908082528060200260200182016040528015610d24578160200160208202803683370190505b50905060005b8251811015610dc957600760008881526020019081526020016000206001016000848381518110610d5d57610d5d613d53565b60200260200101516001600160a01b03166001600160a01b0316815260200190815260200160002060009054906101000a900460ff16828281518110610da557610da5613d53565b60ff9092166020928302919091019091015280610dc181613db1565b915050610d2a565b50909350915050915091565b60608160076000828152602001908152602001600020600701544210610e3d5760405162461bcd60e51b815260206004820152601060248201527f4d4f4c4543554c455f455850495245440000000000000000000000000000000060448201526064016108d1565b600083815260076020908152604080832060030180548251818502810185019093528083529192909190830182828015610e9657602002820191906000526020600020905b815481526020019060010190808311610e82575b509398975050505050505050565b6000546040805163134fdccd60e21b8152905184926001600160a01b031691634d3f73349160048083019260809291908290030181865afa158015610eed573d6000803e3d6000fd5b505050506040513d601f19601f82011682018060405250810190610f119190613de9565b604090810151600580546001600160a01b0392831673ffffffffffffffffffffffffffffffffffffffff19909116179055600083815260076020528281206002015460015493516302571be360e01b8152600481018290529093919291909116906302571be390602401602060405180830381865afa158015610f98573d6000803e3d6000fd5b505050506040513d601f19601f82011682018060405250810190610fbc9190613cb9565b6005549091506001600160a01b0316331480610fe057506001600160a01b03811633145b8061100e57506001600160a01b038116600090815260086020908152604080832033845290915290205460ff165b8061103257506000838152600760205260409020600601546001600160a01b031633145b61107e5760405162461bcd60e51b815260206004820152600e60248201527f4e4f545f415554484f524953454400000000000000000000000000000000000060448201526064016108d1565b600085815260076020908152604091829020600501805473ffffffffffffffffffffffffffffffffffffffff19166001600160a01b038816908117909155915191825286917f335721b01866dc23fbee8b6b2c7b1e14d6f05c28cd35a2c934239f94095602a091015b60405180910390a25050505050565b6000546040805163134fdccd60e21b8152905184926001600160a01b031691634d3f73349160048083019260809291908290030181865afa15801561113f573d6000803e3d6000fd5b505050506040513d601f19601f820116820180604052508101906111639190613de9565b604090810151600580546001600160a01b0392831673ffffffffffffffffffffffffffffffffffffffff19909116179055600083815260076020528281206002015460015493516302571be360e01b8152600481018290529093919291909116906302571be390602401602060405180830381865afa1580156111ea573d6000803e3d6000fd5b505050506040513d601f19601f8201168201806040525081019061120e9190613cb9565b6005549091506001600160a01b031633148061123257506001600160a01b03811633145b8061126057506001600160a01b038116600090815260086020908152604080832033845290915290205460ff165b8061128457506000838152600760205260409020600601546001600160a01b031633145b6112d05760405162461bcd60e51b815260206004820152600e60248201527f4e4f545f415554484f524953454400000000000000000000000000000000000060448201526064016108d1565b600085815260076020526040908190206004018590555185907f4247841fd58468a6fb10925898bdd83c426da7b5519ee71597106dfdc6751229906110e79087815260200190565b600081815260076020819052604090912001548190421061137b5760405162461bcd60e51b815260206004820152601060248201527f4d4f4c4543554c455f455850495245440000000000000000000000000000000060448201526064016108d1565b6000818152600760205260408082206002015460015491516302571be360e01b8152600481018290529092916001600160a01b0316906302571be390602401602060405180830381865afa1580156113d7573d6000803e3d6000fd5b505050506040513d601f19601f820116820180604052508101906113fb9190613cb9565b90506001600160a01b03811633148061143757506001600160a01b038116600090815260086020908152604080832033845290915290205460ff165b6114835760405162461bcd60e51b815260206004820152600960248201527f4e4f545f4f574e4552000000000000000000000000000000000000000000000060448201526064016108d1565b6000848152600760209081526040808320805482518185028101850190935280835291929091908301828280156114e357602002820191906000526020600020905b81546001600160a01b031681526001909101906020018083116114c5575b5050505050905060005b81518110156115d457600060076000888152602001908152602001600020600101600084848151811061152257611522613d53565b60200260200101516001600160a01b03166001600160a01b0316815260200190815260200160002060006101000a81548160ff021916908360ff160217905550857fc4c4b4793ac649a3a05ee26afdd6d54122cea2e3298a195a786ab7e899c21e3483838151811061159657611596613d53565b60200260200101516040516115ba91906001600160a01b0391909116815260200190565b60405180910390a2806115cc81613db1565b9150506114ed565b5060008581526007602052604081206115ec9161393f565b60405185907f6b91085369552b61ca16180a741663b69fb6b3b967f7271116521d84e2291dc590600090a250505060009182525060076020908152604082208054600181018255908352912001805473ffffffffffffffffffffffffffffffffffffffff19169055565b60008281526007602081905260409091200154829042106116b95760405162461bcd60e51b815260206004820152601060248201527f4d4f4c4543554c455f455850495245440000000000000000000000000000000060448201526064016108d1565b6000818152600760205260408082206002015460015491516302571be360e01b8152600481018290529092916001600160a01b0316906302571be390602401602060405180830381865afa158015611715573d6000803e3d6000fd5b505050506040513d601f19601f820116820180604052508101906117399190613cb9565b90506001600160a01b03811633148061177557506001600160a01b038116600090815260086020908152604080832033845290915290205460ff165b6117c15760405162461bcd60e51b815260206004820152600960248201527f4e4f545f4f574e4552000000000000000000000000000000000000000000000060448201526064016108d1565b60008581526007602090815260408083208054825181850281018501909352808352919290919083018282801561182157602002820191906000526020600020905b81546001600160a01b03168152600190910190602001808311611803575b50506040517f2306f46600000000000000000000000000000000000000000000000000000000815293945073__$47e4ffaaf323c41735ff299f8946896ce0$__93632306f466935061188492506001600160a01b038a1691508590600401613e70565b602060405180830381865af41580156118a1573d6000803e3d6000fd5b505050506040513d601f19601f820116820180604052508101906118c59190613d36565b15611a5a576040517fcd23ef4c00000000000000000000000000000000000000000000000000000000815260009073__$47e4ffaaf323c41735ff299f8946896ce0$__9063cd23ef4c90611928906001600160a01b038a16908690600401613e70565b602060405180830381865af4158015611945573d6000803e3d6000fd5b505050506040513d601f19601f820116820180604052508101906119699190613ebd565b9050806119ab576040516000815287907fc4c4b4793ac649a3a05ee26afdd6d54122cea2e3298a195a786ab7e899c21e349060200160405180910390a2611a54565b60008781526007602090815260408083206001600160a01b038a168085526001909101835292819020805460ff191690555191825288917fc4c4b4793ac649a3a05ee26afdd6d54122cea2e3298a195a786ab7e899c21e34910160405180910390a26000878152600760205260409020805482908110611a2d57611a2d613d53565b6000918252602090912001805473ffffffffffffffffffffffffffffffffffffffff191690555b50611a8d565b6040516000815286907fc4c4b4793ac649a3a05ee26afdd6d54122cea2e3298a195a786ab7e899c21e3490602001610ac7565b505050505050565b600082815260076020819052604090912001548290421015611af95760405162461bcd60e51b815260206004820152600f60248201527f4d4f4c4543554c455f455849535453000000000000000000000000000000000060448201526064016108d1565b600083815260076020526040908190206002018390555183907facb5de0f65735f798ae8baf163fb3380a7813aca2c739ba9e39179007206585a90611b419085815260200190565b60405180910390a2505050565b60008181526007602081905260408220015482904210611bb05760405162461bcd60e51b815260206004820152601060248201527f4d4f4c4543554c455f455850495245440000000000000000000000000000000060448201526064016108d1565b505060009081526007602052604090206006015474010000000000000000000000000000000000000000900460ff1690565b6000546040805163134fdccd60e21b8152905184926001600160a01b031691634d3f73349160048083019260809291908290030181865afa158015611c2b573d6000803e3d6000fd5b505050506040513d601f19601f82011682018060405250810190611c4f9190613de9565b604090810151600580546001600160a01b0392831673ffffffffffffffffffffffffffffffffffffffff19909116179055600083815260076020528281206002015460015493516302571be360e01b8152600481018290529093919291909116906302571be390602401602060405180830381865afa158015611cd6573d6000803e3d6000fd5b505050506040513d601f19601f82011682018060405250810190611cfa9190613cb9565b6005549091506001600160a01b0316331480611d1e57506001600160a01b03811633145b80611d4c57506001600160a01b038116600090815260086020908152604080832033845290915290205460ff165b80611d7057506000838152600760205260409020600601546001600160a01b031633145b611dbc5760405162461bcd60e51b815260206004820152600e60248201527f4e4f545f415554484f524953454400000000000000000000000000000000000060448201526064016108d1565b600085815260076020819052604090912001548411611e1d5760405162461bcd60e51b815260206004820152600a60248201527f4241445f4558504952590000000000000000000000000000000000000000000060448201526064016108d1565b60008054906101000a90046001600160a01b03166001600160a01b0316634d3f73346040518163ffffffff1660e01b8152600401608060405180830381865afa158015611e6e573d6000803e3d6000fd5b505050506040513d601f19601f82011682018060405250810190611e929190613de9565b604001516005805473ffffffffffffffffffffffffffffffffffffffff19166001600160a01b0390921691821790553314611f4457600085815260076020819052604082200154611ee39086613ed6565b905060045481611ef39190613ee9565b341015611f425760405162461bcd60e51b815260206004820152601260248201527f494e53554646494349454e545f4554484552000000000000000000000000000060448201526064016108d1565b505b600085815260076020819052604091829020018590555185907fa620b72378ee464490805a96e25b53e5c0076f0ce2d28f9691ae255a595b3bf3906110e79087815260200190565b6000838152600760208190526040909120015483904210611fef5760405162461bcd60e51b815260206004820152601060248201527f4d4f4c4543554c455f455850495245440000000000000000000000000000000060448201526064016108d1565b6000818152600760205260408082206002015460015491516302571be360e01b8152600481018290529092916001600160a01b0316906302571be390602401602060405180830381865afa15801561204b573d6000803e3d6000fd5b505050506040513d601f19601f8201168201806040525081019061206f9190613cb9565b90506001600160a01b0381163314806120ab57506001600160a01b038116600090815260086020908152604080832033845290915290205460ff165b6120f75760405162461bcd60e51b815260206004820152600960248201527f4e4f545f4f574e4552000000000000000000000000000000000000000000000060448201526064016108d1565b6121018685610b5d565b61214d5760405162461bcd60e51b815260206004820152600b60248201527f484f4f4b5f45584953545300000000000000000000000000000000000000000060448201526064016108d1565b6000868152600760209081526040808320805460018082018355828652848620909101805473ffffffffffffffffffffffffffffffffffffffff19166001600160a01b038b169081179091558086529101835292819020805460ff191660ff8a1690811790915581519384529183019190915287917fc733a2bc621cc97eef6ed4f708f126e72e6acb76c0a1c0461c9dd31f7b9870659101610ac7565b6000546040805163134fdccd60e21b8152905184926001600160a01b031691634d3f73349160048083019260809291908290030181865afa158015612233573d6000803e3d6000fd5b505050506040513d601f19601f820116820180604052508101906122579190613de9565b604090810151600580546001600160a01b0392831673ffffffffffffffffffffffffffffffffffffffff19909116179055600083815260076020528281206002015460015493516302571be360e01b8152600481018290529093919291909116906302571be390602401602060405180830381865afa1580156122de573d6000803e3d6000fd5b505050506040513d601f19601f820116820180604052508101906123029190613cb9565b6005549091506001600160a01b031633148061232657506001600160a01b03811633145b8061235457506001600160a01b038116600090815260086020908152604080832033845290915290205460ff165b8061237857506000838152600760205260409020600601546001600160a01b031633145b6123c45760405162461bcd60e51b815260206004820152600e60248201527f4e4f545f415554484f524953454400000000000000000000000000000000000060448201526064016108d1565b6123ce85856138db565b61241a5760405162461bcd60e51b815260206004820152600c60248201527f414e494f4e5f455849535453000000000000000000000000000000000000000060448201526064016108d1565b6000858152600760209081526040808320600301805460018101825590845291909220018590555185907f600ffddd29393ca43c0a11fa6b0b7096631364178cb42f9d546c0a2cd22525ee906110e79087815260200190565b6002546040516000916001600160a01b03169047908381818185875af1925050503d80600081146124c0576040519150601f19603f3d011682016040523d82523d6000602084013e6124c5565b606091505b50509050806125165760405162461bcd60e51b815260206004820152601360248201527f4554485f5452414e534645525f4641494c45440000000000000000000000000060448201526064016108d1565b50565b6000546040805163134fdccd60e21b8152905184926001600160a01b031691634d3f73349160048083019260809291908290030181865afa158015612562573d6000803e3d6000fd5b505050506040513d601f19601f820116820180604052508101906125869190613de9565b604090810151600580546001600160a01b0392831673ffffffffffffffffffffffffffffffffffffffff19909116179055600083815260076020528281206002015460015493516302571be360e01b8152600481018290529093919291909116906302571be390602401602060405180830381865afa15801561260d573d6000803e3d6000fd5b505050506040513d601f19601f820116820180604052508101906126319190613cb9565b6005549091506001600160a01b031633148061265557506001600160a01b03811633145b8061268357506001600160a01b038116600090815260086020908152604080832033845290915290205460ff165b806126a757506000838152600760205260409020600601546001600160a01b031633145b6126f35760405162461bcd60e51b815260206004820152600e60248201527f4e4f545f415554484f524953454400000000000000000000000000000000000060448201526064016108d1565b60005b84518110156128085784818151811061271157612711613d53565b602002602001015173__$47e4ffaaf323c41735ff299f8946896ce0$__636fd8c6859091600760008a81526020019081526020016000206003016040518363ffffffff1660e01b8152600401612768929190613f26565b602060405180830381865af4158015612785573d6000803e3d6000fd5b505050506040513d601f19601f820116820180604052508101906127a99190613d36565b156127f657600760008781526020019081526020016000206003018582815181106127d6576127d6613d53565b602090810291909101810151825460018101845560009384529190922001555b8061280081613db1565b9150506126f6565b50847f580d99949e5d5a02f35dc5b91b800697d53dccb814e200f24f97b4bfbeb8667c856040516110e79190613a9e565b600082815260076020819052604090912001548290421061289c5760405162461bcd60e51b815260206004820152601060248201527f4d4f4c4543554c455f455850495245440000000000000000000000000000000060448201526064016108d1565b6000818152600760205260408082206002015460015491516302571be360e01b8152600481018290529092916001600160a01b0316906302571be390602401602060405180830381865afa1580156128f8573d6000803e3d6000fd5b505050506040513d601f19601f8201168201806040525081019061291c9190613cb9565b90506001600160a01b03811633148061295857506001600160a01b038116600090815260086020908152604080832033845290915290205460ff165b6129a45760405162461bcd60e51b815260206004820152600960248201527f4e4f545f4f574e4552000000000000000000000000000000000000000000000060448201526064016108d1565b600085815260076020526040908190206002018590555185907f4810581adf2c16a86a375dbb1ed89b0b0f7e64d48d24e1948b3dfe6581e4d795906110e79087815260200190565b6002546001600160a01b03163314612a465760405162461bcd60e51b815260206004820152600760248201527f4e4f545f4445560000000000000000000000000000000000000000000000000060448201526064016108d1565b600254604080516001600160a01b03928316815291831660208301527fdec101f106d4fc7c85791843e64b198248c822298e3ed7046231d33f7783d816910160405180910390a16002805473ffffffffffffffffffffffffffffffffffffffff19166001600160a01b0392909216919091179055565b6000546040805163134fdccd60e21b8152905184926001600160a01b031691634d3f73349160048083019260809291908290030181865afa158015612b05573d6000803e3d6000fd5b505050506040513d601f19601f82011682018060405250810190612b299190613de9565b604090810151600580546001600160a01b0392831673ffffffffffffffffffffffffffffffffffffffff19909116179055600083815260076020528281206002015460015493516302571be360e01b8152600481018290529093919291909116906302571be390602401602060405180830381865afa158015612bb0573d6000803e3d6000fd5b505050506040513d601f19601f82011682018060405250810190612bd49190613cb9565b6005549091506001600160a01b0316331480612bf857506001600160a01b03811633145b80612c2657506001600160a01b038116600090815260086020908152604080832033845290915290205460ff165b80612c4a57506000838152600760205260409020600601546001600160a01b031633145b612c965760405162461bcd60e51b815260206004820152600e60248201527f4e4f545f415554484f524953454400000000000000000000000000000000000060448201526064016108d1565b600085815260076020908152604080832060030180548251818502810185019093528083529192909190830182828015612cef57602002820191906000526020600020905b815481526020019060010190808311612cdb575b50506040517f6fd8c68500000000000000000000000000000000000000000000000000000000815293945073__$47e4ffaaf323c41735ff299f8946896ce0$__93636fd8c6859350612d4992508991508590600401613f6c565b602060405180830381865af4158015612d66573d6000803e3d6000fd5b505050506040513d601f19601f82011682018060405250810190612d8a9190613d36565b15612e9a576040517fda92b9ed00000000000000000000000000000000000000000000000000000000815260009073__$47e4ffaaf323c41735ff299f8946896ce0$__9063da92b9ed90612de49089908690600401613f6c565b602060405180830381865af4158015612e01573d6000803e3d6000fd5b505050506040513d601f19601f82011682018060405250810190612e259190613ebd565b600088815260076020526040902060030180549192509082908110612e4c57612e4c613d53565b9060005260206000200160009055867f5c379d054844760656a56e062f50208b458cfa0c4427574f5a2828d19602b4e987604051612e8c91815260200190565b60405180910390a250611a8d565b6040517f5adb3bc700000000000000000000000000000000000000000000000000000000815260048101879052602481018690526044016108d1565b3360008181526008602090815260408083206001600160a01b03871680855290835292819020805460ff191686151590811790915590519081529192917f17307eab39ab6107e8899845ad3d59bd9653f200f220920489ca2b5937696c31910160405180910390a35050565b6001546040516302571be360e01b81526004810184905260009182916001600160a01b03909116906302571be390602401602060405180830381865afa158015612f90573d6000803e3d6000fd5b505050506040513d601f19601f82011682018060405250810190612fb49190613cb9565b6001600160a01b0390811660009081526008602090815260408083209387168352929052205460ff1691505092915050565b600081815260076020819052604082200154829042106130485760405162461bcd60e51b815260206004820152601060248201527f4d4f4c4543554c455f455850495245440000000000000000000000000000000060448201526064016108d1565b505060009081526007602052604090206004015490565b6000546040805163134fdccd60e21b8152905184926001600160a01b031691634d3f73349160048083019260809291908290030181865afa1580156130a8573d6000803e3d6000fd5b505050506040513d601f19601f820116820180604052508101906130cc9190613de9565b604090810151600580546001600160a01b0392831673ffffffffffffffffffffffffffffffffffffffff19909116179055600083815260076020528281206002015460015493516302571be360e01b8152600481018290529093919291909116906302571be390602401602060405180830381865afa158015613153573d6000803e3d6000fd5b505050506040513d601f19601f820116820180604052508101906131779190613cb9565b6005549091506001600160a01b031633148061319b57506001600160a01b03811633145b806131c957506001600160a01b038116600090815260086020908152604080832033845290915290205460ff165b806131ed57506000838152600760205260409020600601546001600160a01b031633145b6132395760405162461bcd60e51b815260206004820152600e60248201527f4e4f545f415554484f524953454400000000000000000000000000000000000060448201526064016108d1565b60008581526007602052604090819020600601805486151574010000000000000000000000000000000000000000027fffffffffffffffffffffff00ffffffffffffffffffffffffffffffffffffffff9091161790555185907fe6ccdb52b4954ab2c3e293f1dbfe593e6c5630962a1944bfcf20c5563eeb8462906110e790871515815260200190565b6000546040805163134fdccd60e21b8152905184926001600160a01b031691634d3f73349160048083019260809291908290030181865afa15801561330c573d6000803e3d6000fd5b505050506040513d601f19601f820116820180604052508101906133309190613de9565b604090810151600580546001600160a01b0392831673ffffffffffffffffffffffffffffffffffffffff19909116179055600083815260076020528281206002015460015493516302571be360e01b8152600481018290529093919291909116906302571be390602401602060405180830381865afa1580156133b7573d6000803e3d6000fd5b505050506040513d601f19601f820116820180604052508101906133db9190613cb9565b6005549091506001600160a01b03163314806133ff57506001600160a01b03811633145b8061342d57506001600160a01b038116600090815260086020908152604080832033845290915290205460ff165b8061345157506000838152600760205260409020600601546001600160a01b031633145b61349d5760405162461bcd60e51b815260206004820152600e60248201527f4e4f545f415554484f524953454400000000000000000000000000000000000060448201526064016108d1565b600085815260076020908152604091829020600601805473ffffffffffffffffffffffffffffffffffffffff19166001600160a01b038816908117909155915191825286917fe5108446a6097aab57fd36f346a515a78fddefa87d81662d44e0d7a463f9209591016110e7565b6000546040805163134fdccd60e21b8152905184926001600160a01b031691634d3f73349160048083019260809291908290030181865afa158015613553573d6000803e3d6000fd5b505050506040513d601f19601f820116820180604052508101906135779190613de9565b604090810151600580546001600160a01b0392831673ffffffffffffffffffffffffffffffffffffffff19909116179055600083815260076020528281206002015460015493516302571be360e01b8152600481018290529093919291909116906302571be390602401602060405180830381865afa1580156135fe573d6000803e3d6000fd5b505050506040513d601f19601f820116820180604052508101906136229190613cb9565b6005549091506001600160a01b031633148061364657506001600160a01b03811633145b8061367457506001600160a01b038116600090815260086020908152604080832033845290915290205460ff165b8061369857506000838152600760205260409020600601546001600160a01b031633145b6136e45760405162461bcd60e51b815260206004820152600e60248201527f4e4f545f415554484f524953454400000000000000000000000000000000000060448201526064016108d1565b600085815260076020908152604091829020600501805473ffffffffffffffffffffffffffffffffffffffff19166001600160a01b038816908117909155915191825286917fcb71326aeaad88869e8be8be2893e1119f7617ce4ea2411af127e218909be1f791016110e7565b600081815260076020819052604082200154829042106137b35760405162461bcd60e51b815260206004820152601060248201527f4d4f4c4543554c455f455850495245440000000000000000000000000000000060448201526064016108d1565b50506000908152600760205260409020600601546001600160a01b031690565b600081815260076020819052604082200154829042106138355760405162461bcd60e51b815260206004820152601060248201527f4d4f4c4543554c455f455850495245440000000000000000000000000000000060448201526064016108d1565b6000838152600760205260408082206002015460015491516302571be360e01b8152600481018290529092916001600160a01b0316906302571be390602401602060405180830381865afa158015613891573d6000803e3d6000fd5b505050506040513d601f19601f820116820180604052508101906138b59190613cb9565b9050306001600160a01b038216036138d35760035493505050610b57565b509392505050565b60008281526007602052604080822090517f6fd8c68500000000000000000000000000000000000000000000000000000000815273__$47e4ffaaf323c41735ff299f8946896ce0$__91636fd8c68591610bc4918691600390910190600401613f26565b508054600082559060005260206000209081019061251691905b8082111561396d5760008155600101613959565b5090565b6001600160a01b038116811461251657600080fd5b60008060006060848603121561399b57600080fd5b83359250602084013560ff811681146139b357600080fd5b915060408401356139c381613971565b809150509250925092565b6000602082840312156139e057600080fd5b5035919050565b600080604083850312156139fa57600080fd5b823591506020830135613a0c81613971565b809150509250929050565b604080825283519082018190526000906020906060840190828701845b82811015613a595781516001600160a01b031684529284019290840190600101613a34565b5050508381038285015284518082528583019183019060005b81811015613a9157835160ff1683529284019291840191600101613a72565b5090979650505050505050565b6020808252825182820181905260009190848201906040850190845b81811015613ad657835183529284019291840191600101613aba565b50909695505050505050565b60008060408385031215613af557600080fd5b50508035926020909101359150565b7f4e487b7100000000000000000000000000000000000000000000000000000000600052604160045260246000fd5b604051601f82017fffffffffffffffffffffffffffffffffffffffffffffffffffffffffffffffe016810167ffffffffffffffff81118282101715613b7a57613b7a613b04565b604052919050565b60008060408385031215613b9557600080fd5b8235915060208084013567ffffffffffffffff80821115613bb557600080fd5b818601915086601f830112613bc957600080fd5b813581811115613bdb57613bdb613b04565b8060051b9150613bec848301613b33565b8181529183018401918481019089841115613c0657600080fd5b938501935b83851015613c2457843582529385019390850190613c0b565b8096505050505050509250929050565b600060208284031215613c4657600080fd5b8135613c5181613971565b9392505050565b801515811461251657600080fd5b60008060408385031215613c7957600080fd5b8235613c8481613971565b91506020830135613a0c81613c58565b60008060408385031215613ca757600080fd5b823591506020830135613a0c81613c58565b600060208284031215613ccb57600080fd5b8151613c5181613971565b6000604082016001600160a01b03808616845260206040818601528286548085526060870191508760005282600020945060005b81811015613d28578554851683526001958601959284019201613d0a565b509098975050505050505050565b600060208284031215613d4857600080fd5b8151613c5181613c58565b7f4e487b7100000000000000000000000000000000000000000000000000000000600052603260045260246000fd5b7f4e487b7100000000000000000000000000000000000000000000000000000000600052601160045260246000fd5b60007fffffffffffffffffffffffffffffffffffffffffffffffffffffffffffffffff8203613de257613de2613d82565b5060010190565b600060808284031215613dfb57600080fd5b82601f830112613e0a57600080fd5b6040516080810181811067ffffffffffffffff82111715613e2d57613e2d613b04565b604052806080840185811115613e4257600080fd5b845b81811015613e65578051613e5781613971565b835260209283019201613e44565b509195945050505050565b6000604082016001600160a01b0380861684526020604081860152828651808552606087019150828801945060005b81811015613d28578551851683529483019491830191600101613e9f565b600060208284031215613ecf57600080fd5b5051919050565b81810381811115610c0957610c09613d82565b6000817fffffffffffffffffffffffffffffffffffffffffffffffffffffffffffffffff0483118215151615613f2157613f21613d82565b500290565b60006040820184835260206040818501528185548084526060860191508660005282600020935060005b81811015613a9157845483526001948501949284019201613f50565b6000604082018483526020604081850152818551808452606086019150828701935060005b81811015613a9157845183529383019391830191600101613f9156fea26469706673582212203387a98c111d50d9d4ca480c0ca4690fe89339987d59d69bd912dfadeb42aa1764736f6c63430008100033",
    "linkReferences": {
      "src/Utils/LibString.sol": {
        "LibString": [
          {
            "start": 5138,
            "length": 20
          },
          {
            "start": 8397,
            "length": 20
          },
          {
            "start": 8564,
            "length": 20
          },
          {
            "start": 12186,
            "length": 20
          },
          {
            "start": 13723,
            "length": 20
          },
          {
            "start": 13881,
            "length": 20
          },
          {
            "start": 16784,
            "length": 20
          }
        ]
      }
    }
  },
  "methodIdentifiers": {
    "Dev()": "01e51ae8",
    "HELIX2()": "b782426e",
    "Molecules(bytes32)": "af6328f6",
    "NAMES()": "05e84aa0",
    "active()": "02fb0c5e",
    "addAnion(bytes32,bytes32)": "6ff24830",
    "alias_(bytes32)": "c5bc4c0b",
    "anion(bytes32)": "0e68b116",
    "basePrice()": "c7876ea4",
    "cation(bytes32)": "f61ccd53",
    "changeDev(address)": "88a8c95c",
    "controller(bytes32)": "dbd4e021",
    "covalence(bytes32)": "34026859",
    "expiry(bytes32)": "d2ec5fca",
    "hook(bytes32,uint8,address)": "51a76442",
    "hooksWithRules(bytes32)": "0aac6625",
    "isApprovedForAll(bytes32,address)": "b0698628",
    "isNotDuplicateAnion(bytes32,bytes32)": "f8c91244",
    "isNotDuplicateHook(bytes32,address)": "049a491c",
    "popAnion(bytes32,bytes32)": "8dcad139",
    "recordExists(bytes32)": "f79fe538",
    "register(bytes32,bytes32)": "2f926732",
    "registrar()": "2b20e397",
    "rehook(bytes32,uint8,address)": "015399e6",
    "resolver(bytes32)": "0178b8bf",
    "roothash()": "251c9422",
    "setAlias(bytes32,bytes32)": "1f06e91c",
    "setAnions(bytes32,bytes32[])": "741b4cd0",
    "setApprovalForAll(address,bool)": "a22cb465",
    "setCation(bytes32,bytes32)": "8146970a",
    "setController(bytes32,address)": "d3156905",
    "setCovalence(bytes32,bool)": "d07699aa",
    "setExpiry(bytes32,uint256)": "39de6469",
    "setRecord(bytes32,address)": "d9b76ed4",
    "setResolver(bytes32,address)": "1896f70a",
    "theEnd()": "22b68deb",
    "unhook(bytes32,address)": "241270d5",
    "unhookAll(bytes32)": "21ec2b5b",
    "withdrawEther()": "7362377b"
  },
  "id": 24
}