{
  "abi": [
    {
      "inputs": [
        {
          "internalType": "address",
          "name": "_registry",
          "type": "address"
        },
        {
          "internalType": "address",
          "name": "_helix2",
          "type": "address"
        },
        {
          "internalType": "address",
          "name": "_priceOracle",
          "type": "address"
        }
      ],
      "stateMutability": "nonpayable",
      "type": "constructor"
    },
    {
      "inputs": [],
      "name": "BAD_ANION",
      "type": "error"
    },
    {
      "inputs": [],
      "name": "BAD_HOOK",
      "type": "error"
    },
    {
      "anonymous": false,
      "inputs": [
        {
          "indexed": true,
          "internalType": "address",
          "name": "cation",
          "type": "address"
        },
        {
          "indexed": true,
          "internalType": "address",
          "name": "operator",
          "type": "address"
        },
        {
          "indexed": false,
          "internalType": "bool",
          "name": "approved",
          "type": "bool"
        }
      ],
      "name": "ApprovalForAll",
      "type": "event"
    },
    {
      "anonymous": false,
      "inputs": [
        {
          "indexed": true,
          "internalType": "bytes32",
          "name": "bondhash",
          "type": "bytes32"
        },
        {
          "indexed": false,
          "internalType": "address",
          "name": "config",
          "type": "address"
        },
        {
          "indexed": false,
          "internalType": "uint8",
          "name": "rule",
          "type": "uint8"
        }
      ],
      "name": "Hooked",
      "type": "event"
    },
    {
      "anonymous": false,
      "inputs": [
        {
          "indexed": true,
          "internalType": "bytes32",
          "name": "molyhash",
          "type": "bytes32"
        },
        {
          "indexed": false,
          "internalType": "bytes32",
          "name": "anion",
          "type": "bytes32"
        }
      ],
      "name": "NewAnion",
      "type": "event"
    },
    {
      "anonymous": false,
      "inputs": [
        {
          "indexed": true,
          "internalType": "bytes32",
          "name": "molyhash",
          "type": "bytes32"
        },
        {
          "indexed": false,
          "internalType": "bytes32[]",
          "name": "anion",
          "type": "bytes32[]"
        }
      ],
      "name": "NewAnions",
      "type": "event"
    },
    {
      "anonymous": false,
      "inputs": [
        {
          "indexed": true,
          "internalType": "bytes32",
          "name": "molyhash",
          "type": "bytes32"
        },
        {
          "indexed": false,
          "internalType": "bytes32",
          "name": "cation",
          "type": "bytes32"
        }
      ],
      "name": "NewCation",
      "type": "event"
    },
    {
      "anonymous": false,
      "inputs": [
        {
          "indexed": true,
          "internalType": "bytes32",
          "name": "molyhash",
          "type": "bytes32"
        },
        {
          "indexed": false,
          "internalType": "address",
          "name": "controller",
          "type": "address"
        }
      ],
      "name": "NewController",
      "type": "event"
    },
    {
      "anonymous": false,
      "inputs": [
        {
          "indexed": true,
          "internalType": "bytes32",
          "name": "molyhash",
          "type": "bytes32"
        },
        {
          "indexed": false,
          "internalType": "bool",
          "name": "covalence",
          "type": "bool"
        }
      ],
      "name": "NewCovalence",
      "type": "event"
    },
    {
      "anonymous": false,
      "inputs": [
        {
          "indexed": true,
          "internalType": "bytes32",
          "name": "molyhash",
          "type": "bytes32"
        },
        {
          "indexed": false,
          "internalType": "uint256",
          "name": "expiry",
          "type": "uint256"
        }
      ],
      "name": "NewExpiry",
      "type": "event"
    },
    {
      "anonymous": false,
      "inputs": [
        {
          "indexed": true,
          "internalType": "bytes32",
          "name": "molyhash",
          "type": "bytes32"
        },
        {
          "indexed": false,
          "internalType": "address",
          "name": "resolver",
          "type": "address"
        }
      ],
      "name": "NewRecord",
      "type": "event"
    },
    {
      "anonymous": false,
      "inputs": [
        {
          "indexed": true,
          "internalType": "bytes32",
          "name": "molyhash",
          "type": "bytes32"
        },
        {
          "indexed": false,
          "internalType": "address",
          "name": "resolver",
          "type": "address"
        }
      ],
      "name": "NewResolver",
      "type": "event"
    },
    {
      "anonymous": false,
      "inputs": [
        {
          "indexed": true,
          "internalType": "address",
          "name": "previousOwner",
          "type": "address"
        },
        {
          "indexed": true,
          "internalType": "address",
          "name": "newOwner",
          "type": "address"
        }
      ],
      "name": "OwnershipTransferred",
      "type": "event"
    },
    {
      "anonymous": false,
      "inputs": [
        {
          "indexed": true,
          "internalType": "bytes32",
          "name": "molyhash",
          "type": "bytes32"
        },
        {
          "indexed": false,
          "internalType": "bytes32",
          "name": "anion",
          "type": "bytes32"
        }
      ],
      "name": "PopAnion",
      "type": "event"
    },
    {
      "anonymous": false,
      "inputs": [
        {
          "indexed": true,
          "internalType": "bytes32",
          "name": "bondhash",
          "type": "bytes32"
        },
        {
          "indexed": false,
          "internalType": "address",
          "name": "config",
          "type": "address"
        },
        {
          "indexed": false,
          "internalType": "uint8",
          "name": "rule",
          "type": "uint8"
        }
      ],
      "name": "Rehooked",
      "type": "event"
    },
    {
      "anonymous": false,
      "inputs": [
        {
          "indexed": true,
          "internalType": "bytes32",
          "name": "bondhash",
          "type": "bytes32"
        },
        {
          "indexed": false,
          "internalType": "uint8",
          "name": "rule",
          "type": "uint8"
        }
      ],
      "name": "Unhooked",
      "type": "event"
    },
    {
      "anonymous": false,
      "inputs": [
        {
          "indexed": true,
          "internalType": "bytes32",
          "name": "molyhash",
          "type": "bytes32"
        }
      ],
      "name": "UnhookedAll",
      "type": "event"
    },
    {
      "inputs": [],
      "name": "Dev",
      "outputs": [
        {
          "internalType": "address",
          "name": "",
          "type": "address"
        }
      ],
      "stateMutability": "view",
      "type": "function"
    },
    {
      "inputs": [],
      "name": "HELIX2",
      "outputs": [
        {
          "internalType": "contract iHELIX2",
          "name": "",
          "type": "address"
        }
      ],
      "stateMutability": "view",
      "type": "function"
    },
    {
      "inputs": [
        {
          "internalType": "bytes32",
          "name": "",
          "type": "bytes32"
        }
      ],
      "name": "Molecules",
      "outputs": [
        {
          "internalType": "bytes32",
          "name": "_cation",
          "type": "bytes32"
        },
        {
          "internalType": "bytes32",
          "name": "_alias",
          "type": "bytes32"
        },
        {
          "internalType": "address",
          "name": "_resolver",
          "type": "address"
        },
        {
          "internalType": "address",
          "name": "_controller",
          "type": "address"
        },
        {
          "internalType": "bool",
          "name": "_covalence",
          "type": "bool"
        },
        {
          "internalType": "uint256",
          "name": "_expiry",
          "type": "uint256"
        }
      ],
      "stateMutability": "view",
      "type": "function"
    },
    {
      "inputs": [],
      "name": "NAMES",
      "outputs": [
        {
          "internalType": "contract iNAME",
          "name": "",
          "type": "address"
        }
      ],
      "stateMutability": "view",
      "type": "function"
    },
    {
      "inputs": [],
      "name": "PRICES",
      "outputs": [
        {
          "internalType": "contract iPriceOracle",
          "name": "",
          "type": "address"
        }
      ],
      "stateMutability": "view",
      "type": "function"
    },
    {
      "inputs": [],
      "name": "Registrar",
      "outputs": [
        {
          "internalType": "address",
          "name": "",
          "type": "address"
        }
      ],
      "stateMutability": "view",
      "type": "function"
    },
    {
      "inputs": [],
      "name": "active",
      "outputs": [
        {
          "internalType": "bool",
          "name": "",
          "type": "bool"
        }
      ],
      "stateMutability": "view",
      "type": "function"
    },
    {
      "inputs": [
        {
          "internalType": "bytes32",
          "name": "molyhash",
          "type": "bytes32"
        },
        {
          "internalType": "bytes32",
          "name": "_anion",
          "type": "bytes32"
        }
      ],
      "name": "addAnion",
      "outputs": [],
      "stateMutability": "nonpayable",
      "type": "function"
    },
    {
      "inputs": [
        {
          "internalType": "bytes32",
          "name": "molyhash",
          "type": "bytes32"
        }
      ],
      "name": "alias_",
      "outputs": [
        {
          "internalType": "bytes32",
          "name": "",
          "type": "bytes32"
        }
      ],
      "stateMutability": "view",
      "type": "function"
    },
    {
      "inputs": [
        {
          "internalType": "bytes32",
          "name": "molyhash",
          "type": "bytes32"
        }
      ],
      "name": "anion",
      "outputs": [
        {
          "internalType": "bytes32[]",
          "name": "",
          "type": "bytes32[]"
        }
      ],
      "stateMutability": "view",
      "type": "function"
    },
    {
      "inputs": [],
      "name": "basePrice",
      "outputs": [
        {
          "internalType": "uint256",
          "name": "",
          "type": "uint256"
        }
      ],
      "stateMutability": "view",
      "type": "function"
    },
    {
      "inputs": [
        {
          "internalType": "bytes32",
          "name": "molyhash",
          "type": "bytes32"
        }
      ],
      "name": "cation",
      "outputs": [
        {
          "internalType": "bytes32",
          "name": "",
          "type": "bytes32"
        }
      ],
      "stateMutability": "view",
      "type": "function"
    },
    {
      "inputs": [
        {
          "internalType": "bytes32",
          "name": "molyhash",
          "type": "bytes32"
        }
      ],
      "name": "controller",
      "outputs": [
        {
          "internalType": "address",
          "name": "",
          "type": "address"
        }
      ],
      "stateMutability": "view",
      "type": "function"
    },
    {
      "inputs": [
        {
          "internalType": "bytes32",
          "name": "molyhash",
          "type": "bytes32"
        }
      ],
      "name": "covalence",
      "outputs": [
        {
          "internalType": "bool",
          "name": "",
          "type": "bool"
        }
      ],
      "stateMutability": "view",
      "type": "function"
    },
    {
      "inputs": [
        {
          "internalType": "bytes32",
          "name": "molyhash",
          "type": "bytes32"
        }
      ],
      "name": "expiry",
      "outputs": [
        {
          "internalType": "uint256",
          "name": "",
          "type": "uint256"
        }
      ],
      "stateMutability": "view",
      "type": "function"
    },
    {
      "inputs": [
        {
          "internalType": "bytes32",
          "name": "molyhash",
          "type": "bytes32"
        },
        {
          "internalType": "address",
          "name": "config",
          "type": "address"
        },
        {
          "internalType": "uint8",
          "name": "rule",
          "type": "uint8"
        }
      ],
      "name": "hook",
      "outputs": [],
      "stateMutability": "nonpayable",
      "type": "function"
    },
    {
      "inputs": [
        {
          "internalType": "bytes32",
          "name": "molyhash",
          "type": "bytes32"
        }
      ],
      "name": "hooksWithRules",
      "outputs": [
        {
          "internalType": "uint8[]",
          "name": "_rules",
          "type": "uint8[]"
        },
        {
          "internalType": "address[]",
          "name": "_hooks",
          "type": "address[]"
        }
      ],
      "stateMutability": "view",
      "type": "function"
    },
    {
      "inputs": [
        {
          "internalType": "bytes32",
          "name": "_cation",
          "type": "bytes32"
        },
        {
          "internalType": "address",
          "name": "operator",
          "type": "address"
        }
      ],
      "name": "isApprovedForAll",
      "outputs": [
        {
          "internalType": "bool",
          "name": "",
          "type": "bool"
        }
      ],
      "stateMutability": "view",
      "type": "function"
    },
    {
      "inputs": [
        {
          "internalType": "bytes32",
          "name": "molyhash",
          "type": "bytes32"
        },
        {
          "internalType": "bytes32",
          "name": "_anion",
          "type": "bytes32"
        }
      ],
      "name": "isNotDuplicateAnion",
      "outputs": [
        {
          "internalType": "bool",
          "name": "",
          "type": "bool"
        }
      ],
      "stateMutability": "view",
      "type": "function"
    },
    {
      "inputs": [
        {
          "internalType": "bytes32",
          "name": "molyhash",
          "type": "bytes32"
        },
        {
          "internalType": "uint8",
          "name": "rule",
          "type": "uint8"
        }
      ],
      "name": "isNotDuplicateHook",
      "outputs": [
        {
          "internalType": "bool",
          "name": "",
          "type": "bool"
        }
      ],
      "stateMutability": "view",
      "type": "function"
    },
    {
      "inputs": [],
      "name": "owner",
      "outputs": [
        {
          "internalType": "address",
          "name": "",
          "type": "address"
        }
      ],
      "stateMutability": "view",
      "type": "function"
    },
    {
      "inputs": [
        {
          "internalType": "bytes32",
          "name": "molyhash",
          "type": "bytes32"
        },
        {
          "internalType": "bytes32",
          "name": "__anion",
          "type": "bytes32"
        }
      ],
      "name": "popAnion",
      "outputs": [],
      "stateMutability": "nonpayable",
      "type": "function"
    },
    {
      "inputs": [
        {
          "internalType": "bytes32",
          "name": "molyhash",
          "type": "bytes32"
        }
      ],
      "name": "recordExists",
      "outputs": [
        {
          "internalType": "bool",
          "name": "",
          "type": "bool"
        }
      ],
      "stateMutability": "view",
      "type": "function"
    },
    {
      "inputs": [
        {
          "internalType": "bytes32",
          "name": "molyhash",
          "type": "bytes32"
        },
        {
          "internalType": "bytes32",
          "name": "_cation",
          "type": "bytes32"
        }
      ],
      "name": "register",
      "outputs": [],
      "stateMutability": "nonpayable",
      "type": "function"
    },
    {
      "inputs": [
        {
          "internalType": "bytes32",
          "name": "molyhash",
          "type": "bytes32"
        },
        {
          "internalType": "address",
          "name": "config",
          "type": "address"
        },
        {
          "internalType": "uint8",
          "name": "rule",
          "type": "uint8"
        }
      ],
      "name": "rehook",
      "outputs": [],
      "stateMutability": "nonpayable",
      "type": "function"
    },
    {
      "inputs": [
        {
          "internalType": "bytes32",
          "name": "molyhash",
          "type": "bytes32"
        },
        {
          "internalType": "uint256",
          "name": "_expiry",
          "type": "uint256"
        }
      ],
      "name": "renew",
      "outputs": [],
      "stateMutability": "payable",
      "type": "function"
    },
    {
      "inputs": [
        {
          "internalType": "bytes32",
          "name": "molyhash",
          "type": "bytes32"
        }
      ],
      "name": "resolver",
      "outputs": [
        {
          "internalType": "address",
          "name": "",
          "type": "address"
        }
      ],
      "stateMutability": "view",
      "type": "function"
    },
    {
      "inputs": [],
      "name": "roothash",
      "outputs": [
        {
          "internalType": "bytes32",
          "name": "",
          "type": "bytes32"
        }
      ],
      "stateMutability": "view",
      "type": "function"
    },
    {
      "inputs": [
        {
          "internalType": "bytes32",
          "name": "molyhash",
          "type": "bytes32"
        },
        {
          "internalType": "bytes32",
          "name": "_alias",
          "type": "bytes32"
        }
      ],
      "name": "setAlias",
      "outputs": [],
      "stateMutability": "nonpayable",
      "type": "function"
    },
    {
      "inputs": [
        {
          "internalType": "bytes32",
          "name": "molyhash",
          "type": "bytes32"
        },
        {
          "internalType": "bytes32[]",
          "name": "_anion",
          "type": "bytes32[]"
        }
      ],
      "name": "setAnions",
      "outputs": [],
      "stateMutability": "nonpayable",
      "type": "function"
    },
    {
      "inputs": [
        {
          "internalType": "address",
          "name": "operator",
          "type": "address"
        },
        {
          "internalType": "bool",
          "name": "approved",
          "type": "bool"
        }
      ],
      "name": "setApprovalForAll",
      "outputs": [],
      "stateMutability": "nonpayable",
      "type": "function"
    },
    {
      "inputs": [
        {
          "internalType": "bytes32",
          "name": "molyhash",
          "type": "bytes32"
        },
        {
          "internalType": "bytes32",
          "name": "_cation",
          "type": "bytes32"
        }
      ],
      "name": "setCation",
      "outputs": [],
      "stateMutability": "nonpayable",
      "type": "function"
    },
    {
      "inputs": [
        {
          "internalType": "address",
          "name": "_helix2",
          "type": "address"
        },
        {
          "internalType": "address",
          "name": "_priceOracle",
          "type": "address"
        }
      ],
      "name": "setConfig",
      "outputs": [],
      "stateMutability": "nonpayable",
      "type": "function"
    },
    {
      "inputs": [
        {
          "internalType": "bytes32",
          "name": "molyhash",
          "type": "bytes32"
        },
        {
          "internalType": "address",
          "name": "_controller",
          "type": "address"
        }
      ],
      "name": "setController",
      "outputs": [],
      "stateMutability": "nonpayable",
      "type": "function"
    },
    {
      "inputs": [
        {
          "internalType": "bytes32",
          "name": "molyhash",
          "type": "bytes32"
        },
        {
          "internalType": "bool",
          "name": "_covalence",
          "type": "bool"
        }
      ],
      "name": "setCovalence",
      "outputs": [],
      "stateMutability": "nonpayable",
      "type": "function"
    },
    {
      "inputs": [
        {
          "internalType": "bytes32",
          "name": "molyhash",
          "type": "bytes32"
        },
        {
          "internalType": "uint256",
          "name": "_expiry",
          "type": "uint256"
        }
      ],
      "name": "setExpiry",
      "outputs": [],
      "stateMutability": "nonpayable",
      "type": "function"
    },
    {
      "inputs": [
        {
          "internalType": "bytes4",
          "name": "sig",
          "type": "bytes4"
        },
        {
          "internalType": "bool",
          "name": "value",
          "type": "bool"
        }
      ],
      "name": "setInterface",
      "outputs": [],
      "stateMutability": "payable",
      "type": "function"
    },
    {
      "inputs": [
        {
          "internalType": "bytes32",
          "name": "molyhash",
          "type": "bytes32"
        },
        {
          "internalType": "address",
          "name": "_resolver",
          "type": "address"
        }
      ],
      "name": "setRecord",
      "outputs": [],
      "stateMutability": "nonpayable",
      "type": "function"
    },
    {
      "inputs": [
        {
          "internalType": "bytes32",
          "name": "molyhash",
          "type": "bytes32"
        },
        {
          "internalType": "address",
          "name": "_resolver",
          "type": "address"
        }
      ],
      "name": "setResolver",
      "outputs": [],
      "stateMutability": "nonpayable",
      "type": "function"
    },
    {
      "inputs": [
        {
          "internalType": "bytes4",
          "name": "",
          "type": "bytes4"
        }
      ],
      "name": "supportsInterface",
      "outputs": [
        {
          "internalType": "bool",
          "name": "",
          "type": "bool"
        }
      ],
      "stateMutability": "view",
      "type": "function"
    },
    {
      "inputs": [],
      "name": "theEnd",
      "outputs": [
        {
          "internalType": "uint256",
          "name": "",
          "type": "uint256"
        }
      ],
      "stateMutability": "view",
      "type": "function"
    },
    {
      "inputs": [],
      "name": "toggleActive",
      "outputs": [],
      "stateMutability": "nonpayable",
      "type": "function"
    },
    {
      "inputs": [
        {
          "internalType": "address",
          "name": "newDev",
          "type": "address"
        }
      ],
      "name": "transferOwnership",
      "outputs": [],
      "stateMutability": "nonpayable",
      "type": "function"
    },
    {
      "inputs": [
        {
          "internalType": "bytes32",
          "name": "molyhash",
          "type": "bytes32"
        },
        {
          "internalType": "uint8",
          "name": "rule",
          "type": "uint8"
        }
      ],
      "name": "unhook",
      "outputs": [],
      "stateMutability": "nonpayable",
      "type": "function"
    },
    {
      "inputs": [
        {
          "internalType": "bytes32",
          "name": "molyhash",
          "type": "bytes32"
        }
      ],
      "name": "unhookAll",
      "outputs": [],
      "stateMutability": "nonpayable",
      "type": "function"
    },
    {
      "inputs": [],
      "name": "withdrawEther",
      "outputs": [],
      "stateMutability": "nonpayable",
      "type": "function"
    }
  ],
  "bytecode": {
    "object": "0x60806040526003805460ff60a01b1916600160a01b1790556703782dace9d900006008553480156200003057600080fd5b5060405162004624380380620046248339810160408190526200005391620004c2565b60038054336001600160a01b0319918216179091556000805482166001600160a01b03858116918217909255600180549093169186169190911790915560408051633215476b60e11b8152905163642a8ed6916004808201926080929091908290030181865afa158015620000cc573d6000803e3d6000fd5b505050506040513d601f19601f82011682018060405250810190620000f2919062000543565b60026020020151600555600280546001600160a01b0319166001600160a01b0383169081179091556040805163bd9a548b60e01b8152905163bd9a548b916004808201926080929091908290030181865afa15801562000156573d6000803e3d6000fd5b505050506040513d601f19601f820116820180604052508101906200017c919062000543565b604001516006556200018d62000201565b50506004602052507f9ff9ac02fe2241bbbf840cdf8e2fa501fea5a38af884024799704b0d9c3c91538054600160ff1991821681179092556307f5828d60e41b6000527fc82dc5f2518c2395ca0d51dc9b325ef0b4257094f40955b36ce2692f79e7f5af80549091169091179055620005aa565b7f6193e49d899b753da8c8433ce9056a624e41a66c4def64ed86198ab352ac661b80546001600160a01b031916905560408051602081810190925260008082528052600990915262000277907fec8156718a8372b1db44bb411437d0870f3e3790d4a08526d024ce1b0b668f6b906001620003a3565b5060007fec8156718a8372b1db44bb411437d0870f3e3790d4a08526d024ce1b0b668f6d81905560408051602081810190925282815291805260099052620002e3907fec8156718a8372b1db44bb411437d0870f3e3790d4a08526d024ce1b0b668f6e90600162000450565b50600080805260096020527fec8156718a8372b1db44bb411437d0870f3e3790d4a08526d024ce1b0b668f6f557fec8156718a8372b1db44bb411437d0870f3e3790d4a08526d024ce1b0b668f7180546008547fec8156718a8372b1db44bb411437d0870f3e3790d4a08526d024ce1b0b668f72556001600160a81b03191633908117600160a01b179091557fec8156718a8372b1db44bb411437d0870f3e3790d4a08526d024ce1b0b668f7080546001600160a01b0319169091179055565b82805482825590600052602060002090601f016020900481019282156200043e5791602002820160005b838211156200040d57835183826101000a81548160ff021916908360ff1602179055509260200192600101602081600001049283019260010302620003cd565b80156200043c5782816101000a81549060ff02191690556001016020816000010492830192600103026200040d565b505b506200044c9291506200048e565b5090565b8280548282559060005260206000209081019282156200043e579160200282015b828111156200043e57825182559160200191906001019062000471565b5b808211156200044c57600081556001016200048f565b80516001600160a01b0381168114620004bd57600080fd5b919050565b600080600060608486031215620004d857600080fd5b620004e384620004a5565b9250620004f360208501620004a5565b91506200050360408501620004a5565b90509250925092565b604051608081016001600160401b03811182821017156200053d57634e487b7160e01b600052604160045260246000fd5b60405290565b6000608082840312156200055657600080fd5b82601f8301126200056657600080fd5b620005706200050c565b8060808401858111156200058357600080fd5b845b818110156200059f57805184526020938401930162000585565b509095945050505050565b61406a80620005ba6000396000f3fe6080604052600436106102fd5760003560e01c8063849a799c1161018f578063c5bc4c0b116100e1578063dbd4e0211161008a578063f61ccd5311610064578063f61ccd531461092e578063f79fe5381461094e578063f8c912441461098057600080fd5b8063dbd4e021146108db578063f2fde38b146108fb578063f544d82f1461091b57600080fd5b8063d2ec5fca116100bb578063d2ec5fca1461086b578063d31569051461089b578063d9b76ed4146108bb57600080fd5b8063c5bc4c0b14610815578063c7876ea414610835578063d07699aa1461084b57600080fd5b8063b069862811610143578063b782426e1161011d578063b782426e146107c2578063b9f37c86146107e2578063c0a43a7c1461080257600080fd5b8063b069862814610762578063b602024b14610782578063b612e9b9146107a257600080fd5b80638dcad139116101745780638dcad13914610670578063a22cb46514610690578063af6328f6146106b057600080fd5b8063849a799c146106325780638da5cb5b1461065257600080fd5b806322b68deb116102535780634d505584116101fc578063741b4cd0116101d6578063741b4cd0146105d25780638146970a146105f2578063836697261461061257600080fd5b80634d5055841461057d5780636ff248301461059d5780637362377b146105bd57600080fd5b80632f9267321161022d5780632f9267321461051d578063340268591461053d57806339de64691461055d57600080fd5b806322b68deb146104ce578063251c9422146104f257806329c68dc11461050857600080fd5b80630aac6625116102b55780631eabcd341161028f5780631eabcd341461046e5780631f06e91c1461048e57806321ec2b5b146104ae57600080fd5b80630aac6625146103f15780630e68b1161461041f5780631896f70a1461044c57600080fd5b806301ffc9a7116102e657806301ffc9a71461035f57806302fb0c5e1461039f57806305e84aa0146103d157600080fd5b80630178b8bf1461030257806301e51ae81461033f575b600080fd5b34801561030e57600080fd5b5061032261031d366004613a37565b6109a0565b6040516001600160a01b0390911681526020015b60405180910390f35b34801561034b57600080fd5b50600354610322906001600160a01b031681565b34801561036b57600080fd5b5061038f61037a366004613a85565b60046020526000908152604090205460ff1681565b6040519015158152602001610336565b3480156103ab57600080fd5b5060035461038f9074010000000000000000000000000000000000000000900460ff1681565b3480156103dd57600080fd5b50600154610322906001600160a01b031681565b3480156103fd57600080fd5b5061041161040c366004613a37565b610a2b565b604051610336929190613aa7565b34801561042b57600080fd5b5061043f61043a366004613a37565b610bfa565b6040516103369190613b2e565b34801561045857600080fd5b5061046c610467366004613b87565b610cc6565b005b34801561047a57600080fd5b50600254610322906001600160a01b031681565b34801561049a57600080fd5b5061046c6104a9366004613bb7565b610e81565b3480156104ba57600080fd5b5061046c6104c9366004613a37565b610ef0565b3480156104da57600080fd5b506104e460085481565b604051908152602001610336565b3480156104fe57600080fd5b506104e460055481565b34801561051457600080fd5b5061046c6111dc565b34801561052957600080fd5b5061046c610538366004613bb7565b611283565b34801561054957600080fd5b5061038f610558366004613a37565b6113f5565b34801561056957600080fd5b5061046c610578366004613bb7565b611489565b34801561058957600080fd5b5061038f610598366004613bea565b61158b565b3480156105a957600080fd5b5061046c6105b8366004613bb7565b61161f565b3480156105c957600080fd5b5061046c61185c565b3480156105de57600080fd5b5061046c6105ed366004613cbd565b611902565b3480156105fe57600080fd5b5061046c61060d366004613bb7565b611b67565b34801561061e57600080fd5b5061046c61062d366004613d6f565b611ddd565b34801561063e57600080fd5b5061046c61064d366004613d6f565b612073565b34801561065e57600080fd5b506003546001600160a01b0316610322565b34801561067c57600080fd5b5061046c61068b366004613bb7565b612303565b34801561069c57600080fd5b5061046c6106ab366004613dbd565b6125c4565b3480156106bc57600080fd5b506107266106cb366004613a37565b60096020526000908152604090206002810154600482015460058301546006840154600790940154929391926001600160a01b03918216929182169174010000000000000000000000000000000000000000900460ff169086565b6040805196875260208701959095526001600160a01b0393841694860194909452911660608401521515608083015260a082015260c001610336565b34801561076e57600080fd5b5061038f61077d366004613b87565b61264e565b34801561078e57600080fd5b5061046c61079d366004613de9565b6126f2565b3480156107ae57600080fd5b5061046c6107bd366004613bea565b61296d565b3480156107ce57600080fd5b50600054610322906001600160a01b031681565b3480156107ee57600080fd5b50600754610322906001600160a01b031681565b61046c610810366004613e17565b612c8c565b34801561082157600080fd5b506104e4610830366004613a37565b612dba565b34801561084157600080fd5b506104e460065481565b34801561085757600080fd5b5061046c610866366004613e33565b612e33565b34801561087757600080fd5b506104e4610886366004613a37565b60009081526009602052604090206007015490565b3480156108a757600080fd5b5061046c6108b6366004613b87565b613000565b3480156108c757600080fd5b5061046c6108d6366004613b87565b6131b0565b3480156108e757600080fd5b506103226108f6366004613a37565b613360565b34801561090757600080fd5b5061046c610916366004613e56565b6133e2565b61046c610929366004613bb7565b6134a5565b34801561093a57600080fd5b506104e4610949366004613a37565b613756565b34801561095a57600080fd5b5061038f610969366004613a37565b600090815260096020526040902060070154421090565b34801561098c57600080fd5b5061038f61099b366004613bb7565b61385e565b60008181526009602052604081206007015482904210610a075760405162461bcd60e51b815260206004820152601060248201527f4d4f4c4543554c455f455850495245440000000000000000000000000000000060448201526064015b60405180910390fd5b6000838152600960205260409020600501546001600160a01b031691505b50919050565b600081815260096020526040902060070154606090819083904210610a925760405162461bcd60e51b815260206004820152601060248201527f4d4f4c4543554c455f455850495245440000000000000000000000000000000060448201526064016109fe565b60008481526009602090815260409182902080548351818402810184019094528084529091830182828015610b0457602002820191906000526020600020906000905b825461010083900a900460ff16815260206001928301818104948501949093039092029101808411610ad55790505b50505050509250825167ffffffffffffffff811115610b2557610b25613c16565b604051908082528060200260200182016040528015610b4e578160200160208202803683370190505b50915060005b8351811015610bf357600960008681526020019081526020016000206001016000858381518110610b8757610b87613e73565b602002602001015160ff1660ff16815260200190815260200160002060009054906101000a90046001600160a01b0316838281518110610bc957610bc9613e73565b6001600160a01b039092166020928302919091019091015280610beb81613ed1565b915050610b54565b5050915091565b60008181526009602052604090206007015460609082904210610c5f5760405162461bcd60e51b815260206004820152601060248201527f4d4f4c4543554c455f455850495245440000000000000000000000000000000060448201526064016109fe565b600083815260096020908152604080832060030180548251818502810185019093528083529192909190830182828015610cb857602002820191906000526020600020905b815481526020019060010190808311610ca4575b509398975050505050505050565b6000828152600960205260408082206002015460015491516302571be360e01b815260048101829052859391926001600160a01b0316906302571be390602401602060405180830381865afa158015610d23573d6000803e3d6000fd5b505050506040513d601f19601f82011682018060405250810190610d479190613f09565b6007549091506001600160a01b0316331480610d6b57506001600160a01b03811633145b80610d9957506001600160a01b0381166000908152600a6020908152604080832033845290915290205460ff165b80610dbd57506000838152600960205260409020600601546001600160a01b031633145b610e095760405162461bcd60e51b815260206004820152600e60248201527f4e4f545f415554484f524953454400000000000000000000000000000000000060448201526064016109fe565b600085815260096020908152604091829020600501805473ffffffffffffffffffffffffffffffffffffffff19166001600160a01b038816908117909155915191825286917f335721b01866dc23fbee8b6b2c7b1e14d6f05c28cd35a2c934239f94095602a091015b60405180910390a25050505050565b6007546001600160a01b03163314610edb5760405162461bcd60e51b815260206004820152600d60248201527f4e4f545f5245474953545241520000000000000000000000000000000000000060448201526064016109fe565b60009182526009602052604090912060040155565b6000818152600960205260408082206002015460015491516302571be360e01b815260048101829052849391926001600160a01b0316906302571be390602401602060405180830381865afa158015610f4d573d6000803e3d6000fd5b505050506040513d601f19601f82011682018060405250810190610f719190613f09565b6007549091506001600160a01b0316331480610f9557506001600160a01b03811633145b80610fc357506001600160a01b0381166000908152600a6020908152604080832033845290915290205460ff165b80610fe757506000838152600960205260409020600601546001600160a01b031633145b6110335760405162461bcd60e51b815260206004820152600e60248201527f4e4f545f415554484f524953454400000000000000000000000000000000000060448201526064016109fe565b6000848152600960209081526040808320805482518185028101850190935280835291929091908301828280156110a757602002820191906000526020600020906000905b825461010083900a900460ff168152602060019283018181049485019490930390920291018084116110785790505b5050505050905060005b81518110156111925760006009600088815260200190815260200160002060010160008484815181106110e6576110e6613e73565b602002602001015160ff1660ff16815260200190815260200160002060006101000a8154816001600160a01b0302191690836001600160a01b03160217905550857fbf47c0c608c230f7dffbcf65f8cdc76f5f920e4750eea1dcd09138a7359226ac83838151811061115a5761115a613e73565b6020026020010151604051611178919060ff91909116815260200190565b60405180910390a28061118a81613ed1565b9150506110b1565b5060008581526009602052604081206111aa916139fe565b60405185907f6b91085369552b61ca16180a741663b69fb6b3b967f7271116521d84e2291dc590600090a25050505050565b6003546001600160a01b031633146112365760405162461bcd60e51b815260206004820152600760248201527f4e4f545f4445560000000000000000000000000000000000000000000000000060448201526064016109fe565b600380547fffffffffffffffffffffff00ffffffffffffffffffffffffffffffffffffffff8116740100000000000000000000000000000000000000009182900460ff1615909102179055565b6007546001600160a01b031633146112dd5760405162461bcd60e51b815260206004820152600d60248201527f4e4f545f5245474953545241520000000000000000000000000000000000000060448201526064016109fe565b6001546040516302571be360e01b8152600481018390526000916001600160a01b0316906302571be390602401602060405180830381865afa158015611327573d6000803e3d6000fd5b505050506040513d601f19601f8201168201806040525081019061134b9190613f09565b6001600160a01b0316036113a15760405162461bcd60e51b815260206004820152600b60248201527f43414e4e4f545f4255524e00000000000000000000000000000000000000000060448201526064016109fe565b600082815260096020526040908190206002018290555182907f4810581adf2c16a86a375dbb1ed89b0b0f7e64d48d24e1948b3dfe6581e4d795906113e99084815260200190565b60405180910390a25050565b600081815260096020526040812060070154829042106114575760405162461bcd60e51b815260206004820152601060248201527f4d4f4c4543554c455f455850495245440000000000000000000000000000000060448201526064016109fe565b505060009081526009602052604090206006015474010000000000000000000000000000000000000000900460ff1690565b6007546001600160a01b031633146114e35760405162461bcd60e51b815260206004820152600d60248201527f4e4f545f5245474953545241520000000000000000000000000000000000000060448201526064016109fe565b60008281526009602052604090206007015481116115435760405162461bcd60e51b815260206004820152600a60248201527f4241445f4558504952590000000000000000000000000000000000000000000060448201526064016109fe565b600082815260096020526040908190206007018290555182907fa620b72378ee464490805a96e25b53e5c0076f0ce2d28f9691ae255a595b3bf3906113e99084815260200190565b60008281526009602090815260408083208054825181850281018501909352808352611615938301828280156115fe57602002820191906000526020600020906000905b825461010083900a900460ff168152602060019283018181049485019490930390920291018084116115cf5790505b50505050508360ff166138ca90919063ffffffff16565b1590505b92915050565b600082815260096020526040902060070154829042106116815760405162461bcd60e51b815260206004820152601060248201527f4d4f4c4543554c455f455850495245440000000000000000000000000000000060448201526064016109fe565b6000818152600960205260408082206002015460015491516302571be360e01b8152600481018290529092916001600160a01b0316906302571be390602401602060405180830381865afa1580156116dd573d6000803e3d6000fd5b505050506040513d601f19601f820116820180604052508101906117019190613f09565b90506001600160a01b03811633148061173d57506001600160a01b0381166000908152600a6020908152604080832033845290915290205460ff165b8061176157506000838152600960205260409020600601546001600160a01b031633145b6117ad5760405162461bcd60e51b815260206004820152601760248201527f4e4f545f4f574e45525f4f525f434f4e54524f4c4c455200000000000000000060448201526064016109fe565b6117b7858561385e565b6118035760405162461bcd60e51b815260206004820152600c60248201527f414e494f4e5f455849535453000000000000000000000000000000000000000060448201526064016109fe565b6000858152600960209081526040808320600301805460018101825590845291909220018590555185907f600ffddd29393ca43c0a11fa6b0b7096631364178cb42f9d546c0a2cd22525ee90610e729087815260200190565b6003546040516000916001600160a01b03169047908381818185875af1925050503d80600081146118a9576040519150601f19603f3d011682016040523d82523d6000602084013e6118ae565b606091505b50509050806118ff5760405162461bcd60e51b815260206004820152601360248201527f4554485f5452414e534645525f4641494c45440000000000000000000000000060448201526064016109fe565b50565b6000828152600960205260408082206002015460015491516302571be360e01b815260048101829052859391926001600160a01b0316906302571be390602401602060405180830381865afa15801561195f573d6000803e3d6000fd5b505050506040513d601f19601f820116820180604052508101906119839190613f09565b6007549091506001600160a01b03163314806119a757506001600160a01b03811633145b806119d557506001600160a01b0381166000908152600a6020908152604080832033845290915290205460ff165b806119f957506000838152600960205260409020600601546001600160a01b031633145b611a455760405162461bcd60e51b815260206004820152600e60248201527f4e4f545f415554484f524953454400000000000000000000000000000000000060448201526064016109fe565b60005b8451811015611b36576000868152600960209081526040918290206003018054835181840281018401909452808452611ad89392830182828015611aab57602002820191906000526020600020905b815481526020019060010190808311611a97575b5050505050868381518110611ac257611ac2613e73565b602002602001015161392390919063ffffffff16565b611b245760096000878152602001908152602001600020600301858281518110611b0457611b04613e73565b602090810291909101810151825460018101845560009384529190922001555b80611b2e81613ed1565b915050611a48565b50847f580d99949e5d5a02f35dc5b91b800697d53dccb814e200f24f97b4bfbeb8667c85604051610e729190613b2e565b60008281526009602052604090206007015482904210611bc95760405162461bcd60e51b815260206004820152601060248201527f4d4f4c4543554c455f455850495245440000000000000000000000000000000060448201526064016109fe565b6000818152600960205260408082206002015460015491516302571be360e01b8152600481018290529092916001600160a01b0316906302571be390602401602060405180830381865afa158015611c25573d6000803e3d6000fd5b505050506040513d601f19601f82011682018060405250810190611c499190613f09565b90506001600160a01b038116331480611c8557506001600160a01b0381166000908152600a6020908152604080832033845290915290205460ff165b611cd15760405162461bcd60e51b815260206004820152600960248201527f4e4f545f4f574e4552000000000000000000000000000000000000000000000060448201526064016109fe565b6001546040516302571be360e01b8152600481018690526000916001600160a01b0316906302571be390602401602060405180830381865afa158015611d1b573d6000803e3d6000fd5b505050506040513d601f19601f82011682018060405250810190611d3f9190613f09565b6001600160a01b031603611d955760405162461bcd60e51b815260206004820152600b60248201527f43414e4e4f545f4255524e00000000000000000000000000000000000000000060448201526064016109fe565b600085815260096020526040908190206002018590555185907f4810581adf2c16a86a375dbb1ed89b0b0f7e64d48d24e1948b3dfe6581e4d79590610e729087815260200190565b60008381526009602052604090206007015483904210611e3f5760405162461bcd60e51b815260206004820152601060248201527f4d4f4c4543554c455f455850495245440000000000000000000000000000000060448201526064016109fe565b6000818152600960205260408082206002015460015491516302571be360e01b8152600481018290529092916001600160a01b0316906302571be390602401602060405180830381865afa158015611e9b573d6000803e3d6000fd5b505050506040513d601f19601f82011682018060405250810190611ebf9190613f09565b90506001600160a01b038116331480611efb57506001600160a01b0381166000908152600a6020908152604080832033845290915290205460ff165b80611f1f57506000838152600960205260409020600601546001600160a01b031633145b611f6b5760405162461bcd60e51b815260206004820152601760248201527f4e4f545f4f574e45525f4f525f434f4e54524f4c4c455200000000000000000060448201526064016109fe565b600086815260096020908152604080832060ff881684526001019091529020546001600160a01b03808716911603611fe55760405162461bcd60e51b815260206004820152600b60248201527f52554c455f45584953545300000000000000000000000000000000000000000060448201526064016109fe565b600086815260096020908152604080832060ff88168085526001909101835292819020805473ffffffffffffffffffffffffffffffffffffffff19166001600160a01b038a1690811790915581519081529182019290925287917fe43a78ddf6157361fe34d04905786138f88d3eda20b1f7dc0e2c619f9267310091015b60405180910390a2505050505050565b600083815260096020526040902060070154839042106120d55760405162461bcd60e51b815260206004820152601060248201527f4d4f4c4543554c455f455850495245440000000000000000000000000000000060448201526064016109fe565b6000818152600960205260408082206002015460015491516302571be360e01b8152600481018290529092916001600160a01b0316906302571be390602401602060405180830381865afa158015612131573d6000803e3d6000fd5b505050506040513d601f19601f820116820180604052508101906121559190613f09565b90506001600160a01b03811633148061219157506001600160a01b0381166000908152600a6020908152604080832033845290915290205460ff165b806121b557506000838152600960205260409020600601546001600160a01b031633145b6122015760405162461bcd60e51b815260206004820152601760248201527f4e4f545f4f574e45525f4f525f434f4e54524f4c4c455200000000000000000060448201526064016109fe565b61220b868561158b565b6122575760405162461bcd60e51b815260206004820152600b60248201527f484f4f4b5f45584953545300000000000000000000000000000000000000000060448201526064016109fe565b600086815260096020908152604080832080546001808201835582865284862085830401805460ff8c8116601f9095166101000a85810291021990911617905581865290910183529281902080546001600160a01b038a1673ffffffffffffffffffffffffffffffffffffffff19909116811790915581519081529182019290925287917fc733a2bc621cc97eef6ed4f708f126e72e6acb76c0a1c0461c9dd31f7b9870659101612063565b600082815260096020526040902060070154829042106123655760405162461bcd60e51b815260206004820152601060248201527f4d4f4c4543554c455f455850495245440000000000000000000000000000000060448201526064016109fe565b6000818152600960205260408082206002015460015491516302571be360e01b8152600481018290529092916001600160a01b0316906302571be390602401602060405180830381865afa1580156123c1573d6000803e3d6000fd5b505050506040513d601f19601f820116820180604052508101906123e59190613f09565b90506001600160a01b03811633148061242157506001600160a01b0381166000908152600a6020908152604080832033845290915290205460ff165b8061244557506000838152600960205260409020600601546001600160a01b031633145b6124915760405162461bcd60e51b815260206004820152601760248201527f4e4f545f4f574e45525f4f525f434f4e54524f4c4c455200000000000000000060448201526064016109fe565b6000858152600960209081526040808320600301805482518185028101850190935280835291929091908301828280156124ea57602002820191906000526020600020905b8154815260200190600101908083116124d6575b50505050509050612504818661392390919063ffffffff16565b1561258a576000612515868361396c565b60008881526009602052604090206003018054919250908290811061253c5761253c613e73565b9060005260206000200160009055867f5c379d054844760656a56e062f50208b458cfa0c4427574f5a2828d19602b4e98760405161257c91815260200190565b60405180910390a2506125bc565b6040517f62316f6700000000000000000000000000000000000000000000000000000000815260040160405180910390fd5b505050505050565b336000818152600a602090815260408083206001600160a01b0387168085529083529281902080547fffffffffffffffffffffffffffffffffffffffffffffffffffffffffffffff001686151590811790915590519081529192917f17307eab39ab6107e8899845ad3d59bd9653f200f220920489ca2b5937696c31910160405180910390a35050565b6001546040516302571be360e01b81526004810184905260009182916001600160a01b03909116906302571be390602401602060405180830381865afa15801561269c573d6000803e3d6000fd5b505050506040513d601f19601f820116820180604052508101906126c09190613f09565b6001600160a01b039081166000908152600a602090815260408083209387168352929052205460ff1691505092915050565b6003546001600160a01b0316331461274c5760405162461bcd60e51b815260206004820152600760248201527f4e4f545f4445560000000000000000000000000000000000000000000000000060448201526064016109fe565b6001600160a01b038216156128bf576000805473ffffffffffffffffffffffffffffffffffffffff19166001600160a01b038416908117909155604080517f642a8ed6000000000000000000000000000000000000000000000000000000008152905163642a8ed6916004808201926080929091908290030181865afa1580156127da573d6000803e3d6000fd5b505050506040513d601f19601f820116820180604052508101906127fe9190613f26565b60409081015160055560005481517f4d3f733400000000000000000000000000000000000000000000000000000000815291516001600160a01b0390911691634d3f73349160048083019260809291908290030181865afa158015612867573d6000803e3d6000fd5b505050506040513d601f19601f8201168201806040525081019061288b9190613f86565b600260200201516007805473ffffffffffffffffffffffffffffffffffffffff19166001600160a01b039092169190911790555b6002805473ffffffffffffffffffffffffffffffffffffffff19166001600160a01b038316908117909155604080517fbd9a548b000000000000000000000000000000000000000000000000000000008152905163bd9a548b916004808201926080929091908290030181865afa15801561293e573d6000803e3d6000fd5b505050506040513d601f19601f820116820180604052508101906129629190613f26565b604001516006555050565b600082815260096020526040902060070154829042106129cf5760405162461bcd60e51b815260206004820152601060248201527f4d4f4c4543554c455f455850495245440000000000000000000000000000000060448201526064016109fe565b6000818152600960205260408082206002015460015491516302571be360e01b8152600481018290529092916001600160a01b0316906302571be390602401602060405180830381865afa158015612a2b573d6000803e3d6000fd5b505050506040513d601f19601f82011682018060405250810190612a4f9190613f09565b90506001600160a01b038116331480612a8b57506001600160a01b0381166000908152600a6020908152604080832033845290915290205460ff165b80612aaf57506000838152600960205260409020600601546001600160a01b031633145b612afb5760405162461bcd60e51b815260206004820152601760248201527f4e4f545f4f574e45525f4f525f434f4e54524f4c4c455200000000000000000060448201526064016109fe565b600085815260096020908152604080832080548251818502810185019093528083529192909190830182828015612b6f57602002820191906000526020600020906000905b825461010083900a900460ff16815260206001928301818104948501949093039092029101808411612b405790505b50505050509050612b8c818660ff166138ca90919063ffffffff16565b15612c5a576000612ba060ff8716836139b2565b600088815260096020908152604080832060ff8b168085526001909101835292819020805473ffffffffffffffffffffffffffffffffffffffff191690555191825291925088917fbf47c0c608c230f7dffbcf65f8cdc76f5f920e4750eea1dcd09138a7359226ac910160405180910390a26000878152600960205260409020805482908110612c3257612c32613e73565b90600052602060002090602091828204019190066101000a81549060ff0219169055506125bc565b6040517fe8dd1d3e00000000000000000000000000000000000000000000000000000000815260040160405180910390fd5b6003546001600160a01b03163314612ce65760405162461bcd60e51b815260206004820152600760248201527f4e4f545f4445560000000000000000000000000000000000000000000000000060448201526064016109fe565b7fffffffff000000000000000000000000000000000000000000000000000000008083169003612d585760405162461bcd60e51b815260206004820152601a60248201527f494e56414c49445f494e544552464143455f53454c4543544f5200000000000060448201526064016109fe565b7fffffffff0000000000000000000000000000000000000000000000000000000091909116600090815260046020526040902080547fffffffffffffffffffffffffffffffffffffffffffffffffffffffffffffff0016911515919091179055565b60008181526009602052604081206007015482904210612e1c5760405162461bcd60e51b815260206004820152601060248201527f4d4f4c4543554c455f455850495245440000000000000000000000000000000060448201526064016109fe565b505060009081526009602052604090206004015490565b6000828152600960205260408082206002015460015491516302571be360e01b815260048101829052859391926001600160a01b0316906302571be390602401602060405180830381865afa158015612e90573d6000803e3d6000fd5b505050506040513d601f19601f82011682018060405250810190612eb49190613f09565b6007549091506001600160a01b0316331480612ed857506001600160a01b03811633145b80612f0657506001600160a01b0381166000908152600a6020908152604080832033845290915290205460ff165b80612f2a57506000838152600960205260409020600601546001600160a01b031633145b612f765760405162461bcd60e51b815260206004820152600e60248201527f4e4f545f415554484f524953454400000000000000000000000000000000000060448201526064016109fe565b60008581526009602052604090819020600601805486151574010000000000000000000000000000000000000000027fffffffffffffffffffffff00ffffffffffffffffffffffffffffffffffffffff9091161790555185907fe6ccdb52b4954ab2c3e293f1dbfe593e6c5630962a1944bfcf20c5563eeb846290610e7290871515815260200190565b6000828152600960205260408082206002015460015491516302571be360e01b815260048101829052859391926001600160a01b0316906302571be390602401602060405180830381865afa15801561305d573d6000803e3d6000fd5b505050506040513d601f19601f820116820180604052508101906130819190613f09565b6007549091506001600160a01b03163314806130a557506001600160a01b03811633145b806130d357506001600160a01b0381166000908152600a6020908152604080832033845290915290205460ff165b806130f757506000838152600960205260409020600601546001600160a01b031633145b6131435760405162461bcd60e51b815260206004820152600e60248201527f4e4f545f415554484f524953454400000000000000000000000000000000000060448201526064016109fe565b600085815260096020908152604091829020600601805473ffffffffffffffffffffffffffffffffffffffff19166001600160a01b038816908117909155915191825286917fe5108446a6097aab57fd36f346a515a78fddefa87d81662d44e0d7a463f920959101610e72565b6000828152600960205260408082206002015460015491516302571be360e01b815260048101829052859391926001600160a01b0316906302571be390602401602060405180830381865afa15801561320d573d6000803e3d6000fd5b505050506040513d601f19601f820116820180604052508101906132319190613f09565b6007549091506001600160a01b031633148061325557506001600160a01b03811633145b8061328357506001600160a01b0381166000908152600a6020908152604080832033845290915290205460ff165b806132a757506000838152600960205260409020600601546001600160a01b031633145b6132f35760405162461bcd60e51b815260206004820152600e60248201527f4e4f545f415554484f524953454400000000000000000000000000000000000060448201526064016109fe565b600085815260096020908152604091829020600501805473ffffffffffffffffffffffffffffffffffffffff19166001600160a01b038816908117909155915191825286917fcb71326aeaad88869e8be8be2893e1119f7617ce4ea2411af127e218909be1f79101610e72565b600081815260096020526040812060070154829042106133c25760405162461bcd60e51b815260206004820152601060248201527f4d4f4c4543554c455f455850495245440000000000000000000000000000000060448201526064016109fe565b50506000908152600960205260409020600601546001600160a01b031690565b6003546001600160a01b0316331461343c5760405162461bcd60e51b815260206004820152600760248201527f4e4f545f4445560000000000000000000000000000000000000000000000000060448201526064016109fe565b6003546040516001600160a01b038084169216907f8be0079c531659141344cd1fd0a4f28419497f9722a3daafe3b4186f6b6457e090600090a36003805473ffffffffffffffffffffffffffffffffffffffff19166001600160a01b0392909216919091179055565b600082815260096020526040902060070154829042106135075760405162461bcd60e51b815260206004820152601060248201527f4d4f4c4543554c455f455850495245440000000000000000000000000000000060448201526064016109fe565b6000818152600960205260408082206002015460015491516302571be360e01b8152600481018290529092916001600160a01b0316906302571be390602401602060405180830381865afa158015613563573d6000803e3d6000fd5b505050506040513d601f19601f820116820180604052508101906135879190613f09565b90506001600160a01b0381163314806135c357506001600160a01b0381166000908152600a6020908152604080832033845290915290205460ff165b806135e757506000838152600960205260409020600601546001600160a01b031633145b6136335760405162461bcd60e51b815260206004820152601760248201527f4e4f545f4f574e45525f4f525f434f4e54524f4c4c455200000000000000000060448201526064016109fe565b60008581526009602052604090206007015484116136935760405162461bcd60e51b815260206004820152600a60248201527f4241445f4558504952590000000000000000000000000000000000000000000060448201526064016109fe565b6000858152600960205260408120600701546136af9086613fe4565b9050600654816136bf9190613ff7565b34101561370e5760405162461bcd60e51b815260206004820152601260248201527f494e53554646494349454e545f4554484552000000000000000000000000000060448201526064016109fe565b600086815260096020526040908190206007018690555186907fa620b72378ee464490805a96e25b53e5c0076f0ce2d28f9691ae255a595b3bf3906120639088815260200190565b600081815260096020526040812060070154829042106137b85760405162461bcd60e51b815260206004820152601060248201527f4d4f4c4543554c455f455850495245440000000000000000000000000000000060448201526064016109fe565b6000838152600960205260408082206002015460015491516302571be360e01b8152600481018290529092916001600160a01b0316906302571be390602401602060405180830381865afa158015613814573d6000803e3d6000fd5b505050506040513d601f19601f820116820180604052508101906138389190613f09565b9050306001600160a01b038216036138565760055493505050610a25565b509392505050565b60008281526009602090815260408083206003018054825181850281018501909352808352611615938301828280156138b657602002820191906000526020600020905b8154815260200190600101908083116138a2575b50505050508361392390919063ffffffff16565b6000805b8251811015613919578360ff168382815181106138ed576138ed613e73565b602002602001015160ff1603613907576001915050611619565b8061391181613ed1565b9150506138ce565b5060009392505050565b6000805b8251811015613919578383828151811061394357613943613e73565b60200260200101510361395a576001915050611619565b8061396481613ed1565b915050613927565b6000805b8251811015613919578383828151811061398c5761398c613e73565b6020026020010151036139a0579050611619565b806139aa81613ed1565b915050613970565b6000805b8251811015613919578360ff168382815181106139d5576139d5613e73565b602002602001015160ff16036139ec579050611619565b806139f681613ed1565b9150506139b6565b50805460008255601f0160209004906000526020600020908101906118ff91905b80821115613a335760008155600101613a1f565b5090565b600060208284031215613a4957600080fd5b5035919050565b80357fffffffff0000000000000000000000000000000000000000000000000000000081168114613a8057600080fd5b919050565b600060208284031215613a9757600080fd5b613aa082613a50565b9392505050565b604080825283519082018190526000906020906060840190828701845b82811015613ae357815160ff1684529284019290840190600101613ac4565b5050508381038285015284518082528583019183019060005b81811015613b215783516001600160a01b031683529284019291840191600101613afc565b5090979650505050505050565b6020808252825182820181905260009190848201906040850190845b81811015613b6657835183529284019291840191600101613b4a565b50909695505050505050565b6001600160a01b03811681146118ff57600080fd5b60008060408385031215613b9a57600080fd5b823591506020830135613bac81613b72565b809150509250929050565b60008060408385031215613bca57600080fd5b50508035926020909101359150565b803560ff81168114613a8057600080fd5b60008060408385031215613bfd57600080fd5b82359150613c0d60208401613bd9565b90509250929050565b7f4e487b7100000000000000000000000000000000000000000000000000000000600052604160045260246000fd5b6040516080810167ffffffffffffffff81118282101715613c6857613c68613c16565b60405290565b604051601f82017fffffffffffffffffffffffffffffffffffffffffffffffffffffffffffffffe016810167ffffffffffffffff81118282101715613cb557613cb5613c16565b604052919050565b60008060408385031215613cd057600080fd5b8235915060208084013567ffffffffffffffff80821115613cf057600080fd5b818601915086601f830112613d0457600080fd5b813581811115613d1657613d16613c16565b8060051b9150613d27848301613c6e565b8181529183018401918481019089841115613d4157600080fd5b938501935b83851015613d5f57843582529385019390850190613d46565b8096505050505050509250929050565b600080600060608486031215613d8457600080fd5b833592506020840135613d9681613b72565b9150613da460408501613bd9565b90509250925092565b80358015158114613a8057600080fd5b60008060408385031215613dd057600080fd5b8235613ddb81613b72565b9150613c0d60208401613dad565b60008060408385031215613dfc57600080fd5b8235613e0781613b72565b91506020830135613bac81613b72565b60008060408385031215613e2a57600080fd5b613ddb83613a50565b60008060408385031215613e4657600080fd5b82359150613c0d60208401613dad565b600060208284031215613e6857600080fd5b8135613aa081613b72565b7f4e487b7100000000000000000000000000000000000000000000000000000000600052603260045260246000fd5b7f4e487b7100000000000000000000000000000000000000000000000000000000600052601160045260246000fd5b60007fffffffffffffffffffffffffffffffffffffffffffffffffffffffffffffffff8203613f0257613f02613ea2565b5060010190565b600060208284031215613f1b57600080fd5b8151613aa081613b72565b600060808284031215613f3857600080fd5b82601f830112613f4757600080fd5b613f4f613c45565b806080840185811115613f6157600080fd5b845b81811015613f7b578051845260209384019301613f63565b509095945050505050565b600060808284031215613f9857600080fd5b82601f830112613fa757600080fd5b613faf613c45565b806080840185811115613fc157600080fd5b845b81811015613f7b578051613fd681613b72565b845260209384019301613fc3565b8181038181111561161957611619613ea2565b6000817fffffffffffffffffffffffffffffffffffffffffffffffffffffffffffffffff048311821515161561402f5761402f613ea2565b50029056fea26469706673582212206d5e5f5da1e005a459d669178c2d99469bb866c482265ea6a1bc2f4a7f5c369564736f6c63430008100033",
    "linkReferences": {}
  },
  "methodIdentifiers": {
    "Dev()": "01e51ae8",
    "HELIX2()": "b782426e",
    "Molecules(bytes32)": "af6328f6",
    "NAMES()": "05e84aa0",
    "PRICES()": "1eabcd34",
    "Registrar()": "b9f37c86",
    "active()": "02fb0c5e",
    "addAnion(bytes32,bytes32)": "6ff24830",
    "alias_(bytes32)": "c5bc4c0b",
    "anion(bytes32)": "0e68b116",
    "basePrice()": "c7876ea4",
    "cation(bytes32)": "f61ccd53",
    "controller(bytes32)": "dbd4e021",
    "covalence(bytes32)": "34026859",
    "expiry(bytes32)": "d2ec5fca",
    "hook(bytes32,address,uint8)": "849a799c",
    "hooksWithRules(bytes32)": "0aac6625",
    "isApprovedForAll(bytes32,address)": "b0698628",
    "isNotDuplicateAnion(bytes32,bytes32)": "f8c91244",
    "isNotDuplicateHook(bytes32,uint8)": "4d505584",
    "owner()": "8da5cb5b",
    "popAnion(bytes32,bytes32)": "8dcad139",
    "recordExists(bytes32)": "f79fe538",
    "register(bytes32,bytes32)": "2f926732",
    "rehook(bytes32,address,uint8)": "83669726",
    "renew(bytes32,uint256)": "f544d82f",
    "resolver(bytes32)": "0178b8bf",
    "roothash()": "251c9422",
    "setAlias(bytes32,bytes32)": "1f06e91c",
    "setAnions(bytes32,bytes32[])": "741b4cd0",
    "setApprovalForAll(address,bool)": "a22cb465",
    "setCation(bytes32,bytes32)": "8146970a",
    "setConfig(address,address)": "b602024b",
    "setController(bytes32,address)": "d3156905",
    "setCovalence(bytes32,bool)": "d07699aa",
    "setExpiry(bytes32,uint256)": "39de6469",
    "setInterface(bytes4,bool)": "c0a43a7c",
    "setRecord(bytes32,address)": "d9b76ed4",
    "setResolver(bytes32,address)": "1896f70a",
    "supportsInterface(bytes4)": "01ffc9a7",
    "theEnd()": "22b68deb",
    "toggleActive()": "29c68dc1",
    "transferOwnership(address)": "f2fde38b",
    "unhook(bytes32,uint8)": "b612e9b9",
    "unhookAll(bytes32)": "21ec2b5b",
    "withdrawEther()": "7362377b"
  },
  "id": 29
}