{
  "abi": [
    {
      "inputs": [],
      "name": "CannotBurn",
      "type": "error"
    },
    {
      "inputs": [
        {
          "internalType": "address",
          "name": "to",
          "type": "address"
        }
      ],
      "name": "ERC721IncompatibleReceiver",
      "type": "error"
    },
    {
      "inputs": [
        {
          "internalType": "address",
          "name": "operator",
          "type": "address"
        },
        {
          "internalType": "address",
          "name": "owner",
          "type": "address"
        },
        {
          "internalType": "uint256",
          "name": "tokenID",
          "type": "uint256"
        }
      ],
      "name": "Unauthorized",
      "type": "error"
    },
    {
      "anonymous": false,
      "inputs": [
        {
          "indexed": true,
          "internalType": "address",
          "name": "owner",
          "type": "address"
        },
        {
          "indexed": true,
          "internalType": "address",
          "name": "spender",
          "type": "address"
        },
        {
          "indexed": true,
          "internalType": "uint256",
          "name": "tokenID",
          "type": "uint256"
        }
      ],
      "name": "Approval",
      "type": "event"
    },
    {
      "anonymous": false,
      "inputs": [
        {
          "indexed": true,
          "internalType": "address",
          "name": "owner",
          "type": "address"
        },
        {
          "indexed": true,
          "internalType": "address",
          "name": "operator",
          "type": "address"
        },
        {
          "indexed": false,
          "internalType": "bool",
          "name": "approved",
          "type": "bool"
        }
      ],
      "name": "ApprovalForAll",
      "type": "event"
    },
    {
      "anonymous": false,
      "inputs": [
        {
          "indexed": false,
          "internalType": "address",
          "name": "Dev",
          "type": "address"
        },
        {
          "indexed": false,
          "internalType": "address",
          "name": "newDev",
          "type": "address"
        }
      ],
      "name": "NewDev",
      "type": "event"
    },
    {
      "anonymous": false,
      "inputs": [
        {
          "indexed": true,
          "internalType": "address",
          "name": "from",
          "type": "address"
        },
        {
          "indexed": true,
          "internalType": "address",
          "name": "to",
          "type": "address"
        },
        {
          "indexed": true,
          "internalType": "uint256",
          "name": "tokenID",
          "type": "uint256"
        }
      ],
      "name": "Transfer",
      "type": "event"
    },
    {
      "stateMutability": "payable",
      "type": "fallback"
    },
    {
      "inputs": [],
      "name": "Dev",
      "outputs": [
        {
          "internalType": "address",
          "name": "",
          "type": "address"
        }
      ],
      "stateMutability": "view",
      "type": "function"
    },
    {
      "inputs": [
        {
          "internalType": "uint256",
          "name": "",
          "type": "uint256"
        }
      ],
      "name": "LINK",
      "outputs": [
        {
          "internalType": "address",
          "name": "_from",
          "type": "address"
        },
        {
          "internalType": "address",
          "name": "_to",
          "type": "address"
        },
        {
          "internalType": "bytes32",
          "name": "_alias",
          "type": "bytes32"
        },
        {
          "internalType": "address",
          "name": "_resolver",
          "type": "address"
        },
        {
          "internalType": "address",
          "name": "_controller",
          "type": "address"
        }
      ],
      "stateMutability": "view",
      "type": "function"
    },
    {
      "inputs": [
        {
          "internalType": "uint256",
          "name": "",
          "type": "uint256"
        }
      ],
      "name": "_approved",
      "outputs": [
        {
          "internalType": "address",
          "name": "",
          "type": "address"
        }
      ],
      "stateMutability": "view",
      "type": "function"
    },
    {
      "inputs": [
        {
          "internalType": "address",
          "name": "controller",
          "type": "address"
        },
        {
          "internalType": "uint256",
          "name": "tokenID",
          "type": "uint256"
        }
      ],
      "name": "approve",
      "outputs": [],
      "stateMutability": "payable",
      "type": "function"
    },
    {
      "inputs": [
        {
          "internalType": "address",
          "name": "",
          "type": "address"
        }
      ],
      "name": "balanceOf",
      "outputs": [
        {
          "internalType": "uint256",
          "name": "",
          "type": "uint256"
        }
      ],
      "stateMutability": "view",
      "type": "function"
    },
    {
      "inputs": [
        {
          "internalType": "address",
          "name": "newDev",
          "type": "address"
        }
      ],
      "name": "changeDev",
      "outputs": [],
      "stateMutability": "nonpayable",
      "type": "function"
    },
    {
      "inputs": [
        {
          "internalType": "address",
          "name": "",
          "type": "address"
        },
        {
          "internalType": "address",
          "name": "",
          "type": "address"
        }
      ],
      "name": "isApprovedForAll",
      "outputs": [
        {
          "internalType": "bool",
          "name": "",
          "type": "bool"
        }
      ],
      "stateMutability": "view",
      "type": "function"
    },
    {
      "inputs": [],
      "name": "name",
      "outputs": [
        {
          "internalType": "string",
          "name": "",
          "type": "string"
        }
      ],
      "stateMutability": "view",
      "type": "function"
    },
    {
      "inputs": [
        {
          "internalType": "uint256",
          "name": "tokenID",
          "type": "uint256"
        }
      ],
      "name": "ownerOf",
      "outputs": [
        {
          "internalType": "address",
          "name": "",
          "type": "address"
        }
      ],
      "stateMutability": "view",
      "type": "function"
    },
    {
      "inputs": [],
      "name": "register",
      "outputs": [],
      "stateMutability": "nonpayable",
      "type": "function"
    },
    {
      "inputs": [
        {
          "internalType": "address",
          "name": "from",
          "type": "address"
        },
        {
          "internalType": "address",
          "name": "to",
          "type": "address"
        },
        {
          "internalType": "uint256",
          "name": "tokenID",
          "type": "uint256"
        }
      ],
      "name": "safeTransferFrom",
      "outputs": [],
      "stateMutability": "payable",
      "type": "function"
    },
    {
      "inputs": [
        {
          "internalType": "address",
          "name": "from",
          "type": "address"
        },
        {
          "internalType": "address",
          "name": "to",
          "type": "address"
        },
        {
          "internalType": "uint256",
          "name": "tokenID",
          "type": "uint256"
        },
        {
          "internalType": "bytes",
          "name": "data",
          "type": "bytes"
        }
      ],
      "name": "safeTransferFrom",
      "outputs": [],
      "stateMutability": "payable",
      "type": "function"
    },
    {
      "inputs": [
        {
          "internalType": "address",
          "name": "controller",
          "type": "address"
        },
        {
          "internalType": "bool",
          "name": "flag",
          "type": "bool"
        }
      ],
      "name": "setApprovalForAll",
      "outputs": [],
      "stateMutability": "payable",
      "type": "function"
    },
    {
      "inputs": [
        {
          "internalType": "bytes4",
          "name": "sig",
          "type": "bytes4"
        },
        {
          "internalType": "bool",
          "name": "value",
          "type": "bool"
        }
      ],
      "name": "setInterface",
      "outputs": [],
      "stateMutability": "payable",
      "type": "function"
    },
    {
      "inputs": [
        {
          "internalType": "bytes4",
          "name": "",
          "type": "bytes4"
        }
      ],
      "name": "supportsInterface",
      "outputs": [
        {
          "internalType": "bool",
          "name": "",
          "type": "bool"
        }
      ],
      "stateMutability": "view",
      "type": "function"
    },
    {
      "inputs": [],
      "name": "symbol",
      "outputs": [
        {
          "internalType": "string",
          "name": "",
          "type": "string"
        }
      ],
      "stateMutability": "view",
      "type": "function"
    },
    {
      "inputs": [
        {
          "internalType": "address",
          "name": "from",
          "type": "address"
        },
        {
          "internalType": "address",
          "name": "to",
          "type": "address"
        },
        {
          "internalType": "uint256",
          "name": "tokenID",
          "type": "uint256"
        }
      ],
      "name": "transferFrom",
      "outputs": [],
      "stateMutability": "payable",
      "type": "function"
    },
    {
      "inputs": [],
      "name": "withdrawEther",
      "outputs": [],
      "stateMutability": "payable",
      "type": "function"
    },
    {
      "inputs": [
        {
          "internalType": "address",
          "name": "token",
          "type": "address"
        }
      ],
      "name": "withdrawToken",
      "outputs": [],
      "stateMutability": "payable",
      "type": "function"
    },
    {
      "stateMutability": "payable",
      "type": "receive"
    }
  ],
  "bytecode": {
    "object": "0x608060405234801561001057600080fd5b50600080546001600160a01b03191633178155600160208190527fb45820386466a8e01597d6e1efaf8f11ba4467972de5ca6c1f8aa3544ac2888e805460ff1990811683179091557fb8349d7b7b0b2b924bf96f90971cda8c7ac1ea4cde292a182bd2a203eef6c5d08054821683179055635b5e139f60e01b9092527fce9309d5fe1c6050fdfde39d28ca0616e34393306d1cba1a247c40f9ef5c5d098054909216179055611312806100c46000396000f3fe6080604052600436106101485760003560e01c806370a08231116100c057806395d89b4111610074578063b88d4fde11610059578063b88d4fde14610434578063c0a43a7c14610447578063e985e9c51461045a57600080fd5b806395d89b41146103d8578063a22cb4651461042157600080fd5b806388a8c95c116100a557806388a8c95c1461036f578063894760691461038f5780639024d282146103a257600080fd5b806370a082311461032c5780637362377b1461036757600080fd5b80631aa3a0081161011757806342842e0e116100fc57806342842e0e146102675780635ca177cb1461027a5780636352211e1461030c57600080fd5b80631aa3a0081461023f57806323b872dd1461026757600080fd5b806301e51ae81461015757806301ffc9a71461019457806306fdde03146101d4578063095ea7b31461022a57600080fd5b3661015257600080fd5b600080fd5b34801561016357600080fd5b50600054610177906001600160a01b031681565b6040516001600160a01b0390911681526020015b60405180910390f35b3480156101a057600080fd5b506101c46101af366004610f3d565b60016020526000908152604090205460ff1681565b604051901515815260200161018b565b3480156101e057600080fd5b5061021d6040518060400160405280601581526020017f576f6f6c62616c6c204c696e6b2053657276696365000000000000000000000081525081565b60405161018b9190610fc5565b61023d610238366004610ff4565b610495565b005b34801561024b57600080fd5b5061023d33600090815260026020526040902080546001019055565b61023d61027536600461101e565b6105be565b34801561028657600080fd5b506102d661029536600461105a565b600660205260009081526040902060018101546002820154600383015460048401546005909401546001600160a01b03938416949284169391928216911685565b604080516001600160a01b039687168152948616602086015284019290925283166060830152909116608082015260a00161018b565b34801561031857600080fd5b5061017761032736600461105a565b6105de565b34801561033857600080fd5b50610359610347366004611073565b60026020526000908152604090205481565b60405190815260200161018b565b61023d610678565b34801561037b57600080fd5b5061023d61038a366004611073565b610738565b61023d61039d366004611073565b61082d565b3480156103ae57600080fd5b506101776103bd36600461105a565b6004602052600090815260409020546001600160a01b031681565b3480156103e457600080fd5b5061021d6040518060400160405280600481526020017f574f4f4c0000000000000000000000000000000000000000000000000000000081525081565b61023d61042f36600461109c565b610953565b61023d610442366004611102565b6109dd565b61023d6104553660046111fc565b6109ef565b34801561046657600080fd5b506101c461047536600461121a565b600560209081526000928352604080842090915290825290205460ff1681565b6000818152600360205260409020546001600160a01b0316331415806104e857506000818152600360209081526040808320546001600160a01b031683526005825280832033845290915290205460ff16155b1561054d57600081815260036020526040908190205490517f431ef6160000000000000000000000000000000000000000000000000000000081523360048201526001600160a01b039091166024820152604481018290526064015b60405180910390fd5b60008181526004602052604080822080547fffffffffffffffffffffffff0000000000000000000000000000000000000000166001600160a01b0386169081179091559051839233917f8c5be1e5ebec7d5bd14f71427d1e84f3dd0314c0f7b2291e5b200ac8c7c3b9259190a45050565b6105d983838360405180602001604052806000815250610b51565b505050565b6000818152600360205260408120546001600160a01b031661065c576040517f08c379a000000000000000000000000000000000000000000000000000000000815260206004820152600f60248201527f494e56414c49445f544f4b454e494400000000000000000000000000000000006044820152606401610544565b506000908152600360205260409020546001600160a01b031690565b600080546040516001600160a01b039091169047908381818185875af1925050503d80600081146106c5576040519150601f19603f3d011682016040523d82523d6000602084013e6106ca565b606091505b5050905080610735576040517f08c379a000000000000000000000000000000000000000000000000000000000815260206004820152601360248201527f4554485f5452414e534645525f4641494c4544000000000000000000000000006044820152606401610544565b50565b6000546001600160a01b031633146107ac576040517f08c379a000000000000000000000000000000000000000000000000000000000815260206004820152600860248201527f4f4e4c595f4445560000000000000000000000000000000000000000000000006044820152606401610544565b600054604080516001600160a01b03928316815291831660208301527fdec101f106d4fc7c85791843e64b198248c822298e3ed7046231d33f7783d816910160405180910390a1600080547fffffffffffffffffffffffff0000000000000000000000000000000000000000166001600160a01b0392909216919091179055565b6000546040517f70a0823100000000000000000000000000000000000000000000000000000000815230600482018190526001600160a01b03848116936323b872dd9391169084906370a0823190602401602060405180830381865afa15801561089b573d6000803e3d6000fd5b505050506040513d601f19601f820116820180604052508101906108bf919061124d565b6040517fffffffff0000000000000000000000000000000000000000000000000000000060e086901b1681526001600160a01b03938416600482015292909116602483015260448201526064016020604051808303816000875af115801561092b573d6000803e3d6000fd5b505050506040513d601f19601f8201168201806040525081019061094f9190611266565b5050565b3360008181526005602090815260408083206001600160a01b0387168085529083529281902080547fffffffffffffffffffffffffffffffffffffffffffffffffffffffffffffff001686151590811790915590519081529192917f17307eab39ab6107e8899845ad3d59bd9653f200f220920489ca2b5937696c31910160405180910390a35050565b6109e984848484610b51565b50505050565b6000546001600160a01b03163314610a63576040517f08c379a000000000000000000000000000000000000000000000000000000000815260206004820152600860248201527f4f4e4c595f4445560000000000000000000000000000000000000000000000006044820152606401610544565b7fffffffff000000000000000000000000000000000000000000000000000000008083169003610aef576040517f08c379a000000000000000000000000000000000000000000000000000000000815260206004820152601a60248201527f494e56414c49445f494e544552464143455f53454c4543544f520000000000006044820152606401610544565b7fffffffff0000000000000000000000000000000000000000000000000000000091909116600090815260016020526040902080547fffffffffffffffffffffffffffffffffffffffffffffffffffffffffffffff0016911515919091179055565b6001600160a01b038316610b91576040517f5788079900000000000000000000000000000000000000000000000000000000815260040160405180910390fd5b6000828152600360205260409020546001600160a01b03858116911614610c0f57600082815260036020526040908190205490517f431ef6160000000000000000000000000000000000000000000000000000000081526001600160a01b039182166004820152908516602482015260448101839052606401610544565b6000828152600360205260409020546001600160a01b03163314801590610c5a57506001600160a01b038416600090815260056020908152604080832033845290915290205460ff16155b8015610c7d57506000828152600460205260409020546001600160a01b03163314155b15610ccc576040517f431ef6160000000000000000000000000000000000000000000000000000000081523360048201526001600160a01b038516602482015260448101839052606401610544565b600082815260046020908152604080832080547fffffffffffffffffffffffff00000000000000000000000000000000000000009081169091556001600160a01b038881168086526002855283862080547fffffffffffffffffffffffffffffffffffffffffffffffffffffffffffffffff01905590881680865283862080546001019055878652600390945282852080549092168417909155905185937fddf252ad1be2c89b69c2b068fc378daa952ba7f163c4a11628f55a4df523b3ef91a46001600160a01b0383163b156109e9576040517f150b7a020000000000000000000000000000000000000000000000000000000081526001600160a01b0384169063150b7a0290610de8903390889087908790600401611283565b6020604051808303816000875af1925050508015610e41575060408051601f3d9081017fffffffffffffffffffffffffffffffffffffffffffffffffffffffffffffffe0168201909252610e3e918101906112bf565b60015b610e82576040517f3a9f8cb30000000000000000000000000000000000000000000000000000000081526001600160a01b0384166004820152602401610544565b7fffffffff0000000000000000000000000000000000000000000000000000000081167f150b7a020000000000000000000000000000000000000000000000000000000014610f08576040517f3a9f8cb30000000000000000000000000000000000000000000000000000000081526001600160a01b0385166004820152602401610544565b5050505050565b7fffffffff000000000000000000000000000000000000000000000000000000008116811461073557600080fd5b600060208284031215610f4f57600080fd5b8135610f5a81610f0f565b9392505050565b6000815180845260005b81811015610f8757602081850181015186830182015201610f6b565b5060006020828601015260207fffffffffffffffffffffffffffffffffffffffffffffffffffffffffffffffe0601f83011685010191505092915050565b602081526000610f5a6020830184610f61565b80356001600160a01b0381168114610fef57600080fd5b919050565b6000806040838503121561100757600080fd5b61101083610fd8565b946020939093013593505050565b60008060006060848603121561103357600080fd5b61103c84610fd8565b925061104a60208501610fd8565b9150604084013590509250925092565b60006020828403121561106c57600080fd5b5035919050565b60006020828403121561108557600080fd5b610f5a82610fd8565b801515811461073557600080fd5b600080604083850312156110af57600080fd5b6110b883610fd8565b915060208301356110c88161108e565b809150509250929050565b7f4e487b7100000000000000000000000000000000000000000000000000000000600052604160045260246000fd5b6000806000806080858703121561111857600080fd5b61112185610fd8565b935061112f60208601610fd8565b925060408501359150606085013567ffffffffffffffff8082111561115357600080fd5b818701915087601f83011261116757600080fd5b813581811115611179576111796110d3565b604051601f82017fffffffffffffffffffffffffffffffffffffffffffffffffffffffffffffffe0908116603f011681019083821181831017156111bf576111bf6110d3565b816040528281528a60208487010111156111d857600080fd5b82602086016020830137600060208483010152809550505050505092959194509250565b6000806040838503121561120f57600080fd5b82356110b881610f0f565b6000806040838503121561122d57600080fd5b61123683610fd8565b915061124460208401610fd8565b90509250929050565b60006020828403121561125f57600080fd5b5051919050565b60006020828403121561127857600080fd5b8151610f5a8161108e565b60006001600160a01b038087168352808616602084015250836040830152608060608301526112b56080830184610f61565b9695505050505050565b6000602082840312156112d157600080fd5b8151610f5a81610f0f56fea26469706673582212209aceb02ccb07aa9f5ac508c4be376cd30c31c21ed5fab3534f38226c449a94ab64736f6c63430008100033",
    "linkReferences": {}
  },
  "methodIdentifiers": {
    "Dev()": "01e51ae8",
    "LINK(uint256)": "5ca177cb",
    "_approved(uint256)": "9024d282",
    "approve(address,uint256)": "095ea7b3",
    "balanceOf(address)": "70a08231",
    "changeDev(address)": "88a8c95c",
    "isApprovedForAll(address,address)": "e985e9c5",
    "name()": "06fdde03",
    "ownerOf(uint256)": "6352211e",
    "register()": "1aa3a008",
    "safeTransferFrom(address,address,uint256)": "42842e0e",
    "safeTransferFrom(address,address,uint256,bytes)": "b88d4fde",
    "setApprovalForAll(address,bool)": "a22cb465",
    "setInterface(bytes4,bool)": "c0a43a7c",
    "supportsInterface(bytes4)": "01ffc9a7",
    "symbol()": "95d89b41",
    "transferFrom(address,address,uint256)": "23b872dd",
    "withdrawEther()": "7362377b",
    "withdrawToken(address)": "89476069"
  },
  "id": 3
}