{
  "abi": [
    {
      "inputs": [
        {
          "internalType": "address",
          "name": "_helix2",
          "type": "address"
        }
      ],
      "stateMutability": "nonpayable",
      "type": "constructor"
    },
    {
      "inputs": [
        {
          "internalType": "address",
          "name": "_dev",
          "type": "address"
        },
        {
          "internalType": "address",
          "name": "_you",
          "type": "address"
        }
      ],
      "name": "OnlyDev",
      "type": "error"
    },
    {
      "anonymous": false,
      "inputs": [
        {
          "indexed": true,
          "internalType": "bytes32",
          "name": "namehash",
          "type": "bytes32"
        },
        {
          "indexed": false,
          "internalType": "address",
          "name": "addr",
          "type": "address"
        }
      ],
      "name": "NewAddr",
      "type": "event"
    },
    {
      "anonymous": false,
      "inputs": [
        {
          "indexed": true,
          "internalType": "bytes32",
          "name": "namehash",
          "type": "bytes32"
        },
        {
          "indexed": false,
          "internalType": "uint256",
          "name": "coinType",
          "type": "uint256"
        },
        {
          "indexed": false,
          "internalType": "bytes",
          "name": "newAddress",
          "type": "bytes"
        }
      ],
      "name": "NewAddr2",
      "type": "event"
    },
    {
      "anonymous": false,
      "inputs": [
        {
          "indexed": true,
          "internalType": "bytes32",
          "name": "namehash",
          "type": "bytes32"
        },
        {
          "indexed": false,
          "internalType": "bytes",
          "name": "_contenthash",
          "type": "bytes"
        }
      ],
      "name": "NewContenthash",
      "type": "event"
    },
    {
      "anonymous": false,
      "inputs": [
        {
          "indexed": true,
          "internalType": "bytes32",
          "name": "namehash",
          "type": "bytes32"
        },
        {
          "indexed": false,
          "internalType": "bytes32",
          "name": "x",
          "type": "bytes32"
        },
        {
          "indexed": false,
          "internalType": "bytes32",
          "name": "y",
          "type": "bytes32"
        }
      ],
      "name": "NewPubkey",
      "type": "event"
    },
    {
      "anonymous": false,
      "inputs": [
        {
          "indexed": true,
          "internalType": "bytes32",
          "name": "namehash",
          "type": "bytes32"
        },
        {
          "indexed": true,
          "internalType": "string",
          "name": "key",
          "type": "string"
        },
        {
          "indexed": false,
          "internalType": "string",
          "name": "value",
          "type": "string"
        }
      ],
      "name": "NewTextRecord",
      "type": "event"
    },
    {
      "stateMutability": "payable",
      "type": "fallback"
    },
    {
      "inputs": [],
      "name": "DefaultContenthash",
      "outputs": [
        {
          "internalType": "bytes",
          "name": "",
          "type": "bytes"
        }
      ],
      "stateMutability": "view",
      "type": "function"
    },
    {
      "inputs": [],
      "name": "HELIX2",
      "outputs": [
        {
          "internalType": "contract iHELIX2",
          "name": "",
          "type": "address"
        }
      ],
      "stateMutability": "view",
      "type": "function"
    },
    {
      "inputs": [],
      "name": "NAMES",
      "outputs": [
        {
          "internalType": "contract iNAME",
          "name": "",
          "type": "address"
        }
      ],
      "stateMutability": "view",
      "type": "function"
    },
    {
      "inputs": [
        {
          "internalType": "bytes32",
          "name": "namehash",
          "type": "bytes32"
        }
      ],
      "name": "addr",
      "outputs": [
        {
          "internalType": "address payable",
          "name": "",
          "type": "address"
        }
      ],
      "stateMutability": "view",
      "type": "function"
    },
    {
      "inputs": [
        {
          "internalType": "bytes32",
          "name": "namehash",
          "type": "bytes32"
        },
        {
          "internalType": "uint256",
          "name": "coinType",
          "type": "uint256"
        }
      ],
      "name": "addr2",
      "outputs": [
        {
          "internalType": "address payable",
          "name": "",
          "type": "address"
        }
      ],
      "stateMutability": "view",
      "type": "function"
    },
    {
      "inputs": [
        {
          "internalType": "bytes32",
          "name": "namehash",
          "type": "bytes32"
        }
      ],
      "name": "contenthash",
      "outputs": [
        {
          "internalType": "bytes",
          "name": "_hash",
          "type": "bytes"
        }
      ],
      "stateMutability": "view",
      "type": "function"
    },
    {
      "inputs": [
        {
          "internalType": "bytes32",
          "name": "",
          "type": "bytes32"
        }
      ],
      "name": "pubkey",
      "outputs": [
        {
          "internalType": "bytes32",
          "name": "x",
          "type": "bytes32"
        },
        {
          "internalType": "bytes32",
          "name": "y",
          "type": "bytes32"
        }
      ],
      "stateMutability": "view",
      "type": "function"
    },
    {
      "inputs": [
        {
          "internalType": "bytes32",
          "name": "namehash",
          "type": "bytes32"
        },
        {
          "internalType": "address",
          "name": "_addr",
          "type": "address"
        }
      ],
      "name": "setAddress",
      "outputs": [],
      "stateMutability": "nonpayable",
      "type": "function"
    },
    {
      "inputs": [
        {
          "internalType": "bytes32",
          "name": "namehash",
          "type": "bytes32"
        },
        {
          "internalType": "uint256",
          "name": "coinType",
          "type": "uint256"
        },
        {
          "internalType": "bytes",
          "name": "_addr",
          "type": "bytes"
        }
      ],
      "name": "setAddressCoin",
      "outputs": [],
      "stateMutability": "nonpayable",
      "type": "function"
    },
    {
      "inputs": [
        {
          "internalType": "bytes32",
          "name": "namehash",
          "type": "bytes32"
        },
        {
          "internalType": "bytes",
          "name": "_hash",
          "type": "bytes"
        }
      ],
      "name": "setContenthash",
      "outputs": [],
      "stateMutability": "nonpayable",
      "type": "function"
    },
    {
      "inputs": [
        {
          "internalType": "bytes",
          "name": "_content",
          "type": "bytes"
        }
      ],
      "name": "setDefaultContenthash",
      "outputs": [],
      "stateMutability": "nonpayable",
      "type": "function"
    },
    {
      "inputs": [
        {
          "internalType": "string",
          "name": "key",
          "type": "string"
        },
        {
          "internalType": "string",
          "name": "value",
          "type": "string"
        }
      ],
      "name": "setDefaultText",
      "outputs": [],
      "stateMutability": "nonpayable",
      "type": "function"
    },
    {
      "inputs": [
        {
          "internalType": "bytes4",
          "name": "sig",
          "type": "bytes4"
        },
        {
          "internalType": "bool",
          "name": "value",
          "type": "bool"
        }
      ],
      "name": "setInterface",
      "outputs": [],
      "stateMutability": "payable",
      "type": "function"
    },
    {
      "inputs": [
        {
          "internalType": "bytes32",
          "name": "namehash",
          "type": "bytes32"
        },
        {
          "internalType": "bytes32",
          "name": "x",
          "type": "bytes32"
        },
        {
          "internalType": "bytes32",
          "name": "y",
          "type": "bytes32"
        }
      ],
      "name": "setPubkey",
      "outputs": [],
      "stateMutability": "nonpayable",
      "type": "function"
    },
    {
      "inputs": [
        {
          "internalType": "bytes32",
          "name": "namehash",
          "type": "bytes32"
        },
        {
          "internalType": "string",
          "name": "key",
          "type": "string"
        },
        {
          "internalType": "string",
          "name": "value",
          "type": "string"
        }
      ],
      "name": "setText",
      "outputs": [],
      "stateMutability": "nonpayable",
      "type": "function"
    },
    {
      "inputs": [
        {
          "internalType": "bytes4",
          "name": "",
          "type": "bytes4"
        }
      ],
      "name": "supportsInterface",
      "outputs": [
        {
          "internalType": "bool",
          "name": "",
          "type": "bool"
        }
      ],
      "stateMutability": "view",
      "type": "function"
    },
    {
      "inputs": [
        {
          "internalType": "bytes32",
          "name": "namehash",
          "type": "bytes32"
        },
        {
          "internalType": "string",
          "name": "key",
          "type": "string"
        }
      ],
      "name": "text",
      "outputs": [
        {
          "internalType": "string",
          "name": "value",
          "type": "string"
        }
      ],
      "stateMutability": "view",
      "type": "function"
    },
    {
      "inputs": [],
      "name": "withdrawEther",
      "outputs": [],
      "stateMutability": "payable",
      "type": "function"
    },
    {
      "inputs": [
        {
          "internalType": "address",
          "name": "token",
          "type": "address"
        },
        {
          "internalType": "uint256",
          "name": "value",
          "type": "uint256"
        }
      ],
      "name": "withdrawToken",
      "outputs": [],
      "stateMutability": "payable",
      "type": "function"
    },
    {
      "stateMutability": "payable",
      "type": "receive"
    }
  ],
  "bytecode": {
    "object": "0x60806040523480156200001157600080fd5b506040516200297938038062002979833981016040819052620000349162000190565b600080546001600160a01b0319166001600160a01b038316178155600260209081527f7a6ed3a1d03568ba34c4e721c07cc5fb10d48888f825e55b36c6ab346be415bc805460ff1990811660019081179092557f4c882bd28188efef4c64f112d0093aba99f4a04db72e2640342af87ab6ec817580548216831790557fe7d8388e96e266aad8ecb72206b6c9f49ec78ede7daf2641cf85e1ed4a65f08980548216831790557fe6ca55aedfc0b80b83920adc2dfc31bcc9683a415c93cb2abde430c1112797a48054821683179055631674750f60e21b9093527ffae26f5ae7a310f954482c36bb01bdf3029f43c23178d2e543a6e98064447be98054909316179091556040805160608101909152602a80825290916200294f908301396000805260036020527f3617319a054d772f909f7c479a2cebe5066e836a939412e32403c99029b92eff9062000188908262000267565b505062000333565b600060208284031215620001a357600080fd5b81516001600160a01b0381168114620001bb57600080fd5b9392505050565b634e487b7160e01b600052604160045260246000fd5b600181811c90821680620001ed57607f821691505b6020821081036200020e57634e487b7160e01b600052602260045260246000fd5b50919050565b601f8211156200026257600081815260208120601f850160051c810160208610156200023d5750805b601f850160051c820191505b818110156200025e5782815560010162000249565b5050505b505050565b81516001600160401b03811115620002835762000283620001c2565b6200029b81620002948454620001d8565b8462000214565b602080601f831160018114620002d35760008415620002ba5750858301515b600019600386901b1c1916600185901b1785556200025e565b600085815260208120601f198616915b828110156200030457888601518255948401946001909101908401620002e3565b5085821015620003235787850151600019600388901b60f8161c191681555b5050505050600190811b01905550565b61260c80620003436000396000f3fe6080604052600436106101485760003560e01c80637362377b116100c0578063c0a43a7c11610074578063c9b6905911610059578063c9b690591461038f578063ca446dd9146103af578063f5aed68f146103cf57600080fd5b8063c0a43a7c14610333578063c86902331461034657600080fd5b80639e281a98116100a55780639e281a98146102e0578063b782426e146102f3578063bc1c58d11461031357600080fd5b80637362377b146102b857806378237b03146102c057600080fd5b8063304e6ade1161011757806359d1d43c116100fc57806359d1d43c146102565780635d81d5531461028357806369be8bb0146102a357600080fd5b8063304e6ade146102165780633b3b57de1461023657600080fd5b806301ffc9a71461015757806305e84aa01461019c57806310f13a8c146101d457806329cd62ea146101f657600080fd5b3661015257600080fd5b600080fd5b34801561016357600080fd5b50610187610172366004611e85565b60026020526000908152604090205460ff1681565b60405190151581526020015b60405180910390f35b3480156101a857600080fd5b506001546101bc906001600160a01b031681565b6040516001600160a01b039091168152602001610193565b3480156101e057600080fd5b506101f46101ef366004611ee9565b6103ef565b005b34801561020257600080fd5b506101f4610211366004611f63565b610630565b34801561022257600080fd5b506101f461023136600461204b565b61083e565b34801561024257600080fd5b506101bc610251366004612092565b610a35565b34801561026257600080fd5b506102766102713660046120ab565b610c35565b604051610193919061213d565b34801561028f57600080fd5b506101f461029e366004612150565b610db0565b3480156102af57600080fd5b50610276610f2e565b6101f4610fea565b3480156102cc57600080fd5b506101bc6102db366004612185565b611105565b6101f46102ee3660046121bc565b61135f565b3480156102ff57600080fd5b506000546101bc906001600160a01b031681565b34801561031f57600080fd5b5061027661032e366004612092565b6114bf565b6101f46103413660046121e8565b6116d8565b34801561035257600080fd5b5061037a610361366004612092565b6006602052600090815260409020805460019091015482565b60408051928352602083019190915201610193565b34801561039b57600080fd5b506101f46103aa366004612224565b61188a565b3480156103bb57600080fd5b506101f46103ca366004612290565b611a1e565b3480156103db57600080fd5b506101f46103ea3660046122b5565b611c5e565b6001546040516369762fe560e11b81526004810187905286916001600160a01b03169063d2ec5fca90602401602060405180830381865afa158015610438573d6000803e3d6000fd5b505050506040513d601f19601f8201168201806040525081019061045c9190612305565b42106104af5760405162461bcd60e51b815260206004820152600c60248201527f4e414d455f45585049524544000000000000000000000000000000000000000060448201526064015b60405180910390fd5b6001546040517f02571be3000000000000000000000000000000000000000000000000000000008152600481018390526001600160a01b03909116906302571be390602401602060405180830381865afa158015610511573d6000803e3d6000fd5b505050506040513d601f19601f82011682018060405250810190610535919061231e565b6001600160a01b0316336001600160a01b0316146105955760405162461bcd60e51b815260206004820152600e60248201527f4e4f545f415554484f524953454400000000000000000000000000000000000060448201526064016104a6565b82826004600089815260200190815260200160002087876040516105ba92919061233b565b908152602001604051809103902091826105d59291906123e9565b5084846040516105e692919061233b565b6040518091039020867f67183f1114fa702d378afb1540cad2f1fb0ce08eb7b86b97303e5db7b827f73385856040516106209291906124aa565b60405180910390a3505050505050565b6001546040516369762fe560e11b81526004810185905284916001600160a01b03169063d2ec5fca90602401602060405180830381865afa158015610679573d6000803e3d6000fd5b505050506040513d601f19601f8201168201806040525081019061069d9190612305565b42106106eb5760405162461bcd60e51b815260206004820152600c60248201527f4e414d455f45585049524544000000000000000000000000000000000000000060448201526064016104a6565b6001546040517f02571be3000000000000000000000000000000000000000000000000000000008152600481018390526001600160a01b03909116906302571be390602401602060405180830381865afa15801561074d573d6000803e3d6000fd5b505050506040513d601f19601f82011682018060405250810190610771919061231e565b6001600160a01b0316336001600160a01b0316146107d15760405162461bcd60e51b815260206004820152600e60248201527f4e4f545f415554484f524953454400000000000000000000000000000000000060448201526064016104a6565b60408051808201825284815260208082018581526000888152600683528490209251835551600190920191909155815185815290810184905285917f70aea62941eaea7f42402dd58e32c3147d00156f9fc574bee920fbd14c6829d291015b60405180910390a250505050565b6001546040516369762fe560e11b81526004810184905283916001600160a01b03169063d2ec5fca90602401602060405180830381865afa158015610887573d6000803e3d6000fd5b505050506040513d601f19601f820116820180604052508101906108ab9190612305565b42106108f95760405162461bcd60e51b815260206004820152600c60248201527f4e414d455f45585049524544000000000000000000000000000000000000000060448201526064016104a6565b6001546040517f02571be3000000000000000000000000000000000000000000000000000000008152600481018390526001600160a01b03909116906302571be390602401602060405180830381865afa15801561095b573d6000803e3d6000fd5b505050506040513d601f19601f8201168201806040525081019061097f919061231e565b6001600160a01b0316336001600160a01b0316146109df5760405162461bcd60e51b815260206004820152600e60248201527f4e4f545f415554484f524953454400000000000000000000000000000000000060448201526064016104a6565b60008381526003602052604090206109f783826124d9565b50827ffd6daaf738297ede78acf9eb128bcc41af0941fe83f57d3c3dbf9860acefb71d83604051610a28919061213d565b60405180910390a2505050565b6001546040516369762fe560e11b8152600481018390526000916001600160a01b03169063d2ec5fca90602401602060405180830381865afa158015610a7f573d6000803e3d6000fd5b505050506040513d601f19601f82011682018060405250810190610aa39190612305565b4210610af15760405162461bcd60e51b815260206004820152600c60248201527f4e414d455f45585049524544000000000000000000000000000000000000000060448201526064016104a6565b6000828152600560209081526040808320603c845290915281208054610b169061234b565b80601f0160208091040260200160405190810160405280929190818152602001828054610b429061234b565b8015610b8f5780601f10610b6457610100808354040283529160200191610b8f565b820191906000526020600020905b815481529060010190602001808311610b7257829003601f168201915b505050505090508051600003610c2c576001546040517f02571be3000000000000000000000000000000000000000000000000000000008152600481018590526001600160a01b03909116906302571be390602401602060405180830381865afa158015610c01573d6000803e3d6000fd5b505050506040513d601f19601f82011682018060405250810190610c25919061231e565b9392505050565b610c2581612599565b6001546040516369762fe560e11b8152600481018590526060916001600160a01b03169063d2ec5fca90602401602060405180830381865afa158015610c7f573d6000803e3d6000fd5b505050506040513d601f19601f82011682018060405250810190610ca39190612305565b4210610cf15760405162461bcd60e51b815260206004820152600c60248201527f4e414d455f45585049524544000000000000000000000000000000000000000060448201526064016104a6565b600084815260046020526040908190209051610d10908590859061233b565b90815260200160405180910390208054610d299061234b565b80601f0160208091040260200160405190810160405280929190818152602001828054610d559061234b565b8015610da25780601f10610d7757610100808354040283529160200191610da2565b820191906000526020600020905b815481529060010190602001808311610d8557829003601f168201915b505050505090509392505050565b60008054906101000a90046001600160a01b03166001600160a01b031663f079914f6040518163ffffffff1660e01b8152600401602060405180830381865afa158015610e01573d6000803e3d6000fd5b505050506040513d601f19601f82011682018060405250810190610e25919061231e565b6001600160a01b0316336001600160a01b031614610ef65760008054906101000a90046001600160a01b03166001600160a01b031663f079914f6040518163ffffffff1660e01b8152600401602060405180830381865afa158015610e8e573d6000803e3d6000fd5b505050506040513d601f19601f82011682018060405250810190610eb2919061231e565b6040517f8ea458f60000000000000000000000000000000000000000000000000000000081526001600160a01b0390911660048201523360248201526044016104a6565b6000805260036020527f3617319a054d772f909f7c479a2cebe5066e836a939412e32403c99029b92eff610f2a82826124d9565b5050565b6000805260036020527f3617319a054d772f909f7c479a2cebe5066e836a939412e32403c99029b92eff805460609190610f679061234b565b80601f0160208091040260200160405190810160405280929190818152602001828054610f939061234b565b8015610fe05780601f10610fb557610100808354040283529160200191610fe0565b820191906000526020600020905b815481529060010190602001808311610fc357829003601f168201915b5050505050905090565b60008060009054906101000a90046001600160a01b03166001600160a01b031663f079914f6040518163ffffffff1660e01b8152600401602060405180830381865afa15801561103e573d6000803e3d6000fd5b505050506040513d601f19601f82011682018060405250810190611062919061231e565b6001600160a01b03164760405160006040518083038185875af1925050503d80600081146110ac576040519150601f19603f3d011682016040523d82523d6000602084013e6110b1565b606091505b50509050806111025760405162461bcd60e51b815260206004820152601360248201527f4554485f5452414e534645525f4641494c45440000000000000000000000000060448201526064016104a6565b50565b6001546040516369762fe560e11b8152600481018490526000916001600160a01b03169063d2ec5fca90602401602060405180830381865afa15801561114f573d6000803e3d6000fd5b505050506040513d601f19601f820116820180604052508101906111739190612305565b42106111c15760405162461bcd60e51b815260206004820152600c60248201527f4e414d455f45585049524544000000000000000000000000000000000000000060448201526064016104a6565b6000838152600560209081526040808320858452909152812080546111e59061234b565b80601f01602080910402602001604051908101604052809291908181526020018280546112119061234b565b801561125e5780601f106112335761010080835404028352916020019161125e565b820191906000526020600020905b81548152906001019060200180831161124157829003601f168201915b5050505050905080516000148015611276575082603c145b1561134e576001546040517f02571be3000000000000000000000000000000000000000000000000000000008152600481018690526001600160a01b03909116906302571be390602401602060405180830381865afa1580156112dd573d6000803e3d6000fd5b505050506040513d601f19601f82011682018060405250810190611301919061231e565b60405160200161133c919060609190911b7fffffffffffffffffffffffffffffffffffffffff00000000000000000000000016815260140190565b60405160208183030381529060405290505b61135781612599565b949350505050565b306001600160a01b038316036113b75760405162461bcd60e51b815260206004820152600f60248201527f5245534f4c5645525f4c4f434b4544000000000000000000000000000000000060448201526064016104a6565b816001600160a01b03166323b872dd3060008054906101000a90046001600160a01b03166001600160a01b031663f079914f6040518163ffffffff1660e01b8152600401602060405180830381865afa158015611418573d6000803e3d6000fd5b505050506040513d601f19601f8201168201806040525081019061143c919061231e565b6040517fffffffff0000000000000000000000000000000000000000000000000000000060e085901b1681526001600160a01b0392831660048201529116602482015260448101849052606401600060405180830381600087803b1580156114a357600080fd5b505af11580156114b7573d6000803e3d6000fd5b505050505050565b6001546040516369762fe560e11b8152600481018390526060916001600160a01b03169063d2ec5fca90602401602060405180830381865afa158015611509573d6000803e3d6000fd5b505050506040513d601f19601f8201168201806040525081019061152d9190612305565b421061157b5760405162461bcd60e51b815260206004820152600c60248201527f4e414d455f45585049524544000000000000000000000000000000000000000060448201526064016104a6565b600082815260036020526040902080546115949061234b565b80601f01602080910402602001604051908101604052809291908181526020018280546115c09061234b565b801561160d5780601f106115e25761010080835404028352916020019161160d565b820191906000526020600020905b8154815290600101906020018083116115f057829003601f168201915b5050505050905080516000036116d3576000805260036020527f3617319a054d772f909f7c479a2cebe5066e836a939412e32403c99029b92eff80546116529061234b565b80601f016020809104026020016040519081016040528092919081815260200182805461167e9061234b565b80156116cb5780601f106116a0576101008083540402835291602001916116cb565b820191906000526020600020905b8154815290600101906020018083116116ae57829003601f168201915b505050505090505b919050565b60008054906101000a90046001600160a01b03166001600160a01b031663f079914f6040518163ffffffff1660e01b8152600401602060405180830381865afa158015611729573d6000803e3d6000fd5b505050506040513d601f19601f8201168201806040525081019061174d919061231e565b6001600160a01b0316336001600160a01b0316146117b65760008054906101000a90046001600160a01b03166001600160a01b031663f079914f6040518163ffffffff1660e01b8152600401602060405180830381865afa158015610e8e573d6000803e3d6000fd5b7fffffffff0000000000000000000000000000000000000000000000000000000080831690036118285760405162461bcd60e51b815260206004820152601a60248201527f494e56414c49445f494e544552464143455f53454c4543544f5200000000000060448201526064016104a6565b7fffffffff0000000000000000000000000000000000000000000000000000000091909116600090815260026020526040902080547fffffffffffffffffffffffffffffffffffffffffffffffffffffffffffffff0016911515919091179055565b60008054906101000a90046001600160a01b03166001600160a01b031663f079914f6040518163ffffffff1660e01b8152600401602060405180830381865afa1580156118db573d6000803e3d6000fd5b505050506040513d601f19601f820116820180604052508101906118ff919061231e565b6001600160a01b0316336001600160a01b0316146119685760008054906101000a90046001600160a01b03166001600160a01b031663f079914f6040518163ffffffff1660e01b8152600401602060405180830381865afa158015610e8e573d6000803e3d6000fd5b600080526004602052604051829082907f17ef568e3e12ab5b9c7254a8d58478811de00f9e6eb34345acd53bf8fd09d3ec906119a7908890889061233b565b908152602001604051809103902091826119c29291906123e9565b5083836040516119d392919061233b565b60405180910390206000801b7f67183f1114fa702d378afb1540cad2f1fb0ce08eb7b86b97303e5db7b827f7338484604051611a109291906124aa565b60405180910390a350505050565b6001546040516369762fe560e11b81526004810184905283916001600160a01b03169063d2ec5fca90602401602060405180830381865afa158015611a67573d6000803e3d6000fd5b505050506040513d601f19601f82011682018060405250810190611a8b9190612305565b4210611ad95760405162461bcd60e51b815260206004820152600c60248201527f4e414d455f45585049524544000000000000000000000000000000000000000060448201526064016104a6565b6001546040517f02571be3000000000000000000000000000000000000000000000000000000008152600481018390526001600160a01b03909116906302571be390602401602060405180830381865afa158015611b3b573d6000803e3d6000fd5b505050506040513d601f19601f82011682018060405250810190611b5f919061231e565b6001600160a01b0316336001600160a01b031614611bbf5760405162461bcd60e51b815260206004820152600e60248201527f4e4f545f415554484f524953454400000000000000000000000000000000000060448201526064016104a6565b6040517fffffffffffffffffffffffffffffffffffffffff000000000000000000000000606084901b16602082015260340160408051601f19818403018152918152600085815260056020908152828220603c835290522090611c2290826124d9565b506040516001600160a01b038316815283907f1ac9282df2fbe826c9af5c86adfeb678816478c19262558e4e71e399fd4a16e990602001610a28565b6001546040516369762fe560e11b81526004810185905284916001600160a01b03169063d2ec5fca90602401602060405180830381865afa158015611ca7573d6000803e3d6000fd5b505050506040513d601f19601f82011682018060405250810190611ccb9190612305565b4210611d195760405162461bcd60e51b815260206004820152600c60248201527f4e414d455f45585049524544000000000000000000000000000000000000000060448201526064016104a6565b6001546040517f02571be3000000000000000000000000000000000000000000000000000000008152600481018390526001600160a01b03909116906302571be390602401602060405180830381865afa158015611d7b573d6000803e3d6000fd5b505050506040513d601f19601f82011682018060405250810190611d9f919061231e565b6001600160a01b0316336001600160a01b031614611dff5760405162461bcd60e51b815260206004820152600e60248201527f4e4f545f415554484f524953454400000000000000000000000000000000000060448201526064016104a6565b60008481526005602090815260408083208684529091529020611e2283826124d9565b50837f91f951276447c3816ca159edb0a9492e803b9355af1feadf2fa4371af2f070af84846040516108309291906125bd565b80357fffffffff00000000000000000000000000000000000000000000000000000000811681146116d357600080fd5b600060208284031215611e9757600080fd5b610c2582611e55565b60008083601f840112611eb257600080fd5b50813567ffffffffffffffff811115611eca57600080fd5b602083019150836020828501011115611ee257600080fd5b9250929050565b600080600080600060608688031215611f0157600080fd5b85359450602086013567ffffffffffffffff80821115611f2057600080fd5b611f2c89838a01611ea0565b90965094506040880135915080821115611f4557600080fd5b50611f5288828901611ea0565b969995985093965092949392505050565b600080600060608486031215611f7857600080fd5b505081359360208301359350604090920135919050565b7f4e487b7100000000000000000000000000000000000000000000000000000000600052604160045260246000fd5b600082601f830112611fcf57600080fd5b813567ffffffffffffffff80821115611fea57611fea611f8f565b604051601f8301601f19908116603f0116810190828211818310171561201257612012611f8f565b8160405283815286602085880101111561202b57600080fd5b836020870160208301376000602085830101528094505050505092915050565b6000806040838503121561205e57600080fd5b82359150602083013567ffffffffffffffff81111561207c57600080fd5b61208885828601611fbe565b9150509250929050565b6000602082840312156120a457600080fd5b5035919050565b6000806000604084860312156120c057600080fd5b83359250602084013567ffffffffffffffff8111156120de57600080fd5b6120ea86828701611ea0565b9497909650939450505050565b6000815180845260005b8181101561211d57602081850181015186830182015201612101565b506000602082860101526020601f19601f83011685010191505092915050565b602081526000610c2560208301846120f7565b60006020828403121561216257600080fd5b813567ffffffffffffffff81111561217957600080fd5b61135784828501611fbe565b6000806040838503121561219857600080fd5b50508035926020909101359150565b6001600160a01b038116811461110257600080fd5b600080604083850312156121cf57600080fd5b82356121da816121a7565b946020939093013593505050565b600080604083850312156121fb57600080fd5b61220483611e55565b91506020830135801515811461221957600080fd5b809150509250929050565b6000806000806040858703121561223a57600080fd5b843567ffffffffffffffff8082111561225257600080fd5b61225e88838901611ea0565b9096509450602087013591508082111561227757600080fd5b5061228487828801611ea0565b95989497509550505050565b600080604083850312156122a357600080fd5b823591506020830135612219816121a7565b6000806000606084860312156122ca57600080fd5b8335925060208401359150604084013567ffffffffffffffff8111156122ef57600080fd5b6122fb86828701611fbe565b9150509250925092565b60006020828403121561231757600080fd5b5051919050565b60006020828403121561233057600080fd5b8151610c25816121a7565b8183823760009101908152919050565b600181811c9082168061235f57607f821691505b602082108103612398577f4e487b7100000000000000000000000000000000000000000000000000000000600052602260045260246000fd5b50919050565b601f8211156123e457600081815260208120601f850160051c810160208610156123c55750805b601f850160051c820191505b818110156114b7578281556001016123d1565b505050565b67ffffffffffffffff83111561240157612401611f8f565b6124158361240f835461234b565b8361239e565b6000601f84116001811461244957600085156124315750838201355b600019600387901b1c1916600186901b1783556124a3565b600083815260209020601f19861690835b8281101561247a578685013582556020948501946001909201910161245a565b50868210156124975760001960f88860031b161c19848701351681555b505060018560011b0183555b5050505050565b60208152816020820152818360408301376000818301604090810191909152601f909201601f19160101919050565b815167ffffffffffffffff8111156124f3576124f3611f8f565b61250781612501845461234b565b8461239e565b602080601f83116001811461253c57600084156125245750858301515b600019600386901b1c1916600185901b1785556114b7565b600085815260208120601f198616915b8281101561256b5788860151825594840194600190910190840161254c565b50858210156125895787850151600019600388901b60f8161c191681555b5050505050600190811b01905550565b805160208083015191908110156123985760001960209190910360031b1b16919050565b82815260406020820152600061135760408301846120f756fea2646970667358221220c3670f4993750cd9a5eb36ca8524a8f3f30b8a0002fd14726e985bb065d1a72064736f6c63430008100033e5010172002408011220a7448dcfc00e746c22e238de5c1e3b6fb97bae0949e47741b4e0ae8e929abd4f",
    "linkReferences": {}
  },
  "methodIdentifiers": {
    "DefaultContenthash()": "69be8bb0",
    "HELIX2()": "b782426e",
    "NAMES()": "05e84aa0",
    "addr(bytes32)": "3b3b57de",
    "addr2(bytes32,uint256)": "78237b03",
    "contenthash(bytes32)": "bc1c58d1",
    "pubkey(bytes32)": "c8690233",
    "setAddress(bytes32,address)": "ca446dd9",
    "setAddressCoin(bytes32,uint256,bytes)": "f5aed68f",
    "setContenthash(bytes32,bytes)": "304e6ade",
    "setDefaultContenthash(bytes)": "5d81d553",
    "setDefaultText(string,string)": "c9b69059",
    "setInterface(bytes4,bool)": "c0a43a7c",
    "setPubkey(bytes32,bytes32,bytes32)": "29cd62ea",
    "setText(bytes32,string,string)": "10f13a8c",
    "supportsInterface(bytes4)": "01ffc9a7",
    "text(bytes32,string)": "59d1d43c",
    "withdrawEther()": "7362377b",
    "withdrawToken(address,uint256)": "9e281a98"
  },
  "id": 10
}