{
  "abi": [
    {
      "inputs": [
        {
          "internalType": "address",
          "name": "_helix2",
          "type": "address"
        }
      ],
      "stateMutability": "nonpayable",
      "type": "constructor"
    },
    {
      "inputs": [
        {
          "internalType": "address",
          "name": "_dev",
          "type": "address"
        },
        {
          "internalType": "address",
          "name": "_you",
          "type": "address"
        }
      ],
      "name": "OnlyDev",
      "type": "error"
    },
    {
      "anonymous": false,
      "inputs": [
        {
          "indexed": true,
          "internalType": "bytes32",
          "name": "namehash",
          "type": "bytes32"
        },
        {
          "indexed": false,
          "internalType": "address",
          "name": "addr",
          "type": "address"
        }
      ],
      "name": "NewAddr",
      "type": "event"
    },
    {
      "anonymous": false,
      "inputs": [
        {
          "indexed": true,
          "internalType": "bytes32",
          "name": "namehash",
          "type": "bytes32"
        },
        {
          "indexed": false,
          "internalType": "uint256",
          "name": "coinType",
          "type": "uint256"
        },
        {
          "indexed": false,
          "internalType": "bytes",
          "name": "newAddress",
          "type": "bytes"
        }
      ],
      "name": "NewAddr2",
      "type": "event"
    },
    {
      "anonymous": false,
      "inputs": [
        {
          "indexed": true,
          "internalType": "bytes32",
          "name": "namehash",
          "type": "bytes32"
        },
        {
          "indexed": false,
          "internalType": "bytes",
          "name": "_contenthash",
          "type": "bytes"
        }
      ],
      "name": "NewContenthash",
      "type": "event"
    },
    {
      "anonymous": false,
      "inputs": [
        {
          "indexed": true,
          "internalType": "bytes32",
          "name": "namehash",
          "type": "bytes32"
        },
        {
          "indexed": false,
          "internalType": "bytes32",
          "name": "x",
          "type": "bytes32"
        },
        {
          "indexed": false,
          "internalType": "bytes32",
          "name": "y",
          "type": "bytes32"
        }
      ],
      "name": "NewPubkey",
      "type": "event"
    },
    {
      "anonymous": false,
      "inputs": [
        {
          "indexed": true,
          "internalType": "bytes32",
          "name": "namehash",
          "type": "bytes32"
        },
        {
          "indexed": true,
          "internalType": "string",
          "name": "key",
          "type": "string"
        },
        {
          "indexed": false,
          "internalType": "string",
          "name": "value",
          "type": "string"
        }
      ],
      "name": "NewTextRecord",
      "type": "event"
    },
    {
      "stateMutability": "payable",
      "type": "fallback"
    },
    {
      "inputs": [],
      "name": "DefaultContenthash",
      "outputs": [
        {
          "internalType": "bytes",
          "name": "",
          "type": "bytes"
        }
      ],
      "stateMutability": "view",
      "type": "function"
    },
    {
      "inputs": [],
      "name": "HELIX2",
      "outputs": [
        {
          "internalType": "contract iHELIX2",
          "name": "",
          "type": "address"
        }
      ],
      "stateMutability": "view",
      "type": "function"
    },
    {
      "inputs": [],
      "name": "NAMES",
      "outputs": [
        {
          "internalType": "contract iNAME",
          "name": "",
          "type": "address"
        }
      ],
      "stateMutability": "view",
      "type": "function"
    },
    {
      "inputs": [
        {
          "internalType": "bytes32",
          "name": "namehash",
          "type": "bytes32"
        }
      ],
      "name": "addr",
      "outputs": [
        {
          "internalType": "address payable",
          "name": "",
          "type": "address"
        }
      ],
      "stateMutability": "view",
      "type": "function"
    },
    {
      "inputs": [
        {
          "internalType": "bytes32",
          "name": "namehash",
          "type": "bytes32"
        },
        {
          "internalType": "uint256",
          "name": "coinType",
          "type": "uint256"
        }
      ],
      "name": "addr2",
      "outputs": [
        {
          "internalType": "address payable",
          "name": "",
          "type": "address"
        }
      ],
      "stateMutability": "view",
      "type": "function"
    },
    {
      "inputs": [
        {
          "internalType": "bytes32",
          "name": "namehash",
          "type": "bytes32"
        }
      ],
      "name": "contenthash",
      "outputs": [
        {
          "internalType": "bytes",
          "name": "_hash",
          "type": "bytes"
        }
      ],
      "stateMutability": "view",
      "type": "function"
    },
    {
      "inputs": [
        {
          "internalType": "bytes32",
          "name": "",
          "type": "bytes32"
        }
      ],
      "name": "pubkey",
      "outputs": [
        {
          "internalType": "bytes32",
          "name": "x",
          "type": "bytes32"
        },
        {
          "internalType": "bytes32",
          "name": "y",
          "type": "bytes32"
        }
      ],
      "stateMutability": "view",
      "type": "function"
    },
    {
      "inputs": [
        {
          "internalType": "bytes32",
          "name": "namehash",
          "type": "bytes32"
        },
        {
          "internalType": "address",
          "name": "_addr",
          "type": "address"
        }
      ],
      "name": "setAddress",
      "outputs": [],
      "stateMutability": "nonpayable",
      "type": "function"
    },
    {
      "inputs": [
        {
          "internalType": "bytes32",
          "name": "namehash",
          "type": "bytes32"
        },
        {
          "internalType": "uint256",
          "name": "coinType",
          "type": "uint256"
        },
        {
          "internalType": "bytes",
          "name": "_addr",
          "type": "bytes"
        }
      ],
      "name": "setAddressCoin",
      "outputs": [],
      "stateMutability": "nonpayable",
      "type": "function"
    },
    {
      "inputs": [
        {
          "internalType": "bytes32",
          "name": "namehash",
          "type": "bytes32"
        },
        {
          "internalType": "bytes",
          "name": "_hash",
          "type": "bytes"
        }
      ],
      "name": "setContenthash",
      "outputs": [],
      "stateMutability": "nonpayable",
      "type": "function"
    },
    {
      "inputs": [
        {
          "internalType": "bytes",
          "name": "_content",
          "type": "bytes"
        }
      ],
      "name": "setDefaultContenthash",
      "outputs": [],
      "stateMutability": "nonpayable",
      "type": "function"
    },
    {
      "inputs": [
        {
          "internalType": "string",
          "name": "key",
          "type": "string"
        },
        {
          "internalType": "string",
          "name": "value",
          "type": "string"
        }
      ],
      "name": "setDefaultText",
      "outputs": [],
      "stateMutability": "nonpayable",
      "type": "function"
    },
    {
      "inputs": [
        {
          "internalType": "bytes4",
          "name": "sig",
          "type": "bytes4"
        },
        {
          "internalType": "bool",
          "name": "value",
          "type": "bool"
        }
      ],
      "name": "setInterface",
      "outputs": [],
      "stateMutability": "nonpayable",
      "type": "function"
    },
    {
      "inputs": [
        {
          "internalType": "bytes32",
          "name": "namehash",
          "type": "bytes32"
        },
        {
          "internalType": "bytes32",
          "name": "x",
          "type": "bytes32"
        },
        {
          "internalType": "bytes32",
          "name": "y",
          "type": "bytes32"
        }
      ],
      "name": "setPubkey",
      "outputs": [],
      "stateMutability": "nonpayable",
      "type": "function"
    },
    {
      "inputs": [
        {
          "internalType": "bytes32",
          "name": "namehash",
          "type": "bytes32"
        },
        {
          "internalType": "string",
          "name": "key",
          "type": "string"
        },
        {
          "internalType": "string",
          "name": "value",
          "type": "string"
        }
      ],
      "name": "setText",
      "outputs": [],
      "stateMutability": "nonpayable",
      "type": "function"
    },
    {
      "inputs": [
        {
          "internalType": "bytes4",
          "name": "",
          "type": "bytes4"
        }
      ],
      "name": "supportsInterface",
      "outputs": [
        {
          "internalType": "bool",
          "name": "",
          "type": "bool"
        }
      ],
      "stateMutability": "view",
      "type": "function"
    },
    {
      "inputs": [
        {
          "internalType": "bytes32",
          "name": "namehash",
          "type": "bytes32"
        },
        {
          "internalType": "string",
          "name": "key",
          "type": "string"
        }
      ],
      "name": "text",
      "outputs": [
        {
          "internalType": "string",
          "name": "value",
          "type": "string"
        }
      ],
      "stateMutability": "view",
      "type": "function"
    },
    {
      "inputs": [],
      "name": "withdrawEther",
      "outputs": [],
      "stateMutability": "nonpayable",
      "type": "function"
    },
    {
      "stateMutability": "payable",
      "type": "receive"
    }
  ],
  "bytecode": {
    "object": "0x60806040523480156200001157600080fd5b50604051620027dd380380620027dd833981016040819052620000349162000190565b600080546001600160a01b0319166001600160a01b038316178155600260209081527f7a6ed3a1d03568ba34c4e721c07cc5fb10d48888f825e55b36c6ab346be415bc805460ff1990811660019081179092557f4c882bd28188efef4c64f112d0093aba99f4a04db72e2640342af87ab6ec817580548216831790557fe7d8388e96e266aad8ecb72206b6c9f49ec78ede7daf2641cf85e1ed4a65f08980548216831790557fe6ca55aedfc0b80b83920adc2dfc31bcc9683a415c93cb2abde430c1112797a48054821683179055631674750f60e21b9093527ffae26f5ae7a310f954482c36bb01bdf3029f43c23178d2e543a6e98064447be98054909316179091556040805160608101909152602a8082529091620027b3908301396000805260036020527f3617319a054d772f909f7c479a2cebe5066e836a939412e32403c99029b92eff9062000188908262000267565b505062000333565b600060208284031215620001a357600080fd5b81516001600160a01b0381168114620001bb57600080fd5b9392505050565b634e487b7160e01b600052604160045260246000fd5b600181811c90821680620001ed57607f821691505b6020821081036200020e57634e487b7160e01b600052602260045260246000fd5b50919050565b601f8211156200026257600081815260208120601f850160051c810160208610156200023d5750805b601f850160051c820191505b818110156200025e5782815560010162000249565b5050505b505050565b81516001600160401b03811115620002835762000283620001c2565b6200029b81620002948454620001d8565b8462000214565b602080601f831160018114620002d35760008415620002ba5750858301515b600019600386901b1c1916600185901b1785556200025e565b600085815260208120601f198616915b828110156200030457888601518255948401946001909101908401620002e3565b5085821015620003235787850151600019600388901b60f8161c191681555b5050505050600190811b01905550565b61247080620003436000396000f3fe60806040526004361061012d5760003560e01c80637362377b116100a5578063c0a43a7c11610074578063c9b6905911610059578063c9b690591461037b578063ca446dd91461039b578063f5aed68f146103bb57600080fd5b8063c0a43a7c14610312578063c86902331461033257600080fd5b80637362377b1461029d57806378237b03146102b2578063b782426e146102d2578063bc1c58d1146102f257600080fd5b8063304e6ade116100fc57806359d1d43c116100e157806359d1d43c1461023b5780635d81d5531461026857806369be8bb01461028857600080fd5b8063304e6ade146101fb5780633b3b57de1461021b57600080fd5b806301ffc9a71461013c57806305e84aa01461018157806310f13a8c146101b957806329cd62ea146101db57600080fd5b3661013757600080fd5b600080fd5b34801561014857600080fd5b5061016c610157366004611d11565b60026020526000908152604090205460ff1681565b60405190151581526020015b60405180910390f35b34801561018d57600080fd5b506001546101a1906001600160a01b031681565b6040516001600160a01b039091168152602001610178565b3480156101c557600080fd5b506101d96101d4366004611d75565b6103db565b005b3480156101e757600080fd5b506101d96101f6366004611def565b61061c565b34801561020757600080fd5b506101d9610216366004611ed7565b61082a565b34801561022757600080fd5b506101a1610236366004611f1e565b610a21565b34801561024757600080fd5b5061025b610256366004611f37565b610c21565b6040516101789190611fc9565b34801561027457600080fd5b506101d9610283366004611fdc565b610d9c565b34801561029457600080fd5b5061025b610f1a565b3480156102a957600080fd5b506101d9610fd6565b3480156102be57600080fd5b506101a16102cd366004612011565b6110f1565b3480156102de57600080fd5b506000546101a1906001600160a01b031681565b3480156102fe57600080fd5b5061025b61030d366004611f1e565b61134b565b34801561031e57600080fd5b506101d961032d366004612033565b611564565b34801561033e57600080fd5b5061036661034d366004611f1e565b6006602052600090815260409020805460019091015482565b60408051928352602083019190915201610178565b34801561038757600080fd5b506101d961039636600461206f565b611716565b3480156103a757600080fd5b506101d96103b63660046120f0565b6118aa565b3480156103c757600080fd5b506101d96103d6366004612115565b611aea565b6001546040516369762fe560e11b81526004810187905286916001600160a01b03169063d2ec5fca90602401602060405180830381865afa158015610424573d6000803e3d6000fd5b505050506040513d601f19601f820116820180604052508101906104489190612165565b421061049b5760405162461bcd60e51b815260206004820152600c60248201527f4e414d455f45585049524544000000000000000000000000000000000000000060448201526064015b60405180910390fd5b6001546040517f02571be3000000000000000000000000000000000000000000000000000000008152600481018390526001600160a01b03909116906302571be390602401602060405180830381865afa1580156104fd573d6000803e3d6000fd5b505050506040513d601f19601f82011682018060405250810190610521919061217e565b6001600160a01b0316336001600160a01b0316146105815760405162461bcd60e51b815260206004820152600e60248201527f4e4f545f415554484f52495345440000000000000000000000000000000000006044820152606401610492565b82826004600089815260200190815260200160002087876040516105a692919061219b565b908152602001604051809103902091826105c192919061224d565b5084846040516105d292919061219b565b6040518091039020867f67183f1114fa702d378afb1540cad2f1fb0ce08eb7b86b97303e5db7b827f733858560405161060c92919061230e565b60405180910390a3505050505050565b6001546040516369762fe560e11b81526004810185905284916001600160a01b03169063d2ec5fca90602401602060405180830381865afa158015610665573d6000803e3d6000fd5b505050506040513d601f19601f820116820180604052508101906106899190612165565b42106106d75760405162461bcd60e51b815260206004820152600c60248201527f4e414d455f4558504952454400000000000000000000000000000000000000006044820152606401610492565b6001546040517f02571be3000000000000000000000000000000000000000000000000000000008152600481018390526001600160a01b03909116906302571be390602401602060405180830381865afa158015610739573d6000803e3d6000fd5b505050506040513d601f19601f8201168201806040525081019061075d919061217e565b6001600160a01b0316336001600160a01b0316146107bd5760405162461bcd60e51b815260206004820152600e60248201527f4e4f545f415554484f52495345440000000000000000000000000000000000006044820152606401610492565b60408051808201825284815260208082018581526000888152600683528490209251835551600190920191909155815185815290810184905285917f70aea62941eaea7f42402dd58e32c3147d00156f9fc574bee920fbd14c6829d291015b60405180910390a250505050565b6001546040516369762fe560e11b81526004810184905283916001600160a01b03169063d2ec5fca90602401602060405180830381865afa158015610873573d6000803e3d6000fd5b505050506040513d601f19601f820116820180604052508101906108979190612165565b42106108e55760405162461bcd60e51b815260206004820152600c60248201527f4e414d455f4558504952454400000000000000000000000000000000000000006044820152606401610492565b6001546040517f02571be3000000000000000000000000000000000000000000000000000000008152600481018390526001600160a01b03909116906302571be390602401602060405180830381865afa158015610947573d6000803e3d6000fd5b505050506040513d601f19601f8201168201806040525081019061096b919061217e565b6001600160a01b0316336001600160a01b0316146109cb5760405162461bcd60e51b815260206004820152600e60248201527f4e4f545f415554484f52495345440000000000000000000000000000000000006044820152606401610492565b60008381526003602052604090206109e3838261233d565b50827ffd6daaf738297ede78acf9eb128bcc41af0941fe83f57d3c3dbf9860acefb71d83604051610a149190611fc9565b60405180910390a2505050565b6001546040516369762fe560e11b8152600481018390526000916001600160a01b03169063d2ec5fca90602401602060405180830381865afa158015610a6b573d6000803e3d6000fd5b505050506040513d601f19601f82011682018060405250810190610a8f9190612165565b4210610add5760405162461bcd60e51b815260206004820152600c60248201527f4e414d455f4558504952454400000000000000000000000000000000000000006044820152606401610492565b6000828152600560209081526040808320603c845290915281208054610b02906121ab565b80601f0160208091040260200160405190810160405280929190818152602001828054610b2e906121ab565b8015610b7b5780601f10610b5057610100808354040283529160200191610b7b565b820191906000526020600020905b815481529060010190602001808311610b5e57829003601f168201915b505050505090508051600003610c18576001546040517f02571be3000000000000000000000000000000000000000000000000000000008152600481018590526001600160a01b03909116906302571be390602401602060405180830381865afa158015610bed573d6000803e3d6000fd5b505050506040513d601f19601f82011682018060405250810190610c11919061217e565b9392505050565b610c11816123fd565b6001546040516369762fe560e11b8152600481018590526060916001600160a01b03169063d2ec5fca90602401602060405180830381865afa158015610c6b573d6000803e3d6000fd5b505050506040513d601f19601f82011682018060405250810190610c8f9190612165565b4210610cdd5760405162461bcd60e51b815260206004820152600c60248201527f4e414d455f4558504952454400000000000000000000000000000000000000006044820152606401610492565b600084815260046020526040908190209051610cfc908590859061219b565b90815260200160405180910390208054610d15906121ab565b80601f0160208091040260200160405190810160405280929190818152602001828054610d41906121ab565b8015610d8e5780601f10610d6357610100808354040283529160200191610d8e565b820191906000526020600020905b815481529060010190602001808311610d7157829003601f168201915b505050505090509392505050565b60008054906101000a90046001600160a01b03166001600160a01b031663f079914f6040518163ffffffff1660e01b8152600401602060405180830381865afa158015610ded573d6000803e3d6000fd5b505050506040513d601f19601f82011682018060405250810190610e11919061217e565b6001600160a01b0316336001600160a01b031614610ee25760008054906101000a90046001600160a01b03166001600160a01b031663f079914f6040518163ffffffff1660e01b8152600401602060405180830381865afa158015610e7a573d6000803e3d6000fd5b505050506040513d601f19601f82011682018060405250810190610e9e919061217e565b6040517f8ea458f60000000000000000000000000000000000000000000000000000000081526001600160a01b039091166004820152336024820152604401610492565b6000805260036020527f3617319a054d772f909f7c479a2cebe5066e836a939412e32403c99029b92eff610f16828261233d565b5050565b6000805260036020527f3617319a054d772f909f7c479a2cebe5066e836a939412e32403c99029b92eff805460609190610f53906121ab565b80601f0160208091040260200160405190810160405280929190818152602001828054610f7f906121ab565b8015610fcc5780601f10610fa157610100808354040283529160200191610fcc565b820191906000526020600020905b815481529060010190602001808311610faf57829003601f168201915b5050505050905090565b60008060009054906101000a90046001600160a01b03166001600160a01b031663f079914f6040518163ffffffff1660e01b8152600401602060405180830381865afa15801561102a573d6000803e3d6000fd5b505050506040513d601f19601f8201168201806040525081019061104e919061217e565b6001600160a01b03164760405160006040518083038185875af1925050503d8060008114611098576040519150601f19603f3d011682016040523d82523d6000602084013e61109d565b606091505b50509050806110ee5760405162461bcd60e51b815260206004820152601360248201527f4554485f5452414e534645525f4641494c4544000000000000000000000000006044820152606401610492565b50565b6001546040516369762fe560e11b8152600481018490526000916001600160a01b03169063d2ec5fca90602401602060405180830381865afa15801561113b573d6000803e3d6000fd5b505050506040513d601f19601f8201168201806040525081019061115f9190612165565b42106111ad5760405162461bcd60e51b815260206004820152600c60248201527f4e414d455f4558504952454400000000000000000000000000000000000000006044820152606401610492565b6000838152600560209081526040808320858452909152812080546111d1906121ab565b80601f01602080910402602001604051908101604052809291908181526020018280546111fd906121ab565b801561124a5780601f1061121f5761010080835404028352916020019161124a565b820191906000526020600020905b81548152906001019060200180831161122d57829003601f168201915b5050505050905080516000148015611262575082603c145b1561133a576001546040517f02571be3000000000000000000000000000000000000000000000000000000008152600481018690526001600160a01b03909116906302571be390602401602060405180830381865afa1580156112c9573d6000803e3d6000fd5b505050506040513d601f19601f820116820180604052508101906112ed919061217e565b604051602001611328919060609190911b7fffffffffffffffffffffffffffffffffffffffff00000000000000000000000016815260140190565b60405160208183030381529060405290505b611343816123fd565b949350505050565b6001546040516369762fe560e11b8152600481018390526060916001600160a01b03169063d2ec5fca90602401602060405180830381865afa158015611395573d6000803e3d6000fd5b505050506040513d601f19601f820116820180604052508101906113b99190612165565b42106114075760405162461bcd60e51b815260206004820152600c60248201527f4e414d455f4558504952454400000000000000000000000000000000000000006044820152606401610492565b60008281526003602052604090208054611420906121ab565b80601f016020809104026020016040519081016040528092919081815260200182805461144c906121ab565b80156114995780601f1061146e57610100808354040283529160200191611499565b820191906000526020600020905b81548152906001019060200180831161147c57829003601f168201915b50505050509050805160000361155f576000805260036020527f3617319a054d772f909f7c479a2cebe5066e836a939412e32403c99029b92eff80546114de906121ab565b80601f016020809104026020016040519081016040528092919081815260200182805461150a906121ab565b80156115575780601f1061152c57610100808354040283529160200191611557565b820191906000526020600020905b81548152906001019060200180831161153a57829003601f168201915b505050505090505b919050565b60008054906101000a90046001600160a01b03166001600160a01b031663f079914f6040518163ffffffff1660e01b8152600401602060405180830381865afa1580156115b5573d6000803e3d6000fd5b505050506040513d601f19601f820116820180604052508101906115d9919061217e565b6001600160a01b0316336001600160a01b0316146116425760008054906101000a90046001600160a01b03166001600160a01b031663f079914f6040518163ffffffff1660e01b8152600401602060405180830381865afa158015610e7a573d6000803e3d6000fd5b7fffffffff0000000000000000000000000000000000000000000000000000000080831690036116b45760405162461bcd60e51b815260206004820152601a60248201527f494e56414c49445f494e544552464143455f53454c4543544f520000000000006044820152606401610492565b7fffffffff0000000000000000000000000000000000000000000000000000000091909116600090815260026020526040902080547fffffffffffffffffffffffffffffffffffffffffffffffffffffffffffffff0016911515919091179055565b60008054906101000a90046001600160a01b03166001600160a01b031663f079914f6040518163ffffffff1660e01b8152600401602060405180830381865afa158015611767573d6000803e3d6000fd5b505050506040513d601f19601f8201168201806040525081019061178b919061217e565b6001600160a01b0316336001600160a01b0316146117f45760008054906101000a90046001600160a01b03166001600160a01b031663f079914f6040518163ffffffff1660e01b8152600401602060405180830381865afa158015610e7a573d6000803e3d6000fd5b600080526004602052604051829082907f17ef568e3e12ab5b9c7254a8d58478811de00f9e6eb34345acd53bf8fd09d3ec90611833908890889061219b565b9081526020016040518091039020918261184e92919061224d565b50838360405161185f92919061219b565b60405180910390206000801b7f67183f1114fa702d378afb1540cad2f1fb0ce08eb7b86b97303e5db7b827f733848460405161189c92919061230e565b60405180910390a350505050565b6001546040516369762fe560e11b81526004810184905283916001600160a01b03169063d2ec5fca90602401602060405180830381865afa1580156118f3573d6000803e3d6000fd5b505050506040513d601f19601f820116820180604052508101906119179190612165565b42106119655760405162461bcd60e51b815260206004820152600c60248201527f4e414d455f4558504952454400000000000000000000000000000000000000006044820152606401610492565b6001546040517f02571be3000000000000000000000000000000000000000000000000000000008152600481018390526001600160a01b03909116906302571be390602401602060405180830381865afa1580156119c7573d6000803e3d6000fd5b505050506040513d601f19601f820116820180604052508101906119eb919061217e565b6001600160a01b0316336001600160a01b031614611a4b5760405162461bcd60e51b815260206004820152600e60248201527f4e4f545f415554484f52495345440000000000000000000000000000000000006044820152606401610492565b6040517fffffffffffffffffffffffffffffffffffffffff000000000000000000000000606084901b16602082015260340160408051601f19818403018152918152600085815260056020908152828220603c835290522090611aae908261233d565b506040516001600160a01b038316815283907f1ac9282df2fbe826c9af5c86adfeb678816478c19262558e4e71e399fd4a16e990602001610a14565b6001546040516369762fe560e11b81526004810185905284916001600160a01b03169063d2ec5fca90602401602060405180830381865afa158015611b33573d6000803e3d6000fd5b505050506040513d601f19601f82011682018060405250810190611b579190612165565b4210611ba55760405162461bcd60e51b815260206004820152600c60248201527f4e414d455f4558504952454400000000000000000000000000000000000000006044820152606401610492565b6001546040517f02571be3000000000000000000000000000000000000000000000000000000008152600481018390526001600160a01b03909116906302571be390602401602060405180830381865afa158015611c07573d6000803e3d6000fd5b505050506040513d601f19601f82011682018060405250810190611c2b919061217e565b6001600160a01b0316336001600160a01b031614611c8b5760405162461bcd60e51b815260206004820152600e60248201527f4e4f545f415554484f52495345440000000000000000000000000000000000006044820152606401610492565b60008481526005602090815260408083208684529091529020611cae838261233d565b50837f91f951276447c3816ca159edb0a9492e803b9355af1feadf2fa4371af2f070af848460405161081c929190612421565b80357fffffffff000000000000000000000000000000000000000000000000000000008116811461155f57600080fd5b600060208284031215611d2357600080fd5b610c1182611ce1565b60008083601f840112611d3e57600080fd5b50813567ffffffffffffffff811115611d5657600080fd5b602083019150836020828501011115611d6e57600080fd5b9250929050565b600080600080600060608688031215611d8d57600080fd5b85359450602086013567ffffffffffffffff80821115611dac57600080fd5b611db889838a01611d2c565b90965094506040880135915080821115611dd157600080fd5b50611dde88828901611d2c565b969995985093965092949392505050565b600080600060608486031215611e0457600080fd5b505081359360208301359350604090920135919050565b7f4e487b7100000000000000000000000000000000000000000000000000000000600052604160045260246000fd5b600082601f830112611e5b57600080fd5b813567ffffffffffffffff80821115611e7657611e76611e1b565b604051601f8301601f19908116603f01168101908282118183101715611e9e57611e9e611e1b565b81604052838152866020858801011115611eb757600080fd5b836020870160208301376000602085830101528094505050505092915050565b60008060408385031215611eea57600080fd5b82359150602083013567ffffffffffffffff811115611f0857600080fd5b611f1485828601611e4a565b9150509250929050565b600060208284031215611f3057600080fd5b5035919050565b600080600060408486031215611f4c57600080fd5b83359250602084013567ffffffffffffffff811115611f6a57600080fd5b611f7686828701611d2c565b9497909650939450505050565b6000815180845260005b81811015611fa957602081850181015186830182015201611f8d565b506000602082860101526020601f19601f83011685010191505092915050565b602081526000610c116020830184611f83565b600060208284031215611fee57600080fd5b813567ffffffffffffffff81111561200557600080fd5b61134384828501611e4a565b6000806040838503121561202457600080fd5b50508035926020909101359150565b6000806040838503121561204657600080fd5b61204f83611ce1565b91506020830135801515811461206457600080fd5b809150509250929050565b6000806000806040858703121561208557600080fd5b843567ffffffffffffffff8082111561209d57600080fd5b6120a988838901611d2c565b909650945060208701359150808211156120c257600080fd5b506120cf87828801611d2c565b95989497509550505050565b6001600160a01b03811681146110ee57600080fd5b6000806040838503121561210357600080fd5b823591506020830135612064816120db565b60008060006060848603121561212a57600080fd5b8335925060208401359150604084013567ffffffffffffffff81111561214f57600080fd5b61215b86828701611e4a565b9150509250925092565b60006020828403121561217757600080fd5b5051919050565b60006020828403121561219057600080fd5b8151610c11816120db565b8183823760009101908152919050565b600181811c908216806121bf57607f821691505b6020821081036121f8577f4e487b7100000000000000000000000000000000000000000000000000000000600052602260045260246000fd5b50919050565b601f82111561224857600081815260208120601f850160051c810160208610156122255750805b601f850160051c820191505b8181101561224457828155600101612231565b5050505b505050565b67ffffffffffffffff83111561226557612265611e1b565b6122798361227383546121ab565b836121fe565b6000601f8411600181146122ad57600085156122955750838201355b600019600387901b1c1916600186901b178355612307565b600083815260209020601f19861690835b828110156122de57868501358255602094850194600190920191016122be565b50868210156122fb5760001960f88860031b161c19848701351681555b505060018560011b0183555b5050505050565b60208152816020820152818360408301376000818301604090810191909152601f909201601f19160101919050565b815167ffffffffffffffff81111561235757612357611e1b565b61236b8161236584546121ab565b846121fe565b602080601f8311600181146123a057600084156123885750858301515b600019600386901b1c1916600185901b178555612244565b600085815260208120601f198616915b828110156123cf578886015182559484019460019091019084016123b0565b50858210156123ed5787850151600019600388901b60f8161c191681555b5050505050600190811b01905550565b805160208083015191908110156121f85760001960209190910360031b1b16919050565b8281526040602082015260006113436040830184611f8356fea2646970667358221220bf643fe902381fa723266d374e33dbd2dd4e5eeda107cfd8d51b0d173d9b4cdb64736f6c63430008100033e5010172002408011220a7448dcfc00e746c22e238de5c1e3b6fb97bae0949e47741b4e0ae8e929abd4f",
    "linkReferences": {}
  },
  "methodIdentifiers": {
    "DefaultContenthash()": "69be8bb0",
    "HELIX2()": "b782426e",
    "NAMES()": "05e84aa0",
    "addr(bytes32)": "3b3b57de",
    "addr2(bytes32,uint256)": "78237b03",
    "contenthash(bytes32)": "bc1c58d1",
    "pubkey(bytes32)": "c8690233",
    "setAddress(bytes32,address)": "ca446dd9",
    "setAddressCoin(bytes32,uint256,bytes)": "f5aed68f",
    "setContenthash(bytes32,bytes)": "304e6ade",
    "setDefaultContenthash(bytes)": "5d81d553",
    "setDefaultText(string,string)": "c9b69059",
    "setInterface(bytes4,bool)": "c0a43a7c",
    "setPubkey(bytes32,bytes32,bytes32)": "29cd62ea",
    "setText(bytes32,string,string)": "10f13a8c",
    "supportsInterface(bytes4)": "01ffc9a7",
    "text(bytes32,string)": "59d1d43c",
    "withdrawEther()": "7362377b"
  },
  "id": 30
}