{
  "abi": [
    {
      "inputs": [
        {
          "internalType": "address",
          "name": "_helix2",
          "type": "address"
        }
      ],
      "stateMutability": "nonpayable",
      "type": "constructor"
    },
    {
      "inputs": [
        {
          "internalType": "address",
          "name": "_dev",
          "type": "address"
        },
        {
          "internalType": "address",
          "name": "_you",
          "type": "address"
        }
      ],
      "name": "OnlyDev",
      "type": "error"
    },
    {
      "anonymous": false,
      "inputs": [
        {
          "indexed": true,
          "internalType": "bytes32",
          "name": "namehash",
          "type": "bytes32"
        },
        {
          "indexed": false,
          "internalType": "address",
          "name": "addr",
          "type": "address"
        }
      ],
      "name": "NewAddr",
      "type": "event"
    },
    {
      "anonymous": false,
      "inputs": [
        {
          "indexed": true,
          "internalType": "bytes32",
          "name": "namehash",
          "type": "bytes32"
        },
        {
          "indexed": false,
          "internalType": "uint256",
          "name": "coinType",
          "type": "uint256"
        },
        {
          "indexed": false,
          "internalType": "bytes",
          "name": "newAddress",
          "type": "bytes"
        }
      ],
      "name": "NewAddr2",
      "type": "event"
    },
    {
      "anonymous": false,
      "inputs": [
        {
          "indexed": true,
          "internalType": "bytes32",
          "name": "namehash",
          "type": "bytes32"
        },
        {
          "indexed": false,
          "internalType": "bytes",
          "name": "_contenthash",
          "type": "bytes"
        }
      ],
      "name": "NewContenthash",
      "type": "event"
    },
    {
      "anonymous": false,
      "inputs": [
        {
          "indexed": true,
          "internalType": "bytes32",
          "name": "namehash",
          "type": "bytes32"
        },
        {
          "indexed": false,
          "internalType": "bytes32",
          "name": "x",
          "type": "bytes32"
        },
        {
          "indexed": false,
          "internalType": "bytes32",
          "name": "y",
          "type": "bytes32"
        }
      ],
      "name": "NewPubkey",
      "type": "event"
    },
    {
      "anonymous": false,
      "inputs": [
        {
          "indexed": true,
          "internalType": "bytes32",
          "name": "namehash",
          "type": "bytes32"
        },
        {
          "indexed": true,
          "internalType": "string",
          "name": "key",
          "type": "string"
        },
        {
          "indexed": false,
          "internalType": "string",
          "name": "value",
          "type": "string"
        }
      ],
      "name": "NewTextRecord",
      "type": "event"
    },
    {
      "stateMutability": "payable",
      "type": "fallback"
    },
    {
      "inputs": [],
      "name": "DefaultContenthash",
      "outputs": [
        {
          "internalType": "bytes",
          "name": "",
          "type": "bytes"
        }
      ],
      "stateMutability": "view",
      "type": "function"
    },
    {
      "inputs": [],
      "name": "HELIX2",
      "outputs": [
        {
          "internalType": "contract iHELIX2",
          "name": "",
          "type": "address"
        }
      ],
      "stateMutability": "view",
      "type": "function"
    },
    {
      "inputs": [],
      "name": "NAMES",
      "outputs": [
        {
          "internalType": "contract iNAME",
          "name": "",
          "type": "address"
        }
      ],
      "stateMutability": "view",
      "type": "function"
    },
    {
      "inputs": [
        {
          "internalType": "bytes32",
          "name": "namehash",
          "type": "bytes32"
        }
      ],
      "name": "addr",
      "outputs": [
        {
          "internalType": "address payable",
          "name": "",
          "type": "address"
        }
      ],
      "stateMutability": "view",
      "type": "function"
    },
    {
      "inputs": [
        {
          "internalType": "bytes32",
          "name": "namehash",
          "type": "bytes32"
        },
        {
          "internalType": "uint256",
          "name": "coinType",
          "type": "uint256"
        }
      ],
      "name": "addr2",
      "outputs": [
        {
          "internalType": "address payable",
          "name": "",
          "type": "address"
        }
      ],
      "stateMutability": "view",
      "type": "function"
    },
    {
      "inputs": [
        {
          "internalType": "bytes32",
          "name": "namehash",
          "type": "bytes32"
        }
      ],
      "name": "contenthash",
      "outputs": [
        {
          "internalType": "bytes",
          "name": "_hash",
          "type": "bytes"
        }
      ],
      "stateMutability": "view",
      "type": "function"
    },
    {
      "inputs": [
        {
          "internalType": "bytes32",
          "name": "",
          "type": "bytes32"
        }
      ],
      "name": "pubkey",
      "outputs": [
        {
          "internalType": "bytes32",
          "name": "x",
          "type": "bytes32"
        },
        {
          "internalType": "bytes32",
          "name": "y",
          "type": "bytes32"
        }
      ],
      "stateMutability": "view",
      "type": "function"
    },
    {
      "inputs": [
        {
          "internalType": "bytes32",
          "name": "namehash",
          "type": "bytes32"
        },
        {
          "internalType": "address",
          "name": "_addr",
          "type": "address"
        }
      ],
      "name": "setAddress",
      "outputs": [],
      "stateMutability": "nonpayable",
      "type": "function"
    },
    {
      "inputs": [
        {
          "internalType": "bytes32",
          "name": "namehash",
          "type": "bytes32"
        },
        {
          "internalType": "uint256",
          "name": "coinType",
          "type": "uint256"
        },
        {
          "internalType": "bytes",
          "name": "_addr",
          "type": "bytes"
        }
      ],
      "name": "setAddressCoin",
      "outputs": [],
      "stateMutability": "nonpayable",
      "type": "function"
    },
    {
      "inputs": [
        {
          "internalType": "bytes32",
          "name": "namehash",
          "type": "bytes32"
        },
        {
          "internalType": "bytes",
          "name": "_hash",
          "type": "bytes"
        }
      ],
      "name": "setContenthash",
      "outputs": [],
      "stateMutability": "nonpayable",
      "type": "function"
    },
    {
      "inputs": [
        {
          "internalType": "bytes",
          "name": "_content",
          "type": "bytes"
        }
      ],
      "name": "setDefaultContenthash",
      "outputs": [],
      "stateMutability": "nonpayable",
      "type": "function"
    },
    {
      "inputs": [
        {
          "internalType": "string",
          "name": "key",
          "type": "string"
        },
        {
          "internalType": "string",
          "name": "value",
          "type": "string"
        }
      ],
      "name": "setDefaultText",
      "outputs": [],
      "stateMutability": "nonpayable",
      "type": "function"
    },
    {
      "inputs": [
        {
          "internalType": "bytes4",
          "name": "sig",
          "type": "bytes4"
        },
        {
          "internalType": "bool",
          "name": "value",
          "type": "bool"
        }
      ],
      "name": "setInterface",
      "outputs": [],
      "stateMutability": "payable",
      "type": "function"
    },
    {
      "inputs": [
        {
          "internalType": "bytes32",
          "name": "namehash",
          "type": "bytes32"
        },
        {
          "internalType": "bytes32",
          "name": "x",
          "type": "bytes32"
        },
        {
          "internalType": "bytes32",
          "name": "y",
          "type": "bytes32"
        }
      ],
      "name": "setPubkey",
      "outputs": [],
      "stateMutability": "nonpayable",
      "type": "function"
    },
    {
      "inputs": [
        {
          "internalType": "bytes32",
          "name": "namehash",
          "type": "bytes32"
        },
        {
          "internalType": "string",
          "name": "key",
          "type": "string"
        },
        {
          "internalType": "string",
          "name": "value",
          "type": "string"
        }
      ],
      "name": "setText",
      "outputs": [],
      "stateMutability": "nonpayable",
      "type": "function"
    },
    {
      "inputs": [
        {
          "internalType": "bytes4",
          "name": "",
          "type": "bytes4"
        }
      ],
      "name": "supportsInterface",
      "outputs": [
        {
          "internalType": "bool",
          "name": "",
          "type": "bool"
        }
      ],
      "stateMutability": "view",
      "type": "function"
    },
    {
      "inputs": [
        {
          "internalType": "bytes32",
          "name": "namehash",
          "type": "bytes32"
        },
        {
          "internalType": "string",
          "name": "key",
          "type": "string"
        }
      ],
      "name": "text",
      "outputs": [
        {
          "internalType": "string",
          "name": "value",
          "type": "string"
        }
      ],
      "stateMutability": "view",
      "type": "function"
    },
    {
      "inputs": [],
      "name": "withdrawEther",
      "outputs": [],
      "stateMutability": "payable",
      "type": "function"
    },
    {
      "stateMutability": "payable",
      "type": "receive"
    }
  ],
  "bytecode": {
    "object": "0x60806040523480156200001157600080fd5b50604051620027c3380380620027c3833981016040819052620000349162000190565b600080546001600160a01b0319166001600160a01b038316178155600260209081527f7a6ed3a1d03568ba34c4e721c07cc5fb10d48888f825e55b36c6ab346be415bc805460ff1990811660019081179092557f4c882bd28188efef4c64f112d0093aba99f4a04db72e2640342af87ab6ec817580548216831790557fe7d8388e96e266aad8ecb72206b6c9f49ec78ede7daf2641cf85e1ed4a65f08980548216831790557fe6ca55aedfc0b80b83920adc2dfc31bcc9683a415c93cb2abde430c1112797a48054821683179055631674750f60e21b9093527ffae26f5ae7a310f954482c36bb01bdf3029f43c23178d2e543a6e98064447be98054909316179091556040805160608101909152602a808252909162002799908301396000805260036020527f3617319a054d772f909f7c479a2cebe5066e836a939412e32403c99029b92eff9062000188908262000267565b505062000333565b600060208284031215620001a357600080fd5b81516001600160a01b0381168114620001bb57600080fd5b9392505050565b634e487b7160e01b600052604160045260246000fd5b600181811c90821680620001ed57607f821691505b6020821081036200020e57634e487b7160e01b600052602260045260246000fd5b50919050565b601f8211156200026257600081815260208120601f850160051c810160208610156200023d5750805b601f850160051c820191505b818110156200025e5782815560010162000249565b5050505b505050565b81516001600160401b03811115620002835762000283620001c2565b6200029b81620002948454620001d8565b8462000214565b602080601f831160018114620002d35760008415620002ba5750858301515b600019600386901b1c1916600185901b1785556200025e565b600085815260208120601f198616915b828110156200030457888601518255948401946001909101908401620002e3565b5085821015620003235787850151600019600388901b60f8161c191681555b5050505050600190811b01905550565b61245680620003436000396000f3fe60806040526004361061012d5760003560e01c80637362377b116100a5578063c0a43a7c11610074578063c9b6905911610059578063c9b6905914610361578063ca446dd914610381578063f5aed68f146103a157600080fd5b8063c0a43a7c14610305578063c86902331461031857600080fd5b80637362377b1461029d57806378237b03146102a5578063b782426e146102c5578063bc1c58d1146102e557600080fd5b8063304e6ade116100fc57806359d1d43c116100e157806359d1d43c1461023b5780635d81d5531461026857806369be8bb01461028857600080fd5b8063304e6ade146101fb5780633b3b57de1461021b57600080fd5b806301ffc9a71461013c57806305e84aa01461018157806310f13a8c146101b957806329cd62ea146101db57600080fd5b3661013757600080fd5b600080fd5b34801561014857600080fd5b5061016c610157366004611cf7565b60026020526000908152604090205460ff1681565b60405190151581526020015b60405180910390f35b34801561018d57600080fd5b506001546101a1906001600160a01b031681565b6040516001600160a01b039091168152602001610178565b3480156101c557600080fd5b506101d96101d4366004611d5b565b6103c1565b005b3480156101e757600080fd5b506101d96101f6366004611dd5565b610602565b34801561020757600080fd5b506101d9610216366004611ebd565b610810565b34801561022757600080fd5b506101a1610236366004611f04565b610a07565b34801561024757600080fd5b5061025b610256366004611f1d565b610c07565b6040516101789190611faf565b34801561027457600080fd5b506101d9610283366004611fc2565b610d82565b34801561029457600080fd5b5061025b610f00565b6101d9610fbc565b3480156102b157600080fd5b506101a16102c0366004611ff7565b6110d7565b3480156102d157600080fd5b506000546101a1906001600160a01b031681565b3480156102f157600080fd5b5061025b610300366004611f04565b611331565b6101d9610313366004612019565b61154a565b34801561032457600080fd5b5061034c610333366004611f04565b6006602052600090815260409020805460019091015482565b60408051928352602083019190915201610178565b34801561036d57600080fd5b506101d961037c366004612055565b6116fc565b34801561038d57600080fd5b506101d961039c3660046120d6565b611890565b3480156103ad57600080fd5b506101d96103bc3660046120fb565b611ad0565b6001546040516369762fe560e11b81526004810187905286916001600160a01b03169063d2ec5fca90602401602060405180830381865afa15801561040a573d6000803e3d6000fd5b505050506040513d601f19601f8201168201806040525081019061042e919061214b565b42106104815760405162461bcd60e51b815260206004820152600c60248201527f4e414d455f45585049524544000000000000000000000000000000000000000060448201526064015b60405180910390fd5b6001546040517f02571be3000000000000000000000000000000000000000000000000000000008152600481018390526001600160a01b03909116906302571be390602401602060405180830381865afa1580156104e3573d6000803e3d6000fd5b505050506040513d601f19601f820116820180604052508101906105079190612164565b6001600160a01b0316336001600160a01b0316146105675760405162461bcd60e51b815260206004820152600e60248201527f4e4f545f415554484f52495345440000000000000000000000000000000000006044820152606401610478565b828260046000898152602001908152602001600020878760405161058c929190612181565b908152602001604051809103902091826105a7929190612233565b5084846040516105b8929190612181565b6040518091039020867f67183f1114fa702d378afb1540cad2f1fb0ce08eb7b86b97303e5db7b827f73385856040516105f29291906122f4565b60405180910390a3505050505050565b6001546040516369762fe560e11b81526004810185905284916001600160a01b03169063d2ec5fca90602401602060405180830381865afa15801561064b573d6000803e3d6000fd5b505050506040513d601f19601f8201168201806040525081019061066f919061214b565b42106106bd5760405162461bcd60e51b815260206004820152600c60248201527f4e414d455f4558504952454400000000000000000000000000000000000000006044820152606401610478565b6001546040517f02571be3000000000000000000000000000000000000000000000000000000008152600481018390526001600160a01b03909116906302571be390602401602060405180830381865afa15801561071f573d6000803e3d6000fd5b505050506040513d601f19601f820116820180604052508101906107439190612164565b6001600160a01b0316336001600160a01b0316146107a35760405162461bcd60e51b815260206004820152600e60248201527f4e4f545f415554484f52495345440000000000000000000000000000000000006044820152606401610478565b60408051808201825284815260208082018581526000888152600683528490209251835551600190920191909155815185815290810184905285917f70aea62941eaea7f42402dd58e32c3147d00156f9fc574bee920fbd14c6829d291015b60405180910390a250505050565b6001546040516369762fe560e11b81526004810184905283916001600160a01b03169063d2ec5fca90602401602060405180830381865afa158015610859573d6000803e3d6000fd5b505050506040513d601f19601f8201168201806040525081019061087d919061214b565b42106108cb5760405162461bcd60e51b815260206004820152600c60248201527f4e414d455f4558504952454400000000000000000000000000000000000000006044820152606401610478565b6001546040517f02571be3000000000000000000000000000000000000000000000000000000008152600481018390526001600160a01b03909116906302571be390602401602060405180830381865afa15801561092d573d6000803e3d6000fd5b505050506040513d601f19601f820116820180604052508101906109519190612164565b6001600160a01b0316336001600160a01b0316146109b15760405162461bcd60e51b815260206004820152600e60248201527f4e4f545f415554484f52495345440000000000000000000000000000000000006044820152606401610478565b60008381526003602052604090206109c98382612323565b50827ffd6daaf738297ede78acf9eb128bcc41af0941fe83f57d3c3dbf9860acefb71d836040516109fa9190611faf565b60405180910390a2505050565b6001546040516369762fe560e11b8152600481018390526000916001600160a01b03169063d2ec5fca90602401602060405180830381865afa158015610a51573d6000803e3d6000fd5b505050506040513d601f19601f82011682018060405250810190610a75919061214b565b4210610ac35760405162461bcd60e51b815260206004820152600c60248201527f4e414d455f4558504952454400000000000000000000000000000000000000006044820152606401610478565b6000828152600560209081526040808320603c845290915281208054610ae890612191565b80601f0160208091040260200160405190810160405280929190818152602001828054610b1490612191565b8015610b615780601f10610b3657610100808354040283529160200191610b61565b820191906000526020600020905b815481529060010190602001808311610b4457829003601f168201915b505050505090508051600003610bfe576001546040517f02571be3000000000000000000000000000000000000000000000000000000008152600481018590526001600160a01b03909116906302571be390602401602060405180830381865afa158015610bd3573d6000803e3d6000fd5b505050506040513d601f19601f82011682018060405250810190610bf79190612164565b9392505050565b610bf7816123e3565b6001546040516369762fe560e11b8152600481018590526060916001600160a01b03169063d2ec5fca90602401602060405180830381865afa158015610c51573d6000803e3d6000fd5b505050506040513d601f19601f82011682018060405250810190610c75919061214b565b4210610cc35760405162461bcd60e51b815260206004820152600c60248201527f4e414d455f4558504952454400000000000000000000000000000000000000006044820152606401610478565b600084815260046020526040908190209051610ce29085908590612181565b90815260200160405180910390208054610cfb90612191565b80601f0160208091040260200160405190810160405280929190818152602001828054610d2790612191565b8015610d745780601f10610d4957610100808354040283529160200191610d74565b820191906000526020600020905b815481529060010190602001808311610d5757829003601f168201915b505050505090509392505050565b60008054906101000a90046001600160a01b03166001600160a01b031663f079914f6040518163ffffffff1660e01b8152600401602060405180830381865afa158015610dd3573d6000803e3d6000fd5b505050506040513d601f19601f82011682018060405250810190610df79190612164565b6001600160a01b0316336001600160a01b031614610ec85760008054906101000a90046001600160a01b03166001600160a01b031663f079914f6040518163ffffffff1660e01b8152600401602060405180830381865afa158015610e60573d6000803e3d6000fd5b505050506040513d601f19601f82011682018060405250810190610e849190612164565b6040517f8ea458f60000000000000000000000000000000000000000000000000000000081526001600160a01b039091166004820152336024820152604401610478565b6000805260036020527f3617319a054d772f909f7c479a2cebe5066e836a939412e32403c99029b92eff610efc8282612323565b5050565b6000805260036020527f3617319a054d772f909f7c479a2cebe5066e836a939412e32403c99029b92eff805460609190610f3990612191565b80601f0160208091040260200160405190810160405280929190818152602001828054610f6590612191565b8015610fb25780601f10610f8757610100808354040283529160200191610fb2565b820191906000526020600020905b815481529060010190602001808311610f9557829003601f168201915b5050505050905090565b60008060009054906101000a90046001600160a01b03166001600160a01b031663f079914f6040518163ffffffff1660e01b8152600401602060405180830381865afa158015611010573d6000803e3d6000fd5b505050506040513d601f19601f820116820180604052508101906110349190612164565b6001600160a01b03164760405160006040518083038185875af1925050503d806000811461107e576040519150601f19603f3d011682016040523d82523d6000602084013e611083565b606091505b50509050806110d45760405162461bcd60e51b815260206004820152601360248201527f4554485f5452414e534645525f4641494c4544000000000000000000000000006044820152606401610478565b50565b6001546040516369762fe560e11b8152600481018490526000916001600160a01b03169063d2ec5fca90602401602060405180830381865afa158015611121573d6000803e3d6000fd5b505050506040513d601f19601f82011682018060405250810190611145919061214b565b42106111935760405162461bcd60e51b815260206004820152600c60248201527f4e414d455f4558504952454400000000000000000000000000000000000000006044820152606401610478565b6000838152600560209081526040808320858452909152812080546111b790612191565b80601f01602080910402602001604051908101604052809291908181526020018280546111e390612191565b80156112305780601f1061120557610100808354040283529160200191611230565b820191906000526020600020905b81548152906001019060200180831161121357829003601f168201915b5050505050905080516000148015611248575082603c145b15611320576001546040517f02571be3000000000000000000000000000000000000000000000000000000008152600481018690526001600160a01b03909116906302571be390602401602060405180830381865afa1580156112af573d6000803e3d6000fd5b505050506040513d601f19601f820116820180604052508101906112d39190612164565b60405160200161130e919060609190911b7fffffffffffffffffffffffffffffffffffffffff00000000000000000000000016815260140190565b60405160208183030381529060405290505b611329816123e3565b949350505050565b6001546040516369762fe560e11b8152600481018390526060916001600160a01b03169063d2ec5fca90602401602060405180830381865afa15801561137b573d6000803e3d6000fd5b505050506040513d601f19601f8201168201806040525081019061139f919061214b565b42106113ed5760405162461bcd60e51b815260206004820152600c60248201527f4e414d455f4558504952454400000000000000000000000000000000000000006044820152606401610478565b6000828152600360205260409020805461140690612191565b80601f016020809104026020016040519081016040528092919081815260200182805461143290612191565b801561147f5780601f106114545761010080835404028352916020019161147f565b820191906000526020600020905b81548152906001019060200180831161146257829003601f168201915b505050505090508051600003611545576000805260036020527f3617319a054d772f909f7c479a2cebe5066e836a939412e32403c99029b92eff80546114c490612191565b80601f01602080910402602001604051908101604052809291908181526020018280546114f090612191565b801561153d5780601f106115125761010080835404028352916020019161153d565b820191906000526020600020905b81548152906001019060200180831161152057829003601f168201915b505050505090505b919050565b60008054906101000a90046001600160a01b03166001600160a01b031663f079914f6040518163ffffffff1660e01b8152600401602060405180830381865afa15801561159b573d6000803e3d6000fd5b505050506040513d601f19601f820116820180604052508101906115bf9190612164565b6001600160a01b0316336001600160a01b0316146116285760008054906101000a90046001600160a01b03166001600160a01b031663f079914f6040518163ffffffff1660e01b8152600401602060405180830381865afa158015610e60573d6000803e3d6000fd5b7fffffffff00000000000000000000000000000000000000000000000000000000808316900361169a5760405162461bcd60e51b815260206004820152601a60248201527f494e56414c49445f494e544552464143455f53454c4543544f520000000000006044820152606401610478565b7fffffffff0000000000000000000000000000000000000000000000000000000091909116600090815260026020526040902080547fffffffffffffffffffffffffffffffffffffffffffffffffffffffffffffff0016911515919091179055565b60008054906101000a90046001600160a01b03166001600160a01b031663f079914f6040518163ffffffff1660e01b8152600401602060405180830381865afa15801561174d573d6000803e3d6000fd5b505050506040513d601f19601f820116820180604052508101906117719190612164565b6001600160a01b0316336001600160a01b0316146117da5760008054906101000a90046001600160a01b03166001600160a01b031663f079914f6040518163ffffffff1660e01b8152600401602060405180830381865afa158015610e60573d6000803e3d6000fd5b600080526004602052604051829082907f17ef568e3e12ab5b9c7254a8d58478811de00f9e6eb34345acd53bf8fd09d3ec906118199088908890612181565b90815260200160405180910390209182611834929190612233565b508383604051611845929190612181565b60405180910390206000801b7f67183f1114fa702d378afb1540cad2f1fb0ce08eb7b86b97303e5db7b827f73384846040516118829291906122f4565b60405180910390a350505050565b6001546040516369762fe560e11b81526004810184905283916001600160a01b03169063d2ec5fca90602401602060405180830381865afa1580156118d9573d6000803e3d6000fd5b505050506040513d601f19601f820116820180604052508101906118fd919061214b565b421061194b5760405162461bcd60e51b815260206004820152600c60248201527f4e414d455f4558504952454400000000000000000000000000000000000000006044820152606401610478565b6001546040517f02571be3000000000000000000000000000000000000000000000000000000008152600481018390526001600160a01b03909116906302571be390602401602060405180830381865afa1580156119ad573d6000803e3d6000fd5b505050506040513d601f19601f820116820180604052508101906119d19190612164565b6001600160a01b0316336001600160a01b031614611a315760405162461bcd60e51b815260206004820152600e60248201527f4e4f545f415554484f52495345440000000000000000000000000000000000006044820152606401610478565b6040517fffffffffffffffffffffffffffffffffffffffff000000000000000000000000606084901b16602082015260340160408051601f19818403018152918152600085815260056020908152828220603c835290522090611a949082612323565b506040516001600160a01b038316815283907f1ac9282df2fbe826c9af5c86adfeb678816478c19262558e4e71e399fd4a16e9906020016109fa565b6001546040516369762fe560e11b81526004810185905284916001600160a01b03169063d2ec5fca90602401602060405180830381865afa158015611b19573d6000803e3d6000fd5b505050506040513d601f19601f82011682018060405250810190611b3d919061214b565b4210611b8b5760405162461bcd60e51b815260206004820152600c60248201527f4e414d455f4558504952454400000000000000000000000000000000000000006044820152606401610478565b6001546040517f02571be3000000000000000000000000000000000000000000000000000000008152600481018390526001600160a01b03909116906302571be390602401602060405180830381865afa158015611bed573d6000803e3d6000fd5b505050506040513d601f19601f82011682018060405250810190611c119190612164565b6001600160a01b0316336001600160a01b031614611c715760405162461bcd60e51b815260206004820152600e60248201527f4e4f545f415554484f52495345440000000000000000000000000000000000006044820152606401610478565b60008481526005602090815260408083208684529091529020611c948382612323565b50837f91f951276447c3816ca159edb0a9492e803b9355af1feadf2fa4371af2f070af8484604051610802929190612407565b80357fffffffff000000000000000000000000000000000000000000000000000000008116811461154557600080fd5b600060208284031215611d0957600080fd5b610bf782611cc7565b60008083601f840112611d2457600080fd5b50813567ffffffffffffffff811115611d3c57600080fd5b602083019150836020828501011115611d5457600080fd5b9250929050565b600080600080600060608688031215611d7357600080fd5b85359450602086013567ffffffffffffffff80821115611d9257600080fd5b611d9e89838a01611d12565b90965094506040880135915080821115611db757600080fd5b50611dc488828901611d12565b969995985093965092949392505050565b600080600060608486031215611dea57600080fd5b505081359360208301359350604090920135919050565b7f4e487b7100000000000000000000000000000000000000000000000000000000600052604160045260246000fd5b600082601f830112611e4157600080fd5b813567ffffffffffffffff80821115611e5c57611e5c611e01565b604051601f8301601f19908116603f01168101908282118183101715611e8457611e84611e01565b81604052838152866020858801011115611e9d57600080fd5b836020870160208301376000602085830101528094505050505092915050565b60008060408385031215611ed057600080fd5b82359150602083013567ffffffffffffffff811115611eee57600080fd5b611efa85828601611e30565b9150509250929050565b600060208284031215611f1657600080fd5b5035919050565b600080600060408486031215611f3257600080fd5b83359250602084013567ffffffffffffffff811115611f5057600080fd5b611f5c86828701611d12565b9497909650939450505050565b6000815180845260005b81811015611f8f57602081850181015186830182015201611f73565b506000602082860101526020601f19601f83011685010191505092915050565b602081526000610bf76020830184611f69565b600060208284031215611fd457600080fd5b813567ffffffffffffffff811115611feb57600080fd5b61132984828501611e30565b6000806040838503121561200a57600080fd5b50508035926020909101359150565b6000806040838503121561202c57600080fd5b61203583611cc7565b91506020830135801515811461204a57600080fd5b809150509250929050565b6000806000806040858703121561206b57600080fd5b843567ffffffffffffffff8082111561208357600080fd5b61208f88838901611d12565b909650945060208701359150808211156120a857600080fd5b506120b587828801611d12565b95989497509550505050565b6001600160a01b03811681146110d457600080fd5b600080604083850312156120e957600080fd5b82359150602083013561204a816120c1565b60008060006060848603121561211057600080fd5b8335925060208401359150604084013567ffffffffffffffff81111561213557600080fd5b61214186828701611e30565b9150509250925092565b60006020828403121561215d57600080fd5b5051919050565b60006020828403121561217657600080fd5b8151610bf7816120c1565b8183823760009101908152919050565b600181811c908216806121a557607f821691505b6020821081036121de577f4e487b7100000000000000000000000000000000000000000000000000000000600052602260045260246000fd5b50919050565b601f82111561222e57600081815260208120601f850160051c8101602086101561220b5750805b601f850160051c820191505b8181101561222a57828155600101612217565b5050505b505050565b67ffffffffffffffff83111561224b5761224b611e01565b61225f836122598354612191565b836121e4565b6000601f841160018114612293576000851561227b5750838201355b600019600387901b1c1916600186901b1783556122ed565b600083815260209020601f19861690835b828110156122c457868501358255602094850194600190920191016122a4565b50868210156122e15760001960f88860031b161c19848701351681555b505060018560011b0183555b5050505050565b60208152816020820152818360408301376000818301604090810191909152601f909201601f19160101919050565b815167ffffffffffffffff81111561233d5761233d611e01565b6123518161234b8454612191565b846121e4565b602080601f831160018114612386576000841561236e5750858301515b600019600386901b1c1916600185901b17855561222a565b600085815260208120601f198616915b828110156123b557888601518255948401946001909101908401612396565b50858210156123d35787850151600019600388901b60f8161c191681555b5050505050600190811b01905550565b805160208083015191908110156121de5760001960209190910360031b1b16919050565b8281526040602082015260006113296040830184611f6956fea26469706673582212209b0ad51d04e8cf511bc904f6c567813d896d759c4f5591949fc93895f03f621a64736f6c63430008100033e5010172002408011220a7448dcfc00e746c22e238de5c1e3b6fb97bae0949e47741b4e0ae8e929abd4f",
    "linkReferences": {}
  },
  "methodIdentifiers": {
    "DefaultContenthash()": "69be8bb0",
    "HELIX2()": "b782426e",
    "NAMES()": "05e84aa0",
    "addr(bytes32)": "3b3b57de",
    "addr2(bytes32,uint256)": "78237b03",
    "contenthash(bytes32)": "bc1c58d1",
    "pubkey(bytes32)": "c8690233",
    "setAddress(bytes32,address)": "ca446dd9",
    "setAddressCoin(bytes32,uint256,bytes)": "f5aed68f",
    "setContenthash(bytes32,bytes)": "304e6ade",
    "setDefaultContenthash(bytes)": "5d81d553",
    "setDefaultText(string,string)": "c9b69059",
    "setInterface(bytes4,bool)": "c0a43a7c",
    "setPubkey(bytes32,bytes32,bytes32)": "29cd62ea",
    "setText(bytes32,string,string)": "10f13a8c",
    "supportsInterface(bytes4)": "01ffc9a7",
    "text(bytes32,string)": "59d1d43c",
    "withdrawEther()": "7362377b"
  },
  "id": 28
}