{
  "abi": [
    {
      "inputs": [
        {
          "internalType": "address",
          "name": "_registry",
          "type": "address"
        },
        {
          "internalType": "address",
          "name": "_helix2",
          "type": "address"
        },
        {
          "internalType": "address",
          "name": "_priceOracle",
          "type": "address"
        }
      ],
      "stateMutability": "nonpayable",
      "type": "constructor"
    },
    {
      "inputs": [],
      "name": "BAD_HOOK",
      "type": "error"
    },
    {
      "inputs": [],
      "name": "BAD_RULE",
      "type": "error"
    },
    {
      "anonymous": false,
      "inputs": [
        {
          "indexed": true,
          "internalType": "bytes32",
          "name": "bondhash",
          "type": "bytes32"
        },
        {
          "indexed": false,
          "internalType": "address",
          "name": "config",
          "type": "address"
        },
        {
          "indexed": false,
          "internalType": "uint8",
          "name": "rule",
          "type": "uint8"
        }
      ],
      "name": "Hooked",
      "type": "event"
    },
    {
      "anonymous": false,
      "inputs": [
        {
          "indexed": true,
          "internalType": "bytes32",
          "name": "bondhash",
          "type": "bytes32"
        },
        {
          "indexed": false,
          "internalType": "bytes32",
          "name": "anion",
          "type": "bytes32"
        }
      ],
      "name": "NewAnion",
      "type": "event"
    },
    {
      "anonymous": false,
      "inputs": [
        {
          "indexed": true,
          "internalType": "bytes32",
          "name": "bondhash",
          "type": "bytes32"
        },
        {
          "indexed": false,
          "internalType": "bytes32",
          "name": "cation",
          "type": "bytes32"
        }
      ],
      "name": "NewCation",
      "type": "event"
    },
    {
      "anonymous": false,
      "inputs": [
        {
          "indexed": true,
          "internalType": "bytes32",
          "name": "bondhash",
          "type": "bytes32"
        },
        {
          "indexed": false,
          "internalType": "address",
          "name": "controller",
          "type": "address"
        }
      ],
      "name": "NewController",
      "type": "event"
    },
    {
      "anonymous": false,
      "inputs": [
        {
          "indexed": true,
          "internalType": "bytes32",
          "name": "bondhash",
          "type": "bytes32"
        },
        {
          "indexed": false,
          "internalType": "bool",
          "name": "covalence",
          "type": "bool"
        }
      ],
      "name": "NewCovalence",
      "type": "event"
    },
    {
      "anonymous": false,
      "inputs": [
        {
          "indexed": true,
          "internalType": "bytes32",
          "name": "bondhash",
          "type": "bytes32"
        },
        {
          "indexed": false,
          "internalType": "uint256",
          "name": "expiry",
          "type": "uint256"
        }
      ],
      "name": "NewExpiry",
      "type": "event"
    },
    {
      "anonymous": false,
      "inputs": [
        {
          "indexed": true,
          "internalType": "bytes32",
          "name": "bondhash",
          "type": "bytes32"
        },
        {
          "indexed": false,
          "internalType": "address",
          "name": "resolver",
          "type": "address"
        }
      ],
      "name": "NewResolver",
      "type": "event"
    },
    {
      "anonymous": false,
      "inputs": [
        {
          "indexed": true,
          "internalType": "address",
          "name": "previousOwner",
          "type": "address"
        },
        {
          "indexed": true,
          "internalType": "address",
          "name": "newOwner",
          "type": "address"
        }
      ],
      "name": "OwnershipTransferred",
      "type": "event"
    },
    {
      "anonymous": false,
      "inputs": [
        {
          "indexed": true,
          "internalType": "bytes32",
          "name": "bondhash",
          "type": "bytes32"
        },
        {
          "indexed": false,
          "internalType": "address",
          "name": "config",
          "type": "address"
        },
        {
          "indexed": false,
          "internalType": "uint8",
          "name": "rule",
          "type": "uint8"
        }
      ],
      "name": "Rehooked",
      "type": "event"
    },
    {
      "anonymous": false,
      "inputs": [
        {
          "indexed": true,
          "internalType": "bytes32",
          "name": "bondhash",
          "type": "bytes32"
        },
        {
          "indexed": false,
          "internalType": "uint8",
          "name": "rule",
          "type": "uint8"
        }
      ],
      "name": "Unhooked",
      "type": "event"
    },
    {
      "anonymous": false,
      "inputs": [
        {
          "indexed": true,
          "internalType": "bytes32",
          "name": "bondhash",
          "type": "bytes32"
        }
      ],
      "name": "UnhookedAll",
      "type": "event"
    },
    {
      "stateMutability": "payable",
      "type": "fallback"
    },
    {
      "inputs": [
        {
          "internalType": "bytes32",
          "name": "",
          "type": "bytes32"
        }
      ],
      "name": "Bonds",
      "outputs": [
        {
          "internalType": "bytes32",
          "name": "_cation",
          "type": "bytes32"
        },
        {
          "internalType": "bytes32",
          "name": "_anion",
          "type": "bytes32"
        },
        {
          "internalType": "bytes32",
          "name": "_label",
          "type": "bytes32"
        },
        {
          "internalType": "address",
          "name": "_resolver",
          "type": "address"
        },
        {
          "internalType": "address",
          "name": "_controller",
          "type": "address"
        },
        {
          "internalType": "bool",
          "name": "_covalence",
          "type": "bool"
        },
        {
          "internalType": "uint256",
          "name": "_expiry",
          "type": "uint256"
        }
      ],
      "stateMutability": "view",
      "type": "function"
    },
    {
      "inputs": [],
      "name": "Dev",
      "outputs": [
        {
          "internalType": "address",
          "name": "",
          "type": "address"
        }
      ],
      "stateMutability": "view",
      "type": "function"
    },
    {
      "inputs": [],
      "name": "HELIX2",
      "outputs": [
        {
          "internalType": "contract iHELIX2",
          "name": "",
          "type": "address"
        }
      ],
      "stateMutability": "view",
      "type": "function"
    },
    {
      "inputs": [],
      "name": "NAMES",
      "outputs": [
        {
          "internalType": "contract iNAME",
          "name": "",
          "type": "address"
        }
      ],
      "stateMutability": "view",
      "type": "function"
    },
    {
      "inputs": [],
      "name": "PRICES",
      "outputs": [
        {
          "internalType": "contract iPriceOracle",
          "name": "",
          "type": "address"
        }
      ],
      "stateMutability": "view",
      "type": "function"
    },
    {
      "inputs": [],
      "name": "Registrar",
      "outputs": [
        {
          "internalType": "address",
          "name": "",
          "type": "address"
        }
      ],
      "stateMutability": "view",
      "type": "function"
    },
    {
      "inputs": [],
      "name": "STORE",
      "outputs": [
        {
          "internalType": "contract iBOND",
          "name": "",
          "type": "address"
        }
      ],
      "stateMutability": "view",
      "type": "function"
    },
    {
      "inputs": [],
      "name": "active",
      "outputs": [
        {
          "internalType": "bool",
          "name": "",
          "type": "bool"
        }
      ],
      "stateMutability": "view",
      "type": "function"
    },
    {
      "inputs": [
        {
          "internalType": "bytes32",
          "name": "bondhash",
          "type": "bytes32"
        }
      ],
      "name": "anion",
      "outputs": [
        {
          "internalType": "bytes32",
          "name": "",
          "type": "bytes32"
        }
      ],
      "stateMutability": "view",
      "type": "function"
    },
    {
      "inputs": [],
      "name": "basePrice",
      "outputs": [
        {
          "internalType": "uint256",
          "name": "",
          "type": "uint256"
        }
      ],
      "stateMutability": "view",
      "type": "function"
    },
    {
      "inputs": [
        {
          "internalType": "bytes32",
          "name": "bondhash",
          "type": "bytes32"
        }
      ],
      "name": "cation",
      "outputs": [
        {
          "internalType": "bytes32",
          "name": "",
          "type": "bytes32"
        }
      ],
      "stateMutability": "view",
      "type": "function"
    },
    {
      "inputs": [
        {
          "internalType": "bytes32",
          "name": "bondhash",
          "type": "bytes32"
        }
      ],
      "name": "controller",
      "outputs": [
        {
          "internalType": "address",
          "name": "",
          "type": "address"
        }
      ],
      "stateMutability": "view",
      "type": "function"
    },
    {
      "inputs": [
        {
          "internalType": "bytes32",
          "name": "bondhash",
          "type": "bytes32"
        }
      ],
      "name": "covalence",
      "outputs": [
        {
          "internalType": "bool",
          "name": "",
          "type": "bool"
        }
      ],
      "stateMutability": "view",
      "type": "function"
    },
    {
      "inputs": [
        {
          "internalType": "bytes32",
          "name": "bondhash",
          "type": "bytes32"
        }
      ],
      "name": "expiry",
      "outputs": [
        {
          "internalType": "uint256",
          "name": "",
          "type": "uint256"
        }
      ],
      "stateMutability": "view",
      "type": "function"
    },
    {
      "inputs": [
        {
          "internalType": "bytes32",
          "name": "bondhash",
          "type": "bytes32"
        },
        {
          "internalType": "address",
          "name": "config",
          "type": "address"
        },
        {
          "internalType": "uint8",
          "name": "rule",
          "type": "uint8"
        }
      ],
      "name": "hook",
      "outputs": [],
      "stateMutability": "nonpayable",
      "type": "function"
    },
    {
      "inputs": [
        {
          "internalType": "bytes32",
          "name": "bondhash",
          "type": "bytes32"
        }
      ],
      "name": "hooksWithRules",
      "outputs": [
        {
          "internalType": "uint8[]",
          "name": "_rules",
          "type": "uint8[]"
        },
        {
          "internalType": "address[]",
          "name": "_hooks",
          "type": "address[]"
        }
      ],
      "stateMutability": "view",
      "type": "function"
    },
    {
      "inputs": [
        {
          "internalType": "bytes32",
          "name": "bondhash",
          "type": "bytes32"
        },
        {
          "internalType": "bytes32",
          "name": "newAnion",
          "type": "bytes32"
        }
      ],
      "name": "isNotDuplicateAnion",
      "outputs": [
        {
          "internalType": "bool",
          "name": "",
          "type": "bool"
        }
      ],
      "stateMutability": "view",
      "type": "function"
    },
    {
      "inputs": [
        {
          "internalType": "bytes32",
          "name": "bondhash",
          "type": "bytes32"
        },
        {
          "internalType": "uint8",
          "name": "rule",
          "type": "uint8"
        }
      ],
      "name": "isNotDuplicateRule",
      "outputs": [
        {
          "internalType": "bool",
          "name": "",
          "type": "bool"
        }
      ],
      "stateMutability": "view",
      "type": "function"
    },
    {
      "inputs": [
        {
          "internalType": "bytes32",
          "name": "bondhash",
          "type": "bytes32"
        }
      ],
      "name": "label",
      "outputs": [
        {
          "internalType": "bytes32",
          "name": "",
          "type": "bytes32"
        }
      ],
      "stateMutability": "view",
      "type": "function"
    },
    {
      "inputs": [],
      "name": "owner",
      "outputs": [
        {
          "internalType": "address",
          "name": "",
          "type": "address"
        }
      ],
      "stateMutability": "view",
      "type": "function"
    },
    {
      "inputs": [
        {
          "internalType": "bytes32",
          "name": "bondhash",
          "type": "bytes32"
        }
      ],
      "name": "recordExists",
      "outputs": [
        {
          "internalType": "bool",
          "name": "",
          "type": "bool"
        }
      ],
      "stateMutability": "view",
      "type": "function"
    },
    {
      "inputs": [
        {
          "internalType": "bytes32",
          "name": "bondhash",
          "type": "bytes32"
        },
        {
          "internalType": "bytes32",
          "name": "_cation",
          "type": "bytes32"
        }
      ],
      "name": "register",
      "outputs": [],
      "stateMutability": "nonpayable",
      "type": "function"
    },
    {
      "inputs": [
        {
          "internalType": "bytes32",
          "name": "bondhash",
          "type": "bytes32"
        },
        {
          "internalType": "address",
          "name": "config",
          "type": "address"
        },
        {
          "internalType": "uint8",
          "name": "rule",
          "type": "uint8"
        }
      ],
      "name": "rehook",
      "outputs": [],
      "stateMutability": "nonpayable",
      "type": "function"
    },
    {
      "inputs": [
        {
          "internalType": "bytes32",
          "name": "bondhash",
          "type": "bytes32"
        },
        {
          "internalType": "uint256",
          "name": "_expiry",
          "type": "uint256"
        }
      ],
      "name": "renew",
      "outputs": [],
      "stateMutability": "payable",
      "type": "function"
    },
    {
      "inputs": [
        {
          "internalType": "bytes32",
          "name": "bondhash",
          "type": "bytes32"
        }
      ],
      "name": "resolver",
      "outputs": [
        {
          "internalType": "address",
          "name": "",
          "type": "address"
        }
      ],
      "stateMutability": "view",
      "type": "function"
    },
    {
      "inputs": [],
      "name": "roothash",
      "outputs": [
        {
          "internalType": "bytes32",
          "name": "",
          "type": "bytes32"
        }
      ],
      "stateMutability": "view",
      "type": "function"
    },
    {
      "inputs": [
        {
          "internalType": "bytes32",
          "name": "bondhash",
          "type": "bytes32"
        },
        {
          "internalType": "bytes32",
          "name": "_anion",
          "type": "bytes32"
        }
      ],
      "name": "setAnion",
      "outputs": [],
      "stateMutability": "nonpayable",
      "type": "function"
    },
    {
      "inputs": [
        {
          "internalType": "bytes32",
          "name": "bondhash",
          "type": "bytes32"
        },
        {
          "internalType": "bytes32",
          "name": "_cation",
          "type": "bytes32"
        }
      ],
      "name": "setCation",
      "outputs": [],
      "stateMutability": "nonpayable",
      "type": "function"
    },
    {
      "inputs": [
        {
          "internalType": "address",
          "name": "_helix2",
          "type": "address"
        },
        {
          "internalType": "address",
          "name": "_priceOracle",
          "type": "address"
        },
        {
          "internalType": "address",
          "name": "_store",
          "type": "address"
        }
      ],
      "name": "setConfig",
      "outputs": [],
      "stateMutability": "nonpayable",
      "type": "function"
    },
    {
      "inputs": [
        {
          "internalType": "bytes32",
          "name": "bondhash",
          "type": "bytes32"
        },
        {
          "internalType": "address",
          "name": "_controller",
          "type": "address"
        }
      ],
      "name": "setController",
      "outputs": [],
      "stateMutability": "nonpayable",
      "type": "function"
    },
    {
      "inputs": [
        {
          "internalType": "bytes32",
          "name": "bondhash",
          "type": "bytes32"
        },
        {
          "internalType": "bool",
          "name": "_covalence",
          "type": "bool"
        }
      ],
      "name": "setCovalence",
      "outputs": [],
      "stateMutability": "nonpayable",
      "type": "function"
    },
    {
      "inputs": [
        {
          "internalType": "bytes32",
          "name": "bondhash",
          "type": "bytes32"
        },
        {
          "internalType": "uint256",
          "name": "_expiry",
          "type": "uint256"
        }
      ],
      "name": "setExpiry",
      "outputs": [],
      "stateMutability": "nonpayable",
      "type": "function"
    },
    {
      "inputs": [
        {
          "internalType": "bytes4",
          "name": "sig",
          "type": "bytes4"
        },
        {
          "internalType": "bool",
          "name": "value",
          "type": "bool"
        }
      ],
      "name": "setInterface",
      "outputs": [],
      "stateMutability": "payable",
      "type": "function"
    },
    {
      "inputs": [
        {
          "internalType": "bytes32",
          "name": "bondhash",
          "type": "bytes32"
        },
        {
          "internalType": "bytes32",
          "name": "_label",
          "type": "bytes32"
        }
      ],
      "name": "setLabel",
      "outputs": [],
      "stateMutability": "nonpayable",
      "type": "function"
    },
    {
      "inputs": [
        {
          "internalType": "bytes32",
          "name": "bondhash",
          "type": "bytes32"
        },
        {
          "internalType": "address",
          "name": "_resolver",
          "type": "address"
        }
      ],
      "name": "setResolver",
      "outputs": [],
      "stateMutability": "nonpayable",
      "type": "function"
    },
    {
      "inputs": [
        {
          "internalType": "bytes4",
          "name": "",
          "type": "bytes4"
        }
      ],
      "name": "supportedInterfaces",
      "outputs": [
        {
          "internalType": "bool",
          "name": "",
          "type": "bool"
        }
      ],
      "stateMutability": "view",
      "type": "function"
    },
    {
      "inputs": [
        {
          "internalType": "bytes4",
          "name": "sig",
          "type": "bytes4"
        }
      ],
      "name": "supportsInterface",
      "outputs": [
        {
          "internalType": "bool",
          "name": "",
          "type": "bool"
        }
      ],
      "stateMutability": "view",
      "type": "function"
    },
    {
      "inputs": [],
      "name": "theEnd",
      "outputs": [
        {
          "internalType": "uint256",
          "name": "",
          "type": "uint256"
        }
      ],
      "stateMutability": "view",
      "type": "function"
    },
    {
      "inputs": [],
      "name": "toggleActive",
      "outputs": [],
      "stateMutability": "nonpayable",
      "type": "function"
    },
    {
      "inputs": [
        {
          "internalType": "address",
          "name": "newDev",
          "type": "address"
        }
      ],
      "name": "transferOwnership",
      "outputs": [],
      "stateMutability": "nonpayable",
      "type": "function"
    },
    {
      "inputs": [
        {
          "internalType": "bytes32",
          "name": "bondhash",
          "type": "bytes32"
        },
        {
          "internalType": "uint8",
          "name": "rule",
          "type": "uint8"
        }
      ],
      "name": "unhook",
      "outputs": [],
      "stateMutability": "nonpayable",
      "type": "function"
    },
    {
      "inputs": [
        {
          "internalType": "bytes32",
          "name": "bondhash",
          "type": "bytes32"
        }
      ],
      "name": "unhookAll",
      "outputs": [],
      "stateMutability": "nonpayable",
      "type": "function"
    },
    {
      "inputs": [],
      "name": "withdrawEther",
      "outputs": [],
      "stateMutability": "nonpayable",
      "type": "function"
    },
    {
      "stateMutability": "payable",
      "type": "receive"
    }
  ],
  "bytecode": {
    "object": "0x60806040526004805460ff60a01b1916600160a01b1790556703782dace9d900006009553480156200003057600080fd5b50604051620049c2380380620049c283398101604081905262000053916200020f565b60048054336001600160a01b03199182161782556000805482166001600160a01b03868116918217909255600180549093169187169190911790915560408051633215476b60e11b81529051919263642a8ed69282820192608092908290030181865afa158015620000c9573d6000803e3d6000fd5b505050506040513d601f19601f82011682018060405250810190620000ef919062000290565b60200151600655600380546001600160a01b0319166001600160a01b0383169081179091556040805163bd9a548b60e01b8152905163bd9a548b916004808201926080929091908290030181865afa15801562000150573d6000803e3d6000fd5b505050506040513d601f19601f8201168201806040525081019062000176919062000290565b6020908101516007556005905250507f4bcc8a24ccebcb02e06809ffdc3dbdc56f736cf28155948650f9bec809bea48e8054600160ff1991821681179092556307f5828d60e41b6000527f744f038481816166db36c1c96c51289c139e33b5b050399f9ec0fad34d16e7688054909116909117905550620002f7565b80516001600160a01b03811681146200020a57600080fd5b919050565b6000806000606084860312156200022557600080fd5b6200023084620001f2565b92506200024060208501620001f2565b91506200025060408501620001f2565b90509250925092565b604051608081016001600160401b03811182821017156200028a57634e487b7160e01b600052604160045260246000fd5b60405290565b600060808284031215620002a357600080fd5b82601f830112620002b357600080fd5b620002bd62000259565b806080840185811115620002d057600080fd5b845b81811015620002ec578051845260209384019301620002d2565b509095945050505050565b6146bb80620003076000396000f3fe6080604052600436106102e05760003560e01c80637362377b11610184578063d07699aa116100d6578063e79eaa261161008a578063f61ccd5311610064578063f61ccd53146108dc578063f79fe538146108fc578063f8c912441461091c57600080fd5b8063e79eaa2614610889578063f2fde38b146108a9578063f544d82f146108c957600080fd5b8063d3156905116100bb578063d315690514610829578063dbd4e02114610849578063deee4da91461086957600080fd5b8063d07699aa146107e9578063d2ec5fca1461080957600080fd5b8063a3be52a211610138578063b9f37c8611610112578063b9f37c86146107a0578063c0a43a7c146107c0578063c7876ea4146107d357600080fd5b8063a3be52a214610740578063b612e9b914610760578063b782426e1461078057600080fd5b8063836697261161016957806383669726146106e2578063849a799c146107025780638da5cb5b1461072257600080fd5b80637362377b146106ad5780638146970a146106c257600080fd5b80631fc4859e1161023d5780632f926732116101f157806339de6469116101cb57806339de6469146105af578063507f1465146105cf57806363a44e69146105ef57600080fd5b80632f9267321461054f5780633141e25b1461056f578063340268591461058f57600080fd5b806322b68deb1161022257806322b68deb1461050e578063251c94221461052457806329c68dc11461053a57600080fd5b80631fc4859e146104ce57806321ec2b5b146104ee57600080fd5b80630aac6625116102945780631584ba38116102795780631584ba381461045c5780631896f70a1461048c5780631eabcd34146104ae57600080fd5b80630aac6625146104005780630e68b1161461042e57600080fd5b806301ffc9a7116102c557806301ffc9a71461034c57806302fb0c5e146103ae57806305e84aa0146103e057600080fd5b80630178b8bf146102ef57806301e51ae81461032c57600080fd5b366102ea57600080fd5b600080fd5b3480156102fb57600080fd5b5061030f61030a366004614018565b61093c565b6040516001600160a01b0390911681526020015b60405180910390f35b34801561033857600080fd5b5060045461030f906001600160a01b031681565b34801561035857600080fd5b5061039e610367366004614066565b7fffffffff000000000000000000000000000000000000000000000000000000001660009081526005602052604090205460ff1690565b6040519015158152602001610323565b3480156103ba57600080fd5b5060045461039e9074010000000000000000000000000000000000000000900460ff1681565b3480156103ec57600080fd5b5060015461030f906001600160a01b031681565b34801561040c57600080fd5b5061042061041b366004614018565b610a80565b604051610323929190614088565b34801561043a57600080fd5b5061044e610449366004614018565b610bc4565b604051908152602001610323565b34801561046857600080fd5b5061039e610477366004614066565b60056020526000908152604090205460ff1681565b34801561049857600080fd5b506104ac6104a7366004614124565b610cfa565b005b3480156104ba57600080fd5b5060035461030f906001600160a01b031681565b3480156104da57600080fd5b5061044e6104e9366004614018565b610f9c565b3480156104fa57600080fd5b506104ac610509366004614018565b611095565b34801561051a57600080fd5b5061044e60095481565b34801561053057600080fd5b5061044e60065481565b34801561054657600080fd5b506104ac61131a565b34801561055b57600080fd5b506104ac61056a366004614154565b6113c1565b34801561057b57600080fd5b506104ac61058a366004614176565b61159b565b34801561059b57600080fd5b5061039e6105aa366004614018565b61188c565b3480156105bb57600080fd5b506104ac6105ca366004614154565b6119c1565b3480156105db57600080fd5b5060025461030f906001600160a01b031681565b3480156105fb57600080fd5b5061066d61060a366004614018565b600a602052600090815260409020600281015460038201546004830154600584015460068501546007909501549394929391926001600160a01b0391821692918116917401000000000000000000000000000000000000000090910460ff169087565b604080519788526020880196909652948601939093526001600160a01b039182166060860152166080840152151560a083015260c082015260e001610323565b3480156106b957600080fd5b506104ac611b86565b3480156106ce57600080fd5b506104ac6106dd366004614154565b611c2c565b3480156106ee57600080fd5b506104ac6106fd3660046141d0565b611f8d565b34801561070e57600080fd5b506104ac61071d3660046141d0565b61243b565b34801561072e57600080fd5b506004546001600160a01b031661030f565b34801561074c57600080fd5b506104ac61075b366004614154565b6127d5565b34801561076c57600080fd5b506104ac61077b366004614207565b612a62565b34801561078c57600080fd5b5060005461030f906001600160a01b031681565b3480156107ac57600080fd5b5060085461030f906001600160a01b031681565b6104ac6107ce36600461423a565b612e7e565b3480156107df57600080fd5b5061044e60075481565b3480156107f557600080fd5b506104ac610804366004614266565b612fac565b34801561081557600080fd5b5061044e610824366004614018565b61323c565b34801561083557600080fd5b506104ac610844366004614124565b6132b0565b34801561085557600080fd5b5061030f610864366004614018565b613547565b34801561087557600080fd5b506104ac610884366004614154565b613627565b34801561089557600080fd5b5061039e6108a4366004614207565b6136fb565b3480156108b557600080fd5b506104ac6108c436600461428b565b6137a3565b6104ac6108d7366004614154565b613871565b3480156108e857600080fd5b5061044e6108f7366004614018565b613cb3565b34801561090857600080fd5b5061039e610917366004614018565b613e69565b34801561092857600080fd5b5061039e610937366004614154565b613edf565b6002546040516369762fe560e11b81526004810183905260009183916001600160a01b039091169063d2ec5fca90602401602060405180830381865afa15801561098a573d6000803e3d6000fd5b505050506040513d601f19601f820116820180604052508101906109ae91906142a8565b42106109f05760405162461bcd60e51b815260206004820152600c60248201526b1093d39117d156141254915160a21b60448201526064015b60405180910390fd5b6002546040517f0178b8bf000000000000000000000000000000000000000000000000000000008152600481018590526001600160a01b0390911690630178b8bf906024015b602060405180830381865afa158015610a53573d6000803e3d6000fd5b505050506040513d601f19601f82011682018060405250810190610a7791906142c1565b91505b50919050565b6002546040516369762fe560e11b815260048101839052606091829184916001600160a01b03169063d2ec5fca90602401602060405180830381865afa158015610ace573d6000803e3d6000fd5b505050506040513d601f19601f82011682018060405250810190610af291906142a8565b4210610b2f5760405162461bcd60e51b815260206004820152600c60248201526b1093d39117d156141254915160a21b60448201526064016109e7565b6002546040517f0aac6625000000000000000000000000000000000000000000000000000000008152600481018690526001600160a01b0390911690630aac662590602401600060405180830381865afa158015610b91573d6000803e3d6000fd5b505050506040513d6000823e601f3d908101601f19168201604052610bb991908101906143ff565b909590945092505050565b6002546040516369762fe560e11b81526004810183905260009183916001600160a01b039091169063d2ec5fca90602401602060405180830381865afa158015610c12573d6000803e3d6000fd5b505050506040513d601f19601f82011682018060405250810190610c3691906142a8565b4210610c735760405162461bcd60e51b815260206004820152600c60248201526b1093d39117d156141254915160a21b60448201526064016109e7565b6002546040517f0e68b116000000000000000000000000000000000000000000000000000000008152600481018590526001600160a01b0390911690630e68b116906024015b602060405180830381865afa158015610cd6573d6000803e3d6000fd5b505050506040513d601f19601f82011682018060405250810190610a7791906142a8565b60025460405163f61ccd5360e01b81526004810184905283916000916001600160a01b039091169063f61ccd5390602401602060405180830381865afa158015610d48573d6000803e3d6000fd5b505050506040513d601f19601f82011682018060405250810190610d6c91906142a8565b6001546040516302571be360e01b8152600481018390529192506000916001600160a01b03909116906302571be390602401602060405180830381865afa158015610dbb573d6000803e3d6000fd5b505050506040513d601f19601f82011682018060405250810190610ddf91906142c1565b6008549091506001600160a01b0316331480610e0357506001600160a01b03811633145b80610e8b575060025460405163dbd4e02160e01b8152600481018590526001600160a01b039091169063dbd4e02190602401602060405180830381865afa158015610e52573d6000803e3d6000fd5b505050506040513d601f19601f82011682018060405250810190610e7691906142c1565b6001600160a01b0316336001600160a01b0316145b610ed75760405162461bcd60e51b815260206004820152600e60248201527f4e4f545f415554484f524953454400000000000000000000000000000000000060448201526064016109e7565b6002546040517f1896f70a000000000000000000000000000000000000000000000000000000008152600481018790526001600160a01b03868116602483015290911690631896f70a90604401600060405180830381600087803b158015610f3e57600080fd5b505af1158015610f52573d6000803e3d6000fd5b50506040516001600160a01b03871681528792507f335721b01866dc23fbee8b6b2c7b1e14d6f05c28cd35a2c934239f94095602a091506020015b60405180910390a25050505050565b6002546040516369762fe560e11b81526004810183905260009183916001600160a01b039091169063d2ec5fca90602401602060405180830381865afa158015610fea573d6000803e3d6000fd5b505050506040513d601f19601f8201168201806040525081019061100e91906142a8565b421061104b5760405162461bcd60e51b815260206004820152600c60248201526b1093d39117d156141254915160a21b60448201526064016109e7565b6002546040517f1fc4859e000000000000000000000000000000000000000000000000000000008152600481018590526001600160a01b0390911690631fc4859e90602401610cb9565b60025460405163f61ccd5360e01b81526004810183905282916000916001600160a01b039091169063f61ccd5390602401602060405180830381865afa1580156110e3573d6000803e3d6000fd5b505050506040513d601f19601f8201168201806040525081019061110791906142a8565b6001546040516302571be360e01b8152600481018390529192506000916001600160a01b03909116906302571be390602401602060405180830381865afa158015611156573d6000803e3d6000fd5b505050506040513d601f19601f8201168201806040525081019061117a91906142c1565b6008549091506001600160a01b031633148061119e57506001600160a01b03811633145b80611226575060025460405163dbd4e02160e01b8152600481018590526001600160a01b039091169063dbd4e02190602401602060405180830381865afa1580156111ed573d6000803e3d6000fd5b505050506040513d601f19601f8201168201806040525081019061121191906142c1565b6001600160a01b0316336001600160a01b0316145b6112725760405162461bcd60e51b815260206004820152600e60248201527f4e4f545f415554484f524953454400000000000000000000000000000000000060448201526064016109e7565b6002546040517f21ec2b5b000000000000000000000000000000000000000000000000000000008152600481018690526001600160a01b03909116906321ec2b5b90602401600060405180830381600087803b1580156112d157600080fd5b505af11580156112e5573d6000803e3d6000fd5b50506040518692507f6b91085369552b61ca16180a741663b69fb6b3b967f7271116521d84e2291dc59150600090a250505050565b6004546001600160a01b031633146113745760405162461bcd60e51b815260206004820152600760248201527f4e4f545f4445560000000000000000000000000000000000000000000000000060448201526064016109e7565b600480547fffffffffffffffffffffff00ffffffffffffffffffffffffffffffffffffffff8116740100000000000000000000000000000000000000009182900460ff1615909102179055565b6008546001600160a01b0316331461141b5760405162461bcd60e51b815260206004820152600d60248201527f4e4f545f5245474953545241520000000000000000000000000000000000000060448201526064016109e7565b6001546040516302571be360e01b8152600481018390526000916001600160a01b0316906302571be390602401602060405180830381865afa158015611465573d6000803e3d6000fd5b505050506040513d601f19601f8201168201806040525081019061148991906142c1565b6001600160a01b0316036114df5760405162461bcd60e51b815260206004820152600b60248201527f43414e4e4f545f4255524e00000000000000000000000000000000000000000060448201526064016109e7565b6002546040517f8146970a00000000000000000000000000000000000000000000000000000000815260048101849052602481018390526001600160a01b0390911690638146970a90604401600060405180830381600087803b15801561154557600080fd5b505af1158015611559573d6000803e3d6000fd5b50505050817f4810581adf2c16a86a375dbb1ed89b0b0f7e64d48d24e1948b3dfe6581e4d7958260405161158f91815260200190565b60405180910390a25050565b6004546001600160a01b031633146115f55760405162461bcd60e51b815260206004820152600760248201527f4e4f545f4445560000000000000000000000000000000000000000000000000060448201526064016109e7565b6001600160a01b0383161561177f57600080547fffffffffffffffffffffffff0000000000000000000000000000000000000000166001600160a01b038516908117909155604080517f642a8ed6000000000000000000000000000000000000000000000000000000008152905163642a8ed6916004808201926080929091908290030181865afa15801561168e573d6000803e3d6000fd5b505050506040513d601f19601f820116820180604052508101906116b291906144c4565b60200151600655600054604080517f4d3f733400000000000000000000000000000000000000000000000000000000815290516001600160a01b0390921691634d3f7334916004808201926080929091908290030181865afa15801561171c573d6000803e3d6000fd5b505050506040513d601f19601f820116820180604052508101906117409190614553565b60016020020151600880547fffffffffffffffffffffffff0000000000000000000000000000000000000000166001600160a01b039092169190911790555b6001600160a01b038116156117c257600280547fffffffffffffffffffffffff0000000000000000000000000000000000000000166001600160a01b0383161790555b6001600160a01b0382161561188757600380547fffffffffffffffffffffffff0000000000000000000000000000000000000000166001600160a01b038416908117909155604080517fbd9a548b000000000000000000000000000000000000000000000000000000008152905163bd9a548b916004808201926080929091908290030181865afa15801561185b573d6000803e3d6000fd5b505050506040513d601f19601f8201168201806040525081019061187f91906144c4565b602001516007555b505050565b6002546040516369762fe560e11b81526004810183905260009183916001600160a01b039091169063d2ec5fca90602401602060405180830381865afa1580156118da573d6000803e3d6000fd5b505050506040513d601f19601f820116820180604052508101906118fe91906142a8565b421061193b5760405162461bcd60e51b815260206004820152600c60248201526b1093d39117d156141254915160a21b60448201526064016109e7565b6002546040517f34026859000000000000000000000000000000000000000000000000000000008152600481018590526001600160a01b0390911690633402685990602401602060405180830381865afa15801561199d573d6000803e3d6000fd5b505050506040513d601f19601f82011682018060405250810190610a7791906145b1565b6008546001600160a01b03163314611a1b5760405162461bcd60e51b815260206004820152600d60248201527f4e4f545f5245474953545241520000000000000000000000000000000000000060448201526064016109e7565b6002546040516369762fe560e11b8152600481018490526001600160a01b039091169063d2ec5fca90602401602060405180830381865afa158015611a64573d6000803e3d6000fd5b505050506040513d601f19601f82011682018060405250810190611a8891906142a8565b8111611ad65760405162461bcd60e51b815260206004820152600a60248201527f4241445f4558504952590000000000000000000000000000000000000000000060448201526064016109e7565b6002546040517f39de646900000000000000000000000000000000000000000000000000000000815260048101849052602481018390526001600160a01b03909116906339de646990604401600060405180830381600087803b158015611b3c57600080fd5b505af1158015611b50573d6000803e3d6000fd5b50505050817fa620b72378ee464490805a96e25b53e5c0076f0ce2d28f9691ae255a595b3bf38260405161158f91815260200190565b6004546040516000916001600160a01b03169047908381818185875af1925050503d8060008114611bd3576040519150601f19603f3d011682016040523d82523d6000602084013e611bd8565b606091505b5050905080611c295760405162461bcd60e51b815260206004820152601360248201527f4554485f5452414e534645525f4641494c45440000000000000000000000000060448201526064016109e7565b50565b6002546040516369762fe560e11b81526004810184905283916001600160a01b03169063d2ec5fca90602401602060405180830381865afa158015611c75573d6000803e3d6000fd5b505050506040513d601f19601f82011682018060405250810190611c9991906142a8565b4210611cd65760405162461bcd60e51b815260206004820152600c60248201526b1093d39117d156141254915160a21b60448201526064016109e7565b60015460025460405163f61ccd5360e01b8152600481018490526000926001600160a01b03908116926302571be39291169063f61ccd5390602401602060405180830381865afa158015611d2e573d6000803e3d6000fd5b505050506040513d601f19601f82011682018060405250810190611d5291906142a8565b6040518263ffffffff1660e01b8152600401611d7091815260200190565b602060405180830381865afa158015611d8d573d6000803e3d6000fd5b505050506040513d601f19601f82011682018060405250810190611db191906142c1565b90506001600160a01b0381163314611e0b5760405162461bcd60e51b815260206004820152600960248201527f4e4f545f4f574e4552000000000000000000000000000000000000000000000060448201526064016109e7565b6001546040516302571be360e01b8152600481018590526000916001600160a01b0316906302571be390602401602060405180830381865afa158015611e55573d6000803e3d6000fd5b505050506040513d601f19601f82011682018060405250810190611e7991906142c1565b6001600160a01b031603611ecf5760405162461bcd60e51b815260206004820152600b60248201527f43414e4e4f545f4255524e00000000000000000000000000000000000000000060448201526064016109e7565b6002546040517f8146970a00000000000000000000000000000000000000000000000000000000815260048101869052602481018590526001600160a01b0390911690638146970a90604401600060405180830381600087803b158015611f3557600080fd5b505af1158015611f49573d6000803e3d6000fd5b50505050837f4810581adf2c16a86a375dbb1ed89b0b0f7e64d48d24e1948b3dfe6581e4d79584604051611f7f91815260200190565b60405180910390a250505050565b6002546040516369762fe560e11b81526004810185905284916001600160a01b03169063d2ec5fca90602401602060405180830381865afa158015611fd6573d6000803e3d6000fd5b505050506040513d601f19601f82011682018060405250810190611ffa91906142a8565b42106120375760405162461bcd60e51b815260206004820152600c60248201526b1093d39117d156141254915160a21b60448201526064016109e7565b60025460405163f61ccd5360e01b8152600481018390526000916001600160a01b03169063f61ccd5390602401602060405180830381865afa158015612081573d6000803e3d6000fd5b505050506040513d601f19601f820116820180604052508101906120a591906142a8565b6001546040516302571be360e01b8152600481018390529192506000916001600160a01b03909116906302571be390602401602060405180830381865afa1580156120f4573d6000803e3d6000fd5b505050506040513d601f19601f8201168201806040525081019061211891906142c1565b90506001600160a01b0381163314806121ae575060025460405163dbd4e02160e01b8152600481018590526001600160a01b039091169063dbd4e02190602401602060405180830381865afa158015612175573d6000803e3d6000fd5b505050506040513d601f19601f8201168201806040525081019061219991906142c1565b6001600160a01b0316336001600160a01b0316145b6121fa5760405162461bcd60e51b815260206004820152601760248201527f4e4f545f4f574e45525f4f525f434f4e54524f4c4c455200000000000000000060448201526064016109e7565b6002546040517f0aac66250000000000000000000000000000000000000000000000000000000081526004810188905260009182916001600160a01b0390911690630aac662590602401600060405180830381865afa158015612261573d6000803e3d6000fd5b505050506040513d6000823e601f3d908101601f1916820160405261228991908101906143ff565b909250905061229b60ff871683613f73565b156123ff5760006122af60ff881684613fcc565b9050876001600160a01b03168282815181106122cd576122cd614524565b60200260200101516001600160a01b03160361232b5760405162461bcd60e51b815260206004820152600b60248201527f52554c455f45584953545300000000000000000000000000000000000000000060448201526064016109e7565b6002546040517f83669726000000000000000000000000000000000000000000000000000000008152600481018b90526001600160a01b038a8116602483015260ff8a16604483015290911690638366972690606401600060405180830381600087803b15801561239b57600080fd5b505af11580156123af573d6000803e3d6000fd5b5050604080516001600160a01b038c16815260ff8b1660208201528c93507fe43a78ddf6157361fe34d04905786138f88d3eda20b1f7dc0e2c619f9267310092500160405180910390a250612431565b6040517f7b4e5bfe00000000000000000000000000000000000000000000000000000000815260040160405180910390fd5b5050505050505050565b6002546040516369762fe560e11b81526004810185905284916001600160a01b03169063d2ec5fca90602401602060405180830381865afa158015612484573d6000803e3d6000fd5b505050506040513d601f19601f820116820180604052508101906124a891906142a8565b42106124e55760405162461bcd60e51b815260206004820152600c60248201526b1093d39117d156141254915160a21b60448201526064016109e7565b60025460405163f61ccd5360e01b8152600481018390526000916001600160a01b03169063f61ccd5390602401602060405180830381865afa15801561252f573d6000803e3d6000fd5b505050506040513d601f19601f8201168201806040525081019061255391906142a8565b6001546040516302571be360e01b8152600481018390529192506000916001600160a01b03909116906302571be390602401602060405180830381865afa1580156125a2573d6000803e3d6000fd5b505050506040513d601f19601f820116820180604052508101906125c691906142c1565b90506001600160a01b03811633148061265c575060025460405163dbd4e02160e01b8152600481018590526001600160a01b039091169063dbd4e02190602401602060405180830381865afa158015612623573d6000803e3d6000fd5b505050506040513d601f19601f8201168201806040525081019061264791906142c1565b6001600160a01b0316336001600160a01b0316145b6126a85760405162461bcd60e51b815260206004820152601760248201527f4e4f545f4f574e45525f4f525f434f4e54524f4c4c455200000000000000000060448201526064016109e7565b6126b286856136fb565b6126fe5760405162461bcd60e51b815260206004820152600b60248201527f52554c455f45584953545300000000000000000000000000000000000000000060448201526064016109e7565b6002546040517f849a799c000000000000000000000000000000000000000000000000000000008152600481018890526001600160a01b03878116602483015260ff871660448301529091169063849a799c90606401600060405180830381600087803b15801561276e57600080fd5b505af1158015612782573d6000803e3d6000fd5b5050604080516001600160a01b038916815260ff881660208201528993507fc733a2bc621cc97eef6ed4f708f126e72e6acb76c0a1c0461c9dd31f7b9870659250015b60405180910390a2505050505050565b60025460405163f61ccd5360e01b81526004810184905283916000916001600160a01b039091169063f61ccd5390602401602060405180830381865afa158015612823573d6000803e3d6000fd5b505050506040513d601f19601f8201168201806040525081019061284791906142a8565b6001546040516302571be360e01b8152600481018390529192506000916001600160a01b03909116906302571be390602401602060405180830381865afa158015612896573d6000803e3d6000fd5b505050506040513d601f19601f820116820180604052508101906128ba91906142c1565b6008549091506001600160a01b03163314806128de57506001600160a01b03811633145b80612966575060025460405163dbd4e02160e01b8152600481018590526001600160a01b039091169063dbd4e02190602401602060405180830381865afa15801561292d573d6000803e3d6000fd5b505050506040513d601f19601f8201168201806040525081019061295191906142c1565b6001600160a01b0316336001600160a01b0316145b6129b25760405162461bcd60e51b815260206004820152600e60248201527f4e4f545f415554484f524953454400000000000000000000000000000000000060448201526064016109e7565b6002546040517fa3be52a200000000000000000000000000000000000000000000000000000000815260048101879052602481018690526001600160a01b039091169063a3be52a290604401600060405180830381600087803b158015612a1857600080fd5b505af1158015612a2c573d6000803e3d6000fd5b50505050847f600ffddd29393ca43c0a11fa6b0b7096631364178cb42f9d546c0a2cd22525ee85604051610f8d91815260200190565b6002546040516369762fe560e11b81526004810184905283916001600160a01b03169063d2ec5fca90602401602060405180830381865afa158015612aab573d6000803e3d6000fd5b505050506040513d601f19601f82011682018060405250810190612acf91906142a8565b4210612b0c5760405162461bcd60e51b815260206004820152600c60248201526b1093d39117d156141254915160a21b60448201526064016109e7565b60025460405163f61ccd5360e01b8152600481018390526000916001600160a01b03169063f61ccd5390602401602060405180830381865afa158015612b56573d6000803e3d6000fd5b505050506040513d601f19601f82011682018060405250810190612b7a91906142a8565b6001546040516302571be360e01b8152600481018390529192506000916001600160a01b03909116906302571be390602401602060405180830381865afa158015612bc9573d6000803e3d6000fd5b505050506040513d601f19601f82011682018060405250810190612bed91906142c1565b90506001600160a01b038116331480612c83575060025460405163dbd4e02160e01b8152600481018590526001600160a01b039091169063dbd4e02190602401602060405180830381865afa158015612c4a573d6000803e3d6000fd5b505050506040513d601f19601f82011682018060405250810190612c6e91906142c1565b6001600160a01b0316336001600160a01b0316145b612ccf5760405162461bcd60e51b815260206004820152601760248201527f4e4f545f4f574e45525f4f525f434f4e54524f4c4c455200000000000000000060448201526064016109e7565b6002546040517f0aac6625000000000000000000000000000000000000000000000000000000008152600481018790526000916001600160a01b031690630aac662590602401600060405180830381865afa158015612d32573d6000803e3d6000fd5b505050506040513d6000823e601f3d908101601f19168201604052612d5a91908101906143ff565b509050612d6a60ff861682613f73565b15612e44576000612d7e60ff871683613fcc565b6002546040517f833fda08000000000000000000000000000000000000000000000000000000008152600481018a905260ff89166024820152604481018390529192506001600160a01b03169063833fda0890606401600060405180830381600087803b158015612dee57600080fd5b505af1158015612e02573d6000803e3d6000fd5b505060405160ff891681528992507fbf47c0c608c230f7dffbcf65f8cdc76f5f920e4750eea1dcd09138a7359226ac915060200160405180910390a250612e76565b6040517fe8dd1d3e00000000000000000000000000000000000000000000000000000000815260040160405180910390fd5b505050505050565b6004546001600160a01b03163314612ed85760405162461bcd60e51b815260206004820152600760248201527f4e4f545f4445560000000000000000000000000000000000000000000000000060448201526064016109e7565b7fffffffff000000000000000000000000000000000000000000000000000000008083169003612f4a5760405162461bcd60e51b815260206004820152601a60248201527f494e56414c49445f494e544552464143455f53454c4543544f5200000000000060448201526064016109e7565b7fffffffff0000000000000000000000000000000000000000000000000000000091909116600090815260056020526040902080547fffffffffffffffffffffffffffffffffffffffffffffffffffffffffffffff0016911515919091179055565b60025460405163f61ccd5360e01b81526004810184905283916000916001600160a01b039091169063f61ccd5390602401602060405180830381865afa158015612ffa573d6000803e3d6000fd5b505050506040513d601f19601f8201168201806040525081019061301e91906142a8565b6001546040516302571be360e01b8152600481018390529192506000916001600160a01b03909116906302571be390602401602060405180830381865afa15801561306d573d6000803e3d6000fd5b505050506040513d601f19601f8201168201806040525081019061309191906142c1565b6008549091506001600160a01b03163314806130b557506001600160a01b03811633145b8061313d575060025460405163dbd4e02160e01b8152600481018590526001600160a01b039091169063dbd4e02190602401602060405180830381865afa158015613104573d6000803e3d6000fd5b505050506040513d601f19601f8201168201806040525081019061312891906142c1565b6001600160a01b0316336001600160a01b0316145b6131895760405162461bcd60e51b815260206004820152600e60248201527f4e4f545f415554484f524953454400000000000000000000000000000000000060448201526064016109e7565b6002546040517fd07699aa0000000000000000000000000000000000000000000000000000000081526004810187905285151560248201526001600160a01b039091169063d07699aa90604401600060405180830381600087803b1580156131f057600080fd5b505af1158015613204573d6000803e3d6000fd5b50505050847fe6ccdb52b4954ab2c3e293f1dbfe593e6c5630962a1944bfcf20c5563eeb846285604051610f8d911515815260200190565b6002546040516369762fe560e11b8152600481018390526000916001600160a01b03169063d2ec5fca90602401602060405180830381865afa158015613286573d6000803e3d6000fd5b505050506040513d601f19601f820116820180604052508101906132aa91906142a8565b92915050565b60025460405163f61ccd5360e01b81526004810184905283916000916001600160a01b039091169063f61ccd5390602401602060405180830381865afa1580156132fe573d6000803e3d6000fd5b505050506040513d601f19601f8201168201806040525081019061332291906142a8565b6001546040516302571be360e01b8152600481018390529192506000916001600160a01b03909116906302571be390602401602060405180830381865afa158015613371573d6000803e3d6000fd5b505050506040513d601f19601f8201168201806040525081019061339591906142c1565b6008549091506001600160a01b03163314806133b957506001600160a01b03811633145b80613441575060025460405163dbd4e02160e01b8152600481018590526001600160a01b039091169063dbd4e02190602401602060405180830381865afa158015613408573d6000803e3d6000fd5b505050506040513d601f19601f8201168201806040525081019061342c91906142c1565b6001600160a01b0316336001600160a01b0316145b61348d5760405162461bcd60e51b815260206004820152600e60248201527f4e4f545f415554484f524953454400000000000000000000000000000000000060448201526064016109e7565b6002546040517fd3156905000000000000000000000000000000000000000000000000000000008152600481018790526001600160a01b0386811660248301529091169063d315690590604401600060405180830381600087803b1580156134f457600080fd5b505af1158015613508573d6000803e3d6000fd5b50506040516001600160a01b03871681528792507fe5108446a6097aab57fd36f346a515a78fddefa87d81662d44e0d7a463f920959150602001610f8d565b6002546040516369762fe560e11b81526004810183905260009183916001600160a01b039091169063d2ec5fca90602401602060405180830381865afa158015613595573d6000803e3d6000fd5b505050506040513d601f19601f820116820180604052508101906135b991906142a8565b42106135f65760405162461bcd60e51b815260206004820152600c60248201526b1093d39117d156141254915160a21b60448201526064016109e7565b60025460405163dbd4e02160e01b8152600481018590526001600160a01b039091169063dbd4e02190602401610a36565b6008546001600160a01b031633146136815760405162461bcd60e51b815260206004820152600d60248201527f4e4f545f5245474953545241520000000000000000000000000000000000000060448201526064016109e7565b6002546040517fdeee4da900000000000000000000000000000000000000000000000000000000815260048101849052602481018390526001600160a01b039091169063deee4da990604401600060405180830381600087803b1580156136e757600080fd5b505af1158015612e76573d6000803e3d6000fd5b6002546040517f0aac66250000000000000000000000000000000000000000000000000000000081526004810184905260009182916001600160a01b0390911690630aac662590602401600060405180830381865afa158015613762573d6000803e3d6000fd5b505050506040513d6000823e601f3d908101601f1916820160405261378a91908101906143ff565b50905061379a60ff841682613f73565b15949350505050565b6004546001600160a01b031633146137fd5760405162461bcd60e51b815260206004820152600760248201527f4e4f545f4445560000000000000000000000000000000000000000000000000060448201526064016109e7565b6004546040516001600160a01b038084169216907f8be0079c531659141344cd1fd0a4f28419497f9722a3daafe3b4186f6b6457e090600090a3600480547fffffffffffffffffffffffff0000000000000000000000000000000000000000166001600160a01b0392909216919091179055565b6002546040516369762fe560e11b81526004810184905283916001600160a01b03169063d2ec5fca90602401602060405180830381865afa1580156138ba573d6000803e3d6000fd5b505050506040513d601f19601f820116820180604052508101906138de91906142a8565b421061391b5760405162461bcd60e51b815260206004820152600c60248201526b1093d39117d156141254915160a21b60448201526064016109e7565b60025460405163f61ccd5360e01b8152600481018390526000916001600160a01b03169063f61ccd5390602401602060405180830381865afa158015613965573d6000803e3d6000fd5b505050506040513d601f19601f8201168201806040525081019061398991906142a8565b6001546040516302571be360e01b8152600481018390529192506000916001600160a01b03909116906302571be390602401602060405180830381865afa1580156139d8573d6000803e3d6000fd5b505050506040513d601f19601f820116820180604052508101906139fc91906142c1565b90506001600160a01b038116331480613a92575060025460405163dbd4e02160e01b8152600481018590526001600160a01b039091169063dbd4e02190602401602060405180830381865afa158015613a59573d6000803e3d6000fd5b505050506040513d601f19601f82011682018060405250810190613a7d91906142c1565b6001600160a01b0316336001600160a01b0316145b613ade5760405162461bcd60e51b815260206004820152601760248201527f4e4f545f4f574e45525f4f525f434f4e54524f4c4c455200000000000000000060448201526064016109e7565b6002546040516369762fe560e11b8152600481018790526000916001600160a01b03169063d2ec5fca90602401602060405180830381865afa158015613b28573d6000803e3d6000fd5b505050506040513d601f19601f82011682018060405250810190613b4c91906142a8565b9050808511613b9d5760405162461bcd60e51b815260206004820152600a60248201527f4241445f4558504952590000000000000000000000000000000000000000000060448201526064016109e7565b600754613baa82876145fd565b613bb49190614610565b341015613c035760405162461bcd60e51b815260206004820152601260248201527f494e53554646494349454e545f4554484552000000000000000000000000000060448201526064016109e7565b6002546040517f39de646900000000000000000000000000000000000000000000000000000000815260048101889052602481018790526001600160a01b03909116906339de646990604401600060405180830381600087803b158015613c6957600080fd5b505af1158015613c7d573d6000803e3d6000fd5b50505050857fa620b72378ee464490805a96e25b53e5c0076f0ce2d28f9691ae255a595b3bf3866040516127c591815260200190565b6002546040516369762fe560e11b81526004810183905260009183916001600160a01b039091169063d2ec5fca90602401602060405180830381865afa158015613d01573d6000803e3d6000fd5b505050506040513d601f19601f82011682018060405250810190613d2591906142a8565b4210613d625760405162461bcd60e51b815260206004820152600c60248201526b1093d39117d156141254915160a21b60448201526064016109e7565b60025460405163f61ccd5360e01b8152600481018590526000916001600160a01b03169063f61ccd5390602401602060405180830381865afa158015613dac573d6000803e3d6000fd5b505050506040513d601f19601f82011682018060405250810190613dd091906142a8565b6001546040516302571be360e01b8152600481018390529192506000916001600160a01b03909116906302571be390602401602060405180830381865afa158015613e1f573d6000803e3d6000fd5b505050506040513d601f19601f82011682018060405250810190613e4391906142c1565b9050306001600160a01b03821603613e61575060009250610a7a9050565b509392505050565b6002546040516369762fe560e11b8152600481018390526000916001600160a01b03169063d2ec5fca90602401602060405180830381865afa158015613eb3573d6000803e3d6000fd5b505050506040513d601f19601f82011682018060405250810190613ed791906142a8565b421092915050565b6002546040517f0e68b1160000000000000000000000000000000000000000000000000000000081526004810184905260009183916001600160a01b0390911690630e68b11690602401602060405180830381865afa158015613f46573d6000803e3d6000fd5b505050506040513d601f19601f82011682018060405250810190613f6a91906142a8565b14159392505050565b6000805b8251811015613fc2578360ff16838281518110613f9657613f96614524565b602002602001015160ff1603613fb05760019150506132aa565b80613fba8161464d565b915050613f77565b5060009392505050565b6000805b8251811015613fc2578360ff16838281518110613fef57613fef614524565b602002602001015160ff16036140065790506132aa565b806140108161464d565b915050613fd0565b60006020828403121561402a57600080fd5b5035919050565b80357fffffffff000000000000000000000000000000000000000000000000000000008116811461406157600080fd5b919050565b60006020828403121561407857600080fd5b61408182614031565b9392505050565b604080825283519082018190526000906020906060840190828701845b828110156140c457815160ff16845292840192908401906001016140a5565b5050508381038285015284518082528583019183019060005b818110156141025783516001600160a01b0316835292840192918401916001016140dd565b5090979650505050505050565b6001600160a01b0381168114611c2957600080fd5b6000806040838503121561413757600080fd5b8235915060208301356141498161410f565b809150509250929050565b6000806040838503121561416757600080fd5b50508035926020909101359150565b60008060006060848603121561418b57600080fd5b83356141968161410f565b925060208401356141a68161410f565b915060408401356141b68161410f565b809150509250925092565b60ff81168114611c2957600080fd5b6000806000606084860312156141e557600080fd5b8335925060208401356141f78161410f565b915060408401356141b6816141c1565b6000806040838503121561421a57600080fd5b823591506020830135614149816141c1565b8015158114611c2957600080fd5b6000806040838503121561424d57600080fd5b61425683614031565b915060208301356141498161422c565b6000806040838503121561427957600080fd5b8235915060208301356141498161422c565b60006020828403121561429d57600080fd5b81356140818161410f565b6000602082840312156142ba57600080fd5b5051919050565b6000602082840312156142d357600080fd5b81516140818161410f565b7f4e487b7100000000000000000000000000000000000000000000000000000000600052604160045260246000fd5b6040516080810167ffffffffffffffff81118282101715614330576143306142de565b60405290565b604051601f8201601f1916810167ffffffffffffffff8111828210171561435f5761435f6142de565b604052919050565b600067ffffffffffffffff821115614381576143816142de565b5060051b60200190565b600082601f83011261439c57600080fd5b815160206143b16143ac83614367565b614336565b82815260059290921b840181019181810190868411156143d057600080fd5b8286015b848110156143f45780516143e78161410f565b83529183019183016143d4565b509695505050505050565b6000806040838503121561441257600080fd5b825167ffffffffffffffff8082111561442a57600080fd5b818501915085601f83011261443e57600080fd5b8151602061444e6143ac83614367565b82815260059290921b8401810191818101908984111561446d57600080fd5b948201945b83861015614494578551614485816141c1565b82529482019490820190614472565b918801519196509093505050808211156144ad57600080fd5b506144ba8582860161438b565b9150509250929050565b6000608082840312156144d657600080fd5b82601f8301126144e557600080fd5b6144ed61430d565b8060808401858111156144ff57600080fd5b845b81811015614519578051845260209384019301614501565b509095945050505050565b7f4e487b7100000000000000000000000000000000000000000000000000000000600052603260045260246000fd5b60006080828403121561456557600080fd5b82601f83011261457457600080fd5b61457c61430d565b80608084018581111561458e57600080fd5b845b818110156145195780516145a38161410f565b845260209384019301614590565b6000602082840312156145c357600080fd5b81516140818161422c565b7f4e487b7100000000000000000000000000000000000000000000000000000000600052601160045260246000fd5b818103818111156132aa576132aa6145ce565b6000817fffffffffffffffffffffffffffffffffffffffffffffffffffffffffffffffff0483118215151615614648576146486145ce565b500290565b60007fffffffffffffffffffffffffffffffffffffffffffffffffffffffffffffffff820361467e5761467e6145ce565b506001019056fea26469706673582212206533d66157614ba2633023d8a1d482cb88d13eec43b9614991c32356ac49d7ad64736f6c63430008100033",
    "linkReferences": {}
  },
  "methodIdentifiers": {
    "Bonds(bytes32)": "63a44e69",
    "Dev()": "01e51ae8",
    "HELIX2()": "b782426e",
    "NAMES()": "05e84aa0",
    "PRICES()": "1eabcd34",
    "Registrar()": "b9f37c86",
    "STORE()": "507f1465",
    "active()": "02fb0c5e",
    "anion(bytes32)": "0e68b116",
    "basePrice()": "c7876ea4",
    "cation(bytes32)": "f61ccd53",
    "controller(bytes32)": "dbd4e021",
    "covalence(bytes32)": "34026859",
    "expiry(bytes32)": "d2ec5fca",
    "hook(bytes32,address,uint8)": "849a799c",
    "hooksWithRules(bytes32)": "0aac6625",
    "isNotDuplicateAnion(bytes32,bytes32)": "f8c91244",
    "isNotDuplicateRule(bytes32,uint8)": "e79eaa26",
    "label(bytes32)": "1fc4859e",
    "owner()": "8da5cb5b",
    "recordExists(bytes32)": "f79fe538",
    "register(bytes32,bytes32)": "2f926732",
    "rehook(bytes32,address,uint8)": "83669726",
    "renew(bytes32,uint256)": "f544d82f",
    "resolver(bytes32)": "0178b8bf",
    "roothash()": "251c9422",
    "setAnion(bytes32,bytes32)": "a3be52a2",
    "setCation(bytes32,bytes32)": "8146970a",
    "setConfig(address,address,address)": "3141e25b",
    "setController(bytes32,address)": "d3156905",
    "setCovalence(bytes32,bool)": "d07699aa",
    "setExpiry(bytes32,uint256)": "39de6469",
    "setInterface(bytes4,bool)": "c0a43a7c",
    "setLabel(bytes32,bytes32)": "deee4da9",
    "setResolver(bytes32,address)": "1896f70a",
    "supportedInterfaces(bytes4)": "1584ba38",
    "supportsInterface(bytes4)": "01ffc9a7",
    "theEnd()": "22b68deb",
    "toggleActive()": "29c68dc1",
    "transferOwnership(address)": "f2fde38b",
    "unhook(bytes32,uint8)": "b612e9b9",
    "unhookAll(bytes32)": "21ec2b5b",
    "withdrawEther()": "7362377b"
  },
  "id": 18
}