{
  "abi": [
    {
      "inputs": [
        {
          "internalType": "address",
          "name": "_registry",
          "type": "address"
        },
        {
          "internalType": "address",
          "name": "_helix2",
          "type": "address"
        }
      ],
      "stateMutability": "nonpayable",
      "type": "constructor"
    },
    {
      "anonymous": false,
      "inputs": [
        {
          "indexed": true,
          "internalType": "address",
          "name": "cation",
          "type": "address"
        },
        {
          "indexed": true,
          "internalType": "address",
          "name": "operator",
          "type": "address"
        },
        {
          "indexed": false,
          "internalType": "bool",
          "name": "approved",
          "type": "bool"
        }
      ],
      "name": "ApprovalForAll",
      "type": "event"
    },
    {
      "anonymous": false,
      "inputs": [
        {
          "indexed": true,
          "internalType": "bytes32",
          "name": "bondhash",
          "type": "bytes32"
        },
        {
          "indexed": false,
          "internalType": "address",
          "name": "config",
          "type": "address"
        },
        {
          "indexed": false,
          "internalType": "uint8",
          "name": "rule",
          "type": "uint8"
        }
      ],
      "name": "Hooked",
      "type": "event"
    },
    {
      "anonymous": false,
      "inputs": [
        {
          "indexed": true,
          "internalType": "bytes32",
          "name": "bondhash",
          "type": "bytes32"
        },
        {
          "indexed": false,
          "internalType": "bytes32",
          "name": "_alias",
          "type": "bytes32"
        }
      ],
      "name": "NewAlias",
      "type": "event"
    },
    {
      "anonymous": false,
      "inputs": [
        {
          "indexed": true,
          "internalType": "bytes32",
          "name": "bondhash",
          "type": "bytes32"
        },
        {
          "indexed": false,
          "internalType": "bytes32",
          "name": "anion",
          "type": "bytes32"
        }
      ],
      "name": "NewAnion",
      "type": "event"
    },
    {
      "anonymous": false,
      "inputs": [
        {
          "indexed": true,
          "internalType": "bytes32",
          "name": "bondhash",
          "type": "bytes32"
        },
        {
          "indexed": false,
          "internalType": "bytes32",
          "name": "cation",
          "type": "bytes32"
        }
      ],
      "name": "NewBond",
      "type": "event"
    },
    {
      "anonymous": false,
      "inputs": [
        {
          "indexed": true,
          "internalType": "bytes32",
          "name": "bondhash",
          "type": "bytes32"
        },
        {
          "indexed": false,
          "internalType": "bytes32",
          "name": "cation",
          "type": "bytes32"
        }
      ],
      "name": "NewCation",
      "type": "event"
    },
    {
      "anonymous": false,
      "inputs": [
        {
          "indexed": true,
          "internalType": "bytes32",
          "name": "bondhash",
          "type": "bytes32"
        },
        {
          "indexed": false,
          "internalType": "address",
          "name": "controller",
          "type": "address"
        }
      ],
      "name": "NewController",
      "type": "event"
    },
    {
      "anonymous": false,
      "inputs": [
        {
          "indexed": true,
          "internalType": "bytes32",
          "name": "bondhash",
          "type": "bytes32"
        },
        {
          "indexed": false,
          "internalType": "bool",
          "name": "covalence",
          "type": "bool"
        }
      ],
      "name": "NewCovalence",
      "type": "event"
    },
    {
      "anonymous": false,
      "inputs": [
        {
          "indexed": false,
          "internalType": "address",
          "name": "Dev",
          "type": "address"
        },
        {
          "indexed": false,
          "internalType": "address",
          "name": "newDev",
          "type": "address"
        }
      ],
      "name": "NewDev",
      "type": "event"
    },
    {
      "anonymous": false,
      "inputs": [
        {
          "indexed": true,
          "internalType": "bytes32",
          "name": "bondhash",
          "type": "bytes32"
        },
        {
          "indexed": false,
          "internalType": "uint256",
          "name": "expiry",
          "type": "uint256"
        }
      ],
      "name": "NewExpiry",
      "type": "event"
    },
    {
      "anonymous": false,
      "inputs": [
        {
          "indexed": true,
          "internalType": "bytes32",
          "name": "bondhash",
          "type": "bytes32"
        },
        {
          "indexed": false,
          "internalType": "address",
          "name": "resolver",
          "type": "address"
        }
      ],
      "name": "NewRecord",
      "type": "event"
    },
    {
      "anonymous": false,
      "inputs": [
        {
          "indexed": true,
          "internalType": "bytes32",
          "name": "bondhash",
          "type": "bytes32"
        },
        {
          "indexed": false,
          "internalType": "bytes32",
          "name": "cation",
          "type": "bytes32"
        }
      ],
      "name": "NewRegistration",
      "type": "event"
    },
    {
      "anonymous": false,
      "inputs": [
        {
          "indexed": true,
          "internalType": "bytes32",
          "name": "bondhash",
          "type": "bytes32"
        },
        {
          "indexed": false,
          "internalType": "address",
          "name": "resolver",
          "type": "address"
        }
      ],
      "name": "NewResolver",
      "type": "event"
    },
    {
      "anonymous": false,
      "inputs": [
        {
          "indexed": true,
          "internalType": "bytes32",
          "name": "bondhash",
          "type": "bytes32"
        },
        {
          "indexed": false,
          "internalType": "address",
          "name": "config",
          "type": "address"
        },
        {
          "indexed": false,
          "internalType": "uint8",
          "name": "rule",
          "type": "uint8"
        }
      ],
      "name": "Rehooked",
      "type": "event"
    },
    {
      "anonymous": false,
      "inputs": [
        {
          "indexed": true,
          "internalType": "bytes32",
          "name": "bondhash",
          "type": "bytes32"
        },
        {
          "indexed": false,
          "internalType": "address",
          "name": "config",
          "type": "address"
        }
      ],
      "name": "Unhooked",
      "type": "event"
    },
    {
      "anonymous": false,
      "inputs": [
        {
          "indexed": true,
          "internalType": "bytes32",
          "name": "bondhash",
          "type": "bytes32"
        }
      ],
      "name": "UnhookedAll",
      "type": "event"
    },
    {
      "inputs": [
        {
          "internalType": "bytes32",
          "name": "",
          "type": "bytes32"
        }
      ],
      "name": "Bonds",
      "outputs": [
        {
          "internalType": "bytes32",
          "name": "_cation",
          "type": "bytes32"
        },
        {
          "internalType": "bytes32",
          "name": "_anion",
          "type": "bytes32"
        },
        {
          "internalType": "bytes32",
          "name": "_alias",
          "type": "bytes32"
        },
        {
          "internalType": "address",
          "name": "_resolver",
          "type": "address"
        },
        {
          "internalType": "address",
          "name": "_controller",
          "type": "address"
        },
        {
          "internalType": "bool",
          "name": "_covalence",
          "type": "bool"
        },
        {
          "internalType": "uint256",
          "name": "_expiry",
          "type": "uint256"
        }
      ],
      "stateMutability": "view",
      "type": "function"
    },
    {
      "inputs": [],
      "name": "Dev",
      "outputs": [
        {
          "internalType": "address",
          "name": "",
          "type": "address"
        }
      ],
      "stateMutability": "view",
      "type": "function"
    },
    {
      "inputs": [],
      "name": "HELIX2",
      "outputs": [
        {
          "internalType": "contract iHELIX2",
          "name": "",
          "type": "address"
        }
      ],
      "stateMutability": "view",
      "type": "function"
    },
    {
      "inputs": [],
      "name": "NAMES",
      "outputs": [
        {
          "internalType": "contract iNAME",
          "name": "",
          "type": "address"
        }
      ],
      "stateMutability": "view",
      "type": "function"
    },
    {
      "inputs": [],
      "name": "Registrar",
      "outputs": [
        {
          "internalType": "address",
          "name": "",
          "type": "address"
        }
      ],
      "stateMutability": "view",
      "type": "function"
    },
    {
      "inputs": [],
      "name": "active",
      "outputs": [
        {
          "internalType": "bool",
          "name": "",
          "type": "bool"
        }
      ],
      "stateMutability": "view",
      "type": "function"
    },
    {
      "inputs": [
        {
          "internalType": "bytes32",
          "name": "bondhash",
          "type": "bytes32"
        }
      ],
      "name": "alias_",
      "outputs": [
        {
          "internalType": "bytes32",
          "name": "",
          "type": "bytes32"
        }
      ],
      "stateMutability": "view",
      "type": "function"
    },
    {
      "inputs": [
        {
          "internalType": "bytes32",
          "name": "bondhash",
          "type": "bytes32"
        }
      ],
      "name": "anion",
      "outputs": [
        {
          "internalType": "bytes32",
          "name": "",
          "type": "bytes32"
        }
      ],
      "stateMutability": "view",
      "type": "function"
    },
    {
      "inputs": [],
      "name": "basePrice",
      "outputs": [
        {
          "internalType": "uint256",
          "name": "",
          "type": "uint256"
        }
      ],
      "stateMutability": "view",
      "type": "function"
    },
    {
      "inputs": [
        {
          "internalType": "bytes32",
          "name": "bondhash",
          "type": "bytes32"
        }
      ],
      "name": "cation",
      "outputs": [
        {
          "internalType": "bytes32",
          "name": "",
          "type": "bytes32"
        }
      ],
      "stateMutability": "view",
      "type": "function"
    },
    {
      "inputs": [
        {
          "internalType": "address",
          "name": "newDev",
          "type": "address"
        }
      ],
      "name": "changeDev",
      "outputs": [],
      "stateMutability": "nonpayable",
      "type": "function"
    },
    {
      "inputs": [
        {
          "internalType": "bytes32",
          "name": "bondhash",
          "type": "bytes32"
        }
      ],
      "name": "controller",
      "outputs": [
        {
          "internalType": "address",
          "name": "",
          "type": "address"
        }
      ],
      "stateMutability": "view",
      "type": "function"
    },
    {
      "inputs": [
        {
          "internalType": "bytes32",
          "name": "bondhash",
          "type": "bytes32"
        }
      ],
      "name": "covalence",
      "outputs": [
        {
          "internalType": "bool",
          "name": "",
          "type": "bool"
        }
      ],
      "stateMutability": "view",
      "type": "function"
    },
    {
      "inputs": [
        {
          "internalType": "bytes32",
          "name": "bondhash",
          "type": "bytes32"
        }
      ],
      "name": "expiry",
      "outputs": [
        {
          "internalType": "uint256",
          "name": "",
          "type": "uint256"
        }
      ],
      "stateMutability": "view",
      "type": "function"
    },
    {
      "inputs": [
        {
          "internalType": "bytes32",
          "name": "bondhash",
          "type": "bytes32"
        },
        {
          "internalType": "uint8",
          "name": "rule",
          "type": "uint8"
        },
        {
          "internalType": "address",
          "name": "config",
          "type": "address"
        }
      ],
      "name": "hook",
      "outputs": [],
      "stateMutability": "nonpayable",
      "type": "function"
    },
    {
      "inputs": [
        {
          "internalType": "bytes32",
          "name": "bondhash",
          "type": "bytes32"
        }
      ],
      "name": "hooksWithRules",
      "outputs": [
        {
          "internalType": "address[]",
          "name": "",
          "type": "address[]"
        },
        {
          "internalType": "uint8[]",
          "name": "",
          "type": "uint8[]"
        }
      ],
      "stateMutability": "view",
      "type": "function"
    },
    {
      "inputs": [
        {
          "internalType": "bytes32",
          "name": "_cation",
          "type": "bytes32"
        },
        {
          "internalType": "address",
          "name": "operator",
          "type": "address"
        }
      ],
      "name": "isApprovedForAll",
      "outputs": [
        {
          "internalType": "bool",
          "name": "",
          "type": "bool"
        }
      ],
      "stateMutability": "view",
      "type": "function"
    },
    {
      "inputs": [
        {
          "internalType": "bytes32",
          "name": "bondhash",
          "type": "bytes32"
        },
        {
          "internalType": "bytes32",
          "name": "newAnion",
          "type": "bytes32"
        }
      ],
      "name": "isNotDuplicateAnion",
      "outputs": [
        {
          "internalType": "bool",
          "name": "",
          "type": "bool"
        }
      ],
      "stateMutability": "view",
      "type": "function"
    },
    {
      "inputs": [
        {
          "internalType": "bytes32",
          "name": "bondhash",
          "type": "bytes32"
        },
        {
          "internalType": "address",
          "name": "config",
          "type": "address"
        }
      ],
      "name": "isNotDuplicateHook",
      "outputs": [
        {
          "internalType": "bool",
          "name": "",
          "type": "bool"
        }
      ],
      "stateMutability": "view",
      "type": "function"
    },
    {
      "inputs": [
        {
          "internalType": "bytes32",
          "name": "bondhash",
          "type": "bytes32"
        }
      ],
      "name": "recordExists",
      "outputs": [
        {
          "internalType": "bool",
          "name": "",
          "type": "bool"
        }
      ],
      "stateMutability": "view",
      "type": "function"
    },
    {
      "inputs": [
        {
          "internalType": "bytes32",
          "name": "bondhash",
          "type": "bytes32"
        },
        {
          "internalType": "bytes32",
          "name": "_cation",
          "type": "bytes32"
        }
      ],
      "name": "register",
      "outputs": [],
      "stateMutability": "nonpayable",
      "type": "function"
    },
    {
      "inputs": [
        {
          "internalType": "bytes32",
          "name": "bondhash",
          "type": "bytes32"
        },
        {
          "internalType": "uint8",
          "name": "rule",
          "type": "uint8"
        },
        {
          "internalType": "address",
          "name": "config",
          "type": "address"
        }
      ],
      "name": "rehook",
      "outputs": [],
      "stateMutability": "nonpayable",
      "type": "function"
    },
    {
      "inputs": [
        {
          "internalType": "bytes32",
          "name": "bondhash",
          "type": "bytes32"
        }
      ],
      "name": "resolver",
      "outputs": [
        {
          "internalType": "address",
          "name": "",
          "type": "address"
        }
      ],
      "stateMutability": "view",
      "type": "function"
    },
    {
      "inputs": [],
      "name": "roothash",
      "outputs": [
        {
          "internalType": "bytes32",
          "name": "",
          "type": "bytes32"
        }
      ],
      "stateMutability": "view",
      "type": "function"
    },
    {
      "inputs": [
        {
          "internalType": "bytes32",
          "name": "bondhash",
          "type": "bytes32"
        },
        {
          "internalType": "bytes32",
          "name": "_alias",
          "type": "bytes32"
        }
      ],
      "name": "setAlias",
      "outputs": [],
      "stateMutability": "nonpayable",
      "type": "function"
    },
    {
      "inputs": [
        {
          "internalType": "bytes32",
          "name": "bondhash",
          "type": "bytes32"
        },
        {
          "internalType": "bytes32",
          "name": "_anion",
          "type": "bytes32"
        }
      ],
      "name": "setAnion",
      "outputs": [],
      "stateMutability": "nonpayable",
      "type": "function"
    },
    {
      "inputs": [
        {
          "internalType": "address",
          "name": "operator",
          "type": "address"
        },
        {
          "internalType": "bool",
          "name": "approved",
          "type": "bool"
        }
      ],
      "name": "setApprovalForAll",
      "outputs": [],
      "stateMutability": "nonpayable",
      "type": "function"
    },
    {
      "inputs": [
        {
          "internalType": "bytes32",
          "name": "bondhash",
          "type": "bytes32"
        },
        {
          "internalType": "bytes32",
          "name": "_cation",
          "type": "bytes32"
        }
      ],
      "name": "setCation",
      "outputs": [],
      "stateMutability": "nonpayable",
      "type": "function"
    },
    {
      "inputs": [
        {
          "internalType": "bytes32",
          "name": "bondhash",
          "type": "bytes32"
        },
        {
          "internalType": "address",
          "name": "_controller",
          "type": "address"
        }
      ],
      "name": "setController",
      "outputs": [],
      "stateMutability": "nonpayable",
      "type": "function"
    },
    {
      "inputs": [
        {
          "internalType": "bytes32",
          "name": "bondhash",
          "type": "bytes32"
        },
        {
          "internalType": "bool",
          "name": "_covalence",
          "type": "bool"
        }
      ],
      "name": "setCovalence",
      "outputs": [],
      "stateMutability": "nonpayable",
      "type": "function"
    },
    {
      "inputs": [
        {
          "internalType": "bytes32",
          "name": "bondhash",
          "type": "bytes32"
        },
        {
          "internalType": "uint256",
          "name": "_expiry",
          "type": "uint256"
        }
      ],
      "name": "setExpiry",
      "outputs": [],
      "stateMutability": "payable",
      "type": "function"
    },
    {
      "inputs": [
        {
          "internalType": "bytes32",
          "name": "bondhash",
          "type": "bytes32"
        },
        {
          "internalType": "address",
          "name": "_resolver",
          "type": "address"
        }
      ],
      "name": "setRecord",
      "outputs": [],
      "stateMutability": "nonpayable",
      "type": "function"
    },
    {
      "inputs": [
        {
          "internalType": "bytes32",
          "name": "bondhash",
          "type": "bytes32"
        },
        {
          "internalType": "address",
          "name": "_resolver",
          "type": "address"
        }
      ],
      "name": "setResolver",
      "outputs": [],
      "stateMutability": "nonpayable",
      "type": "function"
    },
    {
      "inputs": [],
      "name": "theEnd",
      "outputs": [
        {
          "internalType": "uint256",
          "name": "",
          "type": "uint256"
        }
      ],
      "stateMutability": "view",
      "type": "function"
    },
    {
      "inputs": [
        {
          "internalType": "bytes32",
          "name": "bondhash",
          "type": "bytes32"
        },
        {
          "internalType": "address",
          "name": "config",
          "type": "address"
        }
      ],
      "name": "unhook",
      "outputs": [],
      "stateMutability": "nonpayable",
      "type": "function"
    },
    {
      "inputs": [
        {
          "internalType": "bytes32",
          "name": "bondhash",
          "type": "bytes32"
        }
      ],
      "name": "unhookAll",
      "outputs": [],
      "stateMutability": "nonpayable",
      "type": "function"
    },
    {
      "inputs": [],
      "name": "withdrawEther",
      "outputs": [],
      "stateMutability": "nonpayable",
      "type": "function"
    }
  ],
  "bytecode": {
    "object": "0x60806040526002805460ff60a01b1916600160a01b1790556703782dace9d900006006553480156200003057600080fd5b506040516200403c3803806200403c8339810160408190526200005391620006e0565b60028054336001600160a01b0319918216179091556000805482166001600160a01b03848116918217909255600180549093169185169190911790915560408051633215476b60e11b8152905163642a8ed6916004808201926080929091908290030181865afa158015620000cc573d6000803e3d6000fd5b505050506040513d601f19601f82011682018060405250810190620000f291906200074f565b602001516003556000546040805163bd9a548b60e01b815290516001600160a01b039092169163bd9a548b916004808201926080929091908290030181865afa15801562000144573d6000803e3d6000fd5b505050506040513d601f19601f820116820180604052508101906200016a91906200074f565b602001516004556200017b62000183565b5050620007f4565b7fb4b4801cca1cad359bff6b5ea99d95160f00cbe1164fb7231c42c3e8b5f2593b805460ff19169055604080516020818101909252600080825280526007909152620001f3907f6d5257204ebe7d88fd91ae87941cb2dd9d8062b64ae5a2bd2d28ec40b9fbf6df90600162000642565b50600080805260076020527f6d5257204ebe7d88fd91ae87941cb2dd9d8062b64ae5a2bd2d28ec40b9fbf6e18190557f6d5257204ebe7d88fd91ae87941cb2dd9d8062b64ae5a2bd2d28ec40b9fbf6e28190557f6d5257204ebe7d88fd91ae87941cb2dd9d8062b64ae5a2bd2d28ec40b9fbf6e38190557f6d5257204ebe7d88fd91ae87941cb2dd9d8062b64ae5a2bd2d28ec40b9fbf6e580546006547f6d5257204ebe7d88fd91ae87941cb2dd9d8062b64ae5a2bd2d28ec40b9fbf6e6556001600160a81b03191633908117600160a01b179091557f6d5257204ebe7d88fd91ae87941cb2dd9d8062b64ae5a2bd2d28ec40b9fbf6e480546001600160a01b0319169091179055805460408051633215476b60e11b815290516001600160a01b03929092169163642a8ed6916004818101926080929091908290030181865afa15801562000346573d6000803e3d6000fd5b505050506040513d601f19601f820116820180604052508101906200036c91906200074f565b905060005b60048110156200063e57600060076000848460048110620003965762000396620007b6565b60209081029190910151825281810192909252604090810160009081208180526001018352818120805460ff191660ff95909516949094179093558051918201905281815290600790848460048110620003f457620003f4620007b6565b602002015181526020019081526020016000206000019060016200041a92919062000642565b50818160048110620004305762000430620007b6565b6020020151600760008484600481106200044e576200044e620007b6565b60200201518152602001908152602001600020600201819055508181600481106200047d576200047d620007b6565b6020020151600760008484600481106200049b576200049b620007b6565b6020020151815260200190815260200160002060030181905550818160048110620004ca57620004ca620007b6565b602002015160076000848460048110620004e857620004e8620007b6565b60200201518152602001908152602001600020600401819055506001600760008484600481106200051d576200051d620007b6565b6020020151815260200190815260200160002060060160146101000a81548160ff02191690831515021790555060065460076000848460048110620005665762000566620007b6565b602002015181526020019081526020016000206007018190555033600760008484600481106200059a576200059a620007b6565b6020020151815260200190815260200160002060060160006101000a8154816001600160a01b0302191690836001600160a01b031602179055503360076000848460048110620005ee57620005ee620007b6565b6020020151815260200190815260200160002060050160006101000a8154816001600160a01b0302191690836001600160a01b0316021790555080806200063590620007cc565b91505062000371565b5050565b8280548282559060005260206000209081019282156200069a579160200282015b828111156200069a57825182546001600160a01b0319166001600160a01b0390911617825560209092019160019091019062000663565b50620006a8929150620006ac565b5090565b5b80821115620006a85760008155600101620006ad565b80516001600160a01b0381168114620006db57600080fd5b919050565b60008060408385031215620006f457600080fd5b620006ff83620006c3565b91506200070f60208401620006c3565b90509250929050565b604051608081016001600160401b03811182821017156200074957634e487b7160e01b600052604160045260246000fd5b60405290565b6000608082840312156200076257600080fd5b82601f8301126200077257600080fd5b6200077c62000718565b8060808401858111156200078f57600080fd5b845b81811015620007ab57805184526020938401930162000791565b509095945050505050565b634e487b7160e01b600052603260045260246000fd5b600060018201620007ed57634e487b7160e01b600052601160045260246000fd5b5060010190565b61383880620008046000396000f3fe60806040526004361061026a5760003560e01c806363a44e6911610153578063c5bc4c0b116100cb578063d9b76ed41161007f578063f61ccd5311610064578063f61ccd5314610785578063f79fe538146107a5578063f8c91244146107d857600080fd5b8063d9b76ed414610745578063dbd4e0211461076557600080fd5b8063d07699aa116100b0578063d07699aa146106d4578063d2ec5fca146106f4578063d31569051461072557600080fd5b8063c5bc4c0b1461069e578063c7876ea4146106be57600080fd5b8063a22cb46511610122578063b069862811610107578063b06986281461063e578063b782426e1461065e578063b9f37c861461067e57600080fd5b8063a22cb465146105fe578063a3be52a21461061e57600080fd5b806363a44e69146104eb5780637362377b146105a95780638146970a146105be57806388a8c95c146105de57600080fd5b80631f06e91c116101e6578063251c9422116101b5578063340268591161019a578063340268591461049857806339de6469146104b857806351a76442146104cb57600080fd5b8063251c9422146104625780632f9267321461047857600080fd5b80631f06e91c146103ec57806321ec2b5b1461040c57806322b68deb1461042c578063241270d51461044257600080fd5b8063049a491c1161023d5780630aac6625116102225780630aac6625146103705780630e68b1161461039e5780631896f70a146103cc57600080fd5b8063049a491c1461033057806305e84aa01461035057600080fd5b8063015399e61461026f5780630178b8bf1461029157806301e51ae8146102ce57806302fb0c5e146102ee575b600080fd5b34801561027b57600080fd5b5061028f61028a366004613372565b61080b565b005b34801561029d57600080fd5b506102b16102ac3660046133ba565b610a70565b6040516001600160a01b0390911681526020015b60405180910390f35b3480156102da57600080fd5b506002546102b1906001600160a01b031681565b3480156102fa57600080fd5b506002546103209074010000000000000000000000000000000000000000900460ff1681565b60405190151581526020016102c5565b34801561033c57600080fd5b5061032061034b3660046133d3565b610af6565b34801561035c57600080fd5b506001546102b1906001600160a01b031681565b34801561037c57600080fd5b5061039061038b3660046133ba565b610ba8565b6040516102c5929190613403565b3480156103aa57600080fd5b506103be6103b93660046133ba565b610d6e565b6040519081526020016102c5565b3480156103d857600080fd5b5061028f6103e73660046133d3565b610de7565b3480156103f857600080fd5b5061028f61040736600461348a565b611037565b34801561041857600080fd5b5061028f6104273660046133ba565b611257565b34801561043857600080fd5b506103be60065481565b34801561044e57600080fd5b5061028f61045d3660046133d3565b611602565b34801561046e57600080fd5b506103be60035481565b34801561048457600080fd5b5061028f61049336600461348a565b611a41565b3480156104a457600080fd5b506103206104b33660046133ba565b611c85565b61028f6104c636600461348a565b611d19565b3480156104d757600080fd5b5061028f6104e6366004613372565b6120c1565b3480156104f757600080fd5b506105696105063660046133ba565b60076020819052600091825260409091206002810154600382015460048301546005840154600685015494909501549294919390926001600160a01b039283169282169174010000000000000000000000000000000000000000900460ff169087565b604080519788526020880196909652948601939093526001600160a01b039182166060860152166080840152151560a083015260c082015260e0016102c5565b3480156105b557600080fd5b5061028f61231f565b3480156105ca57600080fd5b5061028f6105d936600461348a565b6123c5565b3480156105ea57600080fd5b5061028f6105f93660046134ac565b61263c565b34801561060a57600080fd5b5061028f6106193660046134de565b61270c565b34801561062a57600080fd5b5061028f61063936600461348a565b612778565b34801561064a57600080fd5b506103206106593660046133d3565b612998565b34801561066a57600080fd5b506000546102b1906001600160a01b031681565b34801561068a57600080fd5b506005546102b1906001600160a01b031681565b3480156106aa57600080fd5b506103be6106b93660046133ba565b612a3c565b3480156106ca57600080fd5b506103be60045481565b3480156106e057600080fd5b5061028f6106ef36600461350c565b612ab5565b34801561070057600080fd5b506103be61070f3660046133ba565b6000908152600760208190526040909120015490565b34801561073157600080fd5b5061028f6107403660046133d3565b612d17565b34801561075157600080fd5b5061028f6107603660046133d3565b612f5c565b34801561077157600080fd5b506102b16107803660046133ba565b6131a1565b34801561079157600080fd5b506103be6107a03660046133ba565b613223565b3480156107b157600080fd5b506103206107c03660046133ba565b60009081526007602081905260409091200154421090565b3480156107e457600080fd5b506103206107f336600461348a565b60009182526007602052604090912060030154141590565b60008381526007602081905260409091200154839042106108735760405162461bcd60e51b815260206004820152600c60248201527f424f4e445f45585049524544000000000000000000000000000000000000000060448201526064015b60405180910390fd5b6000818152600760205260408082206002015460015491516302571be360e01b8152600481018290529092916001600160a01b0316906302571be390602401602060405180830381865afa1580156108cf573d6000803e3d6000fd5b505050506040513d601f19601f820116820180604052508101906108f39190613541565b90506001600160a01b03811633148061092f57506001600160a01b038116600090815260086020908152604080832033845290915290205460ff165b61097b5760405162461bcd60e51b815260206004820152600960248201527f4e4f545f4f574e45520000000000000000000000000000000000000000000000604482015260640161086a565b60008681526007602090815260408083206001600160a01b038816845260010190915290205460ff8087169116036109f55760405162461bcd60e51b815260206004820152600b60248201527f52554c455f455849535453000000000000000000000000000000000000000000604482015260640161086a565b60008681526007602090815260408083206001600160a01b0388168085526001909101835292819020805460ff191660ff8a1690811790915581519384529183019190915287917fe43a78ddf6157361fe34d04905786138f88d3eda20b1f7dc0e2c619f9267310091015b60405180910390a2505050505050565b60008181526007602081905260408220015482904210610ad25760405162461bcd60e51b815260206004820152600c60248201527f424f4e445f455850495245440000000000000000000000000000000000000000604482015260640161086a565b6000838152600760205260409020600501546001600160a01b031691505b50919050565b60008281526007602052604080822090517f2306f46600000000000000000000000000000000000000000000000000000000815273__$47e4ffaaf323c41735ff299f8946896ce0$__91632306f46691610b5d916001600160a01b0387169160040161355e565b602060405180830381865af4158015610b7a573d6000803e3d6000fd5b505050506040513d601f19601f82011682018060405250810190610b9e91906135be565b1590505b92915050565b6060808260076000828152602001908152602001600020600701544210610c115760405162461bcd60e51b815260206004820152600c60248201527f424f4e445f455850495245440000000000000000000000000000000000000000604482015260640161086a565b600084815260076020908152604080832080548251818502810185019093528083529192909190830182828015610c7157602002820191906000526020600020905b81546001600160a01b03168152600190910190602001808311610c53575b505050505090506000815167ffffffffffffffff811115610c9457610c946135db565b604051908082528060200260200182016040528015610cbd578160200160208202803683370190505b50905060005b8251811015610d6257600760008881526020019081526020016000206001016000848381518110610cf657610cf661360a565b60200260200101516001600160a01b03166001600160a01b0316815260200190815260200160002060009054906101000a900460ff16828281518110610d3e57610d3e61360a565b60ff9092166020928302919091019091015280610d5a81613668565b915050610cc3565b50909350915050915091565b60008181526007602081905260408220015482904210610dd05760405162461bcd60e51b815260206004820152600c60248201527f424f4e445f455850495245440000000000000000000000000000000000000000604482015260640161086a565b505060009081526007602052604090206003015490565b6000546040805163134fdccd60e21b8152905184926001600160a01b031691634d3f73349160048083019260809291908290030181865afa158015610e30573d6000803e3d6000fd5b505050506040513d601f19601f82011682018060405250810190610e5491906136a0565b6020908101516005805473ffffffffffffffffffffffffffffffffffffffff19166001600160a01b0392831617905560008381526007835260408082206002015460015482516302571be360e01b81526004810183905292519195939416926302571be392602480820193918290030181865afa158015610ed9573d6000803e3d6000fd5b505050506040513d601f19601f82011682018060405250810190610efd9190613541565b6005549091506001600160a01b0316331480610f2157506001600160a01b03811633145b80610f4f57506001600160a01b038116600090815260086020908152604080832033845290915290205460ff165b80610f7357506000838152600760205260409020600601546001600160a01b031633145b610fbf5760405162461bcd60e51b815260206004820152600e60248201527f4e4f545f415554484f5249534544000000000000000000000000000000000000604482015260640161086a565b600085815260076020908152604091829020600501805473ffffffffffffffffffffffffffffffffffffffff19166001600160a01b038816908117909155915191825286917f335721b01866dc23fbee8b6b2c7b1e14d6f05c28cd35a2c934239f94095602a091015b60405180910390a25050505050565b6000546040805163134fdccd60e21b8152905184926001600160a01b031691634d3f73349160048083019260809291908290030181865afa158015611080573d6000803e3d6000fd5b505050506040513d601f19601f820116820180604052508101906110a491906136a0565b6020908101516005805473ffffffffffffffffffffffffffffffffffffffff19166001600160a01b0392831617905560008381526007835260408082206002015460015482516302571be360e01b81526004810183905292519195939416926302571be392602480820193918290030181865afa158015611129573d6000803e3d6000fd5b505050506040513d601f19601f8201168201806040525081019061114d9190613541565b6005549091506001600160a01b031633148061117157506001600160a01b03811633145b8061119f57506001600160a01b038116600090815260086020908152604080832033845290915290205460ff165b806111c357506000838152600760205260409020600601546001600160a01b031633145b61120f5760405162461bcd60e51b815260206004820152600e60248201527f4e4f545f415554484f5249534544000000000000000000000000000000000000604482015260640161086a565b600085815260076020526040908190206004018590555185907f4247841fd58468a6fb10925898bdd83c426da7b5519ee71597106dfdc6751229906110289087815260200190565b6000546040805163134fdccd60e21b8152905183926001600160a01b031691634d3f73349160048083019260809291908290030181865afa1580156112a0573d6000803e3d6000fd5b505050506040513d601f19601f820116820180604052508101906112c491906136a0565b6020908101516005805473ffffffffffffffffffffffffffffffffffffffff19166001600160a01b0392831617905560008381526007835260408082206002015460015482516302571be360e01b81526004810183905292519195939416926302571be392602480820193918290030181865afa158015611349573d6000803e3d6000fd5b505050506040513d601f19601f8201168201806040525081019061136d9190613541565b6005549091506001600160a01b031633148061139157506001600160a01b03811633145b806113bf57506001600160a01b038116600090815260086020908152604080832033845290915290205460ff165b806113e357506000838152600760205260409020600601546001600160a01b031633145b61142f5760405162461bcd60e51b815260206004820152600e60248201527f4e4f545f415554484f5249534544000000000000000000000000000000000000604482015260640161086a565b60008481526007602090815260408083208054825181850281018501909352808352919290919083018282801561148f57602002820191906000526020600020905b81546001600160a01b03168152600190910190602001808311611471575b5050505050905060005b81518110156115805760006007600088815260200190815260200160002060010160008484815181106114ce576114ce61360a565b60200260200101516001600160a01b03166001600160a01b0316815260200190815260200160002060006101000a81548160ff021916908360ff160217905550857fc4c4b4793ac649a3a05ee26afdd6d54122cea2e3298a195a786ab7e899c21e348383815181106115425761154261360a565b602002602001015160405161156691906001600160a01b0391909116815260200190565b60405180910390a28061157881613668565b915050611499565b5060008581526007602052604081206115989161332b565b60405185907f6b91085369552b61ca16180a741663b69fb6b3b967f7271116521d84e2291dc590600090a250505060009182525060076020908152604082208054600181018255908352912001805473ffffffffffffffffffffffffffffffffffffffff19169055565b60008281526007602081905260409091200154829042106116655760405162461bcd60e51b815260206004820152600c60248201527f424f4e445f455850495245440000000000000000000000000000000000000000604482015260640161086a565b6000818152600760205260408082206002015460015491516302571be360e01b8152600481018290529092916001600160a01b0316906302571be390602401602060405180830381865afa1580156116c1573d6000803e3d6000fd5b505050506040513d601f19601f820116820180604052508101906116e59190613541565b90506001600160a01b03811633148061172157506001600160a01b038116600090815260086020908152604080832033845290915290205460ff165b61176d5760405162461bcd60e51b815260206004820152600960248201527f4e4f545f4f574e45520000000000000000000000000000000000000000000000604482015260640161086a565b6000858152600760209081526040808320805482518185028101850190935280835291929091908301828280156117cd57602002820191906000526020600020905b81546001600160a01b031681526001909101906020018083116117af575b50506040517f2306f46600000000000000000000000000000000000000000000000000000000815293945073__$47e4ffaaf323c41735ff299f8946896ce0$__93632306f466935061183092506001600160a01b038a169150859060040161374c565b602060405180830381865af415801561184d573d6000803e3d6000fd5b505050506040513d601f19601f8201168201806040525081019061187191906135be565b15611a06576040517fcd23ef4c00000000000000000000000000000000000000000000000000000000815260009073__$47e4ffaaf323c41735ff299f8946896ce0$__9063cd23ef4c906118d4906001600160a01b038a1690869060040161374c565b602060405180830381865af41580156118f1573d6000803e3d6000fd5b505050506040513d601f19601f820116820180604052508101906119159190613799565b905080611957576040516000815287907fc4c4b4793ac649a3a05ee26afdd6d54122cea2e3298a195a786ab7e899c21e349060200160405180910390a2611a00565b60008781526007602090815260408083206001600160a01b038a168085526001909101835292819020805460ff191690555191825288917fc4c4b4793ac649a3a05ee26afdd6d54122cea2e3298a195a786ab7e899c21e34910160405180910390a260008781526007602052604090208054829081106119d9576119d961360a565b6000918252602090912001805473ffffffffffffffffffffffffffffffffffffffff191690555b50611a39565b6040516000815286907fc4c4b4793ac649a3a05ee26afdd6d54122cea2e3298a195a786ab7e899c21e3490602001610a60565b505050505050565b60008054906101000a90046001600160a01b03166001600160a01b0316634d3f73346040518163ffffffff1660e01b8152600401608060405180830381865afa158015611a92573d6000803e3d6000fd5b505050506040513d601f19601f82011682018060405250810190611ab691906136a0565b602001516005805473ffffffffffffffffffffffffffffffffffffffff19166001600160a01b0390921691821790553314611b335760405162461bcd60e51b815260206004820152600d60248201527f4e4f545f52454749535452415200000000000000000000000000000000000000604482015260640161086a565b6001546040516302571be360e01b8152600481018390526000916001600160a01b0316906302571be390602401602060405180830381865afa158015611b7d573d6000803e3d6000fd5b505050506040513d601f19601f82011682018060405250810190611ba19190613541565b6001600160a01b031603611bf75760405162461bcd60e51b815260206004820152600b60248201527f43414e4e4f545f4255524e000000000000000000000000000000000000000000604482015260640161086a565b600082815260076020526040908190206002018290555182907f4810581adf2c16a86a375dbb1ed89b0b0f7e64d48d24e1948b3dfe6581e4d79590611c3f9084815260200190565b60405180910390a2817facb5de0f65735f798ae8baf163fb3380a7813aca2c739ba9e39179007206585a82604051611c7991815260200190565b60405180910390a25050565b60008181526007602081905260408220015482904210611ce75760405162461bcd60e51b815260206004820152600c60248201527f424f4e445f455850495245440000000000000000000000000000000000000000604482015260640161086a565b505060009081526007602052604090206006015474010000000000000000000000000000000000000000900460ff1690565b6000546040805163134fdccd60e21b8152905184926001600160a01b031691634d3f73349160048083019260809291908290030181865afa158015611d62573d6000803e3d6000fd5b505050506040513d601f19601f82011682018060405250810190611d8691906136a0565b6020908101516005805473ffffffffffffffffffffffffffffffffffffffff19166001600160a01b0392831617905560008381526007835260408082206002015460015482516302571be360e01b81526004810183905292519195939416926302571be392602480820193918290030181865afa158015611e0b573d6000803e3d6000fd5b505050506040513d601f19601f82011682018060405250810190611e2f9190613541565b6005549091506001600160a01b0316331480611e5357506001600160a01b03811633145b80611e8157506001600160a01b038116600090815260086020908152604080832033845290915290205460ff165b80611ea557506000838152600760205260409020600601546001600160a01b031633145b611ef15760405162461bcd60e51b815260206004820152600e60248201527f4e4f545f415554484f5249534544000000000000000000000000000000000000604482015260640161086a565b600085815260076020819052604090912001548411611f525760405162461bcd60e51b815260206004820152600a60248201527f4241445f45585049525900000000000000000000000000000000000000000000604482015260640161086a565b60008054906101000a90046001600160a01b03166001600160a01b0316634d3f73346040518163ffffffff1660e01b8152600401608060405180830381865afa158015611fa3573d6000803e3d6000fd5b505050506040513d601f19601f82011682018060405250810190611fc791906136a0565b602001516005805473ffffffffffffffffffffffffffffffffffffffff19166001600160a01b03909216918217905533146120795760008581526007602081905260408220015461201890866137b2565b90506004548161202891906137c5565b3410156120775760405162461bcd60e51b815260206004820152601260248201527f494e53554646494349454e545f45544845520000000000000000000000000000604482015260640161086a565b505b600085815260076020819052604091829020018590555185907fa620b72378ee464490805a96e25b53e5c0076f0ce2d28f9691ae255a595b3bf3906110289087815260200190565b60008381526007602081905260409091200154839042106121245760405162461bcd60e51b815260206004820152600c60248201527f424f4e445f455850495245440000000000000000000000000000000000000000604482015260640161086a565b6000818152600760205260408082206002015460015491516302571be360e01b8152600481018290529092916001600160a01b0316906302571be390602401602060405180830381865afa158015612180573d6000803e3d6000fd5b505050506040513d601f19601f820116820180604052508101906121a49190613541565b90506001600160a01b0381163314806121e057506001600160a01b038116600090815260086020908152604080832033845290915290205460ff165b61222c5760405162461bcd60e51b815260206004820152600960248201527f4e4f545f4f574e45520000000000000000000000000000000000000000000000604482015260640161086a565b6122368685610af6565b6122825760405162461bcd60e51b815260206004820152600b60248201527f484f4f4b5f455849535453000000000000000000000000000000000000000000604482015260640161086a565b6000868152600760209081526040808320805460018082018355828652848620909101805473ffffffffffffffffffffffffffffffffffffffff19166001600160a01b038b169081179091558086529101835292819020805460ff191660ff8a1690811790915581519384529183019190915287917fc733a2bc621cc97eef6ed4f708f126e72e6acb76c0a1c0461c9dd31f7b9870659101610a60565b6002546040516000916001600160a01b03169047908381818185875af1925050503d806000811461236c576040519150601f19603f3d011682016040523d82523d6000602084013e612371565b606091505b50509050806123c25760405162461bcd60e51b815260206004820152601360248201527f4554485f5452414e534645525f4641494c454400000000000000000000000000604482015260640161086a565b50565b60008281526007602081905260409091200154829042106124285760405162461bcd60e51b815260206004820152600c60248201527f424f4e445f455850495245440000000000000000000000000000000000000000604482015260640161086a565b6000818152600760205260408082206002015460015491516302571be360e01b8152600481018290529092916001600160a01b0316906302571be390602401602060405180830381865afa158015612484573d6000803e3d6000fd5b505050506040513d601f19601f820116820180604052508101906124a89190613541565b90506001600160a01b0381163314806124e457506001600160a01b038116600090815260086020908152604080832033845290915290205460ff165b6125305760405162461bcd60e51b815260206004820152600960248201527f4e4f545f4f574e45520000000000000000000000000000000000000000000000604482015260640161086a565b6001546040516302571be360e01b8152600481018690526000916001600160a01b0316906302571be390602401602060405180830381865afa15801561257a573d6000803e3d6000fd5b505050506040513d601f19601f8201168201806040525081019061259e9190613541565b6001600160a01b0316036125f45760405162461bcd60e51b815260206004820152600b60248201527f43414e4e4f545f4255524e000000000000000000000000000000000000000000604482015260640161086a565b600085815260076020526040908190206002018590555185907f4810581adf2c16a86a375dbb1ed89b0b0f7e64d48d24e1948b3dfe6581e4d795906110289087815260200190565b6002546001600160a01b031633146126965760405162461bcd60e51b815260206004820152600760248201527f4e4f545f44455600000000000000000000000000000000000000000000000000604482015260640161086a565b600254604080516001600160a01b03928316815291831660208301527fdec101f106d4fc7c85791843e64b198248c822298e3ed7046231d33f7783d816910160405180910390a16002805473ffffffffffffffffffffffffffffffffffffffff19166001600160a01b0392909216919091179055565b3360008181526008602090815260408083206001600160a01b03871680855290835292819020805460ff191686151590811790915590519081529192917f17307eab39ab6107e8899845ad3d59bd9653f200f220920489ca2b5937696c31910160405180910390a35050565b6000546040805163134fdccd60e21b8152905184926001600160a01b031691634d3f73349160048083019260809291908290030181865afa1580156127c1573d6000803e3d6000fd5b505050506040513d601f19601f820116820180604052508101906127e591906136a0565b6020908101516005805473ffffffffffffffffffffffffffffffffffffffff19166001600160a01b0392831617905560008381526007835260408082206002015460015482516302571be360e01b81526004810183905292519195939416926302571be392602480820193918290030181865afa15801561286a573d6000803e3d6000fd5b505050506040513d601f19601f8201168201806040525081019061288e9190613541565b6005549091506001600160a01b03163314806128b257506001600160a01b03811633145b806128e057506001600160a01b038116600090815260086020908152604080832033845290915290205460ff165b8061290457506000838152600760205260409020600601546001600160a01b031633145b6129505760405162461bcd60e51b815260206004820152600e60248201527f4e4f545f415554484f5249534544000000000000000000000000000000000000604482015260640161086a565b600085815260076020526040908190206003018590555185907f600ffddd29393ca43c0a11fa6b0b7096631364178cb42f9d546c0a2cd22525ee906110289087815260200190565b6001546040516302571be360e01b81526004810184905260009182916001600160a01b03909116906302571be390602401602060405180830381865afa1580156129e6573d6000803e3d6000fd5b505050506040513d601f19601f82011682018060405250810190612a0a9190613541565b6001600160a01b0390811660009081526008602090815260408083209387168352929052205460ff1691505092915050565b60008181526007602081905260408220015482904210612a9e5760405162461bcd60e51b815260206004820152600c60248201527f424f4e445f455850495245440000000000000000000000000000000000000000604482015260640161086a565b505060009081526007602052604090206004015490565b6000546040805163134fdccd60e21b8152905184926001600160a01b031691634d3f73349160048083019260809291908290030181865afa158015612afe573d6000803e3d6000fd5b505050506040513d601f19601f82011682018060405250810190612b2291906136a0565b6020908101516005805473ffffffffffffffffffffffffffffffffffffffff19166001600160a01b0392831617905560008381526007835260408082206002015460015482516302571be360e01b81526004810183905292519195939416926302571be392602480820193918290030181865afa158015612ba7573d6000803e3d6000fd5b505050506040513d601f19601f82011682018060405250810190612bcb9190613541565b6005549091506001600160a01b0316331480612bef57506001600160a01b03811633145b80612c1d57506001600160a01b038116600090815260086020908152604080832033845290915290205460ff165b80612c4157506000838152600760205260409020600601546001600160a01b031633145b612c8d5760405162461bcd60e51b815260206004820152600e60248201527f4e4f545f415554484f5249534544000000000000000000000000000000000000604482015260640161086a565b60008581526007602052604090819020600601805486151574010000000000000000000000000000000000000000027fffffffffffffffffffffff00ffffffffffffffffffffffffffffffffffffffff9091161790555185907fe6ccdb52b4954ab2c3e293f1dbfe593e6c5630962a1944bfcf20c5563eeb84629061102890871515815260200190565b6000546040805163134fdccd60e21b8152905184926001600160a01b031691634d3f73349160048083019260809291908290030181865afa158015612d60573d6000803e3d6000fd5b505050506040513d601f19601f82011682018060405250810190612d8491906136a0565b6020908101516005805473ffffffffffffffffffffffffffffffffffffffff19166001600160a01b0392831617905560008381526007835260408082206002015460015482516302571be360e01b81526004810183905292519195939416926302571be392602480820193918290030181865afa158015612e09573d6000803e3d6000fd5b505050506040513d601f19601f82011682018060405250810190612e2d9190613541565b6005549091506001600160a01b0316331480612e5157506001600160a01b03811633145b80612e7f57506001600160a01b038116600090815260086020908152604080832033845290915290205460ff165b80612ea357506000838152600760205260409020600601546001600160a01b031633145b612eef5760405162461bcd60e51b815260206004820152600e60248201527f4e4f545f415554484f5249534544000000000000000000000000000000000000604482015260640161086a565b600085815260076020908152604091829020600601805473ffffffffffffffffffffffffffffffffffffffff19166001600160a01b038816908117909155915191825286917fe5108446a6097aab57fd36f346a515a78fddefa87d81662d44e0d7a463f920959101611028565b6000546040805163134fdccd60e21b8152905184926001600160a01b031691634d3f73349160048083019260809291908290030181865afa158015612fa5573d6000803e3d6000fd5b505050506040513d601f19601f82011682018060405250810190612fc991906136a0565b6020908101516005805473ffffffffffffffffffffffffffffffffffffffff19166001600160a01b0392831617905560008381526007835260408082206002015460015482516302571be360e01b81526004810183905292519195939416926302571be392602480820193918290030181865afa15801561304e573d6000803e3d6000fd5b505050506040513d601f19601f820116820180604052508101906130729190613541565b6005549091506001600160a01b031633148061309657506001600160a01b03811633145b806130c457506001600160a01b038116600090815260086020908152604080832033845290915290205460ff165b806130e857506000838152600760205260409020600601546001600160a01b031633145b6131345760405162461bcd60e51b815260206004820152600e60248201527f4e4f545f415554484f5249534544000000000000000000000000000000000000604482015260640161086a565b600085815260076020908152604091829020600501805473ffffffffffffffffffffffffffffffffffffffff19166001600160a01b038816908117909155915191825286917fcb71326aeaad88869e8be8be2893e1119f7617ce4ea2411af127e218909be1f79101611028565b600081815260076020819052604082200154829042106132035760405162461bcd60e51b815260206004820152600c60248201527f424f4e445f455850495245440000000000000000000000000000000000000000604482015260640161086a565b50506000908152600760205260409020600601546001600160a01b031690565b600081815260076020819052604082200154829042106132855760405162461bcd60e51b815260206004820152600c60248201527f424f4e445f455850495245440000000000000000000000000000000000000000604482015260640161086a565b6000838152600760205260408082206002015460015491516302571be360e01b8152600481018290529092916001600160a01b0316906302571be390602401602060405180830381865afa1580156132e1573d6000803e3d6000fd5b505050506040513d601f19601f820116820180604052508101906133059190613541565b9050306001600160a01b038216036133235760035493505050610af0565b509392505050565b50805460008255906000526020600020908101906123c291905b808211156133595760008155600101613345565b5090565b6001600160a01b03811681146123c257600080fd5b60008060006060848603121561338757600080fd5b83359250602084013560ff8116811461339f57600080fd5b915060408401356133af8161335d565b809150509250925092565b6000602082840312156133cc57600080fd5b5035919050565b600080604083850312156133e657600080fd5b8235915060208301356133f88161335d565b809150509250929050565b604080825283519082018190526000906020906060840190828701845b828110156134455781516001600160a01b031684529284019290840190600101613420565b5050508381038285015284518082528583019183019060005b8181101561347d57835160ff168352928401929184019160010161345e565b5090979650505050505050565b6000806040838503121561349d57600080fd5b50508035926020909101359150565b6000602082840312156134be57600080fd5b81356134c98161335d565b9392505050565b80151581146123c257600080fd5b600080604083850312156134f157600080fd5b82356134fc8161335d565b915060208301356133f8816134d0565b6000806040838503121561351f57600080fd5b8235915060208301356133f8816134d0565b805161353c8161335d565b919050565b60006020828403121561355357600080fd5b81516134c98161335d565b6000604082016001600160a01b03808616845260206040818601528286548085526060870191508760005282600020945060005b818110156135b0578554851683526001958601959284019201613592565b509098975050505050505050565b6000602082840312156135d057600080fd5b81516134c9816134d0565b7f4e487b7100000000000000000000000000000000000000000000000000000000600052604160045260246000fd5b7f4e487b7100000000000000000000000000000000000000000000000000000000600052603260045260246000fd5b7f4e487b7100000000000000000000000000000000000000000000000000000000600052601160045260246000fd5b60007fffffffffffffffffffffffffffffffffffffffffffffffffffffffffffffffff820361369957613699613639565b5060010190565b6000608082840312156136b257600080fd5b82601f8301126136c157600080fd5b6040516080810181811067ffffffffffffffff8211171561370b577f4e487b7100000000000000000000000000000000000000000000000000000000600052604160045260246000fd5b60405280608084018581111561372057600080fd5b845b818110156137415761373381613531565b835260209283019201613722565b509195945050505050565b6000604082016001600160a01b0380861684526020604081860152828651808552606087019150828801945060005b818110156135b057855185168352948301949183019160010161377b565b6000602082840312156137ab57600080fd5b5051919050565b81810381811115610ba257610ba2613639565b6000817fffffffffffffffffffffffffffffffffffffffffffffffffffffffffffffffff04831182151516156137fd576137fd613639565b50029056fea264697066735822122043d72719fa984f4104c1c85dc18f5385e91775acf19b490a986b9a2a76ea7a0e64736f6c63430008100033",
    "linkReferences": {
      "src/Utils/LibString.sol": {
        "LibString": [
          {
            "start": 4912,
            "length": 20
          },
          {
            "start": 8190,
            "length": 20
          },
          {
            "start": 8357,
            "length": 20
          }
        ]
      }
    }
  },
  "methodIdentifiers": {
    "Bonds(bytes32)": "63a44e69",
    "Dev()": "01e51ae8",
    "HELIX2()": "b782426e",
    "NAMES()": "05e84aa0",
    "Registrar()": "b9f37c86",
    "active()": "02fb0c5e",
    "alias_(bytes32)": "c5bc4c0b",
    "anion(bytes32)": "0e68b116",
    "basePrice()": "c7876ea4",
    "cation(bytes32)": "f61ccd53",
    "changeDev(address)": "88a8c95c",
    "controller(bytes32)": "dbd4e021",
    "covalence(bytes32)": "34026859",
    "expiry(bytes32)": "d2ec5fca",
    "hook(bytes32,uint8,address)": "51a76442",
    "hooksWithRules(bytes32)": "0aac6625",
    "isApprovedForAll(bytes32,address)": "b0698628",
    "isNotDuplicateAnion(bytes32,bytes32)": "f8c91244",
    "isNotDuplicateHook(bytes32,address)": "049a491c",
    "recordExists(bytes32)": "f79fe538",
    "register(bytes32,bytes32)": "2f926732",
    "rehook(bytes32,uint8,address)": "015399e6",
    "resolver(bytes32)": "0178b8bf",
    "roothash()": "251c9422",
    "setAlias(bytes32,bytes32)": "1f06e91c",
    "setAnion(bytes32,bytes32)": "a3be52a2",
    "setApprovalForAll(address,bool)": "a22cb465",
    "setCation(bytes32,bytes32)": "8146970a",
    "setController(bytes32,address)": "d3156905",
    "setCovalence(bytes32,bool)": "d07699aa",
    "setExpiry(bytes32,uint256)": "39de6469",
    "setRecord(bytes32,address)": "d9b76ed4",
    "setResolver(bytes32,address)": "1896f70a",
    "theEnd()": "22b68deb",
    "unhook(bytes32,address)": "241270d5",
    "unhookAll(bytes32)": "21ec2b5b",
    "withdrawEther()": "7362377b"
  },
  "id": 16
}