{
  "abi": [
    {
      "inputs": [
        {
          "internalType": "address",
          "name": "_registry",
          "type": "address"
        },
        {
          "internalType": "address",
          "name": "_helix2",
          "type": "address"
        }
      ],
      "stateMutability": "nonpayable",
      "type": "constructor"
    },
    {
      "anonymous": false,
      "inputs": [
        {
          "indexed": true,
          "internalType": "address",
          "name": "cation",
          "type": "address"
        },
        {
          "indexed": true,
          "internalType": "address",
          "name": "operator",
          "type": "address"
        },
        {
          "indexed": false,
          "internalType": "bool",
          "name": "approved",
          "type": "bool"
        }
      ],
      "name": "ApprovalForAll",
      "type": "event"
    },
    {
      "anonymous": false,
      "inputs": [
        {
          "indexed": true,
          "internalType": "bytes32",
          "name": "bondhash",
          "type": "bytes32"
        },
        {
          "indexed": false,
          "internalType": "address",
          "name": "config",
          "type": "address"
        },
        {
          "indexed": false,
          "internalType": "uint8",
          "name": "rule",
          "type": "uint8"
        }
      ],
      "name": "Hooked",
      "type": "event"
    },
    {
      "anonymous": false,
      "inputs": [
        {
          "indexed": true,
          "internalType": "bytes32",
          "name": "bondhash",
          "type": "bytes32"
        },
        {
          "indexed": false,
          "internalType": "bytes32",
          "name": "_alias",
          "type": "bytes32"
        }
      ],
      "name": "NewAlias",
      "type": "event"
    },
    {
      "anonymous": false,
      "inputs": [
        {
          "indexed": true,
          "internalType": "bytes32",
          "name": "bondhash",
          "type": "bytes32"
        },
        {
          "indexed": false,
          "internalType": "bytes32",
          "name": "anion",
          "type": "bytes32"
        }
      ],
      "name": "NewAnion",
      "type": "event"
    },
    {
      "anonymous": false,
      "inputs": [
        {
          "indexed": true,
          "internalType": "bytes32",
          "name": "bondhash",
          "type": "bytes32"
        },
        {
          "indexed": false,
          "internalType": "bytes32",
          "name": "cation",
          "type": "bytes32"
        }
      ],
      "name": "NewBond",
      "type": "event"
    },
    {
      "anonymous": false,
      "inputs": [
        {
          "indexed": true,
          "internalType": "bytes32",
          "name": "bondhash",
          "type": "bytes32"
        },
        {
          "indexed": false,
          "internalType": "bytes32",
          "name": "cation",
          "type": "bytes32"
        }
      ],
      "name": "NewCation",
      "type": "event"
    },
    {
      "anonymous": false,
      "inputs": [
        {
          "indexed": true,
          "internalType": "bytes32",
          "name": "bondhash",
          "type": "bytes32"
        },
        {
          "indexed": false,
          "internalType": "address",
          "name": "controller",
          "type": "address"
        }
      ],
      "name": "NewController",
      "type": "event"
    },
    {
      "anonymous": false,
      "inputs": [
        {
          "indexed": true,
          "internalType": "bytes32",
          "name": "bondhash",
          "type": "bytes32"
        },
        {
          "indexed": false,
          "internalType": "bool",
          "name": "covalence",
          "type": "bool"
        }
      ],
      "name": "NewCovalence",
      "type": "event"
    },
    {
      "anonymous": false,
      "inputs": [
        {
          "indexed": false,
          "internalType": "address",
          "name": "Dev",
          "type": "address"
        },
        {
          "indexed": false,
          "internalType": "address",
          "name": "newDev",
          "type": "address"
        }
      ],
      "name": "NewDev",
      "type": "event"
    },
    {
      "anonymous": false,
      "inputs": [
        {
          "indexed": true,
          "internalType": "bytes32",
          "name": "bondhash",
          "type": "bytes32"
        },
        {
          "indexed": false,
          "internalType": "uint256",
          "name": "expiry",
          "type": "uint256"
        }
      ],
      "name": "NewExpiry",
      "type": "event"
    },
    {
      "anonymous": false,
      "inputs": [
        {
          "indexed": true,
          "internalType": "bytes32",
          "name": "bondhash",
          "type": "bytes32"
        },
        {
          "indexed": false,
          "internalType": "address",
          "name": "resolver",
          "type": "address"
        }
      ],
      "name": "NewRecord",
      "type": "event"
    },
    {
      "anonymous": false,
      "inputs": [
        {
          "indexed": true,
          "internalType": "bytes32",
          "name": "bondhash",
          "type": "bytes32"
        },
        {
          "indexed": false,
          "internalType": "address",
          "name": "resolver",
          "type": "address"
        }
      ],
      "name": "NewResolver",
      "type": "event"
    },
    {
      "anonymous": false,
      "inputs": [
        {
          "indexed": true,
          "internalType": "bytes32",
          "name": "bondhash",
          "type": "bytes32"
        },
        {
          "indexed": false,
          "internalType": "address",
          "name": "config",
          "type": "address"
        },
        {
          "indexed": false,
          "internalType": "uint8",
          "name": "rule",
          "type": "uint8"
        }
      ],
      "name": "Rehooked",
      "type": "event"
    },
    {
      "anonymous": false,
      "inputs": [
        {
          "indexed": true,
          "internalType": "bytes32",
          "name": "bondhash",
          "type": "bytes32"
        },
        {
          "indexed": false,
          "internalType": "address",
          "name": "config",
          "type": "address"
        }
      ],
      "name": "Unhooked",
      "type": "event"
    },
    {
      "anonymous": false,
      "inputs": [
        {
          "indexed": true,
          "internalType": "bytes32",
          "name": "bondhash",
          "type": "bytes32"
        }
      ],
      "name": "UnhookedAll",
      "type": "event"
    },
    {
      "inputs": [
        {
          "internalType": "bytes32",
          "name": "",
          "type": "bytes32"
        }
      ],
      "name": "Bonds",
      "outputs": [
        {
          "internalType": "bytes32",
          "name": "_cation",
          "type": "bytes32"
        },
        {
          "internalType": "bytes32",
          "name": "_anion",
          "type": "bytes32"
        },
        {
          "internalType": "bytes32",
          "name": "_alias",
          "type": "bytes32"
        },
        {
          "internalType": "address",
          "name": "_resolver",
          "type": "address"
        },
        {
          "internalType": "address",
          "name": "_controller",
          "type": "address"
        },
        {
          "internalType": "bool",
          "name": "_covalence",
          "type": "bool"
        },
        {
          "internalType": "uint256",
          "name": "_expiry",
          "type": "uint256"
        }
      ],
      "stateMutability": "view",
      "type": "function"
    },
    {
      "inputs": [],
      "name": "Dev",
      "outputs": [
        {
          "internalType": "address",
          "name": "",
          "type": "address"
        }
      ],
      "stateMutability": "view",
      "type": "function"
    },
    {
      "inputs": [],
      "name": "HELIX2",
      "outputs": [
        {
          "internalType": "contract iHELIX2",
          "name": "",
          "type": "address"
        }
      ],
      "stateMutability": "view",
      "type": "function"
    },
    {
      "inputs": [],
      "name": "NAMES",
      "outputs": [
        {
          "internalType": "contract iNAME",
          "name": "",
          "type": "address"
        }
      ],
      "stateMutability": "view",
      "type": "function"
    },
    {
      "inputs": [
        {
          "internalType": "bytes32",
          "name": "bondhash",
          "type": "bytes32"
        }
      ],
      "name": "anion",
      "outputs": [
        {
          "internalType": "bytes32",
          "name": "",
          "type": "bytes32"
        }
      ],
      "stateMutability": "view",
      "type": "function"
    },
    {
      "inputs": [],
      "name": "basePrice",
      "outputs": [
        {
          "internalType": "uint256",
          "name": "",
          "type": "uint256"
        }
      ],
      "stateMutability": "view",
      "type": "function"
    },
    {
      "inputs": [
        {
          "internalType": "bytes32",
          "name": "bondhash",
          "type": "bytes32"
        }
      ],
      "name": "cation",
      "outputs": [
        {
          "internalType": "bytes32",
          "name": "",
          "type": "bytes32"
        }
      ],
      "stateMutability": "view",
      "type": "function"
    },
    {
      "inputs": [
        {
          "internalType": "address",
          "name": "newDev",
          "type": "address"
        }
      ],
      "name": "changeDev",
      "outputs": [],
      "stateMutability": "nonpayable",
      "type": "function"
    },
    {
      "inputs": [
        {
          "internalType": "bytes32",
          "name": "bondhash",
          "type": "bytes32"
        }
      ],
      "name": "controller",
      "outputs": [
        {
          "internalType": "address",
          "name": "",
          "type": "address"
        }
      ],
      "stateMutability": "view",
      "type": "function"
    },
    {
      "inputs": [
        {
          "internalType": "bytes32",
          "name": "bondhash",
          "type": "bytes32"
        }
      ],
      "name": "covalence",
      "outputs": [
        {
          "internalType": "bool",
          "name": "",
          "type": "bool"
        }
      ],
      "stateMutability": "view",
      "type": "function"
    },
    {
      "inputs": [
        {
          "internalType": "bytes32",
          "name": "bondhash",
          "type": "bytes32"
        }
      ],
      "name": "expiry",
      "outputs": [
        {
          "internalType": "uint256",
          "name": "",
          "type": "uint256"
        }
      ],
      "stateMutability": "view",
      "type": "function"
    },
    {
      "inputs": [
        {
          "internalType": "bytes32",
          "name": "bondhash",
          "type": "bytes32"
        },
        {
          "internalType": "uint8",
          "name": "rule",
          "type": "uint8"
        },
        {
          "internalType": "address",
          "name": "config",
          "type": "address"
        }
      ],
      "name": "hook",
      "outputs": [],
      "stateMutability": "nonpayable",
      "type": "function"
    },
    {
      "inputs": [
        {
          "internalType": "bytes32",
          "name": "bondhash",
          "type": "bytes32"
        }
      ],
      "name": "hooks",
      "outputs": [
        {
          "internalType": "address[]",
          "name": "",
          "type": "address[]"
        },
        {
          "internalType": "uint8[]",
          "name": "",
          "type": "uint8[]"
        }
      ],
      "stateMutability": "view",
      "type": "function"
    },
    {
      "inputs": [
        {
          "internalType": "bytes32",
          "name": "_cation",
          "type": "bytes32"
        },
        {
          "internalType": "address",
          "name": "operator",
          "type": "address"
        }
      ],
      "name": "isApprovedForAll",
      "outputs": [
        {
          "internalType": "bool",
          "name": "",
          "type": "bool"
        }
      ],
      "stateMutability": "view",
      "type": "function"
    },
    {
      "inputs": [
        {
          "internalType": "bytes32",
          "name": "bondhash",
          "type": "bytes32"
        },
        {
          "internalType": "bytes32",
          "name": "newAnion",
          "type": "bytes32"
        }
      ],
      "name": "isNotDuplicateAnion",
      "outputs": [
        {
          "internalType": "bool",
          "name": "",
          "type": "bool"
        }
      ],
      "stateMutability": "view",
      "type": "function"
    },
    {
      "inputs": [
        {
          "internalType": "bytes32",
          "name": "bondhash",
          "type": "bytes32"
        },
        {
          "internalType": "address",
          "name": "config",
          "type": "address"
        }
      ],
      "name": "isNotDuplicateHook",
      "outputs": [
        {
          "internalType": "bool",
          "name": "",
          "type": "bool"
        }
      ],
      "stateMutability": "view",
      "type": "function"
    },
    {
      "inputs": [
        {
          "internalType": "bytes32",
          "name": "bondhash",
          "type": "bytes32"
        }
      ],
      "name": "recordExists",
      "outputs": [
        {
          "internalType": "bool",
          "name": "",
          "type": "bool"
        }
      ],
      "stateMutability": "view",
      "type": "function"
    },
    {
      "inputs": [
        {
          "internalType": "bytes32",
          "name": "bondhash",
          "type": "bytes32"
        },
        {
          "internalType": "uint8",
          "name": "rule",
          "type": "uint8"
        },
        {
          "internalType": "address",
          "name": "config",
          "type": "address"
        }
      ],
      "name": "rehook",
      "outputs": [],
      "stateMutability": "nonpayable",
      "type": "function"
    },
    {
      "inputs": [
        {
          "internalType": "bytes32",
          "name": "bondhash",
          "type": "bytes32"
        }
      ],
      "name": "resolver",
      "outputs": [
        {
          "internalType": "address",
          "name": "",
          "type": "address"
        }
      ],
      "stateMutability": "view",
      "type": "function"
    },
    {
      "inputs": [],
      "name": "roothash",
      "outputs": [
        {
          "internalType": "bytes32",
          "name": "",
          "type": "bytes32"
        }
      ],
      "stateMutability": "view",
      "type": "function"
    },
    {
      "inputs": [
        {
          "internalType": "bytes32",
          "name": "bondhash",
          "type": "bytes32"
        },
        {
          "internalType": "bytes32",
          "name": "_alias",
          "type": "bytes32"
        }
      ],
      "name": "setAlias",
      "outputs": [],
      "stateMutability": "nonpayable",
      "type": "function"
    },
    {
      "inputs": [
        {
          "internalType": "bytes32",
          "name": "bondhash",
          "type": "bytes32"
        },
        {
          "internalType": "bytes32",
          "name": "_anion",
          "type": "bytes32"
        }
      ],
      "name": "setAnion",
      "outputs": [],
      "stateMutability": "nonpayable",
      "type": "function"
    },
    {
      "inputs": [
        {
          "internalType": "address",
          "name": "operator",
          "type": "address"
        },
        {
          "internalType": "bool",
          "name": "approved",
          "type": "bool"
        }
      ],
      "name": "setApprovalForAll",
      "outputs": [],
      "stateMutability": "nonpayable",
      "type": "function"
    },
    {
      "inputs": [
        {
          "internalType": "bytes32",
          "name": "bondhash",
          "type": "bytes32"
        },
        {
          "internalType": "bytes32",
          "name": "_cation",
          "type": "bytes32"
        }
      ],
      "name": "setCation",
      "outputs": [],
      "stateMutability": "nonpayable",
      "type": "function"
    },
    {
      "inputs": [
        {
          "internalType": "bytes32",
          "name": "bondhash",
          "type": "bytes32"
        },
        {
          "internalType": "address",
          "name": "_controller",
          "type": "address"
        }
      ],
      "name": "setController",
      "outputs": [],
      "stateMutability": "nonpayable",
      "type": "function"
    },
    {
      "inputs": [
        {
          "internalType": "bytes32",
          "name": "bondhash",
          "type": "bytes32"
        },
        {
          "internalType": "bool",
          "name": "_covalence",
          "type": "bool"
        }
      ],
      "name": "setCovalence",
      "outputs": [],
      "stateMutability": "nonpayable",
      "type": "function"
    },
    {
      "inputs": [
        {
          "internalType": "bytes32",
          "name": "bondhash",
          "type": "bytes32"
        },
        {
          "internalType": "uint256",
          "name": "_expiry",
          "type": "uint256"
        }
      ],
      "name": "setExpiry",
      "outputs": [],
      "stateMutability": "payable",
      "type": "function"
    },
    {
      "inputs": [
        {
          "internalType": "bytes32",
          "name": "bondhash",
          "type": "bytes32"
        },
        {
          "internalType": "address",
          "name": "_resolver",
          "type": "address"
        }
      ],
      "name": "setRecord",
      "outputs": [],
      "stateMutability": "nonpayable",
      "type": "function"
    },
    {
      "inputs": [
        {
          "internalType": "bytes32",
          "name": "bondhash",
          "type": "bytes32"
        },
        {
          "internalType": "address",
          "name": "_resolver",
          "type": "address"
        }
      ],
      "name": "setResolver",
      "outputs": [],
      "stateMutability": "nonpayable",
      "type": "function"
    },
    {
      "inputs": [],
      "name": "theEnd",
      "outputs": [
        {
          "internalType": "uint256",
          "name": "",
          "type": "uint256"
        }
      ],
      "stateMutability": "view",
      "type": "function"
    },
    {
      "inputs": [
        {
          "internalType": "bytes32",
          "name": "bondhash",
          "type": "bytes32"
        },
        {
          "internalType": "address",
          "name": "config",
          "type": "address"
        }
      ],
      "name": "unhook",
      "outputs": [],
      "stateMutability": "nonpayable",
      "type": "function"
    },
    {
      "inputs": [
        {
          "internalType": "bytes32",
          "name": "bondhash",
          "type": "bytes32"
        }
      ],
      "name": "unhookAll",
      "outputs": [],
      "stateMutability": "nonpayable",
      "type": "function"
    },
    {
      "inputs": [],
      "name": "withdrawEther",
      "outputs": [],
      "stateMutability": "payable",
      "type": "function"
    },
    {
      "inputs": [
        {
          "internalType": "address",
          "name": "token",
          "type": "address"
        }
      ],
      "name": "withdrawToken",
      "outputs": [],
      "stateMutability": "payable",
      "type": "function"
    }
  ],
  "bytecode": {
    "object": "0x60806040526703782dace9d900006005553480156200001d57600080fd5b506040516200341f3803806200341f8339810160408190526200004091620002fa565b60028054336001600160a01b0319918216179091556000805482166001600160a01b03848116918217909255600180549093169185169190911790915560408051633215476b60e11b8152905163642a8ed6916004808201926080929091908290030181865afa158015620000b9573d6000803e3d6000fd5b505050506040513d601f19601f82011682018060405250810190620000df919062000369565b602001516003556000546040805163bd9a548b60e01b815290516001600160a01b039092169163bd9a548b916004808201926080929091908290030181865afa15801562000131573d6000803e3d6000fd5b505050506040513d601f19601f8201168201806040525081019062000157919062000369565b60016020020151600455620002d56006602081905260007f54cdd369e4e8a8515e52ca72ec816c2101831ad1f18bf44102ed171459c9b4fa8190557f54cdd369e4e8a8515e52ca72ec816c2101831ad1f18bf44102ed171459c9b4fb8190557f54cdd369e4e8a8515e52ca72ec816c2101831ad1f18bf44102ed171459c9b4fc8190557f54cdd369e4e8a8515e52ca72ec816c2101831ad1f18bf44102ed171459c9b4fe8054600580547f54cdd369e4e8a8515e52ca72ec816c2101831ad1f18bf44102ed171459c9b4ff55600160a01b336001600160a81b0319909316831781179093557f54cdd369e4e8a8515e52ca72ec816c2101831ad1f18bf44102ed171459c9b4fd80546001600160a01b03199081168417909155600380548087526040808820600281018390558084018390556004810192909255908801805460ff60a01b1916909617909555825481548752858720600701558054865284862090960180548216841790559454845291909220018054909216179055565b5050620003d0565b80516001600160a01b0381168114620002f557600080fd5b919050565b600080604083850312156200030e57600080fd5b6200031983620002dd565b91506200032960208401620002dd565b90509250929050565b604051608081016001600160401b03811182821017156200036357634e487b7160e01b600052604160045260246000fd5b60405290565b6000608082840312156200037c57600080fd5b82601f8301126200038c57600080fd5b6200039662000332565b806080840185811115620003a957600080fd5b845b81811015620003c5578051845260209384019301620003ab565b509095945050505050565b61303f80620003e06000396000f3fe6080604052600436106102195760003560e01c80637cf096c31161011d578063c7876ea4116100b0578063d9b76ed41161007f578063f61ccd5311610064578063f61ccd53146106a7578063f79fe538146106c7578063f8c91244146106f957600080fd5b8063d9b76ed414610667578063dbd4e0211461068757600080fd5b8063c7876ea4146105e1578063d07699aa146105f7578063d2ec5fca14610617578063d31569051461064757600080fd5b8063a22cb465116100ec578063a22cb46514610561578063a3be52a214610581578063b0698628146105a1578063b782426e146105c157600080fd5b80637cf096c3146104e05780638146970a1461050e57806388a8c95c1461052e578063894760691461054e57600080fd5b806321ec2b5b116101b0578063340268591161017f57806351a764421161016457806351a76442146103fa57806363a44e691461041a5780637362377b146104d857600080fd5b806334026859146103c757806339de6469146103e757600080fd5b806321ec2b5b1461035b57806322b68deb1461037b578063241270d514610391578063251c9422146103b157600080fd5b806305e84aa0116101ec57806305e84aa0146102cd5780630e68b116146102ed5780631896f70a1461031b5780631f06e91c1461033b57600080fd5b8063015399e61461021e5780630178b8bf1461024057806301e51ae81461027d578063049a491c1461029d575b600080fd5b34801561022a57600080fd5b5061023e610239366004612c35565b61072c565b005b34801561024c57600080fd5b5061026061025b366004612c7d565b61097f565b6040516001600160a01b0390911681526020015b60405180910390f35b34801561028957600080fd5b50600254610260906001600160a01b031681565b3480156102a957600080fd5b506102bd6102b8366004612c96565b6109f4565b6040519015158152602001610274565b3480156102d957600080fd5b50600154610260906001600160a01b031681565b3480156102f957600080fd5b5061030d610308366004612c7d565b610aa6565b604051908152602001610274565b34801561032757600080fd5b5061023e610336366004612c96565b610b0e565b34801561034757600080fd5b5061023e610356366004612cc6565b610d0f565b34801561036757600080fd5b5061023e610376366004612c7d565b610ed5565b34801561038757600080fd5b5061030d60055481565b34801561039d57600080fd5b5061023e6103ac366004612c96565b61120c565b3480156103bd57600080fd5b5061030d60035481565b3480156103d357600080fd5b506102bd6103e2366004612c7d565b611644565b61023e6103f5366004612cc6565b6116c8565b34801561040657600080fd5b5061023e610415366004612c35565b611969565b34801561042657600080fd5b50610498610435366004612c7d565b60066020819052600091825260409091206002810154600382015460048301546005840154948401546007909401549294919390926001600160a01b039283169282169174010000000000000000000000000000000000000000900460ff169087565b604080519788526020880196909652948601939093526001600160a01b039182166060860152166080840152151560a083015260c082015260e001610274565b61023e611bc0565b3480156104ec57600080fd5b506105006104fb366004612c7d565b611c66565b604051610274929190612ce8565b34801561051a57600080fd5b5061023e610529366004612cc6565b611e19565b34801561053a57600080fd5b5061023e610549366004612d6f565b611fba565b61023e61055c366004612d6f565b612095565b34801561056d57600080fd5b5061023e61057c366004612da1565b6121bb565b34801561058d57600080fd5b5061023e61059c366004612cc6565b612227565b3480156105ad57600080fd5b506102bd6105bc366004612c96565b6123ed565b3480156105cd57600080fd5b50600054610260906001600160a01b031681565b3480156105ed57600080fd5b5061030d60045481565b34801561060357600080fd5b5061023e610612366004612dcf565b612491565b34801561062357600080fd5b5061030d610632366004612c7d565b60009081526006602052604090206007015490565b34801561065357600080fd5b5061023e610662366004612c96565b612699565b34801561067357600080fd5b5061023e610682366004612c96565b61288f565b34801561069357600080fd5b506102606106a2366004612c7d565b612a85565b3480156106b357600080fd5b5061030d6106c2366004612c7d565b612af7565b3480156106d357600080fd5b506102bd6106e2366004612c7d565b600090815260066020526040902060070154421090565b34801561070557600080fd5b506102bd610714366004612cc6565b60009182526006602052604090912060030154141590565b600083815260066020526040902060070154839042106107825760405162461bcd60e51b815260206004820152600c60248201526b1093d39117d156141254915160a21b60448201526064015b60405180910390fd5b6000818152600660205260408082206002015460015491516302571be360e01b8152600481018290529092916001600160a01b0316906302571be390602401602060405180830381865afa1580156107de573d6000803e3d6000fd5b505050506040513d601f19601f820116820180604052508101906108029190612df4565b90506001600160a01b03811633148061083e57506001600160a01b038116600090815260076020908152604080832033845290915290205460ff165b61088a5760405162461bcd60e51b815260206004820152600960248201527f4e4f545f4f574e455200000000000000000000000000000000000000000000006044820152606401610779565b60008681526006602090815260408083206001600160a01b038816845260010190915290205460ff8087169116036109045760405162461bcd60e51b815260206004820152600b60248201527f52554c455f4558495354530000000000000000000000000000000000000000006044820152606401610779565b60008681526006602090815260408083206001600160a01b0388168085526001909101835292819020805460ff191660ff8a1690811790915581519384529183019190915287917fe43a78ddf6157361fe34d04905786138f88d3eda20b1f7dc0e2c619f9267310091015b60405180910390a2505050505050565b600081815260066020526040812060070154829042106109d05760405162461bcd60e51b815260206004820152600c60248201526b1093d39117d156141254915160a21b6044820152606401610779565b6000838152600660205260409020600501546001600160a01b031691505b50919050565b60008281526006602052604080822090517f2306f46600000000000000000000000000000000000000000000000000000000815273__$47e4ffaaf323c41735ff299f8946896ce0$__91632306f46691610a5b916001600160a01b03871691600401612e11565b602060405180830381865af4158015610a78573d6000803e3d6000fd5b505050506040513d601f19601f82011682018060405250810190610a9c9190612e71565b1590505b92915050565b60008181526006602052604081206007015482904210610af75760405162461bcd60e51b815260206004820152600c60248201526b1093d39117d156141254915160a21b6044820152606401610779565b505060009081526006602052604090206003015490565b60008281526006602052604090206007015482904210610b5f5760405162461bcd60e51b815260206004820152600c60248201526b1093d39117d156141254915160a21b6044820152606401610779565b6000818152600660205260408082206002015460015491516302571be360e01b8152600481018290529092916001600160a01b0316906302571be390602401602060405180830381865afa158015610bbb573d6000803e3d6000fd5b505050506040513d601f19601f82011682018060405250810190610bdf9190612df4565b90506001600160a01b038116331480610c1b57506001600160a01b038116600090815260076020908152604080832033845290915290205460ff165b80610c405750600083815260066020819052604090912001546001600160a01b031633145b610c8c5760405162461bcd60e51b815260206004820152601760248201527f4e4f545f4f574e45525f4f525f434f4e54524f4c4c45520000000000000000006044820152606401610779565b60008581526006602090815260409182902060050180547fffffffffffffffffffffffff0000000000000000000000000000000000000000166001600160a01b038816908117909155915191825286917f335721b01866dc23fbee8b6b2c7b1e14d6f05c28cd35a2c934239f94095602a091015b60405180910390a25050505050565b60008281526006602052604090206007015482904210610d605760405162461bcd60e51b815260206004820152600c60248201526b1093d39117d156141254915160a21b6044820152606401610779565b6000818152600660205260408082206002015460015491516302571be360e01b8152600481018290529092916001600160a01b0316906302571be390602401602060405180830381865afa158015610dbc573d6000803e3d6000fd5b505050506040513d601f19601f82011682018060405250810190610de09190612df4565b90506001600160a01b038116331480610e1c57506001600160a01b038116600090815260076020908152604080832033845290915290205460ff165b80610e415750600083815260066020819052604090912001546001600160a01b031633145b610e8d5760405162461bcd60e51b815260206004820152601760248201527f4e4f545f4f574e45525f4f525f434f4e54524f4c4c45520000000000000000006044820152606401610779565b600085815260066020526040908190206004018590555185907f4247841fd58468a6fb10925898bdd83c426da7b5519ee71597106dfdc675122990610d009087815260200190565b60008181526006602052604090206007015481904210610f265760405162461bcd60e51b815260206004820152600c60248201526b1093d39117d156141254915160a21b6044820152606401610779565b6000818152600660205260408082206002015460015491516302571be360e01b8152600481018290529092916001600160a01b0316906302571be390602401602060405180830381865afa158015610f82573d6000803e3d6000fd5b505050506040513d601f19601f82011682018060405250810190610fa69190612df4565b90506001600160a01b038116331480610fe257506001600160a01b038116600090815260076020908152604080832033845290915290205460ff165b61102e5760405162461bcd60e51b815260206004820152600960248201527f4e4f545f4f574e455200000000000000000000000000000000000000000000006044820152606401610779565b60008481526006602090815260408083208054825181850281018501909352808352919290919083018282801561108e57602002820191906000526020600020905b81546001600160a01b03168152600190910190602001808311611070575b5050505050905060005b815181101561117f5760006006600088815260200190815260200160002060010160008484815181106110cd576110cd612e8e565b60200260200101516001600160a01b03166001600160a01b0316815260200190815260200160002060006101000a81548160ff021916908360ff160217905550857fc4c4b4793ac649a3a05ee26afdd6d54122cea2e3298a195a786ab7e899c21e3483838151811061114157611141612e8e565b602002602001015160405161116591906001600160a01b0391909116815260200190565b60405180910390a28061117781612eec565b915050611098565b50600085815260066020526040812061119791612bee565b60405185907f6b91085369552b61ca16180a741663b69fb6b3b967f7271116521d84e2291dc590600090a25050506000918252506006602090815260408220805460018101825590835291200180547fffffffffffffffffffffffff0000000000000000000000000000000000000000169055565b6000828152600660205260409020600701548290421061125d5760405162461bcd60e51b815260206004820152600c60248201526b1093d39117d156141254915160a21b6044820152606401610779565b6000818152600660205260408082206002015460015491516302571be360e01b8152600481018290529092916001600160a01b0316906302571be390602401602060405180830381865afa1580156112b9573d6000803e3d6000fd5b505050506040513d601f19601f820116820180604052508101906112dd9190612df4565b90506001600160a01b03811633148061131957506001600160a01b038116600090815260076020908152604080832033845290915290205460ff165b6113655760405162461bcd60e51b815260206004820152600960248201527f4e4f545f4f574e455200000000000000000000000000000000000000000000006044820152606401610779565b6000858152600660209081526040808320805482518185028101850190935280835291929091908301828280156113c557602002820191906000526020600020905b81546001600160a01b031681526001909101906020018083116113a7575b50506040517f2306f46600000000000000000000000000000000000000000000000000000000815293945073__$47e4ffaaf323c41735ff299f8946896ce0$__93632306f466935061142892506001600160a01b038a1691508590600401612f24565b602060405180830381865af4158015611445573d6000803e3d6000fd5b505050506040513d601f19601f820116820180604052508101906114699190612e71565b15611609576040517fcd23ef4c00000000000000000000000000000000000000000000000000000000815260009073__$47e4ffaaf323c41735ff299f8946896ce0$__9063cd23ef4c906114cc906001600160a01b038a16908690600401612f24565b602060405180830381865af41580156114e9573d6000803e3d6000fd5b505050506040513d601f19601f8201168201806040525081019061150d9190612f71565b90508061154f576040516000815287907fc4c4b4793ac649a3a05ee26afdd6d54122cea2e3298a195a786ab7e899c21e349060200160405180910390a2611603565b60008781526006602090815260408083206001600160a01b038a168085526001909101835292819020805460ff191690555191825288917fc4c4b4793ac649a3a05ee26afdd6d54122cea2e3298a195a786ab7e899c21e34910160405180910390a260008781526006602052604090208054829081106115d1576115d1612e8e565b600091825260209091200180547fffffffffffffffffffffffff00000000000000000000000000000000000000001690555b5061163c565b6040516000815286907fc4c4b4793ac649a3a05ee26afdd6d54122cea2e3298a195a786ab7e899c21e349060200161096f565b505050505050565b600081815260066020526040812060070154829042106116955760405162461bcd60e51b815260206004820152600c60248201526b1093d39117d156141254915160a21b6044820152606401610779565b50506000908152600660208190526040909120015474010000000000000000000000000000000000000000900460ff1690565b600082815260066020526040902060070154829042106117195760405162461bcd60e51b815260206004820152600c60248201526b1093d39117d156141254915160a21b6044820152606401610779565b6000818152600660205260408082206002015460015491516302571be360e01b8152600481018290529092916001600160a01b0316906302571be390602401602060405180830381865afa158015611775573d6000803e3d6000fd5b505050506040513d601f19601f820116820180604052508101906117999190612df4565b90506001600160a01b0381163314806117d557506001600160a01b038116600090815260076020908152604080832033845290915290205460ff165b806117fa5750600083815260066020819052604090912001546001600160a01b031633145b6118465760405162461bcd60e51b815260206004820152601760248201527f4e4f545f4f574e45525f4f525f434f4e54524f4c4c45520000000000000000006044820152606401610779565b60008581526006602052604090206007015484116118a65760405162461bcd60e51b815260206004820152600a60248201527f4241445f455850495259000000000000000000000000000000000000000000006044820152606401610779565b6000858152600660205260408120600701546118c29086612f8a565b9050600454816118d29190612f9d565b3410156119215760405162461bcd60e51b815260206004820152601260248201527f494e53554646494349454e545f455448455200000000000000000000000000006044820152606401610779565b600086815260066020526040908190206007018690555186907fa620b72378ee464490805a96e25b53e5c0076f0ce2d28f9691ae255a595b3bf39061096f9088815260200190565b600083815260066020526040902060070154839042106119ba5760405162461bcd60e51b815260206004820152600c60248201526b1093d39117d156141254915160a21b6044820152606401610779565b6000818152600660205260408082206002015460015491516302571be360e01b8152600481018290529092916001600160a01b0316906302571be390602401602060405180830381865afa158015611a16573d6000803e3d6000fd5b505050506040513d601f19601f82011682018060405250810190611a3a9190612df4565b90506001600160a01b038116331480611a7657506001600160a01b038116600090815260076020908152604080832033845290915290205460ff165b611ac25760405162461bcd60e51b815260206004820152600960248201527f4e4f545f4f574e455200000000000000000000000000000000000000000000006044820152606401610779565b611acc86856109f4565b611b185760405162461bcd60e51b815260206004820152600b60248201527f484f4f4b5f4558495354530000000000000000000000000000000000000000006044820152606401610779565b600086815260066020908152604080832080546001808201835582865284862090910180547fffffffffffffffffffffffff0000000000000000000000000000000000000000166001600160a01b038b169081179091558086529101835292819020805460ff191660ff8a1690811790915581519384529183019190915287917fc733a2bc621cc97eef6ed4f708f126e72e6acb76c0a1c0461c9dd31f7b987065910161096f565b6002546040516000916001600160a01b03169047908381818185875af1925050503d8060008114611c0d576040519150601f19603f3d011682016040523d82523d6000602084013e611c12565b606091505b5050905080611c635760405162461bcd60e51b815260206004820152601360248201527f4554485f5452414e534645525f4641494c4544000000000000000000000000006044820152606401610779565b50565b600081815260066020526040902060070154606090819083904210611cbc5760405162461bcd60e51b815260206004820152600c60248201526b1093d39117d156141254915160a21b6044820152606401610779565b600084815260066020908152604080832080548251818502810185019093528083529192909190830182828015611d1c57602002820191906000526020600020905b81546001600160a01b03168152600190910190602001808311611cfe575b505050505090506000815167ffffffffffffffff811115611d3f57611d3f612fda565b604051908082528060200260200182016040528015611d68578160200160208202803683370190505b50905060005b8251811015611e0d57600660008881526020019081526020016000206001016000848381518110611da157611da1612e8e565b60200260200101516001600160a01b03166001600160a01b0316815260200190815260200160002060009054906101000a900460ff16828281518110611de957611de9612e8e565b60ff9092166020928302919091019091015280611e0581612eec565b915050611d6e565b50909350915050915091565b60008281526006602052604090206007015482904210611e6a5760405162461bcd60e51b815260206004820152600c60248201526b1093d39117d156141254915160a21b6044820152606401610779565b6000818152600660205260408082206002015460015491516302571be360e01b8152600481018290529092916001600160a01b0316906302571be390602401602060405180830381865afa158015611ec6573d6000803e3d6000fd5b505050506040513d601f19601f82011682018060405250810190611eea9190612df4565b90506001600160a01b038116331480611f2657506001600160a01b038116600090815260076020908152604080832033845290915290205460ff165b611f725760405162461bcd60e51b815260206004820152600960248201527f4e4f545f4f574e455200000000000000000000000000000000000000000000006044820152606401610779565b600085815260066020526040908190206002018590555185907f4810581adf2c16a86a375dbb1ed89b0b0f7e64d48d24e1948b3dfe6581e4d79590610d009087815260200190565b6002546001600160a01b031633146120145760405162461bcd60e51b815260206004820152600760248201527f4e4f545f444556000000000000000000000000000000000000000000000000006044820152606401610779565b600254604080516001600160a01b03928316815291831660208301527fdec101f106d4fc7c85791843e64b198248c822298e3ed7046231d33f7783d816910160405180910390a1600280547fffffffffffffffffffffffff0000000000000000000000000000000000000000166001600160a01b0392909216919091179055565b6002546040517f70a0823100000000000000000000000000000000000000000000000000000000815230600482018190526001600160a01b03848116936323b872dd9391169084906370a0823190602401602060405180830381865afa158015612103573d6000803e3d6000fd5b505050506040513d601f19601f820116820180604052508101906121279190612f71565b6040517fffffffff0000000000000000000000000000000000000000000000000000000060e086901b1681526001600160a01b03938416600482015292909116602483015260448201526064016020604051808303816000875af1158015612193573d6000803e3d6000fd5b505050506040513d601f19601f820116820180604052508101906121b79190612e71565b5050565b3360008181526007602090815260408083206001600160a01b03871680855290835292819020805460ff191686151590811790915590519081529192917f17307eab39ab6107e8899845ad3d59bd9653f200f220920489ca2b5937696c31910160405180910390a35050565b600082815260066020526040902060070154829042106122785760405162461bcd60e51b815260206004820152600c60248201526b1093d39117d156141254915160a21b6044820152606401610779565b6000818152600660205260408082206002015460015491516302571be360e01b8152600481018290529092916001600160a01b0316906302571be390602401602060405180830381865afa1580156122d4573d6000803e3d6000fd5b505050506040513d601f19601f820116820180604052508101906122f89190612df4565b90506001600160a01b03811633148061233457506001600160a01b038116600090815260076020908152604080832033845290915290205460ff165b806123595750600083815260066020819052604090912001546001600160a01b031633145b6123a55760405162461bcd60e51b815260206004820152601760248201527f4e4f545f4f574e45525f4f525f434f4e54524f4c4c45520000000000000000006044820152606401610779565b600085815260066020526040908190206003018590555185907f600ffddd29393ca43c0a11fa6b0b7096631364178cb42f9d546c0a2cd22525ee90610d009087815260200190565b6001546040516302571be360e01b81526004810184905260009182916001600160a01b03909116906302571be390602401602060405180830381865afa15801561243b573d6000803e3d6000fd5b505050506040513d601f19601f8201168201806040525081019061245f9190612df4565b6001600160a01b0390811660009081526007602090815260408083209387168352929052205460ff1691505092915050565b600082815260066020526040902060070154829042106124e25760405162461bcd60e51b815260206004820152600c60248201526b1093d39117d156141254915160a21b6044820152606401610779565b6000818152600660205260408082206002015460015491516302571be360e01b8152600481018290529092916001600160a01b0316906302571be390602401602060405180830381865afa15801561253e573d6000803e3d6000fd5b505050506040513d601f19601f820116820180604052508101906125629190612df4565b90506001600160a01b03811633148061259e57506001600160a01b038116600090815260076020908152604080832033845290915290205460ff165b806125c35750600083815260066020819052604090912001546001600160a01b031633145b61260f5760405162461bcd60e51b815260206004820152601760248201527f4e4f545f4f574e45525f4f525f434f4e54524f4c4c45520000000000000000006044820152606401610779565b60008581526006602081905260409182902001805486151574010000000000000000000000000000000000000000027fffffffffffffffffffffff00ffffffffffffffffffffffffffffffffffffffff9091161790555185907fe6ccdb52b4954ab2c3e293f1dbfe593e6c5630962a1944bfcf20c5563eeb846290610d0090871515815260200190565b600082815260066020526040902060070154829042106126ea5760405162461bcd60e51b815260206004820152600c60248201526b1093d39117d156141254915160a21b6044820152606401610779565b6000818152600660205260408082206002015460015491516302571be360e01b8152600481018290529092916001600160a01b0316906302571be390602401602060405180830381865afa158015612746573d6000803e3d6000fd5b505050506040513d601f19601f8201168201806040525081019061276a9190612df4565b90506001600160a01b0381163314806127a657506001600160a01b038116600090815260076020908152604080832033845290915290205460ff165b806127cb5750600083815260066020819052604090912001546001600160a01b031633145b6128175760405162461bcd60e51b815260206004820152601760248201527f4e4f545f4f574e45525f4f525f434f4e54524f4c4c45520000000000000000006044820152606401610779565b60008581526006602081815260409283902090910180547fffffffffffffffffffffffff0000000000000000000000000000000000000000166001600160a01b038816908117909155915191825286917fe5108446a6097aab57fd36f346a515a78fddefa87d81662d44e0d7a463f920959101610d00565b600082815260066020526040902060070154829042106128e05760405162461bcd60e51b815260206004820152600c60248201526b1093d39117d156141254915160a21b6044820152606401610779565b6000818152600660205260408082206002015460015491516302571be360e01b8152600481018290529092916001600160a01b0316906302571be390602401602060405180830381865afa15801561293c573d6000803e3d6000fd5b505050506040513d601f19601f820116820180604052508101906129609190612df4565b90506001600160a01b03811633148061299c57506001600160a01b038116600090815260076020908152604080832033845290915290205460ff165b806129c15750600083815260066020819052604090912001546001600160a01b031633145b612a0d5760405162461bcd60e51b815260206004820152601760248201527f4e4f545f4f574e45525f4f525f434f4e54524f4c4c45520000000000000000006044820152606401610779565b60008581526006602090815260409182902060050180547fffffffffffffffffffffffff0000000000000000000000000000000000000000166001600160a01b038816908117909155915191825286917fcb71326aeaad88869e8be8be2893e1119f7617ce4ea2411af127e218909be1f79101610d00565b60008181526006602052604081206007015482904210612ad65760405162461bcd60e51b815260206004820152600c60248201526b1093d39117d156141254915160a21b6044820152606401610779565b5050600090815260066020819052604090912001546001600160a01b031690565b60008181526006602052604081206007015482904210612b485760405162461bcd60e51b815260206004820152600c60248201526b1093d39117d156141254915160a21b6044820152606401610779565b6000838152600660205260408082206002015460015491516302571be360e01b8152600481018290529092916001600160a01b0316906302571be390602401602060405180830381865afa158015612ba4573d6000803e3d6000fd5b505050506040513d601f19601f82011682018060405250810190612bc89190612df4565b9050306001600160a01b03821603612be657600354935050506109ee565b509392505050565b5080546000825590600052602060002090810190611c6391905b80821115612c1c5760008155600101612c08565b5090565b6001600160a01b0381168114611c6357600080fd5b600080600060608486031215612c4a57600080fd5b83359250602084013560ff81168114612c6257600080fd5b91506040840135612c7281612c20565b809150509250925092565b600060208284031215612c8f57600080fd5b5035919050565b60008060408385031215612ca957600080fd5b823591506020830135612cbb81612c20565b809150509250929050565b60008060408385031215612cd957600080fd5b50508035926020909101359150565b604080825283519082018190526000906020906060840190828701845b82811015612d2a5781516001600160a01b031684529284019290840190600101612d05565b5050508381038285015284518082528583019183019060005b81811015612d6257835160ff1683529284019291840191600101612d43565b5090979650505050505050565b600060208284031215612d8157600080fd5b8135612d8c81612c20565b9392505050565b8015158114611c6357600080fd5b60008060408385031215612db457600080fd5b8235612dbf81612c20565b91506020830135612cbb81612d93565b60008060408385031215612de257600080fd5b823591506020830135612cbb81612d93565b600060208284031215612e0657600080fd5b8151612d8c81612c20565b6000604082016001600160a01b03808616845260206040818601528286548085526060870191508760005282600020945060005b81811015612e63578554851683526001958601959284019201612e45565b509098975050505050505050565b600060208284031215612e8357600080fd5b8151612d8c81612d93565b7f4e487b7100000000000000000000000000000000000000000000000000000000600052603260045260246000fd5b7f4e487b7100000000000000000000000000000000000000000000000000000000600052601160045260246000fd5b60007fffffffffffffffffffffffffffffffffffffffffffffffffffffffffffffffff8203612f1d57612f1d612ebd565b5060010190565b6000604082016001600160a01b0380861684526020604081860152828651808552606087019150828801945060005b81811015612e63578551851683529483019491830191600101612f53565b600060208284031215612f8357600080fd5b5051919050565b81810381811115610aa057610aa0612ebd565b6000817fffffffffffffffffffffffffffffffffffffffffffffffffffffffffffffffff0483118215151615612fd557612fd5612ebd565b500290565b7f4e487b7100000000000000000000000000000000000000000000000000000000600052604160045260246000fdfea26469706673582212207509d6602bb2d0d0cf52547eb3dd3921863a09677f0fed4639ba4348c220a2dc64736f6c63430008100033",
    "linkReferences": {
      "src/Utils/LibString.sol": {
        "LibString": [
          {
            "start": 3594,
            "length": 20
          },
          {
            "start": 6098,
            "length": 20
          },
          {
            "start": 6265,
            "length": 20
          }
        ]
      }
    }
  },
  "methodIdentifiers": {
    "Bonds(bytes32)": "63a44e69",
    "Dev()": "01e51ae8",
    "HELIX2()": "b782426e",
    "NAMES()": "05e84aa0",
    "anion(bytes32)": "0e68b116",
    "basePrice()": "c7876ea4",
    "cation(bytes32)": "f61ccd53",
    "changeDev(address)": "88a8c95c",
    "controller(bytes32)": "dbd4e021",
    "covalence(bytes32)": "34026859",
    "expiry(bytes32)": "d2ec5fca",
    "hook(bytes32,uint8,address)": "51a76442",
    "hooks(bytes32)": "7cf096c3",
    "isApprovedForAll(bytes32,address)": "b0698628",
    "isNotDuplicateAnion(bytes32,bytes32)": "f8c91244",
    "isNotDuplicateHook(bytes32,address)": "049a491c",
    "recordExists(bytes32)": "f79fe538",
    "rehook(bytes32,uint8,address)": "015399e6",
    "resolver(bytes32)": "0178b8bf",
    "roothash()": "251c9422",
    "setAlias(bytes32,bytes32)": "1f06e91c",
    "setAnion(bytes32,bytes32)": "a3be52a2",
    "setApprovalForAll(address,bool)": "a22cb465",
    "setCation(bytes32,bytes32)": "8146970a",
    "setController(bytes32,address)": "d3156905",
    "setCovalence(bytes32,bool)": "d07699aa",
    "setExpiry(bytes32,uint256)": "39de6469",
    "setRecord(bytes32,address)": "d9b76ed4",
    "setResolver(bytes32,address)": "1896f70a",
    "theEnd()": "22b68deb",
    "unhook(bytes32,address)": "241270d5",
    "unhookAll(bytes32)": "21ec2b5b",
    "withdrawEther()": "7362377b",
    "withdrawToken(address)": "89476069"
  },
  "id": 29
}