{
  "abi": [
    {
      "inputs": [
        {
          "internalType": "address",
          "name": "_registry",
          "type": "address"
        },
        {
          "internalType": "address",
          "name": "_helix2",
          "type": "address"
        }
      ],
      "stateMutability": "nonpayable",
      "type": "constructor"
    },
    {
      "inputs": [],
      "name": "BAD_HOOK",
      "type": "error"
    },
    {
      "anonymous": false,
      "inputs": [
        {
          "indexed": true,
          "internalType": "address",
          "name": "cation",
          "type": "address"
        },
        {
          "indexed": true,
          "internalType": "address",
          "name": "operator",
          "type": "address"
        },
        {
          "indexed": false,
          "internalType": "bool",
          "name": "approved",
          "type": "bool"
        }
      ],
      "name": "ApprovalForAll",
      "type": "event"
    },
    {
      "anonymous": false,
      "inputs": [
        {
          "indexed": true,
          "internalType": "bytes32",
          "name": "bondhash",
          "type": "bytes32"
        },
        {
          "indexed": false,
          "internalType": "address",
          "name": "config",
          "type": "address"
        },
        {
          "indexed": false,
          "internalType": "uint8",
          "name": "rule",
          "type": "uint8"
        }
      ],
      "name": "Hooked",
      "type": "event"
    },
    {
      "anonymous": false,
      "inputs": [
        {
          "indexed": true,
          "internalType": "bytes32",
          "name": "bondhash",
          "type": "bytes32"
        },
        {
          "indexed": false,
          "internalType": "bytes32",
          "name": "anion",
          "type": "bytes32"
        }
      ],
      "name": "NewAnion",
      "type": "event"
    },
    {
      "anonymous": false,
      "inputs": [
        {
          "indexed": true,
          "internalType": "bytes32",
          "name": "bondhash",
          "type": "bytes32"
        },
        {
          "indexed": false,
          "internalType": "bytes32",
          "name": "cation",
          "type": "bytes32"
        }
      ],
      "name": "NewCation",
      "type": "event"
    },
    {
      "anonymous": false,
      "inputs": [
        {
          "indexed": true,
          "internalType": "bytes32",
          "name": "bondhash",
          "type": "bytes32"
        },
        {
          "indexed": false,
          "internalType": "address",
          "name": "controller",
          "type": "address"
        }
      ],
      "name": "NewController",
      "type": "event"
    },
    {
      "anonymous": false,
      "inputs": [
        {
          "indexed": true,
          "internalType": "bytes32",
          "name": "bondhash",
          "type": "bytes32"
        },
        {
          "indexed": false,
          "internalType": "bool",
          "name": "covalence",
          "type": "bool"
        }
      ],
      "name": "NewCovalence",
      "type": "event"
    },
    {
      "anonymous": false,
      "inputs": [
        {
          "indexed": false,
          "internalType": "address",
          "name": "Dev",
          "type": "address"
        },
        {
          "indexed": false,
          "internalType": "address",
          "name": "newDev",
          "type": "address"
        }
      ],
      "name": "NewDev",
      "type": "event"
    },
    {
      "anonymous": false,
      "inputs": [
        {
          "indexed": true,
          "internalType": "bytes32",
          "name": "bondhash",
          "type": "bytes32"
        },
        {
          "indexed": false,
          "internalType": "uint256",
          "name": "expiry",
          "type": "uint256"
        }
      ],
      "name": "NewExpiry",
      "type": "event"
    },
    {
      "anonymous": false,
      "inputs": [
        {
          "indexed": true,
          "internalType": "bytes32",
          "name": "bondhash",
          "type": "bytes32"
        },
        {
          "indexed": false,
          "internalType": "address",
          "name": "resolver",
          "type": "address"
        }
      ],
      "name": "NewRecord",
      "type": "event"
    },
    {
      "anonymous": false,
      "inputs": [
        {
          "indexed": true,
          "internalType": "bytes32",
          "name": "bondhash",
          "type": "bytes32"
        },
        {
          "indexed": false,
          "internalType": "address",
          "name": "resolver",
          "type": "address"
        }
      ],
      "name": "NewResolver",
      "type": "event"
    },
    {
      "anonymous": false,
      "inputs": [
        {
          "indexed": true,
          "internalType": "bytes32",
          "name": "bondhash",
          "type": "bytes32"
        },
        {
          "indexed": false,
          "internalType": "address",
          "name": "config",
          "type": "address"
        },
        {
          "indexed": false,
          "internalType": "uint8",
          "name": "rule",
          "type": "uint8"
        }
      ],
      "name": "Rehooked",
      "type": "event"
    },
    {
      "anonymous": false,
      "inputs": [
        {
          "indexed": true,
          "internalType": "bytes32",
          "name": "bondhash",
          "type": "bytes32"
        },
        {
          "indexed": false,
          "internalType": "uint8",
          "name": "rule",
          "type": "uint8"
        }
      ],
      "name": "Unhooked",
      "type": "event"
    },
    {
      "anonymous": false,
      "inputs": [
        {
          "indexed": true,
          "internalType": "bytes32",
          "name": "bondhash",
          "type": "bytes32"
        }
      ],
      "name": "UnhookedAll",
      "type": "event"
    },
    {
      "inputs": [
        {
          "internalType": "bytes32",
          "name": "",
          "type": "bytes32"
        }
      ],
      "name": "Bonds",
      "outputs": [
        {
          "internalType": "bytes32",
          "name": "_cation",
          "type": "bytes32"
        },
        {
          "internalType": "bytes32",
          "name": "_anion",
          "type": "bytes32"
        },
        {
          "internalType": "bytes32",
          "name": "_alias",
          "type": "bytes32"
        },
        {
          "internalType": "address",
          "name": "_resolver",
          "type": "address"
        },
        {
          "internalType": "address",
          "name": "_controller",
          "type": "address"
        },
        {
          "internalType": "bool",
          "name": "_covalence",
          "type": "bool"
        },
        {
          "internalType": "uint256",
          "name": "_expiry",
          "type": "uint256"
        }
      ],
      "stateMutability": "view",
      "type": "function"
    },
    {
      "inputs": [],
      "name": "Dev",
      "outputs": [
        {
          "internalType": "address",
          "name": "",
          "type": "address"
        }
      ],
      "stateMutability": "view",
      "type": "function"
    },
    {
      "inputs": [],
      "name": "HELIX2",
      "outputs": [
        {
          "internalType": "contract iHELIX2",
          "name": "",
          "type": "address"
        }
      ],
      "stateMutability": "view",
      "type": "function"
    },
    {
      "inputs": [],
      "name": "NAMES",
      "outputs": [
        {
          "internalType": "contract iNAME",
          "name": "",
          "type": "address"
        }
      ],
      "stateMutability": "view",
      "type": "function"
    },
    {
      "inputs": [],
      "name": "Registrar",
      "outputs": [
        {
          "internalType": "address",
          "name": "",
          "type": "address"
        }
      ],
      "stateMutability": "view",
      "type": "function"
    },
    {
      "inputs": [],
      "name": "active",
      "outputs": [
        {
          "internalType": "bool",
          "name": "",
          "type": "bool"
        }
      ],
      "stateMutability": "view",
      "type": "function"
    },
    {
      "inputs": [
        {
          "internalType": "bytes32",
          "name": "bondhash",
          "type": "bytes32"
        }
      ],
      "name": "alias_",
      "outputs": [
        {
          "internalType": "bytes32",
          "name": "",
          "type": "bytes32"
        }
      ],
      "stateMutability": "view",
      "type": "function"
    },
    {
      "inputs": [
        {
          "internalType": "bytes32",
          "name": "bondhash",
          "type": "bytes32"
        }
      ],
      "name": "anion",
      "outputs": [
        {
          "internalType": "bytes32",
          "name": "",
          "type": "bytes32"
        }
      ],
      "stateMutability": "view",
      "type": "function"
    },
    {
      "inputs": [],
      "name": "basePrice",
      "outputs": [
        {
          "internalType": "uint256",
          "name": "",
          "type": "uint256"
        }
      ],
      "stateMutability": "view",
      "type": "function"
    },
    {
      "inputs": [
        {
          "internalType": "bytes32",
          "name": "bondhash",
          "type": "bytes32"
        }
      ],
      "name": "cation",
      "outputs": [
        {
          "internalType": "bytes32",
          "name": "",
          "type": "bytes32"
        }
      ],
      "stateMutability": "view",
      "type": "function"
    },
    {
      "inputs": [
        {
          "internalType": "address",
          "name": "newDev",
          "type": "address"
        }
      ],
      "name": "changeDev",
      "outputs": [],
      "stateMutability": "nonpayable",
      "type": "function"
    },
    {
      "inputs": [
        {
          "internalType": "bytes32",
          "name": "bondhash",
          "type": "bytes32"
        }
      ],
      "name": "controller",
      "outputs": [
        {
          "internalType": "address",
          "name": "",
          "type": "address"
        }
      ],
      "stateMutability": "view",
      "type": "function"
    },
    {
      "inputs": [
        {
          "internalType": "bytes32",
          "name": "bondhash",
          "type": "bytes32"
        }
      ],
      "name": "covalence",
      "outputs": [
        {
          "internalType": "bool",
          "name": "",
          "type": "bool"
        }
      ],
      "stateMutability": "view",
      "type": "function"
    },
    {
      "inputs": [
        {
          "internalType": "bytes32",
          "name": "bondhash",
          "type": "bytes32"
        }
      ],
      "name": "expiry",
      "outputs": [
        {
          "internalType": "uint256",
          "name": "",
          "type": "uint256"
        }
      ],
      "stateMutability": "view",
      "type": "function"
    },
    {
      "inputs": [
        {
          "internalType": "bytes32",
          "name": "bondhash",
          "type": "bytes32"
        },
        {
          "internalType": "address",
          "name": "config",
          "type": "address"
        },
        {
          "internalType": "uint8",
          "name": "rule",
          "type": "uint8"
        }
      ],
      "name": "hook",
      "outputs": [],
      "stateMutability": "nonpayable",
      "type": "function"
    },
    {
      "inputs": [
        {
          "internalType": "bytes32",
          "name": "bondhash",
          "type": "bytes32"
        }
      ],
      "name": "hooksWithRules",
      "outputs": [
        {
          "internalType": "uint8[]",
          "name": "_rules",
          "type": "uint8[]"
        },
        {
          "internalType": "address[]",
          "name": "_hooks",
          "type": "address[]"
        }
      ],
      "stateMutability": "view",
      "type": "function"
    },
    {
      "inputs": [
        {
          "internalType": "bytes32",
          "name": "_cation",
          "type": "bytes32"
        },
        {
          "internalType": "address",
          "name": "operator",
          "type": "address"
        }
      ],
      "name": "isApprovedForAll",
      "outputs": [
        {
          "internalType": "bool",
          "name": "",
          "type": "bool"
        }
      ],
      "stateMutability": "view",
      "type": "function"
    },
    {
      "inputs": [
        {
          "internalType": "bytes32",
          "name": "bondhash",
          "type": "bytes32"
        },
        {
          "internalType": "bytes32",
          "name": "newAnion",
          "type": "bytes32"
        }
      ],
      "name": "isNotDuplicateAnion",
      "outputs": [
        {
          "internalType": "bool",
          "name": "",
          "type": "bool"
        }
      ],
      "stateMutability": "view",
      "type": "function"
    },
    {
      "inputs": [
        {
          "internalType": "bytes32",
          "name": "bondhash",
          "type": "bytes32"
        },
        {
          "internalType": "uint8",
          "name": "rule",
          "type": "uint8"
        }
      ],
      "name": "isNotDuplicateHook",
      "outputs": [
        {
          "internalType": "bool",
          "name": "",
          "type": "bool"
        }
      ],
      "stateMutability": "view",
      "type": "function"
    },
    {
      "inputs": [
        {
          "internalType": "bytes32",
          "name": "bondhash",
          "type": "bytes32"
        }
      ],
      "name": "recordExists",
      "outputs": [
        {
          "internalType": "bool",
          "name": "",
          "type": "bool"
        }
      ],
      "stateMutability": "view",
      "type": "function"
    },
    {
      "inputs": [
        {
          "internalType": "bytes32",
          "name": "bondhash",
          "type": "bytes32"
        },
        {
          "internalType": "bytes32",
          "name": "_cation",
          "type": "bytes32"
        }
      ],
      "name": "register",
      "outputs": [],
      "stateMutability": "nonpayable",
      "type": "function"
    },
    {
      "inputs": [
        {
          "internalType": "bytes32",
          "name": "bondhash",
          "type": "bytes32"
        },
        {
          "internalType": "address",
          "name": "config",
          "type": "address"
        },
        {
          "internalType": "uint8",
          "name": "rule",
          "type": "uint8"
        }
      ],
      "name": "rehook",
      "outputs": [],
      "stateMutability": "nonpayable",
      "type": "function"
    },
    {
      "inputs": [
        {
          "internalType": "bytes32",
          "name": "bondhash",
          "type": "bytes32"
        },
        {
          "internalType": "uint256",
          "name": "_expiry",
          "type": "uint256"
        }
      ],
      "name": "renew",
      "outputs": [],
      "stateMutability": "payable",
      "type": "function"
    },
    {
      "inputs": [
        {
          "internalType": "bytes32",
          "name": "bondhash",
          "type": "bytes32"
        }
      ],
      "name": "resolver",
      "outputs": [
        {
          "internalType": "address",
          "name": "",
          "type": "address"
        }
      ],
      "stateMutability": "view",
      "type": "function"
    },
    {
      "inputs": [],
      "name": "roothash",
      "outputs": [
        {
          "internalType": "bytes32",
          "name": "",
          "type": "bytes32"
        }
      ],
      "stateMutability": "view",
      "type": "function"
    },
    {
      "inputs": [
        {
          "internalType": "bytes32",
          "name": "bondhash",
          "type": "bytes32"
        },
        {
          "internalType": "bytes32",
          "name": "_alias",
          "type": "bytes32"
        }
      ],
      "name": "setAlias",
      "outputs": [],
      "stateMutability": "nonpayable",
      "type": "function"
    },
    {
      "inputs": [
        {
          "internalType": "bytes32",
          "name": "bondhash",
          "type": "bytes32"
        },
        {
          "internalType": "bytes32",
          "name": "_anion",
          "type": "bytes32"
        }
      ],
      "name": "setAnion",
      "outputs": [],
      "stateMutability": "nonpayable",
      "type": "function"
    },
    {
      "inputs": [
        {
          "internalType": "address",
          "name": "operator",
          "type": "address"
        },
        {
          "internalType": "bool",
          "name": "approved",
          "type": "bool"
        }
      ],
      "name": "setApprovalForAll",
      "outputs": [],
      "stateMutability": "nonpayable",
      "type": "function"
    },
    {
      "inputs": [
        {
          "internalType": "bytes32",
          "name": "bondhash",
          "type": "bytes32"
        },
        {
          "internalType": "bytes32",
          "name": "_cation",
          "type": "bytes32"
        }
      ],
      "name": "setCation",
      "outputs": [],
      "stateMutability": "nonpayable",
      "type": "function"
    },
    {
      "inputs": [
        {
          "internalType": "address",
          "name": "_helix2",
          "type": "address"
        }
      ],
      "name": "setConfig",
      "outputs": [],
      "stateMutability": "nonpayable",
      "type": "function"
    },
    {
      "inputs": [
        {
          "internalType": "bytes32",
          "name": "bondhash",
          "type": "bytes32"
        },
        {
          "internalType": "address",
          "name": "_controller",
          "type": "address"
        }
      ],
      "name": "setController",
      "outputs": [],
      "stateMutability": "nonpayable",
      "type": "function"
    },
    {
      "inputs": [
        {
          "internalType": "bytes32",
          "name": "bondhash",
          "type": "bytes32"
        },
        {
          "internalType": "bool",
          "name": "_covalence",
          "type": "bool"
        }
      ],
      "name": "setCovalence",
      "outputs": [],
      "stateMutability": "nonpayable",
      "type": "function"
    },
    {
      "inputs": [
        {
          "internalType": "bytes32",
          "name": "bondhash",
          "type": "bytes32"
        },
        {
          "internalType": "uint256",
          "name": "_expiry",
          "type": "uint256"
        }
      ],
      "name": "setExpiry",
      "outputs": [],
      "stateMutability": "nonpayable",
      "type": "function"
    },
    {
      "inputs": [
        {
          "internalType": "bytes32",
          "name": "bondhash",
          "type": "bytes32"
        },
        {
          "internalType": "address",
          "name": "_resolver",
          "type": "address"
        }
      ],
      "name": "setRecord",
      "outputs": [],
      "stateMutability": "nonpayable",
      "type": "function"
    },
    {
      "inputs": [
        {
          "internalType": "bytes32",
          "name": "bondhash",
          "type": "bytes32"
        },
        {
          "internalType": "address",
          "name": "_resolver",
          "type": "address"
        }
      ],
      "name": "setResolver",
      "outputs": [],
      "stateMutability": "nonpayable",
      "type": "function"
    },
    {
      "inputs": [],
      "name": "theEnd",
      "outputs": [
        {
          "internalType": "uint256",
          "name": "",
          "type": "uint256"
        }
      ],
      "stateMutability": "view",
      "type": "function"
    },
    {
      "inputs": [],
      "name": "toggleActive",
      "outputs": [],
      "stateMutability": "nonpayable",
      "type": "function"
    },
    {
      "inputs": [
        {
          "internalType": "bytes32",
          "name": "bondhash",
          "type": "bytes32"
        },
        {
          "internalType": "uint8",
          "name": "rule",
          "type": "uint8"
        }
      ],
      "name": "unhook",
      "outputs": [],
      "stateMutability": "nonpayable",
      "type": "function"
    },
    {
      "inputs": [
        {
          "internalType": "bytes32",
          "name": "bondhash",
          "type": "bytes32"
        }
      ],
      "name": "unhookAll",
      "outputs": [],
      "stateMutability": "nonpayable",
      "type": "function"
    },
    {
      "inputs": [],
      "name": "withdrawEther",
      "outputs": [],
      "stateMutability": "nonpayable",
      "type": "function"
    }
  ],
  "bytecode": {
    "object": "0x60806040526002805460ff60a01b1916600160a01b1790556703782dace9d900006006553480156200003057600080fd5b506040516200452138038062004521833981016040819052620000539162000735565b60028054336001600160a01b0319918216179091556000805482166001600160a01b03848116918217909255600180549093169185169190911790915560408051633215476b60e11b8152905163642a8ed6916004808201926080929091908290030181865afa158015620000cc573d6000803e3d6000fd5b505050506040513d601f19601f82011682018060405250810190620000f29190620007a4565b602001516003556000546040805163bd9a548b60e01b815290516001600160a01b039092169163bd9a548b916004808201926080929091908290030181865afa15801562000144573d6000803e3d6000fd5b505050506040513d601f19601f820116820180604052508101906200016a9190620007a4565b602001516004556200017b62000183565b505062000849565b7fb4b4801cca1cad359bff6b5ea99d95160f00cbe1164fb7231c42c3e8b5f2593b80546001600160a01b0319169055604080516020818101909252600080825280526007909152620001f9907f6d5257204ebe7d88fd91ae87941cb2dd9d8062b64ae5a2bd2d28ec40b9fbf6df90600162000654565b50600080805260076020527f6d5257204ebe7d88fd91ae87941cb2dd9d8062b64ae5a2bd2d28ec40b9fbf6e18190557f6d5257204ebe7d88fd91ae87941cb2dd9d8062b64ae5a2bd2d28ec40b9fbf6e28190557f6d5257204ebe7d88fd91ae87941cb2dd9d8062b64ae5a2bd2d28ec40b9fbf6e38190557f6d5257204ebe7d88fd91ae87941cb2dd9d8062b64ae5a2bd2d28ec40b9fbf6e580546006547f6d5257204ebe7d88fd91ae87941cb2dd9d8062b64ae5a2bd2d28ec40b9fbf6e6556001600160a81b03191633908117600160a01b179091557f6d5257204ebe7d88fd91ae87941cb2dd9d8062b64ae5a2bd2d28ec40b9fbf6e480546001600160a01b0319169091179055805460408051633215476b60e11b815290516001600160a01b03929092169163642a8ed6916004818101926080929091908290030181865afa1580156200034c573d6000803e3d6000fd5b505050506040513d601f19601f82011682018060405250810190620003729190620007a4565b905060005b600481101562000650576000600760008484600481106200039c576200039c6200080b565b6020908102919091015182528181019290925260409081016000908120818052600101835281812080546001600160a01b0319166001600160a01b03959095169490941790935580519182019052818152906007908484600481106200040657620004066200080b565b602002015181526020019081526020016000206000019060016200042c92919062000654565b508181600481106200044257620004426200080b565b6020020151600760008484600481106200046057620004606200080b565b60200201518152602001908152602001600020600201819055508181600481106200048f576200048f6200080b565b602002015160076000848460048110620004ad57620004ad6200080b565b6020020151815260200190815260200160002060030181905550818160048110620004dc57620004dc6200080b565b602002015160076000848460048110620004fa57620004fa6200080b565b60200201518152602001908152602001600020600401819055506001600760008484600481106200052f576200052f6200080b565b6020020151815260200190815260200160002060060160146101000a81548160ff021916908315150217905550600654600760008484600481106200057857620005786200080b565b60200201518152602001908152602001600020600701819055503360076000848460048110620005ac57620005ac6200080b565b6020020151815260200190815260200160002060060160006101000a8154816001600160a01b0302191690836001600160a01b0316021790555033600760008484600481106200060057620006006200080b565b6020020151815260200190815260200160002060050160006101000a8154816001600160a01b0302191690836001600160a01b031602179055508080620006479062000821565b91505062000377565b5050565b82805482825590600052602060002090601f01602090048101928215620006ef5791602002820160005b83821115620006be57835183826101000a81548160ff021916908360ff16021790555092602001926001016020816000010492830192600103026200067e565b8015620006ed5782816101000a81549060ff0219169055600101602081600001049283019260010302620006be565b505b50620006fd92915062000701565b5090565b5b80821115620006fd576000815560010162000702565b80516001600160a01b03811681146200073057600080fd5b919050565b600080604083850312156200074957600080fd5b620007548362000718565b9150620007646020840162000718565b90509250929050565b604051608081016001600160401b03811182821017156200079e57634e487b7160e01b600052604160045260246000fd5b60405290565b600060808284031215620007b757600080fd5b82601f830112620007c757600080fd5b620007d16200076d565b806080840185811115620007e457600080fd5b845b8181101562000800578051845260209384019301620007e6565b509095945050505050565b634e487b7160e01b600052603260045260246000fd5b6000600182016200084257634e487b7160e01b600052601160045260246000fd5b5060010190565b613cc880620008596000396000f3fe6080604052600436106102bb5760003560e01c8063836697261161016e578063c7876ea4116100cb578063dbd4e0211161007f578063f61ccd5311610064578063f61ccd531461082b578063f79fe5381461084b578063f8c912441461087e57600080fd5b8063dbd4e021146107f8578063f544d82f1461081857600080fd5b8063d2ec5fca116100b0578063d2ec5fca14610787578063d3156905146107b8578063d9b76ed4146107d857600080fd5b8063c7876ea414610751578063d07699aa1461076757600080fd5b8063b069862811610122578063b782426e11610107578063b782426e146106f1578063b9f37c8614610711578063c5bc4c0b1461073157600080fd5b8063b0698628146106b1578063b612e9b9146106d157600080fd5b806388a8c95c1161015357806388a8c95c14610651578063a22cb46514610671578063a3be52a21461069157600080fd5b80638366972614610611578063849a799c1461063157600080fd5b806322b68deb1161021c57806339de6469116101d057806363a44e69116101b557806363a44e691461051e5780637362377b146105dc5780638146970a146105f157600080fd5b806339de6469146104de5780634d505584146104fe57600080fd5b806329c68dc11161020157806329c68dc1146104895780632f9267321461049e57806334026859146104be57600080fd5b806322b68deb1461045d578063251c94221461047357600080fd5b80630e68b116116102735780631f06e91c116102585780631f06e91c146103fd57806320e3dbd41461041d57806321ec2b5b1461043d57600080fd5b80630e68b116146103ad5780631896f70a146103db57600080fd5b806302fb0c5e116102a457806302fb0c5e1461031d57806305e84aa01461035f5780630aac66251461037f57600080fd5b80630178b8bf146102c057806301e51ae8146102fd575b600080fd5b3480156102cc57600080fd5b506102e06102db3660046130f9565b6108b1565b6040516001600160a01b0390911681526020015b60405180910390f35b34801561030957600080fd5b506002546102e0906001600160a01b031681565b34801561032957600080fd5b5060025461034f9074010000000000000000000000000000000000000000900460ff1681565b60405190151581526020016102f4565b34801561036b57600080fd5b506001546102e0906001600160a01b031681565b34801561038b57600080fd5b5061039f61039a3660046130f9565b61092b565b6040516102f4929190613112565b3480156103b957600080fd5b506103cd6103c83660046130f9565b610aeb565b6040519081526020016102f4565b3480156103e757600080fd5b506103fb6103f63660046131ae565b610b53565b005b34801561040957600080fd5b506103fb6104183660046131de565b610d19565b34801561042957600080fd5b506103fb610438366004613200565b610d88565b34801561044957600080fd5b506103fb6104583660046130f9565b610feb565b34801561046957600080fd5b506103cd60065481565b34801561047f57600080fd5b506103cd60035481565b34801561049557600080fd5b506103fb6112d7565b3480156104aa57600080fd5b506103fb6104b93660046131de565b61137e565b3480156104ca57600080fd5b5061034f6104d93660046130f9565b6114f0565b3480156104ea57600080fd5b506103fb6104f93660046131de565b611573565b34801561050a57600080fd5b5061034f61051936600461323a565b611676565b34801561052a57600080fd5b5061059c6105393660046130f9565b60076020819052600091825260409091206002810154600382015460048301546005840154600685015494909501549294919390926001600160a01b039283169282169174010000000000000000000000000000000000000000900460ff169087565b604080519788526020880196909652948601939093526001600160a01b039182166060860152166080840152151560a083015260c082015260e0016102f4565b3480156105e857600080fd5b506103fb611722565b3480156105fd57600080fd5b506103fb61060c3660046131de565b6117c8565b34801561061d57600080fd5b506103fb61062c366004613266565b611a2e565b34801561063d57600080fd5b506103fb61064c366004613266565b611cbf565b34801561065d57600080fd5b506103fb61066c366004613200565b611f4a565b34801561067d57600080fd5b506103fb61068c3660046132b2565b612025565b34801561069d57600080fd5b506103fb6106ac3660046131de565b6120af565b3480156106bd57600080fd5b5061034f6106cc3660046131ae565b61223a565b3480156106dd57600080fd5b506103fb6106ec36600461323a565b6122de565b3480156106fd57600080fd5b506000546102e0906001600160a01b031681565b34801561071d57600080fd5b506005546102e0906001600160a01b031681565b34801561073d57600080fd5b506103cd61074c3660046130f9565b61270b565b34801561075d57600080fd5b506103cd60045481565b34801561077357600080fd5b506103fb6107823660046132e0565b612773565b34801561079357600080fd5b506103cd6107a23660046130f9565b6000908152600760208190526040909120015490565b3480156107c457600080fd5b506103fb6107d33660046131ae565b612940565b3480156107e457600080fd5b506103fb6107f33660046131ae565b612afb565b34801561080457600080fd5b506102e06108133660046130f9565b612cb6565b6103fb6108263660046131de565b612d27565b34801561083757600080fd5b506103cd6108463660046130f9565b612fc9565b34801561085757600080fd5b5061034f6108663660046130f9565b60009081526007602081905260409091200154421090565b34801561088a57600080fd5b5061034f6108993660046131de565b60009182526007602052604090912060030154141590565b600081815260076020819052604082200154829042106109075760405162461bcd60e51b815260206004820152600c60248201526b1093d39117d156141254915160a21b60448201526064015b60405180910390fd5b6000838152600760205260409020600501546001600160a01b031691505b50919050565b60608082600760008281526020019081526020016000206007015442106109835760405162461bcd60e51b815260206004820152600c60248201526b1093d39117d156141254915160a21b60448201526064016108fe565b600084815260076020908152604091829020805483518184028101840190945280845290918301828280156109f557602002820191906000526020600020906000905b825461010083900a900460ff168152602060019283018181049485019490930390920291018084116109c65790505b50505050509250825167ffffffffffffffff811115610a1657610a16613305565b604051908082528060200260200182016040528015610a3f578160200160208202803683370190505b50915060005b8351811015610ae457600760008681526020019081526020016000206001016000858381518110610a7857610a78613334565b602002602001015160ff1660ff16815260200190815260200160002060009054906101000a90046001600160a01b0316838281518110610aba57610aba613334565b6001600160a01b039092166020928302919091019091015280610adc81613392565b915050610a45565b5050915091565b60008181526007602081905260408220015482904210610b3c5760405162461bcd60e51b815260206004820152600c60248201526b1093d39117d156141254915160a21b60448201526064016108fe565b505060009081526007602052604090206003015490565b6000828152600760205260408082206002015460015491516302571be360e01b815260048101829052859391926001600160a01b0316906302571be390602401602060405180830381865afa158015610bb0573d6000803e3d6000fd5b505050506040513d601f19601f82011682018060405250810190610bd491906133ca565b6005549091506001600160a01b0316331480610bf857506001600160a01b03811633145b80610c2657506001600160a01b038116600090815260086020908152604080832033845290915290205460ff165b80610c4a57506000838152600760205260409020600601546001600160a01b031633145b610c965760405162461bcd60e51b815260206004820152600e60248201527f4e4f545f415554484f524953454400000000000000000000000000000000000060448201526064016108fe565b60008581526007602090815260409182902060050180547fffffffffffffffffffffffff0000000000000000000000000000000000000000166001600160a01b038816908117909155915191825286917f335721b01866dc23fbee8b6b2c7b1e14d6f05c28cd35a2c934239f94095602a091015b60405180910390a25050505050565b6005546001600160a01b03163314610d735760405162461bcd60e51b815260206004820152600d60248201527f4e4f545f5245474953545241520000000000000000000000000000000000000060448201526064016108fe565b60009182526007602052604090912060040155565b6002546001600160a01b03163314610de25760405162461bcd60e51b815260206004820152600760248201527f4e4f545f4445560000000000000000000000000000000000000000000000000060448201526064016108fe565b600080547fffffffffffffffffffffffff0000000000000000000000000000000000000000166001600160a01b038316908117909155604080517f642a8ed6000000000000000000000000000000000000000000000000000000008152905163642a8ed6916004808201926080929091908290030181865afa158015610e6c573d6000803e3d6000fd5b505050506040513d601f19601f82011682018060405250810190610e909190613437565b60200151600355600054604080517fbd9a548b00000000000000000000000000000000000000000000000000000000815290516001600160a01b039092169163bd9a548b916004808201926080929091908290030181865afa158015610efa573d6000803e3d6000fd5b505050506040513d601f19601f82011682018060405250810190610f1e9190613437565b602001516004908155600054604080517f4d3f733400000000000000000000000000000000000000000000000000000000815290516001600160a01b0390921692634d3f73349282820192608092908290030181865afa158015610f86573d6000803e3d6000fd5b505050506040513d601f19601f82011682018060405250810190610faa9190613497565b60016020020151600580547fffffffffffffffffffffffff0000000000000000000000000000000000000000166001600160a01b0390921691909117905550565b6000818152600760205260408082206002015460015491516302571be360e01b815260048101829052849391926001600160a01b0316906302571be390602401602060405180830381865afa158015611048573d6000803e3d6000fd5b505050506040513d601f19601f8201168201806040525081019061106c91906133ca565b6005549091506001600160a01b031633148061109057506001600160a01b03811633145b806110be57506001600160a01b038116600090815260086020908152604080832033845290915290205460ff165b806110e257506000838152600760205260409020600601546001600160a01b031633145b61112e5760405162461bcd60e51b815260206004820152600e60248201527f4e4f545f415554484f524953454400000000000000000000000000000000000060448201526064016108fe565b6000848152600760209081526040808320805482518185028101850190935280835291929091908301828280156111a257602002820191906000526020600020906000905b825461010083900a900460ff168152602060019283018181049485019490930390920291018084116111735790505b5050505050905060005b815181101561128d5760006007600088815260200190815260200160002060010160008484815181106111e1576111e1613334565b602002602001015160ff1660ff16815260200190815260200160002060006101000a8154816001600160a01b0302191690836001600160a01b03160217905550857fbf47c0c608c230f7dffbcf65f8cdc76f5f920e4750eea1dcd09138a7359226ac83838151811061125557611255613334565b6020026020010151604051611273919060ff91909116815260200190565b60405180910390a28061128581613392565b9150506111ac565b5060008581526007602052604081206112a5916130c0565b60405185907f6b91085369552b61ca16180a741663b69fb6b3b967f7271116521d84e2291dc590600090a25050505050565b6002546001600160a01b031633146113315760405162461bcd60e51b815260206004820152600760248201527f4e4f545f4445560000000000000000000000000000000000000000000000000060448201526064016108fe565b600280547fffffffffffffffffffffff00ffffffffffffffffffffffffffffffffffffffff8116740100000000000000000000000000000000000000009182900460ff1615909102179055565b6005546001600160a01b031633146113d85760405162461bcd60e51b815260206004820152600d60248201527f4e4f545f5245474953545241520000000000000000000000000000000000000060448201526064016108fe565b6001546040516302571be360e01b8152600481018390526000916001600160a01b0316906302571be390602401602060405180830381865afa158015611422573d6000803e3d6000fd5b505050506040513d601f19601f8201168201806040525081019061144691906133ca565b6001600160a01b03160361149c5760405162461bcd60e51b815260206004820152600b60248201527f43414e4e4f545f4255524e00000000000000000000000000000000000000000060448201526064016108fe565b600082815260076020526040908190206002018290555182907f4810581adf2c16a86a375dbb1ed89b0b0f7e64d48d24e1948b3dfe6581e4d795906114e49084815260200190565b60405180910390a25050565b600081815260076020819052604082200154829042106115415760405162461bcd60e51b815260206004820152600c60248201526b1093d39117d156141254915160a21b60448201526064016108fe565b505060009081526007602052604090206006015474010000000000000000000000000000000000000000900460ff1690565b6005546001600160a01b031633146115cd5760405162461bcd60e51b815260206004820152600d60248201527f4e4f545f5245474953545241520000000000000000000000000000000000000060448201526064016108fe565b60008281526007602081905260409091200154811161162e5760405162461bcd60e51b815260206004820152600a60248201527f4241445f4558504952590000000000000000000000000000000000000000000060448201526064016108fe565b600082815260076020819052604091829020018290555182907fa620b72378ee464490805a96e25b53e5c0076f0ce2d28f9691ae255a595b3bf3906114e49084815260200190565b60008281526007602052604080822090517f26c6421b00000000000000000000000000000000000000000000000000000000815273__$47e4ffaaf323c41735ff299f8946896ce0$__916326c6421b916116d79160ff8716916004016134f5565b602060405180830381865af41580156116f4573d6000803e3d6000fd5b505050506040513d601f19601f820116820180604052508101906117189190613bc5565b1590505b92915050565b6002546040516000916001600160a01b03169047908381818185875af1925050503d806000811461176f576040519150601f19603f3d011682016040523d82523d6000602084013e611774565b606091505b50509050806117c55760405162461bcd60e51b815260206004820152601360248201527f4554485f5452414e534645525f4641494c45440000000000000000000000000060448201526064016108fe565b50565b600082815260076020819052604090912001548290421061181a5760405162461bcd60e51b815260206004820152600c60248201526b1093d39117d156141254915160a21b60448201526064016108fe565b6000818152600760205260408082206002015460015491516302571be360e01b8152600481018290529092916001600160a01b0316906302571be390602401602060405180830381865afa158015611876573d6000803e3d6000fd5b505050506040513d601f19601f8201168201806040525081019061189a91906133ca565b90506001600160a01b0381163314806118d657506001600160a01b038116600090815260086020908152604080832033845290915290205460ff165b6119225760405162461bcd60e51b815260206004820152600960248201527f4e4f545f4f574e4552000000000000000000000000000000000000000000000060448201526064016108fe565b6001546040516302571be360e01b8152600481018690526000916001600160a01b0316906302571be390602401602060405180830381865afa15801561196c573d6000803e3d6000fd5b505050506040513d601f19601f8201168201806040525081019061199091906133ca565b6001600160a01b0316036119e65760405162461bcd60e51b815260206004820152600b60248201527f43414e4e4f545f4255524e00000000000000000000000000000000000000000060448201526064016108fe565b600085815260076020526040908190206002018590555185907f4810581adf2c16a86a375dbb1ed89b0b0f7e64d48d24e1948b3dfe6581e4d79590610d0a9087815260200190565b6000838152600760208190526040909120015483904210611a805760405162461bcd60e51b815260206004820152600c60248201526b1093d39117d156141254915160a21b60448201526064016108fe565b6000818152600760205260408082206002015460015491516302571be360e01b8152600481018290529092916001600160a01b0316906302571be390602401602060405180830381865afa158015611adc573d6000803e3d6000fd5b505050506040513d601f19601f82011682018060405250810190611b0091906133ca565b90506001600160a01b038116331480611b3c57506001600160a01b038116600090815260086020908152604080832033845290915290205460ff165b80611b6057506000838152600760205260409020600601546001600160a01b031633145b611bac5760405162461bcd60e51b815260206004820152601760248201527f4e4f545f4f574e45525f4f525f434f4e54524f4c4c455200000000000000000060448201526064016108fe565b600086815260076020908152604080832060ff881684526001019091529020546001600160a01b03808716911603611c265760405162461bcd60e51b815260206004820152600b60248201527f52554c455f45584953545300000000000000000000000000000000000000000060448201526064016108fe565b600086815260076020908152604080832060ff8816808552600190910183529281902080547fffffffffffffffffffffffff0000000000000000000000000000000000000000166001600160a01b038a1690811790915581519081529182019290925287917fe43a78ddf6157361fe34d04905786138f88d3eda20b1f7dc0e2c619f9267310091015b60405180910390a2505050505050565b6000838152600760208190526040909120015483904210611d115760405162461bcd60e51b815260206004820152600c60248201526b1093d39117d156141254915160a21b60448201526064016108fe565b6000818152600760205260408082206002015460015491516302571be360e01b8152600481018290529092916001600160a01b0316906302571be390602401602060405180830381865afa158015611d6d573d6000803e3d6000fd5b505050506040513d601f19601f82011682018060405250810190611d9191906133ca565b90506001600160a01b038116331480611dcd57506001600160a01b038116600090815260086020908152604080832033845290915290205460ff165b80611df157506000838152600760205260409020600601546001600160a01b031633145b611e3d5760405162461bcd60e51b815260206004820152601760248201527f4e4f545f4f574e45525f4f525f434f4e54524f4c4c455200000000000000000060448201526064016108fe565b611e478685611676565b611e935760405162461bcd60e51b815260206004820152600b60248201527f484f4f4b5f45584953545300000000000000000000000000000000000000000060448201526064016108fe565b600086815260076020908152604080832080546001808201835582865284862085830401805460ff8c8116601f9095166101000a85810291021990911617905581865290910183529281902080546001600160a01b038a167fffffffffffffffffffffffff0000000000000000000000000000000000000000909116811790915581519081529182019290925287917fc733a2bc621cc97eef6ed4f708f126e72e6acb76c0a1c0461c9dd31f7b9870659101611caf565b6002546001600160a01b03163314611fa45760405162461bcd60e51b815260206004820152600760248201527f4e4f545f4445560000000000000000000000000000000000000000000000000060448201526064016108fe565b600254604080516001600160a01b03928316815291831660208301527fdec101f106d4fc7c85791843e64b198248c822298e3ed7046231d33f7783d816910160405180910390a1600280547fffffffffffffffffffffffff0000000000000000000000000000000000000000166001600160a01b0392909216919091179055565b3360008181526008602090815260408083206001600160a01b0387168085529083529281902080547fffffffffffffffffffffffffffffffffffffffffffffffffffffffffffffff001686151590811790915590519081529192917f17307eab39ab6107e8899845ad3d59bd9653f200f220920489ca2b5937696c31910160405180910390a35050565b6000828152600760205260408082206002015460015491516302571be360e01b815260048101829052859391926001600160a01b0316906302571be390602401602060405180830381865afa15801561210c573d6000803e3d6000fd5b505050506040513d601f19601f8201168201806040525081019061213091906133ca565b6005549091506001600160a01b031633148061215457506001600160a01b03811633145b8061218257506001600160a01b038116600090815260086020908152604080832033845290915290205460ff165b806121a657506000838152600760205260409020600601546001600160a01b031633145b6121f25760405162461bcd60e51b815260206004820152600e60248201527f4e4f545f415554484f524953454400000000000000000000000000000000000060448201526064016108fe565b600085815260076020526040908190206003018590555185907f600ffddd29393ca43c0a11fa6b0b7096631364178cb42f9d546c0a2cd22525ee90610d0a9087815260200190565b6001546040516302571be360e01b81526004810184905260009182916001600160a01b03909116906302571be390602401602060405180830381865afa158015612288573d6000803e3d6000fd5b505050506040513d601f19601f820116820180604052508101906122ac91906133ca565b6001600160a01b0390811660009081526008602090815260408083209387168352929052205460ff1691505092915050565b60008281526007602081905260409091200154829042106123305760405162461bcd60e51b815260206004820152600c60248201526b1093d39117d156141254915160a21b60448201526064016108fe565b6000818152600760205260408082206002015460015491516302571be360e01b8152600481018290529092916001600160a01b0316906302571be390602401602060405180830381865afa15801561238c573d6000803e3d6000fd5b505050506040513d601f19601f820116820180604052508101906123b091906133ca565b90506001600160a01b0381163314806123ec57506001600160a01b038116600090815260086020908152604080832033845290915290205460ff165b8061241057506000838152600760205260409020600601546001600160a01b031633145b61245c5760405162461bcd60e51b815260206004820152601760248201527f4e4f545f4f574e45525f4f525f434f4e54524f4c4c455200000000000000000060448201526064016108fe565b6000858152600760209081526040808320805482518185028101850190935280835291929091908301828280156124d057602002820191906000526020600020906000905b825461010083900a900460ff168152602060019283018181049485019490930390920291018084116124a15790505b50506040517f26c6421b00000000000000000000000000000000000000000000000000000000815293945073__$47e4ffaaf323c41735ff299f8946896ce0$__936326c6421b935061252d925060ff8a1691508590600401613be2565b602060405180830381865af415801561254a573d6000803e3d6000fd5b505050506040513d601f19601f8201168201806040525081019061256e9190613bc5565b156126d1576040517f8ab65ceb00000000000000000000000000000000000000000000000000000000815260009073__$47e4ffaaf323c41735ff299f8946896ce0$__90638ab65ceb906125cb9060ff8a16908690600401613be2565b602060405180830381865af41580156125e8573d6000803e3d6000fd5b505050506040513d601f19601f8201168201806040525081019061260c9190613c29565b600088815260076020908152604080832060ff8b16808552600190910183529281902080547fffffffffffffffffffffffff00000000000000000000000000000000000000001690555191825291925088917fbf47c0c608c230f7dffbcf65f8cdc76f5f920e4750eea1dcd09138a7359226ac910160405180910390a260008781526007602052604090208054829081106126a9576126a9613334565b90600052602060002090602091828204019190066101000a81549060ff021916905550612703565b6040517fe8dd1d3e00000000000000000000000000000000000000000000000000000000815260040160405180910390fd5b505050505050565b6000818152600760208190526040822001548290421061275c5760405162461bcd60e51b815260206004820152600c60248201526b1093d39117d156141254915160a21b60448201526064016108fe565b505060009081526007602052604090206004015490565b6000828152600760205260408082206002015460015491516302571be360e01b815260048101829052859391926001600160a01b0316906302571be390602401602060405180830381865afa1580156127d0573d6000803e3d6000fd5b505050506040513d601f19601f820116820180604052508101906127f491906133ca565b6005549091506001600160a01b031633148061281857506001600160a01b03811633145b8061284657506001600160a01b038116600090815260086020908152604080832033845290915290205460ff165b8061286a57506000838152600760205260409020600601546001600160a01b031633145b6128b65760405162461bcd60e51b815260206004820152600e60248201527f4e4f545f415554484f524953454400000000000000000000000000000000000060448201526064016108fe565b60008581526007602052604090819020600601805486151574010000000000000000000000000000000000000000027fffffffffffffffffffffff00ffffffffffffffffffffffffffffffffffffffff9091161790555185907fe6ccdb52b4954ab2c3e293f1dbfe593e6c5630962a1944bfcf20c5563eeb846290610d0a90871515815260200190565b6000828152600760205260408082206002015460015491516302571be360e01b815260048101829052859391926001600160a01b0316906302571be390602401602060405180830381865afa15801561299d573d6000803e3d6000fd5b505050506040513d601f19601f820116820180604052508101906129c191906133ca565b6005549091506001600160a01b03163314806129e557506001600160a01b03811633145b80612a1357506001600160a01b038116600090815260086020908152604080832033845290915290205460ff165b80612a3757506000838152600760205260409020600601546001600160a01b031633145b612a835760405162461bcd60e51b815260206004820152600e60248201527f4e4f545f415554484f524953454400000000000000000000000000000000000060448201526064016108fe565b60008581526007602090815260409182902060060180547fffffffffffffffffffffffff0000000000000000000000000000000000000000166001600160a01b038816908117909155915191825286917fe5108446a6097aab57fd36f346a515a78fddefa87d81662d44e0d7a463f920959101610d0a565b6000828152600760205260408082206002015460015491516302571be360e01b815260048101829052859391926001600160a01b0316906302571be390602401602060405180830381865afa158015612b58573d6000803e3d6000fd5b505050506040513d601f19601f82011682018060405250810190612b7c91906133ca565b6005549091506001600160a01b0316331480612ba057506001600160a01b03811633145b80612bce57506001600160a01b038116600090815260086020908152604080832033845290915290205460ff165b80612bf257506000838152600760205260409020600601546001600160a01b031633145b612c3e5760405162461bcd60e51b815260206004820152600e60248201527f4e4f545f415554484f524953454400000000000000000000000000000000000060448201526064016108fe565b60008581526007602090815260409182902060050180547fffffffffffffffffffffffff0000000000000000000000000000000000000000166001600160a01b038816908117909155915191825286917fcb71326aeaad88869e8be8be2893e1119f7617ce4ea2411af127e218909be1f79101610d0a565b60008181526007602081905260408220015482904210612d075760405162461bcd60e51b815260206004820152600c60248201526b1093d39117d156141254915160a21b60448201526064016108fe565b50506000908152600760205260409020600601546001600160a01b031690565b6000828152600760208190526040909120015482904210612d795760405162461bcd60e51b815260206004820152600c60248201526b1093d39117d156141254915160a21b60448201526064016108fe565b6000818152600760205260408082206002015460015491516302571be360e01b8152600481018290529092916001600160a01b0316906302571be390602401602060405180830381865afa158015612dd5573d6000803e3d6000fd5b505050506040513d601f19601f82011682018060405250810190612df991906133ca565b90506001600160a01b038116331480612e3557506001600160a01b038116600090815260086020908152604080832033845290915290205460ff165b80612e5957506000838152600760205260409020600601546001600160a01b031633145b612ea55760405162461bcd60e51b815260206004820152601760248201527f4e4f545f4f574e45525f4f525f434f4e54524f4c4c455200000000000000000060448201526064016108fe565b600085815260076020819052604090912001548411612f065760405162461bcd60e51b815260206004820152600a60248201527f4241445f4558504952590000000000000000000000000000000000000000000060448201526064016108fe565b600085815260076020819052604082200154612f229086613c42565b905060045481612f329190613c55565b341015612f815760405162461bcd60e51b815260206004820152601260248201527f494e53554646494349454e545f4554484552000000000000000000000000000060448201526064016108fe565b600086815260076020819052604091829020018690555186907fa620b72378ee464490805a96e25b53e5c0076f0ce2d28f9691ae255a595b3bf390611caf9088815260200190565b6000818152600760208190526040822001548290421061301a5760405162461bcd60e51b815260206004820152600c60248201526b1093d39117d156141254915160a21b60448201526064016108fe565b6000838152600760205260408082206002015460015491516302571be360e01b8152600481018290529092916001600160a01b0316906302571be390602401602060405180830381865afa158015613076573d6000803e3d6000fd5b505050506040513d601f19601f8201168201806040525081019061309a91906133ca565b9050306001600160a01b038216036130b85760035493505050610925565b509392505050565b50805460008255601f0160209004906000526020600020908101906117c591905b808211156130f557600081556001016130e1565b5090565b60006020828403121561310b57600080fd5b5035919050565b604080825283519082018190526000906020906060840190828701845b8281101561314e57815160ff168452928401929084019060010161312f565b5050508381038285015284518082528583019183019060005b8181101561318c5783516001600160a01b031683529284019291840191600101613167565b5090979650505050505050565b6001600160a01b03811681146117c557600080fd5b600080604083850312156131c157600080fd5b8235915060208301356131d381613199565b809150509250929050565b600080604083850312156131f157600080fd5b50508035926020909101359150565b60006020828403121561321257600080fd5b813561321d81613199565b9392505050565b803560ff8116811461323557600080fd5b919050565b6000806040838503121561324d57600080fd5b8235915061325d60208401613224565b90509250929050565b60008060006060848603121561327b57600080fd5b83359250602084013561328d81613199565b915061329b60408501613224565b90509250925092565b80151581146117c557600080fd5b600080604083850312156132c557600080fd5b82356132d081613199565b915060208301356131d3816132a4565b600080604083850312156132f357600080fd5b8235915060208301356131d3816132a4565b7f4e487b7100000000000000000000000000000000000000000000000000000000600052604160045260246000fd5b7f4e487b7100000000000000000000000000000000000000000000000000000000600052603260045260246000fd5b7f4e487b7100000000000000000000000000000000000000000000000000000000600052601160045260246000fd5b60007fffffffffffffffffffffffffffffffffffffffffffffffffffffffffffffffff82036133c3576133c3613363565b5060010190565b6000602082840312156133dc57600080fd5b815161321d81613199565b6040516080810167ffffffffffffffff81118282101715613431577f4e487b7100000000000000000000000000000000000000000000000000000000600052604160045260246000fd5b60405290565b60006080828403121561344957600080fd5b82601f83011261345857600080fd5b6134606133e7565b80608084018581111561347257600080fd5b845b8181101561348c578051845260209384019301613474565b509095945050505050565b6000608082840312156134a957600080fd5b82601f8301126134b857600080fd5b6134c06133e7565b8060808401858111156134d257600080fd5b845b8181101561348c5780516134e781613199565b8452602093840193016134d4565b60006040820160ff8086168452602060408186015282865461351b818690815260200190565b60008981526020812096509092505b81601f820110156137b157855460ff868216168452613552858501878360081c1660ff169052565b61356660408501878360101c1660ff169052565b606061357b818601888460181c1660ff169052565b608061358f81870189858a1c1660ff169052565b60a06135a48188018a8660281c1660ff169052565b60c06135b98189018b8760301c1660ff169052565b60e06135ce818a018c8860381c1660ff169052565b6135e36101008a018c8860401c1660ff169052565b6135f86101208a018c8860481c1660ff169052565b61360d6101408a018c8860501c1660ff169052565b6136226101608a018c8860581c1660ff169052565b60ff86861c8c16166101808a01526136456101a08a018c8860681c1660ff169052565b61365a6101c08a018c8860701c1660ff169052565b61366f6101e08a018c8860781c1660ff169052565b60ff86851c8c16166102008a01526136926102208a018c8860881c1660ff169052565b6136a76102408a018c8860901c1660ff169052565b6136bc6102608a018c8860981c1660ff169052565b60ff86841c8c16166102808a01526136df6102a08a018c8860a81c1660ff169052565b6136f46102c08a018c8860b01c1660ff169052565b6137096102e08a018c8860b81c1660ff169052565b60ff86831c8c16166103008a015261372c6103208a018c8860c81c1660ff169052565b6137416103408a018c8860d01c1660ff169052565b6137566103608a018c8860d81c1660ff169052565b60ff86821c8c16166103808a0152505050505061377e6103a08501878360e81c1660ff169052565b6137936103c08501878360f01c1660ff169052565b60f81c6103e08401526001959095019461040090920191830161352a565b945494818110156137cc5760ff868616168352918301916001015b818110156137ed576137e583868860081c1660ff169052565b918301916001015b8181101561380e5761380683868860101c1660ff169052565b918301916001015b8181101561382f5761382783868860181c1660ff169052565b918301916001015b818110156138495760ff86851c8616168352918301916001015b8181101561386a5761386283868860281c1660ff169052565b918301916001015b8181101561388b5761388383868860301c1660ff169052565b918301916001015b818110156138ac576138a483868860381c1660ff169052565b918301916001015b818110156138cd576138c583868860401c1660ff169052565b918301916001015b818110156138ee576138e683868860481c1660ff169052565b918301916001015b8181101561390f5761390783868860501c1660ff169052565b918301916001015b818110156139305761392883868860581c1660ff169052565b918301916001015b818110156139515761394983868860601c1660ff169052565b918301916001015b818110156139725761396a83868860681c1660ff169052565b918301916001015b818110156139935761398b83868860701c1660ff169052565b918301916001015b818110156139b4576139ac83868860781c1660ff169052565b918301916001015b818110156139d5576139cd83868860801c1660ff169052565b918301916001015b818110156139f6576139ee83868860881c1660ff169052565b918301916001015b81811015613a1757613a0f83868860901c1660ff169052565b918301916001015b81811015613a3857613a3083868860981c1660ff169052565b918301916001015b81811015613a5957613a5183868860a01c1660ff169052565b918301916001015b81811015613a7a57613a7283868860a81c1660ff169052565b918301916001015b81811015613a9b57613a9383868860b01c1660ff169052565b918301916001015b81811015613abc57613ab483868860b81c1660ff169052565b918301916001015b81811015613add57613ad583868860c01c1660ff169052565b918301916001015b81811015613afe57613af683868860c81c1660ff169052565b918301916001015b81811015613b1f57613b1783868860d01c1660ff169052565b918301916001015b81811015613b4057613b3883868860d81c1660ff169052565b918301916001015b81811015613b6157613b5983868860e01c1660ff169052565b918301916001015b81811015613b8257613b7a83868860e81c1660ff169052565b918301916001015b81811015613ba357613b9b83868860f01c1660ff169052565b918301916001015b81811015613bb75760f886901c8352918301915b509098975050505050505050565b600060208284031215613bd757600080fd5b815161321d816132a4565b60006040820160ff80861684526020604081860152828651808552606087019150828801945060005b81811015613bb7578551851683529483019491830191600101613c0b565b600060208284031215613c3b57600080fd5b5051919050565b8181038181111561171c5761171c613363565b6000817fffffffffffffffffffffffffffffffffffffffffffffffffffffffffffffffff0483118215151615613c8d57613c8d613363565b50029056fea26469706673582212203b0317f7b23356a703efa4a3ceeb0a781d2e2f5ae8f95a47b8e54f22451a32f464736f6c63430008100033",
    "linkReferences": {
      "src/Utils/LibString.sol": {
        "LibString": [
          {
            "start": 7941,
            "length": 20
          },
          {
            "start": 11606,
            "length": 20
          },
          {
            "start": 11767,
            "length": 20
          }
        ]
      }
    }
  },
  "methodIdentifiers": {
    "Bonds(bytes32)": "63a44e69",
    "Dev()": "01e51ae8",
    "HELIX2()": "b782426e",
    "NAMES()": "05e84aa0",
    "Registrar()": "b9f37c86",
    "active()": "02fb0c5e",
    "alias_(bytes32)": "c5bc4c0b",
    "anion(bytes32)": "0e68b116",
    "basePrice()": "c7876ea4",
    "cation(bytes32)": "f61ccd53",
    "changeDev(address)": "88a8c95c",
    "controller(bytes32)": "dbd4e021",
    "covalence(bytes32)": "34026859",
    "expiry(bytes32)": "d2ec5fca",
    "hook(bytes32,address,uint8)": "849a799c",
    "hooksWithRules(bytes32)": "0aac6625",
    "isApprovedForAll(bytes32,address)": "b0698628",
    "isNotDuplicateAnion(bytes32,bytes32)": "f8c91244",
    "isNotDuplicateHook(bytes32,uint8)": "4d505584",
    "recordExists(bytes32)": "f79fe538",
    "register(bytes32,bytes32)": "2f926732",
    "rehook(bytes32,address,uint8)": "83669726",
    "renew(bytes32,uint256)": "f544d82f",
    "resolver(bytes32)": "0178b8bf",
    "roothash()": "251c9422",
    "setAlias(bytes32,bytes32)": "1f06e91c",
    "setAnion(bytes32,bytes32)": "a3be52a2",
    "setApprovalForAll(address,bool)": "a22cb465",
    "setCation(bytes32,bytes32)": "8146970a",
    "setConfig(address)": "20e3dbd4",
    "setController(bytes32,address)": "d3156905",
    "setCovalence(bytes32,bool)": "d07699aa",
    "setExpiry(bytes32,uint256)": "39de6469",
    "setRecord(bytes32,address)": "d9b76ed4",
    "setResolver(bytes32,address)": "1896f70a",
    "theEnd()": "22b68deb",
    "toggleActive()": "29c68dc1",
    "unhook(bytes32,uint8)": "b612e9b9",
    "unhookAll(bytes32)": "21ec2b5b",
    "withdrawEther()": "7362377b"
  },
  "id": 18
}