{
  "abi": [
    {
      "inputs": [
        {
          "internalType": "address",
          "name": "_registry",
          "type": "address"
        },
        {
          "internalType": "address",
          "name": "_helix2",
          "type": "address"
        }
      ],
      "stateMutability": "nonpayable",
      "type": "constructor"
    },
    {
      "anonymous": false,
      "inputs": [
        {
          "indexed": true,
          "internalType": "address",
          "name": "cation",
          "type": "address"
        },
        {
          "indexed": true,
          "internalType": "address",
          "name": "operator",
          "type": "address"
        },
        {
          "indexed": false,
          "internalType": "bool",
          "name": "approved",
          "type": "bool"
        }
      ],
      "name": "ApprovalForAll",
      "type": "event"
    },
    {
      "anonymous": false,
      "inputs": [
        {
          "indexed": true,
          "internalType": "bytes32",
          "name": "bondhash",
          "type": "bytes32"
        },
        {
          "indexed": false,
          "internalType": "address",
          "name": "config",
          "type": "address"
        },
        {
          "indexed": false,
          "internalType": "uint8",
          "name": "rule",
          "type": "uint8"
        }
      ],
      "name": "Hooked",
      "type": "event"
    },
    {
      "anonymous": false,
      "inputs": [
        {
          "indexed": true,
          "internalType": "bytes32",
          "name": "bondhash",
          "type": "bytes32"
        },
        {
          "indexed": false,
          "internalType": "bytes32",
          "name": "_alias",
          "type": "bytes32"
        }
      ],
      "name": "NewAlias",
      "type": "event"
    },
    {
      "anonymous": false,
      "inputs": [
        {
          "indexed": true,
          "internalType": "bytes32",
          "name": "bondhash",
          "type": "bytes32"
        },
        {
          "indexed": false,
          "internalType": "bytes32",
          "name": "anion",
          "type": "bytes32"
        }
      ],
      "name": "NewAnion",
      "type": "event"
    },
    {
      "anonymous": false,
      "inputs": [
        {
          "indexed": true,
          "internalType": "bytes32",
          "name": "bondhash",
          "type": "bytes32"
        },
        {
          "indexed": false,
          "internalType": "bytes32",
          "name": "cation",
          "type": "bytes32"
        }
      ],
      "name": "NewBond",
      "type": "event"
    },
    {
      "anonymous": false,
      "inputs": [
        {
          "indexed": true,
          "internalType": "bytes32",
          "name": "bondhash",
          "type": "bytes32"
        },
        {
          "indexed": false,
          "internalType": "bytes32",
          "name": "cation",
          "type": "bytes32"
        }
      ],
      "name": "NewCation",
      "type": "event"
    },
    {
      "anonymous": false,
      "inputs": [
        {
          "indexed": true,
          "internalType": "bytes32",
          "name": "bondhash",
          "type": "bytes32"
        },
        {
          "indexed": false,
          "internalType": "address",
          "name": "controller",
          "type": "address"
        }
      ],
      "name": "NewController",
      "type": "event"
    },
    {
      "anonymous": false,
      "inputs": [
        {
          "indexed": true,
          "internalType": "bytes32",
          "name": "bondhash",
          "type": "bytes32"
        },
        {
          "indexed": false,
          "internalType": "bool",
          "name": "covalence",
          "type": "bool"
        }
      ],
      "name": "NewCovalence",
      "type": "event"
    },
    {
      "anonymous": false,
      "inputs": [
        {
          "indexed": false,
          "internalType": "address",
          "name": "Dev",
          "type": "address"
        },
        {
          "indexed": false,
          "internalType": "address",
          "name": "newDev",
          "type": "address"
        }
      ],
      "name": "NewDev",
      "type": "event"
    },
    {
      "anonymous": false,
      "inputs": [
        {
          "indexed": true,
          "internalType": "bytes32",
          "name": "bondhash",
          "type": "bytes32"
        },
        {
          "indexed": false,
          "internalType": "uint256",
          "name": "expiry",
          "type": "uint256"
        }
      ],
      "name": "NewExpiry",
      "type": "event"
    },
    {
      "anonymous": false,
      "inputs": [
        {
          "indexed": true,
          "internalType": "bytes32",
          "name": "bondhash",
          "type": "bytes32"
        },
        {
          "indexed": false,
          "internalType": "address",
          "name": "resolver",
          "type": "address"
        }
      ],
      "name": "NewRecord",
      "type": "event"
    },
    {
      "anonymous": false,
      "inputs": [
        {
          "indexed": true,
          "internalType": "bytes32",
          "name": "bondhash",
          "type": "bytes32"
        },
        {
          "indexed": false,
          "internalType": "bytes32",
          "name": "cation",
          "type": "bytes32"
        }
      ],
      "name": "NewRegistration",
      "type": "event"
    },
    {
      "anonymous": false,
      "inputs": [
        {
          "indexed": true,
          "internalType": "bytes32",
          "name": "bondhash",
          "type": "bytes32"
        },
        {
          "indexed": false,
          "internalType": "address",
          "name": "resolver",
          "type": "address"
        }
      ],
      "name": "NewResolver",
      "type": "event"
    },
    {
      "anonymous": false,
      "inputs": [
        {
          "indexed": true,
          "internalType": "bytes32",
          "name": "bondhash",
          "type": "bytes32"
        },
        {
          "indexed": false,
          "internalType": "address",
          "name": "config",
          "type": "address"
        },
        {
          "indexed": false,
          "internalType": "uint8",
          "name": "rule",
          "type": "uint8"
        }
      ],
      "name": "Rehooked",
      "type": "event"
    },
    {
      "anonymous": false,
      "inputs": [
        {
          "indexed": true,
          "internalType": "bytes32",
          "name": "bondhash",
          "type": "bytes32"
        },
        {
          "indexed": false,
          "internalType": "address",
          "name": "config",
          "type": "address"
        }
      ],
      "name": "Unhooked",
      "type": "event"
    },
    {
      "anonymous": false,
      "inputs": [
        {
          "indexed": true,
          "internalType": "bytes32",
          "name": "bondhash",
          "type": "bytes32"
        }
      ],
      "name": "UnhookedAll",
      "type": "event"
    },
    {
      "inputs": [
        {
          "internalType": "bytes32",
          "name": "",
          "type": "bytes32"
        }
      ],
      "name": "Bonds",
      "outputs": [
        {
          "internalType": "bytes32",
          "name": "_cation",
          "type": "bytes32"
        },
        {
          "internalType": "bytes32",
          "name": "_anion",
          "type": "bytes32"
        },
        {
          "internalType": "bytes32",
          "name": "_alias",
          "type": "bytes32"
        },
        {
          "internalType": "address",
          "name": "_resolver",
          "type": "address"
        },
        {
          "internalType": "address",
          "name": "_controller",
          "type": "address"
        },
        {
          "internalType": "bool",
          "name": "_covalence",
          "type": "bool"
        },
        {
          "internalType": "uint256",
          "name": "_expiry",
          "type": "uint256"
        }
      ],
      "stateMutability": "view",
      "type": "function"
    },
    {
      "inputs": [],
      "name": "Dev",
      "outputs": [
        {
          "internalType": "address",
          "name": "",
          "type": "address"
        }
      ],
      "stateMutability": "view",
      "type": "function"
    },
    {
      "inputs": [],
      "name": "HELIX2",
      "outputs": [
        {
          "internalType": "contract iHELIX2",
          "name": "",
          "type": "address"
        }
      ],
      "stateMutability": "view",
      "type": "function"
    },
    {
      "inputs": [],
      "name": "NAMES",
      "outputs": [
        {
          "internalType": "contract iNAME",
          "name": "",
          "type": "address"
        }
      ],
      "stateMutability": "view",
      "type": "function"
    },
    {
      "inputs": [],
      "name": "active",
      "outputs": [
        {
          "internalType": "bool",
          "name": "",
          "type": "bool"
        }
      ],
      "stateMutability": "view",
      "type": "function"
    },
    {
      "inputs": [
        {
          "internalType": "bytes32",
          "name": "bondhash",
          "type": "bytes32"
        }
      ],
      "name": "alias_",
      "outputs": [
        {
          "internalType": "bytes32",
          "name": "",
          "type": "bytes32"
        }
      ],
      "stateMutability": "view",
      "type": "function"
    },
    {
      "inputs": [
        {
          "internalType": "bytes32",
          "name": "bondhash",
          "type": "bytes32"
        }
      ],
      "name": "anion",
      "outputs": [
        {
          "internalType": "bytes32",
          "name": "",
          "type": "bytes32"
        }
      ],
      "stateMutability": "view",
      "type": "function"
    },
    {
      "inputs": [],
      "name": "basePrice",
      "outputs": [
        {
          "internalType": "uint256",
          "name": "",
          "type": "uint256"
        }
      ],
      "stateMutability": "view",
      "type": "function"
    },
    {
      "inputs": [
        {
          "internalType": "bytes32",
          "name": "bondhash",
          "type": "bytes32"
        }
      ],
      "name": "cation",
      "outputs": [
        {
          "internalType": "bytes32",
          "name": "",
          "type": "bytes32"
        }
      ],
      "stateMutability": "view",
      "type": "function"
    },
    {
      "inputs": [
        {
          "internalType": "address",
          "name": "newDev",
          "type": "address"
        }
      ],
      "name": "changeDev",
      "outputs": [],
      "stateMutability": "nonpayable",
      "type": "function"
    },
    {
      "inputs": [
        {
          "internalType": "bytes32",
          "name": "bondhash",
          "type": "bytes32"
        }
      ],
      "name": "controller",
      "outputs": [
        {
          "internalType": "address",
          "name": "",
          "type": "address"
        }
      ],
      "stateMutability": "view",
      "type": "function"
    },
    {
      "inputs": [
        {
          "internalType": "bytes32",
          "name": "bondhash",
          "type": "bytes32"
        }
      ],
      "name": "covalence",
      "outputs": [
        {
          "internalType": "bool",
          "name": "",
          "type": "bool"
        }
      ],
      "stateMutability": "view",
      "type": "function"
    },
    {
      "inputs": [
        {
          "internalType": "bytes32",
          "name": "bondhash",
          "type": "bytes32"
        }
      ],
      "name": "expiry",
      "outputs": [
        {
          "internalType": "uint256",
          "name": "",
          "type": "uint256"
        }
      ],
      "stateMutability": "view",
      "type": "function"
    },
    {
      "inputs": [
        {
          "internalType": "bytes32",
          "name": "bondhash",
          "type": "bytes32"
        },
        {
          "internalType": "uint8",
          "name": "rule",
          "type": "uint8"
        },
        {
          "internalType": "address",
          "name": "config",
          "type": "address"
        }
      ],
      "name": "hook",
      "outputs": [],
      "stateMutability": "nonpayable",
      "type": "function"
    },
    {
      "inputs": [
        {
          "internalType": "bytes32",
          "name": "bondhash",
          "type": "bytes32"
        }
      ],
      "name": "hooksWithRules",
      "outputs": [
        {
          "internalType": "address[]",
          "name": "",
          "type": "address[]"
        },
        {
          "internalType": "uint8[]",
          "name": "",
          "type": "uint8[]"
        }
      ],
      "stateMutability": "view",
      "type": "function"
    },
    {
      "inputs": [
        {
          "internalType": "bytes32",
          "name": "_cation",
          "type": "bytes32"
        },
        {
          "internalType": "address",
          "name": "operator",
          "type": "address"
        }
      ],
      "name": "isApprovedForAll",
      "outputs": [
        {
          "internalType": "bool",
          "name": "",
          "type": "bool"
        }
      ],
      "stateMutability": "view",
      "type": "function"
    },
    {
      "inputs": [
        {
          "internalType": "bytes32",
          "name": "bondhash",
          "type": "bytes32"
        },
        {
          "internalType": "bytes32",
          "name": "newAnion",
          "type": "bytes32"
        }
      ],
      "name": "isNotDuplicateAnion",
      "outputs": [
        {
          "internalType": "bool",
          "name": "",
          "type": "bool"
        }
      ],
      "stateMutability": "view",
      "type": "function"
    },
    {
      "inputs": [
        {
          "internalType": "bytes32",
          "name": "bondhash",
          "type": "bytes32"
        },
        {
          "internalType": "address",
          "name": "config",
          "type": "address"
        }
      ],
      "name": "isNotDuplicateHook",
      "outputs": [
        {
          "internalType": "bool",
          "name": "",
          "type": "bool"
        }
      ],
      "stateMutability": "view",
      "type": "function"
    },
    {
      "inputs": [
        {
          "internalType": "bytes32",
          "name": "bondhash",
          "type": "bytes32"
        }
      ],
      "name": "recordExists",
      "outputs": [
        {
          "internalType": "bool",
          "name": "",
          "type": "bool"
        }
      ],
      "stateMutability": "view",
      "type": "function"
    },
    {
      "inputs": [
        {
          "internalType": "bytes32",
          "name": "bondhash",
          "type": "bytes32"
        },
        {
          "internalType": "bytes32",
          "name": "_cation",
          "type": "bytes32"
        }
      ],
      "name": "register",
      "outputs": [],
      "stateMutability": "nonpayable",
      "type": "function"
    },
    {
      "inputs": [],
      "name": "registrar",
      "outputs": [
        {
          "internalType": "address",
          "name": "",
          "type": "address"
        }
      ],
      "stateMutability": "view",
      "type": "function"
    },
    {
      "inputs": [
        {
          "internalType": "bytes32",
          "name": "bondhash",
          "type": "bytes32"
        },
        {
          "internalType": "uint8",
          "name": "rule",
          "type": "uint8"
        },
        {
          "internalType": "address",
          "name": "config",
          "type": "address"
        }
      ],
      "name": "rehook",
      "outputs": [],
      "stateMutability": "nonpayable",
      "type": "function"
    },
    {
      "inputs": [
        {
          "internalType": "bytes32",
          "name": "bondhash",
          "type": "bytes32"
        }
      ],
      "name": "resolver",
      "outputs": [
        {
          "internalType": "address",
          "name": "",
          "type": "address"
        }
      ],
      "stateMutability": "view",
      "type": "function"
    },
    {
      "inputs": [],
      "name": "roothash",
      "outputs": [
        {
          "internalType": "bytes32",
          "name": "",
          "type": "bytes32"
        }
      ],
      "stateMutability": "view",
      "type": "function"
    },
    {
      "inputs": [
        {
          "internalType": "bytes32",
          "name": "bondhash",
          "type": "bytes32"
        },
        {
          "internalType": "bytes32",
          "name": "_alias",
          "type": "bytes32"
        }
      ],
      "name": "setAlias",
      "outputs": [],
      "stateMutability": "nonpayable",
      "type": "function"
    },
    {
      "inputs": [
        {
          "internalType": "bytes32",
          "name": "bondhash",
          "type": "bytes32"
        },
        {
          "internalType": "bytes32",
          "name": "_anion",
          "type": "bytes32"
        }
      ],
      "name": "setAnion",
      "outputs": [],
      "stateMutability": "nonpayable",
      "type": "function"
    },
    {
      "inputs": [
        {
          "internalType": "address",
          "name": "operator",
          "type": "address"
        },
        {
          "internalType": "bool",
          "name": "approved",
          "type": "bool"
        }
      ],
      "name": "setApprovalForAll",
      "outputs": [],
      "stateMutability": "nonpayable",
      "type": "function"
    },
    {
      "inputs": [
        {
          "internalType": "bytes32",
          "name": "bondhash",
          "type": "bytes32"
        },
        {
          "internalType": "bytes32",
          "name": "_cation",
          "type": "bytes32"
        }
      ],
      "name": "setCation",
      "outputs": [],
      "stateMutability": "nonpayable",
      "type": "function"
    },
    {
      "inputs": [
        {
          "internalType": "bytes32",
          "name": "bondhash",
          "type": "bytes32"
        },
        {
          "internalType": "address",
          "name": "_controller",
          "type": "address"
        }
      ],
      "name": "setController",
      "outputs": [],
      "stateMutability": "nonpayable",
      "type": "function"
    },
    {
      "inputs": [
        {
          "internalType": "bytes32",
          "name": "bondhash",
          "type": "bytes32"
        },
        {
          "internalType": "bool",
          "name": "_covalence",
          "type": "bool"
        }
      ],
      "name": "setCovalence",
      "outputs": [],
      "stateMutability": "nonpayable",
      "type": "function"
    },
    {
      "inputs": [
        {
          "internalType": "bytes32",
          "name": "bondhash",
          "type": "bytes32"
        },
        {
          "internalType": "uint256",
          "name": "_expiry",
          "type": "uint256"
        }
      ],
      "name": "setExpiry",
      "outputs": [],
      "stateMutability": "payable",
      "type": "function"
    },
    {
      "inputs": [
        {
          "internalType": "bytes32",
          "name": "bondhash",
          "type": "bytes32"
        },
        {
          "internalType": "address",
          "name": "_resolver",
          "type": "address"
        }
      ],
      "name": "setRecord",
      "outputs": [],
      "stateMutability": "nonpayable",
      "type": "function"
    },
    {
      "inputs": [
        {
          "internalType": "bytes32",
          "name": "bondhash",
          "type": "bytes32"
        },
        {
          "internalType": "address",
          "name": "_resolver",
          "type": "address"
        }
      ],
      "name": "setResolver",
      "outputs": [],
      "stateMutability": "nonpayable",
      "type": "function"
    },
    {
      "inputs": [],
      "name": "theEnd",
      "outputs": [
        {
          "internalType": "uint256",
          "name": "",
          "type": "uint256"
        }
      ],
      "stateMutability": "view",
      "type": "function"
    },
    {
      "inputs": [
        {
          "internalType": "bytes32",
          "name": "bondhash",
          "type": "bytes32"
        },
        {
          "internalType": "address",
          "name": "config",
          "type": "address"
        }
      ],
      "name": "unhook",
      "outputs": [],
      "stateMutability": "nonpayable",
      "type": "function"
    },
    {
      "inputs": [
        {
          "internalType": "bytes32",
          "name": "bondhash",
          "type": "bytes32"
        }
      ],
      "name": "unhookAll",
      "outputs": [],
      "stateMutability": "nonpayable",
      "type": "function"
    },
    {
      "inputs": [],
      "name": "withdrawEther",
      "outputs": [],
      "stateMutability": "payable",
      "type": "function"
    }
  ],
  "bytecode": {
    "object": "0x60806040526002805460ff60a01b1916600160a01b1790556703782dace9d900006006553480156200003057600080fd5b5060405162003d5638038062003d568339810160408190526200005391620006e0565b60028054336001600160a01b0319918216179091556000805482166001600160a01b03848116918217909255600180549093169185169190911790915560408051633215476b60e11b8152905163642a8ed6916004808201926080929091908290030181865afa158015620000cc573d6000803e3d6000fd5b505050506040513d601f19601f82011682018060405250810190620000f291906200074f565b602001516003556000546040805163bd9a548b60e01b815290516001600160a01b039092169163bd9a548b916004808201926080929091908290030181865afa15801562000144573d6000803e3d6000fd5b505050506040513d601f19601f820116820180604052508101906200016a91906200074f565b602001516004556200017b62000183565b5050620007f4565b7fb4b4801cca1cad359bff6b5ea99d95160f00cbe1164fb7231c42c3e8b5f2593b805460ff19169055604080516020818101909252600080825280526007909152620001f3907f6d5257204ebe7d88fd91ae87941cb2dd9d8062b64ae5a2bd2d28ec40b9fbf6df90600162000642565b50600080805260076020527f6d5257204ebe7d88fd91ae87941cb2dd9d8062b64ae5a2bd2d28ec40b9fbf6e18190557f6d5257204ebe7d88fd91ae87941cb2dd9d8062b64ae5a2bd2d28ec40b9fbf6e28190557f6d5257204ebe7d88fd91ae87941cb2dd9d8062b64ae5a2bd2d28ec40b9fbf6e38190557f6d5257204ebe7d88fd91ae87941cb2dd9d8062b64ae5a2bd2d28ec40b9fbf6e580546006547f6d5257204ebe7d88fd91ae87941cb2dd9d8062b64ae5a2bd2d28ec40b9fbf6e6556001600160a81b03191633908117600160a01b179091557f6d5257204ebe7d88fd91ae87941cb2dd9d8062b64ae5a2bd2d28ec40b9fbf6e480546001600160a01b0319169091179055805460408051633215476b60e11b815290516001600160a01b03929092169163642a8ed6916004818101926080929091908290030181865afa15801562000346573d6000803e3d6000fd5b505050506040513d601f19601f820116820180604052508101906200036c91906200074f565b905060005b60048110156200063e57600060076000848460048110620003965762000396620007b6565b60209081029190910151825281810192909252604090810160009081208180526001018352818120805460ff191660ff95909516949094179093558051918201905281815290600790848460048110620003f457620003f4620007b6565b602002015181526020019081526020016000206000019060016200041a92919062000642565b50818160048110620004305762000430620007b6565b6020020151600760008484600481106200044e576200044e620007b6565b60200201518152602001908152602001600020600201819055508181600481106200047d576200047d620007b6565b6020020151600760008484600481106200049b576200049b620007b6565b6020020151815260200190815260200160002060030181905550818160048110620004ca57620004ca620007b6565b602002015160076000848460048110620004e857620004e8620007b6565b60200201518152602001908152602001600020600401819055506001600760008484600481106200051d576200051d620007b6565b6020020151815260200190815260200160002060060160146101000a81548160ff02191690831515021790555060065460076000848460048110620005665762000566620007b6565b602002015181526020019081526020016000206007018190555033600760008484600481106200059a576200059a620007b6565b6020020151815260200190815260200160002060060160006101000a8154816001600160a01b0302191690836001600160a01b031602179055503360076000848460048110620005ee57620005ee620007b6565b6020020151815260200190815260200160002060050160006101000a8154816001600160a01b0302191690836001600160a01b0316021790555080806200063590620007cc565b91505062000371565b5050565b8280548282559060005260206000209081019282156200069a579160200282015b828111156200069a57825182546001600160a01b0319166001600160a01b0390911617825560209092019160019091019062000663565b50620006a8929150620006ac565b5090565b5b80821115620006a85760008155600101620006ad565b80516001600160a01b0381168114620006db57600080fd5b919050565b60008060408385031215620006f457600080fd5b620006ff83620006c3565b91506200070f60208401620006c3565b90509250929050565b604051608081016001600160401b03811182821017156200074957634e487b7160e01b600052604160045260246000fd5b60405290565b6000608082840312156200076257600080fd5b82601f8301126200077257600080fd5b6200077c62000718565b8060808401858111156200078f57600080fd5b845b81811015620007ab57805184526020938401930162000791565b509095945050505050565b634e487b7160e01b600052603260045260246000fd5b600060018201620007ed57634e487b7160e01b600052601160045260246000fd5b5060010190565b61355280620008046000396000f3fe60806040526004361061026a5760003560e01c806351a7644211610153578063c5bc4c0b116100cb578063d9b76ed41161007f578063f61ccd5311610064578063f61ccd5314610778578063f79fe53814610798578063f8c91244146107cb57600080fd5b8063d9b76ed414610738578063dbd4e0211461075857600080fd5b8063d07699aa116100b0578063d07699aa146106c7578063d2ec5fca146106e7578063d31569051461071857600080fd5b8063c5bc4c0b14610691578063c7876ea4146106b157600080fd5b806388a8c95c11610122578063a3be52a211610107578063a3be52a214610631578063b069862814610651578063b782426e1461067157600080fd5b806388a8c95c146105f1578063a22cb4651461061157600080fd5b806351a76442146104eb57806363a44e691461050b5780637362377b146105c95780638146970a146105d157600080fd5b80631f06e91c116101e6578063251c9422116101b55780632f9267321161019a5780632f9267321461049857806334026859146104b857806339de6469146104d857600080fd5b8063251c9422146104625780632b20e3971461047857600080fd5b80631f06e91c146103ec57806321ec2b5b1461040c57806322b68deb1461042c578063241270d51461044257600080fd5b8063049a491c1161023d5780630aac6625116102225780630aac6625146103705780630e68b1161461039e5780631896f70a146103cc57600080fd5b8063049a491c1461033057806305e84aa01461035057600080fd5b8063015399e61461026f5780630178b8bf1461029157806301e51ae8146102ce57806302fb0c5e146102ee575b600080fd5b34801561027b57600080fd5b5061028f61028a36600461308c565b6107fe565b005b34801561029d57600080fd5b506102b16102ac3660046130d4565b610a52565b6040516001600160a01b0390911681526020015b60405180910390f35b3480156102da57600080fd5b506002546102b1906001600160a01b031681565b3480156102fa57600080fd5b506002546103209074010000000000000000000000000000000000000000900460ff1681565b60405190151581526020016102c5565b34801561033c57600080fd5b5061032061034b3660046130ed565b610ac7565b34801561035c57600080fd5b506001546102b1906001600160a01b031681565b34801561037c57600080fd5b5061039061038b3660046130d4565b610b79565b6040516102c592919061311d565b3480156103aa57600080fd5b506103be6103b93660046130d4565b610d2e565b6040519081526020016102c5565b3480156103d857600080fd5b5061028f6103e73660046130ed565b610d96565b3480156103f857600080fd5b5061028f6104073660046131a4565b610fff565b34801561041857600080fd5b5061028f6104273660046130d4565b611238565b34801561043857600080fd5b506103be60065481565b34801561044e57600080fd5b5061028f61045d3660046130ed565b611565565b34801561046e57600080fd5b506103be60035481565b34801561048457600080fd5b506005546102b1906001600160a01b031681565b3480156104a457600080fd5b5061028f6104b33660046131a4565b611993565b3480156104c457600080fd5b506103206104d33660046130d4565b611a4c565b61028f6104e63660046131a4565b611acf565b3480156104f757600080fd5b5061028f61050636600461308c565b611e90565b34801561051757600080fd5b506105896105263660046130d4565b60076020819052600091825260409091206002810154600382015460048301546005840154600685015494909501549294919390926001600160a01b039283169282169174010000000000000000000000000000000000000000900460ff169087565b604080519788526020880196909652948601939093526001600160a01b039182166060860152166080840152151560a083015260c082015260e0016102c5565b61028f6120dd565b3480156105dd57600080fd5b5061028f6105ec3660046131a4565b612183565b3480156105fd57600080fd5b5061028f61060c3660046131c6565b612325565b34801561061d57600080fd5b5061028f61062c3660046131f8565b6123f5565b34801561063d57600080fd5b5061028f61064c3660046131a4565b612461565b34801561065d57600080fd5b5061032061066c3660046130ed565b61269a565b34801561067d57600080fd5b506000546102b1906001600160a01b031681565b34801561069d57600080fd5b506103be6106ac3660046130d4565b61273e565b3480156106bd57600080fd5b506103be60045481565b3480156106d357600080fd5b5061028f6106e2366004613226565b6127a6565b3480156106f357600080fd5b506103be6107023660046130d4565b6000908152600760208190526040909120015490565b34801561072457600080fd5b5061028f6107333660046130ed565b612a21565b34801561074457600080fd5b5061028f6107533660046130ed565b612c7f565b34801561076457600080fd5b506102b16107733660046130d4565b612edd565b34801561078457600080fd5b506103be6107933660046130d4565b612f4e565b3480156107a457600080fd5b506103206107b33660046130d4565b60009081526007602081905260409091200154421090565b3480156107d757600080fd5b506103206107e63660046131a4565b60009182526007602052604090912060030154141590565b60008381526007602081905260409091200154839042106108555760405162461bcd60e51b815260206004820152600c60248201526b1093d39117d156141254915160a21b60448201526064015b60405180910390fd5b6000818152600760205260408082206002015460015491516302571be360e01b8152600481018290529092916001600160a01b0316906302571be390602401602060405180830381865afa1580156108b1573d6000803e3d6000fd5b505050506040513d601f19601f820116820180604052508101906108d5919061325b565b90506001600160a01b03811633148061091157506001600160a01b038116600090815260086020908152604080832033845290915290205460ff165b61095d5760405162461bcd60e51b815260206004820152600960248201527f4e4f545f4f574e45520000000000000000000000000000000000000000000000604482015260640161084c565b60008681526007602090815260408083206001600160a01b038816845260010190915290205460ff8087169116036109d75760405162461bcd60e51b815260206004820152600b60248201527f52554c455f455849535453000000000000000000000000000000000000000000604482015260640161084c565b60008681526007602090815260408083206001600160a01b0388168085526001909101835292819020805460ff191660ff8a1690811790915581519384529183019190915287917fe43a78ddf6157361fe34d04905786138f88d3eda20b1f7dc0e2c619f9267310091015b60405180910390a2505050505050565b60008181526007602081905260408220015482904210610aa35760405162461bcd60e51b815260206004820152600c60248201526b1093d39117d156141254915160a21b604482015260640161084c565b6000838152600760205260409020600501546001600160a01b031691505b50919050565b60008281526007602052604080822090517f2306f46600000000000000000000000000000000000000000000000000000000815273__$47e4ffaaf323c41735ff299f8946896ce0$__91632306f46691610b2e916001600160a01b03871691600401613278565b602060405180830381865af4158015610b4b573d6000803e3d6000fd5b505050506040513d601f19601f82011682018060405250810190610b6f91906132d8565b1590505b92915050565b6060808260076000828152602001908152602001600020600701544210610bd15760405162461bcd60e51b815260206004820152600c60248201526b1093d39117d156141254915160a21b604482015260640161084c565b600084815260076020908152604080832080548251818502810185019093528083529192909190830182828015610c3157602002820191906000526020600020905b81546001600160a01b03168152600190910190602001808311610c13575b505050505090506000815167ffffffffffffffff811115610c5457610c546132f5565b604051908082528060200260200182016040528015610c7d578160200160208202803683370190505b50905060005b8251811015610d2257600760008881526020019081526020016000206001016000848381518110610cb657610cb6613324565b60200260200101516001600160a01b03166001600160a01b0316815260200190815260200160002060009054906101000a900460ff16828281518110610cfe57610cfe613324565b60ff9092166020928302919091019091015280610d1a81613382565b915050610c83565b50909350915050915091565b60008181526007602081905260408220015482904210610d7f5760405162461bcd60e51b815260206004820152600c60248201526b1093d39117d156141254915160a21b604482015260640161084c565b505060009081526007602052604090206003015490565b600054604080517f4d3f7334000000000000000000000000000000000000000000000000000000008152905184926001600160a01b031691634d3f73349160048083019260809291908290030181865afa158015610df8573d6000803e3d6000fd5b505050506040513d601f19601f82011682018060405250810190610e1c91906133ba565b6020908101516005805473ffffffffffffffffffffffffffffffffffffffff19166001600160a01b0392831617905560008381526007835260408082206002015460015482516302571be360e01b81526004810183905292519195939416926302571be392602480820193918290030181865afa158015610ea1573d6000803e3d6000fd5b505050506040513d601f19601f82011682018060405250810190610ec5919061325b565b6005549091506001600160a01b0316331480610ee957506001600160a01b03811633145b80610f1757506001600160a01b038116600090815260086020908152604080832033845290915290205460ff165b80610f3b57506000838152600760205260409020600601546001600160a01b031633145b610f875760405162461bcd60e51b815260206004820152600e60248201527f4e4f545f415554484f5249534544000000000000000000000000000000000000604482015260640161084c565b600085815260076020908152604091829020600501805473ffffffffffffffffffffffffffffffffffffffff19166001600160a01b038816908117909155915191825286917f335721b01866dc23fbee8b6b2c7b1e14d6f05c28cd35a2c934239f94095602a091015b60405180910390a25050505050565b600054604080517f4d3f7334000000000000000000000000000000000000000000000000000000008152905184926001600160a01b031691634d3f73349160048083019260809291908290030181865afa158015611061573d6000803e3d6000fd5b505050506040513d601f19601f8201168201806040525081019061108591906133ba565b6020908101516005805473ffffffffffffffffffffffffffffffffffffffff19166001600160a01b0392831617905560008381526007835260408082206002015460015482516302571be360e01b81526004810183905292519195939416926302571be392602480820193918290030181865afa15801561110a573d6000803e3d6000fd5b505050506040513d601f19601f8201168201806040525081019061112e919061325b565b6005549091506001600160a01b031633148061115257506001600160a01b03811633145b8061118057506001600160a01b038116600090815260086020908152604080832033845290915290205460ff165b806111a457506000838152600760205260409020600601546001600160a01b031633145b6111f05760405162461bcd60e51b815260206004820152600e60248201527f4e4f545f415554484f5249534544000000000000000000000000000000000000604482015260640161084c565b600085815260076020526040908190206004018590555185907f4247841fd58468a6fb10925898bdd83c426da7b5519ee71597106dfdc675122990610ff09087815260200190565b600081815260076020819052604090912001548190421061128a5760405162461bcd60e51b815260206004820152600c60248201526b1093d39117d156141254915160a21b604482015260640161084c565b6000818152600760205260408082206002015460015491516302571be360e01b8152600481018290529092916001600160a01b0316906302571be390602401602060405180830381865afa1580156112e6573d6000803e3d6000fd5b505050506040513d601f19601f8201168201806040525081019061130a919061325b565b90506001600160a01b03811633148061134657506001600160a01b038116600090815260086020908152604080832033845290915290205460ff165b6113925760405162461bcd60e51b815260206004820152600960248201527f4e4f545f4f574e45520000000000000000000000000000000000000000000000604482015260640161084c565b6000848152600760209081526040808320805482518185028101850190935280835291929091908301828280156113f257602002820191906000526020600020905b81546001600160a01b031681526001909101906020018083116113d4575b5050505050905060005b81518110156114e357600060076000888152602001908152602001600020600101600084848151811061143157611431613324565b60200260200101516001600160a01b03166001600160a01b0316815260200190815260200160002060006101000a81548160ff021916908360ff160217905550857fc4c4b4793ac649a3a05ee26afdd6d54122cea2e3298a195a786ab7e899c21e348383815181106114a5576114a5613324565b60200260200101516040516114c991906001600160a01b0391909116815260200190565b60405180910390a2806114db81613382565b9150506113fc565b5060008581526007602052604081206114fb91613045565b60405185907f6b91085369552b61ca16180a741663b69fb6b3b967f7271116521d84e2291dc590600090a250505060009182525060076020908152604082208054600181018255908352912001805473ffffffffffffffffffffffffffffffffffffffff19169055565b60008281526007602081905260409091200154829042106115b75760405162461bcd60e51b815260206004820152600c60248201526b1093d39117d156141254915160a21b604482015260640161084c565b6000818152600760205260408082206002015460015491516302571be360e01b8152600481018290529092916001600160a01b0316906302571be390602401602060405180830381865afa158015611613573d6000803e3d6000fd5b505050506040513d601f19601f82011682018060405250810190611637919061325b565b90506001600160a01b03811633148061167357506001600160a01b038116600090815260086020908152604080832033845290915290205460ff165b6116bf5760405162461bcd60e51b815260206004820152600960248201527f4e4f545f4f574e45520000000000000000000000000000000000000000000000604482015260640161084c565b60008581526007602090815260408083208054825181850281018501909352808352919290919083018282801561171f57602002820191906000526020600020905b81546001600160a01b03168152600190910190602001808311611701575b50506040517f2306f46600000000000000000000000000000000000000000000000000000000815293945073__$47e4ffaaf323c41735ff299f8946896ce0$__93632306f466935061178292506001600160a01b038a1691508590600401613466565b602060405180830381865af415801561179f573d6000803e3d6000fd5b505050506040513d601f19601f820116820180604052508101906117c391906132d8565b15611958576040517fcd23ef4c00000000000000000000000000000000000000000000000000000000815260009073__$47e4ffaaf323c41735ff299f8946896ce0$__9063cd23ef4c90611826906001600160a01b038a16908690600401613466565b602060405180830381865af4158015611843573d6000803e3d6000fd5b505050506040513d601f19601f8201168201806040525081019061186791906134b3565b9050806118a9576040516000815287907fc4c4b4793ac649a3a05ee26afdd6d54122cea2e3298a195a786ab7e899c21e349060200160405180910390a2611952565b60008781526007602090815260408083206001600160a01b038a168085526001909101835292819020805460ff191690555191825288917fc4c4b4793ac649a3a05ee26afdd6d54122cea2e3298a195a786ab7e899c21e34910160405180910390a2600087815260076020526040902080548290811061192b5761192b613324565b6000918252602090912001805473ffffffffffffffffffffffffffffffffffffffff191690555b5061198b565b6040516000815286907fc4c4b4793ac649a3a05ee26afdd6d54122cea2e3298a195a786ab7e899c21e3490602001610a42565b505050505050565b6000828152600760208190526040909120015482904210156119f75760405162461bcd60e51b815260206004820152600b60248201527f424f4e445f455849535453000000000000000000000000000000000000000000604482015260640161084c565b600083815260076020526040908190206002018390555183907facb5de0f65735f798ae8baf163fb3380a7813aca2c739ba9e39179007206585a90611a3f9085815260200190565b60405180910390a2505050565b60008181526007602081905260408220015482904210611a9d5760405162461bcd60e51b815260206004820152600c60248201526b1093d39117d156141254915160a21b604482015260640161084c565b505060009081526007602052604090206006015474010000000000000000000000000000000000000000900460ff1690565b600054604080517f4d3f7334000000000000000000000000000000000000000000000000000000008152905184926001600160a01b031691634d3f73349160048083019260809291908290030181865afa158015611b31573d6000803e3d6000fd5b505050506040513d601f19601f82011682018060405250810190611b5591906133ba565b6020908101516005805473ffffffffffffffffffffffffffffffffffffffff19166001600160a01b0392831617905560008381526007835260408082206002015460015482516302571be360e01b81526004810183905292519195939416926302571be392602480820193918290030181865afa158015611bda573d6000803e3d6000fd5b505050506040513d601f19601f82011682018060405250810190611bfe919061325b565b6005549091506001600160a01b0316331480611c2257506001600160a01b03811633145b80611c5057506001600160a01b038116600090815260086020908152604080832033845290915290205460ff165b80611c7457506000838152600760205260409020600601546001600160a01b031633145b611cc05760405162461bcd60e51b815260206004820152600e60248201527f4e4f545f415554484f5249534544000000000000000000000000000000000000604482015260640161084c565b600085815260076020819052604090912001548411611d215760405162461bcd60e51b815260206004820152600a60248201527f4241445f45585049525900000000000000000000000000000000000000000000604482015260640161084c565b60008054906101000a90046001600160a01b03166001600160a01b0316634d3f73346040518163ffffffff1660e01b8152600401608060405180830381865afa158015611d72573d6000803e3d6000fd5b505050506040513d601f19601f82011682018060405250810190611d9691906133ba565b602001516005805473ffffffffffffffffffffffffffffffffffffffff19166001600160a01b0390921691821790553314611e4857600085815260076020819052604082200154611de790866134cc565b905060045481611df791906134df565b341015611e465760405162461bcd60e51b815260206004820152601260248201527f494e53554646494349454e545f45544845520000000000000000000000000000604482015260640161084c565b505b600085815260076020819052604091829020018590555185907fa620b72378ee464490805a96e25b53e5c0076f0ce2d28f9691ae255a595b3bf390610ff09087815260200190565b6000838152600760208190526040909120015483904210611ee25760405162461bcd60e51b815260206004820152600c60248201526b1093d39117d156141254915160a21b604482015260640161084c565b6000818152600760205260408082206002015460015491516302571be360e01b8152600481018290529092916001600160a01b0316906302571be390602401602060405180830381865afa158015611f3e573d6000803e3d6000fd5b505050506040513d601f19601f82011682018060405250810190611f62919061325b565b90506001600160a01b038116331480611f9e57506001600160a01b038116600090815260086020908152604080832033845290915290205460ff165b611fea5760405162461bcd60e51b815260206004820152600960248201527f4e4f545f4f574e45520000000000000000000000000000000000000000000000604482015260640161084c565b611ff48685610ac7565b6120405760405162461bcd60e51b815260206004820152600b60248201527f484f4f4b5f455849535453000000000000000000000000000000000000000000604482015260640161084c565b6000868152600760209081526040808320805460018082018355828652848620909101805473ffffffffffffffffffffffffffffffffffffffff19166001600160a01b038b169081179091558086529101835292819020805460ff191660ff8a1690811790915581519384529183019190915287917fc733a2bc621cc97eef6ed4f708f126e72e6acb76c0a1c0461c9dd31f7b9870659101610a42565b6002546040516000916001600160a01b03169047908381818185875af1925050503d806000811461212a576040519150601f19603f3d011682016040523d82523d6000602084013e61212f565b606091505b50509050806121805760405162461bcd60e51b815260206004820152601360248201527f4554485f5452414e534645525f4641494c454400000000000000000000000000604482015260640161084c565b50565b60008281526007602081905260409091200154829042106121d55760405162461bcd60e51b815260206004820152600c60248201526b1093d39117d156141254915160a21b604482015260640161084c565b6000818152600760205260408082206002015460015491516302571be360e01b8152600481018290529092916001600160a01b0316906302571be390602401602060405180830381865afa158015612231573d6000803e3d6000fd5b505050506040513d601f19601f82011682018060405250810190612255919061325b565b90506001600160a01b03811633148061229157506001600160a01b038116600090815260086020908152604080832033845290915290205460ff165b6122dd5760405162461bcd60e51b815260206004820152600960248201527f4e4f545f4f574e45520000000000000000000000000000000000000000000000604482015260640161084c565b600085815260076020526040908190206002018590555185907f4810581adf2c16a86a375dbb1ed89b0b0f7e64d48d24e1948b3dfe6581e4d79590610ff09087815260200190565b6002546001600160a01b0316331461237f5760405162461bcd60e51b815260206004820152600760248201527f4e4f545f44455600000000000000000000000000000000000000000000000000604482015260640161084c565b600254604080516001600160a01b03928316815291831660208301527fdec101f106d4fc7c85791843e64b198248c822298e3ed7046231d33f7783d816910160405180910390a16002805473ffffffffffffffffffffffffffffffffffffffff19166001600160a01b0392909216919091179055565b3360008181526008602090815260408083206001600160a01b03871680855290835292819020805460ff191686151590811790915590519081529192917f17307eab39ab6107e8899845ad3d59bd9653f200f220920489ca2b5937696c31910160405180910390a35050565b600054604080517f4d3f7334000000000000000000000000000000000000000000000000000000008152905184926001600160a01b031691634d3f73349160048083019260809291908290030181865afa1580156124c3573d6000803e3d6000fd5b505050506040513d601f19601f820116820180604052508101906124e791906133ba565b6020908101516005805473ffffffffffffffffffffffffffffffffffffffff19166001600160a01b0392831617905560008381526007835260408082206002015460015482516302571be360e01b81526004810183905292519195939416926302571be392602480820193918290030181865afa15801561256c573d6000803e3d6000fd5b505050506040513d601f19601f82011682018060405250810190612590919061325b565b6005549091506001600160a01b03163314806125b457506001600160a01b03811633145b806125e257506001600160a01b038116600090815260086020908152604080832033845290915290205460ff165b8061260657506000838152600760205260409020600601546001600160a01b031633145b6126525760405162461bcd60e51b815260206004820152600e60248201527f4e4f545f415554484f5249534544000000000000000000000000000000000000604482015260640161084c565b600085815260076020526040908190206003018590555185907f600ffddd29393ca43c0a11fa6b0b7096631364178cb42f9d546c0a2cd22525ee90610ff09087815260200190565b6001546040516302571be360e01b81526004810184905260009182916001600160a01b03909116906302571be390602401602060405180830381865afa1580156126e8573d6000803e3d6000fd5b505050506040513d601f19601f8201168201806040525081019061270c919061325b565b6001600160a01b0390811660009081526008602090815260408083209387168352929052205460ff1691505092915050565b6000818152600760208190526040822001548290421061278f5760405162461bcd60e51b815260206004820152600c60248201526b1093d39117d156141254915160a21b604482015260640161084c565b505060009081526007602052604090206004015490565b600054604080517f4d3f7334000000000000000000000000000000000000000000000000000000008152905184926001600160a01b031691634d3f73349160048083019260809291908290030181865afa158015612808573d6000803e3d6000fd5b505050506040513d601f19601f8201168201806040525081019061282c91906133ba565b6020908101516005805473ffffffffffffffffffffffffffffffffffffffff19166001600160a01b0392831617905560008381526007835260408082206002015460015482516302571be360e01b81526004810183905292519195939416926302571be392602480820193918290030181865afa1580156128b1573d6000803e3d6000fd5b505050506040513d601f19601f820116820180604052508101906128d5919061325b565b6005549091506001600160a01b03163314806128f957506001600160a01b03811633145b8061292757506001600160a01b038116600090815260086020908152604080832033845290915290205460ff165b8061294b57506000838152600760205260409020600601546001600160a01b031633145b6129975760405162461bcd60e51b815260206004820152600e60248201527f4e4f545f415554484f5249534544000000000000000000000000000000000000604482015260640161084c565b60008581526007602052604090819020600601805486151574010000000000000000000000000000000000000000027fffffffffffffffffffffff00ffffffffffffffffffffffffffffffffffffffff9091161790555185907fe6ccdb52b4954ab2c3e293f1dbfe593e6c5630962a1944bfcf20c5563eeb846290610ff090871515815260200190565b600054604080517f4d3f7334000000000000000000000000000000000000000000000000000000008152905184926001600160a01b031691634d3f73349160048083019260809291908290030181865afa158015612a83573d6000803e3d6000fd5b505050506040513d601f19601f82011682018060405250810190612aa791906133ba565b6020908101516005805473ffffffffffffffffffffffffffffffffffffffff19166001600160a01b0392831617905560008381526007835260408082206002015460015482516302571be360e01b81526004810183905292519195939416926302571be392602480820193918290030181865afa158015612b2c573d6000803e3d6000fd5b505050506040513d601f19601f82011682018060405250810190612b50919061325b565b6005549091506001600160a01b0316331480612b7457506001600160a01b03811633145b80612ba257506001600160a01b038116600090815260086020908152604080832033845290915290205460ff165b80612bc657506000838152600760205260409020600601546001600160a01b031633145b612c125760405162461bcd60e51b815260206004820152600e60248201527f4e4f545f415554484f5249534544000000000000000000000000000000000000604482015260640161084c565b600085815260076020908152604091829020600601805473ffffffffffffffffffffffffffffffffffffffff19166001600160a01b038816908117909155915191825286917fe5108446a6097aab57fd36f346a515a78fddefa87d81662d44e0d7a463f920959101610ff0565b600054604080517f4d3f7334000000000000000000000000000000000000000000000000000000008152905184926001600160a01b031691634d3f73349160048083019260809291908290030181865afa158015612ce1573d6000803e3d6000fd5b505050506040513d601f19601f82011682018060405250810190612d0591906133ba565b6020908101516005805473ffffffffffffffffffffffffffffffffffffffff19166001600160a01b0392831617905560008381526007835260408082206002015460015482516302571be360e01b81526004810183905292519195939416926302571be392602480820193918290030181865afa158015612d8a573d6000803e3d6000fd5b505050506040513d601f19601f82011682018060405250810190612dae919061325b565b6005549091506001600160a01b0316331480612dd257506001600160a01b03811633145b80612e0057506001600160a01b038116600090815260086020908152604080832033845290915290205460ff165b80612e2457506000838152600760205260409020600601546001600160a01b031633145b612e705760405162461bcd60e51b815260206004820152600e60248201527f4e4f545f415554484f5249534544000000000000000000000000000000000000604482015260640161084c565b600085815260076020908152604091829020600501805473ffffffffffffffffffffffffffffffffffffffff19166001600160a01b038816908117909155915191825286917fcb71326aeaad88869e8be8be2893e1119f7617ce4ea2411af127e218909be1f79101610ff0565b60008181526007602081905260408220015482904210612f2e5760405162461bcd60e51b815260206004820152600c60248201526b1093d39117d156141254915160a21b604482015260640161084c565b50506000908152600760205260409020600601546001600160a01b031690565b60008181526007602081905260408220015482904210612f9f5760405162461bcd60e51b815260206004820152600c60248201526b1093d39117d156141254915160a21b604482015260640161084c565b6000838152600760205260408082206002015460015491516302571be360e01b8152600481018290529092916001600160a01b0316906302571be390602401602060405180830381865afa158015612ffb573d6000803e3d6000fd5b505050506040513d601f19601f8201168201806040525081019061301f919061325b565b9050306001600160a01b0382160361303d5760035493505050610ac1565b509392505050565b508054600082559060005260206000209081019061218091905b80821115613073576000815560010161305f565b5090565b6001600160a01b038116811461218057600080fd5b6000806000606084860312156130a157600080fd5b83359250602084013560ff811681146130b957600080fd5b915060408401356130c981613077565b809150509250925092565b6000602082840312156130e657600080fd5b5035919050565b6000806040838503121561310057600080fd5b82359150602083013561311281613077565b809150509250929050565b604080825283519082018190526000906020906060840190828701845b8281101561315f5781516001600160a01b03168452928401929084019060010161313a565b5050508381038285015284518082528583019183019060005b8181101561319757835160ff1683529284019291840191600101613178565b5090979650505050505050565b600080604083850312156131b757600080fd5b50508035926020909101359150565b6000602082840312156131d857600080fd5b81356131e381613077565b9392505050565b801515811461218057600080fd5b6000806040838503121561320b57600080fd5b823561321681613077565b91506020830135613112816131ea565b6000806040838503121561323957600080fd5b823591506020830135613112816131ea565b805161325681613077565b919050565b60006020828403121561326d57600080fd5b81516131e381613077565b6000604082016001600160a01b03808616845260206040818601528286548085526060870191508760005282600020945060005b818110156132ca5785548516835260019586019592840192016132ac565b509098975050505050505050565b6000602082840312156132ea57600080fd5b81516131e3816131ea565b7f4e487b7100000000000000000000000000000000000000000000000000000000600052604160045260246000fd5b7f4e487b7100000000000000000000000000000000000000000000000000000000600052603260045260246000fd5b7f4e487b7100000000000000000000000000000000000000000000000000000000600052601160045260246000fd5b60007fffffffffffffffffffffffffffffffffffffffffffffffffffffffffffffffff82036133b3576133b3613353565b5060010190565b6000608082840312156133cc57600080fd5b82601f8301126133db57600080fd5b6040516080810181811067ffffffffffffffff82111715613425577f4e487b7100000000000000000000000000000000000000000000000000000000600052604160045260246000fd5b60405280608084018581111561343a57600080fd5b845b8181101561345b5761344d8161324b565b83526020928301920161343c565b509195945050505050565b6000604082016001600160a01b0380861684526020604081860152828651808552606087019150828801945060005b818110156132ca578551851683529483019491830191600101613495565b6000602082840312156134c557600080fd5b5051919050565b81810381811115610b7357610b73613353565b6000817fffffffffffffffffffffffffffffffffffffffffffffffffffffffffffffffff048311821515161561351757613517613353565b50029056fea264697066735822122037529eba5e73f9e009371c3ee394ecea7b012343c5a0eb95fdbfe771ec4c099564736f6c63430008100033",
    "linkReferences": {
      "src/Utils/LibString.sol": {
        "LibString": [
          {
            "start": 4865,
            "length": 20
          },
          {
            "start": 8016,
            "length": 20
          },
          {
            "start": 8183,
            "length": 20
          }
        ]
      }
    }
  },
  "methodIdentifiers": {
    "Bonds(bytes32)": "63a44e69",
    "Dev()": "01e51ae8",
    "HELIX2()": "b782426e",
    "NAMES()": "05e84aa0",
    "active()": "02fb0c5e",
    "alias_(bytes32)": "c5bc4c0b",
    "anion(bytes32)": "0e68b116",
    "basePrice()": "c7876ea4",
    "cation(bytes32)": "f61ccd53",
    "changeDev(address)": "88a8c95c",
    "controller(bytes32)": "dbd4e021",
    "covalence(bytes32)": "34026859",
    "expiry(bytes32)": "d2ec5fca",
    "hook(bytes32,uint8,address)": "51a76442",
    "hooksWithRules(bytes32)": "0aac6625",
    "isApprovedForAll(bytes32,address)": "b0698628",
    "isNotDuplicateAnion(bytes32,bytes32)": "f8c91244",
    "isNotDuplicateHook(bytes32,address)": "049a491c",
    "recordExists(bytes32)": "f79fe538",
    "register(bytes32,bytes32)": "2f926732",
    "registrar()": "2b20e397",
    "rehook(bytes32,uint8,address)": "015399e6",
    "resolver(bytes32)": "0178b8bf",
    "roothash()": "251c9422",
    "setAlias(bytes32,bytes32)": "1f06e91c",
    "setAnion(bytes32,bytes32)": "a3be52a2",
    "setApprovalForAll(address,bool)": "a22cb465",
    "setCation(bytes32,bytes32)": "8146970a",
    "setController(bytes32,address)": "d3156905",
    "setCovalence(bytes32,bool)": "d07699aa",
    "setExpiry(bytes32,uint256)": "39de6469",
    "setRecord(bytes32,address)": "d9b76ed4",
    "setResolver(bytes32,address)": "1896f70a",
    "theEnd()": "22b68deb",
    "unhook(bytes32,address)": "241270d5",
    "unhookAll(bytes32)": "21ec2b5b",
    "withdrawEther()": "7362377b"
  },
  "id": 16
}