{
  "abi": [
    {
      "inputs": [
        {
          "internalType": "address",
          "name": "_registry",
          "type": "address"
        },
        {
          "internalType": "address",
          "name": "_helix2",
          "type": "address"
        }
      ],
      "stateMutability": "nonpayable",
      "type": "constructor"
    },
    {
      "inputs": [],
      "name": "BAD_HOOK",
      "type": "error"
    },
    {
      "anonymous": false,
      "inputs": [
        {
          "indexed": true,
          "internalType": "address",
          "name": "cation",
          "type": "address"
        },
        {
          "indexed": true,
          "internalType": "address",
          "name": "operator",
          "type": "address"
        },
        {
          "indexed": false,
          "internalType": "bool",
          "name": "approved",
          "type": "bool"
        }
      ],
      "name": "ApprovalForAll",
      "type": "event"
    },
    {
      "anonymous": false,
      "inputs": [
        {
          "indexed": true,
          "internalType": "bytes32",
          "name": "bondhash",
          "type": "bytes32"
        },
        {
          "indexed": false,
          "internalType": "address",
          "name": "config",
          "type": "address"
        },
        {
          "indexed": false,
          "internalType": "uint8",
          "name": "rule",
          "type": "uint8"
        }
      ],
      "name": "Hooked",
      "type": "event"
    },
    {
      "anonymous": false,
      "inputs": [
        {
          "indexed": true,
          "internalType": "bytes32",
          "name": "bondhash",
          "type": "bytes32"
        },
        {
          "indexed": false,
          "internalType": "bytes32",
          "name": "_alias",
          "type": "bytes32"
        }
      ],
      "name": "NewAlias",
      "type": "event"
    },
    {
      "anonymous": false,
      "inputs": [
        {
          "indexed": true,
          "internalType": "bytes32",
          "name": "bondhash",
          "type": "bytes32"
        },
        {
          "indexed": false,
          "internalType": "bytes32",
          "name": "anion",
          "type": "bytes32"
        }
      ],
      "name": "NewAnion",
      "type": "event"
    },
    {
      "anonymous": false,
      "inputs": [
        {
          "indexed": true,
          "internalType": "bytes32",
          "name": "bondhash",
          "type": "bytes32"
        },
        {
          "indexed": false,
          "internalType": "bytes32",
          "name": "cation",
          "type": "bytes32"
        }
      ],
      "name": "NewBond",
      "type": "event"
    },
    {
      "anonymous": false,
      "inputs": [
        {
          "indexed": true,
          "internalType": "bytes32",
          "name": "bondhash",
          "type": "bytes32"
        },
        {
          "indexed": false,
          "internalType": "bytes32",
          "name": "cation",
          "type": "bytes32"
        }
      ],
      "name": "NewCation",
      "type": "event"
    },
    {
      "anonymous": false,
      "inputs": [
        {
          "indexed": true,
          "internalType": "bytes32",
          "name": "bondhash",
          "type": "bytes32"
        },
        {
          "indexed": false,
          "internalType": "address",
          "name": "controller",
          "type": "address"
        }
      ],
      "name": "NewController",
      "type": "event"
    },
    {
      "anonymous": false,
      "inputs": [
        {
          "indexed": true,
          "internalType": "bytes32",
          "name": "bondhash",
          "type": "bytes32"
        },
        {
          "indexed": false,
          "internalType": "bool",
          "name": "covalence",
          "type": "bool"
        }
      ],
      "name": "NewCovalence",
      "type": "event"
    },
    {
      "anonymous": false,
      "inputs": [
        {
          "indexed": false,
          "internalType": "address",
          "name": "Dev",
          "type": "address"
        },
        {
          "indexed": false,
          "internalType": "address",
          "name": "newDev",
          "type": "address"
        }
      ],
      "name": "NewDev",
      "type": "event"
    },
    {
      "anonymous": false,
      "inputs": [
        {
          "indexed": true,
          "internalType": "bytes32",
          "name": "bondhash",
          "type": "bytes32"
        },
        {
          "indexed": false,
          "internalType": "uint256",
          "name": "expiry",
          "type": "uint256"
        }
      ],
      "name": "NewExpiry",
      "type": "event"
    },
    {
      "anonymous": false,
      "inputs": [
        {
          "indexed": true,
          "internalType": "bytes32",
          "name": "bondhash",
          "type": "bytes32"
        },
        {
          "indexed": false,
          "internalType": "address",
          "name": "resolver",
          "type": "address"
        }
      ],
      "name": "NewRecord",
      "type": "event"
    },
    {
      "anonymous": false,
      "inputs": [
        {
          "indexed": true,
          "internalType": "bytes32",
          "name": "bondhash",
          "type": "bytes32"
        },
        {
          "indexed": false,
          "internalType": "bytes32",
          "name": "cation",
          "type": "bytes32"
        }
      ],
      "name": "NewRegistration",
      "type": "event"
    },
    {
      "anonymous": false,
      "inputs": [
        {
          "indexed": true,
          "internalType": "bytes32",
          "name": "bondhash",
          "type": "bytes32"
        },
        {
          "indexed": false,
          "internalType": "address",
          "name": "resolver",
          "type": "address"
        }
      ],
      "name": "NewResolver",
      "type": "event"
    },
    {
      "anonymous": false,
      "inputs": [
        {
          "indexed": true,
          "internalType": "bytes32",
          "name": "bondhash",
          "type": "bytes32"
        },
        {
          "indexed": false,
          "internalType": "address",
          "name": "config",
          "type": "address"
        },
        {
          "indexed": false,
          "internalType": "uint8",
          "name": "rule",
          "type": "uint8"
        }
      ],
      "name": "Rehooked",
      "type": "event"
    },
    {
      "anonymous": false,
      "inputs": [
        {
          "indexed": true,
          "internalType": "bytes32",
          "name": "bondhash",
          "type": "bytes32"
        },
        {
          "indexed": false,
          "internalType": "uint8",
          "name": "rule",
          "type": "uint8"
        }
      ],
      "name": "Unhooked",
      "type": "event"
    },
    {
      "anonymous": false,
      "inputs": [
        {
          "indexed": true,
          "internalType": "bytes32",
          "name": "bondhash",
          "type": "bytes32"
        }
      ],
      "name": "UnhookedAll",
      "type": "event"
    },
    {
      "inputs": [
        {
          "internalType": "bytes32",
          "name": "",
          "type": "bytes32"
        }
      ],
      "name": "Bonds",
      "outputs": [
        {
          "internalType": "bytes32",
          "name": "_cation",
          "type": "bytes32"
        },
        {
          "internalType": "bytes32",
          "name": "_anion",
          "type": "bytes32"
        },
        {
          "internalType": "bytes32",
          "name": "_alias",
          "type": "bytes32"
        },
        {
          "internalType": "address",
          "name": "_resolver",
          "type": "address"
        },
        {
          "internalType": "address",
          "name": "_controller",
          "type": "address"
        },
        {
          "internalType": "bool",
          "name": "_covalence",
          "type": "bool"
        },
        {
          "internalType": "uint256",
          "name": "_expiry",
          "type": "uint256"
        }
      ],
      "stateMutability": "view",
      "type": "function"
    },
    {
      "inputs": [],
      "name": "Dev",
      "outputs": [
        {
          "internalType": "address",
          "name": "",
          "type": "address"
        }
      ],
      "stateMutability": "view",
      "type": "function"
    },
    {
      "inputs": [],
      "name": "HELIX2",
      "outputs": [
        {
          "internalType": "contract iHELIX2",
          "name": "",
          "type": "address"
        }
      ],
      "stateMutability": "view",
      "type": "function"
    },
    {
      "inputs": [],
      "name": "NAMES",
      "outputs": [
        {
          "internalType": "contract iNAME",
          "name": "",
          "type": "address"
        }
      ],
      "stateMutability": "view",
      "type": "function"
    },
    {
      "inputs": [],
      "name": "Registrar",
      "outputs": [
        {
          "internalType": "address",
          "name": "",
          "type": "address"
        }
      ],
      "stateMutability": "view",
      "type": "function"
    },
    {
      "inputs": [],
      "name": "active",
      "outputs": [
        {
          "internalType": "bool",
          "name": "",
          "type": "bool"
        }
      ],
      "stateMutability": "view",
      "type": "function"
    },
    {
      "inputs": [
        {
          "internalType": "bytes32",
          "name": "bondhash",
          "type": "bytes32"
        }
      ],
      "name": "alias_",
      "outputs": [
        {
          "internalType": "bytes32",
          "name": "",
          "type": "bytes32"
        }
      ],
      "stateMutability": "view",
      "type": "function"
    },
    {
      "inputs": [
        {
          "internalType": "bytes32",
          "name": "bondhash",
          "type": "bytes32"
        }
      ],
      "name": "anion",
      "outputs": [
        {
          "internalType": "bytes32",
          "name": "",
          "type": "bytes32"
        }
      ],
      "stateMutability": "view",
      "type": "function"
    },
    {
      "inputs": [],
      "name": "basePrice",
      "outputs": [
        {
          "internalType": "uint256",
          "name": "",
          "type": "uint256"
        }
      ],
      "stateMutability": "view",
      "type": "function"
    },
    {
      "inputs": [
        {
          "internalType": "bytes32",
          "name": "bondhash",
          "type": "bytes32"
        }
      ],
      "name": "cation",
      "outputs": [
        {
          "internalType": "bytes32",
          "name": "",
          "type": "bytes32"
        }
      ],
      "stateMutability": "view",
      "type": "function"
    },
    {
      "inputs": [
        {
          "internalType": "address",
          "name": "newDev",
          "type": "address"
        }
      ],
      "name": "changeDev",
      "outputs": [],
      "stateMutability": "nonpayable",
      "type": "function"
    },
    {
      "inputs": [
        {
          "internalType": "bytes32",
          "name": "bondhash",
          "type": "bytes32"
        }
      ],
      "name": "controller",
      "outputs": [
        {
          "internalType": "address",
          "name": "",
          "type": "address"
        }
      ],
      "stateMutability": "view",
      "type": "function"
    },
    {
      "inputs": [
        {
          "internalType": "bytes32",
          "name": "bondhash",
          "type": "bytes32"
        }
      ],
      "name": "covalence",
      "outputs": [
        {
          "internalType": "bool",
          "name": "",
          "type": "bool"
        }
      ],
      "stateMutability": "view",
      "type": "function"
    },
    {
      "inputs": [
        {
          "internalType": "bytes32",
          "name": "bondhash",
          "type": "bytes32"
        }
      ],
      "name": "expiry",
      "outputs": [
        {
          "internalType": "uint256",
          "name": "",
          "type": "uint256"
        }
      ],
      "stateMutability": "view",
      "type": "function"
    },
    {
      "inputs": [
        {
          "internalType": "bytes32",
          "name": "bondhash",
          "type": "bytes32"
        },
        {
          "internalType": "address",
          "name": "config",
          "type": "address"
        },
        {
          "internalType": "uint8",
          "name": "rule",
          "type": "uint8"
        }
      ],
      "name": "hook",
      "outputs": [],
      "stateMutability": "nonpayable",
      "type": "function"
    },
    {
      "inputs": [
        {
          "internalType": "bytes32",
          "name": "bondhash",
          "type": "bytes32"
        }
      ],
      "name": "hooksWithRules",
      "outputs": [
        {
          "internalType": "uint8[]",
          "name": "_rules",
          "type": "uint8[]"
        },
        {
          "internalType": "address[]",
          "name": "_hooks",
          "type": "address[]"
        }
      ],
      "stateMutability": "view",
      "type": "function"
    },
    {
      "inputs": [
        {
          "internalType": "bytes32",
          "name": "_cation",
          "type": "bytes32"
        },
        {
          "internalType": "address",
          "name": "operator",
          "type": "address"
        }
      ],
      "name": "isApprovedForAll",
      "outputs": [
        {
          "internalType": "bool",
          "name": "",
          "type": "bool"
        }
      ],
      "stateMutability": "view",
      "type": "function"
    },
    {
      "inputs": [
        {
          "internalType": "bytes32",
          "name": "bondhash",
          "type": "bytes32"
        },
        {
          "internalType": "bytes32",
          "name": "newAnion",
          "type": "bytes32"
        }
      ],
      "name": "isNotDuplicateAnion",
      "outputs": [
        {
          "internalType": "bool",
          "name": "",
          "type": "bool"
        }
      ],
      "stateMutability": "view",
      "type": "function"
    },
    {
      "inputs": [
        {
          "internalType": "bytes32",
          "name": "bondhash",
          "type": "bytes32"
        },
        {
          "internalType": "uint8",
          "name": "rule",
          "type": "uint8"
        }
      ],
      "name": "isNotDuplicateHook",
      "outputs": [
        {
          "internalType": "bool",
          "name": "",
          "type": "bool"
        }
      ],
      "stateMutability": "view",
      "type": "function"
    },
    {
      "inputs": [
        {
          "internalType": "bytes32",
          "name": "bondhash",
          "type": "bytes32"
        }
      ],
      "name": "recordExists",
      "outputs": [
        {
          "internalType": "bool",
          "name": "",
          "type": "bool"
        }
      ],
      "stateMutability": "view",
      "type": "function"
    },
    {
      "inputs": [
        {
          "internalType": "bytes32",
          "name": "bondhash",
          "type": "bytes32"
        },
        {
          "internalType": "bytes32",
          "name": "_cation",
          "type": "bytes32"
        }
      ],
      "name": "register",
      "outputs": [],
      "stateMutability": "nonpayable",
      "type": "function"
    },
    {
      "inputs": [
        {
          "internalType": "bytes32",
          "name": "bondhash",
          "type": "bytes32"
        },
        {
          "internalType": "address",
          "name": "config",
          "type": "address"
        },
        {
          "internalType": "uint8",
          "name": "rule",
          "type": "uint8"
        }
      ],
      "name": "rehook",
      "outputs": [],
      "stateMutability": "nonpayable",
      "type": "function"
    },
    {
      "inputs": [
        {
          "internalType": "bytes32",
          "name": "bondhash",
          "type": "bytes32"
        },
        {
          "internalType": "uint256",
          "name": "_expiry",
          "type": "uint256"
        }
      ],
      "name": "renew",
      "outputs": [],
      "stateMutability": "payable",
      "type": "function"
    },
    {
      "inputs": [
        {
          "internalType": "bytes32",
          "name": "bondhash",
          "type": "bytes32"
        }
      ],
      "name": "resolver",
      "outputs": [
        {
          "internalType": "address",
          "name": "",
          "type": "address"
        }
      ],
      "stateMutability": "view",
      "type": "function"
    },
    {
      "inputs": [],
      "name": "roothash",
      "outputs": [
        {
          "internalType": "bytes32",
          "name": "",
          "type": "bytes32"
        }
      ],
      "stateMutability": "view",
      "type": "function"
    },
    {
      "inputs": [
        {
          "internalType": "bytes32",
          "name": "bondhash",
          "type": "bytes32"
        },
        {
          "internalType": "bytes32",
          "name": "_alias",
          "type": "bytes32"
        }
      ],
      "name": "setAlias",
      "outputs": [],
      "stateMutability": "nonpayable",
      "type": "function"
    },
    {
      "inputs": [
        {
          "internalType": "bytes32",
          "name": "bondhash",
          "type": "bytes32"
        },
        {
          "internalType": "bytes32",
          "name": "_anion",
          "type": "bytes32"
        }
      ],
      "name": "setAnion",
      "outputs": [],
      "stateMutability": "nonpayable",
      "type": "function"
    },
    {
      "inputs": [
        {
          "internalType": "address",
          "name": "operator",
          "type": "address"
        },
        {
          "internalType": "bool",
          "name": "approved",
          "type": "bool"
        }
      ],
      "name": "setApprovalForAll",
      "outputs": [],
      "stateMutability": "nonpayable",
      "type": "function"
    },
    {
      "inputs": [
        {
          "internalType": "bytes32",
          "name": "bondhash",
          "type": "bytes32"
        },
        {
          "internalType": "bytes32",
          "name": "_cation",
          "type": "bytes32"
        }
      ],
      "name": "setCation",
      "outputs": [],
      "stateMutability": "nonpayable",
      "type": "function"
    },
    {
      "inputs": [
        {
          "internalType": "bytes32",
          "name": "bondhash",
          "type": "bytes32"
        },
        {
          "internalType": "address",
          "name": "_controller",
          "type": "address"
        }
      ],
      "name": "setController",
      "outputs": [],
      "stateMutability": "nonpayable",
      "type": "function"
    },
    {
      "inputs": [
        {
          "internalType": "bytes32",
          "name": "bondhash",
          "type": "bytes32"
        },
        {
          "internalType": "bool",
          "name": "_covalence",
          "type": "bool"
        }
      ],
      "name": "setCovalence",
      "outputs": [],
      "stateMutability": "nonpayable",
      "type": "function"
    },
    {
      "inputs": [
        {
          "internalType": "bytes32",
          "name": "bondhash",
          "type": "bytes32"
        },
        {
          "internalType": "uint256",
          "name": "_expiry",
          "type": "uint256"
        }
      ],
      "name": "setExpiry",
      "outputs": [],
      "stateMutability": "nonpayable",
      "type": "function"
    },
    {
      "inputs": [
        {
          "internalType": "bytes32",
          "name": "bondhash",
          "type": "bytes32"
        },
        {
          "internalType": "address",
          "name": "_resolver",
          "type": "address"
        }
      ],
      "name": "setRecord",
      "outputs": [],
      "stateMutability": "nonpayable",
      "type": "function"
    },
    {
      "inputs": [
        {
          "internalType": "bytes32",
          "name": "bondhash",
          "type": "bytes32"
        },
        {
          "internalType": "address",
          "name": "_resolver",
          "type": "address"
        }
      ],
      "name": "setResolver",
      "outputs": [],
      "stateMutability": "nonpayable",
      "type": "function"
    },
    {
      "inputs": [],
      "name": "theEnd",
      "outputs": [
        {
          "internalType": "uint256",
          "name": "",
          "type": "uint256"
        }
      ],
      "stateMutability": "view",
      "type": "function"
    },
    {
      "inputs": [
        {
          "internalType": "bytes32",
          "name": "bondhash",
          "type": "bytes32"
        },
        {
          "internalType": "uint8",
          "name": "rule",
          "type": "uint8"
        }
      ],
      "name": "unhook",
      "outputs": [],
      "stateMutability": "nonpayable",
      "type": "function"
    },
    {
      "inputs": [
        {
          "internalType": "bytes32",
          "name": "bondhash",
          "type": "bytes32"
        }
      ],
      "name": "unhookAll",
      "outputs": [],
      "stateMutability": "nonpayable",
      "type": "function"
    },
    {
      "inputs": [],
      "name": "withdrawEther",
      "outputs": [],
      "stateMutability": "nonpayable",
      "type": "function"
    }
  ],
  "bytecode": {
    "object": "0x60806040526002805460ff60a01b1916600160a01b1790556703782dace9d900006006553480156200003057600080fd5b50604051620047f9380380620047f9833981016040819052620000539162000735565b60028054336001600160a01b0319918216179091556000805482166001600160a01b03848116918217909255600180549093169185169190911790915560408051633215476b60e11b8152905163642a8ed6916004808201926080929091908290030181865afa158015620000cc573d6000803e3d6000fd5b505050506040513d601f19601f82011682018060405250810190620000f29190620007a4565b602001516003556000546040805163bd9a548b60e01b815290516001600160a01b039092169163bd9a548b916004808201926080929091908290030181865afa15801562000144573d6000803e3d6000fd5b505050506040513d601f19601f820116820180604052508101906200016a9190620007a4565b602001516004556200017b62000183565b505062000849565b7fb4b4801cca1cad359bff6b5ea99d95160f00cbe1164fb7231c42c3e8b5f2593b80546001600160a01b0319169055604080516020818101909252600080825280526007909152620001f9907f6d5257204ebe7d88fd91ae87941cb2dd9d8062b64ae5a2bd2d28ec40b9fbf6df90600162000654565b50600080805260076020527f6d5257204ebe7d88fd91ae87941cb2dd9d8062b64ae5a2bd2d28ec40b9fbf6e18190557f6d5257204ebe7d88fd91ae87941cb2dd9d8062b64ae5a2bd2d28ec40b9fbf6e28190557f6d5257204ebe7d88fd91ae87941cb2dd9d8062b64ae5a2bd2d28ec40b9fbf6e38190557f6d5257204ebe7d88fd91ae87941cb2dd9d8062b64ae5a2bd2d28ec40b9fbf6e580546006547f6d5257204ebe7d88fd91ae87941cb2dd9d8062b64ae5a2bd2d28ec40b9fbf6e6556001600160a81b03191633908117600160a01b179091557f6d5257204ebe7d88fd91ae87941cb2dd9d8062b64ae5a2bd2d28ec40b9fbf6e480546001600160a01b0319169091179055805460408051633215476b60e11b815290516001600160a01b03929092169163642a8ed6916004818101926080929091908290030181865afa1580156200034c573d6000803e3d6000fd5b505050506040513d601f19601f82011682018060405250810190620003729190620007a4565b905060005b600481101562000650576000600760008484600481106200039c576200039c6200080b565b6020908102919091015182528181019290925260409081016000908120818052600101835281812080546001600160a01b0319166001600160a01b03959095169490941790935580519182019052818152906007908484600481106200040657620004066200080b565b602002015181526020019081526020016000206000019060016200042c92919062000654565b508181600481106200044257620004426200080b565b6020020151600760008484600481106200046057620004606200080b565b60200201518152602001908152602001600020600201819055508181600481106200048f576200048f6200080b565b602002015160076000848460048110620004ad57620004ad6200080b565b6020020151815260200190815260200160002060030181905550818160048110620004dc57620004dc6200080b565b602002015160076000848460048110620004fa57620004fa6200080b565b60200201518152602001908152602001600020600401819055506001600760008484600481106200052f576200052f6200080b565b6020020151815260200190815260200160002060060160146101000a81548160ff021916908315150217905550600654600760008484600481106200057857620005786200080b565b60200201518152602001908152602001600020600701819055503360076000848460048110620005ac57620005ac6200080b565b6020020151815260200190815260200160002060060160006101000a8154816001600160a01b0302191690836001600160a01b0316021790555033600760008484600481106200060057620006006200080b565b6020020151815260200190815260200160002060050160006101000a8154816001600160a01b0302191690836001600160a01b031602179055508080620006479062000821565b91505062000377565b5050565b82805482825590600052602060002090601f01602090048101928215620006ef5791602002820160005b83821115620006be57835183826101000a81548160ff021916908360ff16021790555092602001926001016020816000010492830192600103026200067e565b8015620006ed5782816101000a81549060ff0219169055600101602081600001049283019260010302620006be565b505b50620006fd92915062000701565b5090565b5b80821115620006fd576000815560010162000702565b80516001600160a01b03811681146200073057600080fd5b919050565b600080604083850312156200074957600080fd5b620007548362000718565b9150620007646020840162000718565b90509250929050565b604051608081016001600160401b03811182821017156200079e57634e487b7160e01b600052604160045260246000fd5b60405290565b600060808284031215620007b757600080fd5b82601f830112620007c757600080fd5b620007d16200076d565b806080840185811115620007e457600080fd5b845b8181101562000800578051845260209384019301620007e6565b509095945050505050565b634e487b7160e01b600052603260045260246000fd5b6000600182016200084257634e487b7160e01b600052601160045260246000fd5b5060010190565b613fa080620008596000396000f3fe6080604052600436106102855760003560e01c8063849a799c11610153578063c7876ea4116100cb578063dbd4e0211161007f578063f61ccd5311610064578063f61ccd53146107c0578063f79fe538146107e0578063f8c912441461081357600080fd5b8063dbd4e0211461078d578063f544d82f146107ad57600080fd5b8063d2ec5fca116100b0578063d2ec5fca1461071c578063d31569051461074d578063d9b76ed41461076d57600080fd5b8063c7876ea4146106e6578063d07699aa146106fc57600080fd5b8063b069862811610122578063b782426e11610107578063b782426e14610686578063b9f37c86146106a6578063c5bc4c0b146106c657600080fd5b8063b069862814610646578063b612e9b91461066657600080fd5b8063849a799c146105c657806388a8c95c146105e6578063a22cb46514610606578063a3be52a21461062657600080fd5b806322b68deb116102015780634d505584116101b55780637362377b1161019a5780637362377b146105715780638146970a1461058657806383669726146105a657600080fd5b80634d5055841461049357806363a44e69146104b357600080fd5b80632f926732116101e65780632f92673214610433578063340268591461045357806339de64691461047357600080fd5b806322b68deb14610407578063251c94221461041d57600080fd5b80630aac6625116102585780631896f70a1161023d5780631896f70a146103a55780631f06e91c146103c757806321ec2b5b146103e757600080fd5b80630aac6625146103495780630e68b1161461037757600080fd5b80630178b8bf1461028a57806301e51ae8146102c757806302fb0c5e146102e757806305e84aa014610329575b600080fd5b34801561029657600080fd5b506102aa6102a5366004613428565b610846565b6040516001600160a01b0390911681526020015b60405180910390f35b3480156102d357600080fd5b506002546102aa906001600160a01b031681565b3480156102f357600080fd5b506002546103199074010000000000000000000000000000000000000000900460ff1681565b60405190151581526020016102be565b34801561033557600080fd5b506001546102aa906001600160a01b031681565b34801561035557600080fd5b50610369610364366004613428565b6108c0565b6040516102be929190613441565b34801561038357600080fd5b50610397610392366004613428565b610a80565b6040519081526020016102be565b3480156103b157600080fd5b506103c56103c03660046134dd565b610ae8565b005b3480156103d357600080fd5b506103c56103e236600461350d565b610d51565b3480156103f357600080fd5b506103c5610402366004613428565b610e97565b34801561041357600080fd5b5061039760065481565b34801561042957600080fd5b5061039760035481565b34801561043f57600080fd5b506103c561044e36600461350d565b611231565b34801561045f57600080fd5b5061031961046e366004613428565b611469565b34801561047f57600080fd5b506103c561048e36600461350d565b6114ec565b34801561049f57600080fd5b506103196104ae366004613545565b611687565b3480156104bf57600080fd5b506105316104ce366004613428565b60076020819052600091825260409091206002810154600382015460048301546005840154600685015494909501549294919390926001600160a01b039283169282169174010000000000000000000000000000000000000000900460ff169087565b604080519788526020880196909652948601939093526001600160a01b039182166060860152166080840152151560a083015260c082015260e0016102be565b34801561057d57600080fd5b506103c5611733565b34801561059257600080fd5b506103c56105a136600461350d565b6117d9565b3480156105b257600080fd5b506103c56105c1366004613571565b611a3f565b3480156105d257600080fd5b506103c56105e1366004613571565b611cc5565b3480156105f257600080fd5b506103c56106013660046135af565b611f45565b34801561061257600080fd5b506103c56106213660046135e1565b612015565b34801561063257600080fd5b506103c561064136600461350d565b61209f565b34801561065257600080fd5b506103196106613660046134dd565b6122d8565b34801561067257600080fd5b506103c5610681366004613545565b61237c565b34801561069257600080fd5b506000546102aa906001600160a01b031681565b3480156106b257600080fd5b506005546102aa906001600160a01b031681565b3480156106d257600080fd5b506103976106e1366004613428565b61279e565b3480156106f257600080fd5b5061039760045481565b34801561070857600080fd5b506103c561071736600461360f565b612806565b34801561072857600080fd5b50610397610737366004613428565b6000908152600760208190526040909120015490565b34801561075957600080fd5b506103c56107683660046134dd565b612a81565b34801561077957600080fd5b506103c56107883660046134dd565b612cdf565b34801561079957600080fd5b506102aa6107a8366004613428565b612f3d565b6103c56107bb36600461350d565b612fae565b3480156107cc57600080fd5b506103976107db366004613428565b6132f8565b3480156107ec57600080fd5b506103196107fb366004613428565b60009081526007602081905260409091200154421090565b34801561081f57600080fd5b5061031961082e36600461350d565b60009182526007602052604090912060030154141590565b6000818152600760208190526040822001548290421061089c5760405162461bcd60e51b815260206004820152600c60248201526b1093d39117d156141254915160a21b60448201526064015b60405180910390fd5b6000838152600760205260409020600501546001600160a01b031691505b50919050565b60608082600760008281526020019081526020016000206007015442106109185760405162461bcd60e51b815260206004820152600c60248201526b1093d39117d156141254915160a21b6044820152606401610893565b6000848152600760209081526040918290208054835181840281018401909452808452909183018282801561098a57602002820191906000526020600020906000905b825461010083900a900460ff1681526020600192830181810494850194909303909202910180841161095b5790505b50505050509250825167ffffffffffffffff8111156109ab576109ab613634565b6040519080825280602002602001820160405280156109d4578160200160208202803683370190505b50915060005b8351811015610a7957600760008681526020019081526020016000206001016000858381518110610a0d57610a0d613663565b602002602001015160ff1660ff16815260200190815260200160002060009054906101000a90046001600160a01b0316838281518110610a4f57610a4f613663565b6001600160a01b039092166020928302919091019091015280610a71816136c1565b9150506109da565b5050915091565b60008181526007602081905260408220015482904210610ad15760405162461bcd60e51b815260206004820152600c60248201526b1093d39117d156141254915160a21b6044820152606401610893565b505060009081526007602052604090206003015490565b600054604080517f4d3f7334000000000000000000000000000000000000000000000000000000008152905184926001600160a01b031691634d3f73349160048083019260809291908290030181865afa158015610b4a573d6000803e3d6000fd5b505050506040513d601f19601f82011682018060405250810190610b6e9190613704565b6020908101516005805473ffffffffffffffffffffffffffffffffffffffff19166001600160a01b0392831617905560008381526007835260408082206002015460015482516302571be360e01b81526004810183905292519195939416926302571be392602480820193918290030181865afa158015610bf3573d6000803e3d6000fd5b505050506040513d601f19601f82011682018060405250810190610c1791906137b0565b6005549091506001600160a01b0316331480610c3b57506001600160a01b03811633145b80610c6957506001600160a01b038116600090815260086020908152604080832033845290915290205460ff165b80610c8d57506000838152600760205260409020600601546001600160a01b031633145b610cd95760405162461bcd60e51b815260206004820152600e60248201527f4e4f545f415554484f52495345440000000000000000000000000000000000006044820152606401610893565b600085815260076020908152604091829020600501805473ffffffffffffffffffffffffffffffffffffffff19166001600160a01b038816908117909155915191825286917f335721b01866dc23fbee8b6b2c7b1e14d6f05c28cd35a2c934239f94095602a091015b60405180910390a25050505050565b60008054906101000a90046001600160a01b03166001600160a01b0316634d3f73346040518163ffffffff1660e01b8152600401608060405180830381865afa158015610da2573d6000803e3d6000fd5b505050506040513d601f19601f82011682018060405250810190610dc69190613704565b602001516005805473ffffffffffffffffffffffffffffffffffffffff19166001600160a01b0390921691821790553314610e435760405162461bcd60e51b815260206004820152600d60248201527f4e4f545f524547495354524152000000000000000000000000000000000000006044820152606401610893565b600082815260076020526040908190206004018290555182907f4247841fd58468a6fb10925898bdd83c426da7b5519ee71597106dfdc675122990610e8b9084815260200190565b60405180910390a25050565b600054604080517f4d3f7334000000000000000000000000000000000000000000000000000000008152905183926001600160a01b031691634d3f73349160048083019260809291908290030181865afa158015610ef9573d6000803e3d6000fd5b505050506040513d601f19601f82011682018060405250810190610f1d9190613704565b6020908101516005805473ffffffffffffffffffffffffffffffffffffffff19166001600160a01b0392831617905560008381526007835260408082206002015460015482516302571be360e01b81526004810183905292519195939416926302571be392602480820193918290030181865afa158015610fa2573d6000803e3d6000fd5b505050506040513d601f19601f82011682018060405250810190610fc691906137b0565b6005549091506001600160a01b0316331480610fea57506001600160a01b03811633145b8061101857506001600160a01b038116600090815260086020908152604080832033845290915290205460ff165b8061103c57506000838152600760205260409020600601546001600160a01b031633145b6110885760405162461bcd60e51b815260206004820152600e60248201527f4e4f545f415554484f52495345440000000000000000000000000000000000006044820152606401610893565b6000848152600760209081526040808320805482518185028101850190935280835291929091908301828280156110fc57602002820191906000526020600020906000905b825461010083900a900460ff168152602060019283018181049485019490930390920291018084116110cd5790505b5050505050905060005b81518110156111e757600060076000888152602001908152602001600020600101600084848151811061113b5761113b613663565b602002602001015160ff1660ff16815260200190815260200160002060006101000a8154816001600160a01b0302191690836001600160a01b03160217905550857fbf47c0c608c230f7dffbcf65f8cdc76f5f920e4750eea1dcd09138a7359226ac8383815181106111af576111af613663565b60200260200101516040516111cd919060ff91909116815260200190565b60405180910390a2806111df816136c1565b915050611106565b5060008581526007602052604081206111ff916133ef565b60405185907f6b91085369552b61ca16180a741663b69fb6b3b967f7271116521d84e2291dc590600090a25050505050565b60008054906101000a90046001600160a01b03166001600160a01b0316634d3f73346040518163ffffffff1660e01b8152600401608060405180830381865afa158015611282573d6000803e3d6000fd5b505050506040513d601f19601f820116820180604052508101906112a69190613704565b602001516005805473ffffffffffffffffffffffffffffffffffffffff19166001600160a01b03909216918217905533146113235760405162461bcd60e51b815260206004820152600d60248201527f4e4f545f524547495354524152000000000000000000000000000000000000006044820152606401610893565b6001546040516302571be360e01b8152600481018390526000916001600160a01b0316906302571be390602401602060405180830381865afa15801561136d573d6000803e3d6000fd5b505050506040513d601f19601f8201168201806040525081019061139191906137b0565b6001600160a01b0316036113e75760405162461bcd60e51b815260206004820152600b60248201527f43414e4e4f545f4255524e0000000000000000000000000000000000000000006044820152606401610893565b600082815260076020526040908190206002018290555182907f4810581adf2c16a86a375dbb1ed89b0b0f7e64d48d24e1948b3dfe6581e4d7959061142f9084815260200190565b60405180910390a2817facb5de0f65735f798ae8baf163fb3380a7813aca2c739ba9e39179007206585a82604051610e8b91815260200190565b600081815260076020819052604082200154829042106114ba5760405162461bcd60e51b815260206004820152600c60248201526b1093d39117d156141254915160a21b6044820152606401610893565b505060009081526007602052604090206006015474010000000000000000000000000000000000000000900460ff1690565b60008054906101000a90046001600160a01b03166001600160a01b0316634d3f73346040518163ffffffff1660e01b8152600401608060405180830381865afa15801561153d573d6000803e3d6000fd5b505050506040513d601f19601f820116820180604052508101906115619190613704565b602001516005805473ffffffffffffffffffffffffffffffffffffffff19166001600160a01b03909216918217905533146115de5760405162461bcd60e51b815260206004820152600d60248201527f4e4f545f524547495354524152000000000000000000000000000000000000006044820152606401610893565b60008281526007602081905260409091200154811161163f5760405162461bcd60e51b815260206004820152600a60248201527f4241445f455850495259000000000000000000000000000000000000000000006044820152606401610893565b600082815260076020819052604091829020018290555182907fa620b72378ee464490805a96e25b53e5c0076f0ce2d28f9691ae255a595b3bf390610e8b9084815260200190565b60008281526007602052604080822090517f26c6421b00000000000000000000000000000000000000000000000000000000815273__$47e4ffaaf323c41735ff299f8946896ce0$__916326c6421b916116e89160ff8716916004016137cd565b602060405180830381865af4158015611705573d6000803e3d6000fd5b505050506040513d601f19601f820116820180604052508101906117299190613e9d565b1590505b92915050565b6002546040516000916001600160a01b03169047908381818185875af1925050503d8060008114611780576040519150601f19603f3d011682016040523d82523d6000602084013e611785565b606091505b50509050806117d65760405162461bcd60e51b815260206004820152601360248201527f4554485f5452414e534645525f4641494c4544000000000000000000000000006044820152606401610893565b50565b600082815260076020819052604090912001548290421061182b5760405162461bcd60e51b815260206004820152600c60248201526b1093d39117d156141254915160a21b6044820152606401610893565b6000818152600760205260408082206002015460015491516302571be360e01b8152600481018290529092916001600160a01b0316906302571be390602401602060405180830381865afa158015611887573d6000803e3d6000fd5b505050506040513d601f19601f820116820180604052508101906118ab91906137b0565b90506001600160a01b0381163314806118e757506001600160a01b038116600090815260086020908152604080832033845290915290205460ff165b6119335760405162461bcd60e51b815260206004820152600960248201527f4e4f545f4f574e455200000000000000000000000000000000000000000000006044820152606401610893565b6001546040516302571be360e01b8152600481018690526000916001600160a01b0316906302571be390602401602060405180830381865afa15801561197d573d6000803e3d6000fd5b505050506040513d601f19601f820116820180604052508101906119a191906137b0565b6001600160a01b0316036119f75760405162461bcd60e51b815260206004820152600b60248201527f43414e4e4f545f4255524e0000000000000000000000000000000000000000006044820152606401610893565b600085815260076020526040908190206002018590555185907f4810581adf2c16a86a375dbb1ed89b0b0f7e64d48d24e1948b3dfe6581e4d79590610d429087815260200190565b6000838152600760208190526040909120015483904210611a915760405162461bcd60e51b815260206004820152600c60248201526b1093d39117d156141254915160a21b6044820152606401610893565b6000818152600760205260408082206002015460015491516302571be360e01b8152600481018290529092916001600160a01b0316906302571be390602401602060405180830381865afa158015611aed573d6000803e3d6000fd5b505050506040513d601f19601f82011682018060405250810190611b1191906137b0565b90506001600160a01b038116331480611b4d57506001600160a01b038116600090815260086020908152604080832033845290915290205460ff165b80611b7157506000838152600760205260409020600601546001600160a01b031633145b611bbd5760405162461bcd60e51b815260206004820152601760248201527f4e4f545f4f574e45525f4f525f434f4e54524f4c4c45520000000000000000006044820152606401610893565b600086815260076020908152604080832060ff881684526001019091529020546001600160a01b03808716911603611c375760405162461bcd60e51b815260206004820152600b60248201527f52554c455f4558495354530000000000000000000000000000000000000000006044820152606401610893565b600086815260076020908152604080832060ff88168085526001909101835292819020805473ffffffffffffffffffffffffffffffffffffffff19166001600160a01b038a1690811790915581519081529182019290925287917fe43a78ddf6157361fe34d04905786138f88d3eda20b1f7dc0e2c619f9267310091015b60405180910390a2505050505050565b6000838152600760208190526040909120015483904210611d175760405162461bcd60e51b815260206004820152600c60248201526b1093d39117d156141254915160a21b6044820152606401610893565b6000818152600760205260408082206002015460015491516302571be360e01b8152600481018290529092916001600160a01b0316906302571be390602401602060405180830381865afa158015611d73573d6000803e3d6000fd5b505050506040513d601f19601f82011682018060405250810190611d9791906137b0565b90506001600160a01b038116331480611dd357506001600160a01b038116600090815260086020908152604080832033845290915290205460ff165b80611df757506000838152600760205260409020600601546001600160a01b031633145b611e435760405162461bcd60e51b815260206004820152601760248201527f4e4f545f4f574e45525f4f525f434f4e54524f4c4c45520000000000000000006044820152606401610893565b611e4d8685611687565b611e995760405162461bcd60e51b815260206004820152600b60248201527f484f4f4b5f4558495354530000000000000000000000000000000000000000006044820152606401610893565b600086815260076020908152604080832080546001808201835582865284862085830401805460ff8c8116601f9095166101000a85810291021990911617905581865290910183529281902080546001600160a01b038a1673ffffffffffffffffffffffffffffffffffffffff19909116811790915581519081529182019290925287917fc733a2bc621cc97eef6ed4f708f126e72e6acb76c0a1c0461c9dd31f7b9870659101611cb5565b6002546001600160a01b03163314611f9f5760405162461bcd60e51b815260206004820152600760248201527f4e4f545f444556000000000000000000000000000000000000000000000000006044820152606401610893565b600254604080516001600160a01b03928316815291831660208301527fdec101f106d4fc7c85791843e64b198248c822298e3ed7046231d33f7783d816910160405180910390a16002805473ffffffffffffffffffffffffffffffffffffffff19166001600160a01b0392909216919091179055565b3360008181526008602090815260408083206001600160a01b0387168085529083529281902080547fffffffffffffffffffffffffffffffffffffffffffffffffffffffffffffff001686151590811790915590519081529192917f17307eab39ab6107e8899845ad3d59bd9653f200f220920489ca2b5937696c31910160405180910390a35050565b600054604080517f4d3f7334000000000000000000000000000000000000000000000000000000008152905184926001600160a01b031691634d3f73349160048083019260809291908290030181865afa158015612101573d6000803e3d6000fd5b505050506040513d601f19601f820116820180604052508101906121259190613704565b6020908101516005805473ffffffffffffffffffffffffffffffffffffffff19166001600160a01b0392831617905560008381526007835260408082206002015460015482516302571be360e01b81526004810183905292519195939416926302571be392602480820193918290030181865afa1580156121aa573d6000803e3d6000fd5b505050506040513d601f19601f820116820180604052508101906121ce91906137b0565b6005549091506001600160a01b03163314806121f257506001600160a01b03811633145b8061222057506001600160a01b038116600090815260086020908152604080832033845290915290205460ff165b8061224457506000838152600760205260409020600601546001600160a01b031633145b6122905760405162461bcd60e51b815260206004820152600e60248201527f4e4f545f415554484f52495345440000000000000000000000000000000000006044820152606401610893565b600085815260076020526040908190206003018590555185907f600ffddd29393ca43c0a11fa6b0b7096631364178cb42f9d546c0a2cd22525ee90610d429087815260200190565b6001546040516302571be360e01b81526004810184905260009182916001600160a01b03909116906302571be390602401602060405180830381865afa158015612326573d6000803e3d6000fd5b505050506040513d601f19601f8201168201806040525081019061234a91906137b0565b6001600160a01b0390811660009081526008602090815260408083209387168352929052205460ff1691505092915050565b60008281526007602081905260409091200154829042106123ce5760405162461bcd60e51b815260206004820152600c60248201526b1093d39117d156141254915160a21b6044820152606401610893565b6000818152600760205260408082206002015460015491516302571be360e01b8152600481018290529092916001600160a01b0316906302571be390602401602060405180830381865afa15801561242a573d6000803e3d6000fd5b505050506040513d601f19601f8201168201806040525081019061244e91906137b0565b90506001600160a01b03811633148061248a57506001600160a01b038116600090815260086020908152604080832033845290915290205460ff165b806124ae57506000838152600760205260409020600601546001600160a01b031633145b6124fa5760405162461bcd60e51b815260206004820152601760248201527f4e4f545f4f574e45525f4f525f434f4e54524f4c4c45520000000000000000006044820152606401610893565b60008581526007602090815260408083208054825181850281018501909352808352919290919083018282801561256e57602002820191906000526020600020906000905b825461010083900a900460ff1681526020600192830181810494850194909303909202910180841161253f5790505b50506040517f26c6421b00000000000000000000000000000000000000000000000000000000815293945073__$47e4ffaaf323c41735ff299f8946896ce0$__936326c6421b93506125cb925060ff8a1691508590600401613eba565b602060405180830381865af41580156125e8573d6000803e3d6000fd5b505050506040513d601f19601f8201168201806040525081019061260c9190613e9d565b15612764576040517f8ab65ceb00000000000000000000000000000000000000000000000000000000815260009073__$47e4ffaaf323c41735ff299f8946896ce0$__90638ab65ceb906126699060ff8a16908690600401613eba565b602060405180830381865af4158015612686573d6000803e3d6000fd5b505050506040513d601f19601f820116820180604052508101906126aa9190613f01565b600088815260076020908152604080832060ff8b168085526001909101835292819020805473ffffffffffffffffffffffffffffffffffffffff191690555191825291925088917fbf47c0c608c230f7dffbcf65f8cdc76f5f920e4750eea1dcd09138a7359226ac910160405180910390a2600087815260076020526040902080548290811061273c5761273c613663565b90600052602060002090602091828204019190066101000a81549060ff021916905550612796565b6040517fe8dd1d3e00000000000000000000000000000000000000000000000000000000815260040160405180910390fd5b505050505050565b600081815260076020819052604082200154829042106127ef5760405162461bcd60e51b815260206004820152600c60248201526b1093d39117d156141254915160a21b6044820152606401610893565b505060009081526007602052604090206004015490565b600054604080517f4d3f7334000000000000000000000000000000000000000000000000000000008152905184926001600160a01b031691634d3f73349160048083019260809291908290030181865afa158015612868573d6000803e3d6000fd5b505050506040513d601f19601f8201168201806040525081019061288c9190613704565b6020908101516005805473ffffffffffffffffffffffffffffffffffffffff19166001600160a01b0392831617905560008381526007835260408082206002015460015482516302571be360e01b81526004810183905292519195939416926302571be392602480820193918290030181865afa158015612911573d6000803e3d6000fd5b505050506040513d601f19601f8201168201806040525081019061293591906137b0565b6005549091506001600160a01b031633148061295957506001600160a01b03811633145b8061298757506001600160a01b038116600090815260086020908152604080832033845290915290205460ff165b806129ab57506000838152600760205260409020600601546001600160a01b031633145b6129f75760405162461bcd60e51b815260206004820152600e60248201527f4e4f545f415554484f52495345440000000000000000000000000000000000006044820152606401610893565b60008581526007602052604090819020600601805486151574010000000000000000000000000000000000000000027fffffffffffffffffffffff00ffffffffffffffffffffffffffffffffffffffff9091161790555185907fe6ccdb52b4954ab2c3e293f1dbfe593e6c5630962a1944bfcf20c5563eeb846290610d4290871515815260200190565b600054604080517f4d3f7334000000000000000000000000000000000000000000000000000000008152905184926001600160a01b031691634d3f73349160048083019260809291908290030181865afa158015612ae3573d6000803e3d6000fd5b505050506040513d601f19601f82011682018060405250810190612b079190613704565b6020908101516005805473ffffffffffffffffffffffffffffffffffffffff19166001600160a01b0392831617905560008381526007835260408082206002015460015482516302571be360e01b81526004810183905292519195939416926302571be392602480820193918290030181865afa158015612b8c573d6000803e3d6000fd5b505050506040513d601f19601f82011682018060405250810190612bb091906137b0565b6005549091506001600160a01b0316331480612bd457506001600160a01b03811633145b80612c0257506001600160a01b038116600090815260086020908152604080832033845290915290205460ff165b80612c2657506000838152600760205260409020600601546001600160a01b031633145b612c725760405162461bcd60e51b815260206004820152600e60248201527f4e4f545f415554484f52495345440000000000000000000000000000000000006044820152606401610893565b600085815260076020908152604091829020600601805473ffffffffffffffffffffffffffffffffffffffff19166001600160a01b038816908117909155915191825286917fe5108446a6097aab57fd36f346a515a78fddefa87d81662d44e0d7a463f920959101610d42565b600054604080517f4d3f7334000000000000000000000000000000000000000000000000000000008152905184926001600160a01b031691634d3f73349160048083019260809291908290030181865afa158015612d41573d6000803e3d6000fd5b505050506040513d601f19601f82011682018060405250810190612d659190613704565b6020908101516005805473ffffffffffffffffffffffffffffffffffffffff19166001600160a01b0392831617905560008381526007835260408082206002015460015482516302571be360e01b81526004810183905292519195939416926302571be392602480820193918290030181865afa158015612dea573d6000803e3d6000fd5b505050506040513d601f19601f82011682018060405250810190612e0e91906137b0565b6005549091506001600160a01b0316331480612e3257506001600160a01b03811633145b80612e6057506001600160a01b038116600090815260086020908152604080832033845290915290205460ff165b80612e8457506000838152600760205260409020600601546001600160a01b031633145b612ed05760405162461bcd60e51b815260206004820152600e60248201527f4e4f545f415554484f52495345440000000000000000000000000000000000006044820152606401610893565b600085815260076020908152604091829020600501805473ffffffffffffffffffffffffffffffffffffffff19166001600160a01b038816908117909155915191825286917fcb71326aeaad88869e8be8be2893e1119f7617ce4ea2411af127e218909be1f79101610d42565b60008181526007602081905260408220015482904210612f8e5760405162461bcd60e51b815260206004820152600c60248201526b1093d39117d156141254915160a21b6044820152606401610893565b50506000908152600760205260409020600601546001600160a01b031690565b60008281526007602081905260409091200154829042106130005760405162461bcd60e51b815260206004820152600c60248201526b1093d39117d156141254915160a21b6044820152606401610893565b6000818152600760205260408082206002015460015491516302571be360e01b8152600481018290529092916001600160a01b0316906302571be390602401602060405180830381865afa15801561305c573d6000803e3d6000fd5b505050506040513d601f19601f8201168201806040525081019061308091906137b0565b90506001600160a01b0381163314806130bc57506001600160a01b038116600090815260086020908152604080832033845290915290205460ff165b806130e057506000838152600760205260409020600601546001600160a01b031633145b61312c5760405162461bcd60e51b815260206004820152601760248201527f4e4f545f4f574e45525f4f525f434f4e54524f4c4c45520000000000000000006044820152606401610893565b60008581526007602081905260409091200154841161318d5760405162461bcd60e51b815260206004820152600a60248201527f4241445f455850495259000000000000000000000000000000000000000000006044820152606401610893565b60008054906101000a90046001600160a01b03166001600160a01b0316634d3f73346040518163ffffffff1660e01b8152600401608060405180830381865afa1580156131de573d6000803e3d6000fd5b505050506040513d601f19601f820116820180604052508101906132029190613704565b6020908101516005805473ffffffffffffffffffffffffffffffffffffffff19166001600160a01b03909216919091179055600086815260079182905260408120909101546132519086613f1a565b9050600454816132619190613f2d565b3410156132b05760405162461bcd60e51b815260206004820152601260248201527f494e53554646494349454e545f455448455200000000000000000000000000006044820152606401610893565b600086815260076020819052604091829020018690555186907fa620b72378ee464490805a96e25b53e5c0076f0ce2d28f9691ae255a595b3bf390611cb59088815260200190565b600081815260076020819052604082200154829042106133495760405162461bcd60e51b815260206004820152600c60248201526b1093d39117d156141254915160a21b6044820152606401610893565b6000838152600760205260408082206002015460015491516302571be360e01b8152600481018290529092916001600160a01b0316906302571be390602401602060405180830381865afa1580156133a5573d6000803e3d6000fd5b505050506040513d601f19601f820116820180604052508101906133c991906137b0565b9050306001600160a01b038216036133e757600354935050506108ba565b509392505050565b50805460008255601f0160209004906000526020600020908101906117d691905b808211156134245760008155600101613410565b5090565b60006020828403121561343a57600080fd5b5035919050565b604080825283519082018190526000906020906060840190828701845b8281101561347d57815160ff168452928401929084019060010161345e565b5050508381038285015284518082528583019183019060005b818110156134bb5783516001600160a01b031683529284019291840191600101613496565b5090979650505050505050565b6001600160a01b03811681146117d657600080fd5b600080604083850312156134f057600080fd5b823591506020830135613502816134c8565b809150509250929050565b6000806040838503121561352057600080fd5b50508035926020909101359150565b803560ff8116811461354057600080fd5b919050565b6000806040838503121561355857600080fd5b823591506135686020840161352f565b90509250929050565b60008060006060848603121561358657600080fd5b833592506020840135613598816134c8565b91506135a66040850161352f565b90509250925092565b6000602082840312156135c157600080fd5b81356135cc816134c8565b9392505050565b80151581146117d657600080fd5b600080604083850312156135f457600080fd5b82356135ff816134c8565b91506020830135613502816135d3565b6000806040838503121561362257600080fd5b823591506020830135613502816135d3565b7f4e487b7100000000000000000000000000000000000000000000000000000000600052604160045260246000fd5b7f4e487b7100000000000000000000000000000000000000000000000000000000600052603260045260246000fd5b7f4e487b7100000000000000000000000000000000000000000000000000000000600052601160045260246000fd5b60007fffffffffffffffffffffffffffffffffffffffffffffffffffffffffffffffff82036136f2576136f2613692565b5060010190565b8051613540816134c8565b60006080828403121561371657600080fd5b82601f83011261372557600080fd5b6040516080810181811067ffffffffffffffff8211171561376f577f4e487b7100000000000000000000000000000000000000000000000000000000600052604160045260246000fd5b60405280608084018581111561378457600080fd5b845b818110156137a557613797816136f9565b835260209283019201613786565b509195945050505050565b6000602082840312156137c257600080fd5b81516135cc816134c8565b60006040820160ff808616845260206040818601528286546137f3818690815260200190565b60008981526020812096509092505b81601f82011015613a8957855460ff86821616845261382a858501878360081c1660ff169052565b61383e60408501878360101c1660ff169052565b6060613853818601888460181c1660ff169052565b608061386781870189858a1c1660ff169052565b60a061387c8188018a8660281c1660ff169052565b60c06138918189018b8760301c1660ff169052565b60e06138a6818a018c8860381c1660ff169052565b6138bb6101008a018c8860401c1660ff169052565b6138d06101208a018c8860481c1660ff169052565b6138e56101408a018c8860501c1660ff169052565b6138fa6101608a018c8860581c1660ff169052565b60ff86861c8c16166101808a015261391d6101a08a018c8860681c1660ff169052565b6139326101c08a018c8860701c1660ff169052565b6139476101e08a018c8860781c1660ff169052565b60ff86851c8c16166102008a015261396a6102208a018c8860881c1660ff169052565b61397f6102408a018c8860901c1660ff169052565b6139946102608a018c8860981c1660ff169052565b60ff86841c8c16166102808a01526139b76102a08a018c8860a81c1660ff169052565b6139cc6102c08a018c8860b01c1660ff169052565b6139e16102e08a018c8860b81c1660ff169052565b60ff86831c8c16166103008a0152613a046103208a018c8860c81c1660ff169052565b613a196103408a018c8860d01c1660ff169052565b613a2e6103608a018c8860d81c1660ff169052565b60ff86821c8c16166103808a01525050505050613a566103a08501878360e81c1660ff169052565b613a6b6103c08501878360f01c1660ff169052565b60f81c6103e084015260019590950194610400909201918301613802565b94549481811015613aa45760ff868616168352918301916001015b81811015613ac557613abd83868860081c1660ff169052565b918301916001015b81811015613ae657613ade83868860101c1660ff169052565b918301916001015b81811015613b0757613aff83868860181c1660ff169052565b918301916001015b81811015613b215760ff86851c8616168352918301916001015b81811015613b4257613b3a83868860281c1660ff169052565b918301916001015b81811015613b6357613b5b83868860301c1660ff169052565b918301916001015b81811015613b8457613b7c83868860381c1660ff169052565b918301916001015b81811015613ba557613b9d83868860401c1660ff169052565b918301916001015b81811015613bc657613bbe83868860481c1660ff169052565b918301916001015b81811015613be757613bdf83868860501c1660ff169052565b918301916001015b81811015613c0857613c0083868860581c1660ff169052565b918301916001015b81811015613c2957613c2183868860601c1660ff169052565b918301916001015b81811015613c4a57613c4283868860681c1660ff169052565b918301916001015b81811015613c6b57613c6383868860701c1660ff169052565b918301916001015b81811015613c8c57613c8483868860781c1660ff169052565b918301916001015b81811015613cad57613ca583868860801c1660ff169052565b918301916001015b81811015613cce57613cc683868860881c1660ff169052565b918301916001015b81811015613cef57613ce783868860901c1660ff169052565b918301916001015b81811015613d1057613d0883868860981c1660ff169052565b918301916001015b81811015613d3157613d2983868860a01c1660ff169052565b918301916001015b81811015613d5257613d4a83868860a81c1660ff169052565b918301916001015b81811015613d7357613d6b83868860b01c1660ff169052565b918301916001015b81811015613d9457613d8c83868860b81c1660ff169052565b918301916001015b81811015613db557613dad83868860c01c1660ff169052565b918301916001015b81811015613dd657613dce83868860c81c1660ff169052565b918301916001015b81811015613df757613def83868860d01c1660ff169052565b918301916001015b81811015613e1857613e1083868860d81c1660ff169052565b918301916001015b81811015613e3957613e3183868860e01c1660ff169052565b918301916001015b81811015613e5a57613e5283868860e81c1660ff169052565b918301916001015b81811015613e7b57613e7383868860f01c1660ff169052565b918301916001015b81811015613e8f5760f886901c8352918301915b509098975050505050505050565b600060208284031215613eaf57600080fd5b81516135cc816135d3565b60006040820160ff80861684526020604081860152828651808552606087019150828801945060005b81811015613e8f578551851683529483019491830191600101613ee3565b600060208284031215613f1357600080fd5b5051919050565b8181038181111561172d5761172d613692565b6000817fffffffffffffffffffffffffffffffffffffffffffffffffffffffffffffffff0483118215151615613f6557613f65613692565b50029056fea26469706673582212203fff7b730b312db02ef65ee01e4b93743df1019b1ff9d5e17d95c75b8c71489e64736f6c63430008100033",
    "linkReferences": {
      "src/Utils/LibString.sol": {
        "LibString": [
          {
            "start": 7958,
            "length": 20
          },
          {
            "start": 11764,
            "length": 20
          },
          {
            "start": 11925,
            "length": 20
          }
        ]
      }
    }
  },
  "methodIdentifiers": {
    "Bonds(bytes32)": "63a44e69",
    "Dev()": "01e51ae8",
    "HELIX2()": "b782426e",
    "NAMES()": "05e84aa0",
    "Registrar()": "b9f37c86",
    "active()": "02fb0c5e",
    "alias_(bytes32)": "c5bc4c0b",
    "anion(bytes32)": "0e68b116",
    "basePrice()": "c7876ea4",
    "cation(bytes32)": "f61ccd53",
    "changeDev(address)": "88a8c95c",
    "controller(bytes32)": "dbd4e021",
    "covalence(bytes32)": "34026859",
    "expiry(bytes32)": "d2ec5fca",
    "hook(bytes32,address,uint8)": "849a799c",
    "hooksWithRules(bytes32)": "0aac6625",
    "isApprovedForAll(bytes32,address)": "b0698628",
    "isNotDuplicateAnion(bytes32,bytes32)": "f8c91244",
    "isNotDuplicateHook(bytes32,uint8)": "4d505584",
    "recordExists(bytes32)": "f79fe538",
    "register(bytes32,bytes32)": "2f926732",
    "rehook(bytes32,address,uint8)": "83669726",
    "renew(bytes32,uint256)": "f544d82f",
    "resolver(bytes32)": "0178b8bf",
    "roothash()": "251c9422",
    "setAlias(bytes32,bytes32)": "1f06e91c",
    "setAnion(bytes32,bytes32)": "a3be52a2",
    "setApprovalForAll(address,bool)": "a22cb465",
    "setCation(bytes32,bytes32)": "8146970a",
    "setController(bytes32,address)": "d3156905",
    "setCovalence(bytes32,bool)": "d07699aa",
    "setExpiry(bytes32,uint256)": "39de6469",
    "setRecord(bytes32,address)": "d9b76ed4",
    "setResolver(bytes32,address)": "1896f70a",
    "theEnd()": "22b68deb",
    "unhook(bytes32,uint8)": "b612e9b9",
    "unhookAll(bytes32)": "21ec2b5b",
    "withdrawEther()": "7362377b"
  },
  "id": 16
}