{
  "abi": [
    {
      "inputs": [
        {
          "internalType": "address",
          "name": "_registry",
          "type": "address"
        },
        {
          "internalType": "address",
          "name": "_helix2",
          "type": "address"
        },
        {
          "internalType": "address",
          "name": "_priceOracle",
          "type": "address"
        }
      ],
      "stateMutability": "nonpayable",
      "type": "constructor"
    },
    {
      "inputs": [],
      "name": "BAD_HOOK",
      "type": "error"
    },
    {
      "anonymous": false,
      "inputs": [
        {
          "indexed": true,
          "internalType": "address",
          "name": "cation",
          "type": "address"
        },
        {
          "indexed": true,
          "internalType": "address",
          "name": "operator",
          "type": "address"
        },
        {
          "indexed": false,
          "internalType": "bool",
          "name": "approved",
          "type": "bool"
        }
      ],
      "name": "ApprovalForAll",
      "type": "event"
    },
    {
      "anonymous": false,
      "inputs": [
        {
          "indexed": true,
          "internalType": "bytes32",
          "name": "bondhash",
          "type": "bytes32"
        },
        {
          "indexed": false,
          "internalType": "address",
          "name": "config",
          "type": "address"
        },
        {
          "indexed": false,
          "internalType": "uint8",
          "name": "rule",
          "type": "uint8"
        }
      ],
      "name": "Hooked",
      "type": "event"
    },
    {
      "anonymous": false,
      "inputs": [
        {
          "indexed": true,
          "internalType": "bytes32",
          "name": "bondhash",
          "type": "bytes32"
        },
        {
          "indexed": false,
          "internalType": "bytes32",
          "name": "anion",
          "type": "bytes32"
        }
      ],
      "name": "NewAnion",
      "type": "event"
    },
    {
      "anonymous": false,
      "inputs": [
        {
          "indexed": true,
          "internalType": "bytes32",
          "name": "bondhash",
          "type": "bytes32"
        },
        {
          "indexed": false,
          "internalType": "bytes32",
          "name": "cation",
          "type": "bytes32"
        }
      ],
      "name": "NewCation",
      "type": "event"
    },
    {
      "anonymous": false,
      "inputs": [
        {
          "indexed": true,
          "internalType": "bytes32",
          "name": "bondhash",
          "type": "bytes32"
        },
        {
          "indexed": false,
          "internalType": "address",
          "name": "controller",
          "type": "address"
        }
      ],
      "name": "NewController",
      "type": "event"
    },
    {
      "anonymous": false,
      "inputs": [
        {
          "indexed": true,
          "internalType": "bytes32",
          "name": "bondhash",
          "type": "bytes32"
        },
        {
          "indexed": false,
          "internalType": "bool",
          "name": "covalence",
          "type": "bool"
        }
      ],
      "name": "NewCovalence",
      "type": "event"
    },
    {
      "anonymous": false,
      "inputs": [
        {
          "indexed": true,
          "internalType": "bytes32",
          "name": "bondhash",
          "type": "bytes32"
        },
        {
          "indexed": false,
          "internalType": "uint256",
          "name": "expiry",
          "type": "uint256"
        }
      ],
      "name": "NewExpiry",
      "type": "event"
    },
    {
      "anonymous": false,
      "inputs": [
        {
          "indexed": true,
          "internalType": "bytes32",
          "name": "bondhash",
          "type": "bytes32"
        },
        {
          "indexed": false,
          "internalType": "address",
          "name": "resolver",
          "type": "address"
        }
      ],
      "name": "NewRecord",
      "type": "event"
    },
    {
      "anonymous": false,
      "inputs": [
        {
          "indexed": true,
          "internalType": "bytes32",
          "name": "bondhash",
          "type": "bytes32"
        },
        {
          "indexed": false,
          "internalType": "address",
          "name": "resolver",
          "type": "address"
        }
      ],
      "name": "NewResolver",
      "type": "event"
    },
    {
      "anonymous": false,
      "inputs": [
        {
          "indexed": true,
          "internalType": "address",
          "name": "previousOwner",
          "type": "address"
        },
        {
          "indexed": true,
          "internalType": "address",
          "name": "newOwner",
          "type": "address"
        }
      ],
      "name": "OwnershipTransferred",
      "type": "event"
    },
    {
      "anonymous": false,
      "inputs": [
        {
          "indexed": true,
          "internalType": "bytes32",
          "name": "bondhash",
          "type": "bytes32"
        },
        {
          "indexed": false,
          "internalType": "address",
          "name": "config",
          "type": "address"
        },
        {
          "indexed": false,
          "internalType": "uint8",
          "name": "rule",
          "type": "uint8"
        }
      ],
      "name": "Rehooked",
      "type": "event"
    },
    {
      "anonymous": false,
      "inputs": [
        {
          "indexed": true,
          "internalType": "bytes32",
          "name": "bondhash",
          "type": "bytes32"
        },
        {
          "indexed": false,
          "internalType": "uint8",
          "name": "rule",
          "type": "uint8"
        }
      ],
      "name": "Unhooked",
      "type": "event"
    },
    {
      "anonymous": false,
      "inputs": [
        {
          "indexed": true,
          "internalType": "bytes32",
          "name": "bondhash",
          "type": "bytes32"
        }
      ],
      "name": "UnhookedAll",
      "type": "event"
    },
    {
      "inputs": [
        {
          "internalType": "bytes32",
          "name": "",
          "type": "bytes32"
        }
      ],
      "name": "Bonds",
      "outputs": [
        {
          "internalType": "bytes32",
          "name": "_cation",
          "type": "bytes32"
        },
        {
          "internalType": "bytes32",
          "name": "_anion",
          "type": "bytes32"
        },
        {
          "internalType": "bytes32",
          "name": "_alias",
          "type": "bytes32"
        },
        {
          "internalType": "address",
          "name": "_resolver",
          "type": "address"
        },
        {
          "internalType": "address",
          "name": "_controller",
          "type": "address"
        },
        {
          "internalType": "bool",
          "name": "_covalence",
          "type": "bool"
        },
        {
          "internalType": "uint256",
          "name": "_expiry",
          "type": "uint256"
        }
      ],
      "stateMutability": "view",
      "type": "function"
    },
    {
      "inputs": [],
      "name": "Dev",
      "outputs": [
        {
          "internalType": "address",
          "name": "",
          "type": "address"
        }
      ],
      "stateMutability": "view",
      "type": "function"
    },
    {
      "inputs": [],
      "name": "HELIX2",
      "outputs": [
        {
          "internalType": "contract iHELIX2",
          "name": "",
          "type": "address"
        }
      ],
      "stateMutability": "view",
      "type": "function"
    },
    {
      "inputs": [],
      "name": "NAMES",
      "outputs": [
        {
          "internalType": "contract iNAME",
          "name": "",
          "type": "address"
        }
      ],
      "stateMutability": "view",
      "type": "function"
    },
    {
      "inputs": [],
      "name": "PRICES",
      "outputs": [
        {
          "internalType": "contract iPriceOracle",
          "name": "",
          "type": "address"
        }
      ],
      "stateMutability": "view",
      "type": "function"
    },
    {
      "inputs": [],
      "name": "Registrar",
      "outputs": [
        {
          "internalType": "address",
          "name": "",
          "type": "address"
        }
      ],
      "stateMutability": "view",
      "type": "function"
    },
    {
      "inputs": [],
      "name": "active",
      "outputs": [
        {
          "internalType": "bool",
          "name": "",
          "type": "bool"
        }
      ],
      "stateMutability": "view",
      "type": "function"
    },
    {
      "inputs": [
        {
          "internalType": "bytes32",
          "name": "bondhash",
          "type": "bytes32"
        }
      ],
      "name": "alias_",
      "outputs": [
        {
          "internalType": "bytes32",
          "name": "",
          "type": "bytes32"
        }
      ],
      "stateMutability": "view",
      "type": "function"
    },
    {
      "inputs": [
        {
          "internalType": "bytes32",
          "name": "bondhash",
          "type": "bytes32"
        }
      ],
      "name": "anion",
      "outputs": [
        {
          "internalType": "bytes32",
          "name": "",
          "type": "bytes32"
        }
      ],
      "stateMutability": "view",
      "type": "function"
    },
    {
      "inputs": [],
      "name": "basePrice",
      "outputs": [
        {
          "internalType": "uint256",
          "name": "",
          "type": "uint256"
        }
      ],
      "stateMutability": "view",
      "type": "function"
    },
    {
      "inputs": [
        {
          "internalType": "bytes32",
          "name": "bondhash",
          "type": "bytes32"
        }
      ],
      "name": "cation",
      "outputs": [
        {
          "internalType": "bytes32",
          "name": "",
          "type": "bytes32"
        }
      ],
      "stateMutability": "view",
      "type": "function"
    },
    {
      "inputs": [
        {
          "internalType": "bytes32",
          "name": "bondhash",
          "type": "bytes32"
        }
      ],
      "name": "controller",
      "outputs": [
        {
          "internalType": "address",
          "name": "",
          "type": "address"
        }
      ],
      "stateMutability": "view",
      "type": "function"
    },
    {
      "inputs": [
        {
          "internalType": "bytes32",
          "name": "bondhash",
          "type": "bytes32"
        }
      ],
      "name": "covalence",
      "outputs": [
        {
          "internalType": "bool",
          "name": "",
          "type": "bool"
        }
      ],
      "stateMutability": "view",
      "type": "function"
    },
    {
      "inputs": [
        {
          "internalType": "bytes32",
          "name": "bondhash",
          "type": "bytes32"
        }
      ],
      "name": "expiry",
      "outputs": [
        {
          "internalType": "uint256",
          "name": "",
          "type": "uint256"
        }
      ],
      "stateMutability": "view",
      "type": "function"
    },
    {
      "inputs": [
        {
          "internalType": "bytes32",
          "name": "bondhash",
          "type": "bytes32"
        },
        {
          "internalType": "address",
          "name": "config",
          "type": "address"
        },
        {
          "internalType": "uint8",
          "name": "rule",
          "type": "uint8"
        }
      ],
      "name": "hook",
      "outputs": [],
      "stateMutability": "nonpayable",
      "type": "function"
    },
    {
      "inputs": [
        {
          "internalType": "bytes32",
          "name": "bondhash",
          "type": "bytes32"
        }
      ],
      "name": "hooksWithRules",
      "outputs": [
        {
          "internalType": "uint8[]",
          "name": "_rules",
          "type": "uint8[]"
        },
        {
          "internalType": "address[]",
          "name": "_hooks",
          "type": "address[]"
        }
      ],
      "stateMutability": "view",
      "type": "function"
    },
    {
      "inputs": [
        {
          "internalType": "bytes32",
          "name": "_cation",
          "type": "bytes32"
        },
        {
          "internalType": "address",
          "name": "operator",
          "type": "address"
        }
      ],
      "name": "isApprovedForAll",
      "outputs": [
        {
          "internalType": "bool",
          "name": "",
          "type": "bool"
        }
      ],
      "stateMutability": "view",
      "type": "function"
    },
    {
      "inputs": [
        {
          "internalType": "bytes32",
          "name": "bondhash",
          "type": "bytes32"
        },
        {
          "internalType": "bytes32",
          "name": "newAnion",
          "type": "bytes32"
        }
      ],
      "name": "isNotDuplicateAnion",
      "outputs": [
        {
          "internalType": "bool",
          "name": "",
          "type": "bool"
        }
      ],
      "stateMutability": "view",
      "type": "function"
    },
    {
      "inputs": [
        {
          "internalType": "bytes32",
          "name": "bondhash",
          "type": "bytes32"
        },
        {
          "internalType": "uint8",
          "name": "rule",
          "type": "uint8"
        }
      ],
      "name": "isNotDuplicateHook",
      "outputs": [
        {
          "internalType": "bool",
          "name": "",
          "type": "bool"
        }
      ],
      "stateMutability": "view",
      "type": "function"
    },
    {
      "inputs": [],
      "name": "owner",
      "outputs": [
        {
          "internalType": "address",
          "name": "",
          "type": "address"
        }
      ],
      "stateMutability": "view",
      "type": "function"
    },
    {
      "inputs": [
        {
          "internalType": "bytes32",
          "name": "bondhash",
          "type": "bytes32"
        }
      ],
      "name": "recordExists",
      "outputs": [
        {
          "internalType": "bool",
          "name": "",
          "type": "bool"
        }
      ],
      "stateMutability": "view",
      "type": "function"
    },
    {
      "inputs": [
        {
          "internalType": "bytes32",
          "name": "bondhash",
          "type": "bytes32"
        },
        {
          "internalType": "bytes32",
          "name": "_cation",
          "type": "bytes32"
        }
      ],
      "name": "register",
      "outputs": [],
      "stateMutability": "nonpayable",
      "type": "function"
    },
    {
      "inputs": [
        {
          "internalType": "bytes32",
          "name": "bondhash",
          "type": "bytes32"
        },
        {
          "internalType": "address",
          "name": "config",
          "type": "address"
        },
        {
          "internalType": "uint8",
          "name": "rule",
          "type": "uint8"
        }
      ],
      "name": "rehook",
      "outputs": [],
      "stateMutability": "nonpayable",
      "type": "function"
    },
    {
      "inputs": [
        {
          "internalType": "bytes32",
          "name": "bondhash",
          "type": "bytes32"
        },
        {
          "internalType": "uint256",
          "name": "_expiry",
          "type": "uint256"
        }
      ],
      "name": "renew",
      "outputs": [],
      "stateMutability": "payable",
      "type": "function"
    },
    {
      "inputs": [
        {
          "internalType": "bytes32",
          "name": "bondhash",
          "type": "bytes32"
        }
      ],
      "name": "resolver",
      "outputs": [
        {
          "internalType": "address",
          "name": "",
          "type": "address"
        }
      ],
      "stateMutability": "view",
      "type": "function"
    },
    {
      "inputs": [],
      "name": "roothash",
      "outputs": [
        {
          "internalType": "bytes32",
          "name": "",
          "type": "bytes32"
        }
      ],
      "stateMutability": "view",
      "type": "function"
    },
    {
      "inputs": [
        {
          "internalType": "bytes32",
          "name": "bondhash",
          "type": "bytes32"
        },
        {
          "internalType": "bytes32",
          "name": "_alias",
          "type": "bytes32"
        }
      ],
      "name": "setAlias",
      "outputs": [],
      "stateMutability": "nonpayable",
      "type": "function"
    },
    {
      "inputs": [
        {
          "internalType": "bytes32",
          "name": "bondhash",
          "type": "bytes32"
        },
        {
          "internalType": "bytes32",
          "name": "_anion",
          "type": "bytes32"
        }
      ],
      "name": "setAnion",
      "outputs": [],
      "stateMutability": "nonpayable",
      "type": "function"
    },
    {
      "inputs": [
        {
          "internalType": "address",
          "name": "operator",
          "type": "address"
        },
        {
          "internalType": "bool",
          "name": "approved",
          "type": "bool"
        }
      ],
      "name": "setApprovalForAll",
      "outputs": [],
      "stateMutability": "nonpayable",
      "type": "function"
    },
    {
      "inputs": [
        {
          "internalType": "bytes32",
          "name": "bondhash",
          "type": "bytes32"
        },
        {
          "internalType": "bytes32",
          "name": "_cation",
          "type": "bytes32"
        }
      ],
      "name": "setCation",
      "outputs": [],
      "stateMutability": "nonpayable",
      "type": "function"
    },
    {
      "inputs": [
        {
          "internalType": "address",
          "name": "_helix2",
          "type": "address"
        },
        {
          "internalType": "address",
          "name": "_priceOracle",
          "type": "address"
        }
      ],
      "name": "setConfig",
      "outputs": [],
      "stateMutability": "nonpayable",
      "type": "function"
    },
    {
      "inputs": [
        {
          "internalType": "bytes32",
          "name": "bondhash",
          "type": "bytes32"
        },
        {
          "internalType": "address",
          "name": "_controller",
          "type": "address"
        }
      ],
      "name": "setController",
      "outputs": [],
      "stateMutability": "nonpayable",
      "type": "function"
    },
    {
      "inputs": [
        {
          "internalType": "bytes32",
          "name": "bondhash",
          "type": "bytes32"
        },
        {
          "internalType": "bool",
          "name": "_covalence",
          "type": "bool"
        }
      ],
      "name": "setCovalence",
      "outputs": [],
      "stateMutability": "nonpayable",
      "type": "function"
    },
    {
      "inputs": [
        {
          "internalType": "bytes32",
          "name": "bondhash",
          "type": "bytes32"
        },
        {
          "internalType": "uint256",
          "name": "_expiry",
          "type": "uint256"
        }
      ],
      "name": "setExpiry",
      "outputs": [],
      "stateMutability": "nonpayable",
      "type": "function"
    },
    {
      "inputs": [
        {
          "internalType": "bytes4",
          "name": "sig",
          "type": "bytes4"
        },
        {
          "internalType": "bool",
          "name": "value",
          "type": "bool"
        }
      ],
      "name": "setInterface",
      "outputs": [],
      "stateMutability": "payable",
      "type": "function"
    },
    {
      "inputs": [
        {
          "internalType": "bytes32",
          "name": "bondhash",
          "type": "bytes32"
        },
        {
          "internalType": "address",
          "name": "_resolver",
          "type": "address"
        }
      ],
      "name": "setRecord",
      "outputs": [],
      "stateMutability": "nonpayable",
      "type": "function"
    },
    {
      "inputs": [
        {
          "internalType": "bytes32",
          "name": "bondhash",
          "type": "bytes32"
        },
        {
          "internalType": "address",
          "name": "_resolver",
          "type": "address"
        }
      ],
      "name": "setResolver",
      "outputs": [],
      "stateMutability": "nonpayable",
      "type": "function"
    },
    {
      "inputs": [
        {
          "internalType": "bytes4",
          "name": "",
          "type": "bytes4"
        }
      ],
      "name": "supportsInterface",
      "outputs": [
        {
          "internalType": "bool",
          "name": "",
          "type": "bool"
        }
      ],
      "stateMutability": "view",
      "type": "function"
    },
    {
      "inputs": [],
      "name": "theEnd",
      "outputs": [
        {
          "internalType": "uint256",
          "name": "",
          "type": "uint256"
        }
      ],
      "stateMutability": "view",
      "type": "function"
    },
    {
      "inputs": [],
      "name": "toggleActive",
      "outputs": [],
      "stateMutability": "nonpayable",
      "type": "function"
    },
    {
      "inputs": [
        {
          "internalType": "address",
          "name": "newDev",
          "type": "address"
        }
      ],
      "name": "transferOwnership",
      "outputs": [],
      "stateMutability": "nonpayable",
      "type": "function"
    },
    {
      "inputs": [
        {
          "internalType": "bytes32",
          "name": "bondhash",
          "type": "bytes32"
        },
        {
          "internalType": "uint8",
          "name": "rule",
          "type": "uint8"
        }
      ],
      "name": "unhook",
      "outputs": [],
      "stateMutability": "nonpayable",
      "type": "function"
    },
    {
      "inputs": [
        {
          "internalType": "bytes32",
          "name": "bondhash",
          "type": "bytes32"
        }
      ],
      "name": "unhookAll",
      "outputs": [],
      "stateMutability": "nonpayable",
      "type": "function"
    },
    {
      "inputs": [],
      "name": "withdrawEther",
      "outputs": [],
      "stateMutability": "nonpayable",
      "type": "function"
    }
  ],
  "bytecode": {
    "object": "0x60806040526003805460ff60a01b1916600160a01b1790556703782dace9d900006008553480156200003057600080fd5b506040516200404c3803806200404c8339810160408190526200005391620007b0565b60038054336001600160a01b0319918216179091556000805482166001600160a01b03858116918217909255600180549093169186169190911790915560408051633215476b60e11b8152905163642a8ed6916004808201926080929091908290030181865afa158015620000cc573d6000803e3d6000fd5b505050506040513d601f19601f82011682018060405250810190620000f2919062000831565b60200151600555600280546001600160a01b0319166001600160a01b0383169081179091556040805163bd9a548b60e01b8152905163bd9a548b916004808201926080929091908290030181865afa15801562000153573d6000803e3d6000fd5b505050506040513d601f19601f8201168201806040525081019062000179919062000831565b602001516006556200018a620001fe565b50506004602052507f9fe05126d2d9ecf60592e254dead906a4b2e492f36cca727682c38e9008c6ac18054600160ff1991821681179092556307f5828d60e41b6000527fc82dc5f2518c2395ca0d51dc9b325ef0b4257094f40955b36ce2692f79e7f5af80549091169091179055620008d6565b7f6193e49d899b753da8c8433ce9056a624e41a66c4def64ed86198ab352ac661b80546001600160a01b031916905560408051602081810190925260008082528052600990915262000274907fec8156718a8372b1db44bb411437d0870f3e3790d4a08526d024ce1b0b668f6b906001620006cf565b50600080805260096020527fec8156718a8372b1db44bb411437d0870f3e3790d4a08526d024ce1b0b668f6d8190557fec8156718a8372b1db44bb411437d0870f3e3790d4a08526d024ce1b0b668f6e8190557fec8156718a8372b1db44bb411437d0870f3e3790d4a08526d024ce1b0b668f6f8190557fec8156718a8372b1db44bb411437d0870f3e3790d4a08526d024ce1b0b668f7180546008547fec8156718a8372b1db44bb411437d0870f3e3790d4a08526d024ce1b0b668f72556001600160a81b03191633908117600160a01b179091557fec8156718a8372b1db44bb411437d0870f3e3790d4a08526d024ce1b0b668f7080546001600160a01b0319169091179055805460408051633215476b60e11b815290516001600160a01b03929092169163642a8ed6916004818101926080929091908290030181865afa158015620003c7573d6000803e3d6000fd5b505050506040513d601f19601f82011682018060405250810190620003ed919062000831565b905060005b6004811015620006cb5760006009600084846004811062000417576200041762000898565b6020908102919091015182528181019290925260409081016000908120818052600101835281812080546001600160a01b0319166001600160a01b039590951694909417909355805191820190528181529060099084846004811062000481576200048162000898565b60200201518152602001908152602001600020600001906001620004a7929190620006cf565b50818160048110620004bd57620004bd62000898565b602002015160096000848460048110620004db57620004db62000898565b60200201518152602001908152602001600020600201819055508181600481106200050a576200050a62000898565b60200201516009600084846004811062000528576200052862000898565b602002015181526020019081526020016000206003018190555081816004811062000557576200055762000898565b60200201516009600084846004811062000575576200057562000898565b6020020151815260200190815260200160002060040181905550600160096000848460048110620005aa57620005aa62000898565b6020020151815260200190815260200160002060060160146101000a81548160ff02191690831515021790555060085460096000848460048110620005f357620005f362000898565b6020020151815260200190815260200160002060070181905550336009600084846004811062000627576200062762000898565b6020020151815260200190815260200160002060060160006101000a8154816001600160a01b0302191690836001600160a01b0316021790555033600960008484600481106200067b576200067b62000898565b6020020151815260200190815260200160002060050160006101000a8154816001600160a01b0302191690836001600160a01b031602179055508080620006c290620008ae565b915050620003f2565b5050565b82805482825590600052602060002090601f016020900481019282156200076a5791602002820160005b838211156200073957835183826101000a81548160ff021916908360ff1602179055509260200192600101602081600001049283019260010302620006f9565b8015620007685782816101000a81549060ff021916905560010160208160000104928301926001030262000739565b505b50620007789291506200077c565b5090565b5b808211156200077857600081556001016200077d565b80516001600160a01b0381168114620007ab57600080fd5b919050565b600080600060608486031215620007c657600080fd5b620007d18462000793565b9250620007e16020850162000793565b9150620007f16040850162000793565b90509250925092565b604051608081016001600160401b03811182821017156200082b57634e487b7160e01b600052604160045260246000fd5b60405290565b6000608082840312156200084457600080fd5b82601f8301126200085457600080fd5b6200085e620007fa565b8060808401858111156200087157600080fd5b845b818110156200088d57805184526020938401930162000873565b509095945050505050565b634e487b7160e01b600052603260045260246000fd5b600060018201620008cf57634e487b7160e01b600052601160045260246000fd5b5060010190565b61376680620008e66000396000f3fe6080604052600436106102e75760003560e01c8063849a799c11610184578063c7876ea4116100d6578063dbd4e0211161008a578063f61ccd5311610064578063f61ccd53146108d7578063f79fe538146108f7578063f8c912441461092957600080fd5b8063dbd4e02114610884578063f2fde38b146108a4578063f544d82f146108c457600080fd5b8063d2ec5fca116100bb578063d2ec5fca14610814578063d315690514610844578063d9b76ed41461086457600080fd5b8063c7876ea4146107de578063d07699aa146107f457600080fd5b8063b602024b11610138578063b9f37c8611610112578063b9f37c861461078b578063c0a43a7c146107ab578063c5bc4c0b146107be57600080fd5b8063b602024b1461072b578063b612e9b91461074b578063b782426e1461076b57600080fd5b8063a22cb46511610169578063a22cb465146106cb578063a3be52a2146106eb578063b06986281461070b57600080fd5b8063849a799c1461068d5780638da5cb5b146106ad57600080fd5b806322b68deb1161023d57806339de6469116101f15780637362377b116101cb5780637362377b146106385780638146970a1461064d578063836697261461066d57600080fd5b806339de64691461053a5780634d5055841461055a57806363a44e691461057a57600080fd5b806329c68dc11161022257806329c68dc1146104e55780632f926732146104fa578063340268591461051a57600080fd5b806322b68deb146104b9578063251c9422146104cf57600080fd5b80630aac66251161029f5780631eabcd34116102795780631eabcd34146104595780631f06e91c1461047957806321ec2b5b1461049957600080fd5b80630aac6625146103db5780630e68b116146104095780631896f70a1461043757600080fd5b806301ffc9a7116102d057806301ffc9a71461034957806302fb0c5e1461038957806305e84aa0146103bb57600080fd5b80630178b8bf146102ec57806301e51ae814610329575b600080fd5b3480156102f857600080fd5b5061030c610307366004613251565b61095c565b6040516001600160a01b0390911681526020015b60405180910390f35b34801561033557600080fd5b5060035461030c906001600160a01b031681565b34801561035557600080fd5b5061037961036436600461329f565b60046020526000908152604090205460ff1681565b6040519015158152602001610320565b34801561039557600080fd5b506003546103799074010000000000000000000000000000000000000000900460ff1681565b3480156103c757600080fd5b5060015461030c906001600160a01b031681565b3480156103e757600080fd5b506103fb6103f6366004613251565b6109d6565b6040516103209291906132c1565b34801561041557600080fd5b50610429610424366004613251565b610b94565b604051908152602001610320565b34801561044357600080fd5b5061045761045236600461335d565b610bfc565b005b34801561046557600080fd5b5060025461030c906001600160a01b031681565b34801561048557600080fd5b5061045761049436600461338d565b610dc2565b3480156104a557600080fd5b506104576104b4366004613251565b610e31565b3480156104c557600080fd5b5061042960085481565b3480156104db57600080fd5b5061042960055481565b3480156104f157600080fd5b5061045761111d565b34801561050657600080fd5b5061045761051536600461338d565b6111c4565b34801561052657600080fd5b50610379610535366004613251565b611336565b34801561054657600080fd5b5061045761055536600461338d565b6113b9565b34801561056657600080fd5b506103796105753660046133c0565b6114bb565b34801561058657600080fd5b506105f8610595366004613251565b6009602052600090815260409020600281015460038201546004830154600584015460068501546007909501549394929391926001600160a01b0391821692918116917401000000000000000000000000000000000000000090910460ff169087565b604080519788526020880196909652948601939093526001600160a01b039182166060860152166080840152151560a083015260c082015260e001610320565b34801561064457600080fd5b5061045761154f565b34801561065957600080fd5b5061045761066836600461338d565b6115f5565b34801561067957600080fd5b506104576106883660046133ec565b61185a565b34801561069957600080fd5b506104576106a83660046133ec565b611aea565b3480156106b957600080fd5b506003546001600160a01b031661030c565b3480156106d757600080fd5b506104576106e636600461343a565b611d74565b3480156106f757600080fd5b5061045761070636600461338d565b611dfe565b34801561071757600080fd5b5061037961072636600461335d565b611f89565b34801561073757600080fd5b50610457610746366004613466565b61202d565b34801561075757600080fd5b506104576107663660046133c0565b6122a3565b34801561077757600080fd5b5060005461030c906001600160a01b031681565b34801561079757600080fd5b5060075461030c906001600160a01b031681565b6104576107b9366004613494565b6125c4565b3480156107ca57600080fd5b506104296107d9366004613251565b6126f2565b3480156107ea57600080fd5b5061042960065481565b34801561080057600080fd5b5061045761080f3660046134b0565b61275a565b34801561082057600080fd5b5061042961082f366004613251565b60009081526009602052604090206007015490565b34801561085057600080fd5b5061045761085f36600461335d565b612927565b34801561087057600080fd5b5061045761087f36600461335d565b612ae2565b34801561089057600080fd5b5061030c61089f366004613251565b612c9d565b3480156108b057600080fd5b506104576108bf3660046134d3565b612d0e565b6104576108d236600461338d565b612ddc565b3480156108e357600080fd5b506104296108f2366004613251565b61307c565b34801561090357600080fd5b50610379610912366004613251565b600090815260096020526040902060070154421090565b34801561093557600080fd5b5061037961094436600461338d565b60009182526009602052604090912060030154141590565b600081815260096020526040812060070154829042106109b25760405162461bcd60e51b815260206004820152600c60248201526b1093d39117d156141254915160a21b60448201526064015b60405180910390fd5b6000838152600960205260409020600501546001600160a01b031691505b50919050565b600081815260096020526040902060070154606090819083904210610a2c5760405162461bcd60e51b815260206004820152600c60248201526b1093d39117d156141254915160a21b60448201526064016109a9565b60008481526009602090815260409182902080548351818402810184019094528084529091830182828015610a9e57602002820191906000526020600020906000905b825461010083900a900460ff16815260206001928301818104948501949093039092029101808411610a6f5790505b50505050509250825167ffffffffffffffff811115610abf57610abf6134f0565b604051908082528060200260200182016040528015610ae8578160200160208202803683370190505b50915060005b8351811015610b8d57600960008681526020019081526020016000206001016000858381518110610b2157610b2161351f565b602002602001015160ff1660ff16815260200190815260200160002060009054906101000a90046001600160a01b0316838281518110610b6357610b6361351f565b6001600160a01b039092166020928302919091019091015280610b858161357d565b915050610aee565b5050915091565b60008181526009602052604081206007015482904210610be55760405162461bcd60e51b815260206004820152600c60248201526b1093d39117d156141254915160a21b60448201526064016109a9565b505060009081526009602052604090206003015490565b6000828152600960205260408082206002015460015491516302571be360e01b815260048101829052859391926001600160a01b0316906302571be390602401602060405180830381865afa158015610c59573d6000803e3d6000fd5b505050506040513d601f19601f82011682018060405250810190610c7d91906135b5565b6007549091506001600160a01b0316331480610ca157506001600160a01b03811633145b80610ccf57506001600160a01b0381166000908152600a6020908152604080832033845290915290205460ff165b80610cf357506000838152600960205260409020600601546001600160a01b031633145b610d3f5760405162461bcd60e51b815260206004820152600e60248201527f4e4f545f415554484f524953454400000000000000000000000000000000000060448201526064016109a9565b60008581526009602090815260409182902060050180547fffffffffffffffffffffffff0000000000000000000000000000000000000000166001600160a01b038816908117909155915191825286917f335721b01866dc23fbee8b6b2c7b1e14d6f05c28cd35a2c934239f94095602a091015b60405180910390a25050505050565b6007546001600160a01b03163314610e1c5760405162461bcd60e51b815260206004820152600d60248201527f4e4f545f5245474953545241520000000000000000000000000000000000000060448201526064016109a9565b60009182526009602052604090912060040155565b6000818152600960205260408082206002015460015491516302571be360e01b815260048101829052849391926001600160a01b0316906302571be390602401602060405180830381865afa158015610e8e573d6000803e3d6000fd5b505050506040513d601f19601f82011682018060405250810190610eb291906135b5565b6007549091506001600160a01b0316331480610ed657506001600160a01b03811633145b80610f0457506001600160a01b0381166000908152600a6020908152604080832033845290915290205460ff165b80610f2857506000838152600960205260409020600601546001600160a01b031633145b610f745760405162461bcd60e51b815260206004820152600e60248201527f4e4f545f415554484f524953454400000000000000000000000000000000000060448201526064016109a9565b600084815260096020908152604080832080548251818502810185019093528083529192909190830182828015610fe857602002820191906000526020600020906000905b825461010083900a900460ff16815260206001928301818104948501949093039092029101808411610fb95790505b5050505050905060005b81518110156110d35760006009600088815260200190815260200160002060010160008484815181106110275761102761351f565b602002602001015160ff1660ff16815260200190815260200160002060006101000a8154816001600160a01b0302191690836001600160a01b03160217905550857fbf47c0c608c230f7dffbcf65f8cdc76f5f920e4750eea1dcd09138a7359226ac83838151811061109b5761109b61351f565b60200260200101516040516110b9919060ff91909116815260200190565b60405180910390a2806110cb8161357d565b915050610ff2565b5060008581526009602052604081206110eb91613218565b60405185907f6b91085369552b61ca16180a741663b69fb6b3b967f7271116521d84e2291dc590600090a25050505050565b6003546001600160a01b031633146111775760405162461bcd60e51b815260206004820152600760248201527f4e4f545f4445560000000000000000000000000000000000000000000000000060448201526064016109a9565b600380547fffffffffffffffffffffff00ffffffffffffffffffffffffffffffffffffffff8116740100000000000000000000000000000000000000009182900460ff1615909102179055565b6007546001600160a01b0316331461121e5760405162461bcd60e51b815260206004820152600d60248201527f4e4f545f5245474953545241520000000000000000000000000000000000000060448201526064016109a9565b6001546040516302571be360e01b8152600481018390526000916001600160a01b0316906302571be390602401602060405180830381865afa158015611268573d6000803e3d6000fd5b505050506040513d601f19601f8201168201806040525081019061128c91906135b5565b6001600160a01b0316036112e25760405162461bcd60e51b815260206004820152600b60248201527f43414e4e4f545f4255524e00000000000000000000000000000000000000000060448201526064016109a9565b600082815260096020526040908190206002018290555182907f4810581adf2c16a86a375dbb1ed89b0b0f7e64d48d24e1948b3dfe6581e4d7959061132a9084815260200190565b60405180910390a25050565b600081815260096020526040812060070154829042106113875760405162461bcd60e51b815260206004820152600c60248201526b1093d39117d156141254915160a21b60448201526064016109a9565b505060009081526009602052604090206006015474010000000000000000000000000000000000000000900460ff1690565b6007546001600160a01b031633146114135760405162461bcd60e51b815260206004820152600d60248201527f4e4f545f5245474953545241520000000000000000000000000000000000000060448201526064016109a9565b60008281526009602052604090206007015481116114735760405162461bcd60e51b815260206004820152600a60248201527f4241445f4558504952590000000000000000000000000000000000000000000060448201526064016109a9565b600082815260096020526040908190206007018290555182907fa620b72378ee464490805a96e25b53e5c0076f0ce2d28f9691ae255a595b3bf39061132a9084815260200190565b600082815260096020908152604080832080548251818502810185019093528083526115459383018282801561152e57602002820191906000526020600020906000905b825461010083900a900460ff168152602060019283018181049485019490930390920291018084116114ff5790505b50505050508360ff1661317390919063ffffffff16565b1590505b92915050565b6003546040516000916001600160a01b03169047908381818185875af1925050503d806000811461159c576040519150601f19603f3d011682016040523d82523d6000602084013e6115a1565b606091505b50509050806115f25760405162461bcd60e51b815260206004820152601360248201527f4554485f5452414e534645525f4641494c45440000000000000000000000000060448201526064016109a9565b50565b600082815260096020526040902060070154829042106116465760405162461bcd60e51b815260206004820152600c60248201526b1093d39117d156141254915160a21b60448201526064016109a9565b6000818152600960205260408082206002015460015491516302571be360e01b8152600481018290529092916001600160a01b0316906302571be390602401602060405180830381865afa1580156116a2573d6000803e3d6000fd5b505050506040513d601f19601f820116820180604052508101906116c691906135b5565b90506001600160a01b03811633148061170257506001600160a01b0381166000908152600a6020908152604080832033845290915290205460ff165b61174e5760405162461bcd60e51b815260206004820152600960248201527f4e4f545f4f574e4552000000000000000000000000000000000000000000000060448201526064016109a9565b6001546040516302571be360e01b8152600481018690526000916001600160a01b0316906302571be390602401602060405180830381865afa158015611798573d6000803e3d6000fd5b505050506040513d601f19601f820116820180604052508101906117bc91906135b5565b6001600160a01b0316036118125760405162461bcd60e51b815260206004820152600b60248201527f43414e4e4f545f4255524e00000000000000000000000000000000000000000060448201526064016109a9565b600085815260096020526040908190206002018590555185907f4810581adf2c16a86a375dbb1ed89b0b0f7e64d48d24e1948b3dfe6581e4d79590610db39087815260200190565b600083815260096020526040902060070154839042106118ab5760405162461bcd60e51b815260206004820152600c60248201526b1093d39117d156141254915160a21b60448201526064016109a9565b6000818152600960205260408082206002015460015491516302571be360e01b8152600481018290529092916001600160a01b0316906302571be390602401602060405180830381865afa158015611907573d6000803e3d6000fd5b505050506040513d601f19601f8201168201806040525081019061192b91906135b5565b90506001600160a01b03811633148061196757506001600160a01b0381166000908152600a6020908152604080832033845290915290205460ff165b8061198b57506000838152600960205260409020600601546001600160a01b031633145b6119d75760405162461bcd60e51b815260206004820152601760248201527f4e4f545f4f574e45525f4f525f434f4e54524f4c4c455200000000000000000060448201526064016109a9565b600086815260096020908152604080832060ff881684526001019091529020546001600160a01b03808716911603611a515760405162461bcd60e51b815260206004820152600b60248201527f52554c455f45584953545300000000000000000000000000000000000000000060448201526064016109a9565b600086815260096020908152604080832060ff8816808552600190910183529281902080547fffffffffffffffffffffffff0000000000000000000000000000000000000000166001600160a01b038a1690811790915581519081529182019290925287917fe43a78ddf6157361fe34d04905786138f88d3eda20b1f7dc0e2c619f9267310091015b60405180910390a2505050505050565b60008381526009602052604090206007015483904210611b3b5760405162461bcd60e51b815260206004820152600c60248201526b1093d39117d156141254915160a21b60448201526064016109a9565b6000818152600960205260408082206002015460015491516302571be360e01b8152600481018290529092916001600160a01b0316906302571be390602401602060405180830381865afa158015611b97573d6000803e3d6000fd5b505050506040513d601f19601f82011682018060405250810190611bbb91906135b5565b90506001600160a01b038116331480611bf757506001600160a01b0381166000908152600a6020908152604080832033845290915290205460ff165b80611c1b57506000838152600960205260409020600601546001600160a01b031633145b611c675760405162461bcd60e51b815260206004820152601760248201527f4e4f545f4f574e45525f4f525f434f4e54524f4c4c455200000000000000000060448201526064016109a9565b611c7186856114bb565b611cbd5760405162461bcd60e51b815260206004820152600b60248201527f484f4f4b5f45584953545300000000000000000000000000000000000000000060448201526064016109a9565b600086815260096020908152604080832080546001808201835582865284862085830401805460ff8c8116601f9095166101000a85810291021990911617905581865290910183529281902080546001600160a01b038a167fffffffffffffffffffffffff0000000000000000000000000000000000000000909116811790915581519081529182019290925287917fc733a2bc621cc97eef6ed4f708f126e72e6acb76c0a1c0461c9dd31f7b9870659101611ada565b336000818152600a602090815260408083206001600160a01b0387168085529083529281902080547fffffffffffffffffffffffffffffffffffffffffffffffffffffffffffffff001686151590811790915590519081529192917f17307eab39ab6107e8899845ad3d59bd9653f200f220920489ca2b5937696c31910160405180910390a35050565b6000828152600960205260408082206002015460015491516302571be360e01b815260048101829052859391926001600160a01b0316906302571be390602401602060405180830381865afa158015611e5b573d6000803e3d6000fd5b505050506040513d601f19601f82011682018060405250810190611e7f91906135b5565b6007549091506001600160a01b0316331480611ea357506001600160a01b03811633145b80611ed157506001600160a01b0381166000908152600a6020908152604080832033845290915290205460ff165b80611ef557506000838152600960205260409020600601546001600160a01b031633145b611f415760405162461bcd60e51b815260206004820152600e60248201527f4e4f545f415554484f524953454400000000000000000000000000000000000060448201526064016109a9565b600085815260096020526040908190206003018590555185907f600ffddd29393ca43c0a11fa6b0b7096631364178cb42f9d546c0a2cd22525ee90610db39087815260200190565b6001546040516302571be360e01b81526004810184905260009182916001600160a01b03909116906302571be390602401602060405180830381865afa158015611fd7573d6000803e3d6000fd5b505050506040513d601f19601f82011682018060405250810190611ffb91906135b5565b6001600160a01b039081166000908152600a602090815260408083209387168352929052205460ff1691505092915050565b6003546001600160a01b031633146120875760405162461bcd60e51b815260206004820152600760248201527f4e4f545f4445560000000000000000000000000000000000000000000000000060448201526064016109a9565b600080546001600160a01b038085167fffffffffffffffffffffffff000000000000000000000000000000000000000092831681179093556002805491851691909216179055604080517f642a8ed6000000000000000000000000000000000000000000000000000000008152905163642a8ed6916004808201926080929091908290030181865afa158015612121573d6000803e3d6000fd5b505050506040513d601f19601f820116820180604052508101906121459190613622565b60200151600555600254604080517fbd9a548b00000000000000000000000000000000000000000000000000000000815290516001600160a01b039092169163bd9a548b916004808201926080929091908290030181865afa1580156121af573d6000803e3d6000fd5b505050506040513d601f19601f820116820180604052508101906121d39190613622565b60200151600655600054604080517f4d3f733400000000000000000000000000000000000000000000000000000000815290516001600160a01b0390921691634d3f7334916004808201926080929091908290030181865afa15801561223d573d6000803e3d6000fd5b505050506040513d601f19601f820116820180604052508101906122619190613682565b60016020020151600780547fffffffffffffffffffffffff0000000000000000000000000000000000000000166001600160a01b039092169190911790555050565b600082815260096020526040902060070154829042106122f45760405162461bcd60e51b815260206004820152600c60248201526b1093d39117d156141254915160a21b60448201526064016109a9565b6000818152600960205260408082206002015460015491516302571be360e01b8152600481018290529092916001600160a01b0316906302571be390602401602060405180830381865afa158015612350573d6000803e3d6000fd5b505050506040513d601f19601f8201168201806040525081019061237491906135b5565b90506001600160a01b0381163314806123b057506001600160a01b0381166000908152600a6020908152604080832033845290915290205460ff165b806123d457506000838152600960205260409020600601546001600160a01b031633145b6124205760405162461bcd60e51b815260206004820152601760248201527f4e4f545f4f574e45525f4f525f434f4e54524f4c4c455200000000000000000060448201526064016109a9565b60008581526009602090815260408083208054825181850281018501909352808352919290919083018282801561249457602002820191906000526020600020906000905b825461010083900a900460ff168152602060019283018181049485019490930390920291018084116124655790505b505050505090506124b1818660ff1661317390919063ffffffff16565b1561258a5760006124c560ff8716836131cc565b600088815260096020908152604080832060ff8b16808552600190910183529281902080547fffffffffffffffffffffffff00000000000000000000000000000000000000001690555191825291925088917fbf47c0c608c230f7dffbcf65f8cdc76f5f920e4750eea1dcd09138a7359226ac910160405180910390a260008781526009602052604090208054829081106125625761256261351f565b90600052602060002090602091828204019190066101000a81549060ff0219169055506125bc565b6040517fe8dd1d3e00000000000000000000000000000000000000000000000000000000815260040160405180910390fd5b505050505050565b6003546001600160a01b0316331461261e5760405162461bcd60e51b815260206004820152600760248201527f4e4f545f4445560000000000000000000000000000000000000000000000000060448201526064016109a9565b7fffffffff0000000000000000000000000000000000000000000000000000000080831690036126905760405162461bcd60e51b815260206004820152601a60248201527f494e56414c49445f494e544552464143455f53454c4543544f5200000000000060448201526064016109a9565b7fffffffff0000000000000000000000000000000000000000000000000000000091909116600090815260046020526040902080547fffffffffffffffffffffffffffffffffffffffffffffffffffffffffffffff0016911515919091179055565b600081815260096020526040812060070154829042106127435760405162461bcd60e51b815260206004820152600c60248201526b1093d39117d156141254915160a21b60448201526064016109a9565b505060009081526009602052604090206004015490565b6000828152600960205260408082206002015460015491516302571be360e01b815260048101829052859391926001600160a01b0316906302571be390602401602060405180830381865afa1580156127b7573d6000803e3d6000fd5b505050506040513d601f19601f820116820180604052508101906127db91906135b5565b6007549091506001600160a01b03163314806127ff57506001600160a01b03811633145b8061282d57506001600160a01b0381166000908152600a6020908152604080832033845290915290205460ff165b8061285157506000838152600960205260409020600601546001600160a01b031633145b61289d5760405162461bcd60e51b815260206004820152600e60248201527f4e4f545f415554484f524953454400000000000000000000000000000000000060448201526064016109a9565b60008581526009602052604090819020600601805486151574010000000000000000000000000000000000000000027fffffffffffffffffffffff00ffffffffffffffffffffffffffffffffffffffff9091161790555185907fe6ccdb52b4954ab2c3e293f1dbfe593e6c5630962a1944bfcf20c5563eeb846290610db390871515815260200190565b6000828152600960205260408082206002015460015491516302571be360e01b815260048101829052859391926001600160a01b0316906302571be390602401602060405180830381865afa158015612984573d6000803e3d6000fd5b505050506040513d601f19601f820116820180604052508101906129a891906135b5565b6007549091506001600160a01b03163314806129cc57506001600160a01b03811633145b806129fa57506001600160a01b0381166000908152600a6020908152604080832033845290915290205460ff165b80612a1e57506000838152600960205260409020600601546001600160a01b031633145b612a6a5760405162461bcd60e51b815260206004820152600e60248201527f4e4f545f415554484f524953454400000000000000000000000000000000000060448201526064016109a9565b60008581526009602090815260409182902060060180547fffffffffffffffffffffffff0000000000000000000000000000000000000000166001600160a01b038816908117909155915191825286917fe5108446a6097aab57fd36f346a515a78fddefa87d81662d44e0d7a463f920959101610db3565b6000828152600960205260408082206002015460015491516302571be360e01b815260048101829052859391926001600160a01b0316906302571be390602401602060405180830381865afa158015612b3f573d6000803e3d6000fd5b505050506040513d601f19601f82011682018060405250810190612b6391906135b5565b6007549091506001600160a01b0316331480612b8757506001600160a01b03811633145b80612bb557506001600160a01b0381166000908152600a6020908152604080832033845290915290205460ff165b80612bd957506000838152600960205260409020600601546001600160a01b031633145b612c255760405162461bcd60e51b815260206004820152600e60248201527f4e4f545f415554484f524953454400000000000000000000000000000000000060448201526064016109a9565b60008581526009602090815260409182902060050180547fffffffffffffffffffffffff0000000000000000000000000000000000000000166001600160a01b038816908117909155915191825286917fcb71326aeaad88869e8be8be2893e1119f7617ce4ea2411af127e218909be1f79101610db3565b60008181526009602052604081206007015482904210612cee5760405162461bcd60e51b815260206004820152600c60248201526b1093d39117d156141254915160a21b60448201526064016109a9565b50506000908152600960205260409020600601546001600160a01b031690565b6003546001600160a01b03163314612d685760405162461bcd60e51b815260206004820152600760248201527f4e4f545f4445560000000000000000000000000000000000000000000000000060448201526064016109a9565b6003546040516001600160a01b038084169216907f8be0079c531659141344cd1fd0a4f28419497f9722a3daafe3b4186f6b6457e090600090a3600380547fffffffffffffffffffffffff0000000000000000000000000000000000000000166001600160a01b0392909216919091179055565b60008281526009602052604090206007015482904210612e2d5760405162461bcd60e51b815260206004820152600c60248201526b1093d39117d156141254915160a21b60448201526064016109a9565b6000818152600960205260408082206002015460015491516302571be360e01b8152600481018290529092916001600160a01b0316906302571be390602401602060405180830381865afa158015612e89573d6000803e3d6000fd5b505050506040513d601f19601f82011682018060405250810190612ead91906135b5565b90506001600160a01b038116331480612ee957506001600160a01b0381166000908152600a6020908152604080832033845290915290205460ff165b80612f0d57506000838152600960205260409020600601546001600160a01b031633145b612f595760405162461bcd60e51b815260206004820152601760248201527f4e4f545f4f574e45525f4f525f434f4e54524f4c4c455200000000000000000060448201526064016109a9565b6000858152600960205260409020600701548411612fb95760405162461bcd60e51b815260206004820152600a60248201527f4241445f4558504952590000000000000000000000000000000000000000000060448201526064016109a9565b600085815260096020526040812060070154612fd590866136e0565b905060065481612fe591906136f3565b3410156130345760405162461bcd60e51b815260206004820152601260248201527f494e53554646494349454e545f4554484552000000000000000000000000000060448201526064016109a9565b600086815260096020526040908190206007018690555186907fa620b72378ee464490805a96e25b53e5c0076f0ce2d28f9691ae255a595b3bf390611ada9088815260200190565b600081815260096020526040812060070154829042106130cd5760405162461bcd60e51b815260206004820152600c60248201526b1093d39117d156141254915160a21b60448201526064016109a9565b6000838152600960205260408082206002015460015491516302571be360e01b8152600481018290529092916001600160a01b0316906302571be390602401602060405180830381865afa158015613129573d6000803e3d6000fd5b505050506040513d601f19601f8201168201806040525081019061314d91906135b5565b9050306001600160a01b0382160361316b57600554935050506109d0565b509392505050565b6000805b82518110156131c2578360ff168382815181106131965761319661351f565b602002602001015160ff16036131b0576001915050611549565b806131ba8161357d565b915050613177565b5060009392505050565b6000805b82518110156131c2578360ff168382815181106131ef576131ef61351f565b602002602001015160ff1603613206579050611549565b806132108161357d565b9150506131d0565b50805460008255601f0160209004906000526020600020908101906115f291905b8082111561324d5760008155600101613239565b5090565b60006020828403121561326357600080fd5b5035919050565b80357fffffffff000000000000000000000000000000000000000000000000000000008116811461329a57600080fd5b919050565b6000602082840312156132b157600080fd5b6132ba8261326a565b9392505050565b604080825283519082018190526000906020906060840190828701845b828110156132fd57815160ff16845292840192908401906001016132de565b5050508381038285015284518082528583019183019060005b8181101561333b5783516001600160a01b031683529284019291840191600101613316565b5090979650505050505050565b6001600160a01b03811681146115f257600080fd5b6000806040838503121561337057600080fd5b82359150602083013561338281613348565b809150509250929050565b600080604083850312156133a057600080fd5b50508035926020909101359150565b803560ff8116811461329a57600080fd5b600080604083850312156133d357600080fd5b823591506133e3602084016133af565b90509250929050565b60008060006060848603121561340157600080fd5b83359250602084013561341381613348565b9150613421604085016133af565b90509250925092565b8035801515811461329a57600080fd5b6000806040838503121561344d57600080fd5b823561345881613348565b91506133e36020840161342a565b6000806040838503121561347957600080fd5b823561348481613348565b9150602083013561338281613348565b600080604083850312156134a757600080fd5b6134588361326a565b600080604083850312156134c357600080fd5b823591506133e36020840161342a565b6000602082840312156134e557600080fd5b81356132ba81613348565b7f4e487b7100000000000000000000000000000000000000000000000000000000600052604160045260246000fd5b7f4e487b7100000000000000000000000000000000000000000000000000000000600052603260045260246000fd5b7f4e487b7100000000000000000000000000000000000000000000000000000000600052601160045260246000fd5b60007fffffffffffffffffffffffffffffffffffffffffffffffffffffffffffffffff82036135ae576135ae61354e565b5060010190565b6000602082840312156135c757600080fd5b81516132ba81613348565b6040516080810167ffffffffffffffff8111828210171561361c577f4e487b7100000000000000000000000000000000000000000000000000000000600052604160045260246000fd5b60405290565b60006080828403121561363457600080fd5b82601f83011261364357600080fd5b61364b6135d2565b80608084018581111561365d57600080fd5b845b8181101561367757805184526020938401930161365f565b509095945050505050565b60006080828403121561369457600080fd5b82601f8301126136a357600080fd5b6136ab6135d2565b8060808401858111156136bd57600080fd5b845b818110156136775780516136d281613348565b8452602093840193016136bf565b818103818111156115495761154961354e565b6000817fffffffffffffffffffffffffffffffffffffffffffffffffffffffffffffffff048311821515161561372b5761372b61354e565b50029056fea264697066735822122009e0b97b297afc18e3fb7c3e317b323dc1044b55052749a8589cd5997c5e945d64736f6c63430008100033",
    "linkReferences": {}
  },
  "methodIdentifiers": {
    "Bonds(bytes32)": "63a44e69",
    "Dev()": "01e51ae8",
    "HELIX2()": "b782426e",
    "NAMES()": "05e84aa0",
    "PRICES()": "1eabcd34",
    "Registrar()": "b9f37c86",
    "active()": "02fb0c5e",
    "alias_(bytes32)": "c5bc4c0b",
    "anion(bytes32)": "0e68b116",
    "basePrice()": "c7876ea4",
    "cation(bytes32)": "f61ccd53",
    "controller(bytes32)": "dbd4e021",
    "covalence(bytes32)": "34026859",
    "expiry(bytes32)": "d2ec5fca",
    "hook(bytes32,address,uint8)": "849a799c",
    "hooksWithRules(bytes32)": "0aac6625",
    "isApprovedForAll(bytes32,address)": "b0698628",
    "isNotDuplicateAnion(bytes32,bytes32)": "f8c91244",
    "isNotDuplicateHook(bytes32,uint8)": "4d505584",
    "owner()": "8da5cb5b",
    "recordExists(bytes32)": "f79fe538",
    "register(bytes32,bytes32)": "2f926732",
    "rehook(bytes32,address,uint8)": "83669726",
    "renew(bytes32,uint256)": "f544d82f",
    "resolver(bytes32)": "0178b8bf",
    "roothash()": "251c9422",
    "setAlias(bytes32,bytes32)": "1f06e91c",
    "setAnion(bytes32,bytes32)": "a3be52a2",
    "setApprovalForAll(address,bool)": "a22cb465",
    "setCation(bytes32,bytes32)": "8146970a",
    "setConfig(address,address)": "b602024b",
    "setController(bytes32,address)": "d3156905",
    "setCovalence(bytes32,bool)": "d07699aa",
    "setExpiry(bytes32,uint256)": "39de6469",
    "setInterface(bytes4,bool)": "c0a43a7c",
    "setRecord(bytes32,address)": "d9b76ed4",
    "setResolver(bytes32,address)": "1896f70a",
    "supportsInterface(bytes4)": "01ffc9a7",
    "theEnd()": "22b68deb",
    "toggleActive()": "29c68dc1",
    "transferOwnership(address)": "f2fde38b",
    "unhook(bytes32,uint8)": "b612e9b9",
    "unhookAll(bytes32)": "21ec2b5b",
    "withdrawEther()": "7362377b"
  },
  "id": 18
}