{
  "abi": [
    {
      "inputs": [
        {
          "internalType": "address",
          "name": "_registry",
          "type": "address"
        },
        {
          "internalType": "address",
          "name": "_helix2",
          "type": "address"
        },
        {
          "internalType": "address",
          "name": "_priceOracle",
          "type": "address"
        }
      ],
      "stateMutability": "nonpayable",
      "type": "constructor"
    },
    {
      "inputs": [],
      "name": "BAD_HOOK",
      "type": "error"
    },
    {
      "anonymous": false,
      "inputs": [
        {
          "indexed": true,
          "internalType": "address",
          "name": "cation",
          "type": "address"
        },
        {
          "indexed": true,
          "internalType": "address",
          "name": "operator",
          "type": "address"
        },
        {
          "indexed": false,
          "internalType": "bool",
          "name": "approved",
          "type": "bool"
        }
      ],
      "name": "ApprovalForAll",
      "type": "event"
    },
    {
      "anonymous": false,
      "inputs": [
        {
          "indexed": true,
          "internalType": "bytes32",
          "name": "bondhash",
          "type": "bytes32"
        },
        {
          "indexed": false,
          "internalType": "address",
          "name": "config",
          "type": "address"
        },
        {
          "indexed": false,
          "internalType": "uint8",
          "name": "rule",
          "type": "uint8"
        }
      ],
      "name": "Hooked",
      "type": "event"
    },
    {
      "anonymous": false,
      "inputs": [
        {
          "indexed": true,
          "internalType": "bytes32",
          "name": "bondhash",
          "type": "bytes32"
        },
        {
          "indexed": false,
          "internalType": "bytes32",
          "name": "anion",
          "type": "bytes32"
        }
      ],
      "name": "NewAnion",
      "type": "event"
    },
    {
      "anonymous": false,
      "inputs": [
        {
          "indexed": true,
          "internalType": "bytes32",
          "name": "bondhash",
          "type": "bytes32"
        },
        {
          "indexed": false,
          "internalType": "bytes32",
          "name": "cation",
          "type": "bytes32"
        }
      ],
      "name": "NewCation",
      "type": "event"
    },
    {
      "anonymous": false,
      "inputs": [
        {
          "indexed": true,
          "internalType": "bytes32",
          "name": "bondhash",
          "type": "bytes32"
        },
        {
          "indexed": false,
          "internalType": "address",
          "name": "controller",
          "type": "address"
        }
      ],
      "name": "NewController",
      "type": "event"
    },
    {
      "anonymous": false,
      "inputs": [
        {
          "indexed": true,
          "internalType": "bytes32",
          "name": "bondhash",
          "type": "bytes32"
        },
        {
          "indexed": false,
          "internalType": "bool",
          "name": "covalence",
          "type": "bool"
        }
      ],
      "name": "NewCovalence",
      "type": "event"
    },
    {
      "anonymous": false,
      "inputs": [
        {
          "indexed": false,
          "internalType": "address",
          "name": "Dev",
          "type": "address"
        },
        {
          "indexed": false,
          "internalType": "address",
          "name": "newDev",
          "type": "address"
        }
      ],
      "name": "NewDev",
      "type": "event"
    },
    {
      "anonymous": false,
      "inputs": [
        {
          "indexed": true,
          "internalType": "bytes32",
          "name": "bondhash",
          "type": "bytes32"
        },
        {
          "indexed": false,
          "internalType": "uint256",
          "name": "expiry",
          "type": "uint256"
        }
      ],
      "name": "NewExpiry",
      "type": "event"
    },
    {
      "anonymous": false,
      "inputs": [
        {
          "indexed": true,
          "internalType": "bytes32",
          "name": "bondhash",
          "type": "bytes32"
        },
        {
          "indexed": false,
          "internalType": "address",
          "name": "resolver",
          "type": "address"
        }
      ],
      "name": "NewRecord",
      "type": "event"
    },
    {
      "anonymous": false,
      "inputs": [
        {
          "indexed": true,
          "internalType": "bytes32",
          "name": "bondhash",
          "type": "bytes32"
        },
        {
          "indexed": false,
          "internalType": "address",
          "name": "resolver",
          "type": "address"
        }
      ],
      "name": "NewResolver",
      "type": "event"
    },
    {
      "anonymous": false,
      "inputs": [
        {
          "indexed": true,
          "internalType": "bytes32",
          "name": "bondhash",
          "type": "bytes32"
        },
        {
          "indexed": false,
          "internalType": "address",
          "name": "config",
          "type": "address"
        },
        {
          "indexed": false,
          "internalType": "uint8",
          "name": "rule",
          "type": "uint8"
        }
      ],
      "name": "Rehooked",
      "type": "event"
    },
    {
      "anonymous": false,
      "inputs": [
        {
          "indexed": true,
          "internalType": "bytes32",
          "name": "bondhash",
          "type": "bytes32"
        },
        {
          "indexed": false,
          "internalType": "uint8",
          "name": "rule",
          "type": "uint8"
        }
      ],
      "name": "Unhooked",
      "type": "event"
    },
    {
      "anonymous": false,
      "inputs": [
        {
          "indexed": true,
          "internalType": "bytes32",
          "name": "bondhash",
          "type": "bytes32"
        }
      ],
      "name": "UnhookedAll",
      "type": "event"
    },
    {
      "inputs": [
        {
          "internalType": "bytes32",
          "name": "",
          "type": "bytes32"
        }
      ],
      "name": "Bonds",
      "outputs": [
        {
          "internalType": "bytes32",
          "name": "_cation",
          "type": "bytes32"
        },
        {
          "internalType": "bytes32",
          "name": "_anion",
          "type": "bytes32"
        },
        {
          "internalType": "bytes32",
          "name": "_alias",
          "type": "bytes32"
        },
        {
          "internalType": "address",
          "name": "_resolver",
          "type": "address"
        },
        {
          "internalType": "address",
          "name": "_controller",
          "type": "address"
        },
        {
          "internalType": "bool",
          "name": "_covalence",
          "type": "bool"
        },
        {
          "internalType": "uint256",
          "name": "_expiry",
          "type": "uint256"
        }
      ],
      "stateMutability": "view",
      "type": "function"
    },
    {
      "inputs": [],
      "name": "Dev",
      "outputs": [
        {
          "internalType": "address",
          "name": "",
          "type": "address"
        }
      ],
      "stateMutability": "view",
      "type": "function"
    },
    {
      "inputs": [],
      "name": "HELIX2",
      "outputs": [
        {
          "internalType": "contract iHELIX2",
          "name": "",
          "type": "address"
        }
      ],
      "stateMutability": "view",
      "type": "function"
    },
    {
      "inputs": [],
      "name": "NAMES",
      "outputs": [
        {
          "internalType": "contract iNAME",
          "name": "",
          "type": "address"
        }
      ],
      "stateMutability": "view",
      "type": "function"
    },
    {
      "inputs": [],
      "name": "PRICES",
      "outputs": [
        {
          "internalType": "contract iPriceOracle",
          "name": "",
          "type": "address"
        }
      ],
      "stateMutability": "view",
      "type": "function"
    },
    {
      "inputs": [],
      "name": "Registrar",
      "outputs": [
        {
          "internalType": "address",
          "name": "",
          "type": "address"
        }
      ],
      "stateMutability": "view",
      "type": "function"
    },
    {
      "inputs": [],
      "name": "active",
      "outputs": [
        {
          "internalType": "bool",
          "name": "",
          "type": "bool"
        }
      ],
      "stateMutability": "view",
      "type": "function"
    },
    {
      "inputs": [
        {
          "internalType": "bytes32",
          "name": "bondhash",
          "type": "bytes32"
        }
      ],
      "name": "alias_",
      "outputs": [
        {
          "internalType": "bytes32",
          "name": "",
          "type": "bytes32"
        }
      ],
      "stateMutability": "view",
      "type": "function"
    },
    {
      "inputs": [
        {
          "internalType": "bytes32",
          "name": "bondhash",
          "type": "bytes32"
        }
      ],
      "name": "anion",
      "outputs": [
        {
          "internalType": "bytes32",
          "name": "",
          "type": "bytes32"
        }
      ],
      "stateMutability": "view",
      "type": "function"
    },
    {
      "inputs": [],
      "name": "basePrice",
      "outputs": [
        {
          "internalType": "uint256",
          "name": "",
          "type": "uint256"
        }
      ],
      "stateMutability": "view",
      "type": "function"
    },
    {
      "inputs": [
        {
          "internalType": "bytes32",
          "name": "bondhash",
          "type": "bytes32"
        }
      ],
      "name": "cation",
      "outputs": [
        {
          "internalType": "bytes32",
          "name": "",
          "type": "bytes32"
        }
      ],
      "stateMutability": "view",
      "type": "function"
    },
    {
      "inputs": [
        {
          "internalType": "address",
          "name": "newDev",
          "type": "address"
        }
      ],
      "name": "changeDev",
      "outputs": [],
      "stateMutability": "nonpayable",
      "type": "function"
    },
    {
      "inputs": [
        {
          "internalType": "bytes32",
          "name": "bondhash",
          "type": "bytes32"
        }
      ],
      "name": "controller",
      "outputs": [
        {
          "internalType": "address",
          "name": "",
          "type": "address"
        }
      ],
      "stateMutability": "view",
      "type": "function"
    },
    {
      "inputs": [
        {
          "internalType": "bytes32",
          "name": "bondhash",
          "type": "bytes32"
        }
      ],
      "name": "covalence",
      "outputs": [
        {
          "internalType": "bool",
          "name": "",
          "type": "bool"
        }
      ],
      "stateMutability": "view",
      "type": "function"
    },
    {
      "inputs": [
        {
          "internalType": "bytes32",
          "name": "bondhash",
          "type": "bytes32"
        }
      ],
      "name": "expiry",
      "outputs": [
        {
          "internalType": "uint256",
          "name": "",
          "type": "uint256"
        }
      ],
      "stateMutability": "view",
      "type": "function"
    },
    {
      "inputs": [
        {
          "internalType": "bytes32",
          "name": "bondhash",
          "type": "bytes32"
        },
        {
          "internalType": "address",
          "name": "config",
          "type": "address"
        },
        {
          "internalType": "uint8",
          "name": "rule",
          "type": "uint8"
        }
      ],
      "name": "hook",
      "outputs": [],
      "stateMutability": "nonpayable",
      "type": "function"
    },
    {
      "inputs": [
        {
          "internalType": "bytes32",
          "name": "bondhash",
          "type": "bytes32"
        }
      ],
      "name": "hooksWithRules",
      "outputs": [
        {
          "internalType": "uint8[]",
          "name": "_rules",
          "type": "uint8[]"
        },
        {
          "internalType": "address[]",
          "name": "_hooks",
          "type": "address[]"
        }
      ],
      "stateMutability": "view",
      "type": "function"
    },
    {
      "inputs": [
        {
          "internalType": "bytes32",
          "name": "_cation",
          "type": "bytes32"
        },
        {
          "internalType": "address",
          "name": "operator",
          "type": "address"
        }
      ],
      "name": "isApprovedForAll",
      "outputs": [
        {
          "internalType": "bool",
          "name": "",
          "type": "bool"
        }
      ],
      "stateMutability": "view",
      "type": "function"
    },
    {
      "inputs": [
        {
          "internalType": "bytes32",
          "name": "bondhash",
          "type": "bytes32"
        },
        {
          "internalType": "bytes32",
          "name": "newAnion",
          "type": "bytes32"
        }
      ],
      "name": "isNotDuplicateAnion",
      "outputs": [
        {
          "internalType": "bool",
          "name": "",
          "type": "bool"
        }
      ],
      "stateMutability": "view",
      "type": "function"
    },
    {
      "inputs": [
        {
          "internalType": "bytes32",
          "name": "bondhash",
          "type": "bytes32"
        },
        {
          "internalType": "uint8",
          "name": "rule",
          "type": "uint8"
        }
      ],
      "name": "isNotDuplicateHook",
      "outputs": [
        {
          "internalType": "bool",
          "name": "",
          "type": "bool"
        }
      ],
      "stateMutability": "view",
      "type": "function"
    },
    {
      "inputs": [
        {
          "internalType": "bytes32",
          "name": "bondhash",
          "type": "bytes32"
        }
      ],
      "name": "recordExists",
      "outputs": [
        {
          "internalType": "bool",
          "name": "",
          "type": "bool"
        }
      ],
      "stateMutability": "view",
      "type": "function"
    },
    {
      "inputs": [
        {
          "internalType": "bytes32",
          "name": "bondhash",
          "type": "bytes32"
        },
        {
          "internalType": "bytes32",
          "name": "_cation",
          "type": "bytes32"
        }
      ],
      "name": "register",
      "outputs": [],
      "stateMutability": "nonpayable",
      "type": "function"
    },
    {
      "inputs": [
        {
          "internalType": "bytes32",
          "name": "bondhash",
          "type": "bytes32"
        },
        {
          "internalType": "address",
          "name": "config",
          "type": "address"
        },
        {
          "internalType": "uint8",
          "name": "rule",
          "type": "uint8"
        }
      ],
      "name": "rehook",
      "outputs": [],
      "stateMutability": "nonpayable",
      "type": "function"
    },
    {
      "inputs": [
        {
          "internalType": "bytes32",
          "name": "bondhash",
          "type": "bytes32"
        },
        {
          "internalType": "uint256",
          "name": "_expiry",
          "type": "uint256"
        }
      ],
      "name": "renew",
      "outputs": [],
      "stateMutability": "payable",
      "type": "function"
    },
    {
      "inputs": [
        {
          "internalType": "bytes32",
          "name": "bondhash",
          "type": "bytes32"
        }
      ],
      "name": "resolver",
      "outputs": [
        {
          "internalType": "address",
          "name": "",
          "type": "address"
        }
      ],
      "stateMutability": "view",
      "type": "function"
    },
    {
      "inputs": [],
      "name": "roothash",
      "outputs": [
        {
          "internalType": "bytes32",
          "name": "",
          "type": "bytes32"
        }
      ],
      "stateMutability": "view",
      "type": "function"
    },
    {
      "inputs": [
        {
          "internalType": "bytes32",
          "name": "bondhash",
          "type": "bytes32"
        },
        {
          "internalType": "bytes32",
          "name": "_alias",
          "type": "bytes32"
        }
      ],
      "name": "setAlias",
      "outputs": [],
      "stateMutability": "nonpayable",
      "type": "function"
    },
    {
      "inputs": [
        {
          "internalType": "bytes32",
          "name": "bondhash",
          "type": "bytes32"
        },
        {
          "internalType": "bytes32",
          "name": "_anion",
          "type": "bytes32"
        }
      ],
      "name": "setAnion",
      "outputs": [],
      "stateMutability": "nonpayable",
      "type": "function"
    },
    {
      "inputs": [
        {
          "internalType": "address",
          "name": "operator",
          "type": "address"
        },
        {
          "internalType": "bool",
          "name": "approved",
          "type": "bool"
        }
      ],
      "name": "setApprovalForAll",
      "outputs": [],
      "stateMutability": "nonpayable",
      "type": "function"
    },
    {
      "inputs": [
        {
          "internalType": "bytes32",
          "name": "bondhash",
          "type": "bytes32"
        },
        {
          "internalType": "bytes32",
          "name": "_cation",
          "type": "bytes32"
        }
      ],
      "name": "setCation",
      "outputs": [],
      "stateMutability": "nonpayable",
      "type": "function"
    },
    {
      "inputs": [
        {
          "internalType": "address",
          "name": "_helix2",
          "type": "address"
        },
        {
          "internalType": "address",
          "name": "_priceOracle",
          "type": "address"
        }
      ],
      "name": "setConfig",
      "outputs": [],
      "stateMutability": "nonpayable",
      "type": "function"
    },
    {
      "inputs": [
        {
          "internalType": "bytes32",
          "name": "bondhash",
          "type": "bytes32"
        },
        {
          "internalType": "address",
          "name": "_controller",
          "type": "address"
        }
      ],
      "name": "setController",
      "outputs": [],
      "stateMutability": "nonpayable",
      "type": "function"
    },
    {
      "inputs": [
        {
          "internalType": "bytes32",
          "name": "bondhash",
          "type": "bytes32"
        },
        {
          "internalType": "bool",
          "name": "_covalence",
          "type": "bool"
        }
      ],
      "name": "setCovalence",
      "outputs": [],
      "stateMutability": "nonpayable",
      "type": "function"
    },
    {
      "inputs": [
        {
          "internalType": "bytes32",
          "name": "bondhash",
          "type": "bytes32"
        },
        {
          "internalType": "uint256",
          "name": "_expiry",
          "type": "uint256"
        }
      ],
      "name": "setExpiry",
      "outputs": [],
      "stateMutability": "nonpayable",
      "type": "function"
    },
    {
      "inputs": [
        {
          "internalType": "bytes32",
          "name": "bondhash",
          "type": "bytes32"
        },
        {
          "internalType": "address",
          "name": "_resolver",
          "type": "address"
        }
      ],
      "name": "setRecord",
      "outputs": [],
      "stateMutability": "nonpayable",
      "type": "function"
    },
    {
      "inputs": [
        {
          "internalType": "bytes32",
          "name": "bondhash",
          "type": "bytes32"
        },
        {
          "internalType": "address",
          "name": "_resolver",
          "type": "address"
        }
      ],
      "name": "setResolver",
      "outputs": [],
      "stateMutability": "nonpayable",
      "type": "function"
    },
    {
      "inputs": [],
      "name": "theEnd",
      "outputs": [
        {
          "internalType": "uint256",
          "name": "",
          "type": "uint256"
        }
      ],
      "stateMutability": "view",
      "type": "function"
    },
    {
      "inputs": [],
      "name": "toggleActive",
      "outputs": [],
      "stateMutability": "nonpayable",
      "type": "function"
    },
    {
      "inputs": [
        {
          "internalType": "bytes32",
          "name": "bondhash",
          "type": "bytes32"
        },
        {
          "internalType": "uint8",
          "name": "rule",
          "type": "uint8"
        }
      ],
      "name": "unhook",
      "outputs": [],
      "stateMutability": "nonpayable",
      "type": "function"
    },
    {
      "inputs": [
        {
          "internalType": "bytes32",
          "name": "bondhash",
          "type": "bytes32"
        }
      ],
      "name": "unhookAll",
      "outputs": [],
      "stateMutability": "nonpayable",
      "type": "function"
    },
    {
      "inputs": [],
      "name": "withdrawEther",
      "outputs": [],
      "stateMutability": "nonpayable",
      "type": "function"
    }
  ],
  "bytecode": {
    "object": "0x60806040526003805460ff60a01b1916600160a01b1790556703782dace9d900006007553480156200003057600080fd5b5060405162003dd538038062003dd5833981016040819052620000539162000745565b60038054336001600160a01b0319918216179091556000805482166001600160a01b03858116918217909255600180549093169186169190911790915560408051633215476b60e11b8152905163642a8ed6916004808201926080929091908290030181865afa158015620000cc573d6000803e3d6000fd5b505050506040513d601f19601f82011682018060405250810190620000f29190620007c6565b602001516004908155600280546001600160a01b0319166001600160a01b0384169081179091556040805163bd9a548b60e01b81529051919263bd9a548b9282820192608092908290030181865afa15801562000153573d6000803e3d6000fd5b505050506040513d601f19601f82011682018060405250810190620001799190620007c6565b602001516005556200018a62000193565b5050506200086b565b7fe0f13b40287d4b83ba2a967e6b5baa79fd9f355757d595c15018be21fb9a246880546001600160a01b031916905560408051602081810190925260008082528052600890915262000209907f5eff886ea0ce6ca488a3d6e336d6c0f75f46d19b42c06ce5ee98e42c96d256c790600162000664565b50600080805260086020527f5eff886ea0ce6ca488a3d6e336d6c0f75f46d19b42c06ce5ee98e42c96d256c98190557f5eff886ea0ce6ca488a3d6e336d6c0f75f46d19b42c06ce5ee98e42c96d256ca8190557f5eff886ea0ce6ca488a3d6e336d6c0f75f46d19b42c06ce5ee98e42c96d256cb8190557f5eff886ea0ce6ca488a3d6e336d6c0f75f46d19b42c06ce5ee98e42c96d256cd80546007547f5eff886ea0ce6ca488a3d6e336d6c0f75f46d19b42c06ce5ee98e42c96d256ce556001600160a81b03191633908117600160a01b179091557f5eff886ea0ce6ca488a3d6e336d6c0f75f46d19b42c06ce5ee98e42c96d256cc80546001600160a01b0319169091179055805460408051633215476b60e11b815290516001600160a01b03929092169163642a8ed6916004818101926080929091908290030181865afa1580156200035c573d6000803e3d6000fd5b505050506040513d601f19601f82011682018060405250810190620003829190620007c6565b905060005b60048110156200066057600060086000848460048110620003ac57620003ac6200082d565b6020908102919091015182528181019290925260409081016000908120818052600101835281812080546001600160a01b0319166001600160a01b03959095169490941790935580519182019052818152906008908484600481106200041657620004166200082d565b602002015181526020019081526020016000206000019060016200043c92919062000664565b508181600481106200045257620004526200082d565b6020020151600860008484600481106200047057620004706200082d565b60200201518152602001908152602001600020600201819055508181600481106200049f576200049f6200082d565b602002015160086000848460048110620004bd57620004bd6200082d565b6020020151815260200190815260200160002060030181905550818160048110620004ec57620004ec6200082d565b6020020151600860008484600481106200050a576200050a6200082d565b60200201518152602001908152602001600020600401819055506001600860008484600481106200053f576200053f6200082d565b6020020151815260200190815260200160002060060160146101000a81548160ff021916908315150217905550600754600860008484600481106200058857620005886200082d565b60200201518152602001908152602001600020600701819055503360086000848460048110620005bc57620005bc6200082d565b6020020151815260200190815260200160002060060160006101000a8154816001600160a01b0302191690836001600160a01b0316021790555033600860008484600481106200061057620006106200082d565b6020020151815260200190815260200160002060050160006101000a8154816001600160a01b0302191690836001600160a01b031602179055508080620006579062000843565b91505062000387565b5050565b82805482825590600052602060002090601f01602090048101928215620006ff5791602002820160005b83821115620006ce57835183826101000a81548160ff021916908360ff16021790555092602001926001016020816000010492830192600103026200068e565b8015620006fd5782816101000a81549060ff0219169055600101602081600001049283019260010302620006ce565b505b506200070d92915062000711565b5090565b5b808211156200070d576000815560010162000712565b80516001600160a01b03811681146200074057600080fd5b919050565b6000806000606084860312156200075b57600080fd5b620007668462000728565b9250620007766020850162000728565b9150620007866040850162000728565b90509250925092565b604051608081016001600160401b0381118282101715620007c057634e487b7160e01b600052604160045260246000fd5b60405290565b600060808284031215620007d957600080fd5b82601f830112620007e957600080fd5b620007f36200078f565b8060808401858111156200080657600080fd5b845b818110156200082257805184526020938401930162000808565b509095945050505050565b634e487b7160e01b600052603260045260246000fd5b6000600182016200086457634e487b7160e01b600052601160045260246000fd5b5060010190565b61355a806200087b6000396000f3fe6080604052600436106102c65760003560e01c80638366972611610179578063c5bc4c0b116100d6578063d9b76ed41161008a578063f61ccd5311610064578063f61ccd5314610855578063f79fe53814610875578063f8c91244146108a757600080fd5b8063d9b76ed414610802578063dbd4e02114610822578063f544d82f1461084257600080fd5b8063d07699aa116100bb578063d07699aa14610792578063d2ec5fca146107b2578063d3156905146107e257600080fd5b8063c5bc4c0b1461075c578063c7876ea41461077c57600080fd5b8063b06986281161012d578063b612e9b911610112578063b612e9b9146106fc578063b782426e1461071c578063b9f37c861461073c57600080fd5b8063b0698628146106bc578063b602024b146106dc57600080fd5b806388a8c95c1161015e57806388a8c95c1461065c578063a22cb4651461067c578063a3be52a21461069c57600080fd5b8063836697261461061c578063849a799c1461063c57600080fd5b806322b68deb1161022757806339de6469116101db57806363a44e69116101c057806363a44e69146105295780637362377b146105e75780638146970a146105fc57600080fd5b806339de6469146104e95780634d5055841461050957600080fd5b806329c68dc11161020c57806329c68dc1146104945780632f926732146104a957806334026859146104c957600080fd5b806322b68deb14610468578063251c94221461047e57600080fd5b80630e68b1161161027e5780631eabcd34116102635780631eabcd34146104085780631f06e91c1461042857806321ec2b5b1461044857600080fd5b80630e68b116146103b85780631896f70a146103e657600080fd5b806302fb0c5e116102af57806302fb0c5e1461032857806305e84aa01461036a5780630aac66251461038a57600080fd5b80630178b8bf146102cb57806301e51ae814610308575b600080fd5b3480156102d757600080fd5b506102eb6102e63660046130ac565b6108da565b6040516001600160a01b0390911681526020015b60405180910390f35b34801561031457600080fd5b506003546102eb906001600160a01b031681565b34801561033457600080fd5b5060035461035a9074010000000000000000000000000000000000000000900460ff1681565b60405190151581526020016102ff565b34801561037657600080fd5b506001546102eb906001600160a01b031681565b34801561039657600080fd5b506103aa6103a53660046130ac565b610954565b6040516102ff9291906130c5565b3480156103c457600080fd5b506103d86103d33660046130ac565b610b12565b6040519081526020016102ff565b3480156103f257600080fd5b50610406610401366004613161565b610b7a565b005b34801561041457600080fd5b506002546102eb906001600160a01b031681565b34801561043457600080fd5b50610406610443366004613191565b610d40565b34801561045457600080fd5b506104066104633660046130ac565b610daf565b34801561047457600080fd5b506103d860075481565b34801561048a57600080fd5b506103d860045481565b3480156104a057600080fd5b5061040661109b565b3480156104b557600080fd5b506104066104c4366004613191565b611142565b3480156104d557600080fd5b5061035a6104e43660046130ac565b6112b4565b3480156104f557600080fd5b50610406610504366004613191565b611337565b34801561051557600080fd5b5061035a6105243660046131c9565b611439565b34801561053557600080fd5b506105a76105443660046130ac565b6008602052600090815260409020600281015460038201546004830154600584015460068501546007909501549394929391926001600160a01b0391821692918116917401000000000000000000000000000000000000000090910460ff169087565b604080519788526020880196909652948601939093526001600160a01b039182166060860152166080840152151560a083015260c082015260e0016102ff565b3480156105f357600080fd5b506104066114cd565b34801561060857600080fd5b50610406610617366004613191565b611573565b34801561062857600080fd5b506104066106373660046131f5565b6117d8565b34801561064857600080fd5b506104066106573660046131f5565b611a68565b34801561066857600080fd5b50610406610677366004613233565b611cf2565b34801561068857600080fd5b50610406610697366004613267565b611dcd565b3480156106a857600080fd5b506104066106b7366004613191565b611e57565b3480156106c857600080fd5b5061035a6106d7366004613161565b611fe2565b3480156106e857600080fd5b506104066106f7366004613293565b612086565b34801561070857600080fd5b506104066107173660046131c9565b6122fa565b34801561072857600080fd5b506000546102eb906001600160a01b031681565b34801561074857600080fd5b506006546102eb906001600160a01b031681565b34801561076857600080fd5b506103d86107773660046130ac565b61261b565b34801561078857600080fd5b506103d860055481565b34801561079e57600080fd5b506104066107ad3660046132c1565b612683565b3480156107be57600080fd5b506103d86107cd3660046130ac565b60009081526008602052604090206007015490565b3480156107ee57600080fd5b506104066107fd366004613161565b612850565b34801561080e57600080fd5b5061040661081d366004613161565b612a0b565b34801561082e57600080fd5b506102eb61083d3660046130ac565b612bc6565b610406610850366004613191565b612c37565b34801561086157600080fd5b506103d86108703660046130ac565b612ed7565b34801561088157600080fd5b5061035a6108903660046130ac565b600090815260086020526040902060070154421090565b3480156108b357600080fd5b5061035a6108c2366004613191565b60009182526008602052604090912060030154141590565b600081815260086020526040812060070154829042106109305760405162461bcd60e51b815260206004820152600c60248201526b1093d39117d156141254915160a21b60448201526064015b60405180910390fd5b6000838152600860205260409020600501546001600160a01b031691505b50919050565b6000818152600860205260409020600701546060908190839042106109aa5760405162461bcd60e51b815260206004820152600c60248201526b1093d39117d156141254915160a21b6044820152606401610927565b60008481526008602090815260409182902080548351818402810184019094528084529091830182828015610a1c57602002820191906000526020600020906000905b825461010083900a900460ff168152602060019283018181049485019490930390920291018084116109ed5790505b50505050509250825167ffffffffffffffff811115610a3d57610a3d6132e4565b604051908082528060200260200182016040528015610a66578160200160208202803683370190505b50915060005b8351811015610b0b57600860008681526020019081526020016000206001016000858381518110610a9f57610a9f613313565b602002602001015160ff1660ff16815260200190815260200160002060009054906101000a90046001600160a01b0316838281518110610ae157610ae1613313565b6001600160a01b039092166020928302919091019091015280610b0381613371565b915050610a6c565b5050915091565b60008181526008602052604081206007015482904210610b635760405162461bcd60e51b815260206004820152600c60248201526b1093d39117d156141254915160a21b6044820152606401610927565b505060009081526008602052604090206003015490565b6000828152600860205260408082206002015460015491516302571be360e01b815260048101829052859391926001600160a01b0316906302571be390602401602060405180830381865afa158015610bd7573d6000803e3d6000fd5b505050506040513d601f19601f82011682018060405250810190610bfb91906133a9565b6006549091506001600160a01b0316331480610c1f57506001600160a01b03811633145b80610c4d57506001600160a01b038116600090815260096020908152604080832033845290915290205460ff165b80610c7157506000838152600860205260409020600601546001600160a01b031633145b610cbd5760405162461bcd60e51b815260206004820152600e60248201527f4e4f545f415554484f52495345440000000000000000000000000000000000006044820152606401610927565b60008581526008602090815260409182902060050180547fffffffffffffffffffffffff0000000000000000000000000000000000000000166001600160a01b038816908117909155915191825286917f335721b01866dc23fbee8b6b2c7b1e14d6f05c28cd35a2c934239f94095602a091015b60405180910390a25050505050565b6006546001600160a01b03163314610d9a5760405162461bcd60e51b815260206004820152600d60248201527f4e4f545f524547495354524152000000000000000000000000000000000000006044820152606401610927565b60009182526008602052604090912060040155565b6000818152600860205260408082206002015460015491516302571be360e01b815260048101829052849391926001600160a01b0316906302571be390602401602060405180830381865afa158015610e0c573d6000803e3d6000fd5b505050506040513d601f19601f82011682018060405250810190610e3091906133a9565b6006549091506001600160a01b0316331480610e5457506001600160a01b03811633145b80610e8257506001600160a01b038116600090815260096020908152604080832033845290915290205460ff165b80610ea657506000838152600860205260409020600601546001600160a01b031633145b610ef25760405162461bcd60e51b815260206004820152600e60248201527f4e4f545f415554484f52495345440000000000000000000000000000000000006044820152606401610927565b600084815260086020908152604080832080548251818502810185019093528083529192909190830182828015610f6657602002820191906000526020600020906000905b825461010083900a900460ff16815260206001928301818104948501949093039092029101808411610f375790505b5050505050905060005b8151811015611051576000600860008881526020019081526020016000206001016000848481518110610fa557610fa5613313565b602002602001015160ff1660ff16815260200190815260200160002060006101000a8154816001600160a01b0302191690836001600160a01b03160217905550857fbf47c0c608c230f7dffbcf65f8cdc76f5f920e4750eea1dcd09138a7359226ac83838151811061101957611019613313565b6020026020010151604051611037919060ff91909116815260200190565b60405180910390a28061104981613371565b915050610f70565b50600085815260086020526040812061106991613073565b60405185907f6b91085369552b61ca16180a741663b69fb6b3b967f7271116521d84e2291dc590600090a25050505050565b6003546001600160a01b031633146110f55760405162461bcd60e51b815260206004820152600760248201527f4e4f545f444556000000000000000000000000000000000000000000000000006044820152606401610927565b600380547fffffffffffffffffffffff00ffffffffffffffffffffffffffffffffffffffff8116740100000000000000000000000000000000000000009182900460ff1615909102179055565b6006546001600160a01b0316331461119c5760405162461bcd60e51b815260206004820152600d60248201527f4e4f545f524547495354524152000000000000000000000000000000000000006044820152606401610927565b6001546040516302571be360e01b8152600481018390526000916001600160a01b0316906302571be390602401602060405180830381865afa1580156111e6573d6000803e3d6000fd5b505050506040513d601f19601f8201168201806040525081019061120a91906133a9565b6001600160a01b0316036112605760405162461bcd60e51b815260206004820152600b60248201527f43414e4e4f545f4255524e0000000000000000000000000000000000000000006044820152606401610927565b600082815260086020526040908190206002018290555182907f4810581adf2c16a86a375dbb1ed89b0b0f7e64d48d24e1948b3dfe6581e4d795906112a89084815260200190565b60405180910390a25050565b600081815260086020526040812060070154829042106113055760405162461bcd60e51b815260206004820152600c60248201526b1093d39117d156141254915160a21b6044820152606401610927565b505060009081526008602052604090206006015474010000000000000000000000000000000000000000900460ff1690565b6006546001600160a01b031633146113915760405162461bcd60e51b815260206004820152600d60248201527f4e4f545f524547495354524152000000000000000000000000000000000000006044820152606401610927565b60008281526008602052604090206007015481116113f15760405162461bcd60e51b815260206004820152600a60248201527f4241445f455850495259000000000000000000000000000000000000000000006044820152606401610927565b600082815260086020526040908190206007018290555182907fa620b72378ee464490805a96e25b53e5c0076f0ce2d28f9691ae255a595b3bf3906112a89084815260200190565b600082815260086020908152604080832080548251818502810185019093528083526114c3938301828280156114ac57602002820191906000526020600020906000905b825461010083900a900460ff1681526020600192830181810494850194909303909202910180841161147d5790505b50505050508360ff16612fce90919063ffffffff16565b1590505b92915050565b6003546040516000916001600160a01b03169047908381818185875af1925050503d806000811461151a576040519150601f19603f3d011682016040523d82523d6000602084013e61151f565b606091505b50509050806115705760405162461bcd60e51b815260206004820152601360248201527f4554485f5452414e534645525f4641494c4544000000000000000000000000006044820152606401610927565b50565b600082815260086020526040902060070154829042106115c45760405162461bcd60e51b815260206004820152600c60248201526b1093d39117d156141254915160a21b6044820152606401610927565b6000818152600860205260408082206002015460015491516302571be360e01b8152600481018290529092916001600160a01b0316906302571be390602401602060405180830381865afa158015611620573d6000803e3d6000fd5b505050506040513d601f19601f8201168201806040525081019061164491906133a9565b90506001600160a01b03811633148061168057506001600160a01b038116600090815260096020908152604080832033845290915290205460ff165b6116cc5760405162461bcd60e51b815260206004820152600960248201527f4e4f545f4f574e455200000000000000000000000000000000000000000000006044820152606401610927565b6001546040516302571be360e01b8152600481018690526000916001600160a01b0316906302571be390602401602060405180830381865afa158015611716573d6000803e3d6000fd5b505050506040513d601f19601f8201168201806040525081019061173a91906133a9565b6001600160a01b0316036117905760405162461bcd60e51b815260206004820152600b60248201527f43414e4e4f545f4255524e0000000000000000000000000000000000000000006044820152606401610927565b600085815260086020526040908190206002018590555185907f4810581adf2c16a86a375dbb1ed89b0b0f7e64d48d24e1948b3dfe6581e4d79590610d319087815260200190565b600083815260086020526040902060070154839042106118295760405162461bcd60e51b815260206004820152600c60248201526b1093d39117d156141254915160a21b6044820152606401610927565b6000818152600860205260408082206002015460015491516302571be360e01b8152600481018290529092916001600160a01b0316906302571be390602401602060405180830381865afa158015611885573d6000803e3d6000fd5b505050506040513d601f19601f820116820180604052508101906118a991906133a9565b90506001600160a01b0381163314806118e557506001600160a01b038116600090815260096020908152604080832033845290915290205460ff165b8061190957506000838152600860205260409020600601546001600160a01b031633145b6119555760405162461bcd60e51b815260206004820152601760248201527f4e4f545f4f574e45525f4f525f434f4e54524f4c4c45520000000000000000006044820152606401610927565b600086815260086020908152604080832060ff881684526001019091529020546001600160a01b038087169116036119cf5760405162461bcd60e51b815260206004820152600b60248201527f52554c455f4558495354530000000000000000000000000000000000000000006044820152606401610927565b600086815260086020908152604080832060ff8816808552600190910183529281902080547fffffffffffffffffffffffff0000000000000000000000000000000000000000166001600160a01b038a1690811790915581519081529182019290925287917fe43a78ddf6157361fe34d04905786138f88d3eda20b1f7dc0e2c619f9267310091015b60405180910390a2505050505050565b60008381526008602052604090206007015483904210611ab95760405162461bcd60e51b815260206004820152600c60248201526b1093d39117d156141254915160a21b6044820152606401610927565b6000818152600860205260408082206002015460015491516302571be360e01b8152600481018290529092916001600160a01b0316906302571be390602401602060405180830381865afa158015611b15573d6000803e3d6000fd5b505050506040513d601f19601f82011682018060405250810190611b3991906133a9565b90506001600160a01b038116331480611b7557506001600160a01b038116600090815260096020908152604080832033845290915290205460ff165b80611b9957506000838152600860205260409020600601546001600160a01b031633145b611be55760405162461bcd60e51b815260206004820152601760248201527f4e4f545f4f574e45525f4f525f434f4e54524f4c4c45520000000000000000006044820152606401610927565b611bef8685611439565b611c3b5760405162461bcd60e51b815260206004820152600b60248201527f484f4f4b5f4558495354530000000000000000000000000000000000000000006044820152606401610927565b600086815260086020908152604080832080546001808201835582865284862085830401805460ff8c8116601f9095166101000a85810291021990911617905581865290910183529281902080546001600160a01b038a167fffffffffffffffffffffffff0000000000000000000000000000000000000000909116811790915581519081529182019290925287917fc733a2bc621cc97eef6ed4f708f126e72e6acb76c0a1c0461c9dd31f7b9870659101611a58565b6003546001600160a01b03163314611d4c5760405162461bcd60e51b815260206004820152600760248201527f4e4f545f444556000000000000000000000000000000000000000000000000006044820152606401610927565b600354604080516001600160a01b03928316815291831660208301527fdec101f106d4fc7c85791843e64b198248c822298e3ed7046231d33f7783d816910160405180910390a1600380547fffffffffffffffffffffffff0000000000000000000000000000000000000000166001600160a01b0392909216919091179055565b3360008181526009602090815260408083206001600160a01b0387168085529083529281902080547fffffffffffffffffffffffffffffffffffffffffffffffffffffffffffffff001686151590811790915590519081529192917f17307eab39ab6107e8899845ad3d59bd9653f200f220920489ca2b5937696c31910160405180910390a35050565b6000828152600860205260408082206002015460015491516302571be360e01b815260048101829052859391926001600160a01b0316906302571be390602401602060405180830381865afa158015611eb4573d6000803e3d6000fd5b505050506040513d601f19601f82011682018060405250810190611ed891906133a9565b6006549091506001600160a01b0316331480611efc57506001600160a01b03811633145b80611f2a57506001600160a01b038116600090815260096020908152604080832033845290915290205460ff165b80611f4e57506000838152600860205260409020600601546001600160a01b031633145b611f9a5760405162461bcd60e51b815260206004820152600e60248201527f4e4f545f415554484f52495345440000000000000000000000000000000000006044820152606401610927565b600085815260086020526040908190206003018590555185907f600ffddd29393ca43c0a11fa6b0b7096631364178cb42f9d546c0a2cd22525ee90610d319087815260200190565b6001546040516302571be360e01b81526004810184905260009182916001600160a01b03909116906302571be390602401602060405180830381865afa158015612030573d6000803e3d6000fd5b505050506040513d601f19601f8201168201806040525081019061205491906133a9565b6001600160a01b0390811660009081526009602090815260408083209387168352929052205460ff1691505092915050565b6003546001600160a01b031633146120e05760405162461bcd60e51b815260206004820152600760248201527f4e4f545f444556000000000000000000000000000000000000000000000000006044820152606401610927565b600080546001600160a01b038085167fffffffffffffffffffffffff000000000000000000000000000000000000000092831681179093556002805491851691909216179055604080517f642a8ed6000000000000000000000000000000000000000000000000000000008152905163642a8ed6916004808201926080929091908290030181865afa15801561217a573d6000803e3d6000fd5b505050506040513d601f19601f8201168201806040525081019061219e9190613416565b602001516004908155600254604080517fbd9a548b00000000000000000000000000000000000000000000000000000000815290516001600160a01b039092169263bd9a548b9282820192608092908290030181865afa158015612206573d6000803e3d6000fd5b505050506040513d601f19601f8201168201806040525081019061222a9190613416565b60200151600555600054604080517f4d3f733400000000000000000000000000000000000000000000000000000000815290516001600160a01b0390921691634d3f7334916004808201926080929091908290030181865afa158015612294573d6000803e3d6000fd5b505050506040513d601f19601f820116820180604052508101906122b89190613476565b60016020020151600680547fffffffffffffffffffffffff0000000000000000000000000000000000000000166001600160a01b039092169190911790555050565b6000828152600860205260409020600701548290421061234b5760405162461bcd60e51b815260206004820152600c60248201526b1093d39117d156141254915160a21b6044820152606401610927565b6000818152600860205260408082206002015460015491516302571be360e01b8152600481018290529092916001600160a01b0316906302571be390602401602060405180830381865afa1580156123a7573d6000803e3d6000fd5b505050506040513d601f19601f820116820180604052508101906123cb91906133a9565b90506001600160a01b03811633148061240757506001600160a01b038116600090815260096020908152604080832033845290915290205460ff165b8061242b57506000838152600860205260409020600601546001600160a01b031633145b6124775760405162461bcd60e51b815260206004820152601760248201527f4e4f545f4f574e45525f4f525f434f4e54524f4c4c45520000000000000000006044820152606401610927565b6000858152600860209081526040808320805482518185028101850190935280835291929091908301828280156124eb57602002820191906000526020600020906000905b825461010083900a900460ff168152602060019283018181049485019490930390920291018084116124bc5790505b50505050509050612508818660ff16612fce90919063ffffffff16565b156125e157600061251c60ff871683613027565b600088815260086020908152604080832060ff8b16808552600190910183529281902080547fffffffffffffffffffffffff00000000000000000000000000000000000000001690555191825291925088917fbf47c0c608c230f7dffbcf65f8cdc76f5f920e4750eea1dcd09138a7359226ac910160405180910390a260008781526008602052604090208054829081106125b9576125b9613313565b90600052602060002090602091828204019190066101000a81549060ff021916905550612613565b6040517fe8dd1d3e00000000000000000000000000000000000000000000000000000000815260040160405180910390fd5b505050505050565b6000818152600860205260408120600701548290421061266c5760405162461bcd60e51b815260206004820152600c60248201526b1093d39117d156141254915160a21b6044820152606401610927565b505060009081526008602052604090206004015490565b6000828152600860205260408082206002015460015491516302571be360e01b815260048101829052859391926001600160a01b0316906302571be390602401602060405180830381865afa1580156126e0573d6000803e3d6000fd5b505050506040513d601f19601f8201168201806040525081019061270491906133a9565b6006549091506001600160a01b031633148061272857506001600160a01b03811633145b8061275657506001600160a01b038116600090815260096020908152604080832033845290915290205460ff165b8061277a57506000838152600860205260409020600601546001600160a01b031633145b6127c65760405162461bcd60e51b815260206004820152600e60248201527f4e4f545f415554484f52495345440000000000000000000000000000000000006044820152606401610927565b60008581526008602052604090819020600601805486151574010000000000000000000000000000000000000000027fffffffffffffffffffffff00ffffffffffffffffffffffffffffffffffffffff9091161790555185907fe6ccdb52b4954ab2c3e293f1dbfe593e6c5630962a1944bfcf20c5563eeb846290610d3190871515815260200190565b6000828152600860205260408082206002015460015491516302571be360e01b815260048101829052859391926001600160a01b0316906302571be390602401602060405180830381865afa1580156128ad573d6000803e3d6000fd5b505050506040513d601f19601f820116820180604052508101906128d191906133a9565b6006549091506001600160a01b03163314806128f557506001600160a01b03811633145b8061292357506001600160a01b038116600090815260096020908152604080832033845290915290205460ff165b8061294757506000838152600860205260409020600601546001600160a01b031633145b6129935760405162461bcd60e51b815260206004820152600e60248201527f4e4f545f415554484f52495345440000000000000000000000000000000000006044820152606401610927565b60008581526008602090815260409182902060060180547fffffffffffffffffffffffff0000000000000000000000000000000000000000166001600160a01b038816908117909155915191825286917fe5108446a6097aab57fd36f346a515a78fddefa87d81662d44e0d7a463f920959101610d31565b6000828152600860205260408082206002015460015491516302571be360e01b815260048101829052859391926001600160a01b0316906302571be390602401602060405180830381865afa158015612a68573d6000803e3d6000fd5b505050506040513d601f19601f82011682018060405250810190612a8c91906133a9565b6006549091506001600160a01b0316331480612ab057506001600160a01b03811633145b80612ade57506001600160a01b038116600090815260096020908152604080832033845290915290205460ff165b80612b0257506000838152600860205260409020600601546001600160a01b031633145b612b4e5760405162461bcd60e51b815260206004820152600e60248201527f4e4f545f415554484f52495345440000000000000000000000000000000000006044820152606401610927565b60008581526008602090815260409182902060050180547fffffffffffffffffffffffff0000000000000000000000000000000000000000166001600160a01b038816908117909155915191825286917fcb71326aeaad88869e8be8be2893e1119f7617ce4ea2411af127e218909be1f79101610d31565b60008181526008602052604081206007015482904210612c175760405162461bcd60e51b815260206004820152600c60248201526b1093d39117d156141254915160a21b6044820152606401610927565b50506000908152600860205260409020600601546001600160a01b031690565b60008281526008602052604090206007015482904210612c885760405162461bcd60e51b815260206004820152600c60248201526b1093d39117d156141254915160a21b6044820152606401610927565b6000818152600860205260408082206002015460015491516302571be360e01b8152600481018290529092916001600160a01b0316906302571be390602401602060405180830381865afa158015612ce4573d6000803e3d6000fd5b505050506040513d601f19601f82011682018060405250810190612d0891906133a9565b90506001600160a01b038116331480612d4457506001600160a01b038116600090815260096020908152604080832033845290915290205460ff165b80612d6857506000838152600860205260409020600601546001600160a01b031633145b612db45760405162461bcd60e51b815260206004820152601760248201527f4e4f545f4f574e45525f4f525f434f4e54524f4c4c45520000000000000000006044820152606401610927565b6000858152600860205260409020600701548411612e145760405162461bcd60e51b815260206004820152600a60248201527f4241445f455850495259000000000000000000000000000000000000000000006044820152606401610927565b600085815260086020526040812060070154612e3090866134d4565b905060055481612e4091906134e7565b341015612e8f5760405162461bcd60e51b815260206004820152601260248201527f494e53554646494349454e545f455448455200000000000000000000000000006044820152606401610927565b600086815260086020526040908190206007018690555186907fa620b72378ee464490805a96e25b53e5c0076f0ce2d28f9691ae255a595b3bf390611a589088815260200190565b60008181526008602052604081206007015482904210612f285760405162461bcd60e51b815260206004820152600c60248201526b1093d39117d156141254915160a21b6044820152606401610927565b6000838152600860205260408082206002015460015491516302571be360e01b8152600481018290529092916001600160a01b0316906302571be390602401602060405180830381865afa158015612f84573d6000803e3d6000fd5b505050506040513d601f19601f82011682018060405250810190612fa891906133a9565b9050306001600160a01b03821603612fc6576004549350505061094e565b509392505050565b6000805b825181101561301d578360ff16838281518110612ff157612ff1613313565b602002602001015160ff160361300b5760019150506114c7565b8061301581613371565b915050612fd2565b5060009392505050565b6000805b825181101561301d578360ff1683828151811061304a5761304a613313565b602002602001015160ff16036130615790506114c7565b8061306b81613371565b91505061302b565b50805460008255601f01602090049060005260206000209081019061157091905b808211156130a85760008155600101613094565b5090565b6000602082840312156130be57600080fd5b5035919050565b604080825283519082018190526000906020906060840190828701845b8281101561310157815160ff16845292840192908401906001016130e2565b5050508381038285015284518082528583019183019060005b8181101561313f5783516001600160a01b03168352928401929184019160010161311a565b5090979650505050505050565b6001600160a01b038116811461157057600080fd5b6000806040838503121561317457600080fd5b8235915060208301356131868161314c565b809150509250929050565b600080604083850312156131a457600080fd5b50508035926020909101359150565b803560ff811681146131c457600080fd5b919050565b600080604083850312156131dc57600080fd5b823591506131ec602084016131b3565b90509250929050565b60008060006060848603121561320a57600080fd5b83359250602084013561321c8161314c565b915061322a604085016131b3565b90509250925092565b60006020828403121561324557600080fd5b81356132508161314c565b9392505050565b803580151581146131c457600080fd5b6000806040838503121561327a57600080fd5b82356132858161314c565b91506131ec60208401613257565b600080604083850312156132a657600080fd5b82356132b18161314c565b915060208301356131868161314c565b600080604083850312156132d457600080fd5b823591506131ec60208401613257565b7f4e487b7100000000000000000000000000000000000000000000000000000000600052604160045260246000fd5b7f4e487b7100000000000000000000000000000000000000000000000000000000600052603260045260246000fd5b7f4e487b7100000000000000000000000000000000000000000000000000000000600052601160045260246000fd5b60007fffffffffffffffffffffffffffffffffffffffffffffffffffffffffffffffff82036133a2576133a2613342565b5060010190565b6000602082840312156133bb57600080fd5b81516132508161314c565b6040516080810167ffffffffffffffff81118282101715613410577f4e487b7100000000000000000000000000000000000000000000000000000000600052604160045260246000fd5b60405290565b60006080828403121561342857600080fd5b82601f83011261343757600080fd5b61343f6133c6565b80608084018581111561345157600080fd5b845b8181101561346b578051845260209384019301613453565b509095945050505050565b60006080828403121561348857600080fd5b82601f83011261349757600080fd5b61349f6133c6565b8060808401858111156134b157600080fd5b845b8181101561346b5780516134c68161314c565b8452602093840193016134b3565b818103818111156114c7576114c7613342565b6000817fffffffffffffffffffffffffffffffffffffffffffffffffffffffffffffffff048311821515161561351f5761351f613342565b50029056fea2646970667358221220bb306a75c2519dc92c4ec230c8a688d3bc761deac53256aed26544e5a5420d7964736f6c63430008100033",
    "linkReferences": {}
  },
  "methodIdentifiers": {
    "Bonds(bytes32)": "63a44e69",
    "Dev()": "01e51ae8",
    "HELIX2()": "b782426e",
    "NAMES()": "05e84aa0",
    "PRICES()": "1eabcd34",
    "Registrar()": "b9f37c86",
    "active()": "02fb0c5e",
    "alias_(bytes32)": "c5bc4c0b",
    "anion(bytes32)": "0e68b116",
    "basePrice()": "c7876ea4",
    "cation(bytes32)": "f61ccd53",
    "changeDev(address)": "88a8c95c",
    "controller(bytes32)": "dbd4e021",
    "covalence(bytes32)": "34026859",
    "expiry(bytes32)": "d2ec5fca",
    "hook(bytes32,address,uint8)": "849a799c",
    "hooksWithRules(bytes32)": "0aac6625",
    "isApprovedForAll(bytes32,address)": "b0698628",
    "isNotDuplicateAnion(bytes32,bytes32)": "f8c91244",
    "isNotDuplicateHook(bytes32,uint8)": "4d505584",
    "recordExists(bytes32)": "f79fe538",
    "register(bytes32,bytes32)": "2f926732",
    "rehook(bytes32,address,uint8)": "83669726",
    "renew(bytes32,uint256)": "f544d82f",
    "resolver(bytes32)": "0178b8bf",
    "roothash()": "251c9422",
    "setAlias(bytes32,bytes32)": "1f06e91c",
    "setAnion(bytes32,bytes32)": "a3be52a2",
    "setApprovalForAll(address,bool)": "a22cb465",
    "setCation(bytes32,bytes32)": "8146970a",
    "setConfig(address,address)": "b602024b",
    "setController(bytes32,address)": "d3156905",
    "setCovalence(bytes32,bool)": "d07699aa",
    "setExpiry(bytes32,uint256)": "39de6469",
    "setRecord(bytes32,address)": "d9b76ed4",
    "setResolver(bytes32,address)": "1896f70a",
    "theEnd()": "22b68deb",
    "toggleActive()": "29c68dc1",
    "unhook(bytes32,uint8)": "b612e9b9",
    "unhookAll(bytes32)": "21ec2b5b",
    "withdrawEther()": "7362377b"
  },
  "id": 18
}