{
  "abi": [
    {
      "inputs": [
        {
          "internalType": "address",
          "name": "_registry",
          "type": "address"
        },
        {
          "internalType": "address",
          "name": "_helix2",
          "type": "address"
        }
      ],
      "stateMutability": "nonpayable",
      "type": "constructor"
    },
    {
      "inputs": [],
      "name": "BAD_HOOK",
      "type": "error"
    },
    {
      "anonymous": false,
      "inputs": [
        {
          "indexed": true,
          "internalType": "address",
          "name": "cation",
          "type": "address"
        },
        {
          "indexed": true,
          "internalType": "address",
          "name": "operator",
          "type": "address"
        },
        {
          "indexed": false,
          "internalType": "bool",
          "name": "approved",
          "type": "bool"
        }
      ],
      "name": "ApprovalForAll",
      "type": "event"
    },
    {
      "anonymous": false,
      "inputs": [
        {
          "indexed": true,
          "internalType": "bytes32",
          "name": "bondhash",
          "type": "bytes32"
        },
        {
          "indexed": false,
          "internalType": "address",
          "name": "config",
          "type": "address"
        },
        {
          "indexed": false,
          "internalType": "uint8",
          "name": "rule",
          "type": "uint8"
        }
      ],
      "name": "Hooked",
      "type": "event"
    },
    {
      "anonymous": false,
      "inputs": [
        {
          "indexed": true,
          "internalType": "bytes32",
          "name": "bondhash",
          "type": "bytes32"
        },
        {
          "indexed": false,
          "internalType": "bytes32",
          "name": "_alias",
          "type": "bytes32"
        }
      ],
      "name": "NewAlias",
      "type": "event"
    },
    {
      "anonymous": false,
      "inputs": [
        {
          "indexed": true,
          "internalType": "bytes32",
          "name": "bondhash",
          "type": "bytes32"
        },
        {
          "indexed": false,
          "internalType": "bytes32",
          "name": "anion",
          "type": "bytes32"
        }
      ],
      "name": "NewAnion",
      "type": "event"
    },
    {
      "anonymous": false,
      "inputs": [
        {
          "indexed": true,
          "internalType": "bytes32",
          "name": "bondhash",
          "type": "bytes32"
        },
        {
          "indexed": false,
          "internalType": "bytes32",
          "name": "cation",
          "type": "bytes32"
        }
      ],
      "name": "NewBond",
      "type": "event"
    },
    {
      "anonymous": false,
      "inputs": [
        {
          "indexed": true,
          "internalType": "bytes32",
          "name": "bondhash",
          "type": "bytes32"
        },
        {
          "indexed": false,
          "internalType": "bytes32",
          "name": "cation",
          "type": "bytes32"
        }
      ],
      "name": "NewCation",
      "type": "event"
    },
    {
      "anonymous": false,
      "inputs": [
        {
          "indexed": true,
          "internalType": "bytes32",
          "name": "bondhash",
          "type": "bytes32"
        },
        {
          "indexed": false,
          "internalType": "address",
          "name": "controller",
          "type": "address"
        }
      ],
      "name": "NewController",
      "type": "event"
    },
    {
      "anonymous": false,
      "inputs": [
        {
          "indexed": true,
          "internalType": "bytes32",
          "name": "bondhash",
          "type": "bytes32"
        },
        {
          "indexed": false,
          "internalType": "bool",
          "name": "covalence",
          "type": "bool"
        }
      ],
      "name": "NewCovalence",
      "type": "event"
    },
    {
      "anonymous": false,
      "inputs": [
        {
          "indexed": false,
          "internalType": "address",
          "name": "Dev",
          "type": "address"
        },
        {
          "indexed": false,
          "internalType": "address",
          "name": "newDev",
          "type": "address"
        }
      ],
      "name": "NewDev",
      "type": "event"
    },
    {
      "anonymous": false,
      "inputs": [
        {
          "indexed": true,
          "internalType": "bytes32",
          "name": "bondhash",
          "type": "bytes32"
        },
        {
          "indexed": false,
          "internalType": "uint256",
          "name": "expiry",
          "type": "uint256"
        }
      ],
      "name": "NewExpiry",
      "type": "event"
    },
    {
      "anonymous": false,
      "inputs": [
        {
          "indexed": true,
          "internalType": "bytes32",
          "name": "bondhash",
          "type": "bytes32"
        },
        {
          "indexed": false,
          "internalType": "address",
          "name": "resolver",
          "type": "address"
        }
      ],
      "name": "NewRecord",
      "type": "event"
    },
    {
      "anonymous": false,
      "inputs": [
        {
          "indexed": true,
          "internalType": "bytes32",
          "name": "bondhash",
          "type": "bytes32"
        },
        {
          "indexed": false,
          "internalType": "bytes32",
          "name": "cation",
          "type": "bytes32"
        }
      ],
      "name": "NewRegistration",
      "type": "event"
    },
    {
      "anonymous": false,
      "inputs": [
        {
          "indexed": true,
          "internalType": "bytes32",
          "name": "bondhash",
          "type": "bytes32"
        },
        {
          "indexed": false,
          "internalType": "address",
          "name": "resolver",
          "type": "address"
        }
      ],
      "name": "NewResolver",
      "type": "event"
    },
    {
      "anonymous": false,
      "inputs": [
        {
          "indexed": true,
          "internalType": "bytes32",
          "name": "bondhash",
          "type": "bytes32"
        },
        {
          "indexed": false,
          "internalType": "address",
          "name": "config",
          "type": "address"
        },
        {
          "indexed": false,
          "internalType": "uint8",
          "name": "rule",
          "type": "uint8"
        }
      ],
      "name": "Rehooked",
      "type": "event"
    },
    {
      "anonymous": false,
      "inputs": [
        {
          "indexed": true,
          "internalType": "bytes32",
          "name": "bondhash",
          "type": "bytes32"
        },
        {
          "indexed": false,
          "internalType": "address",
          "name": "config",
          "type": "address"
        }
      ],
      "name": "Unhooked",
      "type": "event"
    },
    {
      "anonymous": false,
      "inputs": [
        {
          "indexed": true,
          "internalType": "bytes32",
          "name": "bondhash",
          "type": "bytes32"
        }
      ],
      "name": "UnhookedAll",
      "type": "event"
    },
    {
      "inputs": [
        {
          "internalType": "bytes32",
          "name": "",
          "type": "bytes32"
        }
      ],
      "name": "Bonds",
      "outputs": [
        {
          "internalType": "bytes32",
          "name": "_cation",
          "type": "bytes32"
        },
        {
          "internalType": "bytes32",
          "name": "_anion",
          "type": "bytes32"
        },
        {
          "internalType": "bytes32",
          "name": "_alias",
          "type": "bytes32"
        },
        {
          "internalType": "address",
          "name": "_resolver",
          "type": "address"
        },
        {
          "internalType": "address",
          "name": "_controller",
          "type": "address"
        },
        {
          "internalType": "bool",
          "name": "_covalence",
          "type": "bool"
        },
        {
          "internalType": "uint256",
          "name": "_expiry",
          "type": "uint256"
        }
      ],
      "stateMutability": "view",
      "type": "function"
    },
    {
      "inputs": [],
      "name": "Dev",
      "outputs": [
        {
          "internalType": "address",
          "name": "",
          "type": "address"
        }
      ],
      "stateMutability": "view",
      "type": "function"
    },
    {
      "inputs": [],
      "name": "HELIX2",
      "outputs": [
        {
          "internalType": "contract iHELIX2",
          "name": "",
          "type": "address"
        }
      ],
      "stateMutability": "view",
      "type": "function"
    },
    {
      "inputs": [],
      "name": "NAMES",
      "outputs": [
        {
          "internalType": "contract iNAME",
          "name": "",
          "type": "address"
        }
      ],
      "stateMutability": "view",
      "type": "function"
    },
    {
      "inputs": [],
      "name": "Registrar",
      "outputs": [
        {
          "internalType": "address",
          "name": "",
          "type": "address"
        }
      ],
      "stateMutability": "view",
      "type": "function"
    },
    {
      "inputs": [],
      "name": "active",
      "outputs": [
        {
          "internalType": "bool",
          "name": "",
          "type": "bool"
        }
      ],
      "stateMutability": "view",
      "type": "function"
    },
    {
      "inputs": [
        {
          "internalType": "bytes32",
          "name": "bondhash",
          "type": "bytes32"
        }
      ],
      "name": "alias_",
      "outputs": [
        {
          "internalType": "bytes32",
          "name": "",
          "type": "bytes32"
        }
      ],
      "stateMutability": "view",
      "type": "function"
    },
    {
      "inputs": [
        {
          "internalType": "bytes32",
          "name": "bondhash",
          "type": "bytes32"
        }
      ],
      "name": "anion",
      "outputs": [
        {
          "internalType": "bytes32",
          "name": "",
          "type": "bytes32"
        }
      ],
      "stateMutability": "view",
      "type": "function"
    },
    {
      "inputs": [],
      "name": "basePrice",
      "outputs": [
        {
          "internalType": "uint256",
          "name": "",
          "type": "uint256"
        }
      ],
      "stateMutability": "view",
      "type": "function"
    },
    {
      "inputs": [
        {
          "internalType": "bytes32",
          "name": "bondhash",
          "type": "bytes32"
        }
      ],
      "name": "cation",
      "outputs": [
        {
          "internalType": "bytes32",
          "name": "",
          "type": "bytes32"
        }
      ],
      "stateMutability": "view",
      "type": "function"
    },
    {
      "inputs": [
        {
          "internalType": "address",
          "name": "newDev",
          "type": "address"
        }
      ],
      "name": "changeDev",
      "outputs": [],
      "stateMutability": "nonpayable",
      "type": "function"
    },
    {
      "inputs": [
        {
          "internalType": "bytes32",
          "name": "bondhash",
          "type": "bytes32"
        }
      ],
      "name": "controller",
      "outputs": [
        {
          "internalType": "address",
          "name": "",
          "type": "address"
        }
      ],
      "stateMutability": "view",
      "type": "function"
    },
    {
      "inputs": [
        {
          "internalType": "bytes32",
          "name": "bondhash",
          "type": "bytes32"
        }
      ],
      "name": "covalence",
      "outputs": [
        {
          "internalType": "bool",
          "name": "",
          "type": "bool"
        }
      ],
      "stateMutability": "view",
      "type": "function"
    },
    {
      "inputs": [
        {
          "internalType": "bytes32",
          "name": "bondhash",
          "type": "bytes32"
        }
      ],
      "name": "expiry",
      "outputs": [
        {
          "internalType": "uint256",
          "name": "",
          "type": "uint256"
        }
      ],
      "stateMutability": "view",
      "type": "function"
    },
    {
      "inputs": [
        {
          "internalType": "bytes32",
          "name": "bondhash",
          "type": "bytes32"
        },
        {
          "internalType": "uint8",
          "name": "rule",
          "type": "uint8"
        },
        {
          "internalType": "address",
          "name": "config",
          "type": "address"
        }
      ],
      "name": "hook",
      "outputs": [],
      "stateMutability": "nonpayable",
      "type": "function"
    },
    {
      "inputs": [
        {
          "internalType": "bytes32",
          "name": "bondhash",
          "type": "bytes32"
        }
      ],
      "name": "hooksWithRules",
      "outputs": [
        {
          "internalType": "address[]",
          "name": "_hooks",
          "type": "address[]"
        },
        {
          "internalType": "uint8[]",
          "name": "_rules",
          "type": "uint8[]"
        }
      ],
      "stateMutability": "view",
      "type": "function"
    },
    {
      "inputs": [
        {
          "internalType": "bytes32",
          "name": "_cation",
          "type": "bytes32"
        },
        {
          "internalType": "address",
          "name": "operator",
          "type": "address"
        }
      ],
      "name": "isApprovedForAll",
      "outputs": [
        {
          "internalType": "bool",
          "name": "",
          "type": "bool"
        }
      ],
      "stateMutability": "view",
      "type": "function"
    },
    {
      "inputs": [
        {
          "internalType": "bytes32",
          "name": "bondhash",
          "type": "bytes32"
        },
        {
          "internalType": "bytes32",
          "name": "newAnion",
          "type": "bytes32"
        }
      ],
      "name": "isNotDuplicateAnion",
      "outputs": [
        {
          "internalType": "bool",
          "name": "",
          "type": "bool"
        }
      ],
      "stateMutability": "view",
      "type": "function"
    },
    {
      "inputs": [
        {
          "internalType": "bytes32",
          "name": "bondhash",
          "type": "bytes32"
        },
        {
          "internalType": "address",
          "name": "config",
          "type": "address"
        }
      ],
      "name": "isNotDuplicateHook",
      "outputs": [
        {
          "internalType": "bool",
          "name": "",
          "type": "bool"
        }
      ],
      "stateMutability": "view",
      "type": "function"
    },
    {
      "inputs": [
        {
          "internalType": "bytes32",
          "name": "bondhash",
          "type": "bytes32"
        }
      ],
      "name": "recordExists",
      "outputs": [
        {
          "internalType": "bool",
          "name": "",
          "type": "bool"
        }
      ],
      "stateMutability": "view",
      "type": "function"
    },
    {
      "inputs": [
        {
          "internalType": "bytes32",
          "name": "bondhash",
          "type": "bytes32"
        },
        {
          "internalType": "bytes32",
          "name": "_cation",
          "type": "bytes32"
        }
      ],
      "name": "register",
      "outputs": [],
      "stateMutability": "nonpayable",
      "type": "function"
    },
    {
      "inputs": [
        {
          "internalType": "bytes32",
          "name": "bondhash",
          "type": "bytes32"
        },
        {
          "internalType": "uint8",
          "name": "rule",
          "type": "uint8"
        },
        {
          "internalType": "address",
          "name": "config",
          "type": "address"
        }
      ],
      "name": "rehook",
      "outputs": [],
      "stateMutability": "nonpayable",
      "type": "function"
    },
    {
      "inputs": [
        {
          "internalType": "bytes32",
          "name": "bondhash",
          "type": "bytes32"
        },
        {
          "internalType": "uint256",
          "name": "_expiry",
          "type": "uint256"
        }
      ],
      "name": "renew",
      "outputs": [],
      "stateMutability": "payable",
      "type": "function"
    },
    {
      "inputs": [
        {
          "internalType": "bytes32",
          "name": "bondhash",
          "type": "bytes32"
        }
      ],
      "name": "resolver",
      "outputs": [
        {
          "internalType": "address",
          "name": "",
          "type": "address"
        }
      ],
      "stateMutability": "view",
      "type": "function"
    },
    {
      "inputs": [],
      "name": "roothash",
      "outputs": [
        {
          "internalType": "bytes32",
          "name": "",
          "type": "bytes32"
        }
      ],
      "stateMutability": "view",
      "type": "function"
    },
    {
      "inputs": [
        {
          "internalType": "bytes32",
          "name": "bondhash",
          "type": "bytes32"
        },
        {
          "internalType": "bytes32",
          "name": "_alias",
          "type": "bytes32"
        }
      ],
      "name": "setAlias",
      "outputs": [],
      "stateMutability": "nonpayable",
      "type": "function"
    },
    {
      "inputs": [
        {
          "internalType": "bytes32",
          "name": "bondhash",
          "type": "bytes32"
        },
        {
          "internalType": "bytes32",
          "name": "_anion",
          "type": "bytes32"
        }
      ],
      "name": "setAnion",
      "outputs": [],
      "stateMutability": "nonpayable",
      "type": "function"
    },
    {
      "inputs": [
        {
          "internalType": "address",
          "name": "operator",
          "type": "address"
        },
        {
          "internalType": "bool",
          "name": "approved",
          "type": "bool"
        }
      ],
      "name": "setApprovalForAll",
      "outputs": [],
      "stateMutability": "nonpayable",
      "type": "function"
    },
    {
      "inputs": [
        {
          "internalType": "bytes32",
          "name": "bondhash",
          "type": "bytes32"
        },
        {
          "internalType": "bytes32",
          "name": "_cation",
          "type": "bytes32"
        }
      ],
      "name": "setCation",
      "outputs": [],
      "stateMutability": "nonpayable",
      "type": "function"
    },
    {
      "inputs": [
        {
          "internalType": "bytes32",
          "name": "bondhash",
          "type": "bytes32"
        },
        {
          "internalType": "address",
          "name": "_controller",
          "type": "address"
        }
      ],
      "name": "setController",
      "outputs": [],
      "stateMutability": "nonpayable",
      "type": "function"
    },
    {
      "inputs": [
        {
          "internalType": "bytes32",
          "name": "bondhash",
          "type": "bytes32"
        },
        {
          "internalType": "bool",
          "name": "_covalence",
          "type": "bool"
        }
      ],
      "name": "setCovalence",
      "outputs": [],
      "stateMutability": "nonpayable",
      "type": "function"
    },
    {
      "inputs": [
        {
          "internalType": "bytes32",
          "name": "bondhash",
          "type": "bytes32"
        },
        {
          "internalType": "uint256",
          "name": "_expiry",
          "type": "uint256"
        }
      ],
      "name": "setExpiry",
      "outputs": [],
      "stateMutability": "nonpayable",
      "type": "function"
    },
    {
      "inputs": [
        {
          "internalType": "bytes32",
          "name": "bondhash",
          "type": "bytes32"
        },
        {
          "internalType": "address",
          "name": "_resolver",
          "type": "address"
        }
      ],
      "name": "setRecord",
      "outputs": [],
      "stateMutability": "nonpayable",
      "type": "function"
    },
    {
      "inputs": [
        {
          "internalType": "bytes32",
          "name": "bondhash",
          "type": "bytes32"
        },
        {
          "internalType": "address",
          "name": "_resolver",
          "type": "address"
        }
      ],
      "name": "setResolver",
      "outputs": [],
      "stateMutability": "nonpayable",
      "type": "function"
    },
    {
      "inputs": [],
      "name": "theEnd",
      "outputs": [
        {
          "internalType": "uint256",
          "name": "",
          "type": "uint256"
        }
      ],
      "stateMutability": "view",
      "type": "function"
    },
    {
      "inputs": [
        {
          "internalType": "bytes32",
          "name": "bondhash",
          "type": "bytes32"
        },
        {
          "internalType": "address",
          "name": "config",
          "type": "address"
        }
      ],
      "name": "unhook",
      "outputs": [],
      "stateMutability": "nonpayable",
      "type": "function"
    },
    {
      "inputs": [
        {
          "internalType": "bytes32",
          "name": "bondhash",
          "type": "bytes32"
        }
      ],
      "name": "unhookAll",
      "outputs": [],
      "stateMutability": "nonpayable",
      "type": "function"
    },
    {
      "inputs": [],
      "name": "withdrawEther",
      "outputs": [],
      "stateMutability": "nonpayable",
      "type": "function"
    }
  ],
  "bytecode": {
    "object": "0x60806040526002805460ff60a01b1916600160a01b1790556703782dace9d900006006553480156200003057600080fd5b5060405162004093380380620040938339810160408190526200005391620006e0565b60028054336001600160a01b0319918216179091556000805482166001600160a01b03848116918217909255600180549093169185169190911790915560408051633215476b60e11b8152905163642a8ed6916004808201926080929091908290030181865afa158015620000cc573d6000803e3d6000fd5b505050506040513d601f19601f82011682018060405250810190620000f291906200074f565b602001516003556000546040805163bd9a548b60e01b815290516001600160a01b039092169163bd9a548b916004808201926080929091908290030181865afa15801562000144573d6000803e3d6000fd5b505050506040513d601f19601f820116820180604052508101906200016a91906200074f565b602001516004556200017b62000183565b5050620007f4565b7fb4b4801cca1cad359bff6b5ea99d95160f00cbe1164fb7231c42c3e8b5f2593b805460ff19169055604080516020818101909252600080825280526007909152620001f3907f6d5257204ebe7d88fd91ae87941cb2dd9d8062b64ae5a2bd2d28ec40b9fbf6df90600162000642565b50600080805260076020527f6d5257204ebe7d88fd91ae87941cb2dd9d8062b64ae5a2bd2d28ec40b9fbf6e18190557f6d5257204ebe7d88fd91ae87941cb2dd9d8062b64ae5a2bd2d28ec40b9fbf6e28190557f6d5257204ebe7d88fd91ae87941cb2dd9d8062b64ae5a2bd2d28ec40b9fbf6e38190557f6d5257204ebe7d88fd91ae87941cb2dd9d8062b64ae5a2bd2d28ec40b9fbf6e580546006547f6d5257204ebe7d88fd91ae87941cb2dd9d8062b64ae5a2bd2d28ec40b9fbf6e6556001600160a81b03191633908117600160a01b179091557f6d5257204ebe7d88fd91ae87941cb2dd9d8062b64ae5a2bd2d28ec40b9fbf6e480546001600160a01b0319169091179055805460408051633215476b60e11b815290516001600160a01b03929092169163642a8ed6916004818101926080929091908290030181865afa15801562000346573d6000803e3d6000fd5b505050506040513d601f19601f820116820180604052508101906200036c91906200074f565b905060005b60048110156200063e57600060076000848460048110620003965762000396620007b6565b60209081029190910151825281810192909252604090810160009081208180526001018352818120805460ff191660ff95909516949094179093558051918201905281815290600790848460048110620003f457620003f4620007b6565b602002015181526020019081526020016000206000019060016200041a92919062000642565b50818160048110620004305762000430620007b6565b6020020151600760008484600481106200044e576200044e620007b6565b60200201518152602001908152602001600020600201819055508181600481106200047d576200047d620007b6565b6020020151600760008484600481106200049b576200049b620007b6565b6020020151815260200190815260200160002060030181905550818160048110620004ca57620004ca620007b6565b602002015160076000848460048110620004e857620004e8620007b6565b60200201518152602001908152602001600020600401819055506001600760008484600481106200051d576200051d620007b6565b6020020151815260200190815260200160002060060160146101000a81548160ff02191690831515021790555060065460076000848460048110620005665762000566620007b6565b602002015181526020019081526020016000206007018190555033600760008484600481106200059a576200059a620007b6565b6020020151815260200190815260200160002060060160006101000a8154816001600160a01b0302191690836001600160a01b031602179055503360076000848460048110620005ee57620005ee620007b6565b6020020151815260200190815260200160002060050160006101000a8154816001600160a01b0302191690836001600160a01b0316021790555080806200063590620007cc565b91505062000371565b5050565b8280548282559060005260206000209081019282156200069a579160200282015b828111156200069a57825182546001600160a01b0319166001600160a01b0390911617825560209092019160019091019062000663565b50620006a8929150620006ac565b5090565b5b80821115620006a85760008155600101620006ad565b80516001600160a01b0381168114620006db57600080fd5b919050565b60008060408385031215620006f457600080fd5b620006ff83620006c3565b91506200070f60208401620006c3565b90509250929050565b604051608081016001600160401b03811182821017156200074957634e487b7160e01b600052604160045260246000fd5b60405290565b6000608082840312156200076257600080fd5b82601f8301126200077257600080fd5b6200077c62000718565b8060808401858111156200078f57600080fd5b845b81811015620007ab57805184526020938401930162000791565b509095945050505050565b634e487b7160e01b600052603260045260246000fd5b600060018201620007ed57634e487b7160e01b600052601160045260246000fd5b5060010190565b61388f80620008046000396000f3fe6080604052600436106102855760003560e01c80637362377b11610153578063c7876ea4116100cb578063dbd4e0211161007f578063f61ccd5311610064578063f61ccd53146107c0578063f79fe538146107e0578063f8c912441461081357600080fd5b8063dbd4e0211461078d578063f544d82f146107ad57600080fd5b8063d2ec5fca116100b0578063d2ec5fca1461071c578063d31569051461074d578063d9b76ed41461076d57600080fd5b8063c7876ea4146106e6578063d07699aa146106fc57600080fd5b8063a3be52a211610122578063b782426e11610107578063b782426e14610686578063b9f37c86146106a6578063c5bc4c0b146106c657600080fd5b8063a3be52a214610646578063b06986281461066657600080fd5b80637362377b146105d15780638146970a146105e657806388a8c95c14610606578063a22cb4651461062657600080fd5b80631f06e91c116102015780632f926732116101b557806339de64691161019a57806339de6469146104d357806351a76442146104f357806363a44e691461051357600080fd5b80632f9267321461049357806334026859146104b357600080fd5b806322b68deb116101e657806322b68deb14610447578063241270d51461045d578063251c94221461047d57600080fd5b80631f06e91c1461040757806321ec2b5b1461042757600080fd5b8063049a491c116102585780630aac66251161023d5780630aac66251461038b5780630e68b116146103b95780631896f70a146103e757600080fd5b8063049a491c1461034b57806305e84aa01461036b57600080fd5b8063015399e61461028a5780630178b8bf146102ac57806301e51ae8146102e957806302fb0c5e14610309575b600080fd5b34801561029657600080fd5b506102aa6102a53660046133c9565b610846565b005b3480156102b857600080fd5b506102cc6102c7366004613411565b610abe565b6040516001600160a01b0390911681526020015b60405180910390f35b3480156102f557600080fd5b506002546102cc906001600160a01b031681565b34801561031557600080fd5b5060025461033b9074010000000000000000000000000000000000000000900460ff1681565b60405190151581526020016102e0565b34801561035757600080fd5b5061033b61036636600461342a565b610b33565b34801561037757600080fd5b506001546102cc906001600160a01b031681565b34801561039757600080fd5b506103ab6103a6366004613411565b610be5565b6040516102e092919061345a565b3480156103c557600080fd5b506103d96103d4366004613411565b610d91565b6040519081526020016102e0565b3480156103f357600080fd5b506102aa61040236600461342a565b610df9565b34801561041357600080fd5b506102aa6104223660046134e1565b611062565b34801561043357600080fd5b506102aa610442366004613411565b6111a8565b34801561045357600080fd5b506103d960065481565b34801561046957600080fd5b506102aa61047836600461342a565b611534565b34801561048957600080fd5b506103d960035481565b34801561049f57600080fd5b506102aa6104ae3660046134e1565b611945565b3480156104bf57600080fd5b5061033b6104ce366004613411565b611b7d565b3480156104df57600080fd5b506102aa6104ee3660046134e1565b611c00565b3480156104ff57600080fd5b506102aa61050e3660046133c9565b611d9b565b34801561051f57600080fd5b5061059161052e366004613411565b60076020819052600091825260409091206002810154600382015460048301546005840154600685015494909501549294919390926001600160a01b039283169282169174010000000000000000000000000000000000000000900460ff169087565b604080519788526020880196909652948601939093526001600160a01b039182166060860152166080840152151560a083015260c082015260e0016102e0565b3480156105dd57600080fd5b506102aa61200c565b3480156105f257600080fd5b506102aa6106013660046134e1565b6120b2565b34801561061257600080fd5b506102aa610621366004613503565b612318565b34801561063257600080fd5b506102aa610641366004613535565b6123e8565b34801561065257600080fd5b506102aa6106613660046134e1565b612454565b34801561067257600080fd5b5061033b61068136600461342a565b61268d565b34801561069257600080fd5b506000546102cc906001600160a01b031681565b3480156106b257600080fd5b506005546102cc906001600160a01b031681565b3480156106d257600080fd5b506103d96106e1366004613411565b612731565b3480156106f257600080fd5b506103d960045481565b34801561070857600080fd5b506102aa610717366004613563565b612799565b34801561072857600080fd5b506103d9610737366004613411565b6000908152600760208190526040909120015490565b34801561075957600080fd5b506102aa61076836600461342a565b612a14565b34801561077957600080fd5b506102aa61078836600461342a565b612c72565b34801561079957600080fd5b506102cc6107a8366004613411565b612ed0565b6102aa6107bb3660046134e1565b612f41565b3480156107cc57600080fd5b506103d96107db366004613411565b61328b565b3480156107ec57600080fd5b5061033b6107fb366004613411565b60009081526007602081905260409091200154421090565b34801561081f57600080fd5b5061033b61082e3660046134e1565b60009182526007602052604090912060030154141590565b600083815260076020819052604090912001548390421061089d5760405162461bcd60e51b815260206004820152600c60248201526b1093d39117d156141254915160a21b60448201526064015b60405180910390fd5b6000818152600760205260408082206002015460015491516302571be360e01b8152600481018290529092916001600160a01b0316906302571be390602401602060405180830381865afa1580156108f9573d6000803e3d6000fd5b505050506040513d601f19601f8201168201806040525081019061091d9190613598565b90506001600160a01b03811633148061095957506001600160a01b038116600090815260086020908152604080832033845290915290205460ff165b8061097d57506000838152600760205260409020600601546001600160a01b031633145b6109c95760405162461bcd60e51b815260206004820152601760248201527f4e4f545f4f574e45525f4f525f434f4e54524f4c4c45520000000000000000006044820152606401610894565b60008681526007602090815260408083206001600160a01b038816845260010190915290205460ff808716911603610a435760405162461bcd60e51b815260206004820152600b60248201527f52554c455f4558495354530000000000000000000000000000000000000000006044820152606401610894565b60008681526007602090815260408083206001600160a01b0388168085526001909101835292819020805460ff191660ff8a1690811790915581519384529183019190915287917fe43a78ddf6157361fe34d04905786138f88d3eda20b1f7dc0e2c619f9267310091015b60405180910390a2505050505050565b60008181526007602081905260408220015482904210610b0f5760405162461bcd60e51b815260206004820152600c60248201526b1093d39117d156141254915160a21b6044820152606401610894565b6000838152600760205260409020600501546001600160a01b031691505b50919050565b60008281526007602052604080822090517f2306f46600000000000000000000000000000000000000000000000000000000815273__$47e4ffaaf323c41735ff299f8946896ce0$__91632306f46691610b9a916001600160a01b038716916004016135b5565b602060405180830381865af4158015610bb7573d6000803e3d6000fd5b505050506040513d601f19601f82011682018060405250810190610bdb9190613615565b1590505b92915050565b6060808260076000828152602001908152602001600020600701544210610c3d5760405162461bcd60e51b815260206004820152600c60248201526b1093d39117d156141254915160a21b6044820152606401610894565b60008481526007602090815260409182902080548351818402810184019094528084529091830182828015610c9b57602002820191906000526020600020905b81546001600160a01b03168152600190910190602001808311610c7d575b50505050509250825167ffffffffffffffff811115610cbc57610cbc613632565b604051908082528060200260200182016040528015610ce5578160200160208202803683370190505b50915060005b8351811015610d8a57600760008681526020019081526020016000206001016000858381518110610d1e57610d1e613661565b60200260200101516001600160a01b03166001600160a01b0316815260200190815260200160002060009054906101000a900460ff16838281518110610d6657610d66613661565b60ff9092166020928302919091019091015280610d82816136bf565b915050610ceb565b5050915091565b60008181526007602081905260408220015482904210610de25760405162461bcd60e51b815260206004820152600c60248201526b1093d39117d156141254915160a21b6044820152606401610894565b505060009081526007602052604090206003015490565b600054604080517f4d3f7334000000000000000000000000000000000000000000000000000000008152905184926001600160a01b031691634d3f73349160048083019260809291908290030181865afa158015610e5b573d6000803e3d6000fd5b505050506040513d601f19601f82011682018060405250810190610e7f91906136f7565b6020908101516005805473ffffffffffffffffffffffffffffffffffffffff19166001600160a01b0392831617905560008381526007835260408082206002015460015482516302571be360e01b81526004810183905292519195939416926302571be392602480820193918290030181865afa158015610f04573d6000803e3d6000fd5b505050506040513d601f19601f82011682018060405250810190610f289190613598565b6005549091506001600160a01b0316331480610f4c57506001600160a01b03811633145b80610f7a57506001600160a01b038116600090815260086020908152604080832033845290915290205460ff165b80610f9e57506000838152600760205260409020600601546001600160a01b031633145b610fea5760405162461bcd60e51b815260206004820152600e60248201527f4e4f545f415554484f52495345440000000000000000000000000000000000006044820152606401610894565b600085815260076020908152604091829020600501805473ffffffffffffffffffffffffffffffffffffffff19166001600160a01b038816908117909155915191825286917f335721b01866dc23fbee8b6b2c7b1e14d6f05c28cd35a2c934239f94095602a091015b60405180910390a25050505050565b60008054906101000a90046001600160a01b03166001600160a01b0316634d3f73346040518163ffffffff1660e01b8152600401608060405180830381865afa1580156110b3573d6000803e3d6000fd5b505050506040513d601f19601f820116820180604052508101906110d791906136f7565b602001516005805473ffffffffffffffffffffffffffffffffffffffff19166001600160a01b03909216918217905533146111545760405162461bcd60e51b815260206004820152600d60248201527f4e4f545f524547495354524152000000000000000000000000000000000000006044820152606401610894565b600082815260076020526040908190206004018290555182907f4247841fd58468a6fb10925898bdd83c426da7b5519ee71597106dfdc67512299061119c9084815260200190565b60405180910390a25050565b600054604080517f4d3f7334000000000000000000000000000000000000000000000000000000008152905183926001600160a01b031691634d3f73349160048083019260809291908290030181865afa15801561120a573d6000803e3d6000fd5b505050506040513d601f19601f8201168201806040525081019061122e91906136f7565b6020908101516005805473ffffffffffffffffffffffffffffffffffffffff19166001600160a01b0392831617905560008381526007835260408082206002015460015482516302571be360e01b81526004810183905292519195939416926302571be392602480820193918290030181865afa1580156112b3573d6000803e3d6000fd5b505050506040513d601f19601f820116820180604052508101906112d79190613598565b6005549091506001600160a01b03163314806112fb57506001600160a01b03811633145b8061132957506001600160a01b038116600090815260086020908152604080832033845290915290205460ff165b8061134d57506000838152600760205260409020600601546001600160a01b031633145b6113995760405162461bcd60e51b815260206004820152600e60248201527f4e4f545f415554484f52495345440000000000000000000000000000000000006044820152606401610894565b6000848152600760209081526040808320805482518185028101850190935280835291929091908301828280156113f957602002820191906000526020600020905b81546001600160a01b031681526001909101906020018083116113db575b5050505050905060005b81518110156114ea57600060076000888152602001908152602001600020600101600084848151811061143857611438613661565b60200260200101516001600160a01b03166001600160a01b0316815260200190815260200160002060006101000a81548160ff021916908360ff160217905550857fc4c4b4793ac649a3a05ee26afdd6d54122cea2e3298a195a786ab7e899c21e348383815181106114ac576114ac613661565b60200260200101516040516114d091906001600160a01b0391909116815260200190565b60405180910390a2806114e2816136bf565b915050611403565b50600085815260076020526040812061150291613382565b60405185907f6b91085369552b61ca16180a741663b69fb6b3b967f7271116521d84e2291dc590600090a25050505050565b60008281526007602081905260409091200154829042106115865760405162461bcd60e51b815260206004820152600c60248201526b1093d39117d156141254915160a21b6044820152606401610894565b6000818152600760205260408082206002015460015491516302571be360e01b8152600481018290529092916001600160a01b0316906302571be390602401602060405180830381865afa1580156115e2573d6000803e3d6000fd5b505050506040513d601f19601f820116820180604052508101906116069190613598565b90506001600160a01b03811633148061164257506001600160a01b038116600090815260086020908152604080832033845290915290205460ff165b8061166657506000838152600760205260409020600601546001600160a01b031633145b6116b25760405162461bcd60e51b815260206004820152601760248201527f4e4f545f4f574e45525f4f525f434f4e54524f4c4c45520000000000000000006044820152606401610894565b60008581526007602090815260408083208054825181850281018501909352808352919290919083018282801561171257602002820191906000526020600020905b81546001600160a01b031681526001909101906020018083116116f4575b50506040517f2306f46600000000000000000000000000000000000000000000000000000000815293945073__$47e4ffaaf323c41735ff299f8946896ce0$__93632306f466935061177592506001600160a01b038a16915085906004016137a3565b602060405180830381865af4158015611792573d6000803e3d6000fd5b505050506040513d601f19601f820116820180604052508101906117b69190613615565b1561190b576040517fcd23ef4c00000000000000000000000000000000000000000000000000000000815260009073__$47e4ffaaf323c41735ff299f8946896ce0$__9063cd23ef4c90611819906001600160a01b038a169086906004016137a3565b602060405180830381865af4158015611836573d6000803e3d6000fd5b505050506040513d601f19601f8201168201806040525081019061185a91906137f0565b60008881526007602090815260408083206001600160a01b038b168085526001909101835292819020805460ff191690555191825291925088917fc4c4b4793ac649a3a05ee26afdd6d54122cea2e3298a195a786ab7e899c21e34910160405180910390a260008781526007602052604090208054829081106118df576118df613661565b6000918252602090912001805473ffffffffffffffffffffffffffffffffffffffff191690555061193d565b6040517fe8dd1d3e00000000000000000000000000000000000000000000000000000000815260040160405180910390fd5b505050505050565b60008054906101000a90046001600160a01b03166001600160a01b0316634d3f73346040518163ffffffff1660e01b8152600401608060405180830381865afa158015611996573d6000803e3d6000fd5b505050506040513d601f19601f820116820180604052508101906119ba91906136f7565b602001516005805473ffffffffffffffffffffffffffffffffffffffff19166001600160a01b0390921691821790553314611a375760405162461bcd60e51b815260206004820152600d60248201527f4e4f545f524547495354524152000000000000000000000000000000000000006044820152606401610894565b6001546040516302571be360e01b8152600481018390526000916001600160a01b0316906302571be390602401602060405180830381865afa158015611a81573d6000803e3d6000fd5b505050506040513d601f19601f82011682018060405250810190611aa59190613598565b6001600160a01b031603611afb5760405162461bcd60e51b815260206004820152600b60248201527f43414e4e4f545f4255524e0000000000000000000000000000000000000000006044820152606401610894565b600082815260076020526040908190206002018290555182907f4810581adf2c16a86a375dbb1ed89b0b0f7e64d48d24e1948b3dfe6581e4d79590611b439084815260200190565b60405180910390a2817facb5de0f65735f798ae8baf163fb3380a7813aca2c739ba9e39179007206585a8260405161119c91815260200190565b60008181526007602081905260408220015482904210611bce5760405162461bcd60e51b815260206004820152600c60248201526b1093d39117d156141254915160a21b6044820152606401610894565b505060009081526007602052604090206006015474010000000000000000000000000000000000000000900460ff1690565b60008054906101000a90046001600160a01b03166001600160a01b0316634d3f73346040518163ffffffff1660e01b8152600401608060405180830381865afa158015611c51573d6000803e3d6000fd5b505050506040513d601f19601f82011682018060405250810190611c7591906136f7565b602001516005805473ffffffffffffffffffffffffffffffffffffffff19166001600160a01b0390921691821790553314611cf25760405162461bcd60e51b815260206004820152600d60248201527f4e4f545f524547495354524152000000000000000000000000000000000000006044820152606401610894565b600082815260076020819052604090912001548111611d535760405162461bcd60e51b815260206004820152600a60248201527f4241445f455850495259000000000000000000000000000000000000000000006044820152606401610894565b600082815260076020819052604091829020018290555182907fa620b72378ee464490805a96e25b53e5c0076f0ce2d28f9691ae255a595b3bf39061119c9084815260200190565b6000838152600760208190526040909120015483904210611ded5760405162461bcd60e51b815260206004820152600c60248201526b1093d39117d156141254915160a21b6044820152606401610894565b6000818152600760205260408082206002015460015491516302571be360e01b8152600481018290529092916001600160a01b0316906302571be390602401602060405180830381865afa158015611e49573d6000803e3d6000fd5b505050506040513d601f19601f82011682018060405250810190611e6d9190613598565b90506001600160a01b038116331480611ea957506001600160a01b038116600090815260086020908152604080832033845290915290205460ff165b80611ecd57506000838152600760205260409020600601546001600160a01b031633145b611f195760405162461bcd60e51b815260206004820152601760248201527f4e4f545f4f574e45525f4f525f434f4e54524f4c4c45520000000000000000006044820152606401610894565b611f238685610b33565b611f6f5760405162461bcd60e51b815260206004820152600b60248201527f484f4f4b5f4558495354530000000000000000000000000000000000000000006044820152606401610894565b6000868152600760209081526040808320805460018082018355828652848620909101805473ffffffffffffffffffffffffffffffffffffffff19166001600160a01b038b169081179091558086529101835292819020805460ff191660ff8a1690811790915581519384529183019190915287917fc733a2bc621cc97eef6ed4f708f126e72e6acb76c0a1c0461c9dd31f7b9870659101610aae565b6002546040516000916001600160a01b03169047908381818185875af1925050503d8060008114612059576040519150601f19603f3d011682016040523d82523d6000602084013e61205e565b606091505b50509050806120af5760405162461bcd60e51b815260206004820152601360248201527f4554485f5452414e534645525f4641494c4544000000000000000000000000006044820152606401610894565b50565b60008281526007602081905260409091200154829042106121045760405162461bcd60e51b815260206004820152600c60248201526b1093d39117d156141254915160a21b6044820152606401610894565b6000818152600760205260408082206002015460015491516302571be360e01b8152600481018290529092916001600160a01b0316906302571be390602401602060405180830381865afa158015612160573d6000803e3d6000fd5b505050506040513d601f19601f820116820180604052508101906121849190613598565b90506001600160a01b0381163314806121c057506001600160a01b038116600090815260086020908152604080832033845290915290205460ff165b61220c5760405162461bcd60e51b815260206004820152600960248201527f4e4f545f4f574e455200000000000000000000000000000000000000000000006044820152606401610894565b6001546040516302571be360e01b8152600481018690526000916001600160a01b0316906302571be390602401602060405180830381865afa158015612256573d6000803e3d6000fd5b505050506040513d601f19601f8201168201806040525081019061227a9190613598565b6001600160a01b0316036122d05760405162461bcd60e51b815260206004820152600b60248201527f43414e4e4f545f4255524e0000000000000000000000000000000000000000006044820152606401610894565b600085815260076020526040908190206002018590555185907f4810581adf2c16a86a375dbb1ed89b0b0f7e64d48d24e1948b3dfe6581e4d795906110539087815260200190565b6002546001600160a01b031633146123725760405162461bcd60e51b815260206004820152600760248201527f4e4f545f444556000000000000000000000000000000000000000000000000006044820152606401610894565b600254604080516001600160a01b03928316815291831660208301527fdec101f106d4fc7c85791843e64b198248c822298e3ed7046231d33f7783d816910160405180910390a16002805473ffffffffffffffffffffffffffffffffffffffff19166001600160a01b0392909216919091179055565b3360008181526008602090815260408083206001600160a01b03871680855290835292819020805460ff191686151590811790915590519081529192917f17307eab39ab6107e8899845ad3d59bd9653f200f220920489ca2b5937696c31910160405180910390a35050565b600054604080517f4d3f7334000000000000000000000000000000000000000000000000000000008152905184926001600160a01b031691634d3f73349160048083019260809291908290030181865afa1580156124b6573d6000803e3d6000fd5b505050506040513d601f19601f820116820180604052508101906124da91906136f7565b6020908101516005805473ffffffffffffffffffffffffffffffffffffffff19166001600160a01b0392831617905560008381526007835260408082206002015460015482516302571be360e01b81526004810183905292519195939416926302571be392602480820193918290030181865afa15801561255f573d6000803e3d6000fd5b505050506040513d601f19601f820116820180604052508101906125839190613598565b6005549091506001600160a01b03163314806125a757506001600160a01b03811633145b806125d557506001600160a01b038116600090815260086020908152604080832033845290915290205460ff165b806125f957506000838152600760205260409020600601546001600160a01b031633145b6126455760405162461bcd60e51b815260206004820152600e60248201527f4e4f545f415554484f52495345440000000000000000000000000000000000006044820152606401610894565b600085815260076020526040908190206003018590555185907f600ffddd29393ca43c0a11fa6b0b7096631364178cb42f9d546c0a2cd22525ee906110539087815260200190565b6001546040516302571be360e01b81526004810184905260009182916001600160a01b03909116906302571be390602401602060405180830381865afa1580156126db573d6000803e3d6000fd5b505050506040513d601f19601f820116820180604052508101906126ff9190613598565b6001600160a01b0390811660009081526008602090815260408083209387168352929052205460ff1691505092915050565b600081815260076020819052604082200154829042106127825760405162461bcd60e51b815260206004820152600c60248201526b1093d39117d156141254915160a21b6044820152606401610894565b505060009081526007602052604090206004015490565b600054604080517f4d3f7334000000000000000000000000000000000000000000000000000000008152905184926001600160a01b031691634d3f73349160048083019260809291908290030181865afa1580156127fb573d6000803e3d6000fd5b505050506040513d601f19601f8201168201806040525081019061281f91906136f7565b6020908101516005805473ffffffffffffffffffffffffffffffffffffffff19166001600160a01b0392831617905560008381526007835260408082206002015460015482516302571be360e01b81526004810183905292519195939416926302571be392602480820193918290030181865afa1580156128a4573d6000803e3d6000fd5b505050506040513d601f19601f820116820180604052508101906128c89190613598565b6005549091506001600160a01b03163314806128ec57506001600160a01b03811633145b8061291a57506001600160a01b038116600090815260086020908152604080832033845290915290205460ff165b8061293e57506000838152600760205260409020600601546001600160a01b031633145b61298a5760405162461bcd60e51b815260206004820152600e60248201527f4e4f545f415554484f52495345440000000000000000000000000000000000006044820152606401610894565b60008581526007602052604090819020600601805486151574010000000000000000000000000000000000000000027fffffffffffffffffffffff00ffffffffffffffffffffffffffffffffffffffff9091161790555185907fe6ccdb52b4954ab2c3e293f1dbfe593e6c5630962a1944bfcf20c5563eeb84629061105390871515815260200190565b600054604080517f4d3f7334000000000000000000000000000000000000000000000000000000008152905184926001600160a01b031691634d3f73349160048083019260809291908290030181865afa158015612a76573d6000803e3d6000fd5b505050506040513d601f19601f82011682018060405250810190612a9a91906136f7565b6020908101516005805473ffffffffffffffffffffffffffffffffffffffff19166001600160a01b0392831617905560008381526007835260408082206002015460015482516302571be360e01b81526004810183905292519195939416926302571be392602480820193918290030181865afa158015612b1f573d6000803e3d6000fd5b505050506040513d601f19601f82011682018060405250810190612b439190613598565b6005549091506001600160a01b0316331480612b6757506001600160a01b03811633145b80612b9557506001600160a01b038116600090815260086020908152604080832033845290915290205460ff165b80612bb957506000838152600760205260409020600601546001600160a01b031633145b612c055760405162461bcd60e51b815260206004820152600e60248201527f4e4f545f415554484f52495345440000000000000000000000000000000000006044820152606401610894565b600085815260076020908152604091829020600601805473ffffffffffffffffffffffffffffffffffffffff19166001600160a01b038816908117909155915191825286917fe5108446a6097aab57fd36f346a515a78fddefa87d81662d44e0d7a463f920959101611053565b600054604080517f4d3f7334000000000000000000000000000000000000000000000000000000008152905184926001600160a01b031691634d3f73349160048083019260809291908290030181865afa158015612cd4573d6000803e3d6000fd5b505050506040513d601f19601f82011682018060405250810190612cf891906136f7565b6020908101516005805473ffffffffffffffffffffffffffffffffffffffff19166001600160a01b0392831617905560008381526007835260408082206002015460015482516302571be360e01b81526004810183905292519195939416926302571be392602480820193918290030181865afa158015612d7d573d6000803e3d6000fd5b505050506040513d601f19601f82011682018060405250810190612da19190613598565b6005549091506001600160a01b0316331480612dc557506001600160a01b03811633145b80612df357506001600160a01b038116600090815260086020908152604080832033845290915290205460ff165b80612e1757506000838152600760205260409020600601546001600160a01b031633145b612e635760405162461bcd60e51b815260206004820152600e60248201527f4e4f545f415554484f52495345440000000000000000000000000000000000006044820152606401610894565b600085815260076020908152604091829020600501805473ffffffffffffffffffffffffffffffffffffffff19166001600160a01b038816908117909155915191825286917fcb71326aeaad88869e8be8be2893e1119f7617ce4ea2411af127e218909be1f79101611053565b60008181526007602081905260408220015482904210612f215760405162461bcd60e51b815260206004820152600c60248201526b1093d39117d156141254915160a21b6044820152606401610894565b50506000908152600760205260409020600601546001600160a01b031690565b6000828152600760208190526040909120015482904210612f935760405162461bcd60e51b815260206004820152600c60248201526b1093d39117d156141254915160a21b6044820152606401610894565b6000818152600760205260408082206002015460015491516302571be360e01b8152600481018290529092916001600160a01b0316906302571be390602401602060405180830381865afa158015612fef573d6000803e3d6000fd5b505050506040513d601f19601f820116820180604052508101906130139190613598565b90506001600160a01b03811633148061304f57506001600160a01b038116600090815260086020908152604080832033845290915290205460ff165b8061307357506000838152600760205260409020600601546001600160a01b031633145b6130bf5760405162461bcd60e51b815260206004820152601760248201527f4e4f545f4f574e45525f4f525f434f4e54524f4c4c45520000000000000000006044820152606401610894565b6000858152600760208190526040909120015484116131205760405162461bcd60e51b815260206004820152600a60248201527f4241445f455850495259000000000000000000000000000000000000000000006044820152606401610894565b60008054906101000a90046001600160a01b03166001600160a01b0316634d3f73346040518163ffffffff1660e01b8152600401608060405180830381865afa158015613171573d6000803e3d6000fd5b505050506040513d601f19601f8201168201806040525081019061319591906136f7565b6020908101516005805473ffffffffffffffffffffffffffffffffffffffff19166001600160a01b03909216919091179055600086815260079182905260408120909101546131e49086613809565b9050600454816131f4919061381c565b3410156132435760405162461bcd60e51b815260206004820152601260248201527f494e53554646494349454e545f455448455200000000000000000000000000006044820152606401610894565b600086815260076020819052604091829020018690555186907fa620b72378ee464490805a96e25b53e5c0076f0ce2d28f9691ae255a595b3bf390610aae9088815260200190565b600081815260076020819052604082200154829042106132dc5760405162461bcd60e51b815260206004820152600c60248201526b1093d39117d156141254915160a21b6044820152606401610894565b6000838152600760205260408082206002015460015491516302571be360e01b8152600481018290529092916001600160a01b0316906302571be390602401602060405180830381865afa158015613338573d6000803e3d6000fd5b505050506040513d601f19601f8201168201806040525081019061335c9190613598565b9050306001600160a01b0382160361337a5760035493505050610b2d565b509392505050565b50805460008255906000526020600020908101906120af91905b808211156133b0576000815560010161339c565b5090565b6001600160a01b03811681146120af57600080fd5b6000806000606084860312156133de57600080fd5b83359250602084013560ff811681146133f657600080fd5b91506040840135613406816133b4565b809150509250925092565b60006020828403121561342357600080fd5b5035919050565b6000806040838503121561343d57600080fd5b82359150602083013561344f816133b4565b809150509250929050565b604080825283519082018190526000906020906060840190828701845b8281101561349c5781516001600160a01b031684529284019290840190600101613477565b5050508381038285015284518082528583019183019060005b818110156134d457835160ff16835292840192918401916001016134b5565b5090979650505050505050565b600080604083850312156134f457600080fd5b50508035926020909101359150565b60006020828403121561351557600080fd5b8135613520816133b4565b9392505050565b80151581146120af57600080fd5b6000806040838503121561354857600080fd5b8235613553816133b4565b9150602083013561344f81613527565b6000806040838503121561357657600080fd5b82359150602083013561344f81613527565b8051613593816133b4565b919050565b6000602082840312156135aa57600080fd5b8151613520816133b4565b6000604082016001600160a01b03808616845260206040818601528286548085526060870191508760005282600020945060005b818110156136075785548516835260019586019592840192016135e9565b509098975050505050505050565b60006020828403121561362757600080fd5b815161352081613527565b7f4e487b7100000000000000000000000000000000000000000000000000000000600052604160045260246000fd5b7f4e487b7100000000000000000000000000000000000000000000000000000000600052603260045260246000fd5b7f4e487b7100000000000000000000000000000000000000000000000000000000600052601160045260246000fd5b60007fffffffffffffffffffffffffffffffffffffffffffffffffffffffffffffffff82036136f0576136f0613690565b5060010190565b60006080828403121561370957600080fd5b82601f83011261371857600080fd5b6040516080810181811067ffffffffffffffff82111715613762577f4e487b7100000000000000000000000000000000000000000000000000000000600052604160045260246000fd5b60405280608084018581111561377757600080fd5b845b818110156137985761378a81613588565b835260209283019201613779565b509195945050505050565b6000604082016001600160a01b0380861684526020604081860152828651808552606087019150828801945060005b818110156136075785518516835294830194918301916001016137d2565b60006020828403121561380257600080fd5b5051919050565b81810381811115610bdf57610bdf613690565b6000817fffffffffffffffffffffffffffffffffffffffffffffffffffffffffffffffff048311821515161561385457613854613690565b50029056fea2646970667358221220378118bc80e0ec51f16af912e442c8f67d39314bf28c2f6b564fa6043b995efa64736f6c63430008100033",
    "linkReferences": {
      "src/Utils/LibString.sol": {
        "LibString": [
          {
            "start": 4973,
            "length": 20
          },
          {
            "start": 8003,
            "length": 20
          },
          {
            "start": 8170,
            "length": 20
          }
        ]
      }
    }
  },
  "methodIdentifiers": {
    "Bonds(bytes32)": "63a44e69",
    "Dev()": "01e51ae8",
    "HELIX2()": "b782426e",
    "NAMES()": "05e84aa0",
    "Registrar()": "b9f37c86",
    "active()": "02fb0c5e",
    "alias_(bytes32)": "c5bc4c0b",
    "anion(bytes32)": "0e68b116",
    "basePrice()": "c7876ea4",
    "cation(bytes32)": "f61ccd53",
    "changeDev(address)": "88a8c95c",
    "controller(bytes32)": "dbd4e021",
    "covalence(bytes32)": "34026859",
    "expiry(bytes32)": "d2ec5fca",
    "hook(bytes32,uint8,address)": "51a76442",
    "hooksWithRules(bytes32)": "0aac6625",
    "isApprovedForAll(bytes32,address)": "b0698628",
    "isNotDuplicateAnion(bytes32,bytes32)": "f8c91244",
    "isNotDuplicateHook(bytes32,address)": "049a491c",
    "recordExists(bytes32)": "f79fe538",
    "register(bytes32,bytes32)": "2f926732",
    "rehook(bytes32,uint8,address)": "015399e6",
    "renew(bytes32,uint256)": "f544d82f",
    "resolver(bytes32)": "0178b8bf",
    "roothash()": "251c9422",
    "setAlias(bytes32,bytes32)": "1f06e91c",
    "setAnion(bytes32,bytes32)": "a3be52a2",
    "setApprovalForAll(address,bool)": "a22cb465",
    "setCation(bytes32,bytes32)": "8146970a",
    "setController(bytes32,address)": "d3156905",
    "setCovalence(bytes32,bool)": "d07699aa",
    "setExpiry(bytes32,uint256)": "39de6469",
    "setRecord(bytes32,address)": "d9b76ed4",
    "setResolver(bytes32,address)": "1896f70a",
    "theEnd()": "22b68deb",
    "unhook(bytes32,address)": "241270d5",
    "unhookAll(bytes32)": "21ec2b5b",
    "withdrawEther()": "7362377b"
  },
  "id": 16
}