{
  "abi": [
    {
      "inputs": [
        {
          "internalType": "address",
          "name": "_registry",
          "type": "address"
        },
        {
          "internalType": "address",
          "name": "_helix2",
          "type": "address"
        }
      ],
      "stateMutability": "nonpayable",
      "type": "constructor"
    },
    {
      "anonymous": false,
      "inputs": [
        {
          "indexed": true,
          "internalType": "address",
          "name": "cation",
          "type": "address"
        },
        {
          "indexed": true,
          "internalType": "address",
          "name": "operator",
          "type": "address"
        },
        {
          "indexed": false,
          "internalType": "bool",
          "name": "approved",
          "type": "bool"
        }
      ],
      "name": "ApprovalForAll",
      "type": "event"
    },
    {
      "anonymous": false,
      "inputs": [
        {
          "indexed": true,
          "internalType": "bytes32",
          "name": "bondhash",
          "type": "bytes32"
        },
        {
          "indexed": false,
          "internalType": "address",
          "name": "config",
          "type": "address"
        },
        {
          "indexed": false,
          "internalType": "uint8",
          "name": "rule",
          "type": "uint8"
        }
      ],
      "name": "Hooked",
      "type": "event"
    },
    {
      "anonymous": false,
      "inputs": [
        {
          "indexed": true,
          "internalType": "bytes32",
          "name": "bondhash",
          "type": "bytes32"
        },
        {
          "indexed": false,
          "internalType": "bytes32",
          "name": "_alias",
          "type": "bytes32"
        }
      ],
      "name": "NewAlias",
      "type": "event"
    },
    {
      "anonymous": false,
      "inputs": [
        {
          "indexed": true,
          "internalType": "bytes32",
          "name": "bondhash",
          "type": "bytes32"
        },
        {
          "indexed": false,
          "internalType": "bytes32",
          "name": "anion",
          "type": "bytes32"
        }
      ],
      "name": "NewAnion",
      "type": "event"
    },
    {
      "anonymous": false,
      "inputs": [
        {
          "indexed": true,
          "internalType": "bytes32",
          "name": "bondhash",
          "type": "bytes32"
        },
        {
          "indexed": false,
          "internalType": "bytes32",
          "name": "cation",
          "type": "bytes32"
        }
      ],
      "name": "NewBond",
      "type": "event"
    },
    {
      "anonymous": false,
      "inputs": [
        {
          "indexed": true,
          "internalType": "bytes32",
          "name": "bondhash",
          "type": "bytes32"
        },
        {
          "indexed": false,
          "internalType": "bytes32",
          "name": "cation",
          "type": "bytes32"
        }
      ],
      "name": "NewCation",
      "type": "event"
    },
    {
      "anonymous": false,
      "inputs": [
        {
          "indexed": true,
          "internalType": "bytes32",
          "name": "bondhash",
          "type": "bytes32"
        },
        {
          "indexed": false,
          "internalType": "address",
          "name": "controller",
          "type": "address"
        }
      ],
      "name": "NewController",
      "type": "event"
    },
    {
      "anonymous": false,
      "inputs": [
        {
          "indexed": true,
          "internalType": "bytes32",
          "name": "bondhash",
          "type": "bytes32"
        },
        {
          "indexed": false,
          "internalType": "bool",
          "name": "covalence",
          "type": "bool"
        }
      ],
      "name": "NewCovalence",
      "type": "event"
    },
    {
      "anonymous": false,
      "inputs": [
        {
          "indexed": false,
          "internalType": "address",
          "name": "Dev",
          "type": "address"
        },
        {
          "indexed": false,
          "internalType": "address",
          "name": "newDev",
          "type": "address"
        }
      ],
      "name": "NewDev",
      "type": "event"
    },
    {
      "anonymous": false,
      "inputs": [
        {
          "indexed": true,
          "internalType": "bytes32",
          "name": "bondhash",
          "type": "bytes32"
        },
        {
          "indexed": false,
          "internalType": "uint256",
          "name": "expiry",
          "type": "uint256"
        }
      ],
      "name": "NewExpiry",
      "type": "event"
    },
    {
      "anonymous": false,
      "inputs": [
        {
          "indexed": true,
          "internalType": "bytes32",
          "name": "bondhash",
          "type": "bytes32"
        },
        {
          "indexed": false,
          "internalType": "address",
          "name": "resolver",
          "type": "address"
        }
      ],
      "name": "NewRecord",
      "type": "event"
    },
    {
      "anonymous": false,
      "inputs": [
        {
          "indexed": true,
          "internalType": "bytes32",
          "name": "bondhash",
          "type": "bytes32"
        },
        {
          "indexed": false,
          "internalType": "address",
          "name": "resolver",
          "type": "address"
        }
      ],
      "name": "NewResolver",
      "type": "event"
    },
    {
      "anonymous": false,
      "inputs": [
        {
          "indexed": true,
          "internalType": "bytes32",
          "name": "bondhash",
          "type": "bytes32"
        },
        {
          "indexed": false,
          "internalType": "address",
          "name": "config",
          "type": "address"
        },
        {
          "indexed": false,
          "internalType": "uint8",
          "name": "rule",
          "type": "uint8"
        }
      ],
      "name": "Rehooked",
      "type": "event"
    },
    {
      "anonymous": false,
      "inputs": [
        {
          "indexed": true,
          "internalType": "bytes32",
          "name": "bondhash",
          "type": "bytes32"
        },
        {
          "indexed": false,
          "internalType": "address",
          "name": "config",
          "type": "address"
        }
      ],
      "name": "Unhooked",
      "type": "event"
    },
    {
      "anonymous": false,
      "inputs": [
        {
          "indexed": true,
          "internalType": "bytes32",
          "name": "bondhash",
          "type": "bytes32"
        }
      ],
      "name": "UnhookedAll",
      "type": "event"
    },
    {
      "inputs": [
        {
          "internalType": "bytes32",
          "name": "",
          "type": "bytes32"
        }
      ],
      "name": "Bonds",
      "outputs": [
        {
          "internalType": "bytes32",
          "name": "_cation",
          "type": "bytes32"
        },
        {
          "internalType": "bytes32",
          "name": "_anion",
          "type": "bytes32"
        },
        {
          "internalType": "bytes32",
          "name": "_alias",
          "type": "bytes32"
        },
        {
          "internalType": "address",
          "name": "_resolver",
          "type": "address"
        },
        {
          "internalType": "address",
          "name": "_controller",
          "type": "address"
        },
        {
          "internalType": "bool",
          "name": "_covalence",
          "type": "bool"
        },
        {
          "internalType": "uint256",
          "name": "_expiry",
          "type": "uint256"
        }
      ],
      "stateMutability": "view",
      "type": "function"
    },
    {
      "inputs": [],
      "name": "Dev",
      "outputs": [
        {
          "internalType": "address",
          "name": "",
          "type": "address"
        }
      ],
      "stateMutability": "view",
      "type": "function"
    },
    {
      "inputs": [],
      "name": "HELIX2",
      "outputs": [
        {
          "internalType": "contract iHELIX2",
          "name": "",
          "type": "address"
        }
      ],
      "stateMutability": "view",
      "type": "function"
    },
    {
      "inputs": [],
      "name": "NAMES",
      "outputs": [
        {
          "internalType": "contract iNAME",
          "name": "",
          "type": "address"
        }
      ],
      "stateMutability": "view",
      "type": "function"
    },
    {
      "inputs": [
        {
          "internalType": "bytes32",
          "name": "bondhash",
          "type": "bytes32"
        }
      ],
      "name": "alias_",
      "outputs": [
        {
          "internalType": "bytes32",
          "name": "",
          "type": "bytes32"
        }
      ],
      "stateMutability": "view",
      "type": "function"
    },
    {
      "inputs": [
        {
          "internalType": "bytes32",
          "name": "bondhash",
          "type": "bytes32"
        }
      ],
      "name": "anion",
      "outputs": [
        {
          "internalType": "bytes32",
          "name": "",
          "type": "bytes32"
        }
      ],
      "stateMutability": "view",
      "type": "function"
    },
    {
      "inputs": [],
      "name": "basePrice",
      "outputs": [
        {
          "internalType": "uint256",
          "name": "",
          "type": "uint256"
        }
      ],
      "stateMutability": "view",
      "type": "function"
    },
    {
      "inputs": [
        {
          "internalType": "bytes32",
          "name": "bondhash",
          "type": "bytes32"
        }
      ],
      "name": "cation",
      "outputs": [
        {
          "internalType": "bytes32",
          "name": "",
          "type": "bytes32"
        }
      ],
      "stateMutability": "view",
      "type": "function"
    },
    {
      "inputs": [
        {
          "internalType": "address",
          "name": "newDev",
          "type": "address"
        }
      ],
      "name": "changeDev",
      "outputs": [],
      "stateMutability": "nonpayable",
      "type": "function"
    },
    {
      "inputs": [
        {
          "internalType": "bytes32",
          "name": "bondhash",
          "type": "bytes32"
        }
      ],
      "name": "controller",
      "outputs": [
        {
          "internalType": "address",
          "name": "",
          "type": "address"
        }
      ],
      "stateMutability": "view",
      "type": "function"
    },
    {
      "inputs": [
        {
          "internalType": "bytes32",
          "name": "bondhash",
          "type": "bytes32"
        }
      ],
      "name": "covalence",
      "outputs": [
        {
          "internalType": "bool",
          "name": "",
          "type": "bool"
        }
      ],
      "stateMutability": "view",
      "type": "function"
    },
    {
      "inputs": [
        {
          "internalType": "bytes32",
          "name": "bondhash",
          "type": "bytes32"
        }
      ],
      "name": "expiry",
      "outputs": [
        {
          "internalType": "uint256",
          "name": "",
          "type": "uint256"
        }
      ],
      "stateMutability": "view",
      "type": "function"
    },
    {
      "inputs": [
        {
          "internalType": "bytes32",
          "name": "bondhash",
          "type": "bytes32"
        },
        {
          "internalType": "uint8",
          "name": "rule",
          "type": "uint8"
        },
        {
          "internalType": "address",
          "name": "config",
          "type": "address"
        }
      ],
      "name": "hook",
      "outputs": [],
      "stateMutability": "nonpayable",
      "type": "function"
    },
    {
      "inputs": [
        {
          "internalType": "bytes32",
          "name": "bondhash",
          "type": "bytes32"
        }
      ],
      "name": "hooksWithRules",
      "outputs": [
        {
          "internalType": "address[]",
          "name": "",
          "type": "address[]"
        },
        {
          "internalType": "uint8[]",
          "name": "",
          "type": "uint8[]"
        }
      ],
      "stateMutability": "view",
      "type": "function"
    },
    {
      "inputs": [
        {
          "internalType": "bytes32",
          "name": "_cation",
          "type": "bytes32"
        },
        {
          "internalType": "address",
          "name": "operator",
          "type": "address"
        }
      ],
      "name": "isApprovedForAll",
      "outputs": [
        {
          "internalType": "bool",
          "name": "",
          "type": "bool"
        }
      ],
      "stateMutability": "view",
      "type": "function"
    },
    {
      "inputs": [
        {
          "internalType": "bytes32",
          "name": "bondhash",
          "type": "bytes32"
        },
        {
          "internalType": "bytes32",
          "name": "newAnion",
          "type": "bytes32"
        }
      ],
      "name": "isNotDuplicateAnion",
      "outputs": [
        {
          "internalType": "bool",
          "name": "",
          "type": "bool"
        }
      ],
      "stateMutability": "view",
      "type": "function"
    },
    {
      "inputs": [
        {
          "internalType": "bytes32",
          "name": "bondhash",
          "type": "bytes32"
        },
        {
          "internalType": "address",
          "name": "config",
          "type": "address"
        }
      ],
      "name": "isNotDuplicateHook",
      "outputs": [
        {
          "internalType": "bool",
          "name": "",
          "type": "bool"
        }
      ],
      "stateMutability": "view",
      "type": "function"
    },
    {
      "inputs": [
        {
          "internalType": "bytes32",
          "name": "bondhash",
          "type": "bytes32"
        }
      ],
      "name": "recordExists",
      "outputs": [
        {
          "internalType": "bool",
          "name": "",
          "type": "bool"
        }
      ],
      "stateMutability": "view",
      "type": "function"
    },
    {
      "inputs": [
        {
          "internalType": "bytes32",
          "name": "bondhash",
          "type": "bytes32"
        },
        {
          "internalType": "uint8",
          "name": "rule",
          "type": "uint8"
        },
        {
          "internalType": "address",
          "name": "config",
          "type": "address"
        }
      ],
      "name": "rehook",
      "outputs": [],
      "stateMutability": "nonpayable",
      "type": "function"
    },
    {
      "inputs": [
        {
          "internalType": "bytes32",
          "name": "bondhash",
          "type": "bytes32"
        }
      ],
      "name": "resolver",
      "outputs": [
        {
          "internalType": "address",
          "name": "",
          "type": "address"
        }
      ],
      "stateMutability": "view",
      "type": "function"
    },
    {
      "inputs": [],
      "name": "roothash",
      "outputs": [
        {
          "internalType": "bytes32",
          "name": "",
          "type": "bytes32"
        }
      ],
      "stateMutability": "view",
      "type": "function"
    },
    {
      "inputs": [
        {
          "internalType": "bytes32",
          "name": "bondhash",
          "type": "bytes32"
        },
        {
          "internalType": "bytes32",
          "name": "_alias",
          "type": "bytes32"
        }
      ],
      "name": "setAlias",
      "outputs": [],
      "stateMutability": "nonpayable",
      "type": "function"
    },
    {
      "inputs": [
        {
          "internalType": "bytes32",
          "name": "bondhash",
          "type": "bytes32"
        },
        {
          "internalType": "bytes32",
          "name": "_anion",
          "type": "bytes32"
        }
      ],
      "name": "setAnion",
      "outputs": [],
      "stateMutability": "nonpayable",
      "type": "function"
    },
    {
      "inputs": [
        {
          "internalType": "address",
          "name": "operator",
          "type": "address"
        },
        {
          "internalType": "bool",
          "name": "approved",
          "type": "bool"
        }
      ],
      "name": "setApprovalForAll",
      "outputs": [],
      "stateMutability": "nonpayable",
      "type": "function"
    },
    {
      "inputs": [
        {
          "internalType": "bytes32",
          "name": "bondhash",
          "type": "bytes32"
        },
        {
          "internalType": "bytes32",
          "name": "_cation",
          "type": "bytes32"
        }
      ],
      "name": "setCation",
      "outputs": [],
      "stateMutability": "nonpayable",
      "type": "function"
    },
    {
      "inputs": [
        {
          "internalType": "bytes32",
          "name": "bondhash",
          "type": "bytes32"
        },
        {
          "internalType": "address",
          "name": "_controller",
          "type": "address"
        }
      ],
      "name": "setController",
      "outputs": [],
      "stateMutability": "nonpayable",
      "type": "function"
    },
    {
      "inputs": [
        {
          "internalType": "bytes32",
          "name": "bondhash",
          "type": "bytes32"
        },
        {
          "internalType": "bool",
          "name": "_covalence",
          "type": "bool"
        }
      ],
      "name": "setCovalence",
      "outputs": [],
      "stateMutability": "nonpayable",
      "type": "function"
    },
    {
      "inputs": [
        {
          "internalType": "bytes32",
          "name": "bondhash",
          "type": "bytes32"
        },
        {
          "internalType": "uint256",
          "name": "_expiry",
          "type": "uint256"
        }
      ],
      "name": "setExpiry",
      "outputs": [],
      "stateMutability": "payable",
      "type": "function"
    },
    {
      "inputs": [
        {
          "internalType": "bytes32",
          "name": "bondhash",
          "type": "bytes32"
        },
        {
          "internalType": "address",
          "name": "_resolver",
          "type": "address"
        }
      ],
      "name": "setRecord",
      "outputs": [],
      "stateMutability": "nonpayable",
      "type": "function"
    },
    {
      "inputs": [
        {
          "internalType": "bytes32",
          "name": "bondhash",
          "type": "bytes32"
        },
        {
          "internalType": "address",
          "name": "_resolver",
          "type": "address"
        }
      ],
      "name": "setResolver",
      "outputs": [],
      "stateMutability": "nonpayable",
      "type": "function"
    },
    {
      "inputs": [],
      "name": "theEnd",
      "outputs": [
        {
          "internalType": "uint256",
          "name": "",
          "type": "uint256"
        }
      ],
      "stateMutability": "view",
      "type": "function"
    },
    {
      "inputs": [
        {
          "internalType": "bytes32",
          "name": "bondhash",
          "type": "bytes32"
        },
        {
          "internalType": "address",
          "name": "config",
          "type": "address"
        }
      ],
      "name": "unhook",
      "outputs": [],
      "stateMutability": "nonpayable",
      "type": "function"
    },
    {
      "inputs": [
        {
          "internalType": "bytes32",
          "name": "bondhash",
          "type": "bytes32"
        }
      ],
      "name": "unhookAll",
      "outputs": [],
      "stateMutability": "nonpayable",
      "type": "function"
    },
    {
      "inputs": [],
      "name": "withdrawEther",
      "outputs": [],
      "stateMutability": "payable",
      "type": "function"
    },
    {
      "inputs": [
        {
          "internalType": "address",
          "name": "token",
          "type": "address"
        }
      ],
      "name": "withdrawToken",
      "outputs": [],
      "stateMutability": "payable",
      "type": "function"
    }
  ],
  "bytecode": {
    "object": "0x60806040526703782dace9d900006005553480156200001d57600080fd5b50604051620038d3380380620038d38339810160408190526200004091620006cd565b60028054336001600160a01b0319918216179091556000805482166001600160a01b03848116918217909255600180549093169185169190911790915560408051633215476b60e11b8152905163642a8ed6916004808201926080929091908290030181865afa158015620000b9573d6000803e3d6000fd5b505050506040513d601f19601f82011682018060405250810190620000df91906200073c565b602001516003556000546040805163bd9a548b60e01b815290516001600160a01b039092169163bd9a548b916004808201926080929091908290030181865afa15801562000131573d6000803e3d6000fd5b505050506040513d601f19601f820116820180604052508101906200015791906200073c565b602001516004556200016862000170565b5050620007e1565b7f3530788012b75d807ed21d67650284173cf1b5aa003fda795c62c56bc64b06ed805460ff19169055604080516020818101909252600080825280526006909152620001e0907f54cdd369e4e8a8515e52ca72ec816c2101831ad1f18bf44102ed171459c9b4f89060016200062f565b50600080805260066020527f54cdd369e4e8a8515e52ca72ec816c2101831ad1f18bf44102ed171459c9b4fa8190557f54cdd369e4e8a8515e52ca72ec816c2101831ad1f18bf44102ed171459c9b4fb8190557f54cdd369e4e8a8515e52ca72ec816c2101831ad1f18bf44102ed171459c9b4fc8190557f54cdd369e4e8a8515e52ca72ec816c2101831ad1f18bf44102ed171459c9b4fe80546005547f54cdd369e4e8a8515e52ca72ec816c2101831ad1f18bf44102ed171459c9b4ff556001600160a81b03191633908117600160a01b179091557f54cdd369e4e8a8515e52ca72ec816c2101831ad1f18bf44102ed171459c9b4fd80546001600160a01b0319169091179055805460408051633215476b60e11b815290516001600160a01b03929092169163642a8ed6916004818101926080929091908290030181865afa15801562000333573d6000803e3d6000fd5b505050506040513d601f19601f820116820180604052508101906200035991906200073c565b905060005b60048110156200062b57600060066000848460048110620003835762000383620007a3565b60209081029190910151825281810192909252604090810160009081208180526001018352818120805460ff191660ff95909516949094179093558051918201905281815290600690848460048110620003e157620003e1620007a3565b60200201518152602001908152602001600020600001906001620004079291906200062f565b508181600481106200041d576200041d620007a3565b6020020151600660008484600481106200043b576200043b620007a3565b60200201518152602001908152602001600020600201819055508181600481106200046a576200046a620007a3565b602002015160066000848460048110620004885762000488620007a3565b6020020151815260200190815260200160002060030181905550818160048110620004b757620004b7620007a3565b602002015160066000848460048110620004d557620004d5620007a3565b60200201518152602001908152602001600020600401819055506001600660008484600481106200050a576200050a620007a3565b6020020151815260200190815260200160002060060160146101000a81548160ff02191690831515021790555060055460066000848460048110620005535762000553620007a3565b60200201518152602001908152602001600020600701819055503360066000848460048110620005875762000587620007a3565b6020020151815260200190815260200160002060060160006101000a8154816001600160a01b0302191690836001600160a01b031602179055503360066000848460048110620005db57620005db620007a3565b6020020151815260200190815260200160002060050160006101000a8154816001600160a01b0302191690836001600160a01b0316021790555080806200062290620007b9565b9150506200035e565b5050565b82805482825590600052602060002090810192821562000687579160200282015b828111156200068757825182546001600160a01b0319166001600160a01b0390911617825560209092019160019091019062000650565b506200069592915062000699565b5090565b5b808211156200069557600081556001016200069a565b80516001600160a01b0381168114620006c857600080fd5b919050565b60008060408385031215620006e157600080fd5b620006ec83620006b0565b9150620006fc60208401620006b0565b90509250929050565b604051608081016001600160401b03811182821017156200073657634e487b7160e01b600052604160045260246000fd5b60405290565b6000608082840312156200074f57600080fd5b82601f8301126200075f57600080fd5b6200076962000705565b8060808401858111156200077c57600080fd5b845b81811015620007985780518452602093840193016200077e565b509095945050505050565b634e487b7160e01b600052603260045260246000fd5b600060018201620007da57634e487b7160e01b600052601160045260246000fd5b5060010190565b6130e280620007f16000396000f3fe6080604052600436106102345760003560e01c80637362377b11610138578063c7876ea4116100b0578063d9b76ed41161007f578063f61ccd5311610064578063f61ccd53146106e2578063f79fe53814610702578063f8c912441461073457600080fd5b8063d9b76ed4146106a2578063dbd4e021146106c257600080fd5b8063c7876ea41461061c578063d07699aa14610632578063d2ec5fca14610652578063d31569051461068257600080fd5b8063a22cb46511610107578063b0698628116100ec578063b0698628146105bc578063b782426e146105dc578063c5bc4c0b146105fc57600080fd5b8063a22cb4651461057c578063a3be52a21461059c57600080fd5b80637362377b146105215780638146970a1461052957806388a8c95c14610549578063894760691461056957600080fd5b80631f06e91c116101cb578063251c94221161019a57806339de64691161017f57806339de64691461043057806351a764421461044357806363a44e691461046357600080fd5b8063251c9422146103fa578063340268591461041057600080fd5b80631f06e91c1461038457806321ec2b5b146103a457806322b68deb146103c4578063241270d5146103da57600080fd5b806305e84aa01161020757806305e84aa0146102e85780630aac6625146103085780630e68b116146103365780631896f70a1461036457600080fd5b8063015399e6146102395780630178b8bf1461025b57806301e51ae814610298578063049a491c146102b8575b600080fd5b34801561024557600080fd5b50610259610254366004612cd8565b610767565b005b34801561026757600080fd5b5061027b610276366004612d20565b6109ba565b6040516001600160a01b0390911681526020015b60405180910390f35b3480156102a457600080fd5b5060025461027b906001600160a01b031681565b3480156102c457600080fd5b506102d86102d3366004612d39565b610a2f565b604051901515815260200161028f565b3480156102f457600080fd5b5060015461027b906001600160a01b031681565b34801561031457600080fd5b50610328610323366004612d20565b610ae1565b60405161028f929190612d69565b34801561034257600080fd5b50610356610351366004612d20565b610c94565b60405190815260200161028f565b34801561037057600080fd5b5061025961037f366004612d39565b610cfc565b34801561039057600080fd5b5061025961039f366004612df0565b610efd565b3480156103b057600080fd5b506102596103bf366004612d20565b6110c3565b3480156103d057600080fd5b5061035660055481565b3480156103e657600080fd5b506102596103f5366004612d39565b6113fa565b34801561040657600080fd5b5061035660035481565b34801561041c57600080fd5b506102d861042b366004612d20565b611832565b61025961043e366004612df0565b6118b6565b34801561044f57600080fd5b5061025961045e366004612cd8565b611b57565b34801561046f57600080fd5b506104e161047e366004612d20565b60066020819052600091825260409091206002810154600382015460048301546005840154948401546007909401549294919390926001600160a01b039283169282169174010000000000000000000000000000000000000000900460ff169087565b604080519788526020880196909652948601939093526001600160a01b039182166060860152166080840152151560a083015260c082015260e00161028f565b610259611dae565b34801561053557600080fd5b50610259610544366004612df0565b611e54565b34801561055557600080fd5b50610259610564366004612e12565b611ff5565b610259610577366004612e12565b6120d0565b34801561058857600080fd5b50610259610597366004612e44565b6121f6565b3480156105a857600080fd5b506102596105b7366004612df0565b612262565b3480156105c857600080fd5b506102d86105d7366004612d39565b612428565b3480156105e857600080fd5b5060005461027b906001600160a01b031681565b34801561060857600080fd5b50610356610617366004612d20565b6124cc565b34801561062857600080fd5b5061035660045481565b34801561063e57600080fd5b5061025961064d366004612e72565b612534565b34801561065e57600080fd5b5061035661066d366004612d20565b60009081526006602052604090206007015490565b34801561068e57600080fd5b5061025961069d366004612d39565b61273c565b3480156106ae57600080fd5b506102596106bd366004612d39565b612932565b3480156106ce57600080fd5b5061027b6106dd366004612d20565b612b28565b3480156106ee57600080fd5b506103566106fd366004612d20565b612b9a565b34801561070e57600080fd5b506102d861071d366004612d20565b600090815260066020526040902060070154421090565b34801561074057600080fd5b506102d861074f366004612df0565b60009182526006602052604090912060030154141590565b600083815260066020526040902060070154839042106107bd5760405162461bcd60e51b815260206004820152600c60248201526b1093d39117d156141254915160a21b60448201526064015b60405180910390fd5b6000818152600660205260408082206002015460015491516302571be360e01b8152600481018290529092916001600160a01b0316906302571be390602401602060405180830381865afa158015610819573d6000803e3d6000fd5b505050506040513d601f19601f8201168201806040525081019061083d9190612e97565b90506001600160a01b03811633148061087957506001600160a01b038116600090815260076020908152604080832033845290915290205460ff165b6108c55760405162461bcd60e51b815260206004820152600960248201527f4e4f545f4f574e4552000000000000000000000000000000000000000000000060448201526064016107b4565b60008681526006602090815260408083206001600160a01b038816845260010190915290205460ff80871691160361093f5760405162461bcd60e51b815260206004820152600b60248201527f52554c455f45584953545300000000000000000000000000000000000000000060448201526064016107b4565b60008681526006602090815260408083206001600160a01b0388168085526001909101835292819020805460ff191660ff8a1690811790915581519384529183019190915287917fe43a78ddf6157361fe34d04905786138f88d3eda20b1f7dc0e2c619f9267310091015b60405180910390a2505050505050565b60008181526006602052604081206007015482904210610a0b5760405162461bcd60e51b815260206004820152600c60248201526b1093d39117d156141254915160a21b60448201526064016107b4565b6000838152600660205260409020600501546001600160a01b031691505b50919050565b60008281526006602052604080822090517f2306f46600000000000000000000000000000000000000000000000000000000815273__$47e4ffaaf323c41735ff299f8946896ce0$__91632306f46691610a96916001600160a01b03871691600401612eb4565b602060405180830381865af4158015610ab3573d6000803e3d6000fd5b505050506040513d601f19601f82011682018060405250810190610ad79190612f14565b1590505b92915050565b600081815260066020526040902060070154606090819083904210610b375760405162461bcd60e51b815260206004820152600c60248201526b1093d39117d156141254915160a21b60448201526064016107b4565b600084815260066020908152604080832080548251818502810185019093528083529192909190830182828015610b9757602002820191906000526020600020905b81546001600160a01b03168152600190910190602001808311610b79575b505050505090506000815167ffffffffffffffff811115610bba57610bba612f31565b604051908082528060200260200182016040528015610be3578160200160208202803683370190505b50905060005b8251811015610c8857600660008881526020019081526020016000206001016000848381518110610c1c57610c1c612f60565b60200260200101516001600160a01b03166001600160a01b0316815260200190815260200160002060009054906101000a900460ff16828281518110610c6457610c64612f60565b60ff9092166020928302919091019091015280610c8081612fbe565b915050610be9565b50909350915050915091565b60008181526006602052604081206007015482904210610ce55760405162461bcd60e51b815260206004820152600c60248201526b1093d39117d156141254915160a21b60448201526064016107b4565b505060009081526006602052604090206003015490565b60008281526006602052604090206007015482904210610d4d5760405162461bcd60e51b815260206004820152600c60248201526b1093d39117d156141254915160a21b60448201526064016107b4565b6000818152600660205260408082206002015460015491516302571be360e01b8152600481018290529092916001600160a01b0316906302571be390602401602060405180830381865afa158015610da9573d6000803e3d6000fd5b505050506040513d601f19601f82011682018060405250810190610dcd9190612e97565b90506001600160a01b038116331480610e0957506001600160a01b038116600090815260076020908152604080832033845290915290205460ff165b80610e2e5750600083815260066020819052604090912001546001600160a01b031633145b610e7a5760405162461bcd60e51b815260206004820152601760248201527f4e4f545f4f574e45525f4f525f434f4e54524f4c4c455200000000000000000060448201526064016107b4565b60008581526006602090815260409182902060050180547fffffffffffffffffffffffff0000000000000000000000000000000000000000166001600160a01b038816908117909155915191825286917f335721b01866dc23fbee8b6b2c7b1e14d6f05c28cd35a2c934239f94095602a091015b60405180910390a25050505050565b60008281526006602052604090206007015482904210610f4e5760405162461bcd60e51b815260206004820152600c60248201526b1093d39117d156141254915160a21b60448201526064016107b4565b6000818152600660205260408082206002015460015491516302571be360e01b8152600481018290529092916001600160a01b0316906302571be390602401602060405180830381865afa158015610faa573d6000803e3d6000fd5b505050506040513d601f19601f82011682018060405250810190610fce9190612e97565b90506001600160a01b03811633148061100a57506001600160a01b038116600090815260076020908152604080832033845290915290205460ff165b8061102f5750600083815260066020819052604090912001546001600160a01b031633145b61107b5760405162461bcd60e51b815260206004820152601760248201527f4e4f545f4f574e45525f4f525f434f4e54524f4c4c455200000000000000000060448201526064016107b4565b600085815260066020526040908190206004018590555185907f4247841fd58468a6fb10925898bdd83c426da7b5519ee71597106dfdc675122990610eee9087815260200190565b600081815260066020526040902060070154819042106111145760405162461bcd60e51b815260206004820152600c60248201526b1093d39117d156141254915160a21b60448201526064016107b4565b6000818152600660205260408082206002015460015491516302571be360e01b8152600481018290529092916001600160a01b0316906302571be390602401602060405180830381865afa158015611170573d6000803e3d6000fd5b505050506040513d601f19601f820116820180604052508101906111949190612e97565b90506001600160a01b0381163314806111d057506001600160a01b038116600090815260076020908152604080832033845290915290205460ff165b61121c5760405162461bcd60e51b815260206004820152600960248201527f4e4f545f4f574e4552000000000000000000000000000000000000000000000060448201526064016107b4565b60008481526006602090815260408083208054825181850281018501909352808352919290919083018282801561127c57602002820191906000526020600020905b81546001600160a01b0316815260019091019060200180831161125e575b5050505050905060005b815181101561136d5760006006600088815260200190815260200160002060010160008484815181106112bb576112bb612f60565b60200260200101516001600160a01b03166001600160a01b0316815260200190815260200160002060006101000a81548160ff021916908360ff160217905550857fc4c4b4793ac649a3a05ee26afdd6d54122cea2e3298a195a786ab7e899c21e3483838151811061132f5761132f612f60565b602002602001015160405161135391906001600160a01b0391909116815260200190565b60405180910390a28061136581612fbe565b915050611286565b50600085815260066020526040812061138591612c91565b60405185907f6b91085369552b61ca16180a741663b69fb6b3b967f7271116521d84e2291dc590600090a25050506000918252506006602090815260408220805460018101825590835291200180547fffffffffffffffffffffffff0000000000000000000000000000000000000000169055565b6000828152600660205260409020600701548290421061144b5760405162461bcd60e51b815260206004820152600c60248201526b1093d39117d156141254915160a21b60448201526064016107b4565b6000818152600660205260408082206002015460015491516302571be360e01b8152600481018290529092916001600160a01b0316906302571be390602401602060405180830381865afa1580156114a7573d6000803e3d6000fd5b505050506040513d601f19601f820116820180604052508101906114cb9190612e97565b90506001600160a01b03811633148061150757506001600160a01b038116600090815260076020908152604080832033845290915290205460ff165b6115535760405162461bcd60e51b815260206004820152600960248201527f4e4f545f4f574e4552000000000000000000000000000000000000000000000060448201526064016107b4565b6000858152600660209081526040808320805482518185028101850190935280835291929091908301828280156115b357602002820191906000526020600020905b81546001600160a01b03168152600190910190602001808311611595575b50506040517f2306f46600000000000000000000000000000000000000000000000000000000815293945073__$47e4ffaaf323c41735ff299f8946896ce0$__93632306f466935061161692506001600160a01b038a1691508590600401612ff6565b602060405180830381865af4158015611633573d6000803e3d6000fd5b505050506040513d601f19601f820116820180604052508101906116579190612f14565b156117f7576040517fcd23ef4c00000000000000000000000000000000000000000000000000000000815260009073__$47e4ffaaf323c41735ff299f8946896ce0$__9063cd23ef4c906116ba906001600160a01b038a16908690600401612ff6565b602060405180830381865af41580156116d7573d6000803e3d6000fd5b505050506040513d601f19601f820116820180604052508101906116fb9190613043565b90508061173d576040516000815287907fc4c4b4793ac649a3a05ee26afdd6d54122cea2e3298a195a786ab7e899c21e349060200160405180910390a26117f1565b60008781526006602090815260408083206001600160a01b038a168085526001909101835292819020805460ff191690555191825288917fc4c4b4793ac649a3a05ee26afdd6d54122cea2e3298a195a786ab7e899c21e34910160405180910390a260008781526006602052604090208054829081106117bf576117bf612f60565b600091825260209091200180547fffffffffffffffffffffffff00000000000000000000000000000000000000001690555b5061182a565b6040516000815286907fc4c4b4793ac649a3a05ee26afdd6d54122cea2e3298a195a786ab7e899c21e34906020016109aa565b505050505050565b600081815260066020526040812060070154829042106118835760405162461bcd60e51b815260206004820152600c60248201526b1093d39117d156141254915160a21b60448201526064016107b4565b50506000908152600660208190526040909120015474010000000000000000000000000000000000000000900460ff1690565b600082815260066020526040902060070154829042106119075760405162461bcd60e51b815260206004820152600c60248201526b1093d39117d156141254915160a21b60448201526064016107b4565b6000818152600660205260408082206002015460015491516302571be360e01b8152600481018290529092916001600160a01b0316906302571be390602401602060405180830381865afa158015611963573d6000803e3d6000fd5b505050506040513d601f19601f820116820180604052508101906119879190612e97565b90506001600160a01b0381163314806119c357506001600160a01b038116600090815260076020908152604080832033845290915290205460ff165b806119e85750600083815260066020819052604090912001546001600160a01b031633145b611a345760405162461bcd60e51b815260206004820152601760248201527f4e4f545f4f574e45525f4f525f434f4e54524f4c4c455200000000000000000060448201526064016107b4565b6000858152600660205260409020600701548411611a945760405162461bcd60e51b815260206004820152600a60248201527f4241445f4558504952590000000000000000000000000000000000000000000060448201526064016107b4565b600085815260066020526040812060070154611ab0908661305c565b905060045481611ac0919061306f565b341015611b0f5760405162461bcd60e51b815260206004820152601260248201527f494e53554646494349454e545f4554484552000000000000000000000000000060448201526064016107b4565b600086815260066020526040908190206007018690555186907fa620b72378ee464490805a96e25b53e5c0076f0ce2d28f9691ae255a595b3bf3906109aa9088815260200190565b60008381526006602052604090206007015483904210611ba85760405162461bcd60e51b815260206004820152600c60248201526b1093d39117d156141254915160a21b60448201526064016107b4565b6000818152600660205260408082206002015460015491516302571be360e01b8152600481018290529092916001600160a01b0316906302571be390602401602060405180830381865afa158015611c04573d6000803e3d6000fd5b505050506040513d601f19601f82011682018060405250810190611c289190612e97565b90506001600160a01b038116331480611c6457506001600160a01b038116600090815260076020908152604080832033845290915290205460ff165b611cb05760405162461bcd60e51b815260206004820152600960248201527f4e4f545f4f574e4552000000000000000000000000000000000000000000000060448201526064016107b4565b611cba8685610a2f565b611d065760405162461bcd60e51b815260206004820152600b60248201527f484f4f4b5f45584953545300000000000000000000000000000000000000000060448201526064016107b4565b600086815260066020908152604080832080546001808201835582865284862090910180547fffffffffffffffffffffffff0000000000000000000000000000000000000000166001600160a01b038b169081179091558086529101835292819020805460ff191660ff8a1690811790915581519384529183019190915287917fc733a2bc621cc97eef6ed4f708f126e72e6acb76c0a1c0461c9dd31f7b98706591016109aa565b6002546040516000916001600160a01b03169047908381818185875af1925050503d8060008114611dfb576040519150601f19603f3d011682016040523d82523d6000602084013e611e00565b606091505b5050905080611e515760405162461bcd60e51b815260206004820152601360248201527f4554485f5452414e534645525f4641494c45440000000000000000000000000060448201526064016107b4565b50565b60008281526006602052604090206007015482904210611ea55760405162461bcd60e51b815260206004820152600c60248201526b1093d39117d156141254915160a21b60448201526064016107b4565b6000818152600660205260408082206002015460015491516302571be360e01b8152600481018290529092916001600160a01b0316906302571be390602401602060405180830381865afa158015611f01573d6000803e3d6000fd5b505050506040513d601f19601f82011682018060405250810190611f259190612e97565b90506001600160a01b038116331480611f6157506001600160a01b038116600090815260076020908152604080832033845290915290205460ff165b611fad5760405162461bcd60e51b815260206004820152600960248201527f4e4f545f4f574e4552000000000000000000000000000000000000000000000060448201526064016107b4565b600085815260066020526040908190206002018590555185907f4810581adf2c16a86a375dbb1ed89b0b0f7e64d48d24e1948b3dfe6581e4d79590610eee9087815260200190565b6002546001600160a01b0316331461204f5760405162461bcd60e51b815260206004820152600760248201527f4e4f545f4445560000000000000000000000000000000000000000000000000060448201526064016107b4565b600254604080516001600160a01b03928316815291831660208301527fdec101f106d4fc7c85791843e64b198248c822298e3ed7046231d33f7783d816910160405180910390a1600280547fffffffffffffffffffffffff0000000000000000000000000000000000000000166001600160a01b0392909216919091179055565b6002546040517f70a0823100000000000000000000000000000000000000000000000000000000815230600482018190526001600160a01b03848116936323b872dd9391169084906370a0823190602401602060405180830381865afa15801561213e573d6000803e3d6000fd5b505050506040513d601f19601f820116820180604052508101906121629190613043565b6040517fffffffff0000000000000000000000000000000000000000000000000000000060e086901b1681526001600160a01b03938416600482015292909116602483015260448201526064016020604051808303816000875af11580156121ce573d6000803e3d6000fd5b505050506040513d601f19601f820116820180604052508101906121f29190612f14565b5050565b3360008181526007602090815260408083206001600160a01b03871680855290835292819020805460ff191686151590811790915590519081529192917f17307eab39ab6107e8899845ad3d59bd9653f200f220920489ca2b5937696c31910160405180910390a35050565b600082815260066020526040902060070154829042106122b35760405162461bcd60e51b815260206004820152600c60248201526b1093d39117d156141254915160a21b60448201526064016107b4565b6000818152600660205260408082206002015460015491516302571be360e01b8152600481018290529092916001600160a01b0316906302571be390602401602060405180830381865afa15801561230f573d6000803e3d6000fd5b505050506040513d601f19601f820116820180604052508101906123339190612e97565b90506001600160a01b03811633148061236f57506001600160a01b038116600090815260076020908152604080832033845290915290205460ff165b806123945750600083815260066020819052604090912001546001600160a01b031633145b6123e05760405162461bcd60e51b815260206004820152601760248201527f4e4f545f4f574e45525f4f525f434f4e54524f4c4c455200000000000000000060448201526064016107b4565b600085815260066020526040908190206003018590555185907f600ffddd29393ca43c0a11fa6b0b7096631364178cb42f9d546c0a2cd22525ee90610eee9087815260200190565b6001546040516302571be360e01b81526004810184905260009182916001600160a01b03909116906302571be390602401602060405180830381865afa158015612476573d6000803e3d6000fd5b505050506040513d601f19601f8201168201806040525081019061249a9190612e97565b6001600160a01b0390811660009081526007602090815260408083209387168352929052205460ff1691505092915050565b6000818152600660205260408120600701548290421061251d5760405162461bcd60e51b815260206004820152600c60248201526b1093d39117d156141254915160a21b60448201526064016107b4565b505060009081526006602052604090206004015490565b600082815260066020526040902060070154829042106125855760405162461bcd60e51b815260206004820152600c60248201526b1093d39117d156141254915160a21b60448201526064016107b4565b6000818152600660205260408082206002015460015491516302571be360e01b8152600481018290529092916001600160a01b0316906302571be390602401602060405180830381865afa1580156125e1573d6000803e3d6000fd5b505050506040513d601f19601f820116820180604052508101906126059190612e97565b90506001600160a01b03811633148061264157506001600160a01b038116600090815260076020908152604080832033845290915290205460ff165b806126665750600083815260066020819052604090912001546001600160a01b031633145b6126b25760405162461bcd60e51b815260206004820152601760248201527f4e4f545f4f574e45525f4f525f434f4e54524f4c4c455200000000000000000060448201526064016107b4565b60008581526006602081905260409182902001805486151574010000000000000000000000000000000000000000027fffffffffffffffffffffff00ffffffffffffffffffffffffffffffffffffffff9091161790555185907fe6ccdb52b4954ab2c3e293f1dbfe593e6c5630962a1944bfcf20c5563eeb846290610eee90871515815260200190565b6000828152600660205260409020600701548290421061278d5760405162461bcd60e51b815260206004820152600c60248201526b1093d39117d156141254915160a21b60448201526064016107b4565b6000818152600660205260408082206002015460015491516302571be360e01b8152600481018290529092916001600160a01b0316906302571be390602401602060405180830381865afa1580156127e9573d6000803e3d6000fd5b505050506040513d601f19601f8201168201806040525081019061280d9190612e97565b90506001600160a01b03811633148061284957506001600160a01b038116600090815260076020908152604080832033845290915290205460ff165b8061286e5750600083815260066020819052604090912001546001600160a01b031633145b6128ba5760405162461bcd60e51b815260206004820152601760248201527f4e4f545f4f574e45525f4f525f434f4e54524f4c4c455200000000000000000060448201526064016107b4565b60008581526006602081815260409283902090910180547fffffffffffffffffffffffff0000000000000000000000000000000000000000166001600160a01b038816908117909155915191825286917fe5108446a6097aab57fd36f346a515a78fddefa87d81662d44e0d7a463f920959101610eee565b600082815260066020526040902060070154829042106129835760405162461bcd60e51b815260206004820152600c60248201526b1093d39117d156141254915160a21b60448201526064016107b4565b6000818152600660205260408082206002015460015491516302571be360e01b8152600481018290529092916001600160a01b0316906302571be390602401602060405180830381865afa1580156129df573d6000803e3d6000fd5b505050506040513d601f19601f82011682018060405250810190612a039190612e97565b90506001600160a01b038116331480612a3f57506001600160a01b038116600090815260076020908152604080832033845290915290205460ff165b80612a645750600083815260066020819052604090912001546001600160a01b031633145b612ab05760405162461bcd60e51b815260206004820152601760248201527f4e4f545f4f574e45525f4f525f434f4e54524f4c4c455200000000000000000060448201526064016107b4565b60008581526006602090815260409182902060050180547fffffffffffffffffffffffff0000000000000000000000000000000000000000166001600160a01b038816908117909155915191825286917fcb71326aeaad88869e8be8be2893e1119f7617ce4ea2411af127e218909be1f79101610eee565b60008181526006602052604081206007015482904210612b795760405162461bcd60e51b815260206004820152600c60248201526b1093d39117d156141254915160a21b60448201526064016107b4565b5050600090815260066020819052604090912001546001600160a01b031690565b60008181526006602052604081206007015482904210612beb5760405162461bcd60e51b815260206004820152600c60248201526b1093d39117d156141254915160a21b60448201526064016107b4565b6000838152600660205260408082206002015460015491516302571be360e01b8152600481018290529092916001600160a01b0316906302571be390602401602060405180830381865afa158015612c47573d6000803e3d6000fd5b505050506040513d601f19601f82011682018060405250810190612c6b9190612e97565b9050306001600160a01b03821603612c895760035493505050610a29565b509392505050565b5080546000825590600052602060002090810190611e5191905b80821115612cbf5760008155600101612cab565b5090565b6001600160a01b0381168114611e5157600080fd5b600080600060608486031215612ced57600080fd5b83359250602084013560ff81168114612d0557600080fd5b91506040840135612d1581612cc3565b809150509250925092565b600060208284031215612d3257600080fd5b5035919050565b60008060408385031215612d4c57600080fd5b823591506020830135612d5e81612cc3565b809150509250929050565b604080825283519082018190526000906020906060840190828701845b82811015612dab5781516001600160a01b031684529284019290840190600101612d86565b5050508381038285015284518082528583019183019060005b81811015612de357835160ff1683529284019291840191600101612dc4565b5090979650505050505050565b60008060408385031215612e0357600080fd5b50508035926020909101359150565b600060208284031215612e2457600080fd5b8135612e2f81612cc3565b9392505050565b8015158114611e5157600080fd5b60008060408385031215612e5757600080fd5b8235612e6281612cc3565b91506020830135612d5e81612e36565b60008060408385031215612e8557600080fd5b823591506020830135612d5e81612e36565b600060208284031215612ea957600080fd5b8151612e2f81612cc3565b6000604082016001600160a01b03808616845260206040818601528286548085526060870191508760005282600020945060005b81811015612f06578554851683526001958601959284019201612ee8565b509098975050505050505050565b600060208284031215612f2657600080fd5b8151612e2f81612e36565b7f4e487b7100000000000000000000000000000000000000000000000000000000600052604160045260246000fd5b7f4e487b7100000000000000000000000000000000000000000000000000000000600052603260045260246000fd5b7f4e487b7100000000000000000000000000000000000000000000000000000000600052601160045260246000fd5b60007fffffffffffffffffffffffffffffffffffffffffffffffffffffffffffffffff8203612fef57612fef612f8f565b5060010190565b6000604082016001600160a01b0380861684526020604081860152828651808552606087019150828801945060005b81811015612f06578551851683529483019491830191600101613025565b60006020828403121561305557600080fd5b5051919050565b81810381811115610adb57610adb612f8f565b6000817fffffffffffffffffffffffffffffffffffffffffffffffffffffffffffffffff04831182151516156130a7576130a7612f8f565b50029056fea264697066735822122087622b8366723f8653855115dce1b2c5efa13a5d3a6a2375b85f4e79ed64437764736f6c63430008100033",
    "linkReferences": {
      "src/Utils/LibString.sol": {
        "LibString": [
          {
            "start": 4694,
            "length": 20
          },
          {
            "start": 7633,
            "length": 20
          },
          {
            "start": 7800,
            "length": 20
          }
        ]
      }
    }
  },
  "methodIdentifiers": {
    "Bonds(bytes32)": "63a44e69",
    "Dev()": "01e51ae8",
    "HELIX2()": "b782426e",
    "NAMES()": "05e84aa0",
    "alias_(bytes32)": "c5bc4c0b",
    "anion(bytes32)": "0e68b116",
    "basePrice()": "c7876ea4",
    "cation(bytes32)": "f61ccd53",
    "changeDev(address)": "88a8c95c",
    "controller(bytes32)": "dbd4e021",
    "covalence(bytes32)": "34026859",
    "expiry(bytes32)": "d2ec5fca",
    "hook(bytes32,uint8,address)": "51a76442",
    "hooksWithRules(bytes32)": "0aac6625",
    "isApprovedForAll(bytes32,address)": "b0698628",
    "isNotDuplicateAnion(bytes32,bytes32)": "f8c91244",
    "isNotDuplicateHook(bytes32,address)": "049a491c",
    "recordExists(bytes32)": "f79fe538",
    "rehook(bytes32,uint8,address)": "015399e6",
    "resolver(bytes32)": "0178b8bf",
    "roothash()": "251c9422",
    "setAlias(bytes32,bytes32)": "1f06e91c",
    "setAnion(bytes32,bytes32)": "a3be52a2",
    "setApprovalForAll(address,bool)": "a22cb465",
    "setCation(bytes32,bytes32)": "8146970a",
    "setController(bytes32,address)": "d3156905",
    "setCovalence(bytes32,bool)": "d07699aa",
    "setExpiry(bytes32,uint256)": "39de6469",
    "setRecord(bytes32,address)": "d9b76ed4",
    "setResolver(bytes32,address)": "1896f70a",
    "theEnd()": "22b68deb",
    "unhook(bytes32,address)": "241270d5",
    "unhookAll(bytes32)": "21ec2b5b",
    "withdrawEther()": "7362377b",
    "withdrawToken(address)": "89476069"
  },
  "id": 29
}