{
  "abi": [
    {
      "inputs": [
        {
          "internalType": "address",
          "name": "_registry",
          "type": "address"
        }
      ],
      "stateMutability": "nonpayable",
      "type": "constructor"
    },
    {
      "anonymous": false,
      "inputs": [
        {
          "indexed": true,
          "internalType": "address",
          "name": "previousOwner",
          "type": "address"
        },
        {
          "indexed": true,
          "internalType": "address",
          "name": "newOwner",
          "type": "address"
        }
      ],
      "name": "OwnershipTransferred",
      "type": "event"
    },
    {
      "inputs": [],
      "name": "Dev",
      "outputs": [
        {
          "internalType": "address",
          "name": "",
          "type": "address"
        }
      ],
      "stateMutability": "view",
      "type": "function"
    },
    {
      "inputs": [
        {
          "internalType": "bytes32",
          "name": "",
          "type": "bytes32"
        }
      ],
      "name": "Molecules",
      "outputs": [
        {
          "internalType": "bytes32",
          "name": "_cation",
          "type": "bytes32"
        },
        {
          "internalType": "bytes32",
          "name": "_label",
          "type": "bytes32"
        },
        {
          "internalType": "address",
          "name": "_resolver",
          "type": "address"
        },
        {
          "internalType": "address",
          "name": "_controller",
          "type": "address"
        },
        {
          "internalType": "bool",
          "name": "_covalence",
          "type": "bool"
        },
        {
          "internalType": "uint256",
          "name": "_expiry",
          "type": "uint256"
        }
      ],
      "stateMutability": "view",
      "type": "function"
    },
    {
      "inputs": [],
      "name": "Registry",
      "outputs": [
        {
          "internalType": "address",
          "name": "",
          "type": "address"
        }
      ],
      "stateMutability": "view",
      "type": "function"
    },
    {
      "inputs": [],
      "name": "active",
      "outputs": [
        {
          "internalType": "bool",
          "name": "",
          "type": "bool"
        }
      ],
      "stateMutability": "view",
      "type": "function"
    },
    {
      "inputs": [
        {
          "internalType": "bytes32",
          "name": "molyhash",
          "type": "bytes32"
        },
        {
          "internalType": "bytes32",
          "name": "_anion",
          "type": "bytes32"
        }
      ],
      "name": "addAnion",
      "outputs": [],
      "stateMutability": "nonpayable",
      "type": "function"
    },
    {
      "inputs": [
        {
          "internalType": "bytes32",
          "name": "molyhash",
          "type": "bytes32"
        }
      ],
      "name": "anions",
      "outputs": [
        {
          "internalType": "bytes32[]",
          "name": "",
          "type": "bytes32[]"
        }
      ],
      "stateMutability": "view",
      "type": "function"
    },
    {
      "inputs": [
        {
          "internalType": "bytes32",
          "name": "molyhash",
          "type": "bytes32"
        }
      ],
      "name": "cation",
      "outputs": [
        {
          "internalType": "bytes32",
          "name": "",
          "type": "bytes32"
        }
      ],
      "stateMutability": "view",
      "type": "function"
    },
    {
      "inputs": [
        {
          "internalType": "bytes32",
          "name": "molyhash",
          "type": "bytes32"
        }
      ],
      "name": "controller",
      "outputs": [
        {
          "internalType": "address",
          "name": "",
          "type": "address"
        }
      ],
      "stateMutability": "view",
      "type": "function"
    },
    {
      "inputs": [
        {
          "internalType": "bytes32",
          "name": "molyhash",
          "type": "bytes32"
        }
      ],
      "name": "covalence",
      "outputs": [
        {
          "internalType": "bool",
          "name": "",
          "type": "bool"
        }
      ],
      "stateMutability": "view",
      "type": "function"
    },
    {
      "inputs": [
        {
          "internalType": "bytes32",
          "name": "molyhash",
          "type": "bytes32"
        }
      ],
      "name": "expiry",
      "outputs": [
        {
          "internalType": "uint256",
          "name": "",
          "type": "uint256"
        }
      ],
      "stateMutability": "view",
      "type": "function"
    },
    {
      "inputs": [
        {
          "internalType": "bytes32",
          "name": "molyhash",
          "type": "bytes32"
        },
        {
          "internalType": "address",
          "name": "config",
          "type": "address"
        },
        {
          "internalType": "uint8",
          "name": "rule",
          "type": "uint8"
        }
      ],
      "name": "hook",
      "outputs": [],
      "stateMutability": "nonpayable",
      "type": "function"
    },
    {
      "inputs": [
        {
          "internalType": "bytes32",
          "name": "molyhash",
          "type": "bytes32"
        }
      ],
      "name": "hooksWithRules",
      "outputs": [
        {
          "internalType": "uint8[]",
          "name": "_rules",
          "type": "uint8[]"
        },
        {
          "internalType": "address[]",
          "name": "_hooks",
          "type": "address[]"
        }
      ],
      "stateMutability": "view",
      "type": "function"
    },
    {
      "inputs": [
        {
          "internalType": "bytes32",
          "name": "molyhash",
          "type": "bytes32"
        }
      ],
      "name": "label",
      "outputs": [
        {
          "internalType": "bytes32",
          "name": "",
          "type": "bytes32"
        }
      ],
      "stateMutability": "view",
      "type": "function"
    },
    {
      "inputs": [],
      "name": "owner",
      "outputs": [
        {
          "internalType": "address",
          "name": "",
          "type": "address"
        }
      ],
      "stateMutability": "view",
      "type": "function"
    },
    {
      "inputs": [
        {
          "internalType": "bytes32",
          "name": "molyhash",
          "type": "bytes32"
        },
        {
          "internalType": "uint256",
          "name": "index",
          "type": "uint256"
        }
      ],
      "name": "popAnion",
      "outputs": [],
      "stateMutability": "nonpayable",
      "type": "function"
    },
    {
      "inputs": [
        {
          "internalType": "bytes32",
          "name": "molyhash",
          "type": "bytes32"
        },
        {
          "internalType": "address",
          "name": "config",
          "type": "address"
        },
        {
          "internalType": "uint8",
          "name": "rule",
          "type": "uint8"
        }
      ],
      "name": "rehook",
      "outputs": [],
      "stateMutability": "nonpayable",
      "type": "function"
    },
    {
      "inputs": [
        {
          "internalType": "bytes32",
          "name": "molyhash",
          "type": "bytes32"
        }
      ],
      "name": "resolver",
      "outputs": [
        {
          "internalType": "address",
          "name": "",
          "type": "address"
        }
      ],
      "stateMutability": "view",
      "type": "function"
    },
    {
      "inputs": [
        {
          "internalType": "bytes32",
          "name": "molyhash",
          "type": "bytes32"
        },
        {
          "internalType": "bytes32",
          "name": "_cation",
          "type": "bytes32"
        }
      ],
      "name": "setCation",
      "outputs": [],
      "stateMutability": "nonpayable",
      "type": "function"
    },
    {
      "inputs": [
        {
          "internalType": "address",
          "name": "_registry",
          "type": "address"
        }
      ],
      "name": "setConfig",
      "outputs": [],
      "stateMutability": "nonpayable",
      "type": "function"
    },
    {
      "inputs": [
        {
          "internalType": "bytes32",
          "name": "molyhash",
          "type": "bytes32"
        },
        {
          "internalType": "address",
          "name": "_controller",
          "type": "address"
        }
      ],
      "name": "setController",
      "outputs": [],
      "stateMutability": "nonpayable",
      "type": "function"
    },
    {
      "inputs": [
        {
          "internalType": "bytes32",
          "name": "molyhash",
          "type": "bytes32"
        },
        {
          "internalType": "bool",
          "name": "_covalence",
          "type": "bool"
        }
      ],
      "name": "setCovalence",
      "outputs": [],
      "stateMutability": "nonpayable",
      "type": "function"
    },
    {
      "inputs": [
        {
          "internalType": "bytes32",
          "name": "molyhash",
          "type": "bytes32"
        },
        {
          "internalType": "uint256",
          "name": "_expiry",
          "type": "uint256"
        }
      ],
      "name": "setExpiry",
      "outputs": [],
      "stateMutability": "nonpayable",
      "type": "function"
    },
    {
      "inputs": [
        {
          "internalType": "bytes32",
          "name": "molyhash",
          "type": "bytes32"
        },
        {
          "internalType": "bytes32",
          "name": "_label",
          "type": "bytes32"
        }
      ],
      "name": "setLabel",
      "outputs": [],
      "stateMutability": "nonpayable",
      "type": "function"
    },
    {
      "inputs": [
        {
          "internalType": "bytes32",
          "name": "molyhash",
          "type": "bytes32"
        },
        {
          "internalType": "address",
          "name": "_resolver",
          "type": "address"
        }
      ],
      "name": "setResolver",
      "outputs": [],
      "stateMutability": "nonpayable",
      "type": "function"
    },
    {
      "inputs": [],
      "name": "toggleActive",
      "outputs": [],
      "stateMutability": "nonpayable",
      "type": "function"
    },
    {
      "inputs": [
        {
          "internalType": "address",
          "name": "newDev",
          "type": "address"
        }
      ],
      "name": "transferOwnership",
      "outputs": [],
      "stateMutability": "nonpayable",
      "type": "function"
    },
    {
      "inputs": [
        {
          "internalType": "bytes32",
          "name": "molyhash",
          "type": "bytes32"
        },
        {
          "internalType": "uint8",
          "name": "rule",
          "type": "uint8"
        },
        {
          "internalType": "uint256",
          "name": "index",
          "type": "uint256"
        }
      ],
      "name": "unhook",
      "outputs": [],
      "stateMutability": "nonpayable",
      "type": "function"
    },
    {
      "inputs": [
        {
          "internalType": "bytes32",
          "name": "molyhash",
          "type": "bytes32"
        }
      ],
      "name": "unhookAll",
      "outputs": [],
      "stateMutability": "nonpayable",
      "type": "function"
    }
  ],
  "bytecode": {
    "object": "0x60806040526001805460ff60a01b1916600160a01b17905534801561002357600080fd5b506040516114b53803806114b583398101604081905261004291610070565b600180546001600160a01b039092166001600160a01b031992831617905560008054909116331790556100a0565b60006020828403121561008257600080fd5b81516001600160a01b038116811461009957600080fd5b9392505050565b611406806100af6000396000f3fe608060405234801561001057600080fd5b50600436106101c45760003560e01c80638146970a116100f9578063d07699aa11610097578063dbd4e02111610071578063dbd4e021146104e6578063deee4da914610512578063f2fde38b14610525578063f61ccd531461053857600080fd5b8063d07699aa1461049d578063d2ec5fca146104b0578063d3156905146104d357600080fd5b8063849a799c116100d3578063849a799c146103bf5780638da5cb5b146103d257806390072f97146103e3578063af6328f6146103f657600080fd5b80638146970a14610386578063833fda081461039957806383669726146103ac57600080fd5b806321ec2b5b1161016657806339de64691161014057806339de64691461032d578063622dad7f146103405780636ff24830146103605780637db9743b1461037357600080fd5b806321ec2b5b146102d457806329c68dc1146102e757806334026859146102ef57600080fd5b80630aac6625116101a25780630aac66251461025a5780631896f70a1461027b5780631fc4859e1461029057806320e3dbd4146102c157600080fd5b80630178b8bf146101c957806301e51ae81461021257806302fb0c5e14610225575b600080fd5b6101f56101d73660046110ec565b6000908152600260205260409020600501546001600160a01b031690565b6040516001600160a01b0390911681526020015b60405180910390f35b6000546101f5906001600160a01b031681565b60015461024a9074010000000000000000000000000000000000000000900460ff1681565b6040519015158152602001610209565b61026d6102683660046110ec565b61055c565b604051610209929190611105565b61028e6102893660046111a8565b6106ca565b005b6102b361029e3660046110ec565b60009081526002602052604090206004015490565b604051908152602001610209565b61028e6102cf3660046111d4565b610760565b61028e6102e23660046110ec565b6107f4565b61028e61090a565b61024a6102fd3660046110ec565b60009081526002602052604090206006015474010000000000000000000000000000000000000000900460ff1690565b61028e61033b3660046111f6565b6109b1565b61035361034e3660046110ec565b610a6e565b6040516102099190611218565b61028e61036e3660046111f6565b610ad3565b6001546101f5906001600160a01b031681565b61028e6103943660046111f6565b610b41565b61028e6103a736600461126d565b610ba0565b61028e6103ba3660046112a2565b610c6c565b61028e6103cd3660046112a2565b610d0e565b6000546001600160a01b03166101f5565b61028e6103f13660046111f6565b610ddc565b6104616104043660046110ec565b600260208190526000918252604090912090810154600482015460058301546006840154600790940154929391926001600160a01b03918216929182169174010000000000000000000000000000000000000000900460ff169086565b6040805196875260208701959095526001600160a01b0393841694860194909452911660608401521515608083015260a082015260c001610209565b61028e6104ab3660046112de565b610e56565b6102b36104be3660046110ec565b60009081526002602052604090206007015490565b61028e6104e13660046111a8565b610ef8565b6101f56104f43660046110ec565b6000908152600260205260409020600601546001600160a01b031690565b61028e6105203660046111f6565b610f89565b61028e6105333660046111d4565b610fe6565b6102b36105463660046110ec565b6000908152600260208190526040909120015490565b60008181526002602090815260409182902080548351818402810184019094528084526060938493909291908301828280156105d557602002820191906000526020600020906000905b825461010083900a900460ff168152602060019283018181049485019490930390920291018084116105a65790505b50505050509150815167ffffffffffffffff8111156105f6576105f6611313565b60405190808252806020026020018201604052801561061f578160200160208202803683370190505b50905060005b82518110156106c45760026000858152602001908152602001600020600101600084838151811061065857610658611342565b602002602001015160ff1660ff16815260200190815260200160002060009054906101000a90046001600160a01b031682828151811061069a5761069a611342565b6001600160a01b0390921660209283029190910190910152806106bc81611371565b915050610625565b50915091565b6001546001600160a01b031633146107175760405162461bcd60e51b815260206004820152600b60248201526a1393d517d0531313d5d15160aa1b60448201526064015b60405180910390fd5b60009182526002602052604090912060050180547fffffffffffffffffffffffff0000000000000000000000000000000000000000166001600160a01b03909216919091179055565b6000546001600160a01b031633146107ba5760405162461bcd60e51b815260206004820152600760248201527f4e4f545f44455600000000000000000000000000000000000000000000000000604482015260640161070e565b600180547fffffffffffffffffffffffff0000000000000000000000000000000000000000166001600160a01b0392909216919091179055565b6001546001600160a01b0316331461083c5760405162461bcd60e51b815260206004820152600b60248201526a1393d517d0531313d5d15160aa1b604482015260640161070e565b60005b6000828152600260205260409020548110156108ef5760008281526002602052604081208054600182019183918590811061087c5761087c611342565b600091825260208083208183040154601f9092166101000a90910460ff168352820192909252604001902080547fffffffffffffffffffffffff0000000000000000000000000000000000000000166001600160a01b0392909216919091179055806108e781611371565b91505061083f565b506000818152600260205260408120610907916110b3565b50565b6000546001600160a01b031633146109645760405162461bcd60e51b815260206004820152600760248201527f4e4f545f44455600000000000000000000000000000000000000000000000000604482015260640161070e565b600180547fffffffffffffffffffffff00ffffffffffffffffffffffffffffffffffffffff8116740100000000000000000000000000000000000000009182900460ff1615909102179055565b6001546001600160a01b031633146109f95760405162461bcd60e51b815260206004820152600b60248201526a1393d517d0531313d5d15160aa1b604482015260640161070e565b6000828152600260205260409020600701548111610a595760405162461bcd60e51b815260206004820152600a60248201527f4241445f45585049525900000000000000000000000000000000000000000000604482015260640161070e565b60009182526002602052604090912060070155565b600081815260026020908152604091829020600301805483518184028101840190945280845260609392830182828015610ac757602002820191906000526020600020905b815481526020019060010190808311610ab3575b50505050509050919050565b6001546001600160a01b03163314610b1b5760405162461bcd60e51b815260206004820152600b60248201526a1393d517d0531313d5d15160aa1b604482015260640161070e565b600091825260026020908152604083206003018054600181018255908452922090910155565b6001546001600160a01b03163314610b895760405162461bcd60e51b815260206004820152600b60248201526a1393d517d0531313d5d15160aa1b604482015260640161070e565b600091825260026020819052604090922090910155565b6001546001600160a01b03163314610be85760405162461bcd60e51b815260206004820152600b60248201526a1393d517d0531313d5d15160aa1b604482015260640161070e565b600083815260026020818152604080842060ff8716855260018101835290842080547fffffffffffffffffffffffff00000000000000000000000000000000000000001690559286905252805482908110610c4557610c45611342565b90600052602060002090602091828204019190066101000a81549060ff0219169055505050565b6001546001600160a01b03163314610cb45760405162461bcd60e51b815260206004820152600b60248201526a1393d517d0531313d5d15160aa1b604482015260640161070e565b600092835260026020908152604080852060ff9390931685526001909201905290912080547fffffffffffffffffffffffff0000000000000000000000000000000000000000166001600160a01b03909216919091179055565b6001546001600160a01b03163314610d565760405162461bcd60e51b815260206004820152600b60248201526a1393d517d0531313d5d15160aa1b604482015260640161070e565b600092835260026020908152604080852080546001818101835582885284882085830401805460ff978816601f9094166101000a8481029802191696909617909555865292909201905290912080546001600160a01b039092167fffffffffffffffffffffffff0000000000000000000000000000000000000000909216919091179055565b6001546001600160a01b03163314610e245760405162461bcd60e51b815260206004820152600b60248201526a1393d517d0531313d5d15160aa1b604482015260640161070e565b6000828152600260205260409020600301805482908110610e4757610e47611342565b60009182526020822001555050565b6001546001600160a01b03163314610e9e5760405162461bcd60e51b815260206004820152600b60248201526a1393d517d0531313d5d15160aa1b604482015260640161070e565b600091825260026020526040909120600601805491151574010000000000000000000000000000000000000000027fffffffffffffffffffffff00ffffffffffffffffffffffffffffffffffffffff909216919091179055565b6001546001600160a01b03163314610f405760405162461bcd60e51b815260206004820152600b60248201526a1393d517d0531313d5d15160aa1b604482015260640161070e565b60009182526002602052604090912060060180547fffffffffffffffffffffffff0000000000000000000000000000000000000000166001600160a01b03909216919091179055565b6001546001600160a01b03163314610fd15760405162461bcd60e51b815260206004820152600b60248201526a1393d517d0531313d5d15160aa1b604482015260640161070e565b60009182526002602052604090912060040155565b6000546001600160a01b031633146110405760405162461bcd60e51b815260206004820152600760248201527f4e4f545f44455600000000000000000000000000000000000000000000000000604482015260640161070e565b600080546040516001600160a01b03808516939216917f8be0079c531659141344cd1fd0a4f28419497f9722a3daafe3b4186f6b6457e091a3600080547fffffffffffffffffffffffff0000000000000000000000000000000000000000166001600160a01b0392909216919091179055565b50805460008255601f01602090049060005260206000209081019061090791905b808211156110e857600081556001016110d4565b5090565b6000602082840312156110fe57600080fd5b5035919050565b604080825283519082018190526000906020906060840190828701845b8281101561114157815160ff1684529284019290840190600101611122565b5050508381038285015284518082528583019183019060005b8181101561117f5783516001600160a01b03168352928401929184019160010161115a565b5090979650505050505050565b80356001600160a01b03811681146111a357600080fd5b919050565b600080604083850312156111bb57600080fd5b823591506111cb6020840161118c565b90509250929050565b6000602082840312156111e657600080fd5b6111ef8261118c565b9392505050565b6000806040838503121561120957600080fd5b50508035926020909101359150565b6020808252825182820181905260009190848201906040850190845b8181101561125057835183529284019291840191600101611234565b50909695505050505050565b803560ff811681146111a357600080fd5b60008060006060848603121561128257600080fd5b833592506112926020850161125c565b9150604084013590509250925092565b6000806000606084860312156112b757600080fd5b833592506112c76020850161118c565b91506112d56040850161125c565b90509250925092565b600080604083850312156112f157600080fd5b823591506020830135801515811461130857600080fd5b809150509250929050565b7f4e487b7100000000000000000000000000000000000000000000000000000000600052604160045260246000fd5b7f4e487b7100000000000000000000000000000000000000000000000000000000600052603260045260246000fd5b60007fffffffffffffffffffffffffffffffffffffffffffffffffffffffffffffffff82036113c9577f4e487b7100000000000000000000000000000000000000000000000000000000600052601160045260246000fd5b506001019056fea26469706673582212205027d7392a200c26f22c15f4a831ca4c509b5b790d1ff3c81ba50d13675e5d7b64736f6c63430008100033",
    "linkReferences": {}
  },
  "methodIdentifiers": {
    "Dev()": "01e51ae8",
    "Molecules(bytes32)": "af6328f6",
    "Registry()": "7db9743b",
    "active()": "02fb0c5e",
    "addAnion(bytes32,bytes32)": "6ff24830",
    "anions(bytes32)": "622dad7f",
    "cation(bytes32)": "f61ccd53",
    "controller(bytes32)": "dbd4e021",
    "covalence(bytes32)": "34026859",
    "expiry(bytes32)": "d2ec5fca",
    "hook(bytes32,address,uint8)": "849a799c",
    "hooksWithRules(bytes32)": "0aac6625",
    "label(bytes32)": "1fc4859e",
    "owner()": "8da5cb5b",
    "popAnion(bytes32,uint256)": "90072f97",
    "rehook(bytes32,address,uint8)": "83669726",
    "resolver(bytes32)": "0178b8bf",
    "setCation(bytes32,bytes32)": "8146970a",
    "setConfig(address)": "20e3dbd4",
    "setController(bytes32,address)": "d3156905",
    "setCovalence(bytes32,bool)": "d07699aa",
    "setExpiry(bytes32,uint256)": "39de6469",
    "setLabel(bytes32,bytes32)": "deee4da9",
    "setResolver(bytes32,address)": "1896f70a",
    "toggleActive()": "29c68dc1",
    "transferOwnership(address)": "f2fde38b",
    "unhook(bytes32,uint8,uint256)": "833fda08",
    "unhookAll(bytes32)": "21ec2b5b"
  },
  "id": 23
}