{
  "abi": [
    {
      "inputs": [
        {
          "internalType": "address",
          "name": "_registry",
          "type": "address"
        },
        {
          "internalType": "address",
          "name": "_helix2",
          "type": "address"
        }
      ],
      "stateMutability": "nonpayable",
      "type": "constructor"
    },
    {
      "inputs": [],
      "name": "CannotBurn",
      "type": "error"
    },
    {
      "inputs": [
        {
          "internalType": "address",
          "name": "to",
          "type": "address"
        }
      ],
      "name": "ERC721IncompatibleReceiver",
      "type": "error"
    },
    {
      "inputs": [
        {
          "internalType": "address",
          "name": "_dev",
          "type": "address"
        },
        {
          "internalType": "address",
          "name": "_you",
          "type": "address"
        }
      ],
      "name": "OnlyDev",
      "type": "error"
    },
    {
      "inputs": [
        {
          "internalType": "address",
          "name": "operator",
          "type": "address"
        },
        {
          "internalType": "address",
          "name": "owner",
          "type": "address"
        },
        {
          "internalType": "uint256",
          "name": "tokenID",
          "type": "uint256"
        }
      ],
      "name": "Unauthorized",
      "type": "error"
    },
    {
      "anonymous": false,
      "inputs": [
        {
          "indexed": true,
          "internalType": "address",
          "name": "owner",
          "type": "address"
        },
        {
          "indexed": true,
          "internalType": "address",
          "name": "spender",
          "type": "address"
        },
        {
          "indexed": true,
          "internalType": "uint256",
          "name": "tokenID",
          "type": "uint256"
        }
      ],
      "name": "Approval",
      "type": "event"
    },
    {
      "anonymous": false,
      "inputs": [
        {
          "indexed": true,
          "internalType": "address",
          "name": "owner",
          "type": "address"
        },
        {
          "indexed": true,
          "internalType": "address",
          "name": "operator",
          "type": "address"
        },
        {
          "indexed": false,
          "internalType": "bool",
          "name": "approved",
          "type": "bool"
        }
      ],
      "name": "ApprovalForAll",
      "type": "event"
    },
    {
      "anonymous": false,
      "inputs": [
        {
          "indexed": false,
          "internalType": "address",
          "name": "Dev",
          "type": "address"
        },
        {
          "indexed": false,
          "internalType": "address",
          "name": "newDev",
          "type": "address"
        }
      ],
      "name": "NewDev",
      "type": "event"
    },
    {
      "anonymous": false,
      "inputs": [
        {
          "indexed": false,
          "internalType": "string",
          "name": "service",
          "type": "string"
        },
        {
          "indexed": true,
          "internalType": "bytes32",
          "name": "namehash",
          "type": "bytes32"
        },
        {
          "indexed": false,
          "internalType": "address",
          "name": "owner",
          "type": "address"
        }
      ],
      "name": "NewImport",
      "type": "event"
    },
    {
      "anonymous": false,
      "inputs": [
        {
          "indexed": false,
          "internalType": "string",
          "name": "label",
          "type": "string"
        },
        {
          "indexed": true,
          "internalType": "bytes32",
          "name": "namehash",
          "type": "bytes32"
        },
        {
          "indexed": false,
          "internalType": "address",
          "name": "owner",
          "type": "address"
        }
      ],
      "name": "NewName",
      "type": "event"
    },
    {
      "anonymous": false,
      "inputs": [
        {
          "indexed": true,
          "internalType": "address",
          "name": "from",
          "type": "address"
        },
        {
          "indexed": true,
          "internalType": "address",
          "name": "to",
          "type": "address"
        },
        {
          "indexed": true,
          "internalType": "uint256",
          "name": "tokenID",
          "type": "uint256"
        }
      ],
      "name": "Transfer",
      "type": "event"
    },
    {
      "inputs": [],
      "name": "Dev",
      "outputs": [
        {
          "internalType": "address",
          "name": "",
          "type": "address"
        }
      ],
      "stateMutability": "view",
      "type": "function"
    },
    {
      "inputs": [],
      "name": "ENS",
      "outputs": [
        {
          "internalType": "contract iENS",
          "name": "",
          "type": "address"
        }
      ],
      "stateMutability": "view",
      "type": "function"
    },
    {
      "inputs": [],
      "name": "HELIX2",
      "outputs": [
        {
          "internalType": "contract iHELIX2",
          "name": "",
          "type": "address"
        }
      ],
      "stateMutability": "view",
      "type": "function"
    },
    {
      "inputs": [],
      "name": "NAMES",
      "outputs": [
        {
          "internalType": "contract iNAME",
          "name": "",
          "type": "address"
        }
      ],
      "stateMutability": "view",
      "type": "function"
    },
    {
      "inputs": [],
      "name": "active",
      "outputs": [
        {
          "internalType": "bool",
          "name": "",
          "type": "bool"
        }
      ],
      "stateMutability": "view",
      "type": "function"
    },
    {
      "inputs": [
        {
          "internalType": "address",
          "name": "operator",
          "type": "address"
        },
        {
          "internalType": "uint256",
          "name": "tokenID",
          "type": "uint256"
        }
      ],
      "name": "approve",
      "outputs": [],
      "stateMutability": "nonpayable",
      "type": "function"
    },
    {
      "inputs": [
        {
          "internalType": "address",
          "name": "wallet",
          "type": "address"
        }
      ],
      "name": "balanceOf",
      "outputs": [
        {
          "internalType": "uint256",
          "name": "",
          "type": "uint256"
        }
      ],
      "stateMutability": "view",
      "type": "function"
    },
    {
      "inputs": [],
      "name": "basePrice",
      "outputs": [
        {
          "internalType": "uint256",
          "name": "",
          "type": "uint256"
        }
      ],
      "stateMutability": "view",
      "type": "function"
    },
    {
      "inputs": [
        {
          "internalType": "address",
          "name": "newDev",
          "type": "address"
        }
      ],
      "name": "changeDev",
      "outputs": [],
      "stateMutability": "nonpayable",
      "type": "function"
    },
    {
      "inputs": [
        {
          "internalType": "bytes32",
          "name": "node",
          "type": "bytes32"
        },
        {
          "internalType": "uint256",
          "name": "lifespan",
          "type": "uint256"
        }
      ],
      "name": "claimENS",
      "outputs": [
        {
          "internalType": "bytes32",
          "name": "",
          "type": "bytes32"
        }
      ],
      "stateMutability": "payable",
      "type": "function"
    },
    {
      "inputs": [],
      "name": "defaultLifespan",
      "outputs": [
        {
          "internalType": "uint256",
          "name": "",
          "type": "uint256"
        }
      ],
      "stateMutability": "view",
      "type": "function"
    },
    {
      "inputs": [],
      "name": "defaultResolver",
      "outputs": [
        {
          "internalType": "address",
          "name": "",
          "type": "address"
        }
      ],
      "stateMutability": "view",
      "type": "function"
    },
    {
      "inputs": [
        {
          "internalType": "uint256",
          "name": "",
          "type": "uint256"
        }
      ],
      "name": "illegalBlocks",
      "outputs": [
        {
          "internalType": "string",
          "name": "",
          "type": "string"
        }
      ],
      "stateMutability": "view",
      "type": "function"
    },
    {
      "inputs": [
        {
          "internalType": "address",
          "name": "",
          "type": "address"
        },
        {
          "internalType": "address",
          "name": "",
          "type": "address"
        }
      ],
      "name": "isApprovedForAll",
      "outputs": [
        {
          "internalType": "bool",
          "name": "",
          "type": "bool"
        }
      ],
      "stateMutability": "view",
      "type": "function"
    },
    {
      "inputs": [],
      "name": "name",
      "outputs": [
        {
          "internalType": "string",
          "name": "",
          "type": "string"
        }
      ],
      "stateMutability": "view",
      "type": "function"
    },
    {
      "inputs": [
        {
          "internalType": "string",
          "name": "label",
          "type": "string"
        },
        {
          "internalType": "address",
          "name": "owner",
          "type": "address"
        },
        {
          "internalType": "uint256",
          "name": "lifespan",
          "type": "uint256"
        }
      ],
      "name": "newName",
      "outputs": [
        {
          "internalType": "bytes32",
          "name": "",
          "type": "bytes32"
        }
      ],
      "stateMutability": "payable",
      "type": "function"
    },
    {
      "inputs": [
        {
          "internalType": "uint256",
          "name": "tokenID",
          "type": "uint256"
        }
      ],
      "name": "ownerOf",
      "outputs": [
        {
          "internalType": "address",
          "name": "",
          "type": "address"
        }
      ],
      "stateMutability": "view",
      "type": "function"
    },
    {
      "inputs": [],
      "name": "roothash",
      "outputs": [
        {
          "internalType": "bytes32",
          "name": "",
          "type": "bytes32"
        }
      ],
      "stateMutability": "view",
      "type": "function"
    },
    {
      "inputs": [
        {
          "internalType": "address",
          "name": "from",
          "type": "address"
        },
        {
          "internalType": "address",
          "name": "to",
          "type": "address"
        },
        {
          "internalType": "uint256",
          "name": "tokenID",
          "type": "uint256"
        }
      ],
      "name": "safeTransferFrom",
      "outputs": [],
      "stateMutability": "nonpayable",
      "type": "function"
    },
    {
      "inputs": [
        {
          "internalType": "address",
          "name": "from",
          "type": "address"
        },
        {
          "internalType": "address",
          "name": "to",
          "type": "address"
        },
        {
          "internalType": "uint256",
          "name": "tokenID",
          "type": "uint256"
        },
        {
          "internalType": "bytes",
          "name": "data",
          "type": "bytes"
        }
      ],
      "name": "safeTransferFrom",
      "outputs": [],
      "stateMutability": "nonpayable",
      "type": "function"
    },
    {
      "inputs": [
        {
          "internalType": "address",
          "name": "operator",
          "type": "address"
        },
        {
          "internalType": "bool",
          "name": "flag",
          "type": "bool"
        }
      ],
      "name": "setApprovalForAll",
      "outputs": [],
      "stateMutability": "nonpayable",
      "type": "function"
    },
    {
      "inputs": [
        {
          "internalType": "address",
          "name": "wallet",
          "type": "address"
        },
        {
          "internalType": "uint256",
          "name": "balance",
          "type": "uint256"
        }
      ],
      "name": "setBalance",
      "outputs": [],
      "stateMutability": "nonpayable",
      "type": "function"
    },
    {
      "inputs": [
        {
          "internalType": "uint256",
          "name": "_lifespan",
          "type": "uint256"
        }
      ],
      "name": "setDefaultLifespan",
      "outputs": [],
      "stateMutability": "nonpayable",
      "type": "function"
    },
    {
      "inputs": [
        {
          "internalType": "address",
          "name": "_resolver",
          "type": "address"
        }
      ],
      "name": "setDefaultResolver",
      "outputs": [],
      "stateMutability": "nonpayable",
      "type": "function"
    },
    {
      "inputs": [],
      "name": "sizeLimit",
      "outputs": [
        {
          "internalType": "uint256",
          "name": "",
          "type": "uint256"
        }
      ],
      "stateMutability": "view",
      "type": "function"
    },
    {
      "inputs": [],
      "name": "symbol",
      "outputs": [
        {
          "internalType": "string",
          "name": "",
          "type": "string"
        }
      ],
      "stateMutability": "view",
      "type": "function"
    },
    {
      "inputs": [],
      "name": "toggleActive",
      "outputs": [],
      "stateMutability": "nonpayable",
      "type": "function"
    },
    {
      "inputs": [
        {
          "internalType": "address",
          "name": "from",
          "type": "address"
        },
        {
          "internalType": "address",
          "name": "to",
          "type": "address"
        },
        {
          "internalType": "uint256",
          "name": "tokenID",
          "type": "uint256"
        }
      ],
      "name": "transferFrom",
      "outputs": [],
      "stateMutability": "nonpayable",
      "type": "function"
    }
  ],
  "bytecode": {
    "object": "0x60806040526004805460ff60a01b1916600160a01b1790553480156200002457600080fd5b5060405162002f8938038062002f8983398101604081905262000047916200045e565b60008054336001600160a01b0319918216179091556001805482166001600160a01b03858116919091179091556003805490921690831690811790915560408051632f68079560e01b81529051632f680795916004808201926020929091908290030181865afa158015620000c0573d6000803e3d6000fd5b505050506040513d601f19601f82011682018060405250810190620000e6919062000496565b600280546001600160a01b0319166001600160a01b039283161790556003546040805163bd9a548b60e01b81529051919092169163bd9a548b9160048083019260809291908290030181865afa15801562000145573d6000803e3d6000fd5b505050506040513d601f19601f820116820180604052508101906200016b91906200052f565b516009556003546040805163335076e760e11b815290516001600160a01b03909216916366a0edce916004808201926080929091908290030181865afa158015620001ba573d6000803e3d6000fd5b505050506040513d601f19601f82011682018060405250810190620001e091906200052f565b51600a5560035460408051637615671560e11b815290516001600160a01b039092169163ec2ace2a916004808201926080929091908290030181865afa1580156200022f573d6000803e3d6000fd5b505050506040513d601f19601f820116820180604052508101906200025591906200052f565b51600855600354604080516330b5337f60e21b815290516001600160a01b039092169163c2d4cdfc916004808201926000929091908290030181865afa158015620002a4573d6000803e3d6000fd5b505050506040513d6000823e601f3d908101601f19168201604052620002ce919081019062000596565b620002de90600c90600462000377565b50600360009054906101000a90046001600160a01b03166001600160a01b031663642a8ed66040518163ffffffff1660e01b8152600401608060405180830381865afa15801562000333573d6000803e3d6000fd5b505050506040513d601f19601f820116820180604052508101906200035991906200052f565b51600b555050600080546001600160a01b0319163317905562000806565b8260048101928215620003b5579160200282015b82811115620003b55782518290620003a490826200073a565b50916020019190600101906200038b565b50620003c3929150620003c7565b5090565b80821115620003c3576000620003de8282620003e8565b50600101620003c7565b508054620003f690620006ab565b6000825580601f1062000407575050565b601f0160209004906000526020600020908101906200042791906200042a565b50565b5b80821115620003c357600081556001016200042b565b80516001600160a01b03811681146200045957600080fd5b919050565b600080604083850312156200047257600080fd5b6200047d8362000441565b91506200048d6020840162000441565b90509250929050565b600060208284031215620004a957600080fd5b620004b48262000441565b9392505050565b634e487b7160e01b600052604160045260246000fd5b604051608081016001600160401b0381118282101715620004f657620004f6620004bb565b60405290565b604051601f8201601f191681016001600160401b0381118282101715620005275762000527620004bb565b604052919050565b6000608082840312156200054257600080fd5b82601f8301126200055257600080fd5b6200055c620004d1565b8060808401858111156200056f57600080fd5b845b818110156200058b57805184526020938401930162000571565b509095945050505050565b60006020808385031215620005aa57600080fd5b82516001600160401b0380821115620005c257600080fd5b8185019150601f8681840112620005d857600080fd5b620005e2620004d1565b806080850189811115620005f557600080fd5b855b818110156200069c57805186811115620006115760008081fd5b87018581018c13620006235760008081fd5b805187811115620006385762000638620004bb565b6200064b818801601f19168b01620004fc565b8181528d8b838501011115620006615760008081fd5b60005b8281101562000681578381018c01518282018d01528b0162000664565b5060009181018b0191909152855250928701928701620005f7565b50909998505050505050505050565b600181811c90821680620006c057607f821691505b602082108103620006e157634e487b7160e01b600052602260045260246000fd5b50919050565b601f8211156200073557600081815260208120601f850160051c81016020861015620007105750805b601f850160051c820191505b8181101562000731578281556001016200071c565b5050505b505050565b81516001600160401b03811115620007565762000756620004bb565b6200076e81620007678454620006ab565b84620006e7565b602080601f831160018114620007a657600084156200078d5750858301515b600019600386901b1c1916600185901b17855562000731565b600085815260208120601f198616915b82811015620007d757888601518255948401946001909101908401620007b6565b5085821015620007f65787850151600019600388901b60f8161c191681555b5050505050600190811b01905550565b61277380620008166000396000f3fe6080604052600436106101b75760003560e01c806370a08231116100ec578063ab6d85a91161008a578063c66485b211610064578063c66485b21461051d578063c7876ea41461053d578063e30443bc14610553578063e985e9c51461057357600080fd5b8063ab6d85a9146104ca578063b782426e146104dd578063b88d4fde146104fd57600080fd5b8063828eab0e116100c6578063828eab0e1461042157806388a8c95c1461044157806395d89b4114610461578063a22cb465146104aa57600080fd5b806370a08231146103b85780637f9348aa146103ee57806380b29beb1461040157600080fd5b8063210fd2711161015957806329c68dc11161013357806329c68dc114610363578063395063081461037857806342842e0e1461032d5780636352211e1461039857600080fd5b8063210fd2711461031757806323b872dd1461032d578063251c94221461034d57600080fd5b806306fdde031161019557806306fdde031461025b578063095ea7b3146102b15780630e6c0bdb146102d35780631d2e2cc4146102f757600080fd5b806301e51ae8146101bc57806302fb0c5e146101f957806305e84aa01461023b575b600080fd5b3480156101c857600080fd5b506000546101dc906001600160a01b031681565b6040516001600160a01b0390911681526020015b60405180910390f35b34801561020557600080fd5b5060045461022b9074010000000000000000000000000000000000000000900460ff1681565b60405190151581526020016101f0565b34801561024757600080fd5b506001546101dc906001600160a01b031681565b34801561026757600080fd5b506102a46040518060400160405280601381526020017f48656c697832204e616d6520536572766963650000000000000000000000000081525081565b6040516101f091906120ce565b3480156102bd57600080fd5b506102d16102cc366004612100565b6105ae565b005b3480156102df57600080fd5b506102e960085481565b6040519081526020016101f0565b34801561030357600080fd5b506002546101dc906001600160a01b031681565b34801561032357600080fd5b506102e9600a5481565b34801561033957600080fd5b506102d161034836600461212c565b6108fb565b34801561035957600080fd5b506102e9600b5481565b34801561036f57600080fd5b506102d161091b565b34801561038457600080fd5b506102d161039336600461216d565b6109c1565b3480156103a457600080fd5b506101dc6103b336600461216d565b610a1f565b3480156103c457600080fd5b506102e96103d3366004612186565b6001600160a01b031660009081526005602052604090205490565b6102e96103fc366004612248565b610b87565b34801561040d57600080fd5b506102a461041c36600461216d565b611239565b34801561042d57600080fd5b506004546101dc906001600160a01b031681565b34801561044d57600080fd5b506102d161045c366004612186565b6112d9565b34801561046d57600080fd5b506102a46040518060400160405280600381526020017f484e53000000000000000000000000000000000000000000000000000000000081525081565b3480156104b657600080fd5b506102d16104c53660046122b3565b6113b3565b6102e96104d83660046122ec565b61143d565b3480156104e957600080fd5b506003546101dc906001600160a01b031681565b34801561050957600080fd5b506102d161051836600461230e565b611a52565b34801561052957600080fd5b506102d1610538366004612186565b611a64565b34801561054957600080fd5b506102e960095481565b34801561055f57600080fd5b506102d161056e366004612100565b611af7565b34801561057f57600080fd5b5061022b61058e36600461238e565b600660209081526000928352604080842090915290825290205460ff1681565b6001546040517fd2ec5fca0000000000000000000000000000000000000000000000000000000081526004810183905282916001600160a01b03169063d2ec5fca90602401602060405180830381865afa158015610610573d6000803e3d6000fd5b505050506040513d601f19601f8201168201806040525081019061063491906123bc565b42106106875760405162461bcd60e51b815260206004820152600f60248201527f494e56414c49445f544f4b454e4944000000000000000000000000000000000060448201526064015b60405180910390fd5b6001546040517f02571be3000000000000000000000000000000000000000000000000000000008152600481018390526000916001600160a01b0316906302571be390602401602060405180830381865afa1580156106ea573d6000803e3d6000fd5b505050506040513d601f19601f8201168201806040525081019061070e91906123d5565b6001546040517fdbd4e021000000000000000000000000000000000000000000000000000000008152600481018590529192506000916001600160a01b039091169063dbd4e02190602401602060405180830381865afa158015610776573d6000803e3d6000fd5b505050506040513d601f19601f8201168201806040525081019061079a91906123d5565b9050336001600160a01b038316148015906107be5750336001600160a01b03821614155b80156107ee57506001600160a01b038216600090815260066020908152604080832033845290915290205460ff16155b1561083d576040517f431ef6160000000000000000000000000000000000000000000000000000000081523360048201526001600160a01b03831660248201526044810185905260640161067e565b6001546040517f01d49a5f000000000000000000000000000000000000000000000000000000008152600481018690526001600160a01b038781166024830152909116906301d49a5f90604401600060405180830381600087803b1580156108a457600080fd5b505af11580156108b8573d6000803e3d6000fd5b50506040518692506001600160a01b038816915033907f8c5be1e5ebec7d5bd14f71427d1e84f3dd0314c0f7b2291e5b200ac8c7c3b92590600090a45050505050565b61091683838360405180602001604052806000815250611be2565b505050565b6000546001600160a01b03163314610974576000546040517f8ea458f60000000000000000000000000000000000000000000000000000000081526001600160a01b03909116600482015233602482015260440161067e565b600480547fffffffffffffffffffffff00ffffffffffffffffffffffffffffffffffffffff8116740100000000000000000000000000000000000000009182900460ff1615909102179055565b6000546001600160a01b03163314610a1a576000546040517f8ea458f60000000000000000000000000000000000000000000000000000000081526001600160a01b03909116600482015233602482015260440161067e565b600855565b6001546040517fd2ec5fca0000000000000000000000000000000000000000000000000000000081526004810183905260009183916001600160a01b039091169063d2ec5fca90602401602060405180830381865afa158015610a86573d6000803e3d6000fd5b505050506040513d601f19601f82011682018060405250810190610aaa91906123bc565b4210610af85760405162461bcd60e51b815260206004820152600f60248201527f494e56414c49445f544f4b454e49440000000000000000000000000000000000604482015260640161067e565b6001546040517f02571be3000000000000000000000000000000000000000000000000000000008152600481018390526000916001600160a01b0316906302571be390602401602060405180830381865afa158015610b5b573d6000803e3d6000fd5b505050506040513d601f19601f82011682018060405250810190610b7f91906123d5565b949350505050565b600083600a54815110610bdc5760405162461bcd60e51b815260206004820152600d60248201527f494c4c4547414c5f4c4142454c00000000000000000000000000000000000000604482015260640161067e565b6040517fa6470fd600000000000000000000000000000000000000000000000000000000815273__$47e4ffaaf323c41735ff299f8946896ce0$__9063a6470fd690610c2f908490600c90600401612445565b602060405180830381865af4158015610c4c573d6000803e3d6000fd5b505050506040513d601f19601f82011682018060405250810190610c709190612573565b15610cbd5760405162461bcd60e51b815260206004820152600d60248201527f494c4c4547414c5f434841525300000000000000000000000000000000000000604482015260640161067e565b6001600160a01b038416610d135760405162461bcd60e51b815260206004820152600b60248201527f43414e4e4f545f4255524e000000000000000000000000000000000000000000604482015260640161067e565b600854831015610d655760405162461bcd60e51b815260206004820152601260248201527f4c4946455350414e5f544f4f5f53484f52540000000000000000000000000000604482015260640161067e565b82600954610d7391906125bf565b341015610dc25760405162461bcd60e51b815260206004820152601260248201527f494e53554646494349454e545f45544845520000000000000000000000000000604482015260640161067e565b600085604051602001610dd591906125de565b60408051601f198184030181528282528051602091820120600b54918401529082015260600160408051808303601f190181529082905280516020909101206001547ff79fe538000000000000000000000000000000000000000000000000000000008352600483018290529092506001600160a01b03169063f79fe53890602401602060405180830381865afa158015610e74573d6000803e3d6000fd5b505050506040513d601f19601f82011682018060405250810190610e989190612573565b15610ee55760405162461bcd60e51b815260206004820152600b60248201527f4e414d455f455849535453000000000000000000000000000000000000000000604482015260640161067e565b6001546040517f02571be3000000000000000000000000000000000000000000000000000000008152600481018390526000916001600160a01b0316906302571be390602401602060405180830381865afa158015610f48573d6000803e3d6000fd5b505050506040513d601f19601f82011682018060405250810190610f6c91906123d5565b90506001600160a01b03811615610fc8576001600160a01b0381166000818152600560205260408082208054600019019055518492907fddf252ad1be2c89b69c2b068fc378daa952ba7f163c4a11628f55a4df523b3ef908390a45b6001546040517fd22057a9000000000000000000000000000000000000000000000000000000008152600481018490526001600160a01b0388811660248301529091169063d22057a990604401600060405180830381600087803b15801561102f57600080fd5b505af1158015611043573d6000803e3d6000fd5b50506001546040517fd3156905000000000000000000000000000000000000000000000000000000008152600481018690526001600160a01b038a81166024830152909116925063d31569059150604401600060405180830381600087803b1580156110ae57600080fd5b505af11580156110c2573d6000803e3d6000fd5b50506001546001600160a01b031691506339de64699050836110e488426125fa565b6040517fffffffff0000000000000000000000000000000000000000000000000000000060e085901b16815260048101929092526024820152604401600060405180830381600087803b15801561113a57600080fd5b505af115801561114e573d6000803e3d6000fd5b5050600154600480546040517f1896f70a0000000000000000000000000000000000000000000000000000000081529182018790526001600160a01b0390811660248301529091169250631896f70a9150604401600060405180830381600087803b1580156111bc57600080fd5b505af11580156111d0573d6000803e3d6000fd5b5050506001600160a01b0387166000908152600560205260409081902080546001019055518391507fb9bdfe1c95ffbd6ad8dd9fdb4f9e84980778dba776352729b1dad4a85a22770d90611227908a908a9061260d565b60405180910390a25095945050505050565b600c816004811061124957600080fd5b018054909150611258906123f2565b80601f0160208091040260200160405190810160405280929190818152602001828054611284906123f2565b80156112d15780601f106112a6576101008083540402835291602001916112d1565b820191906000526020600020905b8154815290600101906020018083116112b457829003601f168201915b505050505081565b6000546001600160a01b03163314611332576000546040517f8ea458f60000000000000000000000000000000000000000000000000000000081526001600160a01b03909116600482015233602482015260440161067e565b600054604080516001600160a01b03928316815291831660208301527fdec101f106d4fc7c85791843e64b198248c822298e3ed7046231d33f7783d816910160405180910390a1600080547fffffffffffffffffffffffff0000000000000000000000000000000000000000166001600160a01b0392909216919091179055565b3360008181526006602090815260408083206001600160a01b0387168085529083529281902080547fffffffffffffffffffffffffffffffffffffffffffffffffffffffffffffff001686151590811790915590519081529192917f17307eab39ab6107e8899845ad3d59bd9653f200f220920489ca2b5937696c31910160405180910390a35050565b6002546040517f02571be3000000000000000000000000000000000000000000000000000000008152600481018490526000916001600160a01b0316906302571be390602401602060405180830381865afa1580156114a0573d6000803e3d6000fd5b505050506040513d601f19601f820116820180604052508101906114c491906123d5565b6001600160a01b0316336001600160a01b0316146115245760405162461bcd60e51b815260206004820152600d60248201527f4e4f545f454e535f4f574e455200000000000000000000000000000000000000604482015260640161067e565b6008548210156115765760405162461bcd60e51b815260206004820152601260248201527f4c4946455350414e5f544f4f5f53484f52540000000000000000000000000000604482015260640161067e565b8160095461158491906125bf565b3410156115d35760405162461bcd60e51b815260206004820152601260248201527f494e53554646494349454e545f45544845520000000000000000000000000000604482015260640161067e565b600083600b546040516020016115f3929190918252602082015260400190565b60408051808303601f190181529082905280516020909101206001547ff79fe538000000000000000000000000000000000000000000000000000000008352600483018290529092506001600160a01b03169063f79fe53890602401602060405180830381865afa15801561166c573d6000803e3d6000fd5b505050506040513d601f19601f820116820180604052508101906116909190612573565b156116dd5760405162461bcd60e51b815260206004820152600b60248201527f4e414d455f455849535453000000000000000000000000000000000000000000604482015260640161067e565b6001546040517f02571be3000000000000000000000000000000000000000000000000000000008152600481018390526000916001600160a01b0316906302571be390602401602060405180830381865afa158015611740573d6000803e3d6000fd5b505050506040513d601f19601f8201168201806040525081019061176491906123d5565b90506001600160a01b038116156117c0576001600160a01b0381166000818152600560205260408082208054600019019055518492907fddf252ad1be2c89b69c2b068fc378daa952ba7f163c4a11628f55a4df523b3ef908390a45b6001546040517fd22057a9000000000000000000000000000000000000000000000000000000008152600481018490523360248201526001600160a01b039091169063d22057a990604401600060405180830381600087803b15801561182557600080fd5b505af1158015611839573d6000803e3d6000fd5b50506001546040517fd3156905000000000000000000000000000000000000000000000000000000008152600481018690523360248201526001600160a01b03909116925063d31569059150604401600060405180830381600087803b1580156118a257600080fd5b505af11580156118b6573d6000803e3d6000fd5b50506001546001600160a01b031691506339de64699050836118d887426125fa565b6040517fffffffff0000000000000000000000000000000000000000000000000000000060e085901b16815260048101929092526024820152604401600060405180830381600087803b15801561192e57600080fd5b505af1158015611942573d6000803e3d6000fd5b5050600154600480546040517f1896f70a0000000000000000000000000000000000000000000000000000000081529182018790526001600160a01b0390811660248301529091169250631896f70a9150604401600060405180830381600087803b1580156119b057600080fd5b505af11580156119c4573d6000803e3d6000fd5b5050336000818152600560209081526040918290208054600101905581518281526003818401527f454e530000000000000000000000000000000000000000000000000000000000606082015290810192909252518593507fce1a2148cd95f3bf0b404a6bb1c6ff192f0a03704c22eee44fcdecdd0013a54d92509081900360800190a25090505b92915050565b611a5e84848484611be2565b50505050565b6000546001600160a01b03163314611abd576000546040517f8ea458f60000000000000000000000000000000000000000000000000000000081526001600160a01b03909116600482015233602482015260440161067e565b600480547fffffffffffffffffffffffff0000000000000000000000000000000000000000166001600160a01b0392909216919091179055565b600360009054906101000a90046001600160a01b03166001600160a01b0316635ab1bd536040518163ffffffff1660e01b8152600401608060405180830381865afa158015611b4a573d6000803e3d6000fd5b505050506040513d601f19601f82011682018060405250810190611b6e9190612638565b516001600160a01b03163314611bc65760405162461bcd60e51b815260206004820152600c60248201527f4e4f545f52454749535452590000000000000000000000000000000000000000604482015260640161067e565b6001600160a01b03909116600090815260056020526040902055565b6001546040517fd2ec5fca0000000000000000000000000000000000000000000000000000000081526004810184905283916001600160a01b03169063d2ec5fca90602401602060405180830381865afa158015611c44573d6000803e3d6000fd5b505050506040513d601f19601f82011682018060405250810190611c6891906123bc565b4210611cb65760405162461bcd60e51b815260206004820152600f60248201527f494e56414c49445f544f4b454e49440000000000000000000000000000000000604482015260640161067e565b6001546040517f02571be3000000000000000000000000000000000000000000000000000000008152600481018390526000916001600160a01b0316906302571be390602401602060405180830381865afa158015611d19573d6000803e3d6000fd5b505050506040513d601f19601f82011682018060405250810190611d3d91906123d5565b90506001600160a01b038516611d7f576040517f5788079900000000000000000000000000000000000000000000000000000000815260040160405180910390fd5b856001600160a01b0316816001600160a01b031614611de4576040517f431ef6160000000000000000000000000000000000000000000000000000000081526001600160a01b038083166004830152871660248201526044810185905260640161067e565b336001600160a01b03821614611e3e576040517f431ef6160000000000000000000000000000000000000000000000000000000081523360048201526001600160a01b03871660248201526044810185905260640161067e565b6001546040517fbe22e756000000000000000000000000000000000000000000000000000000008152600481018690526001600160a01b0387811660248301529091169063be22e75690604401600060405180830381600087803b158015611ea557600080fd5b505af1158015611eb9573d6000803e3d6000fd5b5050506001600160a01b0380881660008181526005602052604080822080546000190190559289168082528382208054600101905592518894507fddf252ad1be2c89b69c2b068fc378daa952ba7f163c4a11628f55a4df523b3ef9190a46001600160a01b0385163b15612076576040517f150b7a020000000000000000000000000000000000000000000000000000000081526001600160a01b0386169063150b7a0290611f729033908a90899089906004016126bf565b6020604051808303816000875af1925050508015611fad575060408051601f3d908101601f19168201909252611faa918101906126fb565b60015b611fee576040517f3a9f8cb30000000000000000000000000000000000000000000000000000000081526001600160a01b038616600482015260240161067e565b7fffffffff0000000000000000000000000000000000000000000000000000000081167f150b7a020000000000000000000000000000000000000000000000000000000014612074576040517f3a9f8cb30000000000000000000000000000000000000000000000000000000081526001600160a01b038716600482015260240161067e565b505b505050505050565b60005b83811015612099578181015183820152602001612081565b50506000910152565b600081518084526120ba81602086016020860161207e565b601f01601f19169290920160200192915050565b6020815260006120e160208301846120a2565b9392505050565b6001600160a01b03811681146120fd57600080fd5b50565b6000806040838503121561211357600080fd5b823561211e816120e8565b946020939093013593505050565b60008060006060848603121561214157600080fd5b833561214c816120e8565b9250602084013561215c816120e8565b929592945050506040919091013590565b60006020828403121561217f57600080fd5b5035919050565b60006020828403121561219857600080fd5b81356120e1816120e8565b7f4e487b7100000000000000000000000000000000000000000000000000000000600052604160045260246000fd5b600067ffffffffffffffff808411156121ed576121ed6121a3565b604051601f8501601f19908116603f01168101908282118183101715612215576122156121a3565b8160405280935085815286868601111561222e57600080fd5b858560208301376000602087830101525050509392505050565b60008060006060848603121561225d57600080fd5b833567ffffffffffffffff81111561227457600080fd5b8401601f8101861361228557600080fd5b612294868235602084016121d2565b935050602084013561215c816120e8565b80151581146120fd57600080fd5b600080604083850312156122c657600080fd5b82356122d1816120e8565b915060208301356122e1816122a5565b809150509250929050565b600080604083850312156122ff57600080fd5b50508035926020909101359150565b6000806000806080858703121561232457600080fd5b843561232f816120e8565b9350602085013561233f816120e8565b925060408501359150606085013567ffffffffffffffff81111561236257600080fd5b8501601f8101871361237357600080fd5b612382878235602084016121d2565b91505092959194509250565b600080604083850312156123a157600080fd5b82356123ac816120e8565b915060208301356122e1816120e8565b6000602082840312156123ce57600080fd5b5051919050565b6000602082840312156123e757600080fd5b81516120e1816120e8565b600181811c9082168061240657607f821691505b60208210810361243f577f4e487b7100000000000000000000000000000000000000000000000000000000600052602260045260246000fd5b50919050565b60408152600061245860408301856120a2565b60208382038185015281829050608083018660005b600480821061247c5750612565565b86840385528254600090600181811c908083168061249b57607f831692505b8a831081036124d0577f4e487b7100000000000000000000000000000000000000000000000000000000855260228652602485fd5b8289526020890195508080156124ed57600181146125215761254c565b7fffffffffffffffffffffffffffffffffffffffffffffffffffffffffffffff008516875283151560051b8701955061254c565b60008981526020902060005b8581101561254657815489820152908401908d0161252d565b88019650505b505097890197929650505092909201915060010161246d565b509098975050505050505050565b60006020828403121561258557600080fd5b81516120e1816122a5565b7f4e487b7100000000000000000000000000000000000000000000000000000000600052601160045260246000fd5b60008160001904831182151516156125d9576125d9612590565b500290565b600082516125f081846020870161207e565b9190910192915050565b80820180821115611a4c57611a4c612590565b60408152600061262060408301856120a2565b90506001600160a01b03831660208301529392505050565b60006080828403121561264a57600080fd5b82601f83011261265957600080fd5b6040516080810181811067ffffffffffffffff8211171561267c5761267c6121a3565b60405280608084018581111561269157600080fd5b845b818110156126b45780516126a6816120e8565b835260209283019201612693565b509195945050505050565b60006001600160a01b038087168352808616602084015250836040830152608060608301526126f160808301846120a2565b9695505050505050565b60006020828403121561270d57600080fd5b81517fffffffff00000000000000000000000000000000000000000000000000000000811681146120e157600080fdfea26469706673582212204158da35350adb8319018bce4ad1a9934aa79dcb8fec045ac738f915d3ef49b264736f6c63430008100033",
    "linkReferences": {
      "src/Utils/LibString.sol": {
        "LibString": [
          {
            "start": 5146,
            "length": 20
          }
        ]
      }
    }
  },
  "methodIdentifiers": {
    "Dev()": "01e51ae8",
    "ENS()": "1d2e2cc4",
    "HELIX2()": "b782426e",
    "NAMES()": "05e84aa0",
    "active()": "02fb0c5e",
    "approve(address,uint256)": "095ea7b3",
    "balanceOf(address)": "70a08231",
    "basePrice()": "c7876ea4",
    "changeDev(address)": "88a8c95c",
    "claimENS(bytes32,uint256)": "ab6d85a9",
    "defaultLifespan()": "0e6c0bdb",
    "defaultResolver()": "828eab0e",
    "illegalBlocks(uint256)": "80b29beb",
    "isApprovedForAll(address,address)": "e985e9c5",
    "name()": "06fdde03",
    "newName(string,address,uint256)": "7f9348aa",
    "ownerOf(uint256)": "6352211e",
    "roothash()": "251c9422",
    "safeTransferFrom(address,address,uint256)": "42842e0e",
    "safeTransferFrom(address,address,uint256,bytes)": "b88d4fde",
    "setApprovalForAll(address,bool)": "a22cb465",
    "setBalance(address,uint256)": "e30443bc",
    "setDefaultLifespan(uint256)": "39506308",
    "setDefaultResolver(address)": "c66485b2",
    "sizeLimit()": "210fd271",
    "symbol()": "95d89b41",
    "toggleActive()": "29c68dc1",
    "transferFrom(address,address,uint256)": "23b872dd"
  },
  "id": 32
}