{
  "abi": [
    {
      "inputs": [
        {
          "internalType": "address",
          "name": "_registry",
          "type": "address"
        },
        {
          "internalType": "address",
          "name": "_helix2",
          "type": "address"
        }
      ],
      "stateMutability": "nonpayable",
      "type": "constructor"
    },
    {
      "inputs": [],
      "name": "CannotBurn",
      "type": "error"
    },
    {
      "inputs": [
        {
          "internalType": "address",
          "name": "to",
          "type": "address"
        }
      ],
      "name": "ERC721IncompatibleReceiver",
      "type": "error"
    },
    {
      "inputs": [
        {
          "internalType": "address",
          "name": "_dev",
          "type": "address"
        },
        {
          "internalType": "address",
          "name": "_you",
          "type": "address"
        }
      ],
      "name": "OnlyDev",
      "type": "error"
    },
    {
      "inputs": [
        {
          "internalType": "address",
          "name": "operator",
          "type": "address"
        },
        {
          "internalType": "address",
          "name": "owner",
          "type": "address"
        },
        {
          "internalType": "uint256",
          "name": "tokenID",
          "type": "uint256"
        }
      ],
      "name": "Unauthorized",
      "type": "error"
    },
    {
      "anonymous": false,
      "inputs": [
        {
          "indexed": true,
          "internalType": "address",
          "name": "owner",
          "type": "address"
        },
        {
          "indexed": true,
          "internalType": "address",
          "name": "spender",
          "type": "address"
        },
        {
          "indexed": true,
          "internalType": "uint256",
          "name": "tokenID",
          "type": "uint256"
        }
      ],
      "name": "Approval",
      "type": "event"
    },
    {
      "anonymous": false,
      "inputs": [
        {
          "indexed": true,
          "internalType": "address",
          "name": "owner",
          "type": "address"
        },
        {
          "indexed": true,
          "internalType": "address",
          "name": "operator",
          "type": "address"
        },
        {
          "indexed": false,
          "internalType": "bool",
          "name": "approved",
          "type": "bool"
        }
      ],
      "name": "ApprovalForAll",
      "type": "event"
    },
    {
      "anonymous": false,
      "inputs": [
        {
          "indexed": false,
          "internalType": "address",
          "name": "Dev",
          "type": "address"
        },
        {
          "indexed": false,
          "internalType": "address",
          "name": "newDev",
          "type": "address"
        }
      ],
      "name": "NewDev",
      "type": "event"
    },
    {
      "anonymous": false,
      "inputs": [
        {
          "indexed": true,
          "internalType": "bytes32",
          "name": "namehash",
          "type": "bytes32"
        },
        {
          "indexed": false,
          "internalType": "address",
          "name": "owner",
          "type": "address"
        }
      ],
      "name": "NewName",
      "type": "event"
    },
    {
      "anonymous": false,
      "inputs": [
        {
          "indexed": true,
          "internalType": "address",
          "name": "from",
          "type": "address"
        },
        {
          "indexed": true,
          "internalType": "address",
          "name": "to",
          "type": "address"
        },
        {
          "indexed": true,
          "internalType": "uint256",
          "name": "tokenID",
          "type": "uint256"
        }
      ],
      "name": "Transfer",
      "type": "event"
    },
    {
      "inputs": [],
      "name": "Dev",
      "outputs": [
        {
          "internalType": "address",
          "name": "",
          "type": "address"
        }
      ],
      "stateMutability": "view",
      "type": "function"
    },
    {
      "inputs": [],
      "name": "HELIX2",
      "outputs": [
        {
          "internalType": "contract iHELIX2",
          "name": "",
          "type": "address"
        }
      ],
      "stateMutability": "view",
      "type": "function"
    },
    {
      "inputs": [],
      "name": "NAMES",
      "outputs": [
        {
          "internalType": "contract iNAME",
          "name": "",
          "type": "address"
        }
      ],
      "stateMutability": "view",
      "type": "function"
    },
    {
      "inputs": [
        {
          "internalType": "uint256",
          "name": "",
          "type": "uint256"
        }
      ],
      "name": "_approved",
      "outputs": [
        {
          "internalType": "address",
          "name": "",
          "type": "address"
        }
      ],
      "stateMutability": "view",
      "type": "function"
    },
    {
      "inputs": [],
      "name": "active",
      "outputs": [
        {
          "internalType": "bool",
          "name": "",
          "type": "bool"
        }
      ],
      "stateMutability": "view",
      "type": "function"
    },
    {
      "inputs": [
        {
          "internalType": "address",
          "name": "controller",
          "type": "address"
        },
        {
          "internalType": "uint256",
          "name": "tokenID",
          "type": "uint256"
        }
      ],
      "name": "approve",
      "outputs": [],
      "stateMutability": "payable",
      "type": "function"
    },
    {
      "inputs": [
        {
          "internalType": "address",
          "name": "wallet",
          "type": "address"
        }
      ],
      "name": "balanceOf",
      "outputs": [
        {
          "internalType": "uint256",
          "name": "",
          "type": "uint256"
        }
      ],
      "stateMutability": "view",
      "type": "function"
    },
    {
      "inputs": [],
      "name": "basePrice",
      "outputs": [
        {
          "internalType": "uint256",
          "name": "",
          "type": "uint256"
        }
      ],
      "stateMutability": "view",
      "type": "function"
    },
    {
      "inputs": [
        {
          "internalType": "address",
          "name": "newDev",
          "type": "address"
        }
      ],
      "name": "changeDev",
      "outputs": [],
      "stateMutability": "nonpayable",
      "type": "function"
    },
    {
      "inputs": [],
      "name": "defaultLifespan",
      "outputs": [
        {
          "internalType": "uint256",
          "name": "",
          "type": "uint256"
        }
      ],
      "stateMutability": "view",
      "type": "function"
    },
    {
      "inputs": [],
      "name": "defaultResolver",
      "outputs": [
        {
          "internalType": "address",
          "name": "",
          "type": "address"
        }
      ],
      "stateMutability": "view",
      "type": "function"
    },
    {
      "inputs": [
        {
          "internalType": "uint256",
          "name": "",
          "type": "uint256"
        }
      ],
      "name": "illegalBlocks",
      "outputs": [
        {
          "internalType": "string",
          "name": "",
          "type": "string"
        }
      ],
      "stateMutability": "view",
      "type": "function"
    },
    {
      "inputs": [
        {
          "internalType": "address",
          "name": "",
          "type": "address"
        },
        {
          "internalType": "address",
          "name": "",
          "type": "address"
        }
      ],
      "name": "isApprovedForAll",
      "outputs": [
        {
          "internalType": "bool",
          "name": "",
          "type": "bool"
        }
      ],
      "stateMutability": "view",
      "type": "function"
    },
    {
      "inputs": [],
      "name": "name",
      "outputs": [
        {
          "internalType": "string",
          "name": "",
          "type": "string"
        }
      ],
      "stateMutability": "view",
      "type": "function"
    },
    {
      "inputs": [
        {
          "internalType": "string",
          "name": "label",
          "type": "string"
        },
        {
          "internalType": "address",
          "name": "owner",
          "type": "address"
        },
        {
          "internalType": "uint256",
          "name": "lifespan",
          "type": "uint256"
        }
      ],
      "name": "newName",
      "outputs": [
        {
          "internalType": "bytes32",
          "name": "",
          "type": "bytes32"
        }
      ],
      "stateMutability": "payable",
      "type": "function"
    },
    {
      "inputs": [
        {
          "internalType": "uint256",
          "name": "tokenID",
          "type": "uint256"
        }
      ],
      "name": "ownerOf",
      "outputs": [
        {
          "internalType": "address",
          "name": "",
          "type": "address"
        }
      ],
      "stateMutability": "view",
      "type": "function"
    },
    {
      "inputs": [
        {
          "internalType": "address",
          "name": "from",
          "type": "address"
        },
        {
          "internalType": "address",
          "name": "to",
          "type": "address"
        },
        {
          "internalType": "uint256",
          "name": "tokenID",
          "type": "uint256"
        }
      ],
      "name": "safeTransferFrom",
      "outputs": [],
      "stateMutability": "payable",
      "type": "function"
    },
    {
      "inputs": [
        {
          "internalType": "address",
          "name": "from",
          "type": "address"
        },
        {
          "internalType": "address",
          "name": "to",
          "type": "address"
        },
        {
          "internalType": "uint256",
          "name": "tokenID",
          "type": "uint256"
        },
        {
          "internalType": "bytes",
          "name": "data",
          "type": "bytes"
        }
      ],
      "name": "safeTransferFrom",
      "outputs": [],
      "stateMutability": "payable",
      "type": "function"
    },
    {
      "inputs": [
        {
          "internalType": "address",
          "name": "controller",
          "type": "address"
        },
        {
          "internalType": "bool",
          "name": "flag",
          "type": "bool"
        }
      ],
      "name": "setApprovalForAll",
      "outputs": [],
      "stateMutability": "payable",
      "type": "function"
    },
    {
      "inputs": [
        {
          "internalType": "uint256",
          "name": "_lifespan",
          "type": "uint256"
        }
      ],
      "name": "setDefaultLifespan",
      "outputs": [],
      "stateMutability": "nonpayable",
      "type": "function"
    },
    {
      "inputs": [
        {
          "internalType": "address",
          "name": "_resolver",
          "type": "address"
        }
      ],
      "name": "setDefaultResolver",
      "outputs": [],
      "stateMutability": "nonpayable",
      "type": "function"
    },
    {
      "inputs": [],
      "name": "sizeLimit",
      "outputs": [
        {
          "internalType": "uint256",
          "name": "",
          "type": "uint256"
        }
      ],
      "stateMutability": "view",
      "type": "function"
    },
    {
      "inputs": [],
      "name": "symbol",
      "outputs": [
        {
          "internalType": "string",
          "name": "",
          "type": "string"
        }
      ],
      "stateMutability": "view",
      "type": "function"
    },
    {
      "inputs": [
        {
          "internalType": "address",
          "name": "from",
          "type": "address"
        },
        {
          "internalType": "address",
          "name": "to",
          "type": "address"
        },
        {
          "internalType": "uint256",
          "name": "tokenID",
          "type": "uint256"
        }
      ],
      "name": "transferFrom",
      "outputs": [],
      "stateMutability": "payable",
      "type": "function"
    }
  ],
  "bytecode": {
    "object": "0x60806040526003805460ff60a01b1916600160a01b179055603c6009553480156200002957600080fd5b5060405162002539380380620025398339810160408190526200004c91620002eb565b60008054336001600160a01b0319918216179091556001805482166001600160a01b0385811691909117909155600280549092169083169081179091556040805163bd9a548b60e01b8152905163bd9a548b916004808201926080929091908290030181865afa158015620000c5573d6000803e3d6000fd5b505050506040513d601f19601f82011682018060405250810190620000eb919062000397565b51600a556002546040805163335076e760e11b815290516001600160a01b03909216916366a0edce916004808201926080929091908290030181865afa1580156200013a573d6000803e3d6000fd5b505050506040513d601f19601f8201168201806040525081019062000160919062000397565b51600b55600254604080516330b5337f60e21b815290516001600160a01b039092169163c2d4cdfc916004808201926000929091908290030181865afa158015620001af573d6000803e3d6000fd5b505050506040513d6000823e601f3d908101601f19168201604052620001d99190810190620003fe565b620001e990600c90600462000204565b5050600080546001600160a01b03191633179055506200066e565b826004810192821562000242579160200282015b82811115620002425782518290620002319082620005a2565b509160200191906001019062000218565b506200025092915062000254565b5090565b80821115620002505760006200026b828262000275565b5060010162000254565b508054620002839062000513565b6000825580601f1062000294575050565b601f016020900490600052602060002090810190620002b49190620002b7565b50565b5b80821115620002505760008155600101620002b8565b80516001600160a01b0381168114620002e657600080fd5b919050565b60008060408385031215620002ff57600080fd5b6200030a83620002ce565b91506200031a60208401620002ce565b90509250929050565b634e487b7160e01b600052604160045260246000fd5b604051608081016001600160401b03811182821017156200035e576200035e62000323565b60405290565b604051601f8201601f191681016001600160401b03811182821017156200038f576200038f62000323565b604052919050565b600060808284031215620003aa57600080fd5b82601f830112620003ba57600080fd5b620003c462000339565b806080840185811115620003d757600080fd5b845b81811015620003f3578051845260209384019301620003d9565b509095945050505050565b600060208083850312156200041257600080fd5b82516001600160401b03808211156200042a57600080fd5b8185019150601f86818401126200044057600080fd5b6200044a62000339565b8060808501898111156200045d57600080fd5b855b818110156200050457805186811115620004795760008081fd5b87018581018c136200048b5760008081fd5b805187811115620004a057620004a062000323565b620004b3818801601f19168b0162000364565b8181528d8b838501011115620004c95760008081fd5b60005b82811015620004e9578381018c01518282018d01528b01620004cc565b5060009181018b01919091528552509287019287016200045f565b50909998505050505050505050565b600181811c908216806200052857607f821691505b6020821081036200054957634e487b7160e01b600052602260045260246000fd5b50919050565b601f8211156200059d57600081815260208120601f850160051c81016020861015620005785750805b601f850160051c820191505b81811015620005995782815560010162000584565b5050505b505050565b81516001600160401b03811115620005be57620005be62000323565b620005d681620005cf845462000513565b846200054f565b602080601f8311600181146200060e5760008415620005f55750858301515b600019600386901b1c1916600185901b17855562000599565b600085815260208120601f198616915b828110156200063f578886015182559484019460019091019084016200061e565b50858210156200065e5787850151600019600388901b60f8161c191681555b5050505050600190811b01905550565b611ebb806200067e6000396000f3fe60806040526004361061018b5760003560e01c80637f9348aa116100d6578063a22cb4651161007f578063c66485b211610059578063c66485b21461047f578063c7876ea41461049f578063e985e9c5146104b557600080fd5b8063a22cb46514610439578063b782426e1461044c578063b88d4fde1461046c57600080fd5b806388a8c95c116100b057806388a8c95c1461039a5780639024d282146103ba57806395d89b41146103f057600080fd5b80637f9348aa1461034757806380b29beb1461035a578063828eab0e1461037a57600080fd5b8063210fd2711161013857806342842e0e1161011257806342842e0e146102d45780636352211e1461030757806370a082311461032757600080fd5b8063210fd271146102be57806323b872dd146102d457806339506308146102e757600080fd5b806306fdde031161016957806306fdde031461022f578063095ea7b3146102855780630e6c0bdb1461029a57600080fd5b806301e51ae81461019057806302fb0c5e146101cd57806305e84aa01461020f575b600080fd5b34801561019c57600080fd5b506000546101b0906001600160a01b031681565b6040516001600160a01b0390911681526020015b60405180910390f35b3480156101d957600080fd5b506003546101ff9074010000000000000000000000000000000000000000900460ff1681565b60405190151581526020016101c4565b34801561021b57600080fd5b506001546101b0906001600160a01b031681565b34801561023b57600080fd5b506102786040518060400160405280601381526020017f48656c697832204e616d6520536572766963650000000000000000000000000081525081565b6040516101c491906117fc565b61029861029336600461182e565b6104f0565b005b3480156102a657600080fd5b506102b060095481565b6040519081526020016101c4565b3480156102ca57600080fd5b506102b0600b5481565b6102986102e236600461185a565b610756565b3480156102f357600080fd5b5061029861030236600461189b565b610776565b34801561031357600080fd5b506101b061032236600461189b565b6107d4565b34801561033357600080fd5b506102b06103423660046118b4565b61086e565b6102b061035536600461199f565b6108fc565b34801561036657600080fd5b5061027861037536600461189b565b61107f565b34801561038657600080fd5b506003546101b0906001600160a01b031681565b3480156103a657600080fd5b506102986103b53660046118b4565b61111f565b3480156103c657600080fd5b506101b06103d536600461189b565b6006602052600090815260409020546001600160a01b031681565b3480156103fc57600080fd5b506102786040518060400160405280600381526020017f484e53000000000000000000000000000000000000000000000000000000000081525081565b610298610447366004611a0a565b6111f9565b34801561045857600080fd5b506002546101b0906001600160a01b031681565b61029861047a366004611a43565b611283565b34801561048b57600080fd5b5061029861049a3660046118b4565b611295565b3480156104ab57600080fd5b506102b0600a5481565b3480156104c157600080fd5b506101ff6104d0366004611ac3565b600760209081526000928352604080842090915290825290205460ff1681565b6000818152600460205260409020546001600160a01b0316331480159061054457506000818152600460209081526040808320546001600160a01b031683526007825280832033845290915290205460ff16155b156105ad576000818152600460208190526040918290205491517f431ef61600000000000000000000000000000000000000000000000000000000815233918101919091526001600160a01b039091166024820152604481018290526064015b60405180910390fd5b60008181526006602052604080822080547fffffffffffffffffffffffff0000000000000000000000000000000000000000166001600160a01b038681169190911790915560025482517f5ab1bd530000000000000000000000000000000000000000000000000000000081529251911691635ab1bd539160048083019260809291908290030181865afa158015610649573d6000803e3d6000fd5b505050506040513d601f19601f8201168201806040525081019061066d9190611af1565b51600180546001600160a01b038084167fffffffffffffffffffffffff000000000000000000000000000000000000000090921682179092556040517f01d49a5f0000000000000000000000000000000000000000000000000000000081526004810186905291861660248301529192506301d49a5f90604401600060405180830381600087803b15801561070157600080fd5b505af1158015610715573d6000803e3d6000fd5b50506040518492506001600160a01b038616915033907f8c5be1e5ebec7d5bd14f71427d1e84f3dd0314c0f7b2291e5b200ac8c7c3b92590600090a4505050565b61077183838360405180602001604052806000815250611328565b505050565b6000546001600160a01b031633146107cf576000546040517f8ea458f60000000000000000000000000000000000000000000000000000000081526001600160a01b0390911660048201523360248201526044016105a4565b600955565b6000818152600460205260408120546001600160a01b0316610852576040517f08c379a000000000000000000000000000000000000000000000000000000000815260206004820152600f60248201527f494e56414c49445f544f4b454e4944000000000000000000000000000000000060448201526064016105a4565b506000908152600460205260409020546001600160a01b031690565b60006001600160a01b0382166108e0576040517f08c379a000000000000000000000000000000000000000000000000000000000815260206004820152600c60248201527f5a45524f5f41444452455353000000000000000000000000000000000000000060448201526064016105a4565b506001600160a01b031660009081526005602052604090205490565b600083600b5481511061096b576040517f08c379a000000000000000000000000000000000000000000000000000000000815260206004820152600d60248201527f494c4c4547414c5f4c4142454c0000000000000000000000000000000000000060448201526064016105a4565b6040517f8572a5d300000000000000000000000000000000000000000000000000000000815273__$47e4ffaaf323c41735ff299f8946896ce0$__90638572a5d3906109be908490600c90600401611bad565b602060405180830381865af41580156109db573d6000803e3d6000fd5b505050506040513d601f19601f820116820180604052508101906109ff9190611cdb565b15610a66576040517f08c379a000000000000000000000000000000000000000000000000000000000815260206004820152600d60248201527f494c4c4547414c5f43484152530000000000000000000000000000000000000060448201526064016105a4565b846000600260009054906101000a90046001600160a01b03166001600160a01b031663642a8ed66040518163ffffffff1660e01b8152600401608060405180830381865afa158015610abc573d6000803e3d6000fd5b505050506040513d601f19601f82011682018060405250810190610ae09190611cf8565b6020908101516001546040519193506000926001600160a01b039091169163d2ec5fca918591610b1291889101611d4d565b60405160208183030381529060405280519060200120604051602001610b42929190918252602082015260400190565b604051602081830303815290604052805190602001206040518263ffffffff1660e01b8152600401610b7691815260200190565b602060405180830381865afa158015610b93573d6000803e3d6000fd5b505050506040513d601f19601f82011682018060405250810190610bb79190611d69565b9050428110610c22576040517f08c379a000000000000000000000000000000000000000000000000000000000815260206004820152600b60248201527f4e414d455f45584953545300000000000000000000000000000000000000000060448201526064016105a4565b600954861015610c8e576040517f08c379a000000000000000000000000000000000000000000000000000000000815260206004820152601260248201527f4c4946455350414e5f544f4f5f53484f5254000000000000000000000000000060448201526064016105a4565b85600a54610c9c9190611db1565b341015610d05576040517f08c379a000000000000000000000000000000000000000000000000000000000815260206004820152601260248201527f494e53554646494349454e545f4554484552000000000000000000000000000060448201526064016105a4565b600254604080517f642a8ed600000000000000000000000000000000000000000000000000000000815290516000926001600160a01b03169163642a8ed69160048083019260809291908290030181865afa158015610d68573d6000803e3d6000fd5b505050506040513d601f19601f82011682018060405250810190610d8c9190611cf8565b51604051909150600090610da4908b90602001611d4d565b60408051601f19818403018152828252805160209182012090830152810183905260600160408051808303601f190181529082905280516020909101206001547fd22057a9000000000000000000000000000000000000000000000000000000008352600483018290526001600160a01b038c81166024850152919350169063d22057a990604401600060405180830381600087803b158015610e4657600080fd5b505af1158015610e5a573d6000803e3d6000fd5b50506001546040517fd3156905000000000000000000000000000000000000000000000000000000008152600481018590526001600160a01b038d81166024830152909116925063d31569059150604401600060405180830381600087803b158015610ec557600080fd5b505af1158015610ed9573d6000803e3d6000fd5b50506001546001600160a01b031691506339de6469905082610efb8b42611dee565b6040517fffffffff0000000000000000000000000000000000000000000000000000000060e085901b16815260048101929092526024820152604401600060405180830381600087803b158015610f5157600080fd5b505af1158015610f65573d6000803e3d6000fd5b50506001546003546040517f1896f70a000000000000000000000000000000000000000000000000000000008152600481018690526001600160a01b03918216602482015291169250631896f70a9150604401600060405180830381600087803b158015610fd257600080fd5b505af1158015610fe6573d6000803e3d6000fd5b505050600082815260046020908152604080832080547fffffffffffffffffffffffff0000000000000000000000000000000000000000166001600160a01b038f16908117909155808452600583529281902080546001019055519182528392507f78d6d6769df86b6a2c7c8cae6d315c13f042c135e9d38a0da87f76d46d81ece7910160405180910390a29998505050505050505050565b600c816004811061108f57600080fd5b01805490915061109e90611b5a565b80601f01602080910402602001604051908101604052809291908181526020018280546110ca90611b5a565b80156111175780601f106110ec57610100808354040283529160200191611117565b820191906000526020600020905b8154815290600101906020018083116110fa57829003601f168201915b505050505081565b6000546001600160a01b03163314611178576000546040517f8ea458f60000000000000000000000000000000000000000000000000000000081526001600160a01b0390911660048201523360248201526044016105a4565b600054604080516001600160a01b03928316815291831660208301527fdec101f106d4fc7c85791843e64b198248c822298e3ed7046231d33f7783d816910160405180910390a1600080547fffffffffffffffffffffffff0000000000000000000000000000000000000000166001600160a01b0392909216919091179055565b3360008181526007602090815260408083206001600160a01b0387168085529083529281902080547fffffffffffffffffffffffffffffffffffffffffffffffffffffffffffffff001686151590811790915590519081529192917f17307eab39ab6107e8899845ad3d59bd9653f200f220920489ca2b5937696c31910160405180910390a35050565b61128f84848484611328565b50505050565b6000546001600160a01b031633146112ee576000546040517f8ea458f60000000000000000000000000000000000000000000000000000000081526001600160a01b0390911660048201523360248201526044016105a4565b600380547fffffffffffffffffffffffff0000000000000000000000000000000000000000166001600160a01b0392909216919091179055565b6001600160a01b038316611368576040517f5788079900000000000000000000000000000000000000000000000000000000815260040160405180910390fd5b6000828152600460205260409020546001600160a01b038581169116146113ea576000828152600460208190526040918290205491517f431ef6160000000000000000000000000000000000000000000000000000000081526001600160a01b03928316918101919091529085166024820152604481018390526064016105a4565b6000828152600460205260409020546001600160a01b03163314611452576040517f431ef6160000000000000000000000000000000000000000000000000000000081523360048201526001600160a01b0385166024820152604481018390526064016105a4565b600082815260066020908152604080832080547fffffffffffffffffffffffff000000000000000000000000000000000000000090811690915560049283905281842080546001600160a01b038981169190931617905560025482517f5ab1bd530000000000000000000000000000000000000000000000000000000081529251911692635ab1bd53928082019260809290918290030181865afa1580156114fe573d6000803e3d6000fd5b505050506040513d601f19601f820116820180604052508101906115229190611af1565b51600180546001600160a01b038084167fffffffffffffffffffffffff000000000000000000000000000000000000000090921682179092556040517fbe22e75600000000000000000000000000000000000000000000000000000000815260048101879052918716602483015291925063be22e75690604401600060405180830381600087803b1580156115b657600080fd5b505af11580156115ca573d6000803e3d6000fd5b5050506001600160a01b0380871660008181526005602052604080822080547fffffffffffffffffffffffffffffffffffffffffffffffffffffffffffffffff0190559288168082528382208054600101905592518794507fddf252ad1be2c89b69c2b068fc378daa952ba7f163c4a11628f55a4df523b3ef9190a46001600160a01b0384163b156117a5576040517f150b7a020000000000000000000000000000000000000000000000000000000081526001600160a01b0385169063150b7a02906116a1903390899088908890600401611e07565b6020604051808303816000875af19250505080156116dc575060408051601f3d908101601f191682019092526116d991810190611e43565b60015b61171d576040517f3a9f8cb30000000000000000000000000000000000000000000000000000000081526001600160a01b03851660048201526024016105a4565b7fffffffff0000000000000000000000000000000000000000000000000000000081167f150b7a0200000000000000000000000000000000000000000000000000000000146117a3576040517f3a9f8cb30000000000000000000000000000000000000000000000000000000081526001600160a01b03861660048201526024016105a4565b505b5050505050565b60005b838110156117c75781810151838201526020016117af565b50506000910152565b600081518084526117e88160208601602086016117ac565b601f01601f19169290920160200192915050565b60208152600061180f60208301846117d0565b9392505050565b6001600160a01b038116811461182b57600080fd5b50565b6000806040838503121561184157600080fd5b823561184c81611816565b946020939093013593505050565b60008060006060848603121561186f57600080fd5b833561187a81611816565b9250602084013561188a81611816565b929592945050506040919091013590565b6000602082840312156118ad57600080fd5b5035919050565b6000602082840312156118c657600080fd5b813561180f81611816565b7f4e487b7100000000000000000000000000000000000000000000000000000000600052604160045260246000fd5b6040516080810167ffffffffffffffff81118282101715611923576119236118d1565b60405290565b600067ffffffffffffffff80841115611944576119446118d1565b604051601f8501601f19908116603f0116810190828211818310171561196c5761196c6118d1565b8160405280935085815286868601111561198557600080fd5b858560208301376000602087830101525050509392505050565b6000806000606084860312156119b457600080fd5b833567ffffffffffffffff8111156119cb57600080fd5b8401601f810186136119dc57600080fd5b6119eb86823560208401611929565b935050602084013561188a81611816565b801515811461182b57600080fd5b60008060408385031215611a1d57600080fd5b8235611a2881611816565b91506020830135611a38816119fc565b809150509250929050565b60008060008060808587031215611a5957600080fd5b8435611a6481611816565b93506020850135611a7481611816565b925060408501359150606085013567ffffffffffffffff811115611a9757600080fd5b8501601f81018713611aa857600080fd5b611ab787823560208401611929565b91505092959194509250565b60008060408385031215611ad657600080fd5b8235611ae181611816565b91506020830135611a3881611816565b600060808284031215611b0357600080fd5b82601f830112611b1257600080fd5b611b1a611900565b806080840185811115611b2c57600080fd5b845b81811015611b4f578051611b4181611816565b845260209384019301611b2e565b509095945050505050565b600181811c90821680611b6e57607f821691505b602082108103611ba7577f4e487b7100000000000000000000000000000000000000000000000000000000600052602260045260246000fd5b50919050565b604081526000611bc060408301856117d0565b60208382038185015281829050608083018660005b6004808210611be45750611ccd565b86840385528254600090600181811c9080831680611c0357607f831692505b8a83108103611c38577f4e487b7100000000000000000000000000000000000000000000000000000000855260228652602485fd5b828952602089019550808015611c555760018114611c8957611cb4565b7fffffffffffffffffffffffffffffffffffffffffffffffffffffffffffffff008516875283151560051b87019550611cb4565b60008981526020902060005b85811015611cae57815489820152908401908d01611c95565b88019650505b5050978901979296505050929092019150600101611bd5565b509098975050505050505050565b600060208284031215611ced57600080fd5b815161180f816119fc565b600060808284031215611d0a57600080fd5b82601f830112611d1957600080fd5b611d21611900565b806080840185811115611d3357600080fd5b845b81811015611b4f578051845260209384019301611d35565b60008251611d5f8184602087016117ac565b9190910192915050565b600060208284031215611d7b57600080fd5b5051919050565b7f4e487b7100000000000000000000000000000000000000000000000000000000600052601160045260246000fd5b6000817fffffffffffffffffffffffffffffffffffffffffffffffffffffffffffffffff0483118215151615611de957611de9611d82565b500290565b80820180821115611e0157611e01611d82565b92915050565b60006001600160a01b03808716835280861660208401525083604083015260806060830152611e3960808301846117d0565b9695505050505050565b600060208284031215611e5557600080fd5b81517fffffffff000000000000000000000000000000000000000000000000000000008116811461180f57600080fdfea26469706673582212209982742a734ab62bff80531a1fe7e866f479780a177a41e14bdf98370eabef3064736f6c63430008100033",
    "linkReferences": {
      "src/Utils/LibString.sol": {
        "LibString": [
          {
            "start": 4113,
            "length": 20
          }
        ]
      }
    }
  },
  "methodIdentifiers": {
    "Dev()": "01e51ae8",
    "HELIX2()": "b782426e",
    "NAMES()": "05e84aa0",
    "_approved(uint256)": "9024d282",
    "active()": "02fb0c5e",
    "approve(address,uint256)": "095ea7b3",
    "balanceOf(address)": "70a08231",
    "basePrice()": "c7876ea4",
    "changeDev(address)": "88a8c95c",
    "defaultLifespan()": "0e6c0bdb",
    "defaultResolver()": "828eab0e",
    "illegalBlocks(uint256)": "80b29beb",
    "isApprovedForAll(address,address)": "e985e9c5",
    "name()": "06fdde03",
    "newName(string,address,uint256)": "7f9348aa",
    "ownerOf(uint256)": "6352211e",
    "safeTransferFrom(address,address,uint256)": "42842e0e",
    "safeTransferFrom(address,address,uint256,bytes)": "b88d4fde",
    "setApprovalForAll(address,bool)": "a22cb465",
    "setDefaultLifespan(uint256)": "39506308",
    "setDefaultResolver(address)": "c66485b2",
    "sizeLimit()": "210fd271",
    "symbol()": "95d89b41",
    "transferFrom(address,address,uint256)": "23b872dd"
  },
  "id": 26
}