{
  "abi": [
    {
      "inputs": [
        {
          "internalType": "address",
          "name": "_registry",
          "type": "address"
        },
        {
          "internalType": "address",
          "name": "_helix2",
          "type": "address"
        }
      ],
      "stateMutability": "nonpayable",
      "type": "constructor"
    },
    {
      "inputs": [],
      "name": "CannotBurn",
      "type": "error"
    },
    {
      "inputs": [
        {
          "internalType": "address",
          "name": "to",
          "type": "address"
        }
      ],
      "name": "ERC721IncompatibleReceiver",
      "type": "error"
    },
    {
      "inputs": [
        {
          "internalType": "address",
          "name": "_dev",
          "type": "address"
        },
        {
          "internalType": "address",
          "name": "_you",
          "type": "address"
        }
      ],
      "name": "OnlyDev",
      "type": "error"
    },
    {
      "inputs": [
        {
          "internalType": "address",
          "name": "operator",
          "type": "address"
        },
        {
          "internalType": "address",
          "name": "owner",
          "type": "address"
        },
        {
          "internalType": "uint256",
          "name": "tokenID",
          "type": "uint256"
        }
      ],
      "name": "Unauthorized",
      "type": "error"
    },
    {
      "anonymous": false,
      "inputs": [
        {
          "indexed": true,
          "internalType": "address",
          "name": "owner",
          "type": "address"
        },
        {
          "indexed": true,
          "internalType": "address",
          "name": "spender",
          "type": "address"
        },
        {
          "indexed": true,
          "internalType": "uint256",
          "name": "tokenID",
          "type": "uint256"
        }
      ],
      "name": "Approval",
      "type": "event"
    },
    {
      "anonymous": false,
      "inputs": [
        {
          "indexed": true,
          "internalType": "address",
          "name": "owner",
          "type": "address"
        },
        {
          "indexed": true,
          "internalType": "address",
          "name": "operator",
          "type": "address"
        },
        {
          "indexed": false,
          "internalType": "bool",
          "name": "approved",
          "type": "bool"
        }
      ],
      "name": "ApprovalForAll",
      "type": "event"
    },
    {
      "anonymous": false,
      "inputs": [
        {
          "indexed": false,
          "internalType": "address",
          "name": "Dev",
          "type": "address"
        },
        {
          "indexed": false,
          "internalType": "address",
          "name": "newDev",
          "type": "address"
        }
      ],
      "name": "NewDev",
      "type": "event"
    },
    {
      "anonymous": false,
      "inputs": [
        {
          "indexed": false,
          "internalType": "string",
          "name": "ens",
          "type": "string"
        },
        {
          "indexed": true,
          "internalType": "bytes32",
          "name": "namehash",
          "type": "bytes32"
        },
        {
          "indexed": false,
          "internalType": "address",
          "name": "owner",
          "type": "address"
        }
      ],
      "name": "NewENSImport",
      "type": "event"
    },
    {
      "anonymous": false,
      "inputs": [
        {
          "indexed": false,
          "internalType": "string",
          "name": "label",
          "type": "string"
        },
        {
          "indexed": true,
          "internalType": "bytes32",
          "name": "namehash",
          "type": "bytes32"
        },
        {
          "indexed": false,
          "internalType": "address",
          "name": "owner",
          "type": "address"
        }
      ],
      "name": "NewName",
      "type": "event"
    },
    {
      "anonymous": false,
      "inputs": [
        {
          "indexed": true,
          "internalType": "address",
          "name": "from",
          "type": "address"
        },
        {
          "indexed": true,
          "internalType": "address",
          "name": "to",
          "type": "address"
        },
        {
          "indexed": true,
          "internalType": "uint256",
          "name": "tokenID",
          "type": "uint256"
        }
      ],
      "name": "Transfer",
      "type": "event"
    },
    {
      "inputs": [],
      "name": "Dev",
      "outputs": [
        {
          "internalType": "address",
          "name": "",
          "type": "address"
        }
      ],
      "stateMutability": "view",
      "type": "function"
    },
    {
      "inputs": [],
      "name": "ENS",
      "outputs": [
        {
          "internalType": "contract iENS",
          "name": "",
          "type": "address"
        }
      ],
      "stateMutability": "view",
      "type": "function"
    },
    {
      "inputs": [],
      "name": "HELIX2",
      "outputs": [
        {
          "internalType": "contract iHELIX2",
          "name": "",
          "type": "address"
        }
      ],
      "stateMutability": "view",
      "type": "function"
    },
    {
      "inputs": [],
      "name": "NAMES",
      "outputs": [
        {
          "internalType": "contract iNAME",
          "name": "",
          "type": "address"
        }
      ],
      "stateMutability": "view",
      "type": "function"
    },
    {
      "inputs": [],
      "name": "active",
      "outputs": [
        {
          "internalType": "bool",
          "name": "",
          "type": "bool"
        }
      ],
      "stateMutability": "view",
      "type": "function"
    },
    {
      "inputs": [
        {
          "internalType": "address",
          "name": "operator",
          "type": "address"
        },
        {
          "internalType": "uint256",
          "name": "tokenID",
          "type": "uint256"
        }
      ],
      "name": "approve",
      "outputs": [],
      "stateMutability": "nonpayable",
      "type": "function"
    },
    {
      "inputs": [
        {
          "internalType": "address",
          "name": "wallet",
          "type": "address"
        }
      ],
      "name": "balanceOf",
      "outputs": [
        {
          "internalType": "uint256",
          "name": "",
          "type": "uint256"
        }
      ],
      "stateMutability": "view",
      "type": "function"
    },
    {
      "inputs": [],
      "name": "basePrice",
      "outputs": [
        {
          "internalType": "uint256",
          "name": "",
          "type": "uint256"
        }
      ],
      "stateMutability": "view",
      "type": "function"
    },
    {
      "inputs": [
        {
          "internalType": "address",
          "name": "newDev",
          "type": "address"
        }
      ],
      "name": "changeDev",
      "outputs": [],
      "stateMutability": "nonpayable",
      "type": "function"
    },
    {
      "inputs": [
        {
          "internalType": "string",
          "name": "ens",
          "type": "string"
        },
        {
          "internalType": "uint256",
          "name": "lifespan",
          "type": "uint256"
        }
      ],
      "name": "claimENS",
      "outputs": [
        {
          "internalType": "bytes32",
          "name": "",
          "type": "bytes32"
        }
      ],
      "stateMutability": "payable",
      "type": "function"
    },
    {
      "inputs": [],
      "name": "defaultLifespan",
      "outputs": [
        {
          "internalType": "uint256",
          "name": "",
          "type": "uint256"
        }
      ],
      "stateMutability": "view",
      "type": "function"
    },
    {
      "inputs": [],
      "name": "defaultResolver",
      "outputs": [
        {
          "internalType": "address",
          "name": "",
          "type": "address"
        }
      ],
      "stateMutability": "view",
      "type": "function"
    },
    {
      "inputs": [
        {
          "internalType": "bytes",
          "name": "_ens",
          "type": "bytes"
        }
      ],
      "name": "hashENS",
      "outputs": [
        {
          "internalType": "bytes32",
          "name": "_namehash",
          "type": "bytes32"
        }
      ],
      "stateMutability": "pure",
      "type": "function"
    },
    {
      "inputs": [
        {
          "internalType": "uint256",
          "name": "",
          "type": "uint256"
        }
      ],
      "name": "illegalBlocks",
      "outputs": [
        {
          "internalType": "string",
          "name": "",
          "type": "string"
        }
      ],
      "stateMutability": "view",
      "type": "function"
    },
    {
      "inputs": [
        {
          "internalType": "address",
          "name": "",
          "type": "address"
        },
        {
          "internalType": "address",
          "name": "",
          "type": "address"
        }
      ],
      "name": "isApprovedForAll",
      "outputs": [
        {
          "internalType": "bool",
          "name": "",
          "type": "bool"
        }
      ],
      "stateMutability": "view",
      "type": "function"
    },
    {
      "inputs": [],
      "name": "name",
      "outputs": [
        {
          "internalType": "string",
          "name": "",
          "type": "string"
        }
      ],
      "stateMutability": "view",
      "type": "function"
    },
    {
      "inputs": [
        {
          "internalType": "string",
          "name": "label",
          "type": "string"
        },
        {
          "internalType": "address",
          "name": "owner",
          "type": "address"
        },
        {
          "internalType": "uint256",
          "name": "lifespan",
          "type": "uint256"
        }
      ],
      "name": "newName",
      "outputs": [
        {
          "internalType": "bytes32",
          "name": "",
          "type": "bytes32"
        }
      ],
      "stateMutability": "payable",
      "type": "function"
    },
    {
      "inputs": [
        {
          "internalType": "uint256",
          "name": "tokenID",
          "type": "uint256"
        }
      ],
      "name": "ownerOf",
      "outputs": [
        {
          "internalType": "address",
          "name": "",
          "type": "address"
        }
      ],
      "stateMutability": "view",
      "type": "function"
    },
    {
      "inputs": [],
      "name": "roothash",
      "outputs": [
        {
          "internalType": "bytes32",
          "name": "",
          "type": "bytes32"
        }
      ],
      "stateMutability": "view",
      "type": "function"
    },
    {
      "inputs": [
        {
          "internalType": "address",
          "name": "from",
          "type": "address"
        },
        {
          "internalType": "address",
          "name": "to",
          "type": "address"
        },
        {
          "internalType": "uint256",
          "name": "tokenID",
          "type": "uint256"
        }
      ],
      "name": "safeTransferFrom",
      "outputs": [],
      "stateMutability": "nonpayable",
      "type": "function"
    },
    {
      "inputs": [
        {
          "internalType": "address",
          "name": "from",
          "type": "address"
        },
        {
          "internalType": "address",
          "name": "to",
          "type": "address"
        },
        {
          "internalType": "uint256",
          "name": "tokenID",
          "type": "uint256"
        },
        {
          "internalType": "bytes",
          "name": "data",
          "type": "bytes"
        }
      ],
      "name": "safeTransferFrom",
      "outputs": [],
      "stateMutability": "nonpayable",
      "type": "function"
    },
    {
      "inputs": [
        {
          "internalType": "address",
          "name": "operator",
          "type": "address"
        },
        {
          "internalType": "bool",
          "name": "flag",
          "type": "bool"
        }
      ],
      "name": "setApprovalForAll",
      "outputs": [],
      "stateMutability": "nonpayable",
      "type": "function"
    },
    {
      "inputs": [
        {
          "internalType": "address",
          "name": "wallet",
          "type": "address"
        },
        {
          "internalType": "uint256",
          "name": "balance",
          "type": "uint256"
        }
      ],
      "name": "setBalance",
      "outputs": [],
      "stateMutability": "nonpayable",
      "type": "function"
    },
    {
      "inputs": [
        {
          "internalType": "uint256",
          "name": "_lifespan",
          "type": "uint256"
        }
      ],
      "name": "setDefaultLifespan",
      "outputs": [],
      "stateMutability": "nonpayable",
      "type": "function"
    },
    {
      "inputs": [
        {
          "internalType": "address",
          "name": "_resolver",
          "type": "address"
        }
      ],
      "name": "setDefaultResolver",
      "outputs": [],
      "stateMutability": "nonpayable",
      "type": "function"
    },
    {
      "inputs": [
        {
          "internalType": "uint256",
          "name": "",
          "type": "uint256"
        }
      ],
      "name": "sizeLimit",
      "outputs": [
        {
          "internalType": "uint256",
          "name": "",
          "type": "uint256"
        }
      ],
      "stateMutability": "view",
      "type": "function"
    },
    {
      "inputs": [],
      "name": "symbol",
      "outputs": [
        {
          "internalType": "string",
          "name": "",
          "type": "string"
        }
      ],
      "stateMutability": "view",
      "type": "function"
    },
    {
      "inputs": [],
      "name": "toggleActive",
      "outputs": [],
      "stateMutability": "nonpayable",
      "type": "function"
    },
    {
      "inputs": [
        {
          "internalType": "address",
          "name": "from",
          "type": "address"
        },
        {
          "internalType": "address",
          "name": "to",
          "type": "address"
        },
        {
          "internalType": "uint256",
          "name": "tokenID",
          "type": "uint256"
        }
      ],
      "name": "transferFrom",
      "outputs": [],
      "stateMutability": "nonpayable",
      "type": "function"
    }
  ],
  "bytecode": {
    "object": "0x60806040526004805460ff60a01b1916600160a01b1790553480156200002457600080fd5b5060405162003640380380620036408339810160408190526200004791620004b5565b60008054336001600160a01b0319918216179091556001805482166001600160a01b03858116919091179091556003805490921690831690811790915560408051632f68079560e01b81529051632f680795916004808201926020929091908290030181865afa158015620000c0573d6000803e3d6000fd5b505050506040513d601f19601f82011682018060405250810190620000e69190620004ed565b600280546001600160a01b0319166001600160a01b039283161790556003546040805163bd9a548b60e01b81529051919092169163bd9a548b9160048083019260809291908290030181865afa15801562000145573d6000803e3d6000fd5b505050506040513d601f19601f820116820180604052508101906200016b9190620005ab565b516009556003546040805163335076e760e11b815290516001600160a01b03909216916366a0edce91600480820192610100929091908290030181865afa158015620001bb573d6000803e3d6000fd5b505050506040513d601f19601f82011682018060405250810190620001e1919062000612565b51620001f290600a9060026200038f565b50600360009054906101000a90046001600160a01b03166001600160a01b031663ec2ace2a6040518163ffffffff1660e01b8152600401608060405180830381865afa15801562000247573d6000803e3d6000fd5b505050506040513d601f19601f820116820180604052508101906200026d9190620005ab565b51600855600354604080516330b5337f60e21b815290516001600160a01b039092169163c2d4cdfc916004808201926000929091908290030181865afa158015620002bc573d6000803e3d6000fd5b505050506040513d6000823e601f3d908101601f19168201604052620002e69190810190620006c9565b620002f690600d906004620003d2565b50600360009054906101000a90046001600160a01b03166001600160a01b031663642a8ed66040518163ffffffff1660e01b8152600401608060405180830381865afa1580156200034b573d6000803e3d6000fd5b505050506040513d601f19601f82011682018060405250810190620003719190620005ab565b51600c555050600080546001600160a01b0319163317905562000939565b8260028101928215620003c0579160200282015b82811115620003c0578251825591602001919060010190620003a3565b50620003ce9291506200041e565b5090565b826004810192821562000410579160200282015b82811115620004105782518290620003ff90826200086d565b5091602001919060010190620003e6565b50620003ce92915062000435565b5b80821115620003ce57600081556001016200041f565b80821115620003ce5760006200044c828262000456565b5060010162000435565b5080546200046490620007de565b6000825580601f1062000475575050565b601f0160209004906000526020600020908101906200049591906200041e565b50565b80516001600160a01b0381168114620004b057600080fd5b919050565b60008060408385031215620004c957600080fd5b620004d48362000498565b9150620004e46020840162000498565b90509250929050565b6000602082840312156200050057600080fd5b6200050b8262000498565b9392505050565b634e487b7160e01b600052604160045260246000fd5b604051608081016001600160401b03811182821017156200054d576200054d62000512565b60405290565b604080519081016001600160401b03811182821017156200054d576200054d62000512565b604051601f8201601f191681016001600160401b0381118282101715620005a357620005a362000512565b604052919050565b600060808284031215620005be57600080fd5b82601f830112620005ce57600080fd5b620005d862000528565b806080840185811115620005eb57600080fd5b845b8181101562000607578051845260209384019301620005ed565b509095945050505050565b60006101008083850312156200062757600080fd5b601f84818501126200063857600080fd5b6200064262000528565b9184019180868411156200065557600080fd5b855b84811015620006be578784820112620006705760008081fd5b6200067a62000553565b80604083018a8111156200068e5760008081fd5b835b81811015620006aa57805184526020938401930162000690565b505084525060209092019160400162000657565b509695505050505050565b60006020808385031215620006dd57600080fd5b82516001600160401b0380821115620006f557600080fd5b8185019150601f86818401126200070b57600080fd5b6200071562000528565b8060808501898111156200072857600080fd5b855b81811015620007cf57805186811115620007445760008081fd5b87018581018c13620007565760008081fd5b8051878111156200076b576200076b62000512565b6200077e818801601f19168b0162000578565b8181528d8b838501011115620007945760008081fd5b60005b82811015620007b4578381018c01518282018d01528b0162000797565b5060009181018b01919091528552509287019287016200072a565b50909998505050505050505050565b600181811c90821680620007f357607f821691505b6020821081036200081457634e487b7160e01b600052602260045260246000fd5b50919050565b601f8211156200086857600081815260208120601f850160051c81016020861015620008435750805b601f850160051c820191505b8181101562000864578281556001016200084f565b5050505b505050565b81516001600160401b0381111562000889576200088962000512565b620008a1816200089a8454620007de565b846200081a565b602080601f831160018114620008d95760008415620008c05750858301515b600019600386901b1c1916600185901b17855562000864565b600085815260208120601f198616915b828110156200090a57888601518255948401946001909101908401620008e9565b5085821015620009295787850151600019600388901b60f8161c191681555b5050505050600190811b01905550565b612cf780620009496000396000f3fe6080604052600436106101c25760003560e01c806370a08231116100f7578063a22cb46511610095578063c7876ea411610064578063c7876ea41461055f578063d5bd793714610575578063e30443bc14610588578063e985e9c5146105a857600080fd5b8063a22cb465146104df578063b782426e146104ff578063b88d4fde1461051f578063c66485b21461053f57600080fd5b806380b29beb116100d157806380b29beb14610436578063828eab0e1461045657806388a8c95c1461047657806395d89b411461049657600080fd5b806370a08231146103cd578063769da4bb146104035780637f9348aa1461042357600080fd5b806323b872dd11610164578063395063081161013e578063395063081461036d57806342842e0e146103225780636352211e1461038d5780636e73bfd9146103ad57600080fd5b806323b872dd14610322578063251c94221461034257806329c68dc11461035857600080fd5b806306fdde03116101a057806306fdde0314610266578063095ea7b3146102bc5780630e6c0bdb146102de5780631d2e2cc41461030257600080fd5b806301e51ae8146101c757806302fb0c5e1461020457806305e84aa014610246575b600080fd5b3480156101d357600080fd5b506000546101e7906001600160a01b031681565b6040516001600160a01b0390911681526020015b60405180910390f35b34801561021057600080fd5b506004546102369074010000000000000000000000000000000000000000900460ff1681565b60405190151581526020016101fb565b34801561025257600080fd5b506001546101e7906001600160a01b031681565b34801561027257600080fd5b506102af6040518060400160405280601381526020017f48656c697832204e616d6520536572766963650000000000000000000000000081525081565b6040516101fb9190612448565b3480156102c857600080fd5b506102dc6102d736600461247a565b6105e3565b005b3480156102ea57600080fd5b506102f460085481565b6040519081526020016101fb565b34801561030e57600080fd5b506002546101e7906001600160a01b031681565b34801561032e57600080fd5b506102dc61033d3660046124a6565b610930565b34801561034e57600080fd5b506102f4600c5481565b34801561036457600080fd5b506102dc610950565b34801561037957600080fd5b506102dc6103883660046124e7565b6109f6565b34801561039957600080fd5b506101e76103a83660046124e7565b610a54565b3480156103b957600080fd5b506102f46103c8366004612549565b610bbc565b3480156103d957600080fd5b506102f46103e836600461258b565b6001600160a01b031660009081526005602052604090205490565b34801561040f57600080fd5b506102f461041e3660046124e7565b610cf3565b6102f461043136600461264d565b610d0a565b34801561044257600080fd5b506102af6104513660046124e7565b6113da565b34801561046257600080fd5b506004546101e7906001600160a01b031681565b34801561048257600080fd5b506102dc61049136600461258b565b61147a565b3480156104a257600080fd5b506102af6040518060400160405280600381526020017f484e53000000000000000000000000000000000000000000000000000000000081525081565b3480156104eb57600080fd5b506102dc6104fa3660046126b8565b611554565b34801561050b57600080fd5b506003546101e7906001600160a01b031681565b34801561052b57600080fd5b506102dc61053a3660046126f1565b6115de565b34801561054b57600080fd5b506102dc61055a36600461258b565b6115f0565b34801561056b57600080fd5b506102f460095481565b6102f4610583366004612771565b611683565b34801561059457600080fd5b506102dc6105a336600461247a565b611c6a565b3480156105b457600080fd5b506102366105c33660046127bd565b600660209081526000928352604080842090915290825290205460ff1681565b6001546040517fd2ec5fca0000000000000000000000000000000000000000000000000000000081526004810183905282916001600160a01b03169063d2ec5fca90602401602060405180830381865afa158015610645573d6000803e3d6000fd5b505050506040513d601f19601f8201168201806040525081019061066991906127eb565b42106106bc5760405162461bcd60e51b815260206004820152600f60248201527f494e56414c49445f544f4b454e4944000000000000000000000000000000000060448201526064015b60405180910390fd5b6001546040517f02571be3000000000000000000000000000000000000000000000000000000008152600481018390526000916001600160a01b0316906302571be390602401602060405180830381865afa15801561071f573d6000803e3d6000fd5b505050506040513d601f19601f820116820180604052508101906107439190612804565b6001546040517fdbd4e021000000000000000000000000000000000000000000000000000000008152600481018590529192506000916001600160a01b039091169063dbd4e02190602401602060405180830381865afa1580156107ab573d6000803e3d6000fd5b505050506040513d601f19601f820116820180604052508101906107cf9190612804565b9050336001600160a01b038316148015906107f35750336001600160a01b03821614155b801561082357506001600160a01b038216600090815260066020908152604080832033845290915290205460ff16155b15610872576040517f431ef6160000000000000000000000000000000000000000000000000000000081523360048201526001600160a01b0383166024820152604481018590526064016106b3565b6001546040517f01d49a5f000000000000000000000000000000000000000000000000000000008152600481018690526001600160a01b038781166024830152909116906301d49a5f90604401600060405180830381600087803b1580156108d957600080fd5b505af11580156108ed573d6000803e3d6000fd5b50506040518692506001600160a01b038816915033907f8c5be1e5ebec7d5bd14f71427d1e84f3dd0314c0f7b2291e5b200ac8c7c3b92590600090a45050505050565b61094b83838360405180602001604052806000815250611d55565b505050565b6000546001600160a01b031633146109a9576000546040517f8ea458f60000000000000000000000000000000000000000000000000000000081526001600160a01b0390911660048201523360248201526044016106b3565b600480547fffffffffffffffffffffff00ffffffffffffffffffffffffffffffffffffffff8116740100000000000000000000000000000000000000009182900460ff1615909102179055565b6000546001600160a01b03163314610a4f576000546040517f8ea458f60000000000000000000000000000000000000000000000000000000081526001600160a01b0390911660048201523360248201526044016106b3565b600855565b6001546040517fd2ec5fca0000000000000000000000000000000000000000000000000000000081526004810183905260009183916001600160a01b039091169063d2ec5fca90602401602060405180830381865afa158015610abb573d6000803e3d6000fd5b505050506040513d601f19601f82011682018060405250810190610adf91906127eb565b4210610b2d5760405162461bcd60e51b815260206004820152600f60248201527f494e56414c49445f544f4b454e4944000000000000000000000000000000000060448201526064016106b3565b6001546040517f02571be3000000000000000000000000000000000000000000000000000000008152600481018390526000916001600160a01b0316906302571be390602401602060405180830381865afa158015610b90573d6000803e3d6000fd5b505050506040513d601f19601f82011682018060405250810190610bb49190612804565b949350505050565b60008160605b8115610cb857600019909101907f2e00000000000000000000000000000000000000000000000000000000000000858584818110610c0257610c02612821565b9050013560f81c60f81b7effffffffffffffffffffffffffffffffffffffffffffffffffffffffffffff191603610c7457805160209182012060408051808401959095528481019190915280518085038201815260608501808352815191909301206080909401905260008152610bc2565b848483818110610c8657610c86612821565b9050013560f81c60f81b81604051602001610ca2929190612850565b6040516020818303038152906040529050610bc2565b805160208083019190912060408051928301869052820152606001604051602081830303815290604052805190602001209250505092915050565b600a8160028110610d0357600080fd5b0154905081565b600083600a820154610d1b826121f1565b118015610d315750600b54610d2f826121f1565b105b610d7d5760405162461bcd60e51b815260206004820152600d60248201527f494c4c4547414c5f4c4142454c0000000000000000000000000000000000000060448201526064016106b3565b6040517fa6470fd600000000000000000000000000000000000000000000000000000000815273__$47e4ffaaf323c41735ff299f8946896ce0$__9063a6470fd690610dd0908490600d906004016128eb565b602060405180830381865af4158015610ded573d6000803e3d6000fd5b505050506040513d601f19601f82011682018060405250810190610e119190612a19565b15610e5e5760405162461bcd60e51b815260206004820152600d60248201527f494c4c4547414c5f43484152530000000000000000000000000000000000000060448201526064016106b3565b6001600160a01b038416610eb45760405162461bcd60e51b815260206004820152600b60248201527f43414e4e4f545f4255524e00000000000000000000000000000000000000000060448201526064016106b3565b600854831015610f065760405162461bcd60e51b815260206004820152601260248201527f4c4946455350414e5f544f4f5f53484f5254000000000000000000000000000060448201526064016106b3565b82600954610f149190612a65565b341015610f635760405162461bcd60e51b815260206004820152601260248201527f494e53554646494349454e545f4554484552000000000000000000000000000060448201526064016106b3565b600085604051602001610f769190612a84565b60408051601f198184030181528282528051602091820120600c54918401529082015260600160408051808303601f190181529082905280516020909101206001547ff79fe538000000000000000000000000000000000000000000000000000000008352600483018290529092506001600160a01b03169063f79fe53890602401602060405180830381865afa158015611015573d6000803e3d6000fd5b505050506040513d601f19601f820116820180604052508101906110399190612a19565b156110865760405162461bcd60e51b815260206004820152600b60248201527f4e414d455f45584953545300000000000000000000000000000000000000000060448201526064016106b3565b6001546040517f02571be3000000000000000000000000000000000000000000000000000000008152600481018390526000916001600160a01b0316906302571be390602401602060405180830381865afa1580156110e9573d6000803e3d6000fd5b505050506040513d601f19601f8201168201806040525081019061110d9190612804565b90506001600160a01b03811615611169576001600160a01b0381166000818152600560205260408082208054600019019055518492907fddf252ad1be2c89b69c2b068fc378daa952ba7f163c4a11628f55a4df523b3ef908390a45b6001546040517f9177b0860000000000000000000000000000000000000000000000000000000081526001600160a01b0390911690639177b086906111b6908a9086908b90600401612aa0565b600060405180830381600087803b1580156111d057600080fd5b505af11580156111e4573d6000803e3d6000fd5b50506001546040517fd3156905000000000000000000000000000000000000000000000000000000008152600481018690526001600160a01b038a81166024830152909116925063d31569059150604401600060405180830381600087803b15801561124f57600080fd5b505af1158015611263573d6000803e3d6000fd5b50506001546001600160a01b031691506339de64699050836112858842612ad2565b6040517fffffffff0000000000000000000000000000000000000000000000000000000060e085901b16815260048101929092526024820152604401600060405180830381600087803b1580156112db57600080fd5b505af11580156112ef573d6000803e3d6000fd5b5050600154600480546040517f1896f70a0000000000000000000000000000000000000000000000000000000081529182018790526001600160a01b0390811660248301529091169250631896f70a9150604401600060405180830381600087803b15801561135d57600080fd5b505af1158015611371573d6000803e3d6000fd5b5050506001600160a01b0387166000908152600560205260409081902080546001019055518391507fb9bdfe1c95ffbd6ad8dd9fdb4f9e84980778dba776352729b1dad4a85a22770d906113c8908a908a90612aeb565b60405180910390a25095945050505050565b600d81600481106113ea57600080fd5b0180549091506113f990612898565b80601f016020809104026020016040519081016040528092919081815260200182805461142590612898565b80156114725780601f1061144757610100808354040283529160200191611472565b820191906000526020600020905b81548152906001019060200180831161145557829003601f168201915b505050505081565b6000546001600160a01b031633146114d3576000546040517f8ea458f60000000000000000000000000000000000000000000000000000000081526001600160a01b0390911660048201523360248201526044016106b3565b600054604080516001600160a01b03928316815291831660208301527fdec101f106d4fc7c85791843e64b198248c822298e3ed7046231d33f7783d816910160405180910390a1600080547fffffffffffffffffffffffff0000000000000000000000000000000000000000166001600160a01b0392909216919091179055565b3360008181526006602090815260408083206001600160a01b0387168085529083529281902080547fffffffffffffffffffffffffffffffffffffffffffffffffffffffffffffff001686151590811790915590519081529192917f17307eab39ab6107e8899845ad3d59bd9653f200f220920489ca2b5937696c31910160405180910390a35050565b6115ea84848484611d55565b50505050565b6000546001600160a01b03163314611649576000546040517f8ea458f60000000000000000000000000000000000000000000000000000000081526001600160a01b0390911660048201523360248201526044016106b3565b600480547fffffffffffffffffffffffff0000000000000000000000000000000000000000166001600160a01b0392909216919091179055565b6000806116908585610bbc565b6002546040517f02571be3000000000000000000000000000000000000000000000000000000008152600481018390529192506001600160a01b0316906302571be390602401602060405180830381865afa1580156116f3573d6000803e3d6000fd5b505050506040513d601f19601f820116820180604052508101906117179190612804565b6001600160a01b0316336001600160a01b0316146117775760405162461bcd60e51b815260206004820152600d60248201527f4e4f545f454e535f4f574e45520000000000000000000000000000000000000060448201526064016106b3565b6008548310156117c95760405162461bcd60e51b815260206004820152601260248201527f4c4946455350414e5f544f4f5f53484f5254000000000000000000000000000060448201526064016106b3565b826009546117d79190612a65565b3410156118265760405162461bcd60e51b815260206004820152601260248201527f494e53554646494349454e545f4554484552000000000000000000000000000060448201526064016106b3565b600081600c54604051602001611846929190918252602082015260400190565b60408051808303601f190181529082905280516020909101206001547ff79fe538000000000000000000000000000000000000000000000000000000008352600483018290529092506001600160a01b03169063f79fe53890602401602060405180830381865afa1580156118bf573d6000803e3d6000fd5b505050506040513d601f19601f820116820180604052508101906118e39190612a19565b156119305760405162461bcd60e51b815260206004820152600b60248201527f4e414d455f45584953545300000000000000000000000000000000000000000060448201526064016106b3565b6001546040517f02571be3000000000000000000000000000000000000000000000000000000008152600481018390526000916001600160a01b0316906302571be390602401602060405180830381865afa158015611993573d6000803e3d6000fd5b505050506040513d601f19601f820116820180604052508101906119b79190612804565b90506001600160a01b03811615611a13576001600160a01b0381166000818152600560205260408082208054600019019055518492907fddf252ad1be2c89b69c2b068fc378daa952ba7f163c4a11628f55a4df523b3ef908390a45b6001546040517f9177b0860000000000000000000000000000000000000000000000000000000081526001600160a01b0390911690639177b08690611a62908a908a9087903390600401612b41565b600060405180830381600087803b158015611a7c57600080fd5b505af1158015611a90573d6000803e3d6000fd5b50506001546040517fd3156905000000000000000000000000000000000000000000000000000000008152600481018690523360248201526001600160a01b03909116925063d31569059150604401600060405180830381600087803b158015611af957600080fd5b505af1158015611b0d573d6000803e3d6000fd5b50506001546001600160a01b031691506339de6469905083611b2f8842612ad2565b6040517fffffffff0000000000000000000000000000000000000000000000000000000060e085901b16815260048101929092526024820152604401600060405180830381600087803b158015611b8557600080fd5b505af1158015611b99573d6000803e3d6000fd5b5050600154600480546040517f1896f70a0000000000000000000000000000000000000000000000000000000081529182018790526001600160a01b0390811660248301529091169250631896f70a9150604401600060405180830381600087803b158015611c0757600080fd5b505af1158015611c1b573d6000803e3d6000fd5b5050336000818152600560205260409081902080546001019055518593507f9a050a1e2c15ba19262655fcd57f128807dad34cd2f1ddf4d11686270af0a0c092506113c8918b918b9190612b75565b600360009054906101000a90046001600160a01b03166001600160a01b0316635ab1bd536040518163ffffffff1660e01b8152600401608060405180830381865afa158015611cbd573d6000803e3d6000fd5b505050506040513d601f19601f82011682018060405250810190611ce19190612ba2565b516001600160a01b03163314611d395760405162461bcd60e51b815260206004820152600c60248201527f4e4f545f5245474953545259000000000000000000000000000000000000000060448201526064016106b3565b6001600160a01b03909116600090815260056020526040902055565b6001546040517fd2ec5fca0000000000000000000000000000000000000000000000000000000081526004810184905283916001600160a01b03169063d2ec5fca90602401602060405180830381865afa158015611db7573d6000803e3d6000fd5b505050506040513d601f19601f82011682018060405250810190611ddb91906127eb565b4210611e295760405162461bcd60e51b815260206004820152600f60248201527f494e56414c49445f544f4b454e4944000000000000000000000000000000000060448201526064016106b3565b6001546040517f02571be3000000000000000000000000000000000000000000000000000000008152600481018390526000916001600160a01b0316906302571be390602401602060405180830381865afa158015611e8c573d6000803e3d6000fd5b505050506040513d601f19601f82011682018060405250810190611eb09190612804565b90506001600160a01b038516611ef2576040517f5788079900000000000000000000000000000000000000000000000000000000815260040160405180910390fd5b856001600160a01b0316816001600160a01b031614611f57576040517f431ef6160000000000000000000000000000000000000000000000000000000081526001600160a01b03808316600483015287166024820152604481018590526064016106b3565b336001600160a01b03821614611fb1576040517f431ef6160000000000000000000000000000000000000000000000000000000081523360048201526001600160a01b0387166024820152604481018590526064016106b3565b6001546040517fbe22e756000000000000000000000000000000000000000000000000000000008152600481018690526001600160a01b0387811660248301529091169063be22e75690604401600060405180830381600087803b15801561201857600080fd5b505af115801561202c573d6000803e3d6000fd5b5050506001600160a01b0380881660008181526005602052604080822080546000190190559289168082528382208054600101905592518894507fddf252ad1be2c89b69c2b068fc378daa952ba7f163c4a11628f55a4df523b3ef9190a46001600160a01b0385163b156121e9576040517f150b7a020000000000000000000000000000000000000000000000000000000081526001600160a01b0386169063150b7a02906120e59033908a9089908990600401612c29565b6020604051808303816000875af1925050508015612120575060408051601f3d908101601f1916820190925261211d91810190612c65565b60015b612161576040517f3a9f8cb30000000000000000000000000000000000000000000000000000000081526001600160a01b03861660048201526024016106b3565b7fffffffff0000000000000000000000000000000000000000000000000000000081167f150b7a0200000000000000000000000000000000000000000000000000000000146121e7576040517f3a9f8cb30000000000000000000000000000000000000000000000000000000081526001600160a01b03871660048201526024016106b3565b505b505050505050565b8051600090819081905b808210156123ef57600085838151811061221757612217612821565b01602001517fff000000000000000000000000000000000000000000000000000000000000001690507f800000000000000000000000000000000000000000000000000000000000000081101561227a57612273600184612ad2565b92506123dc565b7fe0000000000000000000000000000000000000000000000000000000000000007fff00000000000000000000000000000000000000000000000000000000000000821610156122cf57612273600284612ad2565b7ff0000000000000000000000000000000000000000000000000000000000000007fff000000000000000000000000000000000000000000000000000000000000008216101561232457612273600384612ad2565b7ff8000000000000000000000000000000000000000000000000000000000000007fff000000000000000000000000000000000000000000000000000000000000008216101561237957612273600484612ad2565b7ffc000000000000000000000000000000000000000000000000000000000000007fff00000000000000000000000000000000000000000000000000000000000000821610156123ce57612273600584612ad2565b6123d9600684612ad2565b92505b50826123e781612ca7565b9350506121fb565b50909392505050565b60005b838110156124135781810151838201526020016123fb565b50506000910152565b600081518084526124348160208601602086016123f8565b601f01601f19169290920160200192915050565b60208152600061245b602083018461241c565b9392505050565b6001600160a01b038116811461247757600080fd5b50565b6000806040838503121561248d57600080fd5b823561249881612462565b946020939093013593505050565b6000806000606084860312156124bb57600080fd5b83356124c681612462565b925060208401356124d681612462565b929592945050506040919091013590565b6000602082840312156124f957600080fd5b5035919050565b60008083601f84011261251257600080fd5b50813567ffffffffffffffff81111561252a57600080fd5b60208301915083602082850101111561254257600080fd5b9250929050565b6000806020838503121561255c57600080fd5b823567ffffffffffffffff81111561257357600080fd5b61257f85828601612500565b90969095509350505050565b60006020828403121561259d57600080fd5b813561245b81612462565b7f4e487b7100000000000000000000000000000000000000000000000000000000600052604160045260246000fd5b600067ffffffffffffffff808411156125f2576125f26125a8565b604051601f8501601f19908116603f0116810190828211818310171561261a5761261a6125a8565b8160405280935085815286868601111561263357600080fd5b858560208301376000602087830101525050509392505050565b60008060006060848603121561266257600080fd5b833567ffffffffffffffff81111561267957600080fd5b8401601f8101861361268a57600080fd5b612699868235602084016125d7565b93505060208401356124d681612462565b801515811461247757600080fd5b600080604083850312156126cb57600080fd5b82356126d681612462565b915060208301356126e6816126aa565b809150509250929050565b6000806000806080858703121561270757600080fd5b843561271281612462565b9350602085013561272281612462565b925060408501359150606085013567ffffffffffffffff81111561274557600080fd5b8501601f8101871361275657600080fd5b612765878235602084016125d7565b91505092959194509250565b60008060006040848603121561278657600080fd5b833567ffffffffffffffff81111561279d57600080fd5b6127a986828701612500565b909790965060209590950135949350505050565b600080604083850312156127d057600080fd5b82356127db81612462565b915060208301356126e681612462565b6000602082840312156127fd57600080fd5b5051919050565b60006020828403121561281657600080fd5b815161245b81612462565b7f4e487b7100000000000000000000000000000000000000000000000000000000600052603260045260246000fd5b7fff00000000000000000000000000000000000000000000000000000000000000831681526000825161288a8160018501602087016123f8565b919091016001019392505050565b600181811c908216806128ac57607f821691505b6020821081036128e5577f4e487b7100000000000000000000000000000000000000000000000000000000600052602260045260246000fd5b50919050565b6040815260006128fe604083018561241c565b60208382038185015281829050608083018660005b60048082106129225750612a0b565b86840385528254600090600181811c908083168061294157607f831692505b8a83108103612976577f4e487b7100000000000000000000000000000000000000000000000000000000855260228652602485fd5b82895260208901955080801561299357600181146129c7576129f2565b7fffffffffffffffffffffffffffffffffffffffffffffffffffffffffffffff008516875283151560051b870195506129f2565b60008981526020902060005b858110156129ec57815489820152908401908d016129d3565b88019650505b5050978901979296505050929092019150600101612913565b509098975050505050505050565b600060208284031215612a2b57600080fd5b815161245b816126aa565b7f4e487b7100000000000000000000000000000000000000000000000000000000600052601160045260246000fd5b6000816000190483118215151615612a7f57612a7f612a36565b500290565b60008251612a968184602087016123f8565b9190910192915050565b606081526000612ab3606083018661241c565b90508360208301526001600160a01b0383166040830152949350505050565b80820180821115612ae557612ae5612a36565b92915050565b604081526000612afe604083018561241c565b90506001600160a01b03831660208301529392505050565b818352818160208501375060006020828401015260006020601f19601f840116840101905092915050565b606081526000612b55606083018688612b16565b90508360208301526001600160a01b038316604083015295945050505050565b604081526000612b89604083018587612b16565b90506001600160a01b0383166020830152949350505050565b600060808284031215612bb457600080fd5b82601f830112612bc357600080fd5b6040516080810181811067ffffffffffffffff82111715612be657612be66125a8565b604052806080840185811115612bfb57600080fd5b845b81811015612c1e578051612c1081612462565b835260209283019201612bfd565b509195945050505050565b60006001600160a01b03808716835280861660208401525083604083015260806060830152612c5b608083018461241c565b9695505050505050565b600060208284031215612c7757600080fd5b81517fffffffff000000000000000000000000000000000000000000000000000000008116811461245b57600080fd5b60006000198203612cba57612cba612a36565b506001019056fea2646970667358221220f048fbce0aa984fac06964eb4efc2421fb13876de72c9bd644b12e303504692864736f6c63430008100033",
    "linkReferences": {
      "src/Utils/LibString.sol": {
        "LibString": [
          {
            "start": 5870,
            "length": 20
          }
        ]
      }
    }
  },
  "methodIdentifiers": {
    "Dev()": "01e51ae8",
    "ENS()": "1d2e2cc4",
    "HELIX2()": "b782426e",
    "NAMES()": "05e84aa0",
    "active()": "02fb0c5e",
    "approve(address,uint256)": "095ea7b3",
    "balanceOf(address)": "70a08231",
    "basePrice()": "c7876ea4",
    "changeDev(address)": "88a8c95c",
    "claimENS(string,uint256)": "d5bd7937",
    "defaultLifespan()": "0e6c0bdb",
    "defaultResolver()": "828eab0e",
    "hashENS(bytes)": "6e73bfd9",
    "illegalBlocks(uint256)": "80b29beb",
    "isApprovedForAll(address,address)": "e985e9c5",
    "name()": "06fdde03",
    "newName(string,address,uint256)": "7f9348aa",
    "ownerOf(uint256)": "6352211e",
    "roothash()": "251c9422",
    "safeTransferFrom(address,address,uint256)": "42842e0e",
    "safeTransferFrom(address,address,uint256,bytes)": "b88d4fde",
    "setApprovalForAll(address,bool)": "a22cb465",
    "setBalance(address,uint256)": "e30443bc",
    "setDefaultLifespan(uint256)": "39506308",
    "setDefaultResolver(address)": "c66485b2",
    "sizeLimit(uint256)": "769da4bb",
    "symbol()": "95d89b41",
    "toggleActive()": "29c68dc1",
    "transferFrom(address,address,uint256)": "23b872dd"
  },
  "id": 32
}