{
  "abi": [
    {
      "inputs": [
        {
          "internalType": "address",
          "name": "_registry",
          "type": "address"
        },
        {
          "internalType": "address",
          "name": "_helix2",
          "type": "address"
        }
      ],
      "stateMutability": "nonpayable",
      "type": "constructor"
    },
    {
      "inputs": [],
      "name": "CannotBurn",
      "type": "error"
    },
    {
      "inputs": [
        {
          "internalType": "address",
          "name": "to",
          "type": "address"
        }
      ],
      "name": "ERC721IncompatibleReceiver",
      "type": "error"
    },
    {
      "inputs": [
        {
          "internalType": "address",
          "name": "_dev",
          "type": "address"
        },
        {
          "internalType": "address",
          "name": "_you",
          "type": "address"
        }
      ],
      "name": "OnlyDev",
      "type": "error"
    },
    {
      "inputs": [
        {
          "internalType": "address",
          "name": "operator",
          "type": "address"
        },
        {
          "internalType": "address",
          "name": "owner",
          "type": "address"
        },
        {
          "internalType": "uint256",
          "name": "tokenID",
          "type": "uint256"
        }
      ],
      "name": "Unauthorized",
      "type": "error"
    },
    {
      "anonymous": false,
      "inputs": [
        {
          "indexed": true,
          "internalType": "address",
          "name": "owner",
          "type": "address"
        },
        {
          "indexed": true,
          "internalType": "address",
          "name": "spender",
          "type": "address"
        },
        {
          "indexed": true,
          "internalType": "uint256",
          "name": "tokenID",
          "type": "uint256"
        }
      ],
      "name": "Approval",
      "type": "event"
    },
    {
      "anonymous": false,
      "inputs": [
        {
          "indexed": true,
          "internalType": "address",
          "name": "owner",
          "type": "address"
        },
        {
          "indexed": true,
          "internalType": "address",
          "name": "operator",
          "type": "address"
        },
        {
          "indexed": false,
          "internalType": "bool",
          "name": "approved",
          "type": "bool"
        }
      ],
      "name": "ApprovalForAll",
      "type": "event"
    },
    {
      "anonymous": false,
      "inputs": [
        {
          "indexed": false,
          "internalType": "address",
          "name": "Dev",
          "type": "address"
        },
        {
          "indexed": false,
          "internalType": "address",
          "name": "newDev",
          "type": "address"
        }
      ],
      "name": "NewDev",
      "type": "event"
    },
    {
      "anonymous": false,
      "inputs": [
        {
          "indexed": true,
          "internalType": "bytes32",
          "name": "namehash",
          "type": "bytes32"
        },
        {
          "indexed": false,
          "internalType": "address",
          "name": "owner",
          "type": "address"
        }
      ],
      "name": "NewName",
      "type": "event"
    },
    {
      "anonymous": false,
      "inputs": [
        {
          "indexed": true,
          "internalType": "address",
          "name": "from",
          "type": "address"
        },
        {
          "indexed": true,
          "internalType": "address",
          "name": "to",
          "type": "address"
        },
        {
          "indexed": true,
          "internalType": "uint256",
          "name": "tokenID",
          "type": "uint256"
        }
      ],
      "name": "Transfer",
      "type": "event"
    },
    {
      "inputs": [],
      "name": "Dev",
      "outputs": [
        {
          "internalType": "address",
          "name": "",
          "type": "address"
        }
      ],
      "stateMutability": "view",
      "type": "function"
    },
    {
      "inputs": [],
      "name": "HELIX2",
      "outputs": [
        {
          "internalType": "contract iHELIX2",
          "name": "",
          "type": "address"
        }
      ],
      "stateMutability": "view",
      "type": "function"
    },
    {
      "inputs": [],
      "name": "NAMES",
      "outputs": [
        {
          "internalType": "contract iNAME",
          "name": "",
          "type": "address"
        }
      ],
      "stateMutability": "view",
      "type": "function"
    },
    {
      "inputs": [],
      "name": "active",
      "outputs": [
        {
          "internalType": "bool",
          "name": "",
          "type": "bool"
        }
      ],
      "stateMutability": "view",
      "type": "function"
    },
    {
      "inputs": [
        {
          "internalType": "address",
          "name": "operator",
          "type": "address"
        },
        {
          "internalType": "uint256",
          "name": "tokenID",
          "type": "uint256"
        }
      ],
      "name": "approve",
      "outputs": [],
      "stateMutability": "nonpayable",
      "type": "function"
    },
    {
      "inputs": [
        {
          "internalType": "address",
          "name": "wallet",
          "type": "address"
        }
      ],
      "name": "balanceOf",
      "outputs": [
        {
          "internalType": "uint256",
          "name": "",
          "type": "uint256"
        }
      ],
      "stateMutability": "view",
      "type": "function"
    },
    {
      "inputs": [],
      "name": "basePrice",
      "outputs": [
        {
          "internalType": "uint256",
          "name": "",
          "type": "uint256"
        }
      ],
      "stateMutability": "view",
      "type": "function"
    },
    {
      "inputs": [
        {
          "internalType": "address",
          "name": "newDev",
          "type": "address"
        }
      ],
      "name": "changeDev",
      "outputs": [],
      "stateMutability": "nonpayable",
      "type": "function"
    },
    {
      "inputs": [],
      "name": "defaultLifespan",
      "outputs": [
        {
          "internalType": "uint256",
          "name": "",
          "type": "uint256"
        }
      ],
      "stateMutability": "view",
      "type": "function"
    },
    {
      "inputs": [],
      "name": "defaultResolver",
      "outputs": [
        {
          "internalType": "address",
          "name": "",
          "type": "address"
        }
      ],
      "stateMutability": "view",
      "type": "function"
    },
    {
      "inputs": [
        {
          "internalType": "uint256",
          "name": "",
          "type": "uint256"
        }
      ],
      "name": "illegalBlocks",
      "outputs": [
        {
          "internalType": "string",
          "name": "",
          "type": "string"
        }
      ],
      "stateMutability": "view",
      "type": "function"
    },
    {
      "inputs": [
        {
          "internalType": "address",
          "name": "",
          "type": "address"
        },
        {
          "internalType": "address",
          "name": "",
          "type": "address"
        }
      ],
      "name": "isApprovedForAll",
      "outputs": [
        {
          "internalType": "bool",
          "name": "",
          "type": "bool"
        }
      ],
      "stateMutability": "view",
      "type": "function"
    },
    {
      "inputs": [],
      "name": "name",
      "outputs": [
        {
          "internalType": "string",
          "name": "",
          "type": "string"
        }
      ],
      "stateMutability": "view",
      "type": "function"
    },
    {
      "inputs": [
        {
          "internalType": "string",
          "name": "label",
          "type": "string"
        },
        {
          "internalType": "address",
          "name": "owner",
          "type": "address"
        },
        {
          "internalType": "uint256",
          "name": "lifespan",
          "type": "uint256"
        }
      ],
      "name": "newName",
      "outputs": [
        {
          "internalType": "bytes32",
          "name": "",
          "type": "bytes32"
        }
      ],
      "stateMutability": "payable",
      "type": "function"
    },
    {
      "inputs": [
        {
          "internalType": "uint256",
          "name": "tokenID",
          "type": "uint256"
        }
      ],
      "name": "ownerOf",
      "outputs": [
        {
          "internalType": "address",
          "name": "",
          "type": "address"
        }
      ],
      "stateMutability": "view",
      "type": "function"
    },
    {
      "inputs": [
        {
          "internalType": "address",
          "name": "from",
          "type": "address"
        },
        {
          "internalType": "address",
          "name": "to",
          "type": "address"
        },
        {
          "internalType": "uint256",
          "name": "tokenID",
          "type": "uint256"
        }
      ],
      "name": "safeTransferFrom",
      "outputs": [],
      "stateMutability": "nonpayable",
      "type": "function"
    },
    {
      "inputs": [
        {
          "internalType": "address",
          "name": "from",
          "type": "address"
        },
        {
          "internalType": "address",
          "name": "to",
          "type": "address"
        },
        {
          "internalType": "uint256",
          "name": "tokenID",
          "type": "uint256"
        },
        {
          "internalType": "bytes",
          "name": "data",
          "type": "bytes"
        }
      ],
      "name": "safeTransferFrom",
      "outputs": [],
      "stateMutability": "nonpayable",
      "type": "function"
    },
    {
      "inputs": [
        {
          "internalType": "address",
          "name": "operator",
          "type": "address"
        },
        {
          "internalType": "bool",
          "name": "flag",
          "type": "bool"
        }
      ],
      "name": "setApprovalForAll",
      "outputs": [],
      "stateMutability": "nonpayable",
      "type": "function"
    },
    {
      "inputs": [
        {
          "internalType": "address",
          "name": "wallet",
          "type": "address"
        },
        {
          "internalType": "uint256",
          "name": "balance",
          "type": "uint256"
        }
      ],
      "name": "setBalance",
      "outputs": [],
      "stateMutability": "nonpayable",
      "type": "function"
    },
    {
      "inputs": [
        {
          "internalType": "uint256",
          "name": "_lifespan",
          "type": "uint256"
        }
      ],
      "name": "setDefaultLifespan",
      "outputs": [],
      "stateMutability": "nonpayable",
      "type": "function"
    },
    {
      "inputs": [
        {
          "internalType": "address",
          "name": "_resolver",
          "type": "address"
        }
      ],
      "name": "setDefaultResolver",
      "outputs": [],
      "stateMutability": "nonpayable",
      "type": "function"
    },
    {
      "inputs": [],
      "name": "sizeLimit",
      "outputs": [
        {
          "internalType": "uint256",
          "name": "",
          "type": "uint256"
        }
      ],
      "stateMutability": "view",
      "type": "function"
    },
    {
      "inputs": [],
      "name": "symbol",
      "outputs": [
        {
          "internalType": "string",
          "name": "",
          "type": "string"
        }
      ],
      "stateMutability": "view",
      "type": "function"
    },
    {
      "inputs": [],
      "name": "toggleActive",
      "outputs": [],
      "stateMutability": "nonpayable",
      "type": "function"
    },
    {
      "inputs": [
        {
          "internalType": "address",
          "name": "from",
          "type": "address"
        },
        {
          "internalType": "address",
          "name": "to",
          "type": "address"
        },
        {
          "internalType": "uint256",
          "name": "tokenID",
          "type": "uint256"
        }
      ],
      "name": "transferFrom",
      "outputs": [],
      "stateMutability": "nonpayable",
      "type": "function"
    }
  ],
  "bytecode": {
    "object": "0x60806040526003805460ff60a01b1916600160a01b1790553480156200002457600080fd5b50604051620029a5380380620029a583398101604081905262000047916200035b565b60008054336001600160a01b0319918216179091556001805482166001600160a01b0385811691909117909155600280549092169083169081179091556040805163bd9a548b60e01b8152905163bd9a548b916004808201926080929091908290030181865afa158015620000c0573d6000803e3d6000fd5b505050506040513d601f19601f82011682018060405250810190620000e6919062000407565b516008556002546040805163335076e760e11b815290516001600160a01b03909216916366a0edce916004808201926080929091908290030181865afa15801562000135573d6000803e3d6000fd5b505050506040513d601f19601f820116820180604052508101906200015b919062000407565b5160095560025460408051637615671560e11b815290516001600160a01b039092169163ec2ace2a916004808201926080929091908290030181865afa158015620001aa573d6000803e3d6000fd5b505050506040513d601f19601f82011682018060405250810190620001d0919062000407565b51600755600254604080516330b5337f60e21b815290516001600160a01b039092169163c2d4cdfc916004808201926000929091908290030181865afa1580156200021f573d6000803e3d6000fd5b505050506040513d6000823e601f3d908101601f191682016040526200024991908101906200046e565b6200025990600a90600462000274565b5050600080546001600160a01b0319163317905550620006de565b8260048101928215620002b2579160200282015b82811115620002b25782518290620002a1908262000612565b509160200191906001019062000288565b50620002c0929150620002c4565b5090565b80821115620002c0576000620002db8282620002e5565b50600101620002c4565b508054620002f39062000583565b6000825580601f1062000304575050565b601f01602090049060005260206000209081019062000324919062000327565b50565b5b80821115620002c0576000815560010162000328565b80516001600160a01b03811681146200035657600080fd5b919050565b600080604083850312156200036f57600080fd5b6200037a836200033e565b91506200038a602084016200033e565b90509250929050565b634e487b7160e01b600052604160045260246000fd5b604051608081016001600160401b0381118282101715620003ce57620003ce62000393565b60405290565b604051601f8201601f191681016001600160401b0381118282101715620003ff57620003ff62000393565b604052919050565b6000608082840312156200041a57600080fd5b82601f8301126200042a57600080fd5b62000434620003a9565b8060808401858111156200044757600080fd5b845b818110156200046357805184526020938401930162000449565b509095945050505050565b600060208083850312156200048257600080fd5b82516001600160401b03808211156200049a57600080fd5b8185019150601f8681840112620004b057600080fd5b620004ba620003a9565b806080850189811115620004cd57600080fd5b855b818110156200057457805186811115620004e95760008081fd5b87018581018c13620004fb5760008081fd5b80518781111562000510576200051062000393565b62000523818801601f19168b01620003d4565b8181528d8b838501011115620005395760008081fd5b60005b8281101562000559578381018c01518282018d01528b016200053c565b5060009181018b0191909152855250928701928701620004cf565b50909998505050505050505050565b600181811c908216806200059857607f821691505b602082108103620005b957634e487b7160e01b600052602260045260246000fd5b50919050565b601f8211156200060d57600081815260208120601f850160051c81016020861015620005e85750805b601f850160051c820191505b818110156200060957828155600101620005f4565b5050505b505050565b81516001600160401b038111156200062e576200062e62000393565b62000646816200063f845462000583565b84620005bf565b602080601f8311600181146200067e5760008415620006655750858301515b600019600386901b1c1916600185901b17855562000609565b600085815260208120601f198616915b82811015620006af578886015182559484019460019091019084016200068e565b5085821015620006ce5787850151600019600388901b60f8161c191681555b5050505050600190811b01905550565b6122b780620006ee6000396000f3fe6080604052600436106101965760003560e01c806370a08231116100e1578063a22cb4651161008a578063c66485b211610064578063c66485b2146104b3578063c7876ea4146104d3578063e30443bc146104e9578063e985e9c51461050957600080fd5b8063a22cb46514610453578063b782426e14610473578063b88d4fde1461049357600080fd5b8063828eab0e116100bb578063828eab0e146103ca57806388a8c95c146103ea57806395d89b411461040a57600080fd5b806370a08231146103615780637f9348aa1461039757806380b29beb146103aa57600080fd5b8063210fd27111610143578063395063081161011d578063395063081461032157806342842e0e146102ec5780636352211e1461034157600080fd5b8063210fd271146102d657806323b872dd146102ec57806329c68dc11461030c57600080fd5b806306fdde031161017457806306fdde031461023a578063095ea7b3146102905780630e6c0bdb146102b257600080fd5b806301e51ae81461019b57806302fb0c5e146101d857806305e84aa01461021a575b600080fd5b3480156101a757600080fd5b506000546101bb906001600160a01b031681565b6040516001600160a01b0390911681526020015b60405180910390f35b3480156101e457600080fd5b5060035461020a9074010000000000000000000000000000000000000000900460ff1681565b60405190151581526020016101cf565b34801561022657600080fd5b506001546101bb906001600160a01b031681565b34801561024657600080fd5b506102836040518060400160405280601381526020017f48656c697832204e616d6520536572766963650000000000000000000000000081525081565b6040516101cf9190611ba6565b34801561029c57600080fd5b506102b06102ab366004611bd8565b610544565b005b3480156102be57600080fd5b506102c860075481565b6040519081526020016101cf565b3480156102e257600080fd5b506102c860095481565b3480156102f857600080fd5b506102b0610307366004611c04565b610891565b34801561031857600080fd5b506102b06108b1565b34801561032d57600080fd5b506102b061033c366004611c45565b610957565b34801561034d57600080fd5b506101bb61035c366004611c45565b6109b5565b34801561036d57600080fd5b506102c861037c366004611c5e565b6001600160a01b031660009081526004602052604090205490565b6102c86103a5366004611d49565b610b1d565b3480156103b657600080fd5b506102836103c5366004611c45565b611308565b3480156103d657600080fd5b506003546101bb906001600160a01b031681565b3480156103f657600080fd5b506102b0610405366004611c5e565b6113a8565b34801561041657600080fd5b506102836040518060400160405280600381526020017f484e53000000000000000000000000000000000000000000000000000000000081525081565b34801561045f57600080fd5b506102b061046e366004611db4565b611482565b34801561047f57600080fd5b506002546101bb906001600160a01b031681565b34801561049f57600080fd5b506102b06104ae366004611ded565b61150c565b3480156104bf57600080fd5b506102b06104ce366004611c5e565b61151e565b3480156104df57600080fd5b506102c860085481565b3480156104f557600080fd5b506102b0610504366004611bd8565b6115b1565b34801561051557600080fd5b5061020a610524366004611e6d565b600560209081526000928352604080842090915290825290205460ff1681565b6001546040517fd2ec5fca0000000000000000000000000000000000000000000000000000000081526004810183905282916001600160a01b03169063d2ec5fca90602401602060405180830381865afa1580156105a6573d6000803e3d6000fd5b505050506040513d601f19601f820116820180604052508101906105ca9190611e9b565b421061061d5760405162461bcd60e51b815260206004820152600f60248201527f494e56414c49445f544f4b454e4944000000000000000000000000000000000060448201526064015b60405180910390fd5b6001546040517f02571be3000000000000000000000000000000000000000000000000000000008152600481018390526000916001600160a01b0316906302571be390602401602060405180830381865afa158015610680573d6000803e3d6000fd5b505050506040513d601f19601f820116820180604052508101906106a49190611eb4565b6001546040517fdbd4e021000000000000000000000000000000000000000000000000000000008152600481018590529192506000916001600160a01b039091169063dbd4e02190602401602060405180830381865afa15801561070c573d6000803e3d6000fd5b505050506040513d601f19601f820116820180604052508101906107309190611eb4565b9050336001600160a01b038316148015906107545750336001600160a01b03821614155b801561078457506001600160a01b038216600090815260056020908152604080832033845290915290205460ff16155b156107d3576040517f431ef6160000000000000000000000000000000000000000000000000000000081523360048201526001600160a01b038316602482015260448101859052606401610614565b6001546040517f01d49a5f000000000000000000000000000000000000000000000000000000008152600481018690526001600160a01b038781166024830152909116906301d49a5f90604401600060405180830381600087803b15801561083a57600080fd5b505af115801561084e573d6000803e3d6000fd5b50506040518692506001600160a01b038816915033907f8c5be1e5ebec7d5bd14f71427d1e84f3dd0314c0f7b2291e5b200ac8c7c3b92590600090a45050505050565b6108ac8383836040518060200160405280600081525061169c565b505050565b6000546001600160a01b0316331461090a576000546040517f8ea458f60000000000000000000000000000000000000000000000000000000081526001600160a01b039091166004820152336024820152604401610614565b600380547fffffffffffffffffffffff00ffffffffffffffffffffffffffffffffffffffff8116740100000000000000000000000000000000000000009182900460ff1615909102179055565b6000546001600160a01b031633146109b0576000546040517f8ea458f60000000000000000000000000000000000000000000000000000000081526001600160a01b039091166004820152336024820152604401610614565b600755565b6001546040517fd2ec5fca0000000000000000000000000000000000000000000000000000000081526004810183905260009183916001600160a01b039091169063d2ec5fca90602401602060405180830381865afa158015610a1c573d6000803e3d6000fd5b505050506040513d601f19601f82011682018060405250810190610a409190611e9b565b4210610a8e5760405162461bcd60e51b815260206004820152600f60248201527f494e56414c49445f544f4b454e494400000000000000000000000000000000006044820152606401610614565b6001546040517f02571be3000000000000000000000000000000000000000000000000000000008152600481018390526000916001600160a01b0316906302571be390602401602060405180830381865afa158015610af1573d6000803e3d6000fd5b505050506040513d601f19601f82011682018060405250810190610b159190611eb4565b949350505050565b600083600954815110610b725760405162461bcd60e51b815260206004820152600d60248201527f494c4c4547414c5f4c4142454c000000000000000000000000000000000000006044820152606401610614565b6040517fa6470fd600000000000000000000000000000000000000000000000000000000815273__$47e4ffaaf323c41735ff299f8946896ce0$__9063a6470fd690610bc5908490600a90600401611f24565b602060405180830381865af4158015610be2573d6000803e3d6000fd5b505050506040513d601f19601f82011682018060405250810190610c069190612052565b15610c535760405162461bcd60e51b815260206004820152600d60248201527f494c4c4547414c5f4348415253000000000000000000000000000000000000006044820152606401610614565b846000600260009054906101000a90046001600160a01b03166001600160a01b031663642a8ed66040518163ffffffff1660e01b8152600401608060405180830381865afa158015610ca9573d6000803e3d6000fd5b505050506040513d601f19601f82011682018060405250810190610ccd919061206f565b6020908101516001546040519193506000926001600160a01b039091169163d2ec5fca918591610cff918891016120cf565b60405160208183030381529060405280519060200120604051602001610d2f929190918252602082015260400190565b604051602081830303815290604052805190602001206040518263ffffffff1660e01b8152600401610d6391815260200190565b602060405180830381865afa158015610d80573d6000803e3d6000fd5b505050506040513d601f19601f82011682018060405250810190610da49190611e9b565b9050428110610df55760405162461bcd60e51b815260206004820152600b60248201527f4e414d455f4558495354530000000000000000000000000000000000000000006044820152606401610614565b6001600160a01b038716610e4b5760405162461bcd60e51b815260206004820152600b60248201527f43414e4e4f545f4255524e0000000000000000000000000000000000000000006044820152606401610614565b600754861015610e9d5760405162461bcd60e51b815260206004820152601260248201527f4c4946455350414e5f544f4f5f53484f525400000000000000000000000000006044820152606401610614565b85600854610eab919061211a565b341015610efa5760405162461bcd60e51b815260206004820152601260248201527f494e53554646494349454e545f455448455200000000000000000000000000006044820152606401610614565b600254604080517f642a8ed600000000000000000000000000000000000000000000000000000000815290516000926001600160a01b03169163642a8ed69160048083019260809291908290030181865afa158015610f5d573d6000803e3d6000fd5b505050506040513d601f19601f82011682018060405250810190610f81919061206f565b51604051909150600090610f99908b906020016120cf565b60408051601f19818403018152828252805160209182012090830152810183905260600160408051808303601f190181529082905280516020909101206001547f02571be3000000000000000000000000000000000000000000000000000000008352600483018290529092506000916001600160a01b03909116906302571be390602401602060405180830381865afa15801561103b573d6000803e3d6000fd5b505050506040513d601f19601f8201168201806040525081019061105f9190611eb4565b90506001600160a01b0381161561109a576001600160a01b038116600090815260046020526040812080549161109483612157565b91905055505b6001546040517fd22057a9000000000000000000000000000000000000000000000000000000008152600481018490526001600160a01b038c811660248301529091169063d22057a990604401600060405180830381600087803b15801561110157600080fd5b505af1158015611115573d6000803e3d6000fd5b50506001546040517fd3156905000000000000000000000000000000000000000000000000000000008152600481018690526001600160a01b038e81166024830152909116925063d31569059150604401600060405180830381600087803b15801561118057600080fd5b505af1158015611194573d6000803e3d6000fd5b50506001546001600160a01b031691506339de64699050836111b68c4261218c565b6040517fffffffff0000000000000000000000000000000000000000000000000000000060e085901b16815260048101929092526024820152604401600060405180830381600087803b15801561120c57600080fd5b505af1158015611220573d6000803e3d6000fd5b50506001546003546040517f1896f70a000000000000000000000000000000000000000000000000000000008152600481018790526001600160a01b03918216602482015291169250631896f70a9150604401600060405180830381600087803b15801561128d57600080fd5b505af11580156112a1573d6000803e3d6000fd5b505050506001600160a01b038a1660008181526004602090815260409182902080546001019055905191825283917f78d6d6769df86b6a2c7c8cae6d315c13f042c135e9d38a0da87f76d46d81ece7910160405180910390a2509998505050505050505050565b600a816004811061131857600080fd5b01805490915061132790611ed1565b80601f016020809104026020016040519081016040528092919081815260200182805461135390611ed1565b80156113a05780601f10611375576101008083540402835291602001916113a0565b820191906000526020600020905b81548152906001019060200180831161138357829003601f168201915b505050505081565b6000546001600160a01b03163314611401576000546040517f8ea458f60000000000000000000000000000000000000000000000000000000081526001600160a01b039091166004820152336024820152604401610614565b600054604080516001600160a01b03928316815291831660208301527fdec101f106d4fc7c85791843e64b198248c822298e3ed7046231d33f7783d816910160405180910390a1600080547fffffffffffffffffffffffff0000000000000000000000000000000000000000166001600160a01b0392909216919091179055565b3360008181526005602090815260408083206001600160a01b0387168085529083529281902080547fffffffffffffffffffffffffffffffffffffffffffffffffffffffffffffff001686151590811790915590519081529192917f17307eab39ab6107e8899845ad3d59bd9653f200f220920489ca2b5937696c31910160405180910390a35050565b6115188484848461169c565b50505050565b6000546001600160a01b03163314611577576000546040517f8ea458f60000000000000000000000000000000000000000000000000000000081526001600160a01b039091166004820152336024820152604401610614565b600380547fffffffffffffffffffffffff0000000000000000000000000000000000000000166001600160a01b0392909216919091179055565b600260009054906101000a90046001600160a01b03166001600160a01b0316635ab1bd536040518163ffffffff1660e01b8152600401608060405180830381865afa158015611604573d6000803e3d6000fd5b505050506040513d601f19601f8201168201806040525081019061162891906121a5565b516001600160a01b031633146116805760405162461bcd60e51b815260206004820152600c60248201527f4e4f545f524547495354525900000000000000000000000000000000000000006044820152606401610614565b6001600160a01b03909116600090815260046020526040902055565b6001546040517fd2ec5fca0000000000000000000000000000000000000000000000000000000081526004810184905283916001600160a01b03169063d2ec5fca90602401602060405180830381865afa1580156116fe573d6000803e3d6000fd5b505050506040513d601f19601f820116820180604052508101906117229190611e9b565b42106117705760405162461bcd60e51b815260206004820152600f60248201527f494e56414c49445f544f4b454e494400000000000000000000000000000000006044820152606401610614565b6001546040517f02571be3000000000000000000000000000000000000000000000000000000008152600481018390526000916001600160a01b0316906302571be390602401602060405180830381865afa1580156117d3573d6000803e3d6000fd5b505050506040513d601f19601f820116820180604052508101906117f79190611eb4565b90506001600160a01b038516611839576040517f5788079900000000000000000000000000000000000000000000000000000000815260040160405180910390fd5b856001600160a01b0316816001600160a01b03161461189e576040517f431ef6160000000000000000000000000000000000000000000000000000000081526001600160a01b0380831660048301528716602482015260448101859052606401610614565b336001600160a01b038216146118f8576040517f431ef6160000000000000000000000000000000000000000000000000000000081523360048201526001600160a01b038716602482015260448101859052606401610614565b6001546040517fbe22e756000000000000000000000000000000000000000000000000000000008152600481018690526001600160a01b0387811660248301529091169063be22e75690604401600060405180830381600087803b15801561195f57600080fd5b505af1158015611973573d6000803e3d6000fd5b5050506001600160a01b0380881660008181526004602052604080822080547fffffffffffffffffffffffffffffffffffffffffffffffffffffffffffffffff0190559289168082528382208054600101905592518894507fddf252ad1be2c89b69c2b068fc378daa952ba7f163c4a11628f55a4df523b3ef9190a46001600160a01b0385163b15611b4e576040517f150b7a020000000000000000000000000000000000000000000000000000000081526001600160a01b0386169063150b7a0290611a4a9033908a9089908990600401612203565b6020604051808303816000875af1925050508015611a85575060408051601f3d908101601f19168201909252611a829181019061223f565b60015b611ac6576040517f3a9f8cb30000000000000000000000000000000000000000000000000000000081526001600160a01b0386166004820152602401610614565b7fffffffff0000000000000000000000000000000000000000000000000000000081167f150b7a020000000000000000000000000000000000000000000000000000000014611b4c576040517f3a9f8cb30000000000000000000000000000000000000000000000000000000081526001600160a01b0387166004820152602401610614565b505b505050505050565b60005b83811015611b71578181015183820152602001611b59565b50506000910152565b60008151808452611b92816020860160208601611b56565b601f01601f19169290920160200192915050565b602081526000611bb96020830184611b7a565b9392505050565b6001600160a01b0381168114611bd557600080fd5b50565b60008060408385031215611beb57600080fd5b8235611bf681611bc0565b946020939093013593505050565b600080600060608486031215611c1957600080fd5b8335611c2481611bc0565b92506020840135611c3481611bc0565b929592945050506040919091013590565b600060208284031215611c5757600080fd5b5035919050565b600060208284031215611c7057600080fd5b8135611bb981611bc0565b7f4e487b7100000000000000000000000000000000000000000000000000000000600052604160045260246000fd5b6040516080810167ffffffffffffffff81118282101715611ccd57611ccd611c7b565b60405290565b600067ffffffffffffffff80841115611cee57611cee611c7b565b604051601f8501601f19908116603f01168101908282118183101715611d1657611d16611c7b565b81604052809350858152868686011115611d2f57600080fd5b858560208301376000602087830101525050509392505050565b600080600060608486031215611d5e57600080fd5b833567ffffffffffffffff811115611d7557600080fd5b8401601f81018613611d8657600080fd5b611d9586823560208401611cd3565b9350506020840135611c3481611bc0565b8015158114611bd557600080fd5b60008060408385031215611dc757600080fd5b8235611dd281611bc0565b91506020830135611de281611da6565b809150509250929050565b60008060008060808587031215611e0357600080fd5b8435611e0e81611bc0565b93506020850135611e1e81611bc0565b925060408501359150606085013567ffffffffffffffff811115611e4157600080fd5b8501601f81018713611e5257600080fd5b611e6187823560208401611cd3565b91505092959194509250565b60008060408385031215611e8057600080fd5b8235611e8b81611bc0565b91506020830135611de281611bc0565b600060208284031215611ead57600080fd5b5051919050565b600060208284031215611ec657600080fd5b8151611bb981611bc0565b600181811c90821680611ee557607f821691505b602082108103611f1e577f4e487b7100000000000000000000000000000000000000000000000000000000600052602260045260246000fd5b50919050565b604081526000611f376040830185611b7a565b60208382038185015281829050608083018660005b6004808210611f5b5750612044565b86840385528254600090600181811c9080831680611f7a57607f831692505b8a83108103611faf577f4e487b7100000000000000000000000000000000000000000000000000000000855260228652602485fd5b828952602089019550808015611fcc57600181146120005761202b565b7fffffffffffffffffffffffffffffffffffffffffffffffffffffffffffffff008516875283151560051b8701955061202b565b60008981526020902060005b8581101561202557815489820152908401908d0161200c565b88019650505b5050978901979296505050929092019150600101611f4c565b509098975050505050505050565b60006020828403121561206457600080fd5b8151611bb981611da6565b60006080828403121561208157600080fd5b82601f83011261209057600080fd5b612098611caa565b8060808401858111156120aa57600080fd5b845b818110156120c45780518452602093840193016120ac565b509095945050505050565b600082516120e1818460208701611b56565b9190910192915050565b7f4e487b7100000000000000000000000000000000000000000000000000000000600052601160045260246000fd5b6000817fffffffffffffffffffffffffffffffffffffffffffffffffffffffffffffffff0483118215151615612152576121526120eb565b500290565b600081612166576121666120eb565b507fffffffffffffffffffffffffffffffffffffffffffffffffffffffffffffffff0190565b8082018082111561219f5761219f6120eb565b92915050565b6000608082840312156121b757600080fd5b82601f8301126121c657600080fd5b6121ce611caa565b8060808401858111156121e057600080fd5b845b818110156120c45780516121f581611bc0565b8452602093840193016121e2565b60006001600160a01b038087168352808616602084015250836040830152608060608301526122356080830184611b7a565b9695505050505050565b60006020828403121561225157600080fd5b81517fffffffff0000000000000000000000000000000000000000000000000000000081168114611bb957600080fdfea26469706673582212203f49dd472e862e15d56de5f851d3079de180e93ffe26463ba22fd61d16fc3a7b64736f6c63430008100033",
    "linkReferences": {
      "src/Utils/LibString.sol": {
        "LibString": [
          {
            "start": 4744,
            "length": 20
          }
        ]
      }
    }
  },
  "methodIdentifiers": {
    "Dev()": "01e51ae8",
    "HELIX2()": "b782426e",
    "NAMES()": "05e84aa0",
    "active()": "02fb0c5e",
    "approve(address,uint256)": "095ea7b3",
    "balanceOf(address)": "70a08231",
    "basePrice()": "c7876ea4",
    "changeDev(address)": "88a8c95c",
    "defaultLifespan()": "0e6c0bdb",
    "defaultResolver()": "828eab0e",
    "illegalBlocks(uint256)": "80b29beb",
    "isApprovedForAll(address,address)": "e985e9c5",
    "name()": "06fdde03",
    "newName(string,address,uint256)": "7f9348aa",
    "ownerOf(uint256)": "6352211e",
    "safeTransferFrom(address,address,uint256)": "42842e0e",
    "safeTransferFrom(address,address,uint256,bytes)": "b88d4fde",
    "setApprovalForAll(address,bool)": "a22cb465",
    "setBalance(address,uint256)": "e30443bc",
    "setDefaultLifespan(uint256)": "39506308",
    "setDefaultResolver(address)": "c66485b2",
    "sizeLimit()": "210fd271",
    "symbol()": "95d89b41",
    "toggleActive()": "29c68dc1",
    "transferFrom(address,address,uint256)": "23b872dd"
  },
  "id": 28
}