{
  "abi": [
    {
      "inputs": [
        {
          "internalType": "address",
          "name": "_registry",
          "type": "address"
        },
        {
          "internalType": "address",
          "name": "_helix2",
          "type": "address"
        },
        {
          "internalType": "address",
          "name": "_priceOracle",
          "type": "address"
        }
      ],
      "stateMutability": "nonpayable",
      "type": "constructor"
    },
    {
      "inputs": [],
      "name": "CannotBurn",
      "type": "error"
    },
    {
      "inputs": [
        {
          "internalType": "address",
          "name": "to",
          "type": "address"
        }
      ],
      "name": "ERC721IncompatibleReceiver",
      "type": "error"
    },
    {
      "inputs": [
        {
          "internalType": "address",
          "name": "_dev",
          "type": "address"
        },
        {
          "internalType": "address",
          "name": "_you",
          "type": "address"
        }
      ],
      "name": "OnlyDev",
      "type": "error"
    },
    {
      "inputs": [
        {
          "internalType": "address",
          "name": "operator",
          "type": "address"
        },
        {
          "internalType": "address",
          "name": "owner",
          "type": "address"
        },
        {
          "internalType": "uint256",
          "name": "tokenID",
          "type": "uint256"
        }
      ],
      "name": "Unauthorized",
      "type": "error"
    },
    {
      "anonymous": false,
      "inputs": [
        {
          "indexed": true,
          "internalType": "address",
          "name": "owner",
          "type": "address"
        },
        {
          "indexed": true,
          "internalType": "address",
          "name": "spender",
          "type": "address"
        },
        {
          "indexed": true,
          "internalType": "uint256",
          "name": "tokenID",
          "type": "uint256"
        }
      ],
      "name": "Approval",
      "type": "event"
    },
    {
      "anonymous": false,
      "inputs": [
        {
          "indexed": true,
          "internalType": "address",
          "name": "owner",
          "type": "address"
        },
        {
          "indexed": true,
          "internalType": "address",
          "name": "operator",
          "type": "address"
        },
        {
          "indexed": false,
          "internalType": "bool",
          "name": "approved",
          "type": "bool"
        }
      ],
      "name": "ApprovalForAll",
      "type": "event"
    },
    {
      "anonymous": false,
      "inputs": [
        {
          "indexed": false,
          "internalType": "string",
          "name": "ens",
          "type": "string"
        },
        {
          "indexed": true,
          "internalType": "bytes32",
          "name": "namehash",
          "type": "bytes32"
        },
        {
          "indexed": false,
          "internalType": "address",
          "name": "owner",
          "type": "address"
        }
      ],
      "name": "NewENSImport",
      "type": "event"
    },
    {
      "anonymous": false,
      "inputs": [
        {
          "indexed": false,
          "internalType": "string",
          "name": "label",
          "type": "string"
        },
        {
          "indexed": true,
          "internalType": "bytes32",
          "name": "namehash",
          "type": "bytes32"
        },
        {
          "indexed": false,
          "internalType": "address",
          "name": "owner",
          "type": "address"
        }
      ],
      "name": "NewName",
      "type": "event"
    },
    {
      "anonymous": false,
      "inputs": [
        {
          "indexed": true,
          "internalType": "address",
          "name": "previousOwner",
          "type": "address"
        },
        {
          "indexed": true,
          "internalType": "address",
          "name": "newOwner",
          "type": "address"
        }
      ],
      "name": "OwnershipTransferred",
      "type": "event"
    },
    {
      "anonymous": false,
      "inputs": [
        {
          "indexed": true,
          "internalType": "address",
          "name": "from",
          "type": "address"
        },
        {
          "indexed": true,
          "internalType": "address",
          "name": "to",
          "type": "address"
        },
        {
          "indexed": true,
          "internalType": "uint256",
          "name": "tokenID",
          "type": "uint256"
        }
      ],
      "name": "Transfer",
      "type": "event"
    },
    {
      "stateMutability": "payable",
      "type": "fallback"
    },
    {
      "inputs": [],
      "name": "Dev",
      "outputs": [
        {
          "internalType": "address",
          "name": "",
          "type": "address"
        }
      ],
      "stateMutability": "view",
      "type": "function"
    },
    {
      "inputs": [],
      "name": "ENS",
      "outputs": [
        {
          "internalType": "contract iENS",
          "name": "",
          "type": "address"
        }
      ],
      "stateMutability": "view",
      "type": "function"
    },
    {
      "inputs": [],
      "name": "HELIX2",
      "outputs": [
        {
          "internalType": "contract iHELIX2",
          "name": "",
          "type": "address"
        }
      ],
      "stateMutability": "view",
      "type": "function"
    },
    {
      "inputs": [],
      "name": "NAMES",
      "outputs": [
        {
          "internalType": "contract iNAME",
          "name": "",
          "type": "address"
        }
      ],
      "stateMutability": "view",
      "type": "function"
    },
    {
      "inputs": [],
      "name": "PRICES",
      "outputs": [
        {
          "internalType": "contract iPriceOracle",
          "name": "",
          "type": "address"
        }
      ],
      "stateMutability": "view",
      "type": "function"
    },
    {
      "inputs": [],
      "name": "active",
      "outputs": [
        {
          "internalType": "bool",
          "name": "",
          "type": "bool"
        }
      ],
      "stateMutability": "view",
      "type": "function"
    },
    {
      "inputs": [
        {
          "internalType": "address",
          "name": "operator",
          "type": "address"
        },
        {
          "internalType": "uint256",
          "name": "tokenID",
          "type": "uint256"
        }
      ],
      "name": "approve",
      "outputs": [],
      "stateMutability": "nonpayable",
      "type": "function"
    },
    {
      "inputs": [
        {
          "internalType": "address",
          "name": "wallet",
          "type": "address"
        }
      ],
      "name": "balanceOf",
      "outputs": [
        {
          "internalType": "uint256",
          "name": "",
          "type": "uint256"
        }
      ],
      "stateMutability": "view",
      "type": "function"
    },
    {
      "inputs": [],
      "name": "basePrice",
      "outputs": [
        {
          "internalType": "uint256",
          "name": "",
          "type": "uint256"
        }
      ],
      "stateMutability": "view",
      "type": "function"
    },
    {
      "inputs": [
        {
          "internalType": "string",
          "name": "ens",
          "type": "string"
        },
        {
          "internalType": "uint256",
          "name": "lifespan",
          "type": "uint256"
        }
      ],
      "name": "claimENS",
      "outputs": [
        {
          "internalType": "bytes32",
          "name": "",
          "type": "bytes32"
        }
      ],
      "stateMutability": "payable",
      "type": "function"
    },
    {
      "inputs": [],
      "name": "defaultLifespan",
      "outputs": [
        {
          "internalType": "uint256",
          "name": "",
          "type": "uint256"
        }
      ],
      "stateMutability": "view",
      "type": "function"
    },
    {
      "inputs": [],
      "name": "defaultResolver",
      "outputs": [
        {
          "internalType": "address",
          "name": "",
          "type": "address"
        }
      ],
      "stateMutability": "view",
      "type": "function"
    },
    {
      "inputs": [
        {
          "internalType": "bytes",
          "name": "_ens",
          "type": "bytes"
        }
      ],
      "name": "ensHash",
      "outputs": [
        {
          "internalType": "bytes32",
          "name": "_namehash",
          "type": "bytes32"
        }
      ],
      "stateMutability": "pure",
      "type": "function"
    },
    {
      "inputs": [
        {
          "internalType": "uint256",
          "name": "",
          "type": "uint256"
        }
      ],
      "name": "illegalBlocks",
      "outputs": [
        {
          "internalType": "string",
          "name": "",
          "type": "string"
        }
      ],
      "stateMutability": "view",
      "type": "function"
    },
    {
      "inputs": [
        {
          "internalType": "address",
          "name": "",
          "type": "address"
        },
        {
          "internalType": "address",
          "name": "",
          "type": "address"
        }
      ],
      "name": "isApprovedForAll",
      "outputs": [
        {
          "internalType": "bool",
          "name": "",
          "type": "bool"
        }
      ],
      "stateMutability": "view",
      "type": "function"
    },
    {
      "inputs": [],
      "name": "name",
      "outputs": [
        {
          "internalType": "string",
          "name": "",
          "type": "string"
        }
      ],
      "stateMutability": "view",
      "type": "function"
    },
    {
      "inputs": [
        {
          "internalType": "string",
          "name": "label",
          "type": "string"
        },
        {
          "internalType": "address",
          "name": "owner",
          "type": "address"
        },
        {
          "internalType": "uint256",
          "name": "lifespan",
          "type": "uint256"
        }
      ],
      "name": "newName",
      "outputs": [
        {
          "internalType": "bytes32",
          "name": "",
          "type": "bytes32"
        }
      ],
      "stateMutability": "payable",
      "type": "function"
    },
    {
      "inputs": [],
      "name": "owner",
      "outputs": [
        {
          "internalType": "address",
          "name": "",
          "type": "address"
        }
      ],
      "stateMutability": "view",
      "type": "function"
    },
    {
      "inputs": [
        {
          "internalType": "uint256",
          "name": "tokenID",
          "type": "uint256"
        }
      ],
      "name": "ownerOf",
      "outputs": [
        {
          "internalType": "address",
          "name": "",
          "type": "address"
        }
      ],
      "stateMutability": "view",
      "type": "function"
    },
    {
      "inputs": [],
      "name": "roothash",
      "outputs": [
        {
          "internalType": "bytes32",
          "name": "",
          "type": "bytes32"
        }
      ],
      "stateMutability": "view",
      "type": "function"
    },
    {
      "inputs": [
        {
          "internalType": "address",
          "name": "from",
          "type": "address"
        },
        {
          "internalType": "address",
          "name": "to",
          "type": "address"
        },
        {
          "internalType": "uint256",
          "name": "tokenID",
          "type": "uint256"
        }
      ],
      "name": "safeTransferFrom",
      "outputs": [],
      "stateMutability": "nonpayable",
      "type": "function"
    },
    {
      "inputs": [
        {
          "internalType": "address",
          "name": "from",
          "type": "address"
        },
        {
          "internalType": "address",
          "name": "to",
          "type": "address"
        },
        {
          "internalType": "uint256",
          "name": "tokenID",
          "type": "uint256"
        },
        {
          "internalType": "bytes",
          "name": "data",
          "type": "bytes"
        }
      ],
      "name": "safeTransferFrom",
      "outputs": [],
      "stateMutability": "nonpayable",
      "type": "function"
    },
    {
      "inputs": [
        {
          "internalType": "address",
          "name": "operator",
          "type": "address"
        },
        {
          "internalType": "bool",
          "name": "flag",
          "type": "bool"
        }
      ],
      "name": "setApprovalForAll",
      "outputs": [],
      "stateMutability": "nonpayable",
      "type": "function"
    },
    {
      "inputs": [
        {
          "internalType": "address",
          "name": "wallet",
          "type": "address"
        },
        {
          "internalType": "uint256",
          "name": "balance",
          "type": "uint256"
        }
      ],
      "name": "setBalance",
      "outputs": [],
      "stateMutability": "nonpayable",
      "type": "function"
    },
    {
      "inputs": [
        {
          "internalType": "uint256",
          "name": "_lifespan",
          "type": "uint256"
        }
      ],
      "name": "setDefaultLifespan",
      "outputs": [],
      "stateMutability": "nonpayable",
      "type": "function"
    },
    {
      "inputs": [
        {
          "internalType": "address",
          "name": "_resolver",
          "type": "address"
        }
      ],
      "name": "setDefaultResolver",
      "outputs": [],
      "stateMutability": "nonpayable",
      "type": "function"
    },
    {
      "inputs": [
        {
          "internalType": "bytes4",
          "name": "sig",
          "type": "bytes4"
        },
        {
          "internalType": "bool",
          "name": "value",
          "type": "bool"
        }
      ],
      "name": "setInterface",
      "outputs": [],
      "stateMutability": "nonpayable",
      "type": "function"
    },
    {
      "inputs": [
        {
          "internalType": "uint256",
          "name": "",
          "type": "uint256"
        }
      ],
      "name": "sizeLimit",
      "outputs": [
        {
          "internalType": "uint256",
          "name": "",
          "type": "uint256"
        }
      ],
      "stateMutability": "view",
      "type": "function"
    },
    {
      "inputs": [
        {
          "internalType": "bytes4",
          "name": "",
          "type": "bytes4"
        }
      ],
      "name": "supportsInterface",
      "outputs": [
        {
          "internalType": "bool",
          "name": "",
          "type": "bool"
        }
      ],
      "stateMutability": "view",
      "type": "function"
    },
    {
      "inputs": [],
      "name": "symbol",
      "outputs": [
        {
          "internalType": "string",
          "name": "",
          "type": "string"
        }
      ],
      "stateMutability": "view",
      "type": "function"
    },
    {
      "inputs": [],
      "name": "toggleActive",
      "outputs": [],
      "stateMutability": "nonpayable",
      "type": "function"
    },
    {
      "inputs": [
        {
          "internalType": "address",
          "name": "from",
          "type": "address"
        },
        {
          "internalType": "address",
          "name": "to",
          "type": "address"
        },
        {
          "internalType": "uint256",
          "name": "tokenID",
          "type": "uint256"
        }
      ],
      "name": "transferFrom",
      "outputs": [],
      "stateMutability": "nonpayable",
      "type": "function"
    },
    {
      "inputs": [
        {
          "internalType": "address",
          "name": "newDev",
          "type": "address"
        }
      ],
      "name": "transferOwnership",
      "outputs": [],
      "stateMutability": "nonpayable",
      "type": "function"
    },
    {
      "inputs": [],
      "name": "withdrawEther",
      "outputs": [],
      "stateMutability": "nonpayable",
      "type": "function"
    },
    {
      "stateMutability": "payable",
      "type": "receive"
    }
  ],
  "bytecode": {
    "object": "0x60806040526004805460ff60a01b1916600160a01b1790553480156200002457600080fd5b50604051620039c9380380620039c983398101604081905262000047916200057b565b60008054336001600160a01b0319918216178255600560209081527f4bcc8a24ccebcb02e06809ffdc3dbdc56f736cf28155948650f9bec809bea48e805460ff1990811660019081179092557f744f038481816166db36c1c96c51289c139e33b5b050399f9ec0fad34d16e76880548216831790557f3b767bd59d7164fff7ec5b80ca1165d9d6e12ee8656896fac4159b0760bfd9f780548216831790556380ac58cd60e01b9094527f072ad3113145b5af48d301e3b9fc3bd1c97c3f26a14f5d44904b71469875631e80549094168117909355825482166001600160a01b03878116919091179093556003805490921692851692831790915560408051632f68079560e01b81529051632f680795926004808401939192918290030181865afa1580156200017a573d6000803e3d6000fd5b505050506040513d601f19601f82011682018060405250810190620001a09190620005c5565b600280546001600160a01b039283166001600160a01b0319918216179091556012805492841692909116821790556040805163bd9a548b60e01b8152905163bd9a548b916004808201926080929091908290030181865afa1580156200020a573d6000803e3d6000fd5b505050506040513d601f19601f8201168201806040525081019062000230919062000683565b51600a556003546040805163335076e760e11b815290516001600160a01b03909216916366a0edce91600480820192610100929091908290030181865afa15801562000280573d6000803e3d6000fd5b505050506040513d601f19601f82011682018060405250810190620002a69190620006ea565b51620002b790600b90600262000455565b50600360009054906101000a90046001600160a01b03166001600160a01b031663ec2ace2a6040518163ffffffff1660e01b8152600401608060405180830381865afa1580156200030c573d6000803e3d6000fd5b505050506040513d601f19601f8201168201806040525081019062000332919062000683565b51600955600354604080516330b5337f60e21b815290516001600160a01b039092169163c2d4cdfc916004808201926000929091908290030181865afa15801562000381573d6000803e3d6000fd5b505050506040513d6000823e601f3d908101601f19168201604052620003ab9190810190620007a1565b620003bb90600e90600462000498565b50600360009054906101000a90046001600160a01b03166001600160a01b031663642a8ed66040518163ffffffff1660e01b8152600401608060405180830381865afa15801562000410573d6000803e3d6000fd5b505050506040513d601f19601f8201168201806040525081019062000436919062000683565b51600d555050600080546001600160a01b031916331790555062000a11565b826002810192821562000486579160200282015b828111156200048657825182559160200191906001019062000469565b5062000494929150620004e4565b5090565b8260048101928215620004d6579160200282015b82811115620004d65782518290620004c5908262000945565b5091602001919060010190620004ac565b5062000494929150620004fb565b5b80821115620004945760008155600101620004e5565b80821115620004945760006200051282826200051c565b50600101620004fb565b5080546200052a90620008b6565b6000825580601f106200053b575050565b601f0160209004906000526020600020908101906200055b9190620004e4565b50565b80516001600160a01b03811681146200057657600080fd5b919050565b6000806000606084860312156200059157600080fd5b6200059c846200055e565b9250620005ac602085016200055e565b9150620005bc604085016200055e565b90509250925092565b600060208284031215620005d857600080fd5b620005e3826200055e565b9392505050565b634e487b7160e01b600052604160045260246000fd5b604051608081016001600160401b0381118282101715620006255762000625620005ea565b60405290565b604080519081016001600160401b0381118282101715620006255762000625620005ea565b604051601f8201601f191681016001600160401b03811182821017156200067b576200067b620005ea565b604052919050565b6000608082840312156200069657600080fd5b82601f830112620006a657600080fd5b620006b062000600565b806080840185811115620006c357600080fd5b845b81811015620006df578051845260209384019301620006c5565b509095945050505050565b6000610100808385031215620006ff57600080fd5b601f84818501126200071057600080fd5b6200071a62000600565b9184019180868411156200072d57600080fd5b855b8481101562000796578784820112620007485760008081fd5b620007526200062b565b80604083018a811115620007665760008081fd5b835b818110156200078257805184526020938401930162000768565b50508452506020909201916040016200072f565b509695505050505050565b60006020808385031215620007b557600080fd5b82516001600160401b0380821115620007cd57600080fd5b8185019150601f8681840112620007e357600080fd5b620007ed62000600565b8060808501898111156200080057600080fd5b855b81811015620008a7578051868111156200081c5760008081fd5b87018581018c136200082e5760008081fd5b805187811115620008435762000843620005ea565b62000856818801601f19168b0162000650565b8181528d8b8385010111156200086c5760008081fd5b60005b828110156200088c578381018c01518282018d01528b016200086f565b5060009181018b019190915285525092870192870162000802565b50909998505050505050505050565b600181811c90821680620008cb57607f821691505b602082108103620008ec57634e487b7160e01b600052602260045260246000fd5b50919050565b601f8211156200094057600081815260208120601f850160051c810160208610156200091b5750805b601f850160051c820191505b818110156200093c5782815560010162000927565b5050505b505050565b81516001600160401b03811115620009615762000961620005ea565b6200097981620009728454620008b6565b84620008f2565b602080601f831160018114620009b15760008415620009985750858301515b600019600386901b1c1916600185901b1785556200093c565b600085815260208120601f198616915b82811015620009e257888601518255948401946001909101908401620009c1565b508582101562000a015787850151600019600388901b60f8161c191681555b5050505050600190811b01905550565b612fa88062000a216000396000f3fe60806040526004361061021d5760003560e01c80637362377b1161011d578063b782426e116100b0578063c7876ea41161007f578063e30443bc11610064578063e30443bc14610670578063e985e9c514610690578063f2fde38b146106cb57600080fd5b8063c7876ea414610647578063d5bd79371461065d57600080fd5b8063b782426e146105c7578063b88d4fde146105e7578063c0a43a7c14610607578063c66485b21461062757600080fd5b8063828eab0e116100ec578063828eab0e146105205780638da5cb5b1461054057806395d89b411461055e578063a22cb465146105a757600080fd5b80637362377b146104b8578063769da4bb146104cd5780637f9348aa146104ed57806380b29beb1461050057600080fd5b80631eabcd34116101b057806329c68dc11161017f57806342842e0e1161016457806342842e0e146103f75780636352211e1461046257806370a082311461048257600080fd5b806329c68dc11461042d578063395063081461044257600080fd5b80631eabcd34146103b757806322afcd88146103d757806323b872dd146103f7578063251c94221461041757600080fd5b806306fdde03116101ec57806306fdde03146102fb578063095ea7b3146103515780630e6c0bdb146103735780631d2e2cc41461039757600080fd5b806301e51ae81461022c57806301ffc9a71461026957806302fb0c5e146102a957806305e84aa0146102db57600080fd5b3661022757600080fd5b600080fd5b34801561023857600080fd5b5060005461024c906001600160a01b031681565b6040516001600160a01b0390911681526020015b60405180910390f35b34801561027557600080fd5b506102996102843660046127ca565b60056020526000908152604090205460ff1681565b6040519015158152602001610260565b3480156102b557600080fd5b506004546102999074010000000000000000000000000000000000000000900460ff1681565b3480156102e757600080fd5b5060015461024c906001600160a01b031681565b34801561030757600080fd5b506103446040518060400160405280601381526020017f48656c697832204e616d6520536572766963650000000000000000000000000081525081565b604051610260919061283e565b34801561035d57600080fd5b5061037161036c366004612866565b6106eb565b005b34801561037f57600080fd5b5061038960095481565b604051908152602001610260565b3480156103a357600080fd5b5060025461024c906001600160a01b031681565b3480156103c357600080fd5b5060125461024c906001600160a01b031681565b3480156103e357600080fd5b506103896103f23660046128db565b610a38565b34801561040357600080fd5b5061037161041236600461291d565b610b6f565b34801561042357600080fd5b50610389600d5481565b34801561043957600080fd5b50610371610b8f565b34801561044e57600080fd5b5061037161045d36600461295e565b610c35565b34801561046e57600080fd5b5061024c61047d36600461295e565b610c93565b34801561048e57600080fd5b5061038961049d366004612977565b6001600160a01b031660009081526006602052604090205490565b3480156104c457600080fd5b50610371610dfb565b3480156104d957600080fd5b506103896104e836600461295e565b610ea1565b6103896104fb366004612a39565b610eb8565b34801561050c57600080fd5b5061034461051b36600461295e565b6115c1565b34801561052c57600080fd5b5060045461024c906001600160a01b031681565b34801561054c57600080fd5b506000546001600160a01b031661024c565b34801561056a57600080fd5b506103446040518060400160405280600381526020017f484e53000000000000000000000000000000000000000000000000000000000081525081565b3480156105b357600080fd5b506103716105c2366004612aa4565b611661565b3480156105d357600080fd5b5060035461024c906001600160a01b031681565b3480156105f357600080fd5b50610371610602366004612add565b6116eb565b34801561061357600080fd5b50610371610622366004612b5d565b6116fd565b34801561063357600080fd5b50610371610642366004612977565b61182a565b34801561065357600080fd5b50610389600a5481565b61038961066b366004612b7b565b6118bd565b34801561067c57600080fd5b5061037161068b366004612866565b611ea4565b34801561069c57600080fd5b506102996106ab366004612bc7565b600760209081526000928352604080842090915290825290205460ff1681565b3480156106d757600080fd5b506103716106e6366004612977565b611f8f565b6001546040517fd2ec5fca0000000000000000000000000000000000000000000000000000000081526004810183905282916001600160a01b03169063d2ec5fca90602401602060405180830381865afa15801561074d573d6000803e3d6000fd5b505050506040513d601f19601f820116820180604052508101906107719190612bf5565b42106107c45760405162461bcd60e51b815260206004820152600f60248201527f494e56414c49445f544f4b454e4944000000000000000000000000000000000060448201526064015b60405180910390fd5b6001546040517f02571be3000000000000000000000000000000000000000000000000000000008152600481018390526000916001600160a01b0316906302571be390602401602060405180830381865afa158015610827573d6000803e3d6000fd5b505050506040513d601f19601f8201168201806040525081019061084b9190612c0e565b6001546040517fdbd4e021000000000000000000000000000000000000000000000000000000008152600481018590529192506000916001600160a01b039091169063dbd4e02190602401602060405180830381865afa1580156108b3573d6000803e3d6000fd5b505050506040513d601f19601f820116820180604052508101906108d79190612c0e565b9050336001600160a01b038316148015906108fb5750336001600160a01b03821614155b801561092b57506001600160a01b038216600090815260076020908152604080832033845290915290205460ff16155b1561097a576040517f431ef6160000000000000000000000000000000000000000000000000000000081523360048201526001600160a01b0383166024820152604481018590526064016107bb565b6001546040517f01d49a5f000000000000000000000000000000000000000000000000000000008152600481018690526001600160a01b038781166024830152909116906301d49a5f90604401600060405180830381600087803b1580156109e157600080fd5b505af11580156109f5573d6000803e3d6000fd5b50506040518692506001600160a01b038816915033907f8c5be1e5ebec7d5bd14f71427d1e84f3dd0314c0f7b2291e5b200ac8c7c3b92590600090a45050505050565b60008160605b8115610b3457600019909101907f2e00000000000000000000000000000000000000000000000000000000000000858584818110610a7e57610a7e612c2b565b9050013560f81c60f81b7effffffffffffffffffffffffffffffffffffffffffffffffffffffffffffff191603610af057805160209182012060408051808401959095528481019190915280518085038201815260608501808352815191909301206080909401905260008152610a3e565b848483818110610b0257610b02612c2b565b9050013560f81c60f81b81604051602001610b1e929190612c5a565b6040516020818303038152906040529050610a3e565b805160208083019190912060408051928301869052820152606001604051602081830303815290604052805190602001209250505092915050565b610b8a8383836040518060200160405280600081525061205b565b505050565b6000546001600160a01b03163314610be8576000546040517f8ea458f60000000000000000000000000000000000000000000000000000000081526001600160a01b0390911660048201523360248201526044016107bb565b600480547fffffffffffffffffffffff00ffffffffffffffffffffffffffffffffffffffff8116740100000000000000000000000000000000000000009182900460ff1615909102179055565b6000546001600160a01b03163314610c8e576000546040517f8ea458f60000000000000000000000000000000000000000000000000000000081526001600160a01b0390911660048201523360248201526044016107bb565b600955565b6001546040517fd2ec5fca0000000000000000000000000000000000000000000000000000000081526004810183905260009183916001600160a01b039091169063d2ec5fca90602401602060405180830381865afa158015610cfa573d6000803e3d6000fd5b505050506040513d601f19601f82011682018060405250810190610d1e9190612bf5565b4210610d6c5760405162461bcd60e51b815260206004820152600f60248201527f494e56414c49445f544f4b454e4944000000000000000000000000000000000060448201526064016107bb565b6001546040517f02571be3000000000000000000000000000000000000000000000000000000008152600481018390526000916001600160a01b0316906302571be390602401602060405180830381865afa158015610dcf573d6000803e3d6000fd5b505050506040513d601f19601f82011682018060405250810190610df39190612c0e565b949350505050565b600080546040516001600160a01b039091169047908381818185875af1925050503d8060008114610e48576040519150601f19603f3d011682016040523d82523d6000602084013e610e4d565b606091505b5050905080610e9e5760405162461bcd60e51b815260206004820152601360248201527f4554485f5452414e534645525f4641494c45440000000000000000000000000060448201526064016107bb565b50565b600b8160028110610eb157600080fd5b0154905081565b600083600b820154610ec9826124f7565b118015610edf5750600c54610edd826124f7565b105b610f2b5760405162461bcd60e51b815260206004820152600d60248201527f494c4c4547414c5f4c4142454c0000000000000000000000000000000000000060448201526064016107bb565b6040805160808101909152610ff890600e60046000835b82821015610fe5578382018054610f5890612ca2565b80601f0160208091040260200160405190810160405280929190818152602001828054610f8490612ca2565b8015610fd15780601f10610fa657610100808354040283529160200191610fd1565b820191906000526020600020905b815481529060010190602001808311610fb457829003601f168201915b505050505081526020019060010190610f42565b50505050826126fe90919063ffffffff16565b156110455760405162461bcd60e51b815260206004820152600d60248201527f494c4c4547414c5f43484152530000000000000000000000000000000000000060448201526064016107bb565b6001600160a01b03841661109b5760405162461bcd60e51b815260206004820152600b60248201527f43414e4e4f545f4255524e00000000000000000000000000000000000000000060448201526064016107bb565b6009548310156110ed5760405162461bcd60e51b815260206004820152601260248201527f4c4946455350414e5f544f4f5f53484f5254000000000000000000000000000060448201526064016107bb565b82600a546110fb9190612d24565b34101561114a5760405162461bcd60e51b815260206004820152601260248201527f494e53554646494349454e545f4554484552000000000000000000000000000060448201526064016107bb565b60008560405160200161115d9190612d43565b60408051601f198184030181528282528051602091820120600d54918401529082015260600160408051808303601f190181529082905280516020909101206001547ff79fe538000000000000000000000000000000000000000000000000000000008352600483018290529092506001600160a01b03169063f79fe53890602401602060405180830381865afa1580156111fc573d6000803e3d6000fd5b505050506040513d601f19601f820116820180604052508101906112209190612d5f565b1561126d5760405162461bcd60e51b815260206004820152600b60248201527f4e414d455f45584953545300000000000000000000000000000000000000000060448201526064016107bb565b6001546040517f02571be3000000000000000000000000000000000000000000000000000000008152600481018390526000916001600160a01b0316906302571be390602401602060405180830381865afa1580156112d0573d6000803e3d6000fd5b505050506040513d601f19601f820116820180604052508101906112f49190612c0e565b90506001600160a01b03811615611350576001600160a01b0381166000818152600660205260408082208054600019019055518492907fddf252ad1be2c89b69c2b068fc378daa952ba7f163c4a11628f55a4df523b3ef908390a45b6001546040517f9177b0860000000000000000000000000000000000000000000000000000000081526001600160a01b0390911690639177b0869061139d908a9086908b90600401612d7c565b600060405180830381600087803b1580156113b757600080fd5b505af11580156113cb573d6000803e3d6000fd5b50506001546040517fd3156905000000000000000000000000000000000000000000000000000000008152600481018690526001600160a01b038a81166024830152909116925063d31569059150604401600060405180830381600087803b15801561143657600080fd5b505af115801561144a573d6000803e3d6000fd5b50506001546001600160a01b031691506339de646990508361146c8842612dae565b6040517fffffffff0000000000000000000000000000000000000000000000000000000060e085901b16815260048101929092526024820152604401600060405180830381600087803b1580156114c257600080fd5b505af11580156114d6573d6000803e3d6000fd5b5050600154600480546040517f1896f70a0000000000000000000000000000000000000000000000000000000081529182018790526001600160a01b0390811660248301529091169250631896f70a9150604401600060405180830381600087803b15801561154457600080fd5b505af1158015611558573d6000803e3d6000fd5b5050506001600160a01b0387166000908152600660205260409081902080546001019055518391507fb9bdfe1c95ffbd6ad8dd9fdb4f9e84980778dba776352729b1dad4a85a22770d906115af908a908a90612dc1565b60405180910390a25095945050505050565b600e81600481106115d157600080fd5b0180549091506115e090612ca2565b80601f016020809104026020016040519081016040528092919081815260200182805461160c90612ca2565b80156116595780601f1061162e57610100808354040283529160200191611659565b820191906000526020600020905b81548152906001019060200180831161163c57829003601f168201915b505050505081565b3360008181526007602090815260408083206001600160a01b0387168085529083529281902080547fffffffffffffffffffffffffffffffffffffffffffffffffffffffffffffff001686151590811790915590519081529192917f17307eab39ab6107e8899845ad3d59bd9653f200f220920489ca2b5937696c31910160405180910390a35050565b6116f78484848461205b565b50505050565b6000546001600160a01b03163314611756576000546040517f8ea458f60000000000000000000000000000000000000000000000000000000081526001600160a01b0390911660048201523360248201526044016107bb565b7fffffffff0000000000000000000000000000000000000000000000000000000080831690036117c85760405162461bcd60e51b815260206004820152601a60248201527f494e56414c49445f494e544552464143455f53454c4543544f5200000000000060448201526064016107bb565b7fffffffff0000000000000000000000000000000000000000000000000000000091909116600090815260056020526040902080547fffffffffffffffffffffffffffffffffffffffffffffffffffffffffffffff0016911515919091179055565b6000546001600160a01b03163314611883576000546040517f8ea458f60000000000000000000000000000000000000000000000000000000081526001600160a01b0390911660048201523360248201526044016107bb565b600480547fffffffffffffffffffffffff0000000000000000000000000000000000000000166001600160a01b0392909216919091179055565b6000806118ca8585610a38565b6002546040517f02571be3000000000000000000000000000000000000000000000000000000008152600481018390529192506001600160a01b0316906302571be390602401602060405180830381865afa15801561192d573d6000803e3d6000fd5b505050506040513d601f19601f820116820180604052508101906119519190612c0e565b6001600160a01b0316336001600160a01b0316146119b15760405162461bcd60e51b815260206004820152600d60248201527f4e4f545f454e535f4f574e45520000000000000000000000000000000000000060448201526064016107bb565b600954831015611a035760405162461bcd60e51b815260206004820152601260248201527f4c4946455350414e5f544f4f5f53484f5254000000000000000000000000000060448201526064016107bb565b82600a54611a119190612d24565b341015611a605760405162461bcd60e51b815260206004820152601260248201527f494e53554646494349454e545f4554484552000000000000000000000000000060448201526064016107bb565b600081600d54604051602001611a80929190918252602082015260400190565b60408051808303601f190181529082905280516020909101206001547ff79fe538000000000000000000000000000000000000000000000000000000008352600483018290529092506001600160a01b03169063f79fe53890602401602060405180830381865afa158015611af9573d6000803e3d6000fd5b505050506040513d601f19601f82011682018060405250810190611b1d9190612d5f565b15611b6a5760405162461bcd60e51b815260206004820152600b60248201527f4e414d455f45584953545300000000000000000000000000000000000000000060448201526064016107bb565b6001546040517f02571be3000000000000000000000000000000000000000000000000000000008152600481018390526000916001600160a01b0316906302571be390602401602060405180830381865afa158015611bcd573d6000803e3d6000fd5b505050506040513d601f19601f82011682018060405250810190611bf19190612c0e565b90506001600160a01b03811615611c4d576001600160a01b0381166000818152600660205260408082208054600019019055518492907fddf252ad1be2c89b69c2b068fc378daa952ba7f163c4a11628f55a4df523b3ef908390a45b6001546040517f9177b0860000000000000000000000000000000000000000000000000000000081526001600160a01b0390911690639177b08690611c9c908a908a9087903390600401612e17565b600060405180830381600087803b158015611cb657600080fd5b505af1158015611cca573d6000803e3d6000fd5b50506001546040517fd3156905000000000000000000000000000000000000000000000000000000008152600481018690523360248201526001600160a01b03909116925063d31569059150604401600060405180830381600087803b158015611d3357600080fd5b505af1158015611d47573d6000803e3d6000fd5b50506001546001600160a01b031691506339de6469905083611d698842612dae565b6040517fffffffff0000000000000000000000000000000000000000000000000000000060e085901b16815260048101929092526024820152604401600060405180830381600087803b158015611dbf57600080fd5b505af1158015611dd3573d6000803e3d6000fd5b5050600154600480546040517f1896f70a0000000000000000000000000000000000000000000000000000000081529182018790526001600160a01b0390811660248301529091169250631896f70a9150604401600060405180830381600087803b158015611e4157600080fd5b505af1158015611e55573d6000803e3d6000fd5b5050336000818152600660205260409081902080546001019055518593507f9a050a1e2c15ba19262655fcd57f128807dad34cd2f1ddf4d11686270af0a0c092506115af918b918b9190612e4b565b600360009054906101000a90046001600160a01b03166001600160a01b0316635ab1bd536040518163ffffffff1660e01b8152600401608060405180830381865afa158015611ef7573d6000803e3d6000fd5b505050506040513d601f19601f82011682018060405250810190611f1b9190612e78565b516001600160a01b03163314611f735760405162461bcd60e51b815260206004820152600c60248201527f4e4f545f5245474953545259000000000000000000000000000000000000000060448201526064016107bb565b6001600160a01b03909116600090815260066020526040902055565b6000546001600160a01b03163314611fe8576000546040517f8ea458f60000000000000000000000000000000000000000000000000000000081526001600160a01b0390911660048201523360248201526044016107bb565b600080546040516001600160a01b03808516939216917f8be0079c531659141344cd1fd0a4f28419497f9722a3daafe3b4186f6b6457e091a3600080547fffffffffffffffffffffffff0000000000000000000000000000000000000000166001600160a01b0392909216919091179055565b6001546040517fd2ec5fca0000000000000000000000000000000000000000000000000000000081526004810184905283916001600160a01b03169063d2ec5fca90602401602060405180830381865afa1580156120bd573d6000803e3d6000fd5b505050506040513d601f19601f820116820180604052508101906120e19190612bf5565b421061212f5760405162461bcd60e51b815260206004820152600f60248201527f494e56414c49445f544f4b454e4944000000000000000000000000000000000060448201526064016107bb565b6001546040517f02571be3000000000000000000000000000000000000000000000000000000008152600481018390526000916001600160a01b0316906302571be390602401602060405180830381865afa158015612192573d6000803e3d6000fd5b505050506040513d601f19601f820116820180604052508101906121b69190612c0e565b90506001600160a01b0385166121f8576040517f5788079900000000000000000000000000000000000000000000000000000000815260040160405180910390fd5b856001600160a01b0316816001600160a01b03161461225d576040517f431ef6160000000000000000000000000000000000000000000000000000000081526001600160a01b03808316600483015287166024820152604481018590526064016107bb565b336001600160a01b038216146122b7576040517f431ef6160000000000000000000000000000000000000000000000000000000081523360048201526001600160a01b0387166024820152604481018590526064016107bb565b6001546040517fbe22e756000000000000000000000000000000000000000000000000000000008152600481018690526001600160a01b0387811660248301529091169063be22e75690604401600060405180830381600087803b15801561231e57600080fd5b505af1158015612332573d6000803e3d6000fd5b5050506001600160a01b0380881660008181526006602052604080822080546000190190559289168082528382208054600101905592518894507fddf252ad1be2c89b69c2b068fc378daa952ba7f163c4a11628f55a4df523b3ef9190a46001600160a01b0385163b156124ef576040517f150b7a020000000000000000000000000000000000000000000000000000000081526001600160a01b0386169063150b7a02906123eb9033908a9089908990600401612eff565b6020604051808303816000875af1925050508015612426575060408051601f3d908101601f1916820190925261242391810190612f3b565b60015b612467576040517f3a9f8cb30000000000000000000000000000000000000000000000000000000081526001600160a01b03861660048201526024016107bb565b7fffffffff0000000000000000000000000000000000000000000000000000000081167f150b7a0200000000000000000000000000000000000000000000000000000000146124ed576040517f3a9f8cb30000000000000000000000000000000000000000000000000000000081526001600160a01b03871660048201526024016107bb565b505b505050505050565b8051600090819081905b808210156126f557600085838151811061251d5761251d612c2b565b01602001517fff000000000000000000000000000000000000000000000000000000000000001690507f800000000000000000000000000000000000000000000000000000000000000081101561258057612579600184612dae565b92506126e2565b7fe0000000000000000000000000000000000000000000000000000000000000007fff00000000000000000000000000000000000000000000000000000000000000821610156125d557612579600284612dae565b7ff0000000000000000000000000000000000000000000000000000000000000007fff000000000000000000000000000000000000000000000000000000000000008216101561262a57612579600384612dae565b7ff8000000000000000000000000000000000000000000000000000000000000007fff000000000000000000000000000000000000000000000000000000000000008216101561267f57612579600484612dae565b7ffc000000000000000000000000000000000000000000000000000000000000007fff00000000000000000000000000000000000000000000000000000000000000821610156126d457612579600584612dae565b6126df600684612dae565b92505b50826126ed81612f58565b935050612501565b50909392505050565b6000805b6004811015612790578360405160200161271c9190612d43565b6040516020818303038152906040528051906020012083826004811061274457612744612c2b565b60200201516040516020016127599190612d43565b604051602081830303815290604052805190602001200361277e576001915050612796565b8061278881612f58565b915050612702565b50600090505b92915050565b7fffffffff0000000000000000000000000000000000000000000000000000000081168114610e9e57600080fd5b6000602082840312156127dc57600080fd5b81356127e78161279c565b9392505050565b60005b838110156128095781810151838201526020016127f1565b50506000910152565b6000815180845261282a8160208601602086016127ee565b601f01601f19169290920160200192915050565b6020815260006127e76020830184612812565b6001600160a01b0381168114610e9e57600080fd5b6000806040838503121561287957600080fd5b823561288481612851565b946020939093013593505050565b60008083601f8401126128a457600080fd5b50813567ffffffffffffffff8111156128bc57600080fd5b6020830191508360208285010111156128d457600080fd5b9250929050565b600080602083850312156128ee57600080fd5b823567ffffffffffffffff81111561290557600080fd5b61291185828601612892565b90969095509350505050565b60008060006060848603121561293257600080fd5b833561293d81612851565b9250602084013561294d81612851565b929592945050506040919091013590565b60006020828403121561297057600080fd5b5035919050565b60006020828403121561298957600080fd5b81356127e781612851565b7f4e487b7100000000000000000000000000000000000000000000000000000000600052604160045260246000fd5b600067ffffffffffffffff808411156129de576129de612994565b604051601f8501601f19908116603f01168101908282118183101715612a0657612a06612994565b81604052809350858152868686011115612a1f57600080fd5b858560208301376000602087830101525050509392505050565b600080600060608486031215612a4e57600080fd5b833567ffffffffffffffff811115612a6557600080fd5b8401601f81018613612a7657600080fd5b612a85868235602084016129c3565b935050602084013561294d81612851565b8015158114610e9e57600080fd5b60008060408385031215612ab757600080fd5b8235612ac281612851565b91506020830135612ad281612a96565b809150509250929050565b60008060008060808587031215612af357600080fd5b8435612afe81612851565b93506020850135612b0e81612851565b925060408501359150606085013567ffffffffffffffff811115612b3157600080fd5b8501601f81018713612b4257600080fd5b612b51878235602084016129c3565b91505092959194509250565b60008060408385031215612b7057600080fd5b8235612ac28161279c565b600080600060408486031215612b9057600080fd5b833567ffffffffffffffff811115612ba757600080fd5b612bb386828701612892565b909790965060209590950135949350505050565b60008060408385031215612bda57600080fd5b8235612be581612851565b91506020830135612ad281612851565b600060208284031215612c0757600080fd5b5051919050565b600060208284031215612c2057600080fd5b81516127e781612851565b7f4e487b7100000000000000000000000000000000000000000000000000000000600052603260045260246000fd5b7fff000000000000000000000000000000000000000000000000000000000000008316815260008251612c948160018501602087016127ee565b919091016001019392505050565b600181811c90821680612cb657607f821691505b602082108103612cef577f4e487b7100000000000000000000000000000000000000000000000000000000600052602260045260246000fd5b50919050565b7f4e487b7100000000000000000000000000000000000000000000000000000000600052601160045260246000fd5b6000816000190483118215151615612d3e57612d3e612cf5565b500290565b60008251612d558184602087016127ee565b9190910192915050565b600060208284031215612d7157600080fd5b81516127e781612a96565b606081526000612d8f6060830186612812565b90508360208301526001600160a01b0383166040830152949350505050565b8082018082111561279657612796612cf5565b604081526000612dd46040830185612812565b90506001600160a01b03831660208301529392505050565b818352818160208501375060006020828401015260006020601f19601f840116840101905092915050565b606081526000612e2b606083018688612dec565b90508360208301526001600160a01b038316604083015295945050505050565b604081526000612e5f604083018587612dec565b90506001600160a01b0383166020830152949350505050565b600060808284031215612e8a57600080fd5b82601f830112612e9957600080fd5b6040516080810181811067ffffffffffffffff82111715612ebc57612ebc612994565b604052806080840185811115612ed157600080fd5b845b81811015612ef4578051612ee681612851565b835260209283019201612ed3565b509195945050505050565b60006001600160a01b03808716835280861660208401525083604083015260806060830152612f316080830184612812565b9695505050505050565b600060208284031215612f4d57600080fd5b81516127e78161279c565b60006000198203612f6b57612f6b612cf5565b506001019056fea2646970667358221220a6123e937e9bed12f7e416be0408a0294adc5e892c0b49b4316748c1ff5bced064736f6c63430008100033",
    "linkReferences": {}
  },
  "methodIdentifiers": {
    "Dev()": "01e51ae8",
    "ENS()": "1d2e2cc4",
    "HELIX2()": "b782426e",
    "NAMES()": "05e84aa0",
    "PRICES()": "1eabcd34",
    "active()": "02fb0c5e",
    "approve(address,uint256)": "095ea7b3",
    "balanceOf(address)": "70a08231",
    "basePrice()": "c7876ea4",
    "claimENS(string,uint256)": "d5bd7937",
    "defaultLifespan()": "0e6c0bdb",
    "defaultResolver()": "828eab0e",
    "ensHash(bytes)": "22afcd88",
    "illegalBlocks(uint256)": "80b29beb",
    "isApprovedForAll(address,address)": "e985e9c5",
    "name()": "06fdde03",
    "newName(string,address,uint256)": "7f9348aa",
    "owner()": "8da5cb5b",
    "ownerOf(uint256)": "6352211e",
    "roothash()": "251c9422",
    "safeTransferFrom(address,address,uint256)": "42842e0e",
    "safeTransferFrom(address,address,uint256,bytes)": "b88d4fde",
    "setApprovalForAll(address,bool)": "a22cb465",
    "setBalance(address,uint256)": "e30443bc",
    "setDefaultLifespan(uint256)": "39506308",
    "setDefaultResolver(address)": "c66485b2",
    "setInterface(bytes4,bool)": "c0a43a7c",
    "sizeLimit(uint256)": "769da4bb",
    "supportsInterface(bytes4)": "01ffc9a7",
    "symbol()": "95d89b41",
    "toggleActive()": "29c68dc1",
    "transferFrom(address,address,uint256)": "23b872dd",
    "transferOwnership(address)": "f2fde38b",
    "withdrawEther()": "7362377b"
  },
  "id": 36
}