{
  "abi": [
    {
      "inputs": [
        {
          "internalType": "address",
          "name": "_registry",
          "type": "address"
        },
        {
          "internalType": "address",
          "name": "_helix2",
          "type": "address"
        },
        {
          "internalType": "address",
          "name": "_priceOracle",
          "type": "address"
        }
      ],
      "stateMutability": "nonpayable",
      "type": "constructor"
    },
    {
      "inputs": [],
      "name": "CannotBurn",
      "type": "error"
    },
    {
      "inputs": [
        {
          "internalType": "address",
          "name": "to",
          "type": "address"
        }
      ],
      "name": "ERC721IncompatibleReceiver",
      "type": "error"
    },
    {
      "inputs": [
        {
          "internalType": "address",
          "name": "_dev",
          "type": "address"
        },
        {
          "internalType": "address",
          "name": "_you",
          "type": "address"
        }
      ],
      "name": "OnlyDev",
      "type": "error"
    },
    {
      "inputs": [
        {
          "internalType": "address",
          "name": "operator",
          "type": "address"
        },
        {
          "internalType": "address",
          "name": "owner",
          "type": "address"
        },
        {
          "internalType": "uint256",
          "name": "tokenID",
          "type": "uint256"
        }
      ],
      "name": "Unauthorized",
      "type": "error"
    },
    {
      "anonymous": false,
      "inputs": [
        {
          "indexed": true,
          "internalType": "address",
          "name": "owner",
          "type": "address"
        },
        {
          "indexed": true,
          "internalType": "address",
          "name": "spender",
          "type": "address"
        },
        {
          "indexed": true,
          "internalType": "uint256",
          "name": "tokenID",
          "type": "uint256"
        }
      ],
      "name": "Approval",
      "type": "event"
    },
    {
      "anonymous": false,
      "inputs": [
        {
          "indexed": true,
          "internalType": "address",
          "name": "owner",
          "type": "address"
        },
        {
          "indexed": true,
          "internalType": "address",
          "name": "operator",
          "type": "address"
        },
        {
          "indexed": false,
          "internalType": "bool",
          "name": "approved",
          "type": "bool"
        }
      ],
      "name": "ApprovalForAll",
      "type": "event"
    },
    {
      "anonymous": false,
      "inputs": [
        {
          "indexed": false,
          "internalType": "string",
          "name": "ens",
          "type": "string"
        },
        {
          "indexed": true,
          "internalType": "bytes32",
          "name": "namehash",
          "type": "bytes32"
        },
        {
          "indexed": false,
          "internalType": "address",
          "name": "owner",
          "type": "address"
        }
      ],
      "name": "NewENSImport",
      "type": "event"
    },
    {
      "anonymous": false,
      "inputs": [
        {
          "indexed": false,
          "internalType": "string",
          "name": "label",
          "type": "string"
        },
        {
          "indexed": true,
          "internalType": "bytes32",
          "name": "namehash",
          "type": "bytes32"
        },
        {
          "indexed": false,
          "internalType": "address",
          "name": "owner",
          "type": "address"
        }
      ],
      "name": "NewName",
      "type": "event"
    },
    {
      "anonymous": false,
      "inputs": [
        {
          "indexed": true,
          "internalType": "address",
          "name": "previousOwner",
          "type": "address"
        },
        {
          "indexed": true,
          "internalType": "address",
          "name": "newOwner",
          "type": "address"
        }
      ],
      "name": "OwnershipTransferred",
      "type": "event"
    },
    {
      "anonymous": false,
      "inputs": [
        {
          "indexed": true,
          "internalType": "address",
          "name": "from",
          "type": "address"
        },
        {
          "indexed": true,
          "internalType": "address",
          "name": "to",
          "type": "address"
        },
        {
          "indexed": true,
          "internalType": "uint256",
          "name": "tokenID",
          "type": "uint256"
        }
      ],
      "name": "Transfer",
      "type": "event"
    },
    {
      "inputs": [],
      "name": "Dev",
      "outputs": [
        {
          "internalType": "address",
          "name": "",
          "type": "address"
        }
      ],
      "stateMutability": "view",
      "type": "function"
    },
    {
      "inputs": [],
      "name": "ENS",
      "outputs": [
        {
          "internalType": "contract iENS",
          "name": "",
          "type": "address"
        }
      ],
      "stateMutability": "view",
      "type": "function"
    },
    {
      "inputs": [],
      "name": "HELIX2",
      "outputs": [
        {
          "internalType": "contract iHELIX2",
          "name": "",
          "type": "address"
        }
      ],
      "stateMutability": "view",
      "type": "function"
    },
    {
      "inputs": [],
      "name": "NAMES",
      "outputs": [
        {
          "internalType": "contract iNAME",
          "name": "",
          "type": "address"
        }
      ],
      "stateMutability": "view",
      "type": "function"
    },
    {
      "inputs": [],
      "name": "PRICES",
      "outputs": [
        {
          "internalType": "contract iPriceOracle",
          "name": "",
          "type": "address"
        }
      ],
      "stateMutability": "view",
      "type": "function"
    },
    {
      "inputs": [],
      "name": "active",
      "outputs": [
        {
          "internalType": "bool",
          "name": "",
          "type": "bool"
        }
      ],
      "stateMutability": "view",
      "type": "function"
    },
    {
      "inputs": [
        {
          "internalType": "address",
          "name": "operator",
          "type": "address"
        },
        {
          "internalType": "uint256",
          "name": "tokenID",
          "type": "uint256"
        }
      ],
      "name": "approve",
      "outputs": [],
      "stateMutability": "nonpayable",
      "type": "function"
    },
    {
      "inputs": [
        {
          "internalType": "address",
          "name": "wallet",
          "type": "address"
        }
      ],
      "name": "balanceOf",
      "outputs": [
        {
          "internalType": "uint256",
          "name": "",
          "type": "uint256"
        }
      ],
      "stateMutability": "view",
      "type": "function"
    },
    {
      "inputs": [],
      "name": "basePrice",
      "outputs": [
        {
          "internalType": "uint256",
          "name": "",
          "type": "uint256"
        }
      ],
      "stateMutability": "view",
      "type": "function"
    },
    {
      "inputs": [
        {
          "internalType": "string",
          "name": "ens",
          "type": "string"
        },
        {
          "internalType": "uint256",
          "name": "lifespan",
          "type": "uint256"
        }
      ],
      "name": "claimENS",
      "outputs": [
        {
          "internalType": "bytes32",
          "name": "",
          "type": "bytes32"
        }
      ],
      "stateMutability": "payable",
      "type": "function"
    },
    {
      "inputs": [],
      "name": "defaultLifespan",
      "outputs": [
        {
          "internalType": "uint256",
          "name": "",
          "type": "uint256"
        }
      ],
      "stateMutability": "view",
      "type": "function"
    },
    {
      "inputs": [],
      "name": "defaultResolver",
      "outputs": [
        {
          "internalType": "address",
          "name": "",
          "type": "address"
        }
      ],
      "stateMutability": "view",
      "type": "function"
    },
    {
      "inputs": [
        {
          "internalType": "bytes",
          "name": "_ens",
          "type": "bytes"
        }
      ],
      "name": "ensHash",
      "outputs": [
        {
          "internalType": "bytes32",
          "name": "_namehash",
          "type": "bytes32"
        }
      ],
      "stateMutability": "pure",
      "type": "function"
    },
    {
      "inputs": [
        {
          "internalType": "uint256",
          "name": "",
          "type": "uint256"
        }
      ],
      "name": "illegalBlocks",
      "outputs": [
        {
          "internalType": "string",
          "name": "",
          "type": "string"
        }
      ],
      "stateMutability": "view",
      "type": "function"
    },
    {
      "inputs": [
        {
          "internalType": "address",
          "name": "",
          "type": "address"
        },
        {
          "internalType": "address",
          "name": "",
          "type": "address"
        }
      ],
      "name": "isApprovedForAll",
      "outputs": [
        {
          "internalType": "bool",
          "name": "",
          "type": "bool"
        }
      ],
      "stateMutability": "view",
      "type": "function"
    },
    {
      "inputs": [],
      "name": "name",
      "outputs": [
        {
          "internalType": "string",
          "name": "",
          "type": "string"
        }
      ],
      "stateMutability": "view",
      "type": "function"
    },
    {
      "inputs": [
        {
          "internalType": "string",
          "name": "label",
          "type": "string"
        },
        {
          "internalType": "address",
          "name": "owner",
          "type": "address"
        },
        {
          "internalType": "uint256",
          "name": "lifespan",
          "type": "uint256"
        }
      ],
      "name": "newName",
      "outputs": [
        {
          "internalType": "bytes32",
          "name": "",
          "type": "bytes32"
        }
      ],
      "stateMutability": "payable",
      "type": "function"
    },
    {
      "inputs": [],
      "name": "owner",
      "outputs": [
        {
          "internalType": "address",
          "name": "",
          "type": "address"
        }
      ],
      "stateMutability": "view",
      "type": "function"
    },
    {
      "inputs": [
        {
          "internalType": "uint256",
          "name": "tokenID",
          "type": "uint256"
        }
      ],
      "name": "ownerOf",
      "outputs": [
        {
          "internalType": "address",
          "name": "",
          "type": "address"
        }
      ],
      "stateMutability": "view",
      "type": "function"
    },
    {
      "inputs": [],
      "name": "roothash",
      "outputs": [
        {
          "internalType": "bytes32",
          "name": "",
          "type": "bytes32"
        }
      ],
      "stateMutability": "view",
      "type": "function"
    },
    {
      "inputs": [
        {
          "internalType": "address",
          "name": "from",
          "type": "address"
        },
        {
          "internalType": "address",
          "name": "to",
          "type": "address"
        },
        {
          "internalType": "uint256",
          "name": "tokenID",
          "type": "uint256"
        }
      ],
      "name": "safeTransferFrom",
      "outputs": [],
      "stateMutability": "nonpayable",
      "type": "function"
    },
    {
      "inputs": [
        {
          "internalType": "address",
          "name": "from",
          "type": "address"
        },
        {
          "internalType": "address",
          "name": "to",
          "type": "address"
        },
        {
          "internalType": "uint256",
          "name": "tokenID",
          "type": "uint256"
        },
        {
          "internalType": "bytes",
          "name": "data",
          "type": "bytes"
        }
      ],
      "name": "safeTransferFrom",
      "outputs": [],
      "stateMutability": "nonpayable",
      "type": "function"
    },
    {
      "inputs": [
        {
          "internalType": "address",
          "name": "operator",
          "type": "address"
        },
        {
          "internalType": "bool",
          "name": "flag",
          "type": "bool"
        }
      ],
      "name": "setApprovalForAll",
      "outputs": [],
      "stateMutability": "nonpayable",
      "type": "function"
    },
    {
      "inputs": [
        {
          "internalType": "address",
          "name": "wallet",
          "type": "address"
        },
        {
          "internalType": "uint256",
          "name": "balance",
          "type": "uint256"
        }
      ],
      "name": "setBalance",
      "outputs": [],
      "stateMutability": "nonpayable",
      "type": "function"
    },
    {
      "inputs": [
        {
          "internalType": "uint256",
          "name": "_lifespan",
          "type": "uint256"
        }
      ],
      "name": "setDefaultLifespan",
      "outputs": [],
      "stateMutability": "nonpayable",
      "type": "function"
    },
    {
      "inputs": [
        {
          "internalType": "address",
          "name": "_resolver",
          "type": "address"
        }
      ],
      "name": "setDefaultResolver",
      "outputs": [],
      "stateMutability": "nonpayable",
      "type": "function"
    },
    {
      "inputs": [
        {
          "internalType": "bytes4",
          "name": "sig",
          "type": "bytes4"
        },
        {
          "internalType": "bool",
          "name": "value",
          "type": "bool"
        }
      ],
      "name": "setInterface",
      "outputs": [],
      "stateMutability": "payable",
      "type": "function"
    },
    {
      "inputs": [
        {
          "internalType": "uint256",
          "name": "",
          "type": "uint256"
        }
      ],
      "name": "sizeLimit",
      "outputs": [
        {
          "internalType": "uint256",
          "name": "",
          "type": "uint256"
        }
      ],
      "stateMutability": "view",
      "type": "function"
    },
    {
      "inputs": [
        {
          "internalType": "bytes4",
          "name": "",
          "type": "bytes4"
        }
      ],
      "name": "supportsInterface",
      "outputs": [
        {
          "internalType": "bool",
          "name": "",
          "type": "bool"
        }
      ],
      "stateMutability": "view",
      "type": "function"
    },
    {
      "inputs": [],
      "name": "symbol",
      "outputs": [
        {
          "internalType": "string",
          "name": "",
          "type": "string"
        }
      ],
      "stateMutability": "view",
      "type": "function"
    },
    {
      "inputs": [],
      "name": "toggleActive",
      "outputs": [],
      "stateMutability": "nonpayable",
      "type": "function"
    },
    {
      "inputs": [
        {
          "internalType": "address",
          "name": "from",
          "type": "address"
        },
        {
          "internalType": "address",
          "name": "to",
          "type": "address"
        },
        {
          "internalType": "uint256",
          "name": "tokenID",
          "type": "uint256"
        }
      ],
      "name": "transferFrom",
      "outputs": [],
      "stateMutability": "nonpayable",
      "type": "function"
    },
    {
      "inputs": [
        {
          "internalType": "address",
          "name": "newDev",
          "type": "address"
        }
      ],
      "name": "transferOwnership",
      "outputs": [],
      "stateMutability": "nonpayable",
      "type": "function"
    }
  ],
  "bytecode": {
    "object": "0x60806040526004805460ff60a01b1916600160a01b1790553480156200002457600080fd5b50604051620038db380380620038db83398101604081905262000047916200057b565b60008054336001600160a01b0319918216178255600560209081527f4bcc8a24ccebcb02e06809ffdc3dbdc56f736cf28155948650f9bec809bea48e805460ff1990811660019081179092557f744f038481816166db36c1c96c51289c139e33b5b050399f9ec0fad34d16e76880548216831790557f3b767bd59d7164fff7ec5b80ca1165d9d6e12ee8656896fac4159b0760bfd9f780548216831790556380ac58cd60e01b9094527f072ad3113145b5af48d301e3b9fc3bd1c97c3f26a14f5d44904b71469875631e80549094168117909355825482166001600160a01b03878116919091179093556003805490921692851692831790915560408051632f68079560e01b81529051632f680795926004808401939192918290030181865afa1580156200017a573d6000803e3d6000fd5b505050506040513d601f19601f82011682018060405250810190620001a09190620005c5565b600280546001600160a01b039283166001600160a01b0319918216179091556012805492841692909116821790556040805163bd9a548b60e01b8152905163bd9a548b916004808201926080929091908290030181865afa1580156200020a573d6000803e3d6000fd5b505050506040513d601f19601f8201168201806040525081019062000230919062000683565b51600a556003546040805163335076e760e11b815290516001600160a01b03909216916366a0edce91600480820192610100929091908290030181865afa15801562000280573d6000803e3d6000fd5b505050506040513d601f19601f82011682018060405250810190620002a69190620006ea565b51620002b790600b90600262000455565b50600360009054906101000a90046001600160a01b03166001600160a01b031663ec2ace2a6040518163ffffffff1660e01b8152600401608060405180830381865afa1580156200030c573d6000803e3d6000fd5b505050506040513d601f19601f8201168201806040525081019062000332919062000683565b51600955600354604080516330b5337f60e21b815290516001600160a01b039092169163c2d4cdfc916004808201926000929091908290030181865afa15801562000381573d6000803e3d6000fd5b505050506040513d6000823e601f3d908101601f19168201604052620003ab9190810190620007a1565b620003bb90600e90600462000498565b50600360009054906101000a90046001600160a01b03166001600160a01b031663642a8ed66040518163ffffffff1660e01b8152600401608060405180830381865afa15801562000410573d6000803e3d6000fd5b505050506040513d601f19601f8201168201806040525081019062000436919062000683565b51600d555050600080546001600160a01b031916331790555062000a11565b826002810192821562000486579160200282015b828111156200048657825182559160200191906001019062000469565b5062000494929150620004e4565b5090565b8260048101928215620004d6579160200282015b82811115620004d65782518290620004c5908262000945565b5091602001919060010190620004ac565b5062000494929150620004fb565b5b80821115620004945760008155600101620004e5565b80821115620004945760006200051282826200051c565b50600101620004fb565b5080546200052a90620008b6565b6000825580601f106200053b575050565b601f0160209004906000526020600020908101906200055b9190620004e4565b50565b80516001600160a01b03811681146200057657600080fd5b919050565b6000806000606084860312156200059157600080fd5b6200059c846200055e565b9250620005ac602085016200055e565b9150620005bc604085016200055e565b90509250925092565b600060208284031215620005d857600080fd5b620005e3826200055e565b9392505050565b634e487b7160e01b600052604160045260246000fd5b604051608081016001600160401b0381118282101715620006255762000625620005ea565b60405290565b604080519081016001600160401b0381118282101715620006255762000625620005ea565b604051601f8201601f191681016001600160401b03811182821017156200067b576200067b620005ea565b604052919050565b6000608082840312156200069657600080fd5b82601f830112620006a657600080fd5b620006b062000600565b806080840185811115620006c357600080fd5b845b81811015620006df578051845260209384019301620006c5565b509095945050505050565b6000610100808385031215620006ff57600080fd5b601f84818501126200071057600080fd5b6200071a62000600565b9184019180868411156200072d57600080fd5b855b8481101562000796578784820112620007485760008081fd5b620007526200062b565b80604083018a811115620007665760008081fd5b835b818110156200078257805184526020938401930162000768565b50508452506020909201916040016200072f565b509695505050505050565b60006020808385031215620007b557600080fd5b82516001600160401b0380821115620007cd57600080fd5b8185019150601f8681840112620007e357600080fd5b620007ed62000600565b8060808501898111156200080057600080fd5b855b81811015620008a7578051868111156200081c5760008081fd5b87018581018c136200082e5760008081fd5b805187811115620008435762000843620005ea565b62000856818801601f19168b0162000650565b8181528d8b8385010111156200086c5760008081fd5b60005b828110156200088c578381018c01518282018d01528b016200086f565b5060009181018b019190915285525092870192870162000802565b50909998505050505050505050565b600181811c90821680620008cb57607f821691505b602082108103620008ec57634e487b7160e01b600052602260045260246000fd5b50919050565b601f8211156200094057600081815260208120601f850160051c810160208610156200091b5750805b601f850160051c820191505b818110156200093c5782815560010162000927565b5050505b505050565b81516001600160401b03811115620009615762000961620005ea565b6200097981620009728454620008b6565b84620008f2565b602080601f831160018114620009b15760008415620009985750858301515b600019600386901b1c1916600185901b1785556200093c565b600085815260208120601f198616915b82811015620009e257888601518255948401946001909101908401620009c1565b508582101562000a015787850151600019600388901b60f8161c191681555b5050505050600190811b01905550565b612eba8062000a216000396000f3fe6080604052600436106101fe5760003560e01c806370a082311161011d578063b782426e116100b0578063c7876ea41161007f578063e30443bc11610064578063e30443bc14610625578063e985e9c514610645578063f2fde38b1461068057600080fd5b8063c7876ea4146105fc578063d5bd79371461061257600080fd5b8063b782426e14610589578063b88d4fde146105a9578063c0a43a7c146105c9578063c66485b2146105dc57600080fd5b8063828eab0e116100ec578063828eab0e146104e25780638da5cb5b1461050257806395d89b4114610520578063a22cb4651461056957600080fd5b806370a0823114610459578063769da4bb1461048f5780637f9348aa146104af57806380b29beb146104c257600080fd5b80631eabcd341161019557806329c68dc11161016457806329c68dc114610404578063395063081461041957806342842e0e146103ce5780636352211e1461043957600080fd5b80631eabcd341461038e57806322afcd88146103ae57806323b872dd146103ce578063251c9422146103ee57600080fd5b806306fdde03116101d157806306fdde03146102d2578063095ea7b3146103285780630e6c0bdb1461034a5780631d2e2cc41461036e57600080fd5b806301e51ae81461020357806301ffc9a71461024057806302fb0c5e1461028057806305e84aa0146102b2575b600080fd5b34801561020f57600080fd5b50600054610223906001600160a01b031681565b6040516001600160a01b0390911681526020015b60405180910390f35b34801561024c57600080fd5b5061027061025b3660046126dc565b60056020526000908152604090205460ff1681565b6040519015158152602001610237565b34801561028c57600080fd5b506004546102709074010000000000000000000000000000000000000000900460ff1681565b3480156102be57600080fd5b50600154610223906001600160a01b031681565b3480156102de57600080fd5b5061031b6040518060400160405280601381526020017f48656c697832204e616d6520536572766963650000000000000000000000000081525081565b6040516102379190612750565b34801561033457600080fd5b50610348610343366004612778565b6106a0565b005b34801561035657600080fd5b5061036060095481565b604051908152602001610237565b34801561037a57600080fd5b50600254610223906001600160a01b031681565b34801561039a57600080fd5b50601254610223906001600160a01b031681565b3480156103ba57600080fd5b506103606103c93660046127ed565b6109ed565b3480156103da57600080fd5b506103486103e936600461282f565b610b24565b3480156103fa57600080fd5b50610360600d5481565b34801561041057600080fd5b50610348610b44565b34801561042557600080fd5b50610348610434366004612870565b610bea565b34801561044557600080fd5b50610223610454366004612870565b610c48565b34801561046557600080fd5b50610360610474366004612889565b6001600160a01b031660009081526006602052604090205490565b34801561049b57600080fd5b506103606104aa366004612870565b610db0565b6103606104bd36600461294b565b610dc7565b3480156104ce57600080fd5b5061031b6104dd366004612870565b6114d0565b3480156104ee57600080fd5b50600454610223906001600160a01b031681565b34801561050e57600080fd5b506000546001600160a01b0316610223565b34801561052c57600080fd5b5061031b6040518060400160405280600381526020017f484e53000000000000000000000000000000000000000000000000000000000081525081565b34801561057557600080fd5b506103486105843660046129b6565b611570565b34801561059557600080fd5b50600354610223906001600160a01b031681565b3480156105b557600080fd5b506103486105c43660046129ef565b6115fa565b6103486105d7366004612a6f565b61160c565b3480156105e857600080fd5b506103486105f7366004612889565b611739565b34801561060857600080fd5b50610360600a5481565b610360610620366004612a8d565b6117cc565b34801561063157600080fd5b50610348610640366004612778565b611db3565b34801561065157600080fd5b50610270610660366004612ad9565b600760209081526000928352604080842090915290825290205460ff1681565b34801561068c57600080fd5b5061034861069b366004612889565b611e9e565b6001546040517fd2ec5fca0000000000000000000000000000000000000000000000000000000081526004810183905282916001600160a01b03169063d2ec5fca90602401602060405180830381865afa158015610702573d6000803e3d6000fd5b505050506040513d601f19601f820116820180604052508101906107269190612b07565b42106107795760405162461bcd60e51b815260206004820152600f60248201527f494e56414c49445f544f4b454e4944000000000000000000000000000000000060448201526064015b60405180910390fd5b6001546040517f02571be3000000000000000000000000000000000000000000000000000000008152600481018390526000916001600160a01b0316906302571be390602401602060405180830381865afa1580156107dc573d6000803e3d6000fd5b505050506040513d601f19601f820116820180604052508101906108009190612b20565b6001546040517fdbd4e021000000000000000000000000000000000000000000000000000000008152600481018590529192506000916001600160a01b039091169063dbd4e02190602401602060405180830381865afa158015610868573d6000803e3d6000fd5b505050506040513d601f19601f8201168201806040525081019061088c9190612b20565b9050336001600160a01b038316148015906108b05750336001600160a01b03821614155b80156108e057506001600160a01b038216600090815260076020908152604080832033845290915290205460ff16155b1561092f576040517f431ef6160000000000000000000000000000000000000000000000000000000081523360048201526001600160a01b038316602482015260448101859052606401610770565b6001546040517f01d49a5f000000000000000000000000000000000000000000000000000000008152600481018690526001600160a01b038781166024830152909116906301d49a5f90604401600060405180830381600087803b15801561099657600080fd5b505af11580156109aa573d6000803e3d6000fd5b50506040518692506001600160a01b038816915033907f8c5be1e5ebec7d5bd14f71427d1e84f3dd0314c0f7b2291e5b200ac8c7c3b92590600090a45050505050565b60008160605b8115610ae957600019909101907f2e00000000000000000000000000000000000000000000000000000000000000858584818110610a3357610a33612b3d565b9050013560f81c60f81b7effffffffffffffffffffffffffffffffffffffffffffffffffffffffffffff191603610aa5578051602091820120604080518084019590955284810191909152805180850382018152606085018083528151919093012060809094019052600081526109f3565b848483818110610ab757610ab7612b3d565b9050013560f81c60f81b81604051602001610ad3929190612b6c565b60405160208183030381529060405290506109f3565b805160208083019190912060408051928301869052820152606001604051602081830303815290604052805190602001209250505092915050565b610b3f83838360405180602001604052806000815250611f6a565b505050565b6000546001600160a01b03163314610b9d576000546040517f8ea458f60000000000000000000000000000000000000000000000000000000081526001600160a01b039091166004820152336024820152604401610770565b600480547fffffffffffffffffffffff00ffffffffffffffffffffffffffffffffffffffff8116740100000000000000000000000000000000000000009182900460ff1615909102179055565b6000546001600160a01b03163314610c43576000546040517f8ea458f60000000000000000000000000000000000000000000000000000000081526001600160a01b039091166004820152336024820152604401610770565b600955565b6001546040517fd2ec5fca0000000000000000000000000000000000000000000000000000000081526004810183905260009183916001600160a01b039091169063d2ec5fca90602401602060405180830381865afa158015610caf573d6000803e3d6000fd5b505050506040513d601f19601f82011682018060405250810190610cd39190612b07565b4210610d215760405162461bcd60e51b815260206004820152600f60248201527f494e56414c49445f544f4b454e494400000000000000000000000000000000006044820152606401610770565b6001546040517f02571be3000000000000000000000000000000000000000000000000000000008152600481018390526000916001600160a01b0316906302571be390602401602060405180830381865afa158015610d84573d6000803e3d6000fd5b505050506040513d601f19601f82011682018060405250810190610da89190612b20565b949350505050565b600b8160028110610dc057600080fd5b0154905081565b600083600b820154610dd882612406565b118015610dee5750600c54610dec82612406565b105b610e3a5760405162461bcd60e51b815260206004820152600d60248201527f494c4c4547414c5f4c4142454c000000000000000000000000000000000000006044820152606401610770565b6040805160808101909152610f0790600e60046000835b82821015610ef4578382018054610e6790612bb4565b80601f0160208091040260200160405190810160405280929190818152602001828054610e9390612bb4565b8015610ee05780601f10610eb557610100808354040283529160200191610ee0565b820191906000526020600020905b815481529060010190602001808311610ec357829003601f168201915b505050505081526020019060010190610e51565b505050508261260d90919063ffffffff16565b15610f545760405162461bcd60e51b815260206004820152600d60248201527f494c4c4547414c5f4348415253000000000000000000000000000000000000006044820152606401610770565b6001600160a01b038416610faa5760405162461bcd60e51b815260206004820152600b60248201527f43414e4e4f545f4255524e0000000000000000000000000000000000000000006044820152606401610770565b600954831015610ffc5760405162461bcd60e51b815260206004820152601260248201527f4c4946455350414e5f544f4f5f53484f525400000000000000000000000000006044820152606401610770565b82600a5461100a9190612c36565b3410156110595760405162461bcd60e51b815260206004820152601260248201527f494e53554646494349454e545f455448455200000000000000000000000000006044820152606401610770565b60008560405160200161106c9190612c55565b60408051601f198184030181528282528051602091820120600d54918401529082015260600160408051808303601f190181529082905280516020909101206001547ff79fe538000000000000000000000000000000000000000000000000000000008352600483018290529092506001600160a01b03169063f79fe53890602401602060405180830381865afa15801561110b573d6000803e3d6000fd5b505050506040513d601f19601f8201168201806040525081019061112f9190612c71565b1561117c5760405162461bcd60e51b815260206004820152600b60248201527f4e414d455f4558495354530000000000000000000000000000000000000000006044820152606401610770565b6001546040517f02571be3000000000000000000000000000000000000000000000000000000008152600481018390526000916001600160a01b0316906302571be390602401602060405180830381865afa1580156111df573d6000803e3d6000fd5b505050506040513d601f19601f820116820180604052508101906112039190612b20565b90506001600160a01b0381161561125f576001600160a01b0381166000818152600660205260408082208054600019019055518492907fddf252ad1be2c89b69c2b068fc378daa952ba7f163c4a11628f55a4df523b3ef908390a45b6001546040517f9177b0860000000000000000000000000000000000000000000000000000000081526001600160a01b0390911690639177b086906112ac908a9086908b90600401612c8e565b600060405180830381600087803b1580156112c657600080fd5b505af11580156112da573d6000803e3d6000fd5b50506001546040517fd3156905000000000000000000000000000000000000000000000000000000008152600481018690526001600160a01b038a81166024830152909116925063d31569059150604401600060405180830381600087803b15801561134557600080fd5b505af1158015611359573d6000803e3d6000fd5b50506001546001600160a01b031691506339de646990508361137b8842612cc0565b6040517fffffffff0000000000000000000000000000000000000000000000000000000060e085901b16815260048101929092526024820152604401600060405180830381600087803b1580156113d157600080fd5b505af11580156113e5573d6000803e3d6000fd5b5050600154600480546040517f1896f70a0000000000000000000000000000000000000000000000000000000081529182018790526001600160a01b0390811660248301529091169250631896f70a9150604401600060405180830381600087803b15801561145357600080fd5b505af1158015611467573d6000803e3d6000fd5b5050506001600160a01b0387166000908152600660205260409081902080546001019055518391507fb9bdfe1c95ffbd6ad8dd9fdb4f9e84980778dba776352729b1dad4a85a22770d906114be908a908a90612cd3565b60405180910390a25095945050505050565b600e81600481106114e057600080fd5b0180549091506114ef90612bb4565b80601f016020809104026020016040519081016040528092919081815260200182805461151b90612bb4565b80156115685780601f1061153d57610100808354040283529160200191611568565b820191906000526020600020905b81548152906001019060200180831161154b57829003601f168201915b505050505081565b3360008181526007602090815260408083206001600160a01b0387168085529083529281902080547fffffffffffffffffffffffffffffffffffffffffffffffffffffffffffffff001686151590811790915590519081529192917f17307eab39ab6107e8899845ad3d59bd9653f200f220920489ca2b5937696c31910160405180910390a35050565b61160684848484611f6a565b50505050565b6000546001600160a01b03163314611665576000546040517f8ea458f60000000000000000000000000000000000000000000000000000000081526001600160a01b039091166004820152336024820152604401610770565b7fffffffff0000000000000000000000000000000000000000000000000000000080831690036116d75760405162461bcd60e51b815260206004820152601a60248201527f494e56414c49445f494e544552464143455f53454c4543544f520000000000006044820152606401610770565b7fffffffff0000000000000000000000000000000000000000000000000000000091909116600090815260056020526040902080547fffffffffffffffffffffffffffffffffffffffffffffffffffffffffffffff0016911515919091179055565b6000546001600160a01b03163314611792576000546040517f8ea458f60000000000000000000000000000000000000000000000000000000081526001600160a01b039091166004820152336024820152604401610770565b600480547fffffffffffffffffffffffff0000000000000000000000000000000000000000166001600160a01b0392909216919091179055565b6000806117d985856109ed565b6002546040517f02571be3000000000000000000000000000000000000000000000000000000008152600481018390529192506001600160a01b0316906302571be390602401602060405180830381865afa15801561183c573d6000803e3d6000fd5b505050506040513d601f19601f820116820180604052508101906118609190612b20565b6001600160a01b0316336001600160a01b0316146118c05760405162461bcd60e51b815260206004820152600d60248201527f4e4f545f454e535f4f574e4552000000000000000000000000000000000000006044820152606401610770565b6009548310156119125760405162461bcd60e51b815260206004820152601260248201527f4c4946455350414e5f544f4f5f53484f525400000000000000000000000000006044820152606401610770565b82600a546119209190612c36565b34101561196f5760405162461bcd60e51b815260206004820152601260248201527f494e53554646494349454e545f455448455200000000000000000000000000006044820152606401610770565b600081600d5460405160200161198f929190918252602082015260400190565b60408051808303601f190181529082905280516020909101206001547ff79fe538000000000000000000000000000000000000000000000000000000008352600483018290529092506001600160a01b03169063f79fe53890602401602060405180830381865afa158015611a08573d6000803e3d6000fd5b505050506040513d601f19601f82011682018060405250810190611a2c9190612c71565b15611a795760405162461bcd60e51b815260206004820152600b60248201527f4e414d455f4558495354530000000000000000000000000000000000000000006044820152606401610770565b6001546040517f02571be3000000000000000000000000000000000000000000000000000000008152600481018390526000916001600160a01b0316906302571be390602401602060405180830381865afa158015611adc573d6000803e3d6000fd5b505050506040513d601f19601f82011682018060405250810190611b009190612b20565b90506001600160a01b03811615611b5c576001600160a01b0381166000818152600660205260408082208054600019019055518492907fddf252ad1be2c89b69c2b068fc378daa952ba7f163c4a11628f55a4df523b3ef908390a45b6001546040517f9177b0860000000000000000000000000000000000000000000000000000000081526001600160a01b0390911690639177b08690611bab908a908a9087903390600401612d29565b600060405180830381600087803b158015611bc557600080fd5b505af1158015611bd9573d6000803e3d6000fd5b50506001546040517fd3156905000000000000000000000000000000000000000000000000000000008152600481018690523360248201526001600160a01b03909116925063d31569059150604401600060405180830381600087803b158015611c4257600080fd5b505af1158015611c56573d6000803e3d6000fd5b50506001546001600160a01b031691506339de6469905083611c788842612cc0565b6040517fffffffff0000000000000000000000000000000000000000000000000000000060e085901b16815260048101929092526024820152604401600060405180830381600087803b158015611cce57600080fd5b505af1158015611ce2573d6000803e3d6000fd5b5050600154600480546040517f1896f70a0000000000000000000000000000000000000000000000000000000081529182018790526001600160a01b0390811660248301529091169250631896f70a9150604401600060405180830381600087803b158015611d5057600080fd5b505af1158015611d64573d6000803e3d6000fd5b5050336000818152600660205260409081902080546001019055518593507f9a050a1e2c15ba19262655fcd57f128807dad34cd2f1ddf4d11686270af0a0c092506114be918b918b9190612d5d565b600360009054906101000a90046001600160a01b03166001600160a01b0316635ab1bd536040518163ffffffff1660e01b8152600401608060405180830381865afa158015611e06573d6000803e3d6000fd5b505050506040513d601f19601f82011682018060405250810190611e2a9190612d8a565b516001600160a01b03163314611e825760405162461bcd60e51b815260206004820152600c60248201527f4e4f545f524547495354525900000000000000000000000000000000000000006044820152606401610770565b6001600160a01b03909116600090815260066020526040902055565b6000546001600160a01b03163314611ef7576000546040517f8ea458f60000000000000000000000000000000000000000000000000000000081526001600160a01b039091166004820152336024820152604401610770565b600080546040516001600160a01b03808516939216917f8be0079c531659141344cd1fd0a4f28419497f9722a3daafe3b4186f6b6457e091a3600080547fffffffffffffffffffffffff0000000000000000000000000000000000000000166001600160a01b0392909216919091179055565b6001546040517fd2ec5fca0000000000000000000000000000000000000000000000000000000081526004810184905283916001600160a01b03169063d2ec5fca90602401602060405180830381865afa158015611fcc573d6000803e3d6000fd5b505050506040513d601f19601f82011682018060405250810190611ff09190612b07565b421061203e5760405162461bcd60e51b815260206004820152600f60248201527f494e56414c49445f544f4b454e494400000000000000000000000000000000006044820152606401610770565b6001546040517f02571be3000000000000000000000000000000000000000000000000000000008152600481018390526000916001600160a01b0316906302571be390602401602060405180830381865afa1580156120a1573d6000803e3d6000fd5b505050506040513d601f19601f820116820180604052508101906120c59190612b20565b90506001600160a01b038516612107576040517f5788079900000000000000000000000000000000000000000000000000000000815260040160405180910390fd5b856001600160a01b0316816001600160a01b03161461216c576040517f431ef6160000000000000000000000000000000000000000000000000000000081526001600160a01b0380831660048301528716602482015260448101859052606401610770565b336001600160a01b038216146121c6576040517f431ef6160000000000000000000000000000000000000000000000000000000081523360048201526001600160a01b038716602482015260448101859052606401610770565b6001546040517fbe22e756000000000000000000000000000000000000000000000000000000008152600481018690526001600160a01b0387811660248301529091169063be22e75690604401600060405180830381600087803b15801561222d57600080fd5b505af1158015612241573d6000803e3d6000fd5b5050506001600160a01b0380881660008181526006602052604080822080546000190190559289168082528382208054600101905592518894507fddf252ad1be2c89b69c2b068fc378daa952ba7f163c4a11628f55a4df523b3ef9190a46001600160a01b0385163b156123fe576040517f150b7a020000000000000000000000000000000000000000000000000000000081526001600160a01b0386169063150b7a02906122fa9033908a9089908990600401612e11565b6020604051808303816000875af1925050508015612335575060408051601f3d908101601f1916820190925261233291810190612e4d565b60015b612376576040517f3a9f8cb30000000000000000000000000000000000000000000000000000000081526001600160a01b0386166004820152602401610770565b7fffffffff0000000000000000000000000000000000000000000000000000000081167f150b7a0200000000000000000000000000000000000000000000000000000000146123fc576040517f3a9f8cb30000000000000000000000000000000000000000000000000000000081526001600160a01b0387166004820152602401610770565b505b505050505050565b8051600090819081905b8082101561260457600085838151811061242c5761242c612b3d565b01602001517fff000000000000000000000000000000000000000000000000000000000000001690507f800000000000000000000000000000000000000000000000000000000000000081101561248f57612488600184612cc0565b92506125f1565b7fe0000000000000000000000000000000000000000000000000000000000000007fff00000000000000000000000000000000000000000000000000000000000000821610156124e457612488600284612cc0565b7ff0000000000000000000000000000000000000000000000000000000000000007fff000000000000000000000000000000000000000000000000000000000000008216101561253957612488600384612cc0565b7ff8000000000000000000000000000000000000000000000000000000000000007fff000000000000000000000000000000000000000000000000000000000000008216101561258e57612488600484612cc0565b7ffc000000000000000000000000000000000000000000000000000000000000007fff00000000000000000000000000000000000000000000000000000000000000821610156125e357612488600584612cc0565b6125ee600684612cc0565b92505b50826125fc81612e6a565b935050612410565b50909392505050565b6000805b600481101561269f578360405160200161262b9190612c55565b6040516020818303038152906040528051906020012083826004811061265357612653612b3d565b60200201516040516020016126689190612c55565b604051602081830303815290604052805190602001200361268d5760019150506126a5565b8061269781612e6a565b915050612611565b50600090505b92915050565b7fffffffff00000000000000000000000000000000000000000000000000000000811681146126d957600080fd5b50565b6000602082840312156126ee57600080fd5b81356126f9816126ab565b9392505050565b60005b8381101561271b578181015183820152602001612703565b50506000910152565b6000815180845261273c816020860160208601612700565b601f01601f19169290920160200192915050565b6020815260006126f96020830184612724565b6001600160a01b03811681146126d957600080fd5b6000806040838503121561278b57600080fd5b823561279681612763565b946020939093013593505050565b60008083601f8401126127b657600080fd5b50813567ffffffffffffffff8111156127ce57600080fd5b6020830191508360208285010111156127e657600080fd5b9250929050565b6000806020838503121561280057600080fd5b823567ffffffffffffffff81111561281757600080fd5b612823858286016127a4565b90969095509350505050565b60008060006060848603121561284457600080fd5b833561284f81612763565b9250602084013561285f81612763565b929592945050506040919091013590565b60006020828403121561288257600080fd5b5035919050565b60006020828403121561289b57600080fd5b81356126f981612763565b7f4e487b7100000000000000000000000000000000000000000000000000000000600052604160045260246000fd5b600067ffffffffffffffff808411156128f0576128f06128a6565b604051601f8501601f19908116603f01168101908282118183101715612918576129186128a6565b8160405280935085815286868601111561293157600080fd5b858560208301376000602087830101525050509392505050565b60008060006060848603121561296057600080fd5b833567ffffffffffffffff81111561297757600080fd5b8401601f8101861361298857600080fd5b612997868235602084016128d5565b935050602084013561285f81612763565b80151581146126d957600080fd5b600080604083850312156129c957600080fd5b82356129d481612763565b915060208301356129e4816129a8565b809150509250929050565b60008060008060808587031215612a0557600080fd5b8435612a1081612763565b93506020850135612a2081612763565b925060408501359150606085013567ffffffffffffffff811115612a4357600080fd5b8501601f81018713612a5457600080fd5b612a63878235602084016128d5565b91505092959194509250565b60008060408385031215612a8257600080fd5b82356129d4816126ab565b600080600060408486031215612aa257600080fd5b833567ffffffffffffffff811115612ab957600080fd5b612ac5868287016127a4565b909790965060209590950135949350505050565b60008060408385031215612aec57600080fd5b8235612af781612763565b915060208301356129e481612763565b600060208284031215612b1957600080fd5b5051919050565b600060208284031215612b3257600080fd5b81516126f981612763565b7f4e487b7100000000000000000000000000000000000000000000000000000000600052603260045260246000fd5b7fff000000000000000000000000000000000000000000000000000000000000008316815260008251612ba6816001850160208701612700565b919091016001019392505050565b600181811c90821680612bc857607f821691505b602082108103612c01577f4e487b7100000000000000000000000000000000000000000000000000000000600052602260045260246000fd5b50919050565b7f4e487b7100000000000000000000000000000000000000000000000000000000600052601160045260246000fd5b6000816000190483118215151615612c5057612c50612c07565b500290565b60008251612c67818460208701612700565b9190910192915050565b600060208284031215612c8357600080fd5b81516126f9816129a8565b606081526000612ca16060830186612724565b90508360208301526001600160a01b0383166040830152949350505050565b808201808211156126a5576126a5612c07565b604081526000612ce66040830185612724565b90506001600160a01b03831660208301529392505050565b818352818160208501375060006020828401015260006020601f19601f840116840101905092915050565b606081526000612d3d606083018688612cfe565b90508360208301526001600160a01b038316604083015295945050505050565b604081526000612d71604083018587612cfe565b90506001600160a01b0383166020830152949350505050565b600060808284031215612d9c57600080fd5b82601f830112612dab57600080fd5b6040516080810181811067ffffffffffffffff82111715612dce57612dce6128a6565b604052806080840185811115612de357600080fd5b845b81811015612e06578051612df881612763565b835260209283019201612de5565b509195945050505050565b60006001600160a01b03808716835280861660208401525083604083015260806060830152612e436080830184612724565b9695505050505050565b600060208284031215612e5f57600080fd5b81516126f9816126ab565b60006000198203612e7d57612e7d612c07565b506001019056fea2646970667358221220f31b1187497ca8815c79fba45904e4015512bbc12c90454c799d22719c30e97164736f6c63430008100033",
    "linkReferences": {}
  },
  "methodIdentifiers": {
    "Dev()": "01e51ae8",
    "ENS()": "1d2e2cc4",
    "HELIX2()": "b782426e",
    "NAMES()": "05e84aa0",
    "PRICES()": "1eabcd34",
    "active()": "02fb0c5e",
    "approve(address,uint256)": "095ea7b3",
    "balanceOf(address)": "70a08231",
    "basePrice()": "c7876ea4",
    "claimENS(string,uint256)": "d5bd7937",
    "defaultLifespan()": "0e6c0bdb",
    "defaultResolver()": "828eab0e",
    "ensHash(bytes)": "22afcd88",
    "illegalBlocks(uint256)": "80b29beb",
    "isApprovedForAll(address,address)": "e985e9c5",
    "name()": "06fdde03",
    "newName(string,address,uint256)": "7f9348aa",
    "owner()": "8da5cb5b",
    "ownerOf(uint256)": "6352211e",
    "roothash()": "251c9422",
    "safeTransferFrom(address,address,uint256)": "42842e0e",
    "safeTransferFrom(address,address,uint256,bytes)": "b88d4fde",
    "setApprovalForAll(address,bool)": "a22cb465",
    "setBalance(address,uint256)": "e30443bc",
    "setDefaultLifespan(uint256)": "39506308",
    "setDefaultResolver(address)": "c66485b2",
    "setInterface(bytes4,bool)": "c0a43a7c",
    "sizeLimit(uint256)": "769da4bb",
    "supportsInterface(bytes4)": "01ffc9a7",
    "symbol()": "95d89b41",
    "toggleActive()": "29c68dc1",
    "transferFrom(address,address,uint256)": "23b872dd",
    "transferOwnership(address)": "f2fde38b"
  },
  "id": 36
}