{
  "abi": [
    {
      "inputs": [
        {
          "internalType": "address",
          "name": "_registry",
          "type": "address"
        },
        {
          "internalType": "address",
          "name": "_helix2",
          "type": "address"
        },
        {
          "internalType": "address",
          "name": "_priceOracle",
          "type": "address"
        }
      ],
      "stateMutability": "nonpayable",
      "type": "constructor"
    },
    {
      "inputs": [],
      "name": "CannotBurn",
      "type": "error"
    },
    {
      "inputs": [
        {
          "internalType": "address",
          "name": "to",
          "type": "address"
        }
      ],
      "name": "ERC721IncompatibleReceiver",
      "type": "error"
    },
    {
      "inputs": [
        {
          "internalType": "address",
          "name": "_dev",
          "type": "address"
        },
        {
          "internalType": "address",
          "name": "_you",
          "type": "address"
        }
      ],
      "name": "OnlyDev",
      "type": "error"
    },
    {
      "inputs": [
        {
          "internalType": "address",
          "name": "operator",
          "type": "address"
        },
        {
          "internalType": "address",
          "name": "owner",
          "type": "address"
        },
        {
          "internalType": "uint256",
          "name": "tokenID",
          "type": "uint256"
        }
      ],
      "name": "Unauthorized",
      "type": "error"
    },
    {
      "anonymous": false,
      "inputs": [
        {
          "indexed": true,
          "internalType": "address",
          "name": "owner",
          "type": "address"
        },
        {
          "indexed": true,
          "internalType": "address",
          "name": "spender",
          "type": "address"
        },
        {
          "indexed": true,
          "internalType": "uint256",
          "name": "tokenID",
          "type": "uint256"
        }
      ],
      "name": "Approval",
      "type": "event"
    },
    {
      "anonymous": false,
      "inputs": [
        {
          "indexed": true,
          "internalType": "address",
          "name": "owner",
          "type": "address"
        },
        {
          "indexed": true,
          "internalType": "address",
          "name": "operator",
          "type": "address"
        },
        {
          "indexed": false,
          "internalType": "bool",
          "name": "approved",
          "type": "bool"
        }
      ],
      "name": "ApprovalForAll",
      "type": "event"
    },
    {
      "anonymous": false,
      "inputs": [
        {
          "indexed": false,
          "internalType": "address",
          "name": "Dev",
          "type": "address"
        },
        {
          "indexed": false,
          "internalType": "address",
          "name": "newDev",
          "type": "address"
        }
      ],
      "name": "NewDev",
      "type": "event"
    },
    {
      "anonymous": false,
      "inputs": [
        {
          "indexed": false,
          "internalType": "string",
          "name": "ens",
          "type": "string"
        },
        {
          "indexed": true,
          "internalType": "bytes32",
          "name": "namehash",
          "type": "bytes32"
        },
        {
          "indexed": false,
          "internalType": "address",
          "name": "owner",
          "type": "address"
        }
      ],
      "name": "NewENSImport",
      "type": "event"
    },
    {
      "anonymous": false,
      "inputs": [
        {
          "indexed": false,
          "internalType": "string",
          "name": "label",
          "type": "string"
        },
        {
          "indexed": true,
          "internalType": "bytes32",
          "name": "namehash",
          "type": "bytes32"
        },
        {
          "indexed": false,
          "internalType": "address",
          "name": "owner",
          "type": "address"
        }
      ],
      "name": "NewName",
      "type": "event"
    },
    {
      "anonymous": false,
      "inputs": [
        {
          "indexed": true,
          "internalType": "address",
          "name": "from",
          "type": "address"
        },
        {
          "indexed": true,
          "internalType": "address",
          "name": "to",
          "type": "address"
        },
        {
          "indexed": true,
          "internalType": "uint256",
          "name": "tokenID",
          "type": "uint256"
        }
      ],
      "name": "Transfer",
      "type": "event"
    },
    {
      "inputs": [],
      "name": "Dev",
      "outputs": [
        {
          "internalType": "address",
          "name": "",
          "type": "address"
        }
      ],
      "stateMutability": "view",
      "type": "function"
    },
    {
      "inputs": [],
      "name": "ENS",
      "outputs": [
        {
          "internalType": "contract iENS",
          "name": "",
          "type": "address"
        }
      ],
      "stateMutability": "view",
      "type": "function"
    },
    {
      "inputs": [],
      "name": "HELIX2",
      "outputs": [
        {
          "internalType": "contract iHELIX2",
          "name": "",
          "type": "address"
        }
      ],
      "stateMutability": "view",
      "type": "function"
    },
    {
      "inputs": [],
      "name": "NAMES",
      "outputs": [
        {
          "internalType": "contract iNAME",
          "name": "",
          "type": "address"
        }
      ],
      "stateMutability": "view",
      "type": "function"
    },
    {
      "inputs": [],
      "name": "PRICES",
      "outputs": [
        {
          "internalType": "contract iPriceOracle",
          "name": "",
          "type": "address"
        }
      ],
      "stateMutability": "view",
      "type": "function"
    },
    {
      "inputs": [],
      "name": "active",
      "outputs": [
        {
          "internalType": "bool",
          "name": "",
          "type": "bool"
        }
      ],
      "stateMutability": "view",
      "type": "function"
    },
    {
      "inputs": [
        {
          "internalType": "address",
          "name": "operator",
          "type": "address"
        },
        {
          "internalType": "uint256",
          "name": "tokenID",
          "type": "uint256"
        }
      ],
      "name": "approve",
      "outputs": [],
      "stateMutability": "nonpayable",
      "type": "function"
    },
    {
      "inputs": [
        {
          "internalType": "address",
          "name": "wallet",
          "type": "address"
        }
      ],
      "name": "balanceOf",
      "outputs": [
        {
          "internalType": "uint256",
          "name": "",
          "type": "uint256"
        }
      ],
      "stateMutability": "view",
      "type": "function"
    },
    {
      "inputs": [],
      "name": "basePrice",
      "outputs": [
        {
          "internalType": "uint256",
          "name": "",
          "type": "uint256"
        }
      ],
      "stateMutability": "view",
      "type": "function"
    },
    {
      "inputs": [
        {
          "internalType": "address",
          "name": "newDev",
          "type": "address"
        }
      ],
      "name": "changeDev",
      "outputs": [],
      "stateMutability": "nonpayable",
      "type": "function"
    },
    {
      "inputs": [
        {
          "internalType": "string",
          "name": "ens",
          "type": "string"
        },
        {
          "internalType": "uint256",
          "name": "lifespan",
          "type": "uint256"
        }
      ],
      "name": "claimENS",
      "outputs": [
        {
          "internalType": "bytes32",
          "name": "",
          "type": "bytes32"
        }
      ],
      "stateMutability": "payable",
      "type": "function"
    },
    {
      "inputs": [],
      "name": "defaultLifespan",
      "outputs": [
        {
          "internalType": "uint256",
          "name": "",
          "type": "uint256"
        }
      ],
      "stateMutability": "view",
      "type": "function"
    },
    {
      "inputs": [],
      "name": "defaultResolver",
      "outputs": [
        {
          "internalType": "address",
          "name": "",
          "type": "address"
        }
      ],
      "stateMutability": "view",
      "type": "function"
    },
    {
      "inputs": [
        {
          "internalType": "bytes",
          "name": "_ens",
          "type": "bytes"
        }
      ],
      "name": "hashENS",
      "outputs": [
        {
          "internalType": "bytes32",
          "name": "_namehash",
          "type": "bytes32"
        }
      ],
      "stateMutability": "pure",
      "type": "function"
    },
    {
      "inputs": [
        {
          "internalType": "uint256",
          "name": "",
          "type": "uint256"
        }
      ],
      "name": "illegalBlocks",
      "outputs": [
        {
          "internalType": "string",
          "name": "",
          "type": "string"
        }
      ],
      "stateMutability": "view",
      "type": "function"
    },
    {
      "inputs": [
        {
          "internalType": "address",
          "name": "",
          "type": "address"
        },
        {
          "internalType": "address",
          "name": "",
          "type": "address"
        }
      ],
      "name": "isApprovedForAll",
      "outputs": [
        {
          "internalType": "bool",
          "name": "",
          "type": "bool"
        }
      ],
      "stateMutability": "view",
      "type": "function"
    },
    {
      "inputs": [],
      "name": "name",
      "outputs": [
        {
          "internalType": "string",
          "name": "",
          "type": "string"
        }
      ],
      "stateMutability": "view",
      "type": "function"
    },
    {
      "inputs": [
        {
          "internalType": "string",
          "name": "label",
          "type": "string"
        },
        {
          "internalType": "address",
          "name": "owner",
          "type": "address"
        },
        {
          "internalType": "uint256",
          "name": "lifespan",
          "type": "uint256"
        }
      ],
      "name": "newName",
      "outputs": [
        {
          "internalType": "bytes32",
          "name": "",
          "type": "bytes32"
        }
      ],
      "stateMutability": "payable",
      "type": "function"
    },
    {
      "inputs": [
        {
          "internalType": "uint256",
          "name": "tokenID",
          "type": "uint256"
        }
      ],
      "name": "ownerOf",
      "outputs": [
        {
          "internalType": "address",
          "name": "",
          "type": "address"
        }
      ],
      "stateMutability": "view",
      "type": "function"
    },
    {
      "inputs": [],
      "name": "roothash",
      "outputs": [
        {
          "internalType": "bytes32",
          "name": "",
          "type": "bytes32"
        }
      ],
      "stateMutability": "view",
      "type": "function"
    },
    {
      "inputs": [
        {
          "internalType": "address",
          "name": "from",
          "type": "address"
        },
        {
          "internalType": "address",
          "name": "to",
          "type": "address"
        },
        {
          "internalType": "uint256",
          "name": "tokenID",
          "type": "uint256"
        }
      ],
      "name": "safeTransferFrom",
      "outputs": [],
      "stateMutability": "nonpayable",
      "type": "function"
    },
    {
      "inputs": [
        {
          "internalType": "address",
          "name": "from",
          "type": "address"
        },
        {
          "internalType": "address",
          "name": "to",
          "type": "address"
        },
        {
          "internalType": "uint256",
          "name": "tokenID",
          "type": "uint256"
        },
        {
          "internalType": "bytes",
          "name": "data",
          "type": "bytes"
        }
      ],
      "name": "safeTransferFrom",
      "outputs": [],
      "stateMutability": "nonpayable",
      "type": "function"
    },
    {
      "inputs": [
        {
          "internalType": "address",
          "name": "operator",
          "type": "address"
        },
        {
          "internalType": "bool",
          "name": "flag",
          "type": "bool"
        }
      ],
      "name": "setApprovalForAll",
      "outputs": [],
      "stateMutability": "nonpayable",
      "type": "function"
    },
    {
      "inputs": [
        {
          "internalType": "address",
          "name": "wallet",
          "type": "address"
        },
        {
          "internalType": "uint256",
          "name": "balance",
          "type": "uint256"
        }
      ],
      "name": "setBalance",
      "outputs": [],
      "stateMutability": "nonpayable",
      "type": "function"
    },
    {
      "inputs": [
        {
          "internalType": "uint256",
          "name": "_lifespan",
          "type": "uint256"
        }
      ],
      "name": "setDefaultLifespan",
      "outputs": [],
      "stateMutability": "nonpayable",
      "type": "function"
    },
    {
      "inputs": [
        {
          "internalType": "address",
          "name": "_resolver",
          "type": "address"
        }
      ],
      "name": "setDefaultResolver",
      "outputs": [],
      "stateMutability": "nonpayable",
      "type": "function"
    },
    {
      "inputs": [
        {
          "internalType": "uint256",
          "name": "",
          "type": "uint256"
        }
      ],
      "name": "sizeLimit",
      "outputs": [
        {
          "internalType": "uint256",
          "name": "",
          "type": "uint256"
        }
      ],
      "stateMutability": "view",
      "type": "function"
    },
    {
      "inputs": [],
      "name": "symbol",
      "outputs": [
        {
          "internalType": "string",
          "name": "",
          "type": "string"
        }
      ],
      "stateMutability": "view",
      "type": "function"
    },
    {
      "inputs": [],
      "name": "toggleActive",
      "outputs": [],
      "stateMutability": "nonpayable",
      "type": "function"
    },
    {
      "inputs": [
        {
          "internalType": "address",
          "name": "from",
          "type": "address"
        },
        {
          "internalType": "address",
          "name": "to",
          "type": "address"
        },
        {
          "internalType": "uint256",
          "name": "tokenID",
          "type": "uint256"
        }
      ],
      "name": "transferFrom",
      "outputs": [],
      "stateMutability": "nonpayable",
      "type": "function"
    }
  ],
  "bytecode": {
    "object": "0x60806040526004805460ff60a01b1916600160a01b1790553480156200002457600080fd5b506040516200362c3803806200362c8339810160408190526200004791620004c1565b60008054336001600160a01b0319918216179091556001805482166001600160a01b03868116919091179091556003805490921690841690811790915560408051632f68079560e01b81529051632f680795916004808201926020929091908290030181865afa158015620000c0573d6000803e3d6000fd5b505050506040513d601f19601f82011682018060405250810190620000e691906200050b565b600280546001600160a01b039283166001600160a01b0319918216179091556011805492841692909116821790556040805163bd9a548b60e01b8152905163bd9a548b916004808201926080929091908290030181865afa15801562000150573d6000803e3d6000fd5b505050506040513d601f19601f82011682018060405250810190620001769190620005c9565b516009556003546040805163335076e760e11b815290516001600160a01b03909216916366a0edce91600480820192610100929091908290030181865afa158015620001c6573d6000803e3d6000fd5b505050506040513d601f19601f82011682018060405250810190620001ec919062000630565b51620001fd90600a9060026200039b565b50600360009054906101000a90046001600160a01b03166001600160a01b031663ec2ace2a6040518163ffffffff1660e01b8152600401608060405180830381865afa15801562000252573d6000803e3d6000fd5b505050506040513d601f19601f82011682018060405250810190620002789190620005c9565b51600855600354604080516330b5337f60e21b815290516001600160a01b039092169163c2d4cdfc916004808201926000929091908290030181865afa158015620002c7573d6000803e3d6000fd5b505050506040513d6000823e601f3d908101601f19168201604052620002f19190810190620006e7565b6200030190600d906004620003de565b50600360009054906101000a90046001600160a01b03166001600160a01b031663642a8ed66040518163ffffffff1660e01b8152600401608060405180830381865afa15801562000356573d6000803e3d6000fd5b505050506040513d601f19601f820116820180604052508101906200037c9190620005c9565b51600c555050600080546001600160a01b031916331790555062000957565b8260028101928215620003cc579160200282015b82811115620003cc578251825591602001919060010190620003af565b50620003da9291506200042a565b5090565b82600481019282156200041c579160200282015b828111156200041c57825182906200040b90826200088b565b5091602001919060010190620003f2565b50620003da92915062000441565b5b80821115620003da57600081556001016200042b565b80821115620003da57600062000458828262000462565b5060010162000441565b5080546200047090620007fc565b6000825580601f1062000481575050565b601f016020900490600052602060002090810190620004a191906200042a565b50565b80516001600160a01b0381168114620004bc57600080fd5b919050565b600080600060608486031215620004d757600080fd5b620004e284620004a4565b9250620004f260208501620004a4565b91506200050260408501620004a4565b90509250925092565b6000602082840312156200051e57600080fd5b6200052982620004a4565b9392505050565b634e487b7160e01b600052604160045260246000fd5b604051608081016001600160401b03811182821017156200056b576200056b62000530565b60405290565b604080519081016001600160401b03811182821017156200056b576200056b62000530565b604051601f8201601f191681016001600160401b0381118282101715620005c157620005c162000530565b604052919050565b600060808284031215620005dc57600080fd5b82601f830112620005ec57600080fd5b620005f662000546565b8060808401858111156200060957600080fd5b845b81811015620006255780518452602093840193016200060b565b509095945050505050565b60006101008083850312156200064557600080fd5b601f84818501126200065657600080fd5b6200066062000546565b9184019180868411156200067357600080fd5b855b84811015620006dc5787848201126200068e5760008081fd5b6200069862000571565b80604083018a811115620006ac5760008081fd5b835b81811015620006c8578051845260209384019301620006ae565b505084525060209092019160400162000675565b509695505050505050565b60006020808385031215620006fb57600080fd5b82516001600160401b03808211156200071357600080fd5b8185019150601f86818401126200072957600080fd5b6200073362000546565b8060808501898111156200074657600080fd5b855b81811015620007ed57805186811115620007625760008081fd5b87018581018c13620007745760008081fd5b80518781111562000789576200078962000530565b6200079c818801601f19168b0162000596565b8181528d8b838501011115620007b25760008081fd5b60005b82811015620007d2578381018c01518282018d01528b01620007b5565b5060009181018b019190915285525092870192870162000748565b50909998505050505050505050565b600181811c908216806200081157607f821691505b6020821081036200083257634e487b7160e01b600052602260045260246000fd5b50919050565b601f8211156200088657600081815260208120601f850160051c81016020861015620008615750805b601f850160051c820191505b8181101562000882578281556001016200086d565b5050505b505050565b81516001600160401b03811115620008a757620008a762000530565b620008bf81620008b88454620007fc565b8462000838565b602080601f831160018114620008f75760008415620008de5750858301515b600019600386901b1c1916600185901b17855562000882565b600085815260208120601f198616915b82811015620009285788860151825594840194600190910190840162000907565b5085821015620009475787850151600019600388901b60f8161c191681555b5050505050600190811b01905550565b612cc580620009676000396000f3fe6080604052600436106101cd5760003560e01c806370a08231116100f7578063a22cb46511610095578063c7876ea411610064578063c7876ea41461058a578063d5bd7937146105a0578063e30443bc146105b3578063e985e9c5146105d357600080fd5b8063a22cb4651461050a578063b782426e1461052a578063b88d4fde1461054a578063c66485b21461056a57600080fd5b806380b29beb116100d157806380b29beb14610461578063828eab0e1461048157806388a8c95c146104a157806395d89b41146104c157600080fd5b806370a08231146103f8578063769da4bb1461042e5780637f9348aa1461044e57600080fd5b80631eabcd341161016f578063395063081161013e578063395063081461039857806342842e0e1461034d5780636352211e146103b85780636e73bfd9146103d857600080fd5b80631eabcd341461032d57806323b872dd1461034d578063251c94221461036d57806329c68dc11461038357600080fd5b806306fdde03116101ab57806306fdde0314610271578063095ea7b3146102c75780630e6c0bdb146102e95780631d2e2cc41461030d57600080fd5b806301e51ae8146101d257806302fb0c5e1461020f57806305e84aa014610251575b600080fd5b3480156101de57600080fd5b506000546101f2906001600160a01b031681565b6040516001600160a01b0390911681526020015b60405180910390f35b34801561021b57600080fd5b506004546102419074010000000000000000000000000000000000000000900460ff1681565b6040519015158152602001610206565b34801561025d57600080fd5b506001546101f2906001600160a01b031681565b34801561027d57600080fd5b506102ba6040518060400160405280601381526020017f48656c697832204e616d6520536572766963650000000000000000000000000081525081565b604051610206919061254a565b3480156102d357600080fd5b506102e76102e236600461257c565b61060e565b005b3480156102f557600080fd5b506102ff60085481565b604051908152602001610206565b34801561031957600080fd5b506002546101f2906001600160a01b031681565b34801561033957600080fd5b506011546101f2906001600160a01b031681565b34801561035957600080fd5b506102e76103683660046125a8565b61095b565b34801561037957600080fd5b506102ff600c5481565b34801561038f57600080fd5b506102e761097b565b3480156103a457600080fd5b506102e76103b33660046125e9565b610a21565b3480156103c457600080fd5b506101f26103d33660046125e9565b610a7f565b3480156103e457600080fd5b506102ff6103f336600461264b565b610be7565b34801561040457600080fd5b506102ff61041336600461268d565b6001600160a01b031660009081526005602052604090205490565b34801561043a57600080fd5b506102ff6104493660046125e9565b610d1e565b6102ff61045c36600461274f565b610d35565b34801561046d57600080fd5b506102ba61047c3660046125e9565b61143e565b34801561048d57600080fd5b506004546101f2906001600160a01b031681565b3480156104ad57600080fd5b506102e76104bc36600461268d565b6114de565b3480156104cd57600080fd5b506102ba6040518060400160405280600381526020017f484e53000000000000000000000000000000000000000000000000000000000081525081565b34801561051657600080fd5b506102e76105253660046127ba565b6115b8565b34801561053657600080fd5b506003546101f2906001600160a01b031681565b34801561055657600080fd5b506102e76105653660046127f3565b611642565b34801561057657600080fd5b506102e761058536600461268d565b611654565b34801561059657600080fd5b506102ff60095481565b6102ff6105ae366004612873565b6116e7565b3480156105bf57600080fd5b506102e76105ce36600461257c565b611cce565b3480156105df57600080fd5b506102416105ee3660046128bf565b600660209081526000928352604080842090915290825290205460ff1681565b6001546040517fd2ec5fca0000000000000000000000000000000000000000000000000000000081526004810183905282916001600160a01b03169063d2ec5fca90602401602060405180830381865afa158015610670573d6000803e3d6000fd5b505050506040513d601f19601f8201168201806040525081019061069491906128ed565b42106106e75760405162461bcd60e51b815260206004820152600f60248201527f494e56414c49445f544f4b454e4944000000000000000000000000000000000060448201526064015b60405180910390fd5b6001546040517f02571be3000000000000000000000000000000000000000000000000000000008152600481018390526000916001600160a01b0316906302571be390602401602060405180830381865afa15801561074a573d6000803e3d6000fd5b505050506040513d601f19601f8201168201806040525081019061076e9190612906565b6001546040517fdbd4e021000000000000000000000000000000000000000000000000000000008152600481018590529192506000916001600160a01b039091169063dbd4e02190602401602060405180830381865afa1580156107d6573d6000803e3d6000fd5b505050506040513d601f19601f820116820180604052508101906107fa9190612906565b9050336001600160a01b0383161480159061081e5750336001600160a01b03821614155b801561084e57506001600160a01b038216600090815260066020908152604080832033845290915290205460ff16155b1561089d576040517f431ef6160000000000000000000000000000000000000000000000000000000081523360048201526001600160a01b0383166024820152604481018590526064016106de565b6001546040517f01d49a5f000000000000000000000000000000000000000000000000000000008152600481018690526001600160a01b038781166024830152909116906301d49a5f90604401600060405180830381600087803b15801561090457600080fd5b505af1158015610918573d6000803e3d6000fd5b50506040518692506001600160a01b038816915033907f8c5be1e5ebec7d5bd14f71427d1e84f3dd0314c0f7b2291e5b200ac8c7c3b92590600090a45050505050565b61097683838360405180602001604052806000815250611db9565b505050565b6000546001600160a01b031633146109d4576000546040517f8ea458f60000000000000000000000000000000000000000000000000000000081526001600160a01b0390911660048201523360248201526044016106de565b600480547fffffffffffffffffffffff00ffffffffffffffffffffffffffffffffffffffff8116740100000000000000000000000000000000000000009182900460ff1615909102179055565b6000546001600160a01b03163314610a7a576000546040517f8ea458f60000000000000000000000000000000000000000000000000000000081526001600160a01b0390911660048201523360248201526044016106de565b600855565b6001546040517fd2ec5fca0000000000000000000000000000000000000000000000000000000081526004810183905260009183916001600160a01b039091169063d2ec5fca90602401602060405180830381865afa158015610ae6573d6000803e3d6000fd5b505050506040513d601f19601f82011682018060405250810190610b0a91906128ed565b4210610b585760405162461bcd60e51b815260206004820152600f60248201527f494e56414c49445f544f4b454e4944000000000000000000000000000000000060448201526064016106de565b6001546040517f02571be3000000000000000000000000000000000000000000000000000000008152600481018390526000916001600160a01b0316906302571be390602401602060405180830381865afa158015610bbb573d6000803e3d6000fd5b505050506040513d601f19601f82011682018060405250810190610bdf9190612906565b949350505050565b60008160605b8115610ce357600019909101907f2e00000000000000000000000000000000000000000000000000000000000000858584818110610c2d57610c2d612923565b9050013560f81c60f81b7effffffffffffffffffffffffffffffffffffffffffffffffffffffffffffff191603610c9f57805160209182012060408051808401959095528481019190915280518085038201815260608501808352815191909301206080909401905260008152610bed565b848483818110610cb157610cb1612923565b9050013560f81c60f81b81604051602001610ccd929190612952565b6040516020818303038152906040529050610bed565b805160208083019190912060408051928301869052820152606001604051602081830303815290604052805190602001209250505092915050565b600a8160028110610d2e57600080fd5b0154905081565b600083600a820154610d4682612255565b118015610d5c5750600b54610d5a82612255565b105b610da85760405162461bcd60e51b815260206004820152600d60248201527f494c4c4547414c5f4c4142454c0000000000000000000000000000000000000060448201526064016106de565b6040805160808101909152610e7590600d60046000835b82821015610e62578382018054610dd59061299a565b80601f0160208091040260200160405190810160405280929190818152602001828054610e019061299a565b8015610e4e5780601f10610e2357610100808354040283529160200191610e4e565b820191906000526020600020905b815481529060010190602001808311610e3157829003601f168201915b505050505081526020019060010190610dbf565b505050508261245c90919063ffffffff16565b15610ec25760405162461bcd60e51b815260206004820152600d60248201527f494c4c4547414c5f43484152530000000000000000000000000000000000000060448201526064016106de565b6001600160a01b038416610f185760405162461bcd60e51b815260206004820152600b60248201527f43414e4e4f545f4255524e00000000000000000000000000000000000000000060448201526064016106de565b600854831015610f6a5760405162461bcd60e51b815260206004820152601260248201527f4c4946455350414e5f544f4f5f53484f5254000000000000000000000000000060448201526064016106de565b82600954610f789190612a1c565b341015610fc75760405162461bcd60e51b815260206004820152601260248201527f494e53554646494349454e545f4554484552000000000000000000000000000060448201526064016106de565b600085604051602001610fda9190612a3b565b60408051601f198184030181528282528051602091820120600c54918401529082015260600160408051808303601f190181529082905280516020909101206001547ff79fe538000000000000000000000000000000000000000000000000000000008352600483018290529092506001600160a01b03169063f79fe53890602401602060405180830381865afa158015611079573d6000803e3d6000fd5b505050506040513d601f19601f8201168201806040525081019061109d9190612a57565b156110ea5760405162461bcd60e51b815260206004820152600b60248201527f4e414d455f45584953545300000000000000000000000000000000000000000060448201526064016106de565b6001546040517f02571be3000000000000000000000000000000000000000000000000000000008152600481018390526000916001600160a01b0316906302571be390602401602060405180830381865afa15801561114d573d6000803e3d6000fd5b505050506040513d601f19601f820116820180604052508101906111719190612906565b90506001600160a01b038116156111cd576001600160a01b0381166000818152600560205260408082208054600019019055518492907fddf252ad1be2c89b69c2b068fc378daa952ba7f163c4a11628f55a4df523b3ef908390a45b6001546040517f9177b0860000000000000000000000000000000000000000000000000000000081526001600160a01b0390911690639177b0869061121a908a9086908b90600401612a74565b600060405180830381600087803b15801561123457600080fd5b505af1158015611248573d6000803e3d6000fd5b50506001546040517fd3156905000000000000000000000000000000000000000000000000000000008152600481018690526001600160a01b038a81166024830152909116925063d31569059150604401600060405180830381600087803b1580156112b357600080fd5b505af11580156112c7573d6000803e3d6000fd5b50506001546001600160a01b031691506339de64699050836112e98842612aa6565b6040517fffffffff0000000000000000000000000000000000000000000000000000000060e085901b16815260048101929092526024820152604401600060405180830381600087803b15801561133f57600080fd5b505af1158015611353573d6000803e3d6000fd5b5050600154600480546040517f1896f70a0000000000000000000000000000000000000000000000000000000081529182018790526001600160a01b0390811660248301529091169250631896f70a9150604401600060405180830381600087803b1580156113c157600080fd5b505af11580156113d5573d6000803e3d6000fd5b5050506001600160a01b0387166000908152600560205260409081902080546001019055518391507fb9bdfe1c95ffbd6ad8dd9fdb4f9e84980778dba776352729b1dad4a85a22770d9061142c908a908a90612ab9565b60405180910390a25095945050505050565b600d816004811061144e57600080fd5b01805490915061145d9061299a565b80601f01602080910402602001604051908101604052809291908181526020018280546114899061299a565b80156114d65780601f106114ab576101008083540402835291602001916114d6565b820191906000526020600020905b8154815290600101906020018083116114b957829003601f168201915b505050505081565b6000546001600160a01b03163314611537576000546040517f8ea458f60000000000000000000000000000000000000000000000000000000081526001600160a01b0390911660048201523360248201526044016106de565b600054604080516001600160a01b03928316815291831660208301527fdec101f106d4fc7c85791843e64b198248c822298e3ed7046231d33f7783d816910160405180910390a1600080547fffffffffffffffffffffffff0000000000000000000000000000000000000000166001600160a01b0392909216919091179055565b3360008181526006602090815260408083206001600160a01b0387168085529083529281902080547fffffffffffffffffffffffffffffffffffffffffffffffffffffffffffffff001686151590811790915590519081529192917f17307eab39ab6107e8899845ad3d59bd9653f200f220920489ca2b5937696c31910160405180910390a35050565b61164e84848484611db9565b50505050565b6000546001600160a01b031633146116ad576000546040517f8ea458f60000000000000000000000000000000000000000000000000000000081526001600160a01b0390911660048201523360248201526044016106de565b600480547fffffffffffffffffffffffff0000000000000000000000000000000000000000166001600160a01b0392909216919091179055565b6000806116f48585610be7565b6002546040517f02571be3000000000000000000000000000000000000000000000000000000008152600481018390529192506001600160a01b0316906302571be390602401602060405180830381865afa158015611757573d6000803e3d6000fd5b505050506040513d601f19601f8201168201806040525081019061177b9190612906565b6001600160a01b0316336001600160a01b0316146117db5760405162461bcd60e51b815260206004820152600d60248201527f4e4f545f454e535f4f574e45520000000000000000000000000000000000000060448201526064016106de565b60085483101561182d5760405162461bcd60e51b815260206004820152601260248201527f4c4946455350414e5f544f4f5f53484f5254000000000000000000000000000060448201526064016106de565b8260095461183b9190612a1c565b34101561188a5760405162461bcd60e51b815260206004820152601260248201527f494e53554646494349454e545f4554484552000000000000000000000000000060448201526064016106de565b600081600c546040516020016118aa929190918252602082015260400190565b60408051808303601f190181529082905280516020909101206001547ff79fe538000000000000000000000000000000000000000000000000000000008352600483018290529092506001600160a01b03169063f79fe53890602401602060405180830381865afa158015611923573d6000803e3d6000fd5b505050506040513d601f19601f820116820180604052508101906119479190612a57565b156119945760405162461bcd60e51b815260206004820152600b60248201527f4e414d455f45584953545300000000000000000000000000000000000000000060448201526064016106de565b6001546040517f02571be3000000000000000000000000000000000000000000000000000000008152600481018390526000916001600160a01b0316906302571be390602401602060405180830381865afa1580156119f7573d6000803e3d6000fd5b505050506040513d601f19601f82011682018060405250810190611a1b9190612906565b90506001600160a01b03811615611a77576001600160a01b0381166000818152600560205260408082208054600019019055518492907fddf252ad1be2c89b69c2b068fc378daa952ba7f163c4a11628f55a4df523b3ef908390a45b6001546040517f9177b0860000000000000000000000000000000000000000000000000000000081526001600160a01b0390911690639177b08690611ac6908a908a9087903390600401612b0f565b600060405180830381600087803b158015611ae057600080fd5b505af1158015611af4573d6000803e3d6000fd5b50506001546040517fd3156905000000000000000000000000000000000000000000000000000000008152600481018690523360248201526001600160a01b03909116925063d31569059150604401600060405180830381600087803b158015611b5d57600080fd5b505af1158015611b71573d6000803e3d6000fd5b50506001546001600160a01b031691506339de6469905083611b938842612aa6565b6040517fffffffff0000000000000000000000000000000000000000000000000000000060e085901b16815260048101929092526024820152604401600060405180830381600087803b158015611be957600080fd5b505af1158015611bfd573d6000803e3d6000fd5b5050600154600480546040517f1896f70a0000000000000000000000000000000000000000000000000000000081529182018790526001600160a01b0390811660248301529091169250631896f70a9150604401600060405180830381600087803b158015611c6b57600080fd5b505af1158015611c7f573d6000803e3d6000fd5b5050336000818152600560205260409081902080546001019055518593507f9a050a1e2c15ba19262655fcd57f128807dad34cd2f1ddf4d11686270af0a0c0925061142c918b918b9190612b43565b600360009054906101000a90046001600160a01b03166001600160a01b0316635ab1bd536040518163ffffffff1660e01b8152600401608060405180830381865afa158015611d21573d6000803e3d6000fd5b505050506040513d601f19601f82011682018060405250810190611d459190612b70565b516001600160a01b03163314611d9d5760405162461bcd60e51b815260206004820152600c60248201527f4e4f545f5245474953545259000000000000000000000000000000000000000060448201526064016106de565b6001600160a01b03909116600090815260056020526040902055565b6001546040517fd2ec5fca0000000000000000000000000000000000000000000000000000000081526004810184905283916001600160a01b03169063d2ec5fca90602401602060405180830381865afa158015611e1b573d6000803e3d6000fd5b505050506040513d601f19601f82011682018060405250810190611e3f91906128ed565b4210611e8d5760405162461bcd60e51b815260206004820152600f60248201527f494e56414c49445f544f4b454e4944000000000000000000000000000000000060448201526064016106de565b6001546040517f02571be3000000000000000000000000000000000000000000000000000000008152600481018390526000916001600160a01b0316906302571be390602401602060405180830381865afa158015611ef0573d6000803e3d6000fd5b505050506040513d601f19601f82011682018060405250810190611f149190612906565b90506001600160a01b038516611f56576040517f5788079900000000000000000000000000000000000000000000000000000000815260040160405180910390fd5b856001600160a01b0316816001600160a01b031614611fbb576040517f431ef6160000000000000000000000000000000000000000000000000000000081526001600160a01b03808316600483015287166024820152604481018590526064016106de565b336001600160a01b03821614612015576040517f431ef6160000000000000000000000000000000000000000000000000000000081523360048201526001600160a01b0387166024820152604481018590526064016106de565b6001546040517fbe22e756000000000000000000000000000000000000000000000000000000008152600481018690526001600160a01b0387811660248301529091169063be22e75690604401600060405180830381600087803b15801561207c57600080fd5b505af1158015612090573d6000803e3d6000fd5b5050506001600160a01b0380881660008181526005602052604080822080546000190190559289168082528382208054600101905592518894507fddf252ad1be2c89b69c2b068fc378daa952ba7f163c4a11628f55a4df523b3ef9190a46001600160a01b0385163b1561224d576040517f150b7a020000000000000000000000000000000000000000000000000000000081526001600160a01b0386169063150b7a02906121499033908a9089908990600401612bf7565b6020604051808303816000875af1925050508015612184575060408051601f3d908101601f1916820190925261218191810190612c33565b60015b6121c5576040517f3a9f8cb30000000000000000000000000000000000000000000000000000000081526001600160a01b03861660048201526024016106de565b7fffffffff0000000000000000000000000000000000000000000000000000000081167f150b7a02000000000000000000000000000000000000000000000000000000001461224b576040517f3a9f8cb30000000000000000000000000000000000000000000000000000000081526001600160a01b03871660048201526024016106de565b505b505050505050565b8051600090819081905b8082101561245357600085838151811061227b5761227b612923565b01602001517fff000000000000000000000000000000000000000000000000000000000000001690507f80000000000000000000000000000000000000000000000000000000000000008110156122de576122d7600184612aa6565b9250612440565b7fe0000000000000000000000000000000000000000000000000000000000000007fff0000000000000000000000000000000000000000000000000000000000000082161015612333576122d7600284612aa6565b7ff0000000000000000000000000000000000000000000000000000000000000007fff0000000000000000000000000000000000000000000000000000000000000082161015612388576122d7600384612aa6565b7ff8000000000000000000000000000000000000000000000000000000000000007fff00000000000000000000000000000000000000000000000000000000000000821610156123dd576122d7600484612aa6565b7ffc000000000000000000000000000000000000000000000000000000000000007fff0000000000000000000000000000000000000000000000000000000000000082161015612432576122d7600584612aa6565b61243d600684612aa6565b92505b508261244b81612c75565b93505061225f565b50909392505050565b6000805b60048110156124ee578360405160200161247a9190612a3b565b604051602081830303815290604052805190602001208382600481106124a2576124a2612923565b60200201516040516020016124b79190612a3b565b60405160208183030381529060405280519060200120036124dc5760019150506124f4565b806124e681612c75565b915050612460565b50600090505b92915050565b60005b838110156125155781810151838201526020016124fd565b50506000910152565b600081518084526125368160208601602086016124fa565b601f01601f19169290920160200192915050565b60208152600061255d602083018461251e565b9392505050565b6001600160a01b038116811461257957600080fd5b50565b6000806040838503121561258f57600080fd5b823561259a81612564565b946020939093013593505050565b6000806000606084860312156125bd57600080fd5b83356125c881612564565b925060208401356125d881612564565b929592945050506040919091013590565b6000602082840312156125fb57600080fd5b5035919050565b60008083601f84011261261457600080fd5b50813567ffffffffffffffff81111561262c57600080fd5b60208301915083602082850101111561264457600080fd5b9250929050565b6000806020838503121561265e57600080fd5b823567ffffffffffffffff81111561267557600080fd5b61268185828601612602565b90969095509350505050565b60006020828403121561269f57600080fd5b813561255d81612564565b7f4e487b7100000000000000000000000000000000000000000000000000000000600052604160045260246000fd5b600067ffffffffffffffff808411156126f4576126f46126aa565b604051601f8501601f19908116603f0116810190828211818310171561271c5761271c6126aa565b8160405280935085815286868601111561273557600080fd5b858560208301376000602087830101525050509392505050565b60008060006060848603121561276457600080fd5b833567ffffffffffffffff81111561277b57600080fd5b8401601f8101861361278c57600080fd5b61279b868235602084016126d9565b93505060208401356125d881612564565b801515811461257957600080fd5b600080604083850312156127cd57600080fd5b82356127d881612564565b915060208301356127e8816127ac565b809150509250929050565b6000806000806080858703121561280957600080fd5b843561281481612564565b9350602085013561282481612564565b925060408501359150606085013567ffffffffffffffff81111561284757600080fd5b8501601f8101871361285857600080fd5b612867878235602084016126d9565b91505092959194509250565b60008060006040848603121561288857600080fd5b833567ffffffffffffffff81111561289f57600080fd5b6128ab86828701612602565b909790965060209590950135949350505050565b600080604083850312156128d257600080fd5b82356128dd81612564565b915060208301356127e881612564565b6000602082840312156128ff57600080fd5b5051919050565b60006020828403121561291857600080fd5b815161255d81612564565b7f4e487b7100000000000000000000000000000000000000000000000000000000600052603260045260246000fd5b7fff00000000000000000000000000000000000000000000000000000000000000831681526000825161298c8160018501602087016124fa565b919091016001019392505050565b600181811c908216806129ae57607f821691505b6020821081036129e7577f4e487b7100000000000000000000000000000000000000000000000000000000600052602260045260246000fd5b50919050565b7f4e487b7100000000000000000000000000000000000000000000000000000000600052601160045260246000fd5b6000816000190483118215151615612a3657612a366129ed565b500290565b60008251612a4d8184602087016124fa565b9190910192915050565b600060208284031215612a6957600080fd5b815161255d816127ac565b606081526000612a87606083018661251e565b90508360208301526001600160a01b0383166040830152949350505050565b808201808211156124f4576124f46129ed565b604081526000612acc604083018561251e565b90506001600160a01b03831660208301529392505050565b818352818160208501375060006020828401015260006020601f19601f840116840101905092915050565b606081526000612b23606083018688612ae4565b90508360208301526001600160a01b038316604083015295945050505050565b604081526000612b57604083018587612ae4565b90506001600160a01b0383166020830152949350505050565b600060808284031215612b8257600080fd5b82601f830112612b9157600080fd5b6040516080810181811067ffffffffffffffff82111715612bb457612bb46126aa565b604052806080840185811115612bc957600080fd5b845b81811015612bec578051612bde81612564565b835260209283019201612bcb565b509195945050505050565b60006001600160a01b03808716835280861660208401525083604083015260806060830152612c29608083018461251e565b9695505050505050565b600060208284031215612c4557600080fd5b81517fffffffff000000000000000000000000000000000000000000000000000000008116811461255d57600080fd5b60006000198203612c8857612c886129ed565b506001019056fea264697066735822122072215c002130301b7b2645834f8a044661ff8a0e67a724ad1b09d35fbff6b98264736f6c63430008100033",
    "linkReferences": {}
  },
  "methodIdentifiers": {
    "Dev()": "01e51ae8",
    "ENS()": "1d2e2cc4",
    "HELIX2()": "b782426e",
    "NAMES()": "05e84aa0",
    "PRICES()": "1eabcd34",
    "active()": "02fb0c5e",
    "approve(address,uint256)": "095ea7b3",
    "balanceOf(address)": "70a08231",
    "basePrice()": "c7876ea4",
    "changeDev(address)": "88a8c95c",
    "claimENS(string,uint256)": "d5bd7937",
    "defaultLifespan()": "0e6c0bdb",
    "defaultResolver()": "828eab0e",
    "hashENS(bytes)": "6e73bfd9",
    "illegalBlocks(uint256)": "80b29beb",
    "isApprovedForAll(address,address)": "e985e9c5",
    "name()": "06fdde03",
    "newName(string,address,uint256)": "7f9348aa",
    "ownerOf(uint256)": "6352211e",
    "roothash()": "251c9422",
    "safeTransferFrom(address,address,uint256)": "42842e0e",
    "safeTransferFrom(address,address,uint256,bytes)": "b88d4fde",
    "setApprovalForAll(address,bool)": "a22cb465",
    "setBalance(address,uint256)": "e30443bc",
    "setDefaultLifespan(uint256)": "39506308",
    "setDefaultResolver(address)": "c66485b2",
    "sizeLimit(uint256)": "769da4bb",
    "symbol()": "95d89b41",
    "toggleActive()": "29c68dc1",
    "transferFrom(address,address,uint256)": "23b872dd"
  },
  "id": 32
}