{
  "abi": [
    {
      "inputs": [
        {
          "internalType": "address",
          "name": "_registry",
          "type": "address"
        }
      ],
      "stateMutability": "nonpayable",
      "type": "constructor"
    },
    {
      "inputs": [],
      "name": "CannotBurn",
      "type": "error"
    },
    {
      "inputs": [
        {
          "internalType": "address",
          "name": "to",
          "type": "address"
        }
      ],
      "name": "ERC721IncompatibleReceiver",
      "type": "error"
    },
    {
      "inputs": [
        {
          "internalType": "address",
          "name": "_dev",
          "type": "address"
        },
        {
          "internalType": "address",
          "name": "_you",
          "type": "address"
        }
      ],
      "name": "OnlyDev",
      "type": "error"
    },
    {
      "inputs": [
        {
          "internalType": "address",
          "name": "operator",
          "type": "address"
        },
        {
          "internalType": "address",
          "name": "owner",
          "type": "address"
        },
        {
          "internalType": "uint256",
          "name": "tokenID",
          "type": "uint256"
        }
      ],
      "name": "Unauthorized",
      "type": "error"
    },
    {
      "anonymous": false,
      "inputs": [
        {
          "indexed": true,
          "internalType": "address",
          "name": "owner",
          "type": "address"
        },
        {
          "indexed": true,
          "internalType": "address",
          "name": "spender",
          "type": "address"
        },
        {
          "indexed": true,
          "internalType": "uint256",
          "name": "tokenID",
          "type": "uint256"
        }
      ],
      "name": "Approval",
      "type": "event"
    },
    {
      "anonymous": false,
      "inputs": [
        {
          "indexed": true,
          "internalType": "address",
          "name": "owner",
          "type": "address"
        },
        {
          "indexed": true,
          "internalType": "address",
          "name": "operator",
          "type": "address"
        },
        {
          "indexed": false,
          "internalType": "bool",
          "name": "approved",
          "type": "bool"
        }
      ],
      "name": "ApprovalForAll",
      "type": "event"
    },
    {
      "anonymous": false,
      "inputs": [
        {
          "indexed": true,
          "internalType": "bytes32",
          "name": "namehash",
          "type": "bytes32"
        },
        {
          "indexed": false,
          "internalType": "address",
          "name": "controller",
          "type": "address"
        }
      ],
      "name": "NewController",
      "type": "event"
    },
    {
      "anonymous": false,
      "inputs": [
        {
          "indexed": false,
          "internalType": "address",
          "name": "Dev",
          "type": "address"
        },
        {
          "indexed": false,
          "internalType": "address",
          "name": "newDev",
          "type": "address"
        }
      ],
      "name": "NewDev",
      "type": "event"
    },
    {
      "anonymous": false,
      "inputs": [
        {
          "indexed": true,
          "internalType": "bytes32",
          "name": "namehash",
          "type": "bytes32"
        },
        {
          "indexed": false,
          "internalType": "uint256",
          "name": "expiry",
          "type": "uint256"
        }
      ],
      "name": "NewExpiry",
      "type": "event"
    },
    {
      "anonymous": false,
      "inputs": [
        {
          "indexed": true,
          "internalType": "bytes32",
          "name": "namehash",
          "type": "bytes32"
        },
        {
          "indexed": false,
          "internalType": "address",
          "name": "owner",
          "type": "address"
        }
      ],
      "name": "NewName",
      "type": "event"
    },
    {
      "anonymous": false,
      "inputs": [
        {
          "indexed": true,
          "internalType": "bytes32",
          "name": "namehash",
          "type": "bytes32"
        },
        {
          "indexed": false,
          "internalType": "address",
          "name": "owner",
          "type": "address"
        }
      ],
      "name": "NewOwner",
      "type": "event"
    },
    {
      "anonymous": false,
      "inputs": [
        {
          "indexed": true,
          "internalType": "bytes32",
          "name": "namehash",
          "type": "bytes32"
        },
        {
          "indexed": false,
          "internalType": "address",
          "name": "resolver",
          "type": "address"
        }
      ],
      "name": "NewRecord",
      "type": "event"
    },
    {
      "anonymous": false,
      "inputs": [
        {
          "indexed": true,
          "internalType": "bytes32",
          "name": "namehash",
          "type": "bytes32"
        },
        {
          "indexed": false,
          "internalType": "address",
          "name": "resolver",
          "type": "address"
        }
      ],
      "name": "NewResolver",
      "type": "event"
    },
    {
      "anonymous": false,
      "inputs": [
        {
          "indexed": true,
          "internalType": "address",
          "name": "from",
          "type": "address"
        },
        {
          "indexed": true,
          "internalType": "address",
          "name": "to",
          "type": "address"
        },
        {
          "indexed": true,
          "internalType": "uint256",
          "name": "tokenID",
          "type": "uint256"
        }
      ],
      "name": "Transfer",
      "type": "event"
    },
    {
      "stateMutability": "payable",
      "type": "fallback"
    },
    {
      "inputs": [],
      "name": "Dev",
      "outputs": [
        {
          "internalType": "address",
          "name": "",
          "type": "address"
        }
      ],
      "stateMutability": "view",
      "type": "function"
    },
    {
      "inputs": [],
      "name": "HELIX2",
      "outputs": [
        {
          "internalType": "contract iHELIX2",
          "name": "",
          "type": "address"
        }
      ],
      "stateMutability": "view",
      "type": "function"
    },
    {
      "inputs": [],
      "name": "NAMES",
      "outputs": [
        {
          "internalType": "contract iNAME",
          "name": "",
          "type": "address"
        }
      ],
      "stateMutability": "view",
      "type": "function"
    },
    {
      "inputs": [
        {
          "internalType": "uint256",
          "name": "",
          "type": "uint256"
        }
      ],
      "name": "_approved",
      "outputs": [
        {
          "internalType": "address",
          "name": "",
          "type": "address"
        }
      ],
      "stateMutability": "view",
      "type": "function"
    },
    {
      "inputs": [],
      "name": "active",
      "outputs": [
        {
          "internalType": "bool",
          "name": "",
          "type": "bool"
        }
      ],
      "stateMutability": "view",
      "type": "function"
    },
    {
      "inputs": [
        {
          "internalType": "address",
          "name": "controller",
          "type": "address"
        },
        {
          "internalType": "uint256",
          "name": "tokenID",
          "type": "uint256"
        }
      ],
      "name": "approve",
      "outputs": [],
      "stateMutability": "payable",
      "type": "function"
    },
    {
      "inputs": [
        {
          "internalType": "address",
          "name": "wallet",
          "type": "address"
        }
      ],
      "name": "balanceOf",
      "outputs": [
        {
          "internalType": "uint256",
          "name": "",
          "type": "uint256"
        }
      ],
      "stateMutability": "view",
      "type": "function"
    },
    {
      "inputs": [],
      "name": "basePrice",
      "outputs": [
        {
          "internalType": "uint256",
          "name": "",
          "type": "uint256"
        }
      ],
      "stateMutability": "view",
      "type": "function"
    },
    {
      "inputs": [
        {
          "internalType": "address",
          "name": "newDev",
          "type": "address"
        }
      ],
      "name": "changeDev",
      "outputs": [],
      "stateMutability": "nonpayable",
      "type": "function"
    },
    {
      "inputs": [],
      "name": "defaultLifespan",
      "outputs": [
        {
          "internalType": "uint256",
          "name": "",
          "type": "uint256"
        }
      ],
      "stateMutability": "view",
      "type": "function"
    },
    {
      "inputs": [],
      "name": "defaultResolver",
      "outputs": [
        {
          "internalType": "address",
          "name": "",
          "type": "address"
        }
      ],
      "stateMutability": "view",
      "type": "function"
    },
    {
      "inputs": [],
      "name": "ensRegistry",
      "outputs": [
        {
          "internalType": "address",
          "name": "",
          "type": "address"
        }
      ],
      "stateMutability": "view",
      "type": "function"
    },
    {
      "inputs": [],
      "name": "getPrices",
      "outputs": [
        {
          "internalType": "uint256[4]",
          "name": "",
          "type": "uint256[4]"
        }
      ],
      "stateMutability": "view",
      "type": "function"
    },
    {
      "inputs": [],
      "name": "getRegistry",
      "outputs": [
        {
          "internalType": "address[4]",
          "name": "",
          "type": "address[4]"
        }
      ],
      "stateMutability": "view",
      "type": "function"
    },
    {
      "inputs": [],
      "name": "getRoothash",
      "outputs": [
        {
          "internalType": "bytes32[4]",
          "name": "",
          "type": "bytes32[4]"
        }
      ],
      "stateMutability": "view",
      "type": "function"
    },
    {
      "inputs": [
        {
          "internalType": "uint256",
          "name": "",
          "type": "uint256"
        }
      ],
      "name": "helix2Registry",
      "outputs": [
        {
          "internalType": "address",
          "name": "",
          "type": "address"
        }
      ],
      "stateMutability": "view",
      "type": "function"
    },
    {
      "inputs": [
        {
          "internalType": "uint256",
          "name": "",
          "type": "uint256"
        }
      ],
      "name": "illegalBlocks",
      "outputs": [
        {
          "internalType": "string",
          "name": "",
          "type": "string"
        }
      ],
      "stateMutability": "view",
      "type": "function"
    },
    {
      "inputs": [
        {
          "internalType": "address",
          "name": "",
          "type": "address"
        },
        {
          "internalType": "address",
          "name": "",
          "type": "address"
        }
      ],
      "name": "isApprovedForAll",
      "outputs": [
        {
          "internalType": "bool",
          "name": "",
          "type": "bool"
        }
      ],
      "stateMutability": "view",
      "type": "function"
    },
    {
      "inputs": [],
      "name": "isDev",
      "outputs": [
        {
          "internalType": "address",
          "name": "",
          "type": "address"
        }
      ],
      "stateMutability": "view",
      "type": "function"
    },
    {
      "inputs": [],
      "name": "name",
      "outputs": [
        {
          "internalType": "string",
          "name": "",
          "type": "string"
        }
      ],
      "stateMutability": "view",
      "type": "function"
    },
    {
      "inputs": [
        {
          "internalType": "string",
          "name": "label",
          "type": "string"
        },
        {
          "internalType": "address",
          "name": "owner",
          "type": "address"
        },
        {
          "internalType": "uint256",
          "name": "lifespan",
          "type": "uint256"
        }
      ],
      "name": "newName",
      "outputs": [
        {
          "internalType": "bytes32",
          "name": "",
          "type": "bytes32"
        }
      ],
      "stateMutability": "payable",
      "type": "function"
    },
    {
      "inputs": [
        {
          "internalType": "uint256",
          "name": "tokenID",
          "type": "uint256"
        }
      ],
      "name": "ownerOf",
      "outputs": [
        {
          "internalType": "address",
          "name": "",
          "type": "address"
        }
      ],
      "stateMutability": "view",
      "type": "function"
    },
    {
      "inputs": [
        {
          "internalType": "uint256",
          "name": "",
          "type": "uint256"
        }
      ],
      "name": "prices",
      "outputs": [
        {
          "internalType": "uint256",
          "name": "",
          "type": "uint256"
        }
      ],
      "stateMutability": "view",
      "type": "function"
    },
    {
      "inputs": [
        {
          "internalType": "uint256",
          "name": "",
          "type": "uint256"
        }
      ],
      "name": "roothash",
      "outputs": [
        {
          "internalType": "bytes32",
          "name": "",
          "type": "bytes32"
        }
      ],
      "stateMutability": "view",
      "type": "function"
    },
    {
      "inputs": [
        {
          "internalType": "address",
          "name": "from",
          "type": "address"
        },
        {
          "internalType": "address",
          "name": "to",
          "type": "address"
        },
        {
          "internalType": "uint256",
          "name": "tokenID",
          "type": "uint256"
        }
      ],
      "name": "safeTransferFrom",
      "outputs": [],
      "stateMutability": "payable",
      "type": "function"
    },
    {
      "inputs": [
        {
          "internalType": "address",
          "name": "from",
          "type": "address"
        },
        {
          "internalType": "address",
          "name": "to",
          "type": "address"
        },
        {
          "internalType": "uint256",
          "name": "tokenID",
          "type": "uint256"
        },
        {
          "internalType": "bytes",
          "name": "data",
          "type": "bytes"
        }
      ],
      "name": "safeTransferFrom",
      "outputs": [],
      "stateMutability": "payable",
      "type": "function"
    },
    {
      "inputs": [
        {
          "internalType": "address",
          "name": "controller",
          "type": "address"
        },
        {
          "internalType": "bool",
          "name": "flag",
          "type": "bool"
        }
      ],
      "name": "setApprovalForAll",
      "outputs": [],
      "stateMutability": "payable",
      "type": "function"
    },
    {
      "inputs": [
        {
          "internalType": "uint256",
          "name": "_lifespan",
          "type": "uint256"
        }
      ],
      "name": "setDefaultLifespan",
      "outputs": [],
      "stateMutability": "nonpayable",
      "type": "function"
    },
    {
      "inputs": [
        {
          "internalType": "address",
          "name": "_resolver",
          "type": "address"
        }
      ],
      "name": "setDefaultResolver",
      "outputs": [],
      "stateMutability": "nonpayable",
      "type": "function"
    },
    {
      "inputs": [
        {
          "internalType": "bytes4",
          "name": "sig",
          "type": "bytes4"
        },
        {
          "internalType": "bool",
          "name": "value",
          "type": "bool"
        }
      ],
      "name": "setInterface",
      "outputs": [],
      "stateMutability": "payable",
      "type": "function"
    },
    {
      "inputs": [
        {
          "internalType": "uint256",
          "name": "",
          "type": "uint256"
        }
      ],
      "name": "sizes",
      "outputs": [
        {
          "internalType": "uint256",
          "name": "",
          "type": "uint256"
        }
      ],
      "stateMutability": "view",
      "type": "function"
    },
    {
      "inputs": [
        {
          "internalType": "bytes4",
          "name": "",
          "type": "bytes4"
        }
      ],
      "name": "supportsInterface",
      "outputs": [
        {
          "internalType": "bool",
          "name": "",
          "type": "bool"
        }
      ],
      "stateMutability": "view",
      "type": "function"
    },
    {
      "inputs": [],
      "name": "symbol",
      "outputs": [
        {
          "internalType": "string",
          "name": "",
          "type": "string"
        }
      ],
      "stateMutability": "view",
      "type": "function"
    },
    {
      "inputs": [
        {
          "internalType": "address",
          "name": "from",
          "type": "address"
        },
        {
          "internalType": "address",
          "name": "to",
          "type": "address"
        },
        {
          "internalType": "uint256",
          "name": "tokenID",
          "type": "uint256"
        }
      ],
      "name": "transferFrom",
      "outputs": [],
      "stateMutability": "payable",
      "type": "function"
    },
    {
      "inputs": [],
      "name": "withdrawEther",
      "outputs": [],
      "stateMutability": "payable",
      "type": "function"
    },
    {
      "inputs": [
        {
          "internalType": "address",
          "name": "token",
          "type": "address"
        }
      ],
      "name": "withdrawToken",
      "outputs": [],
      "stateMutability": "payable",
      "type": "function"
    },
    {
      "stateMutability": "payable",
      "type": "receive"
    }
  ],
  "bytecode": {
    "object": "0x6001610100818152601760f91b610120526080908152610140828152603f60f81b6101605260a052610180828152602160f81b6101a05260c0526102006040526101c0828152602360f81b6101e05260e0526200005f91906004620003e8565b5060408051608081018252602080825280820181905291810182905260608101919091526200009390600590600462000438565b5060408051608081018252600060a082018190527f6f010af653ebe3cb07d297a4ef13366103d392ceffa68dd48232e6e9ff2187bf60c0808401919091528351808403909101815260e0830184528051602091820120835283518082018390527f5f179612d7132c8ed24ba0e286d60d398c4aa1c234eb2274ca1bba47718e9d3181860152845180820386018152606091820186528051908301208285015284518083018490527f3275a893b2c93461554cf2a4dd7f413d56decdd6f3fdf0589dbb8bc4fd742386818701528551808203870181529082018652805190830120848601528451808301939093527face738c68088218d015fbdce138f062893d86818ac98932f7ce2907c5976fbde83860152845180840386018152928101909452815191012091810191909152620001d09060099060046200047c565b50600d80546001600160a01b0319166e0c2e074ec69a0dfb2997ba6c7d2e1e1790556040805160808101825260018152600260208201526003918101919091526004606082018190526200022791600e91620004ad565b506040805160808101825262030d408082526020820181905291810182905260608101919091526200025e906012906004620004f8565b506016805460ff19166001179055601c80546001600160a01b03191690556401cf7c5800601e556040805163bd9a548b60e01b8152905160009163bd9a548b9160048083019260809291908290030181865afa158015620002c3573d6000803e3d6000fd5b505050506040513d601f19601f82011682018060405250810190620002e99190620005c0565b51601f55348015620002fa57600080fd5b50604051620028b0380380620028b08339810160408190526200031d9162000645565b60008054601760209081527f4152fdd4960944ad2843ab0640e4bafb0ddf2caf06de54df701cf7a17df044aa8054600160ff1991821681179092557f6779f08d87897b1938d8ae1ed3d650e2616775c110ff5d98b7f82c079d97c7788054821683179055635b5e139f60e01b85527f244a57cf9422b23a74eac7556da7a02b4681eb0e2f9c3613963f0b44ad4388608054909116909117905580546001600160a01b03199081166001600160a01b0395909516949094179055821633928316179091179055620007d2565b826004810192821562000426579160200282015b8281111562000426578251829062000415908262000706565b5091602001919060010190620003fc565b506200043492915062000530565b5090565b82600481019282156200046e579160200282015b828111156200046e578251829060ff169055916020019190600101906200044c565b506200043492915062000551565b82600481019282156200046e579160200282015b828111156200046e57825182559160200191906001019062000490565b82600481019282156200046e579160200282015b828111156200046e57825182546001600160a01b0319166001600160a01b03909116178255602090920191600190910190620004c1565b82600481019282156200046e579160200282015b828111156200046e578251829062ffffff169055916020019190600101906200050c565b808211156200043457600062000547828262000568565b5060010162000530565b5b8082111562000434576000815560010162000552565b508054620005769062000677565b6000825580601f1062000587575050565b601f016020900490600052602060002090810190620005a7919062000551565b50565b634e487b7160e01b600052604160045260246000fd5b600060808284031215620005d357600080fd5b82601f830112620005e357600080fd5b604051608081016001600160401b0381118282101715620006085762000608620005aa565b6040528060808401858111156200061e57600080fd5b845b818110156200063a57805183526020928301920162000620565b509195945050505050565b6000602082840312156200065857600080fd5b81516001600160a01b03811681146200067057600080fd5b9392505050565b600181811c908216806200068c57607f821691505b602082108103620006ad57634e487b7160e01b600052602260045260246000fd5b50919050565b601f8211156200070157600081815260208120601f850160051c81016020861015620006dc5750805b601f850160051c820191505b81811015620006fd57828155600101620006e8565b5050505b505050565b81516001600160401b03811115620007225762000722620005aa565b6200073a8162000733845462000677565b84620006b3565b602080601f831160018114620007725760008415620007595750858301515b600019600386901b1c1916600185901b178555620006fd565b600085815260208120601f198616915b82811015620007a35788860151825594840194600190910190840162000782565b5085821015620007c25787850151600019600388901b60f8161c191681555b5050505050600190811b01905550565b6120ce80620007e26000396000f3fe6080604052600436106102535760003560e01c806380b29beb11610138578063b88d4fde116100b0578063c66485b21161007f578063d9a9b0c611610064578063d9a9b0c614610690578063e985e9c5146106b0578063f079914f146106eb57600080fd5b8063c66485b21461065a578063c7876ea41461067a57600080fd5b8063b88d4fde146105ff578063bc31c1c114610612578063bd9a548b14610632578063c0a43a7c1461064757600080fd5b80638dfcb1c71161010757806395d89b41116100ec57806395d89b4114610583578063a22cb465146105cc578063b782426e146105df57600080fd5b80638dfcb1c71461052d5780639024d2821461054d57600080fd5b806380b29beb146104ba578063828eab0e146104da57806388a8c95c146104fa578063894760691461051a57600080fd5b806342842e0e116101cb57806370a082311161019a5780637362377b1161017f5780637362377b1461047f5780637d73b231146104875780637f9348aa146104a757600080fd5b806370a082311461043f57806370dec5f01461045f57600080fd5b806342842e0e146103a85780635ab1bd53146103db5780636352211e146103fd578063642a8ed61461041d57600080fd5b806306fdde03116102225780630e6c0bdb116102075780630e6c0bdb1461038457806323b872dd146103a857806339506308146103bb57600080fd5b806306fdde0314610319578063095ea7b31461036f57600080fd5b806301e51ae81461026257806301ffc9a71461029f57806302fb0c5e146102df57806305e84aa0146102f957600080fd5b3661025d57600080fd5b600080fd5b34801561026e57600080fd5b50600054610282906001600160a01b031681565b6040516001600160a01b0390911681526020015b60405180910390f35b3480156102ab57600080fd5b506102cf6102ba366004611a36565b60176020526000908152604090205460ff1681565b6040519015158152602001610296565b3480156102eb57600080fd5b506016546102cf9060ff1681565b34801561030557600080fd5b50602054610282906001600160a01b031681565b34801561032557600080fd5b506103626040518060400160405280601381526020017f48656c697832204e616d6520536572766963650000000000000000000000000081525081565b6040516102969190611aaa565b61038261037d366004611ad9565b610709565b005b34801561039057600080fd5b5061039a601e5481565b604051908152602001610296565b6103826103b6366004611b03565b610832565b3480156103c757600080fd5b506103826103d6366004611b3f565b610852565b3480156103e757600080fd5b506103f06108b0565b6040516102969190611b58565b34801561040957600080fd5b50610282610418366004611b3f565b6108f5565b34801561042957600080fd5b50610432610975565b6040516102969190611b92565b34801561044b57600080fd5b5061039a61045a366004611bba565b6109b0565b34801561046b57600080fd5b5061028261047a366004611b3f565b610a24565b610382610a44565b34801561049357600080fd5b50600d54610282906001600160a01b031681565b61039a6104b5366004611c7a565b610aea565b3480156104c657600080fd5b506103626104d5366004611b3f565b6110e0565b3480156104e657600080fd5b50602154610282906001600160a01b031681565b34801561050657600080fd5b50610382610515366004611bba565b611180565b610382610528366004611bba565b61125a565b34801561053957600080fd5b5061039a610548366004611b3f565b611380565b34801561055957600080fd5b50610282610568366004611b3f565b601a602052600090815260409020546001600160a01b031681565b34801561058f57600080fd5b506103626040518060400160405280600381526020017f484e53000000000000000000000000000000000000000000000000000000000081525081565b6103826105da366004611ce3565b611397565b3480156105eb57600080fd5b50601c54610282906001600160a01b031681565b61038261060d366004611d1a565b611421565b34801561061e57600080fd5b5061039a61062d366004611b3f565b611433565b34801561063e57600080fd5b50610432611443565b610382610655366004611d96565b611479565b34801561066657600080fd5b50610382610675366004611bba565b6115a6565b34801561068657600080fd5b5061039a601f5481565b34801561069c57600080fd5b5061039a6106ab366004611b3f565b611639565b3480156106bc57600080fd5b506102cf6106cb366004611db4565b601b60209081526000928352604080842090915290825290205460ff1681565b3480156106f757600080fd5b506000546001600160a01b0316610282565b6000818152601860205260409020546001600160a01b03163314158061075c57506000818152601860209081526040808320546001600160a01b03168352601b825280832033845290915290205460ff16155b156107c157600081815260186020526040908190205490517f431ef6160000000000000000000000000000000000000000000000000000000081523360048201526001600160a01b039091166024820152604481018290526064015b60405180910390fd5b6000818152601a602052604080822080547fffffffffffffffffffffffff0000000000000000000000000000000000000000166001600160a01b0386169081179091559051839233917f8c5be1e5ebec7d5bd14f71427d1e84f3dd0314c0f7b2291e5b200ac8c7c3b9259190a45050565b61084d83838360405180602001604052806000815250611649565b505050565b6000546001600160a01b031633146108ab576000546040517f8ea458f60000000000000000000000000000000000000000000000000000000081526001600160a01b0390911660048201523360248201526044016107b8565b601e55565b6108b86119ea565b60408051608081019182905290600e9060049082845b81546001600160a01b031681526001909101906020018083116108ce575050505050905090565b6000818152601860205260408120546001600160a01b03166109595760405162461bcd60e51b815260206004820152600f60248201527f494e56414c49445f544f4b454e4944000000000000000000000000000000000060448201526064016107b8565b506000908152601860205260409020546001600160a01b031690565b61097d6119ea565b6040805160808101918290529060099060049082845b815481526020019060010190808311610993575050505050905090565b60006001600160a01b038216610a085760405162461bcd60e51b815260206004820152600c60248201527f5a45524f5f41444452455353000000000000000000000000000000000000000060448201526064016107b8565b506001600160a01b031660009081526019602052604090205490565b600e8160048110610a3457600080fd5b01546001600160a01b0316905081565b600080546040516001600160a01b039091169047908381818185875af1925050503d8060008114610a91576040519150601f19603f3d011682016040523d82523d6000602084013e610a96565b606091505b5050905080610ae75760405162461bcd60e51b815260206004820152601360248201527f4554485f5452414e534645525f4641494c45440000000000000000000000000060448201526064016107b8565b50565b6000836005820154815110610b415760405162461bcd60e51b815260206004820152600d60248201527f494c4c4547414c5f4c4142454c0000000000000000000000000000000000000060448201526064016107b8565b6040517f8572a5d300000000000000000000000000000000000000000000000000000000815273__$47e4ffaaf323c41735ff299f8946896ce0$__90638572a5d390610b94908490600190600401611e3a565b602060405180830381865af4158015610bb1573d6000803e3d6000fd5b505050506040513d601f19601f82011682018060405250810190610bd59190611f68565b15610c225760405162461bcd60e51b815260206004820152600d60248201527f494c4c4547414c5f43484152530000000000000000000000000000000000000060448201526064016107b8565b60205485906000906001600160a01b031663d2ec5fca600983015484604051602001610c4e9190611f85565b60405160208183030381529060405280519060200120604051602001610c7e929190918252602082015260400190565b604051602081830303815290604052805190602001206040518263ffffffff1660e01b8152600401610cb291815260200190565b602060405180830381865afa158015610ccf573d6000803e3d6000fd5b505050506040513d601f19601f82011682018060405250810190610cf39190611fa1565b9050428110610d445760405162461bcd60e51b815260206004820152600b60248201527f4e414d455f45584953545300000000000000000000000000000000000000000060448201526064016107b8565b601e54851015610d965760405162461bcd60e51b815260206004820152601260248201527f4c4946455350414e5f544f4f5f53484f5254000000000000000000000000000060448201526064016107b8565b84601f54610da49190611fe9565b341015610df35760405162461bcd60e51b815260206004820152601260248201527f494e53554646494349454e545f4554484552000000000000000000000000000060448201526064016107b8565b600087604051602001610e069190611f85565b60408051808303601f190181528282528051602091820120600954918401529082015260600160408051808303601f1901815290829052805160209182012090547f5b0fc9c3000000000000000000000000000000000000000000000000000000008352600483018290526001600160a01b038a811660248501529193501690635b0fc9c390604401600060405180830381600087803b158015610ea957600080fd5b505af1158015610ebd573d6000803e3d6000fd5b50506020546001600160a01b031691506339de6469905082610edf8942612026565b6040517fffffffff0000000000000000000000000000000000000000000000000000000060e085901b16815260048101929092526024820152604401600060405180830381600087803b158015610f3557600080fd5b505af1158015610f49573d6000803e3d6000fd5b50506020546040517fd3156905000000000000000000000000000000000000000000000000000000008152600481018590526001600160a01b038b81166024830152909116925063d31569059150604401600060405180830381600087803b158015610fb457600080fd5b505af1158015610fc8573d6000803e3d6000fd5b50506020546021546040517f1896f70a000000000000000000000000000000000000000000000000000000008152600481018690526001600160a01b03918216602482015291169250631896f70a9150604401600060405180830381600087803b15801561103557600080fd5b505af1158015611049573d6000803e3d6000fd5b505050600082815260186020908152604080832080547fffffffffffffffffffffffff0000000000000000000000000000000000000000166001600160a01b038d16908117909155808452601983529281902080546001019055519182528392507f78d6d6769df86b6a2c7c8cae6d315c13f042c135e9d38a0da87f76d46d81ece7910160405180910390a2979650505050505050565b600181600481106110f057600080fd5b0180549091506110ff90611de7565b80601f016020809104026020016040519081016040528092919081815260200182805461112b90611de7565b80156111785780601f1061114d57610100808354040283529160200191611178565b820191906000526020600020905b81548152906001019060200180831161115b57829003601f168201915b505050505081565b6000546001600160a01b031633146111d9576000546040517f8ea458f60000000000000000000000000000000000000000000000000000000081526001600160a01b0390911660048201523360248201526044016107b8565b600054604080516001600160a01b03928316815291831660208301527fdec101f106d4fc7c85791843e64b198248c822298e3ed7046231d33f7783d816910160405180910390a1600080547fffffffffffffffffffffffff0000000000000000000000000000000000000000166001600160a01b0392909216919091179055565b6000546040517f70a0823100000000000000000000000000000000000000000000000000000000815230600482018190526001600160a01b03848116936323b872dd9391169084906370a0823190602401602060405180830381865afa1580156112c8573d6000803e3d6000fd5b505050506040513d601f19601f820116820180604052508101906112ec9190611fa1565b6040517fffffffff0000000000000000000000000000000000000000000000000000000060e086901b1681526001600160a01b03938416600482015292909116602483015260448201526064016020604051808303816000875af1158015611358573d6000803e3d6000fd5b505050506040513d601f19601f8201168201806040525081019061137c9190611f68565b5050565b6009816004811061139057600080fd5b0154905081565b336000818152601b602090815260408083206001600160a01b0387168085529083529281902080547fffffffffffffffffffffffffffffffffffffffffffffffffffffffffffffff001686151590811790915590519081529192917f17307eab39ab6107e8899845ad3d59bd9653f200f220920489ca2b5937696c31910160405180910390a35050565b61142d84848484611649565b50505050565b6012816004811061139057600080fd5b61144b6119ea565b6040805160808101918290526012805482529091600490601360208501808311610993575050505050905090565b6000546001600160a01b031633146114d2576000546040517f8ea458f60000000000000000000000000000000000000000000000000000000081526001600160a01b0390911660048201523360248201526044016107b8565b7fffffffff0000000000000000000000000000000000000000000000000000000080831690036115445760405162461bcd60e51b815260206004820152601a60248201527f494e56414c49445f494e544552464143455f53454c4543544f5200000000000060448201526064016107b8565b7fffffffff0000000000000000000000000000000000000000000000000000000091909116600090815260176020526040902080547fffffffffffffffffffffffffffffffffffffffffffffffffffffffffffffff0016911515919091179055565b6000546001600160a01b031633146115ff576000546040517f8ea458f60000000000000000000000000000000000000000000000000000000081526001600160a01b0390911660048201523360248201526044016107b8565b602180547fffffffffffffffffffffffff0000000000000000000000000000000000000000166001600160a01b0392909216919091179055565b6005816004811061139057600080fd5b6001600160a01b038316611689576040517f5788079900000000000000000000000000000000000000000000000000000000815260040160405180910390fd5b6000828152601860205260409020546001600160a01b0385811691161461170757600082815260186020526040908190205490517f431ef6160000000000000000000000000000000000000000000000000000000081526001600160a01b0391821660048201529085166024820152604481018390526064016107b8565b6000828152601860205260409020546001600160a01b0316331480159061175257506001600160a01b0384166000908152601b6020908152604080832033845290915290205460ff16155b801561177557506000828152601a60205260409020546001600160a01b03163314155b156117c4576040517f431ef6160000000000000000000000000000000000000000000000000000000081523360048201526001600160a01b0385166024820152604481018390526064016107b8565b6000828152601a6020908152604080832080547fffffffffffffffffffffffff00000000000000000000000000000000000000009081169091556018835281842080546001600160a01b03898116919093168117909155908816808552601990935281842080547fffffffffffffffffffffffffffffffffffffffffffffffffffffffffffffffff01905580845281842080546001019055905185939192917fddf252ad1be2c89b69c2b068fc378daa952ba7f163c4a11628f55a4df523b3ef91a46001600160a01b0383163b1561142d576040517f150b7a020000000000000000000000000000000000000000000000000000000081526001600160a01b0384169063150b7a02906118e190339088908790879060040161203f565b6020604051808303816000875af192505050801561191c575060408051601f3d908101601f191682019092526119199181019061207b565b60015b61195d576040517f3a9f8cb30000000000000000000000000000000000000000000000000000000081526001600160a01b03841660048201526024016107b8565b7fffffffff0000000000000000000000000000000000000000000000000000000081167f150b7a0200000000000000000000000000000000000000000000000000000000146119e3576040517f3a9f8cb30000000000000000000000000000000000000000000000000000000081526001600160a01b03851660048201526024016107b8565b5050505050565b60405180608001604052806004906020820280368337509192915050565b7fffffffff0000000000000000000000000000000000000000000000000000000081168114610ae757600080fd5b600060208284031215611a4857600080fd5b8135611a5381611a08565b9392505050565b60005b83811015611a75578181015183820152602001611a5d565b50506000910152565b60008151808452611a96816020860160208601611a5a565b601f01601f19169290920160200192915050565b602081526000611a536020830184611a7e565b80356001600160a01b0381168114611ad457600080fd5b919050565b60008060408385031215611aec57600080fd5b611af583611abd565b946020939093013593505050565b600080600060608486031215611b1857600080fd5b611b2184611abd565b9250611b2f60208501611abd565b9150604084013590509250925092565b600060208284031215611b5157600080fd5b5035919050565b60808101818360005b6004811015611b895781516001600160a01b0316835260209283019290910190600101611b61565b50505092915050565b60808101818360005b6004811015611b89578151835260209283019290910190600101611b9b565b600060208284031215611bcc57600080fd5b611a5382611abd565b7f4e487b7100000000000000000000000000000000000000000000000000000000600052604160045260246000fd5b600067ffffffffffffffff80841115611c1f57611c1f611bd5565b604051601f8501601f19908116603f01168101908282118183101715611c4757611c47611bd5565b81604052809350858152868686011115611c6057600080fd5b858560208301376000602087830101525050509392505050565b600080600060608486031215611c8f57600080fd5b833567ffffffffffffffff811115611ca657600080fd5b8401601f81018613611cb757600080fd5b611cc686823560208401611c04565b935050611b2f60208501611abd565b8015158114610ae757600080fd5b60008060408385031215611cf657600080fd5b611cff83611abd565b91506020830135611d0f81611cd5565b809150509250929050565b60008060008060808587031215611d3057600080fd5b611d3985611abd565b9350611d4760208601611abd565b925060408501359150606085013567ffffffffffffffff811115611d6a57600080fd5b8501601f81018713611d7b57600080fd5b611d8a87823560208401611c04565b91505092959194509250565b60008060408385031215611da957600080fd5b8235611cff81611a08565b60008060408385031215611dc757600080fd5b611dd083611abd565b9150611dde60208401611abd565b90509250929050565b600181811c90821680611dfb57607f821691505b602082108103611e34577f4e487b7100000000000000000000000000000000000000000000000000000000600052602260045260246000fd5b50919050565b604081526000611e4d6040830185611a7e565b60208382038185015281829050608083018660005b6004808210611e715750611f5a565b86840385528254600090600181811c9080831680611e9057607f831692505b8a83108103611ec5577f4e487b7100000000000000000000000000000000000000000000000000000000855260228652602485fd5b828952602089019550808015611ee25760018114611f1657611f41565b7fffffffffffffffffffffffffffffffffffffffffffffffffffffffffffffff008516875283151560051b87019550611f41565b60008981526020902060005b85811015611f3b57815489820152908401908d01611f22565b88019650505b5050978901979296505050929092019150600101611e62565b509098975050505050505050565b600060208284031215611f7a57600080fd5b8151611a5381611cd5565b60008251611f97818460208701611a5a565b9190910192915050565b600060208284031215611fb357600080fd5b5051919050565b7f4e487b7100000000000000000000000000000000000000000000000000000000600052601160045260246000fd5b6000817fffffffffffffffffffffffffffffffffffffffffffffffffffffffffffffffff048311821515161561202157612021611fba565b500290565b8082018082111561203957612039611fba565b92915050565b60006001600160a01b038087168352808616602084015250836040830152608060608301526120716080830184611a7e565b9695505050505050565b60006020828403121561208d57600080fd5b8151611a5381611a0856fea264697066735822122033f3a8d6f156c7cfb81a747bd0b7e8347ef9dccd4c9bb31c5d815184eb6c9cdd64736f6c63430008100033",
    "linkReferences": {
      "src/Utils/LibString.sol": {
        "LibString": [
          {
            "start": 4939,
            "length": 20
          }
        ]
      }
    }
  },
  "methodIdentifiers": {
    "Dev()": "01e51ae8",
    "HELIX2()": "b782426e",
    "NAMES()": "05e84aa0",
    "_approved(uint256)": "9024d282",
    "active()": "02fb0c5e",
    "approve(address,uint256)": "095ea7b3",
    "balanceOf(address)": "70a08231",
    "basePrice()": "c7876ea4",
    "changeDev(address)": "88a8c95c",
    "defaultLifespan()": "0e6c0bdb",
    "defaultResolver()": "828eab0e",
    "ensRegistry()": "7d73b231",
    "getPrices()": "bd9a548b",
    "getRegistry()": "5ab1bd53",
    "getRoothash()": "642a8ed6",
    "helix2Registry(uint256)": "70dec5f0",
    "illegalBlocks(uint256)": "80b29beb",
    "isApprovedForAll(address,address)": "e985e9c5",
    "isDev()": "f079914f",
    "name()": "06fdde03",
    "newName(string,address,uint256)": "7f9348aa",
    "ownerOf(uint256)": "6352211e",
    "prices(uint256)": "bc31c1c1",
    "roothash(uint256)": "8dfcb1c7",
    "safeTransferFrom(address,address,uint256)": "42842e0e",
    "safeTransferFrom(address,address,uint256,bytes)": "b88d4fde",
    "setApprovalForAll(address,bool)": "a22cb465",
    "setDefaultLifespan(uint256)": "39506308",
    "setDefaultResolver(address)": "c66485b2",
    "setInterface(bytes4,bool)": "c0a43a7c",
    "sizes(uint256)": "d9a9b0c6",
    "supportsInterface(bytes4)": "01ffc9a7",
    "symbol()": "95d89b41",
    "transferFrom(address,address,uint256)": "23b872dd",
    "withdrawEther()": "7362377b",
    "withdrawToken(address)": "89476069"
  },
  "id": 27
}