{
  "abi": [
    {
      "inputs": [
        {
          "internalType": "address",
          "name": "_registry",
          "type": "address"
        }
      ],
      "stateMutability": "nonpayable",
      "type": "constructor"
    },
    {
      "anonymous": false,
      "inputs": [
        {
          "indexed": true,
          "internalType": "address",
          "name": "previousOwner",
          "type": "address"
        },
        {
          "indexed": true,
          "internalType": "address",
          "name": "newOwner",
          "type": "address"
        }
      ],
      "name": "OwnershipTransferred",
      "type": "event"
    },
    {
      "inputs": [],
      "name": "Dev",
      "outputs": [
        {
          "internalType": "address",
          "name": "",
          "type": "address"
        }
      ],
      "stateMutability": "view",
      "type": "function"
    },
    {
      "inputs": [
        {
          "internalType": "bytes32",
          "name": "",
          "type": "bytes32"
        }
      ],
      "name": "Polycules",
      "outputs": [
        {
          "internalType": "bytes32",
          "name": "_cation",
          "type": "bytes32"
        },
        {
          "internalType": "bytes32",
          "name": "_label",
          "type": "bytes32"
        },
        {
          "internalType": "address",
          "name": "_resolver",
          "type": "address"
        },
        {
          "internalType": "address",
          "name": "_controller",
          "type": "address"
        },
        {
          "internalType": "bool",
          "name": "_covalence",
          "type": "bool"
        },
        {
          "internalType": "uint256",
          "name": "_expiry",
          "type": "uint256"
        }
      ],
      "stateMutability": "view",
      "type": "function"
    },
    {
      "inputs": [],
      "name": "Registry",
      "outputs": [
        {
          "internalType": "address",
          "name": "",
          "type": "address"
        }
      ],
      "stateMutability": "view",
      "type": "function"
    },
    {
      "inputs": [],
      "name": "active",
      "outputs": [
        {
          "internalType": "bool",
          "name": "",
          "type": "bool"
        }
      ],
      "stateMutability": "view",
      "type": "function"
    },
    {
      "inputs": [
        {
          "internalType": "bytes32",
          "name": "polyhash",
          "type": "bytes32"
        },
        {
          "internalType": "bytes32",
          "name": "_anion",
          "type": "bytes32"
        },
        {
          "internalType": "address",
          "name": "config",
          "type": "address"
        },
        {
          "internalType": "uint8",
          "name": "rule",
          "type": "uint8"
        }
      ],
      "name": "addAnionWithConfig",
      "outputs": [],
      "stateMutability": "nonpayable",
      "type": "function"
    },
    {
      "inputs": [
        {
          "internalType": "bytes32",
          "name": "polyhash",
          "type": "bytes32"
        }
      ],
      "name": "anions",
      "outputs": [
        {
          "internalType": "bytes32[]",
          "name": "",
          "type": "bytes32[]"
        }
      ],
      "stateMutability": "view",
      "type": "function"
    },
    {
      "inputs": [
        {
          "internalType": "bytes32",
          "name": "polyhash",
          "type": "bytes32"
        }
      ],
      "name": "cation",
      "outputs": [
        {
          "internalType": "bytes32",
          "name": "",
          "type": "bytes32"
        }
      ],
      "stateMutability": "view",
      "type": "function"
    },
    {
      "inputs": [
        {
          "internalType": "bytes32",
          "name": "polyhash",
          "type": "bytes32"
        }
      ],
      "name": "controller",
      "outputs": [
        {
          "internalType": "address",
          "name": "",
          "type": "address"
        }
      ],
      "stateMutability": "view",
      "type": "function"
    },
    {
      "inputs": [
        {
          "internalType": "bytes32",
          "name": "polyhash",
          "type": "bytes32"
        }
      ],
      "name": "covalence",
      "outputs": [
        {
          "internalType": "bool",
          "name": "",
          "type": "bool"
        }
      ],
      "stateMutability": "view",
      "type": "function"
    },
    {
      "inputs": [
        {
          "internalType": "bytes32",
          "name": "polyhash",
          "type": "bytes32"
        }
      ],
      "name": "expiry",
      "outputs": [
        {
          "internalType": "uint256",
          "name": "",
          "type": "uint256"
        }
      ],
      "stateMutability": "view",
      "type": "function"
    },
    {
      "inputs": [
        {
          "internalType": "bytes32",
          "name": "_anion",
          "type": "bytes32"
        },
        {
          "internalType": "bytes32",
          "name": "polyhash",
          "type": "bytes32"
        },
        {
          "internalType": "address",
          "name": "config",
          "type": "address"
        },
        {
          "internalType": "uint8",
          "name": "rule",
          "type": "uint8"
        }
      ],
      "name": "hook",
      "outputs": [],
      "stateMutability": "nonpayable",
      "type": "function"
    },
    {
      "inputs": [
        {
          "internalType": "bytes32",
          "name": "polyhash",
          "type": "bytes32"
        }
      ],
      "name": "hooksWithRules",
      "outputs": [
        {
          "internalType": "uint8[]",
          "name": "_rules",
          "type": "uint8[]"
        },
        {
          "internalType": "address[]",
          "name": "_hooks",
          "type": "address[]"
        }
      ],
      "stateMutability": "view",
      "type": "function"
    },
    {
      "inputs": [
        {
          "internalType": "bytes32",
          "name": "polyhash",
          "type": "bytes32"
        }
      ],
      "name": "label",
      "outputs": [
        {
          "internalType": "bytes32",
          "name": "",
          "type": "bytes32"
        }
      ],
      "stateMutability": "view",
      "type": "function"
    },
    {
      "inputs": [],
      "name": "owner",
      "outputs": [
        {
          "internalType": "address",
          "name": "",
          "type": "address"
        }
      ],
      "stateMutability": "view",
      "type": "function"
    },
    {
      "inputs": [
        {
          "internalType": "bytes32",
          "name": "polyhash",
          "type": "bytes32"
        },
        {
          "internalType": "uint256",
          "name": "index",
          "type": "uint256"
        }
      ],
      "name": "popAnion",
      "outputs": [],
      "stateMutability": "nonpayable",
      "type": "function"
    },
    {
      "inputs": [
        {
          "internalType": "bytes32",
          "name": "polyhash",
          "type": "bytes32"
        }
      ],
      "name": "recordExists",
      "outputs": [
        {
          "internalType": "bool",
          "name": "",
          "type": "bool"
        }
      ],
      "stateMutability": "view",
      "type": "function"
    },
    {
      "inputs": [
        {
          "internalType": "bytes32",
          "name": "polyhash",
          "type": "bytes32"
        },
        {
          "internalType": "address",
          "name": "config",
          "type": "address"
        },
        {
          "internalType": "uint8",
          "name": "rule",
          "type": "uint8"
        }
      ],
      "name": "rehook",
      "outputs": [],
      "stateMutability": "nonpayable",
      "type": "function"
    },
    {
      "inputs": [
        {
          "internalType": "bytes32",
          "name": "polyhash",
          "type": "bytes32"
        }
      ],
      "name": "resolver",
      "outputs": [
        {
          "internalType": "address",
          "name": "",
          "type": "address"
        }
      ],
      "stateMutability": "view",
      "type": "function"
    },
    {
      "inputs": [
        {
          "internalType": "bytes32",
          "name": "polyhash",
          "type": "bytes32"
        },
        {
          "internalType": "bytes32",
          "name": "_cation",
          "type": "bytes32"
        }
      ],
      "name": "setCation",
      "outputs": [],
      "stateMutability": "nonpayable",
      "type": "function"
    },
    {
      "inputs": [
        {
          "internalType": "address",
          "name": "_registry",
          "type": "address"
        }
      ],
      "name": "setConfig",
      "outputs": [],
      "stateMutability": "nonpayable",
      "type": "function"
    },
    {
      "inputs": [
        {
          "internalType": "bytes32",
          "name": "polyhash",
          "type": "bytes32"
        },
        {
          "internalType": "address",
          "name": "_controller",
          "type": "address"
        }
      ],
      "name": "setController",
      "outputs": [],
      "stateMutability": "nonpayable",
      "type": "function"
    },
    {
      "inputs": [
        {
          "internalType": "bytes32",
          "name": "polyhash",
          "type": "bytes32"
        },
        {
          "internalType": "bool",
          "name": "_covalence",
          "type": "bool"
        }
      ],
      "name": "setCovalence",
      "outputs": [],
      "stateMutability": "nonpayable",
      "type": "function"
    },
    {
      "inputs": [
        {
          "internalType": "bytes32",
          "name": "polyhash",
          "type": "bytes32"
        },
        {
          "internalType": "uint256",
          "name": "_expiry",
          "type": "uint256"
        }
      ],
      "name": "setExpiry",
      "outputs": [],
      "stateMutability": "nonpayable",
      "type": "function"
    },
    {
      "inputs": [
        {
          "internalType": "bytes32",
          "name": "polyhash",
          "type": "bytes32"
        },
        {
          "internalType": "bytes32",
          "name": "_label",
          "type": "bytes32"
        }
      ],
      "name": "setLabel",
      "outputs": [],
      "stateMutability": "nonpayable",
      "type": "function"
    },
    {
      "inputs": [
        {
          "internalType": "bytes32",
          "name": "polyhash",
          "type": "bytes32"
        },
        {
          "internalType": "address",
          "name": "_resolver",
          "type": "address"
        }
      ],
      "name": "setResolver",
      "outputs": [],
      "stateMutability": "nonpayable",
      "type": "function"
    },
    {
      "inputs": [],
      "name": "toggleActive",
      "outputs": [],
      "stateMutability": "nonpayable",
      "type": "function"
    },
    {
      "inputs": [
        {
          "internalType": "address",
          "name": "newDev",
          "type": "address"
        }
      ],
      "name": "transferOwnership",
      "outputs": [],
      "stateMutability": "nonpayable",
      "type": "function"
    },
    {
      "inputs": [
        {
          "internalType": "bytes32",
          "name": "polyhash",
          "type": "bytes32"
        },
        {
          "internalType": "uint8",
          "name": "rule",
          "type": "uint8"
        },
        {
          "internalType": "uint256",
          "name": "index",
          "type": "uint256"
        }
      ],
      "name": "unhook",
      "outputs": [],
      "stateMutability": "nonpayable",
      "type": "function"
    },
    {
      "inputs": [
        {
          "internalType": "bytes32",
          "name": "polyhash",
          "type": "bytes32"
        }
      ],
      "name": "unhookAll",
      "outputs": [],
      "stateMutability": "nonpayable",
      "type": "function"
    }
  ],
  "bytecode": {
    "object": "0x60806040526001805460ff60a01b1916600160a01b17905534801561002357600080fd5b5060405161166038038061166083398101604081905261004291610070565b600180546001600160a01b039092166001600160a01b031992831617905560008054909116331790556100a0565b60006020828403121561008257600080fd5b81516001600160a01b038116811461009957600080fd5b9392505050565b6115b1806100af6000396000f3fe608060405234801561001057600080fd5b50600436106101cf5760003560e01c806375c4f68e11610104578063d07699aa116100a2578063deee4da911610071578063deee4da91461051d578063f2fde38b14610530578063f61ccd5314610543578063f79fe5381461056757600080fd5b8063d07699aa146104a8578063d2ec5fca146104bb578063d3156905146104de578063dbd4e021146104f157600080fd5b8063833fda08116100de578063833fda081461045e57806383669726146104715780638da5cb5b1461048457806390072f971461049557600080fd5b806375c4f68e146103915780637db9743b146104385780638146970a1461044b57600080fd5b806321ec2b5b1161017157806339de64691161014b57806339de6469146103385780634475bf4b1461034b578063622dad7f1461035e57806365edd5221461037e57600080fd5b806321ec2b5b146102df57806329c68dc1146102f257806334026859146102fa57600080fd5b80630aac6625116101ad5780630aac6625146102655780631896f70a146102865780631fc4859e1461029b57806320e3dbd4146102cc57600080fd5b80630178b8bf146101d457806301e51ae81461021d57806302fb0c5e14610230575b600080fd5b6102006101e2366004611251565b6000908152600260205260409020600501546001600160a01b031690565b6040516001600160a01b0390911681526020015b60405180910390f35b600054610200906001600160a01b031681565b6001546102559074010000000000000000000000000000000000000000900460ff1681565b6040519015158152602001610214565b610278610273366004611251565b61058c565b60405161021492919061126a565b61029961029436600461130d565b610701565b005b6102be6102a9366004611251565b60009081526002602052604090206004015490565b604051908152602001610214565b6102996102da366004611339565b610797565b6102996102ed366004611251565b61082b565b61029961095e565b610255610308366004611251565b60009081526002602052604090206006015474010000000000000000000000000000000000000000900460ff1690565b61029961034636600461135b565b610a05565b61029961035936600461138e565b610a62565b61037161036c366004611251565b610b45565b60405161021491906113d4565b61029961038c36600461138e565b610baa565b6103fc61039f366004611251565b600260208190526000918252604090912090810154600482015460058301546006840154600790940154929391926001600160a01b03918216929182169174010000000000000000000000000000000000000000900460ff169086565b6040805196875260208701959095526001600160a01b0393841694860194909452911660608401521515608083015260a082015260c001610214565b600154610200906001600160a01b031681565b61029961045936600461135b565b610c57565b61029961046c366004611418565b610cb6565b61029961047f36600461144d565b610db4565b6000546001600160a01b0316610200565b6102996104a336600461135b565b610e56565b6102996104b6366004611489565b610f9c565b6102be6104c9366004611251565b60009081526002602052604090206007015490565b6102996104ec36600461130d565b61103e565b6102006104ff366004611251565b6000908152600260205260409020600601546001600160a01b031690565b61029961052b36600461135b565b6110cf565b61029961053e366004611339565b61112c565b6102be610551366004611251565b6000908152600260208190526040909120015490565b610255610575366004611251565b600090815260026020526040902060070154421090565b600081815260026020908152604091829020805483518184028101840190945280845260609384939092919083018282801561060557602002820191906000526020600020906000905b825461010083900a900460ff168152602060019283018181049485019490930390920291018084116105d65790505b50505050509150815167ffffffffffffffff811115610626576106266114be565b60405190808252806020026020018201604052801561064f578160200160208202803683370190505b50905060005b82518110156106fb57600084815260026020526040812080546001820192919084908110610685576106856114ed565b600091825260208083208183040154601f9092166101000a90910460ff16835282019290925260400190205482516001600160a01b03909116908390839081106106d1576106d16114ed565b6001600160a01b0390921660209283029190910190910152806106f38161151c565b915050610655565b50915091565b6001546001600160a01b0316331461074e5760405162461bcd60e51b815260206004820152600b60248201526a1393d517d0531313d5d15160aa1b60448201526064015b60405180910390fd5b60009182526002602052604090912060050180547fffffffffffffffffffffffff0000000000000000000000000000000000000000166001600160a01b03909216919091179055565b6000546001600160a01b031633146107f15760405162461bcd60e51b815260206004820152600760248201527f4e4f545f444556000000000000000000000000000000000000000000000000006044820152606401610745565b600180547fffffffffffffffffffffffff0000000000000000000000000000000000000000166001600160a01b0392909216919091179055565b6001546001600160a01b031633146108735760405162461bcd60e51b815260206004820152600b60248201526a1393d517d0531313d5d15160aa1b6044820152606401610745565b60005b600082815260026020526040902054811015610926576000828152600260205260408120805460018201918391859081106108b3576108b36114ed565b600091825260208083208183040154601f9092166101000a90910460ff168352820192909252604001902080547fffffffffffffffffffffffff0000000000000000000000000000000000000000166001600160a01b03929092169190911790558061091e8161151c565b915050610876565b50600081815260026020526040812061093e916111f9565b600081815260026020526040812061095b9160039091019061121e565b50565b6000546001600160a01b031633146109b85760405162461bcd60e51b815260206004820152600760248201527f4e4f545f444556000000000000000000000000000000000000000000000000006044820152606401610745565b600180547fffffffffffffffffffffff00ffffffffffffffffffffffffffffffffffffffff8116740100000000000000000000000000000000000000009182900460ff1615909102179055565b6001546001600160a01b03163314610a4d5760405162461bcd60e51b815260206004820152600b60248201526a1393d517d0531313d5d15160aa1b6044820152606401610745565b60009182526002602052604090912060070155565b6001546001600160a01b03163314610aaa5760405162461bcd60e51b815260206004820152600b60248201526a1393d517d0531313d5d15160aa1b6044820152606401610745565b600092835260026020818152604080862080546001818101835582895284892085830401805460ff988916601f9094166101000a84810299021916979097179096558752848101835290862080546001600160a01b039096167fffffffffffffffffffffffff000000000000000000000000000000000000000090961695909517909455908152600390920180549182018155835291200155565b600081815260026020908152604091829020600301805483518184028101840190945280845260609392830182828015610b9e57602002820191906000526020600020905b815481526020019060010190808311610b8a575b50505050509050919050565b6001546001600160a01b03163314610bf25760405162461bcd60e51b815260206004820152600b60248201526a1393d517d0531313d5d15160aa1b6044820152606401610745565b600093845260026020908152604085206003810180546001818101835591885283882001959095558054808601825581875282872083820401805460ff958616601f9093166101000a8381029602191694909417909355919094529190910190915250565b6001546001600160a01b03163314610c9f5760405162461bcd60e51b815260206004820152600b60248201526a1393d517d0531313d5d15160aa1b6044820152606401610745565b600091825260026020819052604090922090910155565b6001546001600160a01b03163314610cfe5760405162461bcd60e51b815260206004820152600b60248201526a1393d517d0531313d5d15160aa1b6044820152606401610745565b600083815260026020818152604080842060ff8716855260018101835290842080547fffffffffffffffffffffffff00000000000000000000000000000000000000001690559286905252805482908110610d5b57610d5b6114ed565b90600052602060002090602091828204019190066101000a81549060ff0219169055600260008481526020019081526020016000206003018181548110610da457610da46114ed565b6000918252602082200155505050565b6001546001600160a01b03163314610dfc5760405162461bcd60e51b815260206004820152600b60248201526a1393d517d0531313d5d15160aa1b6044820152606401610745565b600092835260026020908152604080852060ff9390931685526001909201905290912080547fffffffffffffffffffffffff0000000000000000000000000000000000000000166001600160a01b03909216919091179055565b6001546001600160a01b03163314610e9e5760405162461bcd60e51b815260206004820152600b60248201526a1393d517d0531313d5d15160aa1b6044820152606401610745565b600082815260026020526040812080546001820191839185908110610ec557610ec56114ed565b600091825260208083208183040154601f9092166101000a90910460ff168352828101939093526040918201812080547fffffffffffffffffffffffff0000000000000000000000000000000000000000166001600160a01b03959095169490941790935584835260029091529020600301805482908110610f4957610f496114ed565b600091825260208083209091018290558382526002905260409020805482908110610f7657610f766114ed565b90600052602060002090602091828204019190066101000a81549060ff02191690555050565b6001546001600160a01b03163314610fe45760405162461bcd60e51b815260206004820152600b60248201526a1393d517d0531313d5d15160aa1b6044820152606401610745565b600091825260026020526040909120600601805491151574010000000000000000000000000000000000000000027fffffffffffffffffffffff00ffffffffffffffffffffffffffffffffffffffff909216919091179055565b6001546001600160a01b031633146110865760405162461bcd60e51b815260206004820152600b60248201526a1393d517d0531313d5d15160aa1b6044820152606401610745565b60009182526002602052604090912060060180547fffffffffffffffffffffffff0000000000000000000000000000000000000000166001600160a01b03909216919091179055565b6001546001600160a01b031633146111175760405162461bcd60e51b815260206004820152600b60248201526a1393d517d0531313d5d15160aa1b6044820152606401610745565b60009182526002602052604090912060040155565b6000546001600160a01b031633146111865760405162461bcd60e51b815260206004820152600760248201527f4e4f545f444556000000000000000000000000000000000000000000000000006044820152606401610745565b600080546040516001600160a01b03808516939216917f8be0079c531659141344cd1fd0a4f28419497f9722a3daafe3b4186f6b6457e091a3600080547fffffffffffffffffffffffff0000000000000000000000000000000000000000166001600160a01b0392909216919091179055565b50805460008255601f01602090049060005260206000209081019061095b9190611238565b508054600082559060005260206000209081019061095b91905b5b8082111561124d5760008155600101611239565b5090565b60006020828403121561126357600080fd5b5035919050565b604080825283519082018190526000906020906060840190828701845b828110156112a657815160ff1684529284019290840190600101611287565b5050508381038285015284518082528583019183019060005b818110156112e45783516001600160a01b0316835292840192918401916001016112bf565b5090979650505050505050565b80356001600160a01b038116811461130857600080fd5b919050565b6000806040838503121561132057600080fd5b82359150611330602084016112f1565b90509250929050565b60006020828403121561134b57600080fd5b611354826112f1565b9392505050565b6000806040838503121561136e57600080fd5b50508035926020909101359150565b803560ff8116811461130857600080fd5b600080600080608085870312156113a457600080fd5b84359350602085013592506113bb604086016112f1565b91506113c96060860161137d565b905092959194509250565b6020808252825182820181905260009190848201906040850190845b8181101561140c578351835292840192918401916001016113f0565b50909695505050505050565b60008060006060848603121561142d57600080fd5b8335925061143d6020850161137d565b9150604084013590509250925092565b60008060006060848603121561146257600080fd5b83359250611472602085016112f1565b91506114806040850161137d565b90509250925092565b6000806040838503121561149c57600080fd5b82359150602083013580151581146114b357600080fd5b809150509250929050565b7f4e487b7100000000000000000000000000000000000000000000000000000000600052604160045260246000fd5b7f4e487b7100000000000000000000000000000000000000000000000000000000600052603260045260246000fd5b60007fffffffffffffffffffffffffffffffffffffffffffffffffffffffffffffffff8203611574577f4e487b7100000000000000000000000000000000000000000000000000000000600052601160045260246000fd5b506001019056fea264697066735822122083b488d559cf3db7939021cd65af1999c417a134228af394dad77e1a09c18e1b64736f6c63430008100033",
    "linkReferences": {}
  },
  "methodIdentifiers": {
    "Dev()": "01e51ae8",
    "Polycules(bytes32)": "75c4f68e",
    "Registry()": "7db9743b",
    "active()": "02fb0c5e",
    "addAnionWithConfig(bytes32,bytes32,address,uint8)": "65edd522",
    "anions(bytes32)": "622dad7f",
    "cation(bytes32)": "f61ccd53",
    "controller(bytes32)": "dbd4e021",
    "covalence(bytes32)": "34026859",
    "expiry(bytes32)": "d2ec5fca",
    "hook(bytes32,bytes32,address,uint8)": "4475bf4b",
    "hooksWithRules(bytes32)": "0aac6625",
    "label(bytes32)": "1fc4859e",
    "owner()": "8da5cb5b",
    "popAnion(bytes32,uint256)": "90072f97",
    "recordExists(bytes32)": "f79fe538",
    "rehook(bytes32,address,uint8)": "83669726",
    "resolver(bytes32)": "0178b8bf",
    "setCation(bytes32,bytes32)": "8146970a",
    "setConfig(address)": "20e3dbd4",
    "setController(bytes32,address)": "d3156905",
    "setCovalence(bytes32,bool)": "d07699aa",
    "setExpiry(bytes32,uint256)": "39de6469",
    "setLabel(bytes32,bytes32)": "deee4da9",
    "setResolver(bytes32,address)": "1896f70a",
    "toggleActive()": "29c68dc1",
    "transferOwnership(address)": "f2fde38b",
    "unhook(bytes32,uint8,uint256)": "833fda08",
    "unhookAll(bytes32)": "21ec2b5b"
  },
  "id": 48
}