{
  "abi": [
    {
      "inputs": [
        {
          "internalType": "address",
          "name": "_registry",
          "type": "address"
        }
      ],
      "stateMutability": "nonpayable",
      "type": "constructor"
    },
    {
      "anonymous": false,
      "inputs": [
        {
          "indexed": true,
          "internalType": "address",
          "name": "previousOwner",
          "type": "address"
        },
        {
          "indexed": true,
          "internalType": "address",
          "name": "newOwner",
          "type": "address"
        }
      ],
      "name": "OwnershipTransferred",
      "type": "event"
    },
    {
      "inputs": [],
      "name": "Dev",
      "outputs": [
        {
          "internalType": "address",
          "name": "",
          "type": "address"
        }
      ],
      "stateMutability": "view",
      "type": "function"
    },
    {
      "inputs": [
        {
          "internalType": "bytes32",
          "name": "",
          "type": "bytes32"
        }
      ],
      "name": "Polycules",
      "outputs": [
        {
          "internalType": "bytes32",
          "name": "_cation",
          "type": "bytes32"
        },
        {
          "internalType": "bytes32",
          "name": "_label",
          "type": "bytes32"
        },
        {
          "internalType": "address",
          "name": "_resolver",
          "type": "address"
        },
        {
          "internalType": "address",
          "name": "_controller",
          "type": "address"
        },
        {
          "internalType": "bool",
          "name": "_covalence",
          "type": "bool"
        },
        {
          "internalType": "uint256",
          "name": "_expiry",
          "type": "uint256"
        }
      ],
      "stateMutability": "view",
      "type": "function"
    },
    {
      "inputs": [],
      "name": "Registry",
      "outputs": [
        {
          "internalType": "address",
          "name": "",
          "type": "address"
        }
      ],
      "stateMutability": "view",
      "type": "function"
    },
    {
      "inputs": [],
      "name": "active",
      "outputs": [
        {
          "internalType": "bool",
          "name": "",
          "type": "bool"
        }
      ],
      "stateMutability": "view",
      "type": "function"
    },
    {
      "inputs": [
        {
          "internalType": "bytes32",
          "name": "polyhash",
          "type": "bytes32"
        },
        {
          "internalType": "bytes32",
          "name": "_anion",
          "type": "bytes32"
        },
        {
          "internalType": "address",
          "name": "config",
          "type": "address"
        },
        {
          "internalType": "uint8",
          "name": "rule",
          "type": "uint8"
        }
      ],
      "name": "addAnionWithConfig",
      "outputs": [],
      "stateMutability": "nonpayable",
      "type": "function"
    },
    {
      "inputs": [
        {
          "internalType": "bytes32",
          "name": "polyhash",
          "type": "bytes32"
        }
      ],
      "name": "anions",
      "outputs": [
        {
          "internalType": "bytes32[]",
          "name": "",
          "type": "bytes32[]"
        }
      ],
      "stateMutability": "view",
      "type": "function"
    },
    {
      "inputs": [
        {
          "internalType": "bytes32",
          "name": "polyhash",
          "type": "bytes32"
        }
      ],
      "name": "cation",
      "outputs": [
        {
          "internalType": "bytes32",
          "name": "",
          "type": "bytes32"
        }
      ],
      "stateMutability": "view",
      "type": "function"
    },
    {
      "inputs": [
        {
          "internalType": "bytes32",
          "name": "polyhash",
          "type": "bytes32"
        }
      ],
      "name": "controller",
      "outputs": [
        {
          "internalType": "address",
          "name": "",
          "type": "address"
        }
      ],
      "stateMutability": "view",
      "type": "function"
    },
    {
      "inputs": [
        {
          "internalType": "bytes32",
          "name": "polyhash",
          "type": "bytes32"
        }
      ],
      "name": "covalence",
      "outputs": [
        {
          "internalType": "bool",
          "name": "",
          "type": "bool"
        }
      ],
      "stateMutability": "view",
      "type": "function"
    },
    {
      "inputs": [
        {
          "internalType": "bytes32",
          "name": "polyhash",
          "type": "bytes32"
        }
      ],
      "name": "expiry",
      "outputs": [
        {
          "internalType": "uint256",
          "name": "",
          "type": "uint256"
        }
      ],
      "stateMutability": "view",
      "type": "function"
    },
    {
      "inputs": [
        {
          "internalType": "bytes32",
          "name": "_anion",
          "type": "bytes32"
        },
        {
          "internalType": "bytes32",
          "name": "polyhash",
          "type": "bytes32"
        },
        {
          "internalType": "address",
          "name": "config",
          "type": "address"
        },
        {
          "internalType": "uint8",
          "name": "rule",
          "type": "uint8"
        }
      ],
      "name": "hook",
      "outputs": [],
      "stateMutability": "nonpayable",
      "type": "function"
    },
    {
      "inputs": [
        {
          "internalType": "bytes32",
          "name": "polyhash",
          "type": "bytes32"
        }
      ],
      "name": "hooks",
      "outputs": [
        {
          "internalType": "address[]",
          "name": "",
          "type": "address[]"
        }
      ],
      "stateMutability": "view",
      "type": "function"
    },
    {
      "inputs": [
        {
          "internalType": "bytes32",
          "name": "polyhash",
          "type": "bytes32"
        }
      ],
      "name": "hooksWithRules",
      "outputs": [
        {
          "internalType": "uint8[]",
          "name": "_rules",
          "type": "uint8[]"
        },
        {
          "internalType": "address[]",
          "name": "_hooks",
          "type": "address[]"
        }
      ],
      "stateMutability": "view",
      "type": "function"
    },
    {
      "inputs": [
        {
          "internalType": "bytes32",
          "name": "polyhash",
          "type": "bytes32"
        }
      ],
      "name": "label",
      "outputs": [
        {
          "internalType": "bytes32",
          "name": "",
          "type": "bytes32"
        }
      ],
      "stateMutability": "view",
      "type": "function"
    },
    {
      "inputs": [],
      "name": "owner",
      "outputs": [
        {
          "internalType": "address",
          "name": "",
          "type": "address"
        }
      ],
      "stateMutability": "view",
      "type": "function"
    },
    {
      "inputs": [
        {
          "internalType": "bytes32",
          "name": "polyhash",
          "type": "bytes32"
        },
        {
          "internalType": "uint256",
          "name": "index",
          "type": "uint256"
        }
      ],
      "name": "popAnion",
      "outputs": [],
      "stateMutability": "nonpayable",
      "type": "function"
    },
    {
      "inputs": [
        {
          "internalType": "bytes32",
          "name": "polyhash",
          "type": "bytes32"
        }
      ],
      "name": "recordExists",
      "outputs": [
        {
          "internalType": "bool",
          "name": "",
          "type": "bool"
        }
      ],
      "stateMutability": "view",
      "type": "function"
    },
    {
      "inputs": [
        {
          "internalType": "bytes32",
          "name": "polyhash",
          "type": "bytes32"
        },
        {
          "internalType": "address",
          "name": "config",
          "type": "address"
        },
        {
          "internalType": "uint8",
          "name": "rule",
          "type": "uint8"
        }
      ],
      "name": "rehook",
      "outputs": [],
      "stateMutability": "nonpayable",
      "type": "function"
    },
    {
      "inputs": [
        {
          "internalType": "bytes32",
          "name": "polyhash",
          "type": "bytes32"
        },
        {
          "internalType": "uint8",
          "name": "rule",
          "type": "uint8"
        },
        {
          "internalType": "uint256",
          "name": "index",
          "type": "uint256"
        }
      ],
      "name": "rehook",
      "outputs": [],
      "stateMutability": "nonpayable",
      "type": "function"
    },
    {
      "inputs": [
        {
          "internalType": "bytes32",
          "name": "polyhash",
          "type": "bytes32"
        }
      ],
      "name": "resolver",
      "outputs": [
        {
          "internalType": "address",
          "name": "",
          "type": "address"
        }
      ],
      "stateMutability": "view",
      "type": "function"
    },
    {
      "inputs": [
        {
          "internalType": "bytes32",
          "name": "polyhash",
          "type": "bytes32"
        }
      ],
      "name": "rules",
      "outputs": [
        {
          "internalType": "uint8[]",
          "name": "",
          "type": "uint8[]"
        }
      ],
      "stateMutability": "view",
      "type": "function"
    },
    {
      "inputs": [
        {
          "internalType": "bytes32",
          "name": "polyhash",
          "type": "bytes32"
        },
        {
          "internalType": "bytes32",
          "name": "_cation",
          "type": "bytes32"
        }
      ],
      "name": "setCation",
      "outputs": [],
      "stateMutability": "nonpayable",
      "type": "function"
    },
    {
      "inputs": [
        {
          "internalType": "address",
          "name": "_registry",
          "type": "address"
        }
      ],
      "name": "setConfig",
      "outputs": [],
      "stateMutability": "nonpayable",
      "type": "function"
    },
    {
      "inputs": [
        {
          "internalType": "bytes32",
          "name": "polyhash",
          "type": "bytes32"
        },
        {
          "internalType": "address",
          "name": "_controller",
          "type": "address"
        }
      ],
      "name": "setController",
      "outputs": [],
      "stateMutability": "nonpayable",
      "type": "function"
    },
    {
      "inputs": [
        {
          "internalType": "bytes32",
          "name": "polyhash",
          "type": "bytes32"
        },
        {
          "internalType": "bool",
          "name": "_covalence",
          "type": "bool"
        }
      ],
      "name": "setCovalence",
      "outputs": [],
      "stateMutability": "nonpayable",
      "type": "function"
    },
    {
      "inputs": [
        {
          "internalType": "bytes32",
          "name": "polyhash",
          "type": "bytes32"
        },
        {
          "internalType": "uint256",
          "name": "_expiry",
          "type": "uint256"
        }
      ],
      "name": "setExpiry",
      "outputs": [],
      "stateMutability": "nonpayable",
      "type": "function"
    },
    {
      "inputs": [
        {
          "internalType": "bytes32",
          "name": "polyhash",
          "type": "bytes32"
        },
        {
          "internalType": "bytes32",
          "name": "_label",
          "type": "bytes32"
        }
      ],
      "name": "setLabel",
      "outputs": [],
      "stateMutability": "nonpayable",
      "type": "function"
    },
    {
      "inputs": [
        {
          "internalType": "bytes32",
          "name": "polyhash",
          "type": "bytes32"
        },
        {
          "internalType": "address",
          "name": "_resolver",
          "type": "address"
        }
      ],
      "name": "setRecord",
      "outputs": [],
      "stateMutability": "nonpayable",
      "type": "function"
    },
    {
      "inputs": [
        {
          "internalType": "bytes32",
          "name": "polyhash",
          "type": "bytes32"
        },
        {
          "internalType": "address",
          "name": "_resolver",
          "type": "address"
        }
      ],
      "name": "setResolver",
      "outputs": [],
      "stateMutability": "nonpayable",
      "type": "function"
    },
    {
      "inputs": [],
      "name": "toggleActive",
      "outputs": [],
      "stateMutability": "nonpayable",
      "type": "function"
    },
    {
      "inputs": [
        {
          "internalType": "address",
          "name": "newDev",
          "type": "address"
        }
      ],
      "name": "transferOwnership",
      "outputs": [],
      "stateMutability": "nonpayable",
      "type": "function"
    },
    {
      "inputs": [
        {
          "internalType": "bytes32",
          "name": "polyhash",
          "type": "bytes32"
        },
        {
          "internalType": "uint8",
          "name": "rule",
          "type": "uint8"
        },
        {
          "internalType": "uint256",
          "name": "index",
          "type": "uint256"
        }
      ],
      "name": "unhook",
      "outputs": [],
      "stateMutability": "nonpayable",
      "type": "function"
    },
    {
      "inputs": [
        {
          "internalType": "bytes32",
          "name": "polyhash",
          "type": "bytes32"
        }
      ],
      "name": "unhookAll",
      "outputs": [],
      "stateMutability": "nonpayable",
      "type": "function"
    }
  ],
  "bytecode": {
    "object": "0x60806040526001805460ff60a01b1916600160a01b17905534801561002357600080fd5b5060405161195338038061195383398101604081905261004291610070565b600180546001600160a01b039092166001600160a01b031992831617905560008054909116331790556100a0565b60006020828403121561008257600080fd5b81516001600160a01b038116811461009957600080fd5b9392505050565b6118a4806100af6000396000f3fe608060405234801561001057600080fd5b506004361061020b5760003560e01c80637cf096c31161012a578063d07699aa116100bd578063dbd4e0211161008c578063f2fde38b11610071578063f2fde38b146105bf578063f61ccd53146105d2578063f79fe538146105f657600080fd5b8063dbd4e02114610580578063deee4da9146105ac57600080fd5b8063d07699aa14610537578063d2ec5fca1461054a578063d31569051461056d578063d9b76ed4146102c257600080fd5b806383669726116100f957806383669726146104ed57806383d999a7146105005780638da5cb5b1461051357806390072f971461052457600080fd5b80637cf096c3146104945780637db9743b146104b45780638146970a146104c7578063833fda08146104da57600080fd5b806321ec2b5b116101a25780634475bf4b116101715780634475bf4b146103a7578063622dad7f146103ba57806365edd522146103da57806375c4f68e146103ed57600080fd5b806321ec2b5b1461033b57806329c68dc11461034e578063340268591461035657806339de64691461039457600080fd5b80631896f70a116101de5780631896f70a146102c25780631fc4859e146102d757806320e3dbd414610308578063216b85771461031b57600080fd5b80630178b8bf1461021057806301e51ae81461025957806302fb0c5e1461026c5780630aac6625146102a1575b600080fd5b61023c61021e366004611500565b6000908152600260205260409020600501546001600160a01b031690565b6040516001600160a01b0390911681526020015b60405180910390f35b60005461023c906001600160a01b031681565b6001546102919074010000000000000000000000000000000000000000900460ff1681565b6040519015158152602001610250565b6102b46102af366004611500565b61061b565b604051610250929190611590565b6102d56102d03660046115da565b610790565b005b6102fa6102e5366004611500565b60009081526002602052604090206004015490565b604051908152602001610250565b6102d5610316366004611606565b610826565b61032e610329366004611500565b6108ba565b6040516102509190611628565b6102d5610349366004611500565b61093a565b6102d5610a6d565b610291610364366004611500565b60009081526002602052604090206006015474010000000000000000000000000000000000000000900460ff1690565b6102d56103a236600461163b565b610b14565b6102d56103b536600461166e565b610b71565b6103cd6103c8366004611500565b610c54565b60405161025091906116b4565b6102d56103e836600461166e565b610cb8565b6104586103fb366004611500565b600260208190526000918252604090912090810154600482015460058301546006840154600790940154929391926001600160a01b03918216929182169174010000000000000000000000000000000000000000900460ff169086565b6040805196875260208701959095526001600160a01b0393841694860194909452911660608401521515608083015260a082015260c001610250565b6104a76104a2366004611500565b610d65565b60405161025091906116f8565b60015461023c906001600160a01b031681565b6102d56104d536600461163b565b610e6c565b6102d56104e836600461170b565b610ecb565b6102d56104fb366004611740565b610fc9565b6102d561050e36600461170b565b61106b565b6000546001600160a01b031661023c565b6102d561053236600461163b565b611105565b6102d561054536600461177c565b61124b565b6102fa610558366004611500565b60009081526002602052604090206007015490565b6102d561057b3660046115da565b6112ed565b61023c61058e366004611500565b6000908152600260205260409020600601546001600160a01b031690565b6102d56105ba36600461163b565b61137e565b6102d56105cd366004611606565b6113db565b6102fa6105e0366004611500565b6000908152600260208190526040909120015490565b610291610604366004611500565b600090815260026020526040902060070154421090565b600081815260026020908152604091829020805483518184028101840190945280845260609384939092919083018282801561069457602002820191906000526020600020906000905b825461010083900a900460ff168152602060019283018181049485019490930390920291018084116106655790505b50505050509150815167ffffffffffffffff8111156106b5576106b56117b1565b6040519080825280602002602001820160405280156106de578160200160208202803683370190505b50905060005b825181101561078a57600084815260026020526040812080546001820192919084908110610714576107146117e0565b600091825260208083208183040154601f9092166101000a90910460ff16835282019290925260400190205482516001600160a01b0390911690839083908110610760576107606117e0565b6001600160a01b0390921660209283029190910190910152806107828161180f565b9150506106e4565b50915091565b6001546001600160a01b031633146107dd5760405162461bcd60e51b815260206004820152600b60248201526a1393d517d0531313d5d15160aa1b60448201526064015b60405180910390fd5b60009182526002602052604090912060050180547fffffffffffffffffffffffff0000000000000000000000000000000000000000166001600160a01b03909216919091179055565b6000546001600160a01b031633146108805760405162461bcd60e51b815260206004820152600760248201527f4e4f545f4445560000000000000000000000000000000000000000000000000060448201526064016107d4565b600180547fffffffffffffffffffffffff0000000000000000000000000000000000000000166001600160a01b0392909216919091179055565b60008181526002602090815260409182902080548351818402810184019094528084526060939283018282801561092e57602002820191906000526020600020906000905b825461010083900a900460ff168152602060019283018181049485019490930390920291018084116108ff5790505b50505050509050919050565b6001546001600160a01b031633146109825760405162461bcd60e51b815260206004820152600b60248201526a1393d517d0531313d5d15160aa1b60448201526064016107d4565b60005b600082815260026020526040902054811015610a35576000828152600260205260408120805460018201918391859081106109c2576109c26117e0565b600091825260208083208183040154601f9092166101000a90910460ff168352820192909252604001902080547fffffffffffffffffffffffff0000000000000000000000000000000000000000166001600160a01b039290921691909117905580610a2d8161180f565b915050610985565b506000818152600260205260408120610a4d916114a8565b6000818152600260205260408120610a6a916003909101906114cd565b50565b6000546001600160a01b03163314610ac75760405162461bcd60e51b815260206004820152600760248201527f4e4f545f4445560000000000000000000000000000000000000000000000000060448201526064016107d4565b600180547fffffffffffffffffffffff00ffffffffffffffffffffffffffffffffffffffff8116740100000000000000000000000000000000000000009182900460ff1615909102179055565b6001546001600160a01b03163314610b5c5760405162461bcd60e51b815260206004820152600b60248201526a1393d517d0531313d5d15160aa1b60448201526064016107d4565b60009182526002602052604090912060070155565b6001546001600160a01b03163314610bb95760405162461bcd60e51b815260206004820152600b60248201526a1393d517d0531313d5d15160aa1b60448201526064016107d4565b600092835260026020818152604080862080546001818101835582895284892085830401805460ff988916601f9094166101000a84810299021916979097179096558752848101835290862080546001600160a01b039096167fffffffffffffffffffffffff000000000000000000000000000000000000000090961695909517909455908152600390920180549182018155835291200155565b60008181526002602090815260409182902060030180548351818402810184019094528084526060939283018282801561092e57602002820191906000526020600020905b815481526020019060010190808311610c995750505050509050919050565b6001546001600160a01b03163314610d005760405162461bcd60e51b815260206004820152600b60248201526a1393d517d0531313d5d15160aa1b60448201526064016107d4565b600093845260026020908152604085206003810180546001818101835591885283882001959095558054808601825581875282872083820401805460ff958616601f9093166101000a8381029602191694909417909355919094529190910190915250565b6000818152600260205260408120546060918167ffffffffffffffff811115610d9057610d906117b1565b604051908082528060200260200182016040528015610db9578160200160208202803683370190505b50905060005b82811015610e6457600085815260026020526040812080546001820192919084908110610dee57610dee6117e0565b600091825260208083208183040154601f9092166101000a90910460ff16835282019290925260400190205482516001600160a01b0390911690839083908110610e3a57610e3a6117e0565b6001600160a01b039092166020928302919091019091015280610e5c8161180f565b915050610dbf565b509392505050565b6001546001600160a01b03163314610eb45760405162461bcd60e51b815260206004820152600b60248201526a1393d517d0531313d5d15160aa1b60448201526064016107d4565b600091825260026020819052604090922090910155565b6001546001600160a01b03163314610f135760405162461bcd60e51b815260206004820152600b60248201526a1393d517d0531313d5d15160aa1b60448201526064016107d4565b600083815260026020818152604080842060ff8716855260018101835290842080547fffffffffffffffffffffffff00000000000000000000000000000000000000001690559286905252805482908110610f7057610f706117e0565b90600052602060002090602091828204019190066101000a81549060ff0219169055600260008481526020019081526020016000206003018181548110610fb957610fb96117e0565b6000918252602082200155505050565b6001546001600160a01b031633146110115760405162461bcd60e51b815260206004820152600b60248201526a1393d517d0531313d5d15160aa1b60448201526064016107d4565b600092835260026020908152604080852060ff9390931685526001909201905290912080547fffffffffffffffffffffffff0000000000000000000000000000000000000000166001600160a01b03909216919091179055565b6001546001600160a01b031633146110b35760405162461bcd60e51b815260206004820152600b60248201526a1393d517d0531313d5d15160aa1b60448201526064016107d4565b60008381526002602052604090208054839190839081106110d6576110d66117e0565b90600052602060002090602091828204019190066101000a81548160ff021916908360ff160217905550505050565b6001546001600160a01b0316331461114d5760405162461bcd60e51b815260206004820152600b60248201526a1393d517d0531313d5d15160aa1b60448201526064016107d4565b600082815260026020526040812080546001820191839185908110611174576111746117e0565b600091825260208083208183040154601f9092166101000a90910460ff168352828101939093526040918201812080547fffffffffffffffffffffffff0000000000000000000000000000000000000000166001600160a01b039590951694909417909355848352600290915290206003018054829081106111f8576111f86117e0565b600091825260208083209091018290558382526002905260409020805482908110611225576112256117e0565b90600052602060002090602091828204019190066101000a81549060ff02191690555050565b6001546001600160a01b031633146112935760405162461bcd60e51b815260206004820152600b60248201526a1393d517d0531313d5d15160aa1b60448201526064016107d4565b600091825260026020526040909120600601805491151574010000000000000000000000000000000000000000027fffffffffffffffffffffff00ffffffffffffffffffffffffffffffffffffffff909216919091179055565b6001546001600160a01b031633146113355760405162461bcd60e51b815260206004820152600b60248201526a1393d517d0531313d5d15160aa1b60448201526064016107d4565b60009182526002602052604090912060060180547fffffffffffffffffffffffff0000000000000000000000000000000000000000166001600160a01b03909216919091179055565b6001546001600160a01b031633146113c65760405162461bcd60e51b815260206004820152600b60248201526a1393d517d0531313d5d15160aa1b60448201526064016107d4565b60009182526002602052604090912060040155565b6000546001600160a01b031633146114355760405162461bcd60e51b815260206004820152600760248201527f4e4f545f4445560000000000000000000000000000000000000000000000000060448201526064016107d4565b600080546040516001600160a01b03808516939216917f8be0079c531659141344cd1fd0a4f28419497f9722a3daafe3b4186f6b6457e091a3600080547fffffffffffffffffffffffff0000000000000000000000000000000000000000166001600160a01b0392909216919091179055565b50805460008255601f016020900490600052602060002090810190610a6a91906114e7565b5080546000825590600052602060002090810190610a6a91905b5b808211156114fc57600081556001016114e8565b5090565b60006020828403121561151257600080fd5b5035919050565b600081518084526020808501945080840160005b8381101561154c57815160ff168752958201959082019060010161152d565b509495945050505050565b600081518084526020808501945080840160005b8381101561154c5781516001600160a01b03168752958201959082019060010161156b565b6040815260006115a36040830185611519565b82810360208401526115b58185611557565b95945050505050565b80356001600160a01b03811681146115d557600080fd5b919050565b600080604083850312156115ed57600080fd5b823591506115fd602084016115be565b90509250929050565b60006020828403121561161857600080fd5b611621826115be565b9392505050565b6020815260006116216020830184611519565b6000806040838503121561164e57600080fd5b50508035926020909101359150565b803560ff811681146115d557600080fd5b6000806000806080858703121561168457600080fd5b843593506020850135925061169b604086016115be565b91506116a96060860161165d565b905092959194509250565b6020808252825182820181905260009190848201906040850190845b818110156116ec578351835292840192918401916001016116d0565b50909695505050505050565b6020815260006116216020830184611557565b60008060006060848603121561172057600080fd5b833592506117306020850161165d565b9150604084013590509250925092565b60008060006060848603121561175557600080fd5b83359250611765602085016115be565b91506117736040850161165d565b90509250925092565b6000806040838503121561178f57600080fd5b82359150602083013580151581146117a657600080fd5b809150509250929050565b7f4e487b7100000000000000000000000000000000000000000000000000000000600052604160045260246000fd5b7f4e487b7100000000000000000000000000000000000000000000000000000000600052603260045260246000fd5b60007fffffffffffffffffffffffffffffffffffffffffffffffffffffffffffffffff8203611867577f4e487b7100000000000000000000000000000000000000000000000000000000600052601160045260246000fd5b506001019056fea2646970667358221220192ce6523a8c045039924771dfca64fd40c58ba1c563202f3ec48939fec91fa364736f6c63430008100033",
    "linkReferences": {}
  },
  "methodIdentifiers": {
    "Dev()": "01e51ae8",
    "Polycules(bytes32)": "75c4f68e",
    "Registry()": "7db9743b",
    "active()": "02fb0c5e",
    "addAnionWithConfig(bytes32,bytes32,address,uint8)": "65edd522",
    "anions(bytes32)": "622dad7f",
    "cation(bytes32)": "f61ccd53",
    "controller(bytes32)": "dbd4e021",
    "covalence(bytes32)": "34026859",
    "expiry(bytes32)": "d2ec5fca",
    "hook(bytes32,bytes32,address,uint8)": "4475bf4b",
    "hooks(bytes32)": "7cf096c3",
    "hooksWithRules(bytes32)": "0aac6625",
    "label(bytes32)": "1fc4859e",
    "owner()": "8da5cb5b",
    "popAnion(bytes32,uint256)": "90072f97",
    "recordExists(bytes32)": "f79fe538",
    "rehook(bytes32,address,uint8)": "83669726",
    "rehook(bytes32,uint8,uint256)": "83d999a7",
    "resolver(bytes32)": "0178b8bf",
    "rules(bytes32)": "216b8577",
    "setCation(bytes32,bytes32)": "8146970a",
    "setConfig(address)": "20e3dbd4",
    "setController(bytes32,address)": "d3156905",
    "setCovalence(bytes32,bool)": "d07699aa",
    "setExpiry(bytes32,uint256)": "39de6469",
    "setLabel(bytes32,bytes32)": "deee4da9",
    "setRecord(bytes32,address)": "d9b76ed4",
    "setResolver(bytes32,address)": "1896f70a",
    "toggleActive()": "29c68dc1",
    "transferOwnership(address)": "f2fde38b",
    "unhook(bytes32,uint8,uint256)": "833fda08",
    "unhookAll(bytes32)": "21ec2b5b"
  },
  "id": 46
}