{
  "abi": [
    {
      "inputs": [
        {
          "internalType": "address",
          "name": "_registry",
          "type": "address"
        }
      ],
      "stateMutability": "nonpayable",
      "type": "constructor"
    },
    {
      "anonymous": false,
      "inputs": [
        {
          "indexed": true,
          "internalType": "address",
          "name": "previousOwner",
          "type": "address"
        },
        {
          "indexed": true,
          "internalType": "address",
          "name": "newOwner",
          "type": "address"
        }
      ],
      "name": "OwnershipTransferred",
      "type": "event"
    },
    {
      "inputs": [],
      "name": "Dev",
      "outputs": [
        {
          "internalType": "address",
          "name": "",
          "type": "address"
        }
      ],
      "stateMutability": "view",
      "type": "function"
    },
    {
      "inputs": [
        {
          "internalType": "bytes32",
          "name": "",
          "type": "bytes32"
        }
      ],
      "name": "Polycules",
      "outputs": [
        {
          "internalType": "bytes32",
          "name": "_cation",
          "type": "bytes32"
        },
        {
          "internalType": "bytes32",
          "name": "_label",
          "type": "bytes32"
        },
        {
          "internalType": "address",
          "name": "_resolver",
          "type": "address"
        },
        {
          "internalType": "address",
          "name": "_controller",
          "type": "address"
        },
        {
          "internalType": "bool",
          "name": "_covalence",
          "type": "bool"
        },
        {
          "internalType": "uint256",
          "name": "_expiry",
          "type": "uint256"
        }
      ],
      "stateMutability": "view",
      "type": "function"
    },
    {
      "inputs": [],
      "name": "Registry",
      "outputs": [
        {
          "internalType": "address",
          "name": "",
          "type": "address"
        }
      ],
      "stateMutability": "view",
      "type": "function"
    },
    {
      "inputs": [],
      "name": "active",
      "outputs": [
        {
          "internalType": "bool",
          "name": "",
          "type": "bool"
        }
      ],
      "stateMutability": "view",
      "type": "function"
    },
    {
      "inputs": [
        {
          "internalType": "bytes32",
          "name": "polyhash",
          "type": "bytes32"
        },
        {
          "internalType": "bytes32",
          "name": "_anion",
          "type": "bytes32"
        },
        {
          "internalType": "address",
          "name": "config",
          "type": "address"
        },
        {
          "internalType": "uint8",
          "name": "rule",
          "type": "uint8"
        }
      ],
      "name": "addAnionWithConfig",
      "outputs": [],
      "stateMutability": "nonpayable",
      "type": "function"
    },
    {
      "inputs": [
        {
          "internalType": "bytes32",
          "name": "polyhash",
          "type": "bytes32"
        }
      ],
      "name": "anions",
      "outputs": [
        {
          "internalType": "bytes32[]",
          "name": "",
          "type": "bytes32[]"
        }
      ],
      "stateMutability": "view",
      "type": "function"
    },
    {
      "inputs": [
        {
          "internalType": "bytes32",
          "name": "polyhash",
          "type": "bytes32"
        }
      ],
      "name": "cation",
      "outputs": [
        {
          "internalType": "bytes32",
          "name": "",
          "type": "bytes32"
        }
      ],
      "stateMutability": "view",
      "type": "function"
    },
    {
      "inputs": [
        {
          "internalType": "bytes32",
          "name": "polyhash",
          "type": "bytes32"
        }
      ],
      "name": "controller",
      "outputs": [
        {
          "internalType": "address",
          "name": "",
          "type": "address"
        }
      ],
      "stateMutability": "view",
      "type": "function"
    },
    {
      "inputs": [
        {
          "internalType": "bytes32",
          "name": "polyhash",
          "type": "bytes32"
        }
      ],
      "name": "covalence",
      "outputs": [
        {
          "internalType": "bool",
          "name": "",
          "type": "bool"
        }
      ],
      "stateMutability": "view",
      "type": "function"
    },
    {
      "inputs": [
        {
          "internalType": "bytes32",
          "name": "polyhash",
          "type": "bytes32"
        }
      ],
      "name": "expiry",
      "outputs": [
        {
          "internalType": "uint256",
          "name": "",
          "type": "uint256"
        }
      ],
      "stateMutability": "view",
      "type": "function"
    },
    {
      "inputs": [
        {
          "internalType": "bytes32",
          "name": "_anion",
          "type": "bytes32"
        },
        {
          "internalType": "bytes32",
          "name": "polyhash",
          "type": "bytes32"
        },
        {
          "internalType": "address",
          "name": "config",
          "type": "address"
        },
        {
          "internalType": "uint8",
          "name": "rule",
          "type": "uint8"
        }
      ],
      "name": "hook",
      "outputs": [],
      "stateMutability": "nonpayable",
      "type": "function"
    },
    {
      "inputs": [
        {
          "internalType": "bytes32",
          "name": "polyhash",
          "type": "bytes32"
        }
      ],
      "name": "hooksWithRules",
      "outputs": [
        {
          "internalType": "uint8[]",
          "name": "_rules",
          "type": "uint8[]"
        },
        {
          "internalType": "address[]",
          "name": "_hooks",
          "type": "address[]"
        }
      ],
      "stateMutability": "view",
      "type": "function"
    },
    {
      "inputs": [
        {
          "internalType": "bytes32",
          "name": "polyhash",
          "type": "bytes32"
        }
      ],
      "name": "label",
      "outputs": [
        {
          "internalType": "bytes32",
          "name": "",
          "type": "bytes32"
        }
      ],
      "stateMutability": "view",
      "type": "function"
    },
    {
      "inputs": [],
      "name": "owner",
      "outputs": [
        {
          "internalType": "address",
          "name": "",
          "type": "address"
        }
      ],
      "stateMutability": "view",
      "type": "function"
    },
    {
      "inputs": [
        {
          "internalType": "bytes32",
          "name": "polyhash",
          "type": "bytes32"
        },
        {
          "internalType": "uint256",
          "name": "index",
          "type": "uint256"
        }
      ],
      "name": "popAnion",
      "outputs": [],
      "stateMutability": "nonpayable",
      "type": "function"
    },
    {
      "inputs": [
        {
          "internalType": "bytes32",
          "name": "polyhash",
          "type": "bytes32"
        }
      ],
      "name": "recordExists",
      "outputs": [
        {
          "internalType": "bool",
          "name": "",
          "type": "bool"
        }
      ],
      "stateMutability": "view",
      "type": "function"
    },
    {
      "inputs": [
        {
          "internalType": "bytes32",
          "name": "polyhash",
          "type": "bytes32"
        },
        {
          "internalType": "address",
          "name": "config",
          "type": "address"
        },
        {
          "internalType": "uint8",
          "name": "rule",
          "type": "uint8"
        }
      ],
      "name": "rehook",
      "outputs": [],
      "stateMutability": "nonpayable",
      "type": "function"
    },
    {
      "inputs": [
        {
          "internalType": "bytes32",
          "name": "polyhash",
          "type": "bytes32"
        },
        {
          "internalType": "uint8",
          "name": "rule",
          "type": "uint8"
        },
        {
          "internalType": "uint256",
          "name": "index",
          "type": "uint256"
        }
      ],
      "name": "rehook",
      "outputs": [],
      "stateMutability": "nonpayable",
      "type": "function"
    },
    {
      "inputs": [
        {
          "internalType": "bytes32",
          "name": "polyhash",
          "type": "bytes32"
        }
      ],
      "name": "resolver",
      "outputs": [
        {
          "internalType": "address",
          "name": "",
          "type": "address"
        }
      ],
      "stateMutability": "view",
      "type": "function"
    },
    {
      "inputs": [
        {
          "internalType": "bytes32",
          "name": "polyhash",
          "type": "bytes32"
        },
        {
          "internalType": "bytes32",
          "name": "_cation",
          "type": "bytes32"
        }
      ],
      "name": "setCation",
      "outputs": [],
      "stateMutability": "nonpayable",
      "type": "function"
    },
    {
      "inputs": [
        {
          "internalType": "address",
          "name": "_registry",
          "type": "address"
        }
      ],
      "name": "setConfig",
      "outputs": [],
      "stateMutability": "nonpayable",
      "type": "function"
    },
    {
      "inputs": [
        {
          "internalType": "bytes32",
          "name": "polyhash",
          "type": "bytes32"
        },
        {
          "internalType": "address",
          "name": "_controller",
          "type": "address"
        }
      ],
      "name": "setController",
      "outputs": [],
      "stateMutability": "nonpayable",
      "type": "function"
    },
    {
      "inputs": [
        {
          "internalType": "bytes32",
          "name": "polyhash",
          "type": "bytes32"
        },
        {
          "internalType": "bool",
          "name": "_covalence",
          "type": "bool"
        }
      ],
      "name": "setCovalence",
      "outputs": [],
      "stateMutability": "nonpayable",
      "type": "function"
    },
    {
      "inputs": [
        {
          "internalType": "bytes32",
          "name": "polyhash",
          "type": "bytes32"
        },
        {
          "internalType": "uint256",
          "name": "_expiry",
          "type": "uint256"
        }
      ],
      "name": "setExpiry",
      "outputs": [],
      "stateMutability": "nonpayable",
      "type": "function"
    },
    {
      "inputs": [
        {
          "internalType": "bytes32",
          "name": "polyhash",
          "type": "bytes32"
        },
        {
          "internalType": "bytes32",
          "name": "_label",
          "type": "bytes32"
        }
      ],
      "name": "setLabel",
      "outputs": [],
      "stateMutability": "nonpayable",
      "type": "function"
    },
    {
      "inputs": [
        {
          "internalType": "bytes32",
          "name": "polyhash",
          "type": "bytes32"
        },
        {
          "internalType": "address",
          "name": "_resolver",
          "type": "address"
        }
      ],
      "name": "setRecord",
      "outputs": [],
      "stateMutability": "nonpayable",
      "type": "function"
    },
    {
      "inputs": [
        {
          "internalType": "bytes32",
          "name": "polyhash",
          "type": "bytes32"
        },
        {
          "internalType": "address",
          "name": "_resolver",
          "type": "address"
        }
      ],
      "name": "setResolver",
      "outputs": [],
      "stateMutability": "nonpayable",
      "type": "function"
    },
    {
      "inputs": [],
      "name": "toggleActive",
      "outputs": [],
      "stateMutability": "nonpayable",
      "type": "function"
    },
    {
      "inputs": [
        {
          "internalType": "address",
          "name": "newDev",
          "type": "address"
        }
      ],
      "name": "transferOwnership",
      "outputs": [],
      "stateMutability": "nonpayable",
      "type": "function"
    },
    {
      "inputs": [
        {
          "internalType": "bytes32",
          "name": "polyhash",
          "type": "bytes32"
        },
        {
          "internalType": "uint8",
          "name": "rule",
          "type": "uint8"
        },
        {
          "internalType": "uint256",
          "name": "index",
          "type": "uint256"
        }
      ],
      "name": "unhook",
      "outputs": [],
      "stateMutability": "nonpayable",
      "type": "function"
    },
    {
      "inputs": [
        {
          "internalType": "bytes32",
          "name": "polyhash",
          "type": "bytes32"
        }
      ],
      "name": "unhookAll",
      "outputs": [],
      "stateMutability": "nonpayable",
      "type": "function"
    }
  ],
  "bytecode": {
    "object": "0x60806040526001805460ff60a01b1916600160a01b17905534801561002357600080fd5b5060405161172338038061172383398101604081905261004291610070565b600180546001600160a01b039092166001600160a01b031992831617905560008054909116331790556100a0565b60006020828403121561008257600080fd5b81516001600160a01b038116811461009957600080fd5b9392505050565b611674806100af6000396000f3fe608060405234801561001057600080fd5b50600436106101e55760003560e01c80637db9743b1161010f578063d2ec5fca116100a2578063deee4da911610071578063deee4da914610546578063f2fde38b14610559578063f61ccd531461056c578063f79fe5381461059057600080fd5b8063d2ec5fca146104e4578063d315690514610507578063d9b76ed41461029c578063dbd4e0211461051a57600080fd5b806383d999a7116100de57806383d999a71461049a5780638da5cb5b146104ad57806390072f97146104be578063d07699aa146104d157600080fd5b80637db9743b1461044e5780638146970a14610461578063833fda0814610474578063836697261461048757600080fd5b806321ec2b5b116101875780634475bf4b116101565780634475bf4b14610361578063622dad7f1461037457806365edd5221461039457806375c4f68e146103a757600080fd5b806321ec2b5b146102f557806329c68dc114610308578063340268591461031057806339de64691461034e57600080fd5b80630aac6625116101c35780630aac66251461027b5780631896f70a1461029c5780631fc4859e146102b157806320e3dbd4146102e257600080fd5b80630178b8bf146101ea57806301e51ae81461023357806302fb0c5e14610246575b600080fd5b6102166101f8366004611314565b6000908152600260205260409020600501546001600160a01b031690565b6040516001600160a01b0390911681526020015b60405180910390f35b600054610216906001600160a01b031681565b60015461026b9074010000000000000000000000000000000000000000900460ff1681565b604051901515815260200161022a565b61028e610289366004611314565b6105b5565b60405161022a92919061132d565b6102af6102aa3660046113d0565b61072a565b005b6102d46102bf366004611314565b60009081526002602052604090206004015490565b60405190815260200161022a565b6102af6102f03660046113fc565b6107c0565b6102af610303366004611314565b610854565b6102af610987565b61026b61031e366004611314565b60009081526002602052604090206006015474010000000000000000000000000000000000000000900460ff1690565b6102af61035c36600461141e565b610a2e565b6102af61036f366004611451565b610a8b565b610387610382366004611314565b610b6e565b60405161022a9190611497565b6102af6103a2366004611451565b610bd3565b6104126103b5366004611314565b600260208190526000918252604090912090810154600482015460058301546006840154600790940154929391926001600160a01b03918216929182169174010000000000000000000000000000000000000000900460ff169086565b6040805196875260208701959095526001600160a01b0393841694860194909452911660608401521515608083015260a082015260c00161022a565b600154610216906001600160a01b031681565b6102af61046f36600461141e565b610c80565b6102af6104823660046114db565b610cdf565b6102af610495366004611510565b610ddd565b6102af6104a83660046114db565b610e7f565b6000546001600160a01b0316610216565b6102af6104cc36600461141e565b610f19565b6102af6104df36600461154c565b61105f565b6102d46104f2366004611314565b60009081526002602052604090206007015490565b6102af6105153660046113d0565b611101565b610216610528366004611314565b6000908152600260205260409020600601546001600160a01b031690565b6102af61055436600461141e565b611192565b6102af6105673660046113fc565b6111ef565b6102d461057a366004611314565b6000908152600260208190526040909120015490565b61026b61059e366004611314565b600090815260026020526040902060070154421090565b600081815260026020908152604091829020805483518184028101840190945280845260609384939092919083018282801561062e57602002820191906000526020600020906000905b825461010083900a900460ff168152602060019283018181049485019490930390920291018084116105ff5790505b50505050509150815167ffffffffffffffff81111561064f5761064f611581565b604051908082528060200260200182016040528015610678578160200160208202803683370190505b50905060005b8251811015610724576000848152600260205260408120805460018201929190849081106106ae576106ae6115b0565b600091825260208083208183040154601f9092166101000a90910460ff16835282019290925260400190205482516001600160a01b03909116908390839081106106fa576106fa6115b0565b6001600160a01b03909216602092830291909101909101528061071c816115df565b91505061067e565b50915091565b6001546001600160a01b031633146107775760405162461bcd60e51b815260206004820152600b60248201526a1393d517d0531313d5d15160aa1b60448201526064015b60405180910390fd5b60009182526002602052604090912060050180547fffffffffffffffffffffffff0000000000000000000000000000000000000000166001600160a01b03909216919091179055565b6000546001600160a01b0316331461081a5760405162461bcd60e51b815260206004820152600760248201527f4e4f545f44455600000000000000000000000000000000000000000000000000604482015260640161076e565b600180547fffffffffffffffffffffffff0000000000000000000000000000000000000000166001600160a01b0392909216919091179055565b6001546001600160a01b0316331461089c5760405162461bcd60e51b815260206004820152600b60248201526a1393d517d0531313d5d15160aa1b604482015260640161076e565b60005b60008281526002602052604090205481101561094f576000828152600260205260408120805460018201918391859081106108dc576108dc6115b0565b600091825260208083208183040154601f9092166101000a90910460ff168352820192909252604001902080547fffffffffffffffffffffffff0000000000000000000000000000000000000000166001600160a01b039290921691909117905580610947816115df565b91505061089f565b506000818152600260205260408120610967916112bc565b6000818152600260205260408120610984916003909101906112e1565b50565b6000546001600160a01b031633146109e15760405162461bcd60e51b815260206004820152600760248201527f4e4f545f44455600000000000000000000000000000000000000000000000000604482015260640161076e565b600180547fffffffffffffffffffffff00ffffffffffffffffffffffffffffffffffffffff8116740100000000000000000000000000000000000000009182900460ff1615909102179055565b6001546001600160a01b03163314610a765760405162461bcd60e51b815260206004820152600b60248201526a1393d517d0531313d5d15160aa1b604482015260640161076e565b60009182526002602052604090912060070155565b6001546001600160a01b03163314610ad35760405162461bcd60e51b815260206004820152600b60248201526a1393d517d0531313d5d15160aa1b604482015260640161076e565b600092835260026020818152604080862080546001818101835582895284892085830401805460ff988916601f9094166101000a84810299021916979097179096558752848101835290862080546001600160a01b039096167fffffffffffffffffffffffff000000000000000000000000000000000000000090961695909517909455908152600390920180549182018155835291200155565b600081815260026020908152604091829020600301805483518184028101840190945280845260609392830182828015610bc757602002820191906000526020600020905b815481526020019060010190808311610bb3575b50505050509050919050565b6001546001600160a01b03163314610c1b5760405162461bcd60e51b815260206004820152600b60248201526a1393d517d0531313d5d15160aa1b604482015260640161076e565b600093845260026020908152604085206003810180546001818101835591885283882001959095558054808601825581875282872083820401805460ff958616601f9093166101000a8381029602191694909417909355919094529190910190915250565b6001546001600160a01b03163314610cc85760405162461bcd60e51b815260206004820152600b60248201526a1393d517d0531313d5d15160aa1b604482015260640161076e565b600091825260026020819052604090922090910155565b6001546001600160a01b03163314610d275760405162461bcd60e51b815260206004820152600b60248201526a1393d517d0531313d5d15160aa1b604482015260640161076e565b600083815260026020818152604080842060ff8716855260018101835290842080547fffffffffffffffffffffffff00000000000000000000000000000000000000001690559286905252805482908110610d8457610d846115b0565b90600052602060002090602091828204019190066101000a81549060ff0219169055600260008481526020019081526020016000206003018181548110610dcd57610dcd6115b0565b6000918252602082200155505050565b6001546001600160a01b03163314610e255760405162461bcd60e51b815260206004820152600b60248201526a1393d517d0531313d5d15160aa1b604482015260640161076e565b600092835260026020908152604080852060ff9390931685526001909201905290912080547fffffffffffffffffffffffff0000000000000000000000000000000000000000166001600160a01b03909216919091179055565b6001546001600160a01b03163314610ec75760405162461bcd60e51b815260206004820152600b60248201526a1393d517d0531313d5d15160aa1b604482015260640161076e565b6000838152600260205260409020805483919083908110610eea57610eea6115b0565b90600052602060002090602091828204019190066101000a81548160ff021916908360ff160217905550505050565b6001546001600160a01b03163314610f615760405162461bcd60e51b815260206004820152600b60248201526a1393d517d0531313d5d15160aa1b604482015260640161076e565b600082815260026020526040812080546001820191839185908110610f8857610f886115b0565b600091825260208083208183040154601f9092166101000a90910460ff168352828101939093526040918201812080547fffffffffffffffffffffffff0000000000000000000000000000000000000000166001600160a01b0395909516949094179093558483526002909152902060030180548290811061100c5761100c6115b0565b600091825260208083209091018290558382526002905260409020805482908110611039576110396115b0565b90600052602060002090602091828204019190066101000a81549060ff02191690555050565b6001546001600160a01b031633146110a75760405162461bcd60e51b815260206004820152600b60248201526a1393d517d0531313d5d15160aa1b604482015260640161076e565b600091825260026020526040909120600601805491151574010000000000000000000000000000000000000000027fffffffffffffffffffffff00ffffffffffffffffffffffffffffffffffffffff909216919091179055565b6001546001600160a01b031633146111495760405162461bcd60e51b815260206004820152600b60248201526a1393d517d0531313d5d15160aa1b604482015260640161076e565b60009182526002602052604090912060060180547fffffffffffffffffffffffff0000000000000000000000000000000000000000166001600160a01b03909216919091179055565b6001546001600160a01b031633146111da5760405162461bcd60e51b815260206004820152600b60248201526a1393d517d0531313d5d15160aa1b604482015260640161076e565b60009182526002602052604090912060040155565b6000546001600160a01b031633146112495760405162461bcd60e51b815260206004820152600760248201527f4e4f545f44455600000000000000000000000000000000000000000000000000604482015260640161076e565b600080546040516001600160a01b03808516939216917f8be0079c531659141344cd1fd0a4f28419497f9722a3daafe3b4186f6b6457e091a3600080547fffffffffffffffffffffffff0000000000000000000000000000000000000000166001600160a01b0392909216919091179055565b50805460008255601f01602090049060005260206000209081019061098491906112fb565b508054600082559060005260206000209081019061098491905b5b8082111561131057600081556001016112fc565b5090565b60006020828403121561132657600080fd5b5035919050565b604080825283519082018190526000906020906060840190828701845b8281101561136957815160ff168452928401929084019060010161134a565b5050508381038285015284518082528583019183019060005b818110156113a75783516001600160a01b031683529284019291840191600101611382565b5090979650505050505050565b80356001600160a01b03811681146113cb57600080fd5b919050565b600080604083850312156113e357600080fd5b823591506113f3602084016113b4565b90509250929050565b60006020828403121561140e57600080fd5b611417826113b4565b9392505050565b6000806040838503121561143157600080fd5b50508035926020909101359150565b803560ff811681146113cb57600080fd5b6000806000806080858703121561146757600080fd5b843593506020850135925061147e604086016113b4565b915061148c60608601611440565b905092959194509250565b6020808252825182820181905260009190848201906040850190845b818110156114cf578351835292840192918401916001016114b3565b50909695505050505050565b6000806000606084860312156114f057600080fd5b8335925061150060208501611440565b9150604084013590509250925092565b60008060006060848603121561152557600080fd5b83359250611535602085016113b4565b915061154360408501611440565b90509250925092565b6000806040838503121561155f57600080fd5b823591506020830135801515811461157657600080fd5b809150509250929050565b7f4e487b7100000000000000000000000000000000000000000000000000000000600052604160045260246000fd5b7f4e487b7100000000000000000000000000000000000000000000000000000000600052603260045260246000fd5b60007fffffffffffffffffffffffffffffffffffffffffffffffffffffffffffffffff8203611637577f4e487b7100000000000000000000000000000000000000000000000000000000600052601160045260246000fd5b506001019056fea264697066735822122030701b55c8c6fd8513588dcae01a894149477eb914ee8b49d6c849dd08a1905c64736f6c63430008100033",
    "linkReferences": {}
  },
  "methodIdentifiers": {
    "Dev()": "01e51ae8",
    "Polycules(bytes32)": "75c4f68e",
    "Registry()": "7db9743b",
    "active()": "02fb0c5e",
    "addAnionWithConfig(bytes32,bytes32,address,uint8)": "65edd522",
    "anions(bytes32)": "622dad7f",
    "cation(bytes32)": "f61ccd53",
    "controller(bytes32)": "dbd4e021",
    "covalence(bytes32)": "34026859",
    "expiry(bytes32)": "d2ec5fca",
    "hook(bytes32,bytes32,address,uint8)": "4475bf4b",
    "hooksWithRules(bytes32)": "0aac6625",
    "label(bytes32)": "1fc4859e",
    "owner()": "8da5cb5b",
    "popAnion(bytes32,uint256)": "90072f97",
    "recordExists(bytes32)": "f79fe538",
    "rehook(bytes32,address,uint8)": "83669726",
    "rehook(bytes32,uint8,uint256)": "83d999a7",
    "resolver(bytes32)": "0178b8bf",
    "setCation(bytes32,bytes32)": "8146970a",
    "setConfig(address)": "20e3dbd4",
    "setController(bytes32,address)": "d3156905",
    "setCovalence(bytes32,bool)": "d07699aa",
    "setExpiry(bytes32,uint256)": "39de6469",
    "setLabel(bytes32,bytes32)": "deee4da9",
    "setRecord(bytes32,address)": "d9b76ed4",
    "setResolver(bytes32,address)": "1896f70a",
    "toggleActive()": "29c68dc1",
    "transferOwnership(address)": "f2fde38b",
    "unhook(bytes32,uint8,uint256)": "833fda08",
    "unhookAll(bytes32)": "21ec2b5b"
  },
  "id": 46
}