{
  "abi": [
    {
      "inputs": [
        {
          "internalType": "address",
          "name": "_helix2",
          "type": "address"
        }
      ],
      "stateMutability": "nonpayable",
      "type": "constructor"
    },
    {
      "inputs": [
        {
          "internalType": "address",
          "name": "_dev",
          "type": "address"
        },
        {
          "internalType": "address",
          "name": "_you",
          "type": "address"
        }
      ],
      "name": "OnlyDev",
      "type": "error"
    },
    {
      "anonymous": false,
      "inputs": [
        {
          "indexed": true,
          "internalType": "bytes32",
          "name": "molyhash",
          "type": "bytes32"
        },
        {
          "indexed": false,
          "internalType": "address",
          "name": "addr",
          "type": "address"
        }
      ],
      "name": "NewAddr",
      "type": "event"
    },
    {
      "anonymous": false,
      "inputs": [
        {
          "indexed": true,
          "internalType": "bytes32",
          "name": "molyhash",
          "type": "bytes32"
        },
        {
          "indexed": false,
          "internalType": "uint256",
          "name": "coinType",
          "type": "uint256"
        },
        {
          "indexed": false,
          "internalType": "bytes",
          "name": "newAddress",
          "type": "bytes"
        }
      ],
      "name": "NewAddr2",
      "type": "event"
    },
    {
      "anonymous": false,
      "inputs": [
        {
          "indexed": true,
          "internalType": "bytes32",
          "name": "molyhash",
          "type": "bytes32"
        },
        {
          "indexed": false,
          "internalType": "bytes",
          "name": "_contenthash",
          "type": "bytes"
        }
      ],
      "name": "NewContenthash",
      "type": "event"
    },
    {
      "anonymous": false,
      "inputs": [
        {
          "indexed": true,
          "internalType": "bytes32",
          "name": "molyhash",
          "type": "bytes32"
        },
        {
          "indexed": false,
          "internalType": "bytes32",
          "name": "x",
          "type": "bytes32"
        },
        {
          "indexed": false,
          "internalType": "bytes32",
          "name": "y",
          "type": "bytes32"
        }
      ],
      "name": "NewPubkey",
      "type": "event"
    },
    {
      "anonymous": false,
      "inputs": [
        {
          "indexed": true,
          "internalType": "bytes32",
          "name": "molyhash",
          "type": "bytes32"
        },
        {
          "indexed": true,
          "internalType": "string",
          "name": "key",
          "type": "string"
        },
        {
          "indexed": false,
          "internalType": "string",
          "name": "value",
          "type": "string"
        }
      ],
      "name": "NewTextRecord",
      "type": "event"
    },
    {
      "stateMutability": "payable",
      "type": "fallback"
    },
    {
      "inputs": [],
      "name": "DefaultContenthash",
      "outputs": [
        {
          "internalType": "bytes",
          "name": "",
          "type": "bytes"
        }
      ],
      "stateMutability": "view",
      "type": "function"
    },
    {
      "inputs": [],
      "name": "HELIX2",
      "outputs": [
        {
          "internalType": "contract iHELIX2",
          "name": "",
          "type": "address"
        }
      ],
      "stateMutability": "view",
      "type": "function"
    },
    {
      "inputs": [],
      "name": "NAMES",
      "outputs": [
        {
          "internalType": "contract iNAME",
          "name": "",
          "type": "address"
        }
      ],
      "stateMutability": "view",
      "type": "function"
    },
    {
      "inputs": [],
      "name": "POLYCULES",
      "outputs": [
        {
          "internalType": "contract iPOLYCULE",
          "name": "",
          "type": "address"
        }
      ],
      "stateMutability": "view",
      "type": "function"
    },
    {
      "inputs": [
        {
          "internalType": "bytes32",
          "name": "molyhash",
          "type": "bytes32"
        }
      ],
      "name": "addr",
      "outputs": [
        {
          "internalType": "address payable",
          "name": "",
          "type": "address"
        }
      ],
      "stateMutability": "view",
      "type": "function"
    },
    {
      "inputs": [
        {
          "internalType": "bytes32",
          "name": "molyhash",
          "type": "bytes32"
        },
        {
          "internalType": "uint256",
          "name": "coinType",
          "type": "uint256"
        }
      ],
      "name": "addr2",
      "outputs": [
        {
          "internalType": "address payable",
          "name": "",
          "type": "address"
        }
      ],
      "stateMutability": "view",
      "type": "function"
    },
    {
      "inputs": [
        {
          "internalType": "bytes32",
          "name": "molyhash",
          "type": "bytes32"
        }
      ],
      "name": "contenthash",
      "outputs": [
        {
          "internalType": "bytes",
          "name": "_hash",
          "type": "bytes"
        }
      ],
      "stateMutability": "view",
      "type": "function"
    },
    {
      "inputs": [
        {
          "internalType": "bytes32",
          "name": "",
          "type": "bytes32"
        }
      ],
      "name": "pubkey",
      "outputs": [
        {
          "internalType": "bytes32",
          "name": "x",
          "type": "bytes32"
        },
        {
          "internalType": "bytes32",
          "name": "y",
          "type": "bytes32"
        }
      ],
      "stateMutability": "view",
      "type": "function"
    },
    {
      "inputs": [
        {
          "internalType": "bytes32",
          "name": "molyhash",
          "type": "bytes32"
        },
        {
          "internalType": "address",
          "name": "_addr",
          "type": "address"
        }
      ],
      "name": "setAddress",
      "outputs": [],
      "stateMutability": "nonpayable",
      "type": "function"
    },
    {
      "inputs": [
        {
          "internalType": "bytes32",
          "name": "molyhash",
          "type": "bytes32"
        },
        {
          "internalType": "uint256",
          "name": "coinType",
          "type": "uint256"
        },
        {
          "internalType": "bytes",
          "name": "_addr",
          "type": "bytes"
        }
      ],
      "name": "setAddressCoin",
      "outputs": [],
      "stateMutability": "nonpayable",
      "type": "function"
    },
    {
      "inputs": [
        {
          "internalType": "bytes32",
          "name": "molyhash",
          "type": "bytes32"
        },
        {
          "internalType": "bytes",
          "name": "_hash",
          "type": "bytes"
        }
      ],
      "name": "setContenthash",
      "outputs": [],
      "stateMutability": "nonpayable",
      "type": "function"
    },
    {
      "inputs": [
        {
          "internalType": "bytes",
          "name": "_content",
          "type": "bytes"
        }
      ],
      "name": "setDefaultContenthash",
      "outputs": [],
      "stateMutability": "nonpayable",
      "type": "function"
    },
    {
      "inputs": [
        {
          "internalType": "string",
          "name": "key",
          "type": "string"
        },
        {
          "internalType": "string",
          "name": "value",
          "type": "string"
        }
      ],
      "name": "setDefaultText",
      "outputs": [],
      "stateMutability": "nonpayable",
      "type": "function"
    },
    {
      "inputs": [
        {
          "internalType": "bytes4",
          "name": "sig",
          "type": "bytes4"
        },
        {
          "internalType": "bool",
          "name": "value",
          "type": "bool"
        }
      ],
      "name": "setInterface",
      "outputs": [],
      "stateMutability": "nonpayable",
      "type": "function"
    },
    {
      "inputs": [
        {
          "internalType": "bytes32",
          "name": "molyhash",
          "type": "bytes32"
        },
        {
          "internalType": "bytes32",
          "name": "x",
          "type": "bytes32"
        },
        {
          "internalType": "bytes32",
          "name": "y",
          "type": "bytes32"
        }
      ],
      "name": "setPubkey",
      "outputs": [],
      "stateMutability": "nonpayable",
      "type": "function"
    },
    {
      "inputs": [
        {
          "internalType": "bytes32",
          "name": "molyhash",
          "type": "bytes32"
        },
        {
          "internalType": "string",
          "name": "key",
          "type": "string"
        },
        {
          "internalType": "string",
          "name": "value",
          "type": "string"
        }
      ],
      "name": "setText",
      "outputs": [],
      "stateMutability": "nonpayable",
      "type": "function"
    },
    {
      "inputs": [
        {
          "internalType": "bytes4",
          "name": "",
          "type": "bytes4"
        }
      ],
      "name": "supportsInterface",
      "outputs": [
        {
          "internalType": "bool",
          "name": "",
          "type": "bool"
        }
      ],
      "stateMutability": "view",
      "type": "function"
    },
    {
      "inputs": [
        {
          "internalType": "bytes32",
          "name": "molyhash",
          "type": "bytes32"
        },
        {
          "internalType": "string",
          "name": "key",
          "type": "string"
        }
      ],
      "name": "text",
      "outputs": [
        {
          "internalType": "string",
          "name": "value",
          "type": "string"
        }
      ],
      "stateMutability": "view",
      "type": "function"
    },
    {
      "inputs": [],
      "name": "withdrawEther",
      "outputs": [],
      "stateMutability": "nonpayable",
      "type": "function"
    },
    {
      "stateMutability": "payable",
      "type": "receive"
    }
  ],
  "bytecode": {
    "object": "0x60806040523480156200001157600080fd5b5060405162002afe38038062002afe833981016040819052620000349162000190565b600080546001600160a01b0319166001600160a01b038316178155600360209081527fe61135ea024f610002b7289b19387d7f1241c10f5ef73da97275e3a7cce7dbb3805460ff1990811660019081179092557f9aec404b84aa02ddd5427b09a579c717116a210aa25d79dcad871f545b3adca080548216831790557f176fad9dfefbca64e2675a165b76e9b98c3d1bdd109f737bda8c7d9166f056a980548216831790557f50956a4c5170deebb79959d34296be9b0acc77d0e2b542d088ddbdebfb4ce12d8054821683179055631674750f60e21b9093527fe8f3c60457684694e37c80b447d5975582bb36105ba32bbd792fdee7fefe1e478054909316179091556040805160608101909152602a808252909162002ad4908301396000805260046020527f17ef568e3e12ab5b9c7254a8d58478811de00f9e6eb34345acd53bf8fd09d3ec9062000188908262000267565b505062000333565b600060208284031215620001a357600080fd5b81516001600160a01b0381168114620001bb57600080fd5b9392505050565b634e487b7160e01b600052604160045260246000fd5b600181811c90821680620001ed57607f821691505b6020821081036200020e57634e487b7160e01b600052602260045260246000fd5b50919050565b601f8211156200026257600081815260208120601f850160051c810160208610156200023d5750805b601f850160051c820191505b818110156200025e5782815560010162000249565b5050505b505050565b81516001600160401b03811115620002835762000283620001c2565b6200029b81620002948454620001d8565b8462000214565b602080601f831160018114620002d35760008415620002ba5750858301515b600019600386901b1c1916600185901b1785556200025e565b600085815260208120601f198616915b828110156200030457888601518255948401946001909101908401620002e3565b5085821015620003235787850151600019600388901b60f8161c191681555b5050505050600190811b01905550565b61279180620003436000396000f3fe6080604052600436106101485760003560e01c80637362377b116100c0578063c869023311610074578063ca446dd911610059578063ca446dd9146103b6578063d9ebda12146103d6578063f5aed68f146103f657600080fd5b8063c86902331461034d578063c9b690591461039657600080fd5b8063b782426e116100a5578063b782426e146102ed578063bc1c58d11461030d578063c0a43a7c1461032d57600080fd5b80637362377b146102b857806378237b03146102cd57600080fd5b8063304e6ade1161011757806359d1d43c116100fc57806359d1d43c146102565780635d81d5531461028357806369be8bb0146102a357600080fd5b8063304e6ade146102165780633b3b57de1461023657600080fd5b806301ffc9a71461015757806305e84aa01461019c57806310f13a8c146101d457806329cd62ea146101f657600080fd5b3661015257600080fd5b600080fd5b34801561016357600080fd5b50610187610172366004612032565b60036020526000908152604090205460ff1681565b60405190151581526020015b60405180910390f35b3480156101a857600080fd5b506001546101bc906001600160a01b031681565b6040516001600160a01b039091168152602001610193565b3480156101e057600080fd5b506101f46101ef366004612096565b610416565b005b34801561020257600080fd5b506101f4610211366004612110565b6106c1565b34801561022257600080fd5b506101f46102313660046121f8565b610939565b34801561024257600080fd5b506101bc61025136600461223f565b610b9a565b34801561026257600080fd5b50610276610271366004612258565b610e04565b60405161019391906122ea565b34801561028f57600080fd5b506101f461029e3660046122fd565b610f7f565b3480156102af57600080fd5b506102766110fd565b3480156102c457600080fd5b506101f46111b9565b3480156102d957600080fd5b506101bc6102e8366004612332565b6112d4565b3480156102f957600080fd5b506000546101bc906001600160a01b031681565b34801561031957600080fd5b5061027661032836600461223f565b611598565b34801561033957600080fd5b506101f4610348366004612354565b6117b1565b34801561035957600080fd5b5061038161036836600461223f565b6007602052600090815260409020805460019091015482565b60408051928352602083019190915201610193565b3480156103a257600080fd5b506101f46103b1366004612390565b611963565b3480156103c257600080fd5b506101f46103d1366004612411565b611af7565b3480156103e257600080fd5b506002546101bc906001600160a01b031681565b34801561040257600080fd5b506101f4610411366004612436565b611da1565b6002546040516369762fe560e11b81526004810187905286916001600160a01b03169063d2ec5fca90602401602060405180830381865afa15801561045f573d6000803e3d6000fd5b505050506040513d601f19601f820116820180604052508101906104839190612486565b42106104d65760405162461bcd60e51b815260206004820152601060248201527f504f4c5943554c455f455850495245440000000000000000000000000000000060448201526064015b60405180910390fd5b6001546002546040517ff61ccd53000000000000000000000000000000000000000000000000000000008152600481018490526001600160a01b03928316926302571be392169063f61ccd5390602401602060405180830381865afa158015610543573d6000803e3d6000fd5b505050506040513d601f19601f820116820180604052508101906105679190612486565b6040518263ffffffff1660e01b815260040161058591815260200190565b602060405180830381865afa1580156105a2573d6000803e3d6000fd5b505050506040513d601f19601f820116820180604052508101906105c6919061249f565b6001600160a01b0316336001600160a01b0316146106265760405162461bcd60e51b815260206004820152600e60248201527f4e4f545f415554484f524953454400000000000000000000000000000000000060448201526064016104cd565b828260056000898152602001908152602001600020878760405161064b9291906124bc565b9081526020016040518091039020918261066692919061256e565b5084846040516106779291906124bc565b6040518091039020867f67183f1114fa702d378afb1540cad2f1fb0ce08eb7b86b97303e5db7b827f73385856040516106b192919061262f565b60405180910390a3505050505050565b6002546040516369762fe560e11b81526004810185905284916001600160a01b03169063d2ec5fca90602401602060405180830381865afa15801561070a573d6000803e3d6000fd5b505050506040513d601f19601f8201168201806040525081019061072e9190612486565b421061077c5760405162461bcd60e51b815260206004820152601060248201527f504f4c5943554c455f455850495245440000000000000000000000000000000060448201526064016104cd565b6001546002546040517ff61ccd53000000000000000000000000000000000000000000000000000000008152600481018490526001600160a01b03928316926302571be392169063f61ccd5390602401602060405180830381865afa1580156107e9573d6000803e3d6000fd5b505050506040513d601f19601f8201168201806040525081019061080d9190612486565b6040518263ffffffff1660e01b815260040161082b91815260200190565b602060405180830381865afa158015610848573d6000803e3d6000fd5b505050506040513d601f19601f8201168201806040525081019061086c919061249f565b6001600160a01b0316336001600160a01b0316146108cc5760405162461bcd60e51b815260206004820152600e60248201527f4e4f545f415554484f524953454400000000000000000000000000000000000060448201526064016104cd565b60408051808201825284815260208082018581526000888152600783528490209251835551600190920191909155815185815290810184905285917f70aea62941eaea7f42402dd58e32c3147d00156f9fc574bee920fbd14c6829d291015b60405180910390a250505050565b6002546040516369762fe560e11b81526004810184905283916001600160a01b03169063d2ec5fca90602401602060405180830381865afa158015610982573d6000803e3d6000fd5b505050506040513d601f19601f820116820180604052508101906109a69190612486565b42106109f45760405162461bcd60e51b815260206004820152601060248201527f504f4c5943554c455f455850495245440000000000000000000000000000000060448201526064016104cd565b6001546002546040517ff61ccd53000000000000000000000000000000000000000000000000000000008152600481018490526001600160a01b03928316926302571be392169063f61ccd5390602401602060405180830381865afa158015610a61573d6000803e3d6000fd5b505050506040513d601f19601f82011682018060405250810190610a859190612486565b6040518263ffffffff1660e01b8152600401610aa391815260200190565b602060405180830381865afa158015610ac0573d6000803e3d6000fd5b505050506040513d601f19601f82011682018060405250810190610ae4919061249f565b6001600160a01b0316336001600160a01b031614610b445760405162461bcd60e51b815260206004820152600e60248201527f4e4f545f415554484f524953454400000000000000000000000000000000000060448201526064016104cd565b6000838152600460205260409020610b5c838261265e565b50827ffd6daaf738297ede78acf9eb128bcc41af0941fe83f57d3c3dbf9860acefb71d83604051610b8d91906122ea565b60405180910390a2505050565b6002546040516369762fe560e11b8152600481018390526000916001600160a01b03169063d2ec5fca90602401602060405180830381865afa158015610be4573d6000803e3d6000fd5b505050506040513d601f19601f82011682018060405250810190610c089190612486565b4210610c565760405162461bcd60e51b815260206004820152601060248201527f504f4c5943554c455f455850495245440000000000000000000000000000000060448201526064016104cd565b6000828152600660209081526040808320603c845290915281208054610c7b906124cc565b80601f0160208091040260200160405190810160405280929190818152602001828054610ca7906124cc565b8015610cf45780601f10610cc957610100808354040283529160200191610cf4565b820191906000526020600020905b815481529060010190602001808311610cd757829003601f168201915b505050505090508051600003610dfb576001546002546040517ff61ccd53000000000000000000000000000000000000000000000000000000008152600481018690526001600160a01b03928316926302571be392169063f61ccd5390602401602060405180830381865afa158015610d71573d6000803e3d6000fd5b505050506040513d601f19601f82011682018060405250810190610d959190612486565b6040518263ffffffff1660e01b8152600401610db391815260200190565b602060405180830381865afa158015610dd0573d6000803e3d6000fd5b505050506040513d601f19601f82011682018060405250810190610df4919061249f565b9392505050565b610df48161271e565b6002546040516369762fe560e11b8152600481018590526060916001600160a01b03169063d2ec5fca90602401602060405180830381865afa158015610e4e573d6000803e3d6000fd5b505050506040513d601f19601f82011682018060405250810190610e729190612486565b4210610ec05760405162461bcd60e51b815260206004820152601060248201527f504f4c5943554c455f455850495245440000000000000000000000000000000060448201526064016104cd565b600084815260056020526040908190209051610edf90859085906124bc565b90815260200160405180910390208054610ef8906124cc565b80601f0160208091040260200160405190810160405280929190818152602001828054610f24906124cc565b8015610f715780601f10610f4657610100808354040283529160200191610f71565b820191906000526020600020905b815481529060010190602001808311610f5457829003601f168201915b505050505090509392505050565b60008054906101000a90046001600160a01b03166001600160a01b031663f079914f6040518163ffffffff1660e01b8152600401602060405180830381865afa158015610fd0573d6000803e3d6000fd5b505050506040513d601f19601f82011682018060405250810190610ff4919061249f565b6001600160a01b0316336001600160a01b0316146110c55760008054906101000a90046001600160a01b03166001600160a01b031663f079914f6040518163ffffffff1660e01b8152600401602060405180830381865afa15801561105d573d6000803e3d6000fd5b505050506040513d601f19601f82011682018060405250810190611081919061249f565b6040517f8ea458f60000000000000000000000000000000000000000000000000000000081526001600160a01b0390911660048201523360248201526044016104cd565b6000805260046020527f17ef568e3e12ab5b9c7254a8d58478811de00f9e6eb34345acd53bf8fd09d3ec6110f9828261265e565b5050565b6000805260046020527f17ef568e3e12ab5b9c7254a8d58478811de00f9e6eb34345acd53bf8fd09d3ec805460609190611136906124cc565b80601f0160208091040260200160405190810160405280929190818152602001828054611162906124cc565b80156111af5780601f10611184576101008083540402835291602001916111af565b820191906000526020600020905b81548152906001019060200180831161119257829003601f168201915b5050505050905090565b60008060009054906101000a90046001600160a01b03166001600160a01b031663f079914f6040518163ffffffff1660e01b8152600401602060405180830381865afa15801561120d573d6000803e3d6000fd5b505050506040513d601f19601f82011682018060405250810190611231919061249f565b6001600160a01b03164760405160006040518083038185875af1925050503d806000811461127b576040519150601f19603f3d011682016040523d82523d6000602084013e611280565b606091505b50509050806112d15760405162461bcd60e51b815260206004820152601360248201527f4554485f5452414e534645525f4641494c45440000000000000000000000000060448201526064016104cd565b50565b6002546040516369762fe560e11b8152600481018490526000916001600160a01b03169063d2ec5fca90602401602060405180830381865afa15801561131e573d6000803e3d6000fd5b505050506040513d601f19601f820116820180604052508101906113429190612486565b42106113905760405162461bcd60e51b815260206004820152601060248201527f504f4c5943554c455f455850495245440000000000000000000000000000000060448201526064016104cd565b6000838152600660209081526040808320858452909152812080546113b4906124cc565b80601f01602080910402602001604051908101604052809291908181526020018280546113e0906124cc565b801561142d5780601f106114025761010080835404028352916020019161142d565b820191906000526020600020905b81548152906001019060200180831161141057829003601f168201915b5050505050905080516000148015611445575082603c145b15611587576001546002546040517ff61ccd53000000000000000000000000000000000000000000000000000000008152600481018790526001600160a01b03928316926302571be392169063f61ccd5390602401602060405180830381865afa1580156114b7573d6000803e3d6000fd5b505050506040513d601f19601f820116820180604052508101906114db9190612486565b6040518263ffffffff1660e01b81526004016114f991815260200190565b602060405180830381865afa158015611516573d6000803e3d6000fd5b505050506040513d601f19601f8201168201806040525081019061153a919061249f565b604051602001611575919060609190911b7fffffffffffffffffffffffffffffffffffffffff00000000000000000000000016815260140190565b60405160208183030381529060405290505b6115908161271e565b949350505050565b6002546040516369762fe560e11b8152600481018390526060916001600160a01b03169063d2ec5fca90602401602060405180830381865afa1580156115e2573d6000803e3d6000fd5b505050506040513d601f19601f820116820180604052508101906116069190612486565b42106116545760405162461bcd60e51b815260206004820152601060248201527f504f4c5943554c455f455850495245440000000000000000000000000000000060448201526064016104cd565b6000828152600460205260409020805461166d906124cc565b80601f0160208091040260200160405190810160405280929190818152602001828054611699906124cc565b80156116e65780601f106116bb576101008083540402835291602001916116e6565b820191906000526020600020905b8154815290600101906020018083116116c957829003601f168201915b5050505050905080516000036117ac576000805260046020527f17ef568e3e12ab5b9c7254a8d58478811de00f9e6eb34345acd53bf8fd09d3ec805461172b906124cc565b80601f0160208091040260200160405190810160405280929190818152602001828054611757906124cc565b80156117a45780601f10611779576101008083540402835291602001916117a4565b820191906000526020600020905b81548152906001019060200180831161178757829003601f168201915b505050505090505b919050565b60008054906101000a90046001600160a01b03166001600160a01b031663f079914f6040518163ffffffff1660e01b8152600401602060405180830381865afa158015611802573d6000803e3d6000fd5b505050506040513d601f19601f82011682018060405250810190611826919061249f565b6001600160a01b0316336001600160a01b03161461188f5760008054906101000a90046001600160a01b03166001600160a01b031663f079914f6040518163ffffffff1660e01b8152600401602060405180830381865afa15801561105d573d6000803e3d6000fd5b7fffffffff0000000000000000000000000000000000000000000000000000000080831690036119015760405162461bcd60e51b815260206004820152601a60248201527f494e56414c49445f494e544552464143455f53454c4543544f5200000000000060448201526064016104cd565b7fffffffff0000000000000000000000000000000000000000000000000000000091909116600090815260036020526040902080547fffffffffffffffffffffffffffffffffffffffffffffffffffffffffffffff0016911515919091179055565b60008054906101000a90046001600160a01b03166001600160a01b031663f079914f6040518163ffffffff1660e01b8152600401602060405180830381865afa1580156119b4573d6000803e3d6000fd5b505050506040513d601f19601f820116820180604052508101906119d8919061249f565b6001600160a01b0316336001600160a01b031614611a415760008054906101000a90046001600160a01b03166001600160a01b031663f079914f6040518163ffffffff1660e01b8152600401602060405180830381865afa15801561105d573d6000803e3d6000fd5b600080526005602052604051829082907f05b8ccbb9d4d8fb16ea74ce3c29a41f1b461fbdaff4714a0d9a8eb05499746bc90611a8090889088906124bc565b90815260200160405180910390209182611a9b92919061256e565b508383604051611aac9291906124bc565b60405180910390206000801b7f67183f1114fa702d378afb1540cad2f1fb0ce08eb7b86b97303e5db7b827f7338484604051611ae992919061262f565b60405180910390a350505050565b6002546040516369762fe560e11b81526004810184905283916001600160a01b03169063d2ec5fca90602401602060405180830381865afa158015611b40573d6000803e3d6000fd5b505050506040513d601f19601f82011682018060405250810190611b649190612486565b4210611bb25760405162461bcd60e51b815260206004820152601060248201527f504f4c5943554c455f455850495245440000000000000000000000000000000060448201526064016104cd565b6001546002546040517ff61ccd53000000000000000000000000000000000000000000000000000000008152600481018490526001600160a01b03928316926302571be392169063f61ccd5390602401602060405180830381865afa158015611c1f573d6000803e3d6000fd5b505050506040513d601f19601f82011682018060405250810190611c439190612486565b6040518263ffffffff1660e01b8152600401611c6191815260200190565b602060405180830381865afa158015611c7e573d6000803e3d6000fd5b505050506040513d601f19601f82011682018060405250810190611ca2919061249f565b6001600160a01b0316336001600160a01b031614611d025760405162461bcd60e51b815260206004820152600e60248201527f4e4f545f415554484f524953454400000000000000000000000000000000000060448201526064016104cd565b6040517fffffffffffffffffffffffffffffffffffffffff000000000000000000000000606084901b16602082015260340160408051601f19818403018152918152600085815260066020908152828220603c835290522090611d65908261265e565b506040516001600160a01b038316815283907f1ac9282df2fbe826c9af5c86adfeb678816478c19262558e4e71e399fd4a16e990602001610b8d565b6002546040516369762fe560e11b81526004810185905284916001600160a01b03169063d2ec5fca90602401602060405180830381865afa158015611dea573d6000803e3d6000fd5b505050506040513d601f19601f82011682018060405250810190611e0e9190612486565b4210611e5c5760405162461bcd60e51b815260206004820152601060248201527f504f4c5943554c455f455850495245440000000000000000000000000000000060448201526064016104cd565b6001546002546040517ff61ccd53000000000000000000000000000000000000000000000000000000008152600481018490526001600160a01b03928316926302571be392169063f61ccd5390602401602060405180830381865afa158015611ec9573d6000803e3d6000fd5b505050506040513d601f19601f82011682018060405250810190611eed9190612486565b6040518263ffffffff1660e01b8152600401611f0b91815260200190565b602060405180830381865afa158015611f28573d6000803e3d6000fd5b505050506040513d601f19601f82011682018060405250810190611f4c919061249f565b6001600160a01b0316336001600160a01b031614611fac5760405162461bcd60e51b815260206004820152600e60248201527f4e4f545f415554484f524953454400000000000000000000000000000000000060448201526064016104cd565b60008481526006602090815260408083208684529091529020611fcf838261265e565b50837f91f951276447c3816ca159edb0a9492e803b9355af1feadf2fa4371af2f070af848460405161092b929190612742565b80357fffffffff00000000000000000000000000000000000000000000000000000000811681146117ac57600080fd5b60006020828403121561204457600080fd5b610df482612002565b60008083601f84011261205f57600080fd5b50813567ffffffffffffffff81111561207757600080fd5b60208301915083602082850101111561208f57600080fd5b9250929050565b6000806000806000606086880312156120ae57600080fd5b85359450602086013567ffffffffffffffff808211156120cd57600080fd5b6120d989838a0161204d565b909650945060408801359150808211156120f257600080fd5b506120ff8882890161204d565b969995985093965092949392505050565b60008060006060848603121561212557600080fd5b505081359360208301359350604090920135919050565b7f4e487b7100000000000000000000000000000000000000000000000000000000600052604160045260246000fd5b600082601f83011261217c57600080fd5b813567ffffffffffffffff808211156121975761219761213c565b604051601f8301601f19908116603f011681019082821181831017156121bf576121bf61213c565b816040528381528660208588010111156121d857600080fd5b836020870160208301376000602085830101528094505050505092915050565b6000806040838503121561220b57600080fd5b82359150602083013567ffffffffffffffff81111561222957600080fd5b6122358582860161216b565b9150509250929050565b60006020828403121561225157600080fd5b5035919050565b60008060006040848603121561226d57600080fd5b83359250602084013567ffffffffffffffff81111561228b57600080fd5b6122978682870161204d565b9497909650939450505050565b6000815180845260005b818110156122ca576020818501810151868301820152016122ae565b506000602082860101526020601f19601f83011685010191505092915050565b602081526000610df460208301846122a4565b60006020828403121561230f57600080fd5b813567ffffffffffffffff81111561232657600080fd5b6115908482850161216b565b6000806040838503121561234557600080fd5b50508035926020909101359150565b6000806040838503121561236757600080fd5b61237083612002565b91506020830135801515811461238557600080fd5b809150509250929050565b600080600080604085870312156123a657600080fd5b843567ffffffffffffffff808211156123be57600080fd5b6123ca8883890161204d565b909650945060208701359150808211156123e357600080fd5b506123f08782880161204d565b95989497509550505050565b6001600160a01b03811681146112d157600080fd5b6000806040838503121561242457600080fd5b823591506020830135612385816123fc565b60008060006060848603121561244b57600080fd5b8335925060208401359150604084013567ffffffffffffffff81111561247057600080fd5b61247c8682870161216b565b9150509250925092565b60006020828403121561249857600080fd5b5051919050565b6000602082840312156124b157600080fd5b8151610df4816123fc565b8183823760009101908152919050565b600181811c908216806124e057607f821691505b602082108103612519577f4e487b7100000000000000000000000000000000000000000000000000000000600052602260045260246000fd5b50919050565b601f82111561256957600081815260208120601f850160051c810160208610156125465750805b601f850160051c820191505b8181101561256557828155600101612552565b5050505b505050565b67ffffffffffffffff8311156125865761258661213c565b61259a8361259483546124cc565b8361251f565b6000601f8411600181146125ce57600085156125b65750838201355b600019600387901b1c1916600186901b178355612628565b600083815260209020601f19861690835b828110156125ff57868501358255602094850194600190920191016125df565b508682101561261c5760001960f88860031b161c19848701351681555b505060018560011b0183555b5050505050565b60208152816020820152818360408301376000818301604090810191909152601f909201601f19160101919050565b815167ffffffffffffffff8111156126785761267861213c565b61268c8161268684546124cc565b8461251f565b602080601f8311600181146126c157600084156126a95750858301515b600019600386901b1c1916600185901b178555612565565b600085815260208120601f198616915b828110156126f0578886015182559484019460019091019084016126d1565b508582101561270e5787850151600019600388901b60f8161c191681555b5050505050600190811b01905550565b805160208083015191908110156125195760001960209190910360031b1b16919050565b82815260406020820152600061159060408301846122a456fea26469706673582212205b9c04dd253c936bbfd569161fd3f9eb4df5769937e6b3f38cd920c77f9fa37f64736f6c63430008100033e5010172002408011220a7448dcfc00e746c22e238de5c1e3b6fb97bae0949e47741b4e0ae8e929abd4f",
    "linkReferences": {}
  },
  "methodIdentifiers": {
    "DefaultContenthash()": "69be8bb0",
    "HELIX2()": "b782426e",
    "NAMES()": "05e84aa0",
    "POLYCULES()": "d9ebda12",
    "addr(bytes32)": "3b3b57de",
    "addr2(bytes32,uint256)": "78237b03",
    "contenthash(bytes32)": "bc1c58d1",
    "pubkey(bytes32)": "c8690233",
    "setAddress(bytes32,address)": "ca446dd9",
    "setAddressCoin(bytes32,uint256,bytes)": "f5aed68f",
    "setContenthash(bytes32,bytes)": "304e6ade",
    "setDefaultContenthash(bytes)": "5d81d553",
    "setDefaultText(string,string)": "c9b69059",
    "setInterface(bytes4,bool)": "c0a43a7c",
    "setPubkey(bytes32,bytes32,bytes32)": "29cd62ea",
    "setText(bytes32,string,string)": "10f13a8c",
    "supportsInterface(bytes4)": "01ffc9a7",
    "text(bytes32,string)": "59d1d43c",
    "withdrawEther()": "7362377b"
  },
  "id": 44
}