{
  "abi": [
    {
      "inputs": [],
      "stateMutability": "nonpayable",
      "type": "constructor"
    },
    {
      "inputs": [
        {
          "internalType": "address",
          "name": "_dev",
          "type": "address"
        },
        {
          "internalType": "address",
          "name": "_you",
          "type": "address"
        }
      ],
      "name": "OnlyDev",
      "type": "error"
    },
    {
      "anonymous": false,
      "inputs": [
        {
          "indexed": false,
          "internalType": "uint256",
          "name": "index",
          "type": "uint256"
        },
        {
          "indexed": false,
          "internalType": "uint256",
          "name": "newPrice",
          "type": "uint256"
        }
      ],
      "name": "NewPrice",
      "type": "event"
    },
    {
      "anonymous": false,
      "inputs": [
        {
          "indexed": false,
          "internalType": "uint256[4]",
          "name": "newPrices",
          "type": "uint256[4]"
        }
      ],
      "name": "NewPrices",
      "type": "event"
    },
    {
      "stateMutability": "payable",
      "type": "fallback"
    },
    {
      "inputs": [],
      "name": "Dev",
      "outputs": [
        {
          "internalType": "address",
          "name": "",
          "type": "address"
        }
      ],
      "stateMutability": "view",
      "type": "function"
    },
    {
      "inputs": [],
      "name": "getPrices",
      "outputs": [
        {
          "internalType": "uint256[4]",
          "name": "",
          "type": "uint256[4]"
        }
      ],
      "stateMutability": "view",
      "type": "function"
    },
    {
      "inputs": [
        {
          "internalType": "uint256",
          "name": "",
          "type": "uint256"
        }
      ],
      "name": "prices",
      "outputs": [
        {
          "internalType": "uint256",
          "name": "",
          "type": "uint256"
        }
      ],
      "stateMutability": "view",
      "type": "function"
    },
    {
      "inputs": [
        {
          "internalType": "uint256",
          "name": "index",
          "type": "uint256"
        },
        {
          "internalType": "uint256",
          "name": "newPrice",
          "type": "uint256"
        }
      ],
      "name": "setPrice",
      "outputs": [],
      "stateMutability": "nonpayable",
      "type": "function"
    },
    {
      "inputs": [
        {
          "internalType": "uint256[4]",
          "name": "newPrices",
          "type": "uint256[4]"
        }
      ],
      "name": "setPrices",
      "outputs": [],
      "stateMutability": "nonpayable",
      "type": "function"
    },
    {
      "stateMutability": "payable",
      "type": "receive"
    }
  ],
  "bytecode": {
    "object": "0x61010060405262030d40608081815260a082905260c082905260e09190915261002c906001906004610051565b5034801561003957600080fd5b50600080546001600160a01b031916331790556100ab565b8260048101928215610086579160200282015b82811115610086578251829062ffffff16905591602001919060010190610064565b50610092929150610096565b5090565b5b808211156100925760008155600101610097565b6104a7806100ba6000396000f3fe60806040526004361061005e5760003560e01c8063bc31c1c111610043578063bc31c1c1146100e6578063bd9a548b14610114578063f7d975771461013657600080fd5b806301e51ae81461006d578063548346a1146100c457600080fd5b3661006857600080fd5b600080fd5b34801561007957600080fd5b5060005461009a9073ffffffffffffffffffffffffffffffffffffffff1681565b60405173ffffffffffffffffffffffffffffffffffffffff90911681526020015b60405180910390f35b3480156100d057600080fd5b506100e46100df36600461039f565b610156565b005b3480156100f257600080fd5b506101066101013660046103c7565b610216565b6040519081526020016100bb565b34801561012057600080fd5b5061012961022d565b6040516100bb91906103e0565b34801561014257600080fd5b506100e4610151366004610411565b610268565b60005473ffffffffffffffffffffffffffffffffffffffff1633146101ce576000546040517f8ea458f600000000000000000000000000000000000000000000000000000000815273ffffffffffffffffffffffffffffffffffffffff90911660048201523360248201526044015b60405180910390fd5b7f6116f7116dde91a0e9e26d165df2ff4da2a8825e58929b222641cc28d2e44f0e816040516101fd9190610433565b60405180910390a1610212600182600461032e565b5050565b6001816004811061022657600080fd5b0154905081565b61023561036c565b6040805160808101918290529060019060049082845b81548152602001906001019080831161024b575050505050905090565b60005473ffffffffffffffffffffffffffffffffffffffff1633146102db576000546040517f8ea458f600000000000000000000000000000000000000000000000000000000815273ffffffffffffffffffffffffffffffffffffffff90911660048201523360248201526044016101c5565b60408051838152602081018390527fb9362b96e28efbb7a7e63bb4a97faf9924ec0394635feff8588a6ae2a5f784fe910160405180910390a1806001836004811061032857610328610442565b01555050565b826004810192821561035c579160200282015b8281111561035c578235825591602001919060010190610341565b5061036892915061038a565b5090565b60405180608001604052806004906020820280368337509192915050565b5b80821115610368576000815560010161038b565b6000608082840312156103b157600080fd5b826080830111156103c157600080fd5b50919050565b6000602082840312156103d957600080fd5b5035919050565b60808101818360005b60048110156104085781518352602092830192909101906001016103e9565b50505092915050565b6000806040838503121561042457600080fd5b50508035926020909101359150565b60808181019083833792915050565b7f4e487b7100000000000000000000000000000000000000000000000000000000600052603260045260246000fdfea264697066735822122007ba0b89eaf76bc1926d8fe088ba1aeb802173cc9b3c653ba03b9ce9a1d07da564736f6c63430008100033",
    "linkReferences": {}
  },
  "methodIdentifiers": {
    "Dev()": "01e51ae8",
    "getPrices()": "bd9a548b",
    "prices(uint256)": "bc31c1c1",
    "setPrice(uint256,uint256)": "f7d97577",
    "setPrices(uint256[4])": "548346a1"
  },
  "id": 38
}