{
  "abi": [
    {
      "inputs": [],
      "stateMutability": "nonpayable",
      "type": "constructor"
    },
    {
      "inputs": [
        {
          "internalType": "address",
          "name": "_dev",
          "type": "address"
        },
        {
          "internalType": "address",
          "name": "_you",
          "type": "address"
        }
      ],
      "name": "OnlyDev",
      "type": "error"
    },
    {
      "anonymous": false,
      "inputs": [
        {
          "indexed": false,
          "internalType": "uint256",
          "name": "index",
          "type": "uint256"
        },
        {
          "indexed": false,
          "internalType": "uint256",
          "name": "newPrice",
          "type": "uint256"
        }
      ],
      "name": "NewPrice",
      "type": "event"
    },
    {
      "anonymous": false,
      "inputs": [
        {
          "indexed": false,
          "internalType": "uint256[4]",
          "name": "newPrices",
          "type": "uint256[4]"
        }
      ],
      "name": "NewPrices",
      "type": "event"
    },
    {
      "anonymous": false,
      "inputs": [
        {
          "indexed": true,
          "internalType": "address",
          "name": "previousOwner",
          "type": "address"
        },
        {
          "indexed": true,
          "internalType": "address",
          "name": "newOwner",
          "type": "address"
        }
      ],
      "name": "OwnershipTransferred",
      "type": "event"
    },
    {
      "stateMutability": "payable",
      "type": "fallback"
    },
    {
      "inputs": [],
      "name": "Dev",
      "outputs": [
        {
          "internalType": "address",
          "name": "",
          "type": "address"
        }
      ],
      "stateMutability": "view",
      "type": "function"
    },
    {
      "inputs": [],
      "name": "active",
      "outputs": [
        {
          "internalType": "bool",
          "name": "",
          "type": "bool"
        }
      ],
      "stateMutability": "view",
      "type": "function"
    },
    {
      "inputs": [],
      "name": "getPrices",
      "outputs": [
        {
          "internalType": "uint256[4]",
          "name": "",
          "type": "uint256[4]"
        }
      ],
      "stateMutability": "view",
      "type": "function"
    },
    {
      "inputs": [],
      "name": "owner",
      "outputs": [
        {
          "internalType": "address",
          "name": "",
          "type": "address"
        }
      ],
      "stateMutability": "view",
      "type": "function"
    },
    {
      "inputs": [
        {
          "internalType": "uint256",
          "name": "",
          "type": "uint256"
        }
      ],
      "name": "prices",
      "outputs": [
        {
          "internalType": "uint256",
          "name": "",
          "type": "uint256"
        }
      ],
      "stateMutability": "view",
      "type": "function"
    },
    {
      "inputs": [
        {
          "internalType": "bytes4",
          "name": "sig",
          "type": "bytes4"
        },
        {
          "internalType": "bool",
          "name": "value",
          "type": "bool"
        }
      ],
      "name": "setInterface",
      "outputs": [],
      "stateMutability": "payable",
      "type": "function"
    },
    {
      "inputs": [
        {
          "internalType": "uint256",
          "name": "index",
          "type": "uint256"
        },
        {
          "internalType": "uint256",
          "name": "newPrice",
          "type": "uint256"
        }
      ],
      "name": "setPrice",
      "outputs": [],
      "stateMutability": "nonpayable",
      "type": "function"
    },
    {
      "inputs": [
        {
          "internalType": "uint256[4]",
          "name": "newPrices",
          "type": "uint256[4]"
        }
      ],
      "name": "setPrices",
      "outputs": [],
      "stateMutability": "nonpayable",
      "type": "function"
    },
    {
      "inputs": [
        {
          "internalType": "bytes4",
          "name": "",
          "type": "bytes4"
        }
      ],
      "name": "supportsInterface",
      "outputs": [
        {
          "internalType": "bool",
          "name": "",
          "type": "bool"
        }
      ],
      "stateMutability": "view",
      "type": "function"
    },
    {
      "inputs": [],
      "name": "toggleActive",
      "outputs": [],
      "stateMutability": "nonpayable",
      "type": "function"
    },
    {
      "inputs": [
        {
          "internalType": "address",
          "name": "newDev",
          "type": "address"
        }
      ],
      "name": "transferOwnership",
      "outputs": [],
      "stateMutability": "nonpayable",
      "type": "function"
    },
    {
      "stateMutability": "payable",
      "type": "receive"
    }
  ],
  "bytecode": {
    "object": "0x6000805460ff60a01b1916600160a01b17905561010060405262030d40608081815260a082905260c082905260e09190915261003f9060029060046100cd565b5034801561004c57600080fd5b50600080546001600160a01b03191633178155600160208190527f5b0d9cd8d82e663de8e012755da650fbb11d5a2dc71113a23ff19a524a622cb1805460ff1990811683179091556307f5828d60e41b9092527f7e9463c460c0c6edecaec6127ea051f2eccdda55fb16c24b6f8e37d490a8d7a88054909216179055610127565b8260048101928215610102579160200282015b82811115610102578251829062ffffff169055916020019190600101906100e0565b5061010e929150610112565b5090565b5b8082111561010e5760008155600101610113565b6109d8806101366000396000f3fe6080604052600436106100c05760003560e01c80638da5cb5b11610074578063c0a43a7c1161004e578063c0a43a7c1461024a578063f2fde38b1461025d578063f7d975771461027d57600080fd5b80638da5cb5b146101cf578063bc31c1c1146101fa578063bd9a548b1461022857600080fd5b806302fb0c5e116100a557806302fb0c5e1461016657806329c68dc114610198578063548346a1146101af57600080fd5b806301e51ae8146100cf57806301ffc9a71461012657600080fd5b366100ca57600080fd5b600080fd5b3480156100db57600080fd5b506000546100fc9073ffffffffffffffffffffffffffffffffffffffff1681565b60405173ffffffffffffffffffffffffffffffffffffffff90911681526020015b60405180910390f35b34801561013257600080fd5b5061015661014136600461083c565b60016020526000908152604090205460ff1681565b604051901515815260200161011d565b34801561017257600080fd5b506000546101569074010000000000000000000000000000000000000000900460ff1681565b3480156101a457600080fd5b506101ad61029d565b005b3480156101bb57600080fd5b506101ad6101ca36600461085e565b610362565b3480156101db57600080fd5b5060005473ffffffffffffffffffffffffffffffffffffffff166100fc565b34801561020657600080fd5b5061021a610215366004610886565b61041d565b60405190815260200161011d565b34801561023457600080fd5b5061023d610434565b60405161011d919061089f565b6101ad6102583660046108d0565b61046f565b34801561026957600080fd5b506101ad61027836600461090c565b6105d0565b34801561028957600080fd5b506101ad610298366004610942565b6106d0565b60005473ffffffffffffffffffffffffffffffffffffffff163314610315576000546040517f8ea458f600000000000000000000000000000000000000000000000000000000815273ffffffffffffffffffffffffffffffffffffffff90911660048201523360248201526044015b60405180910390fd5b600080547fffffffffffffffffffffff00ffffffffffffffffffffffffffffffffffffffff8116740100000000000000000000000000000000000000009182900460ff1615909102179055565b60005473ffffffffffffffffffffffffffffffffffffffff1633146103d5576000546040517f8ea458f600000000000000000000000000000000000000000000000000000000815273ffffffffffffffffffffffffffffffffffffffff909116600482015233602482015260440161030c565b7f6116f7116dde91a0e9e26d165df2ff4da2a8825e58929b222641cc28d2e44f0e816040516104049190610964565b60405180910390a16104196002826004610796565b5050565b6002816004811061042d57600080fd5b0154905081565b61043c6107d4565b6040805160808101918290529060029060049082845b815481526020019060010190808311610452575050505050905090565b60005473ffffffffffffffffffffffffffffffffffffffff1633146104e2576000546040517f8ea458f600000000000000000000000000000000000000000000000000000000815273ffffffffffffffffffffffffffffffffffffffff909116600482015233602482015260440161030c565b7fffffffff00000000000000000000000000000000000000000000000000000000808316900361056e576040517f08c379a000000000000000000000000000000000000000000000000000000000815260206004820152601a60248201527f494e56414c49445f494e544552464143455f53454c4543544f52000000000000604482015260640161030c565b7fffffffff0000000000000000000000000000000000000000000000000000000091909116600090815260016020526040902080547fffffffffffffffffffffffffffffffffffffffffffffffffffffffffffffff0016911515919091179055565b60005473ffffffffffffffffffffffffffffffffffffffff163314610643576000546040517f8ea458f600000000000000000000000000000000000000000000000000000000815273ffffffffffffffffffffffffffffffffffffffff909116600482015233602482015260440161030c565b6000805460405173ffffffffffffffffffffffffffffffffffffffff808516939216917f8be0079c531659141344cd1fd0a4f28419497f9722a3daafe3b4186f6b6457e091a3600080547fffffffffffffffffffffffff00000000000000000000000000000000000000001673ffffffffffffffffffffffffffffffffffffffff92909216919091179055565b60005473ffffffffffffffffffffffffffffffffffffffff163314610743576000546040517f8ea458f600000000000000000000000000000000000000000000000000000000815273ffffffffffffffffffffffffffffffffffffffff909116600482015233602482015260440161030c565b60408051838152602081018390527fb9362b96e28efbb7a7e63bb4a97faf9924ec0394635feff8588a6ae2a5f784fe910160405180910390a1806002836004811061079057610790610973565b01555050565b82600481019282156107c4579160200282015b828111156107c45782358255916020019190600101906107a9565b506107d09291506107f2565b5090565b60405180608001604052806004906020820280368337509192915050565b5b808211156107d057600081556001016107f3565b80357fffffffff000000000000000000000000000000000000000000000000000000008116811461083757600080fd5b919050565b60006020828403121561084e57600080fd5b61085782610807565b9392505050565b60006080828403121561087057600080fd5b8260808301111561088057600080fd5b50919050565b60006020828403121561089857600080fd5b5035919050565b60808101818360005b60048110156108c75781518352602092830192909101906001016108a8565b50505092915050565b600080604083850312156108e357600080fd5b6108ec83610807565b91506020830135801515811461090157600080fd5b809150509250929050565b60006020828403121561091e57600080fd5b813573ffffffffffffffffffffffffffffffffffffffff8116811461085757600080fd5b6000806040838503121561095557600080fd5b50508035926020909101359150565b60808181019083833792915050565b7f4e487b7100000000000000000000000000000000000000000000000000000000600052603260045260246000fdfea2646970667358221220a099348bf9ef7a21d32377444d19b327f14f7c2058d2a4c37726aa7892547f0364736f6c63430008100033",
    "linkReferences": {}
  },
  "methodIdentifiers": {
    "Dev()": "01e51ae8",
    "active()": "02fb0c5e",
    "getPrices()": "bd9a548b",
    "owner()": "8da5cb5b",
    "prices(uint256)": "bc31c1c1",
    "setInterface(bytes4,bool)": "c0a43a7c",
    "setPrice(uint256,uint256)": "f7d97577",
    "setPrices(uint256[4])": "548346a1",
    "supportsInterface(bytes4)": "01ffc9a7",
    "toggleActive()": "29c68dc1",
    "transferOwnership(address)": "f2fde38b"
  },
  "id": 40
}