{
  "abi": [
    {
      "inputs": [
        {
          "internalType": "address",
          "name": "_registry",
          "type": "address"
        },
        {
          "internalType": "address",
          "name": "_helix2",
          "type": "address"
        },
        {
          "internalType": "address",
          "name": "_priceOracle",
          "type": "address"
        }
      ],
      "stateMutability": "nonpayable",
      "type": "constructor"
    },
    {
      "inputs": [],
      "name": "BAD_ANION",
      "type": "error"
    },
    {
      "inputs": [],
      "name": "BAD_HOOK",
      "type": "error"
    },
    {
      "inputs": [],
      "name": "BAD_RULE",
      "type": "error"
    },
    {
      "anonymous": false,
      "inputs": [
        {
          "indexed": true,
          "internalType": "bytes32",
          "name": "polyhash",
          "type": "bytes32"
        },
        {
          "indexed": false,
          "internalType": "address",
          "name": "config",
          "type": "address"
        },
        {
          "indexed": false,
          "internalType": "uint8",
          "name": "rule",
          "type": "uint8"
        }
      ],
      "name": "Hooked",
      "type": "event"
    },
    {
      "anonymous": false,
      "inputs": [
        {
          "indexed": true,
          "internalType": "bytes32",
          "name": "polyhash",
          "type": "bytes32"
        },
        {
          "indexed": false,
          "internalType": "bytes32",
          "name": "anion",
          "type": "bytes32"
        }
      ],
      "name": "NewAnion",
      "type": "event"
    },
    {
      "anonymous": false,
      "inputs": [
        {
          "indexed": true,
          "internalType": "bytes32",
          "name": "polyhash",
          "type": "bytes32"
        },
        {
          "indexed": false,
          "internalType": "bytes32[]",
          "name": "anion",
          "type": "bytes32[]"
        }
      ],
      "name": "NewAnions",
      "type": "event"
    },
    {
      "anonymous": false,
      "inputs": [
        {
          "indexed": true,
          "internalType": "bytes32",
          "name": "polyhash",
          "type": "bytes32"
        },
        {
          "indexed": false,
          "internalType": "bytes32",
          "name": "cation",
          "type": "bytes32"
        }
      ],
      "name": "NewCation",
      "type": "event"
    },
    {
      "anonymous": false,
      "inputs": [
        {
          "indexed": true,
          "internalType": "bytes32",
          "name": "polyhash",
          "type": "bytes32"
        },
        {
          "indexed": false,
          "internalType": "address",
          "name": "controller",
          "type": "address"
        }
      ],
      "name": "NewController",
      "type": "event"
    },
    {
      "anonymous": false,
      "inputs": [
        {
          "indexed": true,
          "internalType": "bytes32",
          "name": "polyhash",
          "type": "bytes32"
        },
        {
          "indexed": false,
          "internalType": "bool",
          "name": "covalence",
          "type": "bool"
        }
      ],
      "name": "NewCovalence",
      "type": "event"
    },
    {
      "anonymous": false,
      "inputs": [
        {
          "indexed": true,
          "internalType": "bytes32",
          "name": "polyhash",
          "type": "bytes32"
        },
        {
          "indexed": false,
          "internalType": "uint256",
          "name": "expiry",
          "type": "uint256"
        }
      ],
      "name": "NewExpiry",
      "type": "event"
    },
    {
      "anonymous": false,
      "inputs": [
        {
          "indexed": true,
          "internalType": "bytes32",
          "name": "polyhash",
          "type": "bytes32"
        },
        {
          "indexed": false,
          "internalType": "address",
          "name": "resolver",
          "type": "address"
        }
      ],
      "name": "NewResolver",
      "type": "event"
    },
    {
      "anonymous": false,
      "inputs": [
        {
          "indexed": true,
          "internalType": "address",
          "name": "previousOwner",
          "type": "address"
        },
        {
          "indexed": true,
          "internalType": "address",
          "name": "newOwner",
          "type": "address"
        }
      ],
      "name": "OwnershipTransferred",
      "type": "event"
    },
    {
      "anonymous": false,
      "inputs": [
        {
          "indexed": true,
          "internalType": "bytes32",
          "name": "polyhash",
          "type": "bytes32"
        },
        {
          "indexed": false,
          "internalType": "bytes32",
          "name": "anion",
          "type": "bytes32"
        }
      ],
      "name": "PopAnion",
      "type": "event"
    },
    {
      "anonymous": false,
      "inputs": [
        {
          "indexed": true,
          "internalType": "bytes32",
          "name": "polyhash",
          "type": "bytes32"
        },
        {
          "indexed": false,
          "internalType": "address",
          "name": "config",
          "type": "address"
        },
        {
          "indexed": false,
          "internalType": "uint8",
          "name": "rule",
          "type": "uint8"
        }
      ],
      "name": "RehookedConfig",
      "type": "event"
    },
    {
      "anonymous": false,
      "inputs": [
        {
          "indexed": true,
          "internalType": "bytes32",
          "name": "polyhash",
          "type": "bytes32"
        }
      ],
      "name": "UnhookedAll",
      "type": "event"
    },
    {
      "anonymous": false,
      "inputs": [
        {
          "indexed": true,
          "internalType": "bytes32",
          "name": "polyhash",
          "type": "bytes32"
        },
        {
          "indexed": false,
          "internalType": "uint8",
          "name": "rule",
          "type": "uint8"
        }
      ],
      "name": "UnhookedConfig",
      "type": "event"
    },
    {
      "inputs": [],
      "name": "Dev",
      "outputs": [
        {
          "internalType": "address",
          "name": "",
          "type": "address"
        }
      ],
      "stateMutability": "view",
      "type": "function"
    },
    {
      "inputs": [],
      "name": "HELIX2",
      "outputs": [
        {
          "internalType": "contract iHELIX2",
          "name": "",
          "type": "address"
        }
      ],
      "stateMutability": "view",
      "type": "function"
    },
    {
      "inputs": [],
      "name": "NAMES",
      "outputs": [
        {
          "internalType": "contract iNAME",
          "name": "",
          "type": "address"
        }
      ],
      "stateMutability": "view",
      "type": "function"
    },
    {
      "inputs": [],
      "name": "PRICES",
      "outputs": [
        {
          "internalType": "contract iPriceOracle",
          "name": "",
          "type": "address"
        }
      ],
      "stateMutability": "view",
      "type": "function"
    },
    {
      "inputs": [],
      "name": "Registrar",
      "outputs": [
        {
          "internalType": "address",
          "name": "",
          "type": "address"
        }
      ],
      "stateMutability": "view",
      "type": "function"
    },
    {
      "inputs": [],
      "name": "STORE",
      "outputs": [
        {
          "internalType": "contract iPOLYCULE",
          "name": "",
          "type": "address"
        }
      ],
      "stateMutability": "view",
      "type": "function"
    },
    {
      "inputs": [],
      "name": "active",
      "outputs": [
        {
          "internalType": "bool",
          "name": "",
          "type": "bool"
        }
      ],
      "stateMutability": "view",
      "type": "function"
    },
    {
      "inputs": [
        {
          "internalType": "bytes32",
          "name": "polyhash",
          "type": "bytes32"
        },
        {
          "internalType": "bytes32",
          "name": "_anion",
          "type": "bytes32"
        },
        {
          "internalType": "address",
          "name": "config",
          "type": "address"
        },
        {
          "internalType": "uint8",
          "name": "rule",
          "type": "uint8"
        }
      ],
      "name": "addAnionWithConfig",
      "outputs": [],
      "stateMutability": "nonpayable",
      "type": "function"
    },
    {
      "inputs": [
        {
          "internalType": "bytes32",
          "name": "polyhash",
          "type": "bytes32"
        }
      ],
      "name": "anions",
      "outputs": [
        {
          "internalType": "bytes32[]",
          "name": "",
          "type": "bytes32[]"
        }
      ],
      "stateMutability": "view",
      "type": "function"
    },
    {
      "inputs": [],
      "name": "basePrice",
      "outputs": [
        {
          "internalType": "uint256",
          "name": "",
          "type": "uint256"
        }
      ],
      "stateMutability": "view",
      "type": "function"
    },
    {
      "inputs": [
        {
          "internalType": "bytes32",
          "name": "polyhash",
          "type": "bytes32"
        }
      ],
      "name": "cation",
      "outputs": [
        {
          "internalType": "bytes32",
          "name": "",
          "type": "bytes32"
        }
      ],
      "stateMutability": "view",
      "type": "function"
    },
    {
      "inputs": [
        {
          "internalType": "bytes32",
          "name": "polyhash",
          "type": "bytes32"
        }
      ],
      "name": "controller",
      "outputs": [
        {
          "internalType": "address",
          "name": "",
          "type": "address"
        }
      ],
      "stateMutability": "view",
      "type": "function"
    },
    {
      "inputs": [
        {
          "internalType": "bytes32",
          "name": "polyhash",
          "type": "bytes32"
        }
      ],
      "name": "covalence",
      "outputs": [
        {
          "internalType": "bool",
          "name": "",
          "type": "bool"
        }
      ],
      "stateMutability": "view",
      "type": "function"
    },
    {
      "inputs": [
        {
          "internalType": "bytes32",
          "name": "polyhash",
          "type": "bytes32"
        }
      ],
      "name": "expiry",
      "outputs": [
        {
          "internalType": "uint256",
          "name": "",
          "type": "uint256"
        }
      ],
      "stateMutability": "view",
      "type": "function"
    },
    {
      "inputs": [
        {
          "internalType": "bytes32",
          "name": "_anion",
          "type": "bytes32"
        },
        {
          "internalType": "bytes32",
          "name": "polyhash",
          "type": "bytes32"
        },
        {
          "internalType": "address",
          "name": "config",
          "type": "address"
        },
        {
          "internalType": "uint8",
          "name": "rule",
          "type": "uint8"
        }
      ],
      "name": "hook",
      "outputs": [],
      "stateMutability": "nonpayable",
      "type": "function"
    },
    {
      "inputs": [
        {
          "internalType": "bytes32",
          "name": "polyhash",
          "type": "bytes32"
        }
      ],
      "name": "hooksWithRules",
      "outputs": [
        {
          "internalType": "uint8[]",
          "name": "_rules",
          "type": "uint8[]"
        },
        {
          "internalType": "address[]",
          "name": "_hooks",
          "type": "address[]"
        }
      ],
      "stateMutability": "view",
      "type": "function"
    },
    {
      "inputs": [
        {
          "internalType": "bytes32",
          "name": "polyhash",
          "type": "bytes32"
        }
      ],
      "name": "label",
      "outputs": [
        {
          "internalType": "bytes32",
          "name": "",
          "type": "bytes32"
        }
      ],
      "stateMutability": "view",
      "type": "function"
    },
    {
      "inputs": [],
      "name": "owner",
      "outputs": [
        {
          "internalType": "address",
          "name": "",
          "type": "address"
        }
      ],
      "stateMutability": "view",
      "type": "function"
    },
    {
      "inputs": [
        {
          "internalType": "bytes32",
          "name": "polyhash",
          "type": "bytes32"
        },
        {
          "internalType": "bytes32",
          "name": "_anion",
          "type": "bytes32"
        }
      ],
      "name": "popAnion",
      "outputs": [],
      "stateMutability": "nonpayable",
      "type": "function"
    },
    {
      "inputs": [
        {
          "internalType": "bytes32",
          "name": "polyhash",
          "type": "bytes32"
        }
      ],
      "name": "recordExists",
      "outputs": [
        {
          "internalType": "bool",
          "name": "",
          "type": "bool"
        }
      ],
      "stateMutability": "view",
      "type": "function"
    },
    {
      "inputs": [
        {
          "internalType": "bytes32",
          "name": "polyhash",
          "type": "bytes32"
        },
        {
          "internalType": "bytes32",
          "name": "_cation",
          "type": "bytes32"
        }
      ],
      "name": "register",
      "outputs": [],
      "stateMutability": "nonpayable",
      "type": "function"
    },
    {
      "inputs": [
        {
          "internalType": "bytes32",
          "name": "polyhash",
          "type": "bytes32"
        },
        {
          "internalType": "address",
          "name": "config",
          "type": "address"
        },
        {
          "internalType": "uint8",
          "name": "rule",
          "type": "uint8"
        }
      ],
      "name": "rehook",
      "outputs": [],
      "stateMutability": "nonpayable",
      "type": "function"
    },
    {
      "inputs": [
        {
          "internalType": "bytes32",
          "name": "polyhash",
          "type": "bytes32"
        },
        {
          "internalType": "uint256",
          "name": "_expiry",
          "type": "uint256"
        }
      ],
      "name": "renew",
      "outputs": [],
      "stateMutability": "payable",
      "type": "function"
    },
    {
      "inputs": [
        {
          "internalType": "bytes32",
          "name": "polyhash",
          "type": "bytes32"
        }
      ],
      "name": "resolver",
      "outputs": [
        {
          "internalType": "address",
          "name": "",
          "type": "address"
        }
      ],
      "stateMutability": "view",
      "type": "function"
    },
    {
      "inputs": [],
      "name": "roothash",
      "outputs": [
        {
          "internalType": "bytes32",
          "name": "",
          "type": "bytes32"
        }
      ],
      "stateMutability": "view",
      "type": "function"
    },
    {
      "inputs": [
        {
          "internalType": "bytes32",
          "name": "polyhash",
          "type": "bytes32"
        },
        {
          "internalType": "bytes32[]",
          "name": "_anions",
          "type": "bytes32[]"
        },
        {
          "internalType": "address[]",
          "name": "_hooks",
          "type": "address[]"
        },
        {
          "internalType": "uint8[]",
          "name": "_rules",
          "type": "uint8[]"
        }
      ],
      "name": "setAnions",
      "outputs": [],
      "stateMutability": "nonpayable",
      "type": "function"
    },
    {
      "inputs": [
        {
          "internalType": "bytes32",
          "name": "polyhash",
          "type": "bytes32"
        },
        {
          "internalType": "bytes32",
          "name": "_cation",
          "type": "bytes32"
        }
      ],
      "name": "setCation",
      "outputs": [],
      "stateMutability": "nonpayable",
      "type": "function"
    },
    {
      "inputs": [
        {
          "internalType": "address",
          "name": "_helix2",
          "type": "address"
        },
        {
          "internalType": "address",
          "name": "_priceOracle",
          "type": "address"
        },
        {
          "internalType": "address",
          "name": "_store",
          "type": "address"
        }
      ],
      "name": "setConfig",
      "outputs": [],
      "stateMutability": "nonpayable",
      "type": "function"
    },
    {
      "inputs": [
        {
          "internalType": "bytes32",
          "name": "polyhash",
          "type": "bytes32"
        },
        {
          "internalType": "address",
          "name": "_controller",
          "type": "address"
        }
      ],
      "name": "setController",
      "outputs": [],
      "stateMutability": "nonpayable",
      "type": "function"
    },
    {
      "inputs": [
        {
          "internalType": "bytes32",
          "name": "polyhash",
          "type": "bytes32"
        },
        {
          "internalType": "bool",
          "name": "_covalence",
          "type": "bool"
        }
      ],
      "name": "setCovalence",
      "outputs": [],
      "stateMutability": "nonpayable",
      "type": "function"
    },
    {
      "inputs": [
        {
          "internalType": "bytes32",
          "name": "polyhash",
          "type": "bytes32"
        },
        {
          "internalType": "uint256",
          "name": "_expiry",
          "type": "uint256"
        }
      ],
      "name": "setExpiry",
      "outputs": [],
      "stateMutability": "nonpayable",
      "type": "function"
    },
    {
      "inputs": [
        {
          "internalType": "bytes4",
          "name": "sig",
          "type": "bytes4"
        },
        {
          "internalType": "bool",
          "name": "value",
          "type": "bool"
        }
      ],
      "name": "setInterface",
      "outputs": [],
      "stateMutability": "payable",
      "type": "function"
    },
    {
      "inputs": [
        {
          "internalType": "bytes32",
          "name": "polyhash",
          "type": "bytes32"
        },
        {
          "internalType": "bytes32",
          "name": "_label",
          "type": "bytes32"
        }
      ],
      "name": "setLabel",
      "outputs": [],
      "stateMutability": "nonpayable",
      "type": "function"
    },
    {
      "inputs": [
        {
          "internalType": "bytes32",
          "name": "polyhash",
          "type": "bytes32"
        },
        {
          "internalType": "address",
          "name": "_resolver",
          "type": "address"
        }
      ],
      "name": "setResolver",
      "outputs": [],
      "stateMutability": "nonpayable",
      "type": "function"
    },
    {
      "inputs": [
        {
          "internalType": "bytes4",
          "name": "",
          "type": "bytes4"
        }
      ],
      "name": "supportsInterface",
      "outputs": [
        {
          "internalType": "bool",
          "name": "",
          "type": "bool"
        }
      ],
      "stateMutability": "view",
      "type": "function"
    },
    {
      "inputs": [],
      "name": "theEnd",
      "outputs": [
        {
          "internalType": "uint256",
          "name": "",
          "type": "uint256"
        }
      ],
      "stateMutability": "view",
      "type": "function"
    },
    {
      "inputs": [],
      "name": "toggleActive",
      "outputs": [],
      "stateMutability": "nonpayable",
      "type": "function"
    },
    {
      "inputs": [
        {
          "internalType": "address",
          "name": "newDev",
          "type": "address"
        }
      ],
      "name": "transferOwnership",
      "outputs": [],
      "stateMutability": "nonpayable",
      "type": "function"
    },
    {
      "inputs": [
        {
          "internalType": "bytes32",
          "name": "polyhash",
          "type": "bytes32"
        },
        {
          "internalType": "uint8",
          "name": "rule",
          "type": "uint8"
        }
      ],
      "name": "unhook",
      "outputs": [],
      "stateMutability": "nonpayable",
      "type": "function"
    },
    {
      "inputs": [
        {
          "internalType": "bytes32",
          "name": "polyhash",
          "type": "bytes32"
        }
      ],
      "name": "unhookAll",
      "outputs": [],
      "stateMutability": "nonpayable",
      "type": "function"
    }
  ],
  "bytecode": {
    "object": "0x60806040526004805460ff60a01b1916600160a01b1790556703782dace9d900006009553480156200003057600080fd5b506040516200584a3803806200584a83398101604081905262000053916200020e565b60048054336001600160a01b03199182161782556000805482166001600160a01b03868116918217909255600180549093169187169190911790915560408051633215476b60e11b81529051919263642a8ed69282820192608092908290030181865afa158015620000c9573d6000803e3d6000fd5b505050506040513d601f19601f82011682018060405250810190620000ef91906200028f565b60600151600655600380546001600160a01b0319166001600160a01b0383169081179091556040805163bd9a548b60e01b8152905163bd9a548b916004808201926080929091908290030181865afa15801562000150573d6000803e3d6000fd5b505050506040513d601f19601f820116820180604052508101906200017691906200028f565b6060015160075550506005602052507f4bcc8a24ccebcb02e06809ffdc3dbdc56f736cf28155948650f9bec809bea48e8054600160ff1991821681179092556307f5828d60e41b6000527f744f038481816166db36c1c96c51289c139e33b5b050399f9ec0fad34d16e76880549091169091179055620002f6565b80516001600160a01b03811681146200020957600080fd5b919050565b6000806000606084860312156200022457600080fd5b6200022f84620001f1565b92506200023f60208501620001f1565b91506200024f60408501620001f1565b90509250925092565b604051608081016001600160401b03811182821017156200028957634e487b7160e01b600052604160045260246000fd5b60405290565b600060808284031215620002a257600080fd5b82601f830112620002b257600080fd5b620002bc62000258565b806080840185811115620002cf57600080fd5b845b81811015620002eb578051845260209384019301620002d1565b509095945050505050565b61554480620003066000396000f3fe6080604052600436106102bb5760003560e01c8063622dad7f1161016e578063c7876ea4116100cb578063deee4da91161007f578063f544d82f11610064578063f544d82f146107a2578063f61ccd53146107b5578063f79fe538146107d557600080fd5b8063deee4da914610762578063f2fde38b1461078257600080fd5b8063d2ec5fca116100b0578063d2ec5fca14610702578063d315690514610722578063dbd4e0211461074257600080fd5b8063c7876ea4146106cc578063d07699aa146106e257600080fd5b80638dcad13911610122578063b782426e11610107578063b782426e14610679578063b9f37c8614610699578063c0a43a7c146106b957600080fd5b80638dcad13914610639578063b612e9b91461065957600080fd5b80638146970a116101535780638146970a146105db57806383669726146105fb5780638da5cb5b1461061b57600080fd5b8063622dad7f1461058e57806365edd522146105bb57600080fd5b806322b68deb1161021c5780633141e25b116101d057806339de6469116101b557806339de64691461052e5780634475bf4b1461054e578063507f14651461056e57600080fd5b80633141e25b146104ee578063340268591461050e57600080fd5b8063251c942211610201578063251c9422146104a357806329c68dc1146104b95780632f926732146104ce57600080fd5b806322b68deb1461046d578063250548b91461048357600080fd5b80630aac6625116102735780631eabcd34116102585780631eabcd34146103ff5780631fc4859e1461041f57806321ec2b5b1461044d57600080fd5b80630aac6625146103af5780631896f70a146103dd57600080fd5b806301ffc9a7116102a457806301ffc9a71461031d57806302fb0c5e1461035d57806305e84aa01461038f57600080fd5b80630178b8bf146102c057806301e51ae8146102fd575b600080fd5b3480156102cc57600080fd5b506102e06102db366004614bce565b6107f5565b6040516001600160a01b0390911681526020015b60405180910390f35b34801561030957600080fd5b506004546102e0906001600160a01b031681565b34801561032957600080fd5b5061034d610338366004614c1c565b60056020526000908152604090205460ff1681565b60405190151581526020016102f4565b34801561036957600080fd5b5060045461034d9074010000000000000000000000000000000000000000900460ff1681565b34801561039b57600080fd5b506001546102e0906001600160a01b031681565b3480156103bb57600080fd5b506103cf6103ca366004614bce565b61094a565b6040516102f4929190614c3e565b3480156103e957600080fd5b506103fd6103f8366004614cdd565b610a9f565b005b34801561040b57600080fd5b506003546102e0906001600160a01b031681565b34801561042b57600080fd5b5061043f61043a366004614bce565b610d41565b6040519081526020016102f4565b34801561045957600080fd5b506103fd610468366004614bce565b610e87565b34801561047957600080fd5b5061043f60095481565b34801561048f57600080fd5b506103fd61049e366004614ea1565b6111ad565b3480156104af57600080fd5b5061043f60065481565b3480156104c557600080fd5b506103fd611651565b3480156104da57600080fd5b506103fd6104e9366004614f8a565b6116f8565b3480156104fa57600080fd5b506103fd610509366004614fac565b6118d2565b34801561051a57600080fd5b5061034d610529366004614bce565b611bc3565b34801561053a57600080fd5b506103fd610549366004614f8a565b611d09565b34801561055a57600080fd5b506103fd610569366004614ff7565b611ece565b34801561057a57600080fd5b506002546102e0906001600160a01b031681565b34801561059a57600080fd5b506105ae6105a9366004614bce565b612275565b6040516102f49190615041565b3480156105c757600080fd5b506103fd6105d6366004614ff7565b6123bf565b3480156105e757600080fd5b506103fd6105f6366004614f8a565b6128ce565b34801561060757600080fd5b506103fd610616366004615085565b612c40565b34801561062757600080fd5b506004546001600160a01b03166102e0565b34801561064557600080fd5b506103fd610654366004614f8a565b6130ff565b34801561066557600080fd5b506103fd6106743660046150bc565b61351e565b34801561068557600080fd5b506000546102e0906001600160a01b031681565b3480156106a557600080fd5b506008546102e0906001600160a01b031681565b6103fd6106c73660046150ef565b61393a565b3480156106d857600080fd5b5061043f60075481565b3480156106ee57600080fd5b506103fd6106fd36600461511b565b613a68565b34801561070e57600080fd5b5061043f61071d366004614bce565b613cf8565b34801561072e57600080fd5b506103fd61073d366004614cdd565b613d6c565b34801561074e57600080fd5b506102e061075d366004614bce565b614003565b34801561076e57600080fd5b506103fd61077d366004614f8a565b6140f4565b34801561078e57600080fd5b506103fd61079d366004615140565b6141c8565b6103fd6107b0366004614f8a565b614296565b3480156107c157600080fd5b5061043f6107d0366004614bce565b6146f9565b3480156107e157600080fd5b5061034d6107f0366004614bce565b6148c0565b6002546040516369762fe560e11b81526004810183905260009183916001600160a01b039091169063d2ec5fca90602401602060405180830381865afa158015610843573d6000803e3d6000fd5b505050506040513d601f19601f82011682018060405250810190610867919061515d565b42106108ba5760405162461bcd60e51b815260206004820152600c60248201527f4e414d455f45585049524544000000000000000000000000000000000000000060448201526064015b60405180910390fd5b6002546040517f0178b8bf000000000000000000000000000000000000000000000000000000008152600481018590526001600160a01b0390911690630178b8bf906024015b602060405180830381865afa15801561091d573d6000803e3d6000fd5b505050506040513d601f19601f820116820180604052508101906109419190615176565b91505b50919050565b6002546040516369762fe560e11b815260048101839052606091829184916001600160a01b03169063d2ec5fca90602401602060405180830381865afa158015610998573d6000803e3d6000fd5b505050506040513d601f19601f820116820180604052508101906109bc919061515d565b4210610a0a5760405162461bcd60e51b815260206004820152600c60248201527f4e414d455f45585049524544000000000000000000000000000000000000000060448201526064016108b1565b6002546040517f0aac6625000000000000000000000000000000000000000000000000000000008152600481018690526001600160a01b0390911690630aac662590602401600060405180830381865afa158015610a6c573d6000803e3d6000fd5b505050506040513d6000823e601f3d908101601f19168201604052610a9491908101906151f7565b909590945092505050565b60025460405163f61ccd5360e01b81526004810184905283916000916001600160a01b039091169063f61ccd5390602401602060405180830381865afa158015610aed573d6000803e3d6000fd5b505050506040513d601f19601f82011682018060405250810190610b11919061515d565b6001546040516302571be360e01b8152600481018390529192506000916001600160a01b03909116906302571be390602401602060405180830381865afa158015610b60573d6000803e3d6000fd5b505050506040513d601f19601f82011682018060405250810190610b849190615176565b6008549091506001600160a01b0316331480610ba857506001600160a01b03811633145b80610c30575060025460405163dbd4e02160e01b8152600481018590526001600160a01b039091169063dbd4e02190602401602060405180830381865afa158015610bf7573d6000803e3d6000fd5b505050506040513d601f19601f82011682018060405250810190610c1b9190615176565b6001600160a01b0316336001600160a01b0316145b610c7c5760405162461bcd60e51b815260206004820152600e60248201527f4e4f545f415554484f524953454400000000000000000000000000000000000060448201526064016108b1565b6002546040517f1896f70a000000000000000000000000000000000000000000000000000000008152600481018790526001600160a01b03868116602483015290911690631896f70a90604401600060405180830381600087803b158015610ce357600080fd5b505af1158015610cf7573d6000803e3d6000fd5b50506040516001600160a01b03871681528792507f335721b01866dc23fbee8b6b2c7b1e14d6f05c28cd35a2c934239f94095602a091506020015b60405180910390a25050505050565b6002546040516369762fe560e11b81526004810183905260009183916001600160a01b039091169063d2ec5fca90602401602060405180830381865afa158015610d8f573d6000803e3d6000fd5b505050506040513d601f19601f82011682018060405250810190610db3919061515d565b4210610e015760405162461bcd60e51b815260206004820152600c60248201527f4e414d455f45585049524544000000000000000000000000000000000000000060448201526064016108b1565b6002546040517f1fc4859e000000000000000000000000000000000000000000000000000000008152600481018590526001600160a01b0390911690631fc4859e90602401602060405180830381865afa158015610e63573d6000803e3d6000fd5b505050506040513d601f19601f82011682018060405250810190610941919061515d565b6002546040516369762fe560e11b81526004810183905282916001600160a01b03169063d2ec5fca90602401602060405180830381865afa158015610ed0573d6000803e3d6000fd5b505050506040513d601f19601f82011682018060405250810190610ef4919061515d565b4210610f425760405162461bcd60e51b815260206004820152601060248201527f504f4c5943554c455f455850495245440000000000000000000000000000000060448201526064016108b1565b60025460405163f61ccd5360e01b8152600481018390526000916001600160a01b03169063f61ccd5390602401602060405180830381865afa158015610f8c573d6000803e3d6000fd5b505050506040513d601f19601f82011682018060405250810190610fb0919061515d565b6001546040516302571be360e01b8152600481018390529192506000916001600160a01b03909116906302571be390602401602060405180830381865afa158015610fff573d6000803e3d6000fd5b505050506040513d601f19601f820116820180604052508101906110239190615176565b90506001600160a01b0381163314806110b9575060025460405163dbd4e02160e01b8152600481018590526001600160a01b039091169063dbd4e02190602401602060405180830381865afa158015611080573d6000803e3d6000fd5b505050506040513d601f19601f820116820180604052508101906110a49190615176565b6001600160a01b0316336001600160a01b0316145b6111055760405162461bcd60e51b815260206004820152601760248201527f4e4f545f4f574e45525f4f525f434f4e54524f4c4c455200000000000000000060448201526064016108b1565b6002546040517f21ec2b5b000000000000000000000000000000000000000000000000000000008152600481018690526001600160a01b03909116906321ec2b5b90602401600060405180830381600087803b15801561116457600080fd5b505af1158015611178573d6000803e3d6000fd5b50506040518692507f6b91085369552b61ca16180a741663b69fb6b3b967f7271116521d84e2291dc59150600090a250505050565b60025460405163f61ccd5360e01b81526004810186905285916000916001600160a01b039091169063f61ccd5390602401602060405180830381865afa1580156111fb573d6000803e3d6000fd5b505050506040513d601f19601f8201168201806040525081019061121f919061515d565b6001546040516302571be360e01b8152600481018390529192506000916001600160a01b03909116906302571be390602401602060405180830381865afa15801561126e573d6000803e3d6000fd5b505050506040513d601f19601f820116820180604052508101906112929190615176565b6008549091506001600160a01b03163314806112b657506001600160a01b03811633145b8061133e575060025460405163dbd4e02160e01b8152600481018590526001600160a01b039091169063dbd4e02190602401602060405180830381865afa158015611305573d6000803e3d6000fd5b505050506040513d601f19601f820116820180604052508101906113299190615176565b6001600160a01b0316336001600160a01b0316145b61138a5760405162461bcd60e51b815260206004820152600e60248201527f4e4f545f415554484f524953454400000000000000000000000000000000000060448201526064016108b1565b6113948685614936565b6113e05760405162461bcd60e51b815260206004820152600760248201527f4241445f4d41500000000000000000000000000000000000000000000000000060448201526064016108b1565b60005b865181101561160f576002546040517f622dad7f000000000000000000000000000000000000000000000000000000008152600481018a90526114a0916001600160a01b03169063622dad7f90602401600060405180830381865afa158015611450573d6000803e3d6000fd5b505050506040513d6000823e601f3d908101601f1916820160405261147891908101906152bc565b88838151811061148a5761148a61534d565b602002602001015161495290919063ffffffff16565b6115fd5760025487516001600160a01b03909116906365edd522908a908a90859081106114cf576114cf61534d565b60200260200101518985815181106114e9576114e961534d565b60200260200101518986815181106115035761150361534d565b60200260200101516040518563ffffffff1660e01b815260040161154c949392919093845260208401929092526001600160a01b0316604083015260ff16606082015260800190565b600060405180830381600087803b15801561156657600080fd5b505af115801561157a573d6000803e3d6000fd5b50506002546040517fd07699aa000000000000000000000000000000000000000000000000000000008152600481018c9052600060248201526001600160a01b03909116925063d07699aa9150604401600060405180830381600087803b1580156115e457600080fd5b505af11580156115f8573d6000803e3d6000fd5b505050505b80611607816153ab565b9150506113e3565b50867f580d99949e5d5a02f35dc5b91b800697d53dccb814e200f24f97b4bfbeb8667c876040516116409190615041565b60405180910390a250505050505050565b6004546001600160a01b031633146116ab5760405162461bcd60e51b815260206004820152600760248201527f4e4f545f4445560000000000000000000000000000000000000000000000000060448201526064016108b1565b600480547fffffffffffffffffffffff00ffffffffffffffffffffffffffffffffffffffff8116740100000000000000000000000000000000000000009182900460ff1615909102179055565b6008546001600160a01b031633146117525760405162461bcd60e51b815260206004820152600d60248201527f4e4f545f5245474953545241520000000000000000000000000000000000000060448201526064016108b1565b6001546040516302571be360e01b8152600481018390526000916001600160a01b0316906302571be390602401602060405180830381865afa15801561179c573d6000803e3d6000fd5b505050506040513d601f19601f820116820180604052508101906117c09190615176565b6001600160a01b0316036118165760405162461bcd60e51b815260206004820152600b60248201527f43414e4e4f545f4255524e00000000000000000000000000000000000000000060448201526064016108b1565b6002546040517f8146970a00000000000000000000000000000000000000000000000000000000815260048101849052602481018390526001600160a01b0390911690638146970a90604401600060405180830381600087803b15801561187c57600080fd5b505af1158015611890573d6000803e3d6000fd5b50505050817f4810581adf2c16a86a375dbb1ed89b0b0f7e64d48d24e1948b3dfe6581e4d795826040516118c691815260200190565b60405180910390a25050565b6004546001600160a01b0316331461192c5760405162461bcd60e51b815260206004820152600760248201527f4e4f545f4445560000000000000000000000000000000000000000000000000060448201526064016108b1565b6001600160a01b03831615611ab657600080547fffffffffffffffffffffffff0000000000000000000000000000000000000000166001600160a01b038516908117909155604080517f642a8ed6000000000000000000000000000000000000000000000000000000008152905163642a8ed6916004808201926080929091908290030181865afa1580156119c5573d6000803e3d6000fd5b505050506040513d601f19601f820116820180604052508101906119e991906153e3565b60600151600655600054604080517f4d3f733400000000000000000000000000000000000000000000000000000000815290516001600160a01b0390921691634d3f7334916004808201926080929091908290030181865afa158015611a53573d6000803e3d6000fd5b505050506040513d601f19601f82011682018060405250810190611a779190615443565b60036020020151600880547fffffffffffffffffffffffff0000000000000000000000000000000000000000166001600160a01b039092169190911790555b6001600160a01b03811615611af957600280547fffffffffffffffffffffffff0000000000000000000000000000000000000000166001600160a01b0383161790555b6001600160a01b03821615611bbe57600380547fffffffffffffffffffffffff0000000000000000000000000000000000000000166001600160a01b038416908117909155604080517fbd9a548b000000000000000000000000000000000000000000000000000000008152905163bd9a548b916004808201926080929091908290030181865afa158015611b92573d6000803e3d6000fd5b505050506040513d601f19601f82011682018060405250810190611bb691906153e3565b606001516007555b505050565b6002546040516369762fe560e11b81526004810183905260009183916001600160a01b039091169063d2ec5fca90602401602060405180830381865afa158015611c11573d6000803e3d6000fd5b505050506040513d601f19601f82011682018060405250810190611c35919061515d565b4210611c835760405162461bcd60e51b815260206004820152600c60248201527f4e414d455f45585049524544000000000000000000000000000000000000000060448201526064016108b1565b6002546040517f34026859000000000000000000000000000000000000000000000000000000008152600481018590526001600160a01b0390911690633402685990602401602060405180830381865afa158015611ce5573d6000803e3d6000fd5b505050506040513d601f19601f8201168201806040525081019061094191906154a1565b6008546001600160a01b03163314611d635760405162461bcd60e51b815260206004820152600d60248201527f4e4f545f5245474953545241520000000000000000000000000000000000000060448201526064016108b1565b6002546040516369762fe560e11b8152600481018490526001600160a01b039091169063d2ec5fca90602401602060405180830381865afa158015611dac573d6000803e3d6000fd5b505050506040513d601f19601f82011682018060405250810190611dd0919061515d565b8111611e1e5760405162461bcd60e51b815260206004820152600a60248201527f4241445f4558504952590000000000000000000000000000000000000000000060448201526064016108b1565b6002546040517f39de646900000000000000000000000000000000000000000000000000000000815260048101849052602481018390526001600160a01b03909116906339de646990604401600060405180830381600087803b158015611e8457600080fd5b505af1158015611e98573d6000803e3d6000fd5b50505050817fa620b72378ee464490805a96e25b53e5c0076f0ce2d28f9691ae255a595b3bf3826040516118c691815260200190565b6002546040516369762fe560e11b81526004810185905284916001600160a01b03169063d2ec5fca90602401602060405180830381865afa158015611f17573d6000803e3d6000fd5b505050506040513d601f19601f82011682018060405250810190611f3b919061515d565b4210611f895760405162461bcd60e51b815260206004820152601060248201527f504f4c5943554c455f455850495245440000000000000000000000000000000060448201526064016108b1565b60025460405163f61ccd5360e01b8152600481018390526000916001600160a01b03169063f61ccd5390602401602060405180830381865afa158015611fd3573d6000803e3d6000fd5b505050506040513d601f19601f82011682018060405250810190611ff7919061515d565b6001546040516302571be360e01b8152600481018390529192506000916001600160a01b03909116906302571be390602401602060405180830381865afa158015612046573d6000803e3d6000fd5b505050506040513d601f19601f8201168201806040525081019061206a9190615176565b90506001600160a01b038116331480612100575060025460405163dbd4e02160e01b8152600481018590526001600160a01b039091169063dbd4e02190602401602060405180830381865afa1580156120c7573d6000803e3d6000fd5b505050506040513d601f19601f820116820180604052508101906120eb9190615176565b6001600160a01b0316336001600160a01b0316145b61214c5760405162461bcd60e51b815260206004820152601760248201527f4e4f545f4f574e45525f4f525f434f4e54524f4c4c455200000000000000000060448201526064016108b1565b6121578688866149a5565b6121a35760405162461bcd60e51b815260206004820152601460248201527f414e494f4e5f4f525f484f4f4b5f45584953545300000000000000000000000060448201526064016108b1565b6002546040517f4475bf4b00000000000000000000000000000000000000000000000000000000815260048101899052602481018890526001600160a01b03878116604483015260ff8716606483015290911690634475bf4b90608401600060405180830381600087803b15801561221a57600080fd5b505af115801561222e573d6000803e3d6000fd5b5050604080516001600160a01b038916815260ff881660208201528993507fc733a2bc621cc97eef6ed4f708f126e72e6acb76c0a1c0461c9dd31f7b987065925001611640565b6002546040516369762fe560e11b81526004810183905260609183916001600160a01b039091169063d2ec5fca90602401602060405180830381865afa1580156122c3573d6000803e3d6000fd5b505050506040513d601f19601f820116820180604052508101906122e7919061515d565b42106123355760405162461bcd60e51b815260206004820152600c60248201527f4e414d455f45585049524544000000000000000000000000000000000000000060448201526064016108b1565b6002546040517f622dad7f000000000000000000000000000000000000000000000000000000008152600481018590526001600160a01b039091169063622dad7f90602401600060405180830381865afa158015612397573d6000803e3d6000fd5b505050506040513d6000823e601f3d908101601f1916820160405261094191908101906152bc565b6002546040516369762fe560e11b81526004810186905285916001600160a01b03169063d2ec5fca90602401602060405180830381865afa158015612408573d6000803e3d6000fd5b505050506040513d601f19601f8201168201806040525081019061242c919061515d565b421061247a5760405162461bcd60e51b815260206004820152601060248201527f504f4c5943554c455f455850495245440000000000000000000000000000000060448201526064016108b1565b60025460405163f61ccd5360e01b8152600481018390526000916001600160a01b03169063f61ccd5390602401602060405180830381865afa1580156124c4573d6000803e3d6000fd5b505050506040513d601f19601f820116820180604052508101906124e8919061515d565b6001546040516302571be360e01b8152600481018390529192506000916001600160a01b03909116906302571be390602401602060405180830381865afa158015612537573d6000803e3d6000fd5b505050506040513d601f19601f8201168201806040525081019061255b9190615176565b90506001600160a01b0381163314806125f1575060025460405163dbd4e02160e01b8152600481018590526001600160a01b039091169063dbd4e02190602401602060405180830381865afa1580156125b8573d6000803e3d6000fd5b505050506040513d601f19601f820116820180604052508101906125dc9190615176565b6001600160a01b0316336001600160a01b0316145b61263d5760405162461bcd60e51b815260206004820152601760248201527f4e4f545f4f574e45525f4f525f434f4e54524f4c4c455200000000000000000060448201526064016108b1565b6126488787866149a5565b6126945760405162461bcd60e51b815260206004820152601460248201527f414e494f4e5f4f525f484f4f4b5f45584953545300000000000000000000000060448201526064016108b1565b6002546040517f0aac66250000000000000000000000000000000000000000000000000000000081526004810189905260009182916001600160a01b0390911690630aac662590602401600060405180830381865afa1580156126fb573d6000803e3d6000fd5b505050506040513d6000823e601f3d908101601f1916820160405261272391908101906151f7565b9092509050600061273760ff881684614aed565b9050876001600160a01b03168282815181106127555761275561534d565b60200260200101516001600160a01b0316036127b35760405162461bcd60e51b815260206004820152600b60248201527f52554c455f45584953545300000000000000000000000000000000000000000060448201526064016108b1565b6002546040517f65edd522000000000000000000000000000000000000000000000000000000008152600481018c9052602481018b90526001600160a01b038a8116604483015260ff8a166064830152909116906365edd52290608401600060405180830381600087803b15801561282a57600080fd5b505af115801561283e573d6000803e3d6000fd5b50505050897f600ffddd29393ca43c0a11fa6b0b7096631364178cb42f9d546c0a2cd22525ee8a60405161287491815260200190565b60405180910390a2604080516001600160a01b038a16815260ff891660208201528b917fc733a2bc621cc97eef6ed4f708f126e72e6acb76c0a1c0461c9dd31f7b987065910160405180910390a250505050505050505050565b6002546040516369762fe560e11b81526004810184905283916001600160a01b03169063d2ec5fca90602401602060405180830381865afa158015612917573d6000803e3d6000fd5b505050506040513d601f19601f8201168201806040525081019061293b919061515d565b42106129895760405162461bcd60e51b815260206004820152601060248201527f504f4c5943554c455f455850495245440000000000000000000000000000000060448201526064016108b1565b60015460025460405163f61ccd5360e01b8152600481018490526000926001600160a01b03908116926302571be39291169063f61ccd5390602401602060405180830381865afa1580156129e1573d6000803e3d6000fd5b505050506040513d601f19601f82011682018060405250810190612a05919061515d565b6040518263ffffffff1660e01b8152600401612a2391815260200190565b602060405180830381865afa158015612a40573d6000803e3d6000fd5b505050506040513d601f19601f82011682018060405250810190612a649190615176565b90506001600160a01b0381163314612abe5760405162461bcd60e51b815260206004820152600960248201527f4e4f545f4f574e4552000000000000000000000000000000000000000000000060448201526064016108b1565b6001546040516302571be360e01b8152600481018590526000916001600160a01b0316906302571be390602401602060405180830381865afa158015612b08573d6000803e3d6000fd5b505050506040513d601f19601f82011682018060405250810190612b2c9190615176565b6001600160a01b031603612b825760405162461bcd60e51b815260206004820152600b60248201527f43414e4e4f545f4255524e00000000000000000000000000000000000000000060448201526064016108b1565b6002546040517f8146970a00000000000000000000000000000000000000000000000000000000815260048101869052602481018590526001600160a01b0390911690638146970a90604401600060405180830381600087803b158015612be857600080fd5b505af1158015612bfc573d6000803e3d6000fd5b50505050837f4810581adf2c16a86a375dbb1ed89b0b0f7e64d48d24e1948b3dfe6581e4d79584604051612c3291815260200190565b60405180910390a250505050565b6002546040516369762fe560e11b81526004810185905284916001600160a01b03169063d2ec5fca90602401602060405180830381865afa158015612c89573d6000803e3d6000fd5b505050506040513d601f19601f82011682018060405250810190612cad919061515d565b4210612cfb5760405162461bcd60e51b815260206004820152601060248201527f504f4c5943554c455f455850495245440000000000000000000000000000000060448201526064016108b1565b60025460405163f61ccd5360e01b8152600481018390526000916001600160a01b03169063f61ccd5390602401602060405180830381865afa158015612d45573d6000803e3d6000fd5b505050506040513d601f19601f82011682018060405250810190612d69919061515d565b6001546040516302571be360e01b8152600481018390529192506000916001600160a01b03909116906302571be390602401602060405180830381865afa158015612db8573d6000803e3d6000fd5b505050506040513d601f19601f82011682018060405250810190612ddc9190615176565b90506001600160a01b038116331480612e72575060025460405163dbd4e02160e01b8152600481018590526001600160a01b039091169063dbd4e02190602401602060405180830381865afa158015612e39573d6000803e3d6000fd5b505050506040513d601f19601f82011682018060405250810190612e5d9190615176565b6001600160a01b0316336001600160a01b0316145b612ebe5760405162461bcd60e51b815260206004820152601760248201527f4e4f545f4f574e45525f4f525f434f4e54524f4c4c455200000000000000000060448201526064016108b1565b6002546040517f0aac66250000000000000000000000000000000000000000000000000000000081526004810188905260009182916001600160a01b0390911690630aac662590602401600060405180830381865afa158015612f25573d6000803e3d6000fd5b505050506040513d6000823e601f3d908101601f19168201604052612f4d91908101906151f7565b9092509050612f5f60ff871683614b39565b156130c3576000612f7360ff881684614aed565b9050876001600160a01b0316828281518110612f9157612f9161534d565b60200260200101516001600160a01b031603612fef5760405162461bcd60e51b815260206004820152600b60248201527f484f4f4b5f45584953545300000000000000000000000000000000000000000060448201526064016108b1565b6002546040517f83669726000000000000000000000000000000000000000000000000000000008152600481018b90526001600160a01b038a8116602483015260ff8a16604483015290911690638366972690606401600060405180830381600087803b15801561305f57600080fd5b505af1158015613073573d6000803e3d6000fd5b5050604080516001600160a01b038c16815260ff8b1660208201528c93507f1abc00531586337cfd45709506ca0d48a44e1eb54325e589ec054ce83373e07a92500160405180910390a2506130f5565b6040517f7b4e5bfe00000000000000000000000000000000000000000000000000000000815260040160405180910390fd5b5050505050505050565b6002546040516369762fe560e11b81526004810184905283916001600160a01b03169063d2ec5fca90602401602060405180830381865afa158015613148573d6000803e3d6000fd5b505050506040513d601f19601f8201168201806040525081019061316c919061515d565b42106131ba5760405162461bcd60e51b815260206004820152601060248201527f504f4c5943554c455f455850495245440000000000000000000000000000000060448201526064016108b1565b60025460405163f61ccd5360e01b8152600481018390526000916001600160a01b03169063f61ccd5390602401602060405180830381865afa158015613204573d6000803e3d6000fd5b505050506040513d601f19601f82011682018060405250810190613228919061515d565b6001546040516302571be360e01b8152600481018390529192506000916001600160a01b03909116906302571be390602401602060405180830381865afa158015613277573d6000803e3d6000fd5b505050506040513d601f19601f8201168201806040525081019061329b9190615176565b90506001600160a01b038116331480613331575060025460405163dbd4e02160e01b8152600481018590526001600160a01b039091169063dbd4e02190602401602060405180830381865afa1580156132f8573d6000803e3d6000fd5b505050506040513d601f19601f8201168201806040525081019061331c9190615176565b6001600160a01b0316336001600160a01b0316145b61337d5760405162461bcd60e51b815260206004820152601760248201527f4e4f545f4f574e45525f4f525f434f4e54524f4c4c455200000000000000000060448201526064016108b1565b6002546040517f622dad7f000000000000000000000000000000000000000000000000000000008152600481018790526000916001600160a01b03169063622dad7f90602401600060405180830381865afa1580156133e0573d6000803e3d6000fd5b505050506040513d6000823e601f3d908101601f1916820160405261340891908101906152bc565b90506134148582614952565b156134e45760006134258683614b88565b6002546040517f90072f97000000000000000000000000000000000000000000000000000000008152600481018a9052602481018390529192506001600160a01b0316906390072f9790604401600060405180830381600087803b15801561348c57600080fd5b505af11580156134a0573d6000803e3d6000fd5b50505050867f5c379d054844760656a56e062f50208b458cfa0c4427574f5a2828d19602b4e9876040516134d691815260200190565b60405180910390a250613516565b6040517f62316f6700000000000000000000000000000000000000000000000000000000815260040160405180910390fd5b505050505050565b6002546040516369762fe560e11b81526004810184905283916001600160a01b03169063d2ec5fca90602401602060405180830381865afa158015613567573d6000803e3d6000fd5b505050506040513d601f19601f8201168201806040525081019061358b919061515d565b42106135d95760405162461bcd60e51b815260206004820152601060248201527f504f4c5943554c455f455850495245440000000000000000000000000000000060448201526064016108b1565b60025460405163f61ccd5360e01b8152600481018390526000916001600160a01b03169063f61ccd5390602401602060405180830381865afa158015613623573d6000803e3d6000fd5b505050506040513d601f19601f82011682018060405250810190613647919061515d565b6001546040516302571be360e01b8152600481018390529192506000916001600160a01b03909116906302571be390602401602060405180830381865afa158015613696573d6000803e3d6000fd5b505050506040513d601f19601f820116820180604052508101906136ba9190615176565b90506001600160a01b038116331480613750575060025460405163dbd4e02160e01b8152600481018590526001600160a01b039091169063dbd4e02190602401602060405180830381865afa158015613717573d6000803e3d6000fd5b505050506040513d601f19601f8201168201806040525081019061373b9190615176565b6001600160a01b0316336001600160a01b0316145b61379c5760405162461bcd60e51b815260206004820152601760248201527f4e4f545f4f574e45525f4f525f434f4e54524f4c4c455200000000000000000060448201526064016108b1565b6002546040517f0aac6625000000000000000000000000000000000000000000000000000000008152600481018790526000916001600160a01b031690630aac662590602401600060405180830381865afa1580156137ff573d6000803e3d6000fd5b505050506040513d6000823e601f3d908101601f1916820160405261382791908101906151f7565b50905061383760ff861682614b39565b1561390857600061384b60ff871683614aed565b6002546040517f833fda08000000000000000000000000000000000000000000000000000000008152600481018a905260ff89166024820152604481018390529192506001600160a01b03169063833fda0890606401600060405180830381600087803b1580156138bb57600080fd5b505af11580156138cf573d6000803e3d6000fd5b505060405160ff891681528992507ff975f0cee916e0c09312f138a17c70e178a4c2186f302a6f085a6d5273cd105191506020016134d6565b6040517fe8dd1d3e00000000000000000000000000000000000000000000000000000000815260040160405180910390fd5b6004546001600160a01b031633146139945760405162461bcd60e51b815260206004820152600760248201527f4e4f545f4445560000000000000000000000000000000000000000000000000060448201526064016108b1565b7fffffffff000000000000000000000000000000000000000000000000000000008083169003613a065760405162461bcd60e51b815260206004820152601a60248201527f494e56414c49445f494e544552464143455f53454c4543544f5200000000000060448201526064016108b1565b7fffffffff0000000000000000000000000000000000000000000000000000000091909116600090815260056020526040902080547fffffffffffffffffffffffffffffffffffffffffffffffffffffffffffffff0016911515919091179055565b60025460405163f61ccd5360e01b81526004810184905283916000916001600160a01b039091169063f61ccd5390602401602060405180830381865afa158015613ab6573d6000803e3d6000fd5b505050506040513d601f19601f82011682018060405250810190613ada919061515d565b6001546040516302571be360e01b8152600481018390529192506000916001600160a01b03909116906302571be390602401602060405180830381865afa158015613b29573d6000803e3d6000fd5b505050506040513d601f19601f82011682018060405250810190613b4d9190615176565b6008549091506001600160a01b0316331480613b7157506001600160a01b03811633145b80613bf9575060025460405163dbd4e02160e01b8152600481018590526001600160a01b039091169063dbd4e02190602401602060405180830381865afa158015613bc0573d6000803e3d6000fd5b505050506040513d601f19601f82011682018060405250810190613be49190615176565b6001600160a01b0316336001600160a01b0316145b613c455760405162461bcd60e51b815260206004820152600e60248201527f4e4f545f415554484f524953454400000000000000000000000000000000000060448201526064016108b1565b6002546040517fd07699aa0000000000000000000000000000000000000000000000000000000081526004810187905285151560248201526001600160a01b039091169063d07699aa90604401600060405180830381600087803b158015613cac57600080fd5b505af1158015613cc0573d6000803e3d6000fd5b50505050847fe6ccdb52b4954ab2c3e293f1dbfe593e6c5630962a1944bfcf20c5563eeb846285604051610d32911515815260200190565b6002546040516369762fe560e11b8152600481018390526000916001600160a01b03169063d2ec5fca90602401602060405180830381865afa158015613d42573d6000803e3d6000fd5b505050506040513d601f19601f82011682018060405250810190613d66919061515d565b92915050565b60025460405163f61ccd5360e01b81526004810184905283916000916001600160a01b039091169063f61ccd5390602401602060405180830381865afa158015613dba573d6000803e3d6000fd5b505050506040513d601f19601f82011682018060405250810190613dde919061515d565b6001546040516302571be360e01b8152600481018390529192506000916001600160a01b03909116906302571be390602401602060405180830381865afa158015613e2d573d6000803e3d6000fd5b505050506040513d601f19601f82011682018060405250810190613e519190615176565b6008549091506001600160a01b0316331480613e7557506001600160a01b03811633145b80613efd575060025460405163dbd4e02160e01b8152600481018590526001600160a01b039091169063dbd4e02190602401602060405180830381865afa158015613ec4573d6000803e3d6000fd5b505050506040513d601f19601f82011682018060405250810190613ee89190615176565b6001600160a01b0316336001600160a01b0316145b613f495760405162461bcd60e51b815260206004820152600e60248201527f4e4f545f415554484f524953454400000000000000000000000000000000000060448201526064016108b1565b6002546040517fd3156905000000000000000000000000000000000000000000000000000000008152600481018790526001600160a01b0386811660248301529091169063d315690590604401600060405180830381600087803b158015613fb057600080fd5b505af1158015613fc4573d6000803e3d6000fd5b50506040516001600160a01b03871681528792507fe5108446a6097aab57fd36f346a515a78fddefa87d81662d44e0d7a463f920959150602001610d32565b6002546040516369762fe560e11b81526004810183905260009183916001600160a01b039091169063d2ec5fca90602401602060405180830381865afa158015614051573d6000803e3d6000fd5b505050506040513d601f19601f82011682018060405250810190614075919061515d565b42106140c35760405162461bcd60e51b815260206004820152600c60248201527f4e414d455f45585049524544000000000000000000000000000000000000000060448201526064016108b1565b60025460405163dbd4e02160e01b8152600481018590526001600160a01b039091169063dbd4e02190602401610900565b6008546001600160a01b0316331461414e5760405162461bcd60e51b815260206004820152600d60248201527f4e4f545f5245474953545241520000000000000000000000000000000000000060448201526064016108b1565b6002546040517fdeee4da900000000000000000000000000000000000000000000000000000000815260048101849052602481018390526001600160a01b039091169063deee4da990604401600060405180830381600087803b1580156141b457600080fd5b505af1158015613516573d6000803e3d6000fd5b6004546001600160a01b031633146142225760405162461bcd60e51b815260206004820152600760248201527f4e4f545f4445560000000000000000000000000000000000000000000000000060448201526064016108b1565b6004546040516001600160a01b038084169216907f8be0079c531659141344cd1fd0a4f28419497f9722a3daafe3b4186f6b6457e090600090a3600480547fffffffffffffffffffffffff0000000000000000000000000000000000000000166001600160a01b0392909216919091179055565b6002546040516369762fe560e11b81526004810184905283916001600160a01b03169063d2ec5fca90602401602060405180830381865afa1580156142df573d6000803e3d6000fd5b505050506040513d601f19601f82011682018060405250810190614303919061515d565b42106143515760405162461bcd60e51b815260206004820152601060248201527f504f4c5943554c455f455850495245440000000000000000000000000000000060448201526064016108b1565b60025460405163f61ccd5360e01b8152600481018390526000916001600160a01b03169063f61ccd5390602401602060405180830381865afa15801561439b573d6000803e3d6000fd5b505050506040513d601f19601f820116820180604052508101906143bf919061515d565b6001546040516302571be360e01b8152600481018390529192506000916001600160a01b03909116906302571be390602401602060405180830381865afa15801561440e573d6000803e3d6000fd5b505050506040513d601f19601f820116820180604052508101906144329190615176565b90506001600160a01b0381163314806144c8575060025460405163dbd4e02160e01b8152600481018590526001600160a01b039091169063dbd4e02190602401602060405180830381865afa15801561448f573d6000803e3d6000fd5b505050506040513d601f19601f820116820180604052508101906144b39190615176565b6001600160a01b0316336001600160a01b0316145b6145145760405162461bcd60e51b815260206004820152601760248201527f4e4f545f4f574e45525f4f525f434f4e54524f4c4c455200000000000000000060448201526064016108b1565b6002546040516369762fe560e11b8152600481018790526000916001600160a01b03169063d2ec5fca90602401602060405180830381865afa15801561455e573d6000803e3d6000fd5b505050506040513d601f19601f82011682018060405250810190614582919061515d565b90508085116145d35760405162461bcd60e51b815260206004820152600a60248201527f4241445f4558504952590000000000000000000000000000000000000000000060448201526064016108b1565b6007546145e082876154be565b6145ea91906154d1565b3410156146395760405162461bcd60e51b815260206004820152601260248201527f494e53554646494349454e545f4554484552000000000000000000000000000060448201526064016108b1565b6002546040517f39de646900000000000000000000000000000000000000000000000000000000815260048101889052602481018790526001600160a01b03909116906339de646990604401600060405180830381600087803b15801561469f57600080fd5b505af11580156146b3573d6000803e3d6000fd5b50505050857fa620b72378ee464490805a96e25b53e5c0076f0ce2d28f9691ae255a595b3bf3866040516146e991815260200190565b60405180910390a2505050505050565b6002546040516369762fe560e11b81526004810183905260009183916001600160a01b039091169063d2ec5fca90602401602060405180830381865afa158015614747573d6000803e3d6000fd5b505050506040513d601f19601f8201168201806040525081019061476b919061515d565b42106147b95760405162461bcd60e51b815260206004820152600c60248201527f4e414d455f45585049524544000000000000000000000000000000000000000060448201526064016108b1565b60025460405163f61ccd5360e01b8152600481018590526000916001600160a01b03169063f61ccd5390602401602060405180830381865afa158015614803573d6000803e3d6000fd5b505050506040513d601f19601f82011682018060405250810190614827919061515d565b6001546040516302571be360e01b8152600481018390529192506000916001600160a01b03909116906302571be390602401602060405180830381865afa158015614876573d6000803e3d6000fd5b505050506040513d601f19601f8201168201806040525081019061489a9190615176565b9050306001600160a01b038216036148b85750600092506109449050565b509392505050565b6002546040516369762fe560e11b8152600481018390526000916001600160a01b03169063d2ec5fca90602401602060405180830381865afa15801561490a573d6000803e3d6000fd5b505050506040513d601f19601f8201168201806040525081019061492e919061515d565b421092915050565b6000815183510361494957506001613d66565b50600092915050565b6000805b825181101561499b57838382815181106149725761497261534d565b602002602001015103614989576001915050613d66565b80614993816153ab565b915050614956565b5060009392505050565b6002546040517f0aac66250000000000000000000000000000000000000000000000000000000081526004810185905260009182916001600160a01b0390911690630aac662590602401600060405180830381865afa158015614a0c573d6000803e3d6000fd5b505050506040513d6000823e601f3d908101601f19168201604052614a3491908101906151f7565b506002546040517f622dad7f00000000000000000000000000000000000000000000000000000000815260048101889052919250614acd916001600160a01b039091169063622dad7f90602401600060405180830381865afa158015614a9e573d6000803e3d6000fd5b505050506040513d6000823e601f3d908101601f19168201604052614ac691908101906152bc565b8590614952565b158015614ae45750614ae260ff841682614b39565b155b95945050505050565b6000805b825181101561499b578360ff16838281518110614b1057614b1061534d565b602002602001015160ff1603614b27579050613d66565b80614b31816153ab565b915050614af1565b6000805b825181101561499b578360ff16838281518110614b5c57614b5c61534d565b602002602001015160ff1603614b76576001915050613d66565b80614b80816153ab565b915050614b3d565b6000805b825181101561499b5783838281518110614ba857614ba861534d565b602002602001015103614bbc579050613d66565b80614bc6816153ab565b915050614b8c565b600060208284031215614be057600080fd5b5035919050565b80357fffffffff0000000000000000000000000000000000000000000000000000000081168114614c1757600080fd5b919050565b600060208284031215614c2e57600080fd5b614c3782614be7565b9392505050565b604080825283519082018190526000906020906060840190828701845b82811015614c7a57815160ff1684529284019290840190600101614c5b565b5050508381038285015284518082528583019183019060005b81811015614cb85783516001600160a01b031683529284019291840191600101614c93565b5090979650505050505050565b6001600160a01b0381168114614cda57600080fd5b50565b60008060408385031215614cf057600080fd5b823591506020830135614d0281614cc5565b809150509250929050565b7f4e487b7100000000000000000000000000000000000000000000000000000000600052604160045260246000fd5b6040516080810167ffffffffffffffff81118282101715614d5f57614d5f614d0d565b60405290565b604051601f8201601f1916810167ffffffffffffffff81118282101715614d8e57614d8e614d0d565b604052919050565b600067ffffffffffffffff821115614db057614db0614d0d565b5060051b60200190565b600082601f830112614dcb57600080fd5b81356020614de0614ddb83614d96565b614d65565b82815260059290921b84018101918181019086841115614dff57600080fd5b8286015b84811015614e23578035614e1681614cc5565b8352918301918301614e03565b509695505050505050565b60ff81168114614cda57600080fd5b600082601f830112614e4e57600080fd5b81356020614e5e614ddb83614d96565b82815260059290921b84018101918181019086841115614e7d57600080fd5b8286015b84811015614e23578035614e9481614e2e565b8352918301918301614e81565b60008060008060808587031215614eb757600080fd5b8435935060208086013567ffffffffffffffff80821115614ed757600080fd5b818801915088601f830112614eeb57600080fd5b8135614ef9614ddb82614d96565b81815260059190911b8301840190848101908b831115614f1857600080fd5b938501935b82851015614f3657843582529385019390850190614f1d565b975050506040880135925080831115614f4e57600080fd5b614f5a89848a01614dba565b94506060880135925080831115614f7057600080fd5b5050614f7e87828801614e3d565b91505092959194509250565b60008060408385031215614f9d57600080fd5b50508035926020909101359150565b600080600060608486031215614fc157600080fd5b8335614fcc81614cc5565b92506020840135614fdc81614cc5565b91506040840135614fec81614cc5565b809150509250925092565b6000806000806080858703121561500d57600080fd5b8435935060208501359250604085013561502681614cc5565b9150606085013561503681614e2e565b939692955090935050565b6020808252825182820181905260009190848201906040850190845b818110156150795783518352928401929184019160010161505d565b50909695505050505050565b60008060006060848603121561509a57600080fd5b8335925060208401356150ac81614cc5565b91506040840135614fec81614e2e565b600080604083850312156150cf57600080fd5b823591506020830135614d0281614e2e565b8015158114614cda57600080fd5b6000806040838503121561510257600080fd5b61510b83614be7565b91506020830135614d02816150e1565b6000806040838503121561512e57600080fd5b823591506020830135614d02816150e1565b60006020828403121561515257600080fd5b8135614c3781614cc5565b60006020828403121561516f57600080fd5b5051919050565b60006020828403121561518857600080fd5b8151614c3781614cc5565b600082601f8301126151a457600080fd5b815160206151b4614ddb83614d96565b82815260059290921b840181019181810190868411156151d357600080fd5b8286015b84811015614e235780516151ea81614cc5565b83529183019183016151d7565b6000806040838503121561520a57600080fd5b825167ffffffffffffffff8082111561522257600080fd5b818501915085601f83011261523657600080fd5b81516020615246614ddb83614d96565b82815260059290921b8401810191818101908984111561526557600080fd5b948201945b8386101561528c57855161527d81614e2e565b8252948201949082019061526a565b918801519196509093505050808211156152a557600080fd5b506152b285828601615193565b9150509250929050565b600060208083850312156152cf57600080fd5b825167ffffffffffffffff8111156152e657600080fd5b8301601f810185136152f757600080fd5b8051615305614ddb82614d96565b81815260059190911b8201830190838101908783111561532457600080fd5b928401925b8284101561534257835182529284019290840190615329565b979650505050505050565b7f4e487b7100000000000000000000000000000000000000000000000000000000600052603260045260246000fd5b7f4e487b7100000000000000000000000000000000000000000000000000000000600052601160045260246000fd5b60007fffffffffffffffffffffffffffffffffffffffffffffffffffffffffffffffff82036153dc576153dc61537c565b5060010190565b6000608082840312156153f557600080fd5b82601f83011261540457600080fd5b61540c614d3c565b80608084018581111561541e57600080fd5b845b81811015615438578051845260209384019301615420565b509095945050505050565b60006080828403121561545557600080fd5b82601f83011261546457600080fd5b61546c614d3c565b80608084018581111561547e57600080fd5b845b8181101561543857805161549381614cc5565b845260209384019301615480565b6000602082840312156154b357600080fd5b8151614c37816150e1565b81810381811115613d6657613d6661537c565b6000817fffffffffffffffffffffffffffffffffffffffffffffffffffffffffffffffff04831182151516156155095761550961537c565b50029056fea2646970667358221220361fbcc22bf08f07eb23a5163a369dad0bf21b9890944aa53d55d1c2abd37a7664736f6c63430008100033",
    "linkReferences": {}
  },
  "methodIdentifiers": {
    "Dev()": "01e51ae8",
    "HELIX2()": "b782426e",
    "NAMES()": "05e84aa0",
    "PRICES()": "1eabcd34",
    "Registrar()": "b9f37c86",
    "STORE()": "507f1465",
    "active()": "02fb0c5e",
    "addAnionWithConfig(bytes32,bytes32,address,uint8)": "65edd522",
    "anions(bytes32)": "622dad7f",
    "basePrice()": "c7876ea4",
    "cation(bytes32)": "f61ccd53",
    "controller(bytes32)": "dbd4e021",
    "covalence(bytes32)": "34026859",
    "expiry(bytes32)": "d2ec5fca",
    "hook(bytes32,bytes32,address,uint8)": "4475bf4b",
    "hooksWithRules(bytes32)": "0aac6625",
    "label(bytes32)": "1fc4859e",
    "owner()": "8da5cb5b",
    "popAnion(bytes32,bytes32)": "8dcad139",
    "recordExists(bytes32)": "f79fe538",
    "register(bytes32,bytes32)": "2f926732",
    "rehook(bytes32,address,uint8)": "83669726",
    "renew(bytes32,uint256)": "f544d82f",
    "resolver(bytes32)": "0178b8bf",
    "roothash()": "251c9422",
    "setAnions(bytes32,bytes32[],address[],uint8[])": "250548b9",
    "setCation(bytes32,bytes32)": "8146970a",
    "setConfig(address,address,address)": "3141e25b",
    "setController(bytes32,address)": "d3156905",
    "setCovalence(bytes32,bool)": "d07699aa",
    "setExpiry(bytes32,uint256)": "39de6469",
    "setInterface(bytes4,bool)": "c0a43a7c",
    "setLabel(bytes32,bytes32)": "deee4da9",
    "setResolver(bytes32,address)": "1896f70a",
    "supportsInterface(bytes4)": "01ffc9a7",
    "theEnd()": "22b68deb",
    "toggleActive()": "29c68dc1",
    "transferOwnership(address)": "f2fde38b",
    "unhook(bytes32,uint8)": "b612e9b9",
    "unhookAll(bytes32)": "21ec2b5b"
  },
  "id": 44
}