{
  "abi": [
    {
      "inputs": [
        {
          "internalType": "address",
          "name": "_registry",
          "type": "address"
        },
        {
          "internalType": "address",
          "name": "_helix2",
          "type": "address"
        }
      ],
      "stateMutability": "nonpayable",
      "type": "constructor"
    },
    {
      "inputs": [
        {
          "internalType": "bytes32",
          "name": "polyhash",
          "type": "bytes32"
        },
        {
          "internalType": "bytes32",
          "name": "anion",
          "type": "bytes32"
        }
      ],
      "name": "AnionNotFound",
      "type": "error"
    },
    {
      "anonymous": false,
      "inputs": [
        {
          "indexed": true,
          "internalType": "address",
          "name": "cation",
          "type": "address"
        },
        {
          "indexed": true,
          "internalType": "address",
          "name": "operator",
          "type": "address"
        },
        {
          "indexed": false,
          "internalType": "bool",
          "name": "approved",
          "type": "bool"
        }
      ],
      "name": "ApprovalForAll",
      "type": "event"
    },
    {
      "anonymous": false,
      "inputs": [
        {
          "indexed": true,
          "internalType": "bytes32",
          "name": "polyhash",
          "type": "bytes32"
        },
        {
          "indexed": false,
          "internalType": "address",
          "name": "config",
          "type": "address"
        },
        {
          "indexed": false,
          "internalType": "uint8",
          "name": "rule",
          "type": "uint8"
        }
      ],
      "name": "Hooked",
      "type": "event"
    },
    {
      "anonymous": false,
      "inputs": [
        {
          "indexed": true,
          "internalType": "bytes32",
          "name": "polyhash",
          "type": "bytes32"
        },
        {
          "indexed": false,
          "internalType": "bytes32",
          "name": "_alias",
          "type": "bytes32"
        }
      ],
      "name": "NewAlias",
      "type": "event"
    },
    {
      "anonymous": false,
      "inputs": [
        {
          "indexed": true,
          "internalType": "bytes32",
          "name": "polyhash",
          "type": "bytes32"
        },
        {
          "indexed": false,
          "internalType": "bytes32",
          "name": "anion",
          "type": "bytes32"
        }
      ],
      "name": "NewAnion",
      "type": "event"
    },
    {
      "anonymous": false,
      "inputs": [
        {
          "indexed": true,
          "internalType": "bytes32",
          "name": "polyhash",
          "type": "bytes32"
        },
        {
          "indexed": false,
          "internalType": "bytes32[]",
          "name": "anion",
          "type": "bytes32[]"
        }
      ],
      "name": "NewAnions",
      "type": "event"
    },
    {
      "anonymous": false,
      "inputs": [
        {
          "indexed": true,
          "internalType": "bytes32",
          "name": "polyhash",
          "type": "bytes32"
        },
        {
          "indexed": false,
          "internalType": "bytes32",
          "name": "cation",
          "type": "bytes32"
        }
      ],
      "name": "NewCation",
      "type": "event"
    },
    {
      "anonymous": false,
      "inputs": [
        {
          "indexed": true,
          "internalType": "bytes32",
          "name": "polyhash",
          "type": "bytes32"
        },
        {
          "indexed": false,
          "internalType": "address",
          "name": "controller",
          "type": "address"
        }
      ],
      "name": "NewController",
      "type": "event"
    },
    {
      "anonymous": false,
      "inputs": [
        {
          "indexed": true,
          "internalType": "bytes32",
          "name": "polyhash",
          "type": "bytes32"
        },
        {
          "indexed": false,
          "internalType": "bool",
          "name": "covalence",
          "type": "bool"
        }
      ],
      "name": "NewCovalence",
      "type": "event"
    },
    {
      "anonymous": false,
      "inputs": [
        {
          "indexed": false,
          "internalType": "address",
          "name": "Dev",
          "type": "address"
        },
        {
          "indexed": false,
          "internalType": "address",
          "name": "newDev",
          "type": "address"
        }
      ],
      "name": "NewDev",
      "type": "event"
    },
    {
      "anonymous": false,
      "inputs": [
        {
          "indexed": true,
          "internalType": "bytes32",
          "name": "polyhash",
          "type": "bytes32"
        },
        {
          "indexed": false,
          "internalType": "uint256",
          "name": "expiry",
          "type": "uint256"
        }
      ],
      "name": "NewExpiry",
      "type": "event"
    },
    {
      "anonymous": false,
      "inputs": [
        {
          "indexed": true,
          "internalType": "bytes32",
          "name": "polyhash",
          "type": "bytes32"
        },
        {
          "indexed": false,
          "internalType": "bytes32",
          "name": "cation",
          "type": "bytes32"
        }
      ],
      "name": "NewPolycule",
      "type": "event"
    },
    {
      "anonymous": false,
      "inputs": [
        {
          "indexed": true,
          "internalType": "bytes32",
          "name": "polyhash",
          "type": "bytes32"
        },
        {
          "indexed": false,
          "internalType": "address",
          "name": "resolver",
          "type": "address"
        }
      ],
      "name": "NewRecord",
      "type": "event"
    },
    {
      "anonymous": false,
      "inputs": [
        {
          "indexed": true,
          "internalType": "bytes32",
          "name": "polyhash",
          "type": "bytes32"
        },
        {
          "indexed": false,
          "internalType": "address",
          "name": "resolver",
          "type": "address"
        }
      ],
      "name": "NewResolver",
      "type": "event"
    },
    {
      "anonymous": false,
      "inputs": [
        {
          "indexed": true,
          "internalType": "bytes32",
          "name": "polyhash",
          "type": "bytes32"
        },
        {
          "indexed": false,
          "internalType": "bytes32",
          "name": "anion",
          "type": "bytes32"
        }
      ],
      "name": "PopAnion",
      "type": "event"
    },
    {
      "anonymous": false,
      "inputs": [
        {
          "indexed": true,
          "internalType": "bytes32",
          "name": "polyhash",
          "type": "bytes32"
        },
        {
          "indexed": false,
          "internalType": "bytes32",
          "name": "anion",
          "type": "bytes32"
        },
        {
          "indexed": false,
          "internalType": "uint8",
          "name": "rule",
          "type": "uint8"
        }
      ],
      "name": "RehookedAnion",
      "type": "event"
    },
    {
      "anonymous": false,
      "inputs": [
        {
          "indexed": true,
          "internalType": "bytes32",
          "name": "polyhash",
          "type": "bytes32"
        },
        {
          "indexed": false,
          "internalType": "address",
          "name": "config",
          "type": "address"
        },
        {
          "indexed": false,
          "internalType": "uint8",
          "name": "rule",
          "type": "uint8"
        }
      ],
      "name": "RehookedConfig",
      "type": "event"
    },
    {
      "anonymous": false,
      "inputs": [
        {
          "indexed": true,
          "internalType": "bytes32",
          "name": "polyhash",
          "type": "bytes32"
        }
      ],
      "name": "UnhookedAll",
      "type": "event"
    },
    {
      "anonymous": false,
      "inputs": [
        {
          "indexed": true,
          "internalType": "bytes32",
          "name": "polyhash",
          "type": "bytes32"
        },
        {
          "indexed": false,
          "internalType": "bytes32",
          "name": "anion",
          "type": "bytes32"
        }
      ],
      "name": "UnhookedAnion",
      "type": "event"
    },
    {
      "anonymous": false,
      "inputs": [
        {
          "indexed": true,
          "internalType": "bytes32",
          "name": "polyhash",
          "type": "bytes32"
        },
        {
          "indexed": false,
          "internalType": "address",
          "name": "config",
          "type": "address"
        }
      ],
      "name": "UnhookedConfig",
      "type": "event"
    },
    {
      "inputs": [],
      "name": "Dev",
      "outputs": [
        {
          "internalType": "address",
          "name": "",
          "type": "address"
        }
      ],
      "stateMutability": "view",
      "type": "function"
    },
    {
      "inputs": [],
      "name": "HELIX2",
      "outputs": [
        {
          "internalType": "contract iHELIX2",
          "name": "",
          "type": "address"
        }
      ],
      "stateMutability": "view",
      "type": "function"
    },
    {
      "inputs": [],
      "name": "NAMES",
      "outputs": [
        {
          "internalType": "contract iNAME",
          "name": "",
          "type": "address"
        }
      ],
      "stateMutability": "view",
      "type": "function"
    },
    {
      "inputs": [
        {
          "internalType": "bytes32",
          "name": "",
          "type": "bytes32"
        }
      ],
      "name": "Polycules",
      "outputs": [
        {
          "internalType": "bytes32",
          "name": "_cation",
          "type": "bytes32"
        },
        {
          "internalType": "bytes32",
          "name": "_alias",
          "type": "bytes32"
        },
        {
          "internalType": "address",
          "name": "_resolver",
          "type": "address"
        },
        {
          "internalType": "address",
          "name": "_controller",
          "type": "address"
        },
        {
          "internalType": "bool",
          "name": "_covalence",
          "type": "bool"
        },
        {
          "internalType": "uint256",
          "name": "_expiry",
          "type": "uint256"
        }
      ],
      "stateMutability": "view",
      "type": "function"
    },
    {
      "inputs": [
        {
          "internalType": "bytes32",
          "name": "polyhash",
          "type": "bytes32"
        },
        {
          "internalType": "bytes32",
          "name": "_anion",
          "type": "bytes32"
        },
        {
          "internalType": "address",
          "name": "config",
          "type": "address"
        },
        {
          "internalType": "uint8",
          "name": "rule",
          "type": "uint8"
        }
      ],
      "name": "addAnion",
      "outputs": [],
      "stateMutability": "nonpayable",
      "type": "function"
    },
    {
      "inputs": [
        {
          "internalType": "bytes32",
          "name": "polyhash",
          "type": "bytes32"
        }
      ],
      "name": "alias_",
      "outputs": [
        {
          "internalType": "bytes32",
          "name": "",
          "type": "bytes32"
        }
      ],
      "stateMutability": "view",
      "type": "function"
    },
    {
      "inputs": [
        {
          "internalType": "bytes32",
          "name": "polyhash",
          "type": "bytes32"
        }
      ],
      "name": "anion",
      "outputs": [
        {
          "internalType": "bytes32[]",
          "name": "",
          "type": "bytes32[]"
        }
      ],
      "stateMutability": "view",
      "type": "function"
    },
    {
      "inputs": [],
      "name": "basePrice",
      "outputs": [
        {
          "internalType": "uint256",
          "name": "",
          "type": "uint256"
        }
      ],
      "stateMutability": "view",
      "type": "function"
    },
    {
      "inputs": [
        {
          "internalType": "bytes32",
          "name": "polyhash",
          "type": "bytes32"
        }
      ],
      "name": "cation",
      "outputs": [
        {
          "internalType": "bytes32",
          "name": "",
          "type": "bytes32"
        }
      ],
      "stateMutability": "view",
      "type": "function"
    },
    {
      "inputs": [
        {
          "internalType": "address",
          "name": "newDev",
          "type": "address"
        }
      ],
      "name": "changeDev",
      "outputs": [],
      "stateMutability": "nonpayable",
      "type": "function"
    },
    {
      "inputs": [
        {
          "internalType": "bytes32",
          "name": "polyhash",
          "type": "bytes32"
        }
      ],
      "name": "controller",
      "outputs": [
        {
          "internalType": "address",
          "name": "",
          "type": "address"
        }
      ],
      "stateMutability": "view",
      "type": "function"
    },
    {
      "inputs": [
        {
          "internalType": "bytes32",
          "name": "polyhash",
          "type": "bytes32"
        }
      ],
      "name": "covalence",
      "outputs": [
        {
          "internalType": "bool",
          "name": "",
          "type": "bool"
        }
      ],
      "stateMutability": "view",
      "type": "function"
    },
    {
      "inputs": [
        {
          "internalType": "bytes32",
          "name": "polyhash",
          "type": "bytes32"
        }
      ],
      "name": "expiry",
      "outputs": [
        {
          "internalType": "uint256",
          "name": "",
          "type": "uint256"
        }
      ],
      "stateMutability": "view",
      "type": "function"
    },
    {
      "inputs": [
        {
          "internalType": "bytes32",
          "name": "__anion",
          "type": "bytes32"
        },
        {
          "internalType": "bytes32",
          "name": "polyhash",
          "type": "bytes32"
        },
        {
          "internalType": "uint8",
          "name": "rule",
          "type": "uint8"
        },
        {
          "internalType": "address",
          "name": "config",
          "type": "address"
        }
      ],
      "name": "hook",
      "outputs": [],
      "stateMutability": "nonpayable",
      "type": "function"
    },
    {
      "inputs": [
        {
          "internalType": "bytes32",
          "name": "polyhash",
          "type": "bytes32"
        }
      ],
      "name": "hooksWithRules",
      "outputs": [
        {
          "internalType": "address[]",
          "name": "",
          "type": "address[]"
        },
        {
          "internalType": "uint8[]",
          "name": "",
          "type": "uint8[]"
        }
      ],
      "stateMutability": "view",
      "type": "function"
    },
    {
      "inputs": [
        {
          "internalType": "bytes32",
          "name": "_cation",
          "type": "bytes32"
        },
        {
          "internalType": "address",
          "name": "operator",
          "type": "address"
        }
      ],
      "name": "isApprovedForAll",
      "outputs": [
        {
          "internalType": "bool",
          "name": "",
          "type": "bool"
        }
      ],
      "stateMutability": "view",
      "type": "function"
    },
    {
      "inputs": [
        {
          "internalType": "bytes32[]",
          "name": "_anion",
          "type": "bytes32[]"
        },
        {
          "internalType": "address[]",
          "name": "_config",
          "type": "address[]"
        }
      ],
      "name": "isLegalMap",
      "outputs": [
        {
          "internalType": "bool",
          "name": "",
          "type": "bool"
        }
      ],
      "stateMutability": "pure",
      "type": "function"
    },
    {
      "inputs": [
        {
          "internalType": "bytes32",
          "name": "polyhash",
          "type": "bytes32"
        },
        {
          "internalType": "bytes32",
          "name": "_anion",
          "type": "bytes32"
        }
      ],
      "name": "isNotDuplicateAnion",
      "outputs": [
        {
          "internalType": "bool",
          "name": "",
          "type": "bool"
        }
      ],
      "stateMutability": "view",
      "type": "function"
    },
    {
      "inputs": [
        {
          "internalType": "bytes32",
          "name": "polyhash",
          "type": "bytes32"
        },
        {
          "internalType": "address",
          "name": "config",
          "type": "address"
        }
      ],
      "name": "isNotDuplicateHook",
      "outputs": [
        {
          "internalType": "bool",
          "name": "",
          "type": "bool"
        }
      ],
      "stateMutability": "view",
      "type": "function"
    },
    {
      "inputs": [
        {
          "internalType": "bytes32",
          "name": "polyhash",
          "type": "bytes32"
        },
        {
          "internalType": "bytes32",
          "name": "__anion",
          "type": "bytes32"
        }
      ],
      "name": "popAnion",
      "outputs": [],
      "stateMutability": "nonpayable",
      "type": "function"
    },
    {
      "inputs": [
        {
          "internalType": "bytes32",
          "name": "polyhash",
          "type": "bytes32"
        }
      ],
      "name": "recordExists",
      "outputs": [
        {
          "internalType": "bool",
          "name": "",
          "type": "bool"
        }
      ],
      "stateMutability": "view",
      "type": "function"
    },
    {
      "inputs": [
        {
          "internalType": "bytes32",
          "name": "polyhash",
          "type": "bytes32"
        },
        {
          "internalType": "uint8",
          "name": "rule",
          "type": "uint8"
        },
        {
          "internalType": "address",
          "name": "config",
          "type": "address"
        }
      ],
      "name": "rehook",
      "outputs": [],
      "stateMutability": "nonpayable",
      "type": "function"
    },
    {
      "inputs": [
        {
          "internalType": "bytes32",
          "name": "polyhash",
          "type": "bytes32"
        },
        {
          "internalType": "uint8",
          "name": "rule",
          "type": "uint8"
        },
        {
          "internalType": "bytes32",
          "name": "__anion",
          "type": "bytes32"
        }
      ],
      "name": "rehook",
      "outputs": [],
      "stateMutability": "nonpayable",
      "type": "function"
    },
    {
      "inputs": [
        {
          "internalType": "bytes32",
          "name": "polyhash",
          "type": "bytes32"
        }
      ],
      "name": "resolver",
      "outputs": [
        {
          "internalType": "address",
          "name": "",
          "type": "address"
        }
      ],
      "stateMutability": "view",
      "type": "function"
    },
    {
      "inputs": [],
      "name": "roothash",
      "outputs": [
        {
          "internalType": "bytes32",
          "name": "",
          "type": "bytes32"
        }
      ],
      "stateMutability": "view",
      "type": "function"
    },
    {
      "inputs": [
        {
          "internalType": "bytes32",
          "name": "polyhash",
          "type": "bytes32"
        },
        {
          "internalType": "bytes32",
          "name": "_alias",
          "type": "bytes32"
        }
      ],
      "name": "setAlias",
      "outputs": [],
      "stateMutability": "nonpayable",
      "type": "function"
    },
    {
      "inputs": [
        {
          "internalType": "bytes32",
          "name": "polyhash",
          "type": "bytes32"
        },
        {
          "internalType": "bytes32[]",
          "name": "_anion",
          "type": "bytes32[]"
        },
        {
          "internalType": "address[]",
          "name": "_config",
          "type": "address[]"
        },
        {
          "internalType": "uint8[]",
          "name": "_rules",
          "type": "uint8[]"
        }
      ],
      "name": "setAnions",
      "outputs": [],
      "stateMutability": "nonpayable",
      "type": "function"
    },
    {
      "inputs": [
        {
          "internalType": "address",
          "name": "operator",
          "type": "address"
        },
        {
          "internalType": "bool",
          "name": "approved",
          "type": "bool"
        }
      ],
      "name": "setApprovalForAll",
      "outputs": [],
      "stateMutability": "nonpayable",
      "type": "function"
    },
    {
      "inputs": [
        {
          "internalType": "bytes32",
          "name": "polyhash",
          "type": "bytes32"
        },
        {
          "internalType": "bytes32",
          "name": "_cation",
          "type": "bytes32"
        }
      ],
      "name": "setCation",
      "outputs": [],
      "stateMutability": "nonpayable",
      "type": "function"
    },
    {
      "inputs": [
        {
          "internalType": "bytes32",
          "name": "polyhash",
          "type": "bytes32"
        },
        {
          "internalType": "address",
          "name": "_controller",
          "type": "address"
        }
      ],
      "name": "setController",
      "outputs": [],
      "stateMutability": "nonpayable",
      "type": "function"
    },
    {
      "inputs": [
        {
          "internalType": "bytes32",
          "name": "polyhash",
          "type": "bytes32"
        },
        {
          "internalType": "bool",
          "name": "_covalence",
          "type": "bool"
        }
      ],
      "name": "setCovalence",
      "outputs": [],
      "stateMutability": "nonpayable",
      "type": "function"
    },
    {
      "inputs": [
        {
          "internalType": "bytes32",
          "name": "polyhash",
          "type": "bytes32"
        },
        {
          "internalType": "uint256",
          "name": "_expiry",
          "type": "uint256"
        }
      ],
      "name": "setExpiry",
      "outputs": [],
      "stateMutability": "payable",
      "type": "function"
    },
    {
      "inputs": [
        {
          "internalType": "bytes32",
          "name": "polyhash",
          "type": "bytes32"
        },
        {
          "internalType": "address",
          "name": "_resolver",
          "type": "address"
        }
      ],
      "name": "setRecord",
      "outputs": [],
      "stateMutability": "nonpayable",
      "type": "function"
    },
    {
      "inputs": [
        {
          "internalType": "bytes32",
          "name": "polyhash",
          "type": "bytes32"
        },
        {
          "internalType": "address",
          "name": "_resolver",
          "type": "address"
        }
      ],
      "name": "setResolver",
      "outputs": [],
      "stateMutability": "nonpayable",
      "type": "function"
    },
    {
      "inputs": [],
      "name": "theEnd",
      "outputs": [
        {
          "internalType": "uint256",
          "name": "",
          "type": "uint256"
        }
      ],
      "stateMutability": "view",
      "type": "function"
    },
    {
      "inputs": [
        {
          "internalType": "bytes32",
          "name": "polyhash",
          "type": "bytes32"
        },
        {
          "internalType": "address",
          "name": "config",
          "type": "address"
        }
      ],
      "name": "unhook",
      "outputs": [],
      "stateMutability": "nonpayable",
      "type": "function"
    },
    {
      "inputs": [
        {
          "internalType": "bytes32",
          "name": "polyhash",
          "type": "bytes32"
        },
        {
          "internalType": "bytes32",
          "name": "__anion",
          "type": "bytes32"
        }
      ],
      "name": "unhook",
      "outputs": [],
      "stateMutability": "nonpayable",
      "type": "function"
    },
    {
      "inputs": [
        {
          "internalType": "bytes32",
          "name": "polyhash",
          "type": "bytes32"
        }
      ],
      "name": "unhookAll",
      "outputs": [],
      "stateMutability": "nonpayable",
      "type": "function"
    },
    {
      "inputs": [],
      "name": "withdrawEther",
      "outputs": [],
      "stateMutability": "payable",
      "type": "function"
    },
    {
      "inputs": [
        {
          "internalType": "address",
          "name": "token",
          "type": "address"
        }
      ],
      "name": "withdrawToken",
      "outputs": [],
      "stateMutability": "payable",
      "type": "function"
    }
  ],
  "bytecode": {
    "object": "0x60806040526703782dace9d900006005553480156200001d57600080fd5b50604051620053e8380380620053e8833981016040819052620000409162000749565b60028054336001600160a01b0319918216179091556000805482166001600160a01b03848116918217909255600180549093169185169190911790915560408051633215476b60e11b8152905163642a8ed6916004808201926080929091908290030181865afa158015620000b9573d6000803e3d6000fd5b505050506040513d601f19601f82011682018060405250810190620000df9190620007b8565b606001516003556000546040805163bd9a548b60e01b815290516001600160a01b039092169163bd9a548b916004808201926080929091908290030181865afa15801562000131573d6000803e3d6000fd5b505050506040513d601f19601f82011682018060405250810190620001579190620007b8565b606001516004556200016862000170565b50506200085d565b7f3530788012b75d807ed21d67650284173cf1b5aa003fda795c62c56bc64b06ed805460ff19169055604080516020818101909252600080825280526006909152620001e0907f54cdd369e4e8a8515e52ca72ec816c2101831ad1f18bf44102ed171459c9b4f89060016200066d565b5060007f54cdd369e4e8a8515e52ca72ec816c2101831ad1f18bf44102ed171459c9b4fa819055604080516020818101909252828152918052600690526200024c907f54cdd369e4e8a8515e52ca72ec816c2101831ad1f18bf44102ed171459c9b4fb906001620006d7565b50600080805260066020527f54cdd369e4e8a8515e52ca72ec816c2101831ad1f18bf44102ed171459c9b4fc8190557f54cdd369e4e8a8515e52ca72ec816c2101831ad1f18bf44102ed171459c9b4fe80546005547f54cdd369e4e8a8515e52ca72ec816c2101831ad1f18bf44102ed171459c9b4ff556001600160a81b03191633908117600160a01b179091557f54cdd369e4e8a8515e52ca72ec816c2101831ad1f18bf44102ed171459c9b4fd80546001600160a01b0319169091179055805460408051633215476b60e11b815290516001600160a01b03929092169163642a8ed6916004818101926080929091908290030181865afa15801562000357573d6000803e3d6000fd5b505050506040513d601f19601f820116820180604052508101906200037d9190620007b8565b905060005b60048110156200066957600060066000848460048110620003a757620003a76200081f565b60209081029190910151825281810192909252604090810160009081208180526001018352818120805460ff191660ff959095169490941790935580519182019052818152906006908484600481106200040557620004056200081f565b602002015181526020019081526020016000206000019060016200042b9291906200066d565b508181600481106200044157620004416200081f565b6020020151600660008484600481106200045f576200045f6200081f565b602002015181526020019081526020016000206002018190555060405180602001604052808383600481106200049957620004996200081f565b6020020151905260066000848460048110620004b957620004b96200081f565b60200201518152602001908152602001600020600301906001620004df929190620006d7565b50818160048110620004f557620004f56200081f565b6020020151600660008484600481106200051357620005136200081f565b60200201518152602001908152602001600020600401819055506001600660008484600481106200054857620005486200081f565b6020020151815260200190815260200160002060060160146101000a81548160ff021916908315150217905550600554600660008484600481106200059157620005916200081f565b60200201518152602001908152602001600020600701819055503360066000848460048110620005c557620005c56200081f565b6020020151815260200190815260200160002060060160006101000a8154816001600160a01b0302191690836001600160a01b0316021790555033600660008484600481106200061957620006196200081f565b6020020151815260200190815260200160002060050160006101000a8154816001600160a01b0302191690836001600160a01b031602179055508080620006609062000835565b91505062000382565b5050565b828054828255906000526020600020908101928215620006c5579160200282015b82811115620006c557825182546001600160a01b0319166001600160a01b039091161782556020909201916001909101906200068e565b50620006d392915062000715565b5090565b828054828255906000526020600020908101928215620006c5579160200282015b82811115620006c5578251825591602001919060010190620006f8565b5b80821115620006d3576000815560010162000716565b80516001600160a01b03811681146200074457600080fd5b919050565b600080604083850312156200075d57600080fd5b62000768836200072c565b915062000778602084016200072c565b90509250929050565b604051608081016001600160401b0381118282101715620007b257634e487b7160e01b600052604160045260246000fd5b60405290565b600060808284031215620007cb57600080fd5b82601f830112620007db57600080fd5b620007e562000781565b806080840185811115620007f857600080fd5b845b8181101562000814578051845260209384019301620007fa565b509095945050505050565b634e487b7160e01b600052603260045260246000fd5b6000600182016200085657634e487b7160e01b600052601160045260246000fd5b5060010190565b614b7b806200086d6000396000f3fe6080604052600436106102bb5760003560e01c806375c4f68e1161016e578063c7876ea4116100cb578063dbd4e0211161007f578063f61ccd5311610064578063f61ccd531461080d578063f79fe5381461082d578063f8c912441461085f57600080fd5b8063dbd4e021146107cd578063e73f8060146107ed57600080fd5b8063d2ec5fca116100b0578063d2ec5fca1461075d578063d31569051461078d578063d9b76ed4146107ad57600080fd5b8063c7876ea414610727578063d07699aa1461073d57600080fd5b80639e162dfa11610122578063b069862811610107578063b0698628146106c7578063b782426e146106e7578063c5bc4c0b1461070757600080fd5b80639e162dfa14610687578063a22cb465146106a757600080fd5b806388a8c95c1161015357806388a8c95c1461063457806389476069146106545780638dcad1391461066757600080fd5b806375c4f68e1461055f5780638146970a1461061457600080fd5b806321ec2b5b1161021c57806334026859116101d0578063516aeda0116101b5578063516aeda0146105175780635b55b376146105375780637362377b1461055757600080fd5b806334026859146104e457806339de64691461050457600080fd5b8063241270d511610201578063241270d51461048e578063250548b9146104ae578063251c9422146104ce57600080fd5b806321ec2b5b1461044a57806322b68deb1461046a57600080fd5b80630aac6625116102735780631896f70a116102585780631896f70a146103ea5780631f06e91c1461040a5780631f10ea071461042a57600080fd5b80630aac66251461038f5780630e68b116146103bd57600080fd5b806301e51ae8116102a457806301e51ae81461031f578063049a491c1461033f57806305e84aa01461036f57600080fd5b8063015399e6146102c05780630178b8bf146102e2575b600080fd5b3480156102cc57600080fd5b506102e06102db366004614356565b61087f565b005b3480156102ee57600080fd5b506103026102fd366004614396565b610ad6565b6040516001600160a01b0390911681526020015b60405180910390f35b34801561032b57600080fd5b50600254610302906001600160a01b031681565b34801561034b57600080fd5b5061035f61035a3660046143af565b610b4f565b6040519015158152602001610316565b34801561037b57600080fd5b50600154610302906001600160a01b031681565b34801561039b57600080fd5b506103af6103aa366004614396565b610c01565b6040516103169291906143df565b3480156103c957600080fd5b506103dd6103d8366004614396565b610db8565b6040516103169190614466565b3480156103f657600080fd5b506102e06104053660046143af565b610e77565b34801561041657600080fd5b506102e06104253660046144aa565b611071565b34801561043657600080fd5b5061035f61044536600461463d565b61123b565b34801561045657600080fd5b506102e0610465366004614396565b611256565b34801561047657600080fd5b5061048060055481565b604051908152602001610316565b34801561049a57600080fd5b506102e06104a93660046143af565b611586565b3480156104ba57600080fd5b506102e06104c93660046146a1565b6119b7565b3480156104da57600080fd5b5061048060035481565b3480156104f057600080fd5b5061035f6104ff366004614396565b611dff565b6102e06105123660046144aa565b611e87565b34801561052357600080fd5b506102e06105323660046144aa565b61212c565b34801561054357600080fd5b506102e061055236600461478e565b6125b8565b6102e0612ab5565b34801561056b57600080fd5b506105d861057a366004614396565b600660208190526000918252604090912060028101546004820154600583015493830154600790930154919390926001600160a01b0391821692918116917401000000000000000000000000000000000000000090910460ff169086565b6040805196875260208701959095526001600160a01b0393841694860194909452911660608401521515608083015260a082015260c001610316565b34801561062057600080fd5b506102e061062f3660046144aa565b612b5b565b34801561064057600080fd5b506102e061064f3660046147c3565b612d00565b6102e06106623660046147c3565b612dd0565b34801561067357600080fd5b506102e06106823660046144aa565b612ef6565b34801561069357600080fd5b506102e06106a23660046147e7565b6133ce565b3480156106b357600080fd5b506102e06106c236600461483d565b613639565b3480156106d357600080fd5b5061035f6106e23660046143af565b6136a5565b3480156106f357600080fd5b50600054610302906001600160a01b031681565b34801561071357600080fd5b50610480610722366004614396565b613749565b34801561073357600080fd5b5061048060045481565b34801561074957600080fd5b506102e061075836600461486b565b6137b5565b34801561076957600080fd5b50610480610778366004614396565b60009081526006602052604090206007015490565b34801561079957600080fd5b506102e06107a83660046143af565b6139c1565b3480156107b957600080fd5b506102e06107c83660046143af565b613bb0565b3480156107d957600080fd5b506103026107e8366004614396565b613d9f565b3480156107f957600080fd5b506102e0610808366004614890565b613e15565b34801561081957600080fd5b50610480610828366004614396565b61419a565b34801561083957600080fd5b5061035f610848366004614396565b600090815260066020526040902060070154421090565b34801561086b57600080fd5b5061035f61087a3660046144aa565b614295565b600083815260066020526040902060070154839042106108d95760405162461bcd60e51b815260206004820152601060248201526f1413d31650d5531157d156141254915160821b60448201526064015b60405180910390fd5b6000818152600660205260408082206002015460015491516302571be360e01b8152600481018290529092916001600160a01b0316906302571be390602401602060405180830381865afa158015610935573d6000803e3d6000fd5b505050506040513d601f19601f8201168201806040525081019061095991906148d8565b90506001600160a01b03811633148061099557506001600160a01b038116600090815260076020908152604080832033845290915290205460ff165b6109e15760405162461bcd60e51b815260206004820152600960248201527f4e4f545f4f574e4552000000000000000000000000000000000000000000000060448201526064016108d0565b60008681526006602090815260408083206001600160a01b038816845260010190915290205460ff808716911603610a5b5760405162461bcd60e51b815260206004820152600b60248201527f52554c455f45584953545300000000000000000000000000000000000000000060448201526064016108d0565b60008681526006602090815260408083206001600160a01b0388168085526001909101835292819020805460ff191660ff8a1690811790915581519384529183019190915287917f1abc00531586337cfd45709506ca0d48a44e1eb54325e589ec054ce83373e07a91015b60405180910390a2505050505050565b60008181526006602052604081206007015482904210610b2b5760405162461bcd60e51b815260206004820152601060248201526f1413d31650d5531157d156141254915160821b60448201526064016108d0565b6000838152600660205260409020600501546001600160a01b031691505b50919050565b60008281526006602052604080822090517f2306f46600000000000000000000000000000000000000000000000000000000815273__$47e4ffaaf323c41735ff299f8946896ce0$__91632306f46691610bb6916001600160a01b038716916004016148f5565b602060405180830381865af4158015610bd3573d6000803e3d6000fd5b505050506040513d601f19601f82011682018060405250810190610bf79190614955565b1590505b92915050565b600081815260066020526040902060070154606090819083904210610c5b5760405162461bcd60e51b815260206004820152601060248201526f1413d31650d5531157d156141254915160821b60448201526064016108d0565b600084815260066020908152604080832080548251818502810185019093528083529192909190830182828015610cbb57602002820191906000526020600020905b81546001600160a01b03168152600190910190602001808311610c9d575b505050505090506000815167ffffffffffffffff811115610cde57610cde6144cc565b604051908082528060200260200182016040528015610d07578160200160208202803683370190505b50905060005b8251811015610dac57600660008881526020019081526020016000206001016000848381518110610d4057610d40614972565b60200260200101516001600160a01b03166001600160a01b0316815260200190815260200160002060009054906101000a900460ff16828281518110610d8857610d88614972565b60ff9092166020928302919091019091015280610da4816149d0565b915050610d0d565b50909350915050915091565b60008181526006602052604090206007015460609082904210610e105760405162461bcd60e51b815260206004820152601060248201526f1413d31650d5531157d156141254915160821b60448201526064016108d0565b600083815260066020908152604080832060030180548251818502810185019093528083529192909190830182828015610e6957602002820191906000526020600020905b815481526020019060010190808311610e55575b509398975050505050505050565b60008281526006602052604090206007015482904210610ecc5760405162461bcd60e51b815260206004820152601060248201526f1413d31650d5531157d156141254915160821b60448201526064016108d0565b6000818152600660205260408082206002015460015491516302571be360e01b8152600481018290529092916001600160a01b0316906302571be390602401602060405180830381865afa158015610f28573d6000803e3d6000fd5b505050506040513d601f19601f82011682018060405250810190610f4c91906148d8565b90506001600160a01b038116331480610f8857506001600160a01b038116600090815260076020908152604080832033845290915290205460ff165b80610fad5750600083815260066020819052604090912001546001600160a01b031633145b610ff95760405162461bcd60e51b815260206004820152601760248201527f4e4f545f4f574e45525f4f525f434f4e54524f4c4c455200000000000000000060448201526064016108d0565b600085815260066020908152604091829020600501805473ffffffffffffffffffffffffffffffffffffffff19166001600160a01b038816908117909155915191825286917f335721b01866dc23fbee8b6b2c7b1e14d6f05c28cd35a2c934239f94095602a091015b60405180910390a25050505050565b600082815260066020526040902060070154829042106110c65760405162461bcd60e51b815260206004820152601060248201526f1413d31650d5531157d156141254915160821b60448201526064016108d0565b6000818152600660205260408082206002015460015491516302571be360e01b8152600481018290529092916001600160a01b0316906302571be390602401602060405180830381865afa158015611122573d6000803e3d6000fd5b505050506040513d601f19601f8201168201806040525081019061114691906148d8565b90506001600160a01b03811633148061118257506001600160a01b038116600090815260076020908152604080832033845290915290205460ff165b806111a75750600083815260066020819052604090912001546001600160a01b031633145b6111f35760405162461bcd60e51b815260206004820152601760248201527f4e4f545f4f574e45525f4f525f434f4e54524f4c4c455200000000000000000060448201526064016108d0565b600085815260066020526040908190206004018590555185907f4247841fd58468a6fb10925898bdd83c426da7b5519ee71597106dfdc6751229906110629087815260200190565b6000815183510361124e57506001610bfb565b506000610bfb565b600081815260066020526040902060070154819042106112ab5760405162461bcd60e51b815260206004820152601060248201526f1413d31650d5531157d156141254915160821b60448201526064016108d0565b6000818152600660205260408082206002015460015491516302571be360e01b8152600481018290529092916001600160a01b0316906302571be390602401602060405180830381865afa158015611307573d6000803e3d6000fd5b505050506040513d601f19601f8201168201806040525081019061132b91906148d8565b90506001600160a01b03811633148061136757506001600160a01b038116600090815260076020908152604080832033845290915290205460ff165b6113b35760405162461bcd60e51b815260206004820152600960248201527f4e4f545f4f574e4552000000000000000000000000000000000000000000000060448201526064016108d0565b60008481526006602090815260408083208054825181850281018501909352808352919290919083018282801561141357602002820191906000526020600020905b81546001600160a01b031681526001909101906020018083116113f5575b5050505050905060005b815181101561150457600060066000888152602001908152602001600020600101600084848151811061145257611452614972565b60200260200101516001600160a01b03166001600160a01b0316815260200190815260200160002060006101000a81548160ff021916908360ff160217905550857ff80d6be10f45d9294a75f05d07efcf9391c6eafe6844c8b639d21e9ff49024d48383815181106114c6576114c6614972565b60200260200101516040516114ea91906001600160a01b0391909116815260200190565b60405180910390a2806114fc816149d0565b91505061141d565b50600085815260066020526040812061151c916142f9565b60405185907f6b91085369552b61ca16180a741663b69fb6b3b967f7271116521d84e2291dc590600090a250505060009182525060066020908152604082208054600181018255908352912001805473ffffffffffffffffffffffffffffffffffffffff19169055565b600082815260066020526040902060070154829042106115db5760405162461bcd60e51b815260206004820152601060248201526f1413d31650d5531157d156141254915160821b60448201526064016108d0565b6000818152600660205260408082206002015460015491516302571be360e01b8152600481018290529092916001600160a01b0316906302571be390602401602060405180830381865afa158015611637573d6000803e3d6000fd5b505050506040513d601f19601f8201168201806040525081019061165b91906148d8565b90506001600160a01b03811633148061169757506001600160a01b038116600090815260076020908152604080832033845290915290205460ff165b6116e35760405162461bcd60e51b815260206004820152600960248201527f4e4f545f4f574e4552000000000000000000000000000000000000000000000060448201526064016108d0565b60008581526006602090815260408083208054825181850281018501909352808352919290919083018282801561174357602002820191906000526020600020905b81546001600160a01b03168152600190910190602001808311611725575b50506040517f2306f46600000000000000000000000000000000000000000000000000000000815293945073__$47e4ffaaf323c41735ff299f8946896ce0$__93632306f46693506117a692506001600160a01b038a1691508590600401614a08565b602060405180830381865af41580156117c3573d6000803e3d6000fd5b505050506040513d601f19601f820116820180604052508101906117e79190614955565b1561197c576040517fcd23ef4c00000000000000000000000000000000000000000000000000000000815260009073__$47e4ffaaf323c41735ff299f8946896ce0$__9063cd23ef4c9061184a906001600160a01b038a16908690600401614a08565b602060405180830381865af4158015611867573d6000803e3d6000fd5b505050506040513d601f19601f8201168201806040525081019061188b9190614a55565b9050806118cd576040516000815287907ff80d6be10f45d9294a75f05d07efcf9391c6eafe6844c8b639d21e9ff49024d49060200160405180910390a2611976565b60008781526006602090815260408083206001600160a01b038a168085526001909101835292819020805460ff191690555191825288917ff80d6be10f45d9294a75f05d07efcf9391c6eafe6844c8b639d21e9ff49024d4910160405180910390a2600087815260066020526040902080548290811061194f5761194f614972565b6000918252602090912001805473ffffffffffffffffffffffffffffffffffffffff191690555b506119af565b6040516000815286907ff80d6be10f45d9294a75f05d07efcf9391c6eafe6844c8b639d21e9ff49024d490602001610ac6565b505050505050565b60008481526006602052604090206007015484904210611a0c5760405162461bcd60e51b815260206004820152601060248201526f1413d31650d5531157d156141254915160821b60448201526064016108d0565b6000818152600660205260408082206002015460015491516302571be360e01b8152600481018290529092916001600160a01b0316906302571be390602401602060405180830381865afa158015611a68573d6000803e3d6000fd5b505050506040513d601f19601f82011682018060405250810190611a8c91906148d8565b90506001600160a01b038116331480611ac857506001600160a01b038116600090815260076020908152604080832033845290915290205460ff165b80611aed5750600083815260066020819052604090912001546001600160a01b031633145b611b395760405162461bcd60e51b815260206004820152601760248201527f4e4f545f4f574e45525f4f525f434f4e54524f4c4c455200000000000000000060448201526064016108d0565b611b43868661123b565b611b8f5760405162461bcd60e51b815260206004820152600760248201527f4241445f4d41500000000000000000000000000000000000000000000000000060448201526064016108d0565b60005b8651811015611dbd57868181518110611bad57611bad614972565b602002602001015173__$47e4ffaaf323c41735ff299f8946896ce0$__636fd8c6859091600660008c81526020019081526020016000206003016040518363ffffffff1660e01b8152600401611c04929190614a6e565b602060405180830381865af4158015611c21573d6000803e3d6000fd5b505050506040513d601f19601f82011682018060405250810190611c459190614955565b611dab5760066000898152602001908152602001600020600301878281518110611c7157611c71614972565b60209081029190910181015182546001810184556000938452828420015589825260069052604090208651879083908110611cae57611cae614972565b602090810291909101810151825460018101845560009384529190922001805473ffffffffffffffffffffffffffffffffffffffff19166001600160a01b039092169190911790558451859082908110611d0a57611d0a614972565b6020026020010151600660008a81526020019081526020016000206001016000888481518110611d3c57611d3c614972565b6020908102919091018101516001600160a01b031682528181019290925260409081016000908120805460ff191660ff95909516949094179093558a83526006918290529091200180547fffffffffffffffffffffff00ffffffffffffffffffffffffffffffffffffffff1690555b80611db5816149d0565b915050611b92565b50867f580d99949e5d5a02f35dc5b91b800697d53dccb814e200f24f97b4bfbeb8667c87604051611dee9190614466565b60405180910390a250505050505050565b60008181526006602052604081206007015482904210611e545760405162461bcd60e51b815260206004820152601060248201526f1413d31650d5531157d156141254915160821b60448201526064016108d0565b50506000908152600660208190526040909120015474010000000000000000000000000000000000000000900460ff1690565b60008281526006602052604090206007015482904210611edc5760405162461bcd60e51b815260206004820152601060248201526f1413d31650d5531157d156141254915160821b60448201526064016108d0565b6000818152600660205260408082206002015460015491516302571be360e01b8152600481018290529092916001600160a01b0316906302571be390602401602060405180830381865afa158015611f38573d6000803e3d6000fd5b505050506040513d601f19601f82011682018060405250810190611f5c91906148d8565b90506001600160a01b038116331480611f9857506001600160a01b038116600090815260076020908152604080832033845290915290205460ff165b80611fbd5750600083815260066020819052604090912001546001600160a01b031633145b6120095760405162461bcd60e51b815260206004820152601760248201527f4e4f545f4f574e45525f4f525f434f4e54524f4c4c455200000000000000000060448201526064016108d0565b60008581526006602052604090206007015484116120695760405162461bcd60e51b815260206004820152600a60248201527f4241445f4558504952590000000000000000000000000000000000000000000060448201526064016108d0565b6000858152600660205260408120600701546120859086614ab4565b9050600454816120959190614ac7565b3410156120e45760405162461bcd60e51b815260206004820152601260248201527f494e53554646494349454e545f4554484552000000000000000000000000000060448201526064016108d0565b600086815260066020526040908190206007018690555186907fa620b72378ee464490805a96e25b53e5c0076f0ce2d28f9691ae255a595b3bf390610ac69088815260200190565b600082815260066020526040902060070154829042106121815760405162461bcd60e51b815260206004820152601060248201526f1413d31650d5531157d156141254915160821b60448201526064016108d0565b6000818152600660205260408082206002015460015491516302571be360e01b8152600481018290529092916001600160a01b0316906302571be390602401602060405180830381865afa1580156121dd573d6000803e3d6000fd5b505050506040513d601f19601f8201168201806040525081019061220191906148d8565b90506001600160a01b03811633148061223d57506001600160a01b038116600090815260076020908152604080832033845290915290205460ff165b6122895760405162461bcd60e51b815260206004820152600960248201527f4e4f545f4f574e4552000000000000000000000000000000000000000000000060448201526064016108d0565b6000858152600660209081526040808320805482518185028101850190935280835291929091908301828280156122e957602002820191906000526020600020905b81546001600160a01b031681526001909101906020018083116122cb575b5050505050905060006006600088815260200190815260200160002060030180548060200260200160405190810160405280929190818152602001828054801561235257602002820191906000526020600020905b81548152602001906001019080831161233e575b50506040517f6fd8c68500000000000000000000000000000000000000000000000000000000815293945073__$47e4ffaaf323c41735ff299f8946896ce0$__93636fd8c68593506123ac92508a91508590600401614b04565b602060405180830381865af41580156123c9573d6000803e3d6000fd5b505050506040513d601f19601f820116820180604052508101906123ed9190614955565b1561257c576040517fda92b9ed00000000000000000000000000000000000000000000000000000000815260009073__$47e4ffaaf323c41735ff299f8946896ce0$__9063da92b9ed90612447908a908690600401614b04565b602060405180830381865af4158015612464573d6000803e3d6000fd5b505050506040513d601f19601f820116820180604052508101906124889190614a55565b90506000600660008a815260200190815260200160002060010160008584815181106124b6576124b6614972565b60200260200101516001600160a01b03166001600160a01b0316815260200190815260200160002060006101000a81548160ff021916908360ff160217905550877ff13ce89e57ea348ff8e29c4131c87b4d1b50ecf4edb1c68288b5e0cd3985b3f98860405161252891815260200190565b60405180910390a2600088815260066020526040902080548290811061255057612550614972565b6000918252602090912001805473ffffffffffffffffffffffffffffffffffffffff19169055506125af565b6040516000815287907ff13ce89e57ea348ff8e29c4131c87b4d1b50ecf4edb1c68288b5e0cd3985b3f990602001611dee565b50505050505050565b6000838152600660205260409020600701548390421061260d5760405162461bcd60e51b815260206004820152601060248201526f1413d31650d5531157d156141254915160821b60448201526064016108d0565b6000818152600660205260408082206002015460015491516302571be360e01b8152600481018290529092916001600160a01b0316906302571be390602401602060405180830381865afa158015612669573d6000803e3d6000fd5b505050506040513d601f19601f8201168201806040525081019061268d91906148d8565b90506001600160a01b0381163314806126c957506001600160a01b038116600090815260076020908152604080832033845290915290205460ff165b6127155760405162461bcd60e51b815260206004820152600960248201527f4e4f545f4f574e4552000000000000000000000000000000000000000000000060448201526064016108d0565b60008681526006602090815260408083208054825181850281018501909352808352919290919083018282801561277557602002820191906000526020600020905b81546001600160a01b03168152600190910190602001808311612757575b505050505090506000600660008981526020019081526020016000206003018054806020026020016040519081016040528092919081815260200182805480156127de57602002820191906000526020600020905b8154815260200190600101908083116127ca575b50506040517f6fd8c68500000000000000000000000000000000000000000000000000000000815293945073__$47e4ffaaf323c41735ff299f8946896ce0$__93636fd8c685935061283892508a91508590600401614b04565b602060405180830381865af4158015612855573d6000803e3d6000fd5b505050506040513d601f19601f820116820180604052508101906128799190614955565b15612a6f576040517fda92b9ed00000000000000000000000000000000000000000000000000000000815260009073__$47e4ffaaf323c41735ff299f8946896ce0$__9063da92b9ed906128d3908a908690600401614b04565b602060405180830381865af41580156128f0573d6000803e3d6000fd5b505050506040513d601f19601f820116820180604052508101906129149190614a55565b90508760ff16600660008b8152602001908152602001600020600101600085848151811061294457612944614972565b6020908102919091018101516001600160a01b031682528101919091526040016000205460ff16036129b85760405162461bcd60e51b815260206004820152600b60248201527f52554c455f45584953545300000000000000000000000000000000000000000060448201526064016108d0565b87600660008b815260200190815260200160002060010160008584815181106129e3576129e3614972565b60200260200101516001600160a01b03166001600160a01b0316815260200190815260200160002060006101000a81548160ff021916908360ff160217905550887f12bf96b3da46c044c59d8b13a96d1a5f53adf413cbe17f743ac2ed2c285257de888a604051612a6192919091825260ff16602082015260400190565b60405180910390a250612aab565b6040517f5adb3bc700000000000000000000000000000000000000000000000000000000815260048101899052602481018790526044016108d0565b5050505050505050565b6002546040516000916001600160a01b03169047908381818185875af1925050503d8060008114612b02576040519150601f19603f3d011682016040523d82523d6000602084013e612b07565b606091505b5050905080612b585760405162461bcd60e51b815260206004820152601360248201527f4554485f5452414e534645525f4641494c45440000000000000000000000000060448201526064016108d0565b50565b60008281526006602052604090206007015482904210612bb05760405162461bcd60e51b815260206004820152601060248201526f1413d31650d5531157d156141254915160821b60448201526064016108d0565b6000818152600660205260408082206002015460015491516302571be360e01b8152600481018290529092916001600160a01b0316906302571be390602401602060405180830381865afa158015612c0c573d6000803e3d6000fd5b505050506040513d601f19601f82011682018060405250810190612c3091906148d8565b90506001600160a01b038116331480612c6c57506001600160a01b038116600090815260076020908152604080832033845290915290205460ff165b612cb85760405162461bcd60e51b815260206004820152600960248201527f4e4f545f4f574e4552000000000000000000000000000000000000000000000060448201526064016108d0565b600085815260066020526040908190206002018590555185907f4810581adf2c16a86a375dbb1ed89b0b0f7e64d48d24e1948b3dfe6581e4d795906110629087815260200190565b6002546001600160a01b03163314612d5a5760405162461bcd60e51b815260206004820152600760248201527f4e4f545f4445560000000000000000000000000000000000000000000000000060448201526064016108d0565b600254604080516001600160a01b03928316815291831660208301527fdec101f106d4fc7c85791843e64b198248c822298e3ed7046231d33f7783d816910160405180910390a16002805473ffffffffffffffffffffffffffffffffffffffff19166001600160a01b0392909216919091179055565b6002546040517f70a0823100000000000000000000000000000000000000000000000000000000815230600482018190526001600160a01b03848116936323b872dd9391169084906370a0823190602401602060405180830381865afa158015612e3e573d6000803e3d6000fd5b505050506040513d601f19601f82011682018060405250810190612e629190614a55565b6040517fffffffff0000000000000000000000000000000000000000000000000000000060e086901b1681526001600160a01b03938416600482015292909116602483015260448201526064016020604051808303816000875af1158015612ece573d6000803e3d6000fd5b505050506040513d601f19601f82011682018060405250810190612ef29190614955565b5050565b60008281526006602052604090206007015482904210612f4b5760405162461bcd60e51b815260206004820152601060248201526f1413d31650d5531157d156141254915160821b60448201526064016108d0565b6000818152600660205260408082206002015460015491516302571be360e01b8152600481018290529092916001600160a01b0316906302571be390602401602060405180830381865afa158015612fa7573d6000803e3d6000fd5b505050506040513d601f19601f82011682018060405250810190612fcb91906148d8565b90506001600160a01b03811633148061300757506001600160a01b038116600090815260076020908152604080832033845290915290205460ff165b8061302c5750600083815260066020819052604090912001546001600160a01b031633145b6130785760405162461bcd60e51b815260206004820152601760248201527f4e4f545f4f574e45525f4f525f434f4e54524f4c4c455200000000000000000060448201526064016108d0565b6000858152600660209081526040808320600301805482518185028101850190935280835291929091908301828280156130d157602002820191906000526020600020905b8154815260200190600101908083116130bd575b50505060008981526006602090815260408083208054825181850281018501909352808352969750929590945091925083018282801561313a57602002820191906000526020600020905b81546001600160a01b0316815260019091019060200180831161311c575b50506040517f6fd8c68500000000000000000000000000000000000000000000000000000000815293945073__$47e4ffaaf323c41735ff299f8946896ce0$__93636fd8c685935061319492508a91508690600401614b04565b602060405180830381865af41580156131b1573d6000803e3d6000fd5b505050506040513d601f19601f820116820180604052508101906131d59190614955565b15613392576040517fda92b9ed00000000000000000000000000000000000000000000000000000000815260009073__$47e4ffaaf323c41735ff299f8946896ce0$__9063da92b9ed9061322f908a908790600401614b04565b602060405180830381865af415801561324c573d6000803e3d6000fd5b505050506040513d601f19601f820116820180604052508101906132709190614a55565b90506000600660008a8152602001908152602001600020600101600084848151811061329e5761329e614972565b60200260200101516001600160a01b03166001600160a01b0316815260200190815260200160002060006101000a81548160ff021916908360ff16021790555060066000898152602001908152602001600020600301818154811061330557613305614972565b60009182526020808320909101829055898252600690526040902080548290811061333257613332614972565b600091825260209182902001805473ffffffffffffffffffffffffffffffffffffffff1916905560405188815289917f5c379d054844760656a56e062f50208b458cfa0c4427574f5a2828d19602b4e9910160405180910390a2506125af565b6040517f5adb3bc700000000000000000000000000000000000000000000000000000000815260048101889052602481018790526044016108d0565b600083815260066020526040902060070154839042106134235760405162461bcd60e51b815260206004820152601060248201526f1413d31650d5531157d156141254915160821b60448201526064016108d0565b6000818152600660205260408082206002015460015491516302571be360e01b8152600481018290529092916001600160a01b0316906302571be390602401602060405180830381865afa15801561347f573d6000803e3d6000fd5b505050506040513d601f19601f820116820180604052508101906134a391906148d8565b90506001600160a01b0381163314806134df57506001600160a01b038116600090815260076020908152604080832033845290915290205460ff165b61352b5760405162461bcd60e51b815260206004820152600960248201527f4e4f545f4f574e4552000000000000000000000000000000000000000000000060448201526064016108d0565b6135358685610b4f565b6135815760405162461bcd60e51b815260206004820152600b60248201527f484f4f4b5f45584953545300000000000000000000000000000000000000000060448201526064016108d0565b6000868152600660208181526040808420805460018082018355828752848720909101805473ffffffffffffffffffffffffffffffffffffffff19166001600160a01b038c169081179091558087528183018552838720805460ff191660ff8e169081179091559585526003909201805491820181558652948390209094018b905580519384529083019190915287917fc733a2bc621cc97eef6ed4f708f126e72e6acb76c0a1c0461c9dd31f7b9870659101611dee565b3360008181526007602090815260408083206001600160a01b03871680855290835292819020805460ff191686151590811790915590519081529192917f17307eab39ab6107e8899845ad3d59bd9653f200f220920489ca2b5937696c31910160405180910390a35050565b6001546040516302571be360e01b81526004810184905260009182916001600160a01b03909116906302571be390602401602060405180830381865afa1580156136f3573d6000803e3d6000fd5b505050506040513d601f19601f8201168201806040525081019061371791906148d8565b6001600160a01b0390811660009081526007602090815260408083209387168352929052205460ff1691505092915050565b6000818152600660205260408120600701548290421061379e5760405162461bcd60e51b815260206004820152601060248201526f1413d31650d5531157d156141254915160821b60448201526064016108d0565b505060009081526006602052604090206004015490565b6000828152600660205260409020600701548290421061380a5760405162461bcd60e51b815260206004820152601060248201526f1413d31650d5531157d156141254915160821b60448201526064016108d0565b6000818152600660205260408082206002015460015491516302571be360e01b8152600481018290529092916001600160a01b0316906302571be390602401602060405180830381865afa158015613866573d6000803e3d6000fd5b505050506040513d601f19601f8201168201806040525081019061388a91906148d8565b90506001600160a01b0381163314806138c657506001600160a01b038116600090815260076020908152604080832033845290915290205460ff165b806138eb5750600083815260066020819052604090912001546001600160a01b031633145b6139375760405162461bcd60e51b815260206004820152601760248201527f4e4f545f4f574e45525f4f525f434f4e54524f4c4c455200000000000000000060448201526064016108d0565b60008581526006602081905260409182902001805486151574010000000000000000000000000000000000000000027fffffffffffffffffffffff00ffffffffffffffffffffffffffffffffffffffff9091161790555185907fe6ccdb52b4954ab2c3e293f1dbfe593e6c5630962a1944bfcf20c5563eeb84629061106290871515815260200190565b60008281526006602052604090206007015482904210613a165760405162461bcd60e51b815260206004820152601060248201526f1413d31650d5531157d156141254915160821b60448201526064016108d0565b6000818152600660205260408082206002015460015491516302571be360e01b8152600481018290529092916001600160a01b0316906302571be390602401602060405180830381865afa158015613a72573d6000803e3d6000fd5b505050506040513d601f19601f82011682018060405250810190613a9691906148d8565b90506001600160a01b038116331480613ad257506001600160a01b038116600090815260076020908152604080832033845290915290205460ff165b80613af75750600083815260066020819052604090912001546001600160a01b031633145b613b435760405162461bcd60e51b815260206004820152601760248201527f4e4f545f4f574e45525f4f525f434f4e54524f4c4c455200000000000000000060448201526064016108d0565b600085815260066020818152604092839020909101805473ffffffffffffffffffffffffffffffffffffffff19166001600160a01b038816908117909155915191825286917fe5108446a6097aab57fd36f346a515a78fddefa87d81662d44e0d7a463f920959101611062565b60008281526006602052604090206007015482904210613c055760405162461bcd60e51b815260206004820152601060248201526f1413d31650d5531157d156141254915160821b60448201526064016108d0565b6000818152600660205260408082206002015460015491516302571be360e01b8152600481018290529092916001600160a01b0316906302571be390602401602060405180830381865afa158015613c61573d6000803e3d6000fd5b505050506040513d601f19601f82011682018060405250810190613c8591906148d8565b90506001600160a01b038116331480613cc157506001600160a01b038116600090815260076020908152604080832033845290915290205460ff165b80613ce65750600083815260066020819052604090912001546001600160a01b031633145b613d325760405162461bcd60e51b815260206004820152601760248201527f4e4f545f4f574e45525f4f525f434f4e54524f4c4c455200000000000000000060448201526064016108d0565b600085815260066020908152604091829020600501805473ffffffffffffffffffffffffffffffffffffffff19166001600160a01b038816908117909155915191825286917fcb71326aeaad88869e8be8be2893e1119f7617ce4ea2411af127e218909be1f79101611062565b60008181526006602052604081206007015482904210613df45760405162461bcd60e51b815260206004820152601060248201526f1413d31650d5531157d156141254915160821b60448201526064016108d0565b5050600090815260066020819052604090912001546001600160a01b031690565b60008481526006602052604090206007015484904210613e6a5760405162461bcd60e51b815260206004820152601060248201526f1413d31650d5531157d156141254915160821b60448201526064016108d0565b6000818152600660205260408082206002015460015491516302571be360e01b8152600481018290529092916001600160a01b0316906302571be390602401602060405180830381865afa158015613ec6573d6000803e3d6000fd5b505050506040513d601f19601f82011682018060405250810190613eea91906148d8565b90506001600160a01b038116331480613f2657506001600160a01b038116600090815260076020908152604080832033845290915290205460ff165b80613f4b5750600083815260066020819052604090912001546001600160a01b031633145b613f975760405162461bcd60e51b815260206004820152601760248201527f4e4f545f4f574e45525f4f525f434f4e54524f4c4c455200000000000000000060448201526064016108d0565b613fa18787614295565b613fed5760405162461bcd60e51b815260206004820152600c60248201527f414e494f4e5f455849535453000000000000000000000000000000000000000060448201526064016108d0565b613ff78786610b4f565b6140435760405162461bcd60e51b815260206004820152600b60248201527f484f4f4b5f45584953545300000000000000000000000000000000000000000060448201526064016108d0565b60008781526006602090815260408083206001600160a01b038916845260010190915290205460ff8086169116036140bd5760405162461bcd60e51b815260206004820152600b60248201527f52554c455f45584953545300000000000000000000000000000000000000000060448201526064016108d0565b600087815260066020908152604080832060038101805460018082018355918652848620018b90558154808201835582865284862001805473ffffffffffffffffffffffffffffffffffffffff19166001600160a01b038c16908117909155909452929092018152905187815288917f600ffddd29393ca43c0a11fa6b0b7096631364178cb42f9d546c0a2cd22525ee910160405180910390a2604080516001600160a01b038716815260ff8616602082015288917fc733a2bc621cc97eef6ed4f708f126e72e6acb76c0a1c0461c9dd31f7b9870659101611dee565b600081815260066020526040812060070154829042106141ef5760405162461bcd60e51b815260206004820152601060248201526f1413d31650d5531157d156141254915160821b60448201526064016108d0565b6000838152600660205260408082206002015460015491516302571be360e01b8152600481018290529092916001600160a01b0316906302571be390602401602060405180830381865afa15801561424b573d6000803e3d6000fd5b505050506040513d601f19601f8201168201806040525081019061426f91906148d8565b9050306001600160a01b0382160361428d5760035493505050610b49565b509392505050565b60008281526006602052604080822090517f6fd8c68500000000000000000000000000000000000000000000000000000000815273__$47e4ffaaf323c41735ff299f8946896ce0$__91636fd8c68591610bb6918691600390910190600401614a6e565b5080546000825590600052602060002090810190612b5891905b808211156143275760008155600101614313565b5090565b803560ff8116811461433c57600080fd5b919050565b6001600160a01b0381168114612b5857600080fd5b60008060006060848603121561436b57600080fd5b8335925061437b6020850161432b565b9150604084013561438b81614341565b809150509250925092565b6000602082840312156143a857600080fd5b5035919050565b600080604083850312156143c257600080fd5b8235915060208301356143d481614341565b809150509250929050565b604080825283519082018190526000906020906060840190828701845b828110156144215781516001600160a01b0316845292840192908401906001016143fc565b5050508381038285015284518082528583019183019060005b8181101561445957835160ff168352928401929184019160010161443a565b5090979650505050505050565b6020808252825182820181905260009190848201906040850190845b8181101561449e57835183529284019291840191600101614482565b50909695505050505050565b600080604083850312156144bd57600080fd5b50508035926020909101359150565b7f4e487b7100000000000000000000000000000000000000000000000000000000600052604160045260246000fd5b604051601f82017fffffffffffffffffffffffffffffffffffffffffffffffffffffffffffffffe016810167ffffffffffffffff81118282101715614542576145426144cc565b604052919050565b600067ffffffffffffffff821115614564576145646144cc565b5060051b60200190565b600082601f83011261457f57600080fd5b8135602061459461458f8361454a565b6144fb565b82815260059290921b840181019181810190868411156145b357600080fd5b8286015b848110156145ce57803583529183019183016145b7565b509695505050505050565b600082601f8301126145ea57600080fd5b813560206145fa61458f8361454a565b82815260059290921b8401810191818101908684111561461957600080fd5b8286015b848110156145ce57803561463081614341565b835291830191830161461d565b6000806040838503121561465057600080fd5b823567ffffffffffffffff8082111561466857600080fd5b6146748683870161456e565b9350602085013591508082111561468a57600080fd5b50614697858286016145d9565b9150509250929050565b600080600080608085870312156146b757600080fd5b8435935060208086013567ffffffffffffffff808211156146d757600080fd5b6146e389838a0161456e565b955060408801359150808211156146f957600080fd5b61470589838a016145d9565b9450606088013591508082111561471b57600080fd5b508601601f8101881361472d57600080fd5b803561473b61458f8261454a565b81815260059190911b8201830190838101908a83111561475a57600080fd5b928401925b8284101561477f576147708461432b565b8252928401929084019061475f565b979a9699509497505050505050565b6000806000606084860312156147a357600080fd5b833592506147b36020850161432b565b9150604084013590509250925092565b6000602082840312156147d557600080fd5b81356147e081614341565b9392505050565b600080600080608085870312156147fd57600080fd5b84359350602085013592506148146040860161432b565b9150606085013561482481614341565b939692955090935050565b8015158114612b5857600080fd5b6000806040838503121561485057600080fd5b823561485b81614341565b915060208301356143d48161482f565b6000806040838503121561487e57600080fd5b8235915060208301356143d48161482f565b600080600080608085870312156148a657600080fd5b843593506020850135925060408501356148bf81614341565b91506148cd6060860161432b565b905092959194509250565b6000602082840312156148ea57600080fd5b81516147e081614341565b6000604082016001600160a01b03808616845260206040818601528286548085526060870191508760005282600020945060005b81811015614947578554851683526001958601959284019201614929565b509098975050505050505050565b60006020828403121561496757600080fd5b81516147e08161482f565b7f4e487b7100000000000000000000000000000000000000000000000000000000600052603260045260246000fd5b7f4e487b7100000000000000000000000000000000000000000000000000000000600052601160045260246000fd5b60007fffffffffffffffffffffffffffffffffffffffffffffffffffffffffffffffff8203614a0157614a016149a1565b5060010190565b6000604082016001600160a01b0380861684526020604081860152828651808552606087019150828801945060005b81811015614947578551851683529483019491830191600101614a37565b600060208284031215614a6757600080fd5b5051919050565b60006040820184835260206040818501528185548084526060860191508660005282600020935060005b8181101561445957845483526001948501949284019201614a98565b81810381811115610bfb57610bfb6149a1565b6000817fffffffffffffffffffffffffffffffffffffffffffffffffffffffffffffffff0483118215151615614aff57614aff6149a1565b500290565b6000604082018483526020604081850152818551808452606086019150828701935060005b8181101561445957845183529383019391830191600101614b2956fea2646970667358221220cb590e61ced69165f710af2333cb8fa25f2a2a41eb965bbc27514c3ded1f202764736f6c63430008100033",
    "linkReferences": {
      "src/Utils/LibString.sol": {
        "LibString": [
          {
            "start": 5106,
            "length": 20
          },
          {
            "start": 8157,
            "length": 20
          },
          {
            "start": 8324,
            "length": 20
          },
          {
            "start": 9252,
            "length": 20
          },
          {
            "start": 11244,
            "length": 20
          },
          {
            "start": 11402,
            "length": 20
          },
          {
            "start": 12408,
            "length": 20
          },
          {
            "start": 12566,
            "length": 20
          },
          {
            "start": 14804,
            "length": 20
          },
          {
            "start": 14962,
            "length": 20
          },
          {
            "start": 19256,
            "length": 20
          }
        ]
      }
    }
  },
  "methodIdentifiers": {
    "Dev()": "01e51ae8",
    "HELIX2()": "b782426e",
    "NAMES()": "05e84aa0",
    "Polycules(bytes32)": "75c4f68e",
    "addAnion(bytes32,bytes32,address,uint8)": "e73f8060",
    "alias_(bytes32)": "c5bc4c0b",
    "anion(bytes32)": "0e68b116",
    "basePrice()": "c7876ea4",
    "cation(bytes32)": "f61ccd53",
    "changeDev(address)": "88a8c95c",
    "controller(bytes32)": "dbd4e021",
    "covalence(bytes32)": "34026859",
    "expiry(bytes32)": "d2ec5fca",
    "hook(bytes32,bytes32,uint8,address)": "9e162dfa",
    "hooksWithRules(bytes32)": "0aac6625",
    "isApprovedForAll(bytes32,address)": "b0698628",
    "isLegalMap(bytes32[],address[])": "1f10ea07",
    "isNotDuplicateAnion(bytes32,bytes32)": "f8c91244",
    "isNotDuplicateHook(bytes32,address)": "049a491c",
    "popAnion(bytes32,bytes32)": "8dcad139",
    "recordExists(bytes32)": "f79fe538",
    "rehook(bytes32,uint8,address)": "015399e6",
    "rehook(bytes32,uint8,bytes32)": "5b55b376",
    "resolver(bytes32)": "0178b8bf",
    "roothash()": "251c9422",
    "setAlias(bytes32,bytes32)": "1f06e91c",
    "setAnions(bytes32,bytes32[],address[],uint8[])": "250548b9",
    "setApprovalForAll(address,bool)": "a22cb465",
    "setCation(bytes32,bytes32)": "8146970a",
    "setController(bytes32,address)": "d3156905",
    "setCovalence(bytes32,bool)": "d07699aa",
    "setExpiry(bytes32,uint256)": "39de6469",
    "setRecord(bytes32,address)": "d9b76ed4",
    "setResolver(bytes32,address)": "1896f70a",
    "theEnd()": "22b68deb",
    "unhook(bytes32,address)": "241270d5",
    "unhook(bytes32,bytes32)": "516aeda0",
    "unhookAll(bytes32)": "21ec2b5b",
    "withdrawEther()": "7362377b",
    "withdrawToken(address)": "89476069"
  },
  "id": 32
}