{
  "abi": [
    {
      "inputs": [
        {
          "internalType": "address",
          "name": "_registry",
          "type": "address"
        },
        {
          "internalType": "address",
          "name": "_helix2",
          "type": "address"
        }
      ],
      "stateMutability": "nonpayable",
      "type": "constructor"
    },
    {
      "inputs": [
        {
          "internalType": "bytes32",
          "name": "polyhash",
          "type": "bytes32"
        },
        {
          "internalType": "bytes32",
          "name": "anion",
          "type": "bytes32"
        }
      ],
      "name": "AnionNotFound",
      "type": "error"
    },
    {
      "anonymous": false,
      "inputs": [
        {
          "indexed": true,
          "internalType": "address",
          "name": "cation",
          "type": "address"
        },
        {
          "indexed": true,
          "internalType": "address",
          "name": "operator",
          "type": "address"
        },
        {
          "indexed": false,
          "internalType": "bool",
          "name": "approved",
          "type": "bool"
        }
      ],
      "name": "ApprovalForAll",
      "type": "event"
    },
    {
      "anonymous": false,
      "inputs": [
        {
          "indexed": true,
          "internalType": "bytes32",
          "name": "polyhash",
          "type": "bytes32"
        },
        {
          "indexed": false,
          "internalType": "address",
          "name": "config",
          "type": "address"
        },
        {
          "indexed": false,
          "internalType": "uint8",
          "name": "rule",
          "type": "uint8"
        }
      ],
      "name": "Hooked",
      "type": "event"
    },
    {
      "anonymous": false,
      "inputs": [
        {
          "indexed": true,
          "internalType": "bytes32",
          "name": "polyhash",
          "type": "bytes32"
        },
        {
          "indexed": false,
          "internalType": "bytes32",
          "name": "_alias",
          "type": "bytes32"
        }
      ],
      "name": "NewAlias",
      "type": "event"
    },
    {
      "anonymous": false,
      "inputs": [
        {
          "indexed": true,
          "internalType": "bytes32",
          "name": "polyhash",
          "type": "bytes32"
        },
        {
          "indexed": false,
          "internalType": "bytes32",
          "name": "anion",
          "type": "bytes32"
        }
      ],
      "name": "NewAnion",
      "type": "event"
    },
    {
      "anonymous": false,
      "inputs": [
        {
          "indexed": true,
          "internalType": "bytes32",
          "name": "polyhash",
          "type": "bytes32"
        },
        {
          "indexed": false,
          "internalType": "bytes32[]",
          "name": "anion",
          "type": "bytes32[]"
        }
      ],
      "name": "NewAnions",
      "type": "event"
    },
    {
      "anonymous": false,
      "inputs": [
        {
          "indexed": true,
          "internalType": "bytes32",
          "name": "polyhash",
          "type": "bytes32"
        },
        {
          "indexed": false,
          "internalType": "bytes32",
          "name": "cation",
          "type": "bytes32"
        }
      ],
      "name": "NewCation",
      "type": "event"
    },
    {
      "anonymous": false,
      "inputs": [
        {
          "indexed": true,
          "internalType": "bytes32",
          "name": "polyhash",
          "type": "bytes32"
        },
        {
          "indexed": false,
          "internalType": "address",
          "name": "controller",
          "type": "address"
        }
      ],
      "name": "NewController",
      "type": "event"
    },
    {
      "anonymous": false,
      "inputs": [
        {
          "indexed": true,
          "internalType": "bytes32",
          "name": "polyhash",
          "type": "bytes32"
        },
        {
          "indexed": false,
          "internalType": "bool",
          "name": "covalence",
          "type": "bool"
        }
      ],
      "name": "NewCovalence",
      "type": "event"
    },
    {
      "anonymous": false,
      "inputs": [
        {
          "indexed": false,
          "internalType": "address",
          "name": "Dev",
          "type": "address"
        },
        {
          "indexed": false,
          "internalType": "address",
          "name": "newDev",
          "type": "address"
        }
      ],
      "name": "NewDev",
      "type": "event"
    },
    {
      "anonymous": false,
      "inputs": [
        {
          "indexed": true,
          "internalType": "bytes32",
          "name": "polyhash",
          "type": "bytes32"
        },
        {
          "indexed": false,
          "internalType": "uint256",
          "name": "expiry",
          "type": "uint256"
        }
      ],
      "name": "NewExpiry",
      "type": "event"
    },
    {
      "anonymous": false,
      "inputs": [
        {
          "indexed": true,
          "internalType": "bytes32",
          "name": "polyhash",
          "type": "bytes32"
        },
        {
          "indexed": false,
          "internalType": "bytes32",
          "name": "cation",
          "type": "bytes32"
        }
      ],
      "name": "NewPolycule",
      "type": "event"
    },
    {
      "anonymous": false,
      "inputs": [
        {
          "indexed": true,
          "internalType": "bytes32",
          "name": "polyhash",
          "type": "bytes32"
        },
        {
          "indexed": false,
          "internalType": "address",
          "name": "resolver",
          "type": "address"
        }
      ],
      "name": "NewRecord",
      "type": "event"
    },
    {
      "anonymous": false,
      "inputs": [
        {
          "indexed": true,
          "internalType": "bytes32",
          "name": "polyhash",
          "type": "bytes32"
        },
        {
          "indexed": false,
          "internalType": "bytes32",
          "name": "cation",
          "type": "bytes32"
        }
      ],
      "name": "NewRegistration",
      "type": "event"
    },
    {
      "anonymous": false,
      "inputs": [
        {
          "indexed": true,
          "internalType": "bytes32",
          "name": "polyhash",
          "type": "bytes32"
        },
        {
          "indexed": false,
          "internalType": "address",
          "name": "resolver",
          "type": "address"
        }
      ],
      "name": "NewResolver",
      "type": "event"
    },
    {
      "anonymous": false,
      "inputs": [
        {
          "indexed": true,
          "internalType": "bytes32",
          "name": "polyhash",
          "type": "bytes32"
        },
        {
          "indexed": false,
          "internalType": "bytes32",
          "name": "anion",
          "type": "bytes32"
        }
      ],
      "name": "PopAnion",
      "type": "event"
    },
    {
      "anonymous": false,
      "inputs": [
        {
          "indexed": true,
          "internalType": "bytes32",
          "name": "polyhash",
          "type": "bytes32"
        },
        {
          "indexed": false,
          "internalType": "bytes32",
          "name": "anion",
          "type": "bytes32"
        },
        {
          "indexed": false,
          "internalType": "uint8",
          "name": "rule",
          "type": "uint8"
        }
      ],
      "name": "RehookedAnion",
      "type": "event"
    },
    {
      "anonymous": false,
      "inputs": [
        {
          "indexed": true,
          "internalType": "bytes32",
          "name": "polyhash",
          "type": "bytes32"
        },
        {
          "indexed": false,
          "internalType": "address",
          "name": "config",
          "type": "address"
        },
        {
          "indexed": false,
          "internalType": "uint8",
          "name": "rule",
          "type": "uint8"
        }
      ],
      "name": "RehookedConfig",
      "type": "event"
    },
    {
      "anonymous": false,
      "inputs": [
        {
          "indexed": true,
          "internalType": "bytes32",
          "name": "polyhash",
          "type": "bytes32"
        }
      ],
      "name": "UnhookedAll",
      "type": "event"
    },
    {
      "anonymous": false,
      "inputs": [
        {
          "indexed": true,
          "internalType": "bytes32",
          "name": "polyhash",
          "type": "bytes32"
        },
        {
          "indexed": false,
          "internalType": "bytes32",
          "name": "anion",
          "type": "bytes32"
        }
      ],
      "name": "UnhookedAnion",
      "type": "event"
    },
    {
      "anonymous": false,
      "inputs": [
        {
          "indexed": true,
          "internalType": "bytes32",
          "name": "polyhash",
          "type": "bytes32"
        },
        {
          "indexed": false,
          "internalType": "address",
          "name": "config",
          "type": "address"
        }
      ],
      "name": "UnhookedConfig",
      "type": "event"
    },
    {
      "inputs": [],
      "name": "Dev",
      "outputs": [
        {
          "internalType": "address",
          "name": "",
          "type": "address"
        }
      ],
      "stateMutability": "view",
      "type": "function"
    },
    {
      "inputs": [],
      "name": "HELIX2",
      "outputs": [
        {
          "internalType": "contract iHELIX2",
          "name": "",
          "type": "address"
        }
      ],
      "stateMutability": "view",
      "type": "function"
    },
    {
      "inputs": [],
      "name": "NAMES",
      "outputs": [
        {
          "internalType": "contract iNAME",
          "name": "",
          "type": "address"
        }
      ],
      "stateMutability": "view",
      "type": "function"
    },
    {
      "inputs": [
        {
          "internalType": "bytes32",
          "name": "",
          "type": "bytes32"
        }
      ],
      "name": "Polycules",
      "outputs": [
        {
          "internalType": "bytes32",
          "name": "_cation",
          "type": "bytes32"
        },
        {
          "internalType": "bytes32",
          "name": "_alias",
          "type": "bytes32"
        },
        {
          "internalType": "address",
          "name": "_resolver",
          "type": "address"
        },
        {
          "internalType": "address",
          "name": "_controller",
          "type": "address"
        },
        {
          "internalType": "bool",
          "name": "_covalence",
          "type": "bool"
        },
        {
          "internalType": "uint256",
          "name": "_expiry",
          "type": "uint256"
        }
      ],
      "stateMutability": "view",
      "type": "function"
    },
    {
      "inputs": [],
      "name": "active",
      "outputs": [
        {
          "internalType": "bool",
          "name": "",
          "type": "bool"
        }
      ],
      "stateMutability": "view",
      "type": "function"
    },
    {
      "inputs": [
        {
          "internalType": "bytes32",
          "name": "polyhash",
          "type": "bytes32"
        },
        {
          "internalType": "bytes32",
          "name": "_anion",
          "type": "bytes32"
        },
        {
          "internalType": "address",
          "name": "config",
          "type": "address"
        },
        {
          "internalType": "uint8",
          "name": "rule",
          "type": "uint8"
        }
      ],
      "name": "addAnion",
      "outputs": [],
      "stateMutability": "nonpayable",
      "type": "function"
    },
    {
      "inputs": [
        {
          "internalType": "bytes32",
          "name": "polyhash",
          "type": "bytes32"
        }
      ],
      "name": "alias_",
      "outputs": [
        {
          "internalType": "bytes32",
          "name": "",
          "type": "bytes32"
        }
      ],
      "stateMutability": "view",
      "type": "function"
    },
    {
      "inputs": [
        {
          "internalType": "bytes32",
          "name": "polyhash",
          "type": "bytes32"
        }
      ],
      "name": "anion",
      "outputs": [
        {
          "internalType": "bytes32[]",
          "name": "",
          "type": "bytes32[]"
        }
      ],
      "stateMutability": "view",
      "type": "function"
    },
    {
      "inputs": [],
      "name": "basePrice",
      "outputs": [
        {
          "internalType": "uint256",
          "name": "",
          "type": "uint256"
        }
      ],
      "stateMutability": "view",
      "type": "function"
    },
    {
      "inputs": [
        {
          "internalType": "bytes32",
          "name": "polyhash",
          "type": "bytes32"
        }
      ],
      "name": "cation",
      "outputs": [
        {
          "internalType": "bytes32",
          "name": "",
          "type": "bytes32"
        }
      ],
      "stateMutability": "view",
      "type": "function"
    },
    {
      "inputs": [
        {
          "internalType": "address",
          "name": "newDev",
          "type": "address"
        }
      ],
      "name": "changeDev",
      "outputs": [],
      "stateMutability": "nonpayable",
      "type": "function"
    },
    {
      "inputs": [
        {
          "internalType": "bytes32",
          "name": "polyhash",
          "type": "bytes32"
        }
      ],
      "name": "controller",
      "outputs": [
        {
          "internalType": "address",
          "name": "",
          "type": "address"
        }
      ],
      "stateMutability": "view",
      "type": "function"
    },
    {
      "inputs": [
        {
          "internalType": "bytes32",
          "name": "polyhash",
          "type": "bytes32"
        }
      ],
      "name": "covalence",
      "outputs": [
        {
          "internalType": "bool",
          "name": "",
          "type": "bool"
        }
      ],
      "stateMutability": "view",
      "type": "function"
    },
    {
      "inputs": [
        {
          "internalType": "bytes32",
          "name": "polyhash",
          "type": "bytes32"
        }
      ],
      "name": "expiry",
      "outputs": [
        {
          "internalType": "uint256",
          "name": "",
          "type": "uint256"
        }
      ],
      "stateMutability": "view",
      "type": "function"
    },
    {
      "inputs": [
        {
          "internalType": "bytes32",
          "name": "__anion",
          "type": "bytes32"
        },
        {
          "internalType": "bytes32",
          "name": "polyhash",
          "type": "bytes32"
        },
        {
          "internalType": "uint8",
          "name": "rule",
          "type": "uint8"
        },
        {
          "internalType": "address",
          "name": "config",
          "type": "address"
        }
      ],
      "name": "hook",
      "outputs": [],
      "stateMutability": "nonpayable",
      "type": "function"
    },
    {
      "inputs": [
        {
          "internalType": "bytes32",
          "name": "polyhash",
          "type": "bytes32"
        }
      ],
      "name": "hooksWithRules",
      "outputs": [
        {
          "internalType": "address[]",
          "name": "",
          "type": "address[]"
        },
        {
          "internalType": "uint8[]",
          "name": "",
          "type": "uint8[]"
        }
      ],
      "stateMutability": "view",
      "type": "function"
    },
    {
      "inputs": [
        {
          "internalType": "bytes32",
          "name": "_cation",
          "type": "bytes32"
        },
        {
          "internalType": "address",
          "name": "operator",
          "type": "address"
        }
      ],
      "name": "isApprovedForAll",
      "outputs": [
        {
          "internalType": "bool",
          "name": "",
          "type": "bool"
        }
      ],
      "stateMutability": "view",
      "type": "function"
    },
    {
      "inputs": [
        {
          "internalType": "bytes32[]",
          "name": "_anion",
          "type": "bytes32[]"
        },
        {
          "internalType": "address[]",
          "name": "_config",
          "type": "address[]"
        }
      ],
      "name": "isLegalMap",
      "outputs": [
        {
          "internalType": "bool",
          "name": "",
          "type": "bool"
        }
      ],
      "stateMutability": "pure",
      "type": "function"
    },
    {
      "inputs": [
        {
          "internalType": "bytes32",
          "name": "polyhash",
          "type": "bytes32"
        },
        {
          "internalType": "bytes32",
          "name": "_anion",
          "type": "bytes32"
        }
      ],
      "name": "isNotDuplicateAnion",
      "outputs": [
        {
          "internalType": "bool",
          "name": "",
          "type": "bool"
        }
      ],
      "stateMutability": "view",
      "type": "function"
    },
    {
      "inputs": [
        {
          "internalType": "bytes32",
          "name": "polyhash",
          "type": "bytes32"
        },
        {
          "internalType": "address",
          "name": "config",
          "type": "address"
        }
      ],
      "name": "isNotDuplicateHook",
      "outputs": [
        {
          "internalType": "bool",
          "name": "",
          "type": "bool"
        }
      ],
      "stateMutability": "view",
      "type": "function"
    },
    {
      "inputs": [
        {
          "internalType": "bytes32",
          "name": "polyhash",
          "type": "bytes32"
        },
        {
          "internalType": "bytes32",
          "name": "__anion",
          "type": "bytes32"
        }
      ],
      "name": "popAnion",
      "outputs": [],
      "stateMutability": "nonpayable",
      "type": "function"
    },
    {
      "inputs": [
        {
          "internalType": "bytes32",
          "name": "polyhash",
          "type": "bytes32"
        }
      ],
      "name": "recordExists",
      "outputs": [
        {
          "internalType": "bool",
          "name": "",
          "type": "bool"
        }
      ],
      "stateMutability": "view",
      "type": "function"
    },
    {
      "inputs": [
        {
          "internalType": "bytes32",
          "name": "polyhash",
          "type": "bytes32"
        },
        {
          "internalType": "bytes32",
          "name": "_cation",
          "type": "bytes32"
        }
      ],
      "name": "register",
      "outputs": [],
      "stateMutability": "nonpayable",
      "type": "function"
    },
    {
      "inputs": [],
      "name": "registrar",
      "outputs": [
        {
          "internalType": "address",
          "name": "",
          "type": "address"
        }
      ],
      "stateMutability": "view",
      "type": "function"
    },
    {
      "inputs": [
        {
          "internalType": "bytes32",
          "name": "polyhash",
          "type": "bytes32"
        },
        {
          "internalType": "uint8",
          "name": "rule",
          "type": "uint8"
        },
        {
          "internalType": "address",
          "name": "config",
          "type": "address"
        }
      ],
      "name": "rehook",
      "outputs": [],
      "stateMutability": "nonpayable",
      "type": "function"
    },
    {
      "inputs": [
        {
          "internalType": "bytes32",
          "name": "polyhash",
          "type": "bytes32"
        },
        {
          "internalType": "uint8",
          "name": "rule",
          "type": "uint8"
        },
        {
          "internalType": "bytes32",
          "name": "__anion",
          "type": "bytes32"
        }
      ],
      "name": "rehook",
      "outputs": [],
      "stateMutability": "nonpayable",
      "type": "function"
    },
    {
      "inputs": [
        {
          "internalType": "bytes32",
          "name": "polyhash",
          "type": "bytes32"
        }
      ],
      "name": "resolver",
      "outputs": [
        {
          "internalType": "address",
          "name": "",
          "type": "address"
        }
      ],
      "stateMutability": "view",
      "type": "function"
    },
    {
      "inputs": [],
      "name": "roothash",
      "outputs": [
        {
          "internalType": "bytes32",
          "name": "",
          "type": "bytes32"
        }
      ],
      "stateMutability": "view",
      "type": "function"
    },
    {
      "inputs": [
        {
          "internalType": "bytes32",
          "name": "polyhash",
          "type": "bytes32"
        },
        {
          "internalType": "bytes32",
          "name": "_alias",
          "type": "bytes32"
        }
      ],
      "name": "setAlias",
      "outputs": [],
      "stateMutability": "nonpayable",
      "type": "function"
    },
    {
      "inputs": [
        {
          "internalType": "bytes32",
          "name": "polyhash",
          "type": "bytes32"
        },
        {
          "internalType": "bytes32[]",
          "name": "_anion",
          "type": "bytes32[]"
        },
        {
          "internalType": "address[]",
          "name": "_config",
          "type": "address[]"
        },
        {
          "internalType": "uint8[]",
          "name": "_rules",
          "type": "uint8[]"
        }
      ],
      "name": "setAnions",
      "outputs": [],
      "stateMutability": "nonpayable",
      "type": "function"
    },
    {
      "inputs": [
        {
          "internalType": "address",
          "name": "operator",
          "type": "address"
        },
        {
          "internalType": "bool",
          "name": "approved",
          "type": "bool"
        }
      ],
      "name": "setApprovalForAll",
      "outputs": [],
      "stateMutability": "nonpayable",
      "type": "function"
    },
    {
      "inputs": [
        {
          "internalType": "bytes32",
          "name": "polyhash",
          "type": "bytes32"
        },
        {
          "internalType": "bytes32",
          "name": "_cation",
          "type": "bytes32"
        }
      ],
      "name": "setCation",
      "outputs": [],
      "stateMutability": "nonpayable",
      "type": "function"
    },
    {
      "inputs": [
        {
          "internalType": "bytes32",
          "name": "polyhash",
          "type": "bytes32"
        },
        {
          "internalType": "address",
          "name": "_controller",
          "type": "address"
        }
      ],
      "name": "setController",
      "outputs": [],
      "stateMutability": "nonpayable",
      "type": "function"
    },
    {
      "inputs": [
        {
          "internalType": "bytes32",
          "name": "polyhash",
          "type": "bytes32"
        },
        {
          "internalType": "bool",
          "name": "_covalence",
          "type": "bool"
        }
      ],
      "name": "setCovalence",
      "outputs": [],
      "stateMutability": "nonpayable",
      "type": "function"
    },
    {
      "inputs": [
        {
          "internalType": "bytes32",
          "name": "polyhash",
          "type": "bytes32"
        },
        {
          "internalType": "uint256",
          "name": "_expiry",
          "type": "uint256"
        }
      ],
      "name": "setExpiry",
      "outputs": [],
      "stateMutability": "payable",
      "type": "function"
    },
    {
      "inputs": [
        {
          "internalType": "bytes32",
          "name": "polyhash",
          "type": "bytes32"
        },
        {
          "internalType": "address",
          "name": "_resolver",
          "type": "address"
        }
      ],
      "name": "setRecord",
      "outputs": [],
      "stateMutability": "nonpayable",
      "type": "function"
    },
    {
      "inputs": [
        {
          "internalType": "bytes32",
          "name": "polyhash",
          "type": "bytes32"
        },
        {
          "internalType": "address",
          "name": "_resolver",
          "type": "address"
        }
      ],
      "name": "setResolver",
      "outputs": [],
      "stateMutability": "nonpayable",
      "type": "function"
    },
    {
      "inputs": [],
      "name": "theEnd",
      "outputs": [
        {
          "internalType": "uint256",
          "name": "",
          "type": "uint256"
        }
      ],
      "stateMutability": "view",
      "type": "function"
    },
    {
      "inputs": [
        {
          "internalType": "bytes32",
          "name": "polyhash",
          "type": "bytes32"
        },
        {
          "internalType": "address",
          "name": "config",
          "type": "address"
        }
      ],
      "name": "unhook",
      "outputs": [],
      "stateMutability": "nonpayable",
      "type": "function"
    },
    {
      "inputs": [
        {
          "internalType": "bytes32",
          "name": "polyhash",
          "type": "bytes32"
        },
        {
          "internalType": "bytes32",
          "name": "__anion",
          "type": "bytes32"
        }
      ],
      "name": "unhook",
      "outputs": [],
      "stateMutability": "nonpayable",
      "type": "function"
    },
    {
      "inputs": [
        {
          "internalType": "bytes32",
          "name": "polyhash",
          "type": "bytes32"
        }
      ],
      "name": "unhookAll",
      "outputs": [],
      "stateMutability": "nonpayable",
      "type": "function"
    },
    {
      "inputs": [],
      "name": "withdrawEther",
      "outputs": [],
      "stateMutability": "payable",
      "type": "function"
    }
  ],
  "bytecode": {
    "object": "0x60806040526002805460ff60a01b1916600160a01b1790556703782dace9d900006006553480156200003057600080fd5b5060405162005b7c38038062005b7c83398101604081905262000053916200075c565b60028054336001600160a01b0319918216179091556000805482166001600160a01b03848116918217909255600180549093169185169190911790915560408051633215476b60e11b8152905163642a8ed6916004808201926080929091908290030181865afa158015620000cc573d6000803e3d6000fd5b505050506040513d601f19601f82011682018060405250810190620000f29190620007cb565b606001516003556000546040805163bd9a548b60e01b815290516001600160a01b039092169163bd9a548b916004808201926080929091908290030181865afa15801562000144573d6000803e3d6000fd5b505050506040513d601f19601f820116820180604052508101906200016a9190620007cb565b606001516004556200017b62000183565b505062000870565b7fb4b4801cca1cad359bff6b5ea99d95160f00cbe1164fb7231c42c3e8b5f2593b805460ff19169055604080516020818101909252600080825280526007909152620001f3907f6d5257204ebe7d88fd91ae87941cb2dd9d8062b64ae5a2bd2d28ec40b9fbf6df90600162000680565b5060007f6d5257204ebe7d88fd91ae87941cb2dd9d8062b64ae5a2bd2d28ec40b9fbf6e1819055604080516020818101909252828152918052600790526200025f907f6d5257204ebe7d88fd91ae87941cb2dd9d8062b64ae5a2bd2d28ec40b9fbf6e2906001620006ea565b50600080805260076020527f6d5257204ebe7d88fd91ae87941cb2dd9d8062b64ae5a2bd2d28ec40b9fbf6e38190557f6d5257204ebe7d88fd91ae87941cb2dd9d8062b64ae5a2bd2d28ec40b9fbf6e580546006547f6d5257204ebe7d88fd91ae87941cb2dd9d8062b64ae5a2bd2d28ec40b9fbf6e6556001600160a81b03191633908117600160a01b179091557f6d5257204ebe7d88fd91ae87941cb2dd9d8062b64ae5a2bd2d28ec40b9fbf6e480546001600160a01b0319169091179055805460408051633215476b60e11b815290516001600160a01b03929092169163642a8ed6916004818101926080929091908290030181865afa1580156200036a573d6000803e3d6000fd5b505050506040513d601f19601f82011682018060405250810190620003909190620007cb565b905060005b60048110156200067c57600060076000848460048110620003ba57620003ba62000832565b60209081029190910151825281810192909252604090810160009081208180526001018352818120805460ff191660ff9590951694909417909355805191820190528181529060079084846004811062000418576200041862000832565b602002015181526020019081526020016000206000019060016200043e92919062000680565b5081816004811062000454576200045462000832565b60200201516007600084846004811062000472576200047262000832565b60200201518152602001908152602001600020600201819055506040518060200160405280838360048110620004ac57620004ac62000832565b6020020151905260076000848460048110620004cc57620004cc62000832565b60200201518152602001908152602001600020600301906001620004f2929190620006ea565b5081816004811062000508576200050862000832565b60200201516007600084846004811062000526576200052662000832565b60200201518152602001908152602001600020600401819055506001600760008484600481106200055b576200055b62000832565b6020020151815260200190815260200160002060060160146101000a81548160ff02191690831515021790555060065460076000848460048110620005a457620005a462000832565b60200201518152602001908152602001600020600701819055503360076000848460048110620005d857620005d862000832565b6020020151815260200190815260200160002060060160006101000a8154816001600160a01b0302191690836001600160a01b0316021790555033600760008484600481106200062c576200062c62000832565b6020020151815260200190815260200160002060050160006101000a8154816001600160a01b0302191690836001600160a01b031602179055508080620006739062000848565b91505062000395565b5050565b828054828255906000526020600020908101928215620006d8579160200282015b82811115620006d857825182546001600160a01b0319166001600160a01b03909116178255602090920191600190910190620006a1565b50620006e692915062000728565b5090565b828054828255906000526020600020908101928215620006d8579160200282015b82811115620006d85782518255916020019190600101906200070b565b5b80821115620006e6576000815560010162000729565b80516001600160a01b03811681146200075757600080fd5b919050565b600080604083850312156200077057600080fd5b6200077b836200073f565b91506200078b602084016200073f565b90509250929050565b604051608081016001600160401b0381118282101715620007c557634e487b7160e01b600052604160045260246000fd5b60405290565b600060808284031215620007de57600080fd5b82601f830112620007ee57600080fd5b620007f862000794565b8060808401858111156200080b57600080fd5b845b81811015620008275780518452602093840193016200080d565b509095945050505050565b634e487b7160e01b600052603260045260246000fd5b6000600182016200086957634e487b7160e01b600052601160045260246000fd5b5060010190565b6152fc80620008806000396000f3fe6080604052600436106102d15760003560e01c80635b55b37611610179578063c5bc4c0b116100d6578063d9b76ed41161008a578063f61ccd5311610064578063f61ccd5314610883578063f79fe538146108a3578063f8c91244146108d657600080fd5b8063d9b76ed414610823578063dbd4e02114610843578063e73f80601461086357600080fd5b8063d07699aa116100bb578063d07699aa146107b2578063d2ec5fca146107d2578063d31569051461080357600080fd5b8063c5bc4c0b1461077c578063c7876ea41461079c57600080fd5b80638dcad1391161012d578063a22cb46511610112578063a22cb4651461071c578063b06986281461073c578063b782426e1461075c57600080fd5b80638dcad139146106dc5780639e162dfa146106fc57600080fd5b806375c4f68e1161015e57806375c4f68e146105e75780638146970a1461069c57806388a8c95c146106bc57600080fd5b80635b55b376146105bf5780637362377b146105df57600080fd5b80631f10ea0711610232578063251c9422116101e657806334026859116101c0578063340268591461056c57806339de64691461058c578063516aeda01461059f57600080fd5b8063251c9422146105165780632b20e3971461052c5780632f9267321461054c57600080fd5b806322b68deb1161021757806322b68deb146104b2578063241270d5146104d6578063250548b9146104f657600080fd5b80631f10ea071461047257806321ec2b5b1461049257600080fd5b806305e84aa0116102895780630e68b1161161026e5780630e68b116146104055780631896f70a146104325780631f06e91c1461045257600080fd5b806305e84aa0146103b75780630aac6625146103d757600080fd5b806301e51ae8116102ba57806301e51ae81461033557806302fb0c5e14610355578063049a491c1461039757600080fd5b8063015399e6146102d65780630178b8bf146102f8575b600080fd5b3480156102e257600080fd5b506102f66102f1366004614a50565b6108f6565b005b34801561030457600080fd5b50610318610313366004614a90565b610b4e565b6040516001600160a01b0390911681526020015b60405180910390f35b34801561034157600080fd5b50600254610318906001600160a01b031681565b34801561036157600080fd5b506002546103879074010000000000000000000000000000000000000000900460ff1681565b604051901515815260200161032c565b3480156103a357600080fd5b506103876103b2366004614aa9565b610bc7565b3480156103c357600080fd5b50600154610318906001600160a01b031681565b3480156103e357600080fd5b506103f76103f2366004614a90565b610c79565b60405161032c929190614ad9565b34801561041157600080fd5b50610425610420366004614a90565b610e32565b60405161032c9190614b60565b34801561043e57600080fd5b506102f661044d366004614aa9565b610ef4565b34801561045e57600080fd5b506102f661046d366004614ba4565b61119f565b34801561047e57600080fd5b5061038761048d366004614d37565b61141a565b34801561049e57600080fd5b506102f66104ad366004614a90565b611435565b3480156104be57600080fd5b506104c860065481565b60405190815260200161032c565b3480156104e257600080fd5b506102f66104f1366004614aa9565b611766565b34801561050257600080fd5b506102f6610511366004614d9b565b611b98565b34801561052257600080fd5b506104c860035481565b34801561053857600080fd5b50600554610318906001600160a01b031681565b34801561055857600080fd5b506102f6610567366004614ba4565b612091565b34801561057857600080fd5b50610387610587366004614a90565b61214a565b6102f661059a366004614ba4565b6121d1565b3480156105ab57600080fd5b506102f66105ba366004614ba4565b6125d4565b3480156105cb57600080fd5b506102f66105da366004614e88565b612a61565b6102f6612f5f565b3480156105f357600080fd5b50610660610602366004614a90565b600760208190526000918252604090912060028101546004820154600583015460068401549390940154919390926001600160a01b0391821692918116917401000000000000000000000000000000000000000090910460ff169086565b6040805196875260208701959095526001600160a01b0393841694860194909452911660608401521515608083015260a082015260c00161032c565b3480156106a857600080fd5b506102f66106b7366004614ba4565b613005565b3480156106c857600080fd5b506102f66106d7366004614ebd565b6131ab565b3480156106e857600080fd5b506102f66106f7366004614ba4565b61327b565b34801561070857600080fd5b506102f6610717366004614ee1565b613804565b34801561072857600080fd5b506102f6610737366004614f37565b613a70565b34801561074857600080fd5b50610387610757366004614aa9565b613adc565b34801561076857600080fd5b50600054610318906001600160a01b031681565b34801561078857600080fd5b506104c8610797366004614a90565b613b80565b3480156107a857600080fd5b506104c860045481565b3480156107be57600080fd5b506102f66107cd366004614f65565b613bec565b3480156107de57600080fd5b506104c86107ed366004614a90565b6000908152600760208190526040909120015490565b34801561080f57600080fd5b506102f661081e366004614aa9565b613ea9565b34801561082f57600080fd5b506102f661083e366004614aa9565b614149565b34801561084f57600080fd5b5061031861085e366004614a90565b6143e9565b34801561086f57600080fd5b506102f661087e366004614f8a565b61445e565b34801561088f57600080fd5b506104c861089e366004614a90565b614894565b3480156108af57600080fd5b506103876108be366004614a90565b60009081526007602081905260409091200154421090565b3480156108e257600080fd5b506103876108f1366004614ba4565b61498f565b60008381526007602081905260409091200154839042106109515760405162461bcd60e51b815260206004820152601060248201526f1413d31650d5531157d156141254915160821b60448201526064015b60405180910390fd5b6000818152600760205260408082206002015460015491516302571be360e01b8152600481018290529092916001600160a01b0316906302571be390602401602060405180830381865afa1580156109ad573d6000803e3d6000fd5b505050506040513d601f19601f820116820180604052508101906109d19190614fd2565b90506001600160a01b038116331480610a0d57506001600160a01b038116600090815260086020908152604080832033845290915290205460ff165b610a595760405162461bcd60e51b815260206004820152600960248201527f4e4f545f4f574e455200000000000000000000000000000000000000000000006044820152606401610948565b60008681526007602090815260408083206001600160a01b038816845260010190915290205460ff808716911603610ad35760405162461bcd60e51b815260206004820152600b60248201527f52554c455f4558495354530000000000000000000000000000000000000000006044820152606401610948565b60008681526007602090815260408083206001600160a01b0388168085526001909101835292819020805460ff191660ff8a1690811790915581519384529183019190915287917f1abc00531586337cfd45709506ca0d48a44e1eb54325e589ec054ce83373e07a91015b60405180910390a2505050505050565b60008181526007602081905260408220015482904210610ba35760405162461bcd60e51b815260206004820152601060248201526f1413d31650d5531157d156141254915160821b6044820152606401610948565b6000838152600760205260409020600501546001600160a01b031691505b50919050565b60008281526007602052604080822090517f2306f46600000000000000000000000000000000000000000000000000000000815273__$47e4ffaaf323c41735ff299f8946896ce0$__91632306f46691610c2e916001600160a01b03871691600401614fef565b602060405180830381865af4158015610c4b573d6000803e3d6000fd5b505050506040513d601f19601f82011682018060405250810190610c6f919061504f565b1590505b92915050565b6060808260076000828152602001908152602001600020600701544210610cd55760405162461bcd60e51b815260206004820152601060248201526f1413d31650d5531157d156141254915160821b6044820152606401610948565b600084815260076020908152604080832080548251818502810185019093528083529192909190830182828015610d3557602002820191906000526020600020905b81546001600160a01b03168152600190910190602001808311610d17575b505050505090506000815167ffffffffffffffff811115610d5857610d58614bc6565b604051908082528060200260200182016040528015610d81578160200160208202803683370190505b50905060005b8251811015610e2657600760008881526020019081526020016000206001016000848381518110610dba57610dba61506c565b60200260200101516001600160a01b03166001600160a01b0316815260200190815260200160002060009054906101000a900460ff16828281518110610e0257610e0261506c565b60ff9092166020928302919091019091015280610e1e816150ca565b915050610d87565b50909350915050915091565b60608160076000828152602001908152602001600020600701544210610e8d5760405162461bcd60e51b815260206004820152601060248201526f1413d31650d5531157d156141254915160821b6044820152606401610948565b600083815260076020908152604080832060030180548251818502810185019093528083529192909190830182828015610ee657602002820191906000526020600020905b815481526020019060010190808311610ed2575b509398975050505050505050565b6000546040805163134fdccd60e21b8152905184926001600160a01b031691634d3f73349160048083019260809291908290030181865afa158015610f3d573d6000803e3d6000fd5b505050506040513d601f19601f82011682018060405250810190610f619190615102565b606001516005805473ffffffffffffffffffffffffffffffffffffffff19166001600160a01b03909216919091179055600081815260076020819052604090912001544210610fe55760405162461bcd60e51b815260206004820152601060248201526f1413d31650d5531157d156141254915160821b6044820152606401610948565b6000818152600760205260408082206002015460015491516302571be360e01b8152600481018290529092916001600160a01b0316906302571be390602401602060405180830381865afa158015611041573d6000803e3d6000fd5b505050506040513d601f19601f820116820180604052508101906110659190614fd2565b6005549091506001600160a01b031633148061108957506001600160a01b03811633145b806110b757506001600160a01b038116600090815260086020908152604080832033845290915290205460ff165b806110db57506000838152600760205260409020600601546001600160a01b031633145b6111275760405162461bcd60e51b815260206004820152600e60248201527f4e4f545f415554484f52495345440000000000000000000000000000000000006044820152606401610948565b600085815260076020908152604091829020600501805473ffffffffffffffffffffffffffffffffffffffff19166001600160a01b038816908117909155915191825286917f335721b01866dc23fbee8b6b2c7b1e14d6f05c28cd35a2c934239f94095602a091015b60405180910390a25050505050565b6000546040805163134fdccd60e21b8152905184926001600160a01b031691634d3f73349160048083019260809291908290030181865afa1580156111e8573d6000803e3d6000fd5b505050506040513d601f19601f8201168201806040525081019061120c9190615102565b606001516005805473ffffffffffffffffffffffffffffffffffffffff19166001600160a01b039092169190911790556000818152600760208190526040909120015442106112905760405162461bcd60e51b815260206004820152601060248201526f1413d31650d5531157d156141254915160821b6044820152606401610948565b6000818152600760205260408082206002015460015491516302571be360e01b8152600481018290529092916001600160a01b0316906302571be390602401602060405180830381865afa1580156112ec573d6000803e3d6000fd5b505050506040513d601f19601f820116820180604052508101906113109190614fd2565b6005549091506001600160a01b031633148061133457506001600160a01b03811633145b8061136257506001600160a01b038116600090815260086020908152604080832033845290915290205460ff165b8061138657506000838152600760205260409020600601546001600160a01b031633145b6113d25760405162461bcd60e51b815260206004820152600e60248201527f4e4f545f415554484f52495345440000000000000000000000000000000000006044820152606401610948565b600085815260076020526040908190206004018590555185907f4247841fd58468a6fb10925898bdd83c426da7b5519ee71597106dfdc6751229906111909087815260200190565b6000815183510361142d57506001610c73565b506000610c73565b600081815260076020819052604090912001548190421061148b5760405162461bcd60e51b815260206004820152601060248201526f1413d31650d5531157d156141254915160821b6044820152606401610948565b6000818152600760205260408082206002015460015491516302571be360e01b8152600481018290529092916001600160a01b0316906302571be390602401602060405180830381865afa1580156114e7573d6000803e3d6000fd5b505050506040513d601f19601f8201168201806040525081019061150b9190614fd2565b90506001600160a01b03811633148061154757506001600160a01b038116600090815260086020908152604080832033845290915290205460ff165b6115935760405162461bcd60e51b815260206004820152600960248201527f4e4f545f4f574e455200000000000000000000000000000000000000000000006044820152606401610948565b6000848152600760209081526040808320805482518185028101850190935280835291929091908301828280156115f357602002820191906000526020600020905b81546001600160a01b031681526001909101906020018083116115d5575b5050505050905060005b81518110156116e45760006007600088815260200190815260200160002060010160008484815181106116325761163261506c565b60200260200101516001600160a01b03166001600160a01b0316815260200190815260200160002060006101000a81548160ff021916908360ff160217905550857ff80d6be10f45d9294a75f05d07efcf9391c6eafe6844c8b639d21e9ff49024d48383815181106116a6576116a661506c565b60200260200101516040516116ca91906001600160a01b0391909116815260200190565b60405180910390a2806116dc816150ca565b9150506115fd565b5060008581526007602052604081206116fc916149f3565b60405185907f6b91085369552b61ca16180a741663b69fb6b3b967f7271116521d84e2291dc590600090a250505060009182525060076020908152604082208054600181018255908352912001805473ffffffffffffffffffffffffffffffffffffffff19169055565b60008281526007602081905260409091200154829042106117bc5760405162461bcd60e51b815260206004820152601060248201526f1413d31650d5531157d156141254915160821b6044820152606401610948565b6000818152600760205260408082206002015460015491516302571be360e01b8152600481018290529092916001600160a01b0316906302571be390602401602060405180830381865afa158015611818573d6000803e3d6000fd5b505050506040513d601f19601f8201168201806040525081019061183c9190614fd2565b90506001600160a01b03811633148061187857506001600160a01b038116600090815260086020908152604080832033845290915290205460ff165b6118c45760405162461bcd60e51b815260206004820152600960248201527f4e4f545f4f574e455200000000000000000000000000000000000000000000006044820152606401610948565b60008581526007602090815260408083208054825181850281018501909352808352919290919083018282801561192457602002820191906000526020600020905b81546001600160a01b03168152600190910190602001808311611906575b50506040517f2306f46600000000000000000000000000000000000000000000000000000000815293945073__$47e4ffaaf323c41735ff299f8946896ce0$__93632306f466935061198792506001600160a01b038a1691508590600401615189565b602060405180830381865af41580156119a4573d6000803e3d6000fd5b505050506040513d601f19601f820116820180604052508101906119c8919061504f565b15611b5d576040517fcd23ef4c00000000000000000000000000000000000000000000000000000000815260009073__$47e4ffaaf323c41735ff299f8946896ce0$__9063cd23ef4c90611a2b906001600160a01b038a16908690600401615189565b602060405180830381865af4158015611a48573d6000803e3d6000fd5b505050506040513d601f19601f82011682018060405250810190611a6c91906151d6565b905080611aae576040516000815287907ff80d6be10f45d9294a75f05d07efcf9391c6eafe6844c8b639d21e9ff49024d49060200160405180910390a2611b57565b60008781526007602090815260408083206001600160a01b038a168085526001909101835292819020805460ff191690555191825288917ff80d6be10f45d9294a75f05d07efcf9391c6eafe6844c8b639d21e9ff49024d4910160405180910390a26000878152600760205260409020805482908110611b3057611b3061506c565b6000918252602090912001805473ffffffffffffffffffffffffffffffffffffffff191690555b50611b90565b6040516000815286907ff80d6be10f45d9294a75f05d07efcf9391c6eafe6844c8b639d21e9ff49024d490602001610b3e565b505050505050565b6000546040805163134fdccd60e21b8152905186926001600160a01b031691634d3f73349160048083019260809291908290030181865afa158015611be1573d6000803e3d6000fd5b505050506040513d601f19601f82011682018060405250810190611c059190615102565b606001516005805473ffffffffffffffffffffffffffffffffffffffff19166001600160a01b03909216919091179055600081815260076020819052604090912001544210611c895760405162461bcd60e51b815260206004820152601060248201526f1413d31650d5531157d156141254915160821b6044820152606401610948565b6000818152600760205260408082206002015460015491516302571be360e01b8152600481018290529092916001600160a01b0316906302571be390602401602060405180830381865afa158015611ce5573d6000803e3d6000fd5b505050506040513d601f19601f82011682018060405250810190611d099190614fd2565b6005549091506001600160a01b0316331480611d2d57506001600160a01b03811633145b80611d5b57506001600160a01b038116600090815260086020908152604080832033845290915290205460ff165b80611d7f57506000838152600760205260409020600601546001600160a01b031633145b611dcb5760405162461bcd60e51b815260206004820152600e60248201527f4e4f545f415554484f52495345440000000000000000000000000000000000006044820152606401610948565b611dd5868661141a565b611e215760405162461bcd60e51b815260206004820152600760248201527f4241445f4d4150000000000000000000000000000000000000000000000000006044820152606401610948565b60005b865181101561204f57868181518110611e3f57611e3f61506c565b602002602001015173__$47e4ffaaf323c41735ff299f8946896ce0$__636fd8c6859091600760008c81526020019081526020016000206003016040518363ffffffff1660e01b8152600401611e969291906151ef565b602060405180830381865af4158015611eb3573d6000803e3d6000fd5b505050506040513d601f19601f82011682018060405250810190611ed7919061504f565b61203d5760076000898152602001908152602001600020600301878281518110611f0357611f0361506c565b60209081029190910181015182546001810184556000938452828420015589825260079052604090208651879083908110611f4057611f4061506c565b602090810291909101810151825460018101845560009384529190922001805473ffffffffffffffffffffffffffffffffffffffff19166001600160a01b039092169190911790558451859082908110611f9c57611f9c61506c565b6020026020010151600760008a81526020019081526020016000206001016000888481518110611fce57611fce61506c565b6020908102919091018101516001600160a01b031682528181019290925260409081016000908120805460ff191660ff95909516949094179093558a83526007909152902060060180547fffffffffffffffffffffff00ffffffffffffffffffffffffffffffffffffffff1690555b80612047816150ca565b915050611e24565b50867f580d99949e5d5a02f35dc5b91b800697d53dccb814e200f24f97b4bfbeb8667c876040516120809190614b60565b60405180910390a250505050505050565b6000828152600760208190526040909120015482904210156120f55760405162461bcd60e51b815260206004820152600f60248201527f504f4c5943554c455f45584953545300000000000000000000000000000000006044820152606401610948565b600083815260076020526040908190206002018390555183907facb5de0f65735f798ae8baf163fb3380a7813aca2c739ba9e39179007206585a9061213d9085815260200190565b60405180910390a2505050565b6000818152600760208190526040822001548290421061219f5760405162461bcd60e51b815260206004820152601060248201526f1413d31650d5531157d156141254915160821b6044820152606401610948565b505060009081526007602052604090206006015474010000000000000000000000000000000000000000900460ff1690565b6000546040805163134fdccd60e21b8152905184926001600160a01b031691634d3f73349160048083019260809291908290030181865afa15801561221a573d6000803e3d6000fd5b505050506040513d601f19601f8201168201806040525081019061223e9190615102565b606001516005805473ffffffffffffffffffffffffffffffffffffffff19166001600160a01b039092169190911790556000818152600760208190526040909120015442106122c25760405162461bcd60e51b815260206004820152601060248201526f1413d31650d5531157d156141254915160821b6044820152606401610948565b6000818152600760205260408082206002015460015491516302571be360e01b8152600481018290529092916001600160a01b0316906302571be390602401602060405180830381865afa15801561231e573d6000803e3d6000fd5b505050506040513d601f19601f820116820180604052508101906123429190614fd2565b6005549091506001600160a01b031633148061236657506001600160a01b03811633145b8061239457506001600160a01b038116600090815260086020908152604080832033845290915290205460ff165b806123b857506000838152600760205260409020600601546001600160a01b031633145b6124045760405162461bcd60e51b815260206004820152600e60248201527f4e4f545f415554484f52495345440000000000000000000000000000000000006044820152606401610948565b6000858152600760208190526040909120015484116124655760405162461bcd60e51b815260206004820152600a60248201527f4241445f455850495259000000000000000000000000000000000000000000006044820152606401610948565b60008054906101000a90046001600160a01b03166001600160a01b0316634d3f73346040518163ffffffff1660e01b8152600401608060405180830381865afa1580156124b6573d6000803e3d6000fd5b505050506040513d601f19601f820116820180604052508101906124da9190615102565b606001516005805473ffffffffffffffffffffffffffffffffffffffff19166001600160a01b039092169182179055331461258c5760008581526007602081905260408220015461252b9086615235565b90506004548161253b9190615248565b34101561258a5760405162461bcd60e51b815260206004820152601260248201527f494e53554646494349454e545f455448455200000000000000000000000000006044820152606401610948565b505b600085815260076020819052604091829020018590555185907fa620b72378ee464490805a96e25b53e5c0076f0ce2d28f9691ae255a595b3bf3906111909087815260200190565b600082815260076020819052604090912001548290421061262a5760405162461bcd60e51b815260206004820152601060248201526f1413d31650d5531157d156141254915160821b6044820152606401610948565b6000818152600760205260408082206002015460015491516302571be360e01b8152600481018290529092916001600160a01b0316906302571be390602401602060405180830381865afa158015612686573d6000803e3d6000fd5b505050506040513d601f19601f820116820180604052508101906126aa9190614fd2565b90506001600160a01b0381163314806126e657506001600160a01b038116600090815260086020908152604080832033845290915290205460ff165b6127325760405162461bcd60e51b815260206004820152600960248201527f4e4f545f4f574e455200000000000000000000000000000000000000000000006044820152606401610948565b60008581526007602090815260408083208054825181850281018501909352808352919290919083018282801561279257602002820191906000526020600020905b81546001600160a01b03168152600190910190602001808311612774575b505050505090506000600760008881526020019081526020016000206003018054806020026020016040519081016040528092919081815260200182805480156127fb57602002820191906000526020600020905b8154815260200190600101908083116127e7575b50506040517f6fd8c68500000000000000000000000000000000000000000000000000000000815293945073__$47e4ffaaf323c41735ff299f8946896ce0$__93636fd8c685935061285592508a91508590600401615285565b602060405180830381865af4158015612872573d6000803e3d6000fd5b505050506040513d601f19601f82011682018060405250810190612896919061504f565b15612a25576040517fda92b9ed00000000000000000000000000000000000000000000000000000000815260009073__$47e4ffaaf323c41735ff299f8946896ce0$__9063da92b9ed906128f0908a908690600401615285565b602060405180830381865af415801561290d573d6000803e3d6000fd5b505050506040513d601f19601f8201168201806040525081019061293191906151d6565b90506000600760008a8152602001908152602001600020600101600085848151811061295f5761295f61506c565b60200260200101516001600160a01b03166001600160a01b0316815260200190815260200160002060006101000a81548160ff021916908360ff160217905550877ff13ce89e57ea348ff8e29c4131c87b4d1b50ecf4edb1c68288b5e0cd3985b3f9886040516129d191815260200190565b60405180910390a260008881526007602052604090208054829081106129f9576129f961506c565b6000918252602090912001805473ffffffffffffffffffffffffffffffffffffffff1916905550612a58565b6040516000815287907ff13ce89e57ea348ff8e29c4131c87b4d1b50ecf4edb1c68288b5e0cd3985b3f990602001612080565b50505050505050565b6000838152600760208190526040909120015483904210612ab75760405162461bcd60e51b815260206004820152601060248201526f1413d31650d5531157d156141254915160821b6044820152606401610948565b6000818152600760205260408082206002015460015491516302571be360e01b8152600481018290529092916001600160a01b0316906302571be390602401602060405180830381865afa158015612b13573d6000803e3d6000fd5b505050506040513d601f19601f82011682018060405250810190612b379190614fd2565b90506001600160a01b038116331480612b7357506001600160a01b038116600090815260086020908152604080832033845290915290205460ff165b612bbf5760405162461bcd60e51b815260206004820152600960248201527f4e4f545f4f574e455200000000000000000000000000000000000000000000006044820152606401610948565b600086815260076020908152604080832080548251818502810185019093528083529192909190830182828015612c1f57602002820191906000526020600020905b81546001600160a01b03168152600190910190602001808311612c01575b50505050509050600060076000898152602001908152602001600020600301805480602002602001604051908101604052809291908181526020018280548015612c8857602002820191906000526020600020905b815481526020019060010190808311612c74575b50506040517f6fd8c68500000000000000000000000000000000000000000000000000000000815293945073__$47e4ffaaf323c41735ff299f8946896ce0$__93636fd8c6859350612ce292508a91508590600401615285565b602060405180830381865af4158015612cff573d6000803e3d6000fd5b505050506040513d601f19601f82011682018060405250810190612d23919061504f565b15612f19576040517fda92b9ed00000000000000000000000000000000000000000000000000000000815260009073__$47e4ffaaf323c41735ff299f8946896ce0$__9063da92b9ed90612d7d908a908690600401615285565b602060405180830381865af4158015612d9a573d6000803e3d6000fd5b505050506040513d601f19601f82011682018060405250810190612dbe91906151d6565b90508760ff16600760008b81526020019081526020016000206001016000858481518110612dee57612dee61506c565b6020908102919091018101516001600160a01b031682528101919091526040016000205460ff1603612e625760405162461bcd60e51b815260206004820152600b60248201527f52554c455f4558495354530000000000000000000000000000000000000000006044820152606401610948565b87600760008b81526020019081526020016000206001016000858481518110612e8d57612e8d61506c565b60200260200101516001600160a01b03166001600160a01b0316815260200190815260200160002060006101000a81548160ff021916908360ff160217905550887f12bf96b3da46c044c59d8b13a96d1a5f53adf413cbe17f743ac2ed2c285257de888a604051612f0b92919091825260ff16602082015260400190565b60405180910390a250612f55565b6040517f5adb3bc70000000000000000000000000000000000000000000000000000000081526004810189905260248101879052604401610948565b5050505050505050565b6002546040516000916001600160a01b03169047908381818185875af1925050503d8060008114612fac576040519150601f19603f3d011682016040523d82523d6000602084013e612fb1565b606091505b50509050806130025760405162461bcd60e51b815260206004820152601360248201527f4554485f5452414e534645525f4641494c4544000000000000000000000000006044820152606401610948565b50565b600082815260076020819052604090912001548290421061305b5760405162461bcd60e51b815260206004820152601060248201526f1413d31650d5531157d156141254915160821b6044820152606401610948565b6000818152600760205260408082206002015460015491516302571be360e01b8152600481018290529092916001600160a01b0316906302571be390602401602060405180830381865afa1580156130b7573d6000803e3d6000fd5b505050506040513d601f19601f820116820180604052508101906130db9190614fd2565b90506001600160a01b03811633148061311757506001600160a01b038116600090815260086020908152604080832033845290915290205460ff165b6131635760405162461bcd60e51b815260206004820152600960248201527f4e4f545f4f574e455200000000000000000000000000000000000000000000006044820152606401610948565b600085815260076020526040908190206002018590555185907f4810581adf2c16a86a375dbb1ed89b0b0f7e64d48d24e1948b3dfe6581e4d795906111909087815260200190565b6002546001600160a01b031633146132055760405162461bcd60e51b815260206004820152600760248201527f4e4f545f444556000000000000000000000000000000000000000000000000006044820152606401610948565b600254604080516001600160a01b03928316815291831660208301527fdec101f106d4fc7c85791843e64b198248c822298e3ed7046231d33f7783d816910160405180910390a16002805473ffffffffffffffffffffffffffffffffffffffff19166001600160a01b0392909216919091179055565b6000546040805163134fdccd60e21b8152905184926001600160a01b031691634d3f73349160048083019260809291908290030181865afa1580156132c4573d6000803e3d6000fd5b505050506040513d601f19601f820116820180604052508101906132e89190615102565b606001516005805473ffffffffffffffffffffffffffffffffffffffff19166001600160a01b0390921691909117905560008181526007602081905260409091200154421061336c5760405162461bcd60e51b815260206004820152601060248201526f1413d31650d5531157d156141254915160821b6044820152606401610948565b6000818152600760205260408082206002015460015491516302571be360e01b8152600481018290529092916001600160a01b0316906302571be390602401602060405180830381865afa1580156133c8573d6000803e3d6000fd5b505050506040513d601f19601f820116820180604052508101906133ec9190614fd2565b6005549091506001600160a01b031633148061341057506001600160a01b03811633145b8061343e57506001600160a01b038116600090815260086020908152604080832033845290915290205460ff165b8061346257506000838152600760205260409020600601546001600160a01b031633145b6134ae5760405162461bcd60e51b815260206004820152600e60248201527f4e4f545f415554484f52495345440000000000000000000000000000000000006044820152606401610948565b60008581526007602090815260408083206003018054825181850281018501909352808352919290919083018282801561350757602002820191906000526020600020905b8154815260200190600101908083116134f3575b50505060008981526007602090815260408083208054825181850281018501909352808352969750929590945091925083018282801561357057602002820191906000526020600020905b81546001600160a01b03168152600190910190602001808311613552575b50506040517f6fd8c68500000000000000000000000000000000000000000000000000000000815293945073__$47e4ffaaf323c41735ff299f8946896ce0$__93636fd8c68593506135ca92508a91508690600401615285565b602060405180830381865af41580156135e7573d6000803e3d6000fd5b505050506040513d601f19601f8201168201806040525081019061360b919061504f565b156137c8576040517fda92b9ed00000000000000000000000000000000000000000000000000000000815260009073__$47e4ffaaf323c41735ff299f8946896ce0$__9063da92b9ed90613665908a908790600401615285565b602060405180830381865af4158015613682573d6000803e3d6000fd5b505050506040513d601f19601f820116820180604052508101906136a691906151d6565b90506000600760008a815260200190815260200160002060010160008484815181106136d4576136d461506c565b60200260200101516001600160a01b03166001600160a01b0316815260200190815260200160002060006101000a81548160ff021916908360ff16021790555060076000898152602001908152602001600020600301818154811061373b5761373b61506c565b6000918252602080832090910182905589825260079052604090208054829081106137685761376861506c565b600091825260209182902001805473ffffffffffffffffffffffffffffffffffffffff1916905560405188815289917f5c379d054844760656a56e062f50208b458cfa0c4427574f5a2828d19602b4e9910160405180910390a250612a58565b6040517f5adb3bc70000000000000000000000000000000000000000000000000000000081526004810188905260248101879052604401610948565b600083815260076020819052604090912001548390421061385a5760405162461bcd60e51b815260206004820152601060248201526f1413d31650d5531157d156141254915160821b6044820152606401610948565b6000818152600760205260408082206002015460015491516302571be360e01b8152600481018290529092916001600160a01b0316906302571be390602401602060405180830381865afa1580156138b6573d6000803e3d6000fd5b505050506040513d601f19601f820116820180604052508101906138da9190614fd2565b90506001600160a01b03811633148061391657506001600160a01b038116600090815260086020908152604080832033845290915290205460ff165b6139625760405162461bcd60e51b815260206004820152600960248201527f4e4f545f4f574e455200000000000000000000000000000000000000000000006044820152606401610948565b61396c8685610bc7565b6139b85760405162461bcd60e51b815260206004820152600b60248201527f484f4f4b5f4558495354530000000000000000000000000000000000000000006044820152606401610948565b6000868152600760208181526040808420805460018082018355828752848720909101805473ffffffffffffffffffffffffffffffffffffffff19166001600160a01b038c169081179091558087528183018552838720805460ff191660ff8e169081179091559585526003909201805491820181558652948390209094018b905580519384529083019190915287917fc733a2bc621cc97eef6ed4f708f126e72e6acb76c0a1c0461c9dd31f7b9870659101612080565b3360008181526008602090815260408083206001600160a01b03871680855290835292819020805460ff191686151590811790915590519081529192917f17307eab39ab6107e8899845ad3d59bd9653f200f220920489ca2b5937696c31910160405180910390a35050565b6001546040516302571be360e01b81526004810184905260009182916001600160a01b03909116906302571be390602401602060405180830381865afa158015613b2a573d6000803e3d6000fd5b505050506040513d601f19601f82011682018060405250810190613b4e9190614fd2565b6001600160a01b0390811660009081526008602090815260408083209387168352929052205460ff1691505092915050565b60008181526007602081905260408220015482904210613bd55760405162461bcd60e51b815260206004820152601060248201526f1413d31650d5531157d156141254915160821b6044820152606401610948565b505060009081526007602052604090206004015490565b6000546040805163134fdccd60e21b8152905184926001600160a01b031691634d3f73349160048083019260809291908290030181865afa158015613c35573d6000803e3d6000fd5b505050506040513d601f19601f82011682018060405250810190613c599190615102565b606001516005805473ffffffffffffffffffffffffffffffffffffffff19166001600160a01b03909216919091179055600081815260076020819052604090912001544210613cdd5760405162461bcd60e51b815260206004820152601060248201526f1413d31650d5531157d156141254915160821b6044820152606401610948565b6000818152600760205260408082206002015460015491516302571be360e01b8152600481018290529092916001600160a01b0316906302571be390602401602060405180830381865afa158015613d39573d6000803e3d6000fd5b505050506040513d601f19601f82011682018060405250810190613d5d9190614fd2565b6005549091506001600160a01b0316331480613d8157506001600160a01b03811633145b80613daf57506001600160a01b038116600090815260086020908152604080832033845290915290205460ff165b80613dd357506000838152600760205260409020600601546001600160a01b031633145b613e1f5760405162461bcd60e51b815260206004820152600e60248201527f4e4f545f415554484f52495345440000000000000000000000000000000000006044820152606401610948565b60008581526007602052604090819020600601805486151574010000000000000000000000000000000000000000027fffffffffffffffffffffff00ffffffffffffffffffffffffffffffffffffffff9091161790555185907fe6ccdb52b4954ab2c3e293f1dbfe593e6c5630962a1944bfcf20c5563eeb84629061119090871515815260200190565b6000546040805163134fdccd60e21b8152905184926001600160a01b031691634d3f73349160048083019260809291908290030181865afa158015613ef2573d6000803e3d6000fd5b505050506040513d601f19601f82011682018060405250810190613f169190615102565b606001516005805473ffffffffffffffffffffffffffffffffffffffff19166001600160a01b03909216919091179055600081815260076020819052604090912001544210613f9a5760405162461bcd60e51b815260206004820152601060248201526f1413d31650d5531157d156141254915160821b6044820152606401610948565b6000818152600760205260408082206002015460015491516302571be360e01b8152600481018290529092916001600160a01b0316906302571be390602401602060405180830381865afa158015613ff6573d6000803e3d6000fd5b505050506040513d601f19601f8201168201806040525081019061401a9190614fd2565b6005549091506001600160a01b031633148061403e57506001600160a01b03811633145b8061406c57506001600160a01b038116600090815260086020908152604080832033845290915290205460ff165b8061409057506000838152600760205260409020600601546001600160a01b031633145b6140dc5760405162461bcd60e51b815260206004820152600e60248201527f4e4f545f415554484f52495345440000000000000000000000000000000000006044820152606401610948565b600085815260076020908152604091829020600601805473ffffffffffffffffffffffffffffffffffffffff19166001600160a01b038816908117909155915191825286917fe5108446a6097aab57fd36f346a515a78fddefa87d81662d44e0d7a463f920959101611190565b6000546040805163134fdccd60e21b8152905184926001600160a01b031691634d3f73349160048083019260809291908290030181865afa158015614192573d6000803e3d6000fd5b505050506040513d601f19601f820116820180604052508101906141b69190615102565b606001516005805473ffffffffffffffffffffffffffffffffffffffff19166001600160a01b0390921691909117905560008181526007602081905260409091200154421061423a5760405162461bcd60e51b815260206004820152601060248201526f1413d31650d5531157d156141254915160821b6044820152606401610948565b6000818152600760205260408082206002015460015491516302571be360e01b8152600481018290529092916001600160a01b0316906302571be390602401602060405180830381865afa158015614296573d6000803e3d6000fd5b505050506040513d601f19601f820116820180604052508101906142ba9190614fd2565b6005549091506001600160a01b03163314806142de57506001600160a01b03811633145b8061430c57506001600160a01b038116600090815260086020908152604080832033845290915290205460ff165b8061433057506000838152600760205260409020600601546001600160a01b031633145b61437c5760405162461bcd60e51b815260206004820152600e60248201527f4e4f545f415554484f52495345440000000000000000000000000000000000006044820152606401610948565b600085815260076020908152604091829020600501805473ffffffffffffffffffffffffffffffffffffffff19166001600160a01b038816908117909155915191825286917fcb71326aeaad88869e8be8be2893e1119f7617ce4ea2411af127e218909be1f79101611190565b6000818152600760208190526040822001548290421061443e5760405162461bcd60e51b815260206004820152601060248201526f1413d31650d5531157d156141254915160821b6044820152606401610948565b50506000908152600760205260409020600601546001600160a01b031690565b6000546040805163134fdccd60e21b8152905186926001600160a01b031691634d3f73349160048083019260809291908290030181865afa1580156144a7573d6000803e3d6000fd5b505050506040513d601f19601f820116820180604052508101906144cb9190615102565b606001516005805473ffffffffffffffffffffffffffffffffffffffff19166001600160a01b0390921691909117905560008181526007602081905260409091200154421061454f5760405162461bcd60e51b815260206004820152601060248201526f1413d31650d5531157d156141254915160821b6044820152606401610948565b6000818152600760205260408082206002015460015491516302571be360e01b8152600481018290529092916001600160a01b0316906302571be390602401602060405180830381865afa1580156145ab573d6000803e3d6000fd5b505050506040513d601f19601f820116820180604052508101906145cf9190614fd2565b6005549091506001600160a01b03163314806145f357506001600160a01b03811633145b8061462157506001600160a01b038116600090815260086020908152604080832033845290915290205460ff165b8061464557506000838152600760205260409020600601546001600160a01b031633145b6146915760405162461bcd60e51b815260206004820152600e60248201527f4e4f545f415554484f52495345440000000000000000000000000000000000006044820152606401610948565b61469b878761498f565b6146e75760405162461bcd60e51b815260206004820152600c60248201527f414e494f4e5f45584953545300000000000000000000000000000000000000006044820152606401610948565b6146f18786610bc7565b61473d5760405162461bcd60e51b815260206004820152600b60248201527f484f4f4b5f4558495354530000000000000000000000000000000000000000006044820152606401610948565b60008781526007602090815260408083206001600160a01b038916845260010190915290205460ff8086169116036147b75760405162461bcd60e51b815260206004820152600b60248201527f52554c455f4558495354530000000000000000000000000000000000000000006044820152606401610948565b600087815260076020908152604080832060038101805460018082018355918652848620018b90558154808201835582865284862001805473ffffffffffffffffffffffffffffffffffffffff19166001600160a01b038c16908117909155909452929092018152905187815288917f600ffddd29393ca43c0a11fa6b0b7096631364178cb42f9d546c0a2cd22525ee910160405180910390a2604080516001600160a01b038716815260ff8616602082015288917fc733a2bc621cc97eef6ed4f708f126e72e6acb76c0a1c0461c9dd31f7b9870659101612080565b600081815260076020819052604082200154829042106148e95760405162461bcd60e51b815260206004820152601060248201526f1413d31650d5531157d156141254915160821b6044820152606401610948565b6000838152600760205260408082206002015460015491516302571be360e01b8152600481018290529092916001600160a01b0316906302571be390602401602060405180830381865afa158015614945573d6000803e3d6000fd5b505050506040513d601f19601f820116820180604052508101906149699190614fd2565b9050306001600160a01b038216036149875760035493505050610bc1565b509392505050565b60008281526007602052604080822090517f6fd8c68500000000000000000000000000000000000000000000000000000000815273__$47e4ffaaf323c41735ff299f8946896ce0$__91636fd8c68591610c2e9186916003909101906004016151ef565b508054600082559060005260206000209081019061300291905b80821115614a215760008155600101614a0d565b5090565b803560ff81168114614a3657600080fd5b919050565b6001600160a01b038116811461300257600080fd5b600080600060608486031215614a6557600080fd5b83359250614a7560208501614a25565b91506040840135614a8581614a3b565b809150509250925092565b600060208284031215614aa257600080fd5b5035919050565b60008060408385031215614abc57600080fd5b823591506020830135614ace81614a3b565b809150509250929050565b604080825283519082018190526000906020906060840190828701845b82811015614b1b5781516001600160a01b031684529284019290840190600101614af6565b5050508381038285015284518082528583019183019060005b81811015614b5357835160ff1683529284019291840191600101614b34565b5090979650505050505050565b6020808252825182820181905260009190848201906040850190845b81811015614b9857835183529284019291840191600101614b7c565b50909695505050505050565b60008060408385031215614bb757600080fd5b50508035926020909101359150565b7f4e487b7100000000000000000000000000000000000000000000000000000000600052604160045260246000fd5b604051601f82017fffffffffffffffffffffffffffffffffffffffffffffffffffffffffffffffe016810167ffffffffffffffff81118282101715614c3c57614c3c614bc6565b604052919050565b600067ffffffffffffffff821115614c5e57614c5e614bc6565b5060051b60200190565b600082601f830112614c7957600080fd5b81356020614c8e614c8983614c44565b614bf5565b82815260059290921b84018101918181019086841115614cad57600080fd5b8286015b84811015614cc85780358352918301918301614cb1565b509695505050505050565b600082601f830112614ce457600080fd5b81356020614cf4614c8983614c44565b82815260059290921b84018101918181019086841115614d1357600080fd5b8286015b84811015614cc8578035614d2a81614a3b565b8352918301918301614d17565b60008060408385031215614d4a57600080fd5b823567ffffffffffffffff80821115614d6257600080fd5b614d6e86838701614c68565b93506020850135915080821115614d8457600080fd5b50614d9185828601614cd3565b9150509250929050565b60008060008060808587031215614db157600080fd5b8435935060208086013567ffffffffffffffff80821115614dd157600080fd5b614ddd89838a01614c68565b95506040880135915080821115614df357600080fd5b614dff89838a01614cd3565b94506060880135915080821115614e1557600080fd5b508601601f81018813614e2757600080fd5b8035614e35614c8982614c44565b81815260059190911b8201830190838101908a831115614e5457600080fd5b928401925b82841015614e7957614e6a84614a25565b82529284019290840190614e59565b979a9699509497505050505050565b600080600060608486031215614e9d57600080fd5b83359250614ead60208501614a25565b9150604084013590509250925092565b600060208284031215614ecf57600080fd5b8135614eda81614a3b565b9392505050565b60008060008060808587031215614ef757600080fd5b8435935060208501359250614f0e60408601614a25565b91506060850135614f1e81614a3b565b939692955090935050565b801515811461300257600080fd5b60008060408385031215614f4a57600080fd5b8235614f5581614a3b565b91506020830135614ace81614f29565b60008060408385031215614f7857600080fd5b823591506020830135614ace81614f29565b60008060008060808587031215614fa057600080fd5b84359350602085013592506040850135614fb981614a3b565b9150614fc760608601614a25565b905092959194509250565b600060208284031215614fe457600080fd5b8151614eda81614a3b565b6000604082016001600160a01b03808616845260206040818601528286548085526060870191508760005282600020945060005b81811015615041578554851683526001958601959284019201615023565b509098975050505050505050565b60006020828403121561506157600080fd5b8151614eda81614f29565b7f4e487b7100000000000000000000000000000000000000000000000000000000600052603260045260246000fd5b7f4e487b7100000000000000000000000000000000000000000000000000000000600052601160045260246000fd5b60007fffffffffffffffffffffffffffffffffffffffffffffffffffffffffffffffff82036150fb576150fb61509b565b5060010190565b60006080828403121561511457600080fd5b82601f83011261512357600080fd5b6040516080810181811067ffffffffffffffff8211171561514657615146614bc6565b60405280608084018581111561515b57600080fd5b845b8181101561517e57805161517081614a3b565b83526020928301920161515d565b509195945050505050565b6000604082016001600160a01b0380861684526020604081860152828651808552606087019150828801945060005b818110156150415785518516835294830194918301916001016151b8565b6000602082840312156151e857600080fd5b5051919050565b60006040820184835260206040818501528185548084526060860191508660005282600020935060005b81811015614b5357845483526001948501949284019201615219565b81810381811115610c7357610c7361509b565b6000817fffffffffffffffffffffffffffffffffffffffffffffffffffffffffffffffff04831182151516156152805761528061509b565b500290565b6000604082018483526020604081850152818551808452606086019150828701935060005b81811015614b53578451835293830193918301916001016152aa56fea26469706673582212203a84dde10eaf53c90f7840e117d7e4082526a64aec40768aebebfd8c0b40299f64736f6c63430008100033",
    "linkReferences": {
      "src/Utils/LibString.sol": {
        "LibString": [
          {
            "start": 5245,
            "length": 20
          },
          {
            "start": 8657,
            "length": 20
          },
          {
            "start": 8824,
            "length": 20
          },
          {
            "start": 9929,
            "length": 20
          },
          {
            "start": 12456,
            "length": 20
          },
          {
            "start": 12614,
            "length": 20
          },
          {
            "start": 13621,
            "length": 20
          },
          {
            "start": 13779,
            "length": 20
          },
          {
            "start": 15901,
            "length": 20
          },
          {
            "start": 16059,
            "length": 20
          },
          {
            "start": 21061,
            "length": 20
          }
        ]
      }
    }
  },
  "methodIdentifiers": {
    "Dev()": "01e51ae8",
    "HELIX2()": "b782426e",
    "NAMES()": "05e84aa0",
    "Polycules(bytes32)": "75c4f68e",
    "active()": "02fb0c5e",
    "addAnion(bytes32,bytes32,address,uint8)": "e73f8060",
    "alias_(bytes32)": "c5bc4c0b",
    "anion(bytes32)": "0e68b116",
    "basePrice()": "c7876ea4",
    "cation(bytes32)": "f61ccd53",
    "changeDev(address)": "88a8c95c",
    "controller(bytes32)": "dbd4e021",
    "covalence(bytes32)": "34026859",
    "expiry(bytes32)": "d2ec5fca",
    "hook(bytes32,bytes32,uint8,address)": "9e162dfa",
    "hooksWithRules(bytes32)": "0aac6625",
    "isApprovedForAll(bytes32,address)": "b0698628",
    "isLegalMap(bytes32[],address[])": "1f10ea07",
    "isNotDuplicateAnion(bytes32,bytes32)": "f8c91244",
    "isNotDuplicateHook(bytes32,address)": "049a491c",
    "popAnion(bytes32,bytes32)": "8dcad139",
    "recordExists(bytes32)": "f79fe538",
    "register(bytes32,bytes32)": "2f926732",
    "registrar()": "2b20e397",
    "rehook(bytes32,uint8,address)": "015399e6",
    "rehook(bytes32,uint8,bytes32)": "5b55b376",
    "resolver(bytes32)": "0178b8bf",
    "roothash()": "251c9422",
    "setAlias(bytes32,bytes32)": "1f06e91c",
    "setAnions(bytes32,bytes32[],address[],uint8[])": "250548b9",
    "setApprovalForAll(address,bool)": "a22cb465",
    "setCation(bytes32,bytes32)": "8146970a",
    "setController(bytes32,address)": "d3156905",
    "setCovalence(bytes32,bool)": "d07699aa",
    "setExpiry(bytes32,uint256)": "39de6469",
    "setRecord(bytes32,address)": "d9b76ed4",
    "setResolver(bytes32,address)": "1896f70a",
    "theEnd()": "22b68deb",
    "unhook(bytes32,address)": "241270d5",
    "unhook(bytes32,bytes32)": "516aeda0",
    "unhookAll(bytes32)": "21ec2b5b",
    "withdrawEther()": "7362377b"
  },
  "id": 33
}