{
  "abi": [
    {
      "inputs": [
        {
          "internalType": "address",
          "name": "_registry",
          "type": "address"
        },
        {
          "internalType": "address",
          "name": "_helix2",
          "type": "address"
        }
      ],
      "stateMutability": "nonpayable",
      "type": "constructor"
    },
    {
      "inputs": [],
      "name": "BAD_ANION",
      "type": "error"
    },
    {
      "inputs": [],
      "name": "BAD_HOOK",
      "type": "error"
    },
    {
      "anonymous": false,
      "inputs": [
        {
          "indexed": true,
          "internalType": "address",
          "name": "cation",
          "type": "address"
        },
        {
          "indexed": true,
          "internalType": "address",
          "name": "operator",
          "type": "address"
        },
        {
          "indexed": false,
          "internalType": "bool",
          "name": "approved",
          "type": "bool"
        }
      ],
      "name": "ApprovalForAll",
      "type": "event"
    },
    {
      "anonymous": false,
      "inputs": [
        {
          "indexed": true,
          "internalType": "bytes32",
          "name": "polyhash",
          "type": "bytes32"
        },
        {
          "indexed": false,
          "internalType": "address",
          "name": "config",
          "type": "address"
        },
        {
          "indexed": false,
          "internalType": "uint8",
          "name": "rule",
          "type": "uint8"
        }
      ],
      "name": "Hooked",
      "type": "event"
    },
    {
      "anonymous": false,
      "inputs": [
        {
          "indexed": true,
          "internalType": "bytes32",
          "name": "polyhash",
          "type": "bytes32"
        },
        {
          "indexed": false,
          "internalType": "bytes32",
          "name": "_alias",
          "type": "bytes32"
        }
      ],
      "name": "NewAlias",
      "type": "event"
    },
    {
      "anonymous": false,
      "inputs": [
        {
          "indexed": true,
          "internalType": "bytes32",
          "name": "polyhash",
          "type": "bytes32"
        },
        {
          "indexed": false,
          "internalType": "bytes32",
          "name": "anion",
          "type": "bytes32"
        }
      ],
      "name": "NewAnion",
      "type": "event"
    },
    {
      "anonymous": false,
      "inputs": [
        {
          "indexed": true,
          "internalType": "bytes32",
          "name": "polyhash",
          "type": "bytes32"
        },
        {
          "indexed": false,
          "internalType": "bytes32[]",
          "name": "anion",
          "type": "bytes32[]"
        }
      ],
      "name": "NewAnions",
      "type": "event"
    },
    {
      "anonymous": false,
      "inputs": [
        {
          "indexed": true,
          "internalType": "bytes32",
          "name": "polyhash",
          "type": "bytes32"
        },
        {
          "indexed": false,
          "internalType": "bytes32",
          "name": "cation",
          "type": "bytes32"
        }
      ],
      "name": "NewCation",
      "type": "event"
    },
    {
      "anonymous": false,
      "inputs": [
        {
          "indexed": true,
          "internalType": "bytes32",
          "name": "polyhash",
          "type": "bytes32"
        },
        {
          "indexed": false,
          "internalType": "address",
          "name": "controller",
          "type": "address"
        }
      ],
      "name": "NewController",
      "type": "event"
    },
    {
      "anonymous": false,
      "inputs": [
        {
          "indexed": true,
          "internalType": "bytes32",
          "name": "polyhash",
          "type": "bytes32"
        },
        {
          "indexed": false,
          "internalType": "bool",
          "name": "covalence",
          "type": "bool"
        }
      ],
      "name": "NewCovalence",
      "type": "event"
    },
    {
      "anonymous": false,
      "inputs": [
        {
          "indexed": false,
          "internalType": "address",
          "name": "Dev",
          "type": "address"
        },
        {
          "indexed": false,
          "internalType": "address",
          "name": "newDev",
          "type": "address"
        }
      ],
      "name": "NewDev",
      "type": "event"
    },
    {
      "anonymous": false,
      "inputs": [
        {
          "indexed": true,
          "internalType": "bytes32",
          "name": "polyhash",
          "type": "bytes32"
        },
        {
          "indexed": false,
          "internalType": "uint256",
          "name": "expiry",
          "type": "uint256"
        }
      ],
      "name": "NewExpiry",
      "type": "event"
    },
    {
      "anonymous": false,
      "inputs": [
        {
          "indexed": true,
          "internalType": "bytes32",
          "name": "polyhash",
          "type": "bytes32"
        },
        {
          "indexed": false,
          "internalType": "bytes32",
          "name": "cation",
          "type": "bytes32"
        }
      ],
      "name": "NewPolycule",
      "type": "event"
    },
    {
      "anonymous": false,
      "inputs": [
        {
          "indexed": true,
          "internalType": "bytes32",
          "name": "polyhash",
          "type": "bytes32"
        },
        {
          "indexed": false,
          "internalType": "address",
          "name": "resolver",
          "type": "address"
        }
      ],
      "name": "NewRecord",
      "type": "event"
    },
    {
      "anonymous": false,
      "inputs": [
        {
          "indexed": true,
          "internalType": "bytes32",
          "name": "polyhash",
          "type": "bytes32"
        },
        {
          "indexed": false,
          "internalType": "bytes32",
          "name": "cation",
          "type": "bytes32"
        }
      ],
      "name": "NewRegistration",
      "type": "event"
    },
    {
      "anonymous": false,
      "inputs": [
        {
          "indexed": true,
          "internalType": "bytes32",
          "name": "polyhash",
          "type": "bytes32"
        },
        {
          "indexed": false,
          "internalType": "address",
          "name": "resolver",
          "type": "address"
        }
      ],
      "name": "NewResolver",
      "type": "event"
    },
    {
      "anonymous": false,
      "inputs": [
        {
          "indexed": true,
          "internalType": "bytes32",
          "name": "polyhash",
          "type": "bytes32"
        },
        {
          "indexed": false,
          "internalType": "bytes32",
          "name": "anion",
          "type": "bytes32"
        }
      ],
      "name": "PopAnion",
      "type": "event"
    },
    {
      "anonymous": false,
      "inputs": [
        {
          "indexed": true,
          "internalType": "bytes32",
          "name": "polyhash",
          "type": "bytes32"
        },
        {
          "indexed": false,
          "internalType": "bytes32",
          "name": "anion",
          "type": "bytes32"
        },
        {
          "indexed": false,
          "internalType": "uint8",
          "name": "rule",
          "type": "uint8"
        }
      ],
      "name": "RehookedAnion",
      "type": "event"
    },
    {
      "anonymous": false,
      "inputs": [
        {
          "indexed": true,
          "internalType": "bytes32",
          "name": "polyhash",
          "type": "bytes32"
        },
        {
          "indexed": false,
          "internalType": "address",
          "name": "config",
          "type": "address"
        },
        {
          "indexed": false,
          "internalType": "uint8",
          "name": "rule",
          "type": "uint8"
        }
      ],
      "name": "RehookedConfig",
      "type": "event"
    },
    {
      "anonymous": false,
      "inputs": [
        {
          "indexed": true,
          "internalType": "bytes32",
          "name": "polyhash",
          "type": "bytes32"
        }
      ],
      "name": "UnhookedAll",
      "type": "event"
    },
    {
      "anonymous": false,
      "inputs": [
        {
          "indexed": true,
          "internalType": "bytes32",
          "name": "polyhash",
          "type": "bytes32"
        },
        {
          "indexed": false,
          "internalType": "bytes32",
          "name": "anion",
          "type": "bytes32"
        }
      ],
      "name": "UnhookedAnion",
      "type": "event"
    },
    {
      "anonymous": false,
      "inputs": [
        {
          "indexed": true,
          "internalType": "bytes32",
          "name": "polyhash",
          "type": "bytes32"
        },
        {
          "indexed": false,
          "internalType": "uint8",
          "name": "rule",
          "type": "uint8"
        }
      ],
      "name": "UnhookedConfig",
      "type": "event"
    },
    {
      "inputs": [],
      "name": "Dev",
      "outputs": [
        {
          "internalType": "address",
          "name": "",
          "type": "address"
        }
      ],
      "stateMutability": "view",
      "type": "function"
    },
    {
      "inputs": [],
      "name": "HELIX2",
      "outputs": [
        {
          "internalType": "contract iHELIX2",
          "name": "",
          "type": "address"
        }
      ],
      "stateMutability": "view",
      "type": "function"
    },
    {
      "inputs": [],
      "name": "NAMES",
      "outputs": [
        {
          "internalType": "contract iNAME",
          "name": "",
          "type": "address"
        }
      ],
      "stateMutability": "view",
      "type": "function"
    },
    {
      "inputs": [
        {
          "internalType": "bytes32",
          "name": "",
          "type": "bytes32"
        }
      ],
      "name": "Polycules",
      "outputs": [
        {
          "internalType": "bytes32",
          "name": "_cation",
          "type": "bytes32"
        },
        {
          "internalType": "bytes32",
          "name": "_alias",
          "type": "bytes32"
        },
        {
          "internalType": "address",
          "name": "_resolver",
          "type": "address"
        },
        {
          "internalType": "address",
          "name": "_controller",
          "type": "address"
        },
        {
          "internalType": "bool",
          "name": "_covalence",
          "type": "bool"
        },
        {
          "internalType": "uint256",
          "name": "_expiry",
          "type": "uint256"
        }
      ],
      "stateMutability": "view",
      "type": "function"
    },
    {
      "inputs": [],
      "name": "Registrar",
      "outputs": [
        {
          "internalType": "address",
          "name": "",
          "type": "address"
        }
      ],
      "stateMutability": "view",
      "type": "function"
    },
    {
      "inputs": [],
      "name": "active",
      "outputs": [
        {
          "internalType": "bool",
          "name": "",
          "type": "bool"
        }
      ],
      "stateMutability": "view",
      "type": "function"
    },
    {
      "inputs": [
        {
          "internalType": "bytes32",
          "name": "polyhash",
          "type": "bytes32"
        },
        {
          "internalType": "bytes32",
          "name": "_anion",
          "type": "bytes32"
        },
        {
          "internalType": "address",
          "name": "config",
          "type": "address"
        },
        {
          "internalType": "uint8",
          "name": "rule",
          "type": "uint8"
        }
      ],
      "name": "addAnion",
      "outputs": [],
      "stateMutability": "nonpayable",
      "type": "function"
    },
    {
      "inputs": [
        {
          "internalType": "bytes32",
          "name": "polyhash",
          "type": "bytes32"
        }
      ],
      "name": "alias_",
      "outputs": [
        {
          "internalType": "bytes32",
          "name": "",
          "type": "bytes32"
        }
      ],
      "stateMutability": "view",
      "type": "function"
    },
    {
      "inputs": [
        {
          "internalType": "bytes32",
          "name": "polyhash",
          "type": "bytes32"
        }
      ],
      "name": "anion",
      "outputs": [
        {
          "internalType": "bytes32[]",
          "name": "",
          "type": "bytes32[]"
        }
      ],
      "stateMutability": "view",
      "type": "function"
    },
    {
      "inputs": [],
      "name": "basePrice",
      "outputs": [
        {
          "internalType": "uint256",
          "name": "",
          "type": "uint256"
        }
      ],
      "stateMutability": "view",
      "type": "function"
    },
    {
      "inputs": [
        {
          "internalType": "bytes32",
          "name": "polyhash",
          "type": "bytes32"
        }
      ],
      "name": "cation",
      "outputs": [
        {
          "internalType": "bytes32",
          "name": "",
          "type": "bytes32"
        }
      ],
      "stateMutability": "view",
      "type": "function"
    },
    {
      "inputs": [
        {
          "internalType": "address",
          "name": "newDev",
          "type": "address"
        }
      ],
      "name": "changeDev",
      "outputs": [],
      "stateMutability": "nonpayable",
      "type": "function"
    },
    {
      "inputs": [
        {
          "internalType": "bytes32",
          "name": "polyhash",
          "type": "bytes32"
        }
      ],
      "name": "controller",
      "outputs": [
        {
          "internalType": "address",
          "name": "",
          "type": "address"
        }
      ],
      "stateMutability": "view",
      "type": "function"
    },
    {
      "inputs": [
        {
          "internalType": "bytes32",
          "name": "polyhash",
          "type": "bytes32"
        }
      ],
      "name": "covalence",
      "outputs": [
        {
          "internalType": "bool",
          "name": "",
          "type": "bool"
        }
      ],
      "stateMutability": "view",
      "type": "function"
    },
    {
      "inputs": [
        {
          "internalType": "bytes32",
          "name": "polyhash",
          "type": "bytes32"
        }
      ],
      "name": "expiry",
      "outputs": [
        {
          "internalType": "uint256",
          "name": "",
          "type": "uint256"
        }
      ],
      "stateMutability": "view",
      "type": "function"
    },
    {
      "inputs": [
        {
          "internalType": "bytes32",
          "name": "__anion",
          "type": "bytes32"
        },
        {
          "internalType": "bytes32",
          "name": "polyhash",
          "type": "bytes32"
        },
        {
          "internalType": "address",
          "name": "config",
          "type": "address"
        },
        {
          "internalType": "uint8",
          "name": "rule",
          "type": "uint8"
        }
      ],
      "name": "hook",
      "outputs": [],
      "stateMutability": "nonpayable",
      "type": "function"
    },
    {
      "inputs": [
        {
          "internalType": "bytes32",
          "name": "polyhash",
          "type": "bytes32"
        }
      ],
      "name": "hooksWithRules",
      "outputs": [
        {
          "internalType": "uint8[]",
          "name": "_rules",
          "type": "uint8[]"
        },
        {
          "internalType": "address[]",
          "name": "_hooks",
          "type": "address[]"
        }
      ],
      "stateMutability": "view",
      "type": "function"
    },
    {
      "inputs": [
        {
          "internalType": "bytes32",
          "name": "_cation",
          "type": "bytes32"
        },
        {
          "internalType": "address",
          "name": "operator",
          "type": "address"
        }
      ],
      "name": "isApprovedForAll",
      "outputs": [
        {
          "internalType": "bool",
          "name": "",
          "type": "bool"
        }
      ],
      "stateMutability": "view",
      "type": "function"
    },
    {
      "inputs": [
        {
          "internalType": "bytes32[]",
          "name": "_anion",
          "type": "bytes32[]"
        },
        {
          "internalType": "uint8[]",
          "name": "_rule",
          "type": "uint8[]"
        }
      ],
      "name": "isLegalMap",
      "outputs": [
        {
          "internalType": "bool",
          "name": "",
          "type": "bool"
        }
      ],
      "stateMutability": "pure",
      "type": "function"
    },
    {
      "inputs": [
        {
          "internalType": "bytes32",
          "name": "polyhash",
          "type": "bytes32"
        },
        {
          "internalType": "bytes32",
          "name": "_anion",
          "type": "bytes32"
        }
      ],
      "name": "isNotDuplicateAnion",
      "outputs": [
        {
          "internalType": "bool",
          "name": "",
          "type": "bool"
        }
      ],
      "stateMutability": "view",
      "type": "function"
    },
    {
      "inputs": [
        {
          "internalType": "bytes32",
          "name": "polyhash",
          "type": "bytes32"
        },
        {
          "internalType": "uint8",
          "name": "rule",
          "type": "uint8"
        }
      ],
      "name": "isNotDuplicateHook",
      "outputs": [
        {
          "internalType": "bool",
          "name": "",
          "type": "bool"
        }
      ],
      "stateMutability": "view",
      "type": "function"
    },
    {
      "inputs": [
        {
          "internalType": "bytes32",
          "name": "polyhash",
          "type": "bytes32"
        },
        {
          "internalType": "bytes32",
          "name": "__anion",
          "type": "bytes32"
        }
      ],
      "name": "popAnion",
      "outputs": [],
      "stateMutability": "nonpayable",
      "type": "function"
    },
    {
      "inputs": [
        {
          "internalType": "bytes32",
          "name": "polyhash",
          "type": "bytes32"
        }
      ],
      "name": "recordExists",
      "outputs": [
        {
          "internalType": "bool",
          "name": "",
          "type": "bool"
        }
      ],
      "stateMutability": "view",
      "type": "function"
    },
    {
      "inputs": [
        {
          "internalType": "bytes32",
          "name": "polyhash",
          "type": "bytes32"
        },
        {
          "internalType": "bytes32",
          "name": "_cation",
          "type": "bytes32"
        }
      ],
      "name": "register",
      "outputs": [],
      "stateMutability": "nonpayable",
      "type": "function"
    },
    {
      "inputs": [
        {
          "internalType": "bytes32",
          "name": "polyhash",
          "type": "bytes32"
        },
        {
          "internalType": "uint8",
          "name": "rule",
          "type": "uint8"
        },
        {
          "internalType": "bytes32",
          "name": "__anion",
          "type": "bytes32"
        }
      ],
      "name": "rehook",
      "outputs": [],
      "stateMutability": "nonpayable",
      "type": "function"
    },
    {
      "inputs": [
        {
          "internalType": "bytes32",
          "name": "polyhash",
          "type": "bytes32"
        },
        {
          "internalType": "address",
          "name": "config",
          "type": "address"
        },
        {
          "internalType": "uint8",
          "name": "rule",
          "type": "uint8"
        }
      ],
      "name": "rehook",
      "outputs": [],
      "stateMutability": "nonpayable",
      "type": "function"
    },
    {
      "inputs": [
        {
          "internalType": "bytes32",
          "name": "molyhash",
          "type": "bytes32"
        },
        {
          "internalType": "uint256",
          "name": "_expiry",
          "type": "uint256"
        }
      ],
      "name": "renew",
      "outputs": [],
      "stateMutability": "payable",
      "type": "function"
    },
    {
      "inputs": [
        {
          "internalType": "bytes32",
          "name": "polyhash",
          "type": "bytes32"
        }
      ],
      "name": "resolver",
      "outputs": [
        {
          "internalType": "address",
          "name": "",
          "type": "address"
        }
      ],
      "stateMutability": "view",
      "type": "function"
    },
    {
      "inputs": [],
      "name": "roothash",
      "outputs": [
        {
          "internalType": "bytes32",
          "name": "",
          "type": "bytes32"
        }
      ],
      "stateMutability": "view",
      "type": "function"
    },
    {
      "inputs": [
        {
          "internalType": "bytes32",
          "name": "polyhash",
          "type": "bytes32"
        },
        {
          "internalType": "bytes32",
          "name": "_alias",
          "type": "bytes32"
        }
      ],
      "name": "setAlias",
      "outputs": [],
      "stateMutability": "nonpayable",
      "type": "function"
    },
    {
      "inputs": [
        {
          "internalType": "bytes32",
          "name": "polyhash",
          "type": "bytes32"
        },
        {
          "internalType": "bytes32[]",
          "name": "_anion",
          "type": "bytes32[]"
        },
        {
          "internalType": "address[]",
          "name": "_hooks",
          "type": "address[]"
        },
        {
          "internalType": "uint8[]",
          "name": "_rule",
          "type": "uint8[]"
        }
      ],
      "name": "setAnions",
      "outputs": [],
      "stateMutability": "nonpayable",
      "type": "function"
    },
    {
      "inputs": [
        {
          "internalType": "address",
          "name": "operator",
          "type": "address"
        },
        {
          "internalType": "bool",
          "name": "approved",
          "type": "bool"
        }
      ],
      "name": "setApprovalForAll",
      "outputs": [],
      "stateMutability": "nonpayable",
      "type": "function"
    },
    {
      "inputs": [
        {
          "internalType": "bytes32",
          "name": "polyhash",
          "type": "bytes32"
        },
        {
          "internalType": "bytes32",
          "name": "_cation",
          "type": "bytes32"
        }
      ],
      "name": "setCation",
      "outputs": [],
      "stateMutability": "nonpayable",
      "type": "function"
    },
    {
      "inputs": [
        {
          "internalType": "bytes32",
          "name": "polyhash",
          "type": "bytes32"
        },
        {
          "internalType": "address",
          "name": "_controller",
          "type": "address"
        }
      ],
      "name": "setController",
      "outputs": [],
      "stateMutability": "nonpayable",
      "type": "function"
    },
    {
      "inputs": [
        {
          "internalType": "bytes32",
          "name": "polyhash",
          "type": "bytes32"
        },
        {
          "internalType": "bool",
          "name": "_covalence",
          "type": "bool"
        }
      ],
      "name": "setCovalence",
      "outputs": [],
      "stateMutability": "nonpayable",
      "type": "function"
    },
    {
      "inputs": [
        {
          "internalType": "bytes32",
          "name": "molyhash",
          "type": "bytes32"
        },
        {
          "internalType": "uint256",
          "name": "_expiry",
          "type": "uint256"
        }
      ],
      "name": "setExpiry",
      "outputs": [],
      "stateMutability": "nonpayable",
      "type": "function"
    },
    {
      "inputs": [
        {
          "internalType": "bytes32",
          "name": "polyhash",
          "type": "bytes32"
        },
        {
          "internalType": "address",
          "name": "_resolver",
          "type": "address"
        }
      ],
      "name": "setRecord",
      "outputs": [],
      "stateMutability": "nonpayable",
      "type": "function"
    },
    {
      "inputs": [
        {
          "internalType": "bytes32",
          "name": "polyhash",
          "type": "bytes32"
        },
        {
          "internalType": "address",
          "name": "_resolver",
          "type": "address"
        }
      ],
      "name": "setResolver",
      "outputs": [],
      "stateMutability": "nonpayable",
      "type": "function"
    },
    {
      "inputs": [],
      "name": "theEnd",
      "outputs": [
        {
          "internalType": "uint256",
          "name": "",
          "type": "uint256"
        }
      ],
      "stateMutability": "view",
      "type": "function"
    },
    {
      "inputs": [
        {
          "internalType": "bytes32",
          "name": "polyhash",
          "type": "bytes32"
        },
        {
          "internalType": "bytes32",
          "name": "__anion",
          "type": "bytes32"
        }
      ],
      "name": "unhook",
      "outputs": [],
      "stateMutability": "nonpayable",
      "type": "function"
    },
    {
      "inputs": [
        {
          "internalType": "bytes32",
          "name": "polyhash",
          "type": "bytes32"
        },
        {
          "internalType": "uint8",
          "name": "rule",
          "type": "uint8"
        }
      ],
      "name": "unhook",
      "outputs": [],
      "stateMutability": "nonpayable",
      "type": "function"
    },
    {
      "inputs": [
        {
          "internalType": "bytes32",
          "name": "polyhash",
          "type": "bytes32"
        }
      ],
      "name": "unhookAll",
      "outputs": [],
      "stateMutability": "nonpayable",
      "type": "function"
    },
    {
      "inputs": [],
      "name": "withdrawEther",
      "outputs": [],
      "stateMutability": "nonpayable",
      "type": "function"
    }
  ],
  "bytecode": {
    "object": "0x60806040526002805460ff60a01b1916600160a01b1790556703782dace9d900006006553480156200003057600080fd5b506040516200629f3803806200629f8339810160408190526200005391620007b1565b60028054336001600160a01b0319918216179091556000805482166001600160a01b03848116918217909255600180549093169185169190911790915560408051633215476b60e11b8152905163642a8ed6916004808201926080929091908290030181865afa158015620000cc573d6000803e3d6000fd5b505050506040513d601f19601f82011682018060405250810190620000f2919062000820565b606001516003556000546040805163bd9a548b60e01b815290516001600160a01b039092169163bd9a548b916004808201926080929091908290030181865afa15801562000144573d6000803e3d6000fd5b505050506040513d601f19601f820116820180604052508101906200016a919062000820565b606001516004556200017b62000183565b5050620008c5565b7fb4b4801cca1cad359bff6b5ea99d95160f00cbe1164fb7231c42c3e8b5f2593b80546001600160a01b0319169055604080516020818101909252600080825280526007909152620001f9907f6d5257204ebe7d88fd91ae87941cb2dd9d8062b64ae5a2bd2d28ec40b9fbf6df90600162000692565b5060007f6d5257204ebe7d88fd91ae87941cb2dd9d8062b64ae5a2bd2d28ec40b9fbf6e18190556040805160208181019092528281529180526007905262000265907f6d5257204ebe7d88fd91ae87941cb2dd9d8062b64ae5a2bd2d28ec40b9fbf6e29060016200073f565b50600080805260076020527f6d5257204ebe7d88fd91ae87941cb2dd9d8062b64ae5a2bd2d28ec40b9fbf6e38190557f6d5257204ebe7d88fd91ae87941cb2dd9d8062b64ae5a2bd2d28ec40b9fbf6e580546006547f6d5257204ebe7d88fd91ae87941cb2dd9d8062b64ae5a2bd2d28ec40b9fbf6e6556001600160a81b03191633908117600160a01b179091557f6d5257204ebe7d88fd91ae87941cb2dd9d8062b64ae5a2bd2d28ec40b9fbf6e480546001600160a01b0319169091179055805460408051633215476b60e11b815290516001600160a01b03929092169163642a8ed6916004818101926080929091908290030181865afa15801562000370573d6000803e3d6000fd5b505050506040513d601f19601f8201168201806040525081019062000396919062000820565b905060005b60048110156200068e57600060076000848460048110620003c057620003c062000887565b6020908102919091015182528181019290925260409081016000908120818052600101835281812080546001600160a01b0319166001600160a01b03959095169490941790935580519182019052818152906007908484600481106200042a576200042a62000887565b602002015181526020019081526020016000206000019060016200045092919062000692565b5081816004811062000466576200046662000887565b60200201516007600084846004811062000484576200048462000887565b60200201518152602001908152602001600020600201819055506040518060200160405280838360048110620004be57620004be62000887565b6020020151905260076000848460048110620004de57620004de62000887565b60200201518152602001908152602001600020600301906001620005049291906200073f565b508181600481106200051a576200051a62000887565b60200201516007600084846004811062000538576200053862000887565b60200201518152602001908152602001600020600401819055506001600760008484600481106200056d576200056d62000887565b6020020151815260200190815260200160002060060160146101000a81548160ff02191690831515021790555060065460076000848460048110620005b657620005b662000887565b60200201518152602001908152602001600020600701819055503360076000848460048110620005ea57620005ea62000887565b6020020151815260200190815260200160002060060160006101000a8154816001600160a01b0302191690836001600160a01b0316021790555033600760008484600481106200063e576200063e62000887565b6020020151815260200190815260200160002060050160006101000a8154816001600160a01b0302191690836001600160a01b03160217905550808062000685906200089d565b9150506200039b565b5050565b82805482825590600052602060002090601f016020900481019282156200072d5791602002820160005b83821115620006fc57835183826101000a81548160ff021916908360ff1602179055509260200192600101602081600001049283019260010302620006bc565b80156200072b5782816101000a81549060ff0219169055600101602081600001049283019260010302620006fc565b505b506200073b9291506200077d565b5090565b8280548282559060005260206000209081019282156200072d579160200282015b828111156200072d57825182559160200191906001019062000760565b5b808211156200073b57600081556001016200077e565b80516001600160a01b0381168114620007ac57600080fd5b919050565b60008060408385031215620007c557600080fd5b620007d08362000794565b9150620007e06020840162000794565b90509250929050565b604051608081016001600160401b03811182821017156200081a57634e487b7160e01b600052604160045260246000fd5b60405290565b6000608082840312156200083357600080fd5b82601f8301126200084357600080fd5b6200084d620007e9565b8060808401858111156200086057600080fd5b845b818110156200087c57805184526020938401930162000862565b509095945050505050565b634e487b7160e01b600052603260045260246000fd5b600060018201620008be57634e487b7160e01b600052601160045260246000fd5b5060010190565b6159ca80620008d56000396000f3fe6080604052600436106102dc5760003560e01c80638146970a11610184578063c7876ea4116100d6578063dbd4e0211161008a578063f61ccd5311610064578063f61ccd53146108bb578063f79fe538146108db578063f8c912441461090e57600080fd5b8063dbd4e02114610868578063e73f806014610888578063f544d82f146108a857600080fd5b8063d2ec5fca116100bb578063d2ec5fca146107f7578063d315690514610828578063d9b76ed41461084857600080fd5b8063c7876ea4146107c1578063d07699aa146107d757600080fd5b8063a22cb46511610138578063b782426e11610112578063b782426e14610761578063b9f37c8614610781578063c5bc4c0b146107a157600080fd5b8063a22cb46514610701578063b069862814610721578063b612e9b91461074157600080fd5b806388a8c95c1161016957806388a8c95c146106a15780638dcad139146106c15780639f09d9f3146106e157600080fd5b80638146970a14610661578063836697261461068157600080fd5b8063250548b91161023d5780634475bf4b116101f15780635b55b376116101cb5780635b55b376146105775780637362377b1461059757806375c4f68e146105ac57600080fd5b80634475bf4b146105175780634d50558414610537578063516aeda01461055757600080fd5b80632f926732116102225780632f926732146104b757806334026859146104d757806339de6469146104f757600080fd5b8063250548b914610481578063251c9422146104a157600080fd5b80630e68b116116102945780631f06e91c116102795780631f06e91c1461041d57806321ec2b5b1461043d57806322b68deb1461045d57600080fd5b80630e68b116146103ce5780631896f70a146103fb57600080fd5b806302fb0c5e116102c557806302fb0c5e1461033e57806305e84aa0146103805780630aac6625146103a057600080fd5b80630178b8bf146102e157806301e51ae81461031e575b600080fd5b3480156102ed57600080fd5b506103016102fc366004614aa4565b61092e565b6040516001600160a01b0390911681526020015b60405180910390f35b34801561032a57600080fd5b50600254610301906001600160a01b031681565b34801561034a57600080fd5b506002546103709074010000000000000000000000000000000000000000900460ff1681565b6040519015158152602001610315565b34801561038c57600080fd5b50600154610301906001600160a01b031681565b3480156103ac57600080fd5b506103c06103bb366004614aa4565b6109ac565b604051610315929190614abd565b3480156103da57600080fd5b506103ee6103e9366004614aa4565b610b70565b6040516103159190614b44565b34801561040757600080fd5b5061041b610416366004614b9d565b610c32565b005b34801561042957600080fd5b5061041b610438366004614bcd565b610e9b565b34801561044957600080fd5b5061041b610458366004614aa4565b610fe1565b34801561046957600080fd5b5061047360065481565b604051908152602001610315565b34801561048d57600080fd5b5061041b61049c366004614d74565b611329565b3480156104ad57600080fd5b5061047360035481565b3480156104c357600080fd5b5061041b6104d2366004614bcd565b6117ec565b3480156104e357600080fd5b506103706104f2366004614aa4565b611a24565b34801561050357600080fd5b5061041b610512366004614bcd565b611aab565b34801561052357600080fd5b5061041b610532366004614e66565b611c46565b34801561054357600080fd5b50610370610552366004614eae565b611f45565b34801561056357600080fd5b5061041b610572366004614bcd565b611ff1565b34801561058357600080fd5b5061041b610592366004614eda565b6124e4565b3480156105a357600080fd5b5061041b612955565b3480156105b857600080fd5b506106256105c7366004614aa4565b600760208190526000918252604090912060028101546004820154600583015460068401549390940154919390926001600160a01b0391821692918116917401000000000000000000000000000000000000000090910460ff169086565b6040805196875260208701959095526001600160a01b0393841694860194909452911660608401521515608083015260a082015260c001610315565b34801561066d57600080fd5b5061041b61067c366004614bcd565b6129fb565b34801561068d57600080fd5b5061041b61069c366004614f0f565b612c65565b3480156106ad57600080fd5b5061041b6106bc366004614f4d565b612eef565b3480156106cd57600080fd5b5061041b6106dc366004614bcd565b612fbf565b3480156106ed57600080fd5b506103706106fc366004614f71565b613463565b34801561070d57600080fd5b5061041b61071c366004614fe3565b61347e565b34801561072d57600080fd5b5061037061073c366004614b9d565b613508565b34801561074d57600080fd5b5061041b61075c366004614eae565b6135ac565b34801561076d57600080fd5b50600054610301906001600160a01b031681565b34801561078d57600080fd5b50600554610301906001600160a01b031681565b3480156107ad57600080fd5b506104736107bc366004614aa4565b613a04565b3480156107cd57600080fd5b5061047360045481565b3480156107e357600080fd5b5061041b6107f2366004615011565b613a70565b34801561080357600080fd5b50610473610812366004614aa4565b6000908152600760208190526040909120015490565b34801561083457600080fd5b5061041b610843366004614b9d565b613ceb565b34801561085457600080fd5b5061041b610863366004614b9d565b613f49565b34801561087457600080fd5b50610301610883366004614aa4565b6141a7565b34801561089457600080fd5b5061041b6108a3366004614e66565b61421c565b61041b6108b6366004614bcd565b61459f565b3480156108c757600080fd5b506104736108d6366004614aa4565b6148ed565b3480156108e757600080fd5b506103706108f6366004614aa4565b60009081526007602081905260409091200154421090565b34801561091a57600080fd5b50610370610929366004614bcd565b6149e8565b600081815260076020819052604082200154829042106109885760405162461bcd60e51b815260206004820152601060248201526f1413d31650d5531157d156141254915160821b60448201526064015b60405180910390fd5b6000838152600760205260409020600501546001600160a01b031691505b50919050565b6060808260076000828152602001908152602001600020600701544210610a085760405162461bcd60e51b815260206004820152601060248201526f1413d31650d5531157d156141254915160821b604482015260640161097f565b60008481526007602090815260409182902080548351818402810184019094528084529091830182828015610a7a57602002820191906000526020600020906000905b825461010083900a900460ff16815260206001928301818104948501949093039092029101808411610a4b5790505b50505050509250825167ffffffffffffffff811115610a9b57610a9b614bef565b604051908082528060200260200182016040528015610ac4578160200160208202803683370190505b50915060005b8351811015610b6957600760008681526020019081526020016000206001016000858381518110610afd57610afd615036565b602002602001015160ff1660ff16815260200190815260200160002060009054906101000a90046001600160a01b0316838281518110610b3f57610b3f615036565b6001600160a01b039092166020928302919091019091015280610b6181615094565b915050610aca565b5050915091565b60608160076000828152602001908152602001600020600701544210610bcb5760405162461bcd60e51b815260206004820152601060248201526f1413d31650d5531157d156141254915160821b604482015260640161097f565b600083815260076020908152604080832060030180548251818502810185019093528083529192909190830182828015610c2457602002820191906000526020600020905b815481526020019060010190808311610c10575b509398975050505050505050565b600054604080517f4d3f7334000000000000000000000000000000000000000000000000000000008152905184926001600160a01b031691634d3f73349160048083019260809291908290030181865afa158015610c94573d6000803e3d6000fd5b505050506040513d601f19601f82011682018060405250810190610cb891906150cc565b60600151600580546001600160a01b0392831673ffffffffffffffffffffffffffffffffffffffff199091161790556000828152600760205260408082206002015460015491516302571be360e01b815260048101829052909391909116906302571be390602401602060405180830381865afa158015610d3d573d6000803e3d6000fd5b505050506040513d601f19601f82011682018060405250810190610d619190615153565b6005549091506001600160a01b0316331480610d8557506001600160a01b03811633145b80610db357506001600160a01b038116600090815260086020908152604080832033845290915290205460ff165b80610dd757506000838152600760205260409020600601546001600160a01b031633145b610e235760405162461bcd60e51b815260206004820152600e60248201527f4e4f545f415554484f5249534544000000000000000000000000000000000000604482015260640161097f565b600085815260076020908152604091829020600501805473ffffffffffffffffffffffffffffffffffffffff19166001600160a01b038816908117909155915191825286917f335721b01866dc23fbee8b6b2c7b1e14d6f05c28cd35a2c934239f94095602a091015b60405180910390a25050505050565b60008054906101000a90046001600160a01b03166001600160a01b0316634d3f73346040518163ffffffff1660e01b8152600401608060405180830381865afa158015610eec573d6000803e3d6000fd5b505050506040513d601f19601f82011682018060405250810190610f1091906150cc565b606001516005805473ffffffffffffffffffffffffffffffffffffffff19166001600160a01b0390921691821790553314610f8d5760405162461bcd60e51b815260206004820152600d60248201527f4e4f545f52454749535452415200000000000000000000000000000000000000604482015260640161097f565b600082815260076020526040908190206004018290555182907f4247841fd58468a6fb10925898bdd83c426da7b5519ee71597106dfdc675122990610fd59084815260200190565b60405180910390a25050565b60008181526007602081905260409091200154819042106110375760405162461bcd60e51b815260206004820152601060248201526f1413d31650d5531157d156141254915160821b604482015260640161097f565b6000818152600760205260408082206002015460015491516302571be360e01b8152600481018290529092916001600160a01b0316906302571be390602401602060405180830381865afa158015611093573d6000803e3d6000fd5b505050506040513d601f19601f820116820180604052508101906110b79190615153565b90506001600160a01b0381163314806110f357506001600160a01b038116600090815260086020908152604080832033845290915290205460ff165b8061111757506000838152600760205260409020600601546001600160a01b031633145b6111635760405162461bcd60e51b815260206004820152601760248201527f4e4f545f4f574e45525f4f525f434f4e54524f4c4c4552000000000000000000604482015260640161097f565b6000848152600760209081526040808320805482518185028101850190935280835291929091908301828280156111d757602002820191906000526020600020906000905b825461010083900a900460ff168152602060019283018181049485019490930390920291018084116111a85790505b5050505050905060005b81518110156112c257600060076000888152602001908152602001600020600101600084848151811061121657611216615036565b602002602001015160ff1660ff16815260200190815260200160002060006101000a8154816001600160a01b0302191690836001600160a01b03160217905550857ff975f0cee916e0c09312f138a17c70e178a4c2186f302a6f085a6d5273cd105183838151811061128a5761128a615036565b60200260200101516040516112a8919060ff91909116815260200190565b60405180910390a2806112ba81615094565b9150506111e1565b5060008581526007602052604081206112da91614a4c565b60008581526007602052604081206112f791600390910190614a71565b60405185907f6b91085369552b61ca16180a741663b69fb6b3b967f7271116521d84e2291dc590600090a25050505050565b600054604080517f4d3f7334000000000000000000000000000000000000000000000000000000008152905186926001600160a01b031691634d3f73349160048083019260809291908290030181865afa15801561138b573d6000803e3d6000fd5b505050506040513d601f19601f820116820180604052508101906113af91906150cc565b60600151600580546001600160a01b0392831673ffffffffffffffffffffffffffffffffffffffff199091161790556000828152600760205260408082206002015460015491516302571be360e01b815260048101829052909391909116906302571be390602401602060405180830381865afa158015611434573d6000803e3d6000fd5b505050506040513d601f19601f820116820180604052508101906114589190615153565b6005549091506001600160a01b031633148061147c57506001600160a01b03811633145b806114aa57506001600160a01b038116600090815260086020908152604080832033845290915290205460ff165b806114ce57506000838152600760205260409020600601546001600160a01b031633145b61151a5760405162461bcd60e51b815260206004820152600e60248201527f4e4f545f415554484f5249534544000000000000000000000000000000000000604482015260640161097f565b6115248685613463565b6115705760405162461bcd60e51b815260206004820152600760248201527f4241445f4d415000000000000000000000000000000000000000000000000000604482015260640161097f565b60005b86518110156117aa5786818151811061158e5761158e615036565b602002602001015173__$47e4ffaaf323c41735ff299f8946896ce0$__636fd8c6859091600760008c81526020019081526020016000206003016040518363ffffffff1660e01b81526004016115e5929190615170565b602060405180830381865af4158015611602573d6000803e3d6000fd5b505050506040513d601f19601f8201168201806040525081019061162691906151b6565b611798576007600089815260200190815260200160002060030187828151811061165257611652615036565b6020908102919091018101518254600181018455600093845282842001558982526007905260409020855186908390811061168f5761168f615036565b6020908102919091018101518254600181018455600093845292829020918304909101805460ff928316601f9094166101000a938402929093021990921617905585518690829081106116e4576116e4615036565b6020026020010151600760008a8152602001908152602001600020600101600087848151811061171657611716615036565b60209081029190910181015160ff1682528181019290925260409081016000908120805473ffffffffffffffffffffffffffffffffffffffff19166001600160a01b0395909516949094179093558a83526007909152902060060180547fffffffffffffffffffffff00ffffffffffffffffffffffffffffffffffffffff1690555b806117a281615094565b915050611573565b50867f580d99949e5d5a02f35dc5b91b800697d53dccb814e200f24f97b4bfbeb8667c876040516117db9190614b44565b60405180910390a250505050505050565b60008054906101000a90046001600160a01b03166001600160a01b0316634d3f73346040518163ffffffff1660e01b8152600401608060405180830381865afa15801561183d573d6000803e3d6000fd5b505050506040513d601f19601f8201168201806040525081019061186191906150cc565b606001516005805473ffffffffffffffffffffffffffffffffffffffff19166001600160a01b03909216918217905533146118de5760405162461bcd60e51b815260206004820152600d60248201527f4e4f545f52454749535452415200000000000000000000000000000000000000604482015260640161097f565b6001546040516302571be360e01b8152600481018390526000916001600160a01b0316906302571be390602401602060405180830381865afa158015611928573d6000803e3d6000fd5b505050506040513d601f19601f8201168201806040525081019061194c9190615153565b6001600160a01b0316036119a25760405162461bcd60e51b815260206004820152600b60248201527f43414e4e4f545f4255524e000000000000000000000000000000000000000000604482015260640161097f565b600082815260076020526040908190206002018290555182907f4810581adf2c16a86a375dbb1ed89b0b0f7e64d48d24e1948b3dfe6581e4d795906119ea9084815260200190565b60405180910390a2817facb5de0f65735f798ae8baf163fb3380a7813aca2c739ba9e39179007206585a82604051610fd591815260200190565b60008181526007602081905260408220015482904210611a795760405162461bcd60e51b815260206004820152601060248201526f1413d31650d5531157d156141254915160821b604482015260640161097f565b505060009081526007602052604090206006015474010000000000000000000000000000000000000000900460ff1690565b60008054906101000a90046001600160a01b03166001600160a01b0316634d3f73346040518163ffffffff1660e01b8152600401608060405180830381865afa158015611afc573d6000803e3d6000fd5b505050506040513d601f19601f82011682018060405250810190611b2091906150cc565b606001516005805473ffffffffffffffffffffffffffffffffffffffff19166001600160a01b0390921691821790553314611b9d5760405162461bcd60e51b815260206004820152600d60248201527f4e4f545f52454749535452415200000000000000000000000000000000000000604482015260640161097f565b600082815260076020819052604090912001548111611bfe5760405162461bcd60e51b815260206004820152600a60248201527f4241445f45585049525900000000000000000000000000000000000000000000604482015260640161097f565b600082815260076020819052604091829020018290555182907fa620b72378ee464490805a96e25b53e5c0076f0ce2d28f9691ae255a595b3bf390610fd59084815260200190565b6000838152600760208190526040909120015483904210611c9c5760405162461bcd60e51b815260206004820152601060248201526f1413d31650d5531157d156141254915160821b604482015260640161097f565b6000818152600760205260408082206002015460015491516302571be360e01b8152600481018290529092916001600160a01b0316906302571be390602401602060405180830381865afa158015611cf8573d6000803e3d6000fd5b505050506040513d601f19601f82011682018060405250810190611d1c9190615153565b90506001600160a01b038116331480611d5857506001600160a01b038116600090815260086020908152604080832033845290915290205460ff165b80611d7c57506000838152600760205260409020600601546001600160a01b031633145b611dc85760405162461bcd60e51b815260206004820152601760248201527f4e4f545f4f574e45525f4f525f434f4e54524f4c4c4552000000000000000000604482015260640161097f565b611dd286886149e8565b611e1e5760405162461bcd60e51b815260206004820152600c60248201527f414e494f4e5f4558495354530000000000000000000000000000000000000000604482015260640161097f565b611e288685611f45565b611e745760405162461bcd60e51b815260206004820152600b60248201527f484f4f4b5f455849535453000000000000000000000000000000000000000000604482015260640161097f565b600086815260076020818152604080842080546001818101835582875284872085830401805460ff808e16601f9095166101000a858102910219909116179055908652808201845282862080546001600160a01b038d1673ffffffffffffffffffffffffffffffffffffffff199091161790559383526003018054938401815584529220018890555186907fc733a2bc621cc97eef6ed4f708f126e72e6acb76c0a1c0461c9dd31f7b987065906117db90889088906001600160a01b0392909216825260ff16602082015260400190565b60008281526007602052604080822090517f26c6421b00000000000000000000000000000000000000000000000000000000815273__$47e4ffaaf323c41735ff299f8946896ce0$__916326c6421b91611fa69160ff8716916004016151d3565b602060405180830381865af4158015611fc3573d6000803e3d6000fd5b505050506040513d601f19601f82011682018060405250810190611fe791906151b6565b1590505b92915050565b60008281526007602081905260409091200154829042106120475760405162461bcd60e51b815260206004820152601060248201526f1413d31650d5531157d156141254915160821b604482015260640161097f565b6000818152600760205260408082206002015460015491516302571be360e01b8152600481018290529092916001600160a01b0316906302571be390602401602060405180830381865afa1580156120a3573d6000803e3d6000fd5b505050506040513d601f19601f820116820180604052508101906120c79190615153565b90506001600160a01b03811633148061210357506001600160a01b038116600090815260086020908152604080832033845290915290205460ff165b8061212757506000838152600760205260409020600601546001600160a01b031633145b6121735760405162461bcd60e51b815260206004820152601760248201527f4e4f545f4f574e45525f4f525f434f4e54524f4c4c4552000000000000000000604482015260640161097f565b6000858152600760209081526040808320805482518185028101850190935280835291929091908301828280156121e757602002820191906000526020600020906000905b825461010083900a900460ff168152602060019283018181049485019490930390920291018084116121b85790505b5050505050905060006007600088815260200190815260200160002060030180548060200260200160405190810160405280929190818152602001828054801561225057602002820191906000526020600020905b81548152602001906001019080831161223c575b50506040517f6fd8c68500000000000000000000000000000000000000000000000000000000815293945073__$47e4ffaaf323c41735ff299f8946896ce0$__93636fd8c68593506122aa92508a915085906004016158a3565b602060405180830381865af41580156122c7573d6000803e3d6000fd5b505050506040513d601f19601f820116820180604052508101906122eb91906151b6565b156124a8576040517fda92b9ed00000000000000000000000000000000000000000000000000000000815260009073__$47e4ffaaf323c41735ff299f8946896ce0$__9063da92b9ed90612345908a9086906004016158a3565b602060405180830381865af4158015612362573d6000803e3d6000fd5b505050506040513d601f19601f8201168201806040525081019061238691906158e4565b90506000600760008a815260200190815260200160002060010160008584815181106123b4576123b4615036565b602002602001015160ff1660ff16815260200190815260200160002060006101000a8154816001600160a01b0302191690836001600160a01b03160217905550877ff13ce89e57ea348ff8e29c4131c87b4d1b50ecf4edb1c68288b5e0cd3985b3f98860405161242691815260200190565b60405180910390a2600088815260076020526040902080548290811061244e5761244e615036565b90600052602060002090602091828204019190066101000a81549060ff021916905560076000898152602001908152602001600020600301818154811061249757612497615036565b6000918252602082200155506124db565b6040516000815287907ff13ce89e57ea348ff8e29c4131c87b4d1b50ecf4edb1c68288b5e0cd3985b3f9906020016117db565b50505050505050565b600083815260076020819052604090912001548390421061253a5760405162461bcd60e51b815260206004820152601060248201526f1413d31650d5531157d156141254915160821b604482015260640161097f565b6000818152600760205260408082206002015460015491516302571be360e01b8152600481018290529092916001600160a01b0316906302571be390602401602060405180830381865afa158015612596573d6000803e3d6000fd5b505050506040513d601f19601f820116820180604052508101906125ba9190615153565b90506001600160a01b0381163314806125f657506001600160a01b038116600090815260086020908152604080832033845290915290205460ff165b8061261a57506000838152600760205260409020600601546001600160a01b031633145b6126665760405162461bcd60e51b815260206004820152601760248201527f4e4f545f4f574e45525f4f525f434f4e54524f4c4c4552000000000000000000604482015260640161097f565b6000868152600760209081526040808320600301805482518185028101850190935280835291929091908301828280156126bf57602002820191906000526020600020905b8154815260200190600101908083116126ab575b50506040517f6fd8c68500000000000000000000000000000000000000000000000000000000815293945073__$47e4ffaaf323c41735ff299f8946896ce0$__93636fd8c6859350612719925089915085906004016158a3565b602060405180830381865af4158015612736573d6000803e3d6000fd5b505050506040513d601f19601f8201168201806040525081019061275a91906151b6565b15612923576040517fda92b9ed00000000000000000000000000000000000000000000000000000000815260009073__$47e4ffaaf323c41735ff299f8946896ce0$__9063da92b9ed906127b490899086906004016158a3565b602060405180830381865af41580156127d1573d6000803e3d6000fd5b505050506040513d601f19601f820116820180604052508101906127f591906158e4565b6000898152600760205260409020805491925060ff8916918390811061281d5761281d615036565b60009182526020918290209181049091015460ff601f9092166101000a9004160361288a5760405162461bcd60e51b815260206004820152600b60248201527f52554c455f455849535453000000000000000000000000000000000000000000604482015260640161097f565b60008881526007602052604090208054889190839081106128ad576128ad615036565b90600052602060002090602091828204019190066101000a81548160ff021916908360ff160217905550877f12bf96b3da46c044c59d8b13a96d1a5f53adf413cbe17f743ac2ed2c285257de878960405161291592919091825260ff16602082015260400190565b60405180910390a2506124db565b6040517f62316f6700000000000000000000000000000000000000000000000000000000815260040160405180910390fd5b6002546040516000916001600160a01b03169047908381818185875af1925050503d80600081146129a2576040519150601f19603f3d011682016040523d82523d6000602084013e6129a7565b606091505b50509050806129f85760405162461bcd60e51b815260206004820152601360248201527f4554485f5452414e534645525f4641494c454400000000000000000000000000604482015260640161097f565b50565b6000828152600760208190526040909120015482904210612a515760405162461bcd60e51b815260206004820152601060248201526f1413d31650d5531157d156141254915160821b604482015260640161097f565b6000818152600760205260408082206002015460015491516302571be360e01b8152600481018290529092916001600160a01b0316906302571be390602401602060405180830381865afa158015612aad573d6000803e3d6000fd5b505050506040513d601f19601f82011682018060405250810190612ad19190615153565b90506001600160a01b038116331480612b0d57506001600160a01b038116600090815260086020908152604080832033845290915290205460ff165b612b595760405162461bcd60e51b815260206004820152600960248201527f4e4f545f4f574e45520000000000000000000000000000000000000000000000604482015260640161097f565b6001546040516302571be360e01b8152600481018690526000916001600160a01b0316906302571be390602401602060405180830381865afa158015612ba3573d6000803e3d6000fd5b505050506040513d601f19601f82011682018060405250810190612bc79190615153565b6001600160a01b031603612c1d5760405162461bcd60e51b815260206004820152600b60248201527f43414e4e4f545f4255524e000000000000000000000000000000000000000000604482015260640161097f565b600085815260076020526040908190206002018590555185907f4810581adf2c16a86a375dbb1ed89b0b0f7e64d48d24e1948b3dfe6581e4d79590610e8c9087815260200190565b6000838152600760208190526040909120015483904210612cbb5760405162461bcd60e51b815260206004820152601060248201526f1413d31650d5531157d156141254915160821b604482015260640161097f565b6000818152600760205260408082206002015460015491516302571be360e01b8152600481018290529092916001600160a01b0316906302571be390602401602060405180830381865afa158015612d17573d6000803e3d6000fd5b505050506040513d601f19601f82011682018060405250810190612d3b9190615153565b90506001600160a01b038116331480612d7757506001600160a01b038116600090815260086020908152604080832033845290915290205460ff165b80612d9b57506000838152600760205260409020600601546001600160a01b031633145b612de75760405162461bcd60e51b815260206004820152601760248201527f4e4f545f4f574e45525f4f525f434f4e54524f4c4c4552000000000000000000604482015260640161097f565b600086815260076020908152604080832060ff881684526001019091529020546001600160a01b03808716911603612e615760405162461bcd60e51b815260206004820152600b60248201527f52554c455f455849535453000000000000000000000000000000000000000000604482015260640161097f565b600086815260076020908152604080832060ff88168085526001909101835292819020805473ffffffffffffffffffffffffffffffffffffffff19166001600160a01b038a1690811790915581519081529182019290925287917f1abc00531586337cfd45709506ca0d48a44e1eb54325e589ec054ce83373e07a91015b60405180910390a2505050505050565b6002546001600160a01b03163314612f495760405162461bcd60e51b815260206004820152600760248201527f4e4f545f44455600000000000000000000000000000000000000000000000000604482015260640161097f565b600254604080516001600160a01b03928316815291831660208301527fdec101f106d4fc7c85791843e64b198248c822298e3ed7046231d33f7783d816910160405180910390a16002805473ffffffffffffffffffffffffffffffffffffffff19166001600160a01b0392909216919091179055565b60008281526007602081905260409091200154829042106130155760405162461bcd60e51b815260206004820152601060248201526f1413d31650d5531157d156141254915160821b604482015260640161097f565b6000818152600760205260408082206002015460015491516302571be360e01b8152600481018290529092916001600160a01b0316906302571be390602401602060405180830381865afa158015613071573d6000803e3d6000fd5b505050506040513d601f19601f820116820180604052508101906130959190615153565b90506001600160a01b0381163314806130d157506001600160a01b038116600090815260086020908152604080832033845290915290205460ff165b806130f557506000838152600760205260409020600601546001600160a01b031633145b6131415760405162461bcd60e51b815260206004820152601760248201527f4e4f545f4f574e45525f4f525f434f4e54524f4c4c4552000000000000000000604482015260640161097f565b60008581526007602090815260408083206003018054825181850281018501909352808352919290919083018282801561319a57602002820191906000526020600020905b815481526020019060010190808311613186575b50505060008981526007602090815260408083208054825181850281018501909352808352969750929590945091925083018282801561321757602002820191906000526020600020906000905b825461010083900a900460ff168152602060019283018181049485019490930390920291018084116131e85790505b50506040517f6fd8c68500000000000000000000000000000000000000000000000000000000815293945073__$47e4ffaaf323c41735ff299f8946896ce0$__93636fd8c685935061327192508a915086906004016158a3565b602060405180830381865af415801561328e573d6000803e3d6000fd5b505050506040513d601f19601f820116820180604052508101906132b291906151b6565b15612923576040517fda92b9ed00000000000000000000000000000000000000000000000000000000815260009073__$47e4ffaaf323c41735ff299f8946896ce0$__9063da92b9ed9061330c908a9087906004016158a3565b602060405180830381865af4158015613329573d6000803e3d6000fd5b505050506040513d601f19601f8201168201806040525081019061334d91906158e4565b90506000600760008a8152602001908152602001600020600101600084848151811061337b5761337b615036565b602002602001015160ff1660ff16815260200190815260200160002060006101000a8154816001600160a01b0302191690836001600160a01b031602179055506007600089815260200190815260200160002060030181815481106133e2576133e2615036565b60009182526020808320909101829055898252600790526040902080548290811061340f5761340f615036565b90600052602060002090602091828204019190066101000a81549060ff0219169055877f5c379d054844760656a56e062f50208b458cfa0c4427574f5a2828d19602b4e98860405161291591815260200190565b6000815183510361347657506001611feb565b506000611feb565b3360008181526008602090815260408083206001600160a01b0387168085529083529281902080547fffffffffffffffffffffffffffffffffffffffffffffffffffffffffffffff001686151590811790915590519081529192917f17307eab39ab6107e8899845ad3d59bd9653f200f220920489ca2b5937696c31910160405180910390a35050565b6001546040516302571be360e01b81526004810184905260009182916001600160a01b03909116906302571be390602401602060405180830381865afa158015613556573d6000803e3d6000fd5b505050506040513d601f19601f8201168201806040525081019061357a9190615153565b6001600160a01b0390811660009081526008602090815260408083209387168352929052205460ff1691505092915050565b60008281526007602081905260409091200154829042106136025760405162461bcd60e51b815260206004820152601060248201526f1413d31650d5531157d156141254915160821b604482015260640161097f565b6000818152600760205260408082206002015460015491516302571be360e01b8152600481018290529092916001600160a01b0316906302571be390602401602060405180830381865afa15801561365e573d6000803e3d6000fd5b505050506040513d601f19601f820116820180604052508101906136829190615153565b90506001600160a01b0381163314806136be57506001600160a01b038116600090815260086020908152604080832033845290915290205460ff165b806136e257506000838152600760205260409020600601546001600160a01b031633145b61372e5760405162461bcd60e51b815260206004820152601760248201527f4e4f545f4f574e45525f4f525f434f4e54524f4c4c4552000000000000000000604482015260640161097f565b6000858152600760209081526040808320805482518185028101850190935280835291929091908301828280156137a257602002820191906000526020600020906000905b825461010083900a900460ff168152602060019283018181049485019490930390920291018084116137735790505b50506040517f26c6421b00000000000000000000000000000000000000000000000000000000815293945073__$47e4ffaaf323c41735ff299f8946896ce0$__936326c6421b93506137ff925060ff8a16915085906004016158fd565b602060405180830381865af415801561381c573d6000803e3d6000fd5b505050506040513d601f19601f8201168201806040525081019061384091906151b6565b156139ca576040517f8ab65ceb00000000000000000000000000000000000000000000000000000000815260009073__$47e4ffaaf323c41735ff299f8946896ce0$__90638ab65ceb9061389d9060ff8a169086906004016158fd565b602060405180830381865af41580156138ba573d6000803e3d6000fd5b505050506040513d601f19601f820116820180604052508101906138de91906158e4565b600088815260076020908152604080832060ff8b168085526001909101835292819020805473ffffffffffffffffffffffffffffffffffffffff191690555191825291925088917ff975f0cee916e0c09312f138a17c70e178a4c2186f302a6f085a6d5273cd1051910160405180910390a2600087815260076020526040902080548290811061397057613970615036565b90600052602060002090602091828204019190066101000a81549060ff02191690556007600088815260200190815260200160002060030181815481106139b9576139b9615036565b6000918252602082200155506139fc565b6040517fe8dd1d3e00000000000000000000000000000000000000000000000000000000815260040160405180910390fd5b505050505050565b60008181526007602081905260408220015482904210613a595760405162461bcd60e51b815260206004820152601060248201526f1413d31650d5531157d156141254915160821b604482015260640161097f565b505060009081526007602052604090206004015490565b600054604080517f4d3f7334000000000000000000000000000000000000000000000000000000008152905184926001600160a01b031691634d3f73349160048083019260809291908290030181865afa158015613ad2573d6000803e3d6000fd5b505050506040513d601f19601f82011682018060405250810190613af691906150cc565b60600151600580546001600160a01b0392831673ffffffffffffffffffffffffffffffffffffffff199091161790556000828152600760205260408082206002015460015491516302571be360e01b815260048101829052909391909116906302571be390602401602060405180830381865afa158015613b7b573d6000803e3d6000fd5b505050506040513d601f19601f82011682018060405250810190613b9f9190615153565b6005549091506001600160a01b0316331480613bc357506001600160a01b03811633145b80613bf157506001600160a01b038116600090815260086020908152604080832033845290915290205460ff165b80613c1557506000838152600760205260409020600601546001600160a01b031633145b613c615760405162461bcd60e51b815260206004820152600e60248201527f4e4f545f415554484f5249534544000000000000000000000000000000000000604482015260640161097f565b60008581526007602052604090819020600601805486151574010000000000000000000000000000000000000000027fffffffffffffffffffffff00ffffffffffffffffffffffffffffffffffffffff9091161790555185907fe6ccdb52b4954ab2c3e293f1dbfe593e6c5630962a1944bfcf20c5563eeb846290610e8c90871515815260200190565b600054604080517f4d3f7334000000000000000000000000000000000000000000000000000000008152905184926001600160a01b031691634d3f73349160048083019260809291908290030181865afa158015613d4d573d6000803e3d6000fd5b505050506040513d601f19601f82011682018060405250810190613d7191906150cc565b60600151600580546001600160a01b0392831673ffffffffffffffffffffffffffffffffffffffff199091161790556000828152600760205260408082206002015460015491516302571be360e01b815260048101829052909391909116906302571be390602401602060405180830381865afa158015613df6573d6000803e3d6000fd5b505050506040513d601f19601f82011682018060405250810190613e1a9190615153565b6005549091506001600160a01b0316331480613e3e57506001600160a01b03811633145b80613e6c57506001600160a01b038116600090815260086020908152604080832033845290915290205460ff165b80613e9057506000838152600760205260409020600601546001600160a01b031633145b613edc5760405162461bcd60e51b815260206004820152600e60248201527f4e4f545f415554484f5249534544000000000000000000000000000000000000604482015260640161097f565b600085815260076020908152604091829020600601805473ffffffffffffffffffffffffffffffffffffffff19166001600160a01b038816908117909155915191825286917fe5108446a6097aab57fd36f346a515a78fddefa87d81662d44e0d7a463f920959101610e8c565b600054604080517f4d3f7334000000000000000000000000000000000000000000000000000000008152905184926001600160a01b031691634d3f73349160048083019260809291908290030181865afa158015613fab573d6000803e3d6000fd5b505050506040513d601f19601f82011682018060405250810190613fcf91906150cc565b60600151600580546001600160a01b0392831673ffffffffffffffffffffffffffffffffffffffff199091161790556000828152600760205260408082206002015460015491516302571be360e01b815260048101829052909391909116906302571be390602401602060405180830381865afa158015614054573d6000803e3d6000fd5b505050506040513d601f19601f820116820180604052508101906140789190615153565b6005549091506001600160a01b031633148061409c57506001600160a01b03811633145b806140ca57506001600160a01b038116600090815260086020908152604080832033845290915290205460ff165b806140ee57506000838152600760205260409020600601546001600160a01b031633145b61413a5760405162461bcd60e51b815260206004820152600e60248201527f4e4f545f415554484f5249534544000000000000000000000000000000000000604482015260640161097f565b600085815260076020908152604091829020600501805473ffffffffffffffffffffffffffffffffffffffff19166001600160a01b038816908117909155915191825286917fcb71326aeaad88869e8be8be2893e1119f7617ce4ea2411af127e218909be1f79101610e8c565b600081815260076020819052604082200154829042106141fc5760405162461bcd60e51b815260206004820152601060248201526f1413d31650d5531157d156141254915160821b604482015260640161097f565b50506000908152600760205260409020600601546001600160a01b031690565b60008481526007602081905260409091200154849042106142725760405162461bcd60e51b815260206004820152601060248201526f1413d31650d5531157d156141254915160821b604482015260640161097f565b6000818152600760205260408082206002015460015491516302571be360e01b8152600481018290529092916001600160a01b0316906302571be390602401602060405180830381865afa1580156142ce573d6000803e3d6000fd5b505050506040513d601f19601f820116820180604052508101906142f29190615153565b90506001600160a01b03811633148061432e57506001600160a01b038116600090815260086020908152604080832033845290915290205460ff165b8061435257506000838152600760205260409020600601546001600160a01b031633145b61439e5760405162461bcd60e51b815260206004820152601760248201527f4e4f545f4f574e45525f4f525f434f4e54524f4c4c4552000000000000000000604482015260640161097f565b6143a887876149e8565b6143f45760405162461bcd60e51b815260206004820152600c60248201527f414e494f4e5f4558495354530000000000000000000000000000000000000000604482015260640161097f565b6143fe8785611f45565b61444a5760405162461bcd60e51b815260206004820152600b60248201527f484f4f4b5f455849535453000000000000000000000000000000000000000000604482015260640161097f565b600087815260076020908152604080832060ff881684526001019091529020546001600160a01b038087169116036144c45760405162461bcd60e51b815260206004820152600b60248201527f52554c455f455849535453000000000000000000000000000000000000000000604482015260640161097f565b600087815260076020908152604080832060038101805460018181018355918652848620018b90558154808201835582865284862085820401805460ff808d16601f9094166101000a8481029102199091161790559094529290920190525187907f600ffddd29393ca43c0a11fa6b0b7096631364178cb42f9d546c0a2cd22525ee906145549089815260200190565b60405180910390a2604080516001600160a01b038716815260ff8616602082015288917fc733a2bc621cc97eef6ed4f708f126e72e6acb76c0a1c0461c9dd31f7b98706591016117db565b60008281526007602081905260409091200154829042106145f55760405162461bcd60e51b815260206004820152601060248201526f1413d31650d5531157d156141254915160821b604482015260640161097f565b6000818152600760205260408082206002015460015491516302571be360e01b8152600481018290529092916001600160a01b0316906302571be390602401602060405180830381865afa158015614651573d6000803e3d6000fd5b505050506040513d601f19601f820116820180604052508101906146759190615153565b90506001600160a01b0381163314806146b157506001600160a01b038116600090815260086020908152604080832033845290915290205460ff165b806146d557506000838152600760205260409020600601546001600160a01b031633145b6147215760405162461bcd60e51b815260206004820152601760248201527f4e4f545f4f574e45525f4f525f434f4e54524f4c4c4552000000000000000000604482015260640161097f565b6000858152600760208190526040909120015484116147825760405162461bcd60e51b815260206004820152600a60248201527f4241445f45585049525900000000000000000000000000000000000000000000604482015260640161097f565b60008054906101000a90046001600160a01b03166001600160a01b0316634d3f73346040518163ffffffff1660e01b8152600401608060405180830381865afa1580156147d3573d6000803e3d6000fd5b505050506040513d601f19601f820116820180604052508101906147f791906150cc565b6020908101516005805473ffffffffffffffffffffffffffffffffffffffff19166001600160a01b03909216919091179055600086815260079182905260408120909101546148469086615944565b9050600454816148569190615957565b3410156148a55760405162461bcd60e51b815260206004820152601260248201527f494e53554646494349454e545f45544845520000000000000000000000000000604482015260640161097f565b600086815260076020819052604091829020018690555186907fa620b72378ee464490805a96e25b53e5c0076f0ce2d28f9691ae255a595b3bf390612edf9088815260200190565b600081815260076020819052604082200154829042106149425760405162461bcd60e51b815260206004820152601060248201526f1413d31650d5531157d156141254915160821b604482015260640161097f565b6000838152600760205260408082206002015460015491516302571be360e01b8152600481018290529092916001600160a01b0316906302571be390602401602060405180830381865afa15801561499e573d6000803e3d6000fd5b505050506040513d601f19601f820116820180604052508101906149c29190615153565b9050306001600160a01b038216036149e057600354935050506109a6565b509392505050565b60008281526007602052604080822090517f6fd8c68500000000000000000000000000000000000000000000000000000000815273__$47e4ffaaf323c41735ff299f8946896ce0$__91636fd8c68591611fa6918691600390910190600401615170565b50805460008255601f0160209004906000526020600020908101906129f89190614a8b565b50805460008255906000526020600020908101906129f891905b5b80821115614aa05760008155600101614a8c565b5090565b600060208284031215614ab657600080fd5b5035919050565b604080825283519082018190526000906020906060840190828701845b82811015614af957815160ff1684529284019290840190600101614ada565b5050508381038285015284518082528583019183019060005b81811015614b375783516001600160a01b031683529284019291840191600101614b12565b5090979650505050505050565b6020808252825182820181905260009190848201906040850190845b81811015614b7c57835183529284019291840191600101614b60565b50909695505050505050565b6001600160a01b03811681146129f857600080fd5b60008060408385031215614bb057600080fd5b823591506020830135614bc281614b88565b809150509250929050565b60008060408385031215614be057600080fd5b50508035926020909101359150565b7f4e487b7100000000000000000000000000000000000000000000000000000000600052604160045260246000fd5b604051601f82017fffffffffffffffffffffffffffffffffffffffffffffffffffffffffffffffe016810167ffffffffffffffff81118282101715614c6557614c65614bef565b604052919050565b600067ffffffffffffffff821115614c8757614c87614bef565b5060051b60200190565b600082601f830112614ca257600080fd5b81356020614cb7614cb283614c6d565b614c1e565b82815260059290921b84018101918181019086841115614cd657600080fd5b8286015b84811015614cf15780358352918301918301614cda565b509695505050505050565b803560ff81168114614d0d57600080fd5b919050565b600082601f830112614d2357600080fd5b81356020614d33614cb283614c6d565b82815260059290921b84018101918181019086841115614d5257600080fd5b8286015b84811015614cf157614d6781614cfc565b8352918301918301614d56565b60008060008060808587031215614d8a57600080fd5b8435935060208086013567ffffffffffffffff80821115614daa57600080fd5b614db689838a01614c91565b95506040880135915080821115614dcc57600080fd5b818801915088601f830112614de057600080fd5b8135614dee614cb282614c6d565b81815260059190911b8301840190848101908b831115614e0d57600080fd5b938501935b82851015614e34578435614e2581614b88565b82529385019390850190614e12565b965050506060880135925080831115614e4c57600080fd5b5050614e5a87828801614d12565b91505092959194509250565b60008060008060808587031215614e7c57600080fd5b84359350602085013592506040850135614e9581614b88565b9150614ea360608601614cfc565b905092959194509250565b60008060408385031215614ec157600080fd5b82359150614ed160208401614cfc565b90509250929050565b600080600060608486031215614eef57600080fd5b83359250614eff60208501614cfc565b9150604084013590509250925092565b600080600060608486031215614f2457600080fd5b833592506020840135614f3681614b88565b9150614f4460408501614cfc565b90509250925092565b600060208284031215614f5f57600080fd5b8135614f6a81614b88565b9392505050565b60008060408385031215614f8457600080fd5b823567ffffffffffffffff80821115614f9c57600080fd5b614fa886838701614c91565b93506020850135915080821115614fbe57600080fd5b50614fcb85828601614d12565b9150509250929050565b80151581146129f857600080fd5b60008060408385031215614ff657600080fd5b823561500181614b88565b91506020830135614bc281614fd5565b6000806040838503121561502457600080fd5b823591506020830135614bc281614fd5565b7f4e487b7100000000000000000000000000000000000000000000000000000000600052603260045260246000fd5b7f4e487b7100000000000000000000000000000000000000000000000000000000600052601160045260246000fd5b60007fffffffffffffffffffffffffffffffffffffffffffffffffffffffffffffffff82036150c5576150c5615065565b5060010190565b6000608082840312156150de57600080fd5b82601f8301126150ed57600080fd5b6040516080810181811067ffffffffffffffff8211171561511057615110614bef565b60405280608084018581111561512557600080fd5b845b8181101561514857805161513a81614b88565b835260209283019201615127565b509195945050505050565b60006020828403121561516557600080fd5b8151614f6a81614b88565b60006040820184835260206040818501528185548084526060860191508660005282600020935060005b81811015614b375784548352600194850194928401920161519a565b6000602082840312156151c857600080fd5b8151614f6a81614fd5565b60006040820160ff808616845260206040818601528286546151f9818690815260200190565b60008981526020812096509092505b81601f8201101561548f57855460ff868216168452615230858501878360081c1660ff169052565b61524460408501878360101c1660ff169052565b6060615259818601888460181c1660ff169052565b608061526d81870189858a1c1660ff169052565b60a06152828188018a8660281c1660ff169052565b60c06152978189018b8760301c1660ff169052565b60e06152ac818a018c8860381c1660ff169052565b6152c16101008a018c8860401c1660ff169052565b6152d66101208a018c8860481c1660ff169052565b6152eb6101408a018c8860501c1660ff169052565b6153006101608a018c8860581c1660ff169052565b60ff86861c8c16166101808a01526153236101a08a018c8860681c1660ff169052565b6153386101c08a018c8860701c1660ff169052565b61534d6101e08a018c8860781c1660ff169052565b60ff86851c8c16166102008a01526153706102208a018c8860881c1660ff169052565b6153856102408a018c8860901c1660ff169052565b61539a6102608a018c8860981c1660ff169052565b60ff86841c8c16166102808a01526153bd6102a08a018c8860a81c1660ff169052565b6153d26102c08a018c8860b01c1660ff169052565b6153e76102e08a018c8860b81c1660ff169052565b60ff86831c8c16166103008a015261540a6103208a018c8860c81c1660ff169052565b61541f6103408a018c8860d01c1660ff169052565b6154346103608a018c8860d81c1660ff169052565b60ff86821c8c16166103808a0152505050505061545c6103a08501878360e81c1660ff169052565b6154716103c08501878360f01c1660ff169052565b60f81c6103e084015260019590950194610400909201918301615208565b945494818110156154aa5760ff868616168352918301916001015b818110156154cb576154c383868860081c1660ff169052565b918301916001015b818110156154ec576154e483868860101c1660ff169052565b918301916001015b8181101561550d5761550583868860181c1660ff169052565b918301916001015b818110156155275760ff86851c8616168352918301916001015b818110156155485761554083868860281c1660ff169052565b918301916001015b818110156155695761556183868860301c1660ff169052565b918301916001015b8181101561558a5761558283868860381c1660ff169052565b918301916001015b818110156155ab576155a383868860401c1660ff169052565b918301916001015b818110156155cc576155c483868860481c1660ff169052565b918301916001015b818110156155ed576155e583868860501c1660ff169052565b918301916001015b8181101561560e5761560683868860581c1660ff169052565b918301916001015b8181101561562f5761562783868860601c1660ff169052565b918301916001015b818110156156505761564883868860681c1660ff169052565b918301916001015b818110156156715761566983868860701c1660ff169052565b918301916001015b818110156156925761568a83868860781c1660ff169052565b918301916001015b818110156156b3576156ab83868860801c1660ff169052565b918301916001015b818110156156d4576156cc83868860881c1660ff169052565b918301916001015b818110156156f5576156ed83868860901c1660ff169052565b918301916001015b818110156157165761570e83868860981c1660ff169052565b918301916001015b818110156157375761572f83868860a01c1660ff169052565b918301916001015b818110156157585761575083868860a81c1660ff169052565b918301916001015b818110156157795761577183868860b01c1660ff169052565b918301916001015b8181101561579a5761579283868860b81c1660ff169052565b918301916001015b818110156157bb576157b383868860c01c1660ff169052565b918301916001015b818110156157dc576157d483868860c81c1660ff169052565b918301916001015b818110156157fd576157f583868860d01c1660ff169052565b918301916001015b8181101561581e5761581683868860d81c1660ff169052565b918301916001015b8181101561583f5761583783868860e01c1660ff169052565b918301916001015b818110156158605761585883868860e81c1660ff169052565b918301916001015b818110156158815761587983868860f01c1660ff169052565b918301916001015b818110156158955760f886901c8352918301915b509098975050505050505050565b6000604082018483526020604081850152818551808452606086019150828701935060005b81811015614b37578451835293830193918301916001016158c8565b6000602082840312156158f657600080fd5b5051919050565b60006040820160ff80861684526020604081860152828651808552606087019150828801945060005b81811015615895578551851683529483019491830191600101615926565b81810381811115611feb57611feb615065565b6000817fffffffffffffffffffffffffffffffffffffffffffffffffffffffffffffffff048311821515161561598f5761598f615065565b50029056fea26469706673582212202f999b05ebfbeb9a86bc3aa97d6b46c16ace8555fdb395a58918adc9c4b05d6364736f6c63430008100033",
    "linkReferences": {
      "src/Utils/LibString.sol": {
        "LibString": [
          {
            "start": 7789,
            "length": 20
          },
          {
            "start": 10320,
            "length": 20
          },
          {
            "start": 11090,
            "length": 20
          },
          {
            "start": 11248,
            "length": 20
          },
          {
            "start": 12225,
            "length": 20
          },
          {
            "start": 12383,
            "length": 20
          },
          {
            "start": 15129,
            "length": 20
          },
          {
            "start": 15287,
            "length": 20
          },
          {
            "start": 16548,
            "length": 20
          },
          {
            "start": 16709,
            "length": 20
          },
          {
            "start": 21235,
            "length": 20
          }
        ]
      }
    }
  },
  "methodIdentifiers": {
    "Dev()": "01e51ae8",
    "HELIX2()": "b782426e",
    "NAMES()": "05e84aa0",
    "Polycules(bytes32)": "75c4f68e",
    "Registrar()": "b9f37c86",
    "active()": "02fb0c5e",
    "addAnion(bytes32,bytes32,address,uint8)": "e73f8060",
    "alias_(bytes32)": "c5bc4c0b",
    "anion(bytes32)": "0e68b116",
    "basePrice()": "c7876ea4",
    "cation(bytes32)": "f61ccd53",
    "changeDev(address)": "88a8c95c",
    "controller(bytes32)": "dbd4e021",
    "covalence(bytes32)": "34026859",
    "expiry(bytes32)": "d2ec5fca",
    "hook(bytes32,bytes32,address,uint8)": "4475bf4b",
    "hooksWithRules(bytes32)": "0aac6625",
    "isApprovedForAll(bytes32,address)": "b0698628",
    "isLegalMap(bytes32[],uint8[])": "9f09d9f3",
    "isNotDuplicateAnion(bytes32,bytes32)": "f8c91244",
    "isNotDuplicateHook(bytes32,uint8)": "4d505584",
    "popAnion(bytes32,bytes32)": "8dcad139",
    "recordExists(bytes32)": "f79fe538",
    "register(bytes32,bytes32)": "2f926732",
    "rehook(bytes32,address,uint8)": "83669726",
    "rehook(bytes32,uint8,bytes32)": "5b55b376",
    "renew(bytes32,uint256)": "f544d82f",
    "resolver(bytes32)": "0178b8bf",
    "roothash()": "251c9422",
    "setAlias(bytes32,bytes32)": "1f06e91c",
    "setAnions(bytes32,bytes32[],address[],uint8[])": "250548b9",
    "setApprovalForAll(address,bool)": "a22cb465",
    "setCation(bytes32,bytes32)": "8146970a",
    "setController(bytes32,address)": "d3156905",
    "setCovalence(bytes32,bool)": "d07699aa",
    "setExpiry(bytes32,uint256)": "39de6469",
    "setRecord(bytes32,address)": "d9b76ed4",
    "setResolver(bytes32,address)": "1896f70a",
    "theEnd()": "22b68deb",
    "unhook(bytes32,bytes32)": "516aeda0",
    "unhook(bytes32,uint8)": "b612e9b9",
    "unhookAll(bytes32)": "21ec2b5b",
    "withdrawEther()": "7362377b"
  },
  "id": 38
}