{
  "abi": [
    {
      "inputs": [
        {
          "internalType": "address",
          "name": "_registry",
          "type": "address"
        },
        {
          "internalType": "address",
          "name": "_helix2",
          "type": "address"
        },
        {
          "internalType": "address",
          "name": "_priceOracle",
          "type": "address"
        }
      ],
      "stateMutability": "nonpayable",
      "type": "constructor"
    },
    {
      "inputs": [],
      "name": "BAD_ANION",
      "type": "error"
    },
    {
      "inputs": [],
      "name": "BAD_HOOK",
      "type": "error"
    },
    {
      "inputs": [],
      "name": "BAD_RULE",
      "type": "error"
    },
    {
      "anonymous": false,
      "inputs": [
        {
          "indexed": true,
          "internalType": "bytes32",
          "name": "polyhash",
          "type": "bytes32"
        },
        {
          "indexed": false,
          "internalType": "address",
          "name": "config",
          "type": "address"
        },
        {
          "indexed": false,
          "internalType": "uint8",
          "name": "rule",
          "type": "uint8"
        }
      ],
      "name": "Hooked",
      "type": "event"
    },
    {
      "anonymous": false,
      "inputs": [
        {
          "indexed": true,
          "internalType": "bytes32",
          "name": "polyhash",
          "type": "bytes32"
        },
        {
          "indexed": false,
          "internalType": "bytes32",
          "name": "anion",
          "type": "bytes32"
        }
      ],
      "name": "NewAnion",
      "type": "event"
    },
    {
      "anonymous": false,
      "inputs": [
        {
          "indexed": true,
          "internalType": "bytes32",
          "name": "polyhash",
          "type": "bytes32"
        },
        {
          "indexed": false,
          "internalType": "bytes32[]",
          "name": "anion",
          "type": "bytes32[]"
        }
      ],
      "name": "NewAnions",
      "type": "event"
    },
    {
      "anonymous": false,
      "inputs": [
        {
          "indexed": true,
          "internalType": "bytes32",
          "name": "polyhash",
          "type": "bytes32"
        },
        {
          "indexed": false,
          "internalType": "bytes32",
          "name": "cation",
          "type": "bytes32"
        }
      ],
      "name": "NewCation",
      "type": "event"
    },
    {
      "anonymous": false,
      "inputs": [
        {
          "indexed": true,
          "internalType": "bytes32",
          "name": "polyhash",
          "type": "bytes32"
        },
        {
          "indexed": false,
          "internalType": "address",
          "name": "controller",
          "type": "address"
        }
      ],
      "name": "NewController",
      "type": "event"
    },
    {
      "anonymous": false,
      "inputs": [
        {
          "indexed": true,
          "internalType": "bytes32",
          "name": "polyhash",
          "type": "bytes32"
        },
        {
          "indexed": false,
          "internalType": "bool",
          "name": "covalence",
          "type": "bool"
        }
      ],
      "name": "NewCovalence",
      "type": "event"
    },
    {
      "anonymous": false,
      "inputs": [
        {
          "indexed": true,
          "internalType": "bytes32",
          "name": "polyhash",
          "type": "bytes32"
        },
        {
          "indexed": false,
          "internalType": "uint256",
          "name": "expiry",
          "type": "uint256"
        }
      ],
      "name": "NewExpiry",
      "type": "event"
    },
    {
      "anonymous": false,
      "inputs": [
        {
          "indexed": true,
          "internalType": "bytes32",
          "name": "polyhash",
          "type": "bytes32"
        },
        {
          "indexed": false,
          "internalType": "address",
          "name": "resolver",
          "type": "address"
        }
      ],
      "name": "NewResolver",
      "type": "event"
    },
    {
      "anonymous": false,
      "inputs": [
        {
          "indexed": true,
          "internalType": "address",
          "name": "previousOwner",
          "type": "address"
        },
        {
          "indexed": true,
          "internalType": "address",
          "name": "newOwner",
          "type": "address"
        }
      ],
      "name": "OwnershipTransferred",
      "type": "event"
    },
    {
      "anonymous": false,
      "inputs": [
        {
          "indexed": true,
          "internalType": "bytes32",
          "name": "polyhash",
          "type": "bytes32"
        },
        {
          "indexed": false,
          "internalType": "bytes32",
          "name": "anion",
          "type": "bytes32"
        }
      ],
      "name": "PopAnion",
      "type": "event"
    },
    {
      "anonymous": false,
      "inputs": [
        {
          "indexed": true,
          "internalType": "bytes32",
          "name": "polyhash",
          "type": "bytes32"
        },
        {
          "indexed": false,
          "internalType": "address",
          "name": "config",
          "type": "address"
        },
        {
          "indexed": false,
          "internalType": "uint8",
          "name": "rule",
          "type": "uint8"
        }
      ],
      "name": "Rehooked",
      "type": "event"
    },
    {
      "anonymous": false,
      "inputs": [
        {
          "indexed": true,
          "internalType": "bytes32",
          "name": "polyhash",
          "type": "bytes32"
        },
        {
          "indexed": false,
          "internalType": "uint8",
          "name": "rule",
          "type": "uint8"
        }
      ],
      "name": "Unhooked",
      "type": "event"
    },
    {
      "anonymous": false,
      "inputs": [
        {
          "indexed": true,
          "internalType": "bytes32",
          "name": "polyhash",
          "type": "bytes32"
        }
      ],
      "name": "UnhookedAll",
      "type": "event"
    },
    {
      "inputs": [],
      "name": "Dev",
      "outputs": [
        {
          "internalType": "address",
          "name": "",
          "type": "address"
        }
      ],
      "stateMutability": "view",
      "type": "function"
    },
    {
      "inputs": [],
      "name": "HELIX2",
      "outputs": [
        {
          "internalType": "contract iHELIX2",
          "name": "",
          "type": "address"
        }
      ],
      "stateMutability": "view",
      "type": "function"
    },
    {
      "inputs": [],
      "name": "NAMES",
      "outputs": [
        {
          "internalType": "contract iNAME",
          "name": "",
          "type": "address"
        }
      ],
      "stateMutability": "view",
      "type": "function"
    },
    {
      "inputs": [],
      "name": "PRICES",
      "outputs": [
        {
          "internalType": "contract iPriceOracle",
          "name": "",
          "type": "address"
        }
      ],
      "stateMutability": "view",
      "type": "function"
    },
    {
      "inputs": [],
      "name": "Registrar",
      "outputs": [
        {
          "internalType": "address",
          "name": "",
          "type": "address"
        }
      ],
      "stateMutability": "view",
      "type": "function"
    },
    {
      "inputs": [],
      "name": "STORE",
      "outputs": [
        {
          "internalType": "contract iPOLYCULE",
          "name": "",
          "type": "address"
        }
      ],
      "stateMutability": "view",
      "type": "function"
    },
    {
      "inputs": [],
      "name": "active",
      "outputs": [
        {
          "internalType": "bool",
          "name": "",
          "type": "bool"
        }
      ],
      "stateMutability": "view",
      "type": "function"
    },
    {
      "inputs": [
        {
          "internalType": "bytes32",
          "name": "polyhash",
          "type": "bytes32"
        },
        {
          "internalType": "bytes32",
          "name": "_anion",
          "type": "bytes32"
        },
        {
          "internalType": "address",
          "name": "config",
          "type": "address"
        },
        {
          "internalType": "uint8",
          "name": "rule",
          "type": "uint8"
        }
      ],
      "name": "addAnionWithConfig",
      "outputs": [],
      "stateMutability": "nonpayable",
      "type": "function"
    },
    {
      "inputs": [
        {
          "internalType": "bytes32",
          "name": "polyhash",
          "type": "bytes32"
        }
      ],
      "name": "anions",
      "outputs": [
        {
          "internalType": "bytes32[]",
          "name": "",
          "type": "bytes32[]"
        }
      ],
      "stateMutability": "view",
      "type": "function"
    },
    {
      "inputs": [],
      "name": "basePrice",
      "outputs": [
        {
          "internalType": "uint256",
          "name": "",
          "type": "uint256"
        }
      ],
      "stateMutability": "view",
      "type": "function"
    },
    {
      "inputs": [
        {
          "internalType": "bytes32",
          "name": "polyhash",
          "type": "bytes32"
        }
      ],
      "name": "cation",
      "outputs": [
        {
          "internalType": "bytes32",
          "name": "",
          "type": "bytes32"
        }
      ],
      "stateMutability": "view",
      "type": "function"
    },
    {
      "inputs": [
        {
          "internalType": "bytes32",
          "name": "polyhash",
          "type": "bytes32"
        }
      ],
      "name": "controller",
      "outputs": [
        {
          "internalType": "address",
          "name": "",
          "type": "address"
        }
      ],
      "stateMutability": "view",
      "type": "function"
    },
    {
      "inputs": [
        {
          "internalType": "bytes32",
          "name": "polyhash",
          "type": "bytes32"
        }
      ],
      "name": "covalence",
      "outputs": [
        {
          "internalType": "bool",
          "name": "",
          "type": "bool"
        }
      ],
      "stateMutability": "view",
      "type": "function"
    },
    {
      "inputs": [
        {
          "internalType": "bytes32",
          "name": "polyhash",
          "type": "bytes32"
        }
      ],
      "name": "expiry",
      "outputs": [
        {
          "internalType": "uint256",
          "name": "",
          "type": "uint256"
        }
      ],
      "stateMutability": "view",
      "type": "function"
    },
    {
      "inputs": [
        {
          "internalType": "bytes32",
          "name": "_anion",
          "type": "bytes32"
        },
        {
          "internalType": "bytes32",
          "name": "polyhash",
          "type": "bytes32"
        },
        {
          "internalType": "address",
          "name": "config",
          "type": "address"
        },
        {
          "internalType": "uint8",
          "name": "rule",
          "type": "uint8"
        }
      ],
      "name": "hook",
      "outputs": [],
      "stateMutability": "nonpayable",
      "type": "function"
    },
    {
      "inputs": [
        {
          "internalType": "bytes32",
          "name": "polyhash",
          "type": "bytes32"
        }
      ],
      "name": "hooksWithRules",
      "outputs": [
        {
          "internalType": "uint8[]",
          "name": "_rules",
          "type": "uint8[]"
        },
        {
          "internalType": "address[]",
          "name": "_hooks",
          "type": "address[]"
        }
      ],
      "stateMutability": "view",
      "type": "function"
    },
    {
      "inputs": [
        {
          "internalType": "bytes32",
          "name": "polyhash",
          "type": "bytes32"
        }
      ],
      "name": "label",
      "outputs": [
        {
          "internalType": "bytes32",
          "name": "",
          "type": "bytes32"
        }
      ],
      "stateMutability": "view",
      "type": "function"
    },
    {
      "inputs": [],
      "name": "owner",
      "outputs": [
        {
          "internalType": "address",
          "name": "",
          "type": "address"
        }
      ],
      "stateMutability": "view",
      "type": "function"
    },
    {
      "inputs": [
        {
          "internalType": "bytes32",
          "name": "polyhash",
          "type": "bytes32"
        },
        {
          "internalType": "bytes32",
          "name": "_anion",
          "type": "bytes32"
        }
      ],
      "name": "popAnion",
      "outputs": [],
      "stateMutability": "nonpayable",
      "type": "function"
    },
    {
      "inputs": [
        {
          "internalType": "bytes32",
          "name": "polyhash",
          "type": "bytes32"
        }
      ],
      "name": "recordExists",
      "outputs": [
        {
          "internalType": "bool",
          "name": "",
          "type": "bool"
        }
      ],
      "stateMutability": "view",
      "type": "function"
    },
    {
      "inputs": [
        {
          "internalType": "bytes32",
          "name": "polyhash",
          "type": "bytes32"
        },
        {
          "internalType": "bytes32",
          "name": "_cation",
          "type": "bytes32"
        }
      ],
      "name": "register",
      "outputs": [],
      "stateMutability": "nonpayable",
      "type": "function"
    },
    {
      "inputs": [
        {
          "internalType": "bytes32",
          "name": "polyhash",
          "type": "bytes32"
        },
        {
          "internalType": "address",
          "name": "config",
          "type": "address"
        },
        {
          "internalType": "uint8",
          "name": "rule",
          "type": "uint8"
        }
      ],
      "name": "rehook",
      "outputs": [],
      "stateMutability": "nonpayable",
      "type": "function"
    },
    {
      "inputs": [
        {
          "internalType": "bytes32",
          "name": "polyhash",
          "type": "bytes32"
        },
        {
          "internalType": "uint256",
          "name": "_expiry",
          "type": "uint256"
        }
      ],
      "name": "renew",
      "outputs": [],
      "stateMutability": "payable",
      "type": "function"
    },
    {
      "inputs": [
        {
          "internalType": "bytes32",
          "name": "polyhash",
          "type": "bytes32"
        }
      ],
      "name": "resolver",
      "outputs": [
        {
          "internalType": "address",
          "name": "",
          "type": "address"
        }
      ],
      "stateMutability": "view",
      "type": "function"
    },
    {
      "inputs": [],
      "name": "roothash",
      "outputs": [
        {
          "internalType": "bytes32",
          "name": "",
          "type": "bytes32"
        }
      ],
      "stateMutability": "view",
      "type": "function"
    },
    {
      "inputs": [
        {
          "internalType": "bytes32",
          "name": "polyhash",
          "type": "bytes32"
        },
        {
          "internalType": "bytes32[]",
          "name": "_anions",
          "type": "bytes32[]"
        },
        {
          "internalType": "address[]",
          "name": "_hooks",
          "type": "address[]"
        },
        {
          "internalType": "uint8[]",
          "name": "_rules",
          "type": "uint8[]"
        }
      ],
      "name": "setAnions",
      "outputs": [],
      "stateMutability": "nonpayable",
      "type": "function"
    },
    {
      "inputs": [
        {
          "internalType": "bytes32",
          "name": "polyhash",
          "type": "bytes32"
        },
        {
          "internalType": "bytes32",
          "name": "_cation",
          "type": "bytes32"
        }
      ],
      "name": "setCation",
      "outputs": [],
      "stateMutability": "nonpayable",
      "type": "function"
    },
    {
      "inputs": [
        {
          "internalType": "address",
          "name": "_helix2",
          "type": "address"
        },
        {
          "internalType": "address",
          "name": "_priceOracle",
          "type": "address"
        },
        {
          "internalType": "address",
          "name": "_store",
          "type": "address"
        }
      ],
      "name": "setConfig",
      "outputs": [],
      "stateMutability": "nonpayable",
      "type": "function"
    },
    {
      "inputs": [
        {
          "internalType": "bytes32",
          "name": "polyhash",
          "type": "bytes32"
        },
        {
          "internalType": "address",
          "name": "_controller",
          "type": "address"
        }
      ],
      "name": "setController",
      "outputs": [],
      "stateMutability": "nonpayable",
      "type": "function"
    },
    {
      "inputs": [
        {
          "internalType": "bytes32",
          "name": "polyhash",
          "type": "bytes32"
        },
        {
          "internalType": "bool",
          "name": "_covalence",
          "type": "bool"
        }
      ],
      "name": "setCovalence",
      "outputs": [],
      "stateMutability": "nonpayable",
      "type": "function"
    },
    {
      "inputs": [
        {
          "internalType": "bytes32",
          "name": "polyhash",
          "type": "bytes32"
        },
        {
          "internalType": "uint256",
          "name": "_expiry",
          "type": "uint256"
        }
      ],
      "name": "setExpiry",
      "outputs": [],
      "stateMutability": "nonpayable",
      "type": "function"
    },
    {
      "inputs": [
        {
          "internalType": "bytes4",
          "name": "sig",
          "type": "bytes4"
        },
        {
          "internalType": "bool",
          "name": "value",
          "type": "bool"
        }
      ],
      "name": "setInterface",
      "outputs": [],
      "stateMutability": "payable",
      "type": "function"
    },
    {
      "inputs": [
        {
          "internalType": "bytes32",
          "name": "polyhash",
          "type": "bytes32"
        },
        {
          "internalType": "bytes32",
          "name": "_label",
          "type": "bytes32"
        }
      ],
      "name": "setLabel",
      "outputs": [],
      "stateMutability": "nonpayable",
      "type": "function"
    },
    {
      "inputs": [
        {
          "internalType": "bytes32",
          "name": "polyhash",
          "type": "bytes32"
        },
        {
          "internalType": "address",
          "name": "_resolver",
          "type": "address"
        }
      ],
      "name": "setResolver",
      "outputs": [],
      "stateMutability": "nonpayable",
      "type": "function"
    },
    {
      "inputs": [
        {
          "internalType": "bytes4",
          "name": "",
          "type": "bytes4"
        }
      ],
      "name": "supportedInterfaces",
      "outputs": [
        {
          "internalType": "bool",
          "name": "",
          "type": "bool"
        }
      ],
      "stateMutability": "view",
      "type": "function"
    },
    {
      "inputs": [
        {
          "internalType": "bytes4",
          "name": "sig",
          "type": "bytes4"
        }
      ],
      "name": "supportsInterface",
      "outputs": [
        {
          "internalType": "bool",
          "name": "",
          "type": "bool"
        }
      ],
      "stateMutability": "view",
      "type": "function"
    },
    {
      "inputs": [],
      "name": "theEnd",
      "outputs": [
        {
          "internalType": "uint256",
          "name": "",
          "type": "uint256"
        }
      ],
      "stateMutability": "view",
      "type": "function"
    },
    {
      "inputs": [],
      "name": "toggleActive",
      "outputs": [],
      "stateMutability": "nonpayable",
      "type": "function"
    },
    {
      "inputs": [
        {
          "internalType": "address",
          "name": "newDev",
          "type": "address"
        }
      ],
      "name": "transferOwnership",
      "outputs": [],
      "stateMutability": "nonpayable",
      "type": "function"
    },
    {
      "inputs": [
        {
          "internalType": "bytes32",
          "name": "polyhash",
          "type": "bytes32"
        },
        {
          "internalType": "uint8",
          "name": "rule",
          "type": "uint8"
        }
      ],
      "name": "unhook",
      "outputs": [],
      "stateMutability": "nonpayable",
      "type": "function"
    },
    {
      "inputs": [
        {
          "internalType": "bytes32",
          "name": "polyhash",
          "type": "bytes32"
        }
      ],
      "name": "unhookAll",
      "outputs": [],
      "stateMutability": "nonpayable",
      "type": "function"
    }
  ],
  "bytecode": {
    "object": "0x60806040526004805460ff60a01b1916600160a01b1790556703782dace9d900006009553480156200003057600080fd5b50604051620058293803806200582983398101604081905262000053916200020e565b60048054336001600160a01b03199182161782556000805482166001600160a01b03868116918217909255600180549093169187169190911790915560408051633215476b60e11b81529051919263642a8ed69282820192608092908290030181865afa158015620000c9573d6000803e3d6000fd5b505050506040513d601f19601f82011682018060405250810190620000ef91906200028f565b60600151600655600380546001600160a01b0319166001600160a01b0383169081179091556040805163bd9a548b60e01b8152905163bd9a548b916004808201926080929091908290030181865afa15801562000150573d6000803e3d6000fd5b505050506040513d601f19601f820116820180604052508101906200017691906200028f565b6060015160075550506005602052507f4bcc8a24ccebcb02e06809ffdc3dbdc56f736cf28155948650f9bec809bea48e8054600160ff1991821681179092556307f5828d60e41b6000527f744f038481816166db36c1c96c51289c139e33b5b050399f9ec0fad34d16e76880549091169091179055620002f6565b80516001600160a01b03811681146200020957600080fd5b919050565b6000806000606084860312156200022457600080fd5b6200022f84620001f1565b92506200023f60208501620001f1565b91506200024f60408501620001f1565b90509250925092565b604051608081016001600160401b03811182821017156200028957634e487b7160e01b600052604160045260246000fd5b60405290565b600060808284031215620002a257600080fd5b82601f830112620002b257600080fd5b620002bc62000258565b806080840185811115620002cf57600080fd5b845b81811015620002eb578051845260209384019301620002d1565b509095945050505050565b61552380620003066000396000f3fe6080604052600436106102c65760003560e01c8063507f146511610179578063c0a43a7c116100d6578063dbd4e0211161008a578063f544d82f11610064578063f544d82f146107ff578063f61ccd5314610812578063f79fe5381461083257600080fd5b8063dbd4e0211461079f578063deee4da9146107bf578063f2fde38b146107df57600080fd5b8063d07699aa116100bb578063d07699aa1461073f578063d2ec5fca1461075f578063d31569051461077f57600080fd5b8063c0a43a7c14610716578063c7876ea41461072957600080fd5b80638da5cb5b1161012d578063b612e9b911610112578063b612e9b9146106b6578063b782426e146106d6578063b9f37c86146106f657600080fd5b80638da5cb5b146106785780638dcad1391461069657600080fd5b806365edd5221161015e57806365edd522146106185780638146970a14610638578063836697261461065857600080fd5b8063507f1465146105cb578063622dad7f146105eb57600080fd5b806321ec2b5b116102275780632f926732116101db57806334026859116101c0578063340268591461056b57806339de64691461058b5780634475bf4b146105ab57600080fd5b80632f9267321461052b5780633141e25b1461054b57600080fd5b8063250548b91161020c578063250548b9146104e0578063251c94221461050057806329c68dc11461051657600080fd5b806321ec2b5b146104aa57806322b68deb146104ca57600080fd5b80630aac66251161027e5780631896f70a116102635780631896f70a1461043a5780631eabcd341461045c5780631fc4859e1461047c57600080fd5b80630aac6625146103dc5780631584ba381461040a57600080fd5b806301ffc9a7116102af57806301ffc9a71461032857806302fb0c5e1461038a57806305e84aa0146103bc57600080fd5b80630178b8bf146102cb57806301e51ae814610308575b600080fd5b3480156102d757600080fd5b506102eb6102e6366004614bad565b610852565b6040516001600160a01b0390911681526020015b60405180910390f35b34801561031457600080fd5b506004546102eb906001600160a01b031681565b34801561033457600080fd5b5061037a610343366004614bfb565b7fffffffff000000000000000000000000000000000000000000000000000000001660009081526005602052604090205460ff1690565b60405190151581526020016102ff565b34801561039657600080fd5b5060045461037a9074010000000000000000000000000000000000000000900460ff1681565b3480156103c857600080fd5b506001546102eb906001600160a01b031681565b3480156103e857600080fd5b506103fc6103f7366004614bad565b6109a7565b6040516102ff929190614c1d565b34801561041657600080fd5b5061037a610425366004614bfb565b60056020526000908152604090205460ff1681565b34801561044657600080fd5b5061045a610455366004614cbc565b610afc565b005b34801561046857600080fd5b506003546102eb906001600160a01b031681565b34801561048857600080fd5b5061049c610497366004614bad565b610d9e565b6040519081526020016102ff565b3480156104b657600080fd5b5061045a6104c5366004614bad565b610ee4565b3480156104d657600080fd5b5061049c60095481565b3480156104ec57600080fd5b5061045a6104fb366004614e80565b61120a565b34801561050c57600080fd5b5061049c60065481565b34801561052257600080fd5b5061045a611630565b34801561053757600080fd5b5061045a610546366004614f69565b6116d7565b34801561055757600080fd5b5061045a610566366004614f8b565b6118b1565b34801561057757600080fd5b5061037a610586366004614bad565b611ba2565b34801561059757600080fd5b5061045a6105a6366004614f69565b611ce8565b3480156105b757600080fd5b5061045a6105c6366004614fd6565b611ead565b3480156105d757600080fd5b506002546102eb906001600160a01b031681565b3480156105f757600080fd5b5061060b610606366004614bad565b612254565b6040516102ff9190615020565b34801561062457600080fd5b5061045a610633366004614fd6565b61239e565b34801561064457600080fd5b5061045a610653366004614f69565b6128ad565b34801561066457600080fd5b5061045a610673366004615064565b612c1f565b34801561068457600080fd5b506004546001600160a01b03166102eb565b3480156106a257600080fd5b5061045a6106b1366004614f69565b6130de565b3480156106c257600080fd5b5061045a6106d136600461509b565b6134fd565b3480156106e257600080fd5b506000546102eb906001600160a01b031681565b34801561070257600080fd5b506008546102eb906001600160a01b031681565b61045a6107243660046150ce565b613919565b34801561073557600080fd5b5061049c60075481565b34801561074b57600080fd5b5061045a61075a3660046150fa565b613a47565b34801561076b57600080fd5b5061049c61077a366004614bad565b613cd7565b34801561078b57600080fd5b5061045a61079a366004614cbc565b613d4b565b3480156107ab57600080fd5b506102eb6107ba366004614bad565b613fe2565b3480156107cb57600080fd5b5061045a6107da366004614f69565b6140d3565b3480156107eb57600080fd5b5061045a6107fa36600461511f565b6141a7565b61045a61080d366004614f69565b614275565b34801561081e57600080fd5b5061049c61082d366004614bad565b6146d8565b34801561083e57600080fd5b5061037a61084d366004614bad565b61489f565b6002546040516369762fe560e11b81526004810183905260009183916001600160a01b039091169063d2ec5fca90602401602060405180830381865afa1580156108a0573d6000803e3d6000fd5b505050506040513d601f19601f820116820180604052508101906108c4919061513c565b42106109175760405162461bcd60e51b815260206004820152600c60248201527f4e414d455f45585049524544000000000000000000000000000000000000000060448201526064015b60405180910390fd5b6002546040517f0178b8bf000000000000000000000000000000000000000000000000000000008152600481018590526001600160a01b0390911690630178b8bf906024015b602060405180830381865afa15801561097a573d6000803e3d6000fd5b505050506040513d601f19601f8201168201806040525081019061099e9190615155565b91505b50919050565b6002546040516369762fe560e11b815260048101839052606091829184916001600160a01b03169063d2ec5fca90602401602060405180830381865afa1580156109f5573d6000803e3d6000fd5b505050506040513d601f19601f82011682018060405250810190610a19919061513c565b4210610a675760405162461bcd60e51b815260206004820152600c60248201527f4e414d455f455850495245440000000000000000000000000000000000000000604482015260640161090e565b6002546040517f0aac6625000000000000000000000000000000000000000000000000000000008152600481018690526001600160a01b0390911690630aac662590602401600060405180830381865afa158015610ac9573d6000803e3d6000fd5b505050506040513d6000823e601f3d908101601f19168201604052610af191908101906151d6565b909590945092505050565b60025460405163f61ccd5360e01b81526004810184905283916000916001600160a01b039091169063f61ccd5390602401602060405180830381865afa158015610b4a573d6000803e3d6000fd5b505050506040513d601f19601f82011682018060405250810190610b6e919061513c565b6001546040516302571be360e01b8152600481018390529192506000916001600160a01b03909116906302571be390602401602060405180830381865afa158015610bbd573d6000803e3d6000fd5b505050506040513d601f19601f82011682018060405250810190610be19190615155565b6008549091506001600160a01b0316331480610c0557506001600160a01b03811633145b80610c8d575060025460405163dbd4e02160e01b8152600481018590526001600160a01b039091169063dbd4e02190602401602060405180830381865afa158015610c54573d6000803e3d6000fd5b505050506040513d601f19601f82011682018060405250810190610c789190615155565b6001600160a01b0316336001600160a01b0316145b610cd95760405162461bcd60e51b815260206004820152600e60248201527f4e4f545f415554484f5249534544000000000000000000000000000000000000604482015260640161090e565b6002546040517f1896f70a000000000000000000000000000000000000000000000000000000008152600481018790526001600160a01b03868116602483015290911690631896f70a90604401600060405180830381600087803b158015610d4057600080fd5b505af1158015610d54573d6000803e3d6000fd5b50506040516001600160a01b03871681528792507f335721b01866dc23fbee8b6b2c7b1e14d6f05c28cd35a2c934239f94095602a091506020015b60405180910390a25050505050565b6002546040516369762fe560e11b81526004810183905260009183916001600160a01b039091169063d2ec5fca90602401602060405180830381865afa158015610dec573d6000803e3d6000fd5b505050506040513d601f19601f82011682018060405250810190610e10919061513c565b4210610e5e5760405162461bcd60e51b815260206004820152600c60248201527f4e414d455f455850495245440000000000000000000000000000000000000000604482015260640161090e565b6002546040517f1fc4859e000000000000000000000000000000000000000000000000000000008152600481018590526001600160a01b0390911690631fc4859e90602401602060405180830381865afa158015610ec0573d6000803e3d6000fd5b505050506040513d601f19601f8201168201806040525081019061099e919061513c565b6002546040516369762fe560e11b81526004810183905282916001600160a01b03169063d2ec5fca90602401602060405180830381865afa158015610f2d573d6000803e3d6000fd5b505050506040513d601f19601f82011682018060405250810190610f51919061513c565b4210610f9f5760405162461bcd60e51b815260206004820152601060248201527f504f4c5943554c455f4558504952454400000000000000000000000000000000604482015260640161090e565b60025460405163f61ccd5360e01b8152600481018390526000916001600160a01b03169063f61ccd5390602401602060405180830381865afa158015610fe9573d6000803e3d6000fd5b505050506040513d601f19601f8201168201806040525081019061100d919061513c565b6001546040516302571be360e01b8152600481018390529192506000916001600160a01b03909116906302571be390602401602060405180830381865afa15801561105c573d6000803e3d6000fd5b505050506040513d601f19601f820116820180604052508101906110809190615155565b90506001600160a01b038116331480611116575060025460405163dbd4e02160e01b8152600481018590526001600160a01b039091169063dbd4e02190602401602060405180830381865afa1580156110dd573d6000803e3d6000fd5b505050506040513d601f19601f820116820180604052508101906111019190615155565b6001600160a01b0316336001600160a01b0316145b6111625760405162461bcd60e51b815260206004820152601760248201527f4e4f545f4f574e45525f4f525f434f4e54524f4c4c4552000000000000000000604482015260640161090e565b6002546040517f21ec2b5b000000000000000000000000000000000000000000000000000000008152600481018690526001600160a01b03909116906321ec2b5b90602401600060405180830381600087803b1580156111c157600080fd5b505af11580156111d5573d6000803e3d6000fd5b50506040518692507f6b91085369552b61ca16180a741663b69fb6b3b967f7271116521d84e2291dc59150600090a250505050565b60025460405163f61ccd5360e01b81526004810186905285916000916001600160a01b039091169063f61ccd5390602401602060405180830381865afa158015611258573d6000803e3d6000fd5b505050506040513d601f19601f8201168201806040525081019061127c919061513c565b6001546040516302571be360e01b8152600481018390529192506000916001600160a01b03909116906302571be390602401602060405180830381865afa1580156112cb573d6000803e3d6000fd5b505050506040513d601f19601f820116820180604052508101906112ef9190615155565b6008549091506001600160a01b031633148061131357506001600160a01b03811633145b8061139b575060025460405163dbd4e02160e01b8152600481018590526001600160a01b039091169063dbd4e02190602401602060405180830381865afa158015611362573d6000803e3d6000fd5b505050506040513d601f19601f820116820180604052508101906113869190615155565b6001600160a01b0316336001600160a01b0316145b6113e75760405162461bcd60e51b815260206004820152600e60248201527f4e4f545f415554484f5249534544000000000000000000000000000000000000604482015260640161090e565b6113f18685614915565b61143d5760405162461bcd60e51b815260206004820152600760248201527f4241445f4d415000000000000000000000000000000000000000000000000000604482015260640161090e565b60005b86518110156115ee576002546040517f622dad7f000000000000000000000000000000000000000000000000000000008152600481018a90526114fd916001600160a01b03169063622dad7f90602401600060405180830381865afa1580156114ad573d6000803e3d6000fd5b505050506040513d6000823e601f3d908101601f191682016040526114d5919081019061529b565b8883815181106114e7576114e761532c565b602002602001015161493190919063ffffffff16565b6115dc5760025487516001600160a01b03909116906365edd522908a908a908590811061152c5761152c61532c565b60200260200101518985815181106115465761154661532c565b60200260200101518986815181106115605761156061532c565b60200260200101516040518563ffffffff1660e01b81526004016115a9949392919093845260208401929092526001600160a01b0316604083015260ff16606082015260800190565b600060405180830381600087803b1580156115c357600080fd5b505af11580156115d7573d6000803e3d6000fd5b505050505b806115e68161538a565b915050611440565b50867f580d99949e5d5a02f35dc5b91b800697d53dccb814e200f24f97b4bfbeb8667c8760405161161f9190615020565b60405180910390a250505050505050565b6004546001600160a01b0316331461168a5760405162461bcd60e51b815260206004820152600760248201527f4e4f545f44455600000000000000000000000000000000000000000000000000604482015260640161090e565b600480547fffffffffffffffffffffff00ffffffffffffffffffffffffffffffffffffffff8116740100000000000000000000000000000000000000009182900460ff1615909102179055565b6008546001600160a01b031633146117315760405162461bcd60e51b815260206004820152600d60248201527f4e4f545f52454749535452415200000000000000000000000000000000000000604482015260640161090e565b6001546040516302571be360e01b8152600481018390526000916001600160a01b0316906302571be390602401602060405180830381865afa15801561177b573d6000803e3d6000fd5b505050506040513d601f19601f8201168201806040525081019061179f9190615155565b6001600160a01b0316036117f55760405162461bcd60e51b815260206004820152600b60248201527f43414e4e4f545f4255524e000000000000000000000000000000000000000000604482015260640161090e565b6002546040517f8146970a00000000000000000000000000000000000000000000000000000000815260048101849052602481018390526001600160a01b0390911690638146970a90604401600060405180830381600087803b15801561185b57600080fd5b505af115801561186f573d6000803e3d6000fd5b50505050817f4810581adf2c16a86a375dbb1ed89b0b0f7e64d48d24e1948b3dfe6581e4d795826040516118a591815260200190565b60405180910390a25050565b6004546001600160a01b0316331461190b5760405162461bcd60e51b815260206004820152600760248201527f4e4f545f44455600000000000000000000000000000000000000000000000000604482015260640161090e565b6001600160a01b03831615611a9557600080547fffffffffffffffffffffffff0000000000000000000000000000000000000000166001600160a01b038516908117909155604080517f642a8ed6000000000000000000000000000000000000000000000000000000008152905163642a8ed6916004808201926080929091908290030181865afa1580156119a4573d6000803e3d6000fd5b505050506040513d601f19601f820116820180604052508101906119c891906153c2565b60600151600655600054604080517f4d3f733400000000000000000000000000000000000000000000000000000000815290516001600160a01b0390921691634d3f7334916004808201926080929091908290030181865afa158015611a32573d6000803e3d6000fd5b505050506040513d601f19601f82011682018060405250810190611a569190615422565b60036020020151600880547fffffffffffffffffffffffff0000000000000000000000000000000000000000166001600160a01b039092169190911790555b6001600160a01b03811615611ad857600280547fffffffffffffffffffffffff0000000000000000000000000000000000000000166001600160a01b0383161790555b6001600160a01b03821615611b9d57600380547fffffffffffffffffffffffff0000000000000000000000000000000000000000166001600160a01b038416908117909155604080517fbd9a548b000000000000000000000000000000000000000000000000000000008152905163bd9a548b916004808201926080929091908290030181865afa158015611b71573d6000803e3d6000fd5b505050506040513d601f19601f82011682018060405250810190611b9591906153c2565b606001516007555b505050565b6002546040516369762fe560e11b81526004810183905260009183916001600160a01b039091169063d2ec5fca90602401602060405180830381865afa158015611bf0573d6000803e3d6000fd5b505050506040513d601f19601f82011682018060405250810190611c14919061513c565b4210611c625760405162461bcd60e51b815260206004820152600c60248201527f4e414d455f455850495245440000000000000000000000000000000000000000604482015260640161090e565b6002546040517f34026859000000000000000000000000000000000000000000000000000000008152600481018590526001600160a01b0390911690633402685990602401602060405180830381865afa158015611cc4573d6000803e3d6000fd5b505050506040513d601f19601f8201168201806040525081019061099e9190615480565b6008546001600160a01b03163314611d425760405162461bcd60e51b815260206004820152600d60248201527f4e4f545f52454749535452415200000000000000000000000000000000000000604482015260640161090e565b6002546040516369762fe560e11b8152600481018490526001600160a01b039091169063d2ec5fca90602401602060405180830381865afa158015611d8b573d6000803e3d6000fd5b505050506040513d601f19601f82011682018060405250810190611daf919061513c565b8111611dfd5760405162461bcd60e51b815260206004820152600a60248201527f4241445f45585049525900000000000000000000000000000000000000000000604482015260640161090e565b6002546040517f39de646900000000000000000000000000000000000000000000000000000000815260048101849052602481018390526001600160a01b03909116906339de646990604401600060405180830381600087803b158015611e6357600080fd5b505af1158015611e77573d6000803e3d6000fd5b50505050817fa620b72378ee464490805a96e25b53e5c0076f0ce2d28f9691ae255a595b3bf3826040516118a591815260200190565b6002546040516369762fe560e11b81526004810185905284916001600160a01b03169063d2ec5fca90602401602060405180830381865afa158015611ef6573d6000803e3d6000fd5b505050506040513d601f19601f82011682018060405250810190611f1a919061513c565b4210611f685760405162461bcd60e51b815260206004820152601060248201527f504f4c5943554c455f4558504952454400000000000000000000000000000000604482015260640161090e565b60025460405163f61ccd5360e01b8152600481018390526000916001600160a01b03169063f61ccd5390602401602060405180830381865afa158015611fb2573d6000803e3d6000fd5b505050506040513d601f19601f82011682018060405250810190611fd6919061513c565b6001546040516302571be360e01b8152600481018390529192506000916001600160a01b03909116906302571be390602401602060405180830381865afa158015612025573d6000803e3d6000fd5b505050506040513d601f19601f820116820180604052508101906120499190615155565b90506001600160a01b0381163314806120df575060025460405163dbd4e02160e01b8152600481018590526001600160a01b039091169063dbd4e02190602401602060405180830381865afa1580156120a6573d6000803e3d6000fd5b505050506040513d601f19601f820116820180604052508101906120ca9190615155565b6001600160a01b0316336001600160a01b0316145b61212b5760405162461bcd60e51b815260206004820152601760248201527f4e4f545f4f574e45525f4f525f434f4e54524f4c4c4552000000000000000000604482015260640161090e565b612136868886614984565b6121825760405162461bcd60e51b815260206004820152601460248201527f414e494f4e5f4f525f52554c455f455849535453000000000000000000000000604482015260640161090e565b6002546040517f4475bf4b00000000000000000000000000000000000000000000000000000000815260048101899052602481018890526001600160a01b03878116604483015260ff8716606483015290911690634475bf4b90608401600060405180830381600087803b1580156121f957600080fd5b505af115801561220d573d6000803e3d6000fd5b5050604080516001600160a01b038916815260ff881660208201528993507fc733a2bc621cc97eef6ed4f708f126e72e6acb76c0a1c0461c9dd31f7b98706592500161161f565b6002546040516369762fe560e11b81526004810183905260609183916001600160a01b039091169063d2ec5fca90602401602060405180830381865afa1580156122a2573d6000803e3d6000fd5b505050506040513d601f19601f820116820180604052508101906122c6919061513c565b42106123145760405162461bcd60e51b815260206004820152600c60248201527f4e414d455f455850495245440000000000000000000000000000000000000000604482015260640161090e565b6002546040517f622dad7f000000000000000000000000000000000000000000000000000000008152600481018590526001600160a01b039091169063622dad7f90602401600060405180830381865afa158015612376573d6000803e3d6000fd5b505050506040513d6000823e601f3d908101601f1916820160405261099e919081019061529b565b6002546040516369762fe560e11b81526004810186905285916001600160a01b03169063d2ec5fca90602401602060405180830381865afa1580156123e7573d6000803e3d6000fd5b505050506040513d601f19601f8201168201806040525081019061240b919061513c565b42106124595760405162461bcd60e51b815260206004820152601060248201527f504f4c5943554c455f4558504952454400000000000000000000000000000000604482015260640161090e565b60025460405163f61ccd5360e01b8152600481018390526000916001600160a01b03169063f61ccd5390602401602060405180830381865afa1580156124a3573d6000803e3d6000fd5b505050506040513d601f19601f820116820180604052508101906124c7919061513c565b6001546040516302571be360e01b8152600481018390529192506000916001600160a01b03909116906302571be390602401602060405180830381865afa158015612516573d6000803e3d6000fd5b505050506040513d601f19601f8201168201806040525081019061253a9190615155565b90506001600160a01b0381163314806125d0575060025460405163dbd4e02160e01b8152600481018590526001600160a01b039091169063dbd4e02190602401602060405180830381865afa158015612597573d6000803e3d6000fd5b505050506040513d601f19601f820116820180604052508101906125bb9190615155565b6001600160a01b0316336001600160a01b0316145b61261c5760405162461bcd60e51b815260206004820152601760248201527f4e4f545f4f574e45525f4f525f434f4e54524f4c4c4552000000000000000000604482015260640161090e565b612627878786614984565b6126735760405162461bcd60e51b815260206004820152601460248201527f414e494f4e5f4f525f52554c455f455849535453000000000000000000000000604482015260640161090e565b6002546040517f0aac66250000000000000000000000000000000000000000000000000000000081526004810189905260009182916001600160a01b0390911690630aac662590602401600060405180830381865afa1580156126da573d6000803e3d6000fd5b505050506040513d6000823e601f3d908101601f1916820160405261270291908101906151d6565b9092509050600061271660ff881684614acc565b9050876001600160a01b03168282815181106127345761273461532c565b60200260200101516001600160a01b0316036127925760405162461bcd60e51b815260206004820152600b60248201527f484f4f4b5f455849535453000000000000000000000000000000000000000000604482015260640161090e565b6002546040517f65edd522000000000000000000000000000000000000000000000000000000008152600481018c9052602481018b90526001600160a01b038a8116604483015260ff8a166064830152909116906365edd52290608401600060405180830381600087803b15801561280957600080fd5b505af115801561281d573d6000803e3d6000fd5b50505050897f600ffddd29393ca43c0a11fa6b0b7096631364178cb42f9d546c0a2cd22525ee8a60405161285391815260200190565b60405180910390a2604080516001600160a01b038a16815260ff891660208201528b917fc733a2bc621cc97eef6ed4f708f126e72e6acb76c0a1c0461c9dd31f7b987065910160405180910390a250505050505050505050565b6002546040516369762fe560e11b81526004810184905283916001600160a01b03169063d2ec5fca90602401602060405180830381865afa1580156128f6573d6000803e3d6000fd5b505050506040513d601f19601f8201168201806040525081019061291a919061513c565b42106129685760405162461bcd60e51b815260206004820152601060248201527f504f4c5943554c455f4558504952454400000000000000000000000000000000604482015260640161090e565b60015460025460405163f61ccd5360e01b8152600481018490526000926001600160a01b03908116926302571be39291169063f61ccd5390602401602060405180830381865afa1580156129c0573d6000803e3d6000fd5b505050506040513d601f19601f820116820180604052508101906129e4919061513c565b6040518263ffffffff1660e01b8152600401612a0291815260200190565b602060405180830381865afa158015612a1f573d6000803e3d6000fd5b505050506040513d601f19601f82011682018060405250810190612a439190615155565b90506001600160a01b0381163314612a9d5760405162461bcd60e51b815260206004820152600960248201527f4e4f545f4f574e45520000000000000000000000000000000000000000000000604482015260640161090e565b6001546040516302571be360e01b8152600481018590526000916001600160a01b0316906302571be390602401602060405180830381865afa158015612ae7573d6000803e3d6000fd5b505050506040513d601f19601f82011682018060405250810190612b0b9190615155565b6001600160a01b031603612b615760405162461bcd60e51b815260206004820152600b60248201527f43414e4e4f545f4255524e000000000000000000000000000000000000000000604482015260640161090e565b6002546040517f8146970a00000000000000000000000000000000000000000000000000000000815260048101869052602481018590526001600160a01b0390911690638146970a90604401600060405180830381600087803b158015612bc757600080fd5b505af1158015612bdb573d6000803e3d6000fd5b50505050837f4810581adf2c16a86a375dbb1ed89b0b0f7e64d48d24e1948b3dfe6581e4d79584604051612c1191815260200190565b60405180910390a250505050565b6002546040516369762fe560e11b81526004810185905284916001600160a01b03169063d2ec5fca90602401602060405180830381865afa158015612c68573d6000803e3d6000fd5b505050506040513d601f19601f82011682018060405250810190612c8c919061513c565b4210612cda5760405162461bcd60e51b815260206004820152601060248201527f504f4c5943554c455f4558504952454400000000000000000000000000000000604482015260640161090e565b60025460405163f61ccd5360e01b8152600481018390526000916001600160a01b03169063f61ccd5390602401602060405180830381865afa158015612d24573d6000803e3d6000fd5b505050506040513d601f19601f82011682018060405250810190612d48919061513c565b6001546040516302571be360e01b8152600481018390529192506000916001600160a01b03909116906302571be390602401602060405180830381865afa158015612d97573d6000803e3d6000fd5b505050506040513d601f19601f82011682018060405250810190612dbb9190615155565b90506001600160a01b038116331480612e51575060025460405163dbd4e02160e01b8152600481018590526001600160a01b039091169063dbd4e02190602401602060405180830381865afa158015612e18573d6000803e3d6000fd5b505050506040513d601f19601f82011682018060405250810190612e3c9190615155565b6001600160a01b0316336001600160a01b0316145b612e9d5760405162461bcd60e51b815260206004820152601760248201527f4e4f545f4f574e45525f4f525f434f4e54524f4c4c4552000000000000000000604482015260640161090e565b6002546040517f0aac66250000000000000000000000000000000000000000000000000000000081526004810188905260009182916001600160a01b0390911690630aac662590602401600060405180830381865afa158015612f04573d6000803e3d6000fd5b505050506040513d6000823e601f3d908101601f19168201604052612f2c91908101906151d6565b9092509050612f3e60ff871683614b18565b156130a2576000612f5260ff881684614acc565b9050876001600160a01b0316828281518110612f7057612f7061532c565b60200260200101516001600160a01b031603612fce5760405162461bcd60e51b815260206004820152600b60248201527f484f4f4b5f455849535453000000000000000000000000000000000000000000604482015260640161090e565b6002546040517f83669726000000000000000000000000000000000000000000000000000000008152600481018b90526001600160a01b038a8116602483015260ff8a16604483015290911690638366972690606401600060405180830381600087803b15801561303e57600080fd5b505af1158015613052573d6000803e3d6000fd5b5050604080516001600160a01b038c16815260ff8b1660208201528c93507fe43a78ddf6157361fe34d04905786138f88d3eda20b1f7dc0e2c619f9267310092500160405180910390a2506130d4565b6040517f7b4e5bfe00000000000000000000000000000000000000000000000000000000815260040160405180910390fd5b5050505050505050565b6002546040516369762fe560e11b81526004810184905283916001600160a01b03169063d2ec5fca90602401602060405180830381865afa158015613127573d6000803e3d6000fd5b505050506040513d601f19601f8201168201806040525081019061314b919061513c565b42106131995760405162461bcd60e51b815260206004820152601060248201527f504f4c5943554c455f4558504952454400000000000000000000000000000000604482015260640161090e565b60025460405163f61ccd5360e01b8152600481018390526000916001600160a01b03169063f61ccd5390602401602060405180830381865afa1580156131e3573d6000803e3d6000fd5b505050506040513d601f19601f82011682018060405250810190613207919061513c565b6001546040516302571be360e01b8152600481018390529192506000916001600160a01b03909116906302571be390602401602060405180830381865afa158015613256573d6000803e3d6000fd5b505050506040513d601f19601f8201168201806040525081019061327a9190615155565b90506001600160a01b038116331480613310575060025460405163dbd4e02160e01b8152600481018590526001600160a01b039091169063dbd4e02190602401602060405180830381865afa1580156132d7573d6000803e3d6000fd5b505050506040513d601f19601f820116820180604052508101906132fb9190615155565b6001600160a01b0316336001600160a01b0316145b61335c5760405162461bcd60e51b815260206004820152601760248201527f4e4f545f4f574e45525f4f525f434f4e54524f4c4c4552000000000000000000604482015260640161090e565b6002546040517f622dad7f000000000000000000000000000000000000000000000000000000008152600481018790526000916001600160a01b03169063622dad7f90602401600060405180830381865afa1580156133bf573d6000803e3d6000fd5b505050506040513d6000823e601f3d908101601f191682016040526133e7919081019061529b565b90506133f38582614931565b156134c35760006134048683614b67565b6002546040517f90072f97000000000000000000000000000000000000000000000000000000008152600481018a9052602481018390529192506001600160a01b0316906390072f9790604401600060405180830381600087803b15801561346b57600080fd5b505af115801561347f573d6000803e3d6000fd5b50505050867f5c379d054844760656a56e062f50208b458cfa0c4427574f5a2828d19602b4e9876040516134b591815260200190565b60405180910390a2506134f5565b6040517f62316f6700000000000000000000000000000000000000000000000000000000815260040160405180910390fd5b505050505050565b6002546040516369762fe560e11b81526004810184905283916001600160a01b03169063d2ec5fca90602401602060405180830381865afa158015613546573d6000803e3d6000fd5b505050506040513d601f19601f8201168201806040525081019061356a919061513c565b42106135b85760405162461bcd60e51b815260206004820152601060248201527f504f4c5943554c455f4558504952454400000000000000000000000000000000604482015260640161090e565b60025460405163f61ccd5360e01b8152600481018390526000916001600160a01b03169063f61ccd5390602401602060405180830381865afa158015613602573d6000803e3d6000fd5b505050506040513d601f19601f82011682018060405250810190613626919061513c565b6001546040516302571be360e01b8152600481018390529192506000916001600160a01b03909116906302571be390602401602060405180830381865afa158015613675573d6000803e3d6000fd5b505050506040513d601f19601f820116820180604052508101906136999190615155565b90506001600160a01b03811633148061372f575060025460405163dbd4e02160e01b8152600481018590526001600160a01b039091169063dbd4e02190602401602060405180830381865afa1580156136f6573d6000803e3d6000fd5b505050506040513d601f19601f8201168201806040525081019061371a9190615155565b6001600160a01b0316336001600160a01b0316145b61377b5760405162461bcd60e51b815260206004820152601760248201527f4e4f545f4f574e45525f4f525f434f4e54524f4c4c4552000000000000000000604482015260640161090e565b6002546040517f0aac6625000000000000000000000000000000000000000000000000000000008152600481018790526000916001600160a01b031690630aac662590602401600060405180830381865afa1580156137de573d6000803e3d6000fd5b505050506040513d6000823e601f3d908101601f1916820160405261380691908101906151d6565b50905061381660ff861682614b18565b156138e757600061382a60ff871683614acc565b6002546040517f833fda08000000000000000000000000000000000000000000000000000000008152600481018a905260ff89166024820152604481018390529192506001600160a01b03169063833fda0890606401600060405180830381600087803b15801561389a57600080fd5b505af11580156138ae573d6000803e3d6000fd5b505060405160ff891681528992507fbf47c0c608c230f7dffbcf65f8cdc76f5f920e4750eea1dcd09138a7359226ac91506020016134b5565b6040517fe8dd1d3e00000000000000000000000000000000000000000000000000000000815260040160405180910390fd5b6004546001600160a01b031633146139735760405162461bcd60e51b815260206004820152600760248201527f4e4f545f44455600000000000000000000000000000000000000000000000000604482015260640161090e565b7fffffffff0000000000000000000000000000000000000000000000000000000080831690036139e55760405162461bcd60e51b815260206004820152601a60248201527f494e56414c49445f494e544552464143455f53454c4543544f52000000000000604482015260640161090e565b7fffffffff0000000000000000000000000000000000000000000000000000000091909116600090815260056020526040902080547fffffffffffffffffffffffffffffffffffffffffffffffffffffffffffffff0016911515919091179055565b60025460405163f61ccd5360e01b81526004810184905283916000916001600160a01b039091169063f61ccd5390602401602060405180830381865afa158015613a95573d6000803e3d6000fd5b505050506040513d601f19601f82011682018060405250810190613ab9919061513c565b6001546040516302571be360e01b8152600481018390529192506000916001600160a01b03909116906302571be390602401602060405180830381865afa158015613b08573d6000803e3d6000fd5b505050506040513d601f19601f82011682018060405250810190613b2c9190615155565b6008549091506001600160a01b0316331480613b5057506001600160a01b03811633145b80613bd8575060025460405163dbd4e02160e01b8152600481018590526001600160a01b039091169063dbd4e02190602401602060405180830381865afa158015613b9f573d6000803e3d6000fd5b505050506040513d601f19601f82011682018060405250810190613bc39190615155565b6001600160a01b0316336001600160a01b0316145b613c245760405162461bcd60e51b815260206004820152600e60248201527f4e4f545f415554484f5249534544000000000000000000000000000000000000604482015260640161090e565b6002546040517fd07699aa0000000000000000000000000000000000000000000000000000000081526004810187905285151560248201526001600160a01b039091169063d07699aa90604401600060405180830381600087803b158015613c8b57600080fd5b505af1158015613c9f573d6000803e3d6000fd5b50505050847fe6ccdb52b4954ab2c3e293f1dbfe593e6c5630962a1944bfcf20c5563eeb846285604051610d8f911515815260200190565b6002546040516369762fe560e11b8152600481018390526000916001600160a01b03169063d2ec5fca90602401602060405180830381865afa158015613d21573d6000803e3d6000fd5b505050506040513d601f19601f82011682018060405250810190613d45919061513c565b92915050565b60025460405163f61ccd5360e01b81526004810184905283916000916001600160a01b039091169063f61ccd5390602401602060405180830381865afa158015613d99573d6000803e3d6000fd5b505050506040513d601f19601f82011682018060405250810190613dbd919061513c565b6001546040516302571be360e01b8152600481018390529192506000916001600160a01b03909116906302571be390602401602060405180830381865afa158015613e0c573d6000803e3d6000fd5b505050506040513d601f19601f82011682018060405250810190613e309190615155565b6008549091506001600160a01b0316331480613e5457506001600160a01b03811633145b80613edc575060025460405163dbd4e02160e01b8152600481018590526001600160a01b039091169063dbd4e02190602401602060405180830381865afa158015613ea3573d6000803e3d6000fd5b505050506040513d601f19601f82011682018060405250810190613ec79190615155565b6001600160a01b0316336001600160a01b0316145b613f285760405162461bcd60e51b815260206004820152600e60248201527f4e4f545f415554484f5249534544000000000000000000000000000000000000604482015260640161090e565b6002546040517fd3156905000000000000000000000000000000000000000000000000000000008152600481018790526001600160a01b0386811660248301529091169063d315690590604401600060405180830381600087803b158015613f8f57600080fd5b505af1158015613fa3573d6000803e3d6000fd5b50506040516001600160a01b03871681528792507fe5108446a6097aab57fd36f346a515a78fddefa87d81662d44e0d7a463f920959150602001610d8f565b6002546040516369762fe560e11b81526004810183905260009183916001600160a01b039091169063d2ec5fca90602401602060405180830381865afa158015614030573d6000803e3d6000fd5b505050506040513d601f19601f82011682018060405250810190614054919061513c565b42106140a25760405162461bcd60e51b815260206004820152600c60248201527f4e414d455f455850495245440000000000000000000000000000000000000000604482015260640161090e565b60025460405163dbd4e02160e01b8152600481018590526001600160a01b039091169063dbd4e0219060240161095d565b6008546001600160a01b0316331461412d5760405162461bcd60e51b815260206004820152600d60248201527f4e4f545f52454749535452415200000000000000000000000000000000000000604482015260640161090e565b6002546040517fdeee4da900000000000000000000000000000000000000000000000000000000815260048101849052602481018390526001600160a01b039091169063deee4da990604401600060405180830381600087803b15801561419357600080fd5b505af11580156134f5573d6000803e3d6000fd5b6004546001600160a01b031633146142015760405162461bcd60e51b815260206004820152600760248201527f4e4f545f44455600000000000000000000000000000000000000000000000000604482015260640161090e565b6004546040516001600160a01b038084169216907f8be0079c531659141344cd1fd0a4f28419497f9722a3daafe3b4186f6b6457e090600090a3600480547fffffffffffffffffffffffff0000000000000000000000000000000000000000166001600160a01b0392909216919091179055565b6002546040516369762fe560e11b81526004810184905283916001600160a01b03169063d2ec5fca90602401602060405180830381865afa1580156142be573d6000803e3d6000fd5b505050506040513d601f19601f820116820180604052508101906142e2919061513c565b42106143305760405162461bcd60e51b815260206004820152601060248201527f504f4c5943554c455f4558504952454400000000000000000000000000000000604482015260640161090e565b60025460405163f61ccd5360e01b8152600481018390526000916001600160a01b03169063f61ccd5390602401602060405180830381865afa15801561437a573d6000803e3d6000fd5b505050506040513d601f19601f8201168201806040525081019061439e919061513c565b6001546040516302571be360e01b8152600481018390529192506000916001600160a01b03909116906302571be390602401602060405180830381865afa1580156143ed573d6000803e3d6000fd5b505050506040513d601f19601f820116820180604052508101906144119190615155565b90506001600160a01b0381163314806144a7575060025460405163dbd4e02160e01b8152600481018590526001600160a01b039091169063dbd4e02190602401602060405180830381865afa15801561446e573d6000803e3d6000fd5b505050506040513d601f19601f820116820180604052508101906144929190615155565b6001600160a01b0316336001600160a01b0316145b6144f35760405162461bcd60e51b815260206004820152601760248201527f4e4f545f4f574e45525f4f525f434f4e54524f4c4c4552000000000000000000604482015260640161090e565b6002546040516369762fe560e11b8152600481018790526000916001600160a01b03169063d2ec5fca90602401602060405180830381865afa15801561453d573d6000803e3d6000fd5b505050506040513d601f19601f82011682018060405250810190614561919061513c565b90508085116145b25760405162461bcd60e51b815260206004820152600a60248201527f4241445f45585049525900000000000000000000000000000000000000000000604482015260640161090e565b6007546145bf828761549d565b6145c991906154b0565b3410156146185760405162461bcd60e51b815260206004820152601260248201527f494e53554646494349454e545f45544845520000000000000000000000000000604482015260640161090e565b6002546040517f39de646900000000000000000000000000000000000000000000000000000000815260048101889052602481018790526001600160a01b03909116906339de646990604401600060405180830381600087803b15801561467e57600080fd5b505af1158015614692573d6000803e3d6000fd5b50505050857fa620b72378ee464490805a96e25b53e5c0076f0ce2d28f9691ae255a595b3bf3866040516146c891815260200190565b60405180910390a2505050505050565b6002546040516369762fe560e11b81526004810183905260009183916001600160a01b039091169063d2ec5fca90602401602060405180830381865afa158015614726573d6000803e3d6000fd5b505050506040513d601f19601f8201168201806040525081019061474a919061513c565b42106147985760405162461bcd60e51b815260206004820152600c60248201527f4e414d455f455850495245440000000000000000000000000000000000000000604482015260640161090e565b60025460405163f61ccd5360e01b8152600481018590526000916001600160a01b03169063f61ccd5390602401602060405180830381865afa1580156147e2573d6000803e3d6000fd5b505050506040513d601f19601f82011682018060405250810190614806919061513c565b6001546040516302571be360e01b8152600481018390529192506000916001600160a01b03909116906302571be390602401602060405180830381865afa158015614855573d6000803e3d6000fd5b505050506040513d601f19601f820116820180604052508101906148799190615155565b9050306001600160a01b038216036148975750600092506109a19050565b509392505050565b6002546040516369762fe560e11b8152600481018390526000916001600160a01b03169063d2ec5fca90602401602060405180830381865afa1580156148e9573d6000803e3d6000fd5b505050506040513d601f19601f8201168201806040525081019061490d919061513c565b421092915050565b6000815183510361492857506001613d45565b50600092915050565b6000805b825181101561497a57838382815181106149515761495161532c565b602002602001015103614968576001915050613d45565b806149728161538a565b915050614935565b5060009392505050565b6002546040517f0aac66250000000000000000000000000000000000000000000000000000000081526004810185905260009182916001600160a01b0390911690630aac662590602401600060405180830381865afa1580156149eb573d6000803e3d6000fd5b505050506040513d6000823e601f3d908101601f19168201604052614a1391908101906151d6565b506002546040517f622dad7f00000000000000000000000000000000000000000000000000000000815260048101889052919250614aac916001600160a01b039091169063622dad7f90602401600060405180830381865afa158015614a7d573d6000803e3d6000fd5b505050506040513d6000823e601f3d908101601f19168201604052614aa5919081019061529b565b8590614931565b158015614ac35750614ac160ff841682614b18565b155b95945050505050565b6000805b825181101561497a578360ff16838281518110614aef57614aef61532c565b602002602001015160ff1603614b06579050613d45565b80614b108161538a565b915050614ad0565b6000805b825181101561497a578360ff16838281518110614b3b57614b3b61532c565b602002602001015160ff1603614b55576001915050613d45565b80614b5f8161538a565b915050614b1c565b6000805b825181101561497a5783838281518110614b8757614b8761532c565b602002602001015103614b9b579050613d45565b80614ba58161538a565b915050614b6b565b600060208284031215614bbf57600080fd5b5035919050565b80357fffffffff0000000000000000000000000000000000000000000000000000000081168114614bf657600080fd5b919050565b600060208284031215614c0d57600080fd5b614c1682614bc6565b9392505050565b604080825283519082018190526000906020906060840190828701845b82811015614c5957815160ff1684529284019290840190600101614c3a565b5050508381038285015284518082528583019183019060005b81811015614c975783516001600160a01b031683529284019291840191600101614c72565b5090979650505050505050565b6001600160a01b0381168114614cb957600080fd5b50565b60008060408385031215614ccf57600080fd5b823591506020830135614ce181614ca4565b809150509250929050565b7f4e487b7100000000000000000000000000000000000000000000000000000000600052604160045260246000fd5b6040516080810167ffffffffffffffff81118282101715614d3e57614d3e614cec565b60405290565b604051601f8201601f1916810167ffffffffffffffff81118282101715614d6d57614d6d614cec565b604052919050565b600067ffffffffffffffff821115614d8f57614d8f614cec565b5060051b60200190565b600082601f830112614daa57600080fd5b81356020614dbf614dba83614d75565b614d44565b82815260059290921b84018101918181019086841115614dde57600080fd5b8286015b84811015614e02578035614df581614ca4565b8352918301918301614de2565b509695505050505050565b60ff81168114614cb957600080fd5b600082601f830112614e2d57600080fd5b81356020614e3d614dba83614d75565b82815260059290921b84018101918181019086841115614e5c57600080fd5b8286015b84811015614e02578035614e7381614e0d565b8352918301918301614e60565b60008060008060808587031215614e9657600080fd5b8435935060208086013567ffffffffffffffff80821115614eb657600080fd5b818801915088601f830112614eca57600080fd5b8135614ed8614dba82614d75565b81815260059190911b8301840190848101908b831115614ef757600080fd5b938501935b82851015614f1557843582529385019390850190614efc565b975050506040880135925080831115614f2d57600080fd5b614f3989848a01614d99565b94506060880135925080831115614f4f57600080fd5b5050614f5d87828801614e1c565b91505092959194509250565b60008060408385031215614f7c57600080fd5b50508035926020909101359150565b600080600060608486031215614fa057600080fd5b8335614fab81614ca4565b92506020840135614fbb81614ca4565b91506040840135614fcb81614ca4565b809150509250925092565b60008060008060808587031215614fec57600080fd5b8435935060208501359250604085013561500581614ca4565b9150606085013561501581614e0d565b939692955090935050565b6020808252825182820181905260009190848201906040850190845b818110156150585783518352928401929184019160010161503c565b50909695505050505050565b60008060006060848603121561507957600080fd5b83359250602084013561508b81614ca4565b91506040840135614fcb81614e0d565b600080604083850312156150ae57600080fd5b823591506020830135614ce181614e0d565b8015158114614cb957600080fd5b600080604083850312156150e157600080fd5b6150ea83614bc6565b91506020830135614ce1816150c0565b6000806040838503121561510d57600080fd5b823591506020830135614ce1816150c0565b60006020828403121561513157600080fd5b8135614c1681614ca4565b60006020828403121561514e57600080fd5b5051919050565b60006020828403121561516757600080fd5b8151614c1681614ca4565b600082601f83011261518357600080fd5b81516020615193614dba83614d75565b82815260059290921b840181019181810190868411156151b257600080fd5b8286015b84811015614e025780516151c981614ca4565b83529183019183016151b6565b600080604083850312156151e957600080fd5b825167ffffffffffffffff8082111561520157600080fd5b818501915085601f83011261521557600080fd5b81516020615225614dba83614d75565b82815260059290921b8401810191818101908984111561524457600080fd5b948201945b8386101561526b57855161525c81614e0d565b82529482019490820190615249565b9188015191965090935050508082111561528457600080fd5b5061529185828601615172565b9150509250929050565b600060208083850312156152ae57600080fd5b825167ffffffffffffffff8111156152c557600080fd5b8301601f810185136152d657600080fd5b80516152e4614dba82614d75565b81815260059190911b8201830190838101908783111561530357600080fd5b928401925b8284101561532157835182529284019290840190615308565b979650505050505050565b7f4e487b7100000000000000000000000000000000000000000000000000000000600052603260045260246000fd5b7f4e487b7100000000000000000000000000000000000000000000000000000000600052601160045260246000fd5b60007fffffffffffffffffffffffffffffffffffffffffffffffffffffffffffffffff82036153bb576153bb61535b565b5060010190565b6000608082840312156153d457600080fd5b82601f8301126153e357600080fd5b6153eb614d1b565b8060808401858111156153fd57600080fd5b845b818110156154175780518452602093840193016153ff565b509095945050505050565b60006080828403121561543457600080fd5b82601f83011261544357600080fd5b61544b614d1b565b80608084018581111561545d57600080fd5b845b8181101561541757805161547281614ca4565b84526020938401930161545f565b60006020828403121561549257600080fd5b8151614c16816150c0565b81810381811115613d4557613d4561535b565b6000817fffffffffffffffffffffffffffffffffffffffffffffffffffffffffffffffff04831182151516156154e8576154e861535b565b50029056fea264697066735822122091be35d896f48f3fedf97157cf072c32b84405b9d2f12aee7a3871c908034cd664736f6c63430008100033",
    "linkReferences": {}
  },
  "methodIdentifiers": {
    "Dev()": "01e51ae8",
    "HELIX2()": "b782426e",
    "NAMES()": "05e84aa0",
    "PRICES()": "1eabcd34",
    "Registrar()": "b9f37c86",
    "STORE()": "507f1465",
    "active()": "02fb0c5e",
    "addAnionWithConfig(bytes32,bytes32,address,uint8)": "65edd522",
    "anions(bytes32)": "622dad7f",
    "basePrice()": "c7876ea4",
    "cation(bytes32)": "f61ccd53",
    "controller(bytes32)": "dbd4e021",
    "covalence(bytes32)": "34026859",
    "expiry(bytes32)": "d2ec5fca",
    "hook(bytes32,bytes32,address,uint8)": "4475bf4b",
    "hooksWithRules(bytes32)": "0aac6625",
    "label(bytes32)": "1fc4859e",
    "owner()": "8da5cb5b",
    "popAnion(bytes32,bytes32)": "8dcad139",
    "recordExists(bytes32)": "f79fe538",
    "register(bytes32,bytes32)": "2f926732",
    "rehook(bytes32,address,uint8)": "83669726",
    "renew(bytes32,uint256)": "f544d82f",
    "resolver(bytes32)": "0178b8bf",
    "roothash()": "251c9422",
    "setAnions(bytes32,bytes32[],address[],uint8[])": "250548b9",
    "setCation(bytes32,bytes32)": "8146970a",
    "setConfig(address,address,address)": "3141e25b",
    "setController(bytes32,address)": "d3156905",
    "setCovalence(bytes32,bool)": "d07699aa",
    "setExpiry(bytes32,uint256)": "39de6469",
    "setInterface(bytes4,bool)": "c0a43a7c",
    "setLabel(bytes32,bytes32)": "deee4da9",
    "setResolver(bytes32,address)": "1896f70a",
    "supportedInterfaces(bytes4)": "1584ba38",
    "supportsInterface(bytes4)": "01ffc9a7",
    "theEnd()": "22b68deb",
    "toggleActive()": "29c68dc1",
    "transferOwnership(address)": "f2fde38b",
    "unhook(bytes32,uint8)": "b612e9b9",
    "unhookAll(bytes32)": "21ec2b5b"
  },
  "id": 46
}