{
  "abi": [
    {
      "inputs": [
        {
          "internalType": "address",
          "name": "_registry",
          "type": "address"
        },
        {
          "internalType": "address",
          "name": "_helix2",
          "type": "address"
        }
      ],
      "stateMutability": "nonpayable",
      "type": "constructor"
    },
    {
      "inputs": [
        {
          "internalType": "bytes32",
          "name": "polyhash",
          "type": "bytes32"
        },
        {
          "internalType": "bytes32",
          "name": "anion",
          "type": "bytes32"
        }
      ],
      "name": "AnionNotFound",
      "type": "error"
    },
    {
      "anonymous": false,
      "inputs": [
        {
          "indexed": true,
          "internalType": "address",
          "name": "cation",
          "type": "address"
        },
        {
          "indexed": true,
          "internalType": "address",
          "name": "operator",
          "type": "address"
        },
        {
          "indexed": false,
          "internalType": "bool",
          "name": "approved",
          "type": "bool"
        }
      ],
      "name": "ApprovalForAll",
      "type": "event"
    },
    {
      "anonymous": false,
      "inputs": [
        {
          "indexed": true,
          "internalType": "bytes32",
          "name": "polyhash",
          "type": "bytes32"
        },
        {
          "indexed": false,
          "internalType": "address",
          "name": "config",
          "type": "address"
        },
        {
          "indexed": false,
          "internalType": "uint8",
          "name": "rule",
          "type": "uint8"
        }
      ],
      "name": "Hooked",
      "type": "event"
    },
    {
      "anonymous": false,
      "inputs": [
        {
          "indexed": true,
          "internalType": "bytes32",
          "name": "polyhash",
          "type": "bytes32"
        },
        {
          "indexed": false,
          "internalType": "bytes32",
          "name": "_alias",
          "type": "bytes32"
        }
      ],
      "name": "NewAlias",
      "type": "event"
    },
    {
      "anonymous": false,
      "inputs": [
        {
          "indexed": true,
          "internalType": "bytes32",
          "name": "polyhash",
          "type": "bytes32"
        },
        {
          "indexed": false,
          "internalType": "bytes32",
          "name": "anion",
          "type": "bytes32"
        }
      ],
      "name": "NewAnion",
      "type": "event"
    },
    {
      "anonymous": false,
      "inputs": [
        {
          "indexed": true,
          "internalType": "bytes32",
          "name": "polyhash",
          "type": "bytes32"
        },
        {
          "indexed": false,
          "internalType": "bytes32[]",
          "name": "anion",
          "type": "bytes32[]"
        }
      ],
      "name": "NewAnions",
      "type": "event"
    },
    {
      "anonymous": false,
      "inputs": [
        {
          "indexed": true,
          "internalType": "bytes32",
          "name": "polyhash",
          "type": "bytes32"
        },
        {
          "indexed": false,
          "internalType": "bytes32",
          "name": "cation",
          "type": "bytes32"
        }
      ],
      "name": "NewCation",
      "type": "event"
    },
    {
      "anonymous": false,
      "inputs": [
        {
          "indexed": true,
          "internalType": "bytes32",
          "name": "polyhash",
          "type": "bytes32"
        },
        {
          "indexed": false,
          "internalType": "address",
          "name": "controller",
          "type": "address"
        }
      ],
      "name": "NewController",
      "type": "event"
    },
    {
      "anonymous": false,
      "inputs": [
        {
          "indexed": true,
          "internalType": "bytes32",
          "name": "polyhash",
          "type": "bytes32"
        },
        {
          "indexed": false,
          "internalType": "bool",
          "name": "covalence",
          "type": "bool"
        }
      ],
      "name": "NewCovalence",
      "type": "event"
    },
    {
      "anonymous": false,
      "inputs": [
        {
          "indexed": false,
          "internalType": "address",
          "name": "Dev",
          "type": "address"
        },
        {
          "indexed": false,
          "internalType": "address",
          "name": "newDev",
          "type": "address"
        }
      ],
      "name": "NewDev",
      "type": "event"
    },
    {
      "anonymous": false,
      "inputs": [
        {
          "indexed": true,
          "internalType": "bytes32",
          "name": "polyhash",
          "type": "bytes32"
        },
        {
          "indexed": false,
          "internalType": "uint256",
          "name": "expiry",
          "type": "uint256"
        }
      ],
      "name": "NewExpiry",
      "type": "event"
    },
    {
      "anonymous": false,
      "inputs": [
        {
          "indexed": true,
          "internalType": "bytes32",
          "name": "polyhash",
          "type": "bytes32"
        },
        {
          "indexed": false,
          "internalType": "bytes32",
          "name": "cation",
          "type": "bytes32"
        }
      ],
      "name": "NewPolycule",
      "type": "event"
    },
    {
      "anonymous": false,
      "inputs": [
        {
          "indexed": true,
          "internalType": "bytes32",
          "name": "polyhash",
          "type": "bytes32"
        },
        {
          "indexed": false,
          "internalType": "address",
          "name": "resolver",
          "type": "address"
        }
      ],
      "name": "NewRecord",
      "type": "event"
    },
    {
      "anonymous": false,
      "inputs": [
        {
          "indexed": true,
          "internalType": "bytes32",
          "name": "polyhash",
          "type": "bytes32"
        },
        {
          "indexed": false,
          "internalType": "address",
          "name": "resolver",
          "type": "address"
        }
      ],
      "name": "NewResolver",
      "type": "event"
    },
    {
      "anonymous": false,
      "inputs": [
        {
          "indexed": true,
          "internalType": "bytes32",
          "name": "polyhash",
          "type": "bytes32"
        },
        {
          "indexed": false,
          "internalType": "bytes32",
          "name": "anion",
          "type": "bytes32"
        }
      ],
      "name": "PopAnion",
      "type": "event"
    },
    {
      "anonymous": false,
      "inputs": [
        {
          "indexed": true,
          "internalType": "bytes32",
          "name": "polyhash",
          "type": "bytes32"
        },
        {
          "indexed": false,
          "internalType": "bytes32",
          "name": "anion",
          "type": "bytes32"
        },
        {
          "indexed": false,
          "internalType": "uint8",
          "name": "rule",
          "type": "uint8"
        }
      ],
      "name": "RehookedAnion",
      "type": "event"
    },
    {
      "anonymous": false,
      "inputs": [
        {
          "indexed": true,
          "internalType": "bytes32",
          "name": "polyhash",
          "type": "bytes32"
        },
        {
          "indexed": false,
          "internalType": "address",
          "name": "config",
          "type": "address"
        },
        {
          "indexed": false,
          "internalType": "uint8",
          "name": "rule",
          "type": "uint8"
        }
      ],
      "name": "RehookedConfig",
      "type": "event"
    },
    {
      "anonymous": false,
      "inputs": [
        {
          "indexed": true,
          "internalType": "bytes32",
          "name": "polyhash",
          "type": "bytes32"
        }
      ],
      "name": "UnhookedAll",
      "type": "event"
    },
    {
      "anonymous": false,
      "inputs": [
        {
          "indexed": true,
          "internalType": "bytes32",
          "name": "polyhash",
          "type": "bytes32"
        },
        {
          "indexed": false,
          "internalType": "bytes32",
          "name": "anion",
          "type": "bytes32"
        }
      ],
      "name": "UnhookedAnion",
      "type": "event"
    },
    {
      "anonymous": false,
      "inputs": [
        {
          "indexed": true,
          "internalType": "bytes32",
          "name": "polyhash",
          "type": "bytes32"
        },
        {
          "indexed": false,
          "internalType": "address",
          "name": "config",
          "type": "address"
        }
      ],
      "name": "UnhookedConfig",
      "type": "event"
    },
    {
      "inputs": [],
      "name": "Dev",
      "outputs": [
        {
          "internalType": "address",
          "name": "",
          "type": "address"
        }
      ],
      "stateMutability": "view",
      "type": "function"
    },
    {
      "inputs": [],
      "name": "HELIX2",
      "outputs": [
        {
          "internalType": "contract iHELIX2",
          "name": "",
          "type": "address"
        }
      ],
      "stateMutability": "view",
      "type": "function"
    },
    {
      "inputs": [],
      "name": "NAMES",
      "outputs": [
        {
          "internalType": "contract iNAME",
          "name": "",
          "type": "address"
        }
      ],
      "stateMutability": "view",
      "type": "function"
    },
    {
      "inputs": [
        {
          "internalType": "bytes32",
          "name": "",
          "type": "bytes32"
        }
      ],
      "name": "Polycules",
      "outputs": [
        {
          "internalType": "bytes32",
          "name": "_cation",
          "type": "bytes32"
        },
        {
          "internalType": "bytes32",
          "name": "_alias",
          "type": "bytes32"
        },
        {
          "internalType": "address",
          "name": "_resolver",
          "type": "address"
        },
        {
          "internalType": "address",
          "name": "_controller",
          "type": "address"
        },
        {
          "internalType": "bool",
          "name": "_covalence",
          "type": "bool"
        },
        {
          "internalType": "uint256",
          "name": "_expiry",
          "type": "uint256"
        }
      ],
      "stateMutability": "view",
      "type": "function"
    },
    {
      "inputs": [
        {
          "internalType": "bytes32",
          "name": "polyhash",
          "type": "bytes32"
        },
        {
          "internalType": "bytes32",
          "name": "_anion",
          "type": "bytes32"
        },
        {
          "internalType": "address",
          "name": "config",
          "type": "address"
        },
        {
          "internalType": "uint8",
          "name": "rule",
          "type": "uint8"
        }
      ],
      "name": "addAnion",
      "outputs": [],
      "stateMutability": "nonpayable",
      "type": "function"
    },
    {
      "inputs": [
        {
          "internalType": "bytes32",
          "name": "polyhash",
          "type": "bytes32"
        }
      ],
      "name": "anion",
      "outputs": [
        {
          "internalType": "bytes32[]",
          "name": "",
          "type": "bytes32[]"
        }
      ],
      "stateMutability": "view",
      "type": "function"
    },
    {
      "inputs": [],
      "name": "basePrice",
      "outputs": [
        {
          "internalType": "uint256",
          "name": "",
          "type": "uint256"
        }
      ],
      "stateMutability": "view",
      "type": "function"
    },
    {
      "inputs": [
        {
          "internalType": "bytes32",
          "name": "polyhash",
          "type": "bytes32"
        }
      ],
      "name": "cation",
      "outputs": [
        {
          "internalType": "bytes32",
          "name": "",
          "type": "bytes32"
        }
      ],
      "stateMutability": "view",
      "type": "function"
    },
    {
      "inputs": [
        {
          "internalType": "address",
          "name": "newDev",
          "type": "address"
        }
      ],
      "name": "changeDev",
      "outputs": [],
      "stateMutability": "nonpayable",
      "type": "function"
    },
    {
      "inputs": [
        {
          "internalType": "bytes32",
          "name": "polyhash",
          "type": "bytes32"
        }
      ],
      "name": "controller",
      "outputs": [
        {
          "internalType": "address",
          "name": "",
          "type": "address"
        }
      ],
      "stateMutability": "view",
      "type": "function"
    },
    {
      "inputs": [
        {
          "internalType": "bytes32",
          "name": "polyhash",
          "type": "bytes32"
        }
      ],
      "name": "covalence",
      "outputs": [
        {
          "internalType": "bool",
          "name": "",
          "type": "bool"
        }
      ],
      "stateMutability": "view",
      "type": "function"
    },
    {
      "inputs": [
        {
          "internalType": "bytes32",
          "name": "polyhash",
          "type": "bytes32"
        }
      ],
      "name": "expiry",
      "outputs": [
        {
          "internalType": "uint256",
          "name": "",
          "type": "uint256"
        }
      ],
      "stateMutability": "view",
      "type": "function"
    },
    {
      "inputs": [
        {
          "internalType": "bytes32",
          "name": "__anion",
          "type": "bytes32"
        },
        {
          "internalType": "bytes32",
          "name": "polyhash",
          "type": "bytes32"
        },
        {
          "internalType": "uint8",
          "name": "rule",
          "type": "uint8"
        },
        {
          "internalType": "address",
          "name": "config",
          "type": "address"
        }
      ],
      "name": "hook",
      "outputs": [],
      "stateMutability": "nonpayable",
      "type": "function"
    },
    {
      "inputs": [
        {
          "internalType": "bytes32",
          "name": "polyhash",
          "type": "bytes32"
        }
      ],
      "name": "hooks",
      "outputs": [
        {
          "internalType": "address[]",
          "name": "",
          "type": "address[]"
        },
        {
          "internalType": "uint8[]",
          "name": "",
          "type": "uint8[]"
        }
      ],
      "stateMutability": "view",
      "type": "function"
    },
    {
      "inputs": [
        {
          "internalType": "bytes32",
          "name": "_cation",
          "type": "bytes32"
        },
        {
          "internalType": "address",
          "name": "operator",
          "type": "address"
        }
      ],
      "name": "isApprovedForAll",
      "outputs": [
        {
          "internalType": "bool",
          "name": "",
          "type": "bool"
        }
      ],
      "stateMutability": "view",
      "type": "function"
    },
    {
      "inputs": [
        {
          "internalType": "bytes32[]",
          "name": "_anion",
          "type": "bytes32[]"
        },
        {
          "internalType": "address[]",
          "name": "_config",
          "type": "address[]"
        }
      ],
      "name": "isLegalMap",
      "outputs": [
        {
          "internalType": "bool",
          "name": "",
          "type": "bool"
        }
      ],
      "stateMutability": "pure",
      "type": "function"
    },
    {
      "inputs": [
        {
          "internalType": "bytes32",
          "name": "polyhash",
          "type": "bytes32"
        },
        {
          "internalType": "bytes32",
          "name": "_anion",
          "type": "bytes32"
        }
      ],
      "name": "isNotDuplicateAnion",
      "outputs": [
        {
          "internalType": "bool",
          "name": "",
          "type": "bool"
        }
      ],
      "stateMutability": "view",
      "type": "function"
    },
    {
      "inputs": [
        {
          "internalType": "bytes32",
          "name": "polyhash",
          "type": "bytes32"
        },
        {
          "internalType": "address",
          "name": "config",
          "type": "address"
        }
      ],
      "name": "isNotDuplicateHook",
      "outputs": [
        {
          "internalType": "bool",
          "name": "",
          "type": "bool"
        }
      ],
      "stateMutability": "view",
      "type": "function"
    },
    {
      "inputs": [
        {
          "internalType": "bytes32",
          "name": "polyhash",
          "type": "bytes32"
        },
        {
          "internalType": "bytes32",
          "name": "__anion",
          "type": "bytes32"
        }
      ],
      "name": "popAnion",
      "outputs": [],
      "stateMutability": "nonpayable",
      "type": "function"
    },
    {
      "inputs": [
        {
          "internalType": "bytes32",
          "name": "polyhash",
          "type": "bytes32"
        }
      ],
      "name": "recordExists",
      "outputs": [
        {
          "internalType": "bool",
          "name": "",
          "type": "bool"
        }
      ],
      "stateMutability": "view",
      "type": "function"
    },
    {
      "inputs": [
        {
          "internalType": "bytes32",
          "name": "polyhash",
          "type": "bytes32"
        },
        {
          "internalType": "uint8",
          "name": "rule",
          "type": "uint8"
        },
        {
          "internalType": "address",
          "name": "config",
          "type": "address"
        }
      ],
      "name": "rehook",
      "outputs": [],
      "stateMutability": "nonpayable",
      "type": "function"
    },
    {
      "inputs": [
        {
          "internalType": "bytes32",
          "name": "polyhash",
          "type": "bytes32"
        },
        {
          "internalType": "uint8",
          "name": "rule",
          "type": "uint8"
        },
        {
          "internalType": "bytes32",
          "name": "__anion",
          "type": "bytes32"
        }
      ],
      "name": "rehook",
      "outputs": [],
      "stateMutability": "nonpayable",
      "type": "function"
    },
    {
      "inputs": [
        {
          "internalType": "bytes32",
          "name": "polyhash",
          "type": "bytes32"
        }
      ],
      "name": "resolver",
      "outputs": [
        {
          "internalType": "address",
          "name": "",
          "type": "address"
        }
      ],
      "stateMutability": "view",
      "type": "function"
    },
    {
      "inputs": [],
      "name": "roothash",
      "outputs": [
        {
          "internalType": "bytes32",
          "name": "",
          "type": "bytes32"
        }
      ],
      "stateMutability": "view",
      "type": "function"
    },
    {
      "inputs": [
        {
          "internalType": "bytes32",
          "name": "polyhash",
          "type": "bytes32"
        },
        {
          "internalType": "bytes32",
          "name": "_alias",
          "type": "bytes32"
        }
      ],
      "name": "setAlias",
      "outputs": [],
      "stateMutability": "nonpayable",
      "type": "function"
    },
    {
      "inputs": [
        {
          "internalType": "bytes32",
          "name": "polyhash",
          "type": "bytes32"
        },
        {
          "internalType": "bytes32[]",
          "name": "_anion",
          "type": "bytes32[]"
        },
        {
          "internalType": "address[]",
          "name": "_config",
          "type": "address[]"
        },
        {
          "internalType": "uint8[]",
          "name": "_rules",
          "type": "uint8[]"
        }
      ],
      "name": "setAnions",
      "outputs": [],
      "stateMutability": "nonpayable",
      "type": "function"
    },
    {
      "inputs": [
        {
          "internalType": "address",
          "name": "operator",
          "type": "address"
        },
        {
          "internalType": "bool",
          "name": "approved",
          "type": "bool"
        }
      ],
      "name": "setApprovalForAll",
      "outputs": [],
      "stateMutability": "nonpayable",
      "type": "function"
    },
    {
      "inputs": [
        {
          "internalType": "bytes32",
          "name": "polyhash",
          "type": "bytes32"
        },
        {
          "internalType": "bytes32",
          "name": "_cation",
          "type": "bytes32"
        }
      ],
      "name": "setCation",
      "outputs": [],
      "stateMutability": "nonpayable",
      "type": "function"
    },
    {
      "inputs": [
        {
          "internalType": "bytes32",
          "name": "polyhash",
          "type": "bytes32"
        },
        {
          "internalType": "address",
          "name": "_controller",
          "type": "address"
        }
      ],
      "name": "setController",
      "outputs": [],
      "stateMutability": "nonpayable",
      "type": "function"
    },
    {
      "inputs": [
        {
          "internalType": "bytes32",
          "name": "polyhash",
          "type": "bytes32"
        },
        {
          "internalType": "bool",
          "name": "_covalence",
          "type": "bool"
        }
      ],
      "name": "setCovalence",
      "outputs": [],
      "stateMutability": "nonpayable",
      "type": "function"
    },
    {
      "inputs": [
        {
          "internalType": "bytes32",
          "name": "polyhash",
          "type": "bytes32"
        },
        {
          "internalType": "uint256",
          "name": "_expiry",
          "type": "uint256"
        }
      ],
      "name": "setExpiry",
      "outputs": [],
      "stateMutability": "payable",
      "type": "function"
    },
    {
      "inputs": [
        {
          "internalType": "bytes32",
          "name": "polyhash",
          "type": "bytes32"
        },
        {
          "internalType": "address",
          "name": "_resolver",
          "type": "address"
        }
      ],
      "name": "setRecord",
      "outputs": [],
      "stateMutability": "nonpayable",
      "type": "function"
    },
    {
      "inputs": [
        {
          "internalType": "bytes32",
          "name": "polyhash",
          "type": "bytes32"
        },
        {
          "internalType": "address",
          "name": "_resolver",
          "type": "address"
        }
      ],
      "name": "setResolver",
      "outputs": [],
      "stateMutability": "nonpayable",
      "type": "function"
    },
    {
      "inputs": [],
      "name": "theEnd",
      "outputs": [
        {
          "internalType": "uint256",
          "name": "",
          "type": "uint256"
        }
      ],
      "stateMutability": "view",
      "type": "function"
    },
    {
      "inputs": [
        {
          "internalType": "bytes32",
          "name": "polyhash",
          "type": "bytes32"
        },
        {
          "internalType": "address",
          "name": "config",
          "type": "address"
        }
      ],
      "name": "unhook",
      "outputs": [],
      "stateMutability": "nonpayable",
      "type": "function"
    },
    {
      "inputs": [
        {
          "internalType": "bytes32",
          "name": "polyhash",
          "type": "bytes32"
        },
        {
          "internalType": "bytes32",
          "name": "__anion",
          "type": "bytes32"
        }
      ],
      "name": "unhook",
      "outputs": [],
      "stateMutability": "nonpayable",
      "type": "function"
    },
    {
      "inputs": [
        {
          "internalType": "bytes32",
          "name": "polyhash",
          "type": "bytes32"
        }
      ],
      "name": "unhookAll",
      "outputs": [],
      "stateMutability": "nonpayable",
      "type": "function"
    },
    {
      "inputs": [],
      "name": "withdrawEther",
      "outputs": [],
      "stateMutability": "payable",
      "type": "function"
    },
    {
      "inputs": [
        {
          "internalType": "address",
          "name": "token",
          "type": "address"
        }
      ],
      "name": "withdrawToken",
      "outputs": [],
      "stateMutability": "payable",
      "type": "function"
    }
  ],
  "bytecode": {
    "object": "0x60806040526703782dace9d900006005553480156200001d57600080fd5b5060405162005096380380620050968339810160408190526200004091620004dc565b60028054336001600160a01b0319918216179091556000805482166001600160a01b03848116918217909255600180549093169185169190911790915560408051633215476b60e11b8152905163642a8ed6916004808201926080929091908290030181865afa158015620000b9573d6000803e3d6000fd5b505050506040513d601f19601f82011682018060405250810190620000df91906200054b565b606001516003556000546040805163bd9a548b60e01b815290516001600160a01b039092169163bd9a548b916004808201926080929091908290030181865afa15801562000131573d6000803e3d6000fd5b505050506040513d601f19601f820116820180604052508101906200015791906200054b565b606001516004556200016862000170565b5050620005b2565b7f3530788012b75d807ed21d67650284173cf1b5aa003fda795c62c56bc64b06ed805460ff19169055604080516020818101909252600080825280526006909152620001e0907f54cdd369e4e8a8515e52ca72ec816c2101831ad1f18bf44102ed171459c9b4f890600162000400565b5060007f54cdd369e4e8a8515e52ca72ec816c2101831ad1f18bf44102ed171459c9b4fa819055604080516020818101909252828152918052600690526200024c907f54cdd369e4e8a8515e52ca72ec816c2101831ad1f18bf44102ed171459c9b4fb9060016200046a565b506006602081815260007f54cdd369e4e8a8515e52ca72ec816c2101831ad1f18bf44102ed171459c9b4fc8190557f54cdd369e4e8a8515e52ca72ec816c2101831ad1f18bf44102ed171459c9b4fe80546005547f54cdd369e4e8a8515e52ca72ec816c2101831ad1f18bf44102ed171459c9b4ff556001600160a81b03191633908117600160a01b179091557f54cdd369e4e8a8515e52ca72ec816c2101831ad1f18bf44102ed171459c9b4fd80546001600160a01b0319169091179055600380548252604080832083805260019081018552818420805460ff191690558151808601835284815292548452949093529190206200034e9290919062000400565b5060038054600081815260066020818152604080842060028101869055815180840190925285825294909352526200038d92919091019060016200046a565b506003805460008181526006602081905260408083206004810194909455928101805460ff60a01b1916600160a01b1790556005805485548452848420600701558454835283832090910180546001600160a01b0319908116339081179092559454835292909120018054909216179055565b82805482825590600052602060002090810192821562000458579160200282015b828111156200045857825182546001600160a01b0319166001600160a01b0390911617825560209092019160019091019062000421565b5062000466929150620004a8565b5090565b82805482825590600052602060002090810192821562000458579160200282015b82811115620004585782518255916020019190600101906200048b565b5b80821115620004665760008155600101620004a9565b80516001600160a01b0381168114620004d757600080fd5b919050565b60008060408385031215620004f057600080fd5b620004fb83620004bf565b91506200050b60208401620004bf565b90509250929050565b604051608081016001600160401b03811182821017156200054557634e487b7160e01b600052604160045260246000fd5b60405290565b6000608082840312156200055e57600080fd5b82601f8301126200056e57600080fd5b6200057862000514565b8060808401858111156200058b57600080fd5b845b81811015620005a75780518452602093840193016200058d565b509095945050505050565b614ad480620005c26000396000f3fe6080604052600436106102a05760003560e01c806375c4f68e1161016e578063c7876ea4116100cb578063dbd4e0211161007f578063f61ccd5311610064578063f61ccd53146107d2578063f79fe538146107f2578063f8c912441461082457600080fd5b8063dbd4e02114610792578063e73f8060146107b257600080fd5b8063d2ec5fca116100b0578063d2ec5fca14610722578063d315690514610752578063d9b76ed41461077257600080fd5b8063c7876ea4146106ec578063d07699aa1461070257600080fd5b80638dcad13911610122578063a22cb46511610107578063a22cb4651461068c578063b0698628146106ac578063b782426e146106cc57600080fd5b80638dcad1391461064c5780639e162dfa1461066c57600080fd5b80638146970a116101535780638146970a146105f957806388a8c95c14610619578063894760691461063957600080fd5b806375c4f68e146105165780637cf096c3146105cb57600080fd5b806321ec2b5b1161021c57806334026859116101d0578063516aeda0116101b5578063516aeda0146104ce5780635b55b376146104ee5780637362377b1461050e57600080fd5b8063340268591461049b57806339de6469146104bb57600080fd5b8063241270d511610201578063241270d514610445578063250548b914610465578063251c94221461048557600080fd5b806321ec2b5b1461040157806322b68deb1461042157600080fd5b806305e84aa0116102735780631896f70a116102585780631896f70a146103a15780631f06e91c146103c15780631f10ea07146103e157600080fd5b806305e84aa0146103545780630e68b1161461037457600080fd5b8063015399e6146102a55780630178b8bf146102c757806301e51ae814610304578063049a491c14610324575b600080fd5b3480156102b157600080fd5b506102c56102c03660046142af565b610844565b005b3480156102d357600080fd5b506102e76102e23660046142ef565b610a9b565b6040516001600160a01b0390911681526020015b60405180910390f35b34801561031057600080fd5b506002546102e7906001600160a01b031681565b34801561033057600080fd5b5061034461033f366004614308565b610b14565b60405190151581526020016102fb565b34801561036057600080fd5b506001546102e7906001600160a01b031681565b34801561038057600080fd5b5061039461038f3660046142ef565b610bc6565b6040516102fb9190614338565b3480156103ad57600080fd5b506102c56103bc366004614308565b610c85565b3480156103cd57600080fd5b506102c56103dc36600461437c565b610e7f565b3480156103ed57600080fd5b506103446103fc36600461450f565b611049565b34801561040d57600080fd5b506102c561041c3660046142ef565b611064565b34801561042d57600080fd5b5061043760055481565b6040519081526020016102fb565b34801561045157600080fd5b506102c5610460366004614308565b611394565b34801561047157600080fd5b506102c5610480366004614573565b6117c5565b34801561049157600080fd5b5061043760035481565b3480156104a757600080fd5b506103446104b63660046142ef565b611c0d565b6102c56104c936600461437c565b611c95565b3480156104da57600080fd5b506102c56104e936600461437c565b611f3a565b3480156104fa57600080fd5b506102c5610509366004614660565b6123c6565b6102c56128c3565b34801561052257600080fd5b5061058f6105313660046142ef565b600660208190526000918252604090912060028101546004820154600583015493830154600790930154919390926001600160a01b0391821692918116917401000000000000000000000000000000000000000090910460ff169086565b6040805196875260208701959095526001600160a01b0393841694860194909452911660608401521515608083015260a082015260c0016102fb565b3480156105d757600080fd5b506105eb6105e63660046142ef565b612969565b6040516102fb929190614695565b34801561060557600080fd5b506102c561061436600461437c565b612b20565b34801561062557600080fd5b506102c561063436600461471c565b612cc5565b6102c561064736600461471c565b612d95565b34801561065857600080fd5b506102c561066736600461437c565b612ebb565b34801561067857600080fd5b506102c5610687366004614740565b613393565b34801561069857600080fd5b506102c56106a7366004614796565b6135fe565b3480156106b857600080fd5b506103446106c7366004614308565b61366a565b3480156106d857600080fd5b506000546102e7906001600160a01b031681565b3480156106f857600080fd5b5061043760045481565b34801561070e57600080fd5b506102c561071d3660046147c4565b61370e565b34801561072e57600080fd5b5061043761073d3660046142ef565b60009081526006602052604090206007015490565b34801561075e57600080fd5b506102c561076d366004614308565b61391a565b34801561077e57600080fd5b506102c561078d366004614308565b613b09565b34801561079e57600080fd5b506102e76107ad3660046142ef565b613cf8565b3480156107be57600080fd5b506102c56107cd3660046147e9565b613d6e565b3480156107de57600080fd5b506104376107ed3660046142ef565b6140f3565b3480156107fe57600080fd5b5061034461080d3660046142ef565b600090815260066020526040902060070154421090565b34801561083057600080fd5b5061034461083f36600461437c565b6141ee565b6000838152600660205260409020600701548390421061089e5760405162461bcd60e51b815260206004820152601060248201526f1413d31650d5531157d156141254915160821b60448201526064015b60405180910390fd5b6000818152600660205260408082206002015460015491516302571be360e01b8152600481018290529092916001600160a01b0316906302571be390602401602060405180830381865afa1580156108fa573d6000803e3d6000fd5b505050506040513d601f19601f8201168201806040525081019061091e9190614831565b90506001600160a01b03811633148061095a57506001600160a01b038116600090815260076020908152604080832033845290915290205460ff165b6109a65760405162461bcd60e51b815260206004820152600960248201527f4e4f545f4f574e455200000000000000000000000000000000000000000000006044820152606401610895565b60008681526006602090815260408083206001600160a01b038816845260010190915290205460ff808716911603610a205760405162461bcd60e51b815260206004820152600b60248201527f52554c455f4558495354530000000000000000000000000000000000000000006044820152606401610895565b60008681526006602090815260408083206001600160a01b0388168085526001909101835292819020805460ff191660ff8a1690811790915581519384529183019190915287917f1abc00531586337cfd45709506ca0d48a44e1eb54325e589ec054ce83373e07a91015b60405180910390a2505050505050565b60008181526006602052604081206007015482904210610af05760405162461bcd60e51b815260206004820152601060248201526f1413d31650d5531157d156141254915160821b6044820152606401610895565b6000838152600660205260409020600501546001600160a01b031691505b50919050565b60008281526006602052604080822090517f2306f46600000000000000000000000000000000000000000000000000000000815273__$47e4ffaaf323c41735ff299f8946896ce0$__91632306f46691610b7b916001600160a01b0387169160040161484e565b602060405180830381865af4158015610b98573d6000803e3d6000fd5b505050506040513d601f19601f82011682018060405250810190610bbc91906148ae565b1590505b92915050565b60008181526006602052604090206007015460609082904210610c1e5760405162461bcd60e51b815260206004820152601060248201526f1413d31650d5531157d156141254915160821b6044820152606401610895565b600083815260066020908152604080832060030180548251818502810185019093528083529192909190830182828015610c7757602002820191906000526020600020905b815481526020019060010190808311610c63575b509398975050505050505050565b60008281526006602052604090206007015482904210610cda5760405162461bcd60e51b815260206004820152601060248201526f1413d31650d5531157d156141254915160821b6044820152606401610895565b6000818152600660205260408082206002015460015491516302571be360e01b8152600481018290529092916001600160a01b0316906302571be390602401602060405180830381865afa158015610d36573d6000803e3d6000fd5b505050506040513d601f19601f82011682018060405250810190610d5a9190614831565b90506001600160a01b038116331480610d9657506001600160a01b038116600090815260076020908152604080832033845290915290205460ff165b80610dbb5750600083815260066020819052604090912001546001600160a01b031633145b610e075760405162461bcd60e51b815260206004820152601760248201527f4e4f545f4f574e45525f4f525f434f4e54524f4c4c45520000000000000000006044820152606401610895565b600085815260066020908152604091829020600501805473ffffffffffffffffffffffffffffffffffffffff19166001600160a01b038816908117909155915191825286917f335721b01866dc23fbee8b6b2c7b1e14d6f05c28cd35a2c934239f94095602a091015b60405180910390a25050505050565b60008281526006602052604090206007015482904210610ed45760405162461bcd60e51b815260206004820152601060248201526f1413d31650d5531157d156141254915160821b6044820152606401610895565b6000818152600660205260408082206002015460015491516302571be360e01b8152600481018290529092916001600160a01b0316906302571be390602401602060405180830381865afa158015610f30573d6000803e3d6000fd5b505050506040513d601f19601f82011682018060405250810190610f549190614831565b90506001600160a01b038116331480610f9057506001600160a01b038116600090815260076020908152604080832033845290915290205460ff165b80610fb55750600083815260066020819052604090912001546001600160a01b031633145b6110015760405162461bcd60e51b815260206004820152601760248201527f4e4f545f4f574e45525f4f525f434f4e54524f4c4c45520000000000000000006044820152606401610895565b600085815260066020526040908190206004018590555185907f4247841fd58468a6fb10925898bdd83c426da7b5519ee71597106dfdc675122990610e709087815260200190565b6000815183510361105c57506001610bc0565b506000610bc0565b600081815260066020526040902060070154819042106110b95760405162461bcd60e51b815260206004820152601060248201526f1413d31650d5531157d156141254915160821b6044820152606401610895565b6000818152600660205260408082206002015460015491516302571be360e01b8152600481018290529092916001600160a01b0316906302571be390602401602060405180830381865afa158015611115573d6000803e3d6000fd5b505050506040513d601f19601f820116820180604052508101906111399190614831565b90506001600160a01b03811633148061117557506001600160a01b038116600090815260076020908152604080832033845290915290205460ff165b6111c15760405162461bcd60e51b815260206004820152600960248201527f4e4f545f4f574e455200000000000000000000000000000000000000000000006044820152606401610895565b60008481526006602090815260408083208054825181850281018501909352808352919290919083018282801561122157602002820191906000526020600020905b81546001600160a01b03168152600190910190602001808311611203575b5050505050905060005b8151811015611312576000600660008881526020019081526020016000206001016000848481518110611260576112606148cb565b60200260200101516001600160a01b03166001600160a01b0316815260200190815260200160002060006101000a81548160ff021916908360ff160217905550857ff80d6be10f45d9294a75f05d07efcf9391c6eafe6844c8b639d21e9ff49024d48383815181106112d4576112d46148cb565b60200260200101516040516112f891906001600160a01b0391909116815260200190565b60405180910390a28061130a81614929565b91505061122b565b50600085815260066020526040812061132a91614252565b60405185907f6b91085369552b61ca16180a741663b69fb6b3b967f7271116521d84e2291dc590600090a250505060009182525060066020908152604082208054600181018255908352912001805473ffffffffffffffffffffffffffffffffffffffff19169055565b600082815260066020526040902060070154829042106113e95760405162461bcd60e51b815260206004820152601060248201526f1413d31650d5531157d156141254915160821b6044820152606401610895565b6000818152600660205260408082206002015460015491516302571be360e01b8152600481018290529092916001600160a01b0316906302571be390602401602060405180830381865afa158015611445573d6000803e3d6000fd5b505050506040513d601f19601f820116820180604052508101906114699190614831565b90506001600160a01b0381163314806114a557506001600160a01b038116600090815260076020908152604080832033845290915290205460ff165b6114f15760405162461bcd60e51b815260206004820152600960248201527f4e4f545f4f574e455200000000000000000000000000000000000000000000006044820152606401610895565b60008581526006602090815260408083208054825181850281018501909352808352919290919083018282801561155157602002820191906000526020600020905b81546001600160a01b03168152600190910190602001808311611533575b50506040517f2306f46600000000000000000000000000000000000000000000000000000000815293945073__$47e4ffaaf323c41735ff299f8946896ce0$__93632306f46693506115b492506001600160a01b038a1691508590600401614961565b602060405180830381865af41580156115d1573d6000803e3d6000fd5b505050506040513d601f19601f820116820180604052508101906115f591906148ae565b1561178a576040517fcd23ef4c00000000000000000000000000000000000000000000000000000000815260009073__$47e4ffaaf323c41735ff299f8946896ce0$__9063cd23ef4c90611658906001600160a01b038a16908690600401614961565b602060405180830381865af4158015611675573d6000803e3d6000fd5b505050506040513d601f19601f8201168201806040525081019061169991906149ae565b9050806116db576040516000815287907ff80d6be10f45d9294a75f05d07efcf9391c6eafe6844c8b639d21e9ff49024d49060200160405180910390a2611784565b60008781526006602090815260408083206001600160a01b038a168085526001909101835292819020805460ff191690555191825288917ff80d6be10f45d9294a75f05d07efcf9391c6eafe6844c8b639d21e9ff49024d4910160405180910390a2600087815260066020526040902080548290811061175d5761175d6148cb565b6000918252602090912001805473ffffffffffffffffffffffffffffffffffffffff191690555b506117bd565b6040516000815286907ff80d6be10f45d9294a75f05d07efcf9391c6eafe6844c8b639d21e9ff49024d490602001610a8b565b505050505050565b6000848152600660205260409020600701548490421061181a5760405162461bcd60e51b815260206004820152601060248201526f1413d31650d5531157d156141254915160821b6044820152606401610895565b6000818152600660205260408082206002015460015491516302571be360e01b8152600481018290529092916001600160a01b0316906302571be390602401602060405180830381865afa158015611876573d6000803e3d6000fd5b505050506040513d601f19601f8201168201806040525081019061189a9190614831565b90506001600160a01b0381163314806118d657506001600160a01b038116600090815260076020908152604080832033845290915290205460ff165b806118fb5750600083815260066020819052604090912001546001600160a01b031633145b6119475760405162461bcd60e51b815260206004820152601760248201527f4e4f545f4f574e45525f4f525f434f4e54524f4c4c45520000000000000000006044820152606401610895565b6119518686611049565b61199d5760405162461bcd60e51b815260206004820152600760248201527f4241445f4d4150000000000000000000000000000000000000000000000000006044820152606401610895565b60005b8651811015611bcb578681815181106119bb576119bb6148cb565b602002602001015173__$47e4ffaaf323c41735ff299f8946896ce0$__636fd8c6859091600660008c81526020019081526020016000206003016040518363ffffffff1660e01b8152600401611a129291906149c7565b602060405180830381865af4158015611a2f573d6000803e3d6000fd5b505050506040513d601f19601f82011682018060405250810190611a5391906148ae565b611bb95760066000898152602001908152602001600020600301878281518110611a7f57611a7f6148cb565b60209081029190910181015182546001810184556000938452828420015589825260069052604090208651879083908110611abc57611abc6148cb565b602090810291909101810151825460018101845560009384529190922001805473ffffffffffffffffffffffffffffffffffffffff19166001600160a01b039092169190911790558451859082908110611b1857611b186148cb565b6020026020010151600660008a81526020019081526020016000206001016000888481518110611b4a57611b4a6148cb565b6020908102919091018101516001600160a01b031682528181019290925260409081016000908120805460ff191660ff95909516949094179093558a83526006918290529091200180547fffffffffffffffffffffff00ffffffffffffffffffffffffffffffffffffffff1690555b80611bc381614929565b9150506119a0565b50867f580d99949e5d5a02f35dc5b91b800697d53dccb814e200f24f97b4bfbeb8667c87604051611bfc9190614338565b60405180910390a250505050505050565b60008181526006602052604081206007015482904210611c625760405162461bcd60e51b815260206004820152601060248201526f1413d31650d5531157d156141254915160821b6044820152606401610895565b50506000908152600660208190526040909120015474010000000000000000000000000000000000000000900460ff1690565b60008281526006602052604090206007015482904210611cea5760405162461bcd60e51b815260206004820152601060248201526f1413d31650d5531157d156141254915160821b6044820152606401610895565b6000818152600660205260408082206002015460015491516302571be360e01b8152600481018290529092916001600160a01b0316906302571be390602401602060405180830381865afa158015611d46573d6000803e3d6000fd5b505050506040513d601f19601f82011682018060405250810190611d6a9190614831565b90506001600160a01b038116331480611da657506001600160a01b038116600090815260076020908152604080832033845290915290205460ff165b80611dcb5750600083815260066020819052604090912001546001600160a01b031633145b611e175760405162461bcd60e51b815260206004820152601760248201527f4e4f545f4f574e45525f4f525f434f4e54524f4c4c45520000000000000000006044820152606401610895565b6000858152600660205260409020600701548411611e775760405162461bcd60e51b815260206004820152600a60248201527f4241445f455850495259000000000000000000000000000000000000000000006044820152606401610895565b600085815260066020526040812060070154611e939086614a0d565b905060045481611ea39190614a20565b341015611ef25760405162461bcd60e51b815260206004820152601260248201527f494e53554646494349454e545f455448455200000000000000000000000000006044820152606401610895565b600086815260066020526040908190206007018690555186907fa620b72378ee464490805a96e25b53e5c0076f0ce2d28f9691ae255a595b3bf390610a8b9088815260200190565b60008281526006602052604090206007015482904210611f8f5760405162461bcd60e51b815260206004820152601060248201526f1413d31650d5531157d156141254915160821b6044820152606401610895565b6000818152600660205260408082206002015460015491516302571be360e01b8152600481018290529092916001600160a01b0316906302571be390602401602060405180830381865afa158015611feb573d6000803e3d6000fd5b505050506040513d601f19601f8201168201806040525081019061200f9190614831565b90506001600160a01b03811633148061204b57506001600160a01b038116600090815260076020908152604080832033845290915290205460ff165b6120975760405162461bcd60e51b815260206004820152600960248201527f4e4f545f4f574e455200000000000000000000000000000000000000000000006044820152606401610895565b6000858152600660209081526040808320805482518185028101850190935280835291929091908301828280156120f757602002820191906000526020600020905b81546001600160a01b031681526001909101906020018083116120d9575b5050505050905060006006600088815260200190815260200160002060030180548060200260200160405190810160405280929190818152602001828054801561216057602002820191906000526020600020905b81548152602001906001019080831161214c575b50506040517f6fd8c68500000000000000000000000000000000000000000000000000000000815293945073__$47e4ffaaf323c41735ff299f8946896ce0$__93636fd8c68593506121ba92508a91508590600401614a5d565b602060405180830381865af41580156121d7573d6000803e3d6000fd5b505050506040513d601f19601f820116820180604052508101906121fb91906148ae565b1561238a576040517fda92b9ed00000000000000000000000000000000000000000000000000000000815260009073__$47e4ffaaf323c41735ff299f8946896ce0$__9063da92b9ed90612255908a908690600401614a5d565b602060405180830381865af4158015612272573d6000803e3d6000fd5b505050506040513d601f19601f8201168201806040525081019061229691906149ae565b90506000600660008a815260200190815260200160002060010160008584815181106122c4576122c46148cb565b60200260200101516001600160a01b03166001600160a01b0316815260200190815260200160002060006101000a81548160ff021916908360ff160217905550877ff13ce89e57ea348ff8e29c4131c87b4d1b50ecf4edb1c68288b5e0cd3985b3f98860405161233691815260200190565b60405180910390a2600088815260066020526040902080548290811061235e5761235e6148cb565b6000918252602090912001805473ffffffffffffffffffffffffffffffffffffffff19169055506123bd565b6040516000815287907ff13ce89e57ea348ff8e29c4131c87b4d1b50ecf4edb1c68288b5e0cd3985b3f990602001611bfc565b50505050505050565b6000838152600660205260409020600701548390421061241b5760405162461bcd60e51b815260206004820152601060248201526f1413d31650d5531157d156141254915160821b6044820152606401610895565b6000818152600660205260408082206002015460015491516302571be360e01b8152600481018290529092916001600160a01b0316906302571be390602401602060405180830381865afa158015612477573d6000803e3d6000fd5b505050506040513d601f19601f8201168201806040525081019061249b9190614831565b90506001600160a01b0381163314806124d757506001600160a01b038116600090815260076020908152604080832033845290915290205460ff165b6125235760405162461bcd60e51b815260206004820152600960248201527f4e4f545f4f574e455200000000000000000000000000000000000000000000006044820152606401610895565b60008681526006602090815260408083208054825181850281018501909352808352919290919083018282801561258357602002820191906000526020600020905b81546001600160a01b03168152600190910190602001808311612565575b505050505090506000600660008981526020019081526020016000206003018054806020026020016040519081016040528092919081815260200182805480156125ec57602002820191906000526020600020905b8154815260200190600101908083116125d8575b50506040517f6fd8c68500000000000000000000000000000000000000000000000000000000815293945073__$47e4ffaaf323c41735ff299f8946896ce0$__93636fd8c685935061264692508a91508590600401614a5d565b602060405180830381865af4158015612663573d6000803e3d6000fd5b505050506040513d601f19601f8201168201806040525081019061268791906148ae565b1561287d576040517fda92b9ed00000000000000000000000000000000000000000000000000000000815260009073__$47e4ffaaf323c41735ff299f8946896ce0$__9063da92b9ed906126e1908a908690600401614a5d565b602060405180830381865af41580156126fe573d6000803e3d6000fd5b505050506040513d601f19601f8201168201806040525081019061272291906149ae565b90508760ff16600660008b81526020019081526020016000206001016000858481518110612752576127526148cb565b6020908102919091018101516001600160a01b031682528101919091526040016000205460ff16036127c65760405162461bcd60e51b815260206004820152600b60248201527f52554c455f4558495354530000000000000000000000000000000000000000006044820152606401610895565b87600660008b815260200190815260200160002060010160008584815181106127f1576127f16148cb565b60200260200101516001600160a01b03166001600160a01b0316815260200190815260200160002060006101000a81548160ff021916908360ff160217905550887f12bf96b3da46c044c59d8b13a96d1a5f53adf413cbe17f743ac2ed2c285257de888a60405161286f92919091825260ff16602082015260400190565b60405180910390a2506128b9565b6040517f5adb3bc70000000000000000000000000000000000000000000000000000000081526004810189905260248101879052604401610895565b5050505050505050565b6002546040516000916001600160a01b03169047908381818185875af1925050503d8060008114612910576040519150601f19603f3d011682016040523d82523d6000602084013e612915565b606091505b50509050806129665760405162461bcd60e51b815260206004820152601360248201527f4554485f5452414e534645525f4641494c4544000000000000000000000000006044820152606401610895565b50565b6000818152600660205260409020600701546060908190839042106129c35760405162461bcd60e51b815260206004820152601060248201526f1413d31650d5531157d156141254915160821b6044820152606401610895565b600084815260066020908152604080832080548251818502810185019093528083529192909190830182828015612a2357602002820191906000526020600020905b81546001600160a01b03168152600190910190602001808311612a05575b505050505090506000815167ffffffffffffffff811115612a4657612a4661439e565b604051908082528060200260200182016040528015612a6f578160200160208202803683370190505b50905060005b8251811015612b1457600660008881526020019081526020016000206001016000848381518110612aa857612aa86148cb565b60200260200101516001600160a01b03166001600160a01b0316815260200190815260200160002060009054906101000a900460ff16828281518110612af057612af06148cb565b60ff9092166020928302919091019091015280612b0c81614929565b915050612a75565b50909350915050915091565b60008281526006602052604090206007015482904210612b755760405162461bcd60e51b815260206004820152601060248201526f1413d31650d5531157d156141254915160821b6044820152606401610895565b6000818152600660205260408082206002015460015491516302571be360e01b8152600481018290529092916001600160a01b0316906302571be390602401602060405180830381865afa158015612bd1573d6000803e3d6000fd5b505050506040513d601f19601f82011682018060405250810190612bf59190614831565b90506001600160a01b038116331480612c3157506001600160a01b038116600090815260076020908152604080832033845290915290205460ff165b612c7d5760405162461bcd60e51b815260206004820152600960248201527f4e4f545f4f574e455200000000000000000000000000000000000000000000006044820152606401610895565b600085815260066020526040908190206002018590555185907f4810581adf2c16a86a375dbb1ed89b0b0f7e64d48d24e1948b3dfe6581e4d79590610e709087815260200190565b6002546001600160a01b03163314612d1f5760405162461bcd60e51b815260206004820152600760248201527f4e4f545f444556000000000000000000000000000000000000000000000000006044820152606401610895565b600254604080516001600160a01b03928316815291831660208301527fdec101f106d4fc7c85791843e64b198248c822298e3ed7046231d33f7783d816910160405180910390a16002805473ffffffffffffffffffffffffffffffffffffffff19166001600160a01b0392909216919091179055565b6002546040517f70a0823100000000000000000000000000000000000000000000000000000000815230600482018190526001600160a01b03848116936323b872dd9391169084906370a0823190602401602060405180830381865afa158015612e03573d6000803e3d6000fd5b505050506040513d601f19601f82011682018060405250810190612e2791906149ae565b6040517fffffffff0000000000000000000000000000000000000000000000000000000060e086901b1681526001600160a01b03938416600482015292909116602483015260448201526064016020604051808303816000875af1158015612e93573d6000803e3d6000fd5b505050506040513d601f19601f82011682018060405250810190612eb791906148ae565b5050565b60008281526006602052604090206007015482904210612f105760405162461bcd60e51b815260206004820152601060248201526f1413d31650d5531157d156141254915160821b6044820152606401610895565b6000818152600660205260408082206002015460015491516302571be360e01b8152600481018290529092916001600160a01b0316906302571be390602401602060405180830381865afa158015612f6c573d6000803e3d6000fd5b505050506040513d601f19601f82011682018060405250810190612f909190614831565b90506001600160a01b038116331480612fcc57506001600160a01b038116600090815260076020908152604080832033845290915290205460ff165b80612ff15750600083815260066020819052604090912001546001600160a01b031633145b61303d5760405162461bcd60e51b815260206004820152601760248201527f4e4f545f4f574e45525f4f525f434f4e54524f4c4c45520000000000000000006044820152606401610895565b60008581526006602090815260408083206003018054825181850281018501909352808352919290919083018282801561309657602002820191906000526020600020905b815481526020019060010190808311613082575b5050506000898152600660209081526040808320805482518185028101850190935280835296975092959094509192508301828280156130ff57602002820191906000526020600020905b81546001600160a01b031681526001909101906020018083116130e1575b50506040517f6fd8c68500000000000000000000000000000000000000000000000000000000815293945073__$47e4ffaaf323c41735ff299f8946896ce0$__93636fd8c685935061315992508a91508690600401614a5d565b602060405180830381865af4158015613176573d6000803e3d6000fd5b505050506040513d601f19601f8201168201806040525081019061319a91906148ae565b15613357576040517fda92b9ed00000000000000000000000000000000000000000000000000000000815260009073__$47e4ffaaf323c41735ff299f8946896ce0$__9063da92b9ed906131f4908a908790600401614a5d565b602060405180830381865af4158015613211573d6000803e3d6000fd5b505050506040513d601f19601f8201168201806040525081019061323591906149ae565b90506000600660008a81526020019081526020016000206001016000848481518110613263576132636148cb565b60200260200101516001600160a01b03166001600160a01b0316815260200190815260200160002060006101000a81548160ff021916908360ff1602179055506006600089815260200190815260200160002060030181815481106132ca576132ca6148cb565b6000918252602080832090910182905589825260069052604090208054829081106132f7576132f76148cb565b600091825260209182902001805473ffffffffffffffffffffffffffffffffffffffff1916905560405188815289917f5c379d054844760656a56e062f50208b458cfa0c4427574f5a2828d19602b4e9910160405180910390a2506123bd565b6040517f5adb3bc70000000000000000000000000000000000000000000000000000000081526004810188905260248101879052604401610895565b600083815260066020526040902060070154839042106133e85760405162461bcd60e51b815260206004820152601060248201526f1413d31650d5531157d156141254915160821b6044820152606401610895565b6000818152600660205260408082206002015460015491516302571be360e01b8152600481018290529092916001600160a01b0316906302571be390602401602060405180830381865afa158015613444573d6000803e3d6000fd5b505050506040513d601f19601f820116820180604052508101906134689190614831565b90506001600160a01b0381163314806134a457506001600160a01b038116600090815260076020908152604080832033845290915290205460ff165b6134f05760405162461bcd60e51b815260206004820152600960248201527f4e4f545f4f574e455200000000000000000000000000000000000000000000006044820152606401610895565b6134fa8685610b14565b6135465760405162461bcd60e51b815260206004820152600b60248201527f484f4f4b5f4558495354530000000000000000000000000000000000000000006044820152606401610895565b6000868152600660208181526040808420805460018082018355828752848720909101805473ffffffffffffffffffffffffffffffffffffffff19166001600160a01b038c169081179091558087528183018552838720805460ff191660ff8e169081179091559585526003909201805491820181558652948390209094018b905580519384529083019190915287917fc733a2bc621cc97eef6ed4f708f126e72e6acb76c0a1c0461c9dd31f7b9870659101611bfc565b3360008181526007602090815260408083206001600160a01b03871680855290835292819020805460ff191686151590811790915590519081529192917f17307eab39ab6107e8899845ad3d59bd9653f200f220920489ca2b5937696c31910160405180910390a35050565b6001546040516302571be360e01b81526004810184905260009182916001600160a01b03909116906302571be390602401602060405180830381865afa1580156136b8573d6000803e3d6000fd5b505050506040513d601f19601f820116820180604052508101906136dc9190614831565b6001600160a01b0390811660009081526007602090815260408083209387168352929052205460ff1691505092915050565b600082815260066020526040902060070154829042106137635760405162461bcd60e51b815260206004820152601060248201526f1413d31650d5531157d156141254915160821b6044820152606401610895565b6000818152600660205260408082206002015460015491516302571be360e01b8152600481018290529092916001600160a01b0316906302571be390602401602060405180830381865afa1580156137bf573d6000803e3d6000fd5b505050506040513d601f19601f820116820180604052508101906137e39190614831565b90506001600160a01b03811633148061381f57506001600160a01b038116600090815260076020908152604080832033845290915290205460ff165b806138445750600083815260066020819052604090912001546001600160a01b031633145b6138905760405162461bcd60e51b815260206004820152601760248201527f4e4f545f4f574e45525f4f525f434f4e54524f4c4c45520000000000000000006044820152606401610895565b60008581526006602081905260409182902001805486151574010000000000000000000000000000000000000000027fffffffffffffffffffffff00ffffffffffffffffffffffffffffffffffffffff9091161790555185907fe6ccdb52b4954ab2c3e293f1dbfe593e6c5630962a1944bfcf20c5563eeb846290610e7090871515815260200190565b6000828152600660205260409020600701548290421061396f5760405162461bcd60e51b815260206004820152601060248201526f1413d31650d5531157d156141254915160821b6044820152606401610895565b6000818152600660205260408082206002015460015491516302571be360e01b8152600481018290529092916001600160a01b0316906302571be390602401602060405180830381865afa1580156139cb573d6000803e3d6000fd5b505050506040513d601f19601f820116820180604052508101906139ef9190614831565b90506001600160a01b038116331480613a2b57506001600160a01b038116600090815260076020908152604080832033845290915290205460ff165b80613a505750600083815260066020819052604090912001546001600160a01b031633145b613a9c5760405162461bcd60e51b815260206004820152601760248201527f4e4f545f4f574e45525f4f525f434f4e54524f4c4c45520000000000000000006044820152606401610895565b600085815260066020818152604092839020909101805473ffffffffffffffffffffffffffffffffffffffff19166001600160a01b038816908117909155915191825286917fe5108446a6097aab57fd36f346a515a78fddefa87d81662d44e0d7a463f920959101610e70565b60008281526006602052604090206007015482904210613b5e5760405162461bcd60e51b815260206004820152601060248201526f1413d31650d5531157d156141254915160821b6044820152606401610895565b6000818152600660205260408082206002015460015491516302571be360e01b8152600481018290529092916001600160a01b0316906302571be390602401602060405180830381865afa158015613bba573d6000803e3d6000fd5b505050506040513d601f19601f82011682018060405250810190613bde9190614831565b90506001600160a01b038116331480613c1a57506001600160a01b038116600090815260076020908152604080832033845290915290205460ff165b80613c3f5750600083815260066020819052604090912001546001600160a01b031633145b613c8b5760405162461bcd60e51b815260206004820152601760248201527f4e4f545f4f574e45525f4f525f434f4e54524f4c4c45520000000000000000006044820152606401610895565b600085815260066020908152604091829020600501805473ffffffffffffffffffffffffffffffffffffffff19166001600160a01b038816908117909155915191825286917fcb71326aeaad88869e8be8be2893e1119f7617ce4ea2411af127e218909be1f79101610e70565b60008181526006602052604081206007015482904210613d4d5760405162461bcd60e51b815260206004820152601060248201526f1413d31650d5531157d156141254915160821b6044820152606401610895565b5050600090815260066020819052604090912001546001600160a01b031690565b60008481526006602052604090206007015484904210613dc35760405162461bcd60e51b815260206004820152601060248201526f1413d31650d5531157d156141254915160821b6044820152606401610895565b6000818152600660205260408082206002015460015491516302571be360e01b8152600481018290529092916001600160a01b0316906302571be390602401602060405180830381865afa158015613e1f573d6000803e3d6000fd5b505050506040513d601f19601f82011682018060405250810190613e439190614831565b90506001600160a01b038116331480613e7f57506001600160a01b038116600090815260076020908152604080832033845290915290205460ff165b80613ea45750600083815260066020819052604090912001546001600160a01b031633145b613ef05760405162461bcd60e51b815260206004820152601760248201527f4e4f545f4f574e45525f4f525f434f4e54524f4c4c45520000000000000000006044820152606401610895565b613efa87876141ee565b613f465760405162461bcd60e51b815260206004820152600c60248201527f414e494f4e5f45584953545300000000000000000000000000000000000000006044820152606401610895565b613f508786610b14565b613f9c5760405162461bcd60e51b815260206004820152600b60248201527f484f4f4b5f4558495354530000000000000000000000000000000000000000006044820152606401610895565b60008781526006602090815260408083206001600160a01b038916845260010190915290205460ff8086169116036140165760405162461bcd60e51b815260206004820152600b60248201527f52554c455f4558495354530000000000000000000000000000000000000000006044820152606401610895565b600087815260066020908152604080832060038101805460018082018355918652848620018b90558154808201835582865284862001805473ffffffffffffffffffffffffffffffffffffffff19166001600160a01b038c16908117909155909452929092018152905187815288917f600ffddd29393ca43c0a11fa6b0b7096631364178cb42f9d546c0a2cd22525ee910160405180910390a2604080516001600160a01b038716815260ff8616602082015288917fc733a2bc621cc97eef6ed4f708f126e72e6acb76c0a1c0461c9dd31f7b9870659101611bfc565b600081815260066020526040812060070154829042106141485760405162461bcd60e51b815260206004820152601060248201526f1413d31650d5531157d156141254915160821b6044820152606401610895565b6000838152600660205260408082206002015460015491516302571be360e01b8152600481018290529092916001600160a01b0316906302571be390602401602060405180830381865afa1580156141a4573d6000803e3d6000fd5b505050506040513d601f19601f820116820180604052508101906141c89190614831565b9050306001600160a01b038216036141e65760035493505050610b0e565b509392505050565b60008281526006602052604080822090517f6fd8c68500000000000000000000000000000000000000000000000000000000815273__$47e4ffaaf323c41735ff299f8946896ce0$__91636fd8c68591610b7b9186916003909101906004016149c7565b508054600082559060005260206000209081019061296691905b80821115614280576000815560010161426c565b5090565b803560ff8116811461429557600080fd5b919050565b6001600160a01b038116811461296657600080fd5b6000806000606084860312156142c457600080fd5b833592506142d460208501614284565b915060408401356142e48161429a565b809150509250925092565b60006020828403121561430157600080fd5b5035919050565b6000806040838503121561431b57600080fd5b82359150602083013561432d8161429a565b809150509250929050565b6020808252825182820181905260009190848201906040850190845b8181101561437057835183529284019291840191600101614354565b50909695505050505050565b6000806040838503121561438f57600080fd5b50508035926020909101359150565b7f4e487b7100000000000000000000000000000000000000000000000000000000600052604160045260246000fd5b604051601f82017fffffffffffffffffffffffffffffffffffffffffffffffffffffffffffffffe016810167ffffffffffffffff811182821017156144145761441461439e565b604052919050565b600067ffffffffffffffff8211156144365761443661439e565b5060051b60200190565b600082601f83011261445157600080fd5b813560206144666144618361441c565b6143cd565b82815260059290921b8401810191818101908684111561448557600080fd5b8286015b848110156144a05780358352918301918301614489565b509695505050505050565b600082601f8301126144bc57600080fd5b813560206144cc6144618361441c565b82815260059290921b840181019181810190868411156144eb57600080fd5b8286015b848110156144a05780356145028161429a565b83529183019183016144ef565b6000806040838503121561452257600080fd5b823567ffffffffffffffff8082111561453a57600080fd5b61454686838701614440565b9350602085013591508082111561455c57600080fd5b50614569858286016144ab565b9150509250929050565b6000806000806080858703121561458957600080fd5b8435935060208086013567ffffffffffffffff808211156145a957600080fd5b6145b589838a01614440565b955060408801359150808211156145cb57600080fd5b6145d789838a016144ab565b945060608801359150808211156145ed57600080fd5b508601601f810188136145ff57600080fd5b803561460d6144618261441c565b81815260059190911b8201830190838101908a83111561462c57600080fd5b928401925b828410156146515761464284614284565b82529284019290840190614631565b979a9699509497505050505050565b60008060006060848603121561467557600080fd5b8335925061468560208501614284565b9150604084013590509250925092565b604080825283519082018190526000906020906060840190828701845b828110156146d75781516001600160a01b0316845292840192908401906001016146b2565b5050508381038285015284518082528583019183019060005b8181101561470f57835160ff16835292840192918401916001016146f0565b5090979650505050505050565b60006020828403121561472e57600080fd5b81356147398161429a565b9392505050565b6000806000806080858703121561475657600080fd5b843593506020850135925061476d60408601614284565b9150606085013561477d8161429a565b939692955090935050565b801515811461296657600080fd5b600080604083850312156147a957600080fd5b82356147b48161429a565b9150602083013561432d81614788565b600080604083850312156147d757600080fd5b82359150602083013561432d81614788565b600080600080608085870312156147ff57600080fd5b843593506020850135925060408501356148188161429a565b915061482660608601614284565b905092959194509250565b60006020828403121561484357600080fd5b81516147398161429a565b6000604082016001600160a01b03808616845260206040818601528286548085526060870191508760005282600020945060005b818110156148a0578554851683526001958601959284019201614882565b509098975050505050505050565b6000602082840312156148c057600080fd5b815161473981614788565b7f4e487b7100000000000000000000000000000000000000000000000000000000600052603260045260246000fd5b7f4e487b7100000000000000000000000000000000000000000000000000000000600052601160045260246000fd5b60007fffffffffffffffffffffffffffffffffffffffffffffffffffffffffffffffff820361495a5761495a6148fa565b5060010190565b6000604082016001600160a01b0380861684526020604081860152828651808552606087019150828801945060005b818110156148a0578551851683529483019491830191600101614990565b6000602082840312156149c057600080fd5b5051919050565b60006040820184835260206040818501528185548084526060860191508660005282600020935060005b8181101561470f578454835260019485019492840192016149f1565b81810381811115610bc057610bc06148fa565b6000817fffffffffffffffffffffffffffffffffffffffffffffffffffffffffffffffff0483118215151615614a5857614a586148fa565b500290565b6000604082018483526020604081850152818551808452606086019150828701935060005b8181101561470f57845183529383019391830191600101614a8256fea2646970667358221220589e7ba7c0aae96c448d3997552551e03ceb28687f36da5e8197c25228bf141f64736f6c63430008100033",
    "linkReferences": {
      "src/Utils/LibString.sol": {
        "LibString": [
          {
            "start": 4364,
            "length": 20
          },
          {
            "start": 6976,
            "length": 20
          },
          {
            "start": 7143,
            "length": 20
          },
          {
            "start": 8071,
            "length": 20
          },
          {
            "start": 10063,
            "length": 20
          },
          {
            "start": 10221,
            "length": 20
          },
          {
            "start": 11227,
            "length": 20
          },
          {
            "start": 11385,
            "length": 20
          },
          {
            "start": 14062,
            "length": 20
          },
          {
            "start": 14220,
            "length": 20
          },
          {
            "start": 18406,
            "length": 20
          }
        ]
      }
    }
  },
  "methodIdentifiers": {
    "Dev()": "01e51ae8",
    "HELIX2()": "b782426e",
    "NAMES()": "05e84aa0",
    "Polycules(bytes32)": "75c4f68e",
    "addAnion(bytes32,bytes32,address,uint8)": "e73f8060",
    "anion(bytes32)": "0e68b116",
    "basePrice()": "c7876ea4",
    "cation(bytes32)": "f61ccd53",
    "changeDev(address)": "88a8c95c",
    "controller(bytes32)": "dbd4e021",
    "covalence(bytes32)": "34026859",
    "expiry(bytes32)": "d2ec5fca",
    "hook(bytes32,bytes32,uint8,address)": "9e162dfa",
    "hooks(bytes32)": "7cf096c3",
    "isApprovedForAll(bytes32,address)": "b0698628",
    "isLegalMap(bytes32[],address[])": "1f10ea07",
    "isNotDuplicateAnion(bytes32,bytes32)": "f8c91244",
    "isNotDuplicateHook(bytes32,address)": "049a491c",
    "popAnion(bytes32,bytes32)": "8dcad139",
    "recordExists(bytes32)": "f79fe538",
    "rehook(bytes32,uint8,address)": "015399e6",
    "rehook(bytes32,uint8,bytes32)": "5b55b376",
    "resolver(bytes32)": "0178b8bf",
    "roothash()": "251c9422",
    "setAlias(bytes32,bytes32)": "1f06e91c",
    "setAnions(bytes32,bytes32[],address[],uint8[])": "250548b9",
    "setApprovalForAll(address,bool)": "a22cb465",
    "setCation(bytes32,bytes32)": "8146970a",
    "setController(bytes32,address)": "d3156905",
    "setCovalence(bytes32,bool)": "d07699aa",
    "setExpiry(bytes32,uint256)": "39de6469",
    "setRecord(bytes32,address)": "d9b76ed4",
    "setResolver(bytes32,address)": "1896f70a",
    "theEnd()": "22b68deb",
    "unhook(bytes32,address)": "241270d5",
    "unhook(bytes32,bytes32)": "516aeda0",
    "unhookAll(bytes32)": "21ec2b5b",
    "withdrawEther()": "7362377b",
    "withdrawToken(address)": "89476069"
  },
  "id": 32
}