{
  "abi": [
    {
      "inputs": [
        {
          "internalType": "address",
          "name": "_registry",
          "type": "address"
        },
        {
          "internalType": "address",
          "name": "_helix2",
          "type": "address"
        }
      ],
      "stateMutability": "nonpayable",
      "type": "constructor"
    },
    {
      "inputs": [],
      "name": "BAD_ANION",
      "type": "error"
    },
    {
      "inputs": [],
      "name": "BAD_HOOK",
      "type": "error"
    },
    {
      "anonymous": false,
      "inputs": [
        {
          "indexed": true,
          "internalType": "address",
          "name": "cation",
          "type": "address"
        },
        {
          "indexed": true,
          "internalType": "address",
          "name": "operator",
          "type": "address"
        },
        {
          "indexed": false,
          "internalType": "bool",
          "name": "approved",
          "type": "bool"
        }
      ],
      "name": "ApprovalForAll",
      "type": "event"
    },
    {
      "anonymous": false,
      "inputs": [
        {
          "indexed": true,
          "internalType": "bytes32",
          "name": "polyhash",
          "type": "bytes32"
        },
        {
          "indexed": false,
          "internalType": "address",
          "name": "config",
          "type": "address"
        },
        {
          "indexed": false,
          "internalType": "uint8",
          "name": "rule",
          "type": "uint8"
        }
      ],
      "name": "Hooked",
      "type": "event"
    },
    {
      "anonymous": false,
      "inputs": [
        {
          "indexed": true,
          "internalType": "bytes32",
          "name": "polyhash",
          "type": "bytes32"
        },
        {
          "indexed": false,
          "internalType": "bytes32",
          "name": "anion",
          "type": "bytes32"
        }
      ],
      "name": "NewAnion",
      "type": "event"
    },
    {
      "anonymous": false,
      "inputs": [
        {
          "indexed": true,
          "internalType": "bytes32",
          "name": "polyhash",
          "type": "bytes32"
        },
        {
          "indexed": false,
          "internalType": "bytes32[]",
          "name": "anion",
          "type": "bytes32[]"
        }
      ],
      "name": "NewAnions",
      "type": "event"
    },
    {
      "anonymous": false,
      "inputs": [
        {
          "indexed": true,
          "internalType": "bytes32",
          "name": "polyhash",
          "type": "bytes32"
        },
        {
          "indexed": false,
          "internalType": "bytes32",
          "name": "cation",
          "type": "bytes32"
        }
      ],
      "name": "NewCation",
      "type": "event"
    },
    {
      "anonymous": false,
      "inputs": [
        {
          "indexed": true,
          "internalType": "bytes32",
          "name": "polyhash",
          "type": "bytes32"
        },
        {
          "indexed": false,
          "internalType": "address",
          "name": "controller",
          "type": "address"
        }
      ],
      "name": "NewController",
      "type": "event"
    },
    {
      "anonymous": false,
      "inputs": [
        {
          "indexed": true,
          "internalType": "bytes32",
          "name": "polyhash",
          "type": "bytes32"
        },
        {
          "indexed": false,
          "internalType": "bool",
          "name": "covalence",
          "type": "bool"
        }
      ],
      "name": "NewCovalence",
      "type": "event"
    },
    {
      "anonymous": false,
      "inputs": [
        {
          "indexed": false,
          "internalType": "address",
          "name": "Dev",
          "type": "address"
        },
        {
          "indexed": false,
          "internalType": "address",
          "name": "newDev",
          "type": "address"
        }
      ],
      "name": "NewDev",
      "type": "event"
    },
    {
      "anonymous": false,
      "inputs": [
        {
          "indexed": true,
          "internalType": "bytes32",
          "name": "polyhash",
          "type": "bytes32"
        },
        {
          "indexed": false,
          "internalType": "uint256",
          "name": "expiry",
          "type": "uint256"
        }
      ],
      "name": "NewExpiry",
      "type": "event"
    },
    {
      "anonymous": false,
      "inputs": [
        {
          "indexed": true,
          "internalType": "bytes32",
          "name": "polyhash",
          "type": "bytes32"
        },
        {
          "indexed": false,
          "internalType": "address",
          "name": "resolver",
          "type": "address"
        }
      ],
      "name": "NewRecord",
      "type": "event"
    },
    {
      "anonymous": false,
      "inputs": [
        {
          "indexed": true,
          "internalType": "bytes32",
          "name": "polyhash",
          "type": "bytes32"
        },
        {
          "indexed": false,
          "internalType": "address",
          "name": "resolver",
          "type": "address"
        }
      ],
      "name": "NewResolver",
      "type": "event"
    },
    {
      "anonymous": false,
      "inputs": [
        {
          "indexed": true,
          "internalType": "bytes32",
          "name": "polyhash",
          "type": "bytes32"
        },
        {
          "indexed": false,
          "internalType": "bytes32",
          "name": "anion",
          "type": "bytes32"
        }
      ],
      "name": "PopAnion",
      "type": "event"
    },
    {
      "anonymous": false,
      "inputs": [
        {
          "indexed": true,
          "internalType": "bytes32",
          "name": "polyhash",
          "type": "bytes32"
        },
        {
          "indexed": false,
          "internalType": "bytes32",
          "name": "anion",
          "type": "bytes32"
        },
        {
          "indexed": false,
          "internalType": "uint8",
          "name": "rule",
          "type": "uint8"
        }
      ],
      "name": "RehookedAnion",
      "type": "event"
    },
    {
      "anonymous": false,
      "inputs": [
        {
          "indexed": true,
          "internalType": "bytes32",
          "name": "polyhash",
          "type": "bytes32"
        },
        {
          "indexed": false,
          "internalType": "address",
          "name": "config",
          "type": "address"
        },
        {
          "indexed": false,
          "internalType": "uint8",
          "name": "rule",
          "type": "uint8"
        }
      ],
      "name": "RehookedConfig",
      "type": "event"
    },
    {
      "anonymous": false,
      "inputs": [
        {
          "indexed": true,
          "internalType": "bytes32",
          "name": "polyhash",
          "type": "bytes32"
        }
      ],
      "name": "UnhookedAll",
      "type": "event"
    },
    {
      "anonymous": false,
      "inputs": [
        {
          "indexed": true,
          "internalType": "bytes32",
          "name": "polyhash",
          "type": "bytes32"
        },
        {
          "indexed": false,
          "internalType": "bytes32",
          "name": "anion",
          "type": "bytes32"
        }
      ],
      "name": "UnhookedAnion",
      "type": "event"
    },
    {
      "anonymous": false,
      "inputs": [
        {
          "indexed": true,
          "internalType": "bytes32",
          "name": "polyhash",
          "type": "bytes32"
        },
        {
          "indexed": false,
          "internalType": "uint8",
          "name": "rule",
          "type": "uint8"
        }
      ],
      "name": "UnhookedConfig",
      "type": "event"
    },
    {
      "inputs": [],
      "name": "Dev",
      "outputs": [
        {
          "internalType": "address",
          "name": "",
          "type": "address"
        }
      ],
      "stateMutability": "view",
      "type": "function"
    },
    {
      "inputs": [],
      "name": "HELIX2",
      "outputs": [
        {
          "internalType": "contract iHELIX2",
          "name": "",
          "type": "address"
        }
      ],
      "stateMutability": "view",
      "type": "function"
    },
    {
      "inputs": [],
      "name": "NAMES",
      "outputs": [
        {
          "internalType": "contract iNAME",
          "name": "",
          "type": "address"
        }
      ],
      "stateMutability": "view",
      "type": "function"
    },
    {
      "inputs": [
        {
          "internalType": "bytes32",
          "name": "",
          "type": "bytes32"
        }
      ],
      "name": "Polycules",
      "outputs": [
        {
          "internalType": "bytes32",
          "name": "_cation",
          "type": "bytes32"
        },
        {
          "internalType": "bytes32",
          "name": "_alias",
          "type": "bytes32"
        },
        {
          "internalType": "address",
          "name": "_resolver",
          "type": "address"
        },
        {
          "internalType": "address",
          "name": "_controller",
          "type": "address"
        },
        {
          "internalType": "bool",
          "name": "_covalence",
          "type": "bool"
        },
        {
          "internalType": "uint256",
          "name": "_expiry",
          "type": "uint256"
        }
      ],
      "stateMutability": "view",
      "type": "function"
    },
    {
      "inputs": [],
      "name": "Registrar",
      "outputs": [
        {
          "internalType": "address",
          "name": "",
          "type": "address"
        }
      ],
      "stateMutability": "view",
      "type": "function"
    },
    {
      "inputs": [],
      "name": "active",
      "outputs": [
        {
          "internalType": "bool",
          "name": "",
          "type": "bool"
        }
      ],
      "stateMutability": "view",
      "type": "function"
    },
    {
      "inputs": [
        {
          "internalType": "bytes32",
          "name": "polyhash",
          "type": "bytes32"
        },
        {
          "internalType": "bytes32",
          "name": "_anion",
          "type": "bytes32"
        },
        {
          "internalType": "address",
          "name": "config",
          "type": "address"
        },
        {
          "internalType": "uint8",
          "name": "rule",
          "type": "uint8"
        }
      ],
      "name": "addAnion",
      "outputs": [],
      "stateMutability": "nonpayable",
      "type": "function"
    },
    {
      "inputs": [
        {
          "internalType": "bytes32",
          "name": "polyhash",
          "type": "bytes32"
        }
      ],
      "name": "alias_",
      "outputs": [
        {
          "internalType": "bytes32",
          "name": "",
          "type": "bytes32"
        }
      ],
      "stateMutability": "view",
      "type": "function"
    },
    {
      "inputs": [
        {
          "internalType": "bytes32",
          "name": "polyhash",
          "type": "bytes32"
        }
      ],
      "name": "anion",
      "outputs": [
        {
          "internalType": "bytes32[]",
          "name": "",
          "type": "bytes32[]"
        }
      ],
      "stateMutability": "view",
      "type": "function"
    },
    {
      "inputs": [],
      "name": "basePrice",
      "outputs": [
        {
          "internalType": "uint256",
          "name": "",
          "type": "uint256"
        }
      ],
      "stateMutability": "view",
      "type": "function"
    },
    {
      "inputs": [
        {
          "internalType": "bytes32",
          "name": "polyhash",
          "type": "bytes32"
        }
      ],
      "name": "cation",
      "outputs": [
        {
          "internalType": "bytes32",
          "name": "",
          "type": "bytes32"
        }
      ],
      "stateMutability": "view",
      "type": "function"
    },
    {
      "inputs": [
        {
          "internalType": "address",
          "name": "newDev",
          "type": "address"
        }
      ],
      "name": "changeDev",
      "outputs": [],
      "stateMutability": "nonpayable",
      "type": "function"
    },
    {
      "inputs": [
        {
          "internalType": "bytes32",
          "name": "polyhash",
          "type": "bytes32"
        }
      ],
      "name": "controller",
      "outputs": [
        {
          "internalType": "address",
          "name": "",
          "type": "address"
        }
      ],
      "stateMutability": "view",
      "type": "function"
    },
    {
      "inputs": [
        {
          "internalType": "bytes32",
          "name": "polyhash",
          "type": "bytes32"
        }
      ],
      "name": "covalence",
      "outputs": [
        {
          "internalType": "bool",
          "name": "",
          "type": "bool"
        }
      ],
      "stateMutability": "view",
      "type": "function"
    },
    {
      "inputs": [
        {
          "internalType": "bytes32",
          "name": "polyhash",
          "type": "bytes32"
        }
      ],
      "name": "expiry",
      "outputs": [
        {
          "internalType": "uint256",
          "name": "",
          "type": "uint256"
        }
      ],
      "stateMutability": "view",
      "type": "function"
    },
    {
      "inputs": [
        {
          "internalType": "bytes32",
          "name": "__anion",
          "type": "bytes32"
        },
        {
          "internalType": "bytes32",
          "name": "polyhash",
          "type": "bytes32"
        },
        {
          "internalType": "address",
          "name": "config",
          "type": "address"
        },
        {
          "internalType": "uint8",
          "name": "rule",
          "type": "uint8"
        }
      ],
      "name": "hook",
      "outputs": [],
      "stateMutability": "nonpayable",
      "type": "function"
    },
    {
      "inputs": [
        {
          "internalType": "bytes32",
          "name": "polyhash",
          "type": "bytes32"
        }
      ],
      "name": "hooksWithRules",
      "outputs": [
        {
          "internalType": "uint8[]",
          "name": "_rules",
          "type": "uint8[]"
        },
        {
          "internalType": "address[]",
          "name": "_hooks",
          "type": "address[]"
        }
      ],
      "stateMutability": "view",
      "type": "function"
    },
    {
      "inputs": [
        {
          "internalType": "bytes32",
          "name": "_cation",
          "type": "bytes32"
        },
        {
          "internalType": "address",
          "name": "operator",
          "type": "address"
        }
      ],
      "name": "isApprovedForAll",
      "outputs": [
        {
          "internalType": "bool",
          "name": "",
          "type": "bool"
        }
      ],
      "stateMutability": "view",
      "type": "function"
    },
    {
      "inputs": [
        {
          "internalType": "bytes32[]",
          "name": "_anion",
          "type": "bytes32[]"
        },
        {
          "internalType": "uint8[]",
          "name": "_rule",
          "type": "uint8[]"
        }
      ],
      "name": "isLegalMap",
      "outputs": [
        {
          "internalType": "bool",
          "name": "",
          "type": "bool"
        }
      ],
      "stateMutability": "pure",
      "type": "function"
    },
    {
      "inputs": [
        {
          "internalType": "bytes32",
          "name": "polyhash",
          "type": "bytes32"
        },
        {
          "internalType": "bytes32",
          "name": "_anion",
          "type": "bytes32"
        }
      ],
      "name": "isNotDuplicateAnion",
      "outputs": [
        {
          "internalType": "bool",
          "name": "",
          "type": "bool"
        }
      ],
      "stateMutability": "view",
      "type": "function"
    },
    {
      "inputs": [
        {
          "internalType": "bytes32",
          "name": "polyhash",
          "type": "bytes32"
        },
        {
          "internalType": "uint8",
          "name": "rule",
          "type": "uint8"
        }
      ],
      "name": "isNotDuplicateHook",
      "outputs": [
        {
          "internalType": "bool",
          "name": "",
          "type": "bool"
        }
      ],
      "stateMutability": "view",
      "type": "function"
    },
    {
      "inputs": [
        {
          "internalType": "bytes32",
          "name": "polyhash",
          "type": "bytes32"
        },
        {
          "internalType": "bytes32",
          "name": "__anion",
          "type": "bytes32"
        }
      ],
      "name": "popAnion",
      "outputs": [],
      "stateMutability": "nonpayable",
      "type": "function"
    },
    {
      "inputs": [
        {
          "internalType": "bytes32",
          "name": "polyhash",
          "type": "bytes32"
        }
      ],
      "name": "recordExists",
      "outputs": [
        {
          "internalType": "bool",
          "name": "",
          "type": "bool"
        }
      ],
      "stateMutability": "view",
      "type": "function"
    },
    {
      "inputs": [
        {
          "internalType": "bytes32",
          "name": "polyhash",
          "type": "bytes32"
        },
        {
          "internalType": "bytes32",
          "name": "_cation",
          "type": "bytes32"
        }
      ],
      "name": "register",
      "outputs": [],
      "stateMutability": "nonpayable",
      "type": "function"
    },
    {
      "inputs": [
        {
          "internalType": "bytes32",
          "name": "polyhash",
          "type": "bytes32"
        },
        {
          "internalType": "uint8",
          "name": "rule",
          "type": "uint8"
        },
        {
          "internalType": "bytes32",
          "name": "__anion",
          "type": "bytes32"
        }
      ],
      "name": "rehook",
      "outputs": [],
      "stateMutability": "nonpayable",
      "type": "function"
    },
    {
      "inputs": [
        {
          "internalType": "bytes32",
          "name": "polyhash",
          "type": "bytes32"
        },
        {
          "internalType": "address",
          "name": "config",
          "type": "address"
        },
        {
          "internalType": "uint8",
          "name": "rule",
          "type": "uint8"
        }
      ],
      "name": "rehook",
      "outputs": [],
      "stateMutability": "nonpayable",
      "type": "function"
    },
    {
      "inputs": [
        {
          "internalType": "bytes32",
          "name": "molyhash",
          "type": "bytes32"
        },
        {
          "internalType": "uint256",
          "name": "_expiry",
          "type": "uint256"
        }
      ],
      "name": "renew",
      "outputs": [],
      "stateMutability": "payable",
      "type": "function"
    },
    {
      "inputs": [
        {
          "internalType": "bytes32",
          "name": "polyhash",
          "type": "bytes32"
        }
      ],
      "name": "resolver",
      "outputs": [
        {
          "internalType": "address",
          "name": "",
          "type": "address"
        }
      ],
      "stateMutability": "view",
      "type": "function"
    },
    {
      "inputs": [],
      "name": "roothash",
      "outputs": [
        {
          "internalType": "bytes32",
          "name": "",
          "type": "bytes32"
        }
      ],
      "stateMutability": "view",
      "type": "function"
    },
    {
      "inputs": [
        {
          "internalType": "bytes32",
          "name": "polyhash",
          "type": "bytes32"
        },
        {
          "internalType": "bytes32",
          "name": "_alias",
          "type": "bytes32"
        }
      ],
      "name": "setAlias",
      "outputs": [],
      "stateMutability": "nonpayable",
      "type": "function"
    },
    {
      "inputs": [
        {
          "internalType": "bytes32",
          "name": "polyhash",
          "type": "bytes32"
        },
        {
          "internalType": "bytes32[]",
          "name": "_anion",
          "type": "bytes32[]"
        },
        {
          "internalType": "address[]",
          "name": "_hooks",
          "type": "address[]"
        },
        {
          "internalType": "uint8[]",
          "name": "_rule",
          "type": "uint8[]"
        }
      ],
      "name": "setAnions",
      "outputs": [],
      "stateMutability": "nonpayable",
      "type": "function"
    },
    {
      "inputs": [
        {
          "internalType": "address",
          "name": "operator",
          "type": "address"
        },
        {
          "internalType": "bool",
          "name": "approved",
          "type": "bool"
        }
      ],
      "name": "setApprovalForAll",
      "outputs": [],
      "stateMutability": "nonpayable",
      "type": "function"
    },
    {
      "inputs": [
        {
          "internalType": "bytes32",
          "name": "polyhash",
          "type": "bytes32"
        },
        {
          "internalType": "bytes32",
          "name": "_cation",
          "type": "bytes32"
        }
      ],
      "name": "setCation",
      "outputs": [],
      "stateMutability": "nonpayable",
      "type": "function"
    },
    {
      "inputs": [
        {
          "internalType": "address",
          "name": "_helix2",
          "type": "address"
        }
      ],
      "name": "setConfig",
      "outputs": [],
      "stateMutability": "nonpayable",
      "type": "function"
    },
    {
      "inputs": [
        {
          "internalType": "bytes32",
          "name": "polyhash",
          "type": "bytes32"
        },
        {
          "internalType": "address",
          "name": "_controller",
          "type": "address"
        }
      ],
      "name": "setController",
      "outputs": [],
      "stateMutability": "nonpayable",
      "type": "function"
    },
    {
      "inputs": [
        {
          "internalType": "bytes32",
          "name": "polyhash",
          "type": "bytes32"
        },
        {
          "internalType": "bool",
          "name": "_covalence",
          "type": "bool"
        }
      ],
      "name": "setCovalence",
      "outputs": [],
      "stateMutability": "nonpayable",
      "type": "function"
    },
    {
      "inputs": [
        {
          "internalType": "bytes32",
          "name": "molyhash",
          "type": "bytes32"
        },
        {
          "internalType": "uint256",
          "name": "_expiry",
          "type": "uint256"
        }
      ],
      "name": "setExpiry",
      "outputs": [],
      "stateMutability": "nonpayable",
      "type": "function"
    },
    {
      "inputs": [
        {
          "internalType": "bytes32",
          "name": "polyhash",
          "type": "bytes32"
        },
        {
          "internalType": "address",
          "name": "_resolver",
          "type": "address"
        }
      ],
      "name": "setRecord",
      "outputs": [],
      "stateMutability": "nonpayable",
      "type": "function"
    },
    {
      "inputs": [
        {
          "internalType": "bytes32",
          "name": "polyhash",
          "type": "bytes32"
        },
        {
          "internalType": "address",
          "name": "_resolver",
          "type": "address"
        }
      ],
      "name": "setResolver",
      "outputs": [],
      "stateMutability": "nonpayable",
      "type": "function"
    },
    {
      "inputs": [],
      "name": "theEnd",
      "outputs": [
        {
          "internalType": "uint256",
          "name": "",
          "type": "uint256"
        }
      ],
      "stateMutability": "view",
      "type": "function"
    },
    {
      "inputs": [],
      "name": "toggleActive",
      "outputs": [],
      "stateMutability": "nonpayable",
      "type": "function"
    },
    {
      "inputs": [
        {
          "internalType": "bytes32",
          "name": "polyhash",
          "type": "bytes32"
        },
        {
          "internalType": "bytes32",
          "name": "__anion",
          "type": "bytes32"
        }
      ],
      "name": "unhook",
      "outputs": [],
      "stateMutability": "nonpayable",
      "type": "function"
    },
    {
      "inputs": [
        {
          "internalType": "bytes32",
          "name": "polyhash",
          "type": "bytes32"
        },
        {
          "internalType": "uint8",
          "name": "rule",
          "type": "uint8"
        }
      ],
      "name": "unhook",
      "outputs": [],
      "stateMutability": "nonpayable",
      "type": "function"
    },
    {
      "inputs": [
        {
          "internalType": "bytes32",
          "name": "polyhash",
          "type": "bytes32"
        }
      ],
      "name": "unhookAll",
      "outputs": [],
      "stateMutability": "nonpayable",
      "type": "function"
    },
    {
      "inputs": [],
      "name": "withdrawEther",
      "outputs": [],
      "stateMutability": "nonpayable",
      "type": "function"
    }
  ],
  "bytecode": {
    "object": "0x60806040526002805460ff60a01b1916600160a01b1790556703782dace9d900006006553480156200003057600080fd5b5060405162005ffb38038062005ffb8339810160408190526200005391620007b1565b60028054336001600160a01b0319918216179091556000805482166001600160a01b03848116918217909255600180549093169185169190911790915560408051633215476b60e11b8152905163642a8ed6916004808201926080929091908290030181865afa158015620000cc573d6000803e3d6000fd5b505050506040513d601f19601f82011682018060405250810190620000f2919062000820565b606001516003556000546040805163bd9a548b60e01b815290516001600160a01b039092169163bd9a548b916004808201926080929091908290030181865afa15801562000144573d6000803e3d6000fd5b505050506040513d601f19601f820116820180604052508101906200016a919062000820565b606001516004556200017b62000183565b5050620008c5565b7fb4b4801cca1cad359bff6b5ea99d95160f00cbe1164fb7231c42c3e8b5f2593b80546001600160a01b0319169055604080516020818101909252600080825280526007909152620001f9907f6d5257204ebe7d88fd91ae87941cb2dd9d8062b64ae5a2bd2d28ec40b9fbf6df90600162000692565b5060007f6d5257204ebe7d88fd91ae87941cb2dd9d8062b64ae5a2bd2d28ec40b9fbf6e18190556040805160208181019092528281529180526007905262000265907f6d5257204ebe7d88fd91ae87941cb2dd9d8062b64ae5a2bd2d28ec40b9fbf6e29060016200073f565b50600080805260076020527f6d5257204ebe7d88fd91ae87941cb2dd9d8062b64ae5a2bd2d28ec40b9fbf6e38190557f6d5257204ebe7d88fd91ae87941cb2dd9d8062b64ae5a2bd2d28ec40b9fbf6e580546006547f6d5257204ebe7d88fd91ae87941cb2dd9d8062b64ae5a2bd2d28ec40b9fbf6e6556001600160a81b03191633908117600160a01b179091557f6d5257204ebe7d88fd91ae87941cb2dd9d8062b64ae5a2bd2d28ec40b9fbf6e480546001600160a01b0319169091179055805460408051633215476b60e11b815290516001600160a01b03929092169163642a8ed6916004818101926080929091908290030181865afa15801562000370573d6000803e3d6000fd5b505050506040513d601f19601f8201168201806040525081019062000396919062000820565b905060005b60048110156200068e57600060076000848460048110620003c057620003c062000887565b6020908102919091015182528181019290925260409081016000908120818052600101835281812080546001600160a01b0319166001600160a01b03959095169490941790935580519182019052818152906007908484600481106200042a576200042a62000887565b602002015181526020019081526020016000206000019060016200045092919062000692565b5081816004811062000466576200046662000887565b60200201516007600084846004811062000484576200048462000887565b60200201518152602001908152602001600020600201819055506040518060200160405280838360048110620004be57620004be62000887565b6020020151905260076000848460048110620004de57620004de62000887565b60200201518152602001908152602001600020600301906001620005049291906200073f565b508181600481106200051a576200051a62000887565b60200201516007600084846004811062000538576200053862000887565b60200201518152602001908152602001600020600401819055506001600760008484600481106200056d576200056d62000887565b6020020151815260200190815260200160002060060160146101000a81548160ff02191690831515021790555060065460076000848460048110620005b657620005b662000887565b60200201518152602001908152602001600020600701819055503360076000848460048110620005ea57620005ea62000887565b6020020151815260200190815260200160002060060160006101000a8154816001600160a01b0302191690836001600160a01b0316021790555033600760008484600481106200063e576200063e62000887565b6020020151815260200190815260200160002060050160006101000a8154816001600160a01b0302191690836001600160a01b03160217905550808062000685906200089d565b9150506200039b565b5050565b82805482825590600052602060002090601f016020900481019282156200072d5791602002820160005b83821115620006fc57835183826101000a81548160ff021916908360ff1602179055509260200192600101602081600001049283019260010302620006bc565b80156200072b5782816101000a81549060ff0219169055600101602081600001049283019260010302620006fc565b505b506200073b9291506200077d565b5090565b8280548282559060005260206000209081019282156200072d579160200282015b828111156200072d57825182559160200191906001019062000760565b5b808211156200073b57600081556001016200077e565b80516001600160a01b0381168114620007ac57600080fd5b919050565b60008060408385031215620007c557600080fd5b620007d08362000794565b9150620007e06020840162000794565b90509250929050565b604051608081016001600160401b03811182821017156200081a57634e487b7160e01b600052604160045260246000fd5b60405290565b6000608082840312156200083357600080fd5b82601f8301126200084357600080fd5b6200084d620007e9565b8060808401858111156200086057600080fd5b845b818110156200087c57805184526020938401930162000862565b509095945050505050565b634e487b7160e01b600052603260045260246000fd5b600060018201620008be57634e487b7160e01b600052601160045260246000fd5b5060010190565b61572680620008d56000396000f3fe6080604052600436106102f25760003560e01c806375c4f68e1161018f578063c5bc4c0b116100e1578063dbd4e0211161008a578063f61ccd5311610064578063f61ccd5314610906578063f79fe53814610926578063f8c912441461095957600080fd5b8063dbd4e021146108b3578063e73f8060146108d3578063f544d82f146108f357600080fd5b8063d2ec5fca116100bb578063d2ec5fca14610842578063d315690514610873578063d9b76ed41461089357600080fd5b8063c5bc4c0b146107ec578063c7876ea41461080c578063d07699aa1461082257600080fd5b80639f09d9f311610143578063b612e9b91161011d578063b612e9b91461078c578063b782426e146107ac578063b9f37c86146107cc57600080fd5b80639f09d9f31461072c578063a22cb4651461074c578063b06986281461076c57600080fd5b8063836697261161017457806383669726146106cc57806388a8c95c146106ec5780638dcad1391461070c57600080fd5b806375c4f68e146105f75780638146970a146106ac57600080fd5b8063250548b91161024857806339de6469116101fc578063516aeda0116101d6578063516aeda0146105a25780635b55b376146105c25780637362377b146105e257600080fd5b806339de6469146105425780634475bf4b146105625780634d5055841461058257600080fd5b806329c68dc11161022d57806329c68dc1146104ed5780632f92673214610502578063340268591461052257600080fd5b8063250548b9146104b7578063251c9422146104d757600080fd5b80630e68b116116102aa57806320e3dbd41161028457806320e3dbd41461045357806321ec2b5b1461047357806322b68deb1461049357600080fd5b80630e68b116146103e45780631896f70a146104115780631f06e91c1461043357600080fd5b806302fb0c5e116102db57806302fb0c5e1461035457806305e84aa0146103965780630aac6625146103b657600080fd5b80630178b8bf146102f757806301e51ae814610334575b600080fd5b34801561030357600080fd5b506103176103123660046147a0565b610979565b6040516001600160a01b0390911681526020015b60405180910390f35b34801561034057600080fd5b50600254610317906001600160a01b031681565b34801561036057600080fd5b506002546103869074010000000000000000000000000000000000000000900460ff1681565b604051901515815260200161032b565b3480156103a257600080fd5b50600154610317906001600160a01b031681565b3480156103c257600080fd5b506103d66103d13660046147a0565b6109f7565b60405161032b9291906147b9565b3480156103f057600080fd5b506104046103ff3660046147a0565b610bbb565b60405161032b9190614840565b34801561041d57600080fd5b5061043161042c366004614899565b610c7d565b005b34801561043f57600080fd5b5061043161044e3660046148c9565b610e38565b34801561045f57600080fd5b5061043161046e3660046148eb565b610ea7565b34801561047f57600080fd5b5061043161048e3660046147a0565b6110f4565b34801561049f57600080fd5b506104a960065481565b60405190815260200161032b565b3480156104c357600080fd5b506104316104d2366004614abd565b61143c565b3480156104e357600080fd5b506104a960035481565b3480156104f957600080fd5b50610431611851565b34801561050e57600080fd5b5061043161051d3660046148c9565b6118f8565b34801561052e57600080fd5b5061038661053d3660046147a0565b611a6a565b34801561054e57600080fd5b5061043161055d3660046148c9565b611af1565b34801561056e57600080fd5b5061043161057d366004614baf565b611bf4565b34801561058e57600080fd5b5061038661059d366004614bf7565b611ef3565b3480156105ae57600080fd5b506104316105bd3660046148c9565b611f9f565b3480156105ce57600080fd5b506104316105dd366004614c23565b612492565b3480156105ee57600080fd5b50610431612903565b34801561060357600080fd5b506106706106123660046147a0565b600760208190526000918252604090912060028101546004820154600583015460068401549390940154919390926001600160a01b0391821692918116917401000000000000000000000000000000000000000090910460ff169086565b6040805196875260208701959095526001600160a01b0393841694860194909452911660608401521515608083015260a082015260c00161032b565b3480156106b857600080fd5b506104316106c73660046148c9565b6129a9565b3480156106d857600080fd5b506104316106e7366004614c58565b612c13565b3480156106f857600080fd5b506104316107073660046148eb565b612e9d565b34801561071857600080fd5b506104316107273660046148c9565b612f6d565b34801561073857600080fd5b50610386610747366004614c96565b613411565b34801561075857600080fd5b50610431610767366004614d08565b61342c565b34801561077857600080fd5b50610386610787366004614899565b6134b6565b34801561079857600080fd5b506104316107a7366004614bf7565b61355a565b3480156107b857600080fd5b50600054610317906001600160a01b031681565b3480156107d857600080fd5b50600554610317906001600160a01b031681565b3480156107f857600080fd5b506104a96108073660046147a0565b6139b2565b34801561081857600080fd5b506104a960045481565b34801561082e57600080fd5b5061043161083d366004614d36565b613a1e565b34801561084e57600080fd5b506104a961085d3660046147a0565b6000908152600760208190526040909120015490565b34801561087f57600080fd5b5061043161088e366004614899565b613beb565b34801561089f57600080fd5b506104316108ae366004614899565b613d9b565b3480156108bf57600080fd5b506103176108ce3660046147a0565b613f4b565b3480156108df57600080fd5b506104316108ee366004614baf565b613fc0565b6104316109013660046148c9565b614343565b34801561091257600080fd5b506104a96109213660046147a0565b6145e9565b34801561093257600080fd5b506103866109413660046147a0565b60009081526007602081905260409091200154421090565b34801561096557600080fd5b506103866109743660046148c9565b6146e4565b600081815260076020819052604082200154829042106109d35760405162461bcd60e51b815260206004820152601060248201526f1413d31650d5531157d156141254915160821b60448201526064015b60405180910390fd5b6000838152600760205260409020600501546001600160a01b031691505b50919050565b6060808260076000828152602001908152602001600020600701544210610a535760405162461bcd60e51b815260206004820152601060248201526f1413d31650d5531157d156141254915160821b60448201526064016109ca565b60008481526007602090815260409182902080548351818402810184019094528084529091830182828015610ac557602002820191906000526020600020906000905b825461010083900a900460ff16815260206001928301818104948501949093039092029101808411610a965790505b50505050509250825167ffffffffffffffff811115610ae657610ae661490f565b604051908082528060200260200182016040528015610b0f578160200160208202803683370190505b50915060005b8351811015610bb457600760008681526020019081526020016000206001016000858381518110610b4857610b48614d5b565b602002602001015160ff1660ff16815260200190815260200160002060009054906101000a90046001600160a01b0316838281518110610b8a57610b8a614d5b565b6001600160a01b039092166020928302919091019091015280610bac81614db9565b915050610b15565b5050915091565b60608160076000828152602001908152602001600020600701544210610c165760405162461bcd60e51b815260206004820152601060248201526f1413d31650d5531157d156141254915160821b60448201526064016109ca565b600083815260076020908152604080832060030180548251818502810185019093528083529192909190830182828015610c6f57602002820191906000526020600020905b815481526020019060010190808311610c5b575b509398975050505050505050565b6000828152600760205260408082206002015460015491516302571be360e01b815260048101829052859391926001600160a01b0316906302571be390602401602060405180830381865afa158015610cda573d6000803e3d6000fd5b505050506040513d601f19601f82011682018060405250810190610cfe9190614df1565b6005549091506001600160a01b0316331480610d2257506001600160a01b03811633145b80610d5057506001600160a01b038116600090815260086020908152604080832033845290915290205460ff165b80610d7457506000838152600760205260409020600601546001600160a01b031633145b610dc05760405162461bcd60e51b815260206004820152600e60248201527f4e4f545f415554484f524953454400000000000000000000000000000000000060448201526064016109ca565b600085815260076020908152604091829020600501805473ffffffffffffffffffffffffffffffffffffffff19166001600160a01b038816908117909155915191825286917f335721b01866dc23fbee8b6b2c7b1e14d6f05c28cd35a2c934239f94095602a091015b60405180910390a25050505050565b6005546001600160a01b03163314610e925760405162461bcd60e51b815260206004820152600d60248201527f4e4f545f5245474953545241520000000000000000000000000000000000000060448201526064016109ca565b60009182526007602052604090912060040155565b6002546001600160a01b03163314610f015760405162461bcd60e51b815260206004820152600760248201527f4e4f545f4445560000000000000000000000000000000000000000000000000060448201526064016109ca565b6000805473ffffffffffffffffffffffffffffffffffffffff19166001600160a01b038316908117909155604080517f642a8ed6000000000000000000000000000000000000000000000000000000008152905163642a8ed6916004808201926080929091908290030181865afa158015610f80573d6000803e3d6000fd5b505050506040513d601f19601f82011682018060405250810190610fa49190614e0e565b60600151600355600054604080517fbd9a548b00000000000000000000000000000000000000000000000000000000815290516001600160a01b039092169163bd9a548b916004808201926080929091908290030181865afa15801561100e573d6000803e3d6000fd5b505050506040513d601f19601f820116820180604052508101906110329190614e0e565b606001516004908155600054604080517f4d3f733400000000000000000000000000000000000000000000000000000000815290516001600160a01b0390921692634d3f73349282820192608092908290030181865afa15801561109a573d6000803e3d6000fd5b505050506040513d601f19601f820116820180604052508101906110be9190614e6e565b600360200201516005805473ffffffffffffffffffffffffffffffffffffffff19166001600160a01b0390921691909117905550565b600081815260076020819052604090912001548190421061114a5760405162461bcd60e51b815260206004820152601060248201526f1413d31650d5531157d156141254915160821b60448201526064016109ca565b6000818152600760205260408082206002015460015491516302571be360e01b8152600481018290529092916001600160a01b0316906302571be390602401602060405180830381865afa1580156111a6573d6000803e3d6000fd5b505050506040513d601f19601f820116820180604052508101906111ca9190614df1565b90506001600160a01b03811633148061120657506001600160a01b038116600090815260086020908152604080832033845290915290205460ff165b8061122a57506000838152600760205260409020600601546001600160a01b031633145b6112765760405162461bcd60e51b815260206004820152601760248201527f4e4f545f4f574e45525f4f525f434f4e54524f4c4c455200000000000000000060448201526064016109ca565b6000848152600760209081526040808320805482518185028101850190935280835291929091908301828280156112ea57602002820191906000526020600020906000905b825461010083900a900460ff168152602060019283018181049485019490930390920291018084116112bb5790505b5050505050905060005b81518110156113d557600060076000888152602001908152602001600020600101600084848151811061132957611329614d5b565b602002602001015160ff1660ff16815260200190815260200160002060006101000a8154816001600160a01b0302191690836001600160a01b03160217905550857ff975f0cee916e0c09312f138a17c70e178a4c2186f302a6f085a6d5273cd105183838151811061139d5761139d614d5b565b60200260200101516040516113bb919060ff91909116815260200190565b60405180910390a2806113cd81614db9565b9150506112f4565b5060008581526007602052604081206113ed91614748565b600085815260076020526040812061140a9160039091019061476d565b60405185907f6b91085369552b61ca16180a741663b69fb6b3b967f7271116521d84e2291dc590600090a25050505050565b6000848152600760205260408082206002015460015491516302571be360e01b815260048101829052879391926001600160a01b0316906302571be390602401602060405180830381865afa158015611499573d6000803e3d6000fd5b505050506040513d601f19601f820116820180604052508101906114bd9190614df1565b6005549091506001600160a01b03163314806114e157506001600160a01b03811633145b8061150f57506001600160a01b038116600090815260086020908152604080832033845290915290205460ff165b8061153357506000838152600760205260409020600601546001600160a01b031633145b61157f5760405162461bcd60e51b815260206004820152600e60248201527f4e4f545f415554484f524953454400000000000000000000000000000000000060448201526064016109ca565b6115898685613411565b6115d55760405162461bcd60e51b815260206004820152600760248201527f4241445f4d41500000000000000000000000000000000000000000000000000060448201526064016109ca565b60005b865181101561180f578681815181106115f3576115f3614d5b565b602002602001015173__$47e4ffaaf323c41735ff299f8946896ce0$__636fd8c6859091600760008c81526020019081526020016000206003016040518363ffffffff1660e01b815260040161164a929190614ecc565b602060405180830381865af4158015611667573d6000803e3d6000fd5b505050506040513d601f19601f8201168201806040525081019061168b9190614f12565b6117fd57600760008981526020019081526020016000206003018782815181106116b7576116b7614d5b565b602090810291909101810151825460018101845560009384528284200155898252600790526040902085518690839081106116f4576116f4614d5b565b6020908102919091018101518254600181018455600093845292829020918304909101805460ff928316601f9094166101000a9384029290930219909216179055855186908290811061174957611749614d5b565b6020026020010151600760008a8152602001908152602001600020600101600087848151811061177b5761177b614d5b565b60209081029190910181015160ff1682528181019290925260409081016000908120805473ffffffffffffffffffffffffffffffffffffffff19166001600160a01b0395909516949094179093558a83526007909152902060060180547fffffffffffffffffffffff00ffffffffffffffffffffffffffffffffffffffff1690555b8061180781614db9565b9150506115d8565b50867f580d99949e5d5a02f35dc5b91b800697d53dccb814e200f24f97b4bfbeb8667c876040516118409190614840565b60405180910390a250505050505050565b6002546001600160a01b031633146118ab5760405162461bcd60e51b815260206004820152600760248201527f4e4f545f4445560000000000000000000000000000000000000000000000000060448201526064016109ca565b600280547fffffffffffffffffffffff00ffffffffffffffffffffffffffffffffffffffff8116740100000000000000000000000000000000000000009182900460ff1615909102179055565b6005546001600160a01b031633146119525760405162461bcd60e51b815260206004820152600d60248201527f4e4f545f5245474953545241520000000000000000000000000000000000000060448201526064016109ca565b6001546040516302571be360e01b8152600481018390526000916001600160a01b0316906302571be390602401602060405180830381865afa15801561199c573d6000803e3d6000fd5b505050506040513d601f19601f820116820180604052508101906119c09190614df1565b6001600160a01b031603611a165760405162461bcd60e51b815260206004820152600b60248201527f43414e4e4f545f4255524e00000000000000000000000000000000000000000060448201526064016109ca565b600082815260076020526040908190206002018290555182907f4810581adf2c16a86a375dbb1ed89b0b0f7e64d48d24e1948b3dfe6581e4d79590611a5e9084815260200190565b60405180910390a25050565b60008181526007602081905260408220015482904210611abf5760405162461bcd60e51b815260206004820152601060248201526f1413d31650d5531157d156141254915160821b60448201526064016109ca565b505060009081526007602052604090206006015474010000000000000000000000000000000000000000900460ff1690565b6005546001600160a01b03163314611b4b5760405162461bcd60e51b815260206004820152600d60248201527f4e4f545f5245474953545241520000000000000000000000000000000000000060448201526064016109ca565b600082815260076020819052604090912001548111611bac5760405162461bcd60e51b815260206004820152600a60248201527f4241445f4558504952590000000000000000000000000000000000000000000060448201526064016109ca565b600082815260076020819052604091829020018290555182907fa620b72378ee464490805a96e25b53e5c0076f0ce2d28f9691ae255a595b3bf390611a5e9084815260200190565b6000838152600760208190526040909120015483904210611c4a5760405162461bcd60e51b815260206004820152601060248201526f1413d31650d5531157d156141254915160821b60448201526064016109ca565b6000818152600760205260408082206002015460015491516302571be360e01b8152600481018290529092916001600160a01b0316906302571be390602401602060405180830381865afa158015611ca6573d6000803e3d6000fd5b505050506040513d601f19601f82011682018060405250810190611cca9190614df1565b90506001600160a01b038116331480611d0657506001600160a01b038116600090815260086020908152604080832033845290915290205460ff165b80611d2a57506000838152600760205260409020600601546001600160a01b031633145b611d765760405162461bcd60e51b815260206004820152601760248201527f4e4f545f4f574e45525f4f525f434f4e54524f4c4c455200000000000000000060448201526064016109ca565b611d8086886146e4565b611dcc5760405162461bcd60e51b815260206004820152600c60248201527f414e494f4e5f455849535453000000000000000000000000000000000000000060448201526064016109ca565b611dd68685611ef3565b611e225760405162461bcd60e51b815260206004820152600b60248201527f484f4f4b5f45584953545300000000000000000000000000000000000000000060448201526064016109ca565b600086815260076020818152604080842080546001818101835582875284872085830401805460ff808e16601f9095166101000a858102910219909116179055908652808201845282862080546001600160a01b038d1673ffffffffffffffffffffffffffffffffffffffff199091161790559383526003018054938401815584529220018890555186907fc733a2bc621cc97eef6ed4f708f126e72e6acb76c0a1c0461c9dd31f7b9870659061184090889088906001600160a01b0392909216825260ff16602082015260400190565b60008281526007602052604080822090517f26c6421b00000000000000000000000000000000000000000000000000000000815273__$47e4ffaaf323c41735ff299f8946896ce0$__916326c6421b91611f549160ff871691600401614f2f565b602060405180830381865af4158015611f71573d6000803e3d6000fd5b505050506040513d601f19601f82011682018060405250810190611f959190614f12565b1590505b92915050565b6000828152600760208190526040909120015482904210611ff55760405162461bcd60e51b815260206004820152601060248201526f1413d31650d5531157d156141254915160821b60448201526064016109ca565b6000818152600760205260408082206002015460015491516302571be360e01b8152600481018290529092916001600160a01b0316906302571be390602401602060405180830381865afa158015612051573d6000803e3d6000fd5b505050506040513d601f19601f820116820180604052508101906120759190614df1565b90506001600160a01b0381163314806120b157506001600160a01b038116600090815260086020908152604080832033845290915290205460ff165b806120d557506000838152600760205260409020600601546001600160a01b031633145b6121215760405162461bcd60e51b815260206004820152601760248201527f4e4f545f4f574e45525f4f525f434f4e54524f4c4c455200000000000000000060448201526064016109ca565b60008581526007602090815260408083208054825181850281018501909352808352919290919083018282801561219557602002820191906000526020600020906000905b825461010083900a900460ff168152602060019283018181049485019490930390920291018084116121665790505b505050505090506000600760008881526020019081526020016000206003018054806020026020016040519081016040528092919081815260200182805480156121fe57602002820191906000526020600020905b8154815260200190600101908083116121ea575b50506040517f6fd8c68500000000000000000000000000000000000000000000000000000000815293945073__$47e4ffaaf323c41735ff299f8946896ce0$__93636fd8c685935061225892508a915085906004016155ff565b602060405180830381865af4158015612275573d6000803e3d6000fd5b505050506040513d601f19601f820116820180604052508101906122999190614f12565b15612456576040517fda92b9ed00000000000000000000000000000000000000000000000000000000815260009073__$47e4ffaaf323c41735ff299f8946896ce0$__9063da92b9ed906122f3908a9086906004016155ff565b602060405180830381865af4158015612310573d6000803e3d6000fd5b505050506040513d601f19601f820116820180604052508101906123349190615640565b90506000600760008a8152602001908152602001600020600101600085848151811061236257612362614d5b565b602002602001015160ff1660ff16815260200190815260200160002060006101000a8154816001600160a01b0302191690836001600160a01b03160217905550877ff13ce89e57ea348ff8e29c4131c87b4d1b50ecf4edb1c68288b5e0cd3985b3f9886040516123d491815260200190565b60405180910390a260008881526007602052604090208054829081106123fc576123fc614d5b565b90600052602060002090602091828204019190066101000a81549060ff021916905560076000898152602001908152602001600020600301818154811061244557612445614d5b565b600091825260208220015550612489565b6040516000815287907ff13ce89e57ea348ff8e29c4131c87b4d1b50ecf4edb1c68288b5e0cd3985b3f990602001611840565b50505050505050565b60008381526007602081905260409091200154839042106124e85760405162461bcd60e51b815260206004820152601060248201526f1413d31650d5531157d156141254915160821b60448201526064016109ca565b6000818152600760205260408082206002015460015491516302571be360e01b8152600481018290529092916001600160a01b0316906302571be390602401602060405180830381865afa158015612544573d6000803e3d6000fd5b505050506040513d601f19601f820116820180604052508101906125689190614df1565b90506001600160a01b0381163314806125a457506001600160a01b038116600090815260086020908152604080832033845290915290205460ff165b806125c857506000838152600760205260409020600601546001600160a01b031633145b6126145760405162461bcd60e51b815260206004820152601760248201527f4e4f545f4f574e45525f4f525f434f4e54524f4c4c455200000000000000000060448201526064016109ca565b60008681526007602090815260408083206003018054825181850281018501909352808352919290919083018282801561266d57602002820191906000526020600020905b815481526020019060010190808311612659575b50506040517f6fd8c68500000000000000000000000000000000000000000000000000000000815293945073__$47e4ffaaf323c41735ff299f8946896ce0$__93636fd8c68593506126c7925089915085906004016155ff565b602060405180830381865af41580156126e4573d6000803e3d6000fd5b505050506040513d601f19601f820116820180604052508101906127089190614f12565b156128d1576040517fda92b9ed00000000000000000000000000000000000000000000000000000000815260009073__$47e4ffaaf323c41735ff299f8946896ce0$__9063da92b9ed9061276290899086906004016155ff565b602060405180830381865af415801561277f573d6000803e3d6000fd5b505050506040513d601f19601f820116820180604052508101906127a39190615640565b6000898152600760205260409020805491925060ff891691839081106127cb576127cb614d5b565b60009182526020918290209181049091015460ff601f9092166101000a900416036128385760405162461bcd60e51b815260206004820152600b60248201527f52554c455f45584953545300000000000000000000000000000000000000000060448201526064016109ca565b600088815260076020526040902080548891908390811061285b5761285b614d5b565b90600052602060002090602091828204019190066101000a81548160ff021916908360ff160217905550877f12bf96b3da46c044c59d8b13a96d1a5f53adf413cbe17f743ac2ed2c285257de87896040516128c392919091825260ff16602082015260400190565b60405180910390a250612489565b6040517f62316f6700000000000000000000000000000000000000000000000000000000815260040160405180910390fd5b6002546040516000916001600160a01b03169047908381818185875af1925050503d8060008114612950576040519150601f19603f3d011682016040523d82523d6000602084013e612955565b606091505b50509050806129a65760405162461bcd60e51b815260206004820152601360248201527f4554485f5452414e534645525f4641494c45440000000000000000000000000060448201526064016109ca565b50565b60008281526007602081905260409091200154829042106129ff5760405162461bcd60e51b815260206004820152601060248201526f1413d31650d5531157d156141254915160821b60448201526064016109ca565b6000818152600760205260408082206002015460015491516302571be360e01b8152600481018290529092916001600160a01b0316906302571be390602401602060405180830381865afa158015612a5b573d6000803e3d6000fd5b505050506040513d601f19601f82011682018060405250810190612a7f9190614df1565b90506001600160a01b038116331480612abb57506001600160a01b038116600090815260086020908152604080832033845290915290205460ff165b612b075760405162461bcd60e51b815260206004820152600960248201527f4e4f545f4f574e4552000000000000000000000000000000000000000000000060448201526064016109ca565b6001546040516302571be360e01b8152600481018690526000916001600160a01b0316906302571be390602401602060405180830381865afa158015612b51573d6000803e3d6000fd5b505050506040513d601f19601f82011682018060405250810190612b759190614df1565b6001600160a01b031603612bcb5760405162461bcd60e51b815260206004820152600b60248201527f43414e4e4f545f4255524e00000000000000000000000000000000000000000060448201526064016109ca565b600085815260076020526040908190206002018590555185907f4810581adf2c16a86a375dbb1ed89b0b0f7e64d48d24e1948b3dfe6581e4d79590610e299087815260200190565b6000838152600760208190526040909120015483904210612c695760405162461bcd60e51b815260206004820152601060248201526f1413d31650d5531157d156141254915160821b60448201526064016109ca565b6000818152600760205260408082206002015460015491516302571be360e01b8152600481018290529092916001600160a01b0316906302571be390602401602060405180830381865afa158015612cc5573d6000803e3d6000fd5b505050506040513d601f19601f82011682018060405250810190612ce99190614df1565b90506001600160a01b038116331480612d2557506001600160a01b038116600090815260086020908152604080832033845290915290205460ff165b80612d4957506000838152600760205260409020600601546001600160a01b031633145b612d955760405162461bcd60e51b815260206004820152601760248201527f4e4f545f4f574e45525f4f525f434f4e54524f4c4c455200000000000000000060448201526064016109ca565b600086815260076020908152604080832060ff881684526001019091529020546001600160a01b03808716911603612e0f5760405162461bcd60e51b815260206004820152600b60248201527f52554c455f45584953545300000000000000000000000000000000000000000060448201526064016109ca565b600086815260076020908152604080832060ff88168085526001909101835292819020805473ffffffffffffffffffffffffffffffffffffffff19166001600160a01b038a1690811790915581519081529182019290925287917f1abc00531586337cfd45709506ca0d48a44e1eb54325e589ec054ce83373e07a91015b60405180910390a2505050505050565b6002546001600160a01b03163314612ef75760405162461bcd60e51b815260206004820152600760248201527f4e4f545f4445560000000000000000000000000000000000000000000000000060448201526064016109ca565b600254604080516001600160a01b03928316815291831660208301527fdec101f106d4fc7c85791843e64b198248c822298e3ed7046231d33f7783d816910160405180910390a16002805473ffffffffffffffffffffffffffffffffffffffff19166001600160a01b0392909216919091179055565b6000828152600760208190526040909120015482904210612fc35760405162461bcd60e51b815260206004820152601060248201526f1413d31650d5531157d156141254915160821b60448201526064016109ca565b6000818152600760205260408082206002015460015491516302571be360e01b8152600481018290529092916001600160a01b0316906302571be390602401602060405180830381865afa15801561301f573d6000803e3d6000fd5b505050506040513d601f19601f820116820180604052508101906130439190614df1565b90506001600160a01b03811633148061307f57506001600160a01b038116600090815260086020908152604080832033845290915290205460ff165b806130a357506000838152600760205260409020600601546001600160a01b031633145b6130ef5760405162461bcd60e51b815260206004820152601760248201527f4e4f545f4f574e45525f4f525f434f4e54524f4c4c455200000000000000000060448201526064016109ca565b60008581526007602090815260408083206003018054825181850281018501909352808352919290919083018282801561314857602002820191906000526020600020905b815481526020019060010190808311613134575b5050506000898152600760209081526040808320805482518185028101850190935280835296975092959094509192508301828280156131c557602002820191906000526020600020906000905b825461010083900a900460ff168152602060019283018181049485019490930390920291018084116131965790505b50506040517f6fd8c68500000000000000000000000000000000000000000000000000000000815293945073__$47e4ffaaf323c41735ff299f8946896ce0$__93636fd8c685935061321f92508a915086906004016155ff565b602060405180830381865af415801561323c573d6000803e3d6000fd5b505050506040513d601f19601f820116820180604052508101906132609190614f12565b156128d1576040517fda92b9ed00000000000000000000000000000000000000000000000000000000815260009073__$47e4ffaaf323c41735ff299f8946896ce0$__9063da92b9ed906132ba908a9087906004016155ff565b602060405180830381865af41580156132d7573d6000803e3d6000fd5b505050506040513d601f19601f820116820180604052508101906132fb9190615640565b90506000600760008a8152602001908152602001600020600101600084848151811061332957613329614d5b565b602002602001015160ff1660ff16815260200190815260200160002060006101000a8154816001600160a01b0302191690836001600160a01b0316021790555060076000898152602001908152602001600020600301818154811061339057613390614d5b565b6000918252602080832090910182905589825260079052604090208054829081106133bd576133bd614d5b565b90600052602060002090602091828204019190066101000a81549060ff0219169055877f5c379d054844760656a56e062f50208b458cfa0c4427574f5a2828d19602b4e9886040516128c391815260200190565b6000815183510361342457506001611f99565b506000611f99565b3360008181526008602090815260408083206001600160a01b0387168085529083529281902080547fffffffffffffffffffffffffffffffffffffffffffffffffffffffffffffff001686151590811790915590519081529192917f17307eab39ab6107e8899845ad3d59bd9653f200f220920489ca2b5937696c31910160405180910390a35050565b6001546040516302571be360e01b81526004810184905260009182916001600160a01b03909116906302571be390602401602060405180830381865afa158015613504573d6000803e3d6000fd5b505050506040513d601f19601f820116820180604052508101906135289190614df1565b6001600160a01b0390811660009081526008602090815260408083209387168352929052205460ff1691505092915050565b60008281526007602081905260409091200154829042106135b05760405162461bcd60e51b815260206004820152601060248201526f1413d31650d5531157d156141254915160821b60448201526064016109ca565b6000818152600760205260408082206002015460015491516302571be360e01b8152600481018290529092916001600160a01b0316906302571be390602401602060405180830381865afa15801561360c573d6000803e3d6000fd5b505050506040513d601f19601f820116820180604052508101906136309190614df1565b90506001600160a01b03811633148061366c57506001600160a01b038116600090815260086020908152604080832033845290915290205460ff165b8061369057506000838152600760205260409020600601546001600160a01b031633145b6136dc5760405162461bcd60e51b815260206004820152601760248201527f4e4f545f4f574e45525f4f525f434f4e54524f4c4c455200000000000000000060448201526064016109ca565b60008581526007602090815260408083208054825181850281018501909352808352919290919083018282801561375057602002820191906000526020600020906000905b825461010083900a900460ff168152602060019283018181049485019490930390920291018084116137215790505b50506040517f26c6421b00000000000000000000000000000000000000000000000000000000815293945073__$47e4ffaaf323c41735ff299f8946896ce0$__936326c6421b93506137ad925060ff8a1691508590600401615659565b602060405180830381865af41580156137ca573d6000803e3d6000fd5b505050506040513d601f19601f820116820180604052508101906137ee9190614f12565b15613978576040517f8ab65ceb00000000000000000000000000000000000000000000000000000000815260009073__$47e4ffaaf323c41735ff299f8946896ce0$__90638ab65ceb9061384b9060ff8a16908690600401615659565b602060405180830381865af4158015613868573d6000803e3d6000fd5b505050506040513d601f19601f8201168201806040525081019061388c9190615640565b600088815260076020908152604080832060ff8b168085526001909101835292819020805473ffffffffffffffffffffffffffffffffffffffff191690555191825291925088917ff975f0cee916e0c09312f138a17c70e178a4c2186f302a6f085a6d5273cd1051910160405180910390a2600087815260076020526040902080548290811061391e5761391e614d5b565b90600052602060002090602091828204019190066101000a81549060ff021916905560076000888152602001908152602001600020600301818154811061396757613967614d5b565b6000918252602082200155506139aa565b6040517fe8dd1d3e00000000000000000000000000000000000000000000000000000000815260040160405180910390fd5b505050505050565b60008181526007602081905260408220015482904210613a075760405162461bcd60e51b815260206004820152601060248201526f1413d31650d5531157d156141254915160821b60448201526064016109ca565b505060009081526007602052604090206004015490565b6000828152600760205260408082206002015460015491516302571be360e01b815260048101829052859391926001600160a01b0316906302571be390602401602060405180830381865afa158015613a7b573d6000803e3d6000fd5b505050506040513d601f19601f82011682018060405250810190613a9f9190614df1565b6005549091506001600160a01b0316331480613ac357506001600160a01b03811633145b80613af157506001600160a01b038116600090815260086020908152604080832033845290915290205460ff165b80613b1557506000838152600760205260409020600601546001600160a01b031633145b613b615760405162461bcd60e51b815260206004820152600e60248201527f4e4f545f415554484f524953454400000000000000000000000000000000000060448201526064016109ca565b60008581526007602052604090819020600601805486151574010000000000000000000000000000000000000000027fffffffffffffffffffffff00ffffffffffffffffffffffffffffffffffffffff9091161790555185907fe6ccdb52b4954ab2c3e293f1dbfe593e6c5630962a1944bfcf20c5563eeb846290610e2990871515815260200190565b6000828152600760205260408082206002015460015491516302571be360e01b815260048101829052859391926001600160a01b0316906302571be390602401602060405180830381865afa158015613c48573d6000803e3d6000fd5b505050506040513d601f19601f82011682018060405250810190613c6c9190614df1565b6005549091506001600160a01b0316331480613c9057506001600160a01b03811633145b80613cbe57506001600160a01b038116600090815260086020908152604080832033845290915290205460ff165b80613ce257506000838152600760205260409020600601546001600160a01b031633145b613d2e5760405162461bcd60e51b815260206004820152600e60248201527f4e4f545f415554484f524953454400000000000000000000000000000000000060448201526064016109ca565b600085815260076020908152604091829020600601805473ffffffffffffffffffffffffffffffffffffffff19166001600160a01b038816908117909155915191825286917fe5108446a6097aab57fd36f346a515a78fddefa87d81662d44e0d7a463f920959101610e29565b6000828152600760205260408082206002015460015491516302571be360e01b815260048101829052859391926001600160a01b0316906302571be390602401602060405180830381865afa158015613df8573d6000803e3d6000fd5b505050506040513d601f19601f82011682018060405250810190613e1c9190614df1565b6005549091506001600160a01b0316331480613e4057506001600160a01b03811633145b80613e6e57506001600160a01b038116600090815260086020908152604080832033845290915290205460ff165b80613e9257506000838152600760205260409020600601546001600160a01b031633145b613ede5760405162461bcd60e51b815260206004820152600e60248201527f4e4f545f415554484f524953454400000000000000000000000000000000000060448201526064016109ca565b600085815260076020908152604091829020600501805473ffffffffffffffffffffffffffffffffffffffff19166001600160a01b038816908117909155915191825286917fcb71326aeaad88869e8be8be2893e1119f7617ce4ea2411af127e218909be1f79101610e29565b60008181526007602081905260408220015482904210613fa05760405162461bcd60e51b815260206004820152601060248201526f1413d31650d5531157d156141254915160821b60448201526064016109ca565b50506000908152600760205260409020600601546001600160a01b031690565b60008481526007602081905260409091200154849042106140165760405162461bcd60e51b815260206004820152601060248201526f1413d31650d5531157d156141254915160821b60448201526064016109ca565b6000818152600760205260408082206002015460015491516302571be360e01b8152600481018290529092916001600160a01b0316906302571be390602401602060405180830381865afa158015614072573d6000803e3d6000fd5b505050506040513d601f19601f820116820180604052508101906140969190614df1565b90506001600160a01b0381163314806140d257506001600160a01b038116600090815260086020908152604080832033845290915290205460ff165b806140f657506000838152600760205260409020600601546001600160a01b031633145b6141425760405162461bcd60e51b815260206004820152601760248201527f4e4f545f4f574e45525f4f525f434f4e54524f4c4c455200000000000000000060448201526064016109ca565b61414c87876146e4565b6141985760405162461bcd60e51b815260206004820152600c60248201527f414e494f4e5f455849535453000000000000000000000000000000000000000060448201526064016109ca565b6141a28785611ef3565b6141ee5760405162461bcd60e51b815260206004820152600b60248201527f484f4f4b5f45584953545300000000000000000000000000000000000000000060448201526064016109ca565b600087815260076020908152604080832060ff881684526001019091529020546001600160a01b038087169116036142685760405162461bcd60e51b815260206004820152600b60248201527f52554c455f45584953545300000000000000000000000000000000000000000060448201526064016109ca565b600087815260076020908152604080832060038101805460018181018355918652848620018b90558154808201835582865284862085820401805460ff808d16601f9094166101000a8481029102199091161790559094529290920190525187907f600ffddd29393ca43c0a11fa6b0b7096631364178cb42f9d546c0a2cd22525ee906142f89089815260200190565b60405180910390a2604080516001600160a01b038716815260ff8616602082015288917fc733a2bc621cc97eef6ed4f708f126e72e6acb76c0a1c0461c9dd31f7b9870659101611840565b60008281526007602081905260409091200154829042106143995760405162461bcd60e51b815260206004820152601060248201526f1413d31650d5531157d156141254915160821b60448201526064016109ca565b6000818152600760205260408082206002015460015491516302571be360e01b8152600481018290529092916001600160a01b0316906302571be390602401602060405180830381865afa1580156143f5573d6000803e3d6000fd5b505050506040513d601f19601f820116820180604052508101906144199190614df1565b90506001600160a01b03811633148061445557506001600160a01b038116600090815260086020908152604080832033845290915290205460ff165b8061447957506000838152600760205260409020600601546001600160a01b031633145b6144c55760405162461bcd60e51b815260206004820152601760248201527f4e4f545f4f574e45525f4f525f434f4e54524f4c4c455200000000000000000060448201526064016109ca565b6000858152600760208190526040909120015484116145265760405162461bcd60e51b815260206004820152600a60248201527f4241445f4558504952590000000000000000000000000000000000000000000060448201526064016109ca565b60008581526007602081905260408220015461454290866156a0565b90506004548161455291906156b3565b3410156145a15760405162461bcd60e51b815260206004820152601260248201527f494e53554646494349454e545f4554484552000000000000000000000000000060448201526064016109ca565b600086815260076020819052604091829020018690555186907fa620b72378ee464490805a96e25b53e5c0076f0ce2d28f9691ae255a595b3bf390612e8d9088815260200190565b6000818152600760208190526040822001548290421061463e5760405162461bcd60e51b815260206004820152601060248201526f1413d31650d5531157d156141254915160821b60448201526064016109ca565b6000838152600760205260408082206002015460015491516302571be360e01b8152600481018290529092916001600160a01b0316906302571be390602401602060405180830381865afa15801561469a573d6000803e3d6000fd5b505050506040513d601f19601f820116820180604052508101906146be9190614df1565b9050306001600160a01b038216036146dc57600354935050506109f1565b509392505050565b60008281526007602052604080822090517f6fd8c68500000000000000000000000000000000000000000000000000000000815273__$47e4ffaaf323c41735ff299f8946896ce0$__91636fd8c68591611f54918691600390910190600401614ecc565b50805460008255601f0160209004906000526020600020908101906129a69190614787565b50805460008255906000526020600020908101906129a691905b5b8082111561479c5760008155600101614788565b5090565b6000602082840312156147b257600080fd5b5035919050565b604080825283519082018190526000906020906060840190828701845b828110156147f557815160ff16845292840192908401906001016147d6565b5050508381038285015284518082528583019183019060005b818110156148335783516001600160a01b03168352928401929184019160010161480e565b5090979650505050505050565b6020808252825182820181905260009190848201906040850190845b818110156148785783518352928401929184019160010161485c565b50909695505050505050565b6001600160a01b03811681146129a657600080fd5b600080604083850312156148ac57600080fd5b8235915060208301356148be81614884565b809150509250929050565b600080604083850312156148dc57600080fd5b50508035926020909101359150565b6000602082840312156148fd57600080fd5b813561490881614884565b9392505050565b7f4e487b7100000000000000000000000000000000000000000000000000000000600052604160045260246000fd5b6040516080810167ffffffffffffffff811182821017156149615761496161490f565b60405290565b604051601f82017fffffffffffffffffffffffffffffffffffffffffffffffffffffffffffffffe016810167ffffffffffffffff811182821017156149ae576149ae61490f565b604052919050565b600067ffffffffffffffff8211156149d0576149d061490f565b5060051b60200190565b600082601f8301126149eb57600080fd5b81356020614a006149fb836149b6565b614967565b82815260059290921b84018101918181019086841115614a1f57600080fd5b8286015b84811015614a3a5780358352918301918301614a23565b509695505050505050565b803560ff81168114614a5657600080fd5b919050565b600082601f830112614a6c57600080fd5b81356020614a7c6149fb836149b6565b82815260059290921b84018101918181019086841115614a9b57600080fd5b8286015b84811015614a3a57614ab081614a45565b8352918301918301614a9f565b60008060008060808587031215614ad357600080fd5b8435935060208086013567ffffffffffffffff80821115614af357600080fd5b614aff89838a016149da565b95506040880135915080821115614b1557600080fd5b818801915088601f830112614b2957600080fd5b8135614b376149fb826149b6565b81815260059190911b8301840190848101908b831115614b5657600080fd5b938501935b82851015614b7d578435614b6e81614884565b82529385019390850190614b5b565b965050506060880135925080831115614b9557600080fd5b5050614ba387828801614a5b565b91505092959194509250565b60008060008060808587031215614bc557600080fd5b84359350602085013592506040850135614bde81614884565b9150614bec60608601614a45565b905092959194509250565b60008060408385031215614c0a57600080fd5b82359150614c1a60208401614a45565b90509250929050565b600080600060608486031215614c3857600080fd5b83359250614c4860208501614a45565b9150604084013590509250925092565b600080600060608486031215614c6d57600080fd5b833592506020840135614c7f81614884565b9150614c8d60408501614a45565b90509250925092565b60008060408385031215614ca957600080fd5b823567ffffffffffffffff80821115614cc157600080fd5b614ccd868387016149da565b93506020850135915080821115614ce357600080fd5b50614cf085828601614a5b565b9150509250929050565b80151581146129a657600080fd5b60008060408385031215614d1b57600080fd5b8235614d2681614884565b915060208301356148be81614cfa565b60008060408385031215614d4957600080fd5b8235915060208301356148be81614cfa565b7f4e487b7100000000000000000000000000000000000000000000000000000000600052603260045260246000fd5b7f4e487b7100000000000000000000000000000000000000000000000000000000600052601160045260246000fd5b60007fffffffffffffffffffffffffffffffffffffffffffffffffffffffffffffffff8203614dea57614dea614d8a565b5060010190565b600060208284031215614e0357600080fd5b815161490881614884565b600060808284031215614e2057600080fd5b82601f830112614e2f57600080fd5b614e3761493e565b806080840185811115614e4957600080fd5b845b81811015614e63578051845260209384019301614e4b565b509095945050505050565b600060808284031215614e8057600080fd5b82601f830112614e8f57600080fd5b614e9761493e565b806080840185811115614ea957600080fd5b845b81811015614e63578051614ebe81614884565b845260209384019301614eab565b60006040820184835260206040818501528185548084526060860191508660005282600020935060005b8181101561483357845483526001948501949284019201614ef6565b600060208284031215614f2457600080fd5b815161490881614cfa565b60006040820160ff80861684526020604081860152828654614f55818690815260200190565b60008981526020812096509092505b81601f820110156151eb57855460ff868216168452614f8c858501878360081c1660ff169052565b614fa060408501878360101c1660ff169052565b6060614fb5818601888460181c1660ff169052565b6080614fc981870189858a1c1660ff169052565b60a0614fde8188018a8660281c1660ff169052565b60c0614ff38189018b8760301c1660ff169052565b60e0615008818a018c8860381c1660ff169052565b61501d6101008a018c8860401c1660ff169052565b6150326101208a018c8860481c1660ff169052565b6150476101408a018c8860501c1660ff169052565b61505c6101608a018c8860581c1660ff169052565b60ff86861c8c16166101808a015261507f6101a08a018c8860681c1660ff169052565b6150946101c08a018c8860701c1660ff169052565b6150a96101e08a018c8860781c1660ff169052565b60ff86851c8c16166102008a01526150cc6102208a018c8860881c1660ff169052565b6150e16102408a018c8860901c1660ff169052565b6150f66102608a018c8860981c1660ff169052565b60ff86841c8c16166102808a01526151196102a08a018c8860a81c1660ff169052565b61512e6102c08a018c8860b01c1660ff169052565b6151436102e08a018c8860b81c1660ff169052565b60ff86831c8c16166103008a01526151666103208a018c8860c81c1660ff169052565b61517b6103408a018c8860d01c1660ff169052565b6151906103608a018c8860d81c1660ff169052565b60ff86821c8c16166103808a015250505050506151b86103a08501878360e81c1660ff169052565b6151cd6103c08501878360f01c1660ff169052565b60f81c6103e084015260019590950194610400909201918301614f64565b945494818110156152065760ff868616168352918301916001015b818110156152275761521f83868860081c1660ff169052565b918301916001015b818110156152485761524083868860101c1660ff169052565b918301916001015b818110156152695761526183868860181c1660ff169052565b918301916001015b818110156152835760ff86851c8616168352918301916001015b818110156152a45761529c83868860281c1660ff169052565b918301916001015b818110156152c5576152bd83868860301c1660ff169052565b918301916001015b818110156152e6576152de83868860381c1660ff169052565b918301916001015b81811015615307576152ff83868860401c1660ff169052565b918301916001015b818110156153285761532083868860481c1660ff169052565b918301916001015b818110156153495761534183868860501c1660ff169052565b918301916001015b8181101561536a5761536283868860581c1660ff169052565b918301916001015b8181101561538b5761538383868860601c1660ff169052565b918301916001015b818110156153ac576153a483868860681c1660ff169052565b918301916001015b818110156153cd576153c583868860701c1660ff169052565b918301916001015b818110156153ee576153e683868860781c1660ff169052565b918301916001015b8181101561540f5761540783868860801c1660ff169052565b918301916001015b818110156154305761542883868860881c1660ff169052565b918301916001015b818110156154515761544983868860901c1660ff169052565b918301916001015b818110156154725761546a83868860981c1660ff169052565b918301916001015b818110156154935761548b83868860a01c1660ff169052565b918301916001015b818110156154b4576154ac83868860a81c1660ff169052565b918301916001015b818110156154d5576154cd83868860b01c1660ff169052565b918301916001015b818110156154f6576154ee83868860b81c1660ff169052565b918301916001015b818110156155175761550f83868860c01c1660ff169052565b918301916001015b818110156155385761553083868860c81c1660ff169052565b918301916001015b818110156155595761555183868860d01c1660ff169052565b918301916001015b8181101561557a5761557283868860d81c1660ff169052565b918301916001015b8181101561559b5761559383868860e01c1660ff169052565b918301916001015b818110156155bc576155b483868860e81c1660ff169052565b918301916001015b818110156155dd576155d583868860f01c1660ff169052565b918301916001015b818110156155f15760f886901c8352918301915b509098975050505050505050565b6000604082018483526020604081850152818551808452606086019150828701935060005b8181101561483357845183529383019391830191600101615624565b60006020828403121561565257600080fd5b5051919050565b60006040820160ff80861684526020604081860152828651808552606087019150828801945060005b818110156155f1578551851683529483019491830191600101615682565b81810381811115611f9957611f99614d8a565b6000817fffffffffffffffffffffffffffffffffffffffffffffffffffffffffffffffff04831182151516156156eb576156eb614d8a565b50029056fea2646970667358221220add9110aef6277d7527225432d2d9b8687622dc559d4704290398ddd5b9ae08864736f6c63430008100033",
    "linkReferences": {
      "src/Utils/LibString.sol": {
        "LibString": [
          {
            "start": 7890,
            "length": 20
          },
          {
            "start": 10238,
            "length": 20
          },
          {
            "start": 11008,
            "length": 20
          },
          {
            "start": 11166,
            "length": 20
          },
          {
            "start": 12143,
            "length": 20
          },
          {
            "start": 12301,
            "length": 20
          },
          {
            "start": 15047,
            "length": 20
          },
          {
            "start": 15205,
            "length": 20
          },
          {
            "start": 16466,
            "length": 20
          },
          {
            "start": 16627,
            "length": 20
          },
          {
            "start": 20463,
            "length": 20
          }
        ]
      }
    }
  },
  "methodIdentifiers": {
    "Dev()": "01e51ae8",
    "HELIX2()": "b782426e",
    "NAMES()": "05e84aa0",
    "Polycules(bytes32)": "75c4f68e",
    "Registrar()": "b9f37c86",
    "active()": "02fb0c5e",
    "addAnion(bytes32,bytes32,address,uint8)": "e73f8060",
    "alias_(bytes32)": "c5bc4c0b",
    "anion(bytes32)": "0e68b116",
    "basePrice()": "c7876ea4",
    "cation(bytes32)": "f61ccd53",
    "changeDev(address)": "88a8c95c",
    "controller(bytes32)": "dbd4e021",
    "covalence(bytes32)": "34026859",
    "expiry(bytes32)": "d2ec5fca",
    "hook(bytes32,bytes32,address,uint8)": "4475bf4b",
    "hooksWithRules(bytes32)": "0aac6625",
    "isApprovedForAll(bytes32,address)": "b0698628",
    "isLegalMap(bytes32[],uint8[])": "9f09d9f3",
    "isNotDuplicateAnion(bytes32,bytes32)": "f8c91244",
    "isNotDuplicateHook(bytes32,uint8)": "4d505584",
    "popAnion(bytes32,bytes32)": "8dcad139",
    "recordExists(bytes32)": "f79fe538",
    "register(bytes32,bytes32)": "2f926732",
    "rehook(bytes32,address,uint8)": "83669726",
    "rehook(bytes32,uint8,bytes32)": "5b55b376",
    "renew(bytes32,uint256)": "f544d82f",
    "resolver(bytes32)": "0178b8bf",
    "roothash()": "251c9422",
    "setAlias(bytes32,bytes32)": "1f06e91c",
    "setAnions(bytes32,bytes32[],address[],uint8[])": "250548b9",
    "setApprovalForAll(address,bool)": "a22cb465",
    "setCation(bytes32,bytes32)": "8146970a",
    "setConfig(address)": "20e3dbd4",
    "setController(bytes32,address)": "d3156905",
    "setCovalence(bytes32,bool)": "d07699aa",
    "setExpiry(bytes32,uint256)": "39de6469",
    "setRecord(bytes32,address)": "d9b76ed4",
    "setResolver(bytes32,address)": "1896f70a",
    "theEnd()": "22b68deb",
    "toggleActive()": "29c68dc1",
    "unhook(bytes32,bytes32)": "516aeda0",
    "unhook(bytes32,uint8)": "b612e9b9",
    "unhookAll(bytes32)": "21ec2b5b",
    "withdrawEther()": "7362377b"
  },
  "id": 39
}