{
  "abi": [
    {
      "inputs": [
        {
          "internalType": "address",
          "name": "_registry",
          "type": "address"
        },
        {
          "internalType": "address",
          "name": "_helix2",
          "type": "address"
        },
        {
          "internalType": "address",
          "name": "_priceOracle",
          "type": "address"
        }
      ],
      "stateMutability": "nonpayable",
      "type": "constructor"
    },
    {
      "inputs": [],
      "name": "BAD_ANION",
      "type": "error"
    },
    {
      "inputs": [],
      "name": "BAD_HOOK",
      "type": "error"
    },
    {
      "anonymous": false,
      "inputs": [
        {
          "indexed": true,
          "internalType": "address",
          "name": "cation",
          "type": "address"
        },
        {
          "indexed": true,
          "internalType": "address",
          "name": "operator",
          "type": "address"
        },
        {
          "indexed": false,
          "internalType": "bool",
          "name": "approved",
          "type": "bool"
        }
      ],
      "name": "ApprovalForAll",
      "type": "event"
    },
    {
      "anonymous": false,
      "inputs": [
        {
          "indexed": true,
          "internalType": "bytes32",
          "name": "polyhash",
          "type": "bytes32"
        },
        {
          "indexed": false,
          "internalType": "address",
          "name": "config",
          "type": "address"
        },
        {
          "indexed": false,
          "internalType": "uint8",
          "name": "rule",
          "type": "uint8"
        }
      ],
      "name": "Hooked",
      "type": "event"
    },
    {
      "anonymous": false,
      "inputs": [
        {
          "indexed": true,
          "internalType": "bytes32",
          "name": "polyhash",
          "type": "bytes32"
        },
        {
          "indexed": false,
          "internalType": "bytes32",
          "name": "anion",
          "type": "bytes32"
        }
      ],
      "name": "NewAnion",
      "type": "event"
    },
    {
      "anonymous": false,
      "inputs": [
        {
          "indexed": true,
          "internalType": "bytes32",
          "name": "polyhash",
          "type": "bytes32"
        },
        {
          "indexed": false,
          "internalType": "bytes32[]",
          "name": "anion",
          "type": "bytes32[]"
        }
      ],
      "name": "NewAnions",
      "type": "event"
    },
    {
      "anonymous": false,
      "inputs": [
        {
          "indexed": true,
          "internalType": "bytes32",
          "name": "polyhash",
          "type": "bytes32"
        },
        {
          "indexed": false,
          "internalType": "bytes32",
          "name": "cation",
          "type": "bytes32"
        }
      ],
      "name": "NewCation",
      "type": "event"
    },
    {
      "anonymous": false,
      "inputs": [
        {
          "indexed": true,
          "internalType": "bytes32",
          "name": "polyhash",
          "type": "bytes32"
        },
        {
          "indexed": false,
          "internalType": "address",
          "name": "controller",
          "type": "address"
        }
      ],
      "name": "NewController",
      "type": "event"
    },
    {
      "anonymous": false,
      "inputs": [
        {
          "indexed": true,
          "internalType": "bytes32",
          "name": "polyhash",
          "type": "bytes32"
        },
        {
          "indexed": false,
          "internalType": "bool",
          "name": "covalence",
          "type": "bool"
        }
      ],
      "name": "NewCovalence",
      "type": "event"
    },
    {
      "anonymous": false,
      "inputs": [
        {
          "indexed": true,
          "internalType": "bytes32",
          "name": "polyhash",
          "type": "bytes32"
        },
        {
          "indexed": false,
          "internalType": "uint256",
          "name": "expiry",
          "type": "uint256"
        }
      ],
      "name": "NewExpiry",
      "type": "event"
    },
    {
      "anonymous": false,
      "inputs": [
        {
          "indexed": true,
          "internalType": "bytes32",
          "name": "polyhash",
          "type": "bytes32"
        },
        {
          "indexed": false,
          "internalType": "address",
          "name": "resolver",
          "type": "address"
        }
      ],
      "name": "NewRecord",
      "type": "event"
    },
    {
      "anonymous": false,
      "inputs": [
        {
          "indexed": true,
          "internalType": "bytes32",
          "name": "polyhash",
          "type": "bytes32"
        },
        {
          "indexed": false,
          "internalType": "address",
          "name": "resolver",
          "type": "address"
        }
      ],
      "name": "NewResolver",
      "type": "event"
    },
    {
      "anonymous": false,
      "inputs": [
        {
          "indexed": true,
          "internalType": "address",
          "name": "previousOwner",
          "type": "address"
        },
        {
          "indexed": true,
          "internalType": "address",
          "name": "newOwner",
          "type": "address"
        }
      ],
      "name": "OwnershipTransferred",
      "type": "event"
    },
    {
      "anonymous": false,
      "inputs": [
        {
          "indexed": true,
          "internalType": "bytes32",
          "name": "polyhash",
          "type": "bytes32"
        },
        {
          "indexed": false,
          "internalType": "bytes32",
          "name": "anion",
          "type": "bytes32"
        }
      ],
      "name": "PopAnion",
      "type": "event"
    },
    {
      "anonymous": false,
      "inputs": [
        {
          "indexed": true,
          "internalType": "bytes32",
          "name": "polyhash",
          "type": "bytes32"
        },
        {
          "indexed": false,
          "internalType": "bytes32",
          "name": "anion",
          "type": "bytes32"
        },
        {
          "indexed": false,
          "internalType": "uint8",
          "name": "rule",
          "type": "uint8"
        }
      ],
      "name": "RehookedAnion",
      "type": "event"
    },
    {
      "anonymous": false,
      "inputs": [
        {
          "indexed": true,
          "internalType": "bytes32",
          "name": "polyhash",
          "type": "bytes32"
        },
        {
          "indexed": false,
          "internalType": "address",
          "name": "config",
          "type": "address"
        },
        {
          "indexed": false,
          "internalType": "uint8",
          "name": "rule",
          "type": "uint8"
        }
      ],
      "name": "RehookedConfig",
      "type": "event"
    },
    {
      "anonymous": false,
      "inputs": [
        {
          "indexed": true,
          "internalType": "bytes32",
          "name": "polyhash",
          "type": "bytes32"
        }
      ],
      "name": "UnhookedAll",
      "type": "event"
    },
    {
      "anonymous": false,
      "inputs": [
        {
          "indexed": true,
          "internalType": "bytes32",
          "name": "polyhash",
          "type": "bytes32"
        },
        {
          "indexed": false,
          "internalType": "bytes32",
          "name": "anion",
          "type": "bytes32"
        }
      ],
      "name": "UnhookedAnion",
      "type": "event"
    },
    {
      "anonymous": false,
      "inputs": [
        {
          "indexed": true,
          "internalType": "bytes32",
          "name": "polyhash",
          "type": "bytes32"
        },
        {
          "indexed": false,
          "internalType": "uint8",
          "name": "rule",
          "type": "uint8"
        }
      ],
      "name": "UnhookedConfig",
      "type": "event"
    },
    {
      "inputs": [],
      "name": "Dev",
      "outputs": [
        {
          "internalType": "address",
          "name": "",
          "type": "address"
        }
      ],
      "stateMutability": "view",
      "type": "function"
    },
    {
      "inputs": [],
      "name": "HELIX2",
      "outputs": [
        {
          "internalType": "contract iHELIX2",
          "name": "",
          "type": "address"
        }
      ],
      "stateMutability": "view",
      "type": "function"
    },
    {
      "inputs": [],
      "name": "NAMES",
      "outputs": [
        {
          "internalType": "contract iNAME",
          "name": "",
          "type": "address"
        }
      ],
      "stateMutability": "view",
      "type": "function"
    },
    {
      "inputs": [],
      "name": "PRICES",
      "outputs": [
        {
          "internalType": "contract iPriceOracle",
          "name": "",
          "type": "address"
        }
      ],
      "stateMutability": "view",
      "type": "function"
    },
    {
      "inputs": [
        {
          "internalType": "bytes32",
          "name": "",
          "type": "bytes32"
        }
      ],
      "name": "Polycules",
      "outputs": [
        {
          "internalType": "bytes32",
          "name": "_cation",
          "type": "bytes32"
        },
        {
          "internalType": "bytes32",
          "name": "_alias",
          "type": "bytes32"
        },
        {
          "internalType": "address",
          "name": "_resolver",
          "type": "address"
        },
        {
          "internalType": "address",
          "name": "_controller",
          "type": "address"
        },
        {
          "internalType": "bool",
          "name": "_covalence",
          "type": "bool"
        },
        {
          "internalType": "uint256",
          "name": "_expiry",
          "type": "uint256"
        }
      ],
      "stateMutability": "view",
      "type": "function"
    },
    {
      "inputs": [],
      "name": "Registrar",
      "outputs": [
        {
          "internalType": "address",
          "name": "",
          "type": "address"
        }
      ],
      "stateMutability": "view",
      "type": "function"
    },
    {
      "inputs": [],
      "name": "active",
      "outputs": [
        {
          "internalType": "bool",
          "name": "",
          "type": "bool"
        }
      ],
      "stateMutability": "view",
      "type": "function"
    },
    {
      "inputs": [
        {
          "internalType": "bytes32",
          "name": "polyhash",
          "type": "bytes32"
        },
        {
          "internalType": "bytes32",
          "name": "_anion",
          "type": "bytes32"
        },
        {
          "internalType": "address",
          "name": "config",
          "type": "address"
        },
        {
          "internalType": "uint8",
          "name": "rule",
          "type": "uint8"
        }
      ],
      "name": "addAnion",
      "outputs": [],
      "stateMutability": "nonpayable",
      "type": "function"
    },
    {
      "inputs": [
        {
          "internalType": "bytes32",
          "name": "polyhash",
          "type": "bytes32"
        }
      ],
      "name": "alias_",
      "outputs": [
        {
          "internalType": "bytes32",
          "name": "",
          "type": "bytes32"
        }
      ],
      "stateMutability": "view",
      "type": "function"
    },
    {
      "inputs": [
        {
          "internalType": "bytes32",
          "name": "polyhash",
          "type": "bytes32"
        }
      ],
      "name": "anion",
      "outputs": [
        {
          "internalType": "bytes32[]",
          "name": "",
          "type": "bytes32[]"
        }
      ],
      "stateMutability": "view",
      "type": "function"
    },
    {
      "inputs": [],
      "name": "basePrice",
      "outputs": [
        {
          "internalType": "uint256",
          "name": "",
          "type": "uint256"
        }
      ],
      "stateMutability": "view",
      "type": "function"
    },
    {
      "inputs": [
        {
          "internalType": "bytes32",
          "name": "polyhash",
          "type": "bytes32"
        }
      ],
      "name": "cation",
      "outputs": [
        {
          "internalType": "bytes32",
          "name": "",
          "type": "bytes32"
        }
      ],
      "stateMutability": "view",
      "type": "function"
    },
    {
      "inputs": [
        {
          "internalType": "bytes32",
          "name": "polyhash",
          "type": "bytes32"
        }
      ],
      "name": "controller",
      "outputs": [
        {
          "internalType": "address",
          "name": "",
          "type": "address"
        }
      ],
      "stateMutability": "view",
      "type": "function"
    },
    {
      "inputs": [
        {
          "internalType": "bytes32",
          "name": "polyhash",
          "type": "bytes32"
        }
      ],
      "name": "covalence",
      "outputs": [
        {
          "internalType": "bool",
          "name": "",
          "type": "bool"
        }
      ],
      "stateMutability": "view",
      "type": "function"
    },
    {
      "inputs": [
        {
          "internalType": "bytes32",
          "name": "polyhash",
          "type": "bytes32"
        }
      ],
      "name": "expiry",
      "outputs": [
        {
          "internalType": "uint256",
          "name": "",
          "type": "uint256"
        }
      ],
      "stateMutability": "view",
      "type": "function"
    },
    {
      "inputs": [
        {
          "internalType": "bytes32",
          "name": "__anion",
          "type": "bytes32"
        },
        {
          "internalType": "bytes32",
          "name": "polyhash",
          "type": "bytes32"
        },
        {
          "internalType": "address",
          "name": "config",
          "type": "address"
        },
        {
          "internalType": "uint8",
          "name": "rule",
          "type": "uint8"
        }
      ],
      "name": "hook",
      "outputs": [],
      "stateMutability": "nonpayable",
      "type": "function"
    },
    {
      "inputs": [
        {
          "internalType": "bytes32",
          "name": "polyhash",
          "type": "bytes32"
        }
      ],
      "name": "hooksWithRules",
      "outputs": [
        {
          "internalType": "uint8[]",
          "name": "_rules",
          "type": "uint8[]"
        },
        {
          "internalType": "address[]",
          "name": "_hooks",
          "type": "address[]"
        }
      ],
      "stateMutability": "view",
      "type": "function"
    },
    {
      "inputs": [
        {
          "internalType": "bytes32",
          "name": "_cation",
          "type": "bytes32"
        },
        {
          "internalType": "address",
          "name": "operator",
          "type": "address"
        }
      ],
      "name": "isApprovedForAll",
      "outputs": [
        {
          "internalType": "bool",
          "name": "",
          "type": "bool"
        }
      ],
      "stateMutability": "view",
      "type": "function"
    },
    {
      "inputs": [
        {
          "internalType": "bytes32[]",
          "name": "_anion",
          "type": "bytes32[]"
        },
        {
          "internalType": "uint8[]",
          "name": "_rule",
          "type": "uint8[]"
        }
      ],
      "name": "isLegalMap",
      "outputs": [
        {
          "internalType": "bool",
          "name": "",
          "type": "bool"
        }
      ],
      "stateMutability": "pure",
      "type": "function"
    },
    {
      "inputs": [
        {
          "internalType": "bytes32",
          "name": "polyhash",
          "type": "bytes32"
        },
        {
          "internalType": "bytes32",
          "name": "_anion",
          "type": "bytes32"
        }
      ],
      "name": "isNotDuplicateAnion",
      "outputs": [
        {
          "internalType": "bool",
          "name": "",
          "type": "bool"
        }
      ],
      "stateMutability": "view",
      "type": "function"
    },
    {
      "inputs": [
        {
          "internalType": "bytes32",
          "name": "polyhash",
          "type": "bytes32"
        },
        {
          "internalType": "uint8",
          "name": "rule",
          "type": "uint8"
        }
      ],
      "name": "isNotDuplicateHook",
      "outputs": [
        {
          "internalType": "bool",
          "name": "",
          "type": "bool"
        }
      ],
      "stateMutability": "view",
      "type": "function"
    },
    {
      "inputs": [],
      "name": "owner",
      "outputs": [
        {
          "internalType": "address",
          "name": "",
          "type": "address"
        }
      ],
      "stateMutability": "view",
      "type": "function"
    },
    {
      "inputs": [
        {
          "internalType": "bytes32",
          "name": "polyhash",
          "type": "bytes32"
        },
        {
          "internalType": "bytes32",
          "name": "__anion",
          "type": "bytes32"
        }
      ],
      "name": "popAnion",
      "outputs": [],
      "stateMutability": "nonpayable",
      "type": "function"
    },
    {
      "inputs": [
        {
          "internalType": "bytes32",
          "name": "polyhash",
          "type": "bytes32"
        }
      ],
      "name": "recordExists",
      "outputs": [
        {
          "internalType": "bool",
          "name": "",
          "type": "bool"
        }
      ],
      "stateMutability": "view",
      "type": "function"
    },
    {
      "inputs": [
        {
          "internalType": "bytes32",
          "name": "polyhash",
          "type": "bytes32"
        },
        {
          "internalType": "bytes32",
          "name": "_cation",
          "type": "bytes32"
        }
      ],
      "name": "register",
      "outputs": [],
      "stateMutability": "nonpayable",
      "type": "function"
    },
    {
      "inputs": [
        {
          "internalType": "bytes32",
          "name": "polyhash",
          "type": "bytes32"
        },
        {
          "internalType": "uint8",
          "name": "rule",
          "type": "uint8"
        },
        {
          "internalType": "bytes32",
          "name": "__anion",
          "type": "bytes32"
        }
      ],
      "name": "rehook",
      "outputs": [],
      "stateMutability": "nonpayable",
      "type": "function"
    },
    {
      "inputs": [
        {
          "internalType": "bytes32",
          "name": "polyhash",
          "type": "bytes32"
        },
        {
          "internalType": "address",
          "name": "config",
          "type": "address"
        },
        {
          "internalType": "uint8",
          "name": "rule",
          "type": "uint8"
        }
      ],
      "name": "rehook",
      "outputs": [],
      "stateMutability": "nonpayable",
      "type": "function"
    },
    {
      "inputs": [
        {
          "internalType": "bytes32",
          "name": "molyhash",
          "type": "bytes32"
        },
        {
          "internalType": "uint256",
          "name": "_expiry",
          "type": "uint256"
        }
      ],
      "name": "renew",
      "outputs": [],
      "stateMutability": "payable",
      "type": "function"
    },
    {
      "inputs": [
        {
          "internalType": "bytes32",
          "name": "polyhash",
          "type": "bytes32"
        }
      ],
      "name": "resolver",
      "outputs": [
        {
          "internalType": "address",
          "name": "",
          "type": "address"
        }
      ],
      "stateMutability": "view",
      "type": "function"
    },
    {
      "inputs": [],
      "name": "roothash",
      "outputs": [
        {
          "internalType": "bytes32",
          "name": "",
          "type": "bytes32"
        }
      ],
      "stateMutability": "view",
      "type": "function"
    },
    {
      "inputs": [
        {
          "internalType": "bytes32",
          "name": "polyhash",
          "type": "bytes32"
        },
        {
          "internalType": "bytes32",
          "name": "_alias",
          "type": "bytes32"
        }
      ],
      "name": "setAlias",
      "outputs": [],
      "stateMutability": "nonpayable",
      "type": "function"
    },
    {
      "inputs": [
        {
          "internalType": "bytes32",
          "name": "polyhash",
          "type": "bytes32"
        },
        {
          "internalType": "bytes32[]",
          "name": "_anion",
          "type": "bytes32[]"
        },
        {
          "internalType": "address[]",
          "name": "_hooks",
          "type": "address[]"
        },
        {
          "internalType": "uint8[]",
          "name": "_rule",
          "type": "uint8[]"
        }
      ],
      "name": "setAnions",
      "outputs": [],
      "stateMutability": "nonpayable",
      "type": "function"
    },
    {
      "inputs": [
        {
          "internalType": "address",
          "name": "operator",
          "type": "address"
        },
        {
          "internalType": "bool",
          "name": "approved",
          "type": "bool"
        }
      ],
      "name": "setApprovalForAll",
      "outputs": [],
      "stateMutability": "nonpayable",
      "type": "function"
    },
    {
      "inputs": [
        {
          "internalType": "bytes32",
          "name": "polyhash",
          "type": "bytes32"
        },
        {
          "internalType": "bytes32",
          "name": "_cation",
          "type": "bytes32"
        }
      ],
      "name": "setCation",
      "outputs": [],
      "stateMutability": "nonpayable",
      "type": "function"
    },
    {
      "inputs": [
        {
          "internalType": "address",
          "name": "_helix2",
          "type": "address"
        },
        {
          "internalType": "address",
          "name": "_priceOracle",
          "type": "address"
        }
      ],
      "name": "setConfig",
      "outputs": [],
      "stateMutability": "nonpayable",
      "type": "function"
    },
    {
      "inputs": [
        {
          "internalType": "bytes32",
          "name": "polyhash",
          "type": "bytes32"
        },
        {
          "internalType": "address",
          "name": "_controller",
          "type": "address"
        }
      ],
      "name": "setController",
      "outputs": [],
      "stateMutability": "nonpayable",
      "type": "function"
    },
    {
      "inputs": [
        {
          "internalType": "bytes32",
          "name": "polyhash",
          "type": "bytes32"
        },
        {
          "internalType": "bool",
          "name": "_covalence",
          "type": "bool"
        }
      ],
      "name": "setCovalence",
      "outputs": [],
      "stateMutability": "nonpayable",
      "type": "function"
    },
    {
      "inputs": [
        {
          "internalType": "bytes32",
          "name": "molyhash",
          "type": "bytes32"
        },
        {
          "internalType": "uint256",
          "name": "_expiry",
          "type": "uint256"
        }
      ],
      "name": "setExpiry",
      "outputs": [],
      "stateMutability": "nonpayable",
      "type": "function"
    },
    {
      "inputs": [
        {
          "internalType": "bytes4",
          "name": "sig",
          "type": "bytes4"
        },
        {
          "internalType": "bool",
          "name": "value",
          "type": "bool"
        }
      ],
      "name": "setInterface",
      "outputs": [],
      "stateMutability": "payable",
      "type": "function"
    },
    {
      "inputs": [
        {
          "internalType": "bytes32",
          "name": "polyhash",
          "type": "bytes32"
        },
        {
          "internalType": "address",
          "name": "_resolver",
          "type": "address"
        }
      ],
      "name": "setRecord",
      "outputs": [],
      "stateMutability": "nonpayable",
      "type": "function"
    },
    {
      "inputs": [
        {
          "internalType": "bytes32",
          "name": "polyhash",
          "type": "bytes32"
        },
        {
          "internalType": "address",
          "name": "_resolver",
          "type": "address"
        }
      ],
      "name": "setResolver",
      "outputs": [],
      "stateMutability": "nonpayable",
      "type": "function"
    },
    {
      "inputs": [
        {
          "internalType": "bytes4",
          "name": "",
          "type": "bytes4"
        }
      ],
      "name": "supportsInterface",
      "outputs": [
        {
          "internalType": "bool",
          "name": "",
          "type": "bool"
        }
      ],
      "stateMutability": "view",
      "type": "function"
    },
    {
      "inputs": [],
      "name": "theEnd",
      "outputs": [
        {
          "internalType": "uint256",
          "name": "",
          "type": "uint256"
        }
      ],
      "stateMutability": "view",
      "type": "function"
    },
    {
      "inputs": [],
      "name": "toggleActive",
      "outputs": [],
      "stateMutability": "nonpayable",
      "type": "function"
    },
    {
      "inputs": [
        {
          "internalType": "address",
          "name": "newDev",
          "type": "address"
        }
      ],
      "name": "transferOwnership",
      "outputs": [],
      "stateMutability": "nonpayable",
      "type": "function"
    },
    {
      "inputs": [
        {
          "internalType": "bytes32",
          "name": "polyhash",
          "type": "bytes32"
        },
        {
          "internalType": "bytes32",
          "name": "__anion",
          "type": "bytes32"
        }
      ],
      "name": "unhook",
      "outputs": [],
      "stateMutability": "nonpayable",
      "type": "function"
    },
    {
      "inputs": [
        {
          "internalType": "bytes32",
          "name": "polyhash",
          "type": "bytes32"
        },
        {
          "internalType": "uint8",
          "name": "rule",
          "type": "uint8"
        }
      ],
      "name": "unhook",
      "outputs": [],
      "stateMutability": "nonpayable",
      "type": "function"
    },
    {
      "inputs": [
        {
          "internalType": "bytes32",
          "name": "polyhash",
          "type": "bytes32"
        }
      ],
      "name": "unhookAll",
      "outputs": [],
      "stateMutability": "nonpayable",
      "type": "function"
    },
    {
      "inputs": [],
      "name": "withdrawEther",
      "outputs": [],
      "stateMutability": "nonpayable",
      "type": "function"
    }
  ],
  "bytecode": {
    "object": "0x60806040526003805460ff60a01b1916600160a01b1790556703782dace9d900006008553480156200003057600080fd5b50604051620057e7380380620057e783398101604081905262000053916200082c565b60038054336001600160a01b0319918216179091556000805482166001600160a01b03858116918217909255600180549093169186169190911790915560408051633215476b60e11b8152905163642a8ed6916004808201926080929091908290030181865afa158015620000cc573d6000803e3d6000fd5b505050506040513d601f19601f82011682018060405250810190620000f29190620008ad565b60600151600555600280546001600160a01b0319166001600160a01b0383169081179091556040805163bd9a548b60e01b8152905163bd9a548b916004808201926080929091908290030181865afa15801562000153573d6000803e3d6000fd5b505050506040513d601f19601f82011682018060405250810190620001799190620008ad565b606001516006556200018a620001fe565b50506004602052507f9ff9ac02fe2241bbbf840cdf8e2fa501fea5a38af884024799704b0d9c3c91538054600160ff1991821681179092556307f5828d60e41b6000527fc82dc5f2518c2395ca0d51dc9b325ef0b4257094f40955b36ce2692f79e7f5af8054909116909117905562000952565b7f6193e49d899b753da8c8433ce9056a624e41a66c4def64ed86198ab352ac661b80546001600160a01b031916905560408051602081810190925260008082528052600990915262000274907fec8156718a8372b1db44bb411437d0870f3e3790d4a08526d024ce1b0b668f6b9060016200070d565b5060007fec8156718a8372b1db44bb411437d0870f3e3790d4a08526d024ce1b0b668f6d81905560408051602081810190925282815291805260099052620002e0907fec8156718a8372b1db44bb411437d0870f3e3790d4a08526d024ce1b0b668f6e906001620007ba565b50600080805260096020527fec8156718a8372b1db44bb411437d0870f3e3790d4a08526d024ce1b0b668f6f8190557fec8156718a8372b1db44bb411437d0870f3e3790d4a08526d024ce1b0b668f7180546008547fec8156718a8372b1db44bb411437d0870f3e3790d4a08526d024ce1b0b668f72556001600160a81b03191633908117600160a01b179091557fec8156718a8372b1db44bb411437d0870f3e3790d4a08526d024ce1b0b668f7080546001600160a01b0319169091179055805460408051633215476b60e11b815290516001600160a01b03929092169163642a8ed6916004818101926080929091908290030181865afa158015620003eb573d6000803e3d6000fd5b505050506040513d601f19601f82011682018060405250810190620004119190620008ad565b905060005b600481101562000709576000600960008484600481106200043b576200043b62000914565b6020908102919091015182528181019290925260409081016000908120818052600101835281812080546001600160a01b0319166001600160a01b0395909516949094179093558051918201905281815290600990848460048110620004a557620004a562000914565b60200201518152602001908152602001600020600001906001620004cb9291906200070d565b50818160048110620004e157620004e162000914565b602002015160096000848460048110620004ff57620004ff62000914565b6020020151815260200190815260200160002060020181905550604051806020016040528083836004811062000539576200053962000914565b602002015190526009600084846004811062000559576200055962000914565b602002015181526020019081526020016000206003019060016200057f929190620007ba565b5081816004811062000595576200059562000914565b602002015160096000848460048110620005b357620005b362000914565b6020020151815260200190815260200160002060040181905550600160096000848460048110620005e857620005e862000914565b6020020151815260200190815260200160002060060160146101000a81548160ff0219169083151502179055506008546009600084846004811062000631576200063162000914565b6020020151815260200190815260200160002060070181905550336009600084846004811062000665576200066562000914565b6020020151815260200190815260200160002060060160006101000a8154816001600160a01b0302191690836001600160a01b031602179055503360096000848460048110620006b957620006b962000914565b6020020151815260200190815260200160002060050160006101000a8154816001600160a01b0302191690836001600160a01b03160217905550808062000700906200092a565b91505062000416565b5050565b82805482825590600052602060002090601f01602090048101928215620007a85791602002820160005b838211156200077757835183826101000a81548160ff021916908360ff160217905550926020019260010160208160000104928301926001030262000737565b8015620007a65782816101000a81549060ff021916905560010160208160000104928301926001030262000777565b505b50620007b6929150620007f8565b5090565b828054828255906000526020600020908101928215620007a8579160200282015b82811115620007a8578251825591602001919060010190620007db565b5b80821115620007b65760008155600101620007f9565b80516001600160a01b03811681146200082757600080fd5b919050565b6000806000606084860312156200084257600080fd5b6200084d846200080f565b92506200085d602085016200080f565b91506200086d604085016200080f565b90509250925092565b604051608081016001600160401b0381118282101715620008a757634e487b7160e01b600052604160045260246000fd5b60405290565b600060808284031215620008c057600080fd5b82601f830112620008d057600080fd5b620008da62000876565b806080840185811115620008ed57600080fd5b845b8181101562000909578051845260209384019301620008ef565b509095945050505050565b634e487b7160e01b600052603260045260246000fd5b6000600182016200094b57634e487b7160e01b600052601160045260246000fd5b5060010190565b614e8580620009626000396000f3fe60806040526004361061031e5760003560e01c80638146970a116101a5578063c5bc4c0b116100ec578063dbd4e02111610095578063f544d82f1161006f578063f544d82f1461099c578063f61ccd53146109af578063f79fe538146109cf578063f8c9124414610a0157600080fd5b8063dbd4e0211461093c578063e73f80601461095c578063f2fde38b1461097c57600080fd5b8063d2ec5fca116100c6578063d2ec5fca146108cc578063d3156905146108fc578063d9b76ed41461091c57600080fd5b8063c5bc4c0b14610876578063c7876ea414610896578063d07699aa146108ac57600080fd5b8063b06986281161014e578063b782426e11610128578063b782426e14610823578063b9f37c8614610843578063c0a43a7c1461086357600080fd5b8063b0698628146107c3578063b602024b146107e3578063b612e9b91461080357600080fd5b80638dcad1391161017f5780638dcad139146107635780639f09d9f314610783578063a22cb465146107a357600080fd5b80638146970a1461070557806383669726146107255780638da5cb5b1461074557600080fd5b8063250548b9116102695780634475bf4b116102125780635b55b376116101ec5780635b55b3761461061e5780637362377b1461063e57806375c4f68e1461065357600080fd5b80634475bf4b146105be5780634d505584146105de578063516aeda0146105fe57600080fd5b80632f926732116102435780632f9267321461055e578063340268591461057e57806339de64691461059e57600080fd5b8063250548b914610513578063251c94221461053357806329c68dc11461054957600080fd5b80630e68b116116102cb5780631f06e91c116102a55780631f06e91c146104af57806321ec2b5b146104cf57806322b68deb146104ef57600080fd5b80630e68b116146104405780631896f70a1461046d5780631eabcd341461048f57600080fd5b806302fb0c5e116102fc57806302fb0c5e146103c057806305e84aa0146103f25780630aac66251461041257600080fd5b80630178b8bf1461032357806301e51ae81461036057806301ffc9a714610380575b600080fd5b34801561032f57600080fd5b5061034361033e366004614640565b610a21565b6040516001600160a01b0390911681526020015b60405180910390f35b34801561036c57600080fd5b50600354610343906001600160a01b031681565b34801561038c57600080fd5b506103b061039b36600461468e565b60046020526000908152604090205460ff1681565b6040519015158152602001610357565b3480156103cc57600080fd5b506003546103b09074010000000000000000000000000000000000000000900460ff1681565b3480156103fe57600080fd5b50600154610343906001600160a01b031681565b34801561041e57600080fd5b5061043261042d366004614640565b610a9f565b6040516103579291906146b0565b34801561044c57600080fd5b5061046061045b366004614640565b610c61565b6040516103579190614737565b34801561047957600080fd5b5061048d610488366004614790565b610d20565b005b34801561049b57600080fd5b50600254610343906001600160a01b031681565b3480156104bb57600080fd5b5061048d6104ca3660046147c0565b610edb565b3480156104db57600080fd5b5061048d6104ea366004614640565b610f4a565b3480156104fb57600080fd5b5061050560085481565b604051908152602001610357565b34801561051f57600080fd5b5061048d61052e36600461498b565b611291565b34801561053f57600080fd5b5061050560055481565b34801561055557600080fd5b5061048d611683565b34801561056a57600080fd5b5061048d6105793660046147c0565b61172a565b34801561058a57600080fd5b506103b0610599366004614640565b61189c565b3480156105aa57600080fd5b5061048d6105b93660046147c0565b611923565b3480156105ca57600080fd5b5061048d6105d9366004614a7d565b611a25565b3480156105ea57600080fd5b506103b06105f9366004614ac5565b611d23565b34801561060a57600080fd5b5061048d6106193660046147c0565b611db7565b34801561062a57600080fd5b5061048d610639366004614af1565b61219e565b34801561064a57600080fd5b5061048d612503565b34801561065f57600080fd5b506106c961066e366004614640565b60096020526000908152604090206002810154600482015460058301546006840154600790940154929391926001600160a01b03918216929182169174010000000000000000000000000000000000000000900460ff169086565b6040805196875260208701959095526001600160a01b0393841694860194909452911660608401521515608083015260a082015260c001610357565b34801561071157600080fd5b5061048d6107203660046147c0565b6125a9565b34801561073157600080fd5b5061048d610740366004614b26565b612812565b34801561075157600080fd5b506003546001600160a01b0316610343565b34801561076f57600080fd5b5061048d61077e3660046147c0565b612a9b565b34801561078f57600080fd5b506103b061079e366004614b64565b612e33565b3480156107af57600080fd5b5061048d6107be366004614bd8565b612e4e565b3480156107cf57600080fd5b506103b06107de366004614790565b612ed8565b3480156107ef57600080fd5b5061048d6107fe366004614c04565b612f7c565b34801561080f57600080fd5b5061048d61081e366004614ac5565b6131dc565b34801561082f57600080fd5b50600054610343906001600160a01b031681565b34801561084f57600080fd5b50600754610343906001600160a01b031681565b61048d610871366004614c32565b613528565b34801561088257600080fd5b50610505610891366004614640565b613656565b3480156108a257600080fd5b5061050560065481565b3480156108b857600080fd5b5061048d6108c7366004614c4e565b6136c2565b3480156108d857600080fd5b506105056108e7366004614640565b60009081526009602052604090206007015490565b34801561090857600080fd5b5061048d610917366004614790565b61388f565b34801561092857600080fd5b5061048d610937366004614790565b613a3f565b34801561094857600080fd5b50610343610957366004614640565b613bef565b34801561096857600080fd5b5061048d610977366004614a7d565b613c64565b34801561098857600080fd5b5061048d610997366004614c71565b613fe6565b61048d6109aa3660046147c0565b6140a9565b3480156109bb57600080fd5b506105056109ca366004614640565b61434d565b3480156109db57600080fd5b506103b06109ea366004614640565b600090815260096020526040902060070154421090565b348015610a0d57600080fd5b506103b0610a1c3660046147c0565b614448565b60008181526009602052604081206007015482904210610a7b5760405162461bcd60e51b815260206004820152601060248201526f1413d31650d5531157d156141254915160821b60448201526064015b60405180910390fd5b6000838152600960205260409020600501546001600160a01b031691505b50919050565b600081815260096020526040902060070154606090819083904210610af95760405162461bcd60e51b815260206004820152601060248201526f1413d31650d5531157d156141254915160821b6044820152606401610a72565b60008481526009602090815260409182902080548351818402810184019094528084529091830182828015610b6b57602002820191906000526020600020906000905b825461010083900a900460ff16815260206001928301818104948501949093039092029101808411610b3c5790505b50505050509250825167ffffffffffffffff811115610b8c57610b8c6147e2565b604051908082528060200260200182016040528015610bb5578160200160208202803683370190505b50915060005b8351811015610c5a57600960008681526020019081526020016000206001016000858381518110610bee57610bee614c8e565b602002602001015160ff1660ff16815260200190815260200160002060009054906101000a90046001600160a01b0316838281518110610c3057610c30614c8e565b6001600160a01b039092166020928302919091019091015280610c5281614cec565b915050610bbb565b5050915091565b60008181526009602052604090206007015460609082904210610cb95760405162461bcd60e51b815260206004820152601060248201526f1413d31650d5531157d156141254915160821b6044820152606401610a72565b600083815260096020908152604080832060030180548251818502810185019093528083529192909190830182828015610d1257602002820191906000526020600020905b815481526020019060010190808311610cfe575b509398975050505050505050565b6000828152600960205260408082206002015460015491516302571be360e01b815260048101829052859391926001600160a01b0316906302571be390602401602060405180830381865afa158015610d7d573d6000803e3d6000fd5b505050506040513d601f19601f82011682018060405250810190610da19190614d24565b6007549091506001600160a01b0316331480610dc557506001600160a01b03811633145b80610df357506001600160a01b0381166000908152600a6020908152604080832033845290915290205460ff165b80610e1757506000838152600960205260409020600601546001600160a01b031633145b610e635760405162461bcd60e51b815260206004820152600e60248201527f4e4f545f415554484f52495345440000000000000000000000000000000000006044820152606401610a72565b600085815260096020908152604091829020600501805473ffffffffffffffffffffffffffffffffffffffff19166001600160a01b038816908117909155915191825286917f335721b01866dc23fbee8b6b2c7b1e14d6f05c28cd35a2c934239f94095602a091015b60405180910390a25050505050565b6007546001600160a01b03163314610f355760405162461bcd60e51b815260206004820152600d60248201527f4e4f545f524547495354524152000000000000000000000000000000000000006044820152606401610a72565b60009182526009602052604090912060040155565b60008181526009602052604090206007015481904210610f9f5760405162461bcd60e51b815260206004820152601060248201526f1413d31650d5531157d156141254915160821b6044820152606401610a72565b6000818152600960205260408082206002015460015491516302571be360e01b8152600481018290529092916001600160a01b0316906302571be390602401602060405180830381865afa158015610ffb573d6000803e3d6000fd5b505050506040513d601f19601f8201168201806040525081019061101f9190614d24565b90506001600160a01b03811633148061105b57506001600160a01b0381166000908152600a6020908152604080832033845290915290205460ff165b8061107f57506000838152600960205260409020600601546001600160a01b031633145b6110cb5760405162461bcd60e51b815260206004820152601760248201527f4e4f545f4f574e45525f4f525f434f4e54524f4c4c45520000000000000000006044820152606401610a72565b60008481526009602090815260408083208054825181850281018501909352808352919290919083018282801561113f57602002820191906000526020600020906000905b825461010083900a900460ff168152602060019283018181049485019490930390920291018084116111105790505b5050505050905060005b815181101561122a57600060096000888152602001908152602001600020600101600084848151811061117e5761117e614c8e565b602002602001015160ff1660ff16815260200190815260200160002060006101000a8154816001600160a01b0302191690836001600160a01b03160217905550857ff975f0cee916e0c09312f138a17c70e178a4c2186f302a6f085a6d5273cd10518383815181106111f2576111f2614c8e565b6020026020010151604051611210919060ff91909116815260200190565b60405180910390a28061122281614cec565b915050611149565b506000858152600960205260408120611242916145e8565b600085815260096020526040812061125f9160039091019061460d565b60405185907f6b91085369552b61ca16180a741663b69fb6b3b967f7271116521d84e2291dc590600090a25050505050565b6000848152600960205260408082206002015460015491516302571be360e01b815260048101829052879391926001600160a01b0316906302571be390602401602060405180830381865afa1580156112ee573d6000803e3d6000fd5b505050506040513d601f19601f820116820180604052508101906113129190614d24565b6007549091506001600160a01b031633148061133657506001600160a01b03811633145b8061136457506001600160a01b0381166000908152600a6020908152604080832033845290915290205460ff165b8061138857506000838152600960205260409020600601546001600160a01b031633145b6113d45760405162461bcd60e51b815260206004820152600e60248201527f4e4f545f415554484f52495345440000000000000000000000000000000000006044820152606401610a72565b6113de8685612e33565b61142a5760405162461bcd60e51b815260206004820152600760248201527f4241445f4d4150000000000000000000000000000000000000000000000000006044820152606401610a72565b60005b86518110156116415760008881526009602090815260409182902060030180548351818402810184019094528084526114bd939283018282801561149057602002820191906000526020600020905b81548152602001906001019080831161147c575b50505050508883815181106114a7576114a7614c8e565b60200260200101516144b490919063ffffffff16565b61162f57600960008981526020019081526020016000206003018782815181106114e9576114e9614c8e565b6020908102919091018101518254600181018455600093845282842001558982526009905260409020855186908390811061152657611526614c8e565b6020908102919091018101518254600181018455600093845292829020918304909101805460ff928316601f9094166101000a9384029290930219909216179055855186908290811061157b5761157b614c8e565b6020026020010151600960008a815260200190815260200160002060010160008784815181106115ad576115ad614c8e565b60209081029190910181015160ff1682528181019290925260409081016000908120805473ffffffffffffffffffffffffffffffffffffffff19166001600160a01b0395909516949094179093558a83526009909152902060060180547fffffffffffffffffffffff00ffffffffffffffffffffffffffffffffffffffff1690555b8061163981614cec565b91505061142d565b50867f580d99949e5d5a02f35dc5b91b800697d53dccb814e200f24f97b4bfbeb8667c876040516116729190614737565b60405180910390a250505050505050565b6003546001600160a01b031633146116dd5760405162461bcd60e51b815260206004820152600760248201527f4e4f545f444556000000000000000000000000000000000000000000000000006044820152606401610a72565b600380547fffffffffffffffffffffff00ffffffffffffffffffffffffffffffffffffffff8116740100000000000000000000000000000000000000009182900460ff1615909102179055565b6007546001600160a01b031633146117845760405162461bcd60e51b815260206004820152600d60248201527f4e4f545f524547495354524152000000000000000000000000000000000000006044820152606401610a72565b6001546040516302571be360e01b8152600481018390526000916001600160a01b0316906302571be390602401602060405180830381865afa1580156117ce573d6000803e3d6000fd5b505050506040513d601f19601f820116820180604052508101906117f29190614d24565b6001600160a01b0316036118485760405162461bcd60e51b815260206004820152600b60248201527f43414e4e4f545f4255524e0000000000000000000000000000000000000000006044820152606401610a72565b600082815260096020526040908190206002018290555182907f4810581adf2c16a86a375dbb1ed89b0b0f7e64d48d24e1948b3dfe6581e4d795906118909084815260200190565b60405180910390a25050565b600081815260096020526040812060070154829042106118f15760405162461bcd60e51b815260206004820152601060248201526f1413d31650d5531157d156141254915160821b6044820152606401610a72565b505060009081526009602052604090206006015474010000000000000000000000000000000000000000900460ff1690565b6007546001600160a01b0316331461197d5760405162461bcd60e51b815260206004820152600d60248201527f4e4f545f524547495354524152000000000000000000000000000000000000006044820152606401610a72565b60008281526009602052604090206007015481116119dd5760405162461bcd60e51b815260206004820152600a60248201527f4241445f455850495259000000000000000000000000000000000000000000006044820152606401610a72565b600082815260096020526040908190206007018290555182907fa620b72378ee464490805a96e25b53e5c0076f0ce2d28f9691ae255a595b3bf3906118909084815260200190565b60008381526009602052604090206007015483904210611a7a5760405162461bcd60e51b815260206004820152601060248201526f1413d31650d5531157d156141254915160821b6044820152606401610a72565b6000818152600960205260408082206002015460015491516302571be360e01b8152600481018290529092916001600160a01b0316906302571be390602401602060405180830381865afa158015611ad6573d6000803e3d6000fd5b505050506040513d601f19601f82011682018060405250810190611afa9190614d24565b90506001600160a01b038116331480611b3657506001600160a01b0381166000908152600a6020908152604080832033845290915290205460ff165b80611b5a57506000838152600960205260409020600601546001600160a01b031633145b611ba65760405162461bcd60e51b815260206004820152601760248201527f4e4f545f4f574e45525f4f525f434f4e54524f4c4c45520000000000000000006044820152606401610a72565b611bb08688614448565b611bfc5760405162461bcd60e51b815260206004820152600c60248201527f414e494f4e5f45584953545300000000000000000000000000000000000000006044820152606401610a72565b611c068685611d23565b611c525760405162461bcd60e51b815260206004820152600b60248201527f484f4f4b5f4558495354530000000000000000000000000000000000000000006044820152606401610a72565b600086815260096020818152604080842080546001818101835582875284872085830401805460ff808e16601f9095166101000a858102910219909116179055908652808201845282862080546001600160a01b038d1673ffffffffffffffffffffffffffffffffffffffff199091161790559383526003018054938401815584529220018890555186907fc733a2bc621cc97eef6ed4f708f126e72e6acb76c0a1c0461c9dd31f7b9870659061167290889088906001600160a01b0392909216825260ff16602082015260400190565b60008281526009602090815260408083208054825181850281018501909352808352611dad93830182828015611d9657602002820191906000526020600020906000905b825461010083900a900460ff16815260206001928301818104948501949093039092029101808411611d675790505b50505050508360ff1661450790919063ffffffff16565b1590505b92915050565b60008281526009602052604090206007015482904210611e0c5760405162461bcd60e51b815260206004820152601060248201526f1413d31650d5531157d156141254915160821b6044820152606401610a72565b6000818152600960205260408082206002015460015491516302571be360e01b8152600481018290529092916001600160a01b0316906302571be390602401602060405180830381865afa158015611e68573d6000803e3d6000fd5b505050506040513d601f19601f82011682018060405250810190611e8c9190614d24565b90506001600160a01b038116331480611ec857506001600160a01b0381166000908152600a6020908152604080832033845290915290205460ff165b80611eec57506000838152600960205260409020600601546001600160a01b031633145b611f385760405162461bcd60e51b815260206004820152601760248201527f4e4f545f4f574e45525f4f525f434f4e54524f4c4c45520000000000000000006044820152606401610a72565b600085815260096020908152604080832080548251818502810185019093528083529192909190830182828015611fac57602002820191906000526020600020906000905b825461010083900a900460ff16815260206001928301818104948501949093039092029101808411611f7d5790505b5050505050905060006009600088815260200190815260200160002060030180548060200260200160405190810160405280929190818152602001828054801561201557602002820191906000526020600020905b815481526020019060010190808311612001575b5050505050905061202f81876144b490919063ffffffff16565b156121625760006120408783614556565b90506000600960008a8152602001908152602001600020600101600085848151811061206e5761206e614c8e565b602002602001015160ff1660ff16815260200190815260200160002060006101000a8154816001600160a01b0302191690836001600160a01b03160217905550877ff13ce89e57ea348ff8e29c4131c87b4d1b50ecf4edb1c68288b5e0cd3985b3f9886040516120e091815260200190565b60405180910390a2600088815260096020526040902080548290811061210857612108614c8e565b90600052602060002090602091828204019190066101000a81549060ff021916905560096000898152602001908152602001600020600301818154811061215157612151614c8e565b600091825260208220015550612195565b6040516000815287907ff13ce89e57ea348ff8e29c4131c87b4d1b50ecf4edb1c68288b5e0cd3985b3f990602001611672565b50505050505050565b600083815260096020526040902060070154839042106121f35760405162461bcd60e51b815260206004820152601060248201526f1413d31650d5531157d156141254915160821b6044820152606401610a72565b6000818152600960205260408082206002015460015491516302571be360e01b8152600481018290529092916001600160a01b0316906302571be390602401602060405180830381865afa15801561224f573d6000803e3d6000fd5b505050506040513d601f19601f820116820180604052508101906122739190614d24565b90506001600160a01b0381163314806122af57506001600160a01b0381166000908152600a6020908152604080832033845290915290205460ff165b806122d357506000838152600960205260409020600601546001600160a01b031633145b61231f5760405162461bcd60e51b815260206004820152601760248201527f4e4f545f4f574e45525f4f525f434f4e54524f4c4c45520000000000000000006044820152606401610a72565b60008681526009602090815260408083206003018054825181850281018501909352808352919290919083018282801561237857602002820191906000526020600020905b815481526020019060010190808311612364575b5050505050905061239281866144b490919063ffffffff16565b156124d15760006123a38683614556565b6000898152600960205260409020805491925060ff891691839081106123cb576123cb614c8e565b60009182526020918290209181049091015460ff601f9092166101000a900416036124385760405162461bcd60e51b815260206004820152600b60248201527f52554c455f4558495354530000000000000000000000000000000000000000006044820152606401610a72565b600088815260096020526040902080548891908390811061245b5761245b614c8e565b90600052602060002090602091828204019190066101000a81548160ff021916908360ff160217905550877f12bf96b3da46c044c59d8b13a96d1a5f53adf413cbe17f743ac2ed2c285257de87896040516124c392919091825260ff16602082015260400190565b60405180910390a250612195565b6040517f62316f6700000000000000000000000000000000000000000000000000000000815260040160405180910390fd5b6003546040516000916001600160a01b03169047908381818185875af1925050503d8060008114612550576040519150601f19603f3d011682016040523d82523d6000602084013e612555565b606091505b50509050806125a65760405162461bcd60e51b815260206004820152601360248201527f4554485f5452414e534645525f4641494c4544000000000000000000000000006044820152606401610a72565b50565b600082815260096020526040902060070154829042106125fe5760405162461bcd60e51b815260206004820152601060248201526f1413d31650d5531157d156141254915160821b6044820152606401610a72565b6000818152600960205260408082206002015460015491516302571be360e01b8152600481018290529092916001600160a01b0316906302571be390602401602060405180830381865afa15801561265a573d6000803e3d6000fd5b505050506040513d601f19601f8201168201806040525081019061267e9190614d24565b90506001600160a01b0381163314806126ba57506001600160a01b0381166000908152600a6020908152604080832033845290915290205460ff165b6127065760405162461bcd60e51b815260206004820152600960248201527f4e4f545f4f574e455200000000000000000000000000000000000000000000006044820152606401610a72565b6001546040516302571be360e01b8152600481018690526000916001600160a01b0316906302571be390602401602060405180830381865afa158015612750573d6000803e3d6000fd5b505050506040513d601f19601f820116820180604052508101906127749190614d24565b6001600160a01b0316036127ca5760405162461bcd60e51b815260206004820152600b60248201527f43414e4e4f545f4255524e0000000000000000000000000000000000000000006044820152606401610a72565b600085815260096020526040908190206002018590555185907f4810581adf2c16a86a375dbb1ed89b0b0f7e64d48d24e1948b3dfe6581e4d79590610ecc9087815260200190565b600083815260096020526040902060070154839042106128675760405162461bcd60e51b815260206004820152601060248201526f1413d31650d5531157d156141254915160821b6044820152606401610a72565b6000818152600960205260408082206002015460015491516302571be360e01b8152600481018290529092916001600160a01b0316906302571be390602401602060405180830381865afa1580156128c3573d6000803e3d6000fd5b505050506040513d601f19601f820116820180604052508101906128e79190614d24565b90506001600160a01b03811633148061292357506001600160a01b0381166000908152600a6020908152604080832033845290915290205460ff165b8061294757506000838152600960205260409020600601546001600160a01b031633145b6129935760405162461bcd60e51b815260206004820152601760248201527f4e4f545f4f574e45525f4f525f434f4e54524f4c4c45520000000000000000006044820152606401610a72565b600086815260096020908152604080832060ff881684526001019091529020546001600160a01b03808716911603612a0d5760405162461bcd60e51b815260206004820152600b60248201527f52554c455f4558495354530000000000000000000000000000000000000000006044820152606401610a72565b600086815260096020908152604080832060ff88168085526001909101835292819020805473ffffffffffffffffffffffffffffffffffffffff19166001600160a01b038a1690811790915581519081529182019290925287917f1abc00531586337cfd45709506ca0d48a44e1eb54325e589ec054ce83373e07a91015b60405180910390a2505050505050565b60008281526009602052604090206007015482904210612af05760405162461bcd60e51b815260206004820152601060248201526f1413d31650d5531157d156141254915160821b6044820152606401610a72565b6000818152600960205260408082206002015460015491516302571be360e01b8152600481018290529092916001600160a01b0316906302571be390602401602060405180830381865afa158015612b4c573d6000803e3d6000fd5b505050506040513d601f19601f82011682018060405250810190612b709190614d24565b90506001600160a01b038116331480612bac57506001600160a01b0381166000908152600a6020908152604080832033845290915290205460ff165b80612bd057506000838152600960205260409020600601546001600160a01b031633145b612c1c5760405162461bcd60e51b815260206004820152601760248201527f4e4f545f4f574e45525f4f525f434f4e54524f4c4c45520000000000000000006044820152606401610a72565b600085815260096020908152604080832060030180548251818502810185019093528083529192909190830182828015612c7557602002820191906000526020600020905b815481526020019060010190808311612c61575b505050600089815260096020908152604080832080548251818502810185019093528083529697509295909450919250830182828015612cf257602002820191906000526020600020906000905b825461010083900a900460ff16815260206001928301818104948501949093039092029101808411612cc35790505b50505050509050612d0c82876144b490919063ffffffff16565b156124d1576000612d1d8784614556565b90506000600960008a81526020019081526020016000206001016000848481518110612d4b57612d4b614c8e565b602002602001015160ff1660ff16815260200190815260200160002060006101000a8154816001600160a01b0302191690836001600160a01b03160217905550600960008981526020019081526020016000206003018181548110612db257612db2614c8e565b600091825260208083209091018290558982526009905260409020805482908110612ddf57612ddf614c8e565b90600052602060002090602091828204019190066101000a81549060ff0219169055877f5c379d054844760656a56e062f50208b458cfa0c4427574f5a2828d19602b4e9886040516124c391815260200190565b60008151835103612e4657506001611db1565b506000611db1565b336000818152600a602090815260408083206001600160a01b0387168085529083529281902080547fffffffffffffffffffffffffffffffffffffffffffffffffffffffffffffff001686151590811790915590519081529192917f17307eab39ab6107e8899845ad3d59bd9653f200f220920489ca2b5937696c31910160405180910390a35050565b6001546040516302571be360e01b81526004810184905260009182916001600160a01b03909116906302571be390602401602060405180830381865afa158015612f26573d6000803e3d6000fd5b505050506040513d601f19601f82011682018060405250810190612f4a9190614d24565b6001600160a01b039081166000908152600a602090815260408083209387168352929052205460ff1691505092915050565b6003546001600160a01b03163314612fd65760405162461bcd60e51b815260206004820152600760248201527f4e4f545f444556000000000000000000000000000000000000000000000000006044820152606401610a72565b600080546001600160a01b0380851673ffffffffffffffffffffffffffffffffffffffff1992831681179093556002805491851691909216179055604080517f642a8ed6000000000000000000000000000000000000000000000000000000008152905163642a8ed6916004808201926080929091908290030181865afa158015613065573d6000803e3d6000fd5b505050506040513d601f19601f820116820180604052508101906130899190614d41565b60600151600555600254604080517fbd9a548b00000000000000000000000000000000000000000000000000000000815290516001600160a01b039092169163bd9a548b916004808201926080929091908290030181865afa1580156130f3573d6000803e3d6000fd5b505050506040513d601f19601f820116820180604052508101906131179190614d41565b60600151600655600054604080517f4d3f733400000000000000000000000000000000000000000000000000000000815290516001600160a01b0390921691634d3f7334916004808201926080929091908290030181865afa158015613181573d6000803e3d6000fd5b505050506040513d601f19601f820116820180604052508101906131a59190614da1565b600360200201516007805473ffffffffffffffffffffffffffffffffffffffff19166001600160a01b039092169190911790555050565b600082815260096020526040902060070154829042106132315760405162461bcd60e51b815260206004820152601060248201526f1413d31650d5531157d156141254915160821b6044820152606401610a72565b6000818152600960205260408082206002015460015491516302571be360e01b8152600481018290529092916001600160a01b0316906302571be390602401602060405180830381865afa15801561328d573d6000803e3d6000fd5b505050506040513d601f19601f820116820180604052508101906132b19190614d24565b90506001600160a01b0381163314806132ed57506001600160a01b0381166000908152600a6020908152604080832033845290915290205460ff165b8061331157506000838152600960205260409020600601546001600160a01b031633145b61335d5760405162461bcd60e51b815260206004820152601760248201527f4e4f545f4f574e45525f4f525f434f4e54524f4c4c45520000000000000000006044820152606401610a72565b6000858152600960209081526040808320805482518185028101850190935280835291929091908301828280156133d157602002820191906000526020600020906000905b825461010083900a900460ff168152602060019283018181049485019490930390920291018084116133a25790505b505050505090506133ee818660ff1661450790919063ffffffff16565b156134ee57600061340260ff87168361459c565b600088815260096020908152604080832060ff8b168085526001909101835292819020805473ffffffffffffffffffffffffffffffffffffffff191690555191825291925088917ff975f0cee916e0c09312f138a17c70e178a4c2186f302a6f085a6d5273cd1051910160405180910390a2600087815260096020526040902080548290811061349457613494614c8e565b90600052602060002090602091828204019190066101000a81549060ff02191690556009600088815260200190815260200160002060030181815481106134dd576134dd614c8e565b600091825260208220015550613520565b6040517fe8dd1d3e00000000000000000000000000000000000000000000000000000000815260040160405180910390fd5b505050505050565b6003546001600160a01b031633146135825760405162461bcd60e51b815260206004820152600760248201527f4e4f545f444556000000000000000000000000000000000000000000000000006044820152606401610a72565b7fffffffff0000000000000000000000000000000000000000000000000000000080831690036135f45760405162461bcd60e51b815260206004820152601a60248201527f494e56414c49445f494e544552464143455f53454c4543544f520000000000006044820152606401610a72565b7fffffffff0000000000000000000000000000000000000000000000000000000091909116600090815260046020526040902080547fffffffffffffffffffffffffffffffffffffffffffffffffffffffffffffff0016911515919091179055565b600081815260096020526040812060070154829042106136ab5760405162461bcd60e51b815260206004820152601060248201526f1413d31650d5531157d156141254915160821b6044820152606401610a72565b505060009081526009602052604090206004015490565b6000828152600960205260408082206002015460015491516302571be360e01b815260048101829052859391926001600160a01b0316906302571be390602401602060405180830381865afa15801561371f573d6000803e3d6000fd5b505050506040513d601f19601f820116820180604052508101906137439190614d24565b6007549091506001600160a01b031633148061376757506001600160a01b03811633145b8061379557506001600160a01b0381166000908152600a6020908152604080832033845290915290205460ff165b806137b957506000838152600960205260409020600601546001600160a01b031633145b6138055760405162461bcd60e51b815260206004820152600e60248201527f4e4f545f415554484f52495345440000000000000000000000000000000000006044820152606401610a72565b60008581526009602052604090819020600601805486151574010000000000000000000000000000000000000000027fffffffffffffffffffffff00ffffffffffffffffffffffffffffffffffffffff9091161790555185907fe6ccdb52b4954ab2c3e293f1dbfe593e6c5630962a1944bfcf20c5563eeb846290610ecc90871515815260200190565b6000828152600960205260408082206002015460015491516302571be360e01b815260048101829052859391926001600160a01b0316906302571be390602401602060405180830381865afa1580156138ec573d6000803e3d6000fd5b505050506040513d601f19601f820116820180604052508101906139109190614d24565b6007549091506001600160a01b031633148061393457506001600160a01b03811633145b8061396257506001600160a01b0381166000908152600a6020908152604080832033845290915290205460ff165b8061398657506000838152600960205260409020600601546001600160a01b031633145b6139d25760405162461bcd60e51b815260206004820152600e60248201527f4e4f545f415554484f52495345440000000000000000000000000000000000006044820152606401610a72565b600085815260096020908152604091829020600601805473ffffffffffffffffffffffffffffffffffffffff19166001600160a01b038816908117909155915191825286917fe5108446a6097aab57fd36f346a515a78fddefa87d81662d44e0d7a463f920959101610ecc565b6000828152600960205260408082206002015460015491516302571be360e01b815260048101829052859391926001600160a01b0316906302571be390602401602060405180830381865afa158015613a9c573d6000803e3d6000fd5b505050506040513d601f19601f82011682018060405250810190613ac09190614d24565b6007549091506001600160a01b0316331480613ae457506001600160a01b03811633145b80613b1257506001600160a01b0381166000908152600a6020908152604080832033845290915290205460ff165b80613b3657506000838152600960205260409020600601546001600160a01b031633145b613b825760405162461bcd60e51b815260206004820152600e60248201527f4e4f545f415554484f52495345440000000000000000000000000000000000006044820152606401610a72565b600085815260096020908152604091829020600501805473ffffffffffffffffffffffffffffffffffffffff19166001600160a01b038816908117909155915191825286917fcb71326aeaad88869e8be8be2893e1119f7617ce4ea2411af127e218909be1f79101610ecc565b60008181526009602052604081206007015482904210613c445760405162461bcd60e51b815260206004820152601060248201526f1413d31650d5531157d156141254915160821b6044820152606401610a72565b50506000908152600960205260409020600601546001600160a01b031690565b60008481526009602052604090206007015484904210613cb95760405162461bcd60e51b815260206004820152601060248201526f1413d31650d5531157d156141254915160821b6044820152606401610a72565b6000818152600960205260408082206002015460015491516302571be360e01b8152600481018290529092916001600160a01b0316906302571be390602401602060405180830381865afa158015613d15573d6000803e3d6000fd5b505050506040513d601f19601f82011682018060405250810190613d399190614d24565b90506001600160a01b038116331480613d7557506001600160a01b0381166000908152600a6020908152604080832033845290915290205460ff165b80613d9957506000838152600960205260409020600601546001600160a01b031633145b613de55760405162461bcd60e51b815260206004820152601760248201527f4e4f545f4f574e45525f4f525f434f4e54524f4c4c45520000000000000000006044820152606401610a72565b613def8787614448565b613e3b5760405162461bcd60e51b815260206004820152600c60248201527f414e494f4e5f45584953545300000000000000000000000000000000000000006044820152606401610a72565b613e458785611d23565b613e915760405162461bcd60e51b815260206004820152600b60248201527f484f4f4b5f4558495354530000000000000000000000000000000000000000006044820152606401610a72565b600087815260096020908152604080832060ff881684526001019091529020546001600160a01b03808716911603613f0b5760405162461bcd60e51b815260206004820152600b60248201527f52554c455f4558495354530000000000000000000000000000000000000000006044820152606401610a72565b600087815260096020908152604080832060038101805460018181018355918652848620018b90558154808201835582865284862085820401805460ff808d16601f9094166101000a8481029102199091161790559094529290920190525187907f600ffddd29393ca43c0a11fa6b0b7096631364178cb42f9d546c0a2cd22525ee90613f9b9089815260200190565b60405180910390a2604080516001600160a01b038716815260ff8616602082015288917fc733a2bc621cc97eef6ed4f708f126e72e6acb76c0a1c0461c9dd31f7b9870659101611672565b6003546001600160a01b031633146140405760405162461bcd60e51b815260206004820152600760248201527f4e4f545f444556000000000000000000000000000000000000000000000000006044820152606401610a72565b6003546040516001600160a01b038084169216907f8be0079c531659141344cd1fd0a4f28419497f9722a3daafe3b4186f6b6457e090600090a36003805473ffffffffffffffffffffffffffffffffffffffff19166001600160a01b0392909216919091179055565b600082815260096020526040902060070154829042106140fe5760405162461bcd60e51b815260206004820152601060248201526f1413d31650d5531157d156141254915160821b6044820152606401610a72565b6000818152600960205260408082206002015460015491516302571be360e01b8152600481018290529092916001600160a01b0316906302571be390602401602060405180830381865afa15801561415a573d6000803e3d6000fd5b505050506040513d601f19601f8201168201806040525081019061417e9190614d24565b90506001600160a01b0381163314806141ba57506001600160a01b0381166000908152600a6020908152604080832033845290915290205460ff165b806141de57506000838152600960205260409020600601546001600160a01b031633145b61422a5760405162461bcd60e51b815260206004820152601760248201527f4e4f545f4f574e45525f4f525f434f4e54524f4c4c45520000000000000000006044820152606401610a72565b600085815260096020526040902060070154841161428a5760405162461bcd60e51b815260206004820152600a60248201527f4241445f455850495259000000000000000000000000000000000000000000006044820152606401610a72565b6000858152600960205260408120600701546142a69086614dff565b9050600654816142b69190614e12565b3410156143055760405162461bcd60e51b815260206004820152601260248201527f494e53554646494349454e545f455448455200000000000000000000000000006044820152606401610a72565b600086815260096020526040908190206007018690555186907fa620b72378ee464490805a96e25b53e5c0076f0ce2d28f9691ae255a595b3bf390612a8b9088815260200190565b600081815260096020526040812060070154829042106143a25760405162461bcd60e51b815260206004820152601060248201526f1413d31650d5531157d156141254915160821b6044820152606401610a72565b6000838152600960205260408082206002015460015491516302571be360e01b8152600481018290529092916001600160a01b0316906302571be390602401602060405180830381865afa1580156143fe573d6000803e3d6000fd5b505050506040513d601f19601f820116820180604052508101906144229190614d24565b9050306001600160a01b038216036144405760055493505050610a99565b509392505050565b60008281526009602090815260408083206003018054825181850281018501909352808352611dad938301828280156144a057602002820191906000526020600020905b81548152602001906001019080831161448c575b5050505050836144b490919063ffffffff16565b6000805b82518110156144fd57838382815181106144d4576144d4614c8e565b6020026020010151036144eb576001915050611db1565b806144f581614cec565b9150506144b8565b5060009392505050565b6000805b82518110156144fd578360ff1683828151811061452a5761452a614c8e565b602002602001015160ff1603614544576001915050611db1565b8061454e81614cec565b91505061450b565b6000805b82518110156144fd578383828151811061457657614576614c8e565b60200260200101510361458a579050611db1565b8061459481614cec565b91505061455a565b6000805b82518110156144fd578360ff168382815181106145bf576145bf614c8e565b602002602001015160ff16036145d6579050611db1565b806145e081614cec565b9150506145a0565b50805460008255601f0160209004906000526020600020908101906125a69190614627565b50805460008255906000526020600020908101906125a691905b5b8082111561463c5760008155600101614628565b5090565b60006020828403121561465257600080fd5b5035919050565b80357fffffffff000000000000000000000000000000000000000000000000000000008116811461468957600080fd5b919050565b6000602082840312156146a057600080fd5b6146a982614659565b9392505050565b604080825283519082018190526000906020906060840190828701845b828110156146ec57815160ff16845292840192908401906001016146cd565b5050508381038285015284518082528583019183019060005b8181101561472a5783516001600160a01b031683529284019291840191600101614705565b5090979650505050505050565b6020808252825182820181905260009190848201906040850190845b8181101561476f57835183529284019291840191600101614753565b50909695505050505050565b6001600160a01b03811681146125a657600080fd5b600080604083850312156147a357600080fd5b8235915060208301356147b58161477b565b809150509250929050565b600080604083850312156147d357600080fd5b50508035926020909101359150565b7f4e487b7100000000000000000000000000000000000000000000000000000000600052604160045260246000fd5b6040516080810167ffffffffffffffff81118282101715614834576148346147e2565b60405290565b604051601f82017fffffffffffffffffffffffffffffffffffffffffffffffffffffffffffffffe016810167ffffffffffffffff81118282101715614881576148816147e2565b604052919050565b600067ffffffffffffffff8211156148a3576148a36147e2565b5060051b60200190565b600082601f8301126148be57600080fd5b813560206148d36148ce83614889565b61483a565b82815260059290921b840181019181810190868411156148f257600080fd5b8286015b8481101561490d57803583529183019183016148f6565b509695505050505050565b803560ff8116811461468957600080fd5b600082601f83011261493a57600080fd5b8135602061494a6148ce83614889565b82815260059290921b8401810191818101908684111561496957600080fd5b8286015b8481101561490d5761497e81614918565b835291830191830161496d565b600080600080608085870312156149a157600080fd5b8435935060208086013567ffffffffffffffff808211156149c157600080fd5b6149cd89838a016148ad565b955060408801359150808211156149e357600080fd5b818801915088601f8301126149f757600080fd5b8135614a056148ce82614889565b81815260059190911b8301840190848101908b831115614a2457600080fd5b938501935b82851015614a4b578435614a3c8161477b565b82529385019390850190614a29565b965050506060880135925080831115614a6357600080fd5b5050614a7187828801614929565b91505092959194509250565b60008060008060808587031215614a9357600080fd5b84359350602085013592506040850135614aac8161477b565b9150614aba60608601614918565b905092959194509250565b60008060408385031215614ad857600080fd5b82359150614ae860208401614918565b90509250929050565b600080600060608486031215614b0657600080fd5b83359250614b1660208501614918565b9150604084013590509250925092565b600080600060608486031215614b3b57600080fd5b833592506020840135614b4d8161477b565b9150614b5b60408501614918565b90509250925092565b60008060408385031215614b7757600080fd5b823567ffffffffffffffff80821115614b8f57600080fd5b614b9b868387016148ad565b93506020850135915080821115614bb157600080fd5b50614bbe85828601614929565b9150509250929050565b8035801515811461468957600080fd5b60008060408385031215614beb57600080fd5b8235614bf68161477b565b9150614ae860208401614bc8565b60008060408385031215614c1757600080fd5b8235614c228161477b565b915060208301356147b58161477b565b60008060408385031215614c4557600080fd5b614bf683614659565b60008060408385031215614c6157600080fd5b82359150614ae860208401614bc8565b600060208284031215614c8357600080fd5b81356146a98161477b565b7f4e487b7100000000000000000000000000000000000000000000000000000000600052603260045260246000fd5b7f4e487b7100000000000000000000000000000000000000000000000000000000600052601160045260246000fd5b60007fffffffffffffffffffffffffffffffffffffffffffffffffffffffffffffffff8203614d1d57614d1d614cbd565b5060010190565b600060208284031215614d3657600080fd5b81516146a98161477b565b600060808284031215614d5357600080fd5b82601f830112614d6257600080fd5b614d6a614811565b806080840185811115614d7c57600080fd5b845b81811015614d96578051845260209384019301614d7e565b509095945050505050565b600060808284031215614db357600080fd5b82601f830112614dc257600080fd5b614dca614811565b806080840185811115614ddc57600080fd5b845b81811015614d96578051614df18161477b565b845260209384019301614dde565b81810381811115611db157611db1614cbd565b6000817fffffffffffffffffffffffffffffffffffffffffffffffffffffffffffffffff0483118215151615614e4a57614e4a614cbd565b50029056fea26469706673582212203f31f52ef3f25ebe9dc38fc002cb7e31bd55b8da20adb76d51166c389988fec764736f6c63430008100033",
    "linkReferences": {}
  },
  "methodIdentifiers": {
    "Dev()": "01e51ae8",
    "HELIX2()": "b782426e",
    "NAMES()": "05e84aa0",
    "PRICES()": "1eabcd34",
    "Polycules(bytes32)": "75c4f68e",
    "Registrar()": "b9f37c86",
    "active()": "02fb0c5e",
    "addAnion(bytes32,bytes32,address,uint8)": "e73f8060",
    "alias_(bytes32)": "c5bc4c0b",
    "anion(bytes32)": "0e68b116",
    "basePrice()": "c7876ea4",
    "cation(bytes32)": "f61ccd53",
    "controller(bytes32)": "dbd4e021",
    "covalence(bytes32)": "34026859",
    "expiry(bytes32)": "d2ec5fca",
    "hook(bytes32,bytes32,address,uint8)": "4475bf4b",
    "hooksWithRules(bytes32)": "0aac6625",
    "isApprovedForAll(bytes32,address)": "b0698628",
    "isLegalMap(bytes32[],uint8[])": "9f09d9f3",
    "isNotDuplicateAnion(bytes32,bytes32)": "f8c91244",
    "isNotDuplicateHook(bytes32,uint8)": "4d505584",
    "owner()": "8da5cb5b",
    "popAnion(bytes32,bytes32)": "8dcad139",
    "recordExists(bytes32)": "f79fe538",
    "register(bytes32,bytes32)": "2f926732",
    "rehook(bytes32,address,uint8)": "83669726",
    "rehook(bytes32,uint8,bytes32)": "5b55b376",
    "renew(bytes32,uint256)": "f544d82f",
    "resolver(bytes32)": "0178b8bf",
    "roothash()": "251c9422",
    "setAlias(bytes32,bytes32)": "1f06e91c",
    "setAnions(bytes32,bytes32[],address[],uint8[])": "250548b9",
    "setApprovalForAll(address,bool)": "a22cb465",
    "setCation(bytes32,bytes32)": "8146970a",
    "setConfig(address,address)": "b602024b",
    "setController(bytes32,address)": "d3156905",
    "setCovalence(bytes32,bool)": "d07699aa",
    "setExpiry(bytes32,uint256)": "39de6469",
    "setInterface(bytes4,bool)": "c0a43a7c",
    "setRecord(bytes32,address)": "d9b76ed4",
    "setResolver(bytes32,address)": "1896f70a",
    "supportsInterface(bytes4)": "01ffc9a7",
    "theEnd()": "22b68deb",
    "toggleActive()": "29c68dc1",
    "transferOwnership(address)": "f2fde38b",
    "unhook(bytes32,bytes32)": "516aeda0",
    "unhook(bytes32,uint8)": "b612e9b9",
    "unhookAll(bytes32)": "21ec2b5b",
    "withdrawEther()": "7362377b"
  },
  "id": 43
}