{
  "abi": [
    {
      "inputs": [
        {
          "internalType": "address",
          "name": "_registry",
          "type": "address"
        },
        {
          "internalType": "address",
          "name": "_helix2",
          "type": "address"
        },
        {
          "internalType": "address",
          "name": "_priceOracle",
          "type": "address"
        }
      ],
      "stateMutability": "nonpayable",
      "type": "constructor"
    },
    {
      "inputs": [],
      "name": "BAD_ANION",
      "type": "error"
    },
    {
      "inputs": [],
      "name": "BAD_HOOK",
      "type": "error"
    },
    {
      "inputs": [],
      "name": "BAD_RULE",
      "type": "error"
    },
    {
      "anonymous": false,
      "inputs": [
        {
          "indexed": true,
          "internalType": "bytes32",
          "name": "polyhash",
          "type": "bytes32"
        },
        {
          "indexed": false,
          "internalType": "address",
          "name": "config",
          "type": "address"
        },
        {
          "indexed": false,
          "internalType": "uint8",
          "name": "rule",
          "type": "uint8"
        }
      ],
      "name": "Hooked",
      "type": "event"
    },
    {
      "anonymous": false,
      "inputs": [
        {
          "indexed": true,
          "internalType": "bytes32",
          "name": "polyhash",
          "type": "bytes32"
        },
        {
          "indexed": false,
          "internalType": "bytes32",
          "name": "anion",
          "type": "bytes32"
        }
      ],
      "name": "NewAnion",
      "type": "event"
    },
    {
      "anonymous": false,
      "inputs": [
        {
          "indexed": true,
          "internalType": "bytes32",
          "name": "polyhash",
          "type": "bytes32"
        },
        {
          "indexed": false,
          "internalType": "bytes32[]",
          "name": "anion",
          "type": "bytes32[]"
        }
      ],
      "name": "NewAnions",
      "type": "event"
    },
    {
      "anonymous": false,
      "inputs": [
        {
          "indexed": true,
          "internalType": "bytes32",
          "name": "polyhash",
          "type": "bytes32"
        },
        {
          "indexed": false,
          "internalType": "bytes32",
          "name": "cation",
          "type": "bytes32"
        }
      ],
      "name": "NewCation",
      "type": "event"
    },
    {
      "anonymous": false,
      "inputs": [
        {
          "indexed": true,
          "internalType": "bytes32",
          "name": "polyhash",
          "type": "bytes32"
        },
        {
          "indexed": false,
          "internalType": "address",
          "name": "controller",
          "type": "address"
        }
      ],
      "name": "NewController",
      "type": "event"
    },
    {
      "anonymous": false,
      "inputs": [
        {
          "indexed": true,
          "internalType": "bytes32",
          "name": "polyhash",
          "type": "bytes32"
        },
        {
          "indexed": false,
          "internalType": "bool",
          "name": "covalence",
          "type": "bool"
        }
      ],
      "name": "NewCovalence",
      "type": "event"
    },
    {
      "anonymous": false,
      "inputs": [
        {
          "indexed": true,
          "internalType": "bytes32",
          "name": "polyhash",
          "type": "bytes32"
        },
        {
          "indexed": false,
          "internalType": "uint256",
          "name": "expiry",
          "type": "uint256"
        }
      ],
      "name": "NewExpiry",
      "type": "event"
    },
    {
      "anonymous": false,
      "inputs": [
        {
          "indexed": true,
          "internalType": "bytes32",
          "name": "polyhash",
          "type": "bytes32"
        },
        {
          "indexed": false,
          "internalType": "address",
          "name": "resolver",
          "type": "address"
        }
      ],
      "name": "NewResolver",
      "type": "event"
    },
    {
      "anonymous": false,
      "inputs": [
        {
          "indexed": true,
          "internalType": "address",
          "name": "previousOwner",
          "type": "address"
        },
        {
          "indexed": true,
          "internalType": "address",
          "name": "newOwner",
          "type": "address"
        }
      ],
      "name": "OwnershipTransferred",
      "type": "event"
    },
    {
      "anonymous": false,
      "inputs": [
        {
          "indexed": true,
          "internalType": "bytes32",
          "name": "polyhash",
          "type": "bytes32"
        },
        {
          "indexed": false,
          "internalType": "bytes32",
          "name": "anion",
          "type": "bytes32"
        }
      ],
      "name": "PopAnion",
      "type": "event"
    },
    {
      "anonymous": false,
      "inputs": [
        {
          "indexed": true,
          "internalType": "bytes32",
          "name": "polyhash",
          "type": "bytes32"
        },
        {
          "indexed": false,
          "internalType": "address",
          "name": "config",
          "type": "address"
        },
        {
          "indexed": false,
          "internalType": "uint8",
          "name": "rule",
          "type": "uint8"
        }
      ],
      "name": "Rehooked",
      "type": "event"
    },
    {
      "anonymous": false,
      "inputs": [
        {
          "indexed": true,
          "internalType": "bytes32",
          "name": "polyhash",
          "type": "bytes32"
        },
        {
          "indexed": false,
          "internalType": "uint8",
          "name": "rule",
          "type": "uint8"
        }
      ],
      "name": "Unhooked",
      "type": "event"
    },
    {
      "anonymous": false,
      "inputs": [
        {
          "indexed": true,
          "internalType": "bytes32",
          "name": "polyhash",
          "type": "bytes32"
        }
      ],
      "name": "UnhookedAll",
      "type": "event"
    },
    {
      "inputs": [],
      "name": "Dev",
      "outputs": [
        {
          "internalType": "address",
          "name": "",
          "type": "address"
        }
      ],
      "stateMutability": "view",
      "type": "function"
    },
    {
      "inputs": [],
      "name": "HELIX2",
      "outputs": [
        {
          "internalType": "contract iHELIX2",
          "name": "",
          "type": "address"
        }
      ],
      "stateMutability": "view",
      "type": "function"
    },
    {
      "inputs": [],
      "name": "NAMES",
      "outputs": [
        {
          "internalType": "contract iNAME",
          "name": "",
          "type": "address"
        }
      ],
      "stateMutability": "view",
      "type": "function"
    },
    {
      "inputs": [],
      "name": "PRICES",
      "outputs": [
        {
          "internalType": "contract iPriceOracle",
          "name": "",
          "type": "address"
        }
      ],
      "stateMutability": "view",
      "type": "function"
    },
    {
      "inputs": [],
      "name": "Registrar",
      "outputs": [
        {
          "internalType": "address",
          "name": "",
          "type": "address"
        }
      ],
      "stateMutability": "view",
      "type": "function"
    },
    {
      "inputs": [],
      "name": "STORE",
      "outputs": [
        {
          "internalType": "contract iPOLYCULE",
          "name": "",
          "type": "address"
        }
      ],
      "stateMutability": "view",
      "type": "function"
    },
    {
      "inputs": [],
      "name": "active",
      "outputs": [
        {
          "internalType": "bool",
          "name": "",
          "type": "bool"
        }
      ],
      "stateMutability": "view",
      "type": "function"
    },
    {
      "inputs": [
        {
          "internalType": "bytes32",
          "name": "polyhash",
          "type": "bytes32"
        },
        {
          "internalType": "bytes32",
          "name": "_anion",
          "type": "bytes32"
        },
        {
          "internalType": "address",
          "name": "config",
          "type": "address"
        },
        {
          "internalType": "uint8",
          "name": "rule",
          "type": "uint8"
        }
      ],
      "name": "addAnionWithConfig",
      "outputs": [],
      "stateMutability": "nonpayable",
      "type": "function"
    },
    {
      "inputs": [
        {
          "internalType": "bytes32",
          "name": "polyhash",
          "type": "bytes32"
        }
      ],
      "name": "anions",
      "outputs": [
        {
          "internalType": "bytes32[]",
          "name": "",
          "type": "bytes32[]"
        }
      ],
      "stateMutability": "view",
      "type": "function"
    },
    {
      "inputs": [],
      "name": "basePrice",
      "outputs": [
        {
          "internalType": "uint256",
          "name": "",
          "type": "uint256"
        }
      ],
      "stateMutability": "view",
      "type": "function"
    },
    {
      "inputs": [
        {
          "internalType": "bytes32",
          "name": "polyhash",
          "type": "bytes32"
        }
      ],
      "name": "cation",
      "outputs": [
        {
          "internalType": "bytes32",
          "name": "",
          "type": "bytes32"
        }
      ],
      "stateMutability": "view",
      "type": "function"
    },
    {
      "inputs": [
        {
          "internalType": "bytes32",
          "name": "polyhash",
          "type": "bytes32"
        }
      ],
      "name": "controller",
      "outputs": [
        {
          "internalType": "address",
          "name": "",
          "type": "address"
        }
      ],
      "stateMutability": "view",
      "type": "function"
    },
    {
      "inputs": [
        {
          "internalType": "bytes32",
          "name": "polyhash",
          "type": "bytes32"
        }
      ],
      "name": "covalence",
      "outputs": [
        {
          "internalType": "bool",
          "name": "",
          "type": "bool"
        }
      ],
      "stateMutability": "view",
      "type": "function"
    },
    {
      "inputs": [
        {
          "internalType": "bytes32",
          "name": "polyhash",
          "type": "bytes32"
        }
      ],
      "name": "expiry",
      "outputs": [
        {
          "internalType": "uint256",
          "name": "",
          "type": "uint256"
        }
      ],
      "stateMutability": "view",
      "type": "function"
    },
    {
      "inputs": [
        {
          "internalType": "bytes32",
          "name": "_anion",
          "type": "bytes32"
        },
        {
          "internalType": "bytes32",
          "name": "polyhash",
          "type": "bytes32"
        },
        {
          "internalType": "address",
          "name": "config",
          "type": "address"
        },
        {
          "internalType": "uint8",
          "name": "rule",
          "type": "uint8"
        }
      ],
      "name": "hook",
      "outputs": [],
      "stateMutability": "nonpayable",
      "type": "function"
    },
    {
      "inputs": [
        {
          "internalType": "bytes32",
          "name": "polyhash",
          "type": "bytes32"
        }
      ],
      "name": "hooksWithRules",
      "outputs": [
        {
          "internalType": "uint8[]",
          "name": "_rules",
          "type": "uint8[]"
        },
        {
          "internalType": "address[]",
          "name": "_hooks",
          "type": "address[]"
        }
      ],
      "stateMutability": "view",
      "type": "function"
    },
    {
      "inputs": [
        {
          "internalType": "bytes32",
          "name": "polyhash",
          "type": "bytes32"
        }
      ],
      "name": "label",
      "outputs": [
        {
          "internalType": "bytes32",
          "name": "",
          "type": "bytes32"
        }
      ],
      "stateMutability": "view",
      "type": "function"
    },
    {
      "inputs": [],
      "name": "owner",
      "outputs": [
        {
          "internalType": "address",
          "name": "",
          "type": "address"
        }
      ],
      "stateMutability": "view",
      "type": "function"
    },
    {
      "inputs": [
        {
          "internalType": "bytes32",
          "name": "polyhash",
          "type": "bytes32"
        },
        {
          "internalType": "bytes32",
          "name": "_anion",
          "type": "bytes32"
        }
      ],
      "name": "popAnion",
      "outputs": [],
      "stateMutability": "nonpayable",
      "type": "function"
    },
    {
      "inputs": [
        {
          "internalType": "bytes32",
          "name": "polyhash",
          "type": "bytes32"
        }
      ],
      "name": "recordExists",
      "outputs": [
        {
          "internalType": "bool",
          "name": "",
          "type": "bool"
        }
      ],
      "stateMutability": "view",
      "type": "function"
    },
    {
      "inputs": [
        {
          "internalType": "bytes32",
          "name": "polyhash",
          "type": "bytes32"
        },
        {
          "internalType": "bytes32",
          "name": "_cation",
          "type": "bytes32"
        }
      ],
      "name": "register",
      "outputs": [],
      "stateMutability": "nonpayable",
      "type": "function"
    },
    {
      "inputs": [
        {
          "internalType": "bytes32",
          "name": "polyhash",
          "type": "bytes32"
        },
        {
          "internalType": "address",
          "name": "config",
          "type": "address"
        },
        {
          "internalType": "uint8",
          "name": "rule",
          "type": "uint8"
        }
      ],
      "name": "rehook",
      "outputs": [],
      "stateMutability": "nonpayable",
      "type": "function"
    },
    {
      "inputs": [
        {
          "internalType": "bytes32",
          "name": "polyhash",
          "type": "bytes32"
        },
        {
          "internalType": "uint256",
          "name": "_expiry",
          "type": "uint256"
        }
      ],
      "name": "renew",
      "outputs": [],
      "stateMutability": "payable",
      "type": "function"
    },
    {
      "inputs": [
        {
          "internalType": "bytes32",
          "name": "polyhash",
          "type": "bytes32"
        }
      ],
      "name": "resolver",
      "outputs": [
        {
          "internalType": "address",
          "name": "",
          "type": "address"
        }
      ],
      "stateMutability": "view",
      "type": "function"
    },
    {
      "inputs": [],
      "name": "roothash",
      "outputs": [
        {
          "internalType": "bytes32",
          "name": "",
          "type": "bytes32"
        }
      ],
      "stateMutability": "view",
      "type": "function"
    },
    {
      "inputs": [
        {
          "internalType": "bytes32",
          "name": "polyhash",
          "type": "bytes32"
        },
        {
          "internalType": "bytes32[]",
          "name": "_anions",
          "type": "bytes32[]"
        },
        {
          "internalType": "address[]",
          "name": "_hooks",
          "type": "address[]"
        },
        {
          "internalType": "uint8[]",
          "name": "_rules",
          "type": "uint8[]"
        }
      ],
      "name": "setAnions",
      "outputs": [],
      "stateMutability": "nonpayable",
      "type": "function"
    },
    {
      "inputs": [
        {
          "internalType": "bytes32",
          "name": "polyhash",
          "type": "bytes32"
        },
        {
          "internalType": "bytes32",
          "name": "_cation",
          "type": "bytes32"
        }
      ],
      "name": "setCation",
      "outputs": [],
      "stateMutability": "nonpayable",
      "type": "function"
    },
    {
      "inputs": [
        {
          "internalType": "address",
          "name": "_helix2",
          "type": "address"
        },
        {
          "internalType": "address",
          "name": "_priceOracle",
          "type": "address"
        },
        {
          "internalType": "address",
          "name": "_store",
          "type": "address"
        }
      ],
      "name": "setConfig",
      "outputs": [],
      "stateMutability": "nonpayable",
      "type": "function"
    },
    {
      "inputs": [
        {
          "internalType": "bytes32",
          "name": "polyhash",
          "type": "bytes32"
        },
        {
          "internalType": "address",
          "name": "_controller",
          "type": "address"
        }
      ],
      "name": "setController",
      "outputs": [],
      "stateMutability": "nonpayable",
      "type": "function"
    },
    {
      "inputs": [
        {
          "internalType": "bytes32",
          "name": "polyhash",
          "type": "bytes32"
        },
        {
          "internalType": "bool",
          "name": "_covalence",
          "type": "bool"
        }
      ],
      "name": "setCovalence",
      "outputs": [],
      "stateMutability": "nonpayable",
      "type": "function"
    },
    {
      "inputs": [
        {
          "internalType": "bytes32",
          "name": "polyhash",
          "type": "bytes32"
        },
        {
          "internalType": "uint256",
          "name": "_expiry",
          "type": "uint256"
        }
      ],
      "name": "setExpiry",
      "outputs": [],
      "stateMutability": "nonpayable",
      "type": "function"
    },
    {
      "inputs": [
        {
          "internalType": "bytes4",
          "name": "sig",
          "type": "bytes4"
        },
        {
          "internalType": "bool",
          "name": "value",
          "type": "bool"
        }
      ],
      "name": "setInterface",
      "outputs": [],
      "stateMutability": "payable",
      "type": "function"
    },
    {
      "inputs": [
        {
          "internalType": "bytes32",
          "name": "polyhash",
          "type": "bytes32"
        },
        {
          "internalType": "bytes32",
          "name": "_label",
          "type": "bytes32"
        }
      ],
      "name": "setLabel",
      "outputs": [],
      "stateMutability": "nonpayable",
      "type": "function"
    },
    {
      "inputs": [
        {
          "internalType": "bytes32",
          "name": "polyhash",
          "type": "bytes32"
        },
        {
          "internalType": "address",
          "name": "_resolver",
          "type": "address"
        }
      ],
      "name": "setResolver",
      "outputs": [],
      "stateMutability": "nonpayable",
      "type": "function"
    },
    {
      "inputs": [
        {
          "internalType": "bytes4",
          "name": "",
          "type": "bytes4"
        }
      ],
      "name": "supportsInterface",
      "outputs": [
        {
          "internalType": "bool",
          "name": "",
          "type": "bool"
        }
      ],
      "stateMutability": "view",
      "type": "function"
    },
    {
      "inputs": [],
      "name": "theEnd",
      "outputs": [
        {
          "internalType": "uint256",
          "name": "",
          "type": "uint256"
        }
      ],
      "stateMutability": "view",
      "type": "function"
    },
    {
      "inputs": [],
      "name": "toggleActive",
      "outputs": [],
      "stateMutability": "nonpayable",
      "type": "function"
    },
    {
      "inputs": [
        {
          "internalType": "address",
          "name": "newDev",
          "type": "address"
        }
      ],
      "name": "transferOwnership",
      "outputs": [],
      "stateMutability": "nonpayable",
      "type": "function"
    },
    {
      "inputs": [
        {
          "internalType": "bytes32",
          "name": "polyhash",
          "type": "bytes32"
        },
        {
          "internalType": "uint8",
          "name": "rule",
          "type": "uint8"
        }
      ],
      "name": "unhook",
      "outputs": [],
      "stateMutability": "nonpayable",
      "type": "function"
    },
    {
      "inputs": [
        {
          "internalType": "bytes32",
          "name": "polyhash",
          "type": "bytes32"
        }
      ],
      "name": "unhookAll",
      "outputs": [],
      "stateMutability": "nonpayable",
      "type": "function"
    }
  ],
  "bytecode": {
    "object": "0x60806040526004805460ff60a01b1916600160a01b1790556703782dace9d900006009553480156200003057600080fd5b50604051620057cc380380620057cc83398101604081905262000053916200020e565b60048054336001600160a01b03199182161782556000805482166001600160a01b03868116918217909255600180549093169187169190911790915560408051633215476b60e11b81529051919263642a8ed69282820192608092908290030181865afa158015620000c9573d6000803e3d6000fd5b505050506040513d601f19601f82011682018060405250810190620000ef91906200028f565b60600151600655600380546001600160a01b0319166001600160a01b0383169081179091556040805163bd9a548b60e01b8152905163bd9a548b916004808201926080929091908290030181865afa15801562000150573d6000803e3d6000fd5b505050506040513d601f19601f820116820180604052508101906200017691906200028f565b6060015160075550506005602052507f4bcc8a24ccebcb02e06809ffdc3dbdc56f736cf28155948650f9bec809bea48e8054600160ff1991821681179092556307f5828d60e41b6000527f744f038481816166db36c1c96c51289c139e33b5b050399f9ec0fad34d16e76880549091169091179055620002f6565b80516001600160a01b03811681146200020957600080fd5b919050565b6000806000606084860312156200022457600080fd5b6200022f84620001f1565b92506200023f60208501620001f1565b91506200024f60408501620001f1565b90509250925092565b604051608081016001600160401b03811182821017156200028957634e487b7160e01b600052604160045260246000fd5b60405290565b600060808284031215620002a257600080fd5b82601f830112620002b257600080fd5b620002bc62000258565b806080840185811115620002cf57600080fd5b845b81811015620002eb578051845260209384019301620002d1565b509095945050505050565b6154c680620003066000396000f3fe6080604052600436106102bb5760003560e01c8063622dad7f1161016e578063c7876ea4116100cb578063deee4da91161007f578063f544d82f11610064578063f544d82f146107a2578063f61ccd53146107b5578063f79fe538146107d557600080fd5b8063deee4da914610762578063f2fde38b1461078257600080fd5b8063d2ec5fca116100b0578063d2ec5fca14610702578063d315690514610722578063dbd4e0211461074257600080fd5b8063c7876ea4146106cc578063d07699aa146106e257600080fd5b80638dcad13911610122578063b782426e11610107578063b782426e14610679578063b9f37c8614610699578063c0a43a7c146106b957600080fd5b80638dcad13914610639578063b612e9b91461065957600080fd5b80638146970a116101535780638146970a146105db57806383669726146105fb5780638da5cb5b1461061b57600080fd5b8063622dad7f1461058e57806365edd522146105bb57600080fd5b806322b68deb1161021c5780633141e25b116101d057806339de6469116101b557806339de64691461052e5780634475bf4b1461054e578063507f14651461056e57600080fd5b80633141e25b146104ee578063340268591461050e57600080fd5b8063251c942211610201578063251c9422146104a357806329c68dc1146104b95780632f926732146104ce57600080fd5b806322b68deb1461046d578063250548b91461048357600080fd5b80630aac6625116102735780631eabcd34116102585780631eabcd34146103ff5780631fc4859e1461041f57806321ec2b5b1461044d57600080fd5b80630aac6625146103af5780631896f70a146103dd57600080fd5b806301ffc9a7116102a457806301ffc9a71461031d57806302fb0c5e1461035d57806305e84aa01461038f57600080fd5b80630178b8bf146102c057806301e51ae8146102fd575b600080fd5b3480156102cc57600080fd5b506102e06102db366004614b50565b6107f5565b6040516001600160a01b0390911681526020015b60405180910390f35b34801561030957600080fd5b506004546102e0906001600160a01b031681565b34801561032957600080fd5b5061034d610338366004614b9e565b60056020526000908152604090205460ff1681565b60405190151581526020016102f4565b34801561036957600080fd5b5060045461034d9074010000000000000000000000000000000000000000900460ff1681565b34801561039b57600080fd5b506001546102e0906001600160a01b031681565b3480156103bb57600080fd5b506103cf6103ca366004614b50565b61094a565b6040516102f4929190614bc0565b3480156103e957600080fd5b506103fd6103f8366004614c5f565b610a9f565b005b34801561040b57600080fd5b506003546102e0906001600160a01b031681565b34801561042b57600080fd5b5061043f61043a366004614b50565b610d41565b6040519081526020016102f4565b34801561045957600080fd5b506103fd610468366004614b50565b610e87565b34801561047957600080fd5b5061043f60095481565b34801561048f57600080fd5b506103fd61049e366004614e23565b6111ad565b3480156104af57600080fd5b5061043f60065481565b3480156104c557600080fd5b506103fd6115d3565b3480156104da57600080fd5b506103fd6104e9366004614f0c565b61167a565b3480156104fa57600080fd5b506103fd610509366004614f2e565b611854565b34801561051a57600080fd5b5061034d610529366004614b50565b611b45565b34801561053a57600080fd5b506103fd610549366004614f0c565b611c8b565b34801561055a57600080fd5b506103fd610569366004614f79565b611e50565b34801561057a57600080fd5b506002546102e0906001600160a01b031681565b34801561059a57600080fd5b506105ae6105a9366004614b50565b6121f7565b6040516102f49190614fc3565b3480156105c757600080fd5b506103fd6105d6366004614f79565b612341565b3480156105e757600080fd5b506103fd6105f6366004614f0c565b612850565b34801561060757600080fd5b506103fd610616366004615007565b612bc2565b34801561062757600080fd5b506004546001600160a01b03166102e0565b34801561064557600080fd5b506103fd610654366004614f0c565b613081565b34801561066557600080fd5b506103fd61067436600461503e565b6134a0565b34801561068557600080fd5b506000546102e0906001600160a01b031681565b3480156106a557600080fd5b506008546102e0906001600160a01b031681565b6103fd6106c7366004615071565b6138bc565b3480156106d857600080fd5b5061043f60075481565b3480156106ee57600080fd5b506103fd6106fd36600461509d565b6139ea565b34801561070e57600080fd5b5061043f61071d366004614b50565b613c7a565b34801561072e57600080fd5b506103fd61073d366004614c5f565b613cee565b34801561074e57600080fd5b506102e061075d366004614b50565b613f85565b34801561076e57600080fd5b506103fd61077d366004614f0c565b614076565b34801561078e57600080fd5b506103fd61079d3660046150c2565b61414a565b6103fd6107b0366004614f0c565b614218565b3480156107c157600080fd5b5061043f6107d0366004614b50565b61467b565b3480156107e157600080fd5b5061034d6107f0366004614b50565b614842565b6002546040516369762fe560e11b81526004810183905260009183916001600160a01b039091169063d2ec5fca90602401602060405180830381865afa158015610843573d6000803e3d6000fd5b505050506040513d601f19601f8201168201806040525081019061086791906150df565b42106108ba5760405162461bcd60e51b815260206004820152600c60248201527f4e414d455f45585049524544000000000000000000000000000000000000000060448201526064015b60405180910390fd5b6002546040517f0178b8bf000000000000000000000000000000000000000000000000000000008152600481018590526001600160a01b0390911690630178b8bf906024015b602060405180830381865afa15801561091d573d6000803e3d6000fd5b505050506040513d601f19601f8201168201806040525081019061094191906150f8565b91505b50919050565b6002546040516369762fe560e11b815260048101839052606091829184916001600160a01b03169063d2ec5fca90602401602060405180830381865afa158015610998573d6000803e3d6000fd5b505050506040513d601f19601f820116820180604052508101906109bc91906150df565b4210610a0a5760405162461bcd60e51b815260206004820152600c60248201527f4e414d455f45585049524544000000000000000000000000000000000000000060448201526064016108b1565b6002546040517f0aac6625000000000000000000000000000000000000000000000000000000008152600481018690526001600160a01b0390911690630aac662590602401600060405180830381865afa158015610a6c573d6000803e3d6000fd5b505050506040513d6000823e601f3d908101601f19168201604052610a949190810190615179565b909590945092505050565b60025460405163f61ccd5360e01b81526004810184905283916000916001600160a01b039091169063f61ccd5390602401602060405180830381865afa158015610aed573d6000803e3d6000fd5b505050506040513d601f19601f82011682018060405250810190610b1191906150df565b6001546040516302571be360e01b8152600481018390529192506000916001600160a01b03909116906302571be390602401602060405180830381865afa158015610b60573d6000803e3d6000fd5b505050506040513d601f19601f82011682018060405250810190610b8491906150f8565b6008549091506001600160a01b0316331480610ba857506001600160a01b03811633145b80610c30575060025460405163dbd4e02160e01b8152600481018590526001600160a01b039091169063dbd4e02190602401602060405180830381865afa158015610bf7573d6000803e3d6000fd5b505050506040513d601f19601f82011682018060405250810190610c1b91906150f8565b6001600160a01b0316336001600160a01b0316145b610c7c5760405162461bcd60e51b815260206004820152600e60248201527f4e4f545f415554484f524953454400000000000000000000000000000000000060448201526064016108b1565b6002546040517f1896f70a000000000000000000000000000000000000000000000000000000008152600481018790526001600160a01b03868116602483015290911690631896f70a90604401600060405180830381600087803b158015610ce357600080fd5b505af1158015610cf7573d6000803e3d6000fd5b50506040516001600160a01b03871681528792507f335721b01866dc23fbee8b6b2c7b1e14d6f05c28cd35a2c934239f94095602a091506020015b60405180910390a25050505050565b6002546040516369762fe560e11b81526004810183905260009183916001600160a01b039091169063d2ec5fca90602401602060405180830381865afa158015610d8f573d6000803e3d6000fd5b505050506040513d601f19601f82011682018060405250810190610db391906150df565b4210610e015760405162461bcd60e51b815260206004820152600c60248201527f4e414d455f45585049524544000000000000000000000000000000000000000060448201526064016108b1565b6002546040517f1fc4859e000000000000000000000000000000000000000000000000000000008152600481018590526001600160a01b0390911690631fc4859e90602401602060405180830381865afa158015610e63573d6000803e3d6000fd5b505050506040513d601f19601f8201168201806040525081019061094191906150df565b6002546040516369762fe560e11b81526004810183905282916001600160a01b03169063d2ec5fca90602401602060405180830381865afa158015610ed0573d6000803e3d6000fd5b505050506040513d601f19601f82011682018060405250810190610ef491906150df565b4210610f425760405162461bcd60e51b815260206004820152601060248201527f504f4c5943554c455f455850495245440000000000000000000000000000000060448201526064016108b1565b60025460405163f61ccd5360e01b8152600481018390526000916001600160a01b03169063f61ccd5390602401602060405180830381865afa158015610f8c573d6000803e3d6000fd5b505050506040513d601f19601f82011682018060405250810190610fb091906150df565b6001546040516302571be360e01b8152600481018390529192506000916001600160a01b03909116906302571be390602401602060405180830381865afa158015610fff573d6000803e3d6000fd5b505050506040513d601f19601f8201168201806040525081019061102391906150f8565b90506001600160a01b0381163314806110b9575060025460405163dbd4e02160e01b8152600481018590526001600160a01b039091169063dbd4e02190602401602060405180830381865afa158015611080573d6000803e3d6000fd5b505050506040513d601f19601f820116820180604052508101906110a491906150f8565b6001600160a01b0316336001600160a01b0316145b6111055760405162461bcd60e51b815260206004820152601760248201527f4e4f545f4f574e45525f4f525f434f4e54524f4c4c455200000000000000000060448201526064016108b1565b6002546040517f21ec2b5b000000000000000000000000000000000000000000000000000000008152600481018690526001600160a01b03909116906321ec2b5b90602401600060405180830381600087803b15801561116457600080fd5b505af1158015611178573d6000803e3d6000fd5b50506040518692507f6b91085369552b61ca16180a741663b69fb6b3b967f7271116521d84e2291dc59150600090a250505050565b60025460405163f61ccd5360e01b81526004810186905285916000916001600160a01b039091169063f61ccd5390602401602060405180830381865afa1580156111fb573d6000803e3d6000fd5b505050506040513d601f19601f8201168201806040525081019061121f91906150df565b6001546040516302571be360e01b8152600481018390529192506000916001600160a01b03909116906302571be390602401602060405180830381865afa15801561126e573d6000803e3d6000fd5b505050506040513d601f19601f8201168201806040525081019061129291906150f8565b6008549091506001600160a01b03163314806112b657506001600160a01b03811633145b8061133e575060025460405163dbd4e02160e01b8152600481018590526001600160a01b039091169063dbd4e02190602401602060405180830381865afa158015611305573d6000803e3d6000fd5b505050506040513d601f19601f8201168201806040525081019061132991906150f8565b6001600160a01b0316336001600160a01b0316145b61138a5760405162461bcd60e51b815260206004820152600e60248201527f4e4f545f415554484f524953454400000000000000000000000000000000000060448201526064016108b1565b61139486856148b8565b6113e05760405162461bcd60e51b815260206004820152600760248201527f4241445f4d41500000000000000000000000000000000000000000000000000060448201526064016108b1565b60005b8651811015611591576002546040517f622dad7f000000000000000000000000000000000000000000000000000000008152600481018a90526114a0916001600160a01b03169063622dad7f90602401600060405180830381865afa158015611450573d6000803e3d6000fd5b505050506040513d6000823e601f3d908101601f19168201604052611478919081019061523e565b88838151811061148a5761148a6152cf565b60200260200101516148d490919063ffffffff16565b61157f5760025487516001600160a01b03909116906365edd522908a908a90859081106114cf576114cf6152cf565b60200260200101518985815181106114e9576114e96152cf565b6020026020010151898681518110611503576115036152cf565b60200260200101516040518563ffffffff1660e01b815260040161154c949392919093845260208401929092526001600160a01b0316604083015260ff16606082015260800190565b600060405180830381600087803b15801561156657600080fd5b505af115801561157a573d6000803e3d6000fd5b505050505b806115898161532d565b9150506113e3565b50867f580d99949e5d5a02f35dc5b91b800697d53dccb814e200f24f97b4bfbeb8667c876040516115c29190614fc3565b60405180910390a250505050505050565b6004546001600160a01b0316331461162d5760405162461bcd60e51b815260206004820152600760248201527f4e4f545f4445560000000000000000000000000000000000000000000000000060448201526064016108b1565b600480547fffffffffffffffffffffff00ffffffffffffffffffffffffffffffffffffffff8116740100000000000000000000000000000000000000009182900460ff1615909102179055565b6008546001600160a01b031633146116d45760405162461bcd60e51b815260206004820152600d60248201527f4e4f545f5245474953545241520000000000000000000000000000000000000060448201526064016108b1565b6001546040516302571be360e01b8152600481018390526000916001600160a01b0316906302571be390602401602060405180830381865afa15801561171e573d6000803e3d6000fd5b505050506040513d601f19601f8201168201806040525081019061174291906150f8565b6001600160a01b0316036117985760405162461bcd60e51b815260206004820152600b60248201527f43414e4e4f545f4255524e00000000000000000000000000000000000000000060448201526064016108b1565b6002546040517f8146970a00000000000000000000000000000000000000000000000000000000815260048101849052602481018390526001600160a01b0390911690638146970a90604401600060405180830381600087803b1580156117fe57600080fd5b505af1158015611812573d6000803e3d6000fd5b50505050817f4810581adf2c16a86a375dbb1ed89b0b0f7e64d48d24e1948b3dfe6581e4d7958260405161184891815260200190565b60405180910390a25050565b6004546001600160a01b031633146118ae5760405162461bcd60e51b815260206004820152600760248201527f4e4f545f4445560000000000000000000000000000000000000000000000000060448201526064016108b1565b6001600160a01b03831615611a3857600080547fffffffffffffffffffffffff0000000000000000000000000000000000000000166001600160a01b038516908117909155604080517f642a8ed6000000000000000000000000000000000000000000000000000000008152905163642a8ed6916004808201926080929091908290030181865afa158015611947573d6000803e3d6000fd5b505050506040513d601f19601f8201168201806040525081019061196b9190615365565b60600151600655600054604080517f4d3f733400000000000000000000000000000000000000000000000000000000815290516001600160a01b0390921691634d3f7334916004808201926080929091908290030181865afa1580156119d5573d6000803e3d6000fd5b505050506040513d601f19601f820116820180604052508101906119f991906153c5565b60036020020151600880547fffffffffffffffffffffffff0000000000000000000000000000000000000000166001600160a01b039092169190911790555b6001600160a01b03811615611a7b57600280547fffffffffffffffffffffffff0000000000000000000000000000000000000000166001600160a01b0383161790555b6001600160a01b03821615611b4057600380547fffffffffffffffffffffffff0000000000000000000000000000000000000000166001600160a01b038416908117909155604080517fbd9a548b000000000000000000000000000000000000000000000000000000008152905163bd9a548b916004808201926080929091908290030181865afa158015611b14573d6000803e3d6000fd5b505050506040513d601f19601f82011682018060405250810190611b389190615365565b606001516007555b505050565b6002546040516369762fe560e11b81526004810183905260009183916001600160a01b039091169063d2ec5fca90602401602060405180830381865afa158015611b93573d6000803e3d6000fd5b505050506040513d601f19601f82011682018060405250810190611bb791906150df565b4210611c055760405162461bcd60e51b815260206004820152600c60248201527f4e414d455f45585049524544000000000000000000000000000000000000000060448201526064016108b1565b6002546040517f34026859000000000000000000000000000000000000000000000000000000008152600481018590526001600160a01b0390911690633402685990602401602060405180830381865afa158015611c67573d6000803e3d6000fd5b505050506040513d601f19601f820116820180604052508101906109419190615423565b6008546001600160a01b03163314611ce55760405162461bcd60e51b815260206004820152600d60248201527f4e4f545f5245474953545241520000000000000000000000000000000000000060448201526064016108b1565b6002546040516369762fe560e11b8152600481018490526001600160a01b039091169063d2ec5fca90602401602060405180830381865afa158015611d2e573d6000803e3d6000fd5b505050506040513d601f19601f82011682018060405250810190611d5291906150df565b8111611da05760405162461bcd60e51b815260206004820152600a60248201527f4241445f4558504952590000000000000000000000000000000000000000000060448201526064016108b1565b6002546040517f39de646900000000000000000000000000000000000000000000000000000000815260048101849052602481018390526001600160a01b03909116906339de646990604401600060405180830381600087803b158015611e0657600080fd5b505af1158015611e1a573d6000803e3d6000fd5b50505050817fa620b72378ee464490805a96e25b53e5c0076f0ce2d28f9691ae255a595b3bf38260405161184891815260200190565b6002546040516369762fe560e11b81526004810185905284916001600160a01b03169063d2ec5fca90602401602060405180830381865afa158015611e99573d6000803e3d6000fd5b505050506040513d601f19601f82011682018060405250810190611ebd91906150df565b4210611f0b5760405162461bcd60e51b815260206004820152601060248201527f504f4c5943554c455f455850495245440000000000000000000000000000000060448201526064016108b1565b60025460405163f61ccd5360e01b8152600481018390526000916001600160a01b03169063f61ccd5390602401602060405180830381865afa158015611f55573d6000803e3d6000fd5b505050506040513d601f19601f82011682018060405250810190611f7991906150df565b6001546040516302571be360e01b8152600481018390529192506000916001600160a01b03909116906302571be390602401602060405180830381865afa158015611fc8573d6000803e3d6000fd5b505050506040513d601f19601f82011682018060405250810190611fec91906150f8565b90506001600160a01b038116331480612082575060025460405163dbd4e02160e01b8152600481018590526001600160a01b039091169063dbd4e02190602401602060405180830381865afa158015612049573d6000803e3d6000fd5b505050506040513d601f19601f8201168201806040525081019061206d91906150f8565b6001600160a01b0316336001600160a01b0316145b6120ce5760405162461bcd60e51b815260206004820152601760248201527f4e4f545f4f574e45525f4f525f434f4e54524f4c4c455200000000000000000060448201526064016108b1565b6120d9868886614927565b6121255760405162461bcd60e51b815260206004820152601460248201527f414e494f4e5f4f525f52554c455f45584953545300000000000000000000000060448201526064016108b1565b6002546040517f4475bf4b00000000000000000000000000000000000000000000000000000000815260048101899052602481018890526001600160a01b03878116604483015260ff8716606483015290911690634475bf4b90608401600060405180830381600087803b15801561219c57600080fd5b505af11580156121b0573d6000803e3d6000fd5b5050604080516001600160a01b038916815260ff881660208201528993507fc733a2bc621cc97eef6ed4f708f126e72e6acb76c0a1c0461c9dd31f7b9870659250016115c2565b6002546040516369762fe560e11b81526004810183905260609183916001600160a01b039091169063d2ec5fca90602401602060405180830381865afa158015612245573d6000803e3d6000fd5b505050506040513d601f19601f8201168201806040525081019061226991906150df565b42106122b75760405162461bcd60e51b815260206004820152600c60248201527f4e414d455f45585049524544000000000000000000000000000000000000000060448201526064016108b1565b6002546040517f622dad7f000000000000000000000000000000000000000000000000000000008152600481018590526001600160a01b039091169063622dad7f90602401600060405180830381865afa158015612319573d6000803e3d6000fd5b505050506040513d6000823e601f3d908101601f19168201604052610941919081019061523e565b6002546040516369762fe560e11b81526004810186905285916001600160a01b03169063d2ec5fca90602401602060405180830381865afa15801561238a573d6000803e3d6000fd5b505050506040513d601f19601f820116820180604052508101906123ae91906150df565b42106123fc5760405162461bcd60e51b815260206004820152601060248201527f504f4c5943554c455f455850495245440000000000000000000000000000000060448201526064016108b1565b60025460405163f61ccd5360e01b8152600481018390526000916001600160a01b03169063f61ccd5390602401602060405180830381865afa158015612446573d6000803e3d6000fd5b505050506040513d601f19601f8201168201806040525081019061246a91906150df565b6001546040516302571be360e01b8152600481018390529192506000916001600160a01b03909116906302571be390602401602060405180830381865afa1580156124b9573d6000803e3d6000fd5b505050506040513d601f19601f820116820180604052508101906124dd91906150f8565b90506001600160a01b038116331480612573575060025460405163dbd4e02160e01b8152600481018590526001600160a01b039091169063dbd4e02190602401602060405180830381865afa15801561253a573d6000803e3d6000fd5b505050506040513d601f19601f8201168201806040525081019061255e91906150f8565b6001600160a01b0316336001600160a01b0316145b6125bf5760405162461bcd60e51b815260206004820152601760248201527f4e4f545f4f574e45525f4f525f434f4e54524f4c4c455200000000000000000060448201526064016108b1565b6125ca878786614927565b6126165760405162461bcd60e51b815260206004820152601460248201527f414e494f4e5f4f525f52554c455f45584953545300000000000000000000000060448201526064016108b1565b6002546040517f0aac66250000000000000000000000000000000000000000000000000000000081526004810189905260009182916001600160a01b0390911690630aac662590602401600060405180830381865afa15801561267d573d6000803e3d6000fd5b505050506040513d6000823e601f3d908101601f191682016040526126a59190810190615179565b909250905060006126b960ff881684614a6f565b9050876001600160a01b03168282815181106126d7576126d76152cf565b60200260200101516001600160a01b0316036127355760405162461bcd60e51b815260206004820152600b60248201527f484f4f4b5f45584953545300000000000000000000000000000000000000000060448201526064016108b1565b6002546040517f65edd522000000000000000000000000000000000000000000000000000000008152600481018c9052602481018b90526001600160a01b038a8116604483015260ff8a166064830152909116906365edd52290608401600060405180830381600087803b1580156127ac57600080fd5b505af11580156127c0573d6000803e3d6000fd5b50505050897f600ffddd29393ca43c0a11fa6b0b7096631364178cb42f9d546c0a2cd22525ee8a6040516127f691815260200190565b60405180910390a2604080516001600160a01b038a16815260ff891660208201528b917fc733a2bc621cc97eef6ed4f708f126e72e6acb76c0a1c0461c9dd31f7b987065910160405180910390a250505050505050505050565b6002546040516369762fe560e11b81526004810184905283916001600160a01b03169063d2ec5fca90602401602060405180830381865afa158015612899573d6000803e3d6000fd5b505050506040513d601f19601f820116820180604052508101906128bd91906150df565b421061290b5760405162461bcd60e51b815260206004820152601060248201527f504f4c5943554c455f455850495245440000000000000000000000000000000060448201526064016108b1565b60015460025460405163f61ccd5360e01b8152600481018490526000926001600160a01b03908116926302571be39291169063f61ccd5390602401602060405180830381865afa158015612963573d6000803e3d6000fd5b505050506040513d601f19601f8201168201806040525081019061298791906150df565b6040518263ffffffff1660e01b81526004016129a591815260200190565b602060405180830381865afa1580156129c2573d6000803e3d6000fd5b505050506040513d601f19601f820116820180604052508101906129e691906150f8565b90506001600160a01b0381163314612a405760405162461bcd60e51b815260206004820152600960248201527f4e4f545f4f574e4552000000000000000000000000000000000000000000000060448201526064016108b1565b6001546040516302571be360e01b8152600481018590526000916001600160a01b0316906302571be390602401602060405180830381865afa158015612a8a573d6000803e3d6000fd5b505050506040513d601f19601f82011682018060405250810190612aae91906150f8565b6001600160a01b031603612b045760405162461bcd60e51b815260206004820152600b60248201527f43414e4e4f545f4255524e00000000000000000000000000000000000000000060448201526064016108b1565b6002546040517f8146970a00000000000000000000000000000000000000000000000000000000815260048101869052602481018590526001600160a01b0390911690638146970a90604401600060405180830381600087803b158015612b6a57600080fd5b505af1158015612b7e573d6000803e3d6000fd5b50505050837f4810581adf2c16a86a375dbb1ed89b0b0f7e64d48d24e1948b3dfe6581e4d79584604051612bb491815260200190565b60405180910390a250505050565b6002546040516369762fe560e11b81526004810185905284916001600160a01b03169063d2ec5fca90602401602060405180830381865afa158015612c0b573d6000803e3d6000fd5b505050506040513d601f19601f82011682018060405250810190612c2f91906150df565b4210612c7d5760405162461bcd60e51b815260206004820152601060248201527f504f4c5943554c455f455850495245440000000000000000000000000000000060448201526064016108b1565b60025460405163f61ccd5360e01b8152600481018390526000916001600160a01b03169063f61ccd5390602401602060405180830381865afa158015612cc7573d6000803e3d6000fd5b505050506040513d601f19601f82011682018060405250810190612ceb91906150df565b6001546040516302571be360e01b8152600481018390529192506000916001600160a01b03909116906302571be390602401602060405180830381865afa158015612d3a573d6000803e3d6000fd5b505050506040513d601f19601f82011682018060405250810190612d5e91906150f8565b90506001600160a01b038116331480612df4575060025460405163dbd4e02160e01b8152600481018590526001600160a01b039091169063dbd4e02190602401602060405180830381865afa158015612dbb573d6000803e3d6000fd5b505050506040513d601f19601f82011682018060405250810190612ddf91906150f8565b6001600160a01b0316336001600160a01b0316145b612e405760405162461bcd60e51b815260206004820152601760248201527f4e4f545f4f574e45525f4f525f434f4e54524f4c4c455200000000000000000060448201526064016108b1565b6002546040517f0aac66250000000000000000000000000000000000000000000000000000000081526004810188905260009182916001600160a01b0390911690630aac662590602401600060405180830381865afa158015612ea7573d6000803e3d6000fd5b505050506040513d6000823e601f3d908101601f19168201604052612ecf9190810190615179565b9092509050612ee160ff871683614abb565b15613045576000612ef560ff881684614a6f565b9050876001600160a01b0316828281518110612f1357612f136152cf565b60200260200101516001600160a01b031603612f715760405162461bcd60e51b815260206004820152600b60248201527f484f4f4b5f45584953545300000000000000000000000000000000000000000060448201526064016108b1565b6002546040517f83669726000000000000000000000000000000000000000000000000000000008152600481018b90526001600160a01b038a8116602483015260ff8a16604483015290911690638366972690606401600060405180830381600087803b158015612fe157600080fd5b505af1158015612ff5573d6000803e3d6000fd5b5050604080516001600160a01b038c16815260ff8b1660208201528c93507fe43a78ddf6157361fe34d04905786138f88d3eda20b1f7dc0e2c619f9267310092500160405180910390a250613077565b6040517f7b4e5bfe00000000000000000000000000000000000000000000000000000000815260040160405180910390fd5b5050505050505050565b6002546040516369762fe560e11b81526004810184905283916001600160a01b03169063d2ec5fca90602401602060405180830381865afa1580156130ca573d6000803e3d6000fd5b505050506040513d601f19601f820116820180604052508101906130ee91906150df565b421061313c5760405162461bcd60e51b815260206004820152601060248201527f504f4c5943554c455f455850495245440000000000000000000000000000000060448201526064016108b1565b60025460405163f61ccd5360e01b8152600481018390526000916001600160a01b03169063f61ccd5390602401602060405180830381865afa158015613186573d6000803e3d6000fd5b505050506040513d601f19601f820116820180604052508101906131aa91906150df565b6001546040516302571be360e01b8152600481018390529192506000916001600160a01b03909116906302571be390602401602060405180830381865afa1580156131f9573d6000803e3d6000fd5b505050506040513d601f19601f8201168201806040525081019061321d91906150f8565b90506001600160a01b0381163314806132b3575060025460405163dbd4e02160e01b8152600481018590526001600160a01b039091169063dbd4e02190602401602060405180830381865afa15801561327a573d6000803e3d6000fd5b505050506040513d601f19601f8201168201806040525081019061329e91906150f8565b6001600160a01b0316336001600160a01b0316145b6132ff5760405162461bcd60e51b815260206004820152601760248201527f4e4f545f4f574e45525f4f525f434f4e54524f4c4c455200000000000000000060448201526064016108b1565b6002546040517f622dad7f000000000000000000000000000000000000000000000000000000008152600481018790526000916001600160a01b03169063622dad7f90602401600060405180830381865afa158015613362573d6000803e3d6000fd5b505050506040513d6000823e601f3d908101601f1916820160405261338a919081019061523e565b905061339685826148d4565b156134665760006133a78683614b0a565b6002546040517f90072f97000000000000000000000000000000000000000000000000000000008152600481018a9052602481018390529192506001600160a01b0316906390072f9790604401600060405180830381600087803b15801561340e57600080fd5b505af1158015613422573d6000803e3d6000fd5b50505050867f5c379d054844760656a56e062f50208b458cfa0c4427574f5a2828d19602b4e98760405161345891815260200190565b60405180910390a250613498565b6040517f62316f6700000000000000000000000000000000000000000000000000000000815260040160405180910390fd5b505050505050565b6002546040516369762fe560e11b81526004810184905283916001600160a01b03169063d2ec5fca90602401602060405180830381865afa1580156134e9573d6000803e3d6000fd5b505050506040513d601f19601f8201168201806040525081019061350d91906150df565b421061355b5760405162461bcd60e51b815260206004820152601060248201527f504f4c5943554c455f455850495245440000000000000000000000000000000060448201526064016108b1565b60025460405163f61ccd5360e01b8152600481018390526000916001600160a01b03169063f61ccd5390602401602060405180830381865afa1580156135a5573d6000803e3d6000fd5b505050506040513d601f19601f820116820180604052508101906135c991906150df565b6001546040516302571be360e01b8152600481018390529192506000916001600160a01b03909116906302571be390602401602060405180830381865afa158015613618573d6000803e3d6000fd5b505050506040513d601f19601f8201168201806040525081019061363c91906150f8565b90506001600160a01b0381163314806136d2575060025460405163dbd4e02160e01b8152600481018590526001600160a01b039091169063dbd4e02190602401602060405180830381865afa158015613699573d6000803e3d6000fd5b505050506040513d601f19601f820116820180604052508101906136bd91906150f8565b6001600160a01b0316336001600160a01b0316145b61371e5760405162461bcd60e51b815260206004820152601760248201527f4e4f545f4f574e45525f4f525f434f4e54524f4c4c455200000000000000000060448201526064016108b1565b6002546040517f0aac6625000000000000000000000000000000000000000000000000000000008152600481018790526000916001600160a01b031690630aac662590602401600060405180830381865afa158015613781573d6000803e3d6000fd5b505050506040513d6000823e601f3d908101601f191682016040526137a99190810190615179565b5090506137b960ff861682614abb565b1561388a5760006137cd60ff871683614a6f565b6002546040517f833fda08000000000000000000000000000000000000000000000000000000008152600481018a905260ff89166024820152604481018390529192506001600160a01b03169063833fda0890606401600060405180830381600087803b15801561383d57600080fd5b505af1158015613851573d6000803e3d6000fd5b505060405160ff891681528992507fbf47c0c608c230f7dffbcf65f8cdc76f5f920e4750eea1dcd09138a7359226ac9150602001613458565b6040517fe8dd1d3e00000000000000000000000000000000000000000000000000000000815260040160405180910390fd5b6004546001600160a01b031633146139165760405162461bcd60e51b815260206004820152600760248201527f4e4f545f4445560000000000000000000000000000000000000000000000000060448201526064016108b1565b7fffffffff0000000000000000000000000000000000000000000000000000000080831690036139885760405162461bcd60e51b815260206004820152601a60248201527f494e56414c49445f494e544552464143455f53454c4543544f5200000000000060448201526064016108b1565b7fffffffff0000000000000000000000000000000000000000000000000000000091909116600090815260056020526040902080547fffffffffffffffffffffffffffffffffffffffffffffffffffffffffffffff0016911515919091179055565b60025460405163f61ccd5360e01b81526004810184905283916000916001600160a01b039091169063f61ccd5390602401602060405180830381865afa158015613a38573d6000803e3d6000fd5b505050506040513d601f19601f82011682018060405250810190613a5c91906150df565b6001546040516302571be360e01b8152600481018390529192506000916001600160a01b03909116906302571be390602401602060405180830381865afa158015613aab573d6000803e3d6000fd5b505050506040513d601f19601f82011682018060405250810190613acf91906150f8565b6008549091506001600160a01b0316331480613af357506001600160a01b03811633145b80613b7b575060025460405163dbd4e02160e01b8152600481018590526001600160a01b039091169063dbd4e02190602401602060405180830381865afa158015613b42573d6000803e3d6000fd5b505050506040513d601f19601f82011682018060405250810190613b6691906150f8565b6001600160a01b0316336001600160a01b0316145b613bc75760405162461bcd60e51b815260206004820152600e60248201527f4e4f545f415554484f524953454400000000000000000000000000000000000060448201526064016108b1565b6002546040517fd07699aa0000000000000000000000000000000000000000000000000000000081526004810187905285151560248201526001600160a01b039091169063d07699aa90604401600060405180830381600087803b158015613c2e57600080fd5b505af1158015613c42573d6000803e3d6000fd5b50505050847fe6ccdb52b4954ab2c3e293f1dbfe593e6c5630962a1944bfcf20c5563eeb846285604051610d32911515815260200190565b6002546040516369762fe560e11b8152600481018390526000916001600160a01b03169063d2ec5fca90602401602060405180830381865afa158015613cc4573d6000803e3d6000fd5b505050506040513d601f19601f82011682018060405250810190613ce891906150df565b92915050565b60025460405163f61ccd5360e01b81526004810184905283916000916001600160a01b039091169063f61ccd5390602401602060405180830381865afa158015613d3c573d6000803e3d6000fd5b505050506040513d601f19601f82011682018060405250810190613d6091906150df565b6001546040516302571be360e01b8152600481018390529192506000916001600160a01b03909116906302571be390602401602060405180830381865afa158015613daf573d6000803e3d6000fd5b505050506040513d601f19601f82011682018060405250810190613dd391906150f8565b6008549091506001600160a01b0316331480613df757506001600160a01b03811633145b80613e7f575060025460405163dbd4e02160e01b8152600481018590526001600160a01b039091169063dbd4e02190602401602060405180830381865afa158015613e46573d6000803e3d6000fd5b505050506040513d601f19601f82011682018060405250810190613e6a91906150f8565b6001600160a01b0316336001600160a01b0316145b613ecb5760405162461bcd60e51b815260206004820152600e60248201527f4e4f545f415554484f524953454400000000000000000000000000000000000060448201526064016108b1565b6002546040517fd3156905000000000000000000000000000000000000000000000000000000008152600481018790526001600160a01b0386811660248301529091169063d315690590604401600060405180830381600087803b158015613f3257600080fd5b505af1158015613f46573d6000803e3d6000fd5b50506040516001600160a01b03871681528792507fe5108446a6097aab57fd36f346a515a78fddefa87d81662d44e0d7a463f920959150602001610d32565b6002546040516369762fe560e11b81526004810183905260009183916001600160a01b039091169063d2ec5fca90602401602060405180830381865afa158015613fd3573d6000803e3d6000fd5b505050506040513d601f19601f82011682018060405250810190613ff791906150df565b42106140455760405162461bcd60e51b815260206004820152600c60248201527f4e414d455f45585049524544000000000000000000000000000000000000000060448201526064016108b1565b60025460405163dbd4e02160e01b8152600481018590526001600160a01b039091169063dbd4e02190602401610900565b6008546001600160a01b031633146140d05760405162461bcd60e51b815260206004820152600d60248201527f4e4f545f5245474953545241520000000000000000000000000000000000000060448201526064016108b1565b6002546040517fdeee4da900000000000000000000000000000000000000000000000000000000815260048101849052602481018390526001600160a01b039091169063deee4da990604401600060405180830381600087803b15801561413657600080fd5b505af1158015613498573d6000803e3d6000fd5b6004546001600160a01b031633146141a45760405162461bcd60e51b815260206004820152600760248201527f4e4f545f4445560000000000000000000000000000000000000000000000000060448201526064016108b1565b6004546040516001600160a01b038084169216907f8be0079c531659141344cd1fd0a4f28419497f9722a3daafe3b4186f6b6457e090600090a3600480547fffffffffffffffffffffffff0000000000000000000000000000000000000000166001600160a01b0392909216919091179055565b6002546040516369762fe560e11b81526004810184905283916001600160a01b03169063d2ec5fca90602401602060405180830381865afa158015614261573d6000803e3d6000fd5b505050506040513d601f19601f8201168201806040525081019061428591906150df565b42106142d35760405162461bcd60e51b815260206004820152601060248201527f504f4c5943554c455f455850495245440000000000000000000000000000000060448201526064016108b1565b60025460405163f61ccd5360e01b8152600481018390526000916001600160a01b03169063f61ccd5390602401602060405180830381865afa15801561431d573d6000803e3d6000fd5b505050506040513d601f19601f8201168201806040525081019061434191906150df565b6001546040516302571be360e01b8152600481018390529192506000916001600160a01b03909116906302571be390602401602060405180830381865afa158015614390573d6000803e3d6000fd5b505050506040513d601f19601f820116820180604052508101906143b491906150f8565b90506001600160a01b03811633148061444a575060025460405163dbd4e02160e01b8152600481018590526001600160a01b039091169063dbd4e02190602401602060405180830381865afa158015614411573d6000803e3d6000fd5b505050506040513d601f19601f8201168201806040525081019061443591906150f8565b6001600160a01b0316336001600160a01b0316145b6144965760405162461bcd60e51b815260206004820152601760248201527f4e4f545f4f574e45525f4f525f434f4e54524f4c4c455200000000000000000060448201526064016108b1565b6002546040516369762fe560e11b8152600481018790526000916001600160a01b03169063d2ec5fca90602401602060405180830381865afa1580156144e0573d6000803e3d6000fd5b505050506040513d601f19601f8201168201806040525081019061450491906150df565b90508085116145555760405162461bcd60e51b815260206004820152600a60248201527f4241445f4558504952590000000000000000000000000000000000000000000060448201526064016108b1565b6007546145628287615440565b61456c9190615453565b3410156145bb5760405162461bcd60e51b815260206004820152601260248201527f494e53554646494349454e545f4554484552000000000000000000000000000060448201526064016108b1565b6002546040517f39de646900000000000000000000000000000000000000000000000000000000815260048101889052602481018790526001600160a01b03909116906339de646990604401600060405180830381600087803b15801561462157600080fd5b505af1158015614635573d6000803e3d6000fd5b50505050857fa620b72378ee464490805a96e25b53e5c0076f0ce2d28f9691ae255a595b3bf38660405161466b91815260200190565b60405180910390a2505050505050565b6002546040516369762fe560e11b81526004810183905260009183916001600160a01b039091169063d2ec5fca90602401602060405180830381865afa1580156146c9573d6000803e3d6000fd5b505050506040513d601f19601f820116820180604052508101906146ed91906150df565b421061473b5760405162461bcd60e51b815260206004820152600c60248201527f4e414d455f45585049524544000000000000000000000000000000000000000060448201526064016108b1565b60025460405163f61ccd5360e01b8152600481018590526000916001600160a01b03169063f61ccd5390602401602060405180830381865afa158015614785573d6000803e3d6000fd5b505050506040513d601f19601f820116820180604052508101906147a991906150df565b6001546040516302571be360e01b8152600481018390529192506000916001600160a01b03909116906302571be390602401602060405180830381865afa1580156147f8573d6000803e3d6000fd5b505050506040513d601f19601f8201168201806040525081019061481c91906150f8565b9050306001600160a01b0382160361483a5750600092506109449050565b509392505050565b6002546040516369762fe560e11b8152600481018390526000916001600160a01b03169063d2ec5fca90602401602060405180830381865afa15801561488c573d6000803e3d6000fd5b505050506040513d601f19601f820116820180604052508101906148b091906150df565b421092915050565b600081518351036148cb57506001613ce8565b50600092915050565b6000805b825181101561491d57838382815181106148f4576148f46152cf565b60200260200101510361490b576001915050613ce8565b806149158161532d565b9150506148d8565b5060009392505050565b6002546040517f0aac66250000000000000000000000000000000000000000000000000000000081526004810185905260009182916001600160a01b0390911690630aac662590602401600060405180830381865afa15801561498e573d6000803e3d6000fd5b505050506040513d6000823e601f3d908101601f191682016040526149b69190810190615179565b506002546040517f622dad7f00000000000000000000000000000000000000000000000000000000815260048101889052919250614a4f916001600160a01b039091169063622dad7f90602401600060405180830381865afa158015614a20573d6000803e3d6000fd5b505050506040513d6000823e601f3d908101601f19168201604052614a48919081019061523e565b85906148d4565b158015614a665750614a6460ff841682614abb565b155b95945050505050565b6000805b825181101561491d578360ff16838281518110614a9257614a926152cf565b602002602001015160ff1603614aa9579050613ce8565b80614ab38161532d565b915050614a73565b6000805b825181101561491d578360ff16838281518110614ade57614ade6152cf565b602002602001015160ff1603614af8576001915050613ce8565b80614b028161532d565b915050614abf565b6000805b825181101561491d5783838281518110614b2a57614b2a6152cf565b602002602001015103614b3e579050613ce8565b80614b488161532d565b915050614b0e565b600060208284031215614b6257600080fd5b5035919050565b80357fffffffff0000000000000000000000000000000000000000000000000000000081168114614b9957600080fd5b919050565b600060208284031215614bb057600080fd5b614bb982614b69565b9392505050565b604080825283519082018190526000906020906060840190828701845b82811015614bfc57815160ff1684529284019290840190600101614bdd565b5050508381038285015284518082528583019183019060005b81811015614c3a5783516001600160a01b031683529284019291840191600101614c15565b5090979650505050505050565b6001600160a01b0381168114614c5c57600080fd5b50565b60008060408385031215614c7257600080fd5b823591506020830135614c8481614c47565b809150509250929050565b7f4e487b7100000000000000000000000000000000000000000000000000000000600052604160045260246000fd5b6040516080810167ffffffffffffffff81118282101715614ce157614ce1614c8f565b60405290565b604051601f8201601f1916810167ffffffffffffffff81118282101715614d1057614d10614c8f565b604052919050565b600067ffffffffffffffff821115614d3257614d32614c8f565b5060051b60200190565b600082601f830112614d4d57600080fd5b81356020614d62614d5d83614d18565b614ce7565b82815260059290921b84018101918181019086841115614d8157600080fd5b8286015b84811015614da5578035614d9881614c47565b8352918301918301614d85565b509695505050505050565b60ff81168114614c5c57600080fd5b600082601f830112614dd057600080fd5b81356020614de0614d5d83614d18565b82815260059290921b84018101918181019086841115614dff57600080fd5b8286015b84811015614da5578035614e1681614db0565b8352918301918301614e03565b60008060008060808587031215614e3957600080fd5b8435935060208086013567ffffffffffffffff80821115614e5957600080fd5b818801915088601f830112614e6d57600080fd5b8135614e7b614d5d82614d18565b81815260059190911b8301840190848101908b831115614e9a57600080fd5b938501935b82851015614eb857843582529385019390850190614e9f565b975050506040880135925080831115614ed057600080fd5b614edc89848a01614d3c565b94506060880135925080831115614ef257600080fd5b5050614f0087828801614dbf565b91505092959194509250565b60008060408385031215614f1f57600080fd5b50508035926020909101359150565b600080600060608486031215614f4357600080fd5b8335614f4e81614c47565b92506020840135614f5e81614c47565b91506040840135614f6e81614c47565b809150509250925092565b60008060008060808587031215614f8f57600080fd5b84359350602085013592506040850135614fa881614c47565b91506060850135614fb881614db0565b939692955090935050565b6020808252825182820181905260009190848201906040850190845b81811015614ffb57835183529284019291840191600101614fdf565b50909695505050505050565b60008060006060848603121561501c57600080fd5b83359250602084013561502e81614c47565b91506040840135614f6e81614db0565b6000806040838503121561505157600080fd5b823591506020830135614c8481614db0565b8015158114614c5c57600080fd5b6000806040838503121561508457600080fd5b61508d83614b69565b91506020830135614c8481615063565b600080604083850312156150b057600080fd5b823591506020830135614c8481615063565b6000602082840312156150d457600080fd5b8135614bb981614c47565b6000602082840312156150f157600080fd5b5051919050565b60006020828403121561510a57600080fd5b8151614bb981614c47565b600082601f83011261512657600080fd5b81516020615136614d5d83614d18565b82815260059290921b8401810191818101908684111561515557600080fd5b8286015b84811015614da557805161516c81614c47565b8352918301918301615159565b6000806040838503121561518c57600080fd5b825167ffffffffffffffff808211156151a457600080fd5b818501915085601f8301126151b857600080fd5b815160206151c8614d5d83614d18565b82815260059290921b840181019181810190898411156151e757600080fd5b948201945b8386101561520e5785516151ff81614db0565b825294820194908201906151ec565b9188015191965090935050508082111561522757600080fd5b5061523485828601615115565b9150509250929050565b6000602080838503121561525157600080fd5b825167ffffffffffffffff81111561526857600080fd5b8301601f8101851361527957600080fd5b8051615287614d5d82614d18565b81815260059190911b820183019083810190878311156152a657600080fd5b928401925b828410156152c4578351825292840192908401906152ab565b979650505050505050565b7f4e487b7100000000000000000000000000000000000000000000000000000000600052603260045260246000fd5b7f4e487b7100000000000000000000000000000000000000000000000000000000600052601160045260246000fd5b60007fffffffffffffffffffffffffffffffffffffffffffffffffffffffffffffffff820361535e5761535e6152fe565b5060010190565b60006080828403121561537757600080fd5b82601f83011261538657600080fd5b61538e614cbe565b8060808401858111156153a057600080fd5b845b818110156153ba5780518452602093840193016153a2565b509095945050505050565b6000608082840312156153d757600080fd5b82601f8301126153e657600080fd5b6153ee614cbe565b80608084018581111561540057600080fd5b845b818110156153ba57805161541581614c47565b845260209384019301615402565b60006020828403121561543557600080fd5b8151614bb981615063565b81810381811115613ce857613ce86152fe565b6000817fffffffffffffffffffffffffffffffffffffffffffffffffffffffffffffffff048311821515161561548b5761548b6152fe565b50029056fea26469706673582212208dd8736553d62700cd52d371eb6c3a947163fa0b7f215094c8e61c91a2e909cd64736f6c63430008100033",
    "linkReferences": {}
  },
  "methodIdentifiers": {
    "Dev()": "01e51ae8",
    "HELIX2()": "b782426e",
    "NAMES()": "05e84aa0",
    "PRICES()": "1eabcd34",
    "Registrar()": "b9f37c86",
    "STORE()": "507f1465",
    "active()": "02fb0c5e",
    "addAnionWithConfig(bytes32,bytes32,address,uint8)": "65edd522",
    "anions(bytes32)": "622dad7f",
    "basePrice()": "c7876ea4",
    "cation(bytes32)": "f61ccd53",
    "controller(bytes32)": "dbd4e021",
    "covalence(bytes32)": "34026859",
    "expiry(bytes32)": "d2ec5fca",
    "hook(bytes32,bytes32,address,uint8)": "4475bf4b",
    "hooksWithRules(bytes32)": "0aac6625",
    "label(bytes32)": "1fc4859e",
    "owner()": "8da5cb5b",
    "popAnion(bytes32,bytes32)": "8dcad139",
    "recordExists(bytes32)": "f79fe538",
    "register(bytes32,bytes32)": "2f926732",
    "rehook(bytes32,address,uint8)": "83669726",
    "renew(bytes32,uint256)": "f544d82f",
    "resolver(bytes32)": "0178b8bf",
    "roothash()": "251c9422",
    "setAnions(bytes32,bytes32[],address[],uint8[])": "250548b9",
    "setCation(bytes32,bytes32)": "8146970a",
    "setConfig(address,address,address)": "3141e25b",
    "setController(bytes32,address)": "d3156905",
    "setCovalence(bytes32,bool)": "d07699aa",
    "setExpiry(bytes32,uint256)": "39de6469",
    "setInterface(bytes4,bool)": "c0a43a7c",
    "setLabel(bytes32,bytes32)": "deee4da9",
    "setResolver(bytes32,address)": "1896f70a",
    "supportsInterface(bytes4)": "01ffc9a7",
    "theEnd()": "22b68deb",
    "toggleActive()": "29c68dc1",
    "transferOwnership(address)": "f2fde38b",
    "unhook(bytes32,uint8)": "b612e9b9",
    "unhookAll(bytes32)": "21ec2b5b"
  },
  "id": 46
}