{
  "abi": [
    {
      "inputs": [
        {
          "internalType": "address",
          "name": "_registry",
          "type": "address"
        },
        {
          "internalType": "address",
          "name": "_helix2",
          "type": "address"
        }
      ],
      "stateMutability": "nonpayable",
      "type": "constructor"
    },
    {
      "inputs": [],
      "name": "BAD_ANION",
      "type": "error"
    },
    {
      "inputs": [],
      "name": "BAD_HOOK",
      "type": "error"
    },
    {
      "anonymous": false,
      "inputs": [
        {
          "indexed": true,
          "internalType": "address",
          "name": "cation",
          "type": "address"
        },
        {
          "indexed": true,
          "internalType": "address",
          "name": "operator",
          "type": "address"
        },
        {
          "indexed": false,
          "internalType": "bool",
          "name": "approved",
          "type": "bool"
        }
      ],
      "name": "ApprovalForAll",
      "type": "event"
    },
    {
      "anonymous": false,
      "inputs": [
        {
          "indexed": true,
          "internalType": "bytes32",
          "name": "polyhash",
          "type": "bytes32"
        },
        {
          "indexed": false,
          "internalType": "address",
          "name": "config",
          "type": "address"
        },
        {
          "indexed": false,
          "internalType": "uint8",
          "name": "rule",
          "type": "uint8"
        }
      ],
      "name": "Hooked",
      "type": "event"
    },
    {
      "anonymous": false,
      "inputs": [
        {
          "indexed": true,
          "internalType": "bytes32",
          "name": "polyhash",
          "type": "bytes32"
        },
        {
          "indexed": false,
          "internalType": "bytes32",
          "name": "_alias",
          "type": "bytes32"
        }
      ],
      "name": "NewAlias",
      "type": "event"
    },
    {
      "anonymous": false,
      "inputs": [
        {
          "indexed": true,
          "internalType": "bytes32",
          "name": "polyhash",
          "type": "bytes32"
        },
        {
          "indexed": false,
          "internalType": "bytes32",
          "name": "anion",
          "type": "bytes32"
        }
      ],
      "name": "NewAnion",
      "type": "event"
    },
    {
      "anonymous": false,
      "inputs": [
        {
          "indexed": true,
          "internalType": "bytes32",
          "name": "polyhash",
          "type": "bytes32"
        },
        {
          "indexed": false,
          "internalType": "bytes32[]",
          "name": "anion",
          "type": "bytes32[]"
        }
      ],
      "name": "NewAnions",
      "type": "event"
    },
    {
      "anonymous": false,
      "inputs": [
        {
          "indexed": true,
          "internalType": "bytes32",
          "name": "polyhash",
          "type": "bytes32"
        },
        {
          "indexed": false,
          "internalType": "bytes32",
          "name": "cation",
          "type": "bytes32"
        }
      ],
      "name": "NewCation",
      "type": "event"
    },
    {
      "anonymous": false,
      "inputs": [
        {
          "indexed": true,
          "internalType": "bytes32",
          "name": "polyhash",
          "type": "bytes32"
        },
        {
          "indexed": false,
          "internalType": "address",
          "name": "controller",
          "type": "address"
        }
      ],
      "name": "NewController",
      "type": "event"
    },
    {
      "anonymous": false,
      "inputs": [
        {
          "indexed": true,
          "internalType": "bytes32",
          "name": "polyhash",
          "type": "bytes32"
        },
        {
          "indexed": false,
          "internalType": "bool",
          "name": "covalence",
          "type": "bool"
        }
      ],
      "name": "NewCovalence",
      "type": "event"
    },
    {
      "anonymous": false,
      "inputs": [
        {
          "indexed": false,
          "internalType": "address",
          "name": "Dev",
          "type": "address"
        },
        {
          "indexed": false,
          "internalType": "address",
          "name": "newDev",
          "type": "address"
        }
      ],
      "name": "NewDev",
      "type": "event"
    },
    {
      "anonymous": false,
      "inputs": [
        {
          "indexed": true,
          "internalType": "bytes32",
          "name": "polyhash",
          "type": "bytes32"
        },
        {
          "indexed": false,
          "internalType": "uint256",
          "name": "expiry",
          "type": "uint256"
        }
      ],
      "name": "NewExpiry",
      "type": "event"
    },
    {
      "anonymous": false,
      "inputs": [
        {
          "indexed": true,
          "internalType": "bytes32",
          "name": "polyhash",
          "type": "bytes32"
        },
        {
          "indexed": false,
          "internalType": "bytes32",
          "name": "cation",
          "type": "bytes32"
        }
      ],
      "name": "NewPolycule",
      "type": "event"
    },
    {
      "anonymous": false,
      "inputs": [
        {
          "indexed": true,
          "internalType": "bytes32",
          "name": "polyhash",
          "type": "bytes32"
        },
        {
          "indexed": false,
          "internalType": "address",
          "name": "resolver",
          "type": "address"
        }
      ],
      "name": "NewRecord",
      "type": "event"
    },
    {
      "anonymous": false,
      "inputs": [
        {
          "indexed": true,
          "internalType": "bytes32",
          "name": "polyhash",
          "type": "bytes32"
        },
        {
          "indexed": false,
          "internalType": "bytes32",
          "name": "cation",
          "type": "bytes32"
        }
      ],
      "name": "NewRegistration",
      "type": "event"
    },
    {
      "anonymous": false,
      "inputs": [
        {
          "indexed": true,
          "internalType": "bytes32",
          "name": "polyhash",
          "type": "bytes32"
        },
        {
          "indexed": false,
          "internalType": "address",
          "name": "resolver",
          "type": "address"
        }
      ],
      "name": "NewResolver",
      "type": "event"
    },
    {
      "anonymous": false,
      "inputs": [
        {
          "indexed": true,
          "internalType": "bytes32",
          "name": "polyhash",
          "type": "bytes32"
        },
        {
          "indexed": false,
          "internalType": "bytes32",
          "name": "anion",
          "type": "bytes32"
        }
      ],
      "name": "PopAnion",
      "type": "event"
    },
    {
      "anonymous": false,
      "inputs": [
        {
          "indexed": true,
          "internalType": "bytes32",
          "name": "polyhash",
          "type": "bytes32"
        },
        {
          "indexed": false,
          "internalType": "bytes32",
          "name": "anion",
          "type": "bytes32"
        },
        {
          "indexed": false,
          "internalType": "uint8",
          "name": "rule",
          "type": "uint8"
        }
      ],
      "name": "RehookedAnion",
      "type": "event"
    },
    {
      "anonymous": false,
      "inputs": [
        {
          "indexed": true,
          "internalType": "bytes32",
          "name": "polyhash",
          "type": "bytes32"
        },
        {
          "indexed": false,
          "internalType": "address",
          "name": "config",
          "type": "address"
        },
        {
          "indexed": false,
          "internalType": "uint8",
          "name": "rule",
          "type": "uint8"
        }
      ],
      "name": "RehookedConfig",
      "type": "event"
    },
    {
      "anonymous": false,
      "inputs": [
        {
          "indexed": true,
          "internalType": "bytes32",
          "name": "polyhash",
          "type": "bytes32"
        }
      ],
      "name": "UnhookedAll",
      "type": "event"
    },
    {
      "anonymous": false,
      "inputs": [
        {
          "indexed": true,
          "internalType": "bytes32",
          "name": "polyhash",
          "type": "bytes32"
        },
        {
          "indexed": false,
          "internalType": "bytes32",
          "name": "anion",
          "type": "bytes32"
        }
      ],
      "name": "UnhookedAnion",
      "type": "event"
    },
    {
      "anonymous": false,
      "inputs": [
        {
          "indexed": true,
          "internalType": "bytes32",
          "name": "polyhash",
          "type": "bytes32"
        },
        {
          "indexed": false,
          "internalType": "address",
          "name": "config",
          "type": "address"
        }
      ],
      "name": "UnhookedConfig",
      "type": "event"
    },
    {
      "inputs": [],
      "name": "Dev",
      "outputs": [
        {
          "internalType": "address",
          "name": "",
          "type": "address"
        }
      ],
      "stateMutability": "view",
      "type": "function"
    },
    {
      "inputs": [],
      "name": "HELIX2",
      "outputs": [
        {
          "internalType": "contract iHELIX2",
          "name": "",
          "type": "address"
        }
      ],
      "stateMutability": "view",
      "type": "function"
    },
    {
      "inputs": [],
      "name": "NAMES",
      "outputs": [
        {
          "internalType": "contract iNAME",
          "name": "",
          "type": "address"
        }
      ],
      "stateMutability": "view",
      "type": "function"
    },
    {
      "inputs": [
        {
          "internalType": "bytes32",
          "name": "",
          "type": "bytes32"
        }
      ],
      "name": "Polycules",
      "outputs": [
        {
          "internalType": "bytes32",
          "name": "_cation",
          "type": "bytes32"
        },
        {
          "internalType": "bytes32",
          "name": "_alias",
          "type": "bytes32"
        },
        {
          "internalType": "address",
          "name": "_resolver",
          "type": "address"
        },
        {
          "internalType": "address",
          "name": "_controller",
          "type": "address"
        },
        {
          "internalType": "bool",
          "name": "_covalence",
          "type": "bool"
        },
        {
          "internalType": "uint256",
          "name": "_expiry",
          "type": "uint256"
        }
      ],
      "stateMutability": "view",
      "type": "function"
    },
    {
      "inputs": [],
      "name": "Registrar",
      "outputs": [
        {
          "internalType": "address",
          "name": "",
          "type": "address"
        }
      ],
      "stateMutability": "view",
      "type": "function"
    },
    {
      "inputs": [],
      "name": "active",
      "outputs": [
        {
          "internalType": "bool",
          "name": "",
          "type": "bool"
        }
      ],
      "stateMutability": "view",
      "type": "function"
    },
    {
      "inputs": [
        {
          "internalType": "bytes32",
          "name": "polyhash",
          "type": "bytes32"
        },
        {
          "internalType": "bytes32",
          "name": "_anion",
          "type": "bytes32"
        },
        {
          "internalType": "address",
          "name": "config",
          "type": "address"
        },
        {
          "internalType": "uint8",
          "name": "rule",
          "type": "uint8"
        }
      ],
      "name": "addAnion",
      "outputs": [],
      "stateMutability": "nonpayable",
      "type": "function"
    },
    {
      "inputs": [
        {
          "internalType": "bytes32",
          "name": "polyhash",
          "type": "bytes32"
        }
      ],
      "name": "alias_",
      "outputs": [
        {
          "internalType": "bytes32",
          "name": "",
          "type": "bytes32"
        }
      ],
      "stateMutability": "view",
      "type": "function"
    },
    {
      "inputs": [
        {
          "internalType": "bytes32",
          "name": "polyhash",
          "type": "bytes32"
        }
      ],
      "name": "anion",
      "outputs": [
        {
          "internalType": "bytes32[]",
          "name": "",
          "type": "bytes32[]"
        }
      ],
      "stateMutability": "view",
      "type": "function"
    },
    {
      "inputs": [],
      "name": "basePrice",
      "outputs": [
        {
          "internalType": "uint256",
          "name": "",
          "type": "uint256"
        }
      ],
      "stateMutability": "view",
      "type": "function"
    },
    {
      "inputs": [
        {
          "internalType": "bytes32",
          "name": "polyhash",
          "type": "bytes32"
        }
      ],
      "name": "cation",
      "outputs": [
        {
          "internalType": "bytes32",
          "name": "",
          "type": "bytes32"
        }
      ],
      "stateMutability": "view",
      "type": "function"
    },
    {
      "inputs": [
        {
          "internalType": "address",
          "name": "newDev",
          "type": "address"
        }
      ],
      "name": "changeDev",
      "outputs": [],
      "stateMutability": "nonpayable",
      "type": "function"
    },
    {
      "inputs": [
        {
          "internalType": "bytes32",
          "name": "polyhash",
          "type": "bytes32"
        }
      ],
      "name": "controller",
      "outputs": [
        {
          "internalType": "address",
          "name": "",
          "type": "address"
        }
      ],
      "stateMutability": "view",
      "type": "function"
    },
    {
      "inputs": [
        {
          "internalType": "bytes32",
          "name": "polyhash",
          "type": "bytes32"
        }
      ],
      "name": "covalence",
      "outputs": [
        {
          "internalType": "bool",
          "name": "",
          "type": "bool"
        }
      ],
      "stateMutability": "view",
      "type": "function"
    },
    {
      "inputs": [
        {
          "internalType": "bytes32",
          "name": "polyhash",
          "type": "bytes32"
        }
      ],
      "name": "expiry",
      "outputs": [
        {
          "internalType": "uint256",
          "name": "",
          "type": "uint256"
        }
      ],
      "stateMutability": "view",
      "type": "function"
    },
    {
      "inputs": [
        {
          "internalType": "bytes32",
          "name": "__anion",
          "type": "bytes32"
        },
        {
          "internalType": "bytes32",
          "name": "polyhash",
          "type": "bytes32"
        },
        {
          "internalType": "uint8",
          "name": "rule",
          "type": "uint8"
        },
        {
          "internalType": "address",
          "name": "config",
          "type": "address"
        }
      ],
      "name": "hook",
      "outputs": [],
      "stateMutability": "nonpayable",
      "type": "function"
    },
    {
      "inputs": [
        {
          "internalType": "bytes32",
          "name": "polyhash",
          "type": "bytes32"
        }
      ],
      "name": "hooksWithRules",
      "outputs": [
        {
          "internalType": "address[]",
          "name": "_hooks",
          "type": "address[]"
        },
        {
          "internalType": "uint8[]",
          "name": "_rules",
          "type": "uint8[]"
        }
      ],
      "stateMutability": "view",
      "type": "function"
    },
    {
      "inputs": [
        {
          "internalType": "bytes32",
          "name": "_cation",
          "type": "bytes32"
        },
        {
          "internalType": "address",
          "name": "operator",
          "type": "address"
        }
      ],
      "name": "isApprovedForAll",
      "outputs": [
        {
          "internalType": "bool",
          "name": "",
          "type": "bool"
        }
      ],
      "stateMutability": "view",
      "type": "function"
    },
    {
      "inputs": [
        {
          "internalType": "bytes32[]",
          "name": "_anion",
          "type": "bytes32[]"
        },
        {
          "internalType": "address[]",
          "name": "_config",
          "type": "address[]"
        }
      ],
      "name": "isLegalMap",
      "outputs": [
        {
          "internalType": "bool",
          "name": "",
          "type": "bool"
        }
      ],
      "stateMutability": "pure",
      "type": "function"
    },
    {
      "inputs": [
        {
          "internalType": "bytes32",
          "name": "polyhash",
          "type": "bytes32"
        },
        {
          "internalType": "bytes32",
          "name": "_anion",
          "type": "bytes32"
        }
      ],
      "name": "isNotDuplicateAnion",
      "outputs": [
        {
          "internalType": "bool",
          "name": "",
          "type": "bool"
        }
      ],
      "stateMutability": "view",
      "type": "function"
    },
    {
      "inputs": [
        {
          "internalType": "bytes32",
          "name": "polyhash",
          "type": "bytes32"
        },
        {
          "internalType": "address",
          "name": "config",
          "type": "address"
        }
      ],
      "name": "isNotDuplicateHook",
      "outputs": [
        {
          "internalType": "bool",
          "name": "",
          "type": "bool"
        }
      ],
      "stateMutability": "view",
      "type": "function"
    },
    {
      "inputs": [
        {
          "internalType": "bytes32",
          "name": "polyhash",
          "type": "bytes32"
        },
        {
          "internalType": "bytes32",
          "name": "__anion",
          "type": "bytes32"
        }
      ],
      "name": "popAnion",
      "outputs": [],
      "stateMutability": "nonpayable",
      "type": "function"
    },
    {
      "inputs": [
        {
          "internalType": "bytes32",
          "name": "polyhash",
          "type": "bytes32"
        }
      ],
      "name": "recordExists",
      "outputs": [
        {
          "internalType": "bool",
          "name": "",
          "type": "bool"
        }
      ],
      "stateMutability": "view",
      "type": "function"
    },
    {
      "inputs": [
        {
          "internalType": "bytes32",
          "name": "polyhash",
          "type": "bytes32"
        },
        {
          "internalType": "bytes32",
          "name": "_cation",
          "type": "bytes32"
        }
      ],
      "name": "register",
      "outputs": [],
      "stateMutability": "nonpayable",
      "type": "function"
    },
    {
      "inputs": [
        {
          "internalType": "bytes32",
          "name": "polyhash",
          "type": "bytes32"
        },
        {
          "internalType": "uint8",
          "name": "rule",
          "type": "uint8"
        },
        {
          "internalType": "address",
          "name": "config",
          "type": "address"
        }
      ],
      "name": "rehook",
      "outputs": [],
      "stateMutability": "nonpayable",
      "type": "function"
    },
    {
      "inputs": [
        {
          "internalType": "bytes32",
          "name": "polyhash",
          "type": "bytes32"
        },
        {
          "internalType": "uint8",
          "name": "rule",
          "type": "uint8"
        },
        {
          "internalType": "bytes32",
          "name": "__anion",
          "type": "bytes32"
        }
      ],
      "name": "rehook",
      "outputs": [],
      "stateMutability": "nonpayable",
      "type": "function"
    },
    {
      "inputs": [
        {
          "internalType": "bytes32",
          "name": "molyhash",
          "type": "bytes32"
        },
        {
          "internalType": "uint256",
          "name": "_expiry",
          "type": "uint256"
        }
      ],
      "name": "renew",
      "outputs": [],
      "stateMutability": "payable",
      "type": "function"
    },
    {
      "inputs": [
        {
          "internalType": "bytes32",
          "name": "polyhash",
          "type": "bytes32"
        }
      ],
      "name": "resolver",
      "outputs": [
        {
          "internalType": "address",
          "name": "",
          "type": "address"
        }
      ],
      "stateMutability": "view",
      "type": "function"
    },
    {
      "inputs": [],
      "name": "roothash",
      "outputs": [
        {
          "internalType": "bytes32",
          "name": "",
          "type": "bytes32"
        }
      ],
      "stateMutability": "view",
      "type": "function"
    },
    {
      "inputs": [
        {
          "internalType": "bytes32",
          "name": "polyhash",
          "type": "bytes32"
        },
        {
          "internalType": "bytes32",
          "name": "_alias",
          "type": "bytes32"
        }
      ],
      "name": "setAlias",
      "outputs": [],
      "stateMutability": "nonpayable",
      "type": "function"
    },
    {
      "inputs": [
        {
          "internalType": "bytes32",
          "name": "polyhash",
          "type": "bytes32"
        },
        {
          "internalType": "bytes32[]",
          "name": "_anion",
          "type": "bytes32[]"
        },
        {
          "internalType": "address[]",
          "name": "_config",
          "type": "address[]"
        },
        {
          "internalType": "uint8[]",
          "name": "_rules",
          "type": "uint8[]"
        }
      ],
      "name": "setAnions",
      "outputs": [],
      "stateMutability": "nonpayable",
      "type": "function"
    },
    {
      "inputs": [
        {
          "internalType": "address",
          "name": "operator",
          "type": "address"
        },
        {
          "internalType": "bool",
          "name": "approved",
          "type": "bool"
        }
      ],
      "name": "setApprovalForAll",
      "outputs": [],
      "stateMutability": "nonpayable",
      "type": "function"
    },
    {
      "inputs": [
        {
          "internalType": "bytes32",
          "name": "polyhash",
          "type": "bytes32"
        },
        {
          "internalType": "bytes32",
          "name": "_cation",
          "type": "bytes32"
        }
      ],
      "name": "setCation",
      "outputs": [],
      "stateMutability": "nonpayable",
      "type": "function"
    },
    {
      "inputs": [
        {
          "internalType": "bytes32",
          "name": "polyhash",
          "type": "bytes32"
        },
        {
          "internalType": "address",
          "name": "_controller",
          "type": "address"
        }
      ],
      "name": "setController",
      "outputs": [],
      "stateMutability": "nonpayable",
      "type": "function"
    },
    {
      "inputs": [
        {
          "internalType": "bytes32",
          "name": "polyhash",
          "type": "bytes32"
        },
        {
          "internalType": "bool",
          "name": "_covalence",
          "type": "bool"
        }
      ],
      "name": "setCovalence",
      "outputs": [],
      "stateMutability": "nonpayable",
      "type": "function"
    },
    {
      "inputs": [
        {
          "internalType": "bytes32",
          "name": "molyhash",
          "type": "bytes32"
        },
        {
          "internalType": "uint256",
          "name": "_expiry",
          "type": "uint256"
        }
      ],
      "name": "setExpiry",
      "outputs": [],
      "stateMutability": "nonpayable",
      "type": "function"
    },
    {
      "inputs": [
        {
          "internalType": "bytes32",
          "name": "polyhash",
          "type": "bytes32"
        },
        {
          "internalType": "address",
          "name": "_resolver",
          "type": "address"
        }
      ],
      "name": "setRecord",
      "outputs": [],
      "stateMutability": "nonpayable",
      "type": "function"
    },
    {
      "inputs": [
        {
          "internalType": "bytes32",
          "name": "polyhash",
          "type": "bytes32"
        },
        {
          "internalType": "address",
          "name": "_resolver",
          "type": "address"
        }
      ],
      "name": "setResolver",
      "outputs": [],
      "stateMutability": "nonpayable",
      "type": "function"
    },
    {
      "inputs": [],
      "name": "theEnd",
      "outputs": [
        {
          "internalType": "uint256",
          "name": "",
          "type": "uint256"
        }
      ],
      "stateMutability": "view",
      "type": "function"
    },
    {
      "inputs": [
        {
          "internalType": "bytes32",
          "name": "polyhash",
          "type": "bytes32"
        },
        {
          "internalType": "address",
          "name": "config",
          "type": "address"
        }
      ],
      "name": "unhook",
      "outputs": [],
      "stateMutability": "nonpayable",
      "type": "function"
    },
    {
      "inputs": [
        {
          "internalType": "bytes32",
          "name": "polyhash",
          "type": "bytes32"
        },
        {
          "internalType": "bytes32",
          "name": "__anion",
          "type": "bytes32"
        }
      ],
      "name": "unhook",
      "outputs": [],
      "stateMutability": "nonpayable",
      "type": "function"
    },
    {
      "inputs": [
        {
          "internalType": "bytes32",
          "name": "polyhash",
          "type": "bytes32"
        },
        {
          "internalType": "uint256",
          "name": "init",
          "type": "uint256"
        }
      ],
      "name": "unhookAll",
      "outputs": [],
      "stateMutability": "nonpayable",
      "type": "function"
    },
    {
      "inputs": [],
      "name": "withdrawEther",
      "outputs": [],
      "stateMutability": "nonpayable",
      "type": "function"
    }
  ],
  "bytecode": {
    "object": "0x60806040526002805460ff60a01b1916600160a01b1790556703782dace9d900006006553480156200003057600080fd5b5060405162005ba238038062005ba283398101604081905262000053916200075c565b60028054336001600160a01b0319918216179091556000805482166001600160a01b03848116918217909255600180549093169185169190911790915560408051633215476b60e11b8152905163642a8ed6916004808201926080929091908290030181865afa158015620000cc573d6000803e3d6000fd5b505050506040513d601f19601f82011682018060405250810190620000f29190620007cb565b606001516003556000546040805163bd9a548b60e01b815290516001600160a01b039092169163bd9a548b916004808201926080929091908290030181865afa15801562000144573d6000803e3d6000fd5b505050506040513d601f19601f820116820180604052508101906200016a9190620007cb565b606001516004556200017b62000183565b505062000870565b7fb4b4801cca1cad359bff6b5ea99d95160f00cbe1164fb7231c42c3e8b5f2593b805460ff19169055604080516020818101909252600080825280526007909152620001f3907f6d5257204ebe7d88fd91ae87941cb2dd9d8062b64ae5a2bd2d28ec40b9fbf6df90600162000680565b5060007f6d5257204ebe7d88fd91ae87941cb2dd9d8062b64ae5a2bd2d28ec40b9fbf6e1819055604080516020818101909252828152918052600790526200025f907f6d5257204ebe7d88fd91ae87941cb2dd9d8062b64ae5a2bd2d28ec40b9fbf6e2906001620006ea565b50600080805260076020527f6d5257204ebe7d88fd91ae87941cb2dd9d8062b64ae5a2bd2d28ec40b9fbf6e38190557f6d5257204ebe7d88fd91ae87941cb2dd9d8062b64ae5a2bd2d28ec40b9fbf6e580546006547f6d5257204ebe7d88fd91ae87941cb2dd9d8062b64ae5a2bd2d28ec40b9fbf6e6556001600160a81b03191633908117600160a01b179091557f6d5257204ebe7d88fd91ae87941cb2dd9d8062b64ae5a2bd2d28ec40b9fbf6e480546001600160a01b0319169091179055805460408051633215476b60e11b815290516001600160a01b03929092169163642a8ed6916004818101926080929091908290030181865afa1580156200036a573d6000803e3d6000fd5b505050506040513d601f19601f82011682018060405250810190620003909190620007cb565b905060005b60048110156200067c57600060076000848460048110620003ba57620003ba62000832565b60209081029190910151825281810192909252604090810160009081208180526001018352818120805460ff191660ff9590951694909417909355805191820190528181529060079084846004811062000418576200041862000832565b602002015181526020019081526020016000206000019060016200043e92919062000680565b5081816004811062000454576200045462000832565b60200201516007600084846004811062000472576200047262000832565b60200201518152602001908152602001600020600201819055506040518060200160405280838360048110620004ac57620004ac62000832565b6020020151905260076000848460048110620004cc57620004cc62000832565b60200201518152602001908152602001600020600301906001620004f2929190620006ea565b5081816004811062000508576200050862000832565b60200201516007600084846004811062000526576200052662000832565b60200201518152602001908152602001600020600401819055506001600760008484600481106200055b576200055b62000832565b6020020151815260200190815260200160002060060160146101000a81548160ff02191690831515021790555060065460076000848460048110620005a457620005a462000832565b60200201518152602001908152602001600020600701819055503360076000848460048110620005d857620005d862000832565b6020020151815260200190815260200160002060060160006101000a8154816001600160a01b0302191690836001600160a01b0316021790555033600760008484600481106200062c576200062c62000832565b6020020151815260200190815260200160002060050160006101000a8154816001600160a01b0302191690836001600160a01b031602179055508080620006739062000848565b91505062000395565b5050565b828054828255906000526020600020908101928215620006d8579160200282015b82811115620006d857825182546001600160a01b0319166001600160a01b03909116178255602090920191600190910190620006a1565b50620006e692915062000728565b5090565b828054828255906000526020600020908101928215620006d8579160200282015b82811115620006d85782518255916020019190600101906200070b565b5b80821115620006e6576000815560010162000729565b80516001600160a01b03811681146200075757600080fd5b919050565b600080604083850312156200077057600080fd5b6200077b836200073f565b91506200078b602084016200073f565b90509250929050565b604051608081016001600160401b0381118282101715620007c557634e487b7160e01b600052604160045260246000fd5b60405290565b600060808284031215620007de57600080fd5b82601f830112620007ee57600080fd5b620007f862000794565b8060808401858111156200080b57600080fd5b845b81811015620008275780518452602093840193016200080d565b509095945050505050565b634e487b7160e01b600052603260045260246000fd5b6000600182016200086957634e487b7160e01b600052601160045260246000fd5b5060010190565b61532280620008806000396000f3fe6080604052600436106102dc5760003560e01c806375c4f68e11610184578063c7876ea4116100d6578063dbd4e0211161008a578063f61ccd5311610064578063f61ccd53146108bb578063f79fe538146108db578063f8c912441461090e57600080fd5b8063dbd4e02114610868578063e73f806014610888578063f544d82f146108a857600080fd5b8063d2ec5fca116100bb578063d2ec5fca146107f7578063d315690514610828578063d9b76ed41461084857600080fd5b8063c7876ea4146107c1578063d07699aa146107d757600080fd5b8063a22cb46511610138578063b782426e11610112578063b782426e14610761578063b9f37c8614610781578063c5bc4c0b146107a157600080fd5b8063a22cb46514610701578063b069862814610721578063b2dd2e551461074157600080fd5b806388a8c95c1161016957806388a8c95c146106a15780638dcad139146106c15780639e162dfa146106e157600080fd5b806375c4f68e146105cc5780638146970a1461068157600080fd5b80631f10ea071161023d5780632f926732116101f1578063516aeda0116101cb578063516aeda0146105775780635b55b376146105975780637362377b146105b757600080fd5b80632f92673214610517578063340268591461053757806339de64691461055757600080fd5b8063241270d511610222578063241270d5146104c1578063250548b9146104e1578063251c94221461050157600080fd5b80631f10ea071461047d57806322b68deb1461049d57600080fd5b806305e84aa0116102945780630e68b116116102795780630e68b116146104105780631896f70a1461043d5780631f06e91c1461045d57600080fd5b806305e84aa0146103c25780630aac6625146103e257600080fd5b806301e51ae8116102c557806301e51ae81461034057806302fb0c5e14610360578063049a491c146103a257600080fd5b8063015399e6146102e15780630178b8bf14610303575b600080fd5b3480156102ed57600080fd5b506103016102fc366004614a76565b61092e565b005b34801561030f57600080fd5b5061032361031e366004614ab6565b610b86565b6040516001600160a01b0390911681526020015b60405180910390f35b34801561034c57600080fd5b50600254610323906001600160a01b031681565b34801561036c57600080fd5b506002546103929074010000000000000000000000000000000000000000900460ff1681565b6040519015158152602001610337565b3480156103ae57600080fd5b506103926103bd366004614acf565b610bff565b3480156103ce57600080fd5b50600154610323906001600160a01b031681565b3480156103ee57600080fd5b506104026103fd366004614ab6565b610cb1565b604051610337929190614aff565b34801561041c57600080fd5b5061043061042b366004614ab6565b610e61565b6040516103379190614b86565b34801561044957600080fd5b50610301610458366004614acf565b610f23565b34801561046957600080fd5b50610301610478366004614bca565b61118c565b34801561048957600080fd5b50610392610498366004614d5d565b6112d2565b3480156104a957600080fd5b506104b360065481565b604051908152602001610337565b3480156104cd57600080fd5b506103016104dc366004614acf565b6112ed565b3480156104ed57600080fd5b506103016104fc366004614dc1565b611714565b34801561050d57600080fd5b506104b360035481565b34801561052357600080fd5b50610301610532366004614bca565b611bcb565b34801561054357600080fd5b50610392610552366004614ab6565b611e03565b34801561056357600080fd5b50610301610572366004614bca565b611e8a565b34801561058357600080fd5b50610301610592366004614bca565b612025565b3480156105a357600080fd5b506103016105b2366004614eae565b6124b2565b3480156105c357600080fd5b506103016129a6565b3480156105d857600080fd5b506106456105e7366004614ab6565b600760208190526000918252604090912060028101546004820154600583015460068401549390940154919390926001600160a01b0391821692918116917401000000000000000000000000000000000000000090910460ff169086565b6040805196875260208701959095526001600160a01b0393841694860194909452911660608401521515608083015260a082015260c001610337565b34801561068d57600080fd5b5061030161069c366004614bca565b612a4c565b3480156106ad57600080fd5b506103016106bc366004614ee3565b612cb6565b3480156106cd57600080fd5b506103016106dc366004614bca565b612d86565b3480156106ed57600080fd5b506103016106fc366004614f07565b613222565b34801561070d57600080fd5b5061030161071c366004614f5d565b6134e4565b34801561072d57600080fd5b5061039261073c366004614acf565b613550565b34801561074d57600080fd5b5061030161075c366004614bca565b6135f4565b34801561076d57600080fd5b50600054610323906001600160a01b031681565b34801561078d57600080fd5b50600554610323906001600160a01b031681565b3480156107ad57600080fd5b506104b36107bc366004614ab6565b6139cf565b3480156107cd57600080fd5b506104b360045481565b3480156107e357600080fd5b506103016107f2366004614f8b565b613a3b565b34801561080357600080fd5b506104b3610812366004614ab6565b6000908152600760208190526040909120015490565b34801561083457600080fd5b50610301610843366004614acf565b613cb6565b34801561085457600080fd5b50610301610863366004614acf565b613f14565b34801561087457600080fd5b50610323610883366004614ab6565b614172565b34801561089457600080fd5b506103016108a3366004614fb0565b6141e7565b6103016108b6366004614bca565b61456c565b3480156108c757600080fd5b506104b36108d6366004614ab6565b6148ba565b3480156108e757600080fd5b506103926108f6366004614ab6565b60009081526007602081905260409091200154421090565b34801561091a57600080fd5b50610392610929366004614bca565b6149b5565b60008381526007602081905260409091200154839042106109895760405162461bcd60e51b815260206004820152601060248201526f1413d31650d5531157d156141254915160821b60448201526064015b60405180910390fd5b6000818152600760205260408082206002015460015491516302571be360e01b8152600481018290529092916001600160a01b0316906302571be390602401602060405180830381865afa1580156109e5573d6000803e3d6000fd5b505050506040513d601f19601f82011682018060405250810190610a099190614ff8565b90506001600160a01b038116331480610a4557506001600160a01b038116600090815260086020908152604080832033845290915290205460ff165b610a915760405162461bcd60e51b815260206004820152600960248201527f4e4f545f4f574e455200000000000000000000000000000000000000000000006044820152606401610980565b60008681526007602090815260408083206001600160a01b038816845260010190915290205460ff808716911603610b0b5760405162461bcd60e51b815260206004820152600b60248201527f52554c455f4558495354530000000000000000000000000000000000000000006044820152606401610980565b60008681526007602090815260408083206001600160a01b0388168085526001909101835292819020805460ff191660ff8a1690811790915581519384529183019190915287917f1abc00531586337cfd45709506ca0d48a44e1eb54325e589ec054ce83373e07a91015b60405180910390a2505050505050565b60008181526007602081905260408220015482904210610bdb5760405162461bcd60e51b815260206004820152601060248201526f1413d31650d5531157d156141254915160821b6044820152606401610980565b6000838152600760205260409020600501546001600160a01b031691505b50919050565b60008281526007602052604080822090517f2306f46600000000000000000000000000000000000000000000000000000000815273__$47e4ffaaf323c41735ff299f8946896ce0$__91632306f46691610c66916001600160a01b03871691600401615015565b602060405180830381865af4158015610c83573d6000803e3d6000fd5b505050506040513d601f19601f82011682018060405250810190610ca79190615075565b1590505b92915050565b6060808260076000828152602001908152602001600020600701544210610d0d5760405162461bcd60e51b815260206004820152601060248201526f1413d31650d5531157d156141254915160821b6044820152606401610980565b60008481526007602090815260409182902080548351818402810184019094528084529091830182828015610d6b57602002820191906000526020600020905b81546001600160a01b03168152600190910190602001808311610d4d575b50505050509250825167ffffffffffffffff811115610d8c57610d8c614bec565b604051908082528060200260200182016040528015610db5578160200160208202803683370190505b50915060005b8351811015610e5a57600760008681526020019081526020016000206001016000858381518110610dee57610dee615092565b60200260200101516001600160a01b03166001600160a01b0316815260200190815260200160002060009054906101000a900460ff16838281518110610e3657610e36615092565b60ff9092166020928302919091019091015280610e52816150f0565b915050610dbb565b5050915091565b60608160076000828152602001908152602001600020600701544210610ebc5760405162461bcd60e51b815260206004820152601060248201526f1413d31650d5531157d156141254915160821b6044820152606401610980565b600083815260076020908152604080832060030180548251818502810185019093528083529192909190830182828015610f1557602002820191906000526020600020905b815481526020019060010190808311610f01575b509398975050505050505050565b600054604080517f4d3f7334000000000000000000000000000000000000000000000000000000008152905184926001600160a01b031691634d3f73349160048083019260809291908290030181865afa158015610f85573d6000803e3d6000fd5b505050506040513d601f19601f82011682018060405250810190610fa99190615128565b60600151600580546001600160a01b0392831673ffffffffffffffffffffffffffffffffffffffff199091161790556000828152600760205260408082206002015460015491516302571be360e01b815260048101829052909391909116906302571be390602401602060405180830381865afa15801561102e573d6000803e3d6000fd5b505050506040513d601f19601f820116820180604052508101906110529190614ff8565b6005549091506001600160a01b031633148061107657506001600160a01b03811633145b806110a457506001600160a01b038116600090815260086020908152604080832033845290915290205460ff165b806110c857506000838152600760205260409020600601546001600160a01b031633145b6111145760405162461bcd60e51b815260206004820152600e60248201527f4e4f545f415554484f52495345440000000000000000000000000000000000006044820152606401610980565b600085815260076020908152604091829020600501805473ffffffffffffffffffffffffffffffffffffffff19166001600160a01b038816908117909155915191825286917f335721b01866dc23fbee8b6b2c7b1e14d6f05c28cd35a2c934239f94095602a091015b60405180910390a25050505050565b60008054906101000a90046001600160a01b03166001600160a01b0316634d3f73346040518163ffffffff1660e01b8152600401608060405180830381865afa1580156111dd573d6000803e3d6000fd5b505050506040513d601f19601f820116820180604052508101906112019190615128565b606001516005805473ffffffffffffffffffffffffffffffffffffffff19166001600160a01b039092169182179055331461127e5760405162461bcd60e51b815260206004820152600d60248201527f4e4f545f524547495354524152000000000000000000000000000000000000006044820152606401610980565b600082815260076020526040908190206004018290555182907f4247841fd58468a6fb10925898bdd83c426da7b5519ee71597106dfdc6751229906112c69084815260200190565b60405180910390a25050565b600081518351036112e557506001610cab565b506000610cab565b60008281526007602081905260409091200154829042106113435760405162461bcd60e51b815260206004820152601060248201526f1413d31650d5531157d156141254915160821b6044820152606401610980565b6000818152600760205260408082206002015460015491516302571be360e01b8152600481018290529092916001600160a01b0316906302571be390602401602060405180830381865afa15801561139f573d6000803e3d6000fd5b505050506040513d601f19601f820116820180604052508101906113c39190614ff8565b90506001600160a01b0381163314806113ff57506001600160a01b038116600090815260086020908152604080832033845290915290205460ff165b61144b5760405162461bcd60e51b815260206004820152600960248201527f4e4f545f4f574e455200000000000000000000000000000000000000000000006044820152606401610980565b6000858152600760209081526040808320805482518185028101850190935280835291929091908301828280156114ab57602002820191906000526020600020905b81546001600160a01b0316815260019091019060200180831161148d575b50506040517f2306f46600000000000000000000000000000000000000000000000000000000815293945073__$47e4ffaaf323c41735ff299f8946896ce0$__93632306f466935061150e92506001600160a01b038a16915085906004016151af565b602060405180830381865af415801561152b573d6000803e3d6000fd5b505050506040513d601f19601f8201168201806040525081019061154f9190615075565b156116da576040517fcd23ef4c00000000000000000000000000000000000000000000000000000000815260009073__$47e4ffaaf323c41735ff299f8946896ce0$__9063cd23ef4c906115b2906001600160a01b038a169086906004016151af565b602060405180830381865af41580156115cf573d6000803e3d6000fd5b505050506040513d601f19601f820116820180604052508101906115f391906151fc565b90508061162c576040517fe8dd1d3e00000000000000000000000000000000000000000000000000000000815260040160405180910390fd5b60008781526007602090815260408083206001600160a01b038a168085526001909101835292819020805460ff191690555191825288917ff80d6be10f45d9294a75f05d07efcf9391c6eafe6844c8b639d21e9ff49024d4910160405180910390a260008781526007602052604090208054829081106116ae576116ae615092565b6000918252602090912001805473ffffffffffffffffffffffffffffffffffffffff191690555061170c565b6040517fe8dd1d3e00000000000000000000000000000000000000000000000000000000815260040160405180910390fd5b505050505050565b600054604080517f4d3f7334000000000000000000000000000000000000000000000000000000008152905186926001600160a01b031691634d3f73349160048083019260809291908290030181865afa158015611776573d6000803e3d6000fd5b505050506040513d601f19601f8201168201806040525081019061179a9190615128565b60600151600580546001600160a01b0392831673ffffffffffffffffffffffffffffffffffffffff199091161790556000828152600760205260408082206002015460015491516302571be360e01b815260048101829052909391909116906302571be390602401602060405180830381865afa15801561181f573d6000803e3d6000fd5b505050506040513d601f19601f820116820180604052508101906118439190614ff8565b6005549091506001600160a01b031633148061186757506001600160a01b03811633145b8061189557506001600160a01b038116600090815260086020908152604080832033845290915290205460ff165b806118b957506000838152600760205260409020600601546001600160a01b031633145b6119055760405162461bcd60e51b815260206004820152600e60248201527f4e4f545f415554484f52495345440000000000000000000000000000000000006044820152606401610980565b61190f86866112d2565b61195b5760405162461bcd60e51b815260206004820152600760248201527f4241445f4d4150000000000000000000000000000000000000000000000000006044820152606401610980565b60005b8651811015611b895786818151811061197957611979615092565b602002602001015173__$47e4ffaaf323c41735ff299f8946896ce0$__636fd8c6859091600760008c81526020019081526020016000206003016040518363ffffffff1660e01b81526004016119d0929190615215565b602060405180830381865af41580156119ed573d6000803e3d6000fd5b505050506040513d601f19601f82011682018060405250810190611a119190615075565b611b775760076000898152602001908152602001600020600301878281518110611a3d57611a3d615092565b60209081029190910181015182546001810184556000938452828420015589825260079052604090208651879083908110611a7a57611a7a615092565b602090810291909101810151825460018101845560009384529190922001805473ffffffffffffffffffffffffffffffffffffffff19166001600160a01b039092169190911790558451859082908110611ad657611ad6615092565b6020026020010151600760008a81526020019081526020016000206001016000888481518110611b0857611b08615092565b6020908102919091018101516001600160a01b031682528181019290925260409081016000908120805460ff191660ff95909516949094179093558a83526007909152902060060180547fffffffffffffffffffffff00ffffffffffffffffffffffffffffffffffffffff1690555b80611b81816150f0565b91505061195e565b50867f580d99949e5d5a02f35dc5b91b800697d53dccb814e200f24f97b4bfbeb8667c87604051611bba9190614b86565b60405180910390a250505050505050565b60008054906101000a90046001600160a01b03166001600160a01b0316634d3f73346040518163ffffffff1660e01b8152600401608060405180830381865afa158015611c1c573d6000803e3d6000fd5b505050506040513d601f19601f82011682018060405250810190611c409190615128565b606001516005805473ffffffffffffffffffffffffffffffffffffffff19166001600160a01b0390921691821790553314611cbd5760405162461bcd60e51b815260206004820152600d60248201527f4e4f545f524547495354524152000000000000000000000000000000000000006044820152606401610980565b6001546040516302571be360e01b8152600481018390526000916001600160a01b0316906302571be390602401602060405180830381865afa158015611d07573d6000803e3d6000fd5b505050506040513d601f19601f82011682018060405250810190611d2b9190614ff8565b6001600160a01b031603611d815760405162461bcd60e51b815260206004820152600b60248201527f43414e4e4f545f4255524e0000000000000000000000000000000000000000006044820152606401610980565b600082815260076020526040908190206002018290555182907f4810581adf2c16a86a375dbb1ed89b0b0f7e64d48d24e1948b3dfe6581e4d79590611dc99084815260200190565b60405180910390a2817facb5de0f65735f798ae8baf163fb3380a7813aca2c739ba9e39179007206585a826040516112c691815260200190565b60008181526007602081905260408220015482904210611e585760405162461bcd60e51b815260206004820152601060248201526f1413d31650d5531157d156141254915160821b6044820152606401610980565b505060009081526007602052604090206006015474010000000000000000000000000000000000000000900460ff1690565b60008054906101000a90046001600160a01b03166001600160a01b0316634d3f73346040518163ffffffff1660e01b8152600401608060405180830381865afa158015611edb573d6000803e3d6000fd5b505050506040513d601f19601f82011682018060405250810190611eff9190615128565b606001516005805473ffffffffffffffffffffffffffffffffffffffff19166001600160a01b0390921691821790553314611f7c5760405162461bcd60e51b815260206004820152600d60248201527f4e4f545f524547495354524152000000000000000000000000000000000000006044820152606401610980565b600082815260076020819052604090912001548111611fdd5760405162461bcd60e51b815260206004820152600a60248201527f4241445f455850495259000000000000000000000000000000000000000000006044820152606401610980565b600082815260076020819052604091829020018290555182907fa620b72378ee464490805a96e25b53e5c0076f0ce2d28f9691ae255a595b3bf3906112c69084815260200190565b600082815260076020819052604090912001548290421061207b5760405162461bcd60e51b815260206004820152601060248201526f1413d31650d5531157d156141254915160821b6044820152606401610980565b6000818152600760205260408082206002015460015491516302571be360e01b8152600481018290529092916001600160a01b0316906302571be390602401602060405180830381865afa1580156120d7573d6000803e3d6000fd5b505050506040513d601f19601f820116820180604052508101906120fb9190614ff8565b90506001600160a01b03811633148061213757506001600160a01b038116600090815260086020908152604080832033845290915290205460ff165b6121835760405162461bcd60e51b815260206004820152600960248201527f4e4f545f4f574e455200000000000000000000000000000000000000000000006044820152606401610980565b6000858152600760209081526040808320805482518185028101850190935280835291929091908301828280156121e357602002820191906000526020600020905b81546001600160a01b031681526001909101906020018083116121c5575b5050505050905060006007600088815260200190815260200160002060030180548060200260200160405190810160405280929190818152602001828054801561224c57602002820191906000526020600020905b815481526020019060010190808311612238575b50506040517f6fd8c68500000000000000000000000000000000000000000000000000000000815293945073__$47e4ffaaf323c41735ff299f8946896ce0$__93636fd8c68593506122a692508a9150859060040161525b565b602060405180830381865af41580156122c3573d6000803e3d6000fd5b505050506040513d601f19601f820116820180604052508101906122e79190615075565b15612476576040517fda92b9ed00000000000000000000000000000000000000000000000000000000815260009073__$47e4ffaaf323c41735ff299f8946896ce0$__9063da92b9ed90612341908a90869060040161525b565b602060405180830381865af415801561235e573d6000803e3d6000fd5b505050506040513d601f19601f8201168201806040525081019061238291906151fc565b90506000600760008a815260200190815260200160002060010160008584815181106123b0576123b0615092565b60200260200101516001600160a01b03166001600160a01b0316815260200190815260200160002060006101000a81548160ff021916908360ff160217905550877ff13ce89e57ea348ff8e29c4131c87b4d1b50ecf4edb1c68288b5e0cd3985b3f98860405161242291815260200190565b60405180910390a2600088815260076020526040902080548290811061244a5761244a615092565b6000918252602090912001805473ffffffffffffffffffffffffffffffffffffffff19169055506124a9565b6040516000815287907ff13ce89e57ea348ff8e29c4131c87b4d1b50ecf4edb1c68288b5e0cd3985b3f990602001611bba565b50505050505050565b60008381526007602081905260409091200154839042106125085760405162461bcd60e51b815260206004820152601060248201526f1413d31650d5531157d156141254915160821b6044820152606401610980565b6000818152600760205260408082206002015460015491516302571be360e01b8152600481018290529092916001600160a01b0316906302571be390602401602060405180830381865afa158015612564573d6000803e3d6000fd5b505050506040513d601f19601f820116820180604052508101906125889190614ff8565b90506001600160a01b0381163314806125c457506001600160a01b038116600090815260086020908152604080832033845290915290205460ff165b6126105760405162461bcd60e51b815260206004820152600960248201527f4e4f545f4f574e455200000000000000000000000000000000000000000000006044820152606401610980565b60008681526007602090815260408083208054825181850281018501909352808352919290919083018282801561267057602002820191906000526020600020905b81546001600160a01b03168152600190910190602001808311612652575b505050505090506000600760008981526020019081526020016000206003018054806020026020016040519081016040528092919081815260200182805480156126d957602002820191906000526020600020905b8154815260200190600101908083116126c5575b50506040517f6fd8c68500000000000000000000000000000000000000000000000000000000815293945073__$47e4ffaaf323c41735ff299f8946896ce0$__93636fd8c685935061273392508a9150859060040161525b565b602060405180830381865af4158015612750573d6000803e3d6000fd5b505050506040513d601f19601f820116820180604052508101906127749190615075565b1561296a576040517fda92b9ed00000000000000000000000000000000000000000000000000000000815260009073__$47e4ffaaf323c41735ff299f8946896ce0$__9063da92b9ed906127ce908a90869060040161525b565b602060405180830381865af41580156127eb573d6000803e3d6000fd5b505050506040513d601f19601f8201168201806040525081019061280f91906151fc565b90508760ff16600760008b8152602001908152602001600020600101600085848151811061283f5761283f615092565b6020908102919091018101516001600160a01b031682528101919091526040016000205460ff16036128b35760405162461bcd60e51b815260206004820152600b60248201527f52554c455f4558495354530000000000000000000000000000000000000000006044820152606401610980565b87600760008b815260200190815260200160002060010160008584815181106128de576128de615092565b60200260200101516001600160a01b03166001600160a01b0316815260200190815260200160002060006101000a81548160ff021916908360ff160217905550887f12bf96b3da46c044c59d8b13a96d1a5f53adf413cbe17f743ac2ed2c285257de888a60405161295c92919091825260ff16602082015260400190565b60405180910390a25061299c565b6040517f62316f6700000000000000000000000000000000000000000000000000000000815260040160405180910390fd5b5050505050505050565b6002546040516000916001600160a01b03169047908381818185875af1925050503d80600081146129f3576040519150601f19603f3d011682016040523d82523d6000602084013e6129f8565b606091505b5050905080612a495760405162461bcd60e51b815260206004820152601360248201527f4554485f5452414e534645525f4641494c4544000000000000000000000000006044820152606401610980565b50565b6000828152600760208190526040909120015482904210612aa25760405162461bcd60e51b815260206004820152601060248201526f1413d31650d5531157d156141254915160821b6044820152606401610980565b6000818152600760205260408082206002015460015491516302571be360e01b8152600481018290529092916001600160a01b0316906302571be390602401602060405180830381865afa158015612afe573d6000803e3d6000fd5b505050506040513d601f19601f82011682018060405250810190612b229190614ff8565b90506001600160a01b038116331480612b5e57506001600160a01b038116600090815260086020908152604080832033845290915290205460ff165b612baa5760405162461bcd60e51b815260206004820152600960248201527f4e4f545f4f574e455200000000000000000000000000000000000000000000006044820152606401610980565b6001546040516302571be360e01b8152600481018690526000916001600160a01b0316906302571be390602401602060405180830381865afa158015612bf4573d6000803e3d6000fd5b505050506040513d601f19601f82011682018060405250810190612c189190614ff8565b6001600160a01b031603612c6e5760405162461bcd60e51b815260206004820152600b60248201527f43414e4e4f545f4255524e0000000000000000000000000000000000000000006044820152606401610980565b600085815260076020526040908190206002018590555185907f4810581adf2c16a86a375dbb1ed89b0b0f7e64d48d24e1948b3dfe6581e4d7959061117d9087815260200190565b6002546001600160a01b03163314612d105760405162461bcd60e51b815260206004820152600760248201527f4e4f545f444556000000000000000000000000000000000000000000000000006044820152606401610980565b600254604080516001600160a01b03928316815291831660208301527fdec101f106d4fc7c85791843e64b198248c822298e3ed7046231d33f7783d816910160405180910390a16002805473ffffffffffffffffffffffffffffffffffffffff19166001600160a01b0392909216919091179055565b6000828152600760208190526040909120015482904210612ddc5760405162461bcd60e51b815260206004820152601060248201526f1413d31650d5531157d156141254915160821b6044820152606401610980565b6000818152600760205260408082206002015460015491516302571be360e01b8152600481018290529092916001600160a01b0316906302571be390602401602060405180830381865afa158015612e38573d6000803e3d6000fd5b505050506040513d601f19601f82011682018060405250810190612e5c9190614ff8565b90506001600160a01b038116331480612e9857506001600160a01b038116600090815260086020908152604080832033845290915290205460ff165b80612ebc57506000838152600760205260409020600601546001600160a01b031633145b612f085760405162461bcd60e51b815260206004820152601760248201527f4e4f545f4f574e45525f4f525f434f4e54524f4c4c45520000000000000000006044820152606401610980565b600085815260076020908152604080832060030180548251818502810185019093528083529192909190830182828015612f6157602002820191906000526020600020905b815481526020019060010190808311612f4d575b505050600089815260076020908152604080832080548251818502810185019093528083529697509295909450919250830182828015612fca57602002820191906000526020600020905b81546001600160a01b03168152600190910190602001808311612fac575b50506040517f6fd8c68500000000000000000000000000000000000000000000000000000000815293945073__$47e4ffaaf323c41735ff299f8946896ce0$__93636fd8c685935061302492508a9150869060040161525b565b602060405180830381865af4158015613041573d6000803e3d6000fd5b505050506040513d601f19601f820116820180604052508101906130659190615075565b1561296a576040517fda92b9ed00000000000000000000000000000000000000000000000000000000815260009073__$47e4ffaaf323c41735ff299f8946896ce0$__9063da92b9ed906130bf908a90879060040161525b565b602060405180830381865af41580156130dc573d6000803e3d6000fd5b505050506040513d601f19601f8201168201806040525081019061310091906151fc565b90506000600760008a8152602001908152602001600020600101600084848151811061312e5761312e615092565b60200260200101516001600160a01b03166001600160a01b0316815260200190815260200160002060006101000a81548160ff021916908360ff16021790555060076000898152602001908152602001600020600301818154811061319557613195615092565b6000918252602080832090910182905589825260079052604090208054829081106131c2576131c2615092565b600091825260209182902001805473ffffffffffffffffffffffffffffffffffffffff1916905560405188815289917f5c379d054844760656a56e062f50208b458cfa0c4427574f5a2828d19602b4e9910160405180910390a2506124a9565b60008381526007602081905260409091200154839042106132785760405162461bcd60e51b815260206004820152601060248201526f1413d31650d5531157d156141254915160821b6044820152606401610980565b6000818152600760205260408082206002015460015491516302571be360e01b8152600481018290529092916001600160a01b0316906302571be390602401602060405180830381865afa1580156132d4573d6000803e3d6000fd5b505050506040513d601f19601f820116820180604052508101906132f89190614ff8565b90506001600160a01b03811633148061333457506001600160a01b038116600090815260086020908152604080832033845290915290205460ff165b6133805760405162461bcd60e51b815260206004820152600960248201527f4e4f545f4f574e455200000000000000000000000000000000000000000000006044820152606401610980565b61338a8685610bff565b6133d65760405162461bcd60e51b815260206004820152600b60248201527f484f4f4b5f4558495354530000000000000000000000000000000000000000006044820152606401610980565b6133e086886149b5565b61342c5760405162461bcd60e51b815260206004820152600c60248201527f414e494f4e5f45584953545300000000000000000000000000000000000000006044820152606401610980565b6000868152600760208181526040808420805460018082018355828752848720909101805473ffffffffffffffffffffffffffffffffffffffff19166001600160a01b038c169081179091558087528183018552838720805460ff191660ff8e169081179091559585526003909201805491820181558652948390209094018b905580519384529083019190915287917fc733a2bc621cc97eef6ed4f708f126e72e6acb76c0a1c0461c9dd31f7b9870659101611bba565b3360008181526008602090815260408083206001600160a01b03871680855290835292819020805460ff191686151590811790915590519081529192917f17307eab39ab6107e8899845ad3d59bd9653f200f220920489ca2b5937696c31910160405180910390a35050565b6001546040516302571be360e01b81526004810184905260009182916001600160a01b03909116906302571be390602401602060405180830381865afa15801561359e573d6000803e3d6000fd5b505050506040513d601f19601f820116820180604052508101906135c29190614ff8565b6001600160a01b0390811660009081526008602090815260408083209387168352929052205460ff1691505092915050565b600054604080517f4d3f7334000000000000000000000000000000000000000000000000000000008152905184926001600160a01b031691634d3f73349160048083019260809291908290030181865afa158015613656573d6000803e3d6000fd5b505050506040513d601f19601f8201168201806040525081019061367a9190615128565b60600151600580546001600160a01b0392831673ffffffffffffffffffffffffffffffffffffffff199091161790556000828152600760205260408082206002015460015491516302571be360e01b815260048101829052909391909116906302571be390602401602060405180830381865afa1580156136ff573d6000803e3d6000fd5b505050506040513d601f19601f820116820180604052508101906137239190614ff8565b6005549091506001600160a01b031633148061374757506001600160a01b03811633145b8061377557506001600160a01b038116600090815260086020908152604080832033845290915290205460ff165b8061379957506000838152600760205260409020600601546001600160a01b031633145b6137e55760405162461bcd60e51b815260206004820152600e60248201527f4e4f545f415554484f52495345440000000000000000000000000000000000006044820152606401610980565b60008581526007602090815260408083208054825181850281018501909352808352919290919083018282801561384557602002820191906000526020600020905b81546001600160a01b03168152600190910190602001808311613827575b5050505050905060005b815181101561393657600060076000898152602001908152602001600020600101600084848151811061388457613884615092565b60200260200101516001600160a01b03166001600160a01b0316815260200190815260200160002060006101000a81548160ff021916908360ff160217905550867ff80d6be10f45d9294a75f05d07efcf9391c6eafe6844c8b639d21e9ff49024d48383815181106138f8576138f8615092565b602002602001015160405161391c91906001600160a01b0391909116815260200190565b60405180910390a28061392e816150f0565b91505061384f565b50600086815260076020526040812061394e91614a19565b60405186907f6b91085369552b61ca16180a741663b69fb6b3b967f7271116521d84e2291dc590600090a260005b858110156124a957600087815260076020908152604082208054600181018255908352912001805473ffffffffffffffffffffffffffffffffffffffff19169055806139c7816150f0565b91505061397c565b60008181526007602081905260408220015482904210613a245760405162461bcd60e51b815260206004820152601060248201526f1413d31650d5531157d156141254915160821b6044820152606401610980565b505060009081526007602052604090206004015490565b600054604080517f4d3f7334000000000000000000000000000000000000000000000000000000008152905184926001600160a01b031691634d3f73349160048083019260809291908290030181865afa158015613a9d573d6000803e3d6000fd5b505050506040513d601f19601f82011682018060405250810190613ac19190615128565b60600151600580546001600160a01b0392831673ffffffffffffffffffffffffffffffffffffffff199091161790556000828152600760205260408082206002015460015491516302571be360e01b815260048101829052909391909116906302571be390602401602060405180830381865afa158015613b46573d6000803e3d6000fd5b505050506040513d601f19601f82011682018060405250810190613b6a9190614ff8565b6005549091506001600160a01b0316331480613b8e57506001600160a01b03811633145b80613bbc57506001600160a01b038116600090815260086020908152604080832033845290915290205460ff165b80613be057506000838152600760205260409020600601546001600160a01b031633145b613c2c5760405162461bcd60e51b815260206004820152600e60248201527f4e4f545f415554484f52495345440000000000000000000000000000000000006044820152606401610980565b60008581526007602052604090819020600601805486151574010000000000000000000000000000000000000000027fffffffffffffffffffffff00ffffffffffffffffffffffffffffffffffffffff9091161790555185907fe6ccdb52b4954ab2c3e293f1dbfe593e6c5630962a1944bfcf20c5563eeb84629061117d90871515815260200190565b600054604080517f4d3f7334000000000000000000000000000000000000000000000000000000008152905184926001600160a01b031691634d3f73349160048083019260809291908290030181865afa158015613d18573d6000803e3d6000fd5b505050506040513d601f19601f82011682018060405250810190613d3c9190615128565b60600151600580546001600160a01b0392831673ffffffffffffffffffffffffffffffffffffffff199091161790556000828152600760205260408082206002015460015491516302571be360e01b815260048101829052909391909116906302571be390602401602060405180830381865afa158015613dc1573d6000803e3d6000fd5b505050506040513d601f19601f82011682018060405250810190613de59190614ff8565b6005549091506001600160a01b0316331480613e0957506001600160a01b03811633145b80613e3757506001600160a01b038116600090815260086020908152604080832033845290915290205460ff165b80613e5b57506000838152600760205260409020600601546001600160a01b031633145b613ea75760405162461bcd60e51b815260206004820152600e60248201527f4e4f545f415554484f52495345440000000000000000000000000000000000006044820152606401610980565b600085815260076020908152604091829020600601805473ffffffffffffffffffffffffffffffffffffffff19166001600160a01b038816908117909155915191825286917fe5108446a6097aab57fd36f346a515a78fddefa87d81662d44e0d7a463f92095910161117d565b600054604080517f4d3f7334000000000000000000000000000000000000000000000000000000008152905184926001600160a01b031691634d3f73349160048083019260809291908290030181865afa158015613f76573d6000803e3d6000fd5b505050506040513d601f19601f82011682018060405250810190613f9a9190615128565b60600151600580546001600160a01b0392831673ffffffffffffffffffffffffffffffffffffffff199091161790556000828152600760205260408082206002015460015491516302571be360e01b815260048101829052909391909116906302571be390602401602060405180830381865afa15801561401f573d6000803e3d6000fd5b505050506040513d601f19601f820116820180604052508101906140439190614ff8565b6005549091506001600160a01b031633148061406757506001600160a01b03811633145b8061409557506001600160a01b038116600090815260086020908152604080832033845290915290205460ff165b806140b957506000838152600760205260409020600601546001600160a01b031633145b6141055760405162461bcd60e51b815260206004820152600e60248201527f4e4f545f415554484f52495345440000000000000000000000000000000000006044820152606401610980565b600085815260076020908152604091829020600501805473ffffffffffffffffffffffffffffffffffffffff19166001600160a01b038816908117909155915191825286917fcb71326aeaad88869e8be8be2893e1119f7617ce4ea2411af127e218909be1f7910161117d565b600081815260076020819052604082200154829042106141c75760405162461bcd60e51b815260206004820152601060248201526f1413d31650d5531157d156141254915160821b6044820152606401610980565b50506000908152600760205260409020600601546001600160a01b031690565b600084815260076020819052604090912001548490421061423d5760405162461bcd60e51b815260206004820152601060248201526f1413d31650d5531157d156141254915160821b6044820152606401610980565b6000818152600760205260408082206002015460015491516302571be360e01b8152600481018290529092916001600160a01b0316906302571be390602401602060405180830381865afa158015614299573d6000803e3d6000fd5b505050506040513d601f19601f820116820180604052508101906142bd9190614ff8565b90506001600160a01b0381163314806142f957506001600160a01b038116600090815260086020908152604080832033845290915290205460ff165b8061431d57506000838152600760205260409020600601546001600160a01b031633145b6143695760405162461bcd60e51b815260206004820152601760248201527f4e4f545f4f574e45525f4f525f434f4e54524f4c4c45520000000000000000006044820152606401610980565b61437387876149b5565b6143bf5760405162461bcd60e51b815260206004820152600c60248201527f414e494f4e5f45584953545300000000000000000000000000000000000000006044820152606401610980565b6143c98786610bff565b6144155760405162461bcd60e51b815260206004820152600b60248201527f484f4f4b5f4558495354530000000000000000000000000000000000000000006044820152606401610980565b60008781526007602090815260408083206001600160a01b038916845260010190915290205460ff80861691160361448f5760405162461bcd60e51b815260206004820152600b60248201527f52554c455f4558495354530000000000000000000000000000000000000000006044820152606401610980565b600087815260076020908152604080832060038101805460018082018355918652848620018b90558154808201835582865284862001805473ffffffffffffffffffffffffffffffffffffffff19166001600160a01b038c16908117909155909452929092018152905187815288917f600ffddd29393ca43c0a11fa6b0b7096631364178cb42f9d546c0a2cd22525ee910160405180910390a2604080516001600160a01b038716815260ff8616602082015288917fc733a2bc621cc97eef6ed4f708f126e72e6acb76c0a1c0461c9dd31f7b9870659101611bba565b60008281526007602081905260409091200154829042106145c25760405162461bcd60e51b815260206004820152601060248201526f1413d31650d5531157d156141254915160821b6044820152606401610980565b6000818152600760205260408082206002015460015491516302571be360e01b8152600481018290529092916001600160a01b0316906302571be390602401602060405180830381865afa15801561461e573d6000803e3d6000fd5b505050506040513d601f19601f820116820180604052508101906146429190614ff8565b90506001600160a01b03811633148061467e57506001600160a01b038116600090815260086020908152604080832033845290915290205460ff165b806146a257506000838152600760205260409020600601546001600160a01b031633145b6146ee5760405162461bcd60e51b815260206004820152601760248201527f4e4f545f4f574e45525f4f525f434f4e54524f4c4c45520000000000000000006044820152606401610980565b60008581526007602081905260409091200154841161474f5760405162461bcd60e51b815260206004820152600a60248201527f4241445f455850495259000000000000000000000000000000000000000000006044820152606401610980565b60008054906101000a90046001600160a01b03166001600160a01b0316634d3f73346040518163ffffffff1660e01b8152600401608060405180830381865afa1580156147a0573d6000803e3d6000fd5b505050506040513d601f19601f820116820180604052508101906147c49190615128565b6020908101516005805473ffffffffffffffffffffffffffffffffffffffff19166001600160a01b0390921691909117905560008681526007918290526040812090910154614813908661529c565b90506004548161482391906152af565b3410156148725760405162461bcd60e51b815260206004820152601260248201527f494e53554646494349454e545f455448455200000000000000000000000000006044820152606401610980565b600086815260076020819052604091829020018690555186907fa620b72378ee464490805a96e25b53e5c0076f0ce2d28f9691ae255a595b3bf390610b769088815260200190565b6000818152600760208190526040822001548290421061490f5760405162461bcd60e51b815260206004820152601060248201526f1413d31650d5531157d156141254915160821b6044820152606401610980565b6000838152600760205260408082206002015460015491516302571be360e01b8152600481018290529092916001600160a01b0316906302571be390602401602060405180830381865afa15801561496b573d6000803e3d6000fd5b505050506040513d601f19601f8201168201806040525081019061498f9190614ff8565b9050306001600160a01b038216036149ad5760035493505050610bf9565b509392505050565b60008281526007602052604080822090517f6fd8c68500000000000000000000000000000000000000000000000000000000815273__$47e4ffaaf323c41735ff299f8946896ce0$__91636fd8c68591610c66918691600390910190600401615215565b5080546000825590600052602060002090810190612a4991905b80821115614a475760008155600101614a33565b5090565b803560ff81168114614a5c57600080fd5b919050565b6001600160a01b0381168114612a4957600080fd5b600080600060608486031215614a8b57600080fd5b83359250614a9b60208501614a4b565b91506040840135614aab81614a61565b809150509250925092565b600060208284031215614ac857600080fd5b5035919050565b60008060408385031215614ae257600080fd5b823591506020830135614af481614a61565b809150509250929050565b604080825283519082018190526000906020906060840190828701845b82811015614b415781516001600160a01b031684529284019290840190600101614b1c565b5050508381038285015284518082528583019183019060005b81811015614b7957835160ff1683529284019291840191600101614b5a565b5090979650505050505050565b6020808252825182820181905260009190848201906040850190845b81811015614bbe57835183529284019291840191600101614ba2565b50909695505050505050565b60008060408385031215614bdd57600080fd5b50508035926020909101359150565b7f4e487b7100000000000000000000000000000000000000000000000000000000600052604160045260246000fd5b604051601f82017fffffffffffffffffffffffffffffffffffffffffffffffffffffffffffffffe016810167ffffffffffffffff81118282101715614c6257614c62614bec565b604052919050565b600067ffffffffffffffff821115614c8457614c84614bec565b5060051b60200190565b600082601f830112614c9f57600080fd5b81356020614cb4614caf83614c6a565b614c1b565b82815260059290921b84018101918181019086841115614cd357600080fd5b8286015b84811015614cee5780358352918301918301614cd7565b509695505050505050565b600082601f830112614d0a57600080fd5b81356020614d1a614caf83614c6a565b82815260059290921b84018101918181019086841115614d3957600080fd5b8286015b84811015614cee578035614d5081614a61565b8352918301918301614d3d565b60008060408385031215614d7057600080fd5b823567ffffffffffffffff80821115614d8857600080fd5b614d9486838701614c8e565b93506020850135915080821115614daa57600080fd5b50614db785828601614cf9565b9150509250929050565b60008060008060808587031215614dd757600080fd5b8435935060208086013567ffffffffffffffff80821115614df757600080fd5b614e0389838a01614c8e565b95506040880135915080821115614e1957600080fd5b614e2589838a01614cf9565b94506060880135915080821115614e3b57600080fd5b508601601f81018813614e4d57600080fd5b8035614e5b614caf82614c6a565b81815260059190911b8201830190838101908a831115614e7a57600080fd5b928401925b82841015614e9f57614e9084614a4b565b82529284019290840190614e7f565b979a9699509497505050505050565b600080600060608486031215614ec357600080fd5b83359250614ed360208501614a4b565b9150604084013590509250925092565b600060208284031215614ef557600080fd5b8135614f0081614a61565b9392505050565b60008060008060808587031215614f1d57600080fd5b8435935060208501359250614f3460408601614a4b565b91506060850135614f4481614a61565b939692955090935050565b8015158114612a4957600080fd5b60008060408385031215614f7057600080fd5b8235614f7b81614a61565b91506020830135614af481614f4f565b60008060408385031215614f9e57600080fd5b823591506020830135614af481614f4f565b60008060008060808587031215614fc657600080fd5b84359350602085013592506040850135614fdf81614a61565b9150614fed60608601614a4b565b905092959194509250565b60006020828403121561500a57600080fd5b8151614f0081614a61565b6000604082016001600160a01b03808616845260206040818601528286548085526060870191508760005282600020945060005b81811015615067578554851683526001958601959284019201615049565b509098975050505050505050565b60006020828403121561508757600080fd5b8151614f0081614f4f565b7f4e487b7100000000000000000000000000000000000000000000000000000000600052603260045260246000fd5b7f4e487b7100000000000000000000000000000000000000000000000000000000600052601160045260246000fd5b60007fffffffffffffffffffffffffffffffffffffffffffffffffffffffffffffffff8203615121576151216150c1565b5060010190565b60006080828403121561513a57600080fd5b82601f83011261514957600080fd5b6040516080810181811067ffffffffffffffff8211171561516c5761516c614bec565b60405280608084018581111561518157600080fd5b845b818110156151a457805161519681614a61565b835260209283019201615183565b509195945050505050565b6000604082016001600160a01b0380861684526020604081860152828651808552606087019150828801945060005b818110156150675785518516835294830194918301916001016151de565b60006020828403121561520e57600080fd5b5051919050565b60006040820184835260206040818501528185548084526060860191508660005282600020935060005b81811015614b795784548352600194850194928401920161523f565b6000604082018483526020604081850152818551808452606086019150828701935060005b81811015614b7957845183529383019391830191600101615280565b81810381811115610cab57610cab6150c1565b6000817fffffffffffffffffffffffffffffffffffffffffffffffffffffffffffffffff04831182151516156152e7576152e76150c1565b50029056fea264697066735822122063b4b0d82df3cc86cb09b145f007d7f8d95bcf92764bf908dc8f06395640bf6364736f6c63430008100033",
    "linkReferences": {
      "src/Utils/LibString.sol": {
        "LibString": [
          {
            "start": 5301,
            "length": 20
          },
          {
            "start": 7512,
            "length": 20
          },
          {
            "start": 7679,
            "length": 20
          },
          {
            "start": 8707,
            "length": 20
          },
          {
            "start": 11001,
            "length": 20
          },
          {
            "start": 11159,
            "length": 20
          },
          {
            "start": 12166,
            "length": 20
          },
          {
            "start": 12324,
            "length": 20
          },
          {
            "start": 14455,
            "length": 20
          },
          {
            "start": 14613,
            "length": 20
          },
          {
            "start": 21099,
            "length": 20
          }
        ]
      }
    }
  },
  "methodIdentifiers": {
    "Dev()": "01e51ae8",
    "HELIX2()": "b782426e",
    "NAMES()": "05e84aa0",
    "Polycules(bytes32)": "75c4f68e",
    "Registrar()": "b9f37c86",
    "active()": "02fb0c5e",
    "addAnion(bytes32,bytes32,address,uint8)": "e73f8060",
    "alias_(bytes32)": "c5bc4c0b",
    "anion(bytes32)": "0e68b116",
    "basePrice()": "c7876ea4",
    "cation(bytes32)": "f61ccd53",
    "changeDev(address)": "88a8c95c",
    "controller(bytes32)": "dbd4e021",
    "covalence(bytes32)": "34026859",
    "expiry(bytes32)": "d2ec5fca",
    "hook(bytes32,bytes32,uint8,address)": "9e162dfa",
    "hooksWithRules(bytes32)": "0aac6625",
    "isApprovedForAll(bytes32,address)": "b0698628",
    "isLegalMap(bytes32[],address[])": "1f10ea07",
    "isNotDuplicateAnion(bytes32,bytes32)": "f8c91244",
    "isNotDuplicateHook(bytes32,address)": "049a491c",
    "popAnion(bytes32,bytes32)": "8dcad139",
    "recordExists(bytes32)": "f79fe538",
    "register(bytes32,bytes32)": "2f926732",
    "rehook(bytes32,uint8,address)": "015399e6",
    "rehook(bytes32,uint8,bytes32)": "5b55b376",
    "renew(bytes32,uint256)": "f544d82f",
    "resolver(bytes32)": "0178b8bf",
    "roothash()": "251c9422",
    "setAlias(bytes32,bytes32)": "1f06e91c",
    "setAnions(bytes32,bytes32[],address[],uint8[])": "250548b9",
    "setApprovalForAll(address,bool)": "a22cb465",
    "setCation(bytes32,bytes32)": "8146970a",
    "setController(bytes32,address)": "d3156905",
    "setCovalence(bytes32,bool)": "d07699aa",
    "setExpiry(bytes32,uint256)": "39de6469",
    "setRecord(bytes32,address)": "d9b76ed4",
    "setResolver(bytes32,address)": "1896f70a",
    "theEnd()": "22b68deb",
    "unhook(bytes32,address)": "241270d5",
    "unhook(bytes32,bytes32)": "516aeda0",
    "unhookAll(bytes32,uint256)": "b2dd2e55",
    "withdrawEther()": "7362377b"
  },
  "id": 37
}