{
  "abi": [
    {
      "inputs": [
        {
          "internalType": "address",
          "name": "_registry",
          "type": "address"
        },
        {
          "internalType": "address",
          "name": "_helix2",
          "type": "address"
        }
      ],
      "stateMutability": "nonpayable",
      "type": "constructor"
    },
    {
      "inputs": [
        {
          "internalType": "bytes32",
          "name": "polyhash",
          "type": "bytes32"
        },
        {
          "internalType": "bytes32",
          "name": "anion",
          "type": "bytes32"
        }
      ],
      "name": "AnionNotFound",
      "type": "error"
    },
    {
      "anonymous": false,
      "inputs": [
        {
          "indexed": true,
          "internalType": "address",
          "name": "cation",
          "type": "address"
        },
        {
          "indexed": true,
          "internalType": "address",
          "name": "operator",
          "type": "address"
        },
        {
          "indexed": false,
          "internalType": "bool",
          "name": "approved",
          "type": "bool"
        }
      ],
      "name": "ApprovalForAll",
      "type": "event"
    },
    {
      "anonymous": false,
      "inputs": [
        {
          "indexed": true,
          "internalType": "bytes32",
          "name": "polyhash",
          "type": "bytes32"
        },
        {
          "indexed": false,
          "internalType": "address",
          "name": "config",
          "type": "address"
        },
        {
          "indexed": false,
          "internalType": "uint8",
          "name": "rule",
          "type": "uint8"
        }
      ],
      "name": "Hooked",
      "type": "event"
    },
    {
      "anonymous": false,
      "inputs": [
        {
          "indexed": true,
          "internalType": "bytes32",
          "name": "polyhash",
          "type": "bytes32"
        },
        {
          "indexed": false,
          "internalType": "bytes32",
          "name": "_alias",
          "type": "bytes32"
        }
      ],
      "name": "NewAlias",
      "type": "event"
    },
    {
      "anonymous": false,
      "inputs": [
        {
          "indexed": true,
          "internalType": "bytes32",
          "name": "polyhash",
          "type": "bytes32"
        },
        {
          "indexed": false,
          "internalType": "bytes32",
          "name": "anion",
          "type": "bytes32"
        }
      ],
      "name": "NewAnion",
      "type": "event"
    },
    {
      "anonymous": false,
      "inputs": [
        {
          "indexed": true,
          "internalType": "bytes32",
          "name": "polyhash",
          "type": "bytes32"
        },
        {
          "indexed": false,
          "internalType": "bytes32[]",
          "name": "anion",
          "type": "bytes32[]"
        }
      ],
      "name": "NewAnions",
      "type": "event"
    },
    {
      "anonymous": false,
      "inputs": [
        {
          "indexed": true,
          "internalType": "bytes32",
          "name": "polyhash",
          "type": "bytes32"
        },
        {
          "indexed": false,
          "internalType": "bytes32",
          "name": "cation",
          "type": "bytes32"
        }
      ],
      "name": "NewCation",
      "type": "event"
    },
    {
      "anonymous": false,
      "inputs": [
        {
          "indexed": true,
          "internalType": "bytes32",
          "name": "polyhash",
          "type": "bytes32"
        },
        {
          "indexed": false,
          "internalType": "address",
          "name": "controller",
          "type": "address"
        }
      ],
      "name": "NewController",
      "type": "event"
    },
    {
      "anonymous": false,
      "inputs": [
        {
          "indexed": true,
          "internalType": "bytes32",
          "name": "polyhash",
          "type": "bytes32"
        },
        {
          "indexed": false,
          "internalType": "bool",
          "name": "covalence",
          "type": "bool"
        }
      ],
      "name": "NewCovalence",
      "type": "event"
    },
    {
      "anonymous": false,
      "inputs": [
        {
          "indexed": false,
          "internalType": "address",
          "name": "Dev",
          "type": "address"
        },
        {
          "indexed": false,
          "internalType": "address",
          "name": "newDev",
          "type": "address"
        }
      ],
      "name": "NewDev",
      "type": "event"
    },
    {
      "anonymous": false,
      "inputs": [
        {
          "indexed": true,
          "internalType": "bytes32",
          "name": "polyhash",
          "type": "bytes32"
        },
        {
          "indexed": false,
          "internalType": "uint256",
          "name": "expiry",
          "type": "uint256"
        }
      ],
      "name": "NewExpiry",
      "type": "event"
    },
    {
      "anonymous": false,
      "inputs": [
        {
          "indexed": true,
          "internalType": "bytes32",
          "name": "polyhash",
          "type": "bytes32"
        },
        {
          "indexed": false,
          "internalType": "bytes32",
          "name": "cation",
          "type": "bytes32"
        }
      ],
      "name": "NewPolycule",
      "type": "event"
    },
    {
      "anonymous": false,
      "inputs": [
        {
          "indexed": true,
          "internalType": "bytes32",
          "name": "polyhash",
          "type": "bytes32"
        },
        {
          "indexed": false,
          "internalType": "address",
          "name": "resolver",
          "type": "address"
        }
      ],
      "name": "NewRecord",
      "type": "event"
    },
    {
      "anonymous": false,
      "inputs": [
        {
          "indexed": true,
          "internalType": "bytes32",
          "name": "polyhash",
          "type": "bytes32"
        },
        {
          "indexed": false,
          "internalType": "bytes32",
          "name": "cation",
          "type": "bytes32"
        }
      ],
      "name": "NewRegistration",
      "type": "event"
    },
    {
      "anonymous": false,
      "inputs": [
        {
          "indexed": true,
          "internalType": "bytes32",
          "name": "polyhash",
          "type": "bytes32"
        },
        {
          "indexed": false,
          "internalType": "address",
          "name": "resolver",
          "type": "address"
        }
      ],
      "name": "NewResolver",
      "type": "event"
    },
    {
      "anonymous": false,
      "inputs": [
        {
          "indexed": true,
          "internalType": "bytes32",
          "name": "polyhash",
          "type": "bytes32"
        },
        {
          "indexed": false,
          "internalType": "bytes32",
          "name": "anion",
          "type": "bytes32"
        }
      ],
      "name": "PopAnion",
      "type": "event"
    },
    {
      "anonymous": false,
      "inputs": [
        {
          "indexed": true,
          "internalType": "bytes32",
          "name": "polyhash",
          "type": "bytes32"
        },
        {
          "indexed": false,
          "internalType": "bytes32",
          "name": "anion",
          "type": "bytes32"
        },
        {
          "indexed": false,
          "internalType": "uint8",
          "name": "rule",
          "type": "uint8"
        }
      ],
      "name": "RehookedAnion",
      "type": "event"
    },
    {
      "anonymous": false,
      "inputs": [
        {
          "indexed": true,
          "internalType": "bytes32",
          "name": "polyhash",
          "type": "bytes32"
        },
        {
          "indexed": false,
          "internalType": "address",
          "name": "config",
          "type": "address"
        },
        {
          "indexed": false,
          "internalType": "uint8",
          "name": "rule",
          "type": "uint8"
        }
      ],
      "name": "RehookedConfig",
      "type": "event"
    },
    {
      "anonymous": false,
      "inputs": [
        {
          "indexed": true,
          "internalType": "bytes32",
          "name": "polyhash",
          "type": "bytes32"
        }
      ],
      "name": "UnhookedAll",
      "type": "event"
    },
    {
      "anonymous": false,
      "inputs": [
        {
          "indexed": true,
          "internalType": "bytes32",
          "name": "polyhash",
          "type": "bytes32"
        },
        {
          "indexed": false,
          "internalType": "bytes32",
          "name": "anion",
          "type": "bytes32"
        }
      ],
      "name": "UnhookedAnion",
      "type": "event"
    },
    {
      "anonymous": false,
      "inputs": [
        {
          "indexed": true,
          "internalType": "bytes32",
          "name": "polyhash",
          "type": "bytes32"
        },
        {
          "indexed": false,
          "internalType": "address",
          "name": "config",
          "type": "address"
        }
      ],
      "name": "UnhookedConfig",
      "type": "event"
    },
    {
      "inputs": [],
      "name": "Dev",
      "outputs": [
        {
          "internalType": "address",
          "name": "",
          "type": "address"
        }
      ],
      "stateMutability": "view",
      "type": "function"
    },
    {
      "inputs": [],
      "name": "HELIX2",
      "outputs": [
        {
          "internalType": "contract iHELIX2",
          "name": "",
          "type": "address"
        }
      ],
      "stateMutability": "view",
      "type": "function"
    },
    {
      "inputs": [],
      "name": "NAMES",
      "outputs": [
        {
          "internalType": "contract iNAME",
          "name": "",
          "type": "address"
        }
      ],
      "stateMutability": "view",
      "type": "function"
    },
    {
      "inputs": [
        {
          "internalType": "bytes32",
          "name": "",
          "type": "bytes32"
        }
      ],
      "name": "Polycules",
      "outputs": [
        {
          "internalType": "bytes32",
          "name": "_cation",
          "type": "bytes32"
        },
        {
          "internalType": "bytes32",
          "name": "_alias",
          "type": "bytes32"
        },
        {
          "internalType": "address",
          "name": "_resolver",
          "type": "address"
        },
        {
          "internalType": "address",
          "name": "_controller",
          "type": "address"
        },
        {
          "internalType": "bool",
          "name": "_covalence",
          "type": "bool"
        },
        {
          "internalType": "uint256",
          "name": "_expiry",
          "type": "uint256"
        }
      ],
      "stateMutability": "view",
      "type": "function"
    },
    {
      "inputs": [],
      "name": "Registrar",
      "outputs": [
        {
          "internalType": "address",
          "name": "",
          "type": "address"
        }
      ],
      "stateMutability": "view",
      "type": "function"
    },
    {
      "inputs": [],
      "name": "active",
      "outputs": [
        {
          "internalType": "bool",
          "name": "",
          "type": "bool"
        }
      ],
      "stateMutability": "view",
      "type": "function"
    },
    {
      "inputs": [
        {
          "internalType": "bytes32",
          "name": "polyhash",
          "type": "bytes32"
        },
        {
          "internalType": "bytes32",
          "name": "_anion",
          "type": "bytes32"
        },
        {
          "internalType": "address",
          "name": "config",
          "type": "address"
        },
        {
          "internalType": "uint8",
          "name": "rule",
          "type": "uint8"
        }
      ],
      "name": "addAnion",
      "outputs": [],
      "stateMutability": "nonpayable",
      "type": "function"
    },
    {
      "inputs": [
        {
          "internalType": "bytes32",
          "name": "polyhash",
          "type": "bytes32"
        }
      ],
      "name": "alias_",
      "outputs": [
        {
          "internalType": "bytes32",
          "name": "",
          "type": "bytes32"
        }
      ],
      "stateMutability": "view",
      "type": "function"
    },
    {
      "inputs": [
        {
          "internalType": "bytes32",
          "name": "polyhash",
          "type": "bytes32"
        }
      ],
      "name": "anion",
      "outputs": [
        {
          "internalType": "bytes32[]",
          "name": "",
          "type": "bytes32[]"
        }
      ],
      "stateMutability": "view",
      "type": "function"
    },
    {
      "inputs": [],
      "name": "basePrice",
      "outputs": [
        {
          "internalType": "uint256",
          "name": "",
          "type": "uint256"
        }
      ],
      "stateMutability": "view",
      "type": "function"
    },
    {
      "inputs": [
        {
          "internalType": "bytes32",
          "name": "polyhash",
          "type": "bytes32"
        }
      ],
      "name": "cation",
      "outputs": [
        {
          "internalType": "bytes32",
          "name": "",
          "type": "bytes32"
        }
      ],
      "stateMutability": "view",
      "type": "function"
    },
    {
      "inputs": [
        {
          "internalType": "address",
          "name": "newDev",
          "type": "address"
        }
      ],
      "name": "changeDev",
      "outputs": [],
      "stateMutability": "nonpayable",
      "type": "function"
    },
    {
      "inputs": [
        {
          "internalType": "bytes32",
          "name": "polyhash",
          "type": "bytes32"
        }
      ],
      "name": "controller",
      "outputs": [
        {
          "internalType": "address",
          "name": "",
          "type": "address"
        }
      ],
      "stateMutability": "view",
      "type": "function"
    },
    {
      "inputs": [
        {
          "internalType": "bytes32",
          "name": "polyhash",
          "type": "bytes32"
        }
      ],
      "name": "covalence",
      "outputs": [
        {
          "internalType": "bool",
          "name": "",
          "type": "bool"
        }
      ],
      "stateMutability": "view",
      "type": "function"
    },
    {
      "inputs": [
        {
          "internalType": "bytes32",
          "name": "polyhash",
          "type": "bytes32"
        }
      ],
      "name": "expiry",
      "outputs": [
        {
          "internalType": "uint256",
          "name": "",
          "type": "uint256"
        }
      ],
      "stateMutability": "view",
      "type": "function"
    },
    {
      "inputs": [
        {
          "internalType": "bytes32",
          "name": "__anion",
          "type": "bytes32"
        },
        {
          "internalType": "bytes32",
          "name": "polyhash",
          "type": "bytes32"
        },
        {
          "internalType": "uint8",
          "name": "rule",
          "type": "uint8"
        },
        {
          "internalType": "address",
          "name": "config",
          "type": "address"
        }
      ],
      "name": "hook",
      "outputs": [],
      "stateMutability": "nonpayable",
      "type": "function"
    },
    {
      "inputs": [
        {
          "internalType": "bytes32",
          "name": "polyhash",
          "type": "bytes32"
        }
      ],
      "name": "hooksWithRules",
      "outputs": [
        {
          "internalType": "address[]",
          "name": "_hooks",
          "type": "address[]"
        },
        {
          "internalType": "uint8[]",
          "name": "_rules",
          "type": "uint8[]"
        }
      ],
      "stateMutability": "view",
      "type": "function"
    },
    {
      "inputs": [
        {
          "internalType": "bytes32",
          "name": "_cation",
          "type": "bytes32"
        },
        {
          "internalType": "address",
          "name": "operator",
          "type": "address"
        }
      ],
      "name": "isApprovedForAll",
      "outputs": [
        {
          "internalType": "bool",
          "name": "",
          "type": "bool"
        }
      ],
      "stateMutability": "view",
      "type": "function"
    },
    {
      "inputs": [
        {
          "internalType": "bytes32[]",
          "name": "_anion",
          "type": "bytes32[]"
        },
        {
          "internalType": "address[]",
          "name": "_config",
          "type": "address[]"
        }
      ],
      "name": "isLegalMap",
      "outputs": [
        {
          "internalType": "bool",
          "name": "",
          "type": "bool"
        }
      ],
      "stateMutability": "pure",
      "type": "function"
    },
    {
      "inputs": [
        {
          "internalType": "bytes32",
          "name": "polyhash",
          "type": "bytes32"
        },
        {
          "internalType": "bytes32",
          "name": "_anion",
          "type": "bytes32"
        }
      ],
      "name": "isNotDuplicateAnion",
      "outputs": [
        {
          "internalType": "bool",
          "name": "",
          "type": "bool"
        }
      ],
      "stateMutability": "view",
      "type": "function"
    },
    {
      "inputs": [
        {
          "internalType": "bytes32",
          "name": "polyhash",
          "type": "bytes32"
        },
        {
          "internalType": "address",
          "name": "config",
          "type": "address"
        }
      ],
      "name": "isNotDuplicateHook",
      "outputs": [
        {
          "internalType": "bool",
          "name": "",
          "type": "bool"
        }
      ],
      "stateMutability": "view",
      "type": "function"
    },
    {
      "inputs": [
        {
          "internalType": "bytes32",
          "name": "polyhash",
          "type": "bytes32"
        },
        {
          "internalType": "bytes32",
          "name": "__anion",
          "type": "bytes32"
        }
      ],
      "name": "popAnion",
      "outputs": [],
      "stateMutability": "nonpayable",
      "type": "function"
    },
    {
      "inputs": [
        {
          "internalType": "bytes32",
          "name": "polyhash",
          "type": "bytes32"
        }
      ],
      "name": "recordExists",
      "outputs": [
        {
          "internalType": "bool",
          "name": "",
          "type": "bool"
        }
      ],
      "stateMutability": "view",
      "type": "function"
    },
    {
      "inputs": [
        {
          "internalType": "bytes32",
          "name": "polyhash",
          "type": "bytes32"
        },
        {
          "internalType": "bytes32",
          "name": "_cation",
          "type": "bytes32"
        }
      ],
      "name": "register",
      "outputs": [],
      "stateMutability": "nonpayable",
      "type": "function"
    },
    {
      "inputs": [
        {
          "internalType": "bytes32",
          "name": "polyhash",
          "type": "bytes32"
        },
        {
          "internalType": "uint8",
          "name": "rule",
          "type": "uint8"
        },
        {
          "internalType": "address",
          "name": "config",
          "type": "address"
        }
      ],
      "name": "rehook",
      "outputs": [],
      "stateMutability": "nonpayable",
      "type": "function"
    },
    {
      "inputs": [
        {
          "internalType": "bytes32",
          "name": "polyhash",
          "type": "bytes32"
        },
        {
          "internalType": "uint8",
          "name": "rule",
          "type": "uint8"
        },
        {
          "internalType": "bytes32",
          "name": "__anion",
          "type": "bytes32"
        }
      ],
      "name": "rehook",
      "outputs": [],
      "stateMutability": "nonpayable",
      "type": "function"
    },
    {
      "inputs": [
        {
          "internalType": "bytes32",
          "name": "molyhash",
          "type": "bytes32"
        },
        {
          "internalType": "uint256",
          "name": "_expiry",
          "type": "uint256"
        }
      ],
      "name": "renew",
      "outputs": [],
      "stateMutability": "payable",
      "type": "function"
    },
    {
      "inputs": [
        {
          "internalType": "bytes32",
          "name": "polyhash",
          "type": "bytes32"
        }
      ],
      "name": "resolver",
      "outputs": [
        {
          "internalType": "address",
          "name": "",
          "type": "address"
        }
      ],
      "stateMutability": "view",
      "type": "function"
    },
    {
      "inputs": [],
      "name": "roothash",
      "outputs": [
        {
          "internalType": "bytes32",
          "name": "",
          "type": "bytes32"
        }
      ],
      "stateMutability": "view",
      "type": "function"
    },
    {
      "inputs": [
        {
          "internalType": "bytes32",
          "name": "polyhash",
          "type": "bytes32"
        },
        {
          "internalType": "bytes32",
          "name": "_alias",
          "type": "bytes32"
        }
      ],
      "name": "setAlias",
      "outputs": [],
      "stateMutability": "nonpayable",
      "type": "function"
    },
    {
      "inputs": [
        {
          "internalType": "bytes32",
          "name": "polyhash",
          "type": "bytes32"
        },
        {
          "internalType": "bytes32[]",
          "name": "_anion",
          "type": "bytes32[]"
        },
        {
          "internalType": "address[]",
          "name": "_config",
          "type": "address[]"
        },
        {
          "internalType": "uint8[]",
          "name": "_rules",
          "type": "uint8[]"
        }
      ],
      "name": "setAnions",
      "outputs": [],
      "stateMutability": "nonpayable",
      "type": "function"
    },
    {
      "inputs": [
        {
          "internalType": "address",
          "name": "operator",
          "type": "address"
        },
        {
          "internalType": "bool",
          "name": "approved",
          "type": "bool"
        }
      ],
      "name": "setApprovalForAll",
      "outputs": [],
      "stateMutability": "nonpayable",
      "type": "function"
    },
    {
      "inputs": [
        {
          "internalType": "bytes32",
          "name": "polyhash",
          "type": "bytes32"
        },
        {
          "internalType": "bytes32",
          "name": "_cation",
          "type": "bytes32"
        }
      ],
      "name": "setCation",
      "outputs": [],
      "stateMutability": "nonpayable",
      "type": "function"
    },
    {
      "inputs": [
        {
          "internalType": "bytes32",
          "name": "polyhash",
          "type": "bytes32"
        },
        {
          "internalType": "address",
          "name": "_controller",
          "type": "address"
        }
      ],
      "name": "setController",
      "outputs": [],
      "stateMutability": "nonpayable",
      "type": "function"
    },
    {
      "inputs": [
        {
          "internalType": "bytes32",
          "name": "polyhash",
          "type": "bytes32"
        },
        {
          "internalType": "bool",
          "name": "_covalence",
          "type": "bool"
        }
      ],
      "name": "setCovalence",
      "outputs": [],
      "stateMutability": "nonpayable",
      "type": "function"
    },
    {
      "inputs": [
        {
          "internalType": "bytes32",
          "name": "molyhash",
          "type": "bytes32"
        },
        {
          "internalType": "uint256",
          "name": "_expiry",
          "type": "uint256"
        }
      ],
      "name": "setExpiry",
      "outputs": [],
      "stateMutability": "nonpayable",
      "type": "function"
    },
    {
      "inputs": [
        {
          "internalType": "bytes32",
          "name": "polyhash",
          "type": "bytes32"
        },
        {
          "internalType": "address",
          "name": "_resolver",
          "type": "address"
        }
      ],
      "name": "setRecord",
      "outputs": [],
      "stateMutability": "nonpayable",
      "type": "function"
    },
    {
      "inputs": [
        {
          "internalType": "bytes32",
          "name": "polyhash",
          "type": "bytes32"
        },
        {
          "internalType": "address",
          "name": "_resolver",
          "type": "address"
        }
      ],
      "name": "setResolver",
      "outputs": [],
      "stateMutability": "nonpayable",
      "type": "function"
    },
    {
      "inputs": [],
      "name": "theEnd",
      "outputs": [
        {
          "internalType": "uint256",
          "name": "",
          "type": "uint256"
        }
      ],
      "stateMutability": "view",
      "type": "function"
    },
    {
      "inputs": [
        {
          "internalType": "bytes32",
          "name": "polyhash",
          "type": "bytes32"
        },
        {
          "internalType": "address",
          "name": "config",
          "type": "address"
        }
      ],
      "name": "unhook",
      "outputs": [],
      "stateMutability": "nonpayable",
      "type": "function"
    },
    {
      "inputs": [
        {
          "internalType": "bytes32",
          "name": "polyhash",
          "type": "bytes32"
        },
        {
          "internalType": "bytes32",
          "name": "__anion",
          "type": "bytes32"
        }
      ],
      "name": "unhook",
      "outputs": [],
      "stateMutability": "nonpayable",
      "type": "function"
    },
    {
      "inputs": [
        {
          "internalType": "bytes32",
          "name": "polyhash",
          "type": "bytes32"
        }
      ],
      "name": "unhookAll",
      "outputs": [],
      "stateMutability": "nonpayable",
      "type": "function"
    },
    {
      "inputs": [],
      "name": "withdrawEther",
      "outputs": [],
      "stateMutability": "nonpayable",
      "type": "function"
    }
  ],
  "bytecode": {
    "object": "0x60806040526002805460ff60a01b1916600160a01b1790556703782dace9d900006006553480156200003057600080fd5b5060405162005c0b38038062005c0b83398101604081905262000053916200075c565b60028054336001600160a01b0319918216179091556000805482166001600160a01b03848116918217909255600180549093169185169190911790915560408051633215476b60e11b8152905163642a8ed6916004808201926080929091908290030181865afa158015620000cc573d6000803e3d6000fd5b505050506040513d601f19601f82011682018060405250810190620000f29190620007cb565b606001516003556000546040805163bd9a548b60e01b815290516001600160a01b039092169163bd9a548b916004808201926080929091908290030181865afa15801562000144573d6000803e3d6000fd5b505050506040513d601f19601f820116820180604052508101906200016a9190620007cb565b606001516004556200017b62000183565b505062000870565b7fb4b4801cca1cad359bff6b5ea99d95160f00cbe1164fb7231c42c3e8b5f2593b805460ff19169055604080516020818101909252600080825280526007909152620001f3907f6d5257204ebe7d88fd91ae87941cb2dd9d8062b64ae5a2bd2d28ec40b9fbf6df90600162000680565b5060007f6d5257204ebe7d88fd91ae87941cb2dd9d8062b64ae5a2bd2d28ec40b9fbf6e1819055604080516020818101909252828152918052600790526200025f907f6d5257204ebe7d88fd91ae87941cb2dd9d8062b64ae5a2bd2d28ec40b9fbf6e2906001620006ea565b50600080805260076020527f6d5257204ebe7d88fd91ae87941cb2dd9d8062b64ae5a2bd2d28ec40b9fbf6e38190557f6d5257204ebe7d88fd91ae87941cb2dd9d8062b64ae5a2bd2d28ec40b9fbf6e580546006547f6d5257204ebe7d88fd91ae87941cb2dd9d8062b64ae5a2bd2d28ec40b9fbf6e6556001600160a81b03191633908117600160a01b179091557f6d5257204ebe7d88fd91ae87941cb2dd9d8062b64ae5a2bd2d28ec40b9fbf6e480546001600160a01b0319169091179055805460408051633215476b60e11b815290516001600160a01b03929092169163642a8ed6916004818101926080929091908290030181865afa1580156200036a573d6000803e3d6000fd5b505050506040513d601f19601f82011682018060405250810190620003909190620007cb565b905060005b60048110156200067c57600060076000848460048110620003ba57620003ba62000832565b60209081029190910151825281810192909252604090810160009081208180526001018352818120805460ff191660ff9590951694909417909355805191820190528181529060079084846004811062000418576200041862000832565b602002015181526020019081526020016000206000019060016200043e92919062000680565b5081816004811062000454576200045462000832565b60200201516007600084846004811062000472576200047262000832565b60200201518152602001908152602001600020600201819055506040518060200160405280838360048110620004ac57620004ac62000832565b6020020151905260076000848460048110620004cc57620004cc62000832565b60200201518152602001908152602001600020600301906001620004f2929190620006ea565b5081816004811062000508576200050862000832565b60200201516007600084846004811062000526576200052662000832565b60200201518152602001908152602001600020600401819055506001600760008484600481106200055b576200055b62000832565b6020020151815260200190815260200160002060060160146101000a81548160ff02191690831515021790555060065460076000848460048110620005a457620005a462000832565b60200201518152602001908152602001600020600701819055503360076000848460048110620005d857620005d862000832565b6020020151815260200190815260200160002060060160006101000a8154816001600160a01b0302191690836001600160a01b0316021790555033600760008484600481106200062c576200062c62000832565b6020020151815260200190815260200160002060050160006101000a8154816001600160a01b0302191690836001600160a01b031602179055508080620006739062000848565b91505062000395565b5050565b828054828255906000526020600020908101928215620006d8579160200282015b82811115620006d857825182546001600160a01b0319166001600160a01b03909116178255602090920191600190910190620006a1565b50620006e692915062000728565b5090565b828054828255906000526020600020908101928215620006d8579160200282015b82811115620006d85782518255916020019190600101906200070b565b5b80821115620006e6576000815560010162000729565b80516001600160a01b03811681146200075757600080fd5b919050565b600080604083850312156200077057600080fd5b6200077b836200073f565b91506200078b602084016200073f565b90509250929050565b604051608081016001600160401b0381118282101715620007c557634e487b7160e01b600052604160045260246000fd5b60405290565b600060808284031215620007de57600080fd5b82601f830112620007ee57600080fd5b620007f862000794565b8060808401858111156200080b57600080fd5b845b81811015620008275780518452602093840193016200080d565b509095945050505050565b634e487b7160e01b600052603260045260246000fd5b6000600182016200086957634e487b7160e01b600052601160045260246000fd5b5060010190565b61538b80620008806000396000f3fe6080604052600436106102dc5760003560e01c80637362377b11610184578063c7876ea4116100d6578063dbd4e0211161008a578063f61ccd5311610064578063f61ccd53146108bb578063f79fe538146108db578063f8c912441461090e57600080fd5b8063dbd4e02114610868578063e73f806014610888578063f544d82f146108a857600080fd5b8063d2ec5fca116100bb578063d2ec5fca146107f7578063d315690514610828578063d9b76ed41461084857600080fd5b8063c7876ea4146107c1578063d07699aa146107d757600080fd5b80639e162dfa11610138578063b782426e11610112578063b782426e14610761578063b9f37c8614610781578063c5bc4c0b146107a157600080fd5b80639e162dfa14610701578063a22cb46514610721578063b06986281461074157600080fd5b80638146970a116101695780638146970a146106a157806388a8c95c146106c15780638dcad139146106e157600080fd5b80637362377b146105d757806375c4f68e146105ec57600080fd5b80631f10ea071161023d578063251c9422116101f157806339de6469116101cb57806339de646914610577578063516aeda0146105975780635b55b376146105b757600080fd5b8063251c9422146105215780632f92673214610537578063340268591461055757600080fd5b806322b68deb1161022257806322b68deb146104bd578063241270d5146104e1578063250548b91461050157600080fd5b80631f10ea071461047d57806321ec2b5b1461049d57600080fd5b806305e84aa0116102945780630e68b116116102795780630e68b116146104105780631896f70a1461043d5780631f06e91c1461045d57600080fd5b806305e84aa0146103c25780630aac6625146103e257600080fd5b806301e51ae8116102c557806301e51ae81461034057806302fb0c5e14610360578063049a491c146103a257600080fd5b8063015399e6146102e15780630178b8bf14610303575b600080fd5b3480156102ed57600080fd5b506103016102fc366004614adf565b61092e565b005b34801561030f57600080fd5b5061032361031e366004614b1f565b610b86565b6040516001600160a01b0390911681526020015b60405180910390f35b34801561034c57600080fd5b50600254610323906001600160a01b031681565b34801561036c57600080fd5b506002546103929074010000000000000000000000000000000000000000900460ff1681565b6040519015158152602001610337565b3480156103ae57600080fd5b506103926103bd366004614b38565b610bff565b3480156103ce57600080fd5b50600154610323906001600160a01b031681565b3480156103ee57600080fd5b506104026103fd366004614b1f565b610cb1565b604051610337929190614b68565b34801561041c57600080fd5b5061043061042b366004614b1f565b610e61565b6040516103379190614bef565b34801561044957600080fd5b50610301610458366004614b38565b610f23565b34801561046957600080fd5b50610301610478366004614c33565b6111e7565b34801561048957600080fd5b50610392610498366004614dc6565b61132d565b3480156104a957600080fd5b506103016104b8366004614b1f565b611348565b3480156104c957600080fd5b506104d360065481565b604051908152602001610337565b3480156104ed57600080fd5b506103016104fc366004614b38565b611679565b34801561050d57600080fd5b5061030161051c366004614e2a565b611aab565b34801561052d57600080fd5b506104d360035481565b34801561054357600080fd5b50610301610552366004614c33565b611fbd565b34801561056357600080fd5b50610392610572366004614b1f565b612076565b34801561058357600080fd5b50610301610592366004614c33565b6120fd565b3480156105a357600080fd5b506103016105b2366004614c33565b612298565b3480156105c357600080fd5b506103016105d2366004614f17565b612725565b3480156105e357600080fd5b50610301612c23565b3480156105f857600080fd5b50610665610607366004614b1f565b600760208190526000918252604090912060028101546004820154600583015460068401549390940154919390926001600160a01b0391821692918116917401000000000000000000000000000000000000000090910460ff169086565b6040805196875260208701959095526001600160a01b0393841694860194909452911660608401521515608083015260a082015260c001610337565b3480156106ad57600080fd5b506103016106bc366004614c33565b612cc9565b3480156106cd57600080fd5b506103016106dc366004614f4c565b612e6f565b3480156106ed57600080fd5b506103016106fc366004614c33565b612f3f565b34801561070d57600080fd5b5061030161071c366004614f70565b6134e1565b34801561072d57600080fd5b5061030161073c366004614fc6565b61374d565b34801561074d57600080fd5b5061039261075c366004614b38565b6137b9565b34801561076d57600080fd5b50600054610323906001600160a01b031681565b34801561078d57600080fd5b50600554610323906001600160a01b031681565b3480156107ad57600080fd5b506104d36107bc366004614b1f565b61385d565b3480156107cd57600080fd5b506104d360045481565b3480156107e357600080fd5b506103016107f2366004614ff4565b6138c9565b34801561080357600080fd5b506104d3610812366004614b1f565b6000908152600760208190526040909120015490565b34801561083457600080fd5b50610301610843366004614b38565b613b9f565b34801561085457600080fd5b50610301610863366004614b38565b613e58565b34801561087457600080fd5b50610323610883366004614b1f565b614111565b34801561089457600080fd5b506103016108a3366004615019565b614186565b6103016108b6366004614c33565b6145d5565b3480156108c757600080fd5b506104d36108d6366004614b1f565b614923565b3480156108e757600080fd5b506103926108f6366004614b1f565b60009081526007602081905260409091200154421090565b34801561091a57600080fd5b50610392610929366004614c33565b614a1e565b60008381526007602081905260409091200154839042106109895760405162461bcd60e51b815260206004820152601060248201526f1413d31650d5531157d156141254915160821b60448201526064015b60405180910390fd5b6000818152600760205260408082206002015460015491516302571be360e01b8152600481018290529092916001600160a01b0316906302571be390602401602060405180830381865afa1580156109e5573d6000803e3d6000fd5b505050506040513d601f19601f82011682018060405250810190610a099190615061565b90506001600160a01b038116331480610a4557506001600160a01b038116600090815260086020908152604080832033845290915290205460ff165b610a915760405162461bcd60e51b815260206004820152600960248201527f4e4f545f4f574e455200000000000000000000000000000000000000000000006044820152606401610980565b60008681526007602090815260408083206001600160a01b038816845260010190915290205460ff808716911603610b0b5760405162461bcd60e51b815260206004820152600b60248201527f52554c455f4558495354530000000000000000000000000000000000000000006044820152606401610980565b60008681526007602090815260408083206001600160a01b0388168085526001909101835292819020805460ff191660ff8a1690811790915581519384529183019190915287917f1abc00531586337cfd45709506ca0d48a44e1eb54325e589ec054ce83373e07a91015b60405180910390a2505050505050565b60008181526007602081905260408220015482904210610bdb5760405162461bcd60e51b815260206004820152601060248201526f1413d31650d5531157d156141254915160821b6044820152606401610980565b6000838152600760205260409020600501546001600160a01b031691505b50919050565b60008281526007602052604080822090517f2306f46600000000000000000000000000000000000000000000000000000000815273__$47e4ffaaf323c41735ff299f8946896ce0$__91632306f46691610c66916001600160a01b0387169160040161507e565b602060405180830381865af4158015610c83573d6000803e3d6000fd5b505050506040513d601f19601f82011682018060405250810190610ca791906150de565b1590505b92915050565b6060808260076000828152602001908152602001600020600701544210610d0d5760405162461bcd60e51b815260206004820152601060248201526f1413d31650d5531157d156141254915160821b6044820152606401610980565b60008481526007602090815260409182902080548351818402810184019094528084529091830182828015610d6b57602002820191906000526020600020905b81546001600160a01b03168152600190910190602001808311610d4d575b50505050509250825167ffffffffffffffff811115610d8c57610d8c614c55565b604051908082528060200260200182016040528015610db5578160200160208202803683370190505b50915060005b8351811015610e5a57600760008681526020019081526020016000206001016000858381518110610dee57610dee6150fb565b60200260200101516001600160a01b03166001600160a01b0316815260200190815260200160002060009054906101000a900460ff16838281518110610e3657610e366150fb565b60ff9092166020928302919091019091015280610e5281615159565b915050610dbb565b5050915091565b60608160076000828152602001908152602001600020600701544210610ebc5760405162461bcd60e51b815260206004820152601060248201526f1413d31650d5531157d156141254915160821b6044820152606401610980565b600083815260076020908152604080832060030180548251818502810185019093528083529192909190830182828015610f1557602002820191906000526020600020905b815481526020019060010190808311610f01575b509398975050505050505050565b600054604080517f4d3f7334000000000000000000000000000000000000000000000000000000008152905184926001600160a01b031691634d3f73349160048083019260809291908290030181865afa158015610f85573d6000803e3d6000fd5b505050506040513d601f19601f82011682018060405250810190610fa99190615191565b606001516005805473ffffffffffffffffffffffffffffffffffffffff19166001600160a01b0390921691909117905560008181526007602081905260409091200154421061102d5760405162461bcd60e51b815260206004820152601060248201526f1413d31650d5531157d156141254915160821b6044820152606401610980565b6000818152600760205260408082206002015460015491516302571be360e01b8152600481018290529092916001600160a01b0316906302571be390602401602060405180830381865afa158015611089573d6000803e3d6000fd5b505050506040513d601f19601f820116820180604052508101906110ad9190615061565b6005549091506001600160a01b03163314806110d157506001600160a01b03811633145b806110ff57506001600160a01b038116600090815260086020908152604080832033845290915290205460ff165b8061112357506000838152600760205260409020600601546001600160a01b031633145b61116f5760405162461bcd60e51b815260206004820152600e60248201527f4e4f545f415554484f52495345440000000000000000000000000000000000006044820152606401610980565b600085815260076020908152604091829020600501805473ffffffffffffffffffffffffffffffffffffffff19166001600160a01b038816908117909155915191825286917f335721b01866dc23fbee8b6b2c7b1e14d6f05c28cd35a2c934239f94095602a091015b60405180910390a25050505050565b60008054906101000a90046001600160a01b03166001600160a01b0316634d3f73346040518163ffffffff1660e01b8152600401608060405180830381865afa158015611238573d6000803e3d6000fd5b505050506040513d601f19601f8201168201806040525081019061125c9190615191565b606001516005805473ffffffffffffffffffffffffffffffffffffffff19166001600160a01b03909216918217905533146112d95760405162461bcd60e51b815260206004820152600d60248201527f4e4f545f524547495354524152000000000000000000000000000000000000006044820152606401610980565b600082815260076020526040908190206004018290555182907f4247841fd58468a6fb10925898bdd83c426da7b5519ee71597106dfdc6751229906113219084815260200190565b60405180910390a25050565b6000815183510361134057506001610cab565b506000610cab565b600081815260076020819052604090912001548190421061139e5760405162461bcd60e51b815260206004820152601060248201526f1413d31650d5531157d156141254915160821b6044820152606401610980565b6000818152600760205260408082206002015460015491516302571be360e01b8152600481018290529092916001600160a01b0316906302571be390602401602060405180830381865afa1580156113fa573d6000803e3d6000fd5b505050506040513d601f19601f8201168201806040525081019061141e9190615061565b90506001600160a01b03811633148061145a57506001600160a01b038116600090815260086020908152604080832033845290915290205460ff165b6114a65760405162461bcd60e51b815260206004820152600960248201527f4e4f545f4f574e455200000000000000000000000000000000000000000000006044820152606401610980565b60008481526007602090815260408083208054825181850281018501909352808352919290919083018282801561150657602002820191906000526020600020905b81546001600160a01b031681526001909101906020018083116114e8575b5050505050905060005b81518110156115f7576000600760008881526020019081526020016000206001016000848481518110611545576115456150fb565b60200260200101516001600160a01b03166001600160a01b0316815260200190815260200160002060006101000a81548160ff021916908360ff160217905550857ff80d6be10f45d9294a75f05d07efcf9391c6eafe6844c8b639d21e9ff49024d48383815181106115b9576115b96150fb565b60200260200101516040516115dd91906001600160a01b0391909116815260200190565b60405180910390a2806115ef81615159565b915050611510565b50600085815260076020526040812061160f91614a82565b60405185907f6b91085369552b61ca16180a741663b69fb6b3b967f7271116521d84e2291dc590600090a250505060009182525060076020908152604082208054600181018255908352912001805473ffffffffffffffffffffffffffffffffffffffff19169055565b60008281526007602081905260409091200154829042106116cf5760405162461bcd60e51b815260206004820152601060248201526f1413d31650d5531157d156141254915160821b6044820152606401610980565b6000818152600760205260408082206002015460015491516302571be360e01b8152600481018290529092916001600160a01b0316906302571be390602401602060405180830381865afa15801561172b573d6000803e3d6000fd5b505050506040513d601f19601f8201168201806040525081019061174f9190615061565b90506001600160a01b03811633148061178b57506001600160a01b038116600090815260086020908152604080832033845290915290205460ff165b6117d75760405162461bcd60e51b815260206004820152600960248201527f4e4f545f4f574e455200000000000000000000000000000000000000000000006044820152606401610980565b60008581526007602090815260408083208054825181850281018501909352808352919290919083018282801561183757602002820191906000526020600020905b81546001600160a01b03168152600190910190602001808311611819575b50506040517f2306f46600000000000000000000000000000000000000000000000000000000815293945073__$47e4ffaaf323c41735ff299f8946896ce0$__93632306f466935061189a92506001600160a01b038a1691508590600401615218565b602060405180830381865af41580156118b7573d6000803e3d6000fd5b505050506040513d601f19601f820116820180604052508101906118db91906150de565b15611a70576040517fcd23ef4c00000000000000000000000000000000000000000000000000000000815260009073__$47e4ffaaf323c41735ff299f8946896ce0$__9063cd23ef4c9061193e906001600160a01b038a16908690600401615218565b602060405180830381865af415801561195b573d6000803e3d6000fd5b505050506040513d601f19601f8201168201806040525081019061197f9190615265565b9050806119c1576040516000815287907ff80d6be10f45d9294a75f05d07efcf9391c6eafe6844c8b639d21e9ff49024d49060200160405180910390a2611a6a565b60008781526007602090815260408083206001600160a01b038a168085526001909101835292819020805460ff191690555191825288917ff80d6be10f45d9294a75f05d07efcf9391c6eafe6844c8b639d21e9ff49024d4910160405180910390a26000878152600760205260409020805482908110611a4357611a436150fb565b6000918252602090912001805473ffffffffffffffffffffffffffffffffffffffff191690555b50611aa3565b6040516000815286907ff80d6be10f45d9294a75f05d07efcf9391c6eafe6844c8b639d21e9ff49024d490602001610b76565b505050505050565b600054604080517f4d3f7334000000000000000000000000000000000000000000000000000000008152905186926001600160a01b031691634d3f73349160048083019260809291908290030181865afa158015611b0d573d6000803e3d6000fd5b505050506040513d601f19601f82011682018060405250810190611b319190615191565b606001516005805473ffffffffffffffffffffffffffffffffffffffff19166001600160a01b03909216919091179055600081815260076020819052604090912001544210611bb55760405162461bcd60e51b815260206004820152601060248201526f1413d31650d5531157d156141254915160821b6044820152606401610980565b6000818152600760205260408082206002015460015491516302571be360e01b8152600481018290529092916001600160a01b0316906302571be390602401602060405180830381865afa158015611c11573d6000803e3d6000fd5b505050506040513d601f19601f82011682018060405250810190611c359190615061565b6005549091506001600160a01b0316331480611c5957506001600160a01b03811633145b80611c8757506001600160a01b038116600090815260086020908152604080832033845290915290205460ff165b80611cab57506000838152600760205260409020600601546001600160a01b031633145b611cf75760405162461bcd60e51b815260206004820152600e60248201527f4e4f545f415554484f52495345440000000000000000000000000000000000006044820152606401610980565b611d01868661132d565b611d4d5760405162461bcd60e51b815260206004820152600760248201527f4241445f4d4150000000000000000000000000000000000000000000000000006044820152606401610980565b60005b8651811015611f7b57868181518110611d6b57611d6b6150fb565b602002602001015173__$47e4ffaaf323c41735ff299f8946896ce0$__636fd8c6859091600760008c81526020019081526020016000206003016040518363ffffffff1660e01b8152600401611dc292919061527e565b602060405180830381865af4158015611ddf573d6000803e3d6000fd5b505050506040513d601f19601f82011682018060405250810190611e0391906150de565b611f695760076000898152602001908152602001600020600301878281518110611e2f57611e2f6150fb565b60209081029190910181015182546001810184556000938452828420015589825260079052604090208651879083908110611e6c57611e6c6150fb565b602090810291909101810151825460018101845560009384529190922001805473ffffffffffffffffffffffffffffffffffffffff19166001600160a01b039092169190911790558451859082908110611ec857611ec86150fb565b6020026020010151600760008a81526020019081526020016000206001016000888481518110611efa57611efa6150fb565b6020908102919091018101516001600160a01b031682528181019290925260409081016000908120805460ff191660ff95909516949094179093558a83526007909152902060060180547fffffffffffffffffffffff00ffffffffffffffffffffffffffffffffffffffff1690555b80611f7381615159565b915050611d50565b50867f580d99949e5d5a02f35dc5b91b800697d53dccb814e200f24f97b4bfbeb8667c87604051611fac9190614bef565b60405180910390a250505050505050565b6000828152600760208190526040909120015482904210156120215760405162461bcd60e51b815260206004820152600f60248201527f504f4c5943554c455f45584953545300000000000000000000000000000000006044820152606401610980565b600083815260076020526040908190206002018390555183907facb5de0f65735f798ae8baf163fb3380a7813aca2c739ba9e39179007206585a906120699085815260200190565b60405180910390a2505050565b600081815260076020819052604082200154829042106120cb5760405162461bcd60e51b815260206004820152601060248201526f1413d31650d5531157d156141254915160821b6044820152606401610980565b505060009081526007602052604090206006015474010000000000000000000000000000000000000000900460ff1690565b60008054906101000a90046001600160a01b03166001600160a01b0316634d3f73346040518163ffffffff1660e01b8152600401608060405180830381865afa15801561214e573d6000803e3d6000fd5b505050506040513d601f19601f820116820180604052508101906121729190615191565b606001516005805473ffffffffffffffffffffffffffffffffffffffff19166001600160a01b03909216918217905533146121ef5760405162461bcd60e51b815260206004820152600d60248201527f4e4f545f524547495354524152000000000000000000000000000000000000006044820152606401610980565b6000828152600760208190526040909120015481116122505760405162461bcd60e51b815260206004820152600a60248201527f4241445f455850495259000000000000000000000000000000000000000000006044820152606401610980565b600082815260076020819052604091829020018290555182907fa620b72378ee464490805a96e25b53e5c0076f0ce2d28f9691ae255a595b3bf3906113219084815260200190565b60008281526007602081905260409091200154829042106122ee5760405162461bcd60e51b815260206004820152601060248201526f1413d31650d5531157d156141254915160821b6044820152606401610980565b6000818152600760205260408082206002015460015491516302571be360e01b8152600481018290529092916001600160a01b0316906302571be390602401602060405180830381865afa15801561234a573d6000803e3d6000fd5b505050506040513d601f19601f8201168201806040525081019061236e9190615061565b90506001600160a01b0381163314806123aa57506001600160a01b038116600090815260086020908152604080832033845290915290205460ff165b6123f65760405162461bcd60e51b815260206004820152600960248201527f4e4f545f4f574e455200000000000000000000000000000000000000000000006044820152606401610980565b60008581526007602090815260408083208054825181850281018501909352808352919290919083018282801561245657602002820191906000526020600020905b81546001600160a01b03168152600190910190602001808311612438575b505050505090506000600760008881526020019081526020016000206003018054806020026020016040519081016040528092919081815260200182805480156124bf57602002820191906000526020600020905b8154815260200190600101908083116124ab575b50506040517f6fd8c68500000000000000000000000000000000000000000000000000000000815293945073__$47e4ffaaf323c41735ff299f8946896ce0$__93636fd8c685935061251992508a915085906004016152c4565b602060405180830381865af4158015612536573d6000803e3d6000fd5b505050506040513d601f19601f8201168201806040525081019061255a91906150de565b156126e9576040517fda92b9ed00000000000000000000000000000000000000000000000000000000815260009073__$47e4ffaaf323c41735ff299f8946896ce0$__9063da92b9ed906125b4908a9086906004016152c4565b602060405180830381865af41580156125d1573d6000803e3d6000fd5b505050506040513d601f19601f820116820180604052508101906125f59190615265565b90506000600760008a81526020019081526020016000206001016000858481518110612623576126236150fb565b60200260200101516001600160a01b03166001600160a01b0316815260200190815260200160002060006101000a81548160ff021916908360ff160217905550877ff13ce89e57ea348ff8e29c4131c87b4d1b50ecf4edb1c68288b5e0cd3985b3f98860405161269591815260200190565b60405180910390a260008881526007602052604090208054829081106126bd576126bd6150fb565b6000918252602090912001805473ffffffffffffffffffffffffffffffffffffffff191690555061271c565b6040516000815287907ff13ce89e57ea348ff8e29c4131c87b4d1b50ecf4edb1c68288b5e0cd3985b3f990602001611fac565b50505050505050565b600083815260076020819052604090912001548390421061277b5760405162461bcd60e51b815260206004820152601060248201526f1413d31650d5531157d156141254915160821b6044820152606401610980565b6000818152600760205260408082206002015460015491516302571be360e01b8152600481018290529092916001600160a01b0316906302571be390602401602060405180830381865afa1580156127d7573d6000803e3d6000fd5b505050506040513d601f19601f820116820180604052508101906127fb9190615061565b90506001600160a01b03811633148061283757506001600160a01b038116600090815260086020908152604080832033845290915290205460ff165b6128835760405162461bcd60e51b815260206004820152600960248201527f4e4f545f4f574e455200000000000000000000000000000000000000000000006044820152606401610980565b6000868152600760209081526040808320805482518185028101850190935280835291929091908301828280156128e357602002820191906000526020600020905b81546001600160a01b031681526001909101906020018083116128c5575b5050505050905060006007600089815260200190815260200160002060030180548060200260200160405190810160405280929190818152602001828054801561294c57602002820191906000526020600020905b815481526020019060010190808311612938575b50506040517f6fd8c68500000000000000000000000000000000000000000000000000000000815293945073__$47e4ffaaf323c41735ff299f8946896ce0$__93636fd8c68593506129a692508a915085906004016152c4565b602060405180830381865af41580156129c3573d6000803e3d6000fd5b505050506040513d601f19601f820116820180604052508101906129e791906150de565b15612bdd576040517fda92b9ed00000000000000000000000000000000000000000000000000000000815260009073__$47e4ffaaf323c41735ff299f8946896ce0$__9063da92b9ed90612a41908a9086906004016152c4565b602060405180830381865af4158015612a5e573d6000803e3d6000fd5b505050506040513d601f19601f82011682018060405250810190612a829190615265565b90508760ff16600760008b81526020019081526020016000206001016000858481518110612ab257612ab26150fb565b6020908102919091018101516001600160a01b031682528101919091526040016000205460ff1603612b265760405162461bcd60e51b815260206004820152600b60248201527f52554c455f4558495354530000000000000000000000000000000000000000006044820152606401610980565b87600760008b81526020019081526020016000206001016000858481518110612b5157612b516150fb565b60200260200101516001600160a01b03166001600160a01b0316815260200190815260200160002060006101000a81548160ff021916908360ff160217905550887f12bf96b3da46c044c59d8b13a96d1a5f53adf413cbe17f743ac2ed2c285257de888a604051612bcf92919091825260ff16602082015260400190565b60405180910390a250612c19565b6040517f5adb3bc70000000000000000000000000000000000000000000000000000000081526004810189905260248101879052604401610980565b5050505050505050565b6002546040516000916001600160a01b03169047908381818185875af1925050503d8060008114612c70576040519150601f19603f3d011682016040523d82523d6000602084013e612c75565b606091505b5050905080612cc65760405162461bcd60e51b815260206004820152601360248201527f4554485f5452414e534645525f4641494c4544000000000000000000000000006044820152606401610980565b50565b6000828152600760208190526040909120015482904210612d1f5760405162461bcd60e51b815260206004820152601060248201526f1413d31650d5531157d156141254915160821b6044820152606401610980565b6000818152600760205260408082206002015460015491516302571be360e01b8152600481018290529092916001600160a01b0316906302571be390602401602060405180830381865afa158015612d7b573d6000803e3d6000fd5b505050506040513d601f19601f82011682018060405250810190612d9f9190615061565b90506001600160a01b038116331480612ddb57506001600160a01b038116600090815260086020908152604080832033845290915290205460ff165b612e275760405162461bcd60e51b815260206004820152600960248201527f4e4f545f4f574e455200000000000000000000000000000000000000000000006044820152606401610980565b600085815260076020526040908190206002018590555185907f4810581adf2c16a86a375dbb1ed89b0b0f7e64d48d24e1948b3dfe6581e4d795906111d89087815260200190565b6002546001600160a01b03163314612ec95760405162461bcd60e51b815260206004820152600760248201527f4e4f545f444556000000000000000000000000000000000000000000000000006044820152606401610980565b600254604080516001600160a01b03928316815291831660208301527fdec101f106d4fc7c85791843e64b198248c822298e3ed7046231d33f7783d816910160405180910390a16002805473ffffffffffffffffffffffffffffffffffffffff19166001600160a01b0392909216919091179055565b600054604080517f4d3f7334000000000000000000000000000000000000000000000000000000008152905184926001600160a01b031691634d3f73349160048083019260809291908290030181865afa158015612fa1573d6000803e3d6000fd5b505050506040513d601f19601f82011682018060405250810190612fc59190615191565b606001516005805473ffffffffffffffffffffffffffffffffffffffff19166001600160a01b039092169190911790556000818152600760208190526040909120015442106130495760405162461bcd60e51b815260206004820152601060248201526f1413d31650d5531157d156141254915160821b6044820152606401610980565b6000818152600760205260408082206002015460015491516302571be360e01b8152600481018290529092916001600160a01b0316906302571be390602401602060405180830381865afa1580156130a5573d6000803e3d6000fd5b505050506040513d601f19601f820116820180604052508101906130c99190615061565b6005549091506001600160a01b03163314806130ed57506001600160a01b03811633145b8061311b57506001600160a01b038116600090815260086020908152604080832033845290915290205460ff165b8061313f57506000838152600760205260409020600601546001600160a01b031633145b61318b5760405162461bcd60e51b815260206004820152600e60248201527f4e4f545f415554484f52495345440000000000000000000000000000000000006044820152606401610980565b6000858152600760209081526040808320600301805482518185028101850190935280835291929091908301828280156131e457602002820191906000526020600020905b8154815260200190600101908083116131d0575b50505060008981526007602090815260408083208054825181850281018501909352808352969750929590945091925083018282801561324d57602002820191906000526020600020905b81546001600160a01b0316815260019091019060200180831161322f575b50506040517f6fd8c68500000000000000000000000000000000000000000000000000000000815293945073__$47e4ffaaf323c41735ff299f8946896ce0$__93636fd8c68593506132a792508a915086906004016152c4565b602060405180830381865af41580156132c4573d6000803e3d6000fd5b505050506040513d601f19601f820116820180604052508101906132e891906150de565b156134a5576040517fda92b9ed00000000000000000000000000000000000000000000000000000000815260009073__$47e4ffaaf323c41735ff299f8946896ce0$__9063da92b9ed90613342908a9087906004016152c4565b602060405180830381865af415801561335f573d6000803e3d6000fd5b505050506040513d601f19601f820116820180604052508101906133839190615265565b90506000600760008a815260200190815260200160002060010160008484815181106133b1576133b16150fb565b60200260200101516001600160a01b03166001600160a01b0316815260200190815260200160002060006101000a81548160ff021916908360ff160217905550600760008981526020019081526020016000206003018181548110613418576134186150fb565b600091825260208083209091018290558982526007905260409020805482908110613445576134456150fb565b600091825260209182902001805473ffffffffffffffffffffffffffffffffffffffff1916905560405188815289917f5c379d054844760656a56e062f50208b458cfa0c4427574f5a2828d19602b4e9910160405180910390a25061271c565b6040517f5adb3bc70000000000000000000000000000000000000000000000000000000081526004810188905260248101879052604401610980565b60008381526007602081905260409091200154839042106135375760405162461bcd60e51b815260206004820152601060248201526f1413d31650d5531157d156141254915160821b6044820152606401610980565b6000818152600760205260408082206002015460015491516302571be360e01b8152600481018290529092916001600160a01b0316906302571be390602401602060405180830381865afa158015613593573d6000803e3d6000fd5b505050506040513d601f19601f820116820180604052508101906135b79190615061565b90506001600160a01b0381163314806135f357506001600160a01b038116600090815260086020908152604080832033845290915290205460ff165b61363f5760405162461bcd60e51b815260206004820152600960248201527f4e4f545f4f574e455200000000000000000000000000000000000000000000006044820152606401610980565b6136498685610bff565b6136955760405162461bcd60e51b815260206004820152600b60248201527f484f4f4b5f4558495354530000000000000000000000000000000000000000006044820152606401610980565b6000868152600760208181526040808420805460018082018355828752848720909101805473ffffffffffffffffffffffffffffffffffffffff19166001600160a01b038c169081179091558087528183018552838720805460ff191660ff8e169081179091559585526003909201805491820181558652948390209094018b905580519384529083019190915287917fc733a2bc621cc97eef6ed4f708f126e72e6acb76c0a1c0461c9dd31f7b9870659101611fac565b3360008181526008602090815260408083206001600160a01b03871680855290835292819020805460ff191686151590811790915590519081529192917f17307eab39ab6107e8899845ad3d59bd9653f200f220920489ca2b5937696c31910160405180910390a35050565b6001546040516302571be360e01b81526004810184905260009182916001600160a01b03909116906302571be390602401602060405180830381865afa158015613807573d6000803e3d6000fd5b505050506040513d601f19601f8201168201806040525081019061382b9190615061565b6001600160a01b0390811660009081526008602090815260408083209387168352929052205460ff1691505092915050565b600081815260076020819052604082200154829042106138b25760405162461bcd60e51b815260206004820152601060248201526f1413d31650d5531157d156141254915160821b6044820152606401610980565b505060009081526007602052604090206004015490565b600054604080517f4d3f7334000000000000000000000000000000000000000000000000000000008152905184926001600160a01b031691634d3f73349160048083019260809291908290030181865afa15801561392b573d6000803e3d6000fd5b505050506040513d601f19601f8201168201806040525081019061394f9190615191565b606001516005805473ffffffffffffffffffffffffffffffffffffffff19166001600160a01b039092169190911790556000818152600760208190526040909120015442106139d35760405162461bcd60e51b815260206004820152601060248201526f1413d31650d5531157d156141254915160821b6044820152606401610980565b6000818152600760205260408082206002015460015491516302571be360e01b8152600481018290529092916001600160a01b0316906302571be390602401602060405180830381865afa158015613a2f573d6000803e3d6000fd5b505050506040513d601f19601f82011682018060405250810190613a539190615061565b6005549091506001600160a01b0316331480613a7757506001600160a01b03811633145b80613aa557506001600160a01b038116600090815260086020908152604080832033845290915290205460ff165b80613ac957506000838152600760205260409020600601546001600160a01b031633145b613b155760405162461bcd60e51b815260206004820152600e60248201527f4e4f545f415554484f52495345440000000000000000000000000000000000006044820152606401610980565b60008581526007602052604090819020600601805486151574010000000000000000000000000000000000000000027fffffffffffffffffffffff00ffffffffffffffffffffffffffffffffffffffff9091161790555185907fe6ccdb52b4954ab2c3e293f1dbfe593e6c5630962a1944bfcf20c5563eeb8462906111d890871515815260200190565b600054604080517f4d3f7334000000000000000000000000000000000000000000000000000000008152905184926001600160a01b031691634d3f73349160048083019260809291908290030181865afa158015613c01573d6000803e3d6000fd5b505050506040513d601f19601f82011682018060405250810190613c259190615191565b606001516005805473ffffffffffffffffffffffffffffffffffffffff19166001600160a01b03909216919091179055600081815260076020819052604090912001544210613ca95760405162461bcd60e51b815260206004820152601060248201526f1413d31650d5531157d156141254915160821b6044820152606401610980565b6000818152600760205260408082206002015460015491516302571be360e01b8152600481018290529092916001600160a01b0316906302571be390602401602060405180830381865afa158015613d05573d6000803e3d6000fd5b505050506040513d601f19601f82011682018060405250810190613d299190615061565b6005549091506001600160a01b0316331480613d4d57506001600160a01b03811633145b80613d7b57506001600160a01b038116600090815260086020908152604080832033845290915290205460ff165b80613d9f57506000838152600760205260409020600601546001600160a01b031633145b613deb5760405162461bcd60e51b815260206004820152600e60248201527f4e4f545f415554484f52495345440000000000000000000000000000000000006044820152606401610980565b600085815260076020908152604091829020600601805473ffffffffffffffffffffffffffffffffffffffff19166001600160a01b038816908117909155915191825286917fe5108446a6097aab57fd36f346a515a78fddefa87d81662d44e0d7a463f9209591016111d8565b600054604080517f4d3f7334000000000000000000000000000000000000000000000000000000008152905184926001600160a01b031691634d3f73349160048083019260809291908290030181865afa158015613eba573d6000803e3d6000fd5b505050506040513d601f19601f82011682018060405250810190613ede9190615191565b606001516005805473ffffffffffffffffffffffffffffffffffffffff19166001600160a01b03909216919091179055600081815260076020819052604090912001544210613f625760405162461bcd60e51b815260206004820152601060248201526f1413d31650d5531157d156141254915160821b6044820152606401610980565b6000818152600760205260408082206002015460015491516302571be360e01b8152600481018290529092916001600160a01b0316906302571be390602401602060405180830381865afa158015613fbe573d6000803e3d6000fd5b505050506040513d601f19601f82011682018060405250810190613fe29190615061565b6005549091506001600160a01b031633148061400657506001600160a01b03811633145b8061403457506001600160a01b038116600090815260086020908152604080832033845290915290205460ff165b8061405857506000838152600760205260409020600601546001600160a01b031633145b6140a45760405162461bcd60e51b815260206004820152600e60248201527f4e4f545f415554484f52495345440000000000000000000000000000000000006044820152606401610980565b600085815260076020908152604091829020600501805473ffffffffffffffffffffffffffffffffffffffff19166001600160a01b038816908117909155915191825286917fcb71326aeaad88869e8be8be2893e1119f7617ce4ea2411af127e218909be1f791016111d8565b600081815260076020819052604082200154829042106141665760405162461bcd60e51b815260206004820152601060248201526f1413d31650d5531157d156141254915160821b6044820152606401610980565b50506000908152600760205260409020600601546001600160a01b031690565b600054604080517f4d3f7334000000000000000000000000000000000000000000000000000000008152905186926001600160a01b031691634d3f73349160048083019260809291908290030181865afa1580156141e8573d6000803e3d6000fd5b505050506040513d601f19601f8201168201806040525081019061420c9190615191565b606001516005805473ffffffffffffffffffffffffffffffffffffffff19166001600160a01b039092169190911790556000818152600760208190526040909120015442106142905760405162461bcd60e51b815260206004820152601060248201526f1413d31650d5531157d156141254915160821b6044820152606401610980565b6000818152600760205260408082206002015460015491516302571be360e01b8152600481018290529092916001600160a01b0316906302571be390602401602060405180830381865afa1580156142ec573d6000803e3d6000fd5b505050506040513d601f19601f820116820180604052508101906143109190615061565b6005549091506001600160a01b031633148061433457506001600160a01b03811633145b8061436257506001600160a01b038116600090815260086020908152604080832033845290915290205460ff165b8061438657506000838152600760205260409020600601546001600160a01b031633145b6143d25760405162461bcd60e51b815260206004820152600e60248201527f4e4f545f415554484f52495345440000000000000000000000000000000000006044820152606401610980565b6143dc8787614a1e565b6144285760405162461bcd60e51b815260206004820152600c60248201527f414e494f4e5f45584953545300000000000000000000000000000000000000006044820152606401610980565b6144328786610bff565b61447e5760405162461bcd60e51b815260206004820152600b60248201527f484f4f4b5f4558495354530000000000000000000000000000000000000000006044820152606401610980565b60008781526007602090815260408083206001600160a01b038916845260010190915290205460ff8086169116036144f85760405162461bcd60e51b815260206004820152600b60248201527f52554c455f4558495354530000000000000000000000000000000000000000006044820152606401610980565b600087815260076020908152604080832060038101805460018082018355918652848620018b90558154808201835582865284862001805473ffffffffffffffffffffffffffffffffffffffff19166001600160a01b038c16908117909155909452929092018152905187815288917f600ffddd29393ca43c0a11fa6b0b7096631364178cb42f9d546c0a2cd22525ee910160405180910390a2604080516001600160a01b038716815260ff8616602082015288917fc733a2bc621cc97eef6ed4f708f126e72e6acb76c0a1c0461c9dd31f7b9870659101611fac565b600082815260076020819052604090912001548290421061462b5760405162461bcd60e51b815260206004820152601060248201526f1413d31650d5531157d156141254915160821b6044820152606401610980565b6000818152600760205260408082206002015460015491516302571be360e01b8152600481018290529092916001600160a01b0316906302571be390602401602060405180830381865afa158015614687573d6000803e3d6000fd5b505050506040513d601f19601f820116820180604052508101906146ab9190615061565b90506001600160a01b0381163314806146e757506001600160a01b038116600090815260086020908152604080832033845290915290205460ff165b8061470b57506000838152600760205260409020600601546001600160a01b031633145b6147575760405162461bcd60e51b815260206004820152601760248201527f4e4f545f4f574e45525f4f525f434f4e54524f4c4c45520000000000000000006044820152606401610980565b6000858152600760208190526040909120015484116147b85760405162461bcd60e51b815260206004820152600a60248201527f4241445f455850495259000000000000000000000000000000000000000000006044820152606401610980565b60008054906101000a90046001600160a01b03166001600160a01b0316634d3f73346040518163ffffffff1660e01b8152600401608060405180830381865afa158015614809573d6000803e3d6000fd5b505050506040513d601f19601f8201168201806040525081019061482d9190615191565b6020908101516005805473ffffffffffffffffffffffffffffffffffffffff19166001600160a01b039092169190911790556000868152600791829052604081209091015461487c9086615305565b90506004548161488c9190615318565b3410156148db5760405162461bcd60e51b815260206004820152601260248201527f494e53554646494349454e545f455448455200000000000000000000000000006044820152606401610980565b600086815260076020819052604091829020018690555186907fa620b72378ee464490805a96e25b53e5c0076f0ce2d28f9691ae255a595b3bf390610b769088815260200190565b600081815260076020819052604082200154829042106149785760405162461bcd60e51b815260206004820152601060248201526f1413d31650d5531157d156141254915160821b6044820152606401610980565b6000838152600760205260408082206002015460015491516302571be360e01b8152600481018290529092916001600160a01b0316906302571be390602401602060405180830381865afa1580156149d4573d6000803e3d6000fd5b505050506040513d601f19601f820116820180604052508101906149f89190615061565b9050306001600160a01b03821603614a165760035493505050610bf9565b509392505050565b60008281526007602052604080822090517f6fd8c68500000000000000000000000000000000000000000000000000000000815273__$47e4ffaaf323c41735ff299f8946896ce0$__91636fd8c68591610c6691869160039091019060040161527e565b5080546000825590600052602060002090810190612cc691905b80821115614ab05760008155600101614a9c565b5090565b803560ff81168114614ac557600080fd5b919050565b6001600160a01b0381168114612cc657600080fd5b600080600060608486031215614af457600080fd5b83359250614b0460208501614ab4565b91506040840135614b1481614aca565b809150509250925092565b600060208284031215614b3157600080fd5b5035919050565b60008060408385031215614b4b57600080fd5b823591506020830135614b5d81614aca565b809150509250929050565b604080825283519082018190526000906020906060840190828701845b82811015614baa5781516001600160a01b031684529284019290840190600101614b85565b5050508381038285015284518082528583019183019060005b81811015614be257835160ff1683529284019291840191600101614bc3565b5090979650505050505050565b6020808252825182820181905260009190848201906040850190845b81811015614c2757835183529284019291840191600101614c0b565b50909695505050505050565b60008060408385031215614c4657600080fd5b50508035926020909101359150565b7f4e487b7100000000000000000000000000000000000000000000000000000000600052604160045260246000fd5b604051601f82017fffffffffffffffffffffffffffffffffffffffffffffffffffffffffffffffe016810167ffffffffffffffff81118282101715614ccb57614ccb614c55565b604052919050565b600067ffffffffffffffff821115614ced57614ced614c55565b5060051b60200190565b600082601f830112614d0857600080fd5b81356020614d1d614d1883614cd3565b614c84565b82815260059290921b84018101918181019086841115614d3c57600080fd5b8286015b84811015614d575780358352918301918301614d40565b509695505050505050565b600082601f830112614d7357600080fd5b81356020614d83614d1883614cd3565b82815260059290921b84018101918181019086841115614da257600080fd5b8286015b84811015614d57578035614db981614aca565b8352918301918301614da6565b60008060408385031215614dd957600080fd5b823567ffffffffffffffff80821115614df157600080fd5b614dfd86838701614cf7565b93506020850135915080821115614e1357600080fd5b50614e2085828601614d62565b9150509250929050565b60008060008060808587031215614e4057600080fd5b8435935060208086013567ffffffffffffffff80821115614e6057600080fd5b614e6c89838a01614cf7565b95506040880135915080821115614e8257600080fd5b614e8e89838a01614d62565b94506060880135915080821115614ea457600080fd5b508601601f81018813614eb657600080fd5b8035614ec4614d1882614cd3565b81815260059190911b8201830190838101908a831115614ee357600080fd5b928401925b82841015614f0857614ef984614ab4565b82529284019290840190614ee8565b979a9699509497505050505050565b600080600060608486031215614f2c57600080fd5b83359250614f3c60208501614ab4565b9150604084013590509250925092565b600060208284031215614f5e57600080fd5b8135614f6981614aca565b9392505050565b60008060008060808587031215614f8657600080fd5b8435935060208501359250614f9d60408601614ab4565b91506060850135614fad81614aca565b939692955090935050565b8015158114612cc657600080fd5b60008060408385031215614fd957600080fd5b8235614fe481614aca565b91506020830135614b5d81614fb8565b6000806040838503121561500757600080fd5b823591506020830135614b5d81614fb8565b6000806000806080858703121561502f57600080fd5b8435935060208501359250604085013561504881614aca565b915061505660608601614ab4565b905092959194509250565b60006020828403121561507357600080fd5b8151614f6981614aca565b6000604082016001600160a01b03808616845260206040818601528286548085526060870191508760005282600020945060005b818110156150d05785548516835260019586019592840192016150b2565b509098975050505050505050565b6000602082840312156150f057600080fd5b8151614f6981614fb8565b7f4e487b7100000000000000000000000000000000000000000000000000000000600052603260045260246000fd5b7f4e487b7100000000000000000000000000000000000000000000000000000000600052601160045260246000fd5b60007fffffffffffffffffffffffffffffffffffffffffffffffffffffffffffffffff820361518a5761518a61512a565b5060010190565b6000608082840312156151a357600080fd5b82601f8301126151b257600080fd5b6040516080810181811067ffffffffffffffff821117156151d5576151d5614c55565b6040528060808401858111156151ea57600080fd5b845b8181101561520d5780516151ff81614aca565b8352602092830192016151ec565b509195945050505050565b6000604082016001600160a01b0380861684526020604081860152828651808552606087019150828801945060005b818110156150d0578551851683529483019491830191600101615247565b60006020828403121561527757600080fd5b5051919050565b60006040820184835260206040818501528185548084526060860191508660005282600020935060005b81811015614be2578454835260019485019492840192016152a8565b6000604082018483526020604081850152818551808452606086019150828701935060005b81811015614be2578451835293830193918301916001016152e9565b81810381811115610cab57610cab61512a565b6000817fffffffffffffffffffffffffffffffffffffffffffffffffffffffffffffffff04831182151516156153505761535061512a565b50029056fea2646970667358221220e01f04bcbe1a0680298cbab9fd05f3b8befc8fd000c5d04b0d05207ebfbe133664736f6c63430008100033",
    "linkReferences": {
      "src/Utils/LibString.sol": {
        "LibString": [
          {
            "start": 5301,
            "length": 20
          },
          {
            "start": 8420,
            "length": 20
          },
          {
            "start": 8587,
            "length": 20
          },
          {
            "start": 9717,
            "length": 20
          },
          {
            "start": 11628,
            "length": 20
          },
          {
            "start": 11786,
            "length": 20
          },
          {
            "start": 12793,
            "length": 20
          },
          {
            "start": 12951,
            "length": 20
          },
          {
            "start": 15098,
            "length": 20
          },
          {
            "start": 15256,
            "length": 20
          },
          {
            "start": 21204,
            "length": 20
          }
        ]
      }
    }
  },
  "methodIdentifiers": {
    "Dev()": "01e51ae8",
    "HELIX2()": "b782426e",
    "NAMES()": "05e84aa0",
    "Polycules(bytes32)": "75c4f68e",
    "Registrar()": "b9f37c86",
    "active()": "02fb0c5e",
    "addAnion(bytes32,bytes32,address,uint8)": "e73f8060",
    "alias_(bytes32)": "c5bc4c0b",
    "anion(bytes32)": "0e68b116",
    "basePrice()": "c7876ea4",
    "cation(bytes32)": "f61ccd53",
    "changeDev(address)": "88a8c95c",
    "controller(bytes32)": "dbd4e021",
    "covalence(bytes32)": "34026859",
    "expiry(bytes32)": "d2ec5fca",
    "hook(bytes32,bytes32,uint8,address)": "9e162dfa",
    "hooksWithRules(bytes32)": "0aac6625",
    "isApprovedForAll(bytes32,address)": "b0698628",
    "isLegalMap(bytes32[],address[])": "1f10ea07",
    "isNotDuplicateAnion(bytes32,bytes32)": "f8c91244",
    "isNotDuplicateHook(bytes32,address)": "049a491c",
    "popAnion(bytes32,bytes32)": "8dcad139",
    "recordExists(bytes32)": "f79fe538",
    "register(bytes32,bytes32)": "2f926732",
    "rehook(bytes32,uint8,address)": "015399e6",
    "rehook(bytes32,uint8,bytes32)": "5b55b376",
    "renew(bytes32,uint256)": "f544d82f",
    "resolver(bytes32)": "0178b8bf",
    "roothash()": "251c9422",
    "setAlias(bytes32,bytes32)": "1f06e91c",
    "setAnions(bytes32,bytes32[],address[],uint8[])": "250548b9",
    "setApprovalForAll(address,bool)": "a22cb465",
    "setCation(bytes32,bytes32)": "8146970a",
    "setController(bytes32,address)": "d3156905",
    "setCovalence(bytes32,bool)": "d07699aa",
    "setExpiry(bytes32,uint256)": "39de6469",
    "setRecord(bytes32,address)": "d9b76ed4",
    "setResolver(bytes32,address)": "1896f70a",
    "theEnd()": "22b68deb",
    "unhook(bytes32,address)": "241270d5",
    "unhook(bytes32,bytes32)": "516aeda0",
    "unhookAll(bytes32)": "21ec2b5b",
    "withdrawEther()": "7362377b"
  },
  "id": 35
}