{
  "abi": [
    {
      "inputs": [
        {
          "internalType": "address",
          "name": "_registry",
          "type": "address"
        },
        {
          "internalType": "address",
          "name": "_helix2",
          "type": "address"
        }
      ],
      "stateMutability": "nonpayable",
      "type": "constructor"
    },
    {
      "inputs": [],
      "name": "BAD_ANION",
      "type": "error"
    },
    {
      "inputs": [],
      "name": "BAD_HOOK",
      "type": "error"
    },
    {
      "anonymous": false,
      "inputs": [
        {
          "indexed": true,
          "internalType": "address",
          "name": "cation",
          "type": "address"
        },
        {
          "indexed": true,
          "internalType": "address",
          "name": "operator",
          "type": "address"
        },
        {
          "indexed": false,
          "internalType": "bool",
          "name": "approved",
          "type": "bool"
        }
      ],
      "name": "ApprovalForAll",
      "type": "event"
    },
    {
      "anonymous": false,
      "inputs": [
        {
          "indexed": true,
          "internalType": "bytes32",
          "name": "polyhash",
          "type": "bytes32"
        },
        {
          "indexed": false,
          "internalType": "address",
          "name": "config",
          "type": "address"
        },
        {
          "indexed": false,
          "internalType": "uint8",
          "name": "rule",
          "type": "uint8"
        }
      ],
      "name": "Hooked",
      "type": "event"
    },
    {
      "anonymous": false,
      "inputs": [
        {
          "indexed": true,
          "internalType": "bytes32",
          "name": "polyhash",
          "type": "bytes32"
        },
        {
          "indexed": false,
          "internalType": "bytes32",
          "name": "anion",
          "type": "bytes32"
        }
      ],
      "name": "NewAnion",
      "type": "event"
    },
    {
      "anonymous": false,
      "inputs": [
        {
          "indexed": true,
          "internalType": "bytes32",
          "name": "polyhash",
          "type": "bytes32"
        },
        {
          "indexed": false,
          "internalType": "bytes32[]",
          "name": "anion",
          "type": "bytes32[]"
        }
      ],
      "name": "NewAnions",
      "type": "event"
    },
    {
      "anonymous": false,
      "inputs": [
        {
          "indexed": true,
          "internalType": "bytes32",
          "name": "polyhash",
          "type": "bytes32"
        },
        {
          "indexed": false,
          "internalType": "bytes32",
          "name": "cation",
          "type": "bytes32"
        }
      ],
      "name": "NewCation",
      "type": "event"
    },
    {
      "anonymous": false,
      "inputs": [
        {
          "indexed": true,
          "internalType": "bytes32",
          "name": "polyhash",
          "type": "bytes32"
        },
        {
          "indexed": false,
          "internalType": "address",
          "name": "controller",
          "type": "address"
        }
      ],
      "name": "NewController",
      "type": "event"
    },
    {
      "anonymous": false,
      "inputs": [
        {
          "indexed": true,
          "internalType": "bytes32",
          "name": "polyhash",
          "type": "bytes32"
        },
        {
          "indexed": false,
          "internalType": "bool",
          "name": "covalence",
          "type": "bool"
        }
      ],
      "name": "NewCovalence",
      "type": "event"
    },
    {
      "anonymous": false,
      "inputs": [
        {
          "indexed": false,
          "internalType": "address",
          "name": "Dev",
          "type": "address"
        },
        {
          "indexed": false,
          "internalType": "address",
          "name": "newDev",
          "type": "address"
        }
      ],
      "name": "NewDev",
      "type": "event"
    },
    {
      "anonymous": false,
      "inputs": [
        {
          "indexed": true,
          "internalType": "bytes32",
          "name": "polyhash",
          "type": "bytes32"
        },
        {
          "indexed": false,
          "internalType": "uint256",
          "name": "expiry",
          "type": "uint256"
        }
      ],
      "name": "NewExpiry",
      "type": "event"
    },
    {
      "anonymous": false,
      "inputs": [
        {
          "indexed": true,
          "internalType": "bytes32",
          "name": "polyhash",
          "type": "bytes32"
        },
        {
          "indexed": false,
          "internalType": "address",
          "name": "resolver",
          "type": "address"
        }
      ],
      "name": "NewRecord",
      "type": "event"
    },
    {
      "anonymous": false,
      "inputs": [
        {
          "indexed": true,
          "internalType": "bytes32",
          "name": "polyhash",
          "type": "bytes32"
        },
        {
          "indexed": false,
          "internalType": "address",
          "name": "resolver",
          "type": "address"
        }
      ],
      "name": "NewResolver",
      "type": "event"
    },
    {
      "anonymous": false,
      "inputs": [
        {
          "indexed": true,
          "internalType": "bytes32",
          "name": "polyhash",
          "type": "bytes32"
        },
        {
          "indexed": false,
          "internalType": "bytes32",
          "name": "anion",
          "type": "bytes32"
        }
      ],
      "name": "PopAnion",
      "type": "event"
    },
    {
      "anonymous": false,
      "inputs": [
        {
          "indexed": true,
          "internalType": "bytes32",
          "name": "polyhash",
          "type": "bytes32"
        },
        {
          "indexed": false,
          "internalType": "bytes32",
          "name": "anion",
          "type": "bytes32"
        },
        {
          "indexed": false,
          "internalType": "uint8",
          "name": "rule",
          "type": "uint8"
        }
      ],
      "name": "RehookedAnion",
      "type": "event"
    },
    {
      "anonymous": false,
      "inputs": [
        {
          "indexed": true,
          "internalType": "bytes32",
          "name": "polyhash",
          "type": "bytes32"
        },
        {
          "indexed": false,
          "internalType": "address",
          "name": "config",
          "type": "address"
        },
        {
          "indexed": false,
          "internalType": "uint8",
          "name": "rule",
          "type": "uint8"
        }
      ],
      "name": "RehookedConfig",
      "type": "event"
    },
    {
      "anonymous": false,
      "inputs": [
        {
          "indexed": true,
          "internalType": "bytes32",
          "name": "polyhash",
          "type": "bytes32"
        }
      ],
      "name": "UnhookedAll",
      "type": "event"
    },
    {
      "anonymous": false,
      "inputs": [
        {
          "indexed": true,
          "internalType": "bytes32",
          "name": "polyhash",
          "type": "bytes32"
        },
        {
          "indexed": false,
          "internalType": "bytes32",
          "name": "anion",
          "type": "bytes32"
        }
      ],
      "name": "UnhookedAnion",
      "type": "event"
    },
    {
      "anonymous": false,
      "inputs": [
        {
          "indexed": true,
          "internalType": "bytes32",
          "name": "polyhash",
          "type": "bytes32"
        },
        {
          "indexed": false,
          "internalType": "uint8",
          "name": "rule",
          "type": "uint8"
        }
      ],
      "name": "UnhookedConfig",
      "type": "event"
    },
    {
      "inputs": [],
      "name": "Dev",
      "outputs": [
        {
          "internalType": "address",
          "name": "",
          "type": "address"
        }
      ],
      "stateMutability": "view",
      "type": "function"
    },
    {
      "inputs": [],
      "name": "HELIX2",
      "outputs": [
        {
          "internalType": "contract iHELIX2",
          "name": "",
          "type": "address"
        }
      ],
      "stateMutability": "view",
      "type": "function"
    },
    {
      "inputs": [],
      "name": "NAMES",
      "outputs": [
        {
          "internalType": "contract iNAME",
          "name": "",
          "type": "address"
        }
      ],
      "stateMutability": "view",
      "type": "function"
    },
    {
      "inputs": [
        {
          "internalType": "bytes32",
          "name": "",
          "type": "bytes32"
        }
      ],
      "name": "Polycules",
      "outputs": [
        {
          "internalType": "bytes32",
          "name": "_cation",
          "type": "bytes32"
        },
        {
          "internalType": "bytes32",
          "name": "_alias",
          "type": "bytes32"
        },
        {
          "internalType": "address",
          "name": "_resolver",
          "type": "address"
        },
        {
          "internalType": "address",
          "name": "_controller",
          "type": "address"
        },
        {
          "internalType": "bool",
          "name": "_covalence",
          "type": "bool"
        },
        {
          "internalType": "uint256",
          "name": "_expiry",
          "type": "uint256"
        }
      ],
      "stateMutability": "view",
      "type": "function"
    },
    {
      "inputs": [],
      "name": "Registrar",
      "outputs": [
        {
          "internalType": "address",
          "name": "",
          "type": "address"
        }
      ],
      "stateMutability": "view",
      "type": "function"
    },
    {
      "inputs": [],
      "name": "active",
      "outputs": [
        {
          "internalType": "bool",
          "name": "",
          "type": "bool"
        }
      ],
      "stateMutability": "view",
      "type": "function"
    },
    {
      "inputs": [
        {
          "internalType": "bytes32",
          "name": "polyhash",
          "type": "bytes32"
        },
        {
          "internalType": "bytes32",
          "name": "_anion",
          "type": "bytes32"
        },
        {
          "internalType": "address",
          "name": "config",
          "type": "address"
        },
        {
          "internalType": "uint8",
          "name": "rule",
          "type": "uint8"
        }
      ],
      "name": "addAnion",
      "outputs": [],
      "stateMutability": "nonpayable",
      "type": "function"
    },
    {
      "inputs": [
        {
          "internalType": "bytes32",
          "name": "polyhash",
          "type": "bytes32"
        }
      ],
      "name": "alias_",
      "outputs": [
        {
          "internalType": "bytes32",
          "name": "",
          "type": "bytes32"
        }
      ],
      "stateMutability": "view",
      "type": "function"
    },
    {
      "inputs": [
        {
          "internalType": "bytes32",
          "name": "polyhash",
          "type": "bytes32"
        }
      ],
      "name": "anion",
      "outputs": [
        {
          "internalType": "bytes32[]",
          "name": "",
          "type": "bytes32[]"
        }
      ],
      "stateMutability": "view",
      "type": "function"
    },
    {
      "inputs": [],
      "name": "basePrice",
      "outputs": [
        {
          "internalType": "uint256",
          "name": "",
          "type": "uint256"
        }
      ],
      "stateMutability": "view",
      "type": "function"
    },
    {
      "inputs": [
        {
          "internalType": "bytes32",
          "name": "polyhash",
          "type": "bytes32"
        }
      ],
      "name": "cation",
      "outputs": [
        {
          "internalType": "bytes32",
          "name": "",
          "type": "bytes32"
        }
      ],
      "stateMutability": "view",
      "type": "function"
    },
    {
      "inputs": [
        {
          "internalType": "address",
          "name": "newDev",
          "type": "address"
        }
      ],
      "name": "changeDev",
      "outputs": [],
      "stateMutability": "nonpayable",
      "type": "function"
    },
    {
      "inputs": [
        {
          "internalType": "bytes32",
          "name": "polyhash",
          "type": "bytes32"
        }
      ],
      "name": "controller",
      "outputs": [
        {
          "internalType": "address",
          "name": "",
          "type": "address"
        }
      ],
      "stateMutability": "view",
      "type": "function"
    },
    {
      "inputs": [
        {
          "internalType": "bytes32",
          "name": "polyhash",
          "type": "bytes32"
        }
      ],
      "name": "covalence",
      "outputs": [
        {
          "internalType": "bool",
          "name": "",
          "type": "bool"
        }
      ],
      "stateMutability": "view",
      "type": "function"
    },
    {
      "inputs": [
        {
          "internalType": "bytes32",
          "name": "polyhash",
          "type": "bytes32"
        }
      ],
      "name": "expiry",
      "outputs": [
        {
          "internalType": "uint256",
          "name": "",
          "type": "uint256"
        }
      ],
      "stateMutability": "view",
      "type": "function"
    },
    {
      "inputs": [
        {
          "internalType": "bytes32",
          "name": "__anion",
          "type": "bytes32"
        },
        {
          "internalType": "bytes32",
          "name": "polyhash",
          "type": "bytes32"
        },
        {
          "internalType": "address",
          "name": "config",
          "type": "address"
        },
        {
          "internalType": "uint8",
          "name": "rule",
          "type": "uint8"
        }
      ],
      "name": "hook",
      "outputs": [],
      "stateMutability": "nonpayable",
      "type": "function"
    },
    {
      "inputs": [
        {
          "internalType": "bytes32",
          "name": "polyhash",
          "type": "bytes32"
        }
      ],
      "name": "hooksWithRules",
      "outputs": [
        {
          "internalType": "uint8[]",
          "name": "_rules",
          "type": "uint8[]"
        },
        {
          "internalType": "address[]",
          "name": "_hooks",
          "type": "address[]"
        }
      ],
      "stateMutability": "view",
      "type": "function"
    },
    {
      "inputs": [
        {
          "internalType": "bytes32",
          "name": "_cation",
          "type": "bytes32"
        },
        {
          "internalType": "address",
          "name": "operator",
          "type": "address"
        }
      ],
      "name": "isApprovedForAll",
      "outputs": [
        {
          "internalType": "bool",
          "name": "",
          "type": "bool"
        }
      ],
      "stateMutability": "view",
      "type": "function"
    },
    {
      "inputs": [
        {
          "internalType": "bytes32[]",
          "name": "_anion",
          "type": "bytes32[]"
        },
        {
          "internalType": "uint8[]",
          "name": "_rule",
          "type": "uint8[]"
        }
      ],
      "name": "isLegalMap",
      "outputs": [
        {
          "internalType": "bool",
          "name": "",
          "type": "bool"
        }
      ],
      "stateMutability": "pure",
      "type": "function"
    },
    {
      "inputs": [
        {
          "internalType": "bytes32",
          "name": "polyhash",
          "type": "bytes32"
        },
        {
          "internalType": "bytes32",
          "name": "_anion",
          "type": "bytes32"
        }
      ],
      "name": "isNotDuplicateAnion",
      "outputs": [
        {
          "internalType": "bool",
          "name": "",
          "type": "bool"
        }
      ],
      "stateMutability": "view",
      "type": "function"
    },
    {
      "inputs": [
        {
          "internalType": "bytes32",
          "name": "polyhash",
          "type": "bytes32"
        },
        {
          "internalType": "uint8",
          "name": "rule",
          "type": "uint8"
        }
      ],
      "name": "isNotDuplicateHook",
      "outputs": [
        {
          "internalType": "bool",
          "name": "",
          "type": "bool"
        }
      ],
      "stateMutability": "view",
      "type": "function"
    },
    {
      "inputs": [
        {
          "internalType": "bytes32",
          "name": "polyhash",
          "type": "bytes32"
        },
        {
          "internalType": "bytes32",
          "name": "__anion",
          "type": "bytes32"
        }
      ],
      "name": "popAnion",
      "outputs": [],
      "stateMutability": "nonpayable",
      "type": "function"
    },
    {
      "inputs": [
        {
          "internalType": "bytes32",
          "name": "polyhash",
          "type": "bytes32"
        }
      ],
      "name": "recordExists",
      "outputs": [
        {
          "internalType": "bool",
          "name": "",
          "type": "bool"
        }
      ],
      "stateMutability": "view",
      "type": "function"
    },
    {
      "inputs": [
        {
          "internalType": "bytes32",
          "name": "polyhash",
          "type": "bytes32"
        },
        {
          "internalType": "bytes32",
          "name": "_cation",
          "type": "bytes32"
        }
      ],
      "name": "register",
      "outputs": [],
      "stateMutability": "nonpayable",
      "type": "function"
    },
    {
      "inputs": [
        {
          "internalType": "bytes32",
          "name": "polyhash",
          "type": "bytes32"
        },
        {
          "internalType": "uint8",
          "name": "rule",
          "type": "uint8"
        },
        {
          "internalType": "bytes32",
          "name": "__anion",
          "type": "bytes32"
        }
      ],
      "name": "rehook",
      "outputs": [],
      "stateMutability": "nonpayable",
      "type": "function"
    },
    {
      "inputs": [
        {
          "internalType": "bytes32",
          "name": "polyhash",
          "type": "bytes32"
        },
        {
          "internalType": "address",
          "name": "config",
          "type": "address"
        },
        {
          "internalType": "uint8",
          "name": "rule",
          "type": "uint8"
        }
      ],
      "name": "rehook",
      "outputs": [],
      "stateMutability": "nonpayable",
      "type": "function"
    },
    {
      "inputs": [
        {
          "internalType": "bytes32",
          "name": "molyhash",
          "type": "bytes32"
        },
        {
          "internalType": "uint256",
          "name": "_expiry",
          "type": "uint256"
        }
      ],
      "name": "renew",
      "outputs": [],
      "stateMutability": "payable",
      "type": "function"
    },
    {
      "inputs": [
        {
          "internalType": "bytes32",
          "name": "polyhash",
          "type": "bytes32"
        }
      ],
      "name": "resolver",
      "outputs": [
        {
          "internalType": "address",
          "name": "",
          "type": "address"
        }
      ],
      "stateMutability": "view",
      "type": "function"
    },
    {
      "inputs": [],
      "name": "roothash",
      "outputs": [
        {
          "internalType": "bytes32",
          "name": "",
          "type": "bytes32"
        }
      ],
      "stateMutability": "view",
      "type": "function"
    },
    {
      "inputs": [
        {
          "internalType": "bytes32",
          "name": "polyhash",
          "type": "bytes32"
        },
        {
          "internalType": "bytes32",
          "name": "_alias",
          "type": "bytes32"
        }
      ],
      "name": "setAlias",
      "outputs": [],
      "stateMutability": "nonpayable",
      "type": "function"
    },
    {
      "inputs": [
        {
          "internalType": "bytes32",
          "name": "polyhash",
          "type": "bytes32"
        },
        {
          "internalType": "bytes32[]",
          "name": "_anion",
          "type": "bytes32[]"
        },
        {
          "internalType": "address[]",
          "name": "_hooks",
          "type": "address[]"
        },
        {
          "internalType": "uint8[]",
          "name": "_rule",
          "type": "uint8[]"
        }
      ],
      "name": "setAnions",
      "outputs": [],
      "stateMutability": "nonpayable",
      "type": "function"
    },
    {
      "inputs": [
        {
          "internalType": "address",
          "name": "operator",
          "type": "address"
        },
        {
          "internalType": "bool",
          "name": "approved",
          "type": "bool"
        }
      ],
      "name": "setApprovalForAll",
      "outputs": [],
      "stateMutability": "nonpayable",
      "type": "function"
    },
    {
      "inputs": [
        {
          "internalType": "bytes32",
          "name": "polyhash",
          "type": "bytes32"
        },
        {
          "internalType": "bytes32",
          "name": "_cation",
          "type": "bytes32"
        }
      ],
      "name": "setCation",
      "outputs": [],
      "stateMutability": "nonpayable",
      "type": "function"
    },
    {
      "inputs": [
        {
          "internalType": "bytes32",
          "name": "polyhash",
          "type": "bytes32"
        },
        {
          "internalType": "address",
          "name": "_controller",
          "type": "address"
        }
      ],
      "name": "setController",
      "outputs": [],
      "stateMutability": "nonpayable",
      "type": "function"
    },
    {
      "inputs": [
        {
          "internalType": "bytes32",
          "name": "polyhash",
          "type": "bytes32"
        },
        {
          "internalType": "bool",
          "name": "_covalence",
          "type": "bool"
        }
      ],
      "name": "setCovalence",
      "outputs": [],
      "stateMutability": "nonpayable",
      "type": "function"
    },
    {
      "inputs": [
        {
          "internalType": "bytes32",
          "name": "molyhash",
          "type": "bytes32"
        },
        {
          "internalType": "uint256",
          "name": "_expiry",
          "type": "uint256"
        }
      ],
      "name": "setExpiry",
      "outputs": [],
      "stateMutability": "nonpayable",
      "type": "function"
    },
    {
      "inputs": [
        {
          "internalType": "bytes32",
          "name": "polyhash",
          "type": "bytes32"
        },
        {
          "internalType": "address",
          "name": "_resolver",
          "type": "address"
        }
      ],
      "name": "setRecord",
      "outputs": [],
      "stateMutability": "nonpayable",
      "type": "function"
    },
    {
      "inputs": [
        {
          "internalType": "bytes32",
          "name": "polyhash",
          "type": "bytes32"
        },
        {
          "internalType": "address",
          "name": "_resolver",
          "type": "address"
        }
      ],
      "name": "setResolver",
      "outputs": [],
      "stateMutability": "nonpayable",
      "type": "function"
    },
    {
      "inputs": [],
      "name": "theEnd",
      "outputs": [
        {
          "internalType": "uint256",
          "name": "",
          "type": "uint256"
        }
      ],
      "stateMutability": "view",
      "type": "function"
    },
    {
      "inputs": [
        {
          "internalType": "bytes32",
          "name": "polyhash",
          "type": "bytes32"
        },
        {
          "internalType": "bytes32",
          "name": "__anion",
          "type": "bytes32"
        }
      ],
      "name": "unhook",
      "outputs": [],
      "stateMutability": "nonpayable",
      "type": "function"
    },
    {
      "inputs": [
        {
          "internalType": "bytes32",
          "name": "polyhash",
          "type": "bytes32"
        },
        {
          "internalType": "uint8",
          "name": "rule",
          "type": "uint8"
        }
      ],
      "name": "unhook",
      "outputs": [],
      "stateMutability": "nonpayable",
      "type": "function"
    },
    {
      "inputs": [
        {
          "internalType": "bytes32",
          "name": "polyhash",
          "type": "bytes32"
        }
      ],
      "name": "unhookAll",
      "outputs": [],
      "stateMutability": "nonpayable",
      "type": "function"
    },
    {
      "inputs": [],
      "name": "withdrawEther",
      "outputs": [],
      "stateMutability": "nonpayable",
      "type": "function"
    }
  ],
  "bytecode": {
    "object": "0x60806040526002805460ff60a01b1916600160a01b1790556703782dace9d900006006553480156200003057600080fd5b5060405162006232380380620062328339810160408190526200005391620007b1565b60028054336001600160a01b0319918216179091556000805482166001600160a01b03848116918217909255600180549093169185169190911790915560408051633215476b60e11b8152905163642a8ed6916004808201926080929091908290030181865afa158015620000cc573d6000803e3d6000fd5b505050506040513d601f19601f82011682018060405250810190620000f2919062000820565b606001516003556000546040805163bd9a548b60e01b815290516001600160a01b039092169163bd9a548b916004808201926080929091908290030181865afa15801562000144573d6000803e3d6000fd5b505050506040513d601f19601f820116820180604052508101906200016a919062000820565b606001516004556200017b62000183565b5050620008c5565b7fb4b4801cca1cad359bff6b5ea99d95160f00cbe1164fb7231c42c3e8b5f2593b80546001600160a01b0319169055604080516020818101909252600080825280526007909152620001f9907f6d5257204ebe7d88fd91ae87941cb2dd9d8062b64ae5a2bd2d28ec40b9fbf6df90600162000692565b5060007f6d5257204ebe7d88fd91ae87941cb2dd9d8062b64ae5a2bd2d28ec40b9fbf6e18190556040805160208181019092528281529180526007905262000265907f6d5257204ebe7d88fd91ae87941cb2dd9d8062b64ae5a2bd2d28ec40b9fbf6e29060016200073f565b50600080805260076020527f6d5257204ebe7d88fd91ae87941cb2dd9d8062b64ae5a2bd2d28ec40b9fbf6e38190557f6d5257204ebe7d88fd91ae87941cb2dd9d8062b64ae5a2bd2d28ec40b9fbf6e580546006547f6d5257204ebe7d88fd91ae87941cb2dd9d8062b64ae5a2bd2d28ec40b9fbf6e6556001600160a81b03191633908117600160a01b179091557f6d5257204ebe7d88fd91ae87941cb2dd9d8062b64ae5a2bd2d28ec40b9fbf6e480546001600160a01b0319169091179055805460408051633215476b60e11b815290516001600160a01b03929092169163642a8ed6916004818101926080929091908290030181865afa15801562000370573d6000803e3d6000fd5b505050506040513d601f19601f8201168201806040525081019062000396919062000820565b905060005b60048110156200068e57600060076000848460048110620003c057620003c062000887565b6020908102919091015182528181019290925260409081016000908120818052600101835281812080546001600160a01b0319166001600160a01b03959095169490941790935580519182019052818152906007908484600481106200042a576200042a62000887565b602002015181526020019081526020016000206000019060016200045092919062000692565b5081816004811062000466576200046662000887565b60200201516007600084846004811062000484576200048462000887565b60200201518152602001908152602001600020600201819055506040518060200160405280838360048110620004be57620004be62000887565b6020020151905260076000848460048110620004de57620004de62000887565b60200201518152602001908152602001600020600301906001620005049291906200073f565b508181600481106200051a576200051a62000887565b60200201516007600084846004811062000538576200053862000887565b60200201518152602001908152602001600020600401819055506001600760008484600481106200056d576200056d62000887565b6020020151815260200190815260200160002060060160146101000a81548160ff02191690831515021790555060065460076000848460048110620005b657620005b662000887565b60200201518152602001908152602001600020600701819055503360076000848460048110620005ea57620005ea62000887565b6020020151815260200190815260200160002060060160006101000a8154816001600160a01b0302191690836001600160a01b0316021790555033600760008484600481106200063e576200063e62000887565b6020020151815260200190815260200160002060050160006101000a8154816001600160a01b0302191690836001600160a01b03160217905550808062000685906200089d565b9150506200039b565b5050565b82805482825590600052602060002090601f016020900481019282156200072d5791602002820160005b83821115620006fc57835183826101000a81548160ff021916908360ff1602179055509260200192600101602081600001049283019260010302620006bc565b80156200072b5782816101000a81549060ff0219169055600101602081600001049283019260010302620006fc565b505b506200073b9291506200077d565b5090565b8280548282559060005260206000209081019282156200072d579160200282015b828111156200072d57825182559160200191906001019062000760565b5b808211156200073b57600081556001016200077e565b80516001600160a01b0381168114620007ac57600080fd5b919050565b60008060408385031215620007c557600080fd5b620007d08362000794565b9150620007e06020840162000794565b90509250929050565b604051608081016001600160401b03811182821017156200081a57634e487b7160e01b600052604160045260246000fd5b60405290565b6000608082840312156200083357600080fd5b82601f8301126200084357600080fd5b6200084d620007e9565b8060808401858111156200086057600080fd5b845b818110156200087c57805184526020938401930162000862565b509095945050505050565b634e487b7160e01b600052603260045260246000fd5b600060018201620008be57634e487b7160e01b600052601160045260246000fd5b5060010190565b61595d80620008d56000396000f3fe6080604052600436106102dc5760003560e01c80638146970a11610184578063c7876ea4116100d6578063dbd4e0211161008a578063f61ccd5311610064578063f61ccd53146108bb578063f79fe538146108db578063f8c912441461090e57600080fd5b8063dbd4e02114610868578063e73f806014610888578063f544d82f146108a857600080fd5b8063d2ec5fca116100bb578063d2ec5fca146107f7578063d315690514610828578063d9b76ed41461084857600080fd5b8063c7876ea4146107c1578063d07699aa146107d757600080fd5b8063a22cb46511610138578063b782426e11610112578063b782426e14610761578063b9f37c8614610781578063c5bc4c0b146107a157600080fd5b8063a22cb46514610701578063b069862814610721578063b612e9b91461074157600080fd5b806388a8c95c1161016957806388a8c95c146106a15780638dcad139146106c15780639f09d9f3146106e157600080fd5b80638146970a14610661578063836697261461068157600080fd5b8063250548b91161023d5780634475bf4b116101f15780635b55b376116101cb5780635b55b376146105775780637362377b1461059757806375c4f68e146105ac57600080fd5b80634475bf4b146105175780634d50558414610537578063516aeda01461055757600080fd5b80632f926732116102225780632f926732146104b757806334026859146104d757806339de6469146104f757600080fd5b8063250548b914610481578063251c9422146104a157600080fd5b80630e68b116116102945780631f06e91c116102795780631f06e91c1461041d57806321ec2b5b1461043d57806322b68deb1461045d57600080fd5b80630e68b116146103ce5780631896f70a146103fb57600080fd5b806302fb0c5e116102c557806302fb0c5e1461033e57806305e84aa0146103805780630aac6625146103a057600080fd5b80630178b8bf146102e157806301e51ae81461031e575b600080fd5b3480156102ed57600080fd5b506103016102fc366004614a37565b61092e565b6040516001600160a01b0390911681526020015b60405180910390f35b34801561032a57600080fd5b50600254610301906001600160a01b031681565b34801561034a57600080fd5b506002546103709074010000000000000000000000000000000000000000900460ff1681565b6040519015158152602001610315565b34801561038c57600080fd5b50600154610301906001600160a01b031681565b3480156103ac57600080fd5b506103c06103bb366004614a37565b6109ac565b604051610315929190614a50565b3480156103da57600080fd5b506103ee6103e9366004614a37565b610b70565b6040516103159190614ad7565b34801561040757600080fd5b5061041b610416366004614b30565b610c32565b005b34801561042957600080fd5b5061041b610438366004614b60565b610e9b565b34801561044957600080fd5b5061041b610458366004614a37565b610fa2565b34801561046957600080fd5b5061047360065481565b604051908152602001610315565b34801561048d57600080fd5b5061041b61049c366004614d07565b6112ea565b3480156104ad57600080fd5b5061047360035481565b3480156104c357600080fd5b5061041b6104d2366004614b60565b6117ad565b3480156104e357600080fd5b506103706104f2366004614a37565b6119b7565b34801561050357600080fd5b5061041b610512366004614b60565b611a3e565b34801561052357600080fd5b5061041b610532366004614df9565b611bd9565b34801561054357600080fd5b50610370610552366004614e41565b611ed8565b34801561056357600080fd5b5061041b610572366004614b60565b611f84565b34801561058357600080fd5b5061041b610592366004614e6d565b612477565b3480156105a357600080fd5b5061041b6128e8565b3480156105b857600080fd5b506106256105c7366004614a37565b600760208190526000918252604090912060028101546004820154600583015460068401549390940154919390926001600160a01b0391821692918116917401000000000000000000000000000000000000000090910460ff169086565b6040805196875260208701959095526001600160a01b0393841694860194909452911660608401521515608083015260a082015260c001610315565b34801561066d57600080fd5b5061041b61067c366004614b60565b61298e565b34801561068d57600080fd5b5061041b61069c366004614ea2565b612bf8565b3480156106ad57600080fd5b5061041b6106bc366004614ee0565b612e82565b3480156106cd57600080fd5b5061041b6106dc366004614b60565b612f52565b3480156106ed57600080fd5b506103706106fc366004614f04565b6133f6565b34801561070d57600080fd5b5061041b61071c366004614f76565b613411565b34801561072d57600080fd5b5061037061073c366004614b30565b61349b565b34801561074d57600080fd5b5061041b61075c366004614e41565b61353f565b34801561076d57600080fd5b50600054610301906001600160a01b031681565b34801561078d57600080fd5b50600554610301906001600160a01b031681565b3480156107ad57600080fd5b506104736107bc366004614a37565b613997565b3480156107cd57600080fd5b5061047360045481565b3480156107e357600080fd5b5061041b6107f2366004614fa4565b613a03565b34801561080357600080fd5b50610473610812366004614a37565b6000908152600760208190526040909120015490565b34801561083457600080fd5b5061041b610843366004614b30565b613c7e565b34801561085457600080fd5b5061041b610863366004614b30565b613edc565b34801561087457600080fd5b50610301610883366004614a37565b61413a565b34801561089457600080fd5b5061041b6108a3366004614df9565b6141af565b61041b6108b6366004614b60565b614532565b3480156108c757600080fd5b506104736108d6366004614a37565b614880565b3480156108e757600080fd5b506103706108f6366004614a37565b60009081526007602081905260409091200154421090565b34801561091a57600080fd5b50610370610929366004614b60565b61497b565b600081815260076020819052604082200154829042106109885760405162461bcd60e51b815260206004820152601060248201526f1413d31650d5531157d156141254915160821b60448201526064015b60405180910390fd5b6000838152600760205260409020600501546001600160a01b031691505b50919050565b6060808260076000828152602001908152602001600020600701544210610a085760405162461bcd60e51b815260206004820152601060248201526f1413d31650d5531157d156141254915160821b604482015260640161097f565b60008481526007602090815260409182902080548351818402810184019094528084529091830182828015610a7a57602002820191906000526020600020906000905b825461010083900a900460ff16815260206001928301818104948501949093039092029101808411610a4b5790505b50505050509250825167ffffffffffffffff811115610a9b57610a9b614b82565b604051908082528060200260200182016040528015610ac4578160200160208202803683370190505b50915060005b8351811015610b6957600760008681526020019081526020016000206001016000858381518110610afd57610afd614fc9565b602002602001015160ff1660ff16815260200190815260200160002060009054906101000a90046001600160a01b0316838281518110610b3f57610b3f614fc9565b6001600160a01b039092166020928302919091019091015280610b6181615027565b915050610aca565b5050915091565b60608160076000828152602001908152602001600020600701544210610bcb5760405162461bcd60e51b815260206004820152601060248201526f1413d31650d5531157d156141254915160821b604482015260640161097f565b600083815260076020908152604080832060030180548251818502810185019093528083529192909190830182828015610c2457602002820191906000526020600020905b815481526020019060010190808311610c10575b509398975050505050505050565b600054604080517f4d3f7334000000000000000000000000000000000000000000000000000000008152905184926001600160a01b031691634d3f73349160048083019260809291908290030181865afa158015610c94573d6000803e3d6000fd5b505050506040513d601f19601f82011682018060405250810190610cb8919061505f565b60600151600580546001600160a01b0392831673ffffffffffffffffffffffffffffffffffffffff199091161790556000828152600760205260408082206002015460015491516302571be360e01b815260048101829052909391909116906302571be390602401602060405180830381865afa158015610d3d573d6000803e3d6000fd5b505050506040513d601f19601f82011682018060405250810190610d6191906150e6565b6005549091506001600160a01b0316331480610d8557506001600160a01b03811633145b80610db357506001600160a01b038116600090815260086020908152604080832033845290915290205460ff165b80610dd757506000838152600760205260409020600601546001600160a01b031633145b610e235760405162461bcd60e51b815260206004820152600e60248201527f4e4f545f415554484f5249534544000000000000000000000000000000000000604482015260640161097f565b600085815260076020908152604091829020600501805473ffffffffffffffffffffffffffffffffffffffff19166001600160a01b038816908117909155915191825286917f335721b01866dc23fbee8b6b2c7b1e14d6f05c28cd35a2c934239f94095602a091015b60405180910390a25050505050565b60008054906101000a90046001600160a01b03166001600160a01b0316634d3f73346040518163ffffffff1660e01b8152600401608060405180830381865afa158015610eec573d6000803e3d6000fd5b505050506040513d601f19601f82011682018060405250810190610f10919061505f565b606001516005805473ffffffffffffffffffffffffffffffffffffffff19166001600160a01b0390921691821790553314610f8d5760405162461bcd60e51b815260206004820152600d60248201527f4e4f545f52454749535452415200000000000000000000000000000000000000604482015260640161097f565b60009182526007602052604090912060040155565b6000818152600760208190526040909120015481904210610ff85760405162461bcd60e51b815260206004820152601060248201526f1413d31650d5531157d156141254915160821b604482015260640161097f565b6000818152600760205260408082206002015460015491516302571be360e01b8152600481018290529092916001600160a01b0316906302571be390602401602060405180830381865afa158015611054573d6000803e3d6000fd5b505050506040513d601f19601f8201168201806040525081019061107891906150e6565b90506001600160a01b0381163314806110b457506001600160a01b038116600090815260086020908152604080832033845290915290205460ff165b806110d857506000838152600760205260409020600601546001600160a01b031633145b6111245760405162461bcd60e51b815260206004820152601760248201527f4e4f545f4f574e45525f4f525f434f4e54524f4c4c4552000000000000000000604482015260640161097f565b60008481526007602090815260408083208054825181850281018501909352808352919290919083018282801561119857602002820191906000526020600020906000905b825461010083900a900460ff168152602060019283018181049485019490930390920291018084116111695790505b5050505050905060005b81518110156112835760006007600088815260200190815260200160002060010160008484815181106111d7576111d7614fc9565b602002602001015160ff1660ff16815260200190815260200160002060006101000a8154816001600160a01b0302191690836001600160a01b03160217905550857ff975f0cee916e0c09312f138a17c70e178a4c2186f302a6f085a6d5273cd105183838151811061124b5761124b614fc9565b6020026020010151604051611269919060ff91909116815260200190565b60405180910390a28061127b81615027565b9150506111a2565b50600085815260076020526040812061129b916149df565b60008581526007602052604081206112b891600390910190614a04565b60405185907f6b91085369552b61ca16180a741663b69fb6b3b967f7271116521d84e2291dc590600090a25050505050565b600054604080517f4d3f7334000000000000000000000000000000000000000000000000000000008152905186926001600160a01b031691634d3f73349160048083019260809291908290030181865afa15801561134c573d6000803e3d6000fd5b505050506040513d601f19601f82011682018060405250810190611370919061505f565b60600151600580546001600160a01b0392831673ffffffffffffffffffffffffffffffffffffffff199091161790556000828152600760205260408082206002015460015491516302571be360e01b815260048101829052909391909116906302571be390602401602060405180830381865afa1580156113f5573d6000803e3d6000fd5b505050506040513d601f19601f8201168201806040525081019061141991906150e6565b6005549091506001600160a01b031633148061143d57506001600160a01b03811633145b8061146b57506001600160a01b038116600090815260086020908152604080832033845290915290205460ff165b8061148f57506000838152600760205260409020600601546001600160a01b031633145b6114db5760405162461bcd60e51b815260206004820152600e60248201527f4e4f545f415554484f5249534544000000000000000000000000000000000000604482015260640161097f565b6114e586856133f6565b6115315760405162461bcd60e51b815260206004820152600760248201527f4241445f4d415000000000000000000000000000000000000000000000000000604482015260640161097f565b60005b865181101561176b5786818151811061154f5761154f614fc9565b602002602001015173__$47e4ffaaf323c41735ff299f8946896ce0$__636fd8c6859091600760008c81526020019081526020016000206003016040518363ffffffff1660e01b81526004016115a6929190615103565b602060405180830381865af41580156115c3573d6000803e3d6000fd5b505050506040513d601f19601f820116820180604052508101906115e79190615149565b611759576007600089815260200190815260200160002060030187828151811061161357611613614fc9565b6020908102919091018101518254600181018455600093845282842001558982526007905260409020855186908390811061165057611650614fc9565b6020908102919091018101518254600181018455600093845292829020918304909101805460ff928316601f9094166101000a938402929093021990921617905585518690829081106116a5576116a5614fc9565b6020026020010151600760008a815260200190815260200160002060010160008784815181106116d7576116d7614fc9565b60209081029190910181015160ff1682528181019290925260409081016000908120805473ffffffffffffffffffffffffffffffffffffffff19166001600160a01b0395909516949094179093558a83526007909152902060060180547fffffffffffffffffffffff00ffffffffffffffffffffffffffffffffffffffff1690555b8061176381615027565b915050611534565b50867f580d99949e5d5a02f35dc5b91b800697d53dccb814e200f24f97b4bfbeb8667c8760405161179c9190614ad7565b60405180910390a250505050505050565b60008054906101000a90046001600160a01b03166001600160a01b0316634d3f73346040518163ffffffff1660e01b8152600401608060405180830381865afa1580156117fe573d6000803e3d6000fd5b505050506040513d601f19601f82011682018060405250810190611822919061505f565b606001516005805473ffffffffffffffffffffffffffffffffffffffff19166001600160a01b039092169182179055331461189f5760405162461bcd60e51b815260206004820152600d60248201527f4e4f545f52454749535452415200000000000000000000000000000000000000604482015260640161097f565b6001546040516302571be360e01b8152600481018390526000916001600160a01b0316906302571be390602401602060405180830381865afa1580156118e9573d6000803e3d6000fd5b505050506040513d601f19601f8201168201806040525081019061190d91906150e6565b6001600160a01b0316036119635760405162461bcd60e51b815260206004820152600b60248201527f43414e4e4f545f4255524e000000000000000000000000000000000000000000604482015260640161097f565b600082815260076020526040908190206002018290555182907f4810581adf2c16a86a375dbb1ed89b0b0f7e64d48d24e1948b3dfe6581e4d795906119ab9084815260200190565b60405180910390a25050565b60008181526007602081905260408220015482904210611a0c5760405162461bcd60e51b815260206004820152601060248201526f1413d31650d5531157d156141254915160821b604482015260640161097f565b505060009081526007602052604090206006015474010000000000000000000000000000000000000000900460ff1690565b60008054906101000a90046001600160a01b03166001600160a01b0316634d3f73346040518163ffffffff1660e01b8152600401608060405180830381865afa158015611a8f573d6000803e3d6000fd5b505050506040513d601f19601f82011682018060405250810190611ab3919061505f565b606001516005805473ffffffffffffffffffffffffffffffffffffffff19166001600160a01b0390921691821790553314611b305760405162461bcd60e51b815260206004820152600d60248201527f4e4f545f52454749535452415200000000000000000000000000000000000000604482015260640161097f565b600082815260076020819052604090912001548111611b915760405162461bcd60e51b815260206004820152600a60248201527f4241445f45585049525900000000000000000000000000000000000000000000604482015260640161097f565b600082815260076020819052604091829020018290555182907fa620b72378ee464490805a96e25b53e5c0076f0ce2d28f9691ae255a595b3bf3906119ab9084815260200190565b6000838152600760208190526040909120015483904210611c2f5760405162461bcd60e51b815260206004820152601060248201526f1413d31650d5531157d156141254915160821b604482015260640161097f565b6000818152600760205260408082206002015460015491516302571be360e01b8152600481018290529092916001600160a01b0316906302571be390602401602060405180830381865afa158015611c8b573d6000803e3d6000fd5b505050506040513d601f19601f82011682018060405250810190611caf91906150e6565b90506001600160a01b038116331480611ceb57506001600160a01b038116600090815260086020908152604080832033845290915290205460ff165b80611d0f57506000838152600760205260409020600601546001600160a01b031633145b611d5b5760405162461bcd60e51b815260206004820152601760248201527f4e4f545f4f574e45525f4f525f434f4e54524f4c4c4552000000000000000000604482015260640161097f565b611d65868861497b565b611db15760405162461bcd60e51b815260206004820152600c60248201527f414e494f4e5f4558495354530000000000000000000000000000000000000000604482015260640161097f565b611dbb8685611ed8565b611e075760405162461bcd60e51b815260206004820152600b60248201527f484f4f4b5f455849535453000000000000000000000000000000000000000000604482015260640161097f565b600086815260076020818152604080842080546001818101835582875284872085830401805460ff808e16601f9095166101000a858102910219909116179055908652808201845282862080546001600160a01b038d1673ffffffffffffffffffffffffffffffffffffffff199091161790559383526003018054938401815584529220018890555186907fc733a2bc621cc97eef6ed4f708f126e72e6acb76c0a1c0461c9dd31f7b9870659061179c90889088906001600160a01b0392909216825260ff16602082015260400190565b60008281526007602052604080822090517f26c6421b00000000000000000000000000000000000000000000000000000000815273__$47e4ffaaf323c41735ff299f8946896ce0$__916326c6421b91611f399160ff871691600401615166565b602060405180830381865af4158015611f56573d6000803e3d6000fd5b505050506040513d601f19601f82011682018060405250810190611f7a9190615149565b1590505b92915050565b6000828152600760208190526040909120015482904210611fda5760405162461bcd60e51b815260206004820152601060248201526f1413d31650d5531157d156141254915160821b604482015260640161097f565b6000818152600760205260408082206002015460015491516302571be360e01b8152600481018290529092916001600160a01b0316906302571be390602401602060405180830381865afa158015612036573d6000803e3d6000fd5b505050506040513d601f19601f8201168201806040525081019061205a91906150e6565b90506001600160a01b03811633148061209657506001600160a01b038116600090815260086020908152604080832033845290915290205460ff165b806120ba57506000838152600760205260409020600601546001600160a01b031633145b6121065760405162461bcd60e51b815260206004820152601760248201527f4e4f545f4f574e45525f4f525f434f4e54524f4c4c4552000000000000000000604482015260640161097f565b60008581526007602090815260408083208054825181850281018501909352808352919290919083018282801561217a57602002820191906000526020600020906000905b825461010083900a900460ff1681526020600192830181810494850194909303909202910180841161214b5790505b505050505090506000600760008881526020019081526020016000206003018054806020026020016040519081016040528092919081815260200182805480156121e357602002820191906000526020600020905b8154815260200190600101908083116121cf575b50506040517f6fd8c68500000000000000000000000000000000000000000000000000000000815293945073__$47e4ffaaf323c41735ff299f8946896ce0$__93636fd8c685935061223d92508a91508590600401615836565b602060405180830381865af415801561225a573d6000803e3d6000fd5b505050506040513d601f19601f8201168201806040525081019061227e9190615149565b1561243b576040517fda92b9ed00000000000000000000000000000000000000000000000000000000815260009073__$47e4ffaaf323c41735ff299f8946896ce0$__9063da92b9ed906122d8908a908690600401615836565b602060405180830381865af41580156122f5573d6000803e3d6000fd5b505050506040513d601f19601f820116820180604052508101906123199190615877565b90506000600760008a8152602001908152602001600020600101600085848151811061234757612347614fc9565b602002602001015160ff1660ff16815260200190815260200160002060006101000a8154816001600160a01b0302191690836001600160a01b03160217905550877ff13ce89e57ea348ff8e29c4131c87b4d1b50ecf4edb1c68288b5e0cd3985b3f9886040516123b991815260200190565b60405180910390a260008881526007602052604090208054829081106123e1576123e1614fc9565b90600052602060002090602091828204019190066101000a81549060ff021916905560076000898152602001908152602001600020600301818154811061242a5761242a614fc9565b60009182526020822001555061246e565b6040516000815287907ff13ce89e57ea348ff8e29c4131c87b4d1b50ecf4edb1c68288b5e0cd3985b3f99060200161179c565b50505050505050565b60008381526007602081905260409091200154839042106124cd5760405162461bcd60e51b815260206004820152601060248201526f1413d31650d5531157d156141254915160821b604482015260640161097f565b6000818152600760205260408082206002015460015491516302571be360e01b8152600481018290529092916001600160a01b0316906302571be390602401602060405180830381865afa158015612529573d6000803e3d6000fd5b505050506040513d601f19601f8201168201806040525081019061254d91906150e6565b90506001600160a01b03811633148061258957506001600160a01b038116600090815260086020908152604080832033845290915290205460ff165b806125ad57506000838152600760205260409020600601546001600160a01b031633145b6125f95760405162461bcd60e51b815260206004820152601760248201527f4e4f545f4f574e45525f4f525f434f4e54524f4c4c4552000000000000000000604482015260640161097f565b60008681526007602090815260408083206003018054825181850281018501909352808352919290919083018282801561265257602002820191906000526020600020905b81548152602001906001019080831161263e575b50506040517f6fd8c68500000000000000000000000000000000000000000000000000000000815293945073__$47e4ffaaf323c41735ff299f8946896ce0$__93636fd8c68593506126ac92508991508590600401615836565b602060405180830381865af41580156126c9573d6000803e3d6000fd5b505050506040513d601f19601f820116820180604052508101906126ed9190615149565b156128b6576040517fda92b9ed00000000000000000000000000000000000000000000000000000000815260009073__$47e4ffaaf323c41735ff299f8946896ce0$__9063da92b9ed906127479089908690600401615836565b602060405180830381865af4158015612764573d6000803e3d6000fd5b505050506040513d601f19601f820116820180604052508101906127889190615877565b6000898152600760205260409020805491925060ff891691839081106127b0576127b0614fc9565b60009182526020918290209181049091015460ff601f9092166101000a9004160361281d5760405162461bcd60e51b815260206004820152600b60248201527f52554c455f455849535453000000000000000000000000000000000000000000604482015260640161097f565b600088815260076020526040902080548891908390811061284057612840614fc9565b90600052602060002090602091828204019190066101000a81548160ff021916908360ff160217905550877f12bf96b3da46c044c59d8b13a96d1a5f53adf413cbe17f743ac2ed2c285257de87896040516128a892919091825260ff16602082015260400190565b60405180910390a25061246e565b6040517f62316f6700000000000000000000000000000000000000000000000000000000815260040160405180910390fd5b6002546040516000916001600160a01b03169047908381818185875af1925050503d8060008114612935576040519150601f19603f3d011682016040523d82523d6000602084013e61293a565b606091505b505090508061298b5760405162461bcd60e51b815260206004820152601360248201527f4554485f5452414e534645525f4641494c454400000000000000000000000000604482015260640161097f565b50565b60008281526007602081905260409091200154829042106129e45760405162461bcd60e51b815260206004820152601060248201526f1413d31650d5531157d156141254915160821b604482015260640161097f565b6000818152600760205260408082206002015460015491516302571be360e01b8152600481018290529092916001600160a01b0316906302571be390602401602060405180830381865afa158015612a40573d6000803e3d6000fd5b505050506040513d601f19601f82011682018060405250810190612a6491906150e6565b90506001600160a01b038116331480612aa057506001600160a01b038116600090815260086020908152604080832033845290915290205460ff165b612aec5760405162461bcd60e51b815260206004820152600960248201527f4e4f545f4f574e45520000000000000000000000000000000000000000000000604482015260640161097f565b6001546040516302571be360e01b8152600481018690526000916001600160a01b0316906302571be390602401602060405180830381865afa158015612b36573d6000803e3d6000fd5b505050506040513d601f19601f82011682018060405250810190612b5a91906150e6565b6001600160a01b031603612bb05760405162461bcd60e51b815260206004820152600b60248201527f43414e4e4f545f4255524e000000000000000000000000000000000000000000604482015260640161097f565b600085815260076020526040908190206002018590555185907f4810581adf2c16a86a375dbb1ed89b0b0f7e64d48d24e1948b3dfe6581e4d79590610e8c9087815260200190565b6000838152600760208190526040909120015483904210612c4e5760405162461bcd60e51b815260206004820152601060248201526f1413d31650d5531157d156141254915160821b604482015260640161097f565b6000818152600760205260408082206002015460015491516302571be360e01b8152600481018290529092916001600160a01b0316906302571be390602401602060405180830381865afa158015612caa573d6000803e3d6000fd5b505050506040513d601f19601f82011682018060405250810190612cce91906150e6565b90506001600160a01b038116331480612d0a57506001600160a01b038116600090815260086020908152604080832033845290915290205460ff165b80612d2e57506000838152600760205260409020600601546001600160a01b031633145b612d7a5760405162461bcd60e51b815260206004820152601760248201527f4e4f545f4f574e45525f4f525f434f4e54524f4c4c4552000000000000000000604482015260640161097f565b600086815260076020908152604080832060ff881684526001019091529020546001600160a01b03808716911603612df45760405162461bcd60e51b815260206004820152600b60248201527f52554c455f455849535453000000000000000000000000000000000000000000604482015260640161097f565b600086815260076020908152604080832060ff88168085526001909101835292819020805473ffffffffffffffffffffffffffffffffffffffff19166001600160a01b038a1690811790915581519081529182019290925287917f1abc00531586337cfd45709506ca0d48a44e1eb54325e589ec054ce83373e07a91015b60405180910390a2505050505050565b6002546001600160a01b03163314612edc5760405162461bcd60e51b815260206004820152600760248201527f4e4f545f44455600000000000000000000000000000000000000000000000000604482015260640161097f565b600254604080516001600160a01b03928316815291831660208301527fdec101f106d4fc7c85791843e64b198248c822298e3ed7046231d33f7783d816910160405180910390a16002805473ffffffffffffffffffffffffffffffffffffffff19166001600160a01b0392909216919091179055565b6000828152600760208190526040909120015482904210612fa85760405162461bcd60e51b815260206004820152601060248201526f1413d31650d5531157d156141254915160821b604482015260640161097f565b6000818152600760205260408082206002015460015491516302571be360e01b8152600481018290529092916001600160a01b0316906302571be390602401602060405180830381865afa158015613004573d6000803e3d6000fd5b505050506040513d601f19601f8201168201806040525081019061302891906150e6565b90506001600160a01b03811633148061306457506001600160a01b038116600090815260086020908152604080832033845290915290205460ff165b8061308857506000838152600760205260409020600601546001600160a01b031633145b6130d45760405162461bcd60e51b815260206004820152601760248201527f4e4f545f4f574e45525f4f525f434f4e54524f4c4c4552000000000000000000604482015260640161097f565b60008581526007602090815260408083206003018054825181850281018501909352808352919290919083018282801561312d57602002820191906000526020600020905b815481526020019060010190808311613119575b5050506000898152600760209081526040808320805482518185028101850190935280835296975092959094509192508301828280156131aa57602002820191906000526020600020906000905b825461010083900a900460ff1681526020600192830181810494850194909303909202910180841161317b5790505b50506040517f6fd8c68500000000000000000000000000000000000000000000000000000000815293945073__$47e4ffaaf323c41735ff299f8946896ce0$__93636fd8c685935061320492508a91508690600401615836565b602060405180830381865af4158015613221573d6000803e3d6000fd5b505050506040513d601f19601f820116820180604052508101906132459190615149565b156128b6576040517fda92b9ed00000000000000000000000000000000000000000000000000000000815260009073__$47e4ffaaf323c41735ff299f8946896ce0$__9063da92b9ed9061329f908a908790600401615836565b602060405180830381865af41580156132bc573d6000803e3d6000fd5b505050506040513d601f19601f820116820180604052508101906132e09190615877565b90506000600760008a8152602001908152602001600020600101600084848151811061330e5761330e614fc9565b602002602001015160ff1660ff16815260200190815260200160002060006101000a8154816001600160a01b0302191690836001600160a01b0316021790555060076000898152602001908152602001600020600301818154811061337557613375614fc9565b6000918252602080832090910182905589825260079052604090208054829081106133a2576133a2614fc9565b90600052602060002090602091828204019190066101000a81549060ff0219169055877f5c379d054844760656a56e062f50208b458cfa0c4427574f5a2828d19602b4e9886040516128a891815260200190565b6000815183510361340957506001611f7e565b506000611f7e565b3360008181526008602090815260408083206001600160a01b0387168085529083529281902080547fffffffffffffffffffffffffffffffffffffffffffffffffffffffffffffff001686151590811790915590519081529192917f17307eab39ab6107e8899845ad3d59bd9653f200f220920489ca2b5937696c31910160405180910390a35050565b6001546040516302571be360e01b81526004810184905260009182916001600160a01b03909116906302571be390602401602060405180830381865afa1580156134e9573d6000803e3d6000fd5b505050506040513d601f19601f8201168201806040525081019061350d91906150e6565b6001600160a01b0390811660009081526008602090815260408083209387168352929052205460ff1691505092915050565b60008281526007602081905260409091200154829042106135955760405162461bcd60e51b815260206004820152601060248201526f1413d31650d5531157d156141254915160821b604482015260640161097f565b6000818152600760205260408082206002015460015491516302571be360e01b8152600481018290529092916001600160a01b0316906302571be390602401602060405180830381865afa1580156135f1573d6000803e3d6000fd5b505050506040513d601f19601f8201168201806040525081019061361591906150e6565b90506001600160a01b03811633148061365157506001600160a01b038116600090815260086020908152604080832033845290915290205460ff165b8061367557506000838152600760205260409020600601546001600160a01b031633145b6136c15760405162461bcd60e51b815260206004820152601760248201527f4e4f545f4f574e45525f4f525f434f4e54524f4c4c4552000000000000000000604482015260640161097f565b60008581526007602090815260408083208054825181850281018501909352808352919290919083018282801561373557602002820191906000526020600020906000905b825461010083900a900460ff168152602060019283018181049485019490930390920291018084116137065790505b50506040517f26c6421b00000000000000000000000000000000000000000000000000000000815293945073__$47e4ffaaf323c41735ff299f8946896ce0$__936326c6421b9350613792925060ff8a1691508590600401615890565b602060405180830381865af41580156137af573d6000803e3d6000fd5b505050506040513d601f19601f820116820180604052508101906137d39190615149565b1561395d576040517f8ab65ceb00000000000000000000000000000000000000000000000000000000815260009073__$47e4ffaaf323c41735ff299f8946896ce0$__90638ab65ceb906138309060ff8a16908690600401615890565b602060405180830381865af415801561384d573d6000803e3d6000fd5b505050506040513d601f19601f820116820180604052508101906138719190615877565b600088815260076020908152604080832060ff8b168085526001909101835292819020805473ffffffffffffffffffffffffffffffffffffffff191690555191825291925088917ff975f0cee916e0c09312f138a17c70e178a4c2186f302a6f085a6d5273cd1051910160405180910390a2600087815260076020526040902080548290811061390357613903614fc9565b90600052602060002090602091828204019190066101000a81549060ff021916905560076000888152602001908152602001600020600301818154811061394c5761394c614fc9565b60009182526020822001555061398f565b6040517fe8dd1d3e00000000000000000000000000000000000000000000000000000000815260040160405180910390fd5b505050505050565b600081815260076020819052604082200154829042106139ec5760405162461bcd60e51b815260206004820152601060248201526f1413d31650d5531157d156141254915160821b604482015260640161097f565b505060009081526007602052604090206004015490565b600054604080517f4d3f7334000000000000000000000000000000000000000000000000000000008152905184926001600160a01b031691634d3f73349160048083019260809291908290030181865afa158015613a65573d6000803e3d6000fd5b505050506040513d601f19601f82011682018060405250810190613a89919061505f565b60600151600580546001600160a01b0392831673ffffffffffffffffffffffffffffffffffffffff199091161790556000828152600760205260408082206002015460015491516302571be360e01b815260048101829052909391909116906302571be390602401602060405180830381865afa158015613b0e573d6000803e3d6000fd5b505050506040513d601f19601f82011682018060405250810190613b3291906150e6565b6005549091506001600160a01b0316331480613b5657506001600160a01b03811633145b80613b8457506001600160a01b038116600090815260086020908152604080832033845290915290205460ff165b80613ba857506000838152600760205260409020600601546001600160a01b031633145b613bf45760405162461bcd60e51b815260206004820152600e60248201527f4e4f545f415554484f5249534544000000000000000000000000000000000000604482015260640161097f565b60008581526007602052604090819020600601805486151574010000000000000000000000000000000000000000027fffffffffffffffffffffff00ffffffffffffffffffffffffffffffffffffffff9091161790555185907fe6ccdb52b4954ab2c3e293f1dbfe593e6c5630962a1944bfcf20c5563eeb846290610e8c90871515815260200190565b600054604080517f4d3f7334000000000000000000000000000000000000000000000000000000008152905184926001600160a01b031691634d3f73349160048083019260809291908290030181865afa158015613ce0573d6000803e3d6000fd5b505050506040513d601f19601f82011682018060405250810190613d04919061505f565b60600151600580546001600160a01b0392831673ffffffffffffffffffffffffffffffffffffffff199091161790556000828152600760205260408082206002015460015491516302571be360e01b815260048101829052909391909116906302571be390602401602060405180830381865afa158015613d89573d6000803e3d6000fd5b505050506040513d601f19601f82011682018060405250810190613dad91906150e6565b6005549091506001600160a01b0316331480613dd157506001600160a01b03811633145b80613dff57506001600160a01b038116600090815260086020908152604080832033845290915290205460ff165b80613e2357506000838152600760205260409020600601546001600160a01b031633145b613e6f5760405162461bcd60e51b815260206004820152600e60248201527f4e4f545f415554484f5249534544000000000000000000000000000000000000604482015260640161097f565b600085815260076020908152604091829020600601805473ffffffffffffffffffffffffffffffffffffffff19166001600160a01b038816908117909155915191825286917fe5108446a6097aab57fd36f346a515a78fddefa87d81662d44e0d7a463f920959101610e8c565b600054604080517f4d3f7334000000000000000000000000000000000000000000000000000000008152905184926001600160a01b031691634d3f73349160048083019260809291908290030181865afa158015613f3e573d6000803e3d6000fd5b505050506040513d601f19601f82011682018060405250810190613f62919061505f565b60600151600580546001600160a01b0392831673ffffffffffffffffffffffffffffffffffffffff199091161790556000828152600760205260408082206002015460015491516302571be360e01b815260048101829052909391909116906302571be390602401602060405180830381865afa158015613fe7573d6000803e3d6000fd5b505050506040513d601f19601f8201168201806040525081019061400b91906150e6565b6005549091506001600160a01b031633148061402f57506001600160a01b03811633145b8061405d57506001600160a01b038116600090815260086020908152604080832033845290915290205460ff165b8061408157506000838152600760205260409020600601546001600160a01b031633145b6140cd5760405162461bcd60e51b815260206004820152600e60248201527f4e4f545f415554484f5249534544000000000000000000000000000000000000604482015260640161097f565b600085815260076020908152604091829020600501805473ffffffffffffffffffffffffffffffffffffffff19166001600160a01b038816908117909155915191825286917fcb71326aeaad88869e8be8be2893e1119f7617ce4ea2411af127e218909be1f79101610e8c565b6000818152600760208190526040822001548290421061418f5760405162461bcd60e51b815260206004820152601060248201526f1413d31650d5531157d156141254915160821b604482015260640161097f565b50506000908152600760205260409020600601546001600160a01b031690565b60008481526007602081905260409091200154849042106142055760405162461bcd60e51b815260206004820152601060248201526f1413d31650d5531157d156141254915160821b604482015260640161097f565b6000818152600760205260408082206002015460015491516302571be360e01b8152600481018290529092916001600160a01b0316906302571be390602401602060405180830381865afa158015614261573d6000803e3d6000fd5b505050506040513d601f19601f8201168201806040525081019061428591906150e6565b90506001600160a01b0381163314806142c157506001600160a01b038116600090815260086020908152604080832033845290915290205460ff165b806142e557506000838152600760205260409020600601546001600160a01b031633145b6143315760405162461bcd60e51b815260206004820152601760248201527f4e4f545f4f574e45525f4f525f434f4e54524f4c4c4552000000000000000000604482015260640161097f565b61433b878761497b565b6143875760405162461bcd60e51b815260206004820152600c60248201527f414e494f4e5f4558495354530000000000000000000000000000000000000000604482015260640161097f565b6143918785611ed8565b6143dd5760405162461bcd60e51b815260206004820152600b60248201527f484f4f4b5f455849535453000000000000000000000000000000000000000000604482015260640161097f565b600087815260076020908152604080832060ff881684526001019091529020546001600160a01b038087169116036144575760405162461bcd60e51b815260206004820152600b60248201527f52554c455f455849535453000000000000000000000000000000000000000000604482015260640161097f565b600087815260076020908152604080832060038101805460018181018355918652848620018b90558154808201835582865284862085820401805460ff808d16601f9094166101000a8481029102199091161790559094529290920190525187907f600ffddd29393ca43c0a11fa6b0b7096631364178cb42f9d546c0a2cd22525ee906144e79089815260200190565b60405180910390a2604080516001600160a01b038716815260ff8616602082015288917fc733a2bc621cc97eef6ed4f708f126e72e6acb76c0a1c0461c9dd31f7b987065910161179c565b60008281526007602081905260409091200154829042106145885760405162461bcd60e51b815260206004820152601060248201526f1413d31650d5531157d156141254915160821b604482015260640161097f565b6000818152600760205260408082206002015460015491516302571be360e01b8152600481018290529092916001600160a01b0316906302571be390602401602060405180830381865afa1580156145e4573d6000803e3d6000fd5b505050506040513d601f19601f8201168201806040525081019061460891906150e6565b90506001600160a01b03811633148061464457506001600160a01b038116600090815260086020908152604080832033845290915290205460ff165b8061466857506000838152600760205260409020600601546001600160a01b031633145b6146b45760405162461bcd60e51b815260206004820152601760248201527f4e4f545f4f574e45525f4f525f434f4e54524f4c4c4552000000000000000000604482015260640161097f565b6000858152600760208190526040909120015484116147155760405162461bcd60e51b815260206004820152600a60248201527f4241445f45585049525900000000000000000000000000000000000000000000604482015260640161097f565b60008054906101000a90046001600160a01b03166001600160a01b0316634d3f73346040518163ffffffff1660e01b8152600401608060405180830381865afa158015614766573d6000803e3d6000fd5b505050506040513d601f19601f8201168201806040525081019061478a919061505f565b6020908101516005805473ffffffffffffffffffffffffffffffffffffffff19166001600160a01b03909216919091179055600086815260079182905260408120909101546147d990866158d7565b9050600454816147e991906158ea565b3410156148385760405162461bcd60e51b815260206004820152601260248201527f494e53554646494349454e545f45544845520000000000000000000000000000604482015260640161097f565b600086815260076020819052604091829020018690555186907fa620b72378ee464490805a96e25b53e5c0076f0ce2d28f9691ae255a595b3bf390612e729088815260200190565b600081815260076020819052604082200154829042106148d55760405162461bcd60e51b815260206004820152601060248201526f1413d31650d5531157d156141254915160821b604482015260640161097f565b6000838152600760205260408082206002015460015491516302571be360e01b8152600481018290529092916001600160a01b0316906302571be390602401602060405180830381865afa158015614931573d6000803e3d6000fd5b505050506040513d601f19601f8201168201806040525081019061495591906150e6565b9050306001600160a01b0382160361497357600354935050506109a6565b509392505050565b60008281526007602052604080822090517f6fd8c68500000000000000000000000000000000000000000000000000000000815273__$47e4ffaaf323c41735ff299f8946896ce0$__91636fd8c68591611f39918691600390910190600401615103565b50805460008255601f01602090049060005260206000209081019061298b9190614a1e565b508054600082559060005260206000209081019061298b91905b5b80821115614a335760008155600101614a1f565b5090565b600060208284031215614a4957600080fd5b5035919050565b604080825283519082018190526000906020906060840190828701845b82811015614a8c57815160ff1684529284019290840190600101614a6d565b5050508381038285015284518082528583019183019060005b81811015614aca5783516001600160a01b031683529284019291840191600101614aa5565b5090979650505050505050565b6020808252825182820181905260009190848201906040850190845b81811015614b0f57835183529284019291840191600101614af3565b50909695505050505050565b6001600160a01b038116811461298b57600080fd5b60008060408385031215614b4357600080fd5b823591506020830135614b5581614b1b565b809150509250929050565b60008060408385031215614b7357600080fd5b50508035926020909101359150565b7f4e487b7100000000000000000000000000000000000000000000000000000000600052604160045260246000fd5b604051601f82017fffffffffffffffffffffffffffffffffffffffffffffffffffffffffffffffe016810167ffffffffffffffff81118282101715614bf857614bf8614b82565b604052919050565b600067ffffffffffffffff821115614c1a57614c1a614b82565b5060051b60200190565b600082601f830112614c3557600080fd5b81356020614c4a614c4583614c00565b614bb1565b82815260059290921b84018101918181019086841115614c6957600080fd5b8286015b84811015614c845780358352918301918301614c6d565b509695505050505050565b803560ff81168114614ca057600080fd5b919050565b600082601f830112614cb657600080fd5b81356020614cc6614c4583614c00565b82815260059290921b84018101918181019086841115614ce557600080fd5b8286015b84811015614c8457614cfa81614c8f565b8352918301918301614ce9565b60008060008060808587031215614d1d57600080fd5b8435935060208086013567ffffffffffffffff80821115614d3d57600080fd5b614d4989838a01614c24565b95506040880135915080821115614d5f57600080fd5b818801915088601f830112614d7357600080fd5b8135614d81614c4582614c00565b81815260059190911b8301840190848101908b831115614da057600080fd5b938501935b82851015614dc7578435614db881614b1b565b82529385019390850190614da5565b965050506060880135925080831115614ddf57600080fd5b5050614ded87828801614ca5565b91505092959194509250565b60008060008060808587031215614e0f57600080fd5b84359350602085013592506040850135614e2881614b1b565b9150614e3660608601614c8f565b905092959194509250565b60008060408385031215614e5457600080fd5b82359150614e6460208401614c8f565b90509250929050565b600080600060608486031215614e8257600080fd5b83359250614e9260208501614c8f565b9150604084013590509250925092565b600080600060608486031215614eb757600080fd5b833592506020840135614ec981614b1b565b9150614ed760408501614c8f565b90509250925092565b600060208284031215614ef257600080fd5b8135614efd81614b1b565b9392505050565b60008060408385031215614f1757600080fd5b823567ffffffffffffffff80821115614f2f57600080fd5b614f3b86838701614c24565b93506020850135915080821115614f5157600080fd5b50614f5e85828601614ca5565b9150509250929050565b801515811461298b57600080fd5b60008060408385031215614f8957600080fd5b8235614f9481614b1b565b91506020830135614b5581614f68565b60008060408385031215614fb757600080fd5b823591506020830135614b5581614f68565b7f4e487b7100000000000000000000000000000000000000000000000000000000600052603260045260246000fd5b7f4e487b7100000000000000000000000000000000000000000000000000000000600052601160045260246000fd5b60007fffffffffffffffffffffffffffffffffffffffffffffffffffffffffffffffff820361505857615058614ff8565b5060010190565b60006080828403121561507157600080fd5b82601f83011261508057600080fd5b6040516080810181811067ffffffffffffffff821117156150a3576150a3614b82565b6040528060808401858111156150b857600080fd5b845b818110156150db5780516150cd81614b1b565b8352602092830192016150ba565b509195945050505050565b6000602082840312156150f857600080fd5b8151614efd81614b1b565b60006040820184835260206040818501528185548084526060860191508660005282600020935060005b81811015614aca5784548352600194850194928401920161512d565b60006020828403121561515b57600080fd5b8151614efd81614f68565b60006040820160ff8086168452602060408186015282865461518c818690815260200190565b60008981526020812096509092505b81601f8201101561542257855460ff8682161684526151c3858501878360081c1660ff169052565b6151d760408501878360101c1660ff169052565b60606151ec818601888460181c1660ff169052565b608061520081870189858a1c1660ff169052565b60a06152158188018a8660281c1660ff169052565b60c061522a8189018b8760301c1660ff169052565b60e061523f818a018c8860381c1660ff169052565b6152546101008a018c8860401c1660ff169052565b6152696101208a018c8860481c1660ff169052565b61527e6101408a018c8860501c1660ff169052565b6152936101608a018c8860581c1660ff169052565b60ff86861c8c16166101808a01526152b66101a08a018c8860681c1660ff169052565b6152cb6101c08a018c8860701c1660ff169052565b6152e06101e08a018c8860781c1660ff169052565b60ff86851c8c16166102008a01526153036102208a018c8860881c1660ff169052565b6153186102408a018c8860901c1660ff169052565b61532d6102608a018c8860981c1660ff169052565b60ff86841c8c16166102808a01526153506102a08a018c8860a81c1660ff169052565b6153656102c08a018c8860b01c1660ff169052565b61537a6102e08a018c8860b81c1660ff169052565b60ff86831c8c16166103008a015261539d6103208a018c8860c81c1660ff169052565b6153b26103408a018c8860d01c1660ff169052565b6153c76103608a018c8860d81c1660ff169052565b60ff86821c8c16166103808a015250505050506153ef6103a08501878360e81c1660ff169052565b6154046103c08501878360f01c1660ff169052565b60f81c6103e08401526001959095019461040090920191830161519b565b9454948181101561543d5760ff868616168352918301916001015b8181101561545e5761545683868860081c1660ff169052565b918301916001015b8181101561547f5761547783868860101c1660ff169052565b918301916001015b818110156154a05761549883868860181c1660ff169052565b918301916001015b818110156154ba5760ff86851c8616168352918301916001015b818110156154db576154d383868860281c1660ff169052565b918301916001015b818110156154fc576154f483868860301c1660ff169052565b918301916001015b8181101561551d5761551583868860381c1660ff169052565b918301916001015b8181101561553e5761553683868860401c1660ff169052565b918301916001015b8181101561555f5761555783868860481c1660ff169052565b918301916001015b818110156155805761557883868860501c1660ff169052565b918301916001015b818110156155a15761559983868860581c1660ff169052565b918301916001015b818110156155c2576155ba83868860601c1660ff169052565b918301916001015b818110156155e3576155db83868860681c1660ff169052565b918301916001015b81811015615604576155fc83868860701c1660ff169052565b918301916001015b818110156156255761561d83868860781c1660ff169052565b918301916001015b818110156156465761563e83868860801c1660ff169052565b918301916001015b818110156156675761565f83868860881c1660ff169052565b918301916001015b818110156156885761568083868860901c1660ff169052565b918301916001015b818110156156a9576156a183868860981c1660ff169052565b918301916001015b818110156156ca576156c283868860a01c1660ff169052565b918301916001015b818110156156eb576156e383868860a81c1660ff169052565b918301916001015b8181101561570c5761570483868860b01c1660ff169052565b918301916001015b8181101561572d5761572583868860b81c1660ff169052565b918301916001015b8181101561574e5761574683868860c01c1660ff169052565b918301916001015b8181101561576f5761576783868860c81c1660ff169052565b918301916001015b818110156157905761578883868860d01c1660ff169052565b918301916001015b818110156157b1576157a983868860d81c1660ff169052565b918301916001015b818110156157d2576157ca83868860e01c1660ff169052565b918301916001015b818110156157f3576157eb83868860e81c1660ff169052565b918301916001015b818110156158145761580c83868860f01c1660ff169052565b918301916001015b818110156158285760f886901c8352918301915b509098975050505050505050565b6000604082018483526020604081850152818551808452606086019150828701935060005b81811015614aca5784518352938301939183019160010161585b565b60006020828403121561588957600080fd5b5051919050565b60006040820160ff80861684526020604081860152828651808552606087019150828801945060005b818110156158285785518516835294830194918301916001016158b9565b81810381811115611f7e57611f7e614ff8565b6000817fffffffffffffffffffffffffffffffffffffffffffffffffffffffffffffffff048311821515161561592257615922614ff8565b50029056fea2646970667358221220d66e04be8125455c0fa6e5657833ef2032a486cf8c7cb31fb46a18bc14fd4ce764736f6c63430008100033",
    "linkReferences": {
      "src/Utils/LibString.sol": {
        "LibString": [
          {
            "start": 7726,
            "length": 20
          },
          {
            "start": 10211,
            "length": 20
          },
          {
            "start": 10981,
            "length": 20
          },
          {
            "start": 11139,
            "length": 20
          },
          {
            "start": 12116,
            "length": 20
          },
          {
            "start": 12274,
            "length": 20
          },
          {
            "start": 15020,
            "length": 20
          },
          {
            "start": 15178,
            "length": 20
          },
          {
            "start": 16439,
            "length": 20
          },
          {
            "start": 16600,
            "length": 20
          },
          {
            "start": 21126,
            "length": 20
          }
        ]
      }
    }
  },
  "methodIdentifiers": {
    "Dev()": "01e51ae8",
    "HELIX2()": "b782426e",
    "NAMES()": "05e84aa0",
    "Polycules(bytes32)": "75c4f68e",
    "Registrar()": "b9f37c86",
    "active()": "02fb0c5e",
    "addAnion(bytes32,bytes32,address,uint8)": "e73f8060",
    "alias_(bytes32)": "c5bc4c0b",
    "anion(bytes32)": "0e68b116",
    "basePrice()": "c7876ea4",
    "cation(bytes32)": "f61ccd53",
    "changeDev(address)": "88a8c95c",
    "controller(bytes32)": "dbd4e021",
    "covalence(bytes32)": "34026859",
    "expiry(bytes32)": "d2ec5fca",
    "hook(bytes32,bytes32,address,uint8)": "4475bf4b",
    "hooksWithRules(bytes32)": "0aac6625",
    "isApprovedForAll(bytes32,address)": "b0698628",
    "isLegalMap(bytes32[],uint8[])": "9f09d9f3",
    "isNotDuplicateAnion(bytes32,bytes32)": "f8c91244",
    "isNotDuplicateHook(bytes32,uint8)": "4d505584",
    "popAnion(bytes32,bytes32)": "8dcad139",
    "recordExists(bytes32)": "f79fe538",
    "register(bytes32,bytes32)": "2f926732",
    "rehook(bytes32,address,uint8)": "83669726",
    "rehook(bytes32,uint8,bytes32)": "5b55b376",
    "renew(bytes32,uint256)": "f544d82f",
    "resolver(bytes32)": "0178b8bf",
    "roothash()": "251c9422",
    "setAlias(bytes32,bytes32)": "1f06e91c",
    "setAnions(bytes32,bytes32[],address[],uint8[])": "250548b9",
    "setApprovalForAll(address,bool)": "a22cb465",
    "setCation(bytes32,bytes32)": "8146970a",
    "setController(bytes32,address)": "d3156905",
    "setCovalence(bytes32,bool)": "d07699aa",
    "setExpiry(bytes32,uint256)": "39de6469",
    "setRecord(bytes32,address)": "d9b76ed4",
    "setResolver(bytes32,address)": "1896f70a",
    "theEnd()": "22b68deb",
    "unhook(bytes32,bytes32)": "516aeda0",
    "unhook(bytes32,uint8)": "b612e9b9",
    "unhookAll(bytes32)": "21ec2b5b",
    "withdrawEther()": "7362377b"
  },
  "id": 39
}