{
  "abi": [
    {
      "inputs": [
        {
          "internalType": "address",
          "name": "_registry",
          "type": "address"
        },
        {
          "internalType": "address",
          "name": "_helix2",
          "type": "address"
        },
        {
          "internalType": "address",
          "name": "_priceOracle",
          "type": "address"
        }
      ],
      "stateMutability": "nonpayable",
      "type": "constructor"
    },
    {
      "inputs": [],
      "name": "BAD_ANION",
      "type": "error"
    },
    {
      "inputs": [],
      "name": "BAD_HOOK",
      "type": "error"
    },
    {
      "anonymous": false,
      "inputs": [
        {
          "indexed": true,
          "internalType": "address",
          "name": "cation",
          "type": "address"
        },
        {
          "indexed": true,
          "internalType": "address",
          "name": "operator",
          "type": "address"
        },
        {
          "indexed": false,
          "internalType": "bool",
          "name": "approved",
          "type": "bool"
        }
      ],
      "name": "ApprovalForAll",
      "type": "event"
    },
    {
      "anonymous": false,
      "inputs": [
        {
          "indexed": true,
          "internalType": "bytes32",
          "name": "polyhash",
          "type": "bytes32"
        },
        {
          "indexed": false,
          "internalType": "address",
          "name": "config",
          "type": "address"
        },
        {
          "indexed": false,
          "internalType": "uint8",
          "name": "rule",
          "type": "uint8"
        }
      ],
      "name": "Hooked",
      "type": "event"
    },
    {
      "anonymous": false,
      "inputs": [
        {
          "indexed": true,
          "internalType": "bytes32",
          "name": "polyhash",
          "type": "bytes32"
        },
        {
          "indexed": false,
          "internalType": "bytes32",
          "name": "anion",
          "type": "bytes32"
        }
      ],
      "name": "NewAnion",
      "type": "event"
    },
    {
      "anonymous": false,
      "inputs": [
        {
          "indexed": true,
          "internalType": "bytes32",
          "name": "polyhash",
          "type": "bytes32"
        },
        {
          "indexed": false,
          "internalType": "bytes32[]",
          "name": "anion",
          "type": "bytes32[]"
        }
      ],
      "name": "NewAnions",
      "type": "event"
    },
    {
      "anonymous": false,
      "inputs": [
        {
          "indexed": true,
          "internalType": "bytes32",
          "name": "polyhash",
          "type": "bytes32"
        },
        {
          "indexed": false,
          "internalType": "bytes32",
          "name": "cation",
          "type": "bytes32"
        }
      ],
      "name": "NewCation",
      "type": "event"
    },
    {
      "anonymous": false,
      "inputs": [
        {
          "indexed": true,
          "internalType": "bytes32",
          "name": "polyhash",
          "type": "bytes32"
        },
        {
          "indexed": false,
          "internalType": "address",
          "name": "controller",
          "type": "address"
        }
      ],
      "name": "NewController",
      "type": "event"
    },
    {
      "anonymous": false,
      "inputs": [
        {
          "indexed": true,
          "internalType": "bytes32",
          "name": "polyhash",
          "type": "bytes32"
        },
        {
          "indexed": false,
          "internalType": "bool",
          "name": "covalence",
          "type": "bool"
        }
      ],
      "name": "NewCovalence",
      "type": "event"
    },
    {
      "anonymous": false,
      "inputs": [
        {
          "indexed": false,
          "internalType": "address",
          "name": "Dev",
          "type": "address"
        },
        {
          "indexed": false,
          "internalType": "address",
          "name": "newDev",
          "type": "address"
        }
      ],
      "name": "NewDev",
      "type": "event"
    },
    {
      "anonymous": false,
      "inputs": [
        {
          "indexed": true,
          "internalType": "bytes32",
          "name": "polyhash",
          "type": "bytes32"
        },
        {
          "indexed": false,
          "internalType": "uint256",
          "name": "expiry",
          "type": "uint256"
        }
      ],
      "name": "NewExpiry",
      "type": "event"
    },
    {
      "anonymous": false,
      "inputs": [
        {
          "indexed": true,
          "internalType": "bytes32",
          "name": "polyhash",
          "type": "bytes32"
        },
        {
          "indexed": false,
          "internalType": "address",
          "name": "resolver",
          "type": "address"
        }
      ],
      "name": "NewRecord",
      "type": "event"
    },
    {
      "anonymous": false,
      "inputs": [
        {
          "indexed": true,
          "internalType": "bytes32",
          "name": "polyhash",
          "type": "bytes32"
        },
        {
          "indexed": false,
          "internalType": "address",
          "name": "resolver",
          "type": "address"
        }
      ],
      "name": "NewResolver",
      "type": "event"
    },
    {
      "anonymous": false,
      "inputs": [
        {
          "indexed": true,
          "internalType": "bytes32",
          "name": "polyhash",
          "type": "bytes32"
        },
        {
          "indexed": false,
          "internalType": "bytes32",
          "name": "anion",
          "type": "bytes32"
        }
      ],
      "name": "PopAnion",
      "type": "event"
    },
    {
      "anonymous": false,
      "inputs": [
        {
          "indexed": true,
          "internalType": "bytes32",
          "name": "polyhash",
          "type": "bytes32"
        },
        {
          "indexed": false,
          "internalType": "bytes32",
          "name": "anion",
          "type": "bytes32"
        },
        {
          "indexed": false,
          "internalType": "uint8",
          "name": "rule",
          "type": "uint8"
        }
      ],
      "name": "RehookedAnion",
      "type": "event"
    },
    {
      "anonymous": false,
      "inputs": [
        {
          "indexed": true,
          "internalType": "bytes32",
          "name": "polyhash",
          "type": "bytes32"
        },
        {
          "indexed": false,
          "internalType": "address",
          "name": "config",
          "type": "address"
        },
        {
          "indexed": false,
          "internalType": "uint8",
          "name": "rule",
          "type": "uint8"
        }
      ],
      "name": "RehookedConfig",
      "type": "event"
    },
    {
      "anonymous": false,
      "inputs": [
        {
          "indexed": true,
          "internalType": "bytes32",
          "name": "polyhash",
          "type": "bytes32"
        }
      ],
      "name": "UnhookedAll",
      "type": "event"
    },
    {
      "anonymous": false,
      "inputs": [
        {
          "indexed": true,
          "internalType": "bytes32",
          "name": "polyhash",
          "type": "bytes32"
        },
        {
          "indexed": false,
          "internalType": "bytes32",
          "name": "anion",
          "type": "bytes32"
        }
      ],
      "name": "UnhookedAnion",
      "type": "event"
    },
    {
      "anonymous": false,
      "inputs": [
        {
          "indexed": true,
          "internalType": "bytes32",
          "name": "polyhash",
          "type": "bytes32"
        },
        {
          "indexed": false,
          "internalType": "uint8",
          "name": "rule",
          "type": "uint8"
        }
      ],
      "name": "UnhookedConfig",
      "type": "event"
    },
    {
      "inputs": [],
      "name": "Dev",
      "outputs": [
        {
          "internalType": "address",
          "name": "",
          "type": "address"
        }
      ],
      "stateMutability": "view",
      "type": "function"
    },
    {
      "inputs": [],
      "name": "HELIX2",
      "outputs": [
        {
          "internalType": "contract iHELIX2",
          "name": "",
          "type": "address"
        }
      ],
      "stateMutability": "view",
      "type": "function"
    },
    {
      "inputs": [],
      "name": "NAMES",
      "outputs": [
        {
          "internalType": "contract iNAME",
          "name": "",
          "type": "address"
        }
      ],
      "stateMutability": "view",
      "type": "function"
    },
    {
      "inputs": [],
      "name": "PRICES",
      "outputs": [
        {
          "internalType": "contract iPriceOracle",
          "name": "",
          "type": "address"
        }
      ],
      "stateMutability": "view",
      "type": "function"
    },
    {
      "inputs": [
        {
          "internalType": "bytes32",
          "name": "",
          "type": "bytes32"
        }
      ],
      "name": "Polycules",
      "outputs": [
        {
          "internalType": "bytes32",
          "name": "_cation",
          "type": "bytes32"
        },
        {
          "internalType": "bytes32",
          "name": "_alias",
          "type": "bytes32"
        },
        {
          "internalType": "address",
          "name": "_resolver",
          "type": "address"
        },
        {
          "internalType": "address",
          "name": "_controller",
          "type": "address"
        },
        {
          "internalType": "bool",
          "name": "_covalence",
          "type": "bool"
        },
        {
          "internalType": "uint256",
          "name": "_expiry",
          "type": "uint256"
        }
      ],
      "stateMutability": "view",
      "type": "function"
    },
    {
      "inputs": [],
      "name": "Registrar",
      "outputs": [
        {
          "internalType": "address",
          "name": "",
          "type": "address"
        }
      ],
      "stateMutability": "view",
      "type": "function"
    },
    {
      "inputs": [],
      "name": "active",
      "outputs": [
        {
          "internalType": "bool",
          "name": "",
          "type": "bool"
        }
      ],
      "stateMutability": "view",
      "type": "function"
    },
    {
      "inputs": [
        {
          "internalType": "bytes32",
          "name": "polyhash",
          "type": "bytes32"
        },
        {
          "internalType": "bytes32",
          "name": "_anion",
          "type": "bytes32"
        },
        {
          "internalType": "address",
          "name": "config",
          "type": "address"
        },
        {
          "internalType": "uint8",
          "name": "rule",
          "type": "uint8"
        }
      ],
      "name": "addAnion",
      "outputs": [],
      "stateMutability": "nonpayable",
      "type": "function"
    },
    {
      "inputs": [
        {
          "internalType": "bytes32",
          "name": "polyhash",
          "type": "bytes32"
        }
      ],
      "name": "alias_",
      "outputs": [
        {
          "internalType": "bytes32",
          "name": "",
          "type": "bytes32"
        }
      ],
      "stateMutability": "view",
      "type": "function"
    },
    {
      "inputs": [
        {
          "internalType": "bytes32",
          "name": "polyhash",
          "type": "bytes32"
        }
      ],
      "name": "anion",
      "outputs": [
        {
          "internalType": "bytes32[]",
          "name": "",
          "type": "bytes32[]"
        }
      ],
      "stateMutability": "view",
      "type": "function"
    },
    {
      "inputs": [],
      "name": "basePrice",
      "outputs": [
        {
          "internalType": "uint256",
          "name": "",
          "type": "uint256"
        }
      ],
      "stateMutability": "view",
      "type": "function"
    },
    {
      "inputs": [
        {
          "internalType": "bytes32",
          "name": "polyhash",
          "type": "bytes32"
        }
      ],
      "name": "cation",
      "outputs": [
        {
          "internalType": "bytes32",
          "name": "",
          "type": "bytes32"
        }
      ],
      "stateMutability": "view",
      "type": "function"
    },
    {
      "inputs": [
        {
          "internalType": "address",
          "name": "newDev",
          "type": "address"
        }
      ],
      "name": "changeDev",
      "outputs": [],
      "stateMutability": "nonpayable",
      "type": "function"
    },
    {
      "inputs": [
        {
          "internalType": "bytes32",
          "name": "polyhash",
          "type": "bytes32"
        }
      ],
      "name": "controller",
      "outputs": [
        {
          "internalType": "address",
          "name": "",
          "type": "address"
        }
      ],
      "stateMutability": "view",
      "type": "function"
    },
    {
      "inputs": [
        {
          "internalType": "bytes32",
          "name": "polyhash",
          "type": "bytes32"
        }
      ],
      "name": "covalence",
      "outputs": [
        {
          "internalType": "bool",
          "name": "",
          "type": "bool"
        }
      ],
      "stateMutability": "view",
      "type": "function"
    },
    {
      "inputs": [
        {
          "internalType": "bytes32",
          "name": "polyhash",
          "type": "bytes32"
        }
      ],
      "name": "expiry",
      "outputs": [
        {
          "internalType": "uint256",
          "name": "",
          "type": "uint256"
        }
      ],
      "stateMutability": "view",
      "type": "function"
    },
    {
      "inputs": [
        {
          "internalType": "bytes32",
          "name": "__anion",
          "type": "bytes32"
        },
        {
          "internalType": "bytes32",
          "name": "polyhash",
          "type": "bytes32"
        },
        {
          "internalType": "address",
          "name": "config",
          "type": "address"
        },
        {
          "internalType": "uint8",
          "name": "rule",
          "type": "uint8"
        }
      ],
      "name": "hook",
      "outputs": [],
      "stateMutability": "nonpayable",
      "type": "function"
    },
    {
      "inputs": [
        {
          "internalType": "bytes32",
          "name": "polyhash",
          "type": "bytes32"
        }
      ],
      "name": "hooksWithRules",
      "outputs": [
        {
          "internalType": "uint8[]",
          "name": "_rules",
          "type": "uint8[]"
        },
        {
          "internalType": "address[]",
          "name": "_hooks",
          "type": "address[]"
        }
      ],
      "stateMutability": "view",
      "type": "function"
    },
    {
      "inputs": [
        {
          "internalType": "bytes32",
          "name": "_cation",
          "type": "bytes32"
        },
        {
          "internalType": "address",
          "name": "operator",
          "type": "address"
        }
      ],
      "name": "isApprovedForAll",
      "outputs": [
        {
          "internalType": "bool",
          "name": "",
          "type": "bool"
        }
      ],
      "stateMutability": "view",
      "type": "function"
    },
    {
      "inputs": [
        {
          "internalType": "bytes32[]",
          "name": "_anion",
          "type": "bytes32[]"
        },
        {
          "internalType": "uint8[]",
          "name": "_rule",
          "type": "uint8[]"
        }
      ],
      "name": "isLegalMap",
      "outputs": [
        {
          "internalType": "bool",
          "name": "",
          "type": "bool"
        }
      ],
      "stateMutability": "pure",
      "type": "function"
    },
    {
      "inputs": [
        {
          "internalType": "bytes32",
          "name": "polyhash",
          "type": "bytes32"
        },
        {
          "internalType": "bytes32",
          "name": "_anion",
          "type": "bytes32"
        }
      ],
      "name": "isNotDuplicateAnion",
      "outputs": [
        {
          "internalType": "bool",
          "name": "",
          "type": "bool"
        }
      ],
      "stateMutability": "view",
      "type": "function"
    },
    {
      "inputs": [
        {
          "internalType": "bytes32",
          "name": "polyhash",
          "type": "bytes32"
        },
        {
          "internalType": "uint8",
          "name": "rule",
          "type": "uint8"
        }
      ],
      "name": "isNotDuplicateHook",
      "outputs": [
        {
          "internalType": "bool",
          "name": "",
          "type": "bool"
        }
      ],
      "stateMutability": "view",
      "type": "function"
    },
    {
      "inputs": [
        {
          "internalType": "bytes32",
          "name": "polyhash",
          "type": "bytes32"
        },
        {
          "internalType": "bytes32",
          "name": "__anion",
          "type": "bytes32"
        }
      ],
      "name": "popAnion",
      "outputs": [],
      "stateMutability": "nonpayable",
      "type": "function"
    },
    {
      "inputs": [
        {
          "internalType": "bytes32",
          "name": "polyhash",
          "type": "bytes32"
        }
      ],
      "name": "recordExists",
      "outputs": [
        {
          "internalType": "bool",
          "name": "",
          "type": "bool"
        }
      ],
      "stateMutability": "view",
      "type": "function"
    },
    {
      "inputs": [
        {
          "internalType": "bytes32",
          "name": "polyhash",
          "type": "bytes32"
        },
        {
          "internalType": "bytes32",
          "name": "_cation",
          "type": "bytes32"
        }
      ],
      "name": "register",
      "outputs": [],
      "stateMutability": "nonpayable",
      "type": "function"
    },
    {
      "inputs": [
        {
          "internalType": "bytes32",
          "name": "polyhash",
          "type": "bytes32"
        },
        {
          "internalType": "uint8",
          "name": "rule",
          "type": "uint8"
        },
        {
          "internalType": "bytes32",
          "name": "__anion",
          "type": "bytes32"
        }
      ],
      "name": "rehook",
      "outputs": [],
      "stateMutability": "nonpayable",
      "type": "function"
    },
    {
      "inputs": [
        {
          "internalType": "bytes32",
          "name": "polyhash",
          "type": "bytes32"
        },
        {
          "internalType": "address",
          "name": "config",
          "type": "address"
        },
        {
          "internalType": "uint8",
          "name": "rule",
          "type": "uint8"
        }
      ],
      "name": "rehook",
      "outputs": [],
      "stateMutability": "nonpayable",
      "type": "function"
    },
    {
      "inputs": [
        {
          "internalType": "bytes32",
          "name": "molyhash",
          "type": "bytes32"
        },
        {
          "internalType": "uint256",
          "name": "_expiry",
          "type": "uint256"
        }
      ],
      "name": "renew",
      "outputs": [],
      "stateMutability": "payable",
      "type": "function"
    },
    {
      "inputs": [
        {
          "internalType": "bytes32",
          "name": "polyhash",
          "type": "bytes32"
        }
      ],
      "name": "resolver",
      "outputs": [
        {
          "internalType": "address",
          "name": "",
          "type": "address"
        }
      ],
      "stateMutability": "view",
      "type": "function"
    },
    {
      "inputs": [],
      "name": "roothash",
      "outputs": [
        {
          "internalType": "bytes32",
          "name": "",
          "type": "bytes32"
        }
      ],
      "stateMutability": "view",
      "type": "function"
    },
    {
      "inputs": [
        {
          "internalType": "bytes32",
          "name": "polyhash",
          "type": "bytes32"
        },
        {
          "internalType": "bytes32",
          "name": "_alias",
          "type": "bytes32"
        }
      ],
      "name": "setAlias",
      "outputs": [],
      "stateMutability": "nonpayable",
      "type": "function"
    },
    {
      "inputs": [
        {
          "internalType": "bytes32",
          "name": "polyhash",
          "type": "bytes32"
        },
        {
          "internalType": "bytes32[]",
          "name": "_anion",
          "type": "bytes32[]"
        },
        {
          "internalType": "address[]",
          "name": "_hooks",
          "type": "address[]"
        },
        {
          "internalType": "uint8[]",
          "name": "_rule",
          "type": "uint8[]"
        }
      ],
      "name": "setAnions",
      "outputs": [],
      "stateMutability": "nonpayable",
      "type": "function"
    },
    {
      "inputs": [
        {
          "internalType": "address",
          "name": "operator",
          "type": "address"
        },
        {
          "internalType": "bool",
          "name": "approved",
          "type": "bool"
        }
      ],
      "name": "setApprovalForAll",
      "outputs": [],
      "stateMutability": "nonpayable",
      "type": "function"
    },
    {
      "inputs": [
        {
          "internalType": "bytes32",
          "name": "polyhash",
          "type": "bytes32"
        },
        {
          "internalType": "bytes32",
          "name": "_cation",
          "type": "bytes32"
        }
      ],
      "name": "setCation",
      "outputs": [],
      "stateMutability": "nonpayable",
      "type": "function"
    },
    {
      "inputs": [
        {
          "internalType": "address",
          "name": "_helix2",
          "type": "address"
        },
        {
          "internalType": "address",
          "name": "_priceOracle",
          "type": "address"
        }
      ],
      "name": "setConfig",
      "outputs": [],
      "stateMutability": "nonpayable",
      "type": "function"
    },
    {
      "inputs": [
        {
          "internalType": "bytes32",
          "name": "polyhash",
          "type": "bytes32"
        },
        {
          "internalType": "address",
          "name": "_controller",
          "type": "address"
        }
      ],
      "name": "setController",
      "outputs": [],
      "stateMutability": "nonpayable",
      "type": "function"
    },
    {
      "inputs": [
        {
          "internalType": "bytes32",
          "name": "polyhash",
          "type": "bytes32"
        },
        {
          "internalType": "bool",
          "name": "_covalence",
          "type": "bool"
        }
      ],
      "name": "setCovalence",
      "outputs": [],
      "stateMutability": "nonpayable",
      "type": "function"
    },
    {
      "inputs": [
        {
          "internalType": "bytes32",
          "name": "molyhash",
          "type": "bytes32"
        },
        {
          "internalType": "uint256",
          "name": "_expiry",
          "type": "uint256"
        }
      ],
      "name": "setExpiry",
      "outputs": [],
      "stateMutability": "nonpayable",
      "type": "function"
    },
    {
      "inputs": [
        {
          "internalType": "bytes32",
          "name": "polyhash",
          "type": "bytes32"
        },
        {
          "internalType": "address",
          "name": "_resolver",
          "type": "address"
        }
      ],
      "name": "setRecord",
      "outputs": [],
      "stateMutability": "nonpayable",
      "type": "function"
    },
    {
      "inputs": [
        {
          "internalType": "bytes32",
          "name": "polyhash",
          "type": "bytes32"
        },
        {
          "internalType": "address",
          "name": "_resolver",
          "type": "address"
        }
      ],
      "name": "setResolver",
      "outputs": [],
      "stateMutability": "nonpayable",
      "type": "function"
    },
    {
      "inputs": [],
      "name": "theEnd",
      "outputs": [
        {
          "internalType": "uint256",
          "name": "",
          "type": "uint256"
        }
      ],
      "stateMutability": "view",
      "type": "function"
    },
    {
      "inputs": [],
      "name": "toggleActive",
      "outputs": [],
      "stateMutability": "nonpayable",
      "type": "function"
    },
    {
      "inputs": [
        {
          "internalType": "bytes32",
          "name": "polyhash",
          "type": "bytes32"
        },
        {
          "internalType": "bytes32",
          "name": "__anion",
          "type": "bytes32"
        }
      ],
      "name": "unhook",
      "outputs": [],
      "stateMutability": "nonpayable",
      "type": "function"
    },
    {
      "inputs": [
        {
          "internalType": "bytes32",
          "name": "polyhash",
          "type": "bytes32"
        },
        {
          "internalType": "uint8",
          "name": "rule",
          "type": "uint8"
        }
      ],
      "name": "unhook",
      "outputs": [],
      "stateMutability": "nonpayable",
      "type": "function"
    },
    {
      "inputs": [
        {
          "internalType": "bytes32",
          "name": "polyhash",
          "type": "bytes32"
        }
      ],
      "name": "unhookAll",
      "outputs": [],
      "stateMutability": "nonpayable",
      "type": "function"
    },
    {
      "inputs": [],
      "name": "withdrawEther",
      "outputs": [],
      "stateMutability": "nonpayable",
      "type": "function"
    }
  ],
  "bytecode": {
    "object": "0x60806040526003805460ff60a01b1916600160a01b1790556703782dace9d900006007553480156200003057600080fd5b5060405162005570380380620055708339810160408190526200005391620007c1565b60038054336001600160a01b0319918216179091556000805482166001600160a01b03858116918217909255600180549093169186169190911790915560408051633215476b60e11b8152905163642a8ed6916004808201926080929091908290030181865afa158015620000cc573d6000803e3d6000fd5b505050506040513d601f19601f82011682018060405250810190620000f2919062000842565b606001516004908155600280546001600160a01b0319166001600160a01b0384169081179091556040805163bd9a548b60e01b81529051919263bd9a548b9282820192608092908290030181865afa15801562000153573d6000803e3d6000fd5b505050506040513d601f19601f8201168201806040525081019062000179919062000842565b606001516005556200018a62000193565b505050620008e7565b7fe0f13b40287d4b83ba2a967e6b5baa79fd9f355757d595c15018be21fb9a246880546001600160a01b031916905560408051602081810190925260008082528052600890915262000209907f5eff886ea0ce6ca488a3d6e336d6c0f75f46d19b42c06ce5ee98e42c96d256c7906001620006a2565b5060007f5eff886ea0ce6ca488a3d6e336d6c0f75f46d19b42c06ce5ee98e42c96d256c98190556040805160208181019092528281529180526008905262000275907f5eff886ea0ce6ca488a3d6e336d6c0f75f46d19b42c06ce5ee98e42c96d256ca9060016200074f565b50600080805260086020527f5eff886ea0ce6ca488a3d6e336d6c0f75f46d19b42c06ce5ee98e42c96d256cb8190557f5eff886ea0ce6ca488a3d6e336d6c0f75f46d19b42c06ce5ee98e42c96d256cd80546007547f5eff886ea0ce6ca488a3d6e336d6c0f75f46d19b42c06ce5ee98e42c96d256ce556001600160a81b03191633908117600160a01b179091557f5eff886ea0ce6ca488a3d6e336d6c0f75f46d19b42c06ce5ee98e42c96d256cc80546001600160a01b0319169091179055805460408051633215476b60e11b815290516001600160a01b03929092169163642a8ed6916004818101926080929091908290030181865afa15801562000380573d6000803e3d6000fd5b505050506040513d601f19601f82011682018060405250810190620003a6919062000842565b905060005b60048110156200069e57600060086000848460048110620003d057620003d0620008a9565b6020908102919091015182528181019290925260409081016000908120818052600101835281812080546001600160a01b0319166001600160a01b03959095169490941790935580519182019052818152906008908484600481106200043a576200043a620008a9565b6020020151815260200190815260200160002060000190600162000460929190620006a2565b50818160048110620004765762000476620008a9565b602002015160086000848460048110620004945762000494620008a9565b60200201518152602001908152602001600020600201819055506040518060200160405280838360048110620004ce57620004ce620008a9565b6020020151905260086000848460048110620004ee57620004ee620008a9565b60200201518152602001908152602001600020600301906001620005149291906200074f565b508181600481106200052a576200052a620008a9565b602002015160086000848460048110620005485762000548620008a9565b60200201518152602001908152602001600020600401819055506001600860008484600481106200057d576200057d620008a9565b6020020151815260200190815260200160002060060160146101000a81548160ff02191690831515021790555060075460086000848460048110620005c657620005c6620008a9565b60200201518152602001908152602001600020600701819055503360086000848460048110620005fa57620005fa620008a9565b6020020151815260200190815260200160002060060160006101000a8154816001600160a01b0302191690836001600160a01b0316021790555033600860008484600481106200064e576200064e620008a9565b6020020151815260200190815260200160002060050160006101000a8154816001600160a01b0302191690836001600160a01b0316021790555080806200069590620008bf565b915050620003ab565b5050565b82805482825590600052602060002090601f016020900481019282156200073d5791602002820160005b838211156200070c57835183826101000a81548160ff021916908360ff1602179055509260200192600101602081600001049283019260010302620006cc565b80156200073b5782816101000a81549060ff02191690556001016020816000010492830192600103026200070c565b505b506200074b9291506200078d565b5090565b8280548282559060005260206000209081019282156200073d579160200282015b828111156200073d57825182559160200191906001019062000770565b5b808211156200074b57600081556001016200078e565b80516001600160a01b0381168114620007bc57600080fd5b919050565b600080600060608486031215620007d757600080fd5b620007e284620007a4565b9250620007f260208501620007a4565b91506200080260408501620007a4565b90509250925092565b604051608081016001600160401b03811182821017156200083c57634e487b7160e01b600052604160045260246000fd5b60405290565b6000608082840312156200085557600080fd5b82601f8301126200086557600080fd5b6200086f6200080b565b8060808401858111156200088257600080fd5b845b818110156200089e57805184526020938401930162000884565b509095945050505050565b634e487b7160e01b600052603260045260246000fd5b600060018201620008e057634e487b7160e01b600052601160045260246000fd5b5060010190565b614c7980620008f76000396000f3fe6080604052600436106102fd5760003560e01c80638146970a1161018f578063c5bc4c0b116100e1578063dbd4e0211161008a578063f61ccd5311610064578063f61ccd531461092d578063f79fe5381461094d578063f8c912441461097f57600080fd5b8063dbd4e021146108da578063e73f8060146108fa578063f544d82f1461091a57600080fd5b8063d2ec5fca116100bb578063d2ec5fca1461086a578063d31569051461089a578063d9b76ed4146108ba57600080fd5b8063c5bc4c0b14610814578063c7876ea414610834578063d07699aa1461084a57600080fd5b8063a22cb46511610143578063b612e9b91161011d578063b612e9b9146107b4578063b782426e146107d4578063b9f37c86146107f457600080fd5b8063a22cb46514610754578063b069862814610774578063b602024b1461079457600080fd5b806388a8c95c1161017457806388a8c95c146106f45780638dcad139146107145780639f09d9f31461073457600080fd5b80638146970a146106b457806383669726146106d457600080fd5b8063250548b9116102535780634475bf4b116101fc5780635b55b376116101d65780635b55b376146105cd5780637362377b146105ed57806375c4f68e1461060257600080fd5b80634475bf4b1461056d5780634d5055841461058d578063516aeda0146105ad57600080fd5b80632f9267321161022d5780632f9267321461050d578063340268591461052d57806339de64691461054d57600080fd5b8063250548b9146104c2578063251c9422146104e257806329c68dc1146104f857600080fd5b80630e68b116116102b55780631f06e91c1161028f5780631f06e91c1461045e57806321ec2b5b1461047e57806322b68deb1461049e57600080fd5b80630e68b116146103ef5780631896f70a1461041c5780631eabcd341461043e57600080fd5b806302fb0c5e116102e657806302fb0c5e1461035f57806305e84aa0146103a15780630aac6625146103c157600080fd5b80630178b8bf1461030257806301e51ae81461033f575b600080fd5b34801561030e57600080fd5b5061032261031d36600461449b565b61099f565b6040516001600160a01b0390911681526020015b60405180910390f35b34801561034b57600080fd5b50600354610322906001600160a01b031681565b34801561036b57600080fd5b506003546103919074010000000000000000000000000000000000000000900460ff1681565b6040519015158152602001610336565b3480156103ad57600080fd5b50600154610322906001600160a01b031681565b3480156103cd57600080fd5b506103e16103dc36600461449b565b610a1d565b6040516103369291906144b4565b3480156103fb57600080fd5b5061040f61040a36600461449b565b610bdf565b604051610336919061453b565b34801561042857600080fd5b5061043c610437366004614594565b610c9e565b005b34801561044a57600080fd5b50600254610322906001600160a01b031681565b34801561046a57600080fd5b5061043c6104793660046145c4565b610e59565b34801561048a57600080fd5b5061043c61049936600461449b565b610ec8565b3480156104aa57600080fd5b506104b460075481565b604051908152602001610336565b3480156104ce57600080fd5b5061043c6104dd366004614794565b61120f565b3480156104ee57600080fd5b506104b460045481565b34801561050457600080fd5b5061043c611601565b34801561051957600080fd5b5061043c6105283660046145c4565b6116a8565b34801561053957600080fd5b5061039161054836600461449b565b61181a565b34801561055957600080fd5b5061043c6105683660046145c4565b6118a1565b34801561057957600080fd5b5061043c610588366004614886565b6119a3565b34801561059957600080fd5b506103916105a83660046148ce565b611ca1565b3480156105b957600080fd5b5061043c6105c83660046145c4565b611d35565b3480156105d957600080fd5b5061043c6105e83660046148fa565b61211c565b3480156105f957600080fd5b5061043c612481565b34801561060e57600080fd5b5061067861061d36600461449b565b60086020526000908152604090206002810154600482015460058301546006840154600790940154929391926001600160a01b03918216929182169174010000000000000000000000000000000000000000900460ff169086565b6040805196875260208701959095526001600160a01b0393841694860194909452911660608401521515608083015260a082015260c001610336565b3480156106c057600080fd5b5061043c6106cf3660046145c4565b612527565b3480156106e057600080fd5b5061043c6106ef36600461492f565b612790565b34801561070057600080fd5b5061043c61070f36600461496d565b612a19565b34801561072057600080fd5b5061043c61072f3660046145c4565b612ae9565b34801561074057600080fd5b5061039161074f366004614991565b612e81565b34801561076057600080fd5b5061043c61076f366004614a05565b612e9c565b34801561078057600080fd5b5061039161078f366004614594565b612f26565b3480156107a057600080fd5b5061043c6107af366004614a31565b612fca565b3480156107c057600080fd5b5061043c6107cf3660046148ce565b613228565b3480156107e057600080fd5b50600054610322906001600160a01b031681565b34801561080057600080fd5b50600654610322906001600160a01b031681565b34801561082057600080fd5b506104b461082f36600461449b565b613574565b34801561084057600080fd5b506104b460055481565b34801561085657600080fd5b5061043c610865366004614a5f565b6135e0565b34801561087657600080fd5b506104b461088536600461449b565b60009081526008602052604090206007015490565b3480156108a657600080fd5b5061043c6108b5366004614594565b6137ad565b3480156108c657600080fd5b5061043c6108d5366004614594565b61395d565b3480156108e657600080fd5b506103226108f536600461449b565b613b0d565b34801561090657600080fd5b5061043c610915366004614886565b613b82565b61043c6109283660046145c4565b613f04565b34801561093957600080fd5b506104b461094836600461449b565b6141a8565b34801561095957600080fd5b5061039161096836600461449b565b600090815260086020526040902060070154421090565b34801561098b57600080fd5b5061039161099a3660046145c4565b6142a3565b600081815260086020526040812060070154829042106109f95760405162461bcd60e51b815260206004820152601060248201526f1413d31650d5531157d156141254915160821b60448201526064015b60405180910390fd5b6000838152600860205260409020600501546001600160a01b031691505b50919050565b600081815260086020526040902060070154606090819083904210610a775760405162461bcd60e51b815260206004820152601060248201526f1413d31650d5531157d156141254915160821b60448201526064016109f0565b60008481526008602090815260409182902080548351818402810184019094528084529091830182828015610ae957602002820191906000526020600020906000905b825461010083900a900460ff16815260206001928301818104948501949093039092029101808411610aba5790505b50505050509250825167ffffffffffffffff811115610b0a57610b0a6145e6565b604051908082528060200260200182016040528015610b33578160200160208202803683370190505b50915060005b8351811015610bd857600860008681526020019081526020016000206001016000858381518110610b6c57610b6c614a82565b602002602001015160ff1660ff16815260200190815260200160002060009054906101000a90046001600160a01b0316838281518110610bae57610bae614a82565b6001600160a01b039092166020928302919091019091015280610bd081614ae0565b915050610b39565b5050915091565b60008181526008602052604090206007015460609082904210610c375760405162461bcd60e51b815260206004820152601060248201526f1413d31650d5531157d156141254915160821b60448201526064016109f0565b600083815260086020908152604080832060030180548251818502810185019093528083529192909190830182828015610c9057602002820191906000526020600020905b815481526020019060010190808311610c7c575b509398975050505050505050565b6000828152600860205260408082206002015460015491516302571be360e01b815260048101829052859391926001600160a01b0316906302571be390602401602060405180830381865afa158015610cfb573d6000803e3d6000fd5b505050506040513d601f19601f82011682018060405250810190610d1f9190614b18565b6006549091506001600160a01b0316331480610d4357506001600160a01b03811633145b80610d7157506001600160a01b038116600090815260096020908152604080832033845290915290205460ff165b80610d9557506000838152600860205260409020600601546001600160a01b031633145b610de15760405162461bcd60e51b815260206004820152600e60248201527f4e4f545f415554484f524953454400000000000000000000000000000000000060448201526064016109f0565b600085815260086020908152604091829020600501805473ffffffffffffffffffffffffffffffffffffffff19166001600160a01b038816908117909155915191825286917f335721b01866dc23fbee8b6b2c7b1e14d6f05c28cd35a2c934239f94095602a091015b60405180910390a25050505050565b6006546001600160a01b03163314610eb35760405162461bcd60e51b815260206004820152600d60248201527f4e4f545f5245474953545241520000000000000000000000000000000000000060448201526064016109f0565b60009182526008602052604090912060040155565b60008181526008602052604090206007015481904210610f1d5760405162461bcd60e51b815260206004820152601060248201526f1413d31650d5531157d156141254915160821b60448201526064016109f0565b6000818152600860205260408082206002015460015491516302571be360e01b8152600481018290529092916001600160a01b0316906302571be390602401602060405180830381865afa158015610f79573d6000803e3d6000fd5b505050506040513d601f19601f82011682018060405250810190610f9d9190614b18565b90506001600160a01b038116331480610fd957506001600160a01b038116600090815260096020908152604080832033845290915290205460ff165b80610ffd57506000838152600860205260409020600601546001600160a01b031633145b6110495760405162461bcd60e51b815260206004820152601760248201527f4e4f545f4f574e45525f4f525f434f4e54524f4c4c455200000000000000000060448201526064016109f0565b6000848152600860209081526040808320805482518185028101850190935280835291929091908301828280156110bd57602002820191906000526020600020906000905b825461010083900a900460ff1681526020600192830181810494850194909303909202910180841161108e5790505b5050505050905060005b81518110156111a85760006008600088815260200190815260200160002060010160008484815181106110fc576110fc614a82565b602002602001015160ff1660ff16815260200190815260200160002060006101000a8154816001600160a01b0302191690836001600160a01b03160217905550857ff975f0cee916e0c09312f138a17c70e178a4c2186f302a6f085a6d5273cd105183838151811061117057611170614a82565b602002602001015160405161118e919060ff91909116815260200190565b60405180910390a2806111a081614ae0565b9150506110c7565b5060008581526008602052604081206111c091614443565b60008581526008602052604081206111dd91600390910190614468565b60405185907f6b91085369552b61ca16180a741663b69fb6b3b967f7271116521d84e2291dc590600090a25050505050565b6000848152600860205260408082206002015460015491516302571be360e01b815260048101829052879391926001600160a01b0316906302571be390602401602060405180830381865afa15801561126c573d6000803e3d6000fd5b505050506040513d601f19601f820116820180604052508101906112909190614b18565b6006549091506001600160a01b03163314806112b457506001600160a01b03811633145b806112e257506001600160a01b038116600090815260096020908152604080832033845290915290205460ff165b8061130657506000838152600860205260409020600601546001600160a01b031633145b6113525760405162461bcd60e51b815260206004820152600e60248201527f4e4f545f415554484f524953454400000000000000000000000000000000000060448201526064016109f0565b61135c8685612e81565b6113a85760405162461bcd60e51b815260206004820152600760248201527f4241445f4d41500000000000000000000000000000000000000000000000000060448201526064016109f0565b60005b86518110156115bf57600088815260086020908152604091829020600301805483518184028101840190945280845261143b939283018282801561140e57602002820191906000526020600020905b8154815260200190600101908083116113fa575b505050505088838151811061142557611425614a82565b602002602001015161430f90919063ffffffff16565b6115ad576008600089815260200190815260200160002060030187828151811061146757611467614a82565b602090810291909101810151825460018101845560009384528284200155898252600890526040902085518690839081106114a4576114a4614a82565b6020908102919091018101518254600181018455600093845292829020918304909101805460ff928316601f9094166101000a938402929093021990921617905585518690829081106114f9576114f9614a82565b6020026020010151600860008a8152602001908152602001600020600101600087848151811061152b5761152b614a82565b60209081029190910181015160ff1682528181019290925260409081016000908120805473ffffffffffffffffffffffffffffffffffffffff19166001600160a01b0395909516949094179093558a83526008909152902060060180547fffffffffffffffffffffff00ffffffffffffffffffffffffffffffffffffffff1690555b806115b781614ae0565b9150506113ab565b50867f580d99949e5d5a02f35dc5b91b800697d53dccb814e200f24f97b4bfbeb8667c876040516115f0919061453b565b60405180910390a250505050505050565b6003546001600160a01b0316331461165b5760405162461bcd60e51b815260206004820152600760248201527f4e4f545f4445560000000000000000000000000000000000000000000000000060448201526064016109f0565b600380547fffffffffffffffffffffff00ffffffffffffffffffffffffffffffffffffffff8116740100000000000000000000000000000000000000009182900460ff1615909102179055565b6006546001600160a01b031633146117025760405162461bcd60e51b815260206004820152600d60248201527f4e4f545f5245474953545241520000000000000000000000000000000000000060448201526064016109f0565b6001546040516302571be360e01b8152600481018390526000916001600160a01b0316906302571be390602401602060405180830381865afa15801561174c573d6000803e3d6000fd5b505050506040513d601f19601f820116820180604052508101906117709190614b18565b6001600160a01b0316036117c65760405162461bcd60e51b815260206004820152600b60248201527f43414e4e4f545f4255524e00000000000000000000000000000000000000000060448201526064016109f0565b600082815260086020526040908190206002018290555182907f4810581adf2c16a86a375dbb1ed89b0b0f7e64d48d24e1948b3dfe6581e4d7959061180e9084815260200190565b60405180910390a25050565b6000818152600860205260408120600701548290421061186f5760405162461bcd60e51b815260206004820152601060248201526f1413d31650d5531157d156141254915160821b60448201526064016109f0565b505060009081526008602052604090206006015474010000000000000000000000000000000000000000900460ff1690565b6006546001600160a01b031633146118fb5760405162461bcd60e51b815260206004820152600d60248201527f4e4f545f5245474953545241520000000000000000000000000000000000000060448201526064016109f0565b600082815260086020526040902060070154811161195b5760405162461bcd60e51b815260206004820152600a60248201527f4241445f4558504952590000000000000000000000000000000000000000000060448201526064016109f0565b600082815260086020526040908190206007018290555182907fa620b72378ee464490805a96e25b53e5c0076f0ce2d28f9691ae255a595b3bf39061180e9084815260200190565b600083815260086020526040902060070154839042106119f85760405162461bcd60e51b815260206004820152601060248201526f1413d31650d5531157d156141254915160821b60448201526064016109f0565b6000818152600860205260408082206002015460015491516302571be360e01b8152600481018290529092916001600160a01b0316906302571be390602401602060405180830381865afa158015611a54573d6000803e3d6000fd5b505050506040513d601f19601f82011682018060405250810190611a789190614b18565b90506001600160a01b038116331480611ab457506001600160a01b038116600090815260096020908152604080832033845290915290205460ff165b80611ad857506000838152600860205260409020600601546001600160a01b031633145b611b245760405162461bcd60e51b815260206004820152601760248201527f4e4f545f4f574e45525f4f525f434f4e54524f4c4c455200000000000000000060448201526064016109f0565b611b2e86886142a3565b611b7a5760405162461bcd60e51b815260206004820152600c60248201527f414e494f4e5f455849535453000000000000000000000000000000000000000060448201526064016109f0565b611b848685611ca1565b611bd05760405162461bcd60e51b815260206004820152600b60248201527f484f4f4b5f45584953545300000000000000000000000000000000000000000060448201526064016109f0565b600086815260086020818152604080842080546001818101835582875284872085830401805460ff808e16601f9095166101000a858102910219909116179055908652808201845282862080546001600160a01b038d1673ffffffffffffffffffffffffffffffffffffffff199091161790559383526003018054938401815584529220018890555186907fc733a2bc621cc97eef6ed4f708f126e72e6acb76c0a1c0461c9dd31f7b987065906115f090889088906001600160a01b0392909216825260ff16602082015260400190565b60008281526008602090815260408083208054825181850281018501909352808352611d2b93830182828015611d1457602002820191906000526020600020906000905b825461010083900a900460ff16815260206001928301818104948501949093039092029101808411611ce55790505b50505050508360ff1661436290919063ffffffff16565b1590505b92915050565b60008281526008602052604090206007015482904210611d8a5760405162461bcd60e51b815260206004820152601060248201526f1413d31650d5531157d156141254915160821b60448201526064016109f0565b6000818152600860205260408082206002015460015491516302571be360e01b8152600481018290529092916001600160a01b0316906302571be390602401602060405180830381865afa158015611de6573d6000803e3d6000fd5b505050506040513d601f19601f82011682018060405250810190611e0a9190614b18565b90506001600160a01b038116331480611e4657506001600160a01b038116600090815260096020908152604080832033845290915290205460ff165b80611e6a57506000838152600860205260409020600601546001600160a01b031633145b611eb65760405162461bcd60e51b815260206004820152601760248201527f4e4f545f4f574e45525f4f525f434f4e54524f4c4c455200000000000000000060448201526064016109f0565b600085815260086020908152604080832080548251818502810185019093528083529192909190830182828015611f2a57602002820191906000526020600020906000905b825461010083900a900460ff16815260206001928301818104948501949093039092029101808411611efb5790505b50505050509050600060086000888152602001908152602001600020600301805480602002602001604051908101604052809291908181526020018280548015611f9357602002820191906000526020600020905b815481526020019060010190808311611f7f575b50505050509050611fad818761430f90919063ffffffff16565b156120e0576000611fbe87836143b1565b90506000600860008a81526020019081526020016000206001016000858481518110611fec57611fec614a82565b602002602001015160ff1660ff16815260200190815260200160002060006101000a8154816001600160a01b0302191690836001600160a01b03160217905550877ff13ce89e57ea348ff8e29c4131c87b4d1b50ecf4edb1c68288b5e0cd3985b3f98860405161205e91815260200190565b60405180910390a2600088815260086020526040902080548290811061208657612086614a82565b90600052602060002090602091828204019190066101000a81549060ff02191690556008600089815260200190815260200160002060030181815481106120cf576120cf614a82565b600091825260208220015550612113565b6040516000815287907ff13ce89e57ea348ff8e29c4131c87b4d1b50ecf4edb1c68288b5e0cd3985b3f9906020016115f0565b50505050505050565b600083815260086020526040902060070154839042106121715760405162461bcd60e51b815260206004820152601060248201526f1413d31650d5531157d156141254915160821b60448201526064016109f0565b6000818152600860205260408082206002015460015491516302571be360e01b8152600481018290529092916001600160a01b0316906302571be390602401602060405180830381865afa1580156121cd573d6000803e3d6000fd5b505050506040513d601f19601f820116820180604052508101906121f19190614b18565b90506001600160a01b03811633148061222d57506001600160a01b038116600090815260096020908152604080832033845290915290205460ff165b8061225157506000838152600860205260409020600601546001600160a01b031633145b61229d5760405162461bcd60e51b815260206004820152601760248201527f4e4f545f4f574e45525f4f525f434f4e54524f4c4c455200000000000000000060448201526064016109f0565b6000868152600860209081526040808320600301805482518185028101850190935280835291929091908301828280156122f657602002820191906000526020600020905b8154815260200190600101908083116122e2575b50505050509050612310818661430f90919063ffffffff16565b1561244f57600061232186836143b1565b6000898152600860205260409020805491925060ff8916918390811061234957612349614a82565b60009182526020918290209181049091015460ff601f9092166101000a900416036123b65760405162461bcd60e51b815260206004820152600b60248201527f52554c455f45584953545300000000000000000000000000000000000000000060448201526064016109f0565b60008881526008602052604090208054889190839081106123d9576123d9614a82565b90600052602060002090602091828204019190066101000a81548160ff021916908360ff160217905550877f12bf96b3da46c044c59d8b13a96d1a5f53adf413cbe17f743ac2ed2c285257de878960405161244192919091825260ff16602082015260400190565b60405180910390a250612113565b6040517f62316f6700000000000000000000000000000000000000000000000000000000815260040160405180910390fd5b6003546040516000916001600160a01b03169047908381818185875af1925050503d80600081146124ce576040519150601f19603f3d011682016040523d82523d6000602084013e6124d3565b606091505b50509050806125245760405162461bcd60e51b815260206004820152601360248201527f4554485f5452414e534645525f4641494c45440000000000000000000000000060448201526064016109f0565b50565b6000828152600860205260409020600701548290421061257c5760405162461bcd60e51b815260206004820152601060248201526f1413d31650d5531157d156141254915160821b60448201526064016109f0565b6000818152600860205260408082206002015460015491516302571be360e01b8152600481018290529092916001600160a01b0316906302571be390602401602060405180830381865afa1580156125d8573d6000803e3d6000fd5b505050506040513d601f19601f820116820180604052508101906125fc9190614b18565b90506001600160a01b03811633148061263857506001600160a01b038116600090815260096020908152604080832033845290915290205460ff165b6126845760405162461bcd60e51b815260206004820152600960248201527f4e4f545f4f574e4552000000000000000000000000000000000000000000000060448201526064016109f0565b6001546040516302571be360e01b8152600481018690526000916001600160a01b0316906302571be390602401602060405180830381865afa1580156126ce573d6000803e3d6000fd5b505050506040513d601f19601f820116820180604052508101906126f29190614b18565b6001600160a01b0316036127485760405162461bcd60e51b815260206004820152600b60248201527f43414e4e4f545f4255524e00000000000000000000000000000000000000000060448201526064016109f0565b600085815260086020526040908190206002018590555185907f4810581adf2c16a86a375dbb1ed89b0b0f7e64d48d24e1948b3dfe6581e4d79590610e4a9087815260200190565b600083815260086020526040902060070154839042106127e55760405162461bcd60e51b815260206004820152601060248201526f1413d31650d5531157d156141254915160821b60448201526064016109f0565b6000818152600860205260408082206002015460015491516302571be360e01b8152600481018290529092916001600160a01b0316906302571be390602401602060405180830381865afa158015612841573d6000803e3d6000fd5b505050506040513d601f19601f820116820180604052508101906128659190614b18565b90506001600160a01b0381163314806128a157506001600160a01b038116600090815260096020908152604080832033845290915290205460ff165b806128c557506000838152600860205260409020600601546001600160a01b031633145b6129115760405162461bcd60e51b815260206004820152601760248201527f4e4f545f4f574e45525f4f525f434f4e54524f4c4c455200000000000000000060448201526064016109f0565b600086815260086020908152604080832060ff881684526001019091529020546001600160a01b0380871691160361298b5760405162461bcd60e51b815260206004820152600b60248201527f52554c455f45584953545300000000000000000000000000000000000000000060448201526064016109f0565b600086815260086020908152604080832060ff88168085526001909101835292819020805473ffffffffffffffffffffffffffffffffffffffff19166001600160a01b038a1690811790915581519081529182019290925287917f1abc00531586337cfd45709506ca0d48a44e1eb54325e589ec054ce83373e07a91015b60405180910390a2505050505050565b6003546001600160a01b03163314612a735760405162461bcd60e51b815260206004820152600760248201527f4e4f545f4445560000000000000000000000000000000000000000000000000060448201526064016109f0565b600354604080516001600160a01b03928316815291831660208301527fdec101f106d4fc7c85791843e64b198248c822298e3ed7046231d33f7783d816910160405180910390a16003805473ffffffffffffffffffffffffffffffffffffffff19166001600160a01b0392909216919091179055565b60008281526008602052604090206007015482904210612b3e5760405162461bcd60e51b815260206004820152601060248201526f1413d31650d5531157d156141254915160821b60448201526064016109f0565b6000818152600860205260408082206002015460015491516302571be360e01b8152600481018290529092916001600160a01b0316906302571be390602401602060405180830381865afa158015612b9a573d6000803e3d6000fd5b505050506040513d601f19601f82011682018060405250810190612bbe9190614b18565b90506001600160a01b038116331480612bfa57506001600160a01b038116600090815260096020908152604080832033845290915290205460ff165b80612c1e57506000838152600860205260409020600601546001600160a01b031633145b612c6a5760405162461bcd60e51b815260206004820152601760248201527f4e4f545f4f574e45525f4f525f434f4e54524f4c4c455200000000000000000060448201526064016109f0565b600085815260086020908152604080832060030180548251818502810185019093528083529192909190830182828015612cc357602002820191906000526020600020905b815481526020019060010190808311612caf575b505050600089815260086020908152604080832080548251818502810185019093528083529697509295909450919250830182828015612d4057602002820191906000526020600020906000905b825461010083900a900460ff16815260206001928301818104948501949093039092029101808411612d115790505b50505050509050612d5a828761430f90919063ffffffff16565b1561244f576000612d6b87846143b1565b90506000600860008a81526020019081526020016000206001016000848481518110612d9957612d99614a82565b602002602001015160ff1660ff16815260200190815260200160002060006101000a8154816001600160a01b0302191690836001600160a01b03160217905550600860008981526020019081526020016000206003018181548110612e0057612e00614a82565b600091825260208083209091018290558982526008905260409020805482908110612e2d57612e2d614a82565b90600052602060002090602091828204019190066101000a81549060ff0219169055877f5c379d054844760656a56e062f50208b458cfa0c4427574f5a2828d19602b4e98860405161244191815260200190565b60008151835103612e9457506001611d2f565b506000611d2f565b3360008181526009602090815260408083206001600160a01b0387168085529083529281902080547fffffffffffffffffffffffffffffffffffffffffffffffffffffffffffffff001686151590811790915590519081529192917f17307eab39ab6107e8899845ad3d59bd9653f200f220920489ca2b5937696c31910160405180910390a35050565b6001546040516302571be360e01b81526004810184905260009182916001600160a01b03909116906302571be390602401602060405180830381865afa158015612f74573d6000803e3d6000fd5b505050506040513d601f19601f82011682018060405250810190612f989190614b18565b6001600160a01b0390811660009081526009602090815260408083209387168352929052205460ff1691505092915050565b6003546001600160a01b031633146130245760405162461bcd60e51b815260206004820152600760248201527f4e4f545f4445560000000000000000000000000000000000000000000000000060448201526064016109f0565b600080546001600160a01b0380851673ffffffffffffffffffffffffffffffffffffffff1992831681179093556002805491851691909216179055604080517f642a8ed6000000000000000000000000000000000000000000000000000000008152905163642a8ed6916004808201926080929091908290030181865afa1580156130b3573d6000803e3d6000fd5b505050506040513d601f19601f820116820180604052508101906130d79190614b35565b606001516004908155600254604080517fbd9a548b00000000000000000000000000000000000000000000000000000000815290516001600160a01b039092169263bd9a548b9282820192608092908290030181865afa15801561313f573d6000803e3d6000fd5b505050506040513d601f19601f820116820180604052508101906131639190614b35565b60600151600555600054604080517f4d3f733400000000000000000000000000000000000000000000000000000000815290516001600160a01b0390921691634d3f7334916004808201926080929091908290030181865afa1580156131cd573d6000803e3d6000fd5b505050506040513d601f19601f820116820180604052508101906131f19190614b95565b600360200201516006805473ffffffffffffffffffffffffffffffffffffffff19166001600160a01b039092169190911790555050565b6000828152600860205260409020600701548290421061327d5760405162461bcd60e51b815260206004820152601060248201526f1413d31650d5531157d156141254915160821b60448201526064016109f0565b6000818152600860205260408082206002015460015491516302571be360e01b8152600481018290529092916001600160a01b0316906302571be390602401602060405180830381865afa1580156132d9573d6000803e3d6000fd5b505050506040513d601f19601f820116820180604052508101906132fd9190614b18565b90506001600160a01b03811633148061333957506001600160a01b038116600090815260096020908152604080832033845290915290205460ff165b8061335d57506000838152600860205260409020600601546001600160a01b031633145b6133a95760405162461bcd60e51b815260206004820152601760248201527f4e4f545f4f574e45525f4f525f434f4e54524f4c4c455200000000000000000060448201526064016109f0565b60008581526008602090815260408083208054825181850281018501909352808352919290919083018282801561341d57602002820191906000526020600020906000905b825461010083900a900460ff168152602060019283018181049485019490930390920291018084116133ee5790505b5050505050905061343a818660ff1661436290919063ffffffff16565b1561353a57600061344e60ff8716836143f7565b600088815260086020908152604080832060ff8b168085526001909101835292819020805473ffffffffffffffffffffffffffffffffffffffff191690555191825291925088917ff975f0cee916e0c09312f138a17c70e178a4c2186f302a6f085a6d5273cd1051910160405180910390a260008781526008602052604090208054829081106134e0576134e0614a82565b90600052602060002090602091828204019190066101000a81549060ff021916905560086000888152602001908152602001600020600301818154811061352957613529614a82565b60009182526020822001555061356c565b6040517fe8dd1d3e00000000000000000000000000000000000000000000000000000000815260040160405180910390fd5b505050505050565b600081815260086020526040812060070154829042106135c95760405162461bcd60e51b815260206004820152601060248201526f1413d31650d5531157d156141254915160821b60448201526064016109f0565b505060009081526008602052604090206004015490565b6000828152600860205260408082206002015460015491516302571be360e01b815260048101829052859391926001600160a01b0316906302571be390602401602060405180830381865afa15801561363d573d6000803e3d6000fd5b505050506040513d601f19601f820116820180604052508101906136619190614b18565b6006549091506001600160a01b031633148061368557506001600160a01b03811633145b806136b357506001600160a01b038116600090815260096020908152604080832033845290915290205460ff165b806136d757506000838152600860205260409020600601546001600160a01b031633145b6137235760405162461bcd60e51b815260206004820152600e60248201527f4e4f545f415554484f524953454400000000000000000000000000000000000060448201526064016109f0565b60008581526008602052604090819020600601805486151574010000000000000000000000000000000000000000027fffffffffffffffffffffff00ffffffffffffffffffffffffffffffffffffffff9091161790555185907fe6ccdb52b4954ab2c3e293f1dbfe593e6c5630962a1944bfcf20c5563eeb846290610e4a90871515815260200190565b6000828152600860205260408082206002015460015491516302571be360e01b815260048101829052859391926001600160a01b0316906302571be390602401602060405180830381865afa15801561380a573d6000803e3d6000fd5b505050506040513d601f19601f8201168201806040525081019061382e9190614b18565b6006549091506001600160a01b031633148061385257506001600160a01b03811633145b8061388057506001600160a01b038116600090815260096020908152604080832033845290915290205460ff165b806138a457506000838152600860205260409020600601546001600160a01b031633145b6138f05760405162461bcd60e51b815260206004820152600e60248201527f4e4f545f415554484f524953454400000000000000000000000000000000000060448201526064016109f0565b600085815260086020908152604091829020600601805473ffffffffffffffffffffffffffffffffffffffff19166001600160a01b038816908117909155915191825286917fe5108446a6097aab57fd36f346a515a78fddefa87d81662d44e0d7a463f920959101610e4a565b6000828152600860205260408082206002015460015491516302571be360e01b815260048101829052859391926001600160a01b0316906302571be390602401602060405180830381865afa1580156139ba573d6000803e3d6000fd5b505050506040513d601f19601f820116820180604052508101906139de9190614b18565b6006549091506001600160a01b0316331480613a0257506001600160a01b03811633145b80613a3057506001600160a01b038116600090815260096020908152604080832033845290915290205460ff165b80613a5457506000838152600860205260409020600601546001600160a01b031633145b613aa05760405162461bcd60e51b815260206004820152600e60248201527f4e4f545f415554484f524953454400000000000000000000000000000000000060448201526064016109f0565b600085815260086020908152604091829020600501805473ffffffffffffffffffffffffffffffffffffffff19166001600160a01b038816908117909155915191825286917fcb71326aeaad88869e8be8be2893e1119f7617ce4ea2411af127e218909be1f79101610e4a565b60008181526008602052604081206007015482904210613b625760405162461bcd60e51b815260206004820152601060248201526f1413d31650d5531157d156141254915160821b60448201526064016109f0565b50506000908152600860205260409020600601546001600160a01b031690565b60008481526008602052604090206007015484904210613bd75760405162461bcd60e51b815260206004820152601060248201526f1413d31650d5531157d156141254915160821b60448201526064016109f0565b6000818152600860205260408082206002015460015491516302571be360e01b8152600481018290529092916001600160a01b0316906302571be390602401602060405180830381865afa158015613c33573d6000803e3d6000fd5b505050506040513d601f19601f82011682018060405250810190613c579190614b18565b90506001600160a01b038116331480613c9357506001600160a01b038116600090815260096020908152604080832033845290915290205460ff165b80613cb757506000838152600860205260409020600601546001600160a01b031633145b613d035760405162461bcd60e51b815260206004820152601760248201527f4e4f545f4f574e45525f4f525f434f4e54524f4c4c455200000000000000000060448201526064016109f0565b613d0d87876142a3565b613d595760405162461bcd60e51b815260206004820152600c60248201527f414e494f4e5f455849535453000000000000000000000000000000000000000060448201526064016109f0565b613d638785611ca1565b613daf5760405162461bcd60e51b815260206004820152600b60248201527f484f4f4b5f45584953545300000000000000000000000000000000000000000060448201526064016109f0565b600087815260086020908152604080832060ff881684526001019091529020546001600160a01b03808716911603613e295760405162461bcd60e51b815260206004820152600b60248201527f52554c455f45584953545300000000000000000000000000000000000000000060448201526064016109f0565b600087815260086020908152604080832060038101805460018181018355918652848620018b90558154808201835582865284862085820401805460ff808d16601f9094166101000a8481029102199091161790559094529290920190525187907f600ffddd29393ca43c0a11fa6b0b7096631364178cb42f9d546c0a2cd22525ee90613eb99089815260200190565b60405180910390a2604080516001600160a01b038716815260ff8616602082015288917fc733a2bc621cc97eef6ed4f708f126e72e6acb76c0a1c0461c9dd31f7b98706591016115f0565b60008281526008602052604090206007015482904210613f595760405162461bcd60e51b815260206004820152601060248201526f1413d31650d5531157d156141254915160821b60448201526064016109f0565b6000818152600860205260408082206002015460015491516302571be360e01b8152600481018290529092916001600160a01b0316906302571be390602401602060405180830381865afa158015613fb5573d6000803e3d6000fd5b505050506040513d601f19601f82011682018060405250810190613fd99190614b18565b90506001600160a01b03811633148061401557506001600160a01b038116600090815260096020908152604080832033845290915290205460ff165b8061403957506000838152600860205260409020600601546001600160a01b031633145b6140855760405162461bcd60e51b815260206004820152601760248201527f4e4f545f4f574e45525f4f525f434f4e54524f4c4c455200000000000000000060448201526064016109f0565b60008581526008602052604090206007015484116140e55760405162461bcd60e51b815260206004820152600a60248201527f4241445f4558504952590000000000000000000000000000000000000000000060448201526064016109f0565b6000858152600860205260408120600701546141019086614bf3565b9050600554816141119190614c06565b3410156141605760405162461bcd60e51b815260206004820152601260248201527f494e53554646494349454e545f4554484552000000000000000000000000000060448201526064016109f0565b600086815260086020526040908190206007018690555186907fa620b72378ee464490805a96e25b53e5c0076f0ce2d28f9691ae255a595b3bf390612a099088815260200190565b600081815260086020526040812060070154829042106141fd5760405162461bcd60e51b815260206004820152601060248201526f1413d31650d5531157d156141254915160821b60448201526064016109f0565b6000838152600860205260408082206002015460015491516302571be360e01b8152600481018290529092916001600160a01b0316906302571be390602401602060405180830381865afa158015614259573d6000803e3d6000fd5b505050506040513d601f19601f8201168201806040525081019061427d9190614b18565b9050306001600160a01b0382160361429b5760045493505050610a17565b509392505050565b60008281526008602090815260408083206003018054825181850281018501909352808352611d2b938301828280156142fb57602002820191906000526020600020905b8154815260200190600101908083116142e7575b50505050508361430f90919063ffffffff16565b6000805b8251811015614358578383828151811061432f5761432f614a82565b602002602001015103614346576001915050611d2f565b8061435081614ae0565b915050614313565b5060009392505050565b6000805b8251811015614358578360ff1683828151811061438557614385614a82565b602002602001015160ff160361439f576001915050611d2f565b806143a981614ae0565b915050614366565b6000805b825181101561435857838382815181106143d1576143d1614a82565b6020026020010151036143e5579050611d2f565b806143ef81614ae0565b9150506143b5565b6000805b8251811015614358578360ff1683828151811061441a5761441a614a82565b602002602001015160ff1603614431579050611d2f565b8061443b81614ae0565b9150506143fb565b50805460008255601f0160209004906000526020600020908101906125249190614482565b508054600082559060005260206000209081019061252491905b5b808211156144975760008155600101614483565b5090565b6000602082840312156144ad57600080fd5b5035919050565b604080825283519082018190526000906020906060840190828701845b828110156144f057815160ff16845292840192908401906001016144d1565b5050508381038285015284518082528583019183019060005b8181101561452e5783516001600160a01b031683529284019291840191600101614509565b5090979650505050505050565b6020808252825182820181905260009190848201906040850190845b8181101561457357835183529284019291840191600101614557565b50909695505050505050565b6001600160a01b038116811461252457600080fd5b600080604083850312156145a757600080fd5b8235915060208301356145b98161457f565b809150509250929050565b600080604083850312156145d757600080fd5b50508035926020909101359150565b7f4e487b7100000000000000000000000000000000000000000000000000000000600052604160045260246000fd5b6040516080810167ffffffffffffffff81118282101715614638576146386145e6565b60405290565b604051601f82017fffffffffffffffffffffffffffffffffffffffffffffffffffffffffffffffe016810167ffffffffffffffff81118282101715614685576146856145e6565b604052919050565b600067ffffffffffffffff8211156146a7576146a76145e6565b5060051b60200190565b600082601f8301126146c257600080fd5b813560206146d76146d28361468d565b61463e565b82815260059290921b840181019181810190868411156146f657600080fd5b8286015b8481101561471157803583529183019183016146fa565b509695505050505050565b803560ff8116811461472d57600080fd5b919050565b600082601f83011261474357600080fd5b813560206147536146d28361468d565b82815260059290921b8401810191818101908684111561477257600080fd5b8286015b84811015614711576147878161471c565b8352918301918301614776565b600080600080608085870312156147aa57600080fd5b8435935060208086013567ffffffffffffffff808211156147ca57600080fd5b6147d689838a016146b1565b955060408801359150808211156147ec57600080fd5b818801915088601f83011261480057600080fd5b813561480e6146d28261468d565b81815260059190911b8301840190848101908b83111561482d57600080fd5b938501935b828510156148545784356148458161457f565b82529385019390850190614832565b96505050606088013592508083111561486c57600080fd5b505061487a87828801614732565b91505092959194509250565b6000806000806080858703121561489c57600080fd5b843593506020850135925060408501356148b58161457f565b91506148c36060860161471c565b905092959194509250565b600080604083850312156148e157600080fd5b823591506148f16020840161471c565b90509250929050565b60008060006060848603121561490f57600080fd5b8335925061491f6020850161471c565b9150604084013590509250925092565b60008060006060848603121561494457600080fd5b8335925060208401356149568161457f565b91506149646040850161471c565b90509250925092565b60006020828403121561497f57600080fd5b813561498a8161457f565b9392505050565b600080604083850312156149a457600080fd5b823567ffffffffffffffff808211156149bc57600080fd5b6149c8868387016146b1565b935060208501359150808211156149de57600080fd5b506149eb85828601614732565b9150509250929050565b8035801515811461472d57600080fd5b60008060408385031215614a1857600080fd5b8235614a238161457f565b91506148f1602084016149f5565b60008060408385031215614a4457600080fd5b8235614a4f8161457f565b915060208301356145b98161457f565b60008060408385031215614a7257600080fd5b823591506148f1602084016149f5565b7f4e487b7100000000000000000000000000000000000000000000000000000000600052603260045260246000fd5b7f4e487b7100000000000000000000000000000000000000000000000000000000600052601160045260246000fd5b60007fffffffffffffffffffffffffffffffffffffffffffffffffffffffffffffffff8203614b1157614b11614ab1565b5060010190565b600060208284031215614b2a57600080fd5b815161498a8161457f565b600060808284031215614b4757600080fd5b82601f830112614b5657600080fd5b614b5e614615565b806080840185811115614b7057600080fd5b845b81811015614b8a578051845260209384019301614b72565b509095945050505050565b600060808284031215614ba757600080fd5b82601f830112614bb657600080fd5b614bbe614615565b806080840185811115614bd057600080fd5b845b81811015614b8a578051614be58161457f565b845260209384019301614bd2565b81810381811115611d2f57611d2f614ab1565b6000817fffffffffffffffffffffffffffffffffffffffffffffffffffffffffffffffff0483118215151615614c3e57614c3e614ab1565b50029056fea264697066735822122091f544597877fea81232fc39152568daba3420c3b8082e455ab9869c382206aa64736f6c63430008100033",
    "linkReferences": {}
  },
  "methodIdentifiers": {
    "Dev()": "01e51ae8",
    "HELIX2()": "b782426e",
    "NAMES()": "05e84aa0",
    "PRICES()": "1eabcd34",
    "Polycules(bytes32)": "75c4f68e",
    "Registrar()": "b9f37c86",
    "active()": "02fb0c5e",
    "addAnion(bytes32,bytes32,address,uint8)": "e73f8060",
    "alias_(bytes32)": "c5bc4c0b",
    "anion(bytes32)": "0e68b116",
    "basePrice()": "c7876ea4",
    "cation(bytes32)": "f61ccd53",
    "changeDev(address)": "88a8c95c",
    "controller(bytes32)": "dbd4e021",
    "covalence(bytes32)": "34026859",
    "expiry(bytes32)": "d2ec5fca",
    "hook(bytes32,bytes32,address,uint8)": "4475bf4b",
    "hooksWithRules(bytes32)": "0aac6625",
    "isApprovedForAll(bytes32,address)": "b0698628",
    "isLegalMap(bytes32[],uint8[])": "9f09d9f3",
    "isNotDuplicateAnion(bytes32,bytes32)": "f8c91244",
    "isNotDuplicateHook(bytes32,uint8)": "4d505584",
    "popAnion(bytes32,bytes32)": "8dcad139",
    "recordExists(bytes32)": "f79fe538",
    "register(bytes32,bytes32)": "2f926732",
    "rehook(bytes32,address,uint8)": "83669726",
    "rehook(bytes32,uint8,bytes32)": "5b55b376",
    "renew(bytes32,uint256)": "f544d82f",
    "resolver(bytes32)": "0178b8bf",
    "roothash()": "251c9422",
    "setAlias(bytes32,bytes32)": "1f06e91c",
    "setAnions(bytes32,bytes32[],address[],uint8[])": "250548b9",
    "setApprovalForAll(address,bool)": "a22cb465",
    "setCation(bytes32,bytes32)": "8146970a",
    "setConfig(address,address)": "b602024b",
    "setController(bytes32,address)": "d3156905",
    "setCovalence(bytes32,bool)": "d07699aa",
    "setExpiry(bytes32,uint256)": "39de6469",
    "setRecord(bytes32,address)": "d9b76ed4",
    "setResolver(bytes32,address)": "1896f70a",
    "theEnd()": "22b68deb",
    "toggleActive()": "29c68dc1",
    "unhook(bytes32,bytes32)": "516aeda0",
    "unhook(bytes32,uint8)": "b612e9b9",
    "unhookAll(bytes32)": "21ec2b5b",
    "withdrawEther()": "7362377b"
  },
  "id": 41
}